{
  "_format": "hh-sol-artifact-1",
  "contractName": "FlightPolicy",
  "sourceName": "contracts/FlightPolicy.sol",
  "abi": [
    {
      "inputs": [],
      "stateMutability": "nonpayable",
      "type": "constructor"
    },
    {
      "inputs": [
        {
          "internalType": "uint256",
          "name": "activeDuration",
          "type": "uint256"
        },
        {
          "internalType": "uint256",
          "name": "premium",
          "type": "uint256"
        },
        {
          "internalType": "uint256",
          "name": "delayPayout",
          "type": "uint256"
        },
        {
          "internalType": "uint256",
          "name": "delayThreshold",
          "type": "uint256"
        },
        {
          "internalType": "uint256",
          "name": "maxPayout",
          "type": "uint256"
        }
      ],
      "name": "createPolicyTemplate",
      "outputs": [
        {
          "internalType": "uint256",
          "name": "",
          "type": "uint256"
        }
      ],
      "stateMutability": "nonpayable",
      "type": "function"
    },
    {
      "inputs": [
        {
          "internalType": "uint256",
          "name": "templateId",
          "type": "uint256"
        }
      ],
      "name": "deletePolicyTemplate",
      "outputs": [],
      "stateMutability": "nonpayable",
      "type": "function"
    },
    {
      "inputs": [],
      "name": "getAllPolicyTemplates",
      "outputs": [
        {
          "components": [
            {
              "internalType": "uint256",
              "name": "templateId",
              "type": "uint256"
            },
            {
              "internalType": "uint256",
              "name": "activeDuration",
              "type": "uint256"
            },
            {
              "internalType": "uint256",
              "name": "premium",
              "type": "uint256"
            },
            {
              "internalType": "uint256",
              "name": "delayPayout",
              "type": "uint256"
            },
            {
              "internalType": "uint256",
              "name": "delayThreshold",
              "type": "uint256"
            },
            {
              "internalType": "uint256",
              "name": "maxPayout",
              "type": "uint256"
            },
            {
              "internalType": "enum FlightPolicy.PolicyStatus",
              "name": "status",
              "type": "uint8"
            }
          ],
          "internalType": "struct FlightPolicy.PolicyTemplate[]",
          "name": "",
          "type": "tuple[]"
        }
      ],
      "stateMutability": "view",
      "type": "function"
    },
    {
      "inputs": [
        {
          "internalType": "address",
          "name": "user",
          "type": "address"
        }
      ],
      "name": "getPoliciesOf",
      "outputs": [
        {
          "components": [
            {
              "internalType": "uint256",
              "name": "policyId",
              "type": "uint256"
            },
            {
              "internalType": "uint256",
              "name": "templateId",
              "type": "uint256"
            },
            {
              "internalType": "string",
              "name": "flightNumber",
              "type": "string"
            },
            {
              "internalType": "uint256",
              "name": "departureTime",
              "type": "uint256"
            },
            {
              "internalType": "uint256",
              "name": "creationDate",
              "type": "uint256"
            },
            {
              "internalType": "uint256",
              "name": "payoutToDate",
              "type": "uint256"
            },
            {
              "internalType": "address",
              "name": "insured",
              "type": "address"
            },
            {
              "internalType": "enum FlightPolicy.PolicyStatus",
              "name": "status",
              "type": "uint8"
            }
          ],
          "internalType": "struct FlightPolicy.UserPolicy[]",
          "name": "",
          "type": "tuple[]"
        }
      ],
      "stateMutability": "view",
      "type": "function"
    },
    {
      "inputs": [
        {
          "internalType": "uint256",
          "name": "templateId",
          "type": "uint256"
        }
      ],
      "name": "getPolicyTemplate",
      "outputs": [
        {
          "components": [
            {
              "internalType": "uint256",
              "name": "templateId",
              "type": "uint256"
            },
            {
              "internalType": "uint256",
              "name": "activeDuration",
              "type": "uint256"
            },
            {
              "internalType": "uint256",
              "name": "premium",
              "type": "uint256"
            },
            {
              "internalType": "uint256",
              "name": "delayPayout",
              "type": "uint256"
            },
            {
              "internalType": "uint256",
              "name": "delayThreshold",
              "type": "uint256"
            },
            {
              "internalType": "uint256",
              "name": "maxPayout",
              "type": "uint256"
            },
            {
              "internalType": "enum FlightPolicy.PolicyStatus",
              "name": "status",
              "type": "uint8"
            }
          ],
          "internalType": "struct FlightPolicy.PolicyTemplate",
          "name": "",
          "type": "tuple"
        }
      ],
      "stateMutability": "view",
      "type": "function"
    },
    {
      "inputs": [],
      "name": "insurerAddress",
      "outputs": [
        {
          "internalType": "address",
          "name": "",
          "type": "address"
        }
      ],
      "stateMutability": "view",
      "type": "function"
    },
    {
      "inputs": [
        {
          "internalType": "address",
          "name": "user",
          "type": "address"
        },
        {
          "internalType": "uint256",
          "name": "policyId",
          "type": "uint256"
        }
      ],
      "name": "markAsClaimed",
      "outputs": [],
      "stateMutability": "nonpayable",
      "type": "function"
    },
    {
      "inputs": [
        {
          "internalType": "uint256",
          "name": "templateId",
          "type": "uint256"
        },
        {
          "internalType": "string",
          "name": "flightNumber",
          "type": "string"
        },
        {
          "internalType": "uint256",
          "name": "departureTime",
          "type": "uint256"
        },
        {
          "internalType": "address",
          "name": "buyer",
          "type": "address"
        }
      ],
      "name": "purchasePolicy",
      "outputs": [
        {
          "internalType": "uint256",
          "name": "",
          "type": "uint256"
        }
      ],
      "stateMutability": "nonpayable",
      "type": "function"
    },
    {
      "inputs": [],
      "name": "templateCounter",
      "outputs": [
        {
          "internalType": "uint256",
          "name": "",
          "type": "uint256"
        }
      ],
      "stateMutability": "view",
      "type": "function"
    },
    {
      "inputs": [
        {
          "internalType": "uint256",
          "name": "",
          "type": "uint256"
        }
      ],
      "name": "templates",
      "outputs": [
        {
          "internalType": "uint256",
          "name": "templateId",
          "type": "uint256"
        },
        {
          "internalType": "uint256",
          "name": "activeDuration",
          "type": "uint256"
        },
        {
          "internalType": "uint256",
          "name": "premium",
          "type": "uint256"
        },
        {
          "internalType": "uint256",
          "name": "delayPayout",
          "type": "uint256"
        },
        {
          "internalType": "uint256",
          "name": "delayThreshold",
          "type": "uint256"
        },
        {
          "internalType": "uint256",
          "name": "maxPayout",
          "type": "uint256"
        },
        {
          "internalType": "enum FlightPolicy.PolicyStatus",
          "name": "status",
          "type": "uint8"
        }
      ],
      "stateMutability": "view",
      "type": "function"
    },
    {
      "inputs": [
        {
          "internalType": "address",
          "name": "",
          "type": "address"
        },
        {
          "internalType": "uint256",
          "name": "",
          "type": "uint256"
        }
      ],
      "name": "userPolicies",
      "outputs": [
        {
          "internalType": "uint256",
          "name": "policyId",
          "type": "uint256"
        },
        {
          "internalType": "uint256",
          "name": "templateId",
          "type": "uint256"
        },
        {
          "internalType": "string",
          "name": "flightNumber",
          "type": "string"
        },
        {
          "internalType": "uint256",
          "name": "departureTime",
          "type": "uint256"
        },
        {
          "internalType": "uint256",
          "name": "creationDate",
          "type": "uint256"
        },
        {
          "internalType": "uint256",
          "name": "payoutToDate",
          "type": "uint256"
        },
        {
          "internalType": "address",
          "name": "insured",
          "type": "address"
        },
        {
          "internalType": "enum FlightPolicy.PolicyStatus",
          "name": "status",
          "type": "uint8"
        }
      ],
      "stateMutability": "view",
      "type": "function"
    },
    {
      "inputs": [],
      "name": "userPolicyCounter",
      "outputs": [
        {
          "internalType": "uint256",
          "name": "",
          "type": "uint256"
        }
      ],
      "stateMutability": "view",
      "type": "function"
    }
  ],
  "bytecode": "0x60a060405260008055600060015534801561001957600080fd5b503373ffffffffffffffffffffffffffffffffffffffff1660808173ffffffffffffffffffffffffffffffffffffffff168152505060805161210b61007e6000396000818161094d01528181610af001528181610cbd0152610de6015261210b6000f3fe608060405234801561001057600080fd5b50600436106100b35760003560e01c80639c148cb7116100715780639c148cb7146101b95780639c3168d8146101d5578063a7c0900e146101f3578063bc52565214610211578063d285680d14610247578063f461f7c614610265576100b3565b8062c84c04146100b85780633d36adc5146100d65780638f2d94341461010d57806390d595bd1461013d5780639585234e1461016d5780639a3ef47614610189575b600080fd5b6100c0610295565b6040516100cd919061127d565b60405180910390f35b6100f060048036038101906100eb919061133d565b61036b565b60405161010498979695949392919061143a565b60405180910390f35b610127600480360381019061012291906115f4565b610485565b6040516101349190611677565b60405180910390f35b61015760048036038101906101529190611692565b610854565b604051610164919061174d565b60405180910390f35b6101876004803603810190610182919061133d565b61094b565b005b6101a3600480360381019061019e9190611768565b610aec565b6040516101b09190611677565b60405180910390f35b6101d360048036038101906101ce9190611692565b610cbb565b005b6101dd610dde565b6040516101ea9190611677565b60405180910390f35b6101fb610de4565b60405161020891906117e3565b60405180910390f35b61022b60048036038101906102269190611692565b610e08565b60405161023e97969594939291906117fe565b60405180910390f35b61024f610e67565b60405161025c9190611677565b60405180910390f35b61027f600480360381019061027a919061186d565b610e6d565b60405161028c9190611a65565b60405180910390f35b60606002805480602002602001604051908101604052809291908181526020016000905b8282101561036257838290600052602060002090600702016040518060e00160405290816000820154815260200160018201548152602001600282015481526020016003820154815260200160048201548152602001600582015481526020016006820160009054906101000a900460ff16600381111561033d5761033c6110f5565b5b600381111561034f5761034e6110f5565b5b81525050815260200190600101906102b9565b50505050905090565b6003602052816000526040600020818154811061038757600080fd5b9060005260206000209060070201600091509150508060000154908060010154908060020180546103b790611ab6565b80601f01602080910402602001604051908101604052809291908181526020018280546103e390611ab6565b80156104305780601f1061040557610100808354040283529160200191610430565b820191906000526020600020905b81548152906001019060200180831161041357829003601f168201915b5050505050908060030154908060040154908060050154908060060160009054906101000a900473ffffffffffffffffffffffffffffffffffffffff16908060060160149054906101000a900460ff16905088565b6000805485106104ca576040517f08c379a00000000000000000000000000000000000000000000000000000000081526004016104c190611b33565b60405180910390fd5b6000600286815481106104e0576104df611b53565b5b90600052602060002090600702016040518060e00160405290816000820154815260200160018201548152602001600282015481526020016003820154815260200160048201548152602001600582015481526020016006820160009054906101000a900460ff16600381111561055a576105596110f5565b5b600381111561056c5761056b6110f5565b5b81525050905060006003811115610586576105856110f5565b5b8160c00151600381111561059d5761059c6110f5565b5b146105dd576040517f08c379a00000000000000000000000000000000000000000000000000000000081526004016105d490611bce565b60405180910390fd5b42841161061f576040517f08c379a000000000000000000000000000000000000000000000000000000000815260040161061690611c3a565b60405180910390fd5b600360008473ffffffffffffffffffffffffffffffffffffffff1673ffffffffffffffffffffffffffffffffffffffff168152602001908152602001600020604051806101000160405280600360008773ffffffffffffffffffffffffffffffffffffffff1673ffffffffffffffffffffffffffffffffffffffff168152602001908152602001600020805490508152602001888152602001878152602001868152602001428152602001600081526020018573ffffffffffffffffffffffffffffffffffffffff16815260200160006003811115610701576107006110f5565b5b8152509080600181540180825580915050600190039060005260206000209060070201600090919091909150600082015181600001556020820151816001015560408201518160020190816107569190611e06565b50606082015181600301556080820151816004015560a0820151816005015560c08201518160060160006101000a81548173ffffffffffffffffffffffffffffffffffffffff021916908373ffffffffffffffffffffffffffffffffffffffff16021790555060e08201518160060160146101000a81548160ff021916908360038111156107e7576107e66110f5565b5b021790555050506001600081548092919061080190611f07565b9190505550600360008473ffffffffffffffffffffffffffffffffffffffff1673ffffffffffffffffffffffffffffffffffffffff16815260200190815260200160002080549050915050949350505050565b61085c611061565b60005482106108a0576040517f08c379a000000000000000000000000000000000000000000000000000000000815260040161089790611f9b565b60405180910390fd5b600282815481106108b4576108b3611b53565b5b90600052602060002090600702016040518060e00160405290816000820154815260200160018201548152602001600282015481526020016003820154815260200160048201548152602001600582015481526020016006820160009054906101000a900460ff16600381111561092e5761092d6110f5565b5b60038111156109405761093f6110f5565b5b815250509050919050565b7f000000000000000000000000000000000000000000000000000000000000000073ffffffffffffffffffffffffffffffffffffffff163273ffffffffffffffffffffffffffffffffffffffff16146109d9576040517f08c379a00000000000000000000000000000000000000000000000000000000081526004016109d090612007565b60405180910390fd5b600360008373ffffffffffffffffffffffffffffffffffffffff1673ffffffffffffffffffffffffffffffffffffffff168152602001908152602001600020805490508110610a5d576040517f08c379a0000000000000000000000000000000000000000000000000000000008152600401610a5490612073565b60405180910390fd5b6002600360008473ffffffffffffffffffffffffffffffffffffffff1673ffffffffffffffffffffffffffffffffffffffff1681526020019081526020016000208281548110610ab057610aaf611b53565b5b906000526020600020906007020160060160146101000a81548160ff02191690836003811115610ae357610ae26110f5565b5b02179055505050565b60007f000000000000000000000000000000000000000000000000000000000000000073ffffffffffffffffffffffffffffffffffffffff163273ffffffffffffffffffffffffffffffffffffffff1614610b7c576040517f08c379a0000000000000000000000000000000000000000000000000000000008152600401610b7390612007565b60405180910390fd5b60026040518060e001604052806000548152602001888152602001670de0b6b3a764000088610bab9190612093565b8152602001670de0b6b3a764000087610bc49190612093565b8152602001858152602001670de0b6b3a764000085610be39190612093565b815260200160006003811115610bfc57610bfb6110f5565b5b8152509080600181540180825580915050600190039060005260206000209060070201600090919091909150600082015181600001556020820151816001015560408201518160020155606082015181600301556080820151816004015560a0820151816005015560c08201518160060160006101000a81548160ff02191690836003811115610c8f57610c8e6110f5565b5b02179055505050600080815480929190610ca890611f07565b9190505550600054905095945050505050565b7f000000000000000000000000000000000000000000000000000000000000000073ffffffffffffffffffffffffffffffffffffffff163273ffffffffffffffffffffffffffffffffffffffff1614610d49576040517f08c379a0000000000000000000000000000000000000000000000000000000008152600401610d4090612007565b60405180910390fd5b6000548110610d8d576040517f08c379a0000000000000000000000000000000000000000000000000000000008152600401610d8490611f9b565b60405180910390fd5b600360028281548110610da357610da2611b53565b5b906000526020600020906007020160060160006101000a81548160ff02191690836003811115610dd657610dd56110f5565b5b021790555050565b60015481565b7f000000000000000000000000000000000000000000000000000000000000000081565b60028181548110610e1857600080fd5b90600052602060002090600702016000915090508060000154908060010154908060020154908060030154908060040154908060050154908060060160009054906101000a900460ff16905087565b60005481565b6060600360008373ffffffffffffffffffffffffffffffffffffffff1673ffffffffffffffffffffffffffffffffffffffff168152602001908152602001600020805480602002602001604051908101604052809291908181526020016000905b828210156110565783829060005260206000209060070201604051806101000160405290816000820154815260200160018201548152602001600282018054610f1690611ab6565b80601f0160208091040260200160405190810160405280929190818152602001828054610f4290611ab6565b8015610f8f5780601f10610f6457610100808354040283529160200191610f8f565b820191906000526020600020905b815481529060010190602001808311610f7257829003601f168201915b505050505081526020016003820154815260200160048201548152602001600582015481526020016006820160009054906101000a900473ffffffffffffffffffffffffffffffffffffffff1673ffffffffffffffffffffffffffffffffffffffff1673ffffffffffffffffffffffffffffffffffffffff1681526020016006820160149054906101000a900460ff166003811115611031576110306110f5565b5b6003811115611043576110426110f5565b5b8152505081526020019060010190610ece565b505050509050919050565b6040518060e00160405280600081526020016000815260200160008152602001600081526020016000815260200160008152602001600060038111156110aa576110a96110f5565b5b81525090565b600081519050919050565b600082825260208201905092915050565b6000819050602082019050919050565b6000819050919050565b6110ef816110dc565b82525050565b7f4e487b7100000000000000000000000000000000000000000000000000000000600052602160045260246000fd5b60048110611135576111346110f5565b5b50565b600081905061114682611124565b919050565b600061115682611138565b9050919050565b6111668161114b565b82525050565b60e08201600082015161118260008501826110e6565b50602082015161119560208501826110e6565b5060408201516111a860408501826110e6565b5060608201516111bb60608501826110e6565b5060808201516111ce60808501826110e6565b5060a08201516111e160a08501826110e6565b5060c08201516111f460c085018261115d565b50505050565b6000611206838361116c565b60e08301905092915050565b6000602082019050919050565b600061122a826110b0565b61123481856110bb565b935061123f836110cc565b8060005b8381101561127057815161125788826111fa565b975061126283611212565b925050600181019050611243565b5085935050505092915050565b60006020820190508181036000830152611297818461121f565b905092915050565b6000604051905090565b600080fd5b600080fd5b600073ffffffffffffffffffffffffffffffffffffffff82169050919050565b60006112de826112b3565b9050919050565b6112ee816112d3565b81146112f957600080fd5b50565b60008135905061130b816112e5565b92915050565b61131a816110dc565b811461132557600080fd5b50565b60008135905061133781611311565b92915050565b60008060408385031215611354576113536112a9565b5b6000611362858286016112fc565b925050602061137385828601611328565b9150509250929050565b611386816110dc565b82525050565b600081519050919050565b600082825260208201905092915050565b60005b838110156113c65780820151818401526020810190506113ab565b60008484015250505050565b6000601f19601f8301169050919050565b60006113ee8261138c565b6113f88185611397565b93506114088185602086016113a8565b611411816113d2565b840191505092915050565b611425816112d3565b82525050565b6114348161114b565b82525050565b600061010082019050611450600083018b61137d565b61145d602083018a61137d565b818103604083015261146f81896113e3565b905061147e606083018861137d565b61148b608083018761137d565b61149860a083018661137d565b6114a560c083018561141c565b6114b260e083018461142b565b9998505050505050505050565b600080fd5b600080fd5b7f4e487b7100000000000000000000000000000000000000000000000000000000600052604160045260246000fd5b611501826113d2565b810181811067ffffffffffffffff821117156115205761151f6114c9565b5b80604052505050565b600061153361129f565b905061153f82826114f8565b919050565b600067ffffffffffffffff82111561155f5761155e6114c9565b5b611568826113d2565b9050602081019050919050565b82818337600083830152505050565b600061159761159284611544565b611529565b9050828152602081018484840111156115b3576115b26114c4565b5b6115be848285611575565b509392505050565b600082601f8301126115db576115da6114bf565b5b81356115eb848260208601611584565b91505092915050565b6000806000806080858703121561160e5761160d6112a9565b5b600061161c87828801611328565b945050602085013567ffffffffffffffff81111561163d5761163c6112ae565b5b611649878288016115c6565b935050604061165a87828801611328565b925050606061166b878288016112fc565b91505092959194509250565b600060208201905061168c600083018461137d565b92915050565b6000602082840312156116a8576116a76112a9565b5b60006116b684828501611328565b91505092915050565b60e0820160008201516116d560008501826110e6565b5060208201516116e860208501826110e6565b5060408201516116fb60408501826110e6565b50606082015161170e60608501826110e6565b50608082015161172160808501826110e6565b5060a082015161173460a08501826110e6565b5060c082015161174760c085018261115d565b50505050565b600060e08201905061176260008301846116bf565b92915050565b600080600080600060a08688031215611784576117836112a9565b5b600061179288828901611328565b95505060206117a388828901611328565b94505060406117b488828901611328565b93505060606117c588828901611328565b92505060806117d688828901611328565b9150509295509295909350565b60006020820190506117f8600083018461141c565b92915050565b600060e082019050611813600083018a61137d565b611820602083018961137d565b61182d604083018861137d565b61183a606083018761137d565b611847608083018661137d565b61185460a083018561137d565b61186160c083018461142b565b98975050505050505050565b600060208284031215611883576118826112a9565b5b6000611891848285016112fc565b91505092915050565b600081519050919050565b600082825260208201905092915050565b6000819050602082019050919050565b600082825260208201905092915050565b60006118e28261138c565b6118ec81856118c6565b93506118fc8185602086016113a8565b611905816113d2565b840191505092915050565b611919816112d3565b82525050565b60006101008301600083015161193860008601826110e6565b50602083015161194b60208601826110e6565b506040830151848203604086015261196382826118d7565b915050606083015161197860608601826110e6565b50608083015161198b60808601826110e6565b5060a083015161199e60a08601826110e6565b5060c08301516119b160c0860182611910565b5060e08301516119c460e086018261115d565b508091505092915050565b60006119db838361191f565b905092915050565b6000602082019050919050565b60006119fb8261189a565b611a0581856118a5565b935083602082028501611a17856118b6565b8060005b85811015611a535784840389528151611a3485826119cf565b9450611a3f836119e3565b925060208a01995050600181019050611a1b565b50829750879550505050505092915050565b60006020820190508181036000830152611a7f81846119f0565b905092915050565b7f4e487b7100000000000000000000000000000000000000000000000000000000600052602260045260246000fd5b60006002820490506001821680611ace57607f821691505b602082108103611ae157611ae0611a87565b5b50919050565b7f496e76616c69642074656d706c61746500000000000000000000000000000000600082015250565b6000611b1d601083611397565b9150611b2882611ae7565b602082019050919050565b60006020820190508181036000830152611b4c81611b10565b9050919050565b7f4e487b7100000000000000000000000000000000000000000000000000000000600052603260045260246000fd5b7f54656d706c61746520697320646973636f6e74696e7565640000000000000000600082015250565b6000611bb8601883611397565b9150611bc382611b82565b602082019050919050565b60006020820190508181036000830152611be781611bab565b9050919050565b7f466c69676874206d75737420626520696e207468652066757475726500000000600082015250565b6000611c24601c83611397565b9150611c2f82611bee565b602082019050919050565b60006020820190508181036000830152611c5381611c17565b9050919050565b60008190508160005260206000209050919050565b60006020601f8301049050919050565b600082821b905092915050565b600060088302611cbc7fffffffffffffffffffffffffffffffffffffffffffffffffffffffffffffffff82611c7f565b611cc68683611c7f565b95508019841693508086168417925050509392505050565b6000819050919050565b6000611d03611cfe611cf9846110dc565b611cde565b6110dc565b9050919050565b6000819050919050565b611d1d83611ce8565b611d31611d2982611d0a565b848454611c8c565b825550505050565b600090565b611d46611d39565b611d51818484611d14565b505050565b5b81811015611d7557611d6a600082611d3e565b600181019050611d57565b5050565b601f821115611dba57611d8b81611c5a565b611d9484611c6f565b81016020851015611da3578190505b611db7611daf85611c6f565b830182611d56565b50505b505050565b600082821c905092915050565b6000611ddd60001984600802611dbf565b1980831691505092915050565b6000611df68383611dcc565b9150826002028217905092915050565b611e0f8261138c565b67ffffffffffffffff811115611e2857611e276114c9565b5b611e328254611ab6565b611e3d828285611d79565b600060209050601f831160018114611e705760008415611e5e578287015190505b611e688582611dea565b865550611ed0565b601f198416611e7e86611c5a565b60005b82811015611ea657848901518255600182019150602085019450602081019050611e81565b86831015611ec35784890151611ebf601f891682611dcc565b8355505b6001600288020188555050505b505050505050565b7f4e487b7100000000000000000000000000000000000000000000000000000000600052601160045260246000fd5b6000611f12826110dc565b91507fffffffffffffffffffffffffffffffffffffffffffffffffffffffffffffffff8203611f4457611f43611ed8565b5b600182019050919050565b7f496e76616c69642074656d706c61746520494400000000000000000000000000600082015250565b6000611f85601383611397565b9150611f9082611f4f565b602082019050919050565b60006020820190508181036000830152611fb481611f78565b9050919050565b7f4f6e6c792074686520636f6d70616e792063616e2063616c6c20746869730000600082015250565b6000611ff1601e83611397565b9150611ffc82611fbb565b602082019050919050565b6000602082019050818103600083015261202081611fe4565b9050919050565b7f496e76616c696420706f6c696379204944000000000000000000000000000000600082015250565b600061205d601183611397565b915061206882612027565b602082019050919050565b6000602082019050818103600083015261208c81612050565b9050919050565b600061209e826110dc565b91506120a9836110dc565b92508282026120b7816110dc565b915082820484148315176120ce576120cd611ed8565b5b509291505056fea26469706673582212202dcf457ea61c792b77eb12935d29b06b2d7705ed8e8ea44a2049c178f560679f64736f6c63430008130033",
  "linkReferences": {},
  "deployedLinkReferences": {}
}