{
  "_format": "hh-sol-artifact-1",
  "contractName": "Insurer",
  "sourceName": "contracts/Insurer.sol",
  "abi": [
    {
      "inputs": [
        {
          "internalType": "address",
          "name": "_flightPolicyAddress",
          "type": "address"
        }
      ],
      "stateMutability": "nonpayable",
      "type": "constructor"
    },
    {
      "anonymous": false,
      "inputs": [
        {
          "indexed": false,
          "internalType": "uint256",
          "name": "amount",
          "type": "uint256"
        },
        {
          "indexed": false,
          "internalType": "address",
          "name": "recipient",
          "type": "address"
        }
      ],
      "name": "Payout",
      "type": "event"
    },
    {
      "anonymous": false,
      "inputs": [
        {
          "indexed": false,
          "internalType": "uint256",
          "name": "templateId",
          "type": "uint256"
        }
      ],
      "name": "PolicyAdded",
      "type": "event"
    },
    {
      "anonymous": false,
      "inputs": [
        {
          "indexed": false,
          "internalType": "uint256",
          "name": "policyId",
          "type": "uint256"
        }
      ],
      "name": "PolicyBought",
      "type": "event"
    },
    {
      "anonymous": false,
      "inputs": [
        {
          "indexed": false,
          "internalType": "uint256",
          "name": "templateId",
          "type": "uint256"
        }
      ],
      "name": "PolicyDeleted",
      "type": "event"
    },
    {
      "inputs": [
        {
          "internalType": "uint256",
          "name": "userPolicyIndex",
          "type": "uint256"
        }
      ],
      "name": "claimPolicy",
      "outputs": [],
      "stateMutability": "nonpayable",
      "type": "function"
    },
    {
      "inputs": [
        {
          "internalType": "uint256",
          "name": "activeDuration",
          "type": "uint256"
        },
        {
          "internalType": "uint256",
          "name": "premium",
          "type": "uint256"
        },
        {
          "internalType": "uint256",
          "name": "delayPayout",
          "type": "uint256"
        },
        {
          "internalType": "uint256",
          "name": "delayThreshold",
          "type": "uint256"
        },
        {
          "internalType": "uint256",
          "name": "maxPayout",
          "type": "uint256"
        }
      ],
      "name": "createPolicyTemplate",
      "outputs": [],
      "stateMutability": "nonpayable",
      "type": "function"
    },
    {
      "inputs": [
        {
          "internalType": "uint256",
          "name": "templateId",
          "type": "uint256"
        }
      ],
      "name": "deletePolicyTemplate",
      "outputs": [],
      "stateMutability": "nonpayable",
      "type": "function"
    },
    {
      "inputs": [],
      "name": "flightPolicy",
      "outputs": [
        {
          "internalType": "contract FlightPolicy",
          "name": "",
          "type": "address"
        }
      ],
      "stateMutability": "view",
      "type": "function"
    },
    {
      "inputs": [],
      "name": "getCompanyPolicies",
      "outputs": [
        {
          "components": [
            {
              "internalType": "uint256",
              "name": "templateId",
              "type": "uint256"
            },
            {
              "internalType": "uint256",
              "name": "activeDuration",
              "type": "uint256"
            },
            {
              "internalType": "uint256",
              "name": "premium",
              "type": "uint256"
            },
            {
              "internalType": "uint256",
              "name": "delayPayout",
              "type": "uint256"
            },
            {
              "internalType": "uint256",
              "name": "delayThreshold",
              "type": "uint256"
            },
            {
              "internalType": "uint256",
              "name": "maxPayout",
              "type": "uint256"
            },
            {
              "internalType": "enum FlightPolicy.PolicyStatus",
              "name": "status",
              "type": "uint8"
            }
          ],
          "internalType": "struct FlightPolicy.PolicyTemplate[]",
          "name": "",
          "type": "tuple[]"
        }
      ],
      "stateMutability": "view",
      "type": "function"
    },
    {
      "inputs": [
        {
          "internalType": "address",
          "name": "user",
          "type": "address"
        }
      ],
      "name": "getPolicyOfCustomer",
      "outputs": [
        {
          "components": [
            {
              "internalType": "uint256",
              "name": "policyId",
              "type": "uint256"
            },
            {
              "internalType": "uint256",
              "name": "templateId",
              "type": "uint256"
            },
            {
              "internalType": "string",
              "name": "flightNumber",
              "type": "string"
            },
            {
              "internalType": "uint256",
              "name": "departureTime",
              "type": "uint256"
            },
            {
              "internalType": "uint256",
              "name": "creationDate",
              "type": "uint256"
            },
            {
              "internalType": "uint256",
              "name": "payoutToDate",
              "type": "uint256"
            },
            {
              "internalType": "address",
              "name": "insured",
              "type": "address"
            },
            {
              "internalType": "enum FlightPolicy.PolicyStatus",
              "name": "status",
              "type": "uint8"
            }
          ],
          "internalType": "struct FlightPolicy.UserPolicy[]",
          "name": "",
          "type": "tuple[]"
        }
      ],
      "stateMutability": "view",
      "type": "function"
    },
    {
      "inputs": [],
      "name": "insurerAddress",
      "outputs": [
        {
          "internalType": "address",
          "name": "",
          "type": "address"
        }
      ],
      "stateMutability": "view",
      "type": "function"
    },
    {
      "inputs": [
        {
          "internalType": "address",
          "name": "user",
          "type": "address"
        }
      ],
      "name": "isCompany",
      "outputs": [
        {
          "internalType": "bool",
          "name": "",
          "type": "bool"
        }
      ],
      "stateMutability": "view",
      "type": "function"
    },
    {
      "inputs": [
        {
          "internalType": "uint256",
          "name": "templateId",
          "type": "uint256"
        },
        {
          "internalType": "string",
          "name": "flight",
          "type": "string"
        },
        {
          "internalType": "uint256",
          "name": "departureTime",
          "type": "uint256"
        }
      ],
      "name": "purchasePolicy",
      "outputs": [],
      "stateMutability": "payable",
      "type": "function"
    },
    {
      "inputs": [
        {
          "internalType": "uint256",
          "name": "amountInWei",
          "type": "uint256"
        }
      ],
      "name": "withdrawFunds",
      "outputs": [],
      "stateMutability": "nonpayable",
      "type": "function"
    },
    {
      "stateMutability": "payable",
      "type": "receive"
    }
  ],
  "bytecode": "0x60806040523480156200001157600080fd5b506040516200207438038062002074833981810160405281019062000037919062000129565b336000806101000a81548173ffffffffffffffffffffffffffffffffffffffff021916908373ffffffffffffffffffffffffffffffffffffffff16021790555080600160006101000a81548173ffffffffffffffffffffffffffffffffffffffff021916908373ffffffffffffffffffffffffffffffffffffffff160217905550506200015b565b600080fd5b600073ffffffffffffffffffffffffffffffffffffffff82169050919050565b6000620000f182620000c4565b9050919050565b6200010381620000e4565b81146200010f57600080fd5b50565b6000815190506200012381620000f8565b92915050565b600060208284031215620001425762000141620000bf565b5b6000620001528482850162000112565b91505092915050565b611f09806200016b6000396000f3fe6080604052600436106100955760003560e01c80639a3ef476116100595780639a3ef476146101655780639c148cb71461018e578063a0406ce2146101b7578063a7c0900e146101f4578063f100785d1461021f5761009c565b806307116510146100a1578063155dd5ee146100cc5780632aea118d146100f557806354f05c461461011e57806391dca8fc1461013a5761009c565b3661009c57005b600080fd5b3480156100ad57600080fd5b506100b661025c565b6040516100c39190610e2b565b60405180910390f35b3480156100d857600080fd5b506100f360048036038101906100ee9190610e90565b610282565b005b34801561010157600080fd5b5061011c60048036038101906101179190610e90565b6103bd565b005b61013860048036038101906101339190611003565b61070e565b005b34801561014657600080fd5b5061014f61091d565b60405161015c9190611235565b60405180910390f35b34801561017157600080fd5b5061018c60048036038101906101879190611257565b6109b9565b005b34801561019a57600080fd5b506101b560048036038101906101b09190610e90565b610b30565b005b3480156101c357600080fd5b506101de60048036038101906101d99190611310565b610c85565b6040516101eb9190611358565b60405180910390f35b34801561020057600080fd5b50610209610cde565b6040516102169190611382565b60405180910390f35b34801561022b57600080fd5b5061024660048036038101906102419190611310565b610d02565b604051610253919061159d565b60405180910390f35b600160009054906101000a900473ffffffffffffffffffffffffffffffffffffffff1681565b60008054906101000a900473ffffffffffffffffffffffffffffffffffffffff1673ffffffffffffffffffffffffffffffffffffffff163373ffffffffffffffffffffffffffffffffffffffff1614610310576040517f08c379a00000000000000000000000000000000000000000000000000000000081526004016103079061161c565b60405180910390fd5b47811115610353576040517f08c379a000000000000000000000000000000000000000000000000000000000815260040161034a90611688565b60405180910390fd5b60008054906101000a900473ffffffffffffffffffffffffffffffffffffffff1673ffffffffffffffffffffffffffffffffffffffff166108fc829081150290604051600060405180830381858888f193505050501580156103b9573d6000803e3d6000fd5b5050565b6000600160009054906101000a900473ffffffffffffffffffffffffffffffffffffffff1673ffffffffffffffffffffffffffffffffffffffff1663f461f7c6336040518263ffffffff1660e01b815260040161041a9190611382565b600060405180830381865afa158015610437573d6000803e3d6000fd5b505050506040513d6000823e3d601f19601f82011682018060405250810190610460919061193d565b9050805182106104a5576040517f08c379a000000000000000000000000000000000000000000000000000000000815260040161049c906119d2565b60405180910390fd5b60008183815181106104ba576104b96119f2565b5b602002602001015190506000600160009054906101000a900473ffffffffffffffffffffffffffffffffffffffff1673ffffffffffffffffffffffffffffffffffffffff166390d595bd83602001516040518263ffffffff1660e01b81526004016105259190611a30565b60e060405180830381865afa158015610542573d6000803e3d6000fd5b505050506040513d601f19601f820116820180604052508101906105669190611aff565b90506000600381111561057c5761057b6110ad565b5b8260e001516003811115610593576105926110ad565b5b146105d3576040517f08c379a00000000000000000000000000000000000000000000000000000000081526004016105ca90611b78565b60405180910390fd5b6000816060015190508160a001518111156105f0578160a0015190505b8260c0015173ffffffffffffffffffffffffffffffffffffffff166108fc829081150290604051600060405180830381858888f1935050505015801561063a573d6000803e3d6000fd5b50600160009054906101000a900473ffffffffffffffffffffffffffffffffffffffff1673ffffffffffffffffffffffffffffffffffffffff16639585234e33876040518363ffffffff1660e01b8152600401610698929190611b98565b600060405180830381600087803b1580156106b257600080fd5b505af11580156106c6573d6000803e3d6000fd5b505050507f9b5d1a613fa5f0790b36b13103706e31fca06b229d87e9915b29fc20c1d76490818460c001516040516106ff929190611bc1565b60405180910390a15050505050565b6000600160009054906101000a900473ffffffffffffffffffffffffffffffffffffffff1673ffffffffffffffffffffffffffffffffffffffff166390d595bd856040518263ffffffff1660e01b815260040161076b9190611a30565b60e060405180830381865afa158015610788573d6000803e3d6000fd5b505050506040513d601f19601f820116820180604052508101906107ac9190611aff565b905080604001513410156107f5576040517f08c379a00000000000000000000000000000000000000000000000000000000081526004016107ec90611c36565b60405180910390fd5b428211610837576040517f08c379a000000000000000000000000000000000000000000000000000000000815260040161082e90611ca2565b60405180910390fd5b6000600160009054906101000a900473ffffffffffffffffffffffffffffffffffffffff1673ffffffffffffffffffffffffffffffffffffffff16638f2d9434868686336040518563ffffffff1660e01b815260040161089a9493929190611cfb565b6020604051808303816000875af11580156108b9573d6000803e3d6000fd5b505050506040513d601f19601f820116820180604052508101906108dd9190611d47565b90507ff3cf5fd307f001315d25c07166fdae9ae7a2dfe6ad14071ca9a2e10733d307e78160405161090e9190611a30565b60405180910390a15050505050565b6060600160009054906101000a900473ffffffffffffffffffffffffffffffffffffffff1673ffffffffffffffffffffffffffffffffffffffff1662c84c046040518163ffffffff1660e01b8152600401600060405180830381865afa15801561098b573d6000803e3d6000fd5b505050506040513d6000823e3d601f19601f820116820180604052508101906109b49190611e37565b905090565b60008054906101000a900473ffffffffffffffffffffffffffffffffffffffff1673ffffffffffffffffffffffffffffffffffffffff163373ffffffffffffffffffffffffffffffffffffffff1614610a47576040517f08c379a0000000000000000000000000000000000000000000000000000000008152600401610a3e9061161c565b60405180910390fd5b6000600160009054906101000a900473ffffffffffffffffffffffffffffffffffffffff1673ffffffffffffffffffffffffffffffffffffffff16639a3ef47687878787876040518663ffffffff1660e01b8152600401610aac959493929190611e80565b6020604051808303816000875af1158015610acb573d6000803e3d6000fd5b505050506040513d601f19601f82011682018060405250810190610aef9190611d47565b90507f024a1db391c63d350ba33664c84386c69b2f4891094f69f737890d6cba9603fb81604051610b209190611a30565b60405180910390a1505050505050565b60008054906101000a900473ffffffffffffffffffffffffffffffffffffffff1673ffffffffffffffffffffffffffffffffffffffff163373ffffffffffffffffffffffffffffffffffffffff1614610bbe576040517f08c379a0000000000000000000000000000000000000000000000000000000008152600401610bb59061161c565b60405180910390fd5b600160009054906101000a900473ffffffffffffffffffffffffffffffffffffffff1673ffffffffffffffffffffffffffffffffffffffff16639c148cb7826040518263ffffffff1660e01b8152600401610c199190611a30565b600060405180830381600087803b158015610c3357600080fd5b505af1158015610c47573d6000803e3d6000fd5b505050507f433ab09ab993382af577c4a70f77dcc7cf149b5b52eb40d19b869664bfb5496d81604051610c7a9190611a30565b60405180910390a150565b60008060009054906101000a900473ffffffffffffffffffffffffffffffffffffffff1673ffffffffffffffffffffffffffffffffffffffff168273ffffffffffffffffffffffffffffffffffffffff16149050919050565b60008054906101000a900473ffffffffffffffffffffffffffffffffffffffff1681565b6060600160009054906101000a900473ffffffffffffffffffffffffffffffffffffffff1673ffffffffffffffffffffffffffffffffffffffff1663f461f7c6836040518263ffffffff1660e01b8152600401610d5f9190611382565b600060405180830381865afa158015610d7c573d6000803e3d6000fd5b505050506040513d6000823e3d601f19601f82011682018060405250810190610da5919061193d565b9050919050565b600073ffffffffffffffffffffffffffffffffffffffff82169050919050565b6000819050919050565b6000610df1610dec610de784610dac565b610dcc565b610dac565b9050919050565b6000610e0382610dd6565b9050919050565b6000610e1582610df8565b9050919050565b610e2581610e0a565b82525050565b6000602082019050610e406000830184610e1c565b92915050565b6000604051905090565b600080fd5b600080fd5b6000819050919050565b610e6d81610e5a565b8114610e7857600080fd5b50565b600081359050610e8a81610e64565b92915050565b600060208284031215610ea657610ea5610e50565b5b6000610eb484828501610e7b565b91505092915050565b600080fd5b600080fd5b6000601f19601f8301169050919050565b7f4e487b7100000000000000000000000000000000000000000000000000000000600052604160045260246000fd5b610f1082610ec7565b810181811067ffffffffffffffff82111715610f2f57610f2e610ed8565b5b80604052505050565b6000610f42610e46565b9050610f4e8282610f07565b919050565b600067ffffffffffffffff821115610f6e57610f6d610ed8565b5b610f7782610ec7565b9050602081019050919050565b82818337600083830152505050565b6000610fa6610fa184610f53565b610f38565b905082815260208101848484011115610fc257610fc1610ec2565b5b610fcd848285610f84565b509392505050565b600082601f830112610fea57610fe9610ebd565b5b8135610ffa848260208601610f93565b91505092915050565b60008060006060848603121561101c5761101b610e50565b5b600061102a86828701610e7b565b935050602084013567ffffffffffffffff81111561104b5761104a610e55565b5b61105786828701610fd5565b925050604061106886828701610e7b565b9150509250925092565b600081519050919050565b600082825260208201905092915050565b6000819050602082019050919050565b6110a781610e5a565b82525050565b7f4e487b7100000000000000000000000000000000000000000000000000000000600052602160045260246000fd5b600481106110ed576110ec6110ad565b5b50565b60008190506110fe826110dc565b919050565b600061110e826110f0565b9050919050565b61111e81611103565b82525050565b60e08201600082015161113a600085018261109e565b50602082015161114d602085018261109e565b506040820151611160604085018261109e565b506060820151611173606085018261109e565b506080820151611186608085018261109e565b5060a082015161119960a085018261109e565b5060c08201516111ac60c0850182611115565b50505050565b60006111be8383611124565b60e08301905092915050565b6000602082019050919050565b60006111e282611072565b6111ec818561107d565b93506111f78361108e565b8060005b8381101561122857815161120f88826111b2565b975061121a836111ca565b9250506001810190506111fb565b5085935050505092915050565b6000602082019050818103600083015261124f81846111d7565b905092915050565b600080600080600060a0868803121561127357611272610e50565b5b600061128188828901610e7b565b955050602061129288828901610e7b565b94505060406112a388828901610e7b565b93505060606112b488828901610e7b565b92505060806112c588828901610e7b565b9150509295509295909350565b60006112dd82610dac565b9050919050565b6112ed816112d2565b81146112f857600080fd5b50565b60008135905061130a816112e4565b92915050565b60006020828403121561132657611325610e50565b5b6000611334848285016112fb565b91505092915050565b60008115159050919050565b6113528161133d565b82525050565b600060208201905061136d6000830184611349565b92915050565b61137c816112d2565b82525050565b60006020820190506113976000830184611373565b92915050565b600081519050919050565b600082825260208201905092915050565b6000819050602082019050919050565b600081519050919050565b600082825260208201905092915050565b60005b838110156114035780820151818401526020810190506113e8565b60008484015250505050565b600061141a826113c9565b61142481856113d4565b93506114348185602086016113e5565b61143d81610ec7565b840191505092915050565b611451816112d2565b82525050565b600061010083016000830151611470600086018261109e565b506020830151611483602086018261109e565b506040830151848203604086015261149b828261140f565b91505060608301516114b0606086018261109e565b5060808301516114c3608086018261109e565b5060a08301516114d660a086018261109e565b5060c08301516114e960c0860182611448565b5060e08301516114fc60e0860182611115565b508091505092915050565b60006115138383611457565b905092915050565b6000602082019050919050565b60006115338261139d565b61153d81856113a8565b93508360208202850161154f856113b9565b8060005b8581101561158b578484038952815161156c8582611507565b94506115778361151b565b925060208a01995050600181019050611553565b50829750879550505050505092915050565b600060208201905081810360008301526115b78184611528565b905092915050565b600082825260208201905092915050565b7f4f6e6c7920636f6d70616e792063616e2063616c6c2074686973000000000000600082015250565b6000611606601a836115bf565b9150611611826115d0565b602082019050919050565b60006020820190508181036000830152611635816115f9565b9050919050565b7f496e73756666696369656e742062616c616e6365000000000000000000000000600082015250565b60006116726014836115bf565b915061167d8261163c565b602082019050919050565b600060208201905081810360008301526116a181611665565b9050919050565b600067ffffffffffffffff8211156116c3576116c2610ed8565b5b602082029050602081019050919050565b600080fd5b600080fd5b600080fd5b6000815190506116f281610e64565b92915050565b600061170b61170684610f53565b610f38565b90508281526020810184848401111561172757611726610ec2565b5b6117328482856113e5565b509392505050565b600082601f83011261174f5761174e610ebd565b5b815161175f8482602086016116f8565b91505092915050565b600081519050611777816112e4565b92915050565b6004811061178a57600080fd5b50565b60008151905061179c8161177d565b92915050565b600061010082840312156117b9576117b86116d9565b5b6117c4610100610f38565b905060006117d4848285016116e3565b60008301525060206117e8848285016116e3565b602083015250604082015167ffffffffffffffff81111561180c5761180b6116de565b5b6118188482850161173a565b604083015250606061182c848285016116e3565b6060830152506080611840848285016116e3565b60808301525060a0611854848285016116e3565b60a08301525060c061186884828501611768565b60c08301525060e061187c8482850161178d565b60e08301525092915050565b600061189b611896846116a8565b610f38565b905080838252602082019050602084028301858111156118be576118bd6116d4565b5b835b8181101561190557805167ffffffffffffffff8111156118e3576118e2610ebd565b5b8086016118f089826117a2565b855260208501945050506020810190506118c0565b5050509392505050565b600082601f83011261192457611923610ebd565b5b8151611934848260208601611888565b91505092915050565b60006020828403121561195357611952610e50565b5b600082015167ffffffffffffffff81111561197157611970610e55565b5b61197d8482850161190f565b91505092915050565b7f496e76616c696420706f6c69637920696e646578000000000000000000000000600082015250565b60006119bc6014836115bf565b91506119c782611986565b602082019050919050565b600060208201905081810360008301526119eb816119af565b9050919050565b7f4e487b7100000000000000000000000000000000000000000000000000000000600052603260045260246000fd5b611a2a81610e5a565b82525050565b6000602082019050611a456000830184611a21565b92915050565b600060e08284031215611a6157611a606116d9565b5b611a6b60e0610f38565b90506000611a7b848285016116e3565b6000830152506020611a8f848285016116e3565b6020830152506040611aa3848285016116e3565b6040830152506060611ab7848285016116e3565b6060830152506080611acb848285016116e3565b60808301525060a0611adf848285016116e3565b60a08301525060c0611af38482850161178d565b60c08301525092915050565b600060e08284031215611b1557611b14610e50565b5b6000611b2384828501611a4b565b91505092915050565b7f506f6c696379206973206e6f7420616374697665000000000000000000000000600082015250565b6000611b626014836115bf565b9150611b6d82611b2c565b602082019050919050565b60006020820190508181036000830152611b9181611b55565b9050919050565b6000604082019050611bad6000830185611373565b611bba6020830184611a21565b9392505050565b6000604082019050611bd66000830185611a21565b611be36020830184611373565b9392505050565b7f496e73756666696369656e74204554482073656e740000000000000000000000600082015250565b6000611c206015836115bf565b9150611c2b82611bea565b602082019050919050565b60006020820190508181036000830152611c4f81611c13565b9050919050565b7f466c69676874206d75737420626520696e207468652066757475726500000000600082015250565b6000611c8c601c836115bf565b9150611c9782611c56565b602082019050919050565b60006020820190508181036000830152611cbb81611c7f565b9050919050565b6000611ccd826113c9565b611cd781856115bf565b9350611ce78185602086016113e5565b611cf081610ec7565b840191505092915050565b6000608082019050611d106000830187611a21565b8181036020830152611d228186611cc2565b9050611d316040830185611a21565b611d3e6060830184611373565b95945050505050565b600060208284031215611d5d57611d5c610e50565b5b6000611d6b848285016116e3565b91505092915050565b600067ffffffffffffffff821115611d8f57611d8e610ed8565b5b602082029050602081019050919050565b6000611db3611dae84611d74565b610f38565b90508083825260208201905060e08402830185811115611dd657611dd56116d4565b5b835b81811015611dff5780611deb8882611a4b565b84526020840193505060e081019050611dd8565b5050509392505050565b600082601f830112611e1e57611e1d610ebd565b5b8151611e2e848260208601611da0565b91505092915050565b600060208284031215611e4d57611e4c610e50565b5b600082015167ffffffffffffffff811115611e6b57611e6a610e55565b5b611e7784828501611e09565b91505092915050565b600060a082019050611e956000830188611a21565b611ea26020830187611a21565b611eaf6040830186611a21565b611ebc6060830185611a21565b611ec96080830184611a21565b969550505050505056fea264697066735822122034bdba9d054583ac47e686add7e34294211ac5641357d0283bb0aae8839ebdce64736f6c63430008130033",
  "linkReferences": {},
  "deployedLinkReferences": {}
}