{
  "_format": "hh-sol-artifact-1",
  "contractName": "FlightPolicy",
  "sourceName": "contracts/FlightPolicy.sol",
  "abi": [
    {
      "inputs": [],
      "stateMutability": "nonpayable",
      "type": "constructor"
    },
    {
      "inputs": [
        {
          "internalType": "string",
          "name": "flightNumber",
          "type": "string"
        },
        {
          "internalType": "uint256",
          "name": "departureTime",
          "type": "uint256"
        },
        {
          "internalType": "address",
          "name": "policyHolder",
          "type": "address"
        },
        {
          "internalType": "uint256",
          "name": "policyIndex",
          "type": "uint256"
        }
      ],
      "name": "addFlightDetails",
      "outputs": [],
      "stateMutability": "nonpayable",
      "type": "function"
    },
    {
      "inputs": [
        {
          "internalType": "uint256",
          "name": "activeDuration",
          "type": "uint256"
        },
        {
          "internalType": "uint256",
          "name": "premium",
          "type": "uint256"
        },
        {
          "internalType": "uint256",
          "name": "delayPayout",
          "type": "uint256"
        },
        {
          "internalType": "uint256",
          "name": "delayThreshold",
          "type": "uint256"
        },
        {
          "internalType": "uint256",
          "name": "maxPayout",
          "type": "uint256"
        }
      ],
      "name": "createPolicy",
      "outputs": [
        {
          "internalType": "uint256",
          "name": "",
          "type": "uint256"
        }
      ],
      "stateMutability": "nonpayable",
      "type": "function"
    },
    {
      "inputs": [
        {
          "internalType": "uint256",
          "name": "policyTypeId",
          "type": "uint256"
        }
      ],
      "name": "deletePolicy",
      "outputs": [],
      "stateMutability": "nonpayable",
      "type": "function"
    },
    {
      "inputs": [],
      "name": "getAllPolicyTypes",
      "outputs": [
        {
          "components": [
            {
              "internalType": "uint256",
              "name": "policyId",
              "type": "uint256"
            },
            {
              "internalType": "uint256",
              "name": "numFlights",
              "type": "uint256"
            },
            {
              "internalType": "string[]",
              "name": "flightNumbers",
              "type": "string[]"
            },
            {
              "internalType": "uint256[]",
              "name": "departureTimes",
              "type": "uint256[]"
            },
            {
              "internalType": "uint256",
              "name": "creationDate",
              "type": "uint256"
            },
            {
              "internalType": "uint256",
              "name": "activeDuration",
              "type": "uint256"
            },
            {
              "internalType": "uint256",
              "name": "premium",
              "type": "uint256"
            },
            {
              "internalType": "uint256",
              "name": "delayPayout",
              "type": "uint256"
            },
            {
              "internalType": "uint256",
              "name": "delayThreshold",
              "type": "uint256"
            },
            {
              "internalType": "uint256",
              "name": "payoutToDate",
              "type": "uint256"
            },
            {
              "internalType": "uint256",
              "name": "maxPayout",
              "type": "uint256"
            },
            {
              "internalType": "address",
              "name": "insured",
              "type": "address"
            },
            {
              "internalType": "address",
              "name": "insurer",
              "type": "address"
            },
            {
              "internalType": "enum FlightPolicy.PolicyStatus",
              "name": "status",
              "type": "uint8"
            }
          ],
          "internalType": "struct FlightPolicy.policy[]",
          "name": "",
          "type": "tuple[]"
        }
      ],
      "stateMutability": "view",
      "type": "function"
    },
    {
      "inputs": [
        {
          "internalType": "uint256",
          "name": "policyType",
          "type": "uint256"
        }
      ],
      "name": "getPolicyDetails",
      "outputs": [
        {
          "components": [
            {
              "internalType": "uint256",
              "name": "policyId",
              "type": "uint256"
            },
            {
              "internalType": "uint256",
              "name": "numFlights",
              "type": "uint256"
            },
            {
              "internalType": "string[]",
              "name": "flightNumbers",
              "type": "string[]"
            },
            {
              "internalType": "uint256[]",
              "name": "departureTimes",
              "type": "uint256[]"
            },
            {
              "internalType": "uint256",
              "name": "creationDate",
              "type": "uint256"
            },
            {
              "internalType": "uint256",
              "name": "activeDuration",
              "type": "uint256"
            },
            {
              "internalType": "uint256",
              "name": "premium",
              "type": "uint256"
            },
            {
              "internalType": "uint256",
              "name": "delayPayout",
              "type": "uint256"
            },
            {
              "internalType": "uint256",
              "name": "delayThreshold",
              "type": "uint256"
            },
            {
              "internalType": "uint256",
              "name": "payoutToDate",
              "type": "uint256"
            },
            {
              "internalType": "uint256",
              "name": "maxPayout",
              "type": "uint256"
            },
            {
              "internalType": "address",
              "name": "insured",
              "type": "address"
            },
            {
              "internalType": "address",
              "name": "insurer",
              "type": "address"
            },
            {
              "internalType": "enum FlightPolicy.PolicyStatus",
              "name": "status",
              "type": "uint8"
            }
          ],
          "internalType": "struct FlightPolicy.policy",
          "name": "",
          "type": "tuple"
        }
      ],
      "stateMutability": "view",
      "type": "function"
    },
    {
      "inputs": [
        {
          "internalType": "address",
          "name": "insured",
          "type": "address"
        }
      ],
      "name": "getPolicyOfInsured",
      "outputs": [
        {
          "components": [
            {
              "internalType": "uint256",
              "name": "policyId",
              "type": "uint256"
            },
            {
              "internalType": "uint256",
              "name": "numFlights",
              "type": "uint256"
            },
            {
              "internalType": "string[]",
              "name": "flightNumbers",
              "type": "string[]"
            },
            {
              "internalType": "uint256[]",
              "name": "departureTimes",
              "type": "uint256[]"
            },
            {
              "internalType": "uint256",
              "name": "creationDate",
              "type": "uint256"
            },
            {
              "internalType": "uint256",
              "name": "activeDuration",
              "type": "uint256"
            },
            {
              "internalType": "uint256",
              "name": "premium",
              "type": "uint256"
            },
            {
              "internalType": "uint256",
              "name": "delayPayout",
              "type": "uint256"
            },
            {
              "internalType": "uint256",
              "name": "delayThreshold",
              "type": "uint256"
            },
            {
              "internalType": "uint256",
              "name": "payoutToDate",
              "type": "uint256"
            },
            {
              "internalType": "uint256",
              "name": "maxPayout",
              "type": "uint256"
            },
            {
              "internalType": "address",
              "name": "insured",
              "type": "address"
            },
            {
              "internalType": "address",
              "name": "insurer",
              "type": "address"
            },
            {
              "internalType": "enum FlightPolicy.PolicyStatus",
              "name": "status",
              "type": "uint8"
            }
          ],
          "internalType": "struct FlightPolicy.policy[]",
          "name": "",
          "type": "tuple[]"
        }
      ],
      "stateMutability": "view",
      "type": "function"
    },
    {
      "inputs": [
        {
          "internalType": "address",
          "name": "insured",
          "type": "address"
        }
      ],
      "name": "markAsClaimed",
      "outputs": [],
      "stateMutability": "nonpayable",
      "type": "function"
    },
    {
      "inputs": [],
      "name": "numPolicyTypes",
      "outputs": [
        {
          "internalType": "uint256",
          "name": "",
          "type": "uint256"
        }
      ],
      "stateMutability": "view",
      "type": "function"
    },
    {
      "inputs": [
        {
          "internalType": "address",
          "name": "",
          "type": "address"
        },
        {
          "internalType": "uint256",
          "name": "",
          "type": "uint256"
        }
      ],
      "name": "policyHolders",
      "outputs": [
        {
          "internalType": "uint256",
          "name": "policyId",
          "type": "uint256"
        },
        {
          "internalType": "uint256",
          "name": "numFlights",
          "type": "uint256"
        },
        {
          "internalType": "uint256",
          "name": "creationDate",
          "type": "uint256"
        },
        {
          "internalType": "uint256",
          "name": "activeDuration",
          "type": "uint256"
        },
        {
          "internalType": "uint256",
          "name": "premium",
          "type": "uint256"
        },
        {
          "internalType": "uint256",
          "name": "delayPayout",
          "type": "uint256"
        },
        {
          "internalType": "uint256",
          "name": "delayThreshold",
          "type": "uint256"
        },
        {
          "internalType": "uint256",
          "name": "payoutToDate",
          "type": "uint256"
        },
        {
          "internalType": "uint256",
          "name": "maxPayout",
          "type": "uint256"
        },
        {
          "internalType": "address",
          "name": "insured",
          "type": "address"
        },
        {
          "internalType": "address",
          "name": "insurer",
          "type": "address"
        },
        {
          "internalType": "enum FlightPolicy.PolicyStatus",
          "name": "status",
          "type": "uint8"
        }
      ],
      "stateMutability": "view",
      "type": "function"
    },
    {
      "inputs": [
        {
          "internalType": "uint256",
          "name": "",
          "type": "uint256"
        }
      ],
      "name": "policyTypes",
      "outputs": [
        {
          "internalType": "uint256",
          "name": "policyId",
          "type": "uint256"
        },
        {
          "internalType": "uint256",
          "name": "numFlights",
          "type": "uint256"
        },
        {
          "internalType": "uint256",
          "name": "creationDate",
          "type": "uint256"
        },
        {
          "internalType": "uint256",
          "name": "activeDuration",
          "type": "uint256"
        },
        {
          "internalType": "uint256",
          "name": "premium",
          "type": "uint256"
        },
        {
          "internalType": "uint256",
          "name": "delayPayout",
          "type": "uint256"
        },
        {
          "internalType": "uint256",
          "name": "delayThreshold",
          "type": "uint256"
        },
        {
          "internalType": "uint256",
          "name": "payoutToDate",
          "type": "uint256"
        },
        {
          "internalType": "uint256",
          "name": "maxPayout",
          "type": "uint256"
        },
        {
          "internalType": "address",
          "name": "insured",
          "type": "address"
        },
        {
          "internalType": "address",
          "name": "insurer",
          "type": "address"
        },
        {
          "internalType": "enum FlightPolicy.PolicyStatus",
          "name": "status",
          "type": "uint8"
        }
      ],
      "stateMutability": "view",
      "type": "function"
    },
    {
      "inputs": [
        {
          "internalType": "uint256",
          "name": "policyType",
          "type": "uint256"
        },
        {
          "internalType": "string",
          "name": "flightNumber",
          "type": "string"
        },
        {
          "internalType": "uint256",
          "name": "departureTime",
          "type": "uint256"
        },
        {
          "internalType": "address",
          "name": "policyHolder",
          "type": "address"
        }
      ],
      "name": "purchasePolicy",
      "outputs": [
        {
          "internalType": "uint256",
          "name": "",
          "type": "uint256"
        }
      ],
      "stateMutability": "nonpayable",
      "type": "function"
    }
  ],
  "bytecode": "0x60a06040526000805534801561001457600080fd5b503373ffffffffffffffffffffffffffffffffffffffff1660808173ffffffffffffffffffffffffffffffffffffffff1681525050608051612fe26100796000396000818161033301528181610528015281816117ae0152611ad40152612fe26000f3fe608060405234801561001057600080fd5b50600436106100a95760003560e01c80638f2d9434116100715780638f2d94341461016f578063bb5290681461019f578063cc038010146101da578063d0cc1e9b1461020a578063d51168b41461023a578063fed27c8f14610258576100a9565b80630d551060146100ae578063226f8817146100e95780633960abf41461010557806339ebeea71461012157806363b603001461013f575b600080fd5b6100c860048036038101906100c39190611e2b565b610274565b6040516100e09c9b9a99989796959493929190611f1f565b60405180910390f35b61010360048036038101906100fe9190612005565b610331565b005b61011f600480360381019061011a9190612178565b610526565b005b610129610763565b604051610136919061260f565b60405180910390f35b61015960048036038101906101549190612005565b610a35565b604051610166919061260f565b60405180910390f35b61018960048036038101906101849190612631565b610d46565b60405161019691906126b4565b60405180910390f35b6101b960048036038101906101b491906126cf565b6113d5565b6040516101d19c9b9a99989796959493929190611f1f565b60405180910390f35b6101f460048036038101906101ef9190611e2b565b61149f565b6040516102019190612844565b60405180910390f35b610224600480360381019061021f9190612866565b6117aa565b60405161023191906126b4565b60405180910390f35b610242611acc565b60405161024f91906126b4565b60405180910390f35b610272600480360381019061026d9190611e2b565b611ad2565b005b6001818154811061028457600080fd5b90600052602060002090600d020160009150905080600001549080600101549080600401549080600501549080600601549080600701549080600801549080600901549080600a01549080600b0160009054906101000a900473ffffffffffffffffffffffffffffffffffffffff169080600c0160009054906101000a900473ffffffffffffffffffffffffffffffffffffffff169080600c0160149054906101000a900460ff1690508c565b7f000000000000000000000000000000000000000000000000000000000000000073ffffffffffffffffffffffffffffffffffffffff163373ffffffffffffffffffffffffffffffffffffffff16146103bf576040517f08c379a00000000000000000000000000000000000000000000000000000000081526004016103b690612964565b60405180910390fd5b6000600260008373ffffffffffffffffffffffffffffffffffffffff1673ffffffffffffffffffffffffffffffffffffffff1681526020019081526020016000208054905011610444576040517f08c379a000000000000000000000000000000000000000000000000000000000815260040161043b906129d0565b60405180910390fd5b6000600260008373ffffffffffffffffffffffffffffffffffffffff1673ffffffffffffffffffffffffffffffffffffffff1681526020019081526020016000206001600260008573ffffffffffffffffffffffffffffffffffffffff1673ffffffffffffffffffffffffffffffffffffffff168152602001908152602001600020805490506104d49190612a1f565b815481106104e5576104e4612a53565b5b90600052602060002090600d02019050600281600c0160146101000a81548160ff0219169083600381111561051d5761051c611ea8565b5b02179055505050565b7f000000000000000000000000000000000000000000000000000000000000000073ffffffffffffffffffffffffffffffffffffffff163373ffffffffffffffffffffffffffffffffffffffff16146105b4576040517f08c379a00000000000000000000000000000000000000000000000000000000081526004016105ab90612964565b60405180910390fd5b600081116105f7576040517f08c379a00000000000000000000000000000000000000000000000000000000081526004016105ee90612ace565b60405180910390fd5b6000600260008473ffffffffffffffffffffffffffffffffffffffff1673ffffffffffffffffffffffffffffffffffffffff1681526020019081526020016000206001836106459190612a1f565b8154811061065657610655612a53565b5b90600052602060002090600d020190506000600381111561067a57610679611ea8565b5b81600c0160149054906101000a900460ff16600381111561069e5761069d611ea8565b5b146106de576040517f08c379a00000000000000000000000000000000000000000000000000000000081526004016106d590612b60565b60405180910390fd5b60018160010160008282546106f39190612b80565b9250508190555080600201859080600181540180825580915050600190039060005260206000200160009091909190915090816107309190612dc0565b50806003018490806001815401808255809150506001900390600052602060002001600090919091909150555050505050565b60606001805480602002602001604051908101604052809291908181526020016000905b82821015610a2c57838290600052602060002090600d0201604051806101c0016040529081600082015481526020016001820154815260200160028201805480602002602001604051908101604052809291908181526020016000905b8282101561089057838290600052602060002001805461080390612be3565b80601f016020809104026020016040519081016040528092919081815260200182805461082f90612be3565b801561087c5780601f106108515761010080835404028352916020019161087c565b820191906000526020600020905b81548152906001019060200180831161085f57829003601f168201915b5050505050815260200190600101906107e4565b505050508152602001600382018054806020026020016040519081016040528092919081815260200182805480156108e757602002820191906000526020600020905b8154815260200190600101908083116108d3575b50505050508152602001600482015481526020016005820154815260200160068201548152602001600782015481526020016008820154815260200160098201548152602001600a8201548152602001600b820160009054906101000a900473ffffffffffffffffffffffffffffffffffffffff1673ffffffffffffffffffffffffffffffffffffffff1673ffffffffffffffffffffffffffffffffffffffff168152602001600c820160009054906101000a900473ffffffffffffffffffffffffffffffffffffffff1673ffffffffffffffffffffffffffffffffffffffff1673ffffffffffffffffffffffffffffffffffffffff168152602001600c820160149054906101000a900460ff166003811115610a0757610a06611ea8565b5b6003811115610a1957610a18611ea8565b5b8152505081526020019060010190610787565b50505050905090565b6060600260008373ffffffffffffffffffffffffffffffffffffffff1673ffffffffffffffffffffffffffffffffffffffff168152602001908152602001600020805480602002602001604051908101604052809291908181526020016000905b82821015610d3b57838290600052602060002090600d0201604051806101c0016040529081600082015481526020016001820154815260200160028201805480602002602001604051908101604052809291908181526020016000905b82821015610b9f578382906000526020600020018054610b1290612be3565b80601f0160208091040260200160405190810160405280929190818152602001828054610b3e90612be3565b8015610b8b5780601f10610b6057610100808354040283529160200191610b8b565b820191906000526020600020905b815481529060010190602001808311610b6e57829003601f168201915b505050505081526020019060010190610af3565b50505050815260200160038201805480602002602001604051908101604052809291908181526020018280548015610bf657602002820191906000526020600020905b815481526020019060010190808311610be2575b50505050508152602001600482015481526020016005820154815260200160068201548152602001600782015481526020016008820154815260200160098201548152602001600a8201548152602001600b820160009054906101000a900473ffffffffffffffffffffffffffffffffffffffff1673ffffffffffffffffffffffffffffffffffffffff1673ffffffffffffffffffffffffffffffffffffffff168152602001600c820160009054906101000a900473ffffffffffffffffffffffffffffffffffffffff1673ffffffffffffffffffffffffffffffffffffffff1673ffffffffffffffffffffffffffffffffffffffff168152602001600c820160149054906101000a900460ff166003811115610d1657610d15611ea8565b5b6003811115610d2857610d27611ea8565b5b8152505081526020019060010190610a96565b505050509050919050565b60008085118015610d5957506000548511155b610d98576040517f08c379a0000000000000000000000000000000000000000000000000000000008152600401610d8f90612ede565b60405180910390fd5b600060018087610da89190612a1f565b81548110610db957610db8612a53565b5b90600052602060002090600d0201604051806101c0016040529081600082015481526020016001820154815260200160028201805480602002602001604051908101604052809291908181526020016000905b82821015610eb8578382906000526020600020018054610e2b90612be3565b80601f0160208091040260200160405190810160405280929190818152602001828054610e5790612be3565b8015610ea45780601f10610e7957610100808354040283529160200191610ea4565b820191906000526020600020905b815481529060010190602001808311610e8757829003601f168201915b505050505081526020019060010190610e0c565b50505050815260200160038201805480602002602001604051908101604052809291908181526020018280548015610f0f57602002820191906000526020600020905b815481526020019060010190808311610efb575b50505050508152602001600482015481526020016005820154815260200160068201548152602001600782015481526020016008820154815260200160098201548152602001600a8201548152602001600b820160009054906101000a900473ffffffffffffffffffffffffffffffffffffffff1673ffffffffffffffffffffffffffffffffffffffff1673ffffffffffffffffffffffffffffffffffffffff168152602001600c820160009054906101000a900473ffffffffffffffffffffffffffffffffffffffff1673ffffffffffffffffffffffffffffffffffffffff1673ffffffffffffffffffffffffffffffffffffffff168152602001600c820160149054906101000a900460ff16600381111561102f5761102e611ea8565b5b600381111561104157611040611ea8565b5b8152505090506000600381111561105b5761105a611ea8565b5b816101a00151600381111561107357611072611ea8565b5b146110b3576040517f08c379a00000000000000000000000000000000000000000000000000000000081526004016110aa90612f4a565b60405180910390fd5b606085816000815181106110ca576110c9612a53565b5b6020026020010181905250606085816000815181106110ec576110eb612a53565b5b6020026020010181815250506000604051806101c001604052806001600260008a73ffffffffffffffffffffffffffffffffffffffff1673ffffffffffffffffffffffffffffffffffffffff168152602001908152602001600020805490506111559190612b80565b8152602001600181526020018481526020018381526020014281526020018560a0015181526020018560c0015181526020018560e00151815260200185610100015181526020016000815260200185610140015181526020018773ffffffffffffffffffffffffffffffffffffffff1681526020013373ffffffffffffffffffffffffffffffffffffffff168152602001600060038111156111fa576111f9611ea8565b5b8152509050600260008773ffffffffffffffffffffffffffffffffffffffff1673ffffffffffffffffffffffffffffffffffffffff1681526020019081526020016000208190806001815401808255809150506001900390600052602060002090600d020160009091909190915060008201518160000155602082015181600101556040820151816002019080519060200190611298929190611c0d565b5060608201518160030190805190602001906112b5929190611c66565b506080820151816004015560a0820151816005015560c0820151816006015560e082015181600701556101008201518160080155610120820151816009015561014082015181600a015561016082015181600b0160006101000a81548173ffffffffffffffffffffffffffffffffffffffff021916908373ffffffffffffffffffffffffffffffffffffffff16021790555061018082015181600c0160006101000a81548173ffffffffffffffffffffffffffffffffffffffff021916908373ffffffffffffffffffffffffffffffffffffffff1602179055506101a082015181600c0160146101000a81548160ff021916908360038111156113bb576113ba611ea8565b5b021790555050508060000151945050505050949350505050565b600260205281600052604060002081815481106113f157600080fd5b90600052602060002090600d02016000915091505080600001549080600101549080600401549080600501549080600601549080600701549080600801549080600901549080600a01549080600b0160009054906101000a900473ffffffffffffffffffffffffffffffffffffffff169080600c0160009054906101000a900473ffffffffffffffffffffffffffffffffffffffff169080600c0160149054906101000a900460ff1690508c565b6114a7611cb3565b6000821180156114b957506000548211155b6114f8576040517f08c379a00000000000000000000000000000000000000000000000000000000081526004016114ef90612ede565b60405180910390fd5b600180836115069190612a1f565b8154811061151757611516612a53565b5b90600052602060002090600d0201604051806101c0016040529081600082015481526020016001820154815260200160028201805480602002602001604051908101604052809291908181526020016000905b8282101561161657838290600052602060002001805461158990612be3565b80601f01602080910402602001604051908101604052809291908181526020018280546115b590612be3565b80156116025780601f106115d757610100808354040283529160200191611602565b820191906000526020600020905b8154815290600101906020018083116115e557829003601f168201915b50505050508152602001906001019061156a565b5050505081526020016003820180548060200260200160405190810160405280929190818152602001828054801561166d57602002820191906000526020600020905b815481526020019060010190808311611659575b50505050508152602001600482015481526020016005820154815260200160068201548152602001600782015481526020016008820154815260200160098201548152602001600a8201548152602001600b820160009054906101000a900473ffffffffffffffffffffffffffffffffffffffff1673ffffffffffffffffffffffffffffffffffffffff1673ffffffffffffffffffffffffffffffffffffffff168152602001600c820160009054906101000a900473ffffffffffffffffffffffffffffffffffffffff1673ffffffffffffffffffffffffffffffffffffffff1673ffffffffffffffffffffffffffffffffffffffff168152602001600c820160149054906101000a900460ff16600381111561178d5761178c611ea8565b5b600381111561179f5761179e611ea8565b5b815250509050919050565b60007f000000000000000000000000000000000000000000000000000000000000000073ffffffffffffffffffffffffffffffffffffffff163373ffffffffffffffffffffffffffffffffffffffff161461183a576040517f08c379a000000000000000000000000000000000000000000000000000000000815260040161183190612964565b60405180910390fd5b6060806000604051806101c001604052806000815260200160008152602001848152602001838152602001600081526020018a8152602001670de0b6b3a76400008a6118869190612f6a565b8152602001670de0b6b3a76400008961189f9190612f6a565b815260200187815260200160008152602001670de0b6b3a7640000876118c59190612f6a565b8152602001600073ffffffffffffffffffffffffffffffffffffffff1681526020013373ffffffffffffffffffffffffffffffffffffffff1681526020016000600381111561191757611916611ea8565b5b815250905060018190806001815401808255809150506001900390600052602060002090600d020160009091909190915060008201518160000155602082015181600101556040820151816002019080519060200190611978929190611c0d565b506060820151816003019080519060200190611995929190611c66565b506080820151816004015560a0820151816005015560c0820151816006015560e082015181600701556101008201518160080155610120820151816009015561014082015181600a015561016082015181600b0160006101000a81548173ffffffffffffffffffffffffffffffffffffffff021916908373ffffffffffffffffffffffffffffffffffffffff16021790555061018082015181600c0160006101000a81548173ffffffffffffffffffffffffffffffffffffffff021916908373ffffffffffffffffffffffffffffffffffffffff1602179055506101a082015181600c0160146101000a81548160ff02191690836003811115611a9b57611a9a611ea8565b5b021790555050506001600080828254611ab49190612b80565b92505081905550600054935050505095945050505050565b60005481565b7f000000000000000000000000000000000000000000000000000000000000000073ffffffffffffffffffffffffffffffffffffffff163373ffffffffffffffffffffffffffffffffffffffff1614611b60576040517f08c379a0000000000000000000000000000000000000000000000000000000008152600401611b5790612964565b60405180910390fd5b600081118015611b7257506000548111155b611bb1576040517f08c379a0000000000000000000000000000000000000000000000000000000008152600401611ba890612ede565b60405180910390fd5b600360018083611bc19190612a1f565b81548110611bd257611bd1612a53565b5b90600052602060002090600d0201600c0160146101000a81548160ff02191690836003811115611c0557611c04611ea8565b5b021790555050565b828054828255906000526020600020908101928215611c55579160200282015b82811115611c54578251829081611c449190612dc0565b5091602001919060010190611c2d565b5b509050611c629190611d60565b5090565b828054828255906000526020600020908101928215611ca2579160200282015b82811115611ca1578251825591602001919060010190611c86565b5b509050611caf9190611d84565b5090565b604051806101c001604052806000815260200160008152602001606081526020016060815260200160008152602001600081526020016000815260200160008152602001600081526020016000815260200160008152602001600073ffffffffffffffffffffffffffffffffffffffff168152602001600073ffffffffffffffffffffffffffffffffffffffff16815260200160006003811115611d5a57611d59611ea8565b5b81525090565b5b80821115611d805760008181611d779190611da1565b50600101611d61565b5090565b5b80821115611d9d576000816000905550600101611d85565b5090565b508054611dad90612be3565b6000825580601f10611dbf5750611dde565b601f016020900490600052602060002090810190611ddd9190611d84565b5b50565b6000604051905090565b600080fd5b600080fd5b6000819050919050565b611e0881611df5565b8114611e1357600080fd5b50565b600081359050611e2581611dff565b92915050565b600060208284031215611e4157611e40611deb565b5b6000611e4f84828501611e16565b91505092915050565b611e6181611df5565b82525050565b600073ffffffffffffffffffffffffffffffffffffffff82169050919050565b6000611e9282611e67565b9050919050565b611ea281611e87565b82525050565b7f4e487b7100000000000000000000000000000000000000000000000000000000600052602160045260246000fd5b60048110611ee857611ee7611ea8565b5b50565b6000819050611ef982611ed7565b919050565b6000611f0982611eeb565b9050919050565b611f1981611efe565b82525050565b600061018082019050611f35600083018f611e58565b611f42602083018e611e58565b611f4f604083018d611e58565b611f5c606083018c611e58565b611f69608083018b611e58565b611f7660a083018a611e58565b611f8360c0830189611e58565b611f9060e0830188611e58565b611f9e610100830187611e58565b611fac610120830186611e99565b611fba610140830185611e99565b611fc8610160830184611f10565b9d9c50505050505050505050505050565b611fe281611e87565b8114611fed57600080fd5b50565b600081359050611fff81611fd9565b92915050565b60006020828403121561201b5761201a611deb565b5b600061202984828501611ff0565b91505092915050565b600080fd5b600080fd5b6000601f19601f8301169050919050565b7f4e487b7100000000000000000000000000000000000000000000000000000000600052604160045260246000fd5b6120858261203c565b810181811067ffffffffffffffff821117156120a4576120a361204d565b5b80604052505050565b60006120b7611de1565b90506120c3828261207c565b919050565b600067ffffffffffffffff8211156120e3576120e261204d565b5b6120ec8261203c565b9050602081019050919050565b82818337600083830152505050565b600061211b612116846120c8565b6120ad565b90508281526020810184848401111561213757612136612037565b5b6121428482856120f9565b509392505050565b600082601f83011261215f5761215e612032565b5b813561216f848260208601612108565b91505092915050565b6000806000806080858703121561219257612191611deb565b5b600085013567ffffffffffffffff8111156121b0576121af611df0565b5b6121bc8782880161214a565b94505060206121cd87828801611e16565b93505060406121de87828801611ff0565b92505060606121ef87828801611e16565b91505092959194509250565b600081519050919050565b600082825260208201905092915050565b6000819050602082019050919050565b61223081611df5565b82525050565b600081519050919050565b600082825260208201905092915050565b6000819050602082019050919050565b600081519050919050565b600082825260208201905092915050565b60005b8381101561229c578082015181840152602081019050612281565b60008484015250505050565b60006122b382612262565b6122bd818561226d565b93506122cd81856020860161227e565b6122d68161203c565b840191505092915050565b60006122ed83836122a8565b905092915050565b6000602082019050919050565b600061230d82612236565b6123178185612241565b93508360208202850161232985612252565b8060005b85811015612365578484038952815161234685826122e1565b9450612351836122f5565b925060208a0199505060018101905061232d565b50829750879550505050505092915050565b600081519050919050565b600082825260208201905092915050565b6000819050602082019050919050565b60006123af8383612227565b60208301905092915050565b6000602082019050919050565b60006123d382612377565b6123dd8185612382565b93506123e883612393565b8060005b8381101561241957815161240088826123a3565b975061240b836123bb565b9250506001810190506123ec565b5085935050505092915050565b61242f81611e87565b82525050565b61243e81611efe565b82525050565b60006101c08301600083015161245d6000860182612227565b5060208301516124706020860182612227565b50604083015184820360408601526124888282612302565b915050606083015184820360608601526124a282826123c8565b91505060808301516124b76080860182612227565b5060a08301516124ca60a0860182612227565b5060c08301516124dd60c0860182612227565b5060e08301516124f060e0860182612227565b50610100830151612505610100860182612227565b5061012083015161251a610120860182612227565b5061014083015161252f610140860182612227565b50610160830151612544610160860182612426565b50610180830151612559610180860182612426565b506101a083015161256e6101a0860182612435565b508091505092915050565b60006125858383612444565b905092915050565b6000602082019050919050565b60006125a5826121fb565b6125af8185612206565b9350836020820285016125c185612217565b8060005b858110156125fd57848403895281516125de8582612579565b94506125e98361258d565b925060208a019950506001810190506125c5565b50829750879550505050505092915050565b60006020820190508181036000830152612629818461259a565b905092915050565b6000806000806080858703121561264b5761264a611deb565b5b600061265987828801611e16565b945050602085013567ffffffffffffffff81111561267a57612679611df0565b5b6126868782880161214a565b935050604061269787828801611e16565b92505060606126a887828801611ff0565b91505092959194509250565b60006020820190506126c96000830184611e58565b92915050565b600080604083850312156126e6576126e5611deb565b5b60006126f485828601611ff0565b925050602061270585828601611e16565b9150509250929050565b60006101c0830160008301516127286000860182612227565b50602083015161273b6020860182612227565b50604083015184820360408601526127538282612302565b9150506060830151848203606086015261276d82826123c8565b91505060808301516127826080860182612227565b5060a083015161279560a0860182612227565b5060c08301516127a860c0860182612227565b5060e08301516127bb60e0860182612227565b506101008301516127d0610100860182612227565b506101208301516127e5610120860182612227565b506101408301516127fa610140860182612227565b5061016083015161280f610160860182612426565b50610180830151612824610180860182612426565b506101a08301516128396101a0860182612435565b508091505092915050565b6000602082019050818103600083015261285e818461270f565b905092915050565b600080600080600060a0868803121561288257612881611deb565b5b600061289088828901611e16565b95505060206128a188828901611e16565b94505060406128b288828901611e16565b93505060606128c388828901611e16565b92505060806128d488828901611e16565b9150509295509295909350565b600082825260208201905092915050565b7f506f6c6963792c204f6e6c7920746865206f776e65722063616e2063616c6c2060008201527f746869732066756e6374696f6e00000000000000000000000000000000000000602082015250565b600061294e602d836128e1565b9150612959826128f2565b604082019050919050565b6000602082019050818103600083015261297d81612941565b9050919050565b7f4e6f20706f6c696369657320617661696c61626c650000000000000000000000600082015250565b60006129ba6015836128e1565b91506129c582612984565b602082019050919050565b600060208201905081810360008301526129e9816129ad565b9050919050565b7f4e487b7100000000000000000000000000000000000000000000000000000000600052601160045260246000fd5b6000612a2a82611df5565b9150612a3583611df5565b9250828203905081811115612a4d57612a4c6129f0565b5b92915050565b7f4e487b7100000000000000000000000000000000000000000000000000000000600052603260045260246000fd5b7f496e76616c696420706f6c69637920696e646578000000000000000000000000600082015250565b6000612ab86014836128e1565b9150612ac382612a82565b602082019050919050565b60006020820190508181036000830152612ae781612aab565b9050919050565b7f506f6c69637920686173206265656e20636c61696d6564206f7220686173206560008201527f7870697265640000000000000000000000000000000000000000000000000000602082015250565b6000612b4a6026836128e1565b9150612b5582612aee565b604082019050919050565b60006020820190508181036000830152612b7981612b3d565b9050919050565b6000612b8b82611df5565b9150612b9683611df5565b9250828201905080821115612bae57612bad6129f0565b5b92915050565b7f4e487b7100000000000000000000000000000000000000000000000000000000600052602260045260246000fd5b60006002820490506001821680612bfb57607f821691505b602082108103612c0e57612c0d612bb4565b5b50919050565b60008190508160005260206000209050919050565b60006020601f8301049050919050565b600082821b905092915050565b600060088302612c767fffffffffffffffffffffffffffffffffffffffffffffffffffffffffffffffff82612c39565b612c808683612c39565b95508019841693508086168417925050509392505050565b6000819050919050565b6000612cbd612cb8612cb384611df5565b612c98565b611df5565b9050919050565b6000819050919050565b612cd783612ca2565b612ceb612ce382612cc4565b848454612c46565b825550505050565b600090565b612d00612cf3565b612d0b818484612cce565b505050565b5b81811015612d2f57612d24600082612cf8565b600181019050612d11565b5050565b601f821115612d7457612d4581612c14565b612d4e84612c29565b81016020851015612d5d578190505b612d71612d6985612c29565b830182612d10565b50505b505050565b600082821c905092915050565b6000612d9760001984600802612d79565b1980831691505092915050565b6000612db08383612d86565b9150826002028217905092915050565b612dc982612262565b67ffffffffffffffff811115612de257612de161204d565b5b612dec8254612be3565b612df7828285612d33565b600060209050601f831160018114612e2a5760008415612e18578287015190505b612e228582612da4565b865550612e8a565b601f198416612e3886612c14565b60005b82811015612e6057848901518255600182019150602085019450602081019050612e3b565b86831015612e7d5784890151612e79601f891682612d86565b8355505b6001600288020188555050505b505050505050565b7f496e76616c696420706f6c696379207479706500000000000000000000000000600082015250565b6000612ec86013836128e1565b9150612ed382612e92565b602082019050919050565b60006020820190508181036000830152612ef781612ebb565b9050919050565b7f5468697320706f6c696379207479706520697320646973636f6e74696e756564600082015250565b6000612f346020836128e1565b9150612f3f82612efe565b602082019050919050565b60006020820190508181036000830152612f6381612f27565b9050919050565b6000612f7582611df5565b9150612f8083611df5565b9250828202612f8e81611df5565b91508282048414831517612fa557612fa46129f0565b5b509291505056fea264697066735822122066a970eb16165bb3cac771d15c2c3e1bcdd3a80b1de8999a0bbdb1277b4d23f664736f6c63430008130033",
  "linkReferences": {},
  "deployedLinkReferences": {}
}