{
  "_format": "hh-sol-artifact-1",
  "contractName": "FlightPolicy",
  "sourceName": "contracts/FlightPolicy.sol",
  "abi": [
    {
      "inputs": [],
      "stateMutability": "nonpayable",
      "type": "constructor"
    },
    {
      "inputs": [
        {
          "internalType": "string",
          "name": "name",
          "type": "string"
        },
        {
          "internalType": "string",
          "name": "description",
          "type": "string"
        },
        {
          "internalType": "uint256",
          "name": "premium",
          "type": "uint256"
        },
        {
          "internalType": "uint256",
          "name": "payoutPerHour",
          "type": "uint256"
        },
        {
          "internalType": "uint256",
          "name": "delayThresholdHours",
          "type": "uint256"
        },
        {
          "internalType": "uint256",
          "name": "maxTotalPayout",
          "type": "uint256"
        },
        {
          "internalType": "uint256",
          "name": "coverageDurationDays",
          "type": "uint256"
        }
      ],
      "name": "createPolicyTemplate",
      "outputs": [
        {
          "internalType": "uint256",
          "name": "",
          "type": "uint256"
        }
      ],
      "stateMutability": "nonpayable",
      "type": "function"
    },
    {
      "inputs": [
        {
          "internalType": "uint256",
          "name": "templateId",
          "type": "uint256"
        }
      ],
      "name": "deactivatePolicyTemplate",
      "outputs": [],
      "stateMutability": "nonpayable",
      "type": "function"
    },
    {
      "inputs": [],
      "name": "getActivePolicyTemplates",
      "outputs": [
        {
          "components": [
            {
              "internalType": "uint256",
              "name": "templateId",
              "type": "uint256"
            },
            {
              "internalType": "string",
              "name": "name",
              "type": "string"
            },
            {
              "internalType": "string",
              "name": "description",
              "type": "string"
            },
            {
              "internalType": "uint256",
              "name": "createdAt",
              "type": "uint256"
            },
            {
              "internalType": "uint256",
              "name": "premium",
              "type": "uint256"
            },
            {
              "internalType": "uint256",
              "name": "payoutPerHour",
              "type": "uint256"
            },
            {
              "internalType": "uint256",
              "name": "delayThresholdHours",
              "type": "uint256"
            },
            {
              "internalType": "uint256",
              "name": "maxTotalPayout",
              "type": "uint256"
            },
            {
              "internalType": "uint256",
              "name": "coverageDurationDays",
              "type": "uint256"
            },
            {
              "internalType": "enum FlightPolicy.PolicyTemplateStatus",
              "name": "status",
              "type": "uint8"
            }
          ],
          "internalType": "struct FlightPolicy.PolicyTemplate[]",
          "name": "",
          "type": "tuple[]"
        }
      ],
      "stateMutability": "view",
      "type": "function"
    },
    {
      "inputs": [],
      "name": "getAllPolicyTemplates",
      "outputs": [
        {
          "components": [
            {
              "internalType": "uint256",
              "name": "templateId",
              "type": "uint256"
            },
            {
              "internalType": "string",
              "name": "name",
              "type": "string"
            },
            {
              "internalType": "string",
              "name": "description",
              "type": "string"
            },
            {
              "internalType": "uint256",
              "name": "createdAt",
              "type": "uint256"
            },
            {
              "internalType": "uint256",
              "name": "premium",
              "type": "uint256"
            },
            {
              "internalType": "uint256",
              "name": "payoutPerHour",
              "type": "uint256"
            },
            {
              "internalType": "uint256",
              "name": "delayThresholdHours",
              "type": "uint256"
            },
            {
              "internalType": "uint256",
              "name": "maxTotalPayout",
              "type": "uint256"
            },
            {
              "internalType": "uint256",
              "name": "coverageDurationDays",
              "type": "uint256"
            },
            {
              "internalType": "enum FlightPolicy.PolicyTemplateStatus",
              "name": "status",
              "type": "uint8"
            }
          ],
          "internalType": "struct FlightPolicy.PolicyTemplate[]",
          "name": "",
          "type": "tuple[]"
        }
      ],
      "stateMutability": "view",
      "type": "function"
    },
    {
      "inputs": [
        {
          "internalType": "uint256",
          "name": "templateId",
          "type": "uint256"
        }
      ],
      "name": "getPolicyTemplateById",
      "outputs": [
        {
          "components": [
            {
              "internalType": "uint256",
              "name": "templateId",
              "type": "uint256"
            },
            {
              "internalType": "string",
              "name": "name",
              "type": "string"
            },
            {
              "internalType": "string",
              "name": "description",
              "type": "string"
            },
            {
              "internalType": "uint256",
              "name": "createdAt",
              "type": "uint256"
            },
            {
              "internalType": "uint256",
              "name": "premium",
              "type": "uint256"
            },
            {
              "internalType": "uint256",
              "name": "payoutPerHour",
              "type": "uint256"
            },
            {
              "internalType": "uint256",
              "name": "delayThresholdHours",
              "type": "uint256"
            },
            {
              "internalType": "uint256",
              "name": "maxTotalPayout",
              "type": "uint256"
            },
            {
              "internalType": "uint256",
              "name": "coverageDurationDays",
              "type": "uint256"
            },
            {
              "internalType": "enum FlightPolicy.PolicyTemplateStatus",
              "name": "status",
              "type": "uint8"
            }
          ],
          "internalType": "struct FlightPolicy.PolicyTemplate",
          "name": "",
          "type": "tuple"
        }
      ],
      "stateMutability": "view",
      "type": "function"
    },
    {
      "inputs": [
        {
          "internalType": "address",
          "name": "user",
          "type": "address"
        }
      ],
      "name": "getUserPolicies",
      "outputs": [
        {
          "components": [
            {
              "internalType": "uint256",
              "name": "policyId",
              "type": "uint256"
            },
            {
              "internalType": "uint256",
              "name": "templateId",
              "type": "uint256"
            },
            {
              "internalType": "string",
              "name": "flightNumber",
              "type": "string"
            },
            {
              "internalType": "string",
              "name": "departureAirportCode",
              "type": "string"
            },
            {
              "internalType": "string",
              "name": "arrivalAirportCode",
              "type": "string"
            },
            {
              "internalType": "uint256",
              "name": "departureTime",
              "type": "uint256"
            },
            {
              "internalType": "uint256",
              "name": "createdAt",
              "type": "uint256"
            },
            {
              "internalType": "uint256",
              "name": "payoutToDate",
              "type": "uint256"
            },
            {
              "internalType": "address",
              "name": "buyer",
              "type": "address"
            },
            {
              "internalType": "enum FlightPolicy.PolicyStatus",
              "name": "status",
              "type": "uint8"
            }
          ],
          "internalType": "struct FlightPolicy.UserPolicy[]",
          "name": "",
          "type": "tuple[]"
        }
      ],
      "stateMutability": "view",
      "type": "function"
    },
    {
      "inputs": [
        {
          "internalType": "address",
          "name": "user",
          "type": "address"
        },
        {
          "internalType": "uint256",
          "name": "policyId",
          "type": "uint256"
        }
      ],
      "name": "getUserPolicyWithTemplate",
      "outputs": [
        {
          "components": [
            {
              "internalType": "uint256",
              "name": "policyId",
              "type": "uint256"
            },
            {
              "internalType": "uint256",
              "name": "templateId",
              "type": "uint256"
            },
            {
              "internalType": "string",
              "name": "flightNumber",
              "type": "string"
            },
            {
              "internalType": "string",
              "name": "departureAirportCode",
              "type": "string"
            },
            {
              "internalType": "string",
              "name": "arrivalAirportCode",
              "type": "string"
            },
            {
              "internalType": "uint256",
              "name": "departureTime",
              "type": "uint256"
            },
            {
              "internalType": "uint256",
              "name": "createdAt",
              "type": "uint256"
            },
            {
              "internalType": "uint256",
              "name": "payoutToDate",
              "type": "uint256"
            },
            {
              "internalType": "address",
              "name": "buyer",
              "type": "address"
            },
            {
              "internalType": "enum FlightPolicy.PolicyStatus",
              "name": "status",
              "type": "uint8"
            }
          ],
          "internalType": "struct FlightPolicy.UserPolicy",
          "name": "",
          "type": "tuple"
        },
        {
          "components": [
            {
              "internalType": "uint256",
              "name": "templateId",
              "type": "uint256"
            },
            {
              "internalType": "string",
              "name": "name",
              "type": "string"
            },
            {
              "internalType": "string",
              "name": "description",
              "type": "string"
            },
            {
              "internalType": "uint256",
              "name": "createdAt",
              "type": "uint256"
            },
            {
              "internalType": "uint256",
              "name": "premium",
              "type": "uint256"
            },
            {
              "internalType": "uint256",
              "name": "payoutPerHour",
              "type": "uint256"
            },
            {
              "internalType": "uint256",
              "name": "delayThresholdHours",
              "type": "uint256"
            },
            {
              "internalType": "uint256",
              "name": "maxTotalPayout",
              "type": "uint256"
            },
            {
              "internalType": "uint256",
              "name": "coverageDurationDays",
              "type": "uint256"
            },
            {
              "internalType": "enum FlightPolicy.PolicyTemplateStatus",
              "name": "status",
              "type": "uint8"
            }
          ],
          "internalType": "struct FlightPolicy.PolicyTemplate",
          "name": "",
          "type": "tuple"
        }
      ],
      "stateMutability": "view",
      "type": "function"
    },
    {
      "inputs": [],
      "name": "insurerAddress",
      "outputs": [
        {
          "internalType": "address",
          "name": "",
          "type": "address"
        }
      ],
      "stateMutability": "view",
      "type": "function"
    },
    {
      "inputs": [
        {
          "internalType": "address",
          "name": "buyer",
          "type": "address"
        },
        {
          "internalType": "uint256",
          "name": "policyId",
          "type": "uint256"
        }
      ],
      "name": "markPolicyAsClaimed",
      "outputs": [],
      "stateMutability": "nonpayable",
      "type": "function"
    },
    {
      "inputs": [
        {
          "internalType": "uint256",
          "name": "policyId",
          "type": "uint256"
        }
      ],
      "name": "markPolicyAsExpired",
      "outputs": [],
      "stateMutability": "nonpayable",
      "type": "function"
    },
    {
      "inputs": [],
      "name": "nextPolicyTemplateId",
      "outputs": [
        {
          "internalType": "uint256",
          "name": "",
          "type": "uint256"
        }
      ],
      "stateMutability": "view",
      "type": "function"
    },
    {
      "inputs": [],
      "name": "nextUserPolicyId",
      "outputs": [
        {
          "internalType": "uint256",
          "name": "",
          "type": "uint256"
        }
      ],
      "stateMutability": "view",
      "type": "function"
    },
    {
      "inputs": [
        {
          "internalType": "uint256",
          "name": "",
          "type": "uint256"
        }
      ],
      "name": "policyTemplates",
      "outputs": [
        {
          "internalType": "uint256",
          "name": "templateId",
          "type": "uint256"
        },
        {
          "internalType": "string",
          "name": "name",
          "type": "string"
        },
        {
          "internalType": "string",
          "name": "description",
          "type": "string"
        },
        {
          "internalType": "uint256",
          "name": "createdAt",
          "type": "uint256"
        },
        {
          "internalType": "uint256",
          "name": "premium",
          "type": "uint256"
        },
        {
          "internalType": "uint256",
          "name": "payoutPerHour",
          "type": "uint256"
        },
        {
          "internalType": "uint256",
          "name": "delayThresholdHours",
          "type": "uint256"
        },
        {
          "internalType": "uint256",
          "name": "maxTotalPayout",
          "type": "uint256"
        },
        {
          "internalType": "uint256",
          "name": "coverageDurationDays",
          "type": "uint256"
        },
        {
          "internalType": "enum FlightPolicy.PolicyTemplateStatus",
          "name": "status",
          "type": "uint8"
        }
      ],
      "stateMutability": "view",
      "type": "function"
    },
    {
      "inputs": [
        {
          "internalType": "uint256",
          "name": "templateId",
          "type": "uint256"
        },
        {
          "internalType": "string",
          "name": "flightNumber",
          "type": "string"
        },
        {
          "internalType": "string",
          "name": "departureAirportCode",
          "type": "string"
        },
        {
          "internalType": "string",
          "name": "arrivalAirportCode",
          "type": "string"
        },
        {
          "internalType": "uint256",
          "name": "departureTime",
          "type": "uint256"
        }
      ],
      "name": "purchasePolicy",
      "outputs": [
        {
          "internalType": "uint256",
          "name": "",
          "type": "uint256"
        }
      ],
      "stateMutability": "payable",
      "type": "function"
    },
    {
      "inputs": [
        {
          "internalType": "uint256",
          "name": "",
          "type": "uint256"
        }
      ],
      "name": "userPolicies",
      "outputs": [
        {
          "internalType": "uint256",
          "name": "policyId",
          "type": "uint256"
        },
        {
          "internalType": "uint256",
          "name": "templateId",
          "type": "uint256"
        },
        {
          "internalType": "string",
          "name": "flightNumber",
          "type": "string"
        },
        {
          "internalType": "string",
          "name": "departureAirportCode",
          "type": "string"
        },
        {
          "internalType": "string",
          "name": "arrivalAirportCode",
          "type": "string"
        },
        {
          "internalType": "uint256",
          "name": "departureTime",
          "type": "uint256"
        },
        {
          "internalType": "uint256",
          "name": "createdAt",
          "type": "uint256"
        },
        {
          "internalType": "uint256",
          "name": "payoutToDate",
          "type": "uint256"
        },
        {
          "internalType": "address",
          "name": "buyer",
          "type": "address"
        },
        {
          "internalType": "enum FlightPolicy.PolicyStatus",
          "name": "status",
          "type": "uint8"
        }
      ],
      "stateMutability": "view",
      "type": "function"
    },
    {
      "inputs": [
        {
          "internalType": "address",
          "name": "",
          "type": "address"
        },
        {
          "internalType": "uint256",
          "name": "",
          "type": "uint256"
        }
      ],
      "name": "userPolicyIds",
      "outputs": [
        {
          "internalType": "uint256",
          "name": "",
          "type": "uint256"
        }
      ],
      "stateMutability": "view",
      "type": "function"
    }
  ],
  "bytecode": "0x60a060405234801561001057600080fd5b503373ffffffffffffffffffffffffffffffffffffffff1660808173ffffffffffffffffffffffffffffffffffffffff1681525050608051613ea961007c60003960008181610fe70152818161139a015281816116cb01528181611dd601526120440152613ea96000f3fe6080604052600436106100f25760003560e01c8063886414941161008a578063cba85f0611610059578063cba85f0614610372578063cf39c624146103b8578063d3297010146103e1578063e79cdf1d1461040c576100f2565b8063886414941461029d5780638d395120146102da578063a7c0900e1461030a578063b6e283e114610335576100f2565b80633147b2cc116100c65780633147b2cc146101c6578063482ab1021461020c5780635990fa36146102355780637b95641514610272576100f2565b8062c84c04146100f757806313e896b61461012257806319ac46141461016057806328cf382c1461019d575b600080fd5b34801561010357600080fd5b5061010c610437565b6040516101199190612af5565b60405180910390f35b34801561012e57600080fd5b5061014960048036038101906101449190612bb5565b61069c565b604051610157929190612e15565b60405180910390f35b34801561016c57600080fd5b5061018760048036038101906101829190612e4c565b610c0a565b6040516101949190613023565b60405180910390f35b3480156101a957600080fd5b506101c460048036038101906101bf9190612bb5565b610fe5565b005b3480156101d257600080fd5b506101ed60048036038101906101e89190613045565b611227565b6040516102039a999897969594939291906130da565b60405180910390f35b34801561021857600080fd5b50610233600480360381019061022e9190613045565b611398565b005b34801561024157600080fd5b5061025c60048036038101906102579190613045565b6114ab565b6040516102699190613184565b60405180910390f35b34801561027e57600080fd5b506102876116c1565b60405161029491906131a6565b60405180910390f35b3480156102a957600080fd5b506102c460048036038101906102bf91906132f6565b6116c7565b6040516102d191906131a6565b60405180910390f35b6102f460048036038101906102ef91906133d0565b6118d0565b60405161030191906131a6565b60405180910390f35b34801561031657600080fd5b5061031f611dd4565b60405161032c91906134ae565b60405180910390f35b34801561034157600080fd5b5061035c60048036038101906103579190612bb5565b611df8565b60405161036991906131a6565b60405180910390f35b34801561037e57600080fd5b5061039960048036038101906103949190613045565b611e29565b6040516103af9a999897969594939291906134d8565b60405180910390f35b3480156103c457600080fd5b506103df60048036038101906103da9190613045565b612042565b005b3480156103ed57600080fd5b506103f661240a565b60405161040391906131a6565b60405180910390f35b34801561041857600080fd5b50610421612410565b60405161042e9190612af5565b60405180910390f35b6060600060015467ffffffffffffffff811115610457576104566131cb565b5b60405190808252806020026020018201604052801561049057816020015b61047d612752565b8152602001906001900390816104755790505b50905060005b6001548110156106945760008082815260200190815260200160002060405180610140016040529081600082015481526020016001820180546104d8906135b8565b80601f0160208091040260200160405190810160405280929190818152602001828054610504906135b8565b80156105515780601f1061052657610100808354040283529160200191610551565b820191906000526020600020905b81548152906001019060200180831161053457829003601f168201915b5050505050815260200160028201805461056a906135b8565b80601f0160208091040260200160405190810160405280929190818152602001828054610596906135b8565b80156105e35780601f106105b8576101008083540402835291602001916105e3565b820191906000526020600020905b8154815290600101906020018083116105c657829003601f168201915b505050505081526020016003820154815260200160048201548152602001600582015481526020016006820154815260200160078201548152602001600882015481526020016009820160009054906101000a900460ff16600181111561064d5761064c612907565b5b600181111561065f5761065e612907565b5b81525050828281518110610676576106756135e9565b5b6020026020010181905250808061068c90613647565b915050610496565b508091505090565b6106a46127b7565b6106ac612752565b60045483106106f0576040517f08c379a00000000000000000000000000000000000000000000000000000000081526004016106e7906136db565b60405180910390fd5b8373ffffffffffffffffffffffffffffffffffffffff166002600085815260200190815260200160002060080160009054906101000a900473ffffffffffffffffffffffffffffffffffffffff1673ffffffffffffffffffffffffffffffffffffffff1614610794576040517f08c379a000000000000000000000000000000000000000000000000000000000815260040161078b90613747565b60405180910390fd5b6000600260008581526020019081526020016000206040518061014001604052908160008201548152602001600182015481526020016002820180546107d9906135b8565b80601f0160208091040260200160405190810160405280929190818152602001828054610805906135b8565b80156108525780601f1061082757610100808354040283529160200191610852565b820191906000526020600020905b81548152906001019060200180831161083557829003601f168201915b5050505050815260200160038201805461086b906135b8565b80601f0160208091040260200160405190810160405280929190818152602001828054610897906135b8565b80156108e45780601f106108b9576101008083540402835291602001916108e4565b820191906000526020600020905b8154815290600101906020018083116108c757829003601f168201915b505050505081526020016004820180546108fd906135b8565b80601f0160208091040260200160405190810160405280929190818152602001828054610929906135b8565b80156109765780601f1061094b57610100808354040283529160200191610976565b820191906000526020600020905b81548152906001019060200180831161095957829003601f168201915b505050505081526020016005820154815260200160068201548152602001600782015481526020016008820160009054906101000a900473ffffffffffffffffffffffffffffffffffffffff1673ffffffffffffffffffffffffffffffffffffffff1673ffffffffffffffffffffffffffffffffffffffff1681526020016008820160149054906101000a900460ff166002811115610a1857610a17612907565b5b6002811115610a2a57610a29612907565b5b8152505090506000806000836020015181526020019081526020016000206040518061014001604052908160008201548152602001600182018054610a6e906135b8565b80601f0160208091040260200160405190810160405280929190818152602001828054610a9a906135b8565b8015610ae75780601f10610abc57610100808354040283529160200191610ae7565b820191906000526020600020905b815481529060010190602001808311610aca57829003601f168201915b50505050508152602001600282018054610b00906135b8565b80601f0160208091040260200160405190810160405280929190818152602001828054610b2c906135b8565b8015610b795780601f10610b4e57610100808354040283529160200191610b79565b820191906000526020600020905b815481529060010190602001808311610b5c57829003601f168201915b505050505081526020016003820154815260200160048201548152602001600582015481526020016006820154815260200160078201548152602001600882015481526020016009820160009054906101000a900460ff166001811115610be357610be2612907565b5b6001811115610bf557610bf4612907565b5b81525050905081819350935050509250929050565b60606000600360008473ffffffffffffffffffffffffffffffffffffffff1673ffffffffffffffffffffffffffffffffffffffff16815260200190815260200160002080549050905060008167ffffffffffffffff811115610c6f57610c6e6131cb565b5b604051908082528060200260200182016040528015610ca857816020015b610c956127b7565b815260200190600190039081610c8d5790505b50905060005b82811015610fda5760026000600360008873ffffffffffffffffffffffffffffffffffffffff1673ffffffffffffffffffffffffffffffffffffffff1681526020019081526020016000208381548110610d0b57610d0a6135e9565b5b90600052602060002001548152602001908152602001600020604051806101400160405290816000820154815260200160018201548152602001600282018054610d54906135b8565b80601f0160208091040260200160405190810160405280929190818152602001828054610d80906135b8565b8015610dcd5780601f10610da257610100808354040283529160200191610dcd565b820191906000526020600020905b815481529060010190602001808311610db057829003601f168201915b50505050508152602001600382018054610de6906135b8565b80601f0160208091040260200160405190810160405280929190818152602001828054610e12906135b8565b8015610e5f5780601f10610e3457610100808354040283529160200191610e5f565b820191906000526020600020905b815481529060010190602001808311610e4257829003601f168201915b50505050508152602001600482018054610e78906135b8565b80601f0160208091040260200160405190810160405280929190818152602001828054610ea4906135b8565b8015610ef15780601f10610ec657610100808354040283529160200191610ef1565b820191906000526020600020905b815481529060010190602001808311610ed457829003601f168201915b505050505081526020016005820154815260200160068201548152602001600782015481526020016008820160009054906101000a900473ffffffffffffffffffffffffffffffffffffffff1673ffffffffffffffffffffffffffffffffffffffff1673ffffffffffffffffffffffffffffffffffffffff1681526020016008820160149054906101000a900460ff166002811115610f9357610f92612907565b5b6002811115610fa557610fa4612907565b5b81525050828281518110610fbc57610fbb6135e9565b5b60200260200101819052508080610fd290613647565b915050610cae565b508092505050919050565b7f000000000000000000000000000000000000000000000000000000000000000073ffffffffffffffffffffffffffffffffffffffff163273ffffffffffffffffffffffffffffffffffffffff1614611073576040517f08c379a000000000000000000000000000000000000000000000000000000000815260040161106a906137d9565b60405180910390fd5b60045481106110b7576040517f08c379a00000000000000000000000000000000000000000000000000000000081526004016110ae906136db565b60405180910390fd5b8173ffffffffffffffffffffffffffffffffffffffff166002600083815260200190815260200160002060080160009054906101000a900473ffffffffffffffffffffffffffffffffffffffff1673ffffffffffffffffffffffffffffffffffffffff161461115b576040517f08c379a000000000000000000000000000000000000000000000000000000000815260040161115290613845565b60405180910390fd5b6000600281111561116f5761116e612907565b5b6002600083815260200190815260200160002060080160149054906101000a900460ff1660028111156111a5576111a4612907565b5b146111e5576040517f08c379a00000000000000000000000000000000000000000000000000000000081526004016111dc906138b1565b60405180910390fd5b600280600083815260200190815260200160002060080160146101000a81548160ff0219169083600281111561121e5761121d612907565b5b02179055505050565b6000602052806000526040600020600091509050806000015490806001018054611250906135b8565b80601f016020809104026020016040519081016040528092919081815260200182805461127c906135b8565b80156112c95780601f1061129e576101008083540402835291602001916112c9565b820191906000526020600020905b8154815290600101906020018083116112ac57829003601f168201915b5050505050908060020180546112de906135b8565b80601f016020809104026020016040519081016040528092919081815260200182805461130a906135b8565b80156113575780601f1061132c57610100808354040283529160200191611357565b820191906000526020600020905b81548152906001019060200180831161133a57829003601f168201915b5050505050908060030154908060040154908060050154908060060154908060070154908060080154908060090160009054906101000a900460ff1690508a565b7f000000000000000000000000000000000000000000000000000000000000000073ffffffffffffffffffffffffffffffffffffffff163273ffffffffffffffffffffffffffffffffffffffff1614611426576040517f08c379a000000000000000000000000000000000000000000000000000000000815260040161141d906137d9565b60405180910390fd5b600154811061146a576040517f08c379a00000000000000000000000000000000000000000000000000000000081526004016114619061391d565b60405180910390fd5b600160008083815260200190815260200160002060090160006101000a81548160ff021916908360018111156114a3576114a2612907565b5b021790555050565b6114b3612752565b60015482106114f7576040517f08c379a00000000000000000000000000000000000000000000000000000000081526004016114ee90613989565b60405180910390fd5b600080838152602001908152602001600020604051806101400160405290816000820154815260200160018201805461152f906135b8565b80601f016020809104026020016040519081016040528092919081815260200182805461155b906135b8565b80156115a85780601f1061157d576101008083540402835291602001916115a8565b820191906000526020600020905b81548152906001019060200180831161158b57829003601f168201915b505050505081526020016002820180546115c1906135b8565b80601f01602080910402602001604051908101604052809291908181526020018280546115ed906135b8565b801561163a5780601f1061160f5761010080835404028352916020019161163a565b820191906000526020600020905b81548152906001019060200180831161161d57829003601f168201915b505050505081526020016003820154815260200160048201548152602001600582015481526020016006820154815260200160078201548152602001600882015481526020016009820160009054906101000a900460ff1660018111156116a4576116a3612907565b5b60018111156116b6576116b5612907565b5b815250509050919050565b60045481565b60007f000000000000000000000000000000000000000000000000000000000000000073ffffffffffffffffffffffffffffffffffffffff163273ffffffffffffffffffffffffffffffffffffffff1614611757576040517f08c379a000000000000000000000000000000000000000000000000000000000815260040161174e906137d9565b60405180910390fd5b600060015490506040518061014001604052808281526020018a8152602001898152602001428152602001670de0b6b3a76400008961179691906139a9565b8152602001670de0b6b3a7640000886117af91906139a9565b8152602001868152602001670de0b6b3a7640000866117ce91906139a9565b8152602001848152602001600060018111156117ed576117ec612907565b5b8152506000808381526020019081526020016000206000820151816000015560208201518160010190816118219190613b97565b5060408201518160020190816118379190613b97565b50606082015181600301556080820151816004015560a0820151816005015560c0820151816006015560e0820151816007015561010082015181600801556101208201518160090160006101000a81548160ff021916908360018111156118a1576118a0612907565b5b0217905550905050600160008154809291906118bc90613647565b919050555080915050979650505050505050565b60006001548610611916576040517f08c379a000000000000000000000000000000000000000000000000000000000815260040161190d9061391d565b60405180910390fd5b60008060008881526020019081526020016000206040518061014001604052908160008201548152602001600182018054611950906135b8565b80601f016020809104026020016040519081016040528092919081815260200182805461197c906135b8565b80156119c95780601f1061199e576101008083540402835291602001916119c9565b820191906000526020600020905b8154815290600101906020018083116119ac57829003601f168201915b505050505081526020016002820180546119e2906135b8565b80601f0160208091040260200160405190810160405280929190818152602001828054611a0e906135b8565b8015611a5b5780601f10611a3057610100808354040283529160200191611a5b565b820191906000526020600020905b815481529060010190602001808311611a3e57829003601f168201915b505050505081526020016003820154815260200160048201548152602001600582015481526020016006820154815260200160078201548152602001600882015481526020016009820160009054906101000a900460ff166001811115611ac557611ac4612907565b5b6001811115611ad757611ad6612907565b5b81525050905060006001811115611af157611af0612907565b5b8161012001516001811115611b0957611b08612907565b5b14611b49576040517f08c379a0000000000000000000000000000000000000000000000000000000008152600401611b4090613cb5565b60405180910390fd5b428311611b8b576040517f08c379a0000000000000000000000000000000000000000000000000000000008152600401611b8290613d47565b60405180910390fd5b8060800151341015611bd2576040517f08c379a0000000000000000000000000000000000000000000000000000000008152600401611bc990613db3565b60405180910390fd5b600060046000815480929190611be790613647565b919050559050604051806101400160405280828152602001898152602001888152602001878152602001868152602001858152602001428152602001600081526020013373ffffffffffffffffffffffffffffffffffffffff16815260200160006002811115611c5a57611c59612907565b5b8152506002600083815260200190815260200160002060008201518160000155602082015181600101556040820151816002019081611c999190613b97565b506060820151816003019081611caf9190613b97565b506080820151816004019081611cc59190613b97565b5060a0820151816005015560c0820151816006015560e082015181600701556101008201518160080160006101000a81548173ffffffffffffffffffffffffffffffffffffffff021916908373ffffffffffffffffffffffffffffffffffffffff1602179055506101208201518160080160146101000a81548160ff02191690836002811115611d5857611d57612907565b5b0217905550905050600360003373ffffffffffffffffffffffffffffffffffffffff1673ffffffffffffffffffffffffffffffffffffffff168152602001908152602001600020819080600181540180825580915050600190039060005260206000200160009091909190915055809250505095945050505050565b7f000000000000000000000000000000000000000000000000000000000000000081565b60036020528160005260406000208181548110611e1457600080fd5b90600052602060002001600091509150505481565b6002602052806000526040600020600091509050806000015490806001015490806002018054611e58906135b8565b80601f0160208091040260200160405190810160405280929190818152602001828054611e84906135b8565b8015611ed15780601f10611ea657610100808354040283529160200191611ed1565b820191906000526020600020905b815481529060010190602001808311611eb457829003601f168201915b505050505090806003018054611ee6906135b8565b80601f0160208091040260200160405190810160405280929190818152602001828054611f12906135b8565b8015611f5f5780601f10611f3457610100808354040283529160200191611f5f565b820191906000526020600020905b815481529060010190602001808311611f4257829003601f168201915b505050505090806004018054611f74906135b8565b80601f0160208091040260200160405190810160405280929190818152602001828054611fa0906135b8565b8015611fed5780601f10611fc257610100808354040283529160200191611fed565b820191906000526020600020905b815481529060010190602001808311611fd057829003601f168201915b5050505050908060050154908060060154908060070154908060080160009054906101000a900473ffffffffffffffffffffffffffffffffffffffff16908060080160149054906101000a900460ff1690508a565b7f000000000000000000000000000000000000000000000000000000000000000073ffffffffffffffffffffffffffffffffffffffff163273ffffffffffffffffffffffffffffffffffffffff16146120d0576040517f08c379a00000000000000000000000000000000000000000000000000000000081526004016120c7906137d9565b60405180910390fd5b6004548110612114576040517f08c379a000000000000000000000000000000000000000000000000000000000815260040161210b906136db565b60405180910390fd5b60006002600083815260200190815260200160002090506000600281111561213f5761213e612907565b5b8160080160149054906101000a900460ff16600281111561216357612162612907565b5b146121a3576040517f08c379a000000000000000000000000000000000000000000000000000000000815260040161219a906138b1565b60405180910390fd5b60008060008360010154815260200190815260200160002060405180610140016040529081600082015481526020016001820180546121e1906135b8565b80601f016020809104026020016040519081016040528092919081815260200182805461220d906135b8565b801561225a5780601f1061222f5761010080835404028352916020019161225a565b820191906000526020600020905b81548152906001019060200180831161223d57829003601f168201915b50505050508152602001600282018054612273906135b8565b80601f016020809104026020016040519081016040528092919081815260200182805461229f906135b8565b80156122ec5780601f106122c1576101008083540402835291602001916122ec565b820191906000526020600020905b8154815290600101906020018083116122cf57829003601f168201915b505050505081526020016003820154815260200160048201548152602001600582015481526020016006820154815260200160078201548152602001600882015481526020016009820160009054906101000a900460ff16600181111561235657612355612907565b5b600181111561236857612367612907565b5b81525050905060006201518082610100015161238491906139a9565b83600601546123939190613dd3565b90508042116123d7576040517f08c379a00000000000000000000000000000000000000000000000000000000081526004016123ce90613e53565b60405180910390fd5b60018360080160146101000a81548160ff021916908360028111156123ff576123fe612907565b5b021790555050505050565b60015481565b60606000805b600154811015612490576000600181111561243457612433612907565b5b60008083815260200190815260200160002060090160009054906101000a900460ff16600181111561246957612468612907565b5b0361247d57818061247990613647565b9250505b808061248890613647565b915050612416565b5060008167ffffffffffffffff8111156124ad576124ac6131cb565b5b6040519080825280602002602001820160405280156124e657816020015b6124d3612752565b8152602001906001900390816124cb5790505b5090506000805b600154811015612748576000600181111561250b5761250a612907565b5b60008083815260200190815260200160002060090160009054906101000a900460ff1660018111156125405761253f612907565b5b0361273557600080828152602001908152602001600020604051806101400160405290816000820154815260200160018201805461257d906135b8565b80601f01602080910402602001604051908101604052809291908181526020018280546125a9906135b8565b80156125f65780601f106125cb576101008083540402835291602001916125f6565b820191906000526020600020905b8154815290600101906020018083116125d957829003601f168201915b5050505050815260200160028201805461260f906135b8565b80601f016020809104026020016040519081016040528092919081815260200182805461263b906135b8565b80156126885780601f1061265d57610100808354040283529160200191612688565b820191906000526020600020905b81548152906001019060200180831161266b57829003601f168201915b505050505081526020016003820154815260200160048201548152602001600582015481526020016006820154815260200160078201548152602001600882015481526020016009820160009054906101000a900460ff1660018111156126f2576126f1612907565b5b600181111561270457612703612907565b5b8152505083838151811061271b5761271a6135e9565b5b6020026020010181905250818061273190613647565b9250505b808061274090613647565b9150506124ed565b5081935050505090565b604051806101400160405280600081526020016060815260200160608152602001600081526020016000815260200160008152602001600081526020016000815260200160008152602001600060018111156127b1576127b0612907565b5b81525090565b6040518061014001604052806000815260200160008152602001606081526020016060815260200160608152602001600081526020016000815260200160008152602001600073ffffffffffffffffffffffffffffffffffffffff1681526020016000600281111561282c5761282b612907565b5b81525090565b600081519050919050565b600082825260208201905092915050565b6000819050602082019050919050565b6000819050919050565b6128718161285e565b82525050565b600081519050919050565b600082825260208201905092915050565b60005b838110156128b1578082015181840152602081019050612896565b60008484015250505050565b6000601f19601f8301169050919050565b60006128d982612877565b6128e38185612882565b93506128f3818560208601612893565b6128fc816128bd565b840191505092915050565b7f4e487b7100000000000000000000000000000000000000000000000000000000600052602160045260246000fd5b6002811061294757612946612907565b5b50565b600081905061295882612936565b919050565b60006129688261294a565b9050919050565b6129788161295d565b82525050565b6000610140830160008301516129976000860182612868565b50602083015184820360208601526129af82826128ce565b915050604083015184820360408601526129c982826128ce565b91505060608301516129de6060860182612868565b5060808301516129f16080860182612868565b5060a0830151612a0460a0860182612868565b5060c0830151612a1760c0860182612868565b5060e0830151612a2a60e0860182612868565b50610100830151612a3f610100860182612868565b50610120830151612a5461012086018261296f565b508091505092915050565b6000612a6b838361297e565b905092915050565b6000602082019050919050565b6000612a8b82612832565b612a95818561283d565b935083602082028501612aa78561284e565b8060005b85811015612ae35784840389528151612ac48582612a5f565b9450612acf83612a73565b925060208a01995050600181019050612aab565b50829750879550505050505092915050565b60006020820190508181036000830152612b0f8184612a80565b905092915050565b6000604051905090565b600080fd5b600080fd5b600073ffffffffffffffffffffffffffffffffffffffff82169050919050565b6000612b5682612b2b565b9050919050565b612b6681612b4b565b8114612b7157600080fd5b50565b600081359050612b8381612b5d565b92915050565b612b928161285e565b8114612b9d57600080fd5b50565b600081359050612baf81612b89565b92915050565b60008060408385031215612bcc57612bcb612b21565b5b6000612bda85828601612b74565b9250506020612beb85828601612ba0565b9150509250929050565b612bfe81612b4b565b82525050565b60038110612c1557612c14612907565b5b50565b6000819050612c2682612c04565b919050565b6000612c3682612c18565b9050919050565b612c4681612c2b565b82525050565b600061014083016000830151612c656000860182612868565b506020830151612c786020860182612868565b5060408301518482036040860152612c9082826128ce565b91505060608301518482036060860152612caa82826128ce565b91505060808301518482036080860152612cc482826128ce565b91505060a0830151612cd960a0860182612868565b5060c0830151612cec60c0860182612868565b5060e0830151612cff60e0860182612868565b50610100830151612d14610100860182612bf5565b50610120830151612d29610120860182612c3d565b508091505092915050565b600061014083016000830151612d4d6000860182612868565b5060208301518482036020860152612d6582826128ce565b91505060408301518482036040860152612d7f82826128ce565b9150506060830151612d946060860182612868565b506080830151612da76080860182612868565b5060a0830151612dba60a0860182612868565b5060c0830151612dcd60c0860182612868565b5060e0830151612de060e0860182612868565b50610100830151612df5610100860182612868565b50610120830151612e0a61012086018261296f565b508091505092915050565b60006040820190508181036000830152612e2f8185612c4c565b90508181036020830152612e438184612d34565b90509392505050565b600060208284031215612e6257612e61612b21565b5b6000612e7084828501612b74565b91505092915050565b600081519050919050565b600082825260208201905092915050565b6000819050602082019050919050565b600061014083016000830151612ebe6000860182612868565b506020830151612ed16020860182612868565b5060408301518482036040860152612ee982826128ce565b91505060608301518482036060860152612f0382826128ce565b91505060808301518482036080860152612f1d82826128ce565b91505060a0830151612f3260a0860182612868565b5060c0830151612f4560c0860182612868565b5060e0830151612f5860e0860182612868565b50610100830151612f6d610100860182612bf5565b50610120830151612f82610120860182612c3d565b508091505092915050565b6000612f998383612ea5565b905092915050565b6000602082019050919050565b6000612fb982612e79565b612fc38185612e84565b935083602082028501612fd585612e95565b8060005b858110156130115784840389528151612ff28582612f8d565b9450612ffd83612fa1565b925060208a01995050600181019050612fd9565b50829750879550505050505092915050565b6000602082019050818103600083015261303d8184612fae565b905092915050565b60006020828403121561305b5761305a612b21565b5b600061306984828501612ba0565b91505092915050565b61307b8161285e565b82525050565b600082825260208201905092915050565b600061309d82612877565b6130a78185613081565b93506130b7818560208601612893565b6130c0816128bd565b840191505092915050565b6130d48161295d565b82525050565b6000610140820190506130f0600083018d613072565b8181036020830152613102818c613092565b90508181036040830152613116818b613092565b9050613125606083018a613072565b6131326080830189613072565b61313f60a0830188613072565b61314c60c0830187613072565b61315960e0830186613072565b613167610100830185613072565b6131756101208301846130cb565b9b9a5050505050505050505050565b6000602082019050818103600083015261319e8184612d34565b905092915050565b60006020820190506131bb6000830184613072565b92915050565b600080fd5b600080fd5b7f4e487b7100000000000000000000000000000000000000000000000000000000600052604160045260246000fd5b613203826128bd565b810181811067ffffffffffffffff82111715613222576132216131cb565b5b80604052505050565b6000613235612b17565b905061324182826131fa565b919050565b600067ffffffffffffffff821115613261576132606131cb565b5b61326a826128bd565b9050602081019050919050565b82818337600083830152505050565b600061329961329484613246565b61322b565b9050828152602081018484840111156132b5576132b46131c6565b5b6132c0848285613277565b509392505050565b600082601f8301126132dd576132dc6131c1565b5b81356132ed848260208601613286565b91505092915050565b600080600080600080600060e0888a03121561331557613314612b21565b5b600088013567ffffffffffffffff81111561333357613332612b26565b5b61333f8a828b016132c8565b975050602088013567ffffffffffffffff8111156133605761335f612b26565b5b61336c8a828b016132c8565b965050604061337d8a828b01612ba0565b955050606061338e8a828b01612ba0565b945050608061339f8a828b01612ba0565b93505060a06133b08a828b01612ba0565b92505060c06133c18a828b01612ba0565b91505092959891949750929550565b600080600080600060a086880312156133ec576133eb612b21565b5b60006133fa88828901612ba0565b955050602086013567ffffffffffffffff81111561341b5761341a612b26565b5b613427888289016132c8565b945050604086013567ffffffffffffffff81111561344857613447612b26565b5b613454888289016132c8565b935050606086013567ffffffffffffffff81111561347557613474612b26565b5b613481888289016132c8565b925050608061349288828901612ba0565b9150509295509295909350565b6134a881612b4b565b82525050565b60006020820190506134c3600083018461349f565b92915050565b6134d281612c2b565b82525050565b6000610140820190506134ee600083018d613072565b6134fb602083018c613072565b818103604083015261350d818b613092565b90508181036060830152613521818a613092565b905081810360808301526135358189613092565b905061354460a0830188613072565b61355160c0830187613072565b61355e60e0830186613072565b61356c61010083018561349f565b61357a6101208301846134c9565b9b9a5050505050505050505050565b7f4e487b7100000000000000000000000000000000000000000000000000000000600052602260045260246000fd5b600060028204905060018216806135d057607f821691505b6020821081036135e3576135e2613589565b5b50919050565b7f4e487b7100000000000000000000000000000000000000000000000000000000600052603260045260246000fd5b7f4e487b7100000000000000000000000000000000000000000000000000000000600052601160045260246000fd5b60006136528261285e565b91507fffffffffffffffffffffffffffffffffffffffffffffffffffffffffffffffff820361368457613683613618565b5b600182019050919050565b7f496e76616c696420706f6c696379496400000000000000000000000000000000600082015250565b60006136c5601083613081565b91506136d08261368f565b602082019050919050565b600060208201905081810360008301526136f4816136b8565b9050919050565b7f4e6f7420796f757220706f6c6963790000000000000000000000000000000000600082015250565b6000613731600f83613081565b915061373c826136fb565b602082019050919050565b6000602082019050818103600083015261376081613724565b9050919050565b7f466c69676874506f6c6963793a204f6e6c792074686520696e7375726572206360008201527f616e2063616c6c20746869732066756e6374696f6e0000000000000000000000602082015250565b60006137c3603583613081565b91506137ce82613767565b604082019050919050565b600060208201905081810360008301526137f2816137b6565b9050919050565b7f506f6c69637920646f65736e27742062656c6f6e6720746f2062757965720000600082015250565b600061382f601e83613081565b915061383a826137f9565b602082019050919050565b6000602082019050818103600083015261385e81613822565b9050919050565b7f506f6c696379206973206e6f7420616374697665000000000000000000000000600082015250565b600061389b601483613081565b91506138a682613865565b602082019050919050565b600060208201905081810360008301526138ca8161388e565b9050919050565b7f496e76616c69642074656d706c61746549640000000000000000000000000000600082015250565b6000613907601283613081565b9150613912826138d1565b602082019050919050565b60006020820190508181036000830152613936816138fa565b9050919050565b7f54656d706c61746520646f6573206e6f74206578697374000000000000000000600082015250565b6000613973601783613081565b915061397e8261393d565b602082019050919050565b600060208201905081810360008301526139a281613966565b9050919050565b60006139b48261285e565b91506139bf8361285e565b92508282026139cd8161285e565b915082820484148315176139e4576139e3613618565b5b5092915050565b60008190508160005260206000209050919050565b60006020601f8301049050919050565b600082821b905092915050565b600060088302613a4d7fffffffffffffffffffffffffffffffffffffffffffffffffffffffffffffffff82613a10565b613a578683613a10565b95508019841693508086168417925050509392505050565b6000819050919050565b6000613a94613a8f613a8a8461285e565b613a6f565b61285e565b9050919050565b6000819050919050565b613aae83613a79565b613ac2613aba82613a9b565b848454613a1d565b825550505050565b600090565b613ad7613aca565b613ae2818484613aa5565b505050565b5b81811015613b0657613afb600082613acf565b600181019050613ae8565b5050565b601f821115613b4b57613b1c816139eb565b613b2584613a00565b81016020851015613b34578190505b613b48613b4085613a00565b830182613ae7565b50505b505050565b600082821c905092915050565b6000613b6e60001984600802613b50565b1980831691505092915050565b6000613b878383613b5d565b9150826002028217905092915050565b613ba082612877565b67ffffffffffffffff811115613bb957613bb86131cb565b5b613bc382546135b8565b613bce828285613b0a565b600060209050601f831160018114613c015760008415613bef578287015190505b613bf98582613b7b565b865550613c61565b601f198416613c0f866139eb565b60005b82811015613c3757848901518255600182019150602085019450602081019050613c12565b86831015613c545784890151613c50601f891682613b5d565b8355505b6001600288020188555050505b505050505050565b7f506f6c6963792074656d706c617465206973206e6f7420616374697665000000600082015250565b6000613c9f601d83613081565b9150613caa82613c69565b602082019050919050565b60006020820190508181036000830152613cce81613c92565b9050919050565b7f4465706172747572652074696d65206d75737420626520696e2074686520667560008201527f7475726500000000000000000000000000000000000000000000000000000000602082015250565b6000613d31602483613081565b9150613d3c82613cd5565b604082019050919050565b60006020820190508181036000830152613d6081613d24565b9050919050565b7f496e73756666696369656e74207072656d69756d2073656e7400000000000000600082015250565b6000613d9d601983613081565b9150613da882613d67565b602082019050919050565b60006020820190508181036000830152613dcc81613d90565b9050919050565b6000613dde8261285e565b9150613de98361285e565b9250828201905080821115613e0157613e00613618565b5b92915050565b7f506f6c69637920686173206e6f74206578706972656420796574000000000000600082015250565b6000613e3d601a83613081565b9150613e4882613e07565b602082019050919050565b60006020820190508181036000830152613e6c81613e30565b905091905056fea2646970667358221220a119af377577e999ca2f912d9258d3c83795d2b54dc2b15371489e9fa904966864736f6c63430008130033",
  "linkReferences": {},
  "deployedLinkReferences": {}
}