{
  "_format": "hh-sol-artifact-1",
  "contractName": "FlightPolicy",
  "sourceName": "contracts/FlightPolicy.sol",
  "abi": [
    {
      "inputs": [],
      "stateMutability": "nonpayable",
      "type": "constructor"
    },
    {
      "inputs": [
        {
          "internalType": "string",
          "name": "flightNumber",
          "type": "string"
        },
        {
          "internalType": "uint256",
          "name": "departureTime",
          "type": "uint256"
        },
        {
          "internalType": "address",
          "name": "policyHolder",
          "type": "address"
        },
        {
          "internalType": "uint256",
          "name": "policyIndex",
          "type": "uint256"
        }
      ],
      "name": "addFlightDetails",
      "outputs": [],
      "stateMutability": "nonpayable",
      "type": "function"
    },
    {
      "inputs": [
        {
          "internalType": "uint256",
          "name": "premium",
          "type": "uint256"
        },
        {
          "internalType": "uint256",
          "name": "delayPayout",
          "type": "uint256"
        },
        {
          "internalType": "uint256",
          "name": "maxPayout",
          "type": "uint256"
        },
        {
          "internalType": "uint256",
          "name": "delayThreshold",
          "type": "uint256"
        },
        {
          "internalType": "uint256",
          "name": "activeDuration",
          "type": "uint256"
        }
      ],
      "name": "createPolicy",
      "outputs": [
        {
          "internalType": "uint256",
          "name": "",
          "type": "uint256"
        }
      ],
      "stateMutability": "nonpayable",
      "type": "function"
    },
    {
      "inputs": [
        {
          "internalType": "uint256",
          "name": "policyTypeId",
          "type": "uint256"
        }
      ],
      "name": "deletePolicy",
      "outputs": [],
      "stateMutability": "view",
      "type": "function"
    },
    {
      "inputs": [],
      "name": "getAllPolicyTypes",
      "outputs": [
        {
          "components": [
            {
              "internalType": "uint256",
              "name": "policyId",
              "type": "uint256"
            },
            {
              "internalType": "uint256",
              "name": "numFlights",
              "type": "uint256"
            },
            {
              "internalType": "string[]",
              "name": "flightNumbers",
              "type": "string[]"
            },
            {
              "internalType": "uint256[]",
              "name": "departureTimes",
              "type": "uint256[]"
            },
            {
              "internalType": "uint256",
              "name": "creationDate",
              "type": "uint256"
            },
            {
              "internalType": "uint256",
              "name": "activeDuration",
              "type": "uint256"
            },
            {
              "internalType": "uint256",
              "name": "premium",
              "type": "uint256"
            },
            {
              "internalType": "uint256",
              "name": "delayPayout",
              "type": "uint256"
            },
            {
              "internalType": "uint256",
              "name": "delayThreshold",
              "type": "uint256"
            },
            {
              "internalType": "uint256",
              "name": "payoutToDate",
              "type": "uint256"
            },
            {
              "internalType": "uint256",
              "name": "maxPayout",
              "type": "uint256"
            },
            {
              "internalType": "address",
              "name": "insured",
              "type": "address"
            },
            {
              "internalType": "address",
              "name": "insurer",
              "type": "address"
            },
            {
              "internalType": "enum FlightPolicy.PolicyStatus",
              "name": "status",
              "type": "uint8"
            }
          ],
          "internalType": "struct FlightPolicy.policy[]",
          "name": "",
          "type": "tuple[]"
        }
      ],
      "stateMutability": "view",
      "type": "function"
    },
    {
      "inputs": [
        {
          "internalType": "uint256",
          "name": "policyType",
          "type": "uint256"
        }
      ],
      "name": "getPolicyDetails",
      "outputs": [
        {
          "components": [
            {
              "internalType": "uint256",
              "name": "policyId",
              "type": "uint256"
            },
            {
              "internalType": "uint256",
              "name": "numFlights",
              "type": "uint256"
            },
            {
              "internalType": "string[]",
              "name": "flightNumbers",
              "type": "string[]"
            },
            {
              "internalType": "uint256[]",
              "name": "departureTimes",
              "type": "uint256[]"
            },
            {
              "internalType": "uint256",
              "name": "creationDate",
              "type": "uint256"
            },
            {
              "internalType": "uint256",
              "name": "activeDuration",
              "type": "uint256"
            },
            {
              "internalType": "uint256",
              "name": "premium",
              "type": "uint256"
            },
            {
              "internalType": "uint256",
              "name": "delayPayout",
              "type": "uint256"
            },
            {
              "internalType": "uint256",
              "name": "delayThreshold",
              "type": "uint256"
            },
            {
              "internalType": "uint256",
              "name": "payoutToDate",
              "type": "uint256"
            },
            {
              "internalType": "uint256",
              "name": "maxPayout",
              "type": "uint256"
            },
            {
              "internalType": "address",
              "name": "insured",
              "type": "address"
            },
            {
              "internalType": "address",
              "name": "insurer",
              "type": "address"
            },
            {
              "internalType": "enum FlightPolicy.PolicyStatus",
              "name": "status",
              "type": "uint8"
            }
          ],
          "internalType": "struct FlightPolicy.policy",
          "name": "",
          "type": "tuple"
        }
      ],
      "stateMutability": "view",
      "type": "function"
    },
    {
      "inputs": [
        {
          "internalType": "address",
          "name": "insured",
          "type": "address"
        }
      ],
      "name": "getPolicyOfInsured",
      "outputs": [
        {
          "components": [
            {
              "internalType": "uint256",
              "name": "policyId",
              "type": "uint256"
            },
            {
              "internalType": "uint256",
              "name": "numFlights",
              "type": "uint256"
            },
            {
              "internalType": "string[]",
              "name": "flightNumbers",
              "type": "string[]"
            },
            {
              "internalType": "uint256[]",
              "name": "departureTimes",
              "type": "uint256[]"
            },
            {
              "internalType": "uint256",
              "name": "creationDate",
              "type": "uint256"
            },
            {
              "internalType": "uint256",
              "name": "activeDuration",
              "type": "uint256"
            },
            {
              "internalType": "uint256",
              "name": "premium",
              "type": "uint256"
            },
            {
              "internalType": "uint256",
              "name": "delayPayout",
              "type": "uint256"
            },
            {
              "internalType": "uint256",
              "name": "delayThreshold",
              "type": "uint256"
            },
            {
              "internalType": "uint256",
              "name": "payoutToDate",
              "type": "uint256"
            },
            {
              "internalType": "uint256",
              "name": "maxPayout",
              "type": "uint256"
            },
            {
              "internalType": "address",
              "name": "insured",
              "type": "address"
            },
            {
              "internalType": "address",
              "name": "insurer",
              "type": "address"
            },
            {
              "internalType": "enum FlightPolicy.PolicyStatus",
              "name": "status",
              "type": "uint8"
            }
          ],
          "internalType": "struct FlightPolicy.policy[]",
          "name": "",
          "type": "tuple[]"
        }
      ],
      "stateMutability": "nonpayable",
      "type": "function"
    },
    {
      "inputs": [
        {
          "internalType": "address",
          "name": "insured",
          "type": "address"
        }
      ],
      "name": "markAsClaimed",
      "outputs": [],
      "stateMutability": "nonpayable",
      "type": "function"
    },
    {
      "inputs": [
        {
          "internalType": "address",
          "name": "",
          "type": "address"
        },
        {
          "internalType": "uint256",
          "name": "",
          "type": "uint256"
        }
      ],
      "name": "policyHolders",
      "outputs": [
        {
          "internalType": "uint256",
          "name": "policyId",
          "type": "uint256"
        },
        {
          "internalType": "uint256",
          "name": "numFlights",
          "type": "uint256"
        },
        {
          "internalType": "uint256",
          "name": "creationDate",
          "type": "uint256"
        },
        {
          "internalType": "uint256",
          "name": "activeDuration",
          "type": "uint256"
        },
        {
          "internalType": "uint256",
          "name": "premium",
          "type": "uint256"
        },
        {
          "internalType": "uint256",
          "name": "delayPayout",
          "type": "uint256"
        },
        {
          "internalType": "uint256",
          "name": "delayThreshold",
          "type": "uint256"
        },
        {
          "internalType": "uint256",
          "name": "payoutToDate",
          "type": "uint256"
        },
        {
          "internalType": "uint256",
          "name": "maxPayout",
          "type": "uint256"
        },
        {
          "internalType": "address",
          "name": "insured",
          "type": "address"
        },
        {
          "internalType": "address",
          "name": "insurer",
          "type": "address"
        },
        {
          "internalType": "enum FlightPolicy.PolicyStatus",
          "name": "status",
          "type": "uint8"
        }
      ],
      "stateMutability": "view",
      "type": "function"
    },
    {
      "inputs": [
        {
          "internalType": "uint256",
          "name": "policyType",
          "type": "uint256"
        },
        {
          "internalType": "string",
          "name": "flightNumber",
          "type": "string"
        },
        {
          "internalType": "uint256",
          "name": "departureTime",
          "type": "uint256"
        },
        {
          "internalType": "address",
          "name": "policyHolder",
          "type": "address"
        }
      ],
      "name": "purchasePolicy",
      "outputs": [
        {
          "internalType": "uint256",
          "name": "",
          "type": "uint256"
        }
      ],
      "stateMutability": "nonpayable",
      "type": "function"
    }
  ],
  "bytecode": "0x60a06040526000805534801561001457600080fd5b503373ffffffffffffffffffffffffffffffffffffffff1660808173ffffffffffffffffffffffffffffffffffffffff168152505060805161313961008760003960008181610207015281816103fb015281816105f70152818161095701528181611561015261188101526131396000f3fe608060405234801561001057600080fd5b50600436106100935760003560e01c80638f2d9434116100665780638f2d94341461011e578063bb5290681461014e578063cc03801014610189578063d0cc1e9b146101b9578063fed27c8f146101e957610093565b8063226f8817146100985780633960abf4146100b457806339ebeea7146100d057806363b60300146100ee575b600080fd5b6100b260048036038101906100ad9190611f84565b610205565b005b6100ce60048036038101906100c9919061212d565b6103f9565b005b6100d86105f3565b6040516100e5919061262c565b60405180910390f35b61010860048036038101906101039190611f84565b610953565b604051610115919061262c565b60405180910390f35b6101386004803603810190610133919061264e565b610df2565b60405161014591906126e0565b60405180910390f35b610168600480360381019061016391906126fb565b6111d8565b6040516101809c9b9a99989796959493929190612759565b60405180910390f35b6101a3600480360381019061019e9190612813565b6112a2565b6040516101b09190612975565b60405180910390f35b6101d360048036038101906101ce9190612997565b61155d565b6040516101e091906126e0565b60405180910390f35b61020360048036038101906101fe9190612813565b61187f565b005b7f000000000000000000000000000000000000000000000000000000000000000073ffffffffffffffffffffffffffffffffffffffff163373ffffffffffffffffffffffffffffffffffffffff1614610293576040517f08c379a000000000000000000000000000000000000000000000000000000000815260040161028a90612a95565b60405180910390fd5b6000600160008373ffffffffffffffffffffffffffffffffffffffff1673ffffffffffffffffffffffffffffffffffffffff1681526020019081526020016000208054905011610318576040517f08c379a000000000000000000000000000000000000000000000000000000000815260040161030f90612b01565b60405180910390fd5b6000600160008373ffffffffffffffffffffffffffffffffffffffff1673ffffffffffffffffffffffffffffffffffffffff16815260200190815260200160002060018060008573ffffffffffffffffffffffffffffffffffffffff1673ffffffffffffffffffffffffffffffffffffffff168152602001908152602001600020805490506103a79190612b50565b815481106103b8576103b7612b84565b5b90600052602060002090600d02019050600281600c0160146101000a81548160ff021916908360038111156103f0576103ef6123ea565b5b02179055505050565b7f000000000000000000000000000000000000000000000000000000000000000073ffffffffffffffffffffffffffffffffffffffff163373ffffffffffffffffffffffffffffffffffffffff1614610487576040517f08c379a000000000000000000000000000000000000000000000000000000000815260040161047e90612a95565b60405180910390fd5b6000600160008473ffffffffffffffffffffffffffffffffffffffff1673ffffffffffffffffffffffffffffffffffffffff1681526020019081526020016000206001836104d59190612b50565b815481106104e6576104e5612b84565b5b90600052602060002090600d020190506000600381111561050a576105096123ea565b5b81600c0160149054906101000a900460ff16600381111561052e5761052d6123ea565b5b1461056e576040517f08c379a000000000000000000000000000000000000000000000000000000000815260040161056590612c25565b60405180910390fd5b60018160010160008282546105839190612c45565b9250508190555080600201859080600181540180825580915050600190039060005260206000200160009091909190915090816105c09190612e85565b50806003018490806001815401808255809150506001900390600052602060002001600090919091909150555050505050565b60607f000000000000000000000000000000000000000000000000000000000000000073ffffffffffffffffffffffffffffffffffffffff163373ffffffffffffffffffffffffffffffffffffffff1614610683576040517f08c379a000000000000000000000000000000000000000000000000000000000815260040161067a90612a95565b60405180910390fd5b6002805480602002602001604051908101604052809291908181526020016000905b8282101561094a57838290600052602060002090600d0201604051806101c0016040529081600082015481526020016001820154815260200160028201805480602002602001604051908101604052809291908181526020016000905b828210156107ae57838290600052602060002001805461072190612ca8565b80601f016020809104026020016040519081016040528092919081815260200182805461074d90612ca8565b801561079a5780601f1061076f5761010080835404028352916020019161079a565b820191906000526020600020905b81548152906001019060200180831161077d57829003601f168201915b505050505081526020019060010190610702565b5050505081526020016003820180548060200260200160405190810160405280929190818152602001828054801561080557602002820191906000526020600020905b8154815260200190600101908083116107f1575b50505050508152602001600482015481526020016005820154815260200160068201548152602001600782015481526020016008820154815260200160098201548152602001600a8201548152602001600b820160009054906101000a900473ffffffffffffffffffffffffffffffffffffffff1673ffffffffffffffffffffffffffffffffffffffff1673ffffffffffffffffffffffffffffffffffffffff168152602001600c820160009054906101000a900473ffffffffffffffffffffffffffffffffffffffff1673ffffffffffffffffffffffffffffffffffffffff1673ffffffffffffffffffffffffffffffffffffffff168152602001600c820160149054906101000a900460ff166003811115610925576109246123ea565b5b6003811115610937576109366123ea565b5b81525050815260200190600101906106a5565b50505050905090565b60607f000000000000000000000000000000000000000000000000000000000000000073ffffffffffffffffffffffffffffffffffffffff163373ffffffffffffffffffffffffffffffffffffffff16146109e3576040517f08c379a00000000000000000000000000000000000000000000000000000000081526004016109da90612a95565b60405180910390fd5b6000600160008473ffffffffffffffffffffffffffffffffffffffff1673ffffffffffffffffffffffffffffffffffffffff168152602001908152602001600020805490501115610ae357610ae2600160008473ffffffffffffffffffffffffffffffffffffffff1673ffffffffffffffffffffffffffffffffffffffff16815260200190815260200160002060018060008673ffffffffffffffffffffffffffffffffffffffff1673ffffffffffffffffffffffffffffffffffffffff16815260200190815260200160002080549050610abe9190612b50565b81548110610acf57610ace612b84565b5b90600052602060002090600d0201611bf3565b5b600160008373ffffffffffffffffffffffffffffffffffffffff1673ffffffffffffffffffffffffffffffffffffffff168152602001908152602001600020805480602002602001604051908101604052809291908181526020016000905b82821015610de757838290600052602060002090600d0201604051806101c0016040529081600082015481526020016001820154815260200160028201805480602002602001604051908101604052809291908181526020016000905b82821015610c4b578382906000526020600020018054610bbe90612ca8565b80601f0160208091040260200160405190810160405280929190818152602001828054610bea90612ca8565b8015610c375780601f10610c0c57610100808354040283529160200191610c37565b820191906000526020600020905b815481529060010190602001808311610c1a57829003601f168201915b505050505081526020019060010190610b9f565b50505050815260200160038201805480602002602001604051908101604052809291908181526020018280548015610ca257602002820191906000526020600020905b815481526020019060010190808311610c8e575b50505050508152602001600482015481526020016005820154815260200160068201548152602001600782015481526020016008820154815260200160098201548152602001600a8201548152602001600b820160009054906101000a900473ffffffffffffffffffffffffffffffffffffffff1673ffffffffffffffffffffffffffffffffffffffff1673ffffffffffffffffffffffffffffffffffffffff168152602001600c820160009054906101000a900473ffffffffffffffffffffffffffffffffffffffff1673ffffffffffffffffffffffffffffffffffffffff1673ffffffffffffffffffffffffffffffffffffffff168152602001600c820160149054906101000a900460ff166003811115610dc257610dc16123ea565b5b6003811115610dd457610dd36123ea565b5b8152505081526020019060010190610b42565b505050509050919050565b600080548511158015610e06575060008514155b610e45576040517f08c379a0000000000000000000000000000000000000000000000000000000008152600401610e3c90612fa3565b60405180910390fd5b600060018060008573ffffffffffffffffffffffffffffffffffffffff1673ffffffffffffffffffffffffffffffffffffffff16815260200190815260200160002080549050610e959190612c45565b905060006002600188610ea89190612b50565b81548110610eb957610eb8612b84565b5b90600052602060002090600d02019050818160000181905550600181600101819055508060020186908060018154018082558091505060019003906000526020600020016000909190919091509081610f129190612e85565b50806003018590806001815401808255809150506001900390600052602060002001600090919091909150554281600401819055508381600b0160006101000a81548173ffffffffffffffffffffffffffffffffffffffff021916908373ffffffffffffffffffffffffffffffffffffffff1602179055503381600c0160006101000a81548173ffffffffffffffffffffffffffffffffffffffff021916908373ffffffffffffffffffffffffffffffffffffffff160217905550600160008573ffffffffffffffffffffffffffffffffffffffff1673ffffffffffffffffffffffffffffffffffffffff1681526020019081526020016000208190806001815401808255809150506001900390600052602060002090600d020160009091909190915060008201548160000155600182015481600101556002820181600201908054611060929190611c8f565b506003820181600301908054611077929190611cec565b50600482015481600401556005820154816005015560068201548160060155600782015481600701556008820154816008015560098201548160090155600a82015481600a0155600b820160009054906101000a900473ffffffffffffffffffffffffffffffffffffffff1681600b0160006101000a81548173ffffffffffffffffffffffffffffffffffffffff021916908373ffffffffffffffffffffffffffffffffffffffff160217905550600c820160009054906101000a900473ffffffffffffffffffffffffffffffffffffffff1681600c0160006101000a81548173ffffffffffffffffffffffffffffffffffffffff021916908373ffffffffffffffffffffffffffffffffffffffff160217905550600c820160149054906101000a900460ff1681600c0160146101000a81548160ff021916908360038111156111c4576111c36123ea565b5b021790555050508192505050949350505050565b600160205281600052604060002081815481106111f457600080fd5b90600052602060002090600d02016000915091505080600001549080600101549080600401549080600501549080600601549080600701549080600801549080600901549080600a01549080600b0160009054906101000a900473ffffffffffffffffffffffffffffffffffffffff169080600c0160009054906101000a900473ffffffffffffffffffffffffffffffffffffffff169080600c0160149054906101000a900460ff1690508c565b6112aa611d3e565b60026001836112b99190612b50565b815481106112ca576112c9612b84565b5b90600052602060002090600d0201604051806101c0016040529081600082015481526020016001820154815260200160028201805480602002602001604051908101604052809291908181526020016000905b828210156113c957838290600052602060002001805461133c90612ca8565b80601f016020809104026020016040519081016040528092919081815260200182805461136890612ca8565b80156113b55780601f1061138a576101008083540402835291602001916113b5565b820191906000526020600020905b81548152906001019060200180831161139857829003601f168201915b50505050508152602001906001019061131d565b5050505081526020016003820180548060200260200160405190810160405280929190818152602001828054801561142057602002820191906000526020600020905b81548152602001906001019080831161140c575b50505050508152602001600482015481526020016005820154815260200160068201548152602001600782015481526020016008820154815260200160098201548152602001600a8201548152602001600b820160009054906101000a900473ffffffffffffffffffffffffffffffffffffffff1673ffffffffffffffffffffffffffffffffffffffff1673ffffffffffffffffffffffffffffffffffffffff168152602001600c820160009054906101000a900473ffffffffffffffffffffffffffffffffffffffff1673ffffffffffffffffffffffffffffffffffffffff1673ffffffffffffffffffffffffffffffffffffffff168152602001600c820160149054906101000a900460ff1660038111156115405761153f6123ea565b5b6003811115611552576115516123ea565b5b815250509050919050565b60007f000000000000000000000000000000000000000000000000000000000000000073ffffffffffffffffffffffffffffffffffffffff163373ffffffffffffffffffffffffffffffffffffffff16146115ed576040517f08c379a00000000000000000000000000000000000000000000000000000000081526004016115e490612a95565b60405180910390fd5b6060806000604051806101c00160405280600081526020016000815260200184815260200183815260200160008152602001868152602001670de0b6b3a76400008b6116399190612fc3565b8152602001670de0b6b3a76400008a6116529190612fc3565b815260200187815260200160008152602001670de0b6b3a7640000896116789190612fc3565b8152602001600073ffffffffffffffffffffffffffffffffffffffff1681526020013373ffffffffffffffffffffffffffffffffffffffff168152602001600060038111156116ca576116c96123ea565b5b815250905060028190806001815401808255809150506001900390600052602060002090600d02016000909190919091506000820151816000015560208201518160010155604082015181600201908051906020019061172b929190611deb565b506060820151816003019080519060200190611748929190611e44565b506080820151816004015560a0820151816005015560c0820151816006015560e082015181600701556101008201518160080155610120820151816009015561014082015181600a015561016082015181600b0160006101000a81548173ffffffffffffffffffffffffffffffffffffffff021916908373ffffffffffffffffffffffffffffffffffffffff16021790555061018082015181600c0160006101000a81548173ffffffffffffffffffffffffffffffffffffffff021916908373ffffffffffffffffffffffffffffffffffffffff1602179055506101a082015181600c0160146101000a81548160ff0219169083600381111561184e5761184d6123ea565b5b0217905550505060016000808282546118679190612c45565b92505081905550600054935050505095945050505050565b7f000000000000000000000000000000000000000000000000000000000000000073ffffffffffffffffffffffffffffffffffffffff163373ffffffffffffffffffffffffffffffffffffffff161461190d576040517f08c379a000000000000000000000000000000000000000000000000000000000815260040161190490612a95565b60405180910390fd5b6000600260018361191e9190612b50565b8154811061192f5761192e612b84565b5b90600052602060002090600d0201604051806101c0016040529081600082015481526020016001820154815260200160028201805480602002602001604051908101604052809291908181526020016000905b82821015611a2e5783829060005260206000200180546119a190612ca8565b80601f01602080910402602001604051908101604052809291908181526020018280546119cd90612ca8565b8015611a1a5780601f106119ef57610100808354040283529160200191611a1a565b820191906000526020600020905b8154815290600101906020018083116119fd57829003601f168201915b505050505081526020019060010190611982565b50505050815260200160038201805480602002602001604051908101604052809291908181526020018280548015611a8557602002820191906000526020600020905b815481526020019060010190808311611a71575b50505050508152602001600482015481526020016005820154815260200160068201548152602001600782015481526020016008820154815260200160098201548152602001600a8201548152602001600b820160009054906101000a900473ffffffffffffffffffffffffffffffffffffffff1673ffffffffffffffffffffffffffffffffffffffff1673ffffffffffffffffffffffffffffffffffffffff168152602001600c820160009054906101000a900473ffffffffffffffffffffffffffffffffffffffff1673ffffffffffffffffffffffffffffffffffffffff1673ffffffffffffffffffffffffffffffffffffffff168152602001600c820160149054906101000a900460ff166003811115611ba557611ba46123ea565b5b6003811115611bb757611bb66123ea565b5b8152505090506003816101a001906003811115611bd757611bd66123ea565b5b90816003811115611beb57611bea6123ea565b5b815250505050565b60006003811115611c0757611c066123ea565b5b81600c0160149054906101000a900460ff166003811115611c2b57611c2a6123ea565b5b148015611c595750620151808160050154611c469190612fc3565b8160040154611c559190612c45565b4210155b15611c8c57600181600c0160146101000a81548160ff02191690836003811115611c8657611c856123ea565b5b02179055505b50565b828054828255906000526020600020908101928215611cdb5760005260206000209182015b82811115611cda5782829081611cca919061301b565b5091600101919060010190611cb4565b5b509050611ce89190611e91565b5090565b828054828255906000526020600020908101928215611d2d5760005260206000209182015b82811115611d2c578254825591600101919060010190611d11565b5b509050611d3a9190611eb5565b5090565b604051806101c001604052806000815260200160008152602001606081526020016060815260200160008152602001600081526020016000815260200160008152602001600081526020016000815260200160008152602001600073ffffffffffffffffffffffffffffffffffffffff168152602001600073ffffffffffffffffffffffffffffffffffffffff16815260200160006003811115611de557611de46123ea565b5b81525090565b828054828255906000526020600020908101928215611e33579160200282015b82811115611e32578251829081611e229190612e85565b5091602001919060010190611e0b565b5b509050611e409190611e91565b5090565b828054828255906000526020600020908101928215611e80579160200282015b82811115611e7f578251825591602001919060010190611e64565b5b509050611e8d9190611eb5565b5090565b5b80821115611eb15760008181611ea89190611ed2565b50600101611e92565b5090565b5b80821115611ece576000816000905550600101611eb6565b5090565b508054611ede90612ca8565b6000825580601f10611ef05750611f0f565b601f016020900490600052602060002090810190611f0e9190611eb5565b5b50565b6000604051905090565b600080fd5b600080fd5b600073ffffffffffffffffffffffffffffffffffffffff82169050919050565b6000611f5182611f26565b9050919050565b611f6181611f46565b8114611f6c57600080fd5b50565b600081359050611f7e81611f58565b92915050565b600060208284031215611f9a57611f99611f1c565b5b6000611fa884828501611f6f565b91505092915050565b600080fd5b600080fd5b6000601f19601f8301169050919050565b7f4e487b7100000000000000000000000000000000000000000000000000000000600052604160045260246000fd5b61200482611fbb565b810181811067ffffffffffffffff8211171561202357612022611fcc565b5b80604052505050565b6000612036611f12565b90506120428282611ffb565b919050565b600067ffffffffffffffff82111561206257612061611fcc565b5b61206b82611fbb565b9050602081019050919050565b82818337600083830152505050565b600061209a61209584612047565b61202c565b9050828152602081018484840111156120b6576120b5611fb6565b5b6120c1848285612078565b509392505050565b600082601f8301126120de576120dd611fb1565b5b81356120ee848260208601612087565b91505092915050565b6000819050919050565b61210a816120f7565b811461211557600080fd5b50565b60008135905061212781612101565b92915050565b6000806000806080858703121561214757612146611f1c565b5b600085013567ffffffffffffffff81111561216557612164611f21565b5b612171878288016120c9565b945050602061218287828801612118565b935050604061219387828801611f6f565b92505060606121a487828801612118565b91505092959194509250565b600081519050919050565b600082825260208201905092915050565b6000819050602082019050919050565b6121e5816120f7565b82525050565b600081519050919050565b600082825260208201905092915050565b6000819050602082019050919050565b600081519050919050565b600082825260208201905092915050565b60005b83811015612251578082015181840152602081019050612236565b60008484015250505050565b600061226882612217565b6122728185612222565b9350612282818560208601612233565b61228b81611fbb565b840191505092915050565b60006122a2838361225d565b905092915050565b6000602082019050919050565b60006122c2826121eb565b6122cc81856121f6565b9350836020820285016122de85612207565b8060005b8581101561231a57848403895281516122fb8582612296565b9450612306836122aa565b925060208a019950506001810190506122e2565b50829750879550505050505092915050565b600081519050919050565b600082825260208201905092915050565b6000819050602082019050919050565b600061236483836121dc565b60208301905092915050565b6000602082019050919050565b60006123888261232c565b6123928185612337565b935061239d83612348565b8060005b838110156123ce5781516123b58882612358565b97506123c083612370565b9250506001810190506123a1565b5085935050505092915050565b6123e481611f46565b82525050565b7f4e487b7100000000000000000000000000000000000000000000000000000000600052602160045260246000fd5b6004811061242a576124296123ea565b5b50565b600081905061243b82612419565b919050565b600061244b8261242d565b9050919050565b61245b81612440565b82525050565b60006101c08301600083015161247a60008601826121dc565b50602083015161248d60208601826121dc565b50604083015184820360408601526124a582826122b7565b915050606083015184820360608601526124bf828261237d565b91505060808301516124d460808601826121dc565b5060a08301516124e760a08601826121dc565b5060c08301516124fa60c08601826121dc565b5060e083015161250d60e08601826121dc565b506101008301516125226101008601826121dc565b506101208301516125376101208601826121dc565b5061014083015161254c6101408601826121dc565b506101608301516125616101608601826123db565b506101808301516125766101808601826123db565b506101a083015161258b6101a0860182612452565b508091505092915050565b60006125a28383612461565b905092915050565b6000602082019050919050565b60006125c2826121b0565b6125cc81856121bb565b9350836020820285016125de856121cc565b8060005b8581101561261a57848403895281516125fb8582612596565b9450612606836125aa565b925060208a019950506001810190506125e2565b50829750879550505050505092915050565b6000602082019050818103600083015261264681846125b7565b905092915050565b6000806000806080858703121561266857612667611f1c565b5b600061267687828801612118565b945050602085013567ffffffffffffffff81111561269757612696611f21565b5b6126a3878288016120c9565b93505060406126b487828801612118565b92505060606126c587828801611f6f565b91505092959194509250565b6126da816120f7565b82525050565b60006020820190506126f560008301846126d1565b92915050565b6000806040838503121561271257612711611f1c565b5b600061272085828601611f6f565b925050602061273185828601612118565b9150509250929050565b61274481611f46565b82525050565b61275381612440565b82525050565b60006101808201905061276f600083018f6126d1565b61277c602083018e6126d1565b612789604083018d6126d1565b612796606083018c6126d1565b6127a3608083018b6126d1565b6127b060a083018a6126d1565b6127bd60c08301896126d1565b6127ca60e08301886126d1565b6127d86101008301876126d1565b6127e661012083018661273b565b6127f461014083018561273b565b61280261016083018461274a565b9d9c50505050505050505050505050565b60006020828403121561282957612828611f1c565b5b600061283784828501612118565b91505092915050565b60006101c08301600083015161285960008601826121dc565b50602083015161286c60208601826121dc565b506040830151848203604086015261288482826122b7565b9150506060830151848203606086015261289e828261237d565b91505060808301516128b360808601826121dc565b5060a08301516128c660a08601826121dc565b5060c08301516128d960c08601826121dc565b5060e08301516128ec60e08601826121dc565b506101008301516129016101008601826121dc565b506101208301516129166101208601826121dc565b5061014083015161292b6101408601826121dc565b506101608301516129406101608601826123db565b506101808301516129556101808601826123db565b506101a083015161296a6101a0860182612452565b508091505092915050565b6000602082019050818103600083015261298f8184612840565b905092915050565b600080600080600060a086880312156129b3576129b2611f1c565b5b60006129c188828901612118565b95505060206129d288828901612118565b94505060406129e388828901612118565b93505060606129f488828901612118565b9250506080612a0588828901612118565b9150509295509295909350565b600082825260208201905092915050565b7f506f6c6963792c204f6e6c7920746865206f776e65722063616e2063616c6c2060008201527f746869732066756e6374696f6e00000000000000000000000000000000000000602082015250565b6000612a7f602d83612a12565b9150612a8a82612a23565b604082019050919050565b60006020820190508181036000830152612aae81612a72565b9050919050565b7f4e6f20706f6c696369657320617661696c61626c650000000000000000000000600082015250565b6000612aeb601583612a12565b9150612af682612ab5565b602082019050919050565b60006020820190508181036000830152612b1a81612ade565b9050919050565b7f4e487b7100000000000000000000000000000000000000000000000000000000600052601160045260246000fd5b6000612b5b826120f7565b9150612b66836120f7565b9250828203905081811115612b7e57612b7d612b21565b5b92915050565b7f4e487b7100000000000000000000000000000000000000000000000000000000600052603260045260246000fd5b7f506f6c69637920686173206265656e20636c61696d6564206f7220686173206560008201527f7870697265640000000000000000000000000000000000000000000000000000602082015250565b6000612c0f602683612a12565b9150612c1a82612bb3565b604082019050919050565b60006020820190508181036000830152612c3e81612c02565b9050919050565b6000612c50826120f7565b9150612c5b836120f7565b9250828201905080821115612c7357612c72612b21565b5b92915050565b7f4e487b7100000000000000000000000000000000000000000000000000000000600052602260045260246000fd5b60006002820490506001821680612cc057607f821691505b602082108103612cd357612cd2612c79565b5b50919050565b60008190508160005260206000209050919050565b60006020601f8301049050919050565b600082821b905092915050565b600060088302612d3b7fffffffffffffffffffffffffffffffffffffffffffffffffffffffffffffffff82612cfe565b612d458683612cfe565b95508019841693508086168417925050509392505050565b6000819050919050565b6000612d82612d7d612d78846120f7565b612d5d565b6120f7565b9050919050565b6000819050919050565b612d9c83612d67565b612db0612da882612d89565b848454612d0b565b825550505050565b600090565b612dc5612db8565b612dd0818484612d93565b505050565b5b81811015612df457612de9600082612dbd565b600181019050612dd6565b5050565b601f821115612e3957612e0a81612cd9565b612e1384612cee565b81016020851015612e22578190505b612e36612e2e85612cee565b830182612dd5565b50505b505050565b600082821c905092915050565b6000612e5c60001984600802612e3e565b1980831691505092915050565b6000612e758383612e4b565b9150826002028217905092915050565b612e8e82612217565b67ffffffffffffffff811115612ea757612ea6611fcc565b5b612eb18254612ca8565b612ebc828285612df8565b600060209050601f831160018114612eef5760008415612edd578287015190505b612ee78582612e69565b865550612f4f565b601f198416612efd86612cd9565b60005b82811015612f2557848901518255600182019150602085019450602081019050612f00565b86831015612f425784890151612f3e601f891682612e4b565b8355505b6001600288020188555050505b505050505050565b7f496e76616c696420706f6c696379207479706500000000000000000000000000600082015250565b6000612f8d601383612a12565b9150612f9882612f57565b602082019050919050565b60006020820190508181036000830152612fbc81612f80565b9050919050565b6000612fce826120f7565b9150612fd9836120f7565b9250828202612fe7816120f7565b91508282048414831517612ffe57612ffd612b21565b5b5092915050565b60008154905061301481612ca8565b9050919050565b818103613029575050613101565b61303282613005565b67ffffffffffffffff81111561304b5761304a611fcc565b5b6130558254612ca8565b613060828285612df8565b6000601f83116001811461308f576000841561307d578287015490505b6130878582612e69565b8655506130fa565b601f19841661309d87612cd9565b96506130a886612cd9565b60005b828110156130d0578489015482556001820191506001850194506020810190506130ab565b868310156130ed57848901546130e9601f891682612e4b565b8355505b6001600288020188555050505b5050505050505b56fea2646970667358221220536ed64f7c72b1dd72a3132b66931d57a1a135a0c996912359dca2561481089c64736f6c63430008130033",
  "linkReferences": {},
  "deployedLinkReferences": {}
}