{
  "_format": "hh-sol-artifact-1",
  "contractName": "Insurer",
  "sourceName": "contracts/Insurer.sol",
  "abi": [
    {
      "inputs": [
        {
          "internalType": "address",
          "name": "_flightPolicyAddress",
          "type": "address"
        }
      ],
      "stateMutability": "nonpayable",
      "type": "constructor"
    },
    {
      "anonymous": false,
      "inputs": [
        {
          "indexed": false,
          "internalType": "string",
          "name": "flightNumber",
          "type": "string"
        },
        {
          "indexed": false,
          "internalType": "uint256",
          "name": "departureTime",
          "type": "uint256"
        }
      ],
      "name": "FlightAdded",
      "type": "event"
    },
    {
      "anonymous": false,
      "inputs": [
        {
          "indexed": false,
          "internalType": "uint256",
          "name": "amount",
          "type": "uint256"
        },
        {
          "indexed": false,
          "internalType": "address",
          "name": "recipient",
          "type": "address"
        }
      ],
      "name": "Payout",
      "type": "event"
    },
    {
      "anonymous": false,
      "inputs": [
        {
          "indexed": false,
          "internalType": "uint256",
          "name": "policyTypeId",
          "type": "uint256"
        }
      ],
      "name": "PolicyAdded",
      "type": "event"
    },
    {
      "anonymous": false,
      "inputs": [
        {
          "indexed": false,
          "internalType": "uint256",
          "name": "policyId",
          "type": "uint256"
        }
      ],
      "name": "PolicyBought",
      "type": "event"
    },
    {
      "anonymous": false,
      "inputs": [
        {
          "indexed": false,
          "internalType": "uint256",
          "name": "policyTypeId",
          "type": "uint256"
        }
      ],
      "name": "PolicyDeleted",
      "type": "event"
    },
    {
      "inputs": [
        {
          "internalType": "string",
          "name": "flight",
          "type": "string"
        },
        {
          "internalType": "uint256",
          "name": "departureTime",
          "type": "uint256"
        }
      ],
      "name": "addNewFlight",
      "outputs": [],
      "stateMutability": "nonpayable",
      "type": "function"
    },
    {
      "inputs": [
        {
          "internalType": "uint256",
          "name": "premium",
          "type": "uint256"
        },
        {
          "internalType": "uint256",
          "name": "delayPayout",
          "type": "uint256"
        },
        {
          "internalType": "uint256",
          "name": "maxPayout",
          "type": "uint256"
        },
        {
          "internalType": "uint256",
          "name": "delayThreshold",
          "type": "uint256"
        },
        {
          "internalType": "uint256",
          "name": "activeDuration",
          "type": "uint256"
        }
      ],
      "name": "addPolicy",
      "outputs": [],
      "stateMutability": "nonpayable",
      "type": "function"
    },
    {
      "inputs": [
        {
          "internalType": "uint256",
          "name": "policyType",
          "type": "uint256"
        },
        {
          "internalType": "string",
          "name": "flight",
          "type": "string"
        },
        {
          "internalType": "uint256",
          "name": "departureTime",
          "type": "uint256"
        }
      ],
      "name": "buyPolicy",
      "outputs": [],
      "stateMutability": "payable",
      "type": "function"
    },
    {
      "inputs": [],
      "name": "claimPolicy",
      "outputs": [],
      "stateMutability": "nonpayable",
      "type": "function"
    },
    {
      "inputs": [],
      "name": "company",
      "outputs": [
        {
          "internalType": "address",
          "name": "",
          "type": "address"
        }
      ],
      "stateMutability": "view",
      "type": "function"
    },
    {
      "inputs": [
        {
          "internalType": "uint256",
          "name": "policyTypeId",
          "type": "uint256"
        }
      ],
      "name": "deletePolicy",
      "outputs": [],
      "stateMutability": "nonpayable",
      "type": "function"
    },
    {
      "inputs": [
        {
          "internalType": "address",
          "name": "",
          "type": "address"
        }
      ],
      "name": "flightPolicyHolders",
      "outputs": [
        {
          "internalType": "uint256",
          "name": "",
          "type": "uint256"
        }
      ],
      "stateMutability": "view",
      "type": "function"
    },
    {
      "inputs": [],
      "name": "flightPolicyInstance",
      "outputs": [
        {
          "internalType": "contract FlightPolicy",
          "name": "",
          "type": "address"
        }
      ],
      "stateMutability": "view",
      "type": "function"
    },
    {
      "inputs": [],
      "name": "getCompanyPolicies",
      "outputs": [
        {
          "components": [
            {
              "internalType": "uint256",
              "name": "policyId",
              "type": "uint256"
            },
            {
              "internalType": "uint256",
              "name": "numFlights",
              "type": "uint256"
            },
            {
              "internalType": "string[]",
              "name": "flightNumbers",
              "type": "string[]"
            },
            {
              "internalType": "uint256[]",
              "name": "departureTimes",
              "type": "uint256[]"
            },
            {
              "internalType": "uint256",
              "name": "creationDate",
              "type": "uint256"
            },
            {
              "internalType": "uint256",
              "name": "activeDuration",
              "type": "uint256"
            },
            {
              "internalType": "uint256",
              "name": "premium",
              "type": "uint256"
            },
            {
              "internalType": "uint256",
              "name": "delayPayout",
              "type": "uint256"
            },
            {
              "internalType": "uint256",
              "name": "delayThreshold",
              "type": "uint256"
            },
            {
              "internalType": "uint256",
              "name": "payoutToDate",
              "type": "uint256"
            },
            {
              "internalType": "uint256",
              "name": "maxPayout",
              "type": "uint256"
            },
            {
              "internalType": "address",
              "name": "insured",
              "type": "address"
            },
            {
              "internalType": "address",
              "name": "insurer",
              "type": "address"
            },
            {
              "internalType": "enum FlightPolicy.PolicyStatus",
              "name": "status",
              "type": "uint8"
            }
          ],
          "internalType": "struct FlightPolicy.policy[]",
          "name": "",
          "type": "tuple[]"
        }
      ],
      "stateMutability": "view",
      "type": "function"
    },
    {
      "inputs": [
        {
          "internalType": "address",
          "name": "user",
          "type": "address"
        }
      ],
      "name": "getPolicyOfCustomer",
      "outputs": [
        {
          "components": [
            {
              "internalType": "uint256",
              "name": "policyId",
              "type": "uint256"
            },
            {
              "internalType": "uint256",
              "name": "numFlights",
              "type": "uint256"
            },
            {
              "internalType": "string[]",
              "name": "flightNumbers",
              "type": "string[]"
            },
            {
              "internalType": "uint256[]",
              "name": "departureTimes",
              "type": "uint256[]"
            },
            {
              "internalType": "uint256",
              "name": "creationDate",
              "type": "uint256"
            },
            {
              "internalType": "uint256",
              "name": "activeDuration",
              "type": "uint256"
            },
            {
              "internalType": "uint256",
              "name": "premium",
              "type": "uint256"
            },
            {
              "internalType": "uint256",
              "name": "delayPayout",
              "type": "uint256"
            },
            {
              "internalType": "uint256",
              "name": "delayThreshold",
              "type": "uint256"
            },
            {
              "internalType": "uint256",
              "name": "payoutToDate",
              "type": "uint256"
            },
            {
              "internalType": "uint256",
              "name": "maxPayout",
              "type": "uint256"
            },
            {
              "internalType": "address",
              "name": "insured",
              "type": "address"
            },
            {
              "internalType": "address",
              "name": "insurer",
              "type": "address"
            },
            {
              "internalType": "enum FlightPolicy.PolicyStatus",
              "name": "status",
              "type": "uint8"
            }
          ],
          "internalType": "struct FlightPolicy.policy[]",
          "name": "",
          "type": "tuple[]"
        }
      ],
      "stateMutability": "view",
      "type": "function"
    },
    {
      "inputs": [
        {
          "internalType": "uint256",
          "name": "amountInWei",
          "type": "uint256"
        }
      ],
      "name": "withdrawFunds",
      "outputs": [],
      "stateMutability": "nonpayable",
      "type": "function"
    }
  ],
  "bytecode": "0x60806040523480156200001157600080fd5b506040516200293438038062002934833981810160405281019062000037919062000129565b806000806101000a81548173ffffffffffffffffffffffffffffffffffffffff021916908373ffffffffffffffffffffffffffffffffffffffff16021790555033600160006101000a81548173ffffffffffffffffffffffffffffffffffffffff021916908373ffffffffffffffffffffffffffffffffffffffff160217905550506200015b565b600080fd5b600073ffffffffffffffffffffffffffffffffffffffff82169050919050565b6000620000f182620000c4565b9050919050565b6200010381620000e4565b81146200010f57600080fd5b50565b6000815190506200012381620000f8565b92915050565b600060208284031215620001425762000141620000bf565b5b6000620001528482850162000112565b91505092915050565b6127c9806200016b6000396000f3fe60806040526004361061009c5760003560e01c80638ce99cdc116100645780638ce99cdc146101515780638f86e8961461017a57806391dca8fc146101a5578063ac5f84ed146101d0578063f100785d1461020d578063fed27c8f1461024a5761009c565b80630f3eeb86146100a157806314a20bea146100ca578063155dd5ee146100e15780635d754e5c1461010a5780636904c94d14610126575b600080fd5b3480156100ad57600080fd5b506100c860048036038101906100c3919061149d565b610273565b005b3480156100d657600080fd5b506100df610444565b005b3480156100ed57600080fd5b50610108600480360381019061010391906114f9565b61077f565b005b610124600480360381019061011f9190611526565b6108be565b005b34801561013257600080fd5b5061013b610c5f565b60405161014891906115d6565b60405180910390f35b34801561015d57600080fd5b50610178600480360381019061017391906115f1565b610c85565b005b34801561018657600080fd5b5061018f610dfd565b60405161019c91906116cb565b60405180910390f35b3480156101b157600080fd5b506101ba610e21565b6040516101c79190611b62565b60405180910390f35b3480156101dc57600080fd5b506101f760048036038101906101f29190611bb0565b61104b565b6040516102049190611bec565b60405180910390f35b34801561021957600080fd5b50610234600480360381019061022f9190611bb0565b611063565b6040516102419190611b62565b60405180910390f35b34801561025657600080fd5b50610271600480360381019061026c91906114f9565b61110b565b005b6000600260003373ffffffffffffffffffffffffffffffffffffffff1673ffffffffffffffffffffffffffffffffffffffff16815260200190815260200160002054036102f5576040517f08c379a00000000000000000000000000000000000000000000000000000000081526004016102ec90611c64565b60405180910390fd5b428111610337576040517f08c379a000000000000000000000000000000000000000000000000000000000815260040161032e90611cd0565b60405180910390fd5b60008054906101000a900473ffffffffffffffffffffffffffffffffffffffff1673ffffffffffffffffffffffffffffffffffffffff16633960abf4838333600260003373ffffffffffffffffffffffffffffffffffffffff1673ffffffffffffffffffffffffffffffffffffffff168152602001908152602001600020546040518563ffffffff1660e01b81526004016103d59493929190611d29565b600060405180830381600087803b1580156103ef57600080fd5b505af1158015610403573d6000803e3d6000fd5b505050507fe9c858985a8f3f5d8148a417d279b1564bbbdebc606b4882c89e4f67b231c7098282604051610438929190611d75565b60405180910390a15050565b6000600260003373ffffffffffffffffffffffffffffffffffffffff1673ffffffffffffffffffffffffffffffffffffffff16815260200190815260200160002054036104c6576040517f08c379a00000000000000000000000000000000000000000000000000000000081526004016104bd90611c64565b60405180910390fd5b60006001600260003373ffffffffffffffffffffffffffffffffffffffff1673ffffffffffffffffffffffffffffffffffffffff168152602001908152602001600020546105149190611dd4565b905060008060009054906101000a900473ffffffffffffffffffffffffffffffffffffffff1673ffffffffffffffffffffffffffffffffffffffff166363b60300336040518263ffffffff1660e01b815260040161057291906115d6565b600060405180830381865afa15801561058f573d6000803e3d6000fd5b505050506040513d6000823e3d601f19601f820116820180604052508101906105b891906122e1565b905060008183815181106105cf576105ce61232a565b5b60200260200101519050600060038111156105ed576105ec611920565b5b816101a00151600381111561060557610604611920565b5b14610645576040517f08c379a000000000000000000000000000000000000000000000000000000000815260040161063c906123cb565b60405180910390fd5b60008160e0015190508161014001518111156106645781610140015190505b81610160015173ffffffffffffffffffffffffffffffffffffffff166108fc829081150290604051600060405180830381858888f193505050501580156106af573d6000803e3d6000fd5b5060008054906101000a900473ffffffffffffffffffffffffffffffffffffffff1673ffffffffffffffffffffffffffffffffffffffff1663226f8817336040518263ffffffff1660e01b815260040161070991906115d6565b600060405180830381600087803b15801561072357600080fd5b505af1158015610737573d6000803e3d6000fd5b505050507f9b5d1a613fa5f0790b36b13103706e31fca06b229d87e9915b29fc20c1d76490818361016001516040516107719291906123eb565b60405180910390a150505050565b600160009054906101000a900473ffffffffffffffffffffffffffffffffffffffff1673ffffffffffffffffffffffffffffffffffffffff163373ffffffffffffffffffffffffffffffffffffffff161461080f576040517f08c379a000000000000000000000000000000000000000000000000000000000815260040161080690612486565b60405180910390fd5b47811115610852576040517f08c379a0000000000000000000000000000000000000000000000000000000008152600401610849906124f2565b60405180910390fd5b600160009054906101000a900473ffffffffffffffffffffffffffffffffffffffff1673ffffffffffffffffffffffffffffffffffffffff166108fc829081150290604051600060405180830381858888f193505050501580156108ba573d6000803e3d6000fd5b5050565b60008060009054906101000a900473ffffffffffffffffffffffffffffffffffffffff1673ffffffffffffffffffffffffffffffffffffffff1663cc038010856040518263ffffffff1660e01b815260040161091a9190611bec565b600060405180830381865afa158015610937573d6000803e3d6000fd5b505050506040513d6000823e3d601f19601f820116820180604052508101906109609190612512565b90508060c001513410156109a9576040517f08c379a00000000000000000000000000000000000000000000000000000000081526004016109a0906125cd565b60405180910390fd5b4282116109eb576040517f08c379a00000000000000000000000000000000000000000000000000000000081526004016109e290611cd0565b60405180910390fd5b60008060009054906101000a900473ffffffffffffffffffffffffffffffffffffffff1673ffffffffffffffffffffffffffffffffffffffff166363b60300336040518263ffffffff1660e01b8152600401610a4791906115d6565b600060405180830381865afa158015610a64573d6000803e3d6000fd5b505050506040513d6000823e3d601f19601f82011682018060405250810190610a8d91906122e1565b905060005b8151811015610b345760006003811115610aaf57610aae611920565b5b828281518110610ac257610ac161232a565b5b60200260200101516101a001516003811115610ae157610ae0611920565b5b03610b21576040517f08c379a0000000000000000000000000000000000000000000000000000000008152600401610b189061265f565b60405180910390fd5b8080610b2c9061267f565b915050610a92565b5060008060009054906101000a900473ffffffffffffffffffffffffffffffffffffffff1673ffffffffffffffffffffffffffffffffffffffff16638f2d9434878787336040518563ffffffff1660e01b8152600401610b9794939291906126c7565b6020604051808303816000875af1158015610bb6573d6000803e3d6000fd5b505050506040513d601f19601f82011682018060405250810190610bda9190612713565b905080600260003373ffffffffffffffffffffffffffffffffffffffff1673ffffffffffffffffffffffffffffffffffffffff168152602001908152602001600020819055507ff3cf5fd307f001315d25c07166fdae9ae7a2dfe6ad14071ca9a2e10733d307e781604051610c4f9190611bec565b60405180910390a1505050505050565b600160009054906101000a900473ffffffffffffffffffffffffffffffffffffffff1681565b600160009054906101000a900473ffffffffffffffffffffffffffffffffffffffff1673ffffffffffffffffffffffffffffffffffffffff163373ffffffffffffffffffffffffffffffffffffffff1614610d15576040517f08c379a0000000000000000000000000000000000000000000000000000000008152600401610d0c90612486565b60405180910390fd5b60008060009054906101000a900473ffffffffffffffffffffffffffffffffffffffff1673ffffffffffffffffffffffffffffffffffffffff1663d0cc1e9b83888887896040518663ffffffff1660e01b8152600401610d79959493929190612740565b6020604051808303816000875af1158015610d98573d6000803e3d6000fd5b505050506040513d601f19601f82011682018060405250810190610dbc9190612713565b90507f024a1db391c63d350ba33664c84386c69b2f4891094f69f737890d6cba9603fb81604051610ded9190611bec565b60405180910390a1505050505050565b60008054906101000a900473ffffffffffffffffffffffffffffffffffffffff1681565b606060008060009054906101000a900473ffffffffffffffffffffffffffffffffffffffff1673ffffffffffffffffffffffffffffffffffffffff166339ebeea76040518163ffffffff1660e01b8152600401600060405180830381865afa158015610e91573d6000803e3d6000fd5b505050506040513d6000823e3d601f19601f82011682018060405250810190610eba91906122e1565b90506000805b8251811015610f365760006003811115610edd57610edc611920565b5b838281518110610ef057610eef61232a565b5b60200260200101516101a001516003811115610f0f57610f0e611920565b5b03610f23578180610f1f9061267f565b9250505b8080610f2e9061267f565b915050610ec0565b5060008167ffffffffffffffff811115610f5357610f5261133c565b5b604051908082528060200260200182016040528015610f8c57816020015b610f79611260565b815260200190600190039081610f715790505b5090506000805b84518110156110405760006003811115610fb057610faf611920565b5b858281518110610fc357610fc261232a565b5b60200260200101516101a001516003811115610fe257610fe1611920565b5b0361102d57848181518110610ffa57610ff961232a565b5b602002602001015183838061100e9061267f565b9450815181106110215761102061232a565b5b60200260200101819052505b80806110389061267f565b915050610f93565b508194505050505090565b60026020528060005260406000206000915090505481565b606060008054906101000a900473ffffffffffffffffffffffffffffffffffffffff1673ffffffffffffffffffffffffffffffffffffffff166363b60300836040518263ffffffff1660e01b81526004016110be91906115d6565b600060405180830381865afa1580156110db573d6000803e3d6000fd5b505050506040513d6000823e3d601f19601f8201168201806040525081019061110491906122e1565b9050919050565b600160009054906101000a900473ffffffffffffffffffffffffffffffffffffffff1673ffffffffffffffffffffffffffffffffffffffff163373ffffffffffffffffffffffffffffffffffffffff161461119b576040517f08c379a000000000000000000000000000000000000000000000000000000000815260040161119290612486565b60405180910390fd5b60008054906101000a900473ffffffffffffffffffffffffffffffffffffffff1673ffffffffffffffffffffffffffffffffffffffff1663fed27c8f826040518263ffffffff1660e01b81526004016111f49190611bec565b600060405180830381600087803b15801561120e57600080fd5b505af1158015611222573d6000803e3d6000fd5b505050507f433ab09ab993382af577c4a70f77dcc7cf149b5b52eb40d19b869664bfb5496d816040516112559190611bec565b60405180910390a150565b604051806101c001604052806000815260200160008152602001606081526020016060815260200160008152602001600081526020016000815260200160008152602001600081526020016000815260200160008152602001600073ffffffffffffffffffffffffffffffffffffffff168152602001600073ffffffffffffffffffffffffffffffffffffffff1681526020016000600381111561130757611306611920565b5b81525090565b6000604051905090565b600080fd5b600080fd5b600080fd5b600080fd5b6000601f19601f8301169050919050565b7f4e487b7100000000000000000000000000000000000000000000000000000000600052604160045260246000fd5b6113748261132b565b810181811067ffffffffffffffff821117156113935761139261133c565b5b80604052505050565b60006113a661130d565b90506113b2828261136b565b919050565b600067ffffffffffffffff8211156113d2576113d161133c565b5b6113db8261132b565b9050602081019050919050565b82818337600083830152505050565b600061140a611405846113b7565b61139c565b90508281526020810184848401111561142657611425611326565b5b6114318482856113e8565b509392505050565b600082601f83011261144e5761144d611321565b5b813561145e8482602086016113f7565b91505092915050565b6000819050919050565b61147a81611467565b811461148557600080fd5b50565b60008135905061149781611471565b92915050565b600080604083850312156114b4576114b3611317565b5b600083013567ffffffffffffffff8111156114d2576114d161131c565b5b6114de85828601611439565b92505060206114ef85828601611488565b9150509250929050565b60006020828403121561150f5761150e611317565b5b600061151d84828501611488565b91505092915050565b60008060006060848603121561153f5761153e611317565b5b600061154d86828701611488565b935050602084013567ffffffffffffffff81111561156e5761156d61131c565b5b61157a86828701611439565b925050604061158b86828701611488565b9150509250925092565b600073ffffffffffffffffffffffffffffffffffffffff82169050919050565b60006115c082611595565b9050919050565b6115d0816115b5565b82525050565b60006020820190506115eb60008301846115c7565b92915050565b600080600080600060a0868803121561160d5761160c611317565b5b600061161b88828901611488565b955050602061162c88828901611488565b945050604061163d88828901611488565b935050606061164e88828901611488565b925050608061165f88828901611488565b9150509295509295909350565b6000819050919050565b600061169161168c61168784611595565b61166c565b611595565b9050919050565b60006116a382611676565b9050919050565b60006116b582611698565b9050919050565b6116c5816116aa565b82525050565b60006020820190506116e060008301846116bc565b92915050565b600081519050919050565b600082825260208201905092915050565b6000819050602082019050919050565b61171b81611467565b82525050565b600081519050919050565b600082825260208201905092915050565b6000819050602082019050919050565b600081519050919050565b600082825260208201905092915050565b60005b8381101561178757808201518184015260208101905061176c565b60008484015250505050565b600061179e8261174d565b6117a88185611758565b93506117b8818560208601611769565b6117c18161132b565b840191505092915050565b60006117d88383611793565b905092915050565b6000602082019050919050565b60006117f882611721565b611802818561172c565b9350836020820285016118148561173d565b8060005b85811015611850578484038952815161183185826117cc565b945061183c836117e0565b925060208a01995050600181019050611818565b50829750879550505050505092915050565b600081519050919050565b600082825260208201905092915050565b6000819050602082019050919050565b600061189a8383611712565b60208301905092915050565b6000602082019050919050565b60006118be82611862565b6118c8818561186d565b93506118d38361187e565b8060005b838110156119045781516118eb888261188e565b97506118f6836118a6565b9250506001810190506118d7565b5085935050505092915050565b61191a816115b5565b82525050565b7f4e487b7100000000000000000000000000000000000000000000000000000000600052602160045260246000fd5b600481106119605761195f611920565b5b50565b60008190506119718261194f565b919050565b600061198182611963565b9050919050565b61199181611976565b82525050565b60006101c0830160008301516119b06000860182611712565b5060208301516119c36020860182611712565b50604083015184820360408601526119db82826117ed565b915050606083015184820360608601526119f582826118b3565b9150506080830151611a0a6080860182611712565b5060a0830151611a1d60a0860182611712565b5060c0830151611a3060c0860182611712565b5060e0830151611a4360e0860182611712565b50610100830151611a58610100860182611712565b50610120830151611a6d610120860182611712565b50610140830151611a82610140860182611712565b50610160830151611a97610160860182611911565b50610180830151611aac610180860182611911565b506101a0830151611ac16101a0860182611988565b508091505092915050565b6000611ad88383611997565b905092915050565b6000602082019050919050565b6000611af8826116e6565b611b0281856116f1565b935083602082028501611b1485611702565b8060005b85811015611b505784840389528151611b318582611acc565b9450611b3c83611ae0565b925060208a01995050600181019050611b18565b50829750879550505050505092915050565b60006020820190508181036000830152611b7c8184611aed565b905092915050565b611b8d816115b5565b8114611b9857600080fd5b50565b600081359050611baa81611b84565b92915050565b600060208284031215611bc657611bc5611317565b5b6000611bd484828501611b9b565b91505092915050565b611be681611467565b82525050565b6000602082019050611c016000830184611bdd565b92915050565b600082825260208201905092915050565b7f596f7520646f206e6f74206f776e206120666c6967687420706f6c6963790000600082015250565b6000611c4e601e83611c07565b9150611c5982611c18565b602082019050919050565b60006020820190508181036000830152611c7d81611c41565b9050919050565b7f466c69676874206d75737420626520696e207468652066757475726500000000600082015250565b6000611cba601c83611c07565b9150611cc582611c84565b602082019050919050565b60006020820190508181036000830152611ce981611cad565b9050919050565b6000611cfb8261174d565b611d058185611c07565b9350611d15818560208601611769565b611d1e8161132b565b840191505092915050565b60006080820190508181036000830152611d438187611cf0565b9050611d526020830186611bdd565b611d5f60408301856115c7565b611d6c6060830184611bdd565b95945050505050565b60006040820190508181036000830152611d8f8185611cf0565b9050611d9e6020830184611bdd565b9392505050565b7f4e487b7100000000000000000000000000000000000000000000000000000000600052601160045260246000fd5b6000611ddf82611467565b9150611dea83611467565b9250828203905081811115611e0257611e01611da5565b5b92915050565b600067ffffffffffffffff821115611e2357611e2261133c565b5b602082029050602081019050919050565b600080fd5b600080fd5b600080fd5b600081519050611e5281611471565b92915050565b600067ffffffffffffffff821115611e7357611e7261133c565b5b602082029050602081019050919050565b6000611e97611e92846113b7565b61139c565b905082815260208101848484011115611eb357611eb2611326565b5b611ebe848285611769565b509392505050565b600082601f830112611edb57611eda611321565b5b8151611eeb848260208601611e84565b91505092915050565b6000611f07611f0284611e58565b61139c565b90508083825260208201905060208402830185811115611f2a57611f29611e34565b5b835b81811015611f7157805167ffffffffffffffff811115611f4f57611f4e611321565b5b808601611f5c8982611ec6565b85526020850194505050602081019050611f2c565b5050509392505050565b600082601f830112611f9057611f8f611321565b5b8151611fa0848260208601611ef4565b91505092915050565b600067ffffffffffffffff821115611fc457611fc361133c565b5b602082029050602081019050919050565b6000611fe8611fe384611fa9565b61139c565b9050808382526020820190506020840283018581111561200b5761200a611e34565b5b835b8181101561203457806120208882611e43565b84526020840193505060208101905061200d565b5050509392505050565b600082601f83011261205357612052611321565b5b8151612063848260208601611fd5565b91505092915050565b60008151905061207b81611b84565b92915050565b6004811061208e57600080fd5b50565b6000815190506120a081612081565b92915050565b60006101c082840312156120bd576120bc611e39565b5b6120c86101c061139c565b905060006120d884828501611e43565b60008301525060206120ec84828501611e43565b602083015250604082015167ffffffffffffffff8111156121105761210f611e3e565b5b61211c84828501611f7b565b604083015250606082015167ffffffffffffffff8111156121405761213f611e3e565b5b61214c8482850161203e565b606083015250608061216084828501611e43565b60808301525060a061217484828501611e43565b60a08301525060c061218884828501611e43565b60c08301525060e061219c84828501611e43565b60e0830152506101006121b184828501611e43565b610100830152506101206121c784828501611e43565b610120830152506101406121dd84828501611e43565b610140830152506101606121f38482850161206c565b610160830152506101806122098482850161206c565b610180830152506101a061221f84828501612091565b6101a08301525092915050565b600061223f61223a84611e08565b61139c565b9050808382526020820190506020840283018581111561226257612261611e34565b5b835b818110156122a957805167ffffffffffffffff81111561228757612286611321565b5b80860161229489826120a6565b85526020850194505050602081019050612264565b5050509392505050565b600082601f8301126122c8576122c7611321565b5b81516122d884826020860161222c565b91505092915050565b6000602082840312156122f7576122f6611317565b5b600082015167ffffffffffffffff8111156123155761231461131c565b5b612321848285016122b3565b91505092915050565b7f4e487b7100000000000000000000000000000000000000000000000000000000600052603260045260246000fd5b7f506f6c69637920616c726561647920636c61696d6564206f722065787069726560008201527f6400000000000000000000000000000000000000000000000000000000000000602082015250565b60006123b5602183611c07565b91506123c082612359565b604082019050919050565b600060208201905081810360008301526123e4816123a8565b9050919050565b60006040820190506124006000830185611bdd565b61240d60208301846115c7565b9392505050565b7f4f6e6c792074686520636f6d70616e792063616e2063616c6c2074686973206660008201527f756e6374696f6e00000000000000000000000000000000000000000000000000602082015250565b6000612470602783611c07565b915061247b82612414565b604082019050919050565b6000602082019050818103600083015261249f81612463565b9050919050565b7f496e73756666696369656e742062616c616e6365000000000000000000000000600082015250565b60006124dc601483611c07565b91506124e7826124a6565b602082019050919050565b6000602082019050818103600083015261250b816124cf565b9050919050565b60006020828403121561252857612527611317565b5b600082015167ffffffffffffffff8111156125465761254561131c565b5b612552848285016120a6565b91505092915050565b7f4e6f7420656e6f7567682045544820746f20707572636861736520706f6c696360008201527f7900000000000000000000000000000000000000000000000000000000000000602082015250565b60006125b7602183611c07565b91506125c28261255b565b604082019050919050565b600060208201905081810360008301526125e6816125aa565b9050919050565b7f596f7520616c7265616479206861766520616e2061637469766520706f6c696360008201527f7900000000000000000000000000000000000000000000000000000000000000602082015250565b6000612649602183611c07565b9150612654826125ed565b604082019050919050565b600060208201905081810360008301526126788161263c565b9050919050565b600061268a82611467565b91507fffffffffffffffffffffffffffffffffffffffffffffffffffffffffffffffff82036126bc576126bb611da5565b5b600182019050919050565b60006080820190506126dc6000830187611bdd565b81810360208301526126ee8186611cf0565b90506126fd6040830185611bdd565b61270a60608301846115c7565b95945050505050565b60006020828403121561272957612728611317565b5b600061273784828501611e43565b91505092915050565b600060a0820190506127556000830188611bdd565b6127626020830187611bdd565b61276f6040830186611bdd565b61277c6060830185611bdd565b6127896080830184611bdd565b969550505050505056fea2646970667358221220a5548dce53d6eabc1990f05eba2c2b8b9d413cda8e49b8a79410382ff7be733f64736f6c63430008130033",
  "linkReferences": {},
  "deployedLinkReferences": {}
}