{
  "_format": "hh-sol-artifact-1",
  "contractName": "Insurer",
  "sourceName": "contracts/Insurer.sol",
  "abi": [
    {
      "inputs": [
        {
          "internalType": "address",
          "name": "_flightPolicyAddress",
          "type": "address"
        }
      ],
      "stateMutability": "nonpayable",
      "type": "constructor"
    },
    {
      "anonymous": false,
      "inputs": [
        {
          "indexed": false,
          "internalType": "string",
          "name": "flightNumber",
          "type": "string"
        },
        {
          "indexed": false,
          "internalType": "uint256",
          "name": "departureTime",
          "type": "uint256"
        }
      ],
      "name": "FlightAdded",
      "type": "event"
    },
    {
      "anonymous": false,
      "inputs": [
        {
          "indexed": false,
          "internalType": "uint256",
          "name": "amount",
          "type": "uint256"
        },
        {
          "indexed": false,
          "internalType": "address",
          "name": "recipient",
          "type": "address"
        }
      ],
      "name": "Payout",
      "type": "event"
    },
    {
      "anonymous": false,
      "inputs": [
        {
          "indexed": false,
          "internalType": "uint256",
          "name": "policyTypeId",
          "type": "uint256"
        }
      ],
      "name": "PolicyAdded",
      "type": "event"
    },
    {
      "anonymous": false,
      "inputs": [
        {
          "indexed": false,
          "internalType": "uint256",
          "name": "policyId",
          "type": "uint256"
        }
      ],
      "name": "PolicyBought",
      "type": "event"
    },
    {
      "anonymous": false,
      "inputs": [
        {
          "indexed": false,
          "internalType": "uint256",
          "name": "policyTypeId",
          "type": "uint256"
        }
      ],
      "name": "PolicyDeleted",
      "type": "event"
    },
    {
      "inputs": [
        {
          "internalType": "string",
          "name": "flight",
          "type": "string"
        },
        {
          "internalType": "uint256",
          "name": "departureTime",
          "type": "uint256"
        }
      ],
      "name": "addNewFlight",
      "outputs": [],
      "stateMutability": "nonpayable",
      "type": "function"
    },
    {
      "inputs": [
        {
          "internalType": "uint256",
          "name": "premium",
          "type": "uint256"
        },
        {
          "internalType": "uint256",
          "name": "delayPayout",
          "type": "uint256"
        },
        {
          "internalType": "uint256",
          "name": "maxPayout",
          "type": "uint256"
        },
        {
          "internalType": "uint256",
          "name": "delayThreshold",
          "type": "uint256"
        },
        {
          "internalType": "uint256",
          "name": "activeDuration",
          "type": "uint256"
        }
      ],
      "name": "addPolicy",
      "outputs": [],
      "stateMutability": "nonpayable",
      "type": "function"
    },
    {
      "inputs": [
        {
          "internalType": "uint256",
          "name": "policyType",
          "type": "uint256"
        },
        {
          "internalType": "string",
          "name": "flight",
          "type": "string"
        },
        {
          "internalType": "uint256",
          "name": "departureTime",
          "type": "uint256"
        }
      ],
      "name": "buyPolicy",
      "outputs": [],
      "stateMutability": "payable",
      "type": "function"
    },
    {
      "inputs": [],
      "name": "claimPolicy",
      "outputs": [],
      "stateMutability": "nonpayable",
      "type": "function"
    },
    {
      "inputs": [],
      "name": "company",
      "outputs": [
        {
          "internalType": "address",
          "name": "",
          "type": "address"
        }
      ],
      "stateMutability": "view",
      "type": "function"
    },
    {
      "inputs": [
        {
          "internalType": "uint256",
          "name": "policyTypeId",
          "type": "uint256"
        }
      ],
      "name": "deletePolicy",
      "outputs": [],
      "stateMutability": "nonpayable",
      "type": "function"
    },
    {
      "inputs": [
        {
          "internalType": "address",
          "name": "",
          "type": "address"
        }
      ],
      "name": "flightPolicyHolders",
      "outputs": [
        {
          "internalType": "uint256",
          "name": "",
          "type": "uint256"
        }
      ],
      "stateMutability": "view",
      "type": "function"
    },
    {
      "inputs": [],
      "name": "flightPolicyInstance",
      "outputs": [
        {
          "internalType": "contract FlightPolicy",
          "name": "",
          "type": "address"
        }
      ],
      "stateMutability": "view",
      "type": "function"
    },
    {
      "inputs": [],
      "name": "getCompanyPolicies",
      "outputs": [
        {
          "components": [
            {
              "internalType": "uint256",
              "name": "policyId",
              "type": "uint256"
            },
            {
              "internalType": "uint256",
              "name": "numFlights",
              "type": "uint256"
            },
            {
              "internalType": "string[]",
              "name": "flightNumbers",
              "type": "string[]"
            },
            {
              "internalType": "uint256[]",
              "name": "departureTimes",
              "type": "uint256[]"
            },
            {
              "internalType": "uint256",
              "name": "creationDate",
              "type": "uint256"
            },
            {
              "internalType": "uint256",
              "name": "activeDuration",
              "type": "uint256"
            },
            {
              "internalType": "uint256",
              "name": "premium",
              "type": "uint256"
            },
            {
              "internalType": "uint256",
              "name": "delayPayout",
              "type": "uint256"
            },
            {
              "internalType": "uint256",
              "name": "delayThreshold",
              "type": "uint256"
            },
            {
              "internalType": "uint256",
              "name": "payoutToDate",
              "type": "uint256"
            },
            {
              "internalType": "uint256",
              "name": "maxPayout",
              "type": "uint256"
            },
            {
              "internalType": "address",
              "name": "insured",
              "type": "address"
            },
            {
              "internalType": "address",
              "name": "insurer",
              "type": "address"
            },
            {
              "internalType": "enum FlightPolicy.PolicyStatus",
              "name": "status",
              "type": "uint8"
            }
          ],
          "internalType": "struct FlightPolicy.policy[]",
          "name": "",
          "type": "tuple[]"
        }
      ],
      "stateMutability": "view",
      "type": "function"
    },
    {
      "inputs": [
        {
          "internalType": "address",
          "name": "user",
          "type": "address"
        }
      ],
      "name": "getPolicyOfCustomer",
      "outputs": [
        {
          "components": [
            {
              "internalType": "uint256",
              "name": "policyId",
              "type": "uint256"
            },
            {
              "internalType": "uint256",
              "name": "numFlights",
              "type": "uint256"
            },
            {
              "internalType": "string[]",
              "name": "flightNumbers",
              "type": "string[]"
            },
            {
              "internalType": "uint256[]",
              "name": "departureTimes",
              "type": "uint256[]"
            },
            {
              "internalType": "uint256",
              "name": "creationDate",
              "type": "uint256"
            },
            {
              "internalType": "uint256",
              "name": "activeDuration",
              "type": "uint256"
            },
            {
              "internalType": "uint256",
              "name": "premium",
              "type": "uint256"
            },
            {
              "internalType": "uint256",
              "name": "delayPayout",
              "type": "uint256"
            },
            {
              "internalType": "uint256",
              "name": "delayThreshold",
              "type": "uint256"
            },
            {
              "internalType": "uint256",
              "name": "payoutToDate",
              "type": "uint256"
            },
            {
              "internalType": "uint256",
              "name": "maxPayout",
              "type": "uint256"
            },
            {
              "internalType": "address",
              "name": "insured",
              "type": "address"
            },
            {
              "internalType": "address",
              "name": "insurer",
              "type": "address"
            },
            {
              "internalType": "enum FlightPolicy.PolicyStatus",
              "name": "status",
              "type": "uint8"
            }
          ],
          "internalType": "struct FlightPolicy.policy[]",
          "name": "",
          "type": "tuple[]"
        }
      ],
      "stateMutability": "view",
      "type": "function"
    },
    {
      "inputs": [
        {
          "internalType": "address",
          "name": "user",
          "type": "address"
        }
      ],
      "name": "isCompany",
      "outputs": [
        {
          "internalType": "bool",
          "name": "",
          "type": "bool"
        }
      ],
      "stateMutability": "view",
      "type": "function"
    },
    {
      "inputs": [
        {
          "internalType": "uint256",
          "name": "amountInWei",
          "type": "uint256"
        }
      ],
      "name": "withdrawFunds",
      "outputs": [],
      "stateMutability": "nonpayable",
      "type": "function"
    }
  ],
  "bytecode": "0x60806040523480156200001157600080fd5b5060405162002a0c38038062002a0c833981810160405281019062000037919062000129565b806000806101000a81548173ffffffffffffffffffffffffffffffffffffffff021916908373ffffffffffffffffffffffffffffffffffffffff16021790555033600160006101000a81548173ffffffffffffffffffffffffffffffffffffffff021916908373ffffffffffffffffffffffffffffffffffffffff160217905550506200015b565b600080fd5b600073ffffffffffffffffffffffffffffffffffffffff82169050919050565b6000620000f182620000c4565b9050919050565b6200010381620000e4565b81146200010f57600080fd5b50565b6000815190506200012381620000f8565b92915050565b600060208284031215620001425762000141620000bf565b5b6000620001528482850162000112565b91505092915050565b6128a1806200016b6000396000f3fe6080604052600436106100a75760003560e01c80638f86e896116100645780638f86e8961461018557806391dca8fc146101b0578063a0406ce2146101db578063ac5f84ed14610218578063f100785d14610255578063fed27c8f14610292576100a7565b80630f3eeb86146100ac57806314a20bea146100d5578063155dd5ee146100ec5780635d754e5c146101155780636904c94d146101315780638ce99cdc1461015c575b600080fd5b3480156100b857600080fd5b506100d360048036038101906100ce919061153f565b6102bb565b005b3480156100e157600080fd5b506100ea61048c565b005b3480156100f857600080fd5b50610113600480360381019061010e919061159b565b6107c7565b005b61012f600480360381019061012a91906115c8565b610906565b005b34801561013d57600080fd5b50610146610ca7565b6040516101539190611678565b60405180910390f35b34801561016857600080fd5b50610183600480360381019061017e9190611693565b610ccd565b005b34801561019157600080fd5b5061019a610e45565b6040516101a7919061176d565b60405180910390f35b3480156101bc57600080fd5b506101c5610e69565b6040516101d29190611c04565b60405180910390f35b3480156101e757600080fd5b5061020260048036038101906101fd9190611c52565b611093565b60405161020f9190611c9a565b60405180910390f35b34801561022457600080fd5b5061023f600480360381019061023a9190611c52565b6110ed565b60405161024c9190611cc4565b60405180910390f35b34801561026157600080fd5b5061027c60048036038101906102779190611c52565b611105565b6040516102899190611c04565b60405180910390f35b34801561029e57600080fd5b506102b960048036038101906102b4919061159b565b6111ad565b005b6000600260003373ffffffffffffffffffffffffffffffffffffffff1673ffffffffffffffffffffffffffffffffffffffff168152602001908152602001600020540361033d576040517f08c379a000000000000000000000000000000000000000000000000000000000815260040161033490611d3c565b60405180910390fd5b42811161037f576040517f08c379a000000000000000000000000000000000000000000000000000000000815260040161037690611da8565b60405180910390fd5b60008054906101000a900473ffffffffffffffffffffffffffffffffffffffff1673ffffffffffffffffffffffffffffffffffffffff16633960abf4838333600260003373ffffffffffffffffffffffffffffffffffffffff1673ffffffffffffffffffffffffffffffffffffffff168152602001908152602001600020546040518563ffffffff1660e01b815260040161041d9493929190611e01565b600060405180830381600087803b15801561043757600080fd5b505af115801561044b573d6000803e3d6000fd5b505050507fe9c858985a8f3f5d8148a417d279b1564bbbdebc606b4882c89e4f67b231c7098282604051610480929190611e4d565b60405180910390a15050565b6000600260003373ffffffffffffffffffffffffffffffffffffffff1673ffffffffffffffffffffffffffffffffffffffff168152602001908152602001600020540361050e576040517f08c379a000000000000000000000000000000000000000000000000000000000815260040161050590611d3c565b60405180910390fd5b60006001600260003373ffffffffffffffffffffffffffffffffffffffff1673ffffffffffffffffffffffffffffffffffffffff1681526020019081526020016000205461055c9190611eac565b905060008060009054906101000a900473ffffffffffffffffffffffffffffffffffffffff1673ffffffffffffffffffffffffffffffffffffffff166363b60300336040518263ffffffff1660e01b81526004016105ba9190611678565b600060405180830381865afa1580156105d7573d6000803e3d6000fd5b505050506040513d6000823e3d601f19601f8201168201806040525081019061060091906123b9565b9050600081838151811061061757610616612402565b5b6020026020010151905060006003811115610635576106346119c2565b5b816101a00151600381111561064d5761064c6119c2565b5b1461068d576040517f08c379a0000000000000000000000000000000000000000000000000000000008152600401610684906124a3565b60405180910390fd5b60008160e0015190508161014001518111156106ac5781610140015190505b81610160015173ffffffffffffffffffffffffffffffffffffffff166108fc829081150290604051600060405180830381858888f193505050501580156106f7573d6000803e3d6000fd5b5060008054906101000a900473ffffffffffffffffffffffffffffffffffffffff1673ffffffffffffffffffffffffffffffffffffffff1663226f8817336040518263ffffffff1660e01b81526004016107519190611678565b600060405180830381600087803b15801561076b57600080fd5b505af115801561077f573d6000803e3d6000fd5b505050507f9b5d1a613fa5f0790b36b13103706e31fca06b229d87e9915b29fc20c1d76490818361016001516040516107b99291906124c3565b60405180910390a150505050565b600160009054906101000a900473ffffffffffffffffffffffffffffffffffffffff1673ffffffffffffffffffffffffffffffffffffffff163373ffffffffffffffffffffffffffffffffffffffff1614610857576040517f08c379a000000000000000000000000000000000000000000000000000000000815260040161084e9061255e565b60405180910390fd5b4781111561089a576040517f08c379a0000000000000000000000000000000000000000000000000000000008152600401610891906125ca565b60405180910390fd5b600160009054906101000a900473ffffffffffffffffffffffffffffffffffffffff1673ffffffffffffffffffffffffffffffffffffffff166108fc829081150290604051600060405180830381858888f19350505050158015610902573d6000803e3d6000fd5b5050565b60008060009054906101000a900473ffffffffffffffffffffffffffffffffffffffff1673ffffffffffffffffffffffffffffffffffffffff1663cc038010856040518263ffffffff1660e01b81526004016109629190611cc4565b600060405180830381865afa15801561097f573d6000803e3d6000fd5b505050506040513d6000823e3d601f19601f820116820180604052508101906109a891906125ea565b90508060c001513410156109f1576040517f08c379a00000000000000000000000000000000000000000000000000000000081526004016109e8906126a5565b60405180910390fd5b428211610a33576040517f08c379a0000000000000000000000000000000000000000000000000000000008152600401610a2a90611da8565b60405180910390fd5b60008060009054906101000a900473ffffffffffffffffffffffffffffffffffffffff1673ffffffffffffffffffffffffffffffffffffffff166363b60300336040518263ffffffff1660e01b8152600401610a8f9190611678565b600060405180830381865afa158015610aac573d6000803e3d6000fd5b505050506040513d6000823e3d601f19601f82011682018060405250810190610ad591906123b9565b905060005b8151811015610b7c5760006003811115610af757610af66119c2565b5b828281518110610b0a57610b09612402565b5b60200260200101516101a001516003811115610b2957610b286119c2565b5b03610b69576040517f08c379a0000000000000000000000000000000000000000000000000000000008152600401610b6090612737565b60405180910390fd5b8080610b7490612757565b915050610ada565b5060008060009054906101000a900473ffffffffffffffffffffffffffffffffffffffff1673ffffffffffffffffffffffffffffffffffffffff16638f2d9434878787336040518563ffffffff1660e01b8152600401610bdf949392919061279f565b6020604051808303816000875af1158015610bfe573d6000803e3d6000fd5b505050506040513d601f19601f82011682018060405250810190610c2291906127eb565b905080600260003373ffffffffffffffffffffffffffffffffffffffff1673ffffffffffffffffffffffffffffffffffffffff168152602001908152602001600020819055507ff3cf5fd307f001315d25c07166fdae9ae7a2dfe6ad14071ca9a2e10733d307e781604051610c979190611cc4565b60405180910390a1505050505050565b600160009054906101000a900473ffffffffffffffffffffffffffffffffffffffff1681565b600160009054906101000a900473ffffffffffffffffffffffffffffffffffffffff1673ffffffffffffffffffffffffffffffffffffffff163373ffffffffffffffffffffffffffffffffffffffff1614610d5d576040517f08c379a0000000000000000000000000000000000000000000000000000000008152600401610d549061255e565b60405180910390fd5b60008060009054906101000a900473ffffffffffffffffffffffffffffffffffffffff1673ffffffffffffffffffffffffffffffffffffffff1663d0cc1e9b83888887896040518663ffffffff1660e01b8152600401610dc1959493929190612818565b6020604051808303816000875af1158015610de0573d6000803e3d6000fd5b505050506040513d601f19601f82011682018060405250810190610e0491906127eb565b90507f024a1db391c63d350ba33664c84386c69b2f4891094f69f737890d6cba9603fb81604051610e359190611cc4565b60405180910390a1505050505050565b60008054906101000a900473ffffffffffffffffffffffffffffffffffffffff1681565b606060008060009054906101000a900473ffffffffffffffffffffffffffffffffffffffff1673ffffffffffffffffffffffffffffffffffffffff166339ebeea76040518163ffffffff1660e01b8152600401600060405180830381865afa158015610ed9573d6000803e3d6000fd5b505050506040513d6000823e3d601f19601f82011682018060405250810190610f0291906123b9565b90506000805b8251811015610f7e5760006003811115610f2557610f246119c2565b5b838281518110610f3857610f37612402565b5b60200260200101516101a001516003811115610f5757610f566119c2565b5b03610f6b578180610f6790612757565b9250505b8080610f7690612757565b915050610f08565b5060008167ffffffffffffffff811115610f9b57610f9a6113de565b5b604051908082528060200260200182016040528015610fd457816020015b610fc1611302565b815260200190600190039081610fb95790505b5090506000805b84518110156110885760006003811115610ff857610ff76119c2565b5b85828151811061100b5761100a612402565b5b60200260200101516101a00151600381111561102a576110296119c2565b5b036110755784818151811061104257611041612402565b5b602002602001015183838061105690612757565b94508151811061106957611068612402565b5b60200260200101819052505b808061108090612757565b915050610fdb565b508194505050505090565b6000600160009054906101000a900473ffffffffffffffffffffffffffffffffffffffff1673ffffffffffffffffffffffffffffffffffffffff168273ffffffffffffffffffffffffffffffffffffffff16149050919050565b60026020528060005260406000206000915090505481565b606060008054906101000a900473ffffffffffffffffffffffffffffffffffffffff1673ffffffffffffffffffffffffffffffffffffffff166363b60300836040518263ffffffff1660e01b81526004016111609190611678565b600060405180830381865afa15801561117d573d6000803e3d6000fd5b505050506040513d6000823e3d601f19601f820116820180604052508101906111a691906123b9565b9050919050565b600160009054906101000a900473ffffffffffffffffffffffffffffffffffffffff1673ffffffffffffffffffffffffffffffffffffffff163373ffffffffffffffffffffffffffffffffffffffff161461123d576040517f08c379a00000000000000000000000000000000000000000000000000000000081526004016112349061255e565b60405180910390fd5b60008054906101000a900473ffffffffffffffffffffffffffffffffffffffff1673ffffffffffffffffffffffffffffffffffffffff1663fed27c8f826040518263ffffffff1660e01b81526004016112969190611cc4565b600060405180830381600087803b1580156112b057600080fd5b505af11580156112c4573d6000803e3d6000fd5b505050507f433ab09ab993382af577c4a70f77dcc7cf149b5b52eb40d19b869664bfb5496d816040516112f79190611cc4565b60405180910390a150565b604051806101c001604052806000815260200160008152602001606081526020016060815260200160008152602001600081526020016000815260200160008152602001600081526020016000815260200160008152602001600073ffffffffffffffffffffffffffffffffffffffff168152602001600073ffffffffffffffffffffffffffffffffffffffff168152602001600060038111156113a9576113a86119c2565b5b81525090565b6000604051905090565b600080fd5b600080fd5b600080fd5b600080fd5b6000601f19601f8301169050919050565b7f4e487b7100000000000000000000000000000000000000000000000000000000600052604160045260246000fd5b611416826113cd565b810181811067ffffffffffffffff82111715611435576114346113de565b5b80604052505050565b60006114486113af565b9050611454828261140d565b919050565b600067ffffffffffffffff821115611474576114736113de565b5b61147d826113cd565b9050602081019050919050565b82818337600083830152505050565b60006114ac6114a784611459565b61143e565b9050828152602081018484840111156114c8576114c76113c8565b5b6114d384828561148a565b509392505050565b600082601f8301126114f0576114ef6113c3565b5b8135611500848260208601611499565b91505092915050565b6000819050919050565b61151c81611509565b811461152757600080fd5b50565b60008135905061153981611513565b92915050565b60008060408385031215611556576115556113b9565b5b600083013567ffffffffffffffff811115611574576115736113be565b5b611580858286016114db565b92505060206115918582860161152a565b9150509250929050565b6000602082840312156115b1576115b06113b9565b5b60006115bf8482850161152a565b91505092915050565b6000806000606084860312156115e1576115e06113b9565b5b60006115ef8682870161152a565b935050602084013567ffffffffffffffff8111156116105761160f6113be565b5b61161c868287016114db565b925050604061162d8682870161152a565b9150509250925092565b600073ffffffffffffffffffffffffffffffffffffffff82169050919050565b600061166282611637565b9050919050565b61167281611657565b82525050565b600060208201905061168d6000830184611669565b92915050565b600080600080600060a086880312156116af576116ae6113b9565b5b60006116bd8882890161152a565b95505060206116ce8882890161152a565b94505060406116df8882890161152a565b93505060606116f08882890161152a565b92505060806117018882890161152a565b9150509295509295909350565b6000819050919050565b600061173361172e61172984611637565b61170e565b611637565b9050919050565b600061174582611718565b9050919050565b60006117578261173a565b9050919050565b6117678161174c565b82525050565b6000602082019050611782600083018461175e565b92915050565b600081519050919050565b600082825260208201905092915050565b6000819050602082019050919050565b6117bd81611509565b82525050565b600081519050919050565b600082825260208201905092915050565b6000819050602082019050919050565b600081519050919050565b600082825260208201905092915050565b60005b8381101561182957808201518184015260208101905061180e565b60008484015250505050565b6000611840826117ef565b61184a81856117fa565b935061185a81856020860161180b565b611863816113cd565b840191505092915050565b600061187a8383611835565b905092915050565b6000602082019050919050565b600061189a826117c3565b6118a481856117ce565b9350836020820285016118b6856117df565b8060005b858110156118f257848403895281516118d3858261186e565b94506118de83611882565b925060208a019950506001810190506118ba565b50829750879550505050505092915050565b600081519050919050565b600082825260208201905092915050565b6000819050602082019050919050565b600061193c83836117b4565b60208301905092915050565b6000602082019050919050565b600061196082611904565b61196a818561190f565b935061197583611920565b8060005b838110156119a657815161198d8882611930565b975061199883611948565b925050600181019050611979565b5085935050505092915050565b6119bc81611657565b82525050565b7f4e487b7100000000000000000000000000000000000000000000000000000000600052602160045260246000fd5b60048110611a0257611a016119c2565b5b50565b6000819050611a13826119f1565b919050565b6000611a2382611a05565b9050919050565b611a3381611a18565b82525050565b60006101c083016000830151611a5260008601826117b4565b506020830151611a6560208601826117b4565b5060408301518482036040860152611a7d828261188f565b91505060608301518482036060860152611a978282611955565b9150506080830151611aac60808601826117b4565b5060a0830151611abf60a08601826117b4565b5060c0830151611ad260c08601826117b4565b5060e0830151611ae560e08601826117b4565b50610100830151611afa6101008601826117b4565b50610120830151611b0f6101208601826117b4565b50610140830151611b246101408601826117b4565b50610160830151611b396101608601826119b3565b50610180830151611b4e6101808601826119b3565b506101a0830151611b636101a0860182611a2a565b508091505092915050565b6000611b7a8383611a39565b905092915050565b6000602082019050919050565b6000611b9a82611788565b611ba48185611793565b935083602082028501611bb6856117a4565b8060005b85811015611bf25784840389528151611bd38582611b6e565b9450611bde83611b82565b925060208a01995050600181019050611bba565b50829750879550505050505092915050565b60006020820190508181036000830152611c1e8184611b8f565b905092915050565b611c2f81611657565b8114611c3a57600080fd5b50565b600081359050611c4c81611c26565b92915050565b600060208284031215611c6857611c676113b9565b5b6000611c7684828501611c3d565b91505092915050565b60008115159050919050565b611c9481611c7f565b82525050565b6000602082019050611caf6000830184611c8b565b92915050565b611cbe81611509565b82525050565b6000602082019050611cd96000830184611cb5565b92915050565b600082825260208201905092915050565b7f596f7520646f206e6f74206f776e206120666c6967687420706f6c6963790000600082015250565b6000611d26601e83611cdf565b9150611d3182611cf0565b602082019050919050565b60006020820190508181036000830152611d5581611d19565b9050919050565b7f466c69676874206d75737420626520696e207468652066757475726500000000600082015250565b6000611d92601c83611cdf565b9150611d9d82611d5c565b602082019050919050565b60006020820190508181036000830152611dc181611d85565b9050919050565b6000611dd3826117ef565b611ddd8185611cdf565b9350611ded81856020860161180b565b611df6816113cd565b840191505092915050565b60006080820190508181036000830152611e1b8187611dc8565b9050611e2a6020830186611cb5565b611e376040830185611669565b611e446060830184611cb5565b95945050505050565b60006040820190508181036000830152611e678185611dc8565b9050611e766020830184611cb5565b9392505050565b7f4e487b7100000000000000000000000000000000000000000000000000000000600052601160045260246000fd5b6000611eb782611509565b9150611ec283611509565b9250828203905081811115611eda57611ed9611e7d565b5b92915050565b600067ffffffffffffffff821115611efb57611efa6113de565b5b602082029050602081019050919050565b600080fd5b600080fd5b600080fd5b600081519050611f2a81611513565b92915050565b600067ffffffffffffffff821115611f4b57611f4a6113de565b5b602082029050602081019050919050565b6000611f6f611f6a84611459565b61143e565b905082815260208101848484011115611f8b57611f8a6113c8565b5b611f9684828561180b565b509392505050565b600082601f830112611fb357611fb26113c3565b5b8151611fc3848260208601611f5c565b91505092915050565b6000611fdf611fda84611f30565b61143e565b9050808382526020820190506020840283018581111561200257612001611f0c565b5b835b8181101561204957805167ffffffffffffffff811115612027576120266113c3565b5b8086016120348982611f9e565b85526020850194505050602081019050612004565b5050509392505050565b600082601f830112612068576120676113c3565b5b8151612078848260208601611fcc565b91505092915050565b600067ffffffffffffffff82111561209c5761209b6113de565b5b602082029050602081019050919050565b60006120c06120bb84612081565b61143e565b905080838252602082019050602084028301858111156120e3576120e2611f0c565b5b835b8181101561210c57806120f88882611f1b565b8452602084019350506020810190506120e5565b5050509392505050565b600082601f83011261212b5761212a6113c3565b5b815161213b8482602086016120ad565b91505092915050565b60008151905061215381611c26565b92915050565b6004811061216657600080fd5b50565b60008151905061217881612159565b92915050565b60006101c0828403121561219557612194611f11565b5b6121a06101c061143e565b905060006121b084828501611f1b565b60008301525060206121c484828501611f1b565b602083015250604082015167ffffffffffffffff8111156121e8576121e7611f16565b5b6121f484828501612053565b604083015250606082015167ffffffffffffffff81111561221857612217611f16565b5b61222484828501612116565b606083015250608061223884828501611f1b565b60808301525060a061224c84828501611f1b565b60a08301525060c061226084828501611f1b565b60c08301525060e061227484828501611f1b565b60e08301525061010061228984828501611f1b565b6101008301525061012061229f84828501611f1b565b610120830152506101406122b584828501611f1b565b610140830152506101606122cb84828501612144565b610160830152506101806122e184828501612144565b610180830152506101a06122f784828501612169565b6101a08301525092915050565b600061231761231284611ee0565b61143e565b9050808382526020820190506020840283018581111561233a57612339611f0c565b5b835b8181101561238157805167ffffffffffffffff81111561235f5761235e6113c3565b5b80860161236c898261217e565b8552602085019450505060208101905061233c565b5050509392505050565b600082601f8301126123a05761239f6113c3565b5b81516123b0848260208601612304565b91505092915050565b6000602082840312156123cf576123ce6113b9565b5b600082015167ffffffffffffffff8111156123ed576123ec6113be565b5b6123f98482850161238b565b91505092915050565b7f4e487b7100000000000000000000000000000000000000000000000000000000600052603260045260246000fd5b7f506f6c69637920616c726561647920636c61696d6564206f722065787069726560008201527f6400000000000000000000000000000000000000000000000000000000000000602082015250565b600061248d602183611cdf565b915061249882612431565b604082019050919050565b600060208201905081810360008301526124bc81612480565b9050919050565b60006040820190506124d86000830185611cb5565b6124e56020830184611669565b9392505050565b7f4f6e6c792074686520636f6d70616e792063616e2063616c6c2074686973206660008201527f756e6374696f6e00000000000000000000000000000000000000000000000000602082015250565b6000612548602783611cdf565b9150612553826124ec565b604082019050919050565b600060208201905081810360008301526125778161253b565b9050919050565b7f496e73756666696369656e742062616c616e6365000000000000000000000000600082015250565b60006125b4601483611cdf565b91506125bf8261257e565b602082019050919050565b600060208201905081810360008301526125e3816125a7565b9050919050565b600060208284031215612600576125ff6113b9565b5b600082015167ffffffffffffffff81111561261e5761261d6113be565b5b61262a8482850161217e565b91505092915050565b7f4e6f7420656e6f7567682045544820746f20707572636861736520706f6c696360008201527f7900000000000000000000000000000000000000000000000000000000000000602082015250565b600061268f602183611cdf565b915061269a82612633565b604082019050919050565b600060208201905081810360008301526126be81612682565b9050919050565b7f596f7520616c7265616479206861766520616e2061637469766520706f6c696360008201527f7900000000000000000000000000000000000000000000000000000000000000602082015250565b6000612721602183611cdf565b915061272c826126c5565b604082019050919050565b6000602082019050818103600083015261275081612714565b9050919050565b600061276282611509565b91507fffffffffffffffffffffffffffffffffffffffffffffffffffffffffffffffff820361279457612793611e7d565b5b600182019050919050565b60006080820190506127b46000830187611cb5565b81810360208301526127c68186611dc8565b90506127d56040830185611cb5565b6127e26060830184611669565b95945050505050565b600060208284031215612801576128006113b9565b5b600061280f84828501611f1b565b91505092915050565b600060a08201905061282d6000830188611cb5565b61283a6020830187611cb5565b6128476040830186611cb5565b6128546060830185611cb5565b6128616080830184611cb5565b969550505050505056fea2646970667358221220430a18bdbe077abcf8f1cab87dceaa60f448275a3edaf3467efe8f29ebbe08c264736f6c63430008130033",
  "linkReferences": {},
  "deployedLinkReferences": {}
}