{
  "_format": "hh-sol-artifact-1",
  "contractName": "Insurer",
  "sourceName": "contracts/Insurer.sol",
  "abi": [
    {
      "inputs": [
        {
          "internalType": "address",
          "name": "_flightPolicyAddress",
          "type": "address"
        }
      ],
      "stateMutability": "nonpayable",
      "type": "constructor"
    },
    {
      "anonymous": false,
      "inputs": [
        {
          "indexed": false,
          "internalType": "string",
          "name": "flightNumber",
          "type": "string"
        },
        {
          "indexed": false,
          "internalType": "uint256",
          "name": "departureTime",
          "type": "uint256"
        }
      ],
      "name": "FlightAdded",
      "type": "event"
    },
    {
      "anonymous": false,
      "inputs": [
        {
          "indexed": false,
          "internalType": "uint256",
          "name": "amount",
          "type": "uint256"
        },
        {
          "indexed": false,
          "internalType": "address",
          "name": "recipient",
          "type": "address"
        }
      ],
      "name": "Payout",
      "type": "event"
    },
    {
      "anonymous": false,
      "inputs": [
        {
          "indexed": false,
          "internalType": "uint256",
          "name": "policyTypeId",
          "type": "uint256"
        }
      ],
      "name": "PolicyAdded",
      "type": "event"
    },
    {
      "anonymous": false,
      "inputs": [
        {
          "indexed": false,
          "internalType": "uint256",
          "name": "policyId",
          "type": "uint256"
        }
      ],
      "name": "PolicyBought",
      "type": "event"
    },
    {
      "anonymous": false,
      "inputs": [
        {
          "indexed": false,
          "internalType": "uint256",
          "name": "policyTypeId",
          "type": "uint256"
        }
      ],
      "name": "PolicyDeleted",
      "type": "event"
    },
    {
      "inputs": [
        {
          "internalType": "string",
          "name": "flight",
          "type": "string"
        },
        {
          "internalType": "uint256",
          "name": "departureTime",
          "type": "uint256"
        }
      ],
      "name": "addNewFlight",
      "outputs": [],
      "stateMutability": "nonpayable",
      "type": "function"
    },
    {
      "inputs": [
        {
          "internalType": "uint256",
          "name": "premium",
          "type": "uint256"
        },
        {
          "internalType": "uint256",
          "name": "delayPayout",
          "type": "uint256"
        },
        {
          "internalType": "uint256",
          "name": "maxPayout",
          "type": "uint256"
        },
        {
          "internalType": "uint256",
          "name": "delayThreshold",
          "type": "uint256"
        },
        {
          "internalType": "uint256",
          "name": "activeDuration",
          "type": "uint256"
        }
      ],
      "name": "addPolicy",
      "outputs": [],
      "stateMutability": "nonpayable",
      "type": "function"
    },
    {
      "inputs": [
        {
          "internalType": "uint256",
          "name": "policyType",
          "type": "uint256"
        },
        {
          "internalType": "string",
          "name": "flight",
          "type": "string"
        },
        {
          "internalType": "uint256",
          "name": "departureTime",
          "type": "uint256"
        }
      ],
      "name": "buyPolicy",
      "outputs": [],
      "stateMutability": "payable",
      "type": "function"
    },
    {
      "inputs": [],
      "name": "claimPolicy",
      "outputs": [],
      "stateMutability": "nonpayable",
      "type": "function"
    },
    {
      "inputs": [
        {
          "internalType": "uint256",
          "name": "policyTypeId",
          "type": "uint256"
        }
      ],
      "name": "deletePolicy",
      "outputs": [],
      "stateMutability": "nonpayable",
      "type": "function"
    },
    {
      "inputs": [
        {
          "internalType": "address",
          "name": "",
          "type": "address"
        }
      ],
      "name": "flightPolicyHolders",
      "outputs": [
        {
          "internalType": "uint256",
          "name": "",
          "type": "uint256"
        }
      ],
      "stateMutability": "view",
      "type": "function"
    },
    {
      "inputs": [
        {
          "internalType": "bool",
          "name": "onlyDiscontinued",
          "type": "bool"
        }
      ],
      "name": "getCompanyPolicies",
      "outputs": [
        {
          "components": [
            {
              "internalType": "uint256",
              "name": "policyId",
              "type": "uint256"
            },
            {
              "internalType": "uint256",
              "name": "numFlights",
              "type": "uint256"
            },
            {
              "internalType": "string[]",
              "name": "flightNumbers",
              "type": "string[]"
            },
            {
              "internalType": "uint256[]",
              "name": "departureTimes",
              "type": "uint256[]"
            },
            {
              "internalType": "uint256",
              "name": "creationDate",
              "type": "uint256"
            },
            {
              "internalType": "uint256",
              "name": "activeDuration",
              "type": "uint256"
            },
            {
              "internalType": "uint256",
              "name": "premium",
              "type": "uint256"
            },
            {
              "internalType": "uint256",
              "name": "delayPayout",
              "type": "uint256"
            },
            {
              "internalType": "uint256",
              "name": "delayThreshold",
              "type": "uint256"
            },
            {
              "internalType": "uint256",
              "name": "payoutToDate",
              "type": "uint256"
            },
            {
              "internalType": "uint256",
              "name": "maxPayout",
              "type": "uint256"
            },
            {
              "internalType": "address",
              "name": "insured",
              "type": "address"
            },
            {
              "internalType": "address",
              "name": "insurer",
              "type": "address"
            },
            {
              "internalType": "enum FlightPolicy.PolicyStatus",
              "name": "status",
              "type": "uint8"
            }
          ],
          "internalType": "struct FlightPolicy.policy[]",
          "name": "",
          "type": "tuple[]"
        }
      ],
      "stateMutability": "view",
      "type": "function"
    },
    {
      "inputs": [
        {
          "internalType": "bool",
          "name": "isActive",
          "type": "bool"
        },
        {
          "internalType": "address",
          "name": "policyHolder",
          "type": "address"
        }
      ],
      "name": "getPolicyOfCustomer",
      "outputs": [
        {
          "components": [
            {
              "internalType": "uint256",
              "name": "policyId",
              "type": "uint256"
            },
            {
              "internalType": "uint256",
              "name": "numFlights",
              "type": "uint256"
            },
            {
              "internalType": "string[]",
              "name": "flightNumbers",
              "type": "string[]"
            },
            {
              "internalType": "uint256[]",
              "name": "departureTimes",
              "type": "uint256[]"
            },
            {
              "internalType": "uint256",
              "name": "creationDate",
              "type": "uint256"
            },
            {
              "internalType": "uint256",
              "name": "activeDuration",
              "type": "uint256"
            },
            {
              "internalType": "uint256",
              "name": "premium",
              "type": "uint256"
            },
            {
              "internalType": "uint256",
              "name": "delayPayout",
              "type": "uint256"
            },
            {
              "internalType": "uint256",
              "name": "delayThreshold",
              "type": "uint256"
            },
            {
              "internalType": "uint256",
              "name": "payoutToDate",
              "type": "uint256"
            },
            {
              "internalType": "uint256",
              "name": "maxPayout",
              "type": "uint256"
            },
            {
              "internalType": "address",
              "name": "insured",
              "type": "address"
            },
            {
              "internalType": "address",
              "name": "insurer",
              "type": "address"
            },
            {
              "internalType": "enum FlightPolicy.PolicyStatus",
              "name": "status",
              "type": "uint8"
            }
          ],
          "internalType": "struct FlightPolicy.policy[]",
          "name": "",
          "type": "tuple[]"
        }
      ],
      "stateMutability": "nonpayable",
      "type": "function"
    },
    {
      "inputs": [
        {
          "internalType": "uint256",
          "name": "amount",
          "type": "uint256"
        }
      ],
      "name": "withdrawFunds",
      "outputs": [],
      "stateMutability": "payable",
      "type": "function"
    },
    {
      "stateMutability": "payable",
      "type": "receive"
    }
  ],
  "bytecode": "0x60806040523480156200001157600080fd5b5060405162002a9038038062002a90833981810160405281019062000037919062000129565b806000806101000a81548173ffffffffffffffffffffffffffffffffffffffff021916908373ffffffffffffffffffffffffffffffffffffffff16021790555033600160006101000a81548173ffffffffffffffffffffffffffffffffffffffff021916908373ffffffffffffffffffffffffffffffffffffffff160217905550506200015b565b600080fd5b600073ffffffffffffffffffffffffffffffffffffffff82169050919050565b6000620000f182620000c4565b9050919050565b6200010381620000e4565b81146200010f57600080fd5b50565b6000815190506200012381620000f8565b92915050565b600060208284031215620001425762000141620000bf565b5b6000620001528482850162000112565b91505092915050565b612925806200016b6000396000f3fe60806040526004361061008a5760003560e01c80635d754e5c116100595780635d754e5c1461012f5780638ce99cdc1461014b578063ac5f84ed14610174578063fec0c62a146101b1578063fed27c8f146101ee57610091565b80630f3eeb861461009657806314a20bea146100bf578063155dd5ee146100d65780633c052339146100f257610091565b3661009157005b600080fd5b3480156100a257600080fd5b506100bd60048036038101906100b891906114e2565b610217565b005b3480156100cb57600080fd5b506100d46103e8565b005b6100f060048036038101906100eb919061153e565b61071f565b005b3480156100fe57600080fd5b50610119600480360381019061011491906115a3565b61085e565b6040516101269190611a7e565b60405180910390f35b61014960048036038101906101449190611aa0565b610a25565b005b34801561015757600080fd5b50610172600480360381019061016d9190611b0f565b610cc9565b005b34801561018057600080fd5b5061019b60048036038101906101969190611bb6565b610e41565b6040516101a89190611bf2565b60405180910390f35b3480156101bd57600080fd5b506101d860048036038101906101d39190611c0d565b610e59565b6040516101e59190611a7e565b60405180910390f35b3480156101fa57600080fd5b506102156004803603810190610210919061153e565b611152565b005b6000600260003373ffffffffffffffffffffffffffffffffffffffff1673ffffffffffffffffffffffffffffffffffffffff1681526020019081526020016000205403610299576040517f08c379a000000000000000000000000000000000000000000000000000000000815260040161029090611caa565b60405180910390fd5b4281116102db576040517f08c379a00000000000000000000000000000000000000000000000000000000081526004016102d290611d62565b60405180910390fd5b60008054906101000a900473ffffffffffffffffffffffffffffffffffffffff1673ffffffffffffffffffffffffffffffffffffffff16633960abf4838333600260003373ffffffffffffffffffffffffffffffffffffffff1673ffffffffffffffffffffffffffffffffffffffff168152602001908152602001600020546040518563ffffffff1660e01b81526004016103799493929190611dca565b600060405180830381600087803b15801561039357600080fd5b505af11580156103a7573d6000803e3d6000fd5b505050507fe9c858985a8f3f5d8148a417d279b1564bbbdebc606b4882c89e4f67b231c70982826040516103dc929190611e16565b60405180910390a15050565b6000600260003373ffffffffffffffffffffffffffffffffffffffff1673ffffffffffffffffffffffffffffffffffffffff168152602001908152602001600020540361046a576040517f08c379a000000000000000000000000000000000000000000000000000000000815260040161046190611caa565b60405180910390fd5b6000600260003373ffffffffffffffffffffffffffffffffffffffff1673ffffffffffffffffffffffffffffffffffffffff16815260200190815260200160002054905060008060009054906101000a900473ffffffffffffffffffffffffffffffffffffffff1673ffffffffffffffffffffffffffffffffffffffff166363b60300336040518263ffffffff1660e01b815260040161050a9190611e46565b6000604051808303816000875af1158015610529573d6000803e3d6000fd5b505050506040513d6000823e3d601f19601f82011682018060405250810190610552919061233a565b60018361055f91906123b2565b815181106105705761056f6123e6565b5b602002602001015190506000600381111561058e5761058d61183c565b5b816101a0015160038111156105a6576105a561183c565b5b146105e6576040517f08c379a00000000000000000000000000000000000000000000000000000000081526004016105dd90612487565b60405180910390fd5b60008160e0015190508161014001518111156106055781610140015190505b81610160015173ffffffffffffffffffffffffffffffffffffffff166108fc829081150290604051600060405180830381858888f19350505050158015610650573d6000803e3d6000fd5b5060008054906101000a900473ffffffffffffffffffffffffffffffffffffffff1673ffffffffffffffffffffffffffffffffffffffff1663226f8817336040518263ffffffff1660e01b81526004016106aa9190611e46565b600060405180830381600087803b1580156106c457600080fd5b505af11580156106d8573d6000803e3d6000fd5b505050507f9b5d1a613fa5f0790b36b13103706e31fca06b229d87e9915b29fc20c1d76490818361016001516040516107129291906124a7565b60405180910390a1505050565b600160009054906101000a900473ffffffffffffffffffffffffffffffffffffffff1673ffffffffffffffffffffffffffffffffffffffff163373ffffffffffffffffffffffffffffffffffffffff16146107af576040517f08c379a00000000000000000000000000000000000000000000000000000000081526004016107a690612542565b60405180910390fd5b478111156107f2576040517f08c379a00000000000000000000000000000000000000000000000000000000081526004016107e9906125ae565b60405180910390fd5b600160009054906101000a900473ffffffffffffffffffffffffffffffffffffffff1673ffffffffffffffffffffffffffffffffffffffff166108fc829081150290604051600060405180830381858888f1935050505015801561085a573d6000803e3d6000fd5b5050565b606060008060009054906101000a900473ffffffffffffffffffffffffffffffffffffffff1673ffffffffffffffffffffffffffffffffffffffff166339ebeea76040518163ffffffff1660e01b8152600401600060405180830381865afa1580156108ce573d6000803e3d6000fd5b505050506040513d6000823e3d601f19601f820116820180604052508101906108f7919061233a565b90508215610a1b576000815167ffffffffffffffff81111561091c5761091b611381565b5b60405190808252806020026020018201604052801561095557816020015b6109426112a5565b81526020019060019003908161093a5790505b509050600080600190505b8351811015610a0f5760038081111561097c5761097b61183c565b5b84828151811061098f5761098e6123e6565b5b60200260200101516101a0015160038111156109ae576109ad61183c565b5b036109fc578381815181106109c6576109c56123e6565b5b60200260200101518383815181106109e1576109e06123e6565b5b60200260200101819052506001826109f991906125ce565b91505b8080610a0790612602565b915050610960565b50819350505050610a20565b809150505b919050565b60008060009054906101000a900473ffffffffffffffffffffffffffffffffffffffff1673ffffffffffffffffffffffffffffffffffffffff1663cc038010856040518263ffffffff1660e01b8152600401610a819190611bf2565b600060405180830381865afa158015610a9e573d6000803e3d6000fd5b505050506040513d6000823e3d601f19601f82011682018060405250810190610ac7919061264a565b90506000610ad6600133610e59565b5114610b17576040517f08c379a0000000000000000000000000000000000000000000000000000000008152600401610b0e90612705565b60405180910390fd5b8060c00151341015610b5e576040517f08c379a0000000000000000000000000000000000000000000000000000000008152600401610b5590612797565b60405180910390fd5b428211610ba0576040517f08c379a0000000000000000000000000000000000000000000000000000000008152600401610b9790612803565b60405180910390fd5b60008060009054906101000a900473ffffffffffffffffffffffffffffffffffffffff1673ffffffffffffffffffffffffffffffffffffffff16638f2d9434868686336040518563ffffffff1660e01b8152600401610c029493929190612823565b6020604051808303816000875af1158015610c21573d6000803e3d6000fd5b505050506040513d601f19601f82011682018060405250810190610c45919061286f565b905080600260003373ffffffffffffffffffffffffffffffffffffffff1673ffffffffffffffffffffffffffffffffffffffff168152602001908152602001600020819055507ff3cf5fd307f001315d25c07166fdae9ae7a2dfe6ad14071ca9a2e10733d307e781604051610cba9190611bf2565b60405180910390a15050505050565b600160009054906101000a900473ffffffffffffffffffffffffffffffffffffffff1673ffffffffffffffffffffffffffffffffffffffff163373ffffffffffffffffffffffffffffffffffffffff1614610d59576040517f08c379a0000000000000000000000000000000000000000000000000000000008152600401610d5090612542565b60405180910390fd5b60008060009054906101000a900473ffffffffffffffffffffffffffffffffffffffff1673ffffffffffffffffffffffffffffffffffffffff1663d0cc1e9b87878787876040518663ffffffff1660e01b8152600401610dbd95949392919061289c565b6020604051808303816000875af1158015610ddc573d6000803e3d6000fd5b505050506040513d601f19601f82011682018060405250810190610e00919061286f565b90507f024a1db391c63d350ba33664c84386c69b2f4891094f69f737890d6cba9603fb81604051610e319190611bf2565b60405180910390a1505050505050565b60026020528060005260406000206000915090505481565b606060008060009054906101000a900473ffffffffffffffffffffffffffffffffffffffff1673ffffffffffffffffffffffffffffffffffffffff166363b60300846040518263ffffffff1660e01b8152600401610eb79190611e46565b6000604051808303816000875af1158015610ed6573d6000803e3d6000fd5b505050506040513d6000823e3d601f19601f82011682018060405250810190610eff919061233a565b905060008151905060008167ffffffffffffffff811115610f2357610f22611381565b5b604051908082528060200260200182016040528015610f5c57816020015b610f496112a5565b815260200190600190039081610f415790505b5090506000835103610f735780935050505061114c565b6000836001600260008973ffffffffffffffffffffffffffffffffffffffff1673ffffffffffffffffffffffffffffffffffffffff16815260200190815260200160002054610fc291906123b2565b81518110610fd357610fd26123e6565b5b60200260200101519050861561103a5760006003811115610ff757610ff661183c565b5b816101a00151600381111561100f5761100e61183c565b5b03611035578082600081518110611029576110286123e6565b5b60200260200101819052505b611144565b839150600060038111156110515761105061183c565b5b816101a0015160038111156110695761106861183c565b5b0361114357600060018461107d91906123b2565b67ffffffffffffffff81111561109657611095611381565b5b6040519080825280602002602001820160405280156110cf57816020015b6110bc6112a5565b8152602001906001900390816110b45790505b50905060005b6001856110e291906123b2565b811015611135578581815181106110fc576110fb6123e6565b5b6020026020010151828281518110611117576111166123e6565b5b6020026020010181905250808061112d90612602565b9150506110d5565b50809550505050505061114c565b5b819450505050505b92915050565b600160009054906101000a900473ffffffffffffffffffffffffffffffffffffffff1673ffffffffffffffffffffffffffffffffffffffff163373ffffffffffffffffffffffffffffffffffffffff16146111e2576040517f08c379a00000000000000000000000000000000000000000000000000000000081526004016111d990612542565b60405180910390fd5b60008054906101000a900473ffffffffffffffffffffffffffffffffffffffff1673ffffffffffffffffffffffffffffffffffffffff1663fed27c8f826040518263ffffffff1660e01b815260040161123b9190611bf2565b60006040518083038186803b15801561125357600080fd5b505afa158015611267573d6000803e3d6000fd5b505050507f433ab09ab993382af577c4a70f77dcc7cf149b5b52eb40d19b869664bfb5496d8160405161129a9190611bf2565b60405180910390a150565b604051806101c001604052806000815260200160008152602001606081526020016060815260200160008152602001600081526020016000815260200160008152602001600081526020016000815260200160008152602001600073ffffffffffffffffffffffffffffffffffffffff168152602001600073ffffffffffffffffffffffffffffffffffffffff1681526020016000600381111561134c5761134b61183c565b5b81525090565b6000604051905090565b600080fd5b600080fd5b600080fd5b600080fd5b6000601f19601f8301169050919050565b7f4e487b7100000000000000000000000000000000000000000000000000000000600052604160045260246000fd5b6113b982611370565b810181811067ffffffffffffffff821117156113d8576113d7611381565b5b80604052505050565b60006113eb611352565b90506113f782826113b0565b919050565b600067ffffffffffffffff82111561141757611416611381565b5b61142082611370565b9050602081019050919050565b82818337600083830152505050565b600061144f61144a846113fc565b6113e1565b90508281526020810184848401111561146b5761146a61136b565b5b61147684828561142d565b509392505050565b600082601f83011261149357611492611366565b5b81356114a384826020860161143c565b91505092915050565b6000819050919050565b6114bf816114ac565b81146114ca57600080fd5b50565b6000813590506114dc816114b6565b92915050565b600080604083850312156114f9576114f861135c565b5b600083013567ffffffffffffffff81111561151757611516611361565b5b6115238582860161147e565b9250506020611534858286016114cd565b9150509250929050565b6000602082840312156115545761155361135c565b5b6000611562848285016114cd565b91505092915050565b60008115159050919050565b6115808161156b565b811461158b57600080fd5b50565b60008135905061159d81611577565b92915050565b6000602082840312156115b9576115b861135c565b5b60006115c78482850161158e565b91505092915050565b600081519050919050565b600082825260208201905092915050565b6000819050602082019050919050565b611605816114ac565b82525050565b600081519050919050565b600082825260208201905092915050565b6000819050602082019050919050565b600081519050919050565b600082825260208201905092915050565b60005b83811015611671578082015181840152602081019050611656565b60008484015250505050565b600061168882611637565b6116928185611642565b93506116a2818560208601611653565b6116ab81611370565b840191505092915050565b60006116c2838361167d565b905092915050565b6000602082019050919050565b60006116e28261160b565b6116ec8185611616565b9350836020820285016116fe85611627565b8060005b8581101561173a578484038952815161171b85826116b6565b9450611726836116ca565b925060208a01995050600181019050611702565b50829750879550505050505092915050565b600081519050919050565b600082825260208201905092915050565b6000819050602082019050919050565b600061178483836115fc565b60208301905092915050565b6000602082019050919050565b60006117a88261174c565b6117b28185611757565b93506117bd83611768565b8060005b838110156117ee5781516117d58882611778565b97506117e083611790565b9250506001810190506117c1565b5085935050505092915050565b600073ffffffffffffffffffffffffffffffffffffffff82169050919050565b6000611826826117fb565b9050919050565b6118368161181b565b82525050565b7f4e487b7100000000000000000000000000000000000000000000000000000000600052602160045260246000fd5b6004811061187c5761187b61183c565b5b50565b600081905061188d8261186b565b919050565b600061189d8261187f565b9050919050565b6118ad81611892565b82525050565b60006101c0830160008301516118cc60008601826115fc565b5060208301516118df60208601826115fc565b50604083015184820360408601526118f782826116d7565b91505060608301518482036060860152611911828261179d565b915050608083015161192660808601826115fc565b5060a083015161193960a08601826115fc565b5060c083015161194c60c08601826115fc565b5060e083015161195f60e08601826115fc565b506101008301516119746101008601826115fc565b506101208301516119896101208601826115fc565b5061014083015161199e6101408601826115fc565b506101608301516119b361016086018261182d565b506101808301516119c861018086018261182d565b506101a08301516119dd6101a08601826118a4565b508091505092915050565b60006119f483836118b3565b905092915050565b6000602082019050919050565b6000611a14826115d0565b611a1e81856115db565b935083602082028501611a30856115ec565b8060005b85811015611a6c5784840389528151611a4d85826119e8565b9450611a58836119fc565b925060208a01995050600181019050611a34565b50829750879550505050505092915050565b60006020820190508181036000830152611a988184611a09565b905092915050565b600080600060608486031215611ab957611ab861135c565b5b6000611ac7868287016114cd565b935050602084013567ffffffffffffffff811115611ae857611ae7611361565b5b611af48682870161147e565b9250506040611b05868287016114cd565b9150509250925092565b600080600080600060a08688031215611b2b57611b2a61135c565b5b6000611b39888289016114cd565b9550506020611b4a888289016114cd565b9450506040611b5b888289016114cd565b9350506060611b6c888289016114cd565b9250506080611b7d888289016114cd565b9150509295509295909350565b611b938161181b565b8114611b9e57600080fd5b50565b600081359050611bb081611b8a565b92915050565b600060208284031215611bcc57611bcb61135c565b5b6000611bda84828501611ba1565b91505092915050565b611bec816114ac565b82525050565b6000602082019050611c076000830184611be3565b92915050565b60008060408385031215611c2457611c2361135c565b5b6000611c328582860161158e565b9250506020611c4385828601611ba1565b9150509250929050565b600082825260208201905092915050565b7f596f7520646f206e6f74206f776e206120666c6967687420706f6c6963790000600082015250565b6000611c94601e83611c4d565b9150611c9f82611c5e565b602082019050919050565b60006020820190508181036000830152611cc381611c87565b9050919050565b7f466c696768742068617320616c7265616479206265656e207363686564756c6560008201527f6420746f2074616b65206f666620616e642063616e6e6f74206265206164646560208201527f6400000000000000000000000000000000000000000000000000000000000000604082015250565b6000611d4c604183611c4d565b9150611d5782611cca565b606082019050919050565b60006020820190508181036000830152611d7b81611d3f565b9050919050565b6000611d8d82611637565b611d978185611c4d565b9350611da7818560208601611653565b611db081611370565b840191505092915050565b611dc48161181b565b82525050565b60006080820190508181036000830152611de48187611d82565b9050611df36020830186611be3565b611e006040830185611dbb565b611e0d6060830184611be3565b95945050505050565b60006040820190508181036000830152611e308185611d82565b9050611e3f6020830184611be3565b9392505050565b6000602082019050611e5b6000830184611dbb565b92915050565b600067ffffffffffffffff821115611e7c57611e7b611381565b5b602082029050602081019050919050565b600080fd5b600080fd5b600080fd5b600081519050611eab816114b6565b92915050565b600067ffffffffffffffff821115611ecc57611ecb611381565b5b602082029050602081019050919050565b6000611ef0611eeb846113fc565b6113e1565b905082815260208101848484011115611f0c57611f0b61136b565b5b611f17848285611653565b509392505050565b600082601f830112611f3457611f33611366565b5b8151611f44848260208601611edd565b91505092915050565b6000611f60611f5b84611eb1565b6113e1565b90508083825260208201905060208402830185811115611f8357611f82611e8d565b5b835b81811015611fca57805167ffffffffffffffff811115611fa857611fa7611366565b5b808601611fb58982611f1f565b85526020850194505050602081019050611f85565b5050509392505050565b600082601f830112611fe957611fe8611366565b5b8151611ff9848260208601611f4d565b91505092915050565b600067ffffffffffffffff82111561201d5761201c611381565b5b602082029050602081019050919050565b600061204161203c84612002565b6113e1565b9050808382526020820190506020840283018581111561206457612063611e8d565b5b835b8181101561208d57806120798882611e9c565b845260208401935050602081019050612066565b5050509392505050565b600082601f8301126120ac576120ab611366565b5b81516120bc84826020860161202e565b91505092915050565b6000815190506120d481611b8a565b92915050565b600481106120e757600080fd5b50565b6000815190506120f9816120da565b92915050565b60006101c0828403121561211657612115611e92565b5b6121216101c06113e1565b9050600061213184828501611e9c565b600083015250602061214584828501611e9c565b602083015250604082015167ffffffffffffffff81111561216957612168611e97565b5b61217584828501611fd4565b604083015250606082015167ffffffffffffffff81111561219957612198611e97565b5b6121a584828501612097565b60608301525060806121b984828501611e9c565b60808301525060a06121cd84828501611e9c565b60a08301525060c06121e184828501611e9c565b60c08301525060e06121f584828501611e9c565b60e08301525061010061220a84828501611e9c565b6101008301525061012061222084828501611e9c565b6101208301525061014061223684828501611e9c565b6101408301525061016061224c848285016120c5565b61016083015250610180612262848285016120c5565b610180830152506101a0612278848285016120ea565b6101a08301525092915050565b600061229861229384611e61565b6113e1565b905080838252602082019050602084028301858111156122bb576122ba611e8d565b5b835b8181101561230257805167ffffffffffffffff8111156122e0576122df611366565b5b8086016122ed89826120ff565b855260208501945050506020810190506122bd565b5050509392505050565b600082601f83011261232157612320611366565b5b8151612331848260208601612285565b91505092915050565b6000602082840312156123505761234f61135c565b5b600082015167ffffffffffffffff81111561236e5761236d611361565b5b61237a8482850161230c565b91505092915050565b7f4e487b7100000000000000000000000000000000000000000000000000000000600052601160045260246000fd5b60006123bd826114ac565b91506123c8836114ac565b92508282039050818111156123e0576123df612383565b5b92915050565b7f4e487b7100000000000000000000000000000000000000000000000000000000600052603260045260246000fd5b7f506f6c69637920686173206265656e20636c61696d6564206f7220686173206560008201527f7870697265640000000000000000000000000000000000000000000000000000602082015250565b6000612471602683611c4d565b915061247c82612415565b604082019050919050565b600060208201905081810360008301526124a081612464565b9050919050565b60006040820190506124bc6000830185611be3565b6124c96020830184611dbb565b9392505050565b7f496e73757265722c204f6e6c7920746865206f776e65722063616e2063616c6c60008201527f20746869732066756e6374696f6e000000000000000000000000000000000000602082015250565b600061252c602e83611c4d565b9150612537826124d0565b604082019050919050565b6000602082019050818103600083015261255b8161251f565b9050919050565b7f496e73756666696369656e742062616c616e6365000000000000000000000000600082015250565b6000612598601483611c4d565b91506125a382612562565b602082019050919050565b600060208201905081810360008301526125c78161258b565b9050919050565b60006125d9826114ac565b91506125e4836114ac565b92508282019050808211156125fc576125fb612383565b5b92915050565b600061260d826114ac565b91507fffffffffffffffffffffffffffffffffffffffffffffffffffffffffffffffff820361263f5761263e612383565b5b600182019050919050565b6000602082840312156126605761265f61135c565b5b600082015167ffffffffffffffff81111561267e5761267d611361565b5b61268a848285016120ff565b91505092915050565b7f637573746f6d6572206861732061637469766520666c6967687420706f6c696360008201527f7900000000000000000000000000000000000000000000000000000000000000602082015250565b60006126ef602183611c4d565b91506126fa82612693565b604082019050919050565b6000602082019050818103600083015261271e816126e2565b9050919050565b7f4e6f7420656e6f75676820657468657220746f20707572686361736520706c6160008201527f6e00000000000000000000000000000000000000000000000000000000000000602082015250565b6000612781602183611c4d565b915061278c82612725565b604082019050919050565b600060208201905081810360008301526127b081612774565b9050919050565b7f466c69676874206973206e6f7420612066757475726520666c69676874000000600082015250565b60006127ed601d83611c4d565b91506127f8826127b7565b602082019050919050565b6000602082019050818103600083015261281c816127e0565b9050919050565b60006080820190506128386000830187611be3565b818103602083015261284a8186611d82565b90506128596040830185611be3565b6128666060830184611dbb565b95945050505050565b6000602082840312156128855761288461135c565b5b600061289384828501611e9c565b91505092915050565b600060a0820190506128b16000830188611be3565b6128be6020830187611be3565b6128cb6040830186611be3565b6128d86060830185611be3565b6128e56080830184611be3565b969550505050505056fea2646970667358221220f36553eba5a58cfa031e8cb1046f47447e6f751cc35db597230366cdd81e014b64736f6c63430008130033",
  "linkReferences": {},
  "deployedLinkReferences": {}
}