{
  "_format": "hh-sol-artifact-1",
  "contractName": "Insurer",
  "sourceName": "contracts/Insurer.sol",
  "abi": [
    {
      "inputs": [
        {
          "internalType": "address",
          "name": "_flightPolicyAddress",
          "type": "address"
        }
      ],
      "stateMutability": "nonpayable",
      "type": "constructor"
    },
    {
      "anonymous": false,
      "inputs": [
        {
          "indexed": true,
          "internalType": "address",
          "name": "buyer",
          "type": "address"
        },
        {
          "indexed": true,
          "internalType": "uint256",
          "name": "policyId",
          "type": "uint256"
        },
        {
          "indexed": true,
          "internalType": "uint256",
          "name": "templateId",
          "type": "uint256"
        }
      ],
      "name": "FlightPolicyPurchased",
      "type": "event"
    },
    {
      "anonymous": false,
      "inputs": [
        {
          "indexed": true,
          "internalType": "uint256",
          "name": "templateId",
          "type": "uint256"
        },
        {
          "indexed": false,
          "internalType": "string",
          "name": "name",
          "type": "string"
        }
      ],
      "name": "FlightPolicyTemplateCreated",
      "type": "event"
    },
    {
      "anonymous": false,
      "inputs": [
        {
          "indexed": true,
          "internalType": "uint256",
          "name": "templateId",
          "type": "uint256"
        }
      ],
      "name": "FlightPolicyTemplateDeactivated",
      "type": "event"
    },
    {
      "inputs": [
        {
          "internalType": "string",
          "name": "name",
          "type": "string"
        },
        {
          "internalType": "string",
          "name": "description",
          "type": "string"
        },
        {
          "internalType": "uint256",
          "name": "premium",
          "type": "uint256"
        },
        {
          "internalType": "uint256",
          "name": "payoutPerHour",
          "type": "uint256"
        },
        {
          "internalType": "uint256",
          "name": "delayThresholdHours",
          "type": "uint256"
        },
        {
          "internalType": "uint256",
          "name": "maxTotalPayout",
          "type": "uint256"
        },
        {
          "internalType": "uint256",
          "name": "coverageDurationDays",
          "type": "uint256"
        }
      ],
      "name": "createFlightPolicyTemplate",
      "outputs": [],
      "stateMutability": "nonpayable",
      "type": "function"
    },
    {
      "inputs": [
        {
          "internalType": "uint256",
          "name": "templateId",
          "type": "uint256"
        }
      ],
      "name": "deactivateFlightPolicyTemplate",
      "outputs": [],
      "stateMutability": "nonpayable",
      "type": "function"
    },
    {
      "inputs": [],
      "name": "flightPolicy",
      "outputs": [
        {
          "internalType": "contract FlightPolicy",
          "name": "",
          "type": "address"
        }
      ],
      "stateMutability": "view",
      "type": "function"
    },
    {
      "inputs": [],
      "name": "getActiveFlightPolicyTemplates",
      "outputs": [
        {
          "components": [
            {
              "internalType": "uint256",
              "name": "templateId",
              "type": "uint256"
            },
            {
              "internalType": "string",
              "name": "name",
              "type": "string"
            },
            {
              "internalType": "string",
              "name": "description",
              "type": "string"
            },
            {
              "internalType": "uint256",
              "name": "createdAt",
              "type": "uint256"
            },
            {
              "internalType": "uint256",
              "name": "premium",
              "type": "uint256"
            },
            {
              "internalType": "uint256",
              "name": "payoutPerHour",
              "type": "uint256"
            },
            {
              "internalType": "uint256",
              "name": "delayThresholdHours",
              "type": "uint256"
            },
            {
              "internalType": "uint256",
              "name": "maxTotalPayout",
              "type": "uint256"
            },
            {
              "internalType": "uint256",
              "name": "coverageDurationDays",
              "type": "uint256"
            },
            {
              "internalType": "enum FlightPolicy.PolicyTemplateStatus",
              "name": "status",
              "type": "uint8"
            }
          ],
          "internalType": "struct FlightPolicy.PolicyTemplate[]",
          "name": "",
          "type": "tuple[]"
        }
      ],
      "stateMutability": "view",
      "type": "function"
    },
    {
      "inputs": [],
      "name": "getAllFlightPolicyTemplates",
      "outputs": [
        {
          "components": [
            {
              "internalType": "uint256",
              "name": "templateId",
              "type": "uint256"
            },
            {
              "internalType": "string",
              "name": "name",
              "type": "string"
            },
            {
              "internalType": "string",
              "name": "description",
              "type": "string"
            },
            {
              "internalType": "uint256",
              "name": "createdAt",
              "type": "uint256"
            },
            {
              "internalType": "uint256",
              "name": "premium",
              "type": "uint256"
            },
            {
              "internalType": "uint256",
              "name": "payoutPerHour",
              "type": "uint256"
            },
            {
              "internalType": "uint256",
              "name": "delayThresholdHours",
              "type": "uint256"
            },
            {
              "internalType": "uint256",
              "name": "maxTotalPayout",
              "type": "uint256"
            },
            {
              "internalType": "uint256",
              "name": "coverageDurationDays",
              "type": "uint256"
            },
            {
              "internalType": "enum FlightPolicy.PolicyTemplateStatus",
              "name": "status",
              "type": "uint8"
            }
          ],
          "internalType": "struct FlightPolicy.PolicyTemplate[]",
          "name": "",
          "type": "tuple[]"
        }
      ],
      "stateMutability": "view",
      "type": "function"
    },
    {
      "inputs": [
        {
          "internalType": "uint256",
          "name": "templateId",
          "type": "uint256"
        }
      ],
      "name": "getFlightPolicyTemplateById",
      "outputs": [
        {
          "components": [
            {
              "internalType": "uint256",
              "name": "templateId",
              "type": "uint256"
            },
            {
              "internalType": "string",
              "name": "name",
              "type": "string"
            },
            {
              "internalType": "string",
              "name": "description",
              "type": "string"
            },
            {
              "internalType": "uint256",
              "name": "createdAt",
              "type": "uint256"
            },
            {
              "internalType": "uint256",
              "name": "premium",
              "type": "uint256"
            },
            {
              "internalType": "uint256",
              "name": "payoutPerHour",
              "type": "uint256"
            },
            {
              "internalType": "uint256",
              "name": "delayThresholdHours",
              "type": "uint256"
            },
            {
              "internalType": "uint256",
              "name": "maxTotalPayout",
              "type": "uint256"
            },
            {
              "internalType": "uint256",
              "name": "coverageDurationDays",
              "type": "uint256"
            },
            {
              "internalType": "enum FlightPolicy.PolicyTemplateStatus",
              "name": "status",
              "type": "uint8"
            }
          ],
          "internalType": "struct FlightPolicy.PolicyTemplate",
          "name": "",
          "type": "tuple"
        }
      ],
      "stateMutability": "view",
      "type": "function"
    },
    {
      "inputs": [
        {
          "internalType": "address",
          "name": "user",
          "type": "address"
        },
        {
          "internalType": "uint256",
          "name": "policyId",
          "type": "uint256"
        }
      ],
      "name": "getFlightPolicyWithTemplate",
      "outputs": [
        {
          "components": [
            {
              "internalType": "uint256",
              "name": "policyId",
              "type": "uint256"
            },
            {
              "internalType": "uint256",
              "name": "templateId",
              "type": "uint256"
            },
            {
              "internalType": "string",
              "name": "flightNumber",
              "type": "string"
            },
            {
              "internalType": "string",
              "name": "departureAirportCode",
              "type": "string"
            },
            {
              "internalType": "string",
              "name": "arrivalAirportCode",
              "type": "string"
            },
            {
              "internalType": "uint256",
              "name": "departureTime",
              "type": "uint256"
            },
            {
              "internalType": "uint256",
              "name": "createdAt",
              "type": "uint256"
            },
            {
              "internalType": "uint256",
              "name": "payoutToDate",
              "type": "uint256"
            },
            {
              "internalType": "address",
              "name": "buyer",
              "type": "address"
            },
            {
              "internalType": "enum FlightPolicy.PolicyStatus",
              "name": "status",
              "type": "uint8"
            }
          ],
          "internalType": "struct FlightPolicy.UserPolicy",
          "name": "",
          "type": "tuple"
        },
        {
          "components": [
            {
              "internalType": "uint256",
              "name": "templateId",
              "type": "uint256"
            },
            {
              "internalType": "string",
              "name": "name",
              "type": "string"
            },
            {
              "internalType": "string",
              "name": "description",
              "type": "string"
            },
            {
              "internalType": "uint256",
              "name": "createdAt",
              "type": "uint256"
            },
            {
              "internalType": "uint256",
              "name": "premium",
              "type": "uint256"
            },
            {
              "internalType": "uint256",
              "name": "payoutPerHour",
              "type": "uint256"
            },
            {
              "internalType": "uint256",
              "name": "delayThresholdHours",
              "type": "uint256"
            },
            {
              "internalType": "uint256",
              "name": "maxTotalPayout",
              "type": "uint256"
            },
            {
              "internalType": "uint256",
              "name": "coverageDurationDays",
              "type": "uint256"
            },
            {
              "internalType": "enum FlightPolicy.PolicyTemplateStatus",
              "name": "status",
              "type": "uint8"
            }
          ],
          "internalType": "struct FlightPolicy.PolicyTemplate",
          "name": "",
          "type": "tuple"
        }
      ],
      "stateMutability": "view",
      "type": "function"
    },
    {
      "inputs": [
        {
          "internalType": "address",
          "name": "user",
          "type": "address"
        }
      ],
      "name": "getUserFlightPolicies",
      "outputs": [
        {
          "components": [
            {
              "internalType": "uint256",
              "name": "policyId",
              "type": "uint256"
            },
            {
              "internalType": "uint256",
              "name": "templateId",
              "type": "uint256"
            },
            {
              "internalType": "string",
              "name": "flightNumber",
              "type": "string"
            },
            {
              "internalType": "string",
              "name": "departureAirportCode",
              "type": "string"
            },
            {
              "internalType": "string",
              "name": "arrivalAirportCode",
              "type": "string"
            },
            {
              "internalType": "uint256",
              "name": "departureTime",
              "type": "uint256"
            },
            {
              "internalType": "uint256",
              "name": "createdAt",
              "type": "uint256"
            },
            {
              "internalType": "uint256",
              "name": "payoutToDate",
              "type": "uint256"
            },
            {
              "internalType": "address",
              "name": "buyer",
              "type": "address"
            },
            {
              "internalType": "enum FlightPolicy.PolicyStatus",
              "name": "status",
              "type": "uint8"
            }
          ],
          "internalType": "struct FlightPolicy.UserPolicy[]",
          "name": "",
          "type": "tuple[]"
        }
      ],
      "stateMutability": "view",
      "type": "function"
    },
    {
      "inputs": [],
      "name": "insurerAddress",
      "outputs": [
        {
          "internalType": "address",
          "name": "",
          "type": "address"
        }
      ],
      "stateMutability": "view",
      "type": "function"
    },
    {
      "inputs": [
        {
          "internalType": "address",
          "name": "user",
          "type": "address"
        }
      ],
      "name": "isInsurer",
      "outputs": [
        {
          "internalType": "bool",
          "name": "",
          "type": "bool"
        }
      ],
      "stateMutability": "view",
      "type": "function"
    },
    {
      "inputs": [
        {
          "internalType": "address",
          "name": "buyer",
          "type": "address"
        },
        {
          "internalType": "uint256",
          "name": "policyId",
          "type": "uint256"
        }
      ],
      "name": "markFlightPolicyAsClaimed",
      "outputs": [],
      "stateMutability": "nonpayable",
      "type": "function"
    },
    {
      "inputs": [
        {
          "internalType": "uint256",
          "name": "policyId",
          "type": "uint256"
        }
      ],
      "name": "markFlightPolicyAsExpired",
      "outputs": [],
      "stateMutability": "nonpayable",
      "type": "function"
    },
    {
      "inputs": [
        {
          "internalType": "uint256",
          "name": "templateId",
          "type": "uint256"
        },
        {
          "internalType": "string",
          "name": "flightNumber",
          "type": "string"
        },
        {
          "internalType": "string",
          "name": "departureAirportCode",
          "type": "string"
        },
        {
          "internalType": "string",
          "name": "arrivalAirportCode",
          "type": "string"
        },
        {
          "internalType": "uint256",
          "name": "departureTime",
          "type": "uint256"
        }
      ],
      "name": "purchaseFlightPolicy",
      "outputs": [],
      "stateMutability": "payable",
      "type": "function"
    },
    {
      "inputs": [
        {
          "internalType": "uint256",
          "name": "amountInWei",
          "type": "uint256"
        }
      ],
      "name": "withdraw",
      "outputs": [],
      "stateMutability": "nonpayable",
      "type": "function"
    },
    {
      "stateMutability": "payable",
      "type": "receive"
    }
  ],
  "bytecode": "0x60a06040523480156200001157600080fd5b50604051620026ab380380620026ab83398181016040528101906200003791906200011c565b3373ffffffffffffffffffffffffffffffffffffffff1660808173ffffffffffffffffffffffffffffffffffffffff1681525050806000806101000a81548173ffffffffffffffffffffffffffffffffffffffff021916908373ffffffffffffffffffffffffffffffffffffffff160217905550506200014e565b600080fd5b600073ffffffffffffffffffffffffffffffffffffffff82169050919050565b6000620000e482620000b7565b9050919050565b620000f681620000d7565b81146200010257600080fd5b50565b6000815190506200011681620000eb565b92915050565b600060208284031215620001355762000134620000b2565b5b6000620001458482850162000105565b91505092915050565b6080516125106200019b6000396000818161043801528181610509015281816107180152818161092f01528181610a4b01528181610b6a01528181610c360152610d8101526125106000f3fe6080604052600436106100e15760003560e01c80636906496e1161007f578063b715521b11610059578063b715521b14610296578063be3dfb78146102d3578063da7897e2146102fc578063f05e5b6214610339576100e8565b80636906496e14610219578063884d7f6414610242578063a7c0900e1461026b576100e8565b806333018f45116100bb57806333018f451461016c57806343c0e7cb146101a95780634aefa0fe146101c55780636017f97e146101ee576100e8565b806307116510146100ed5780632287ddc4146101185780632e1a7d4d14610143576100e8565b366100e857005b600080fd5b3480156100f957600080fd5b50610102610377565b60405161010f9190610ff0565b60405180910390f35b34801561012457600080fd5b5061012d61039b565b60405161013a91906112ce565b60405180910390f35b34801561014f57600080fd5b5061016a60048036038101906101659190611330565b610436565b005b34801561017857600080fd5b50610193600480360381019061018e9190611330565b610571565b6040516101a0919061143e565b60405180910390f35b6101c360048036038101906101be9190611595565b61061f565b005b3480156101d157600080fd5b506101ec60048036038101906101e79190611664565b610716565b005b3480156101fa57600080fd5b50610203610893565b60405161021091906112ce565b60405180910390f35b34801561022557600080fd5b50610240600480360381019061023b9190611330565b61092d565b005b34801561024e57600080fd5b506102696004803603810190610264919061177c565b610a49565b005b34801561027757600080fd5b50610280610b68565b60405161028d91906117cb565b60405180910390f35b3480156102a257600080fd5b506102bd60048036038101906102b891906117e6565b610b8c565b6040516102ca9190611a14565b60405180910390f35b3480156102df57600080fd5b506102fa60048036038101906102f59190611330565b610c34565b005b34801561030857600080fd5b50610323600480360381019061031e91906117e6565b610d7d565b6040516103309190611a51565b60405180910390f35b34801561034557600080fd5b50610360600480360381019061035b919061177c565b610dd5565b60405161036e929190611b54565b60405180910390f35b60008054906101000a900473ffffffffffffffffffffffffffffffffffffffff1681565b606060008054906101000a900473ffffffffffffffffffffffffffffffffffffffff1673ffffffffffffffffffffffffffffffffffffffff1663e79cdf1d6040518163ffffffff1660e01b8152600401600060405180830381865afa158015610408573d6000803e3d6000fd5b505050506040513d6000823e3d601f19601f820116820180604052508101906104319190611e53565b905090565b7f000000000000000000000000000000000000000000000000000000000000000073ffffffffffffffffffffffffffffffffffffffff163373ffffffffffffffffffffffffffffffffffffffff16146104c4576040517f08c379a00000000000000000000000000000000000000000000000000000000081526004016104bb90611f1f565b60405180910390fd5b80471015610507576040517f08c379a00000000000000000000000000000000000000000000000000000000081526004016104fe90611f8b565b60405180910390fd5b7f000000000000000000000000000000000000000000000000000000000000000073ffffffffffffffffffffffffffffffffffffffff166108fc829081150290604051600060405180830381858888f1935050505015801561056d573d6000803e3d6000fd5b5050565b610579610e91565b60008054906101000a900473ffffffffffffffffffffffffffffffffffffffff1673ffffffffffffffffffffffffffffffffffffffff16635990fa36836040518263ffffffff1660e01b81526004016105d29190611fba565b600060405180830381865afa1580156105ef573d6000803e3d6000fd5b505050506040513d6000823e3d601f19601f820116820180604052508101906106189190611fd5565b9050919050565b60008060009054906101000a900473ffffffffffffffffffffffffffffffffffffffff1673ffffffffffffffffffffffffffffffffffffffff16638d3951203488888888886040518763ffffffff1660e01b8152600401610684959493929190612057565b60206040518083038185885af11580156106a2573d6000803e3d6000fd5b50505050506040513d601f19601f820116820180604052508101906106c791906120bf565b905085813373ffffffffffffffffffffffffffffffffffffffff167feffe1aca794f1f12cecd2282e563efd5541b166abc4535dbd19df10aa98a16de60405160405180910390a4505050505050565b7f000000000000000000000000000000000000000000000000000000000000000073ffffffffffffffffffffffffffffffffffffffff163373ffffffffffffffffffffffffffffffffffffffff16146107a4576040517f08c379a000000000000000000000000000000000000000000000000000000000815260040161079b90611f1f565b60405180910390fd5b60008060009054906101000a900473ffffffffffffffffffffffffffffffffffffffff1673ffffffffffffffffffffffffffffffffffffffff166388641494898989898989896040518863ffffffff1660e01b815260040161080c97969594939291906120ec565b6020604051808303816000875af115801561082b573d6000803e3d6000fd5b505050506040513d601f19601f8201168201806040525081019061084f91906120bf565b9050807fc69722450388b8bc8a6113ad1972ad8c8ddfde8ef6606ec1d011e195bc00dfb8896040516108819190612169565b60405180910390a25050505050505050565b606060008054906101000a900473ffffffffffffffffffffffffffffffffffffffff1673ffffffffffffffffffffffffffffffffffffffff1662c84c046040518163ffffffff1660e01b8152600401600060405180830381865afa1580156108ff573d6000803e3d6000fd5b505050506040513d6000823e3d601f19601f820116820180604052508101906109289190611e53565b905090565b7f000000000000000000000000000000000000000000000000000000000000000073ffffffffffffffffffffffffffffffffffffffff163373ffffffffffffffffffffffffffffffffffffffff16146109bb576040517f08c379a00000000000000000000000000000000000000000000000000000000081526004016109b290611f1f565b60405180910390fd5b60008054906101000a900473ffffffffffffffffffffffffffffffffffffffff1673ffffffffffffffffffffffffffffffffffffffff1663cf39c624826040518263ffffffff1660e01b8152600401610a149190611fba565b600060405180830381600087803b158015610a2e57600080fd5b505af1158015610a42573d6000803e3d6000fd5b5050505050565b7f000000000000000000000000000000000000000000000000000000000000000073ffffffffffffffffffffffffffffffffffffffff163373ffffffffffffffffffffffffffffffffffffffff1614610ad7576040517f08c379a0000000000000000000000000000000000000000000000000000000008152600401610ace90611f1f565b60405180910390fd5b60008054906101000a900473ffffffffffffffffffffffffffffffffffffffff1673ffffffffffffffffffffffffffffffffffffffff166328cf382c83836040518363ffffffff1660e01b8152600401610b3292919061218b565b600060405180830381600087803b158015610b4c57600080fd5b505af1158015610b60573d6000803e3d6000fd5b505050505050565b7f000000000000000000000000000000000000000000000000000000000000000081565b606060008054906101000a900473ffffffffffffffffffffffffffffffffffffffff1673ffffffffffffffffffffffffffffffffffffffff166319ac4614836040518263ffffffff1660e01b8152600401610be791906117cb565b600060405180830381865afa158015610c04573d6000803e3d6000fd5b505050506040513d6000823e3d601f19601f82011682018060405250810190610c2d9190612419565b9050919050565b7f000000000000000000000000000000000000000000000000000000000000000073ffffffffffffffffffffffffffffffffffffffff163373ffffffffffffffffffffffffffffffffffffffff1614610cc2576040517f08c379a0000000000000000000000000000000000000000000000000000000008152600401610cb990611f1f565b60405180910390fd5b60008054906101000a900473ffffffffffffffffffffffffffffffffffffffff1673ffffffffffffffffffffffffffffffffffffffff1663482ab102826040518263ffffffff1660e01b8152600401610d1b9190611fba565b600060405180830381600087803b158015610d3557600080fd5b505af1158015610d49573d6000803e3d6000fd5b50505050807f143219b70842595e29b0ba3550cb75419efa6e37ecb13c1d58dcb81e6ff95f1960405160405180910390a250565b60007f000000000000000000000000000000000000000000000000000000000000000073ffffffffffffffffffffffffffffffffffffffff168273ffffffffffffffffffffffffffffffffffffffff16149050919050565b610ddd610ef6565b610de5610e91565b60008054906101000a900473ffffffffffffffffffffffffffffffffffffffff1673ffffffffffffffffffffffffffffffffffffffff166313e896b685856040518363ffffffff1660e01b8152600401610e4092919061218b565b600060405180830381865afa158015610e5d573d6000803e3d6000fd5b505050506040513d6000823e3d601f19601f82011682018060405250810190610e869190612462565b915091509250929050565b60405180610140016040528060008152602001606081526020016060815260200160008152602001600081526020016000815260200160008152602001600081526020016000815260200160006001811115610ef057610eef6110e0565b5b81525090565b6040518061014001604052806000815260200160008152602001606081526020016060815260200160608152602001600081526020016000815260200160008152602001600073ffffffffffffffffffffffffffffffffffffffff16815260200160006002811115610f6b57610f6a6110e0565b5b81525090565b600073ffffffffffffffffffffffffffffffffffffffff82169050919050565b6000819050919050565b6000610fb6610fb1610fac84610f71565b610f91565b610f71565b9050919050565b6000610fc882610f9b565b9050919050565b6000610fda82610fbd565b9050919050565b610fea81610fcf565b82525050565b60006020820190506110056000830184610fe1565b92915050565b600081519050919050565b600082825260208201905092915050565b6000819050602082019050919050565b6000819050919050565b61104a81611037565b82525050565b600081519050919050565b600082825260208201905092915050565b60005b8381101561108a57808201518184015260208101905061106f565b60008484015250505050565b6000601f19601f8301169050919050565b60006110b282611050565b6110bc818561105b565b93506110cc81856020860161106c565b6110d581611096565b840191505092915050565b7f4e487b7100000000000000000000000000000000000000000000000000000000600052602160045260246000fd5b600281106111205761111f6110e0565b5b50565b60008190506111318261110f565b919050565b600061114182611123565b9050919050565b61115181611136565b82525050565b6000610140830160008301516111706000860182611041565b506020830151848203602086015261118882826110a7565b915050604083015184820360408601526111a282826110a7565b91505060608301516111b76060860182611041565b5060808301516111ca6080860182611041565b5060a08301516111dd60a0860182611041565b5060c08301516111f060c0860182611041565b5060e083015161120360e0860182611041565b50610100830151611218610100860182611041565b5061012083015161122d610120860182611148565b508091505092915050565b60006112448383611157565b905092915050565b6000602082019050919050565b60006112648261100b565b61126e8185611016565b93508360208202850161128085611027565b8060005b858110156112bc578484038952815161129d8582611238565b94506112a88361124c565b925060208a01995050600181019050611284565b50829750879550505050505092915050565b600060208201905081810360008301526112e88184611259565b905092915050565b6000604051905090565b600080fd5b600080fd5b61130d81611037565b811461131857600080fd5b50565b60008135905061132a81611304565b92915050565b600060208284031215611346576113456112fa565b5b60006113548482850161131b565b91505092915050565b6000610140830160008301516113766000860182611041565b506020830151848203602086015261138e82826110a7565b915050604083015184820360408601526113a882826110a7565b91505060608301516113bd6060860182611041565b5060808301516113d06080860182611041565b5060a08301516113e360a0860182611041565b5060c08301516113f660c0860182611041565b5060e083015161140960e0860182611041565b5061010083015161141e610100860182611041565b50610120830151611433610120860182611148565b508091505092915050565b60006020820190508181036000830152611458818461135d565b905092915050565b600080fd5b600080fd5b7f4e487b7100000000000000000000000000000000000000000000000000000000600052604160045260246000fd5b6114a282611096565b810181811067ffffffffffffffff821117156114c1576114c061146a565b5b80604052505050565b60006114d46112f0565b90506114e08282611499565b919050565b600067ffffffffffffffff821115611500576114ff61146a565b5b61150982611096565b9050602081019050919050565b82818337600083830152505050565b6000611538611533846114e5565b6114ca565b90508281526020810184848401111561155457611553611465565b5b61155f848285611516565b509392505050565b600082601f83011261157c5761157b611460565b5b813561158c848260208601611525565b91505092915050565b600080600080600060a086880312156115b1576115b06112fa565b5b60006115bf8882890161131b565b955050602086013567ffffffffffffffff8111156115e0576115df6112ff565b5b6115ec88828901611567565b945050604086013567ffffffffffffffff81111561160d5761160c6112ff565b5b61161988828901611567565b935050606086013567ffffffffffffffff81111561163a576116396112ff565b5b61164688828901611567565b92505060806116578882890161131b565b9150509295509295909350565b600080600080600080600060e0888a031215611683576116826112fa565b5b600088013567ffffffffffffffff8111156116a1576116a06112ff565b5b6116ad8a828b01611567565b975050602088013567ffffffffffffffff8111156116ce576116cd6112ff565b5b6116da8a828b01611567565b96505060406116eb8a828b0161131b565b95505060606116fc8a828b0161131b565b945050608061170d8a828b0161131b565b93505060a061171e8a828b0161131b565b92505060c061172f8a828b0161131b565b91505092959891949750929550565b600061174982610f71565b9050919050565b6117598161173e565b811461176457600080fd5b50565b60008135905061177681611750565b92915050565b60008060408385031215611793576117926112fa565b5b60006117a185828601611767565b92505060206117b28582860161131b565b9150509250929050565b6117c58161173e565b82525050565b60006020820190506117e060008301846117bc565b92915050565b6000602082840312156117fc576117fb6112fa565b5b600061180a84828501611767565b91505092915050565b600081519050919050565b600082825260208201905092915050565b6000819050602082019050919050565b6118488161173e565b82525050565b6003811061185f5761185e6110e0565b5b50565b60008190506118708261184e565b919050565b600061188082611862565b9050919050565b61189081611875565b82525050565b6000610140830160008301516118af6000860182611041565b5060208301516118c26020860182611041565b50604083015184820360408601526118da82826110a7565b915050606083015184820360608601526118f482826110a7565b9150506080830151848203608086015261190e82826110a7565b91505060a083015161192360a0860182611041565b5060c083015161193660c0860182611041565b5060e083015161194960e0860182611041565b5061010083015161195e61010086018261183f565b50610120830151611973610120860182611887565b508091505092915050565b600061198a8383611896565b905092915050565b6000602082019050919050565b60006119aa82611813565b6119b4818561181e565b9350836020820285016119c68561182f565b8060005b85811015611a0257848403895281516119e3858261197e565b94506119ee83611992565b925060208a019950506001810190506119ca565b50829750879550505050505092915050565b60006020820190508181036000830152611a2e818461199f565b905092915050565b60008115159050919050565b611a4b81611a36565b82525050565b6000602082019050611a666000830184611a42565b92915050565b600061014083016000830151611a856000860182611041565b506020830151611a986020860182611041565b5060408301518482036040860152611ab082826110a7565b91505060608301518482036060860152611aca82826110a7565b91505060808301518482036080860152611ae482826110a7565b91505060a0830151611af960a0860182611041565b5060c0830151611b0c60c0860182611041565b5060e0830151611b1f60e0860182611041565b50610100830151611b3461010086018261183f565b50610120830151611b49610120860182611887565b508091505092915050565b60006040820190508181036000830152611b6e8185611a6c565b90508181036020830152611b82818461135d565b90509392505050565b600067ffffffffffffffff821115611ba657611ba561146a565b5b602082029050602081019050919050565b600080fd5b600080fd5b600080fd5b600081519050611bd581611304565b92915050565b6000611bee611be9846114e5565b6114ca565b905082815260208101848484011115611c0a57611c09611465565b5b611c1584828561106c565b509392505050565b600082601f830112611c3257611c31611460565b5b8151611c42848260208601611bdb565b91505092915050565b60028110611c5857600080fd5b50565b600081519050611c6a81611c4b565b92915050565b60006101408284031215611c8757611c86611bbc565b5b611c926101406114ca565b90506000611ca284828501611bc6565b600083015250602082015167ffffffffffffffff811115611cc657611cc5611bc1565b5b611cd284828501611c1d565b602083015250604082015167ffffffffffffffff811115611cf657611cf5611bc1565b5b611d0284828501611c1d565b6040830152506060611d1684828501611bc6565b6060830152506080611d2a84828501611bc6565b60808301525060a0611d3e84828501611bc6565b60a08301525060c0611d5284828501611bc6565b60c08301525060e0611d6684828501611bc6565b60e083015250610100611d7b84828501611bc6565b61010083015250610120611d9184828501611c5b565b6101208301525092915050565b6000611db1611dac84611b8b565b6114ca565b90508083825260208201905060208402830185811115611dd457611dd3611bb7565b5b835b81811015611e1b57805167ffffffffffffffff811115611df957611df8611460565b5b808601611e068982611c70565b85526020850194505050602081019050611dd6565b5050509392505050565b600082601f830112611e3a57611e39611460565b5b8151611e4a848260208601611d9e565b91505092915050565b600060208284031215611e6957611e686112fa565b5b600082015167ffffffffffffffff811115611e8757611e866112ff565b5b611e9384828501611e25565b91505092915050565b600082825260208201905092915050565b7f496e73757265723a204f6e6c792074686520696e73757265722063616e20636160008201527f6c6c207468697300000000000000000000000000000000000000000000000000602082015250565b6000611f09602783611e9c565b9150611f1482611ead565b604082019050919050565b60006020820190508181036000830152611f3881611efc565b9050919050565b7f496e73756666696369656e742062616c616e6365000000000000000000000000600082015250565b6000611f75601483611e9c565b9150611f8082611f3f565b602082019050919050565b60006020820190508181036000830152611fa481611f68565b9050919050565b611fb481611037565b82525050565b6000602082019050611fcf6000830184611fab565b92915050565b600060208284031215611feb57611fea6112fa565b5b600082015167ffffffffffffffff811115612009576120086112ff565b5b61201584828501611c70565b91505092915050565b600061202982611050565b6120338185611e9c565b935061204381856020860161106c565b61204c81611096565b840191505092915050565b600060a08201905061206c6000830188611fab565b818103602083015261207e818761201e565b90508181036040830152612092818661201e565b905081810360608301526120a6818561201e565b90506120b56080830184611fab565b9695505050505050565b6000602082840312156120d5576120d46112fa565b5b60006120e384828501611bc6565b91505092915050565b600060e0820190508181036000830152612106818a61201e565b9050818103602083015261211a818961201e565b90506121296040830188611fab565b6121366060830187611fab565b6121436080830186611fab565b61215060a0830185611fab565b61215d60c0830184611fab565b98975050505050505050565b60006020820190508181036000830152612183818461201e565b905092915050565b60006040820190506121a060008301856117bc565b6121ad6020830184611fab565b9392505050565b600067ffffffffffffffff8211156121cf576121ce61146a565b5b602082029050602081019050919050565b6000815190506121ef81611750565b92915050565b6003811061220257600080fd5b50565b600081519050612214816121f5565b92915050565b6000610140828403121561223157612230611bbc565b5b61223c6101406114ca565b9050600061224c84828501611bc6565b600083015250602061226084828501611bc6565b602083015250604082015167ffffffffffffffff81111561228457612283611bc1565b5b61229084828501611c1d565b604083015250606082015167ffffffffffffffff8111156122b4576122b3611bc1565b5b6122c084828501611c1d565b606083015250608082015167ffffffffffffffff8111156122e4576122e3611bc1565b5b6122f084828501611c1d565b60808301525060a061230484828501611bc6565b60a08301525060c061231884828501611bc6565b60c08301525060e061232c84828501611bc6565b60e083015250610100612341848285016121e0565b6101008301525061012061235784828501612205565b6101208301525092915050565b6000612377612372846121b4565b6114ca565b9050808382526020820190506020840283018581111561239a57612399611bb7565b5b835b818110156123e157805167ffffffffffffffff8111156123bf576123be611460565b5b8086016123cc898261221a565b8552602085019450505060208101905061239c565b5050509392505050565b600082601f830112612400576123ff611460565b5b8151612410848260208601612364565b91505092915050565b60006020828403121561242f5761242e6112fa565b5b600082015167ffffffffffffffff81111561244d5761244c6112ff565b5b612459848285016123eb565b91505092915050565b60008060408385031215612479576124786112fa565b5b600083015167ffffffffffffffff811115612497576124966112ff565b5b6124a38582860161221a565b925050602083015167ffffffffffffffff8111156124c4576124c36112ff565b5b6124d085828601611c70565b915050925092905056fea2646970667358221220f6ceded52ec5369876ac7dcb478b0e5776e9ecda747c4509c9c0f991c470c6db64736f6c63430008130033",
  "linkReferences": {},
  "deployedLinkReferences": {}
}