{
  "_format": "hh-sol-artifact-1",
  "contractName": "BaggagePolicy",
  "sourceName": "contracts/BaggagePolicy.sol",
  "abi": [
    {
      "inputs": [
        {
          "internalType": "address",
          "name": "_oracleConnector",
          "type": "address"
        }
      ],
      "stateMutability": "nonpayable",
      "type": "constructor"
    },
    {
      "anonymous": false,
      "inputs": [
        {
          "indexed": false,
          "internalType": "uint256",
          "name": "policyId",
          "type": "uint256"
        },
        {
          "indexed": false,
          "internalType": "address",
          "name": "buyer",
          "type": "address"
        },
        {
          "indexed": false,
          "internalType": "uint256",
          "name": "payout",
          "type": "uint256"
        },
        {
          "indexed": false,
          "internalType": "enum BaggagePolicy.PayoutResult",
          "name": "result",
          "type": "uint8"
        }
      ],
      "name": "PayoutEvaluated",
      "type": "event"
    },
    {
      "inputs": [
        {
          "internalType": "uint256",
          "name": "policyId",
          "type": "uint256"
        },
        {
          "internalType": "address",
          "name": "buyer",
          "type": "address"
        }
      ],
      "name": "claimPayout",
      "outputs": [
        {
          "internalType": "uint256",
          "name": "",
          "type": "uint256"
        },
        {
          "components": [
            {
              "internalType": "uint256",
              "name": "policyId",
              "type": "uint256"
            },
            {
              "components": [
                {
                  "internalType": "string",
                  "name": "templateId",
                  "type": "string"
                },
                {
                  "internalType": "string",
                  "name": "name",
                  "type": "string"
                },
                {
                  "internalType": "string",
                  "name": "description",
                  "type": "string"
                },
                {
                  "internalType": "uint256",
                  "name": "createdAt",
                  "type": "uint256"
                },
                {
                  "internalType": "uint256",
                  "name": "updatedAt",
                  "type": "uint256"
                },
                {
                  "internalType": "uint256",
                  "name": "premium",
                  "type": "uint256"
                },
                {
                  "internalType": "uint256",
                  "name": "maxTotalPayout",
                  "type": "uint256"
                },
                {
                  "internalType": "uint256",
                  "name": "coverageDurationSeconds",
                  "type": "uint256"
                },
                {
                  "internalType": "enum BaggagePolicy.PolicyTemplateStatus",
                  "name": "status",
                  "type": "uint8"
                }
              ],
              "internalType": "struct BaggagePolicy.PolicyTemplate",
              "name": "template",
              "type": "tuple"
            },
            {
              "internalType": "string",
              "name": "flightNumber",
              "type": "string"
            },
            {
              "internalType": "uint256",
              "name": "departureTime",
              "type": "uint256"
            },
            {
              "internalType": "string",
              "name": "itemDescription",
              "type": "string"
            },
            {
              "internalType": "uint256",
              "name": "createdAt",
              "type": "uint256"
            },
            {
              "internalType": "uint256",
              "name": "payoutToDate",
              "type": "uint256"
            },
            {
              "internalType": "address",
              "name": "buyer",
              "type": "address"
            },
            {
              "internalType": "enum BaggagePolicy.PolicyStatus",
              "name": "status",
              "type": "uint8"
            }
          ],
          "internalType": "struct BaggagePolicy.UserPolicy",
          "name": "",
          "type": "tuple"
        }
      ],
      "stateMutability": "nonpayable",
      "type": "function"
    },
    {
      "inputs": [
        {
          "internalType": "uint256",
          "name": "currentTime",
          "type": "uint256"
        }
      ],
      "name": "getAllPolicies",
      "outputs": [
        {
          "components": [
            {
              "internalType": "uint256",
              "name": "policyId",
              "type": "uint256"
            },
            {
              "components": [
                {
                  "internalType": "string",
                  "name": "templateId",
                  "type": "string"
                },
                {
                  "internalType": "string",
                  "name": "name",
                  "type": "string"
                },
                {
                  "internalType": "string",
                  "name": "description",
                  "type": "string"
                },
                {
                  "internalType": "uint256",
                  "name": "createdAt",
                  "type": "uint256"
                },
                {
                  "internalType": "uint256",
                  "name": "updatedAt",
                  "type": "uint256"
                },
                {
                  "internalType": "uint256",
                  "name": "premium",
                  "type": "uint256"
                },
                {
                  "internalType": "uint256",
                  "name": "maxTotalPayout",
                  "type": "uint256"
                },
                {
                  "internalType": "uint256",
                  "name": "coverageDurationSeconds",
                  "type": "uint256"
                },
                {
                  "internalType": "enum BaggagePolicy.PolicyTemplateStatus",
                  "name": "status",
                  "type": "uint8"
                }
              ],
              "internalType": "struct BaggagePolicy.PolicyTemplate",
              "name": "template",
              "type": "tuple"
            },
            {
              "internalType": "string",
              "name": "flightNumber",
              "type": "string"
            },
            {
              "internalType": "uint256",
              "name": "departureTime",
              "type": "uint256"
            },
            {
              "internalType": "string",
              "name": "itemDescription",
              "type": "string"
            },
            {
              "internalType": "uint256",
              "name": "createdAt",
              "type": "uint256"
            },
            {
              "internalType": "uint256",
              "name": "payoutToDate",
              "type": "uint256"
            },
            {
              "internalType": "address",
              "name": "buyer",
              "type": "address"
            },
            {
              "internalType": "enum BaggagePolicy.PolicyStatus",
              "name": "status",
              "type": "uint8"
            }
          ],
          "internalType": "struct BaggagePolicy.UserPolicy[]",
          "name": "",
          "type": "tuple[]"
        }
      ],
      "stateMutability": "view",
      "type": "function"
    },
    {
      "inputs": [
        {
          "internalType": "address",
          "name": "user",
          "type": "address"
        },
        {
          "internalType": "uint256",
          "name": "currentTime",
          "type": "uint256"
        }
      ],
      "name": "getUserPolicies",
      "outputs": [
        {
          "components": [
            {
              "internalType": "uint256",
              "name": "policyId",
              "type": "uint256"
            },
            {
              "components": [
                {
                  "internalType": "string",
                  "name": "templateId",
                  "type": "string"
                },
                {
                  "internalType": "string",
                  "name": "name",
                  "type": "string"
                },
                {
                  "internalType": "string",
                  "name": "description",
                  "type": "string"
                },
                {
                  "internalType": "uint256",
                  "name": "createdAt",
                  "type": "uint256"
                },
                {
                  "internalType": "uint256",
                  "name": "updatedAt",
                  "type": "uint256"
                },
                {
                  "internalType": "uint256",
                  "name": "premium",
                  "type": "uint256"
                },
                {
                  "internalType": "uint256",
                  "name": "maxTotalPayout",
                  "type": "uint256"
                },
                {
                  "internalType": "uint256",
                  "name": "coverageDurationSeconds",
                  "type": "uint256"
                },
                {
                  "internalType": "enum BaggagePolicy.PolicyTemplateStatus",
                  "name": "status",
                  "type": "uint8"
                }
              ],
              "internalType": "struct BaggagePolicy.PolicyTemplate",
              "name": "template",
              "type": "tuple"
            },
            {
              "internalType": "string",
              "name": "flightNumber",
              "type": "string"
            },
            {
              "internalType": "uint256",
              "name": "departureTime",
              "type": "uint256"
            },
            {
              "internalType": "string",
              "name": "itemDescription",
              "type": "string"
            },
            {
              "internalType": "uint256",
              "name": "createdAt",
              "type": "uint256"
            },
            {
              "internalType": "uint256",
              "name": "payoutToDate",
              "type": "uint256"
            },
            {
              "internalType": "address",
              "name": "buyer",
              "type": "address"
            },
            {
              "internalType": "enum BaggagePolicy.PolicyStatus",
              "name": "status",
              "type": "uint8"
            }
          ],
          "internalType": "struct BaggagePolicy.UserPolicy[]",
          "name": "",
          "type": "tuple[]"
        }
      ],
      "stateMutability": "view",
      "type": "function"
    },
    {
      "inputs": [
        {
          "internalType": "string",
          "name": "templateId",
          "type": "string"
        },
        {
          "internalType": "uint256",
          "name": "currentTime",
          "type": "uint256"
        }
      ],
      "name": "getUserPoliciesByTemplate",
      "outputs": [
        {
          "components": [
            {
              "internalType": "uint256",
              "name": "policyId",
              "type": "uint256"
            },
            {
              "components": [
                {
                  "internalType": "string",
                  "name": "templateId",
                  "type": "string"
                },
                {
                  "internalType": "string",
                  "name": "name",
                  "type": "string"
                },
                {
                  "internalType": "string",
                  "name": "description",
                  "type": "string"
                },
                {
                  "internalType": "uint256",
                  "name": "createdAt",
                  "type": "uint256"
                },
                {
                  "internalType": "uint256",
                  "name": "updatedAt",
                  "type": "uint256"
                },
                {
                  "internalType": "uint256",
                  "name": "premium",
                  "type": "uint256"
                },
                {
                  "internalType": "uint256",
                  "name": "maxTotalPayout",
                  "type": "uint256"
                },
                {
                  "internalType": "uint256",
                  "name": "coverageDurationSeconds",
                  "type": "uint256"
                },
                {
                  "internalType": "enum BaggagePolicy.PolicyTemplateStatus",
                  "name": "status",
                  "type": "uint8"
                }
              ],
              "internalType": "struct BaggagePolicy.PolicyTemplate",
              "name": "template",
              "type": "tuple"
            },
            {
              "internalType": "string",
              "name": "flightNumber",
              "type": "string"
            },
            {
              "internalType": "uint256",
              "name": "departureTime",
              "type": "uint256"
            },
            {
              "internalType": "string",
              "name": "itemDescription",
              "type": "string"
            },
            {
              "internalType": "uint256",
              "name": "createdAt",
              "type": "uint256"
            },
            {
              "internalType": "uint256",
              "name": "payoutToDate",
              "type": "uint256"
            },
            {
              "internalType": "address",
              "name": "buyer",
              "type": "address"
            },
            {
              "internalType": "enum BaggagePolicy.PolicyStatus",
              "name": "status",
              "type": "uint8"
            }
          ],
          "internalType": "struct BaggagePolicy.UserPolicy[]",
          "name": "",
          "type": "tuple[]"
        }
      ],
      "stateMutability": "view",
      "type": "function"
    },
    {
      "inputs": [],
      "name": "insurerAddress",
      "outputs": [
        {
          "internalType": "address",
          "name": "",
          "type": "address"
        }
      ],
      "stateMutability": "view",
      "type": "function"
    },
    {
      "inputs": [],
      "name": "nextUserPolicyId",
      "outputs": [
        {
          "internalType": "uint256",
          "name": "",
          "type": "uint256"
        }
      ],
      "stateMutability": "view",
      "type": "function"
    },
    {
      "inputs": [],
      "name": "oracleConnector",
      "outputs": [
        {
          "internalType": "contract OracleConnector",
          "name": "",
          "type": "address"
        }
      ],
      "stateMutability": "view",
      "type": "function"
    },
    {
      "inputs": [
        {
          "components": [
            {
              "internalType": "string",
              "name": "templateId",
              "type": "string"
            },
            {
              "internalType": "string",
              "name": "name",
              "type": "string"
            },
            {
              "internalType": "string",
              "name": "description",
              "type": "string"
            },
            {
              "internalType": "uint256",
              "name": "createdAt",
              "type": "uint256"
            },
            {
              "internalType": "uint256",
              "name": "updatedAt",
              "type": "uint256"
            },
            {
              "internalType": "uint256",
              "name": "premium",
              "type": "uint256"
            },
            {
              "internalType": "uint256",
              "name": "maxTotalPayout",
              "type": "uint256"
            },
            {
              "internalType": "uint256",
              "name": "coverageDurationSeconds",
              "type": "uint256"
            },
            {
              "internalType": "enum BaggagePolicy.PolicyTemplateStatus",
              "name": "status",
              "type": "uint8"
            }
          ],
          "internalType": "struct BaggagePolicy.PolicyTemplate",
          "name": "template",
          "type": "tuple"
        },
        {
          "internalType": "string",
          "name": "flightNumber",
          "type": "string"
        },
        {
          "internalType": "uint256",
          "name": "departureTime",
          "type": "uint256"
        },
        {
          "internalType": "string",
          "name": "itemDescription",
          "type": "string"
        },
        {
          "internalType": "address",
          "name": "buyer",
          "type": "address"
        }
      ],
      "name": "purchasePolicy",
      "outputs": [
        {
          "internalType": "uint256",
          "name": "",
          "type": "uint256"
        }
      ],
      "stateMutability": "nonpayable",
      "type": "function"
    },
    {
      "inputs": [
        {
          "internalType": "uint256",
          "name": "",
          "type": "uint256"
        }
      ],
      "name": "userPolicies",
      "outputs": [
        {
          "internalType": "uint256",
          "name": "policyId",
          "type": "uint256"
        },
        {
          "components": [
            {
              "internalType": "string",
              "name": "templateId",
              "type": "string"
            },
            {
              "internalType": "string",
              "name": "name",
              "type": "string"
            },
            {
              "internalType": "string",
              "name": "description",
              "type": "string"
            },
            {
              "internalType": "uint256",
              "name": "createdAt",
              "type": "uint256"
            },
            {
              "internalType": "uint256",
              "name": "updatedAt",
              "type": "uint256"
            },
            {
              "internalType": "uint256",
              "name": "premium",
              "type": "uint256"
            },
            {
              "internalType": "uint256",
              "name": "maxTotalPayout",
              "type": "uint256"
            },
            {
              "internalType": "uint256",
              "name": "coverageDurationSeconds",
              "type": "uint256"
            },
            {
              "internalType": "enum BaggagePolicy.PolicyTemplateStatus",
              "name": "status",
              "type": "uint8"
            }
          ],
          "internalType": "struct BaggagePolicy.PolicyTemplate",
          "name": "template",
          "type": "tuple"
        },
        {
          "internalType": "string",
          "name": "flightNumber",
          "type": "string"
        },
        {
          "internalType": "uint256",
          "name": "departureTime",
          "type": "uint256"
        },
        {
          "internalType": "string",
          "name": "itemDescription",
          "type": "string"
        },
        {
          "internalType": "uint256",
          "name": "createdAt",
          "type": "uint256"
        },
        {
          "internalType": "uint256",
          "name": "payoutToDate",
          "type": "uint256"
        },
        {
          "internalType": "address",
          "name": "buyer",
          "type": "address"
        },
        {
          "internalType": "enum BaggagePolicy.PolicyStatus",
          "name": "status",
          "type": "uint8"
        }
      ],
      "stateMutability": "view",
      "type": "function"
    },
    {
      "inputs": [
        {
          "internalType": "address",
          "name": "",
          "type": "address"
        },
        {
          "internalType": "uint256",
          "name": "",
          "type": "uint256"
        }
      ],
      "name": "userPolicyIds",
      "outputs": [
        {
          "internalType": "uint256",
          "name": "",
          "type": "uint256"
        }
      ],
      "stateMutability": "view",
      "type": "function"
    }
  ],
  "bytecode": "0x60a06040523480156200001157600080fd5b50604051620045c3380380620045c3833981810160405281019062000037919062000125565b60016000819055503373ffffffffffffffffffffffffffffffffffffffff1660808173ffffffffffffffffffffffffffffffffffffffff168152505080600160006101000a81548173ffffffffffffffffffffffffffffffffffffffff021916908373ffffffffffffffffffffffffffffffffffffffff1602179055505062000157565b600080fd5b600073ffffffffffffffffffffffffffffffffffffffff82169050919050565b6000620000ed82620000c0565b9050919050565b620000ff81620000e0565b81146200010b57600080fd5b50565b6000815190506200011f81620000f4565b92915050565b6000602082840312156200013e576200013d620000bb565b5b60006200014e848285016200010e565b91505092915050565b608051614450620001736000396000610cea01526144506000f3fe608060405234801561001057600080fd5b506004361061009e5760003560e01c8063b0110cc611610066578063b0110cc61461015d578063b6e283e11461018e578063c4919e5f146101be578063c52eaa40146101ee578063cba85f061461021e5761009e565b8063642bb925146100a357806364b72a65146100d35780637b956415146101035780639a9122ac14610121578063a7c0900e1461013f575b600080fd5b6100bd60048036038101906100b89190612ed9565b610256565b6040516100ca91906132ee565b60405180910390f35b6100ed60048036038101906100e89190613310565b6107d7565b6040516100fa91906132ee565b60405180910390f35b61010b610cbc565b604051610118919061334c565b60405180910390f35b610129610cc2565b60405161013691906133c6565b60405180910390f35b610147610ce8565b60405161015491906133f0565b60405180910390f35b6101776004803603810190610172919061340b565b610d0c565b60405161018592919061351e565b60405180910390f35b6101a860048036038101906101a39190612ed9565b611ce8565b6040516101b5919061334c565b60405180910390f35b6101d860048036038101906101d391906137e6565b611d19565b6040516101e5919061334c565b60405180910390f35b610208600480360381019061020391906138b5565b612010565b60405161021591906132ee565b60405180910390f35b61023860048036038101906102339190613310565b612609565b60405161024d99989796959493929190613a3d565b60405180910390f35b60606000600360008573ffffffffffffffffffffffffffffffffffffffff1673ffffffffffffffffffffffffffffffffffffffff16815260200190815260200160002080549050905060008167ffffffffffffffff8111156102bb576102ba613553565b5b6040519080825280602002602001820160405280156102f457816020015b6102e1612d59565b8152602001906001900390816102d95790505b50905060005b828110156107c25760026000600360008973ffffffffffffffffffffffffffffffffffffffff1673ffffffffffffffffffffffffffffffffffffffff168152602001908152602001600020838154811061035757610356613adf565b5b90600052602060002001548152602001908152602001600020604051806101200160405290816000820154815260200160018201604051806101200160405290816000820180546103a790613b3d565b80601f01602080910402602001604051908101604052809291908181526020018280546103d390613b3d565b80156104205780601f106103f557610100808354040283529160200191610420565b820191906000526020600020905b81548152906001019060200180831161040357829003601f168201915b5050505050815260200160018201805461043990613b3d565b80601f016020809104026020016040519081016040528092919081815260200182805461046590613b3d565b80156104b25780601f10610487576101008083540402835291602001916104b2565b820191906000526020600020905b81548152906001019060200180831161049557829003601f168201915b505050505081526020016002820180546104cb90613b3d565b80601f01602080910402602001604051908101604052809291908181526020018280546104f790613b3d565b80156105445780601f1061051957610100808354040283529160200191610544565b820191906000526020600020905b81548152906001019060200180831161052757829003601f168201915b5050505050815260200160038201548152602001600482015481526020016005820154815260200160068201548152602001600782015481526020016008820160009054906101000a900460ff1660018111156105a4576105a3612fe4565b5b60018111156105b6576105b5612fe4565b5b815250508152602001600a820180546105ce90613b3d565b80601f01602080910402602001604051908101604052809291908181526020018280546105fa90613b3d565b80156106475780601f1061061c57610100808354040283529160200191610647565b820191906000526020600020905b81548152906001019060200180831161062a57829003601f168201915b50505050508152602001600b8201548152602001600c8201805461066a90613b3d565b80601f016020809104026020016040519081016040528092919081815260200182805461069690613b3d565b80156106e35780601f106106b8576101008083540402835291602001916106e3565b820191906000526020600020905b8154815290600101906020018083116106c657829003601f168201915b50505050508152602001600d8201548152602001600e8201548152602001600f820160009054906101000a900473ffffffffffffffffffffffffffffffffffffffff1673ffffffffffffffffffffffffffffffffffffffff1673ffffffffffffffffffffffffffffffffffffffff168152602001600f820160149054906101000a900460ff16600281111561077b5761077a612fe4565b5b600281111561078d5761078c612fe4565b5b815250508282815181106107a4576107a3613adf565b5b602002602001018190525080806107ba90613b9d565b9150506102fa565b506107cd81856129c2565b9250505092915050565b60606000600454905060008167ffffffffffffffff8111156107fc576107fb613553565b5b60405190808252806020026020018201604052801561083557816020015b610822612d59565b81526020019060019003908161081a5790505b50905060005b82811015610ca857600260008281526020019081526020016000206040518061012001604052908160008201548152602001600182016040518061012001604052908160008201805461088d90613b3d565b80601f01602080910402602001604051908101604052809291908181526020018280546108b990613b3d565b80156109065780601f106108db57610100808354040283529160200191610906565b820191906000526020600020905b8154815290600101906020018083116108e957829003601f168201915b5050505050815260200160018201805461091f90613b3d565b80601f016020809104026020016040519081016040528092919081815260200182805461094b90613b3d565b80156109985780601f1061096d57610100808354040283529160200191610998565b820191906000526020600020905b81548152906001019060200180831161097b57829003601f168201915b505050505081526020016002820180546109b190613b3d565b80601f01602080910402602001604051908101604052809291908181526020018280546109dd90613b3d565b8015610a2a5780601f106109ff57610100808354040283529160200191610a2a565b820191906000526020600020905b815481529060010190602001808311610a0d57829003601f168201915b5050505050815260200160038201548152602001600482015481526020016005820154815260200160068201548152602001600782015481526020016008820160009054906101000a900460ff166001811115610a8a57610a89612fe4565b5b6001811115610a9c57610a9b612fe4565b5b815250508152602001600a82018054610ab490613b3d565b80601f0160208091040260200160405190810160405280929190818152602001828054610ae090613b3d565b8015610b2d5780601f10610b0257610100808354040283529160200191610b2d565b820191906000526020600020905b815481529060010190602001808311610b1057829003601f168201915b50505050508152602001600b8201548152602001600c82018054610b5090613b3d565b80601f0160208091040260200160405190810160405280929190818152602001828054610b7c90613b3d565b8015610bc95780601f10610b9e57610100808354040283529160200191610bc9565b820191906000526020600020905b815481529060010190602001808311610bac57829003601f168201915b50505050508152602001600d8201548152602001600e8201548152602001600f820160009054906101000a900473ffffffffffffffffffffffffffffffffffffffff1673ffffffffffffffffffffffffffffffffffffffff1673ffffffffffffffffffffffffffffffffffffffff168152602001600f820160149054906101000a900460ff166002811115610c6157610c60612fe4565b5b6002811115610c7357610c72612fe4565b5b81525050828281518110610c8a57610c89613adf565b5b60200260200101819052508080610ca090613b9d565b91505061083b565b50610cb381856129c2565b92505050919050565b60045481565b600160009054906101000a900473ffffffffffffffffffffffffffffffffffffffff1681565b7f000000000000000000000000000000000000000000000000000000000000000081565b6000610d16612d59565b610d1e612adf565b6004548410610d62576040517f08c379a0000000000000000000000000000000000000000000000000000000008152600401610d5990613c31565b60405180910390fd5b600060026000868152602001908152602001600020905080600f0160009054906101000a900473ffffffffffffffffffffffffffffffffffffffff1673ffffffffffffffffffffffffffffffffffffffff168473ffffffffffffffffffffffffffffffffffffffff1614610e0b576040517f08c379a0000000000000000000000000000000000000000000000000000000008152600401610e0290613c9d565b60405180910390fd5b60006002811115610e1f57610e1e612fe4565b5b81600f0160149054906101000a900460ff166002811115610e4357610e42612fe4565b5b14610e83576040517f08c379a0000000000000000000000000000000000000000000000000000000008152600401610e7a90613d09565b60405180910390fd5b600080600160009054906101000a900473ffffffffffffffffffffffffffffffffffffffff1673ffffffffffffffffffffffffffffffffffffffff1663927f8ae684600a01610ed586600b0154612b2e565b86600c016040518463ffffffff1660e01b8152600401610ef793929190613dc2565b60408051808303816000875af1158015610f15573d6000803e3d6000fd5b505050506040513d601f19601f82011682018060405250810190610f399190613e46565b91509150816113b3577f5122fc8d66a635ed59633488b2363a87aa4103697e25b116e157f3a4f402760d8787600080604051610f789493929190613f09565b60405180910390a16000838060405180610120016040529081600082015481526020016001820160405180610120016040529081600082018054610fbb90613b3d565b80601f0160208091040260200160405190810160405280929190818152602001828054610fe790613b3d565b80156110345780601f1061100957610100808354040283529160200191611034565b820191906000526020600020905b81548152906001019060200180831161101757829003601f168201915b5050505050815260200160018201805461104d90613b3d565b80601f016020809104026020016040519081016040528092919081815260200182805461107990613b3d565b80156110c65780601f1061109b576101008083540402835291602001916110c6565b820191906000526020600020905b8154815290600101906020018083116110a957829003601f168201915b505050505081526020016002820180546110df90613b3d565b80601f016020809104026020016040519081016040528092919081815260200182805461110b90613b3d565b80156111585780601f1061112d57610100808354040283529160200191611158565b820191906000526020600020905b81548152906001019060200180831161113b57829003601f168201915b5050505050815260200160038201548152602001600482015481526020016005820154815260200160068201548152602001600782015481526020016008820160009054906101000a900460ff1660018111156111b8576111b7612fe4565b5b60018111156111ca576111c9612fe4565b5b815250508152602001600a820180546111e290613b3d565b80601f016020809104026020016040519081016040528092919081815260200182805461120e90613b3d565b801561125b5780601f106112305761010080835404028352916020019161125b565b820191906000526020600020905b81548152906001019060200180831161123e57829003601f168201915b50505050508152602001600b8201548152602001600c8201805461127e90613b3d565b80601f01602080910402602001604051908101604052809291908181526020018280546112aa90613b3d565b80156112f75780601f106112cc576101008083540402835291602001916112f7565b820191906000526020600020905b8154815290600101906020018083116112da57829003601f168201915b50505050508152602001600d8201548152602001600e8201548152602001600f820160009054906101000a900473ffffffffffffffffffffffffffffffffffffffff1673ffffffffffffffffffffffffffffffffffffffff1673ffffffffffffffffffffffffffffffffffffffff168152602001600f820160149054906101000a900460ff16600281111561138f5761138e612fe4565b5b60028111156113a1576113a0612fe4565b5b81525050905094509450505050611cd9565b8061182a577f5122fc8d66a635ed59633488b2363a87aa4103697e25b116e157f3a4f402760d8787600060016040516113ef9493929190613f09565b60405180910390a1600083806040518061012001604052908160008201548152602001600182016040518061012001604052908160008201805461143290613b3d565b80601f016020809104026020016040519081016040528092919081815260200182805461145e90613b3d565b80156114ab5780601f10611480576101008083540402835291602001916114ab565b820191906000526020600020905b81548152906001019060200180831161148e57829003601f168201915b505050505081526020016001820180546114c490613b3d565b80601f01602080910402602001604051908101604052809291908181526020018280546114f090613b3d565b801561153d5780601f106115125761010080835404028352916020019161153d565b820191906000526020600020905b81548152906001019060200180831161152057829003601f168201915b5050505050815260200160028201805461155690613b3d565b80601f016020809104026020016040519081016040528092919081815260200182805461158290613b3d565b80156115cf5780601f106115a4576101008083540402835291602001916115cf565b820191906000526020600020905b8154815290600101906020018083116115b257829003601f168201915b5050505050815260200160038201548152602001600482015481526020016005820154815260200160068201548152602001600782015481526020016008820160009054906101000a900460ff16600181111561162f5761162e612fe4565b5b600181111561164157611640612fe4565b5b815250508152602001600a8201805461165990613b3d565b80601f016020809104026020016040519081016040528092919081815260200182805461168590613b3d565b80156116d25780601f106116a7576101008083540402835291602001916116d2565b820191906000526020600020905b8154815290600101906020018083116116b557829003601f168201915b50505050508152602001600b8201548152602001600c820180546116f590613b3d565b80601f016020809104026020016040519081016040528092919081815260200182805461172190613b3d565b801561176e5780601f106117435761010080835404028352916020019161176e565b820191906000526020600020905b81548152906001019060200180831161175157829003601f168201915b50505050508152602001600d8201548152602001600e8201548152602001600f820160009054906101000a900473ffffffffffffffffffffffffffffffffffffffff1673ffffffffffffffffffffffffffffffffffffffff1673ffffffffffffffffffffffffffffffffffffffff168152602001600f820160149054906101000a900460ff16600281111561180657611805612fe4565b5b600281111561181857611817612fe4565b5b81525050905094509450505050611cd9565b600283600f0160146101000a81548160ff0219169083600281111561185257611851612fe4565b5b02179055506000836001016006015490508084600e01819055507f5122fc8d66a635ed59633488b2363a87aa4103697e25b116e157f3a4f402760d88888360026040516118a29493929190613f4e565b60405180910390a1808480604051806101200160405290816000820154815260200160018201604051806101200160405290816000820180546118e490613b3d565b80601f016020809104026020016040519081016040528092919081815260200182805461191090613b3d565b801561195d5780601f106119325761010080835404028352916020019161195d565b820191906000526020600020905b81548152906001019060200180831161194057829003601f168201915b5050505050815260200160018201805461197690613b3d565b80601f01602080910402602001604051908101604052809291908181526020018280546119a290613b3d565b80156119ef5780601f106119c4576101008083540402835291602001916119ef565b820191906000526020600020905b8154815290600101906020018083116119d257829003601f168201915b50505050508152602001600282018054611a0890613b3d565b80601f0160208091040260200160405190810160405280929190818152602001828054611a3490613b3d565b8015611a815780601f10611a5657610100808354040283529160200191611a81565b820191906000526020600020905b815481529060010190602001808311611a6457829003601f168201915b5050505050815260200160038201548152602001600482015481526020016005820154815260200160068201548152602001600782015481526020016008820160009054906101000a900460ff166001811115611ae157611ae0612fe4565b5b6001811115611af357611af2612fe4565b5b815250508152602001600a82018054611b0b90613b3d565b80601f0160208091040260200160405190810160405280929190818152602001828054611b3790613b3d565b8015611b845780601f10611b5957610100808354040283529160200191611b84565b820191906000526020600020905b815481529060010190602001808311611b6757829003601f168201915b50505050508152602001600b8201548152602001600c82018054611ba790613b3d565b80601f0160208091040260200160405190810160405280929190818152602001828054611bd390613b3d565b8015611c205780601f10611bf557610100808354040283529160200191611c20565b820191906000526020600020905b815481529060010190602001808311611c0357829003601f168201915b50505050508152602001600d8201548152602001600e8201548152602001600f820160009054906101000a900473ffffffffffffffffffffffffffffffffffffffff1673ffffffffffffffffffffffffffffffffffffffff1673ffffffffffffffffffffffffffffffffffffffff168152602001600f820160149054906101000a900460ff166002811115611cb857611cb7612fe4565b5b6002811115611cca57611cc9612fe4565b5b81525050905095509550505050505b611ce1612bfc565b9250929050565b60036020528160005260406000208181548110611d0457600080fd5b90600052602060002001600091509150505481565b6000806001811115611d2e57611d2d612fe4565b5b8661010001516001811115611d4657611d45612fe4565b5b14611d86576040517f08c379a0000000000000000000000000000000000000000000000000000000008152600401611d7d90613fdf565b60405180910390fd5b600060046000815480929190611d9b90613b9d565b919050559050604051806101200160405280828152602001888152602001878152602001868152602001858152602001428152602001600081526020018473ffffffffffffffffffffffffffffffffffffffff16815260200160006002811115611e0857611e07612fe4565b5b81525060026000838152602001908152602001600020600082015181600001556020820151816001016000820151816000019081611e46919061418c565b506020820151816001019081611e5c919061418c565b506040820151816002019081611e72919061418c565b50606082015181600301556080820151816004015560a0820151816005015560c0820151816006015560e082015181600701556101008201518160080160006101000a81548160ff02191690836001811115611ed157611ed0612fe4565b5b02179055505050604082015181600a019081611eed919061418c565b50606082015181600b0155608082015181600c019081611f0d919061418c565b5060a082015181600d015560c082015181600e015560e082015181600f0160006101000a81548173ffffffffffffffffffffffffffffffffffffffff021916908373ffffffffffffffffffffffffffffffffffffffff16021790555061010082015181600f0160146101000a81548160ff02191690836002811115611f9557611f94612fe4565b5b0217905550905050600360008473ffffffffffffffffffffffffffffffffffffffff1673ffffffffffffffffffffffffffffffffffffffff1681526020019081526020016000208190806001815401808255809150506001900390600052602060002001600090919091909150558091505095945050505050565b60606000805b6004548110156120ad5784604051602001612031919061429a565b60405160208183030381529060405280519060200120600260008381526020019081526020016000206001016000016040516020016120709190614334565b604051602081830303815290604052805190602001200361209a57818061209690613b9d565b9250505b80806120a590613b9d565b915050612016565b5060008167ffffffffffffffff8111156120ca576120c9613553565b5b60405190808252806020026020018201604052801561210357816020015b6120f0612d59565b8152602001906001900390816120e85790505b5090506000805b6004548110156125f35786604051602001612125919061429a565b60405160208183030381529060405280519060200120600260008381526020019081526020016000206001016000016040516020016121649190614334565b60405160208183030381529060405280519060200120036125e05760026000828152602001908152602001600020604051806101200160405290816000820154815260200160018201604051806101200160405290816000820180546121c990613b3d565b80601f01602080910402602001604051908101604052809291908181526020018280546121f590613b3d565b80156122425780601f1061221757610100808354040283529160200191612242565b820191906000526020600020905b81548152906001019060200180831161222557829003601f168201915b5050505050815260200160018201805461225b90613b3d565b80601f016020809104026020016040519081016040528092919081815260200182805461228790613b3d565b80156122d45780601f106122a9576101008083540402835291602001916122d4565b820191906000526020600020905b8154815290600101906020018083116122b757829003601f168201915b505050505081526020016002820180546122ed90613b3d565b80601f016020809104026020016040519081016040528092919081815260200182805461231990613b3d565b80156123665780601f1061233b57610100808354040283529160200191612366565b820191906000526020600020905b81548152906001019060200180831161234957829003601f168201915b5050505050815260200160038201548152602001600482015481526020016005820154815260200160068201548152602001600782015481526020016008820160009054906101000a900460ff1660018111156123c6576123c5612fe4565b5b60018111156123d8576123d7612fe4565b5b815250508152602001600a820180546123f090613b3d565b80601f016020809104026020016040519081016040528092919081815260200182805461241c90613b3d565b80156124695780601f1061243e57610100808354040283529160200191612469565b820191906000526020600020905b81548152906001019060200180831161244c57829003601f168201915b50505050508152602001600b8201548152602001600c8201805461248c90613b3d565b80601f01602080910402602001604051908101604052809291908181526020018280546124b890613b3d565b80156125055780601f106124da57610100808354040283529160200191612505565b820191906000526020600020905b8154815290600101906020018083116124e857829003601f168201915b50505050508152602001600d8201548152602001600e8201548152602001600f820160009054906101000a900473ffffffffffffffffffffffffffffffffffffffff1673ffffffffffffffffffffffffffffffffffffffff1673ffffffffffffffffffffffffffffffffffffffff168152602001600f820160149054906101000a900460ff16600281111561259d5761259c612fe4565b5b60028111156125af576125ae612fe4565b5b815250508383815181106125c6576125c5613adf565b5b602002602001018190525081806125dc90613b9d565b9250505b80806125eb90613b9d565b91505061210a565b506125fe82866129c2565b935050505092915050565b6002602052806000526040600020600091509050806000015490806001016040518061012001604052908160008201805461264390613b3d565b80601f016020809104026020016040519081016040528092919081815260200182805461266f90613b3d565b80156126bc5780601f10612691576101008083540402835291602001916126bc565b820191906000526020600020905b81548152906001019060200180831161269f57829003601f168201915b505050505081526020016001820180546126d590613b3d565b80601f016020809104026020016040519081016040528092919081815260200182805461270190613b3d565b801561274e5780601f106127235761010080835404028352916020019161274e565b820191906000526020600020905b81548152906001019060200180831161273157829003601f168201915b5050505050815260200160028201805461276790613b3d565b80601f016020809104026020016040519081016040528092919081815260200182805461279390613b3d565b80156127e05780601f106127b5576101008083540402835291602001916127e0565b820191906000526020600020905b8154815290600101906020018083116127c357829003601f168201915b5050505050815260200160038201548152602001600482015481526020016005820154815260200160068201548152602001600782015481526020016008820160009054906101000a900460ff1660018111156128405761283f612fe4565b5b600181111561285257612851612fe4565b5b815250509080600a01805461286690613b3d565b80601f016020809104026020016040519081016040528092919081815260200182805461289290613b3d565b80156128df5780601f106128b4576101008083540402835291602001916128df565b820191906000526020600020905b8154815290600101906020018083116128c257829003601f168201915b50505050509080600b01549080600c0180546128fa90613b3d565b80601f016020809104026020016040519081016040528092919081815260200182805461292690613b3d565b80156129735780601f1061294857610100808354040283529160200191612973565b820191906000526020600020905b81548152906001019060200180831161295657829003601f168201915b50505050509080600d01549080600e01549080600f0160009054906101000a900473ffffffffffffffffffffffffffffffffffffffff169080600f0160149054906101000a900460ff16905089565b606060005b8351811015612ad557600060028111156129e4576129e3612fe4565b5b8482815181106129f7576129f6613adf565b5b602002602001015161010001516002811115612a1657612a15612fe4565b5b03612ac2576000848281518110612a3057612a2f613adf565b5b60200260200101516020015160e00151858381518110612a5357612a52613adf565b5b602002602001015160a00151612a69919061434b565b905080841115612ac0576001858381518110612a8857612a87613adf565b5b602002602001015161010001906002811115612aa757612aa6612fe4565b5b90816002811115612abb57612aba612fe4565b5b815250505b505b8080612acd90613b9d565b9150506129c7565b5082905092915050565b600260005403612b24576040517f08c379a0000000000000000000000000000000000000000000000000000000008152600401612b1b906143cb565b60405180910390fd5b6002600081905550565b606060006001612b3d84612c06565b01905060008167ffffffffffffffff811115612b5c57612b5b613553565b5b6040519080825280601f01601f191660200182016040528015612b8e5781602001600182028036833780820191505090505b509050600082602001820190505b600115612bf1578080600190039150507f3031323334353637383961626364656600000000000000000000000000000000600a86061a8153600a8581612be557612be46143eb565b5b04945060008503612b9c575b819350505050919050565b6001600081905550565b600080600090507a184f03e93ff9f4daa797ed6e38ed64bf6a1f0100000000000000008310612c64577a184f03e93ff9f4daa797ed6e38ed64bf6a1f0100000000000000008381612c5a57612c596143eb565b5b0492506040810190505b6d04ee2d6d415b85acef81000000008310612ca1576d04ee2d6d415b85acef81000000008381612c9757612c966143eb565b5b0492506020810190505b662386f26fc100008310612cd057662386f26fc100008381612cc657612cc56143eb565b5b0492506010810190505b6305f5e1008310612cf9576305f5e1008381612cef57612cee6143eb565b5b0492506008810190505b6127108310612d1e576127108381612d1457612d136143eb565b5b0492506004810190505b60648310612d415760648381612d3757612d366143eb565b5b0492506002810190505b600a8310612d50576001810190505b80915050919050565b60405180610120016040528060008152602001612d74612dd3565b81526020016060815260200160008152602001606081526020016000815260200160008152602001600073ffffffffffffffffffffffffffffffffffffffff16815260200160006002811115612dcd57612dcc612fe4565b5b81525090565b604051806101200160405280606081526020016060815260200160608152602001600081526020016000815260200160008152602001600081526020016000815260200160006001811115612e2b57612e2a612fe4565b5b81525090565b6000604051905090565b600080fd5b600080fd5b600073ffffffffffffffffffffffffffffffffffffffff82169050919050565b6000612e7082612e45565b9050919050565b612e8081612e65565b8114612e8b57600080fd5b50565b600081359050612e9d81612e77565b92915050565b6000819050919050565b612eb681612ea3565b8114612ec157600080fd5b50565b600081359050612ed381612ead565b92915050565b60008060408385031215612ef057612eef612e3b565b5b6000612efe85828601612e8e565b9250506020612f0f85828601612ec4565b9150509250929050565b600081519050919050565b600082825260208201905092915050565b6000819050602082019050919050565b612f4e81612ea3565b82525050565b600081519050919050565b600082825260208201905092915050565b60005b83811015612f8e578082015181840152602081019050612f73565b60008484015250505050565b6000601f19601f8301169050919050565b6000612fb682612f54565b612fc08185612f5f565b9350612fd0818560208601612f70565b612fd981612f9a565b840191505092915050565b7f4e487b7100000000000000000000000000000000000000000000000000000000600052602160045260246000fd5b6002811061302457613023612fe4565b5b50565b600081905061303582613013565b919050565b600061304582613027565b9050919050565b6130558161303a565b82525050565b60006101208301600083015184820360008601526130798282612fab565b915050602083015184820360208601526130938282612fab565b915050604083015184820360408601526130ad8282612fab565b91505060608301516130c26060860182612f45565b5060808301516130d56080860182612f45565b5060a08301516130e860a0860182612f45565b5060c08301516130fb60c0860182612f45565b5060e083015161310e60e0860182612f45565b5061010083015161312361010086018261304c565b508091505092915050565b61313781612e65565b82525050565b6003811061314e5761314d612fe4565b5b50565b600081905061315f8261313d565b919050565b600061316f82613151565b9050919050565b61317f81613164565b82525050565b60006101208301600083015161319e6000860182612f45565b50602083015184820360208601526131b6828261305b565b915050604083015184820360408601526131d08282612fab565b91505060608301516131e56060860182612f45565b50608083015184820360808601526131fd8282612fab565b91505060a083015161321260a0860182612f45565b5060c083015161322560c0860182612f45565b5060e083015161323860e086018261312e565b5061010083015161324d610100860182613176565b508091505092915050565b60006132648383613185565b905092915050565b6000602082019050919050565b600061328482612f19565b61328e8185612f24565b9350836020820285016132a085612f35565b8060005b858110156132dc57848403895281516132bd8582613258565b94506132c88361326c565b925060208a019950506001810190506132a4565b50829750879550505050505092915050565b600060208201905081810360008301526133088184613279565b905092915050565b60006020828403121561332657613325612e3b565b5b600061333484828501612ec4565b91505092915050565b61334681612ea3565b82525050565b6000602082019050613361600083018461333d565b92915050565b6000819050919050565b600061338c61338761338284612e45565b613367565b612e45565b9050919050565b600061339e82613371565b9050919050565b60006133b082613393565b9050919050565b6133c0816133a5565b82525050565b60006020820190506133db60008301846133b7565b92915050565b6133ea81612e65565b82525050565b600060208201905061340560008301846133e1565b92915050565b6000806040838503121561342257613421612e3b565b5b600061343085828601612ec4565b925050602061344185828601612e8e565b9150509250929050565b6000610120830160008301516134646000860182612f45565b506020830151848203602086015261347c828261305b565b915050604083015184820360408601526134968282612fab565b91505060608301516134ab6060860182612f45565b50608083015184820360808601526134c38282612fab565b91505060a08301516134d860a0860182612f45565b5060c08301516134eb60c0860182612f45565b5060e08301516134fe60e086018261312e565b50610100830151613513610100860182613176565b508091505092915050565b6000604082019050613533600083018561333d565b8181036020830152613545818461344b565b90509392505050565b600080fd5b7f4e487b7100000000000000000000000000000000000000000000000000000000600052604160045260246000fd5b61358b82612f9a565b810181811067ffffffffffffffff821117156135aa576135a9613553565b5b80604052505050565b60006135bd612e31565b90506135c98282613582565b919050565b600080fd5b600080fd5b600080fd5b600067ffffffffffffffff8211156135f8576135f7613553565b5b61360182612f9a565b9050602081019050919050565b82818337600083830152505050565b600061363061362b846135dd565b6135b3565b90508281526020810184848401111561364c5761364b6135d8565b5b61365784828561360e565b509392505050565b600082601f830112613674576136736135d3565b5b813561368484826020860161361d565b91505092915050565b6002811061369a57600080fd5b50565b6000813590506136ac8161368d565b92915050565b600061012082840312156136c9576136c861354e565b5b6136d46101206135b3565b9050600082013567ffffffffffffffff8111156136f4576136f36135ce565b5b6137008482850161365f565b600083015250602082013567ffffffffffffffff811115613724576137236135ce565b5b6137308482850161365f565b602083015250604082013567ffffffffffffffff811115613754576137536135ce565b5b6137608482850161365f565b604083015250606061377484828501612ec4565b606083015250608061378884828501612ec4565b60808301525060a061379c84828501612ec4565b60a08301525060c06137b084828501612ec4565b60c08301525060e06137c484828501612ec4565b60e0830152506101006137d98482850161369d565b6101008301525092915050565b600080600080600060a0868803121561380257613801612e3b565b5b600086013567ffffffffffffffff8111156138205761381f612e40565b5b61382c888289016136b2565b955050602086013567ffffffffffffffff81111561384d5761384c612e40565b5b6138598882890161365f565b945050604061386a88828901612ec4565b935050606086013567ffffffffffffffff81111561388b5761388a612e40565b5b6138978882890161365f565b92505060806138a888828901612e8e565b9150509295509295909350565b600080604083850312156138cc576138cb612e3b565b5b600083013567ffffffffffffffff8111156138ea576138e9612e40565b5b6138f68582860161365f565b925050602061390785828601612ec4565b9150509250929050565b600061012083016000830151848203600086015261392f8282612fab565b915050602083015184820360208601526139498282612fab565b915050604083015184820360408601526139638282612fab565b91505060608301516139786060860182612f45565b50608083015161398b6080860182612f45565b5060a083015161399e60a0860182612f45565b5060c08301516139b160c0860182612f45565b5060e08301516139c460e0860182612f45565b506101008301516139d961010086018261304c565b508091505092915050565b600082825260208201905092915050565b6000613a0082612f54565b613a0a81856139e4565b9350613a1a818560208601612f70565b613a2381612f9a565b840191505092915050565b613a3781613164565b82525050565b600061012082019050613a53600083018c61333d565b8181036020830152613a65818b613911565b90508181036040830152613a79818a6139f5565b9050613a88606083018961333d565b8181036080830152613a9a81886139f5565b9050613aa960a083018761333d565b613ab660c083018661333d565b613ac360e08301856133e1565b613ad1610100830184613a2e565b9a9950505050505050505050565b7f4e487b7100000000000000000000000000000000000000000000000000000000600052603260045260246000fd5b7f4e487b7100000000000000000000000000000000000000000000000000000000600052602260045260246000fd5b60006002820490506001821680613b5557607f821691505b602082108103613b6857613b67613b0e565b5b50919050565b7f4e487b7100000000000000000000000000000000000000000000000000000000600052601160045260246000fd5b6000613ba882612ea3565b91507fffffffffffffffffffffffffffffffffffffffffffffffffffffffffffffffff8203613bda57613bd9613b6e565b5b600182019050919050565b7f42616767616765506f6c6963793a20496e76616c696420706f6c696379204944600082015250565b6000613c1b6020836139e4565b9150613c2682613be5565b602082019050919050565b60006020820190508181036000830152613c4a81613c0e565b9050919050565b7f4e6f7420706f6c696379206f776e657200000000000000000000000000000000600082015250565b6000613c876010836139e4565b9150613c9282613c51565b602082019050919050565b60006020820190508181036000830152613cb681613c7a565b9050919050565b7f506f6c696379206e6f7420616374697665000000000000000000000000000000600082015250565b6000613cf36011836139e4565b9150613cfe82613cbd565b602082019050919050565b60006020820190508181036000830152613d2281613ce6565b9050919050565b60008190508160005260206000209050919050565b60008154613d4b81613b3d565b613d5581866139e4565b94506001821660008114613d705760018114613d8657613db9565b60ff198316865281151560200286019350613db9565b613d8f85613d29565b60005b83811015613db157815481890152600182019150602081019050613d92565b808801955050505b50505092915050565b60006060820190508181036000830152613ddc8186613d3e565b90508181036020830152613df081856139f5565b90508181036040830152613e048184613d3e565b9050949350505050565b60008115159050919050565b613e2381613e0e565b8114613e2e57600080fd5b50565b600081519050613e4081613e1a565b92915050565b60008060408385031215613e5d57613e5c612e3b565b5b6000613e6b85828601613e31565b9250506020613e7c85828601613e31565b9150509250929050565b6000819050919050565b6000613eab613ea6613ea184613e86565b613367565b612ea3565b9050919050565b613ebb81613e90565b82525050565b60038110613ed257613ed1612fe4565b5b50565b6000819050613ee382613ec1565b919050565b6000613ef382613ed5565b9050919050565b613f0381613ee8565b82525050565b6000608082019050613f1e600083018761333d565b613f2b60208301866133e1565b613f386040830185613eb2565b613f456060830184613efa565b95945050505050565b6000608082019050613f63600083018761333d565b613f7060208301866133e1565b613f7d604083018561333d565b613f8a6060830184613efa565b95945050505050565b7f506f6c6963792074656d706c617465206973206e6f7420616374697665000000600082015250565b6000613fc9601d836139e4565b9150613fd482613f93565b602082019050919050565b60006020820190508181036000830152613ff881613fbc565b9050919050565b60006020601f8301049050919050565b600082821b905092915050565b60006008830261404c7fffffffffffffffffffffffffffffffffffffffffffffffffffffffffffffffff8261400f565b614056868361400f565b95508019841693508086168417925050509392505050565b600061408961408461407f84612ea3565b613367565b612ea3565b9050919050565b6000819050919050565b6140a38361406e565b6140b76140af82614090565b84845461401c565b825550505050565b600090565b6140cc6140bf565b6140d781848461409a565b505050565b5b818110156140fb576140f06000826140c4565b6001810190506140dd565b5050565b601f8211156141405761411181613d29565b61411a84613fff565b81016020851015614129578190505b61413d61413585613fff565b8301826140dc565b50505b505050565b600082821c905092915050565b600061416360001984600802614145565b1980831691505092915050565b600061417c8383614152565b9150826002028217905092915050565b61419582612f54565b67ffffffffffffffff8111156141ae576141ad613553565b5b6141b88254613b3d565b6141c38282856140ff565b600060209050601f8311600181146141f657600084156141e4578287015190505b6141ee8582614170565b865550614256565b601f19841661420486613d29565b60005b8281101561422c57848901518255600182019150602085019450602081019050614207565b868310156142495784890151614245601f891682614152565b8355505b6001600288020188555050505b505050505050565b600081905092915050565b600061427482612f54565b61427e818561425e565b935061428e818560208601612f70565b80840191505092915050565b60006142a68284614269565b915081905092915050565b600081546142be81613b3d565b6142c8818661425e565b945060018216600081146142e357600181146142f85761432b565b60ff198316865281151582028601935061432b565b61430185613d29565b60005b8381101561432357815481890152600182019150602081019050614304565b838801955050505b50505092915050565b600061434082846142b1565b915081905092915050565b600061435682612ea3565b915061436183612ea3565b925082820190508082111561437957614378613b6e565b5b92915050565b7f5265656e7472616e637947756172643a207265656e7472616e742063616c6c00600082015250565b60006143b5601f836139e4565b91506143c08261437f565b602082019050919050565b600060208201905081810360008301526143e4816143a8565b9050919050565b7f4e487b7100000000000000000000000000000000000000000000000000000000600052601260045260246000fdfea26469706673582212209031766afe32b0eb69fb3486ea28166ee017f2933cd51ce5310c88a0308e8eaf64736f6c63430008130033",
  "linkReferences": {},
  "deployedLinkReferences": {}
}