{
  "_format": "hh-sol-artifact-1",
  "contractName": "BaggagePolicy",
  "sourceName": "contracts/BaggagePolicy.sol",
  "abi": [
    {
      "inputs": [
        {
          "internalType": "address",
          "name": "_oracleConnector",
          "type": "address"
        }
      ],
      "stateMutability": "nonpayable",
      "type": "constructor"
    },
    {
      "inputs": [],
      "name": "getAllPolicies",
      "outputs": [
        {
          "components": [
            {
              "internalType": "uint256",
              "name": "policyId",
              "type": "uint256"
            },
            {
              "components": [
                {
                  "internalType": "string",
                  "name": "templateId",
                  "type": "string"
                },
                {
                  "internalType": "string",
                  "name": "name",
                  "type": "string"
                },
                {
                  "internalType": "string",
                  "name": "description",
                  "type": "string"
                },
                {
                  "internalType": "uint256",
                  "name": "createdAt",
                  "type": "uint256"
                },
                {
                  "internalType": "uint256",
                  "name": "updatedAt",
                  "type": "uint256"
                },
                {
                  "internalType": "uint256",
                  "name": "premium",
                  "type": "uint256"
                },
                {
                  "internalType": "uint256",
                  "name": "payoutIfDelayed",
                  "type": "uint256"
                },
                {
                  "internalType": "uint256",
                  "name": "payoutIfLost",
                  "type": "uint256"
                },
                {
                  "internalType": "uint256",
                  "name": "maxTotalPayout",
                  "type": "uint256"
                },
                {
                  "internalType": "uint256",
                  "name": "coverageDurationDays",
                  "type": "uint256"
                },
                {
                  "internalType": "enum BaggagePolicy.PolicyTemplateStatus",
                  "name": "status",
                  "type": "uint8"
                }
              ],
              "internalType": "struct BaggagePolicy.PolicyTemplate",
              "name": "template",
              "type": "tuple"
            },
            {
              "internalType": "string",
              "name": "itemDescription",
              "type": "string"
            },
            {
              "internalType": "uint256",
              "name": "createdAt",
              "type": "uint256"
            },
            {
              "internalType": "uint256",
              "name": "payoutToDate",
              "type": "uint256"
            },
            {
              "internalType": "address",
              "name": "buyer",
              "type": "address"
            },
            {
              "internalType": "enum BaggagePolicy.PolicyStatus",
              "name": "status",
              "type": "uint8"
            }
          ],
          "internalType": "struct BaggagePolicy.UserPolicy[]",
          "name": "",
          "type": "tuple[]"
        }
      ],
      "stateMutability": "view",
      "type": "function"
    },
    {
      "inputs": [
        {
          "internalType": "address",
          "name": "user",
          "type": "address"
        }
      ],
      "name": "getUserPolicies",
      "outputs": [
        {
          "components": [
            {
              "internalType": "uint256",
              "name": "policyId",
              "type": "uint256"
            },
            {
              "components": [
                {
                  "internalType": "string",
                  "name": "templateId",
                  "type": "string"
                },
                {
                  "internalType": "string",
                  "name": "name",
                  "type": "string"
                },
                {
                  "internalType": "string",
                  "name": "description",
                  "type": "string"
                },
                {
                  "internalType": "uint256",
                  "name": "createdAt",
                  "type": "uint256"
                },
                {
                  "internalType": "uint256",
                  "name": "updatedAt",
                  "type": "uint256"
                },
                {
                  "internalType": "uint256",
                  "name": "premium",
                  "type": "uint256"
                },
                {
                  "internalType": "uint256",
                  "name": "payoutIfDelayed",
                  "type": "uint256"
                },
                {
                  "internalType": "uint256",
                  "name": "payoutIfLost",
                  "type": "uint256"
                },
                {
                  "internalType": "uint256",
                  "name": "maxTotalPayout",
                  "type": "uint256"
                },
                {
                  "internalType": "uint256",
                  "name": "coverageDurationDays",
                  "type": "uint256"
                },
                {
                  "internalType": "enum BaggagePolicy.PolicyTemplateStatus",
                  "name": "status",
                  "type": "uint8"
                }
              ],
              "internalType": "struct BaggagePolicy.PolicyTemplate",
              "name": "template",
              "type": "tuple"
            },
            {
              "internalType": "string",
              "name": "itemDescription",
              "type": "string"
            },
            {
              "internalType": "uint256",
              "name": "createdAt",
              "type": "uint256"
            },
            {
              "internalType": "uint256",
              "name": "payoutToDate",
              "type": "uint256"
            },
            {
              "internalType": "address",
              "name": "buyer",
              "type": "address"
            },
            {
              "internalType": "enum BaggagePolicy.PolicyStatus",
              "name": "status",
              "type": "uint8"
            }
          ],
          "internalType": "struct BaggagePolicy.UserPolicy[]",
          "name": "",
          "type": "tuple[]"
        }
      ],
      "stateMutability": "view",
      "type": "function"
    },
    {
      "inputs": [
        {
          "internalType": "string",
          "name": "templateId",
          "type": "string"
        }
      ],
      "name": "getUserPoliciesByTemplate",
      "outputs": [
        {
          "components": [
            {
              "internalType": "uint256",
              "name": "policyId",
              "type": "uint256"
            },
            {
              "components": [
                {
                  "internalType": "string",
                  "name": "templateId",
                  "type": "string"
                },
                {
                  "internalType": "string",
                  "name": "name",
                  "type": "string"
                },
                {
                  "internalType": "string",
                  "name": "description",
                  "type": "string"
                },
                {
                  "internalType": "uint256",
                  "name": "createdAt",
                  "type": "uint256"
                },
                {
                  "internalType": "uint256",
                  "name": "updatedAt",
                  "type": "uint256"
                },
                {
                  "internalType": "uint256",
                  "name": "premium",
                  "type": "uint256"
                },
                {
                  "internalType": "uint256",
                  "name": "payoutIfDelayed",
                  "type": "uint256"
                },
                {
                  "internalType": "uint256",
                  "name": "payoutIfLost",
                  "type": "uint256"
                },
                {
                  "internalType": "uint256",
                  "name": "maxTotalPayout",
                  "type": "uint256"
                },
                {
                  "internalType": "uint256",
                  "name": "coverageDurationDays",
                  "type": "uint256"
                },
                {
                  "internalType": "enum BaggagePolicy.PolicyTemplateStatus",
                  "name": "status",
                  "type": "uint8"
                }
              ],
              "internalType": "struct BaggagePolicy.PolicyTemplate",
              "name": "template",
              "type": "tuple"
            },
            {
              "internalType": "string",
              "name": "itemDescription",
              "type": "string"
            },
            {
              "internalType": "uint256",
              "name": "createdAt",
              "type": "uint256"
            },
            {
              "internalType": "uint256",
              "name": "payoutToDate",
              "type": "uint256"
            },
            {
              "internalType": "address",
              "name": "buyer",
              "type": "address"
            },
            {
              "internalType": "enum BaggagePolicy.PolicyStatus",
              "name": "status",
              "type": "uint8"
            }
          ],
          "internalType": "struct BaggagePolicy.UserPolicy[]",
          "name": "",
          "type": "tuple[]"
        }
      ],
      "stateMutability": "view",
      "type": "function"
    },
    {
      "inputs": [],
      "name": "insurerAddress",
      "outputs": [
        {
          "internalType": "address",
          "name": "",
          "type": "address"
        }
      ],
      "stateMutability": "view",
      "type": "function"
    },
    {
      "inputs": [
        {
          "internalType": "uint256",
          "name": "policyId",
          "type": "uint256"
        }
      ],
      "name": "markPolicyAsExpired",
      "outputs": [],
      "stateMutability": "nonpayable",
      "type": "function"
    },
    {
      "inputs": [],
      "name": "nextUserPolicyId",
      "outputs": [
        {
          "internalType": "uint256",
          "name": "",
          "type": "uint256"
        }
      ],
      "stateMutability": "view",
      "type": "function"
    },
    {
      "inputs": [],
      "name": "oracleConnector",
      "outputs": [
        {
          "internalType": "contract OracleConnector",
          "name": "",
          "type": "address"
        }
      ],
      "stateMutability": "view",
      "type": "function"
    },
    {
      "inputs": [
        {
          "components": [
            {
              "internalType": "string",
              "name": "templateId",
              "type": "string"
            },
            {
              "internalType": "string",
              "name": "name",
              "type": "string"
            },
            {
              "internalType": "string",
              "name": "description",
              "type": "string"
            },
            {
              "internalType": "uint256",
              "name": "createdAt",
              "type": "uint256"
            },
            {
              "internalType": "uint256",
              "name": "updatedAt",
              "type": "uint256"
            },
            {
              "internalType": "uint256",
              "name": "premium",
              "type": "uint256"
            },
            {
              "internalType": "uint256",
              "name": "payoutIfDelayed",
              "type": "uint256"
            },
            {
              "internalType": "uint256",
              "name": "payoutIfLost",
              "type": "uint256"
            },
            {
              "internalType": "uint256",
              "name": "maxTotalPayout",
              "type": "uint256"
            },
            {
              "internalType": "uint256",
              "name": "coverageDurationDays",
              "type": "uint256"
            },
            {
              "internalType": "enum BaggagePolicy.PolicyTemplateStatus",
              "name": "status",
              "type": "uint8"
            }
          ],
          "internalType": "struct BaggagePolicy.PolicyTemplate",
          "name": "template",
          "type": "tuple"
        },
        {
          "internalType": "string",
          "name": "itemDescription",
          "type": "string"
        },
        {
          "internalType": "address",
          "name": "buyer",
          "type": "address"
        }
      ],
      "name": "purchasePolicy",
      "outputs": [
        {
          "internalType": "uint256",
          "name": "",
          "type": "uint256"
        }
      ],
      "stateMutability": "payable",
      "type": "function"
    },
    {
      "inputs": [
        {
          "internalType": "uint256",
          "name": "",
          "type": "uint256"
        }
      ],
      "name": "userPolicies",
      "outputs": [
        {
          "internalType": "uint256",
          "name": "policyId",
          "type": "uint256"
        },
        {
          "components": [
            {
              "internalType": "string",
              "name": "templateId",
              "type": "string"
            },
            {
              "internalType": "string",
              "name": "name",
              "type": "string"
            },
            {
              "internalType": "string",
              "name": "description",
              "type": "string"
            },
            {
              "internalType": "uint256",
              "name": "createdAt",
              "type": "uint256"
            },
            {
              "internalType": "uint256",
              "name": "updatedAt",
              "type": "uint256"
            },
            {
              "internalType": "uint256",
              "name": "premium",
              "type": "uint256"
            },
            {
              "internalType": "uint256",
              "name": "payoutIfDelayed",
              "type": "uint256"
            },
            {
              "internalType": "uint256",
              "name": "payoutIfLost",
              "type": "uint256"
            },
            {
              "internalType": "uint256",
              "name": "maxTotalPayout",
              "type": "uint256"
            },
            {
              "internalType": "uint256",
              "name": "coverageDurationDays",
              "type": "uint256"
            },
            {
              "internalType": "enum BaggagePolicy.PolicyTemplateStatus",
              "name": "status",
              "type": "uint8"
            }
          ],
          "internalType": "struct BaggagePolicy.PolicyTemplate",
          "name": "template",
          "type": "tuple"
        },
        {
          "internalType": "string",
          "name": "itemDescription",
          "type": "string"
        },
        {
          "internalType": "uint256",
          "name": "createdAt",
          "type": "uint256"
        },
        {
          "internalType": "uint256",
          "name": "payoutToDate",
          "type": "uint256"
        },
        {
          "internalType": "address",
          "name": "buyer",
          "type": "address"
        },
        {
          "internalType": "enum BaggagePolicy.PolicyStatus",
          "name": "status",
          "type": "uint8"
        }
      ],
      "stateMutability": "view",
      "type": "function"
    },
    {
      "inputs": [
        {
          "internalType": "address",
          "name": "",
          "type": "address"
        },
        {
          "internalType": "uint256",
          "name": "",
          "type": "uint256"
        }
      ],
      "name": "userPolicyIds",
      "outputs": [
        {
          "internalType": "uint256",
          "name": "",
          "type": "uint256"
        }
      ],
      "stateMutability": "view",
      "type": "function"
    }
  ],
  "bytecode": "0x60a06040523480156200001157600080fd5b50604051620031eb380380620031eb833981810160405281019062000037919062000125565b60016000819055503373ffffffffffffffffffffffffffffffffffffffff1660808173ffffffffffffffffffffffffffffffffffffffff168152505080600160006101000a81548173ffffffffffffffffffffffffffffffffffffffff021916908373ffffffffffffffffffffffffffffffffffffffff1602179055505062000157565b600080fd5b600073ffffffffffffffffffffffffffffffffffffffff82169050919050565b6000620000ed82620000c0565b9050919050565b620000ff81620000e0565b81146200010b57600080fd5b50565b6000815190506200011f81620000f4565b92915050565b6000602082840312156200013e576200013d620000bb565b5b60006200014e848285016200010e565b91505092915050565b6080516130716200017a60003960008181611180015261159b01526130716000f3fe6080604052600436106100915760003560e01c8063a7c0900e11610059578063a7c0900e14610191578063b6e283e1146101bc578063cba85f06146101f9578063cf39c6241461023c578063e05161491461026557610091565b806319ac461414610096578063457e5521146100d35780637b956415146100fe5780639a9122ac146101295780639c6cf7ef14610154575b600080fd5b3480156100a257600080fd5b506100bd60048036038101906100b89190611d24565b610295565b6040516100ca919061212a565b60405180910390f35b3480156100df57600080fd5b506100e861078b565b6040516100f5919061212a565b60405180910390f35b34801561010a57600080fd5b50610113610be4565b604051610120919061215b565b60405180910390f35b34801561013557600080fd5b5061013e610bea565b60405161014b91906121d5565b60405180910390f35b34801561016057600080fd5b5061017b60048036038101906101769190612325565b610c10565b604051610188919061212a565b60405180910390f35b34801561019d57600080fd5b506101a661117e565b6040516101b3919061237d565b60405180910390f35b3480156101c857600080fd5b506101e360048036038101906101de91906123c4565b6111a2565b6040516101f0919061215b565b60405180910390f35b34801561020557600080fd5b50610220600480360381019061021b9190612404565b6111d3565b6040516102339796959493929190612587565b60405180910390f35b34801561024857600080fd5b50610263600480360381019061025e9190612404565b61150c565b005b61027f600480360381019061027a9190612793565b611798565b60405161028c919061215b565b60405180910390f35b60606000600360008473ffffffffffffffffffffffffffffffffffffffff1673ffffffffffffffffffffffffffffffffffffffff16815260200190815260200160002080549050905060008167ffffffffffffffff8111156102fa576102f96121fa565b5b60405190808252806020026020018201604052801561033357816020015b610320611bdb565b8152602001906001900390816103185790505b50905060005b828110156107785760026000600360008873ffffffffffffffffffffffffffffffffffffffff1673ffffffffffffffffffffffffffffffffffffffff16815260200190815260200160002083815481106103965761039561281e565b5b906000526020600020015481526020019081526020016000206040518060e00160405290816000820154815260200160018201604051806101600160405290816000820180546103e59061287c565b80601f01602080910402602001604051908101604052809291908181526020018280546104119061287c565b801561045e5780601f106104335761010080835404028352916020019161045e565b820191906000526020600020905b81548152906001019060200180831161044157829003601f168201915b505050505081526020016001820180546104779061287c565b80601f01602080910402602001604051908101604052809291908181526020018280546104a39061287c565b80156104f05780601f106104c5576101008083540402835291602001916104f0565b820191906000526020600020905b8154815290600101906020018083116104d357829003601f168201915b505050505081526020016002820180546105099061287c565b80601f01602080910402602001604051908101604052809291908181526020018280546105359061287c565b80156105825780601f1061055757610100808354040283529160200191610582565b820191906000526020600020905b81548152906001019060200180831161056557829003601f168201915b5050505050815260200160038201548152602001600482015481526020016005820154815260200160068201548152602001600782015481526020016008820154815260200160098201548152602001600a820160009054906101000a900460ff1660018111156105f6576105f5611e26565b5b600181111561060857610607611e26565b5b815250508152602001600c820180546106209061287c565b80601f016020809104026020016040519081016040528092919081815260200182805461064c9061287c565b80156106995780601f1061066e57610100808354040283529160200191610699565b820191906000526020600020905b81548152906001019060200180831161067c57829003601f168201915b50505050508152602001600d8201548152602001600e8201548152602001600f820160009054906101000a900473ffffffffffffffffffffffffffffffffffffffff1673ffffffffffffffffffffffffffffffffffffffff1673ffffffffffffffffffffffffffffffffffffffff168152602001600f820160149054906101000a900460ff16600281111561073157610730611e26565b5b600281111561074357610742611e26565b5b8152505082828151811061075a5761075961281e565b5b60200260200101819052508080610770906128dc565b915050610339565b5061078281611abc565b92505050919050565b60606000600454905060008167ffffffffffffffff8111156107b0576107af6121fa565b5b6040519080825280602002602001820160405280156107e957816020015b6107d6611bdb565b8152602001906001900390816107ce5790505b50905060005b82811015610bd357600260008281526020019081526020016000206040518060e00160405290816000820154815260200160018201604051806101600160405290816000820180546108409061287c565b80601f016020809104026020016040519081016040528092919081815260200182805461086c9061287c565b80156108b95780601f1061088e576101008083540402835291602001916108b9565b820191906000526020600020905b81548152906001019060200180831161089c57829003601f168201915b505050505081526020016001820180546108d29061287c565b80601f01602080910402602001604051908101604052809291908181526020018280546108fe9061287c565b801561094b5780601f106109205761010080835404028352916020019161094b565b820191906000526020600020905b81548152906001019060200180831161092e57829003601f168201915b505050505081526020016002820180546109649061287c565b80601f01602080910402602001604051908101604052809291908181526020018280546109909061287c565b80156109dd5780601f106109b2576101008083540402835291602001916109dd565b820191906000526020600020905b8154815290600101906020018083116109c057829003601f168201915b5050505050815260200160038201548152602001600482015481526020016005820154815260200160068201548152602001600782015481526020016008820154815260200160098201548152602001600a820160009054906101000a900460ff166001811115610a5157610a50611e26565b5b6001811115610a6357610a62611e26565b5b815250508152602001600c82018054610a7b9061287c565b80601f0160208091040260200160405190810160405280929190818152602001828054610aa79061287c565b8015610af45780601f10610ac957610100808354040283529160200191610af4565b820191906000526020600020905b815481529060010190602001808311610ad757829003601f168201915b50505050508152602001600d8201548152602001600e8201548152602001600f820160009054906101000a900473ffffffffffffffffffffffffffffffffffffffff1673ffffffffffffffffffffffffffffffffffffffff1673ffffffffffffffffffffffffffffffffffffffff168152602001600f820160149054906101000a900460ff166002811115610b8c57610b8b611e26565b5b6002811115610b9e57610b9d611e26565b5b81525050828281518110610bb557610bb461281e565b5b60200260200101819052508080610bcb906128dc565b9150506107ef565b50610bdd81611abc565b9250505090565b60045481565b600160009054906101000a900473ffffffffffffffffffffffffffffffffffffffff1681565b60606000805b600454811015610cad5783604051602001610c319190612960565b6040516020818303038152906040528051906020012060026000838152602001908152602001600020600101600001604051602001610c709190612a0f565b6040516020818303038152906040528051906020012003610c9a578180610c96906128dc565b9250505b8080610ca5906128dc565b915050610c16565b5060008167ffffffffffffffff811115610cca57610cc96121fa565b5b604051908082528060200260200182016040528015610d0357816020015b610cf0611bdb565b815260200190600190039081610ce85790505b5090506000805b60045481101561116a5785604051602001610d259190612960565b6040516020818303038152906040528051906020012060026000838152602001908152602001600020600101600001604051602001610d649190612a0f565b604051602081830303815290604052805190602001200361115757600260008281526020019081526020016000206040518060e0016040529081600082015481526020016001820160405180610160016040529081600082018054610dc89061287c565b80601f0160208091040260200160405190810160405280929190818152602001828054610df49061287c565b8015610e415780601f10610e1657610100808354040283529160200191610e41565b820191906000526020600020905b815481529060010190602001808311610e2457829003601f168201915b50505050508152602001600182018054610e5a9061287c565b80601f0160208091040260200160405190810160405280929190818152602001828054610e869061287c565b8015610ed35780601f10610ea857610100808354040283529160200191610ed3565b820191906000526020600020905b815481529060010190602001808311610eb657829003601f168201915b50505050508152602001600282018054610eec9061287c565b80601f0160208091040260200160405190810160405280929190818152602001828054610f189061287c565b8015610f655780601f10610f3a57610100808354040283529160200191610f65565b820191906000526020600020905b815481529060010190602001808311610f4857829003601f168201915b5050505050815260200160038201548152602001600482015481526020016005820154815260200160068201548152602001600782015481526020016008820154815260200160098201548152602001600a820160009054906101000a900460ff166001811115610fd957610fd8611e26565b5b6001811115610feb57610fea611e26565b5b815250508152602001600c820180546110039061287c565b80601f016020809104026020016040519081016040528092919081815260200182805461102f9061287c565b801561107c5780601f106110515761010080835404028352916020019161107c565b820191906000526020600020905b81548152906001019060200180831161105f57829003601f168201915b50505050508152602001600d8201548152602001600e8201548152602001600f820160009054906101000a900473ffffffffffffffffffffffffffffffffffffffff1673ffffffffffffffffffffffffffffffffffffffff1673ffffffffffffffffffffffffffffffffffffffff168152602001600f820160149054906101000a900460ff16600281111561111457611113611e26565b5b600281111561112657611125611e26565b5b8152505083838151811061113d5761113c61281e565b5b60200260200101819052508180611153906128dc565b9250505b8080611162906128dc565b915050610d0a565b5061117482611abc565b9350505050919050565b7f000000000000000000000000000000000000000000000000000000000000000081565b600360205281600052604060002081815481106111be57600080fd5b90600052602060002001600091509150505481565b6002602052806000526040600020600091509050806000015490806001016040518061016001604052908160008201805461120d9061287c565b80601f01602080910402602001604051908101604052809291908181526020018280546112399061287c565b80156112865780601f1061125b57610100808354040283529160200191611286565b820191906000526020600020905b81548152906001019060200180831161126957829003601f168201915b5050505050815260200160018201805461129f9061287c565b80601f01602080910402602001604051908101604052809291908181526020018280546112cb9061287c565b80156113185780601f106112ed57610100808354040283529160200191611318565b820191906000526020600020905b8154815290600101906020018083116112fb57829003601f168201915b505050505081526020016002820180546113319061287c565b80601f016020809104026020016040519081016040528092919081815260200182805461135d9061287c565b80156113aa5780601f1061137f576101008083540402835291602001916113aa565b820191906000526020600020905b81548152906001019060200180831161138d57829003601f168201915b5050505050815260200160038201548152602001600482015481526020016005820154815260200160068201548152602001600782015481526020016008820154815260200160098201548152602001600a820160009054906101000a900460ff16600181111561141e5761141d611e26565b5b60018111156114305761142f611e26565b5b815250509080600c0180546114449061287c565b80601f01602080910402602001604051908101604052809291908181526020018280546114709061287c565b80156114bd5780601f10611492576101008083540402835291602001916114bd565b820191906000526020600020905b8154815290600101906020018083116114a057829003601f168201915b50505050509080600d01549080600e01549080600f0160009054906101000a900473ffffffffffffffffffffffffffffffffffffffff169080600f0160149054906101000a900460ff16905087565b600080600281111561152157611520611e26565b5b600260006004548152602001908152602001600020600f0160149054906101000a900460ff16600281111561155957611558611e26565b5b14611599576040517f08c379a000000000000000000000000000000000000000000000000000000000815260040161159090612a98565b60405180910390fd5b7f000000000000000000000000000000000000000000000000000000000000000073ffffffffffffffffffffffffffffffffffffffff163273ffffffffffffffffffffffffffffffffffffffff1614611627576040517f08c379a000000000000000000000000000000000000000000000000000000000815260040161161e90612b2a565b60405180910390fd5b600454821061166b576040517f08c379a000000000000000000000000000000000000000000000000000000000815260040161166290612b96565b60405180910390fd5b60006002600084815260200190815260200160002090506000600281111561169657611695611e26565b5b81600f0160149054906101000a900460ff1660028111156116ba576116b9611e26565b5b146116fa576040517f08c379a00000000000000000000000000000000000000000000000000000000081526004016116f190612c02565b60405180910390fd5b60006201518082600101600901546117129190612c22565b82600d01546117219190612c64565b9050804211611765576040517f08c379a000000000000000000000000000000000000000000000000000000000815260040161175c90612ce4565b60405180910390fd5b600182600f0160146101000a81548160ff0219169083600281111561178d5761178c611e26565b5b021790555050505050565b60008060018111156117ad576117ac611e26565b5b84610140015160018111156117c5576117c4611e26565b5b14611805576040517f08c379a00000000000000000000000000000000000000000000000000000000081526004016117fc90612d50565b60405180910390fd5b8360a0015134101561184c576040517f08c379a000000000000000000000000000000000000000000000000000000000815260040161184390612dbc565b60405180910390fd5b600060046000815480929190611861906128dc565b9190505590506040518060e00160405280828152602001868152602001858152602001428152602001600081526020018473ffffffffffffffffffffffffffffffffffffffff168152602001600060028111156118c1576118c0611e26565b5b815250600260008381526020019081526020016000206000820151816000015560208201518160010160008201518160000190816118ff9190612f69565b5060208201518160010190816119159190612f69565b50604082015181600201908161192b9190612f69565b50606082015181600301556080820151816004015560a0820151816005015560c0820151816006015560e082015181600701556101008201518160080155610120820151816009015561014082015181600a0160006101000a81548160ff021916908360018111156119a05761199f611e26565b5b02179055505050604082015181600c0190816119bc9190612f69565b50606082015181600d0155608082015181600e015560a082015181600f0160006101000a81548173ffffffffffffffffffffffffffffffffffffffff021916908373ffffffffffffffffffffffffffffffffffffffff16021790555060c082015181600f0160146101000a81548160ff02191690836002811115611a4357611a42611e26565b5b0217905550905050600360008473ffffffffffffffffffffffffffffffffffffffff1673ffffffffffffffffffffffffffffffffffffffff168152602001908152602001600020819080600181540180825580915050600190039060005260206000200160009091909190915055809150509392505050565b606060005b8251811015611bd25760006002811115611ade57611add611e26565b5b838281518110611af157611af061281e565b5b602002602001015160c001516002811115611b0f57611b0e611e26565b5b03611bbf576000620151806002600084815260200190815260200160002060010160090154611b3e9190612c22565b848381518110611b5157611b5061281e565b5b602002602001015160600151611b679190612c64565b905080421115611bbd576001848381518110611b8657611b8561281e565b5b602002602001015160c001906002811115611ba457611ba3611e26565b5b90816002811115611bb857611bb7611e26565b5b815250505b505b8080611bca906128dc565b915050611ac1565b50819050919050565b6040518060e0016040528060008152602001611bf5611c46565b8152602001606081526020016000815260200160008152602001600073ffffffffffffffffffffffffffffffffffffffff16815260200160006002811115611c4057611c3f611e26565b5b81525090565b6040518061016001604052806060815260200160608152602001606081526020016000815260200160008152602001600081526020016000815260200160008152602001600081526020016000815260200160006001811115611cac57611cab611e26565b5b81525090565b6000604051905090565b600080fd5b600080fd5b600073ffffffffffffffffffffffffffffffffffffffff82169050919050565b6000611cf182611cc6565b9050919050565b611d0181611ce6565b8114611d0c57600080fd5b50565b600081359050611d1e81611cf8565b92915050565b600060208284031215611d3a57611d39611cbc565b5b6000611d4884828501611d0f565b91505092915050565b600081519050919050565b600082825260208201905092915050565b6000819050602082019050919050565b6000819050919050565b611d9081611d7d565b82525050565b600081519050919050565b600082825260208201905092915050565b60005b83811015611dd0578082015181840152602081019050611db5565b60008484015250505050565b6000601f19601f8301169050919050565b6000611df882611d96565b611e028185611da1565b9350611e12818560208601611db2565b611e1b81611ddc565b840191505092915050565b7f4e487b7100000000000000000000000000000000000000000000000000000000600052602160045260246000fd5b60028110611e6657611e65611e26565b5b50565b6000819050611e7782611e55565b919050565b6000611e8782611e69565b9050919050565b611e9781611e7c565b82525050565b6000610160830160008301518482036000860152611ebb8282611ded565b91505060208301518482036020860152611ed58282611ded565b91505060408301518482036040860152611eef8282611ded565b9150506060830151611f046060860182611d87565b506080830151611f176080860182611d87565b5060a0830151611f2a60a0860182611d87565b5060c0830151611f3d60c0860182611d87565b5060e0830151611f5060e0860182611d87565b50610100830151611f65610100860182611d87565b50610120830151611f7a610120860182611d87565b50610140830151611f8f610140860182611e8e565b508091505092915050565b611fa381611ce6565b82525050565b60038110611fba57611fb9611e26565b5b50565b6000819050611fcb82611fa9565b919050565b6000611fdb82611fbd565b9050919050565b611feb81611fd0565b82525050565b600060e0830160008301516120096000860182611d87565b50602083015184820360208601526120218282611e9d565b9150506040830151848203604086015261203b8282611ded565b91505060608301516120506060860182611d87565b5060808301516120636080860182611d87565b5060a083015161207660a0860182611f9a565b5060c083015161208960c0860182611fe2565b508091505092915050565b60006120a08383611ff1565b905092915050565b6000602082019050919050565b60006120c082611d51565b6120ca8185611d5c565b9350836020820285016120dc85611d6d565b8060005b8581101561211857848403895281516120f98582612094565b9450612104836120a8565b925060208a019950506001810190506120e0565b50829750879550505050505092915050565b6000602082019050818103600083015261214481846120b5565b905092915050565b61215581611d7d565b82525050565b6000602082019050612170600083018461214c565b92915050565b6000819050919050565b600061219b61219661219184611cc6565b612176565b611cc6565b9050919050565b60006121ad82612180565b9050919050565b60006121bf826121a2565b9050919050565b6121cf816121b4565b82525050565b60006020820190506121ea60008301846121c6565b92915050565b600080fd5b600080fd5b7f4e487b7100000000000000000000000000000000000000000000000000000000600052604160045260246000fd5b61223282611ddc565b810181811067ffffffffffffffff82111715612251576122506121fa565b5b80604052505050565b6000612264611cb2565b90506122708282612229565b919050565b600067ffffffffffffffff8211156122905761228f6121fa565b5b61229982611ddc565b9050602081019050919050565b82818337600083830152505050565b60006122c86122c384612275565b61225a565b9050828152602081018484840111156122e4576122e36121f5565b5b6122ef8482856122a6565b509392505050565b600082601f83011261230c5761230b6121f0565b5b813561231c8482602086016122b5565b91505092915050565b60006020828403121561233b5761233a611cbc565b5b600082013567ffffffffffffffff81111561235957612358611cc1565b5b612365848285016122f7565b91505092915050565b61237781611ce6565b82525050565b6000602082019050612392600083018461236e565b92915050565b6123a181611d7d565b81146123ac57600080fd5b50565b6000813590506123be81612398565b92915050565b600080604083850312156123db576123da611cbc565b5b60006123e985828601611d0f565b92505060206123fa858286016123af565b9150509250929050565b60006020828403121561241a57612419611cbc565b5b6000612428848285016123af565b91505092915050565b600061016083016000830151848203600086015261244f8282611ded565b915050602083015184820360208601526124698282611ded565b915050604083015184820360408601526124838282611ded565b91505060608301516124986060860182611d87565b5060808301516124ab6080860182611d87565b5060a08301516124be60a0860182611d87565b5060c08301516124d160c0860182611d87565b5060e08301516124e460e0860182611d87565b506101008301516124f9610100860182611d87565b5061012083015161250e610120860182611d87565b50610140830151612523610140860182611e8e565b508091505092915050565b600082825260208201905092915050565b600061254a82611d96565b612554818561252e565b9350612564818560208601611db2565b61256d81611ddc565b840191505092915050565b61258181611fd0565b82525050565b600060e08201905061259c600083018a61214c565b81810360208301526125ae8189612431565b905081810360408301526125c2818861253f565b90506125d1606083018761214c565b6125de608083018661214c565b6125eb60a083018561236e565b6125f860c0830184612578565b98975050505050505050565b600080fd5b600080fd5b6002811061261b57600080fd5b50565b60008135905061262d8161260e565b92915050565b6000610160828403121561264a57612649612604565b5b61265561016061225a565b9050600082013567ffffffffffffffff81111561267557612674612609565b5b612681848285016122f7565b600083015250602082013567ffffffffffffffff8111156126a5576126a4612609565b5b6126b1848285016122f7565b602083015250604082013567ffffffffffffffff8111156126d5576126d4612609565b5b6126e1848285016122f7565b60408301525060606126f5848285016123af565b6060830152506080612709848285016123af565b60808301525060a061271d848285016123af565b60a08301525060c0612731848285016123af565b60c08301525060e0612745848285016123af565b60e08301525061010061275a848285016123af565b61010083015250610120612770848285016123af565b610120830152506101406127868482850161261e565b6101408301525092915050565b6000806000606084860312156127ac576127ab611cbc565b5b600084013567ffffffffffffffff8111156127ca576127c9611cc1565b5b6127d686828701612633565b935050602084013567ffffffffffffffff8111156127f7576127f6611cc1565b5b612803868287016122f7565b925050604061281486828701611d0f565b9150509250925092565b7f4e487b7100000000000000000000000000000000000000000000000000000000600052603260045260246000fd5b7f4e487b7100000000000000000000000000000000000000000000000000000000600052602260045260246000fd5b6000600282049050600182168061289457607f821691505b6020821081036128a7576128a661284d565b5b50919050565b7f4e487b7100000000000000000000000000000000000000000000000000000000600052601160045260246000fd5b60006128e782611d7d565b91507fffffffffffffffffffffffffffffffffffffffffffffffffffffffffffffffff8203612919576129186128ad565b5b600182019050919050565b600081905092915050565b600061293a82611d96565b6129448185612924565b9350612954818560208601611db2565b80840191505092915050565b600061296c828461292f565b915081905092915050565b60008190508160005260206000209050919050565b600081546129998161287c565b6129a38186612924565b945060018216600081146129be57600181146129d357612a06565b60ff1983168652811515820286019350612a06565b6129dc85612977565b60005b838110156129fe578154818901526001820191506020810190506129df565b838801955050505b50505092915050565b6000612a1b828461298c565b915081905092915050565b7f42616767616765506f6c6963793a20506f6c696379206973206e6f7420696e2060008201527f74686520636f7272656374207374617475730000000000000000000000000000602082015250565b6000612a8260328361252e565b9150612a8d82612a26565b604082019050919050565b60006020820190508181036000830152612ab181612a75565b9050919050565b7f42616767616765506f6c6963793a204f6e6c792074686520696e73757265722060008201527f63616e2063616c6c20746869732066756e6374696f6e00000000000000000000602082015250565b6000612b1460368361252e565b9150612b1f82612ab8565b604082019050919050565b60006020820190508181036000830152612b4381612b07565b9050919050565b7f496e76616c696420706f6c696379496400000000000000000000000000000000600082015250565b6000612b8060108361252e565b9150612b8b82612b4a565b602082019050919050565b60006020820190508181036000830152612baf81612b73565b9050919050565b7f506f6c696379206973206e6f7420616374697665000000000000000000000000600082015250565b6000612bec60148361252e565b9150612bf782612bb6565b602082019050919050565b60006020820190508181036000830152612c1b81612bdf565b9050919050565b6000612c2d82611d7d565b9150612c3883611d7d565b9250828202612c4681611d7d565b91508282048414831517612c5d57612c5c6128ad565b5b5092915050565b6000612c6f82611d7d565b9150612c7a83611d7d565b9250828201905080821115612c9257612c916128ad565b5b92915050565b7f506f6c69637920686173206e6f74206578706972656420796574000000000000600082015250565b6000612cce601a8361252e565b9150612cd982612c98565b602082019050919050565b60006020820190508181036000830152612cfd81612cc1565b9050919050565b7f506f6c6963792074656d706c617465206973206e6f7420616374697665000000600082015250565b6000612d3a601d8361252e565b9150612d4582612d04565b602082019050919050565b60006020820190508181036000830152612d6981612d2d565b9050919050565b7f496e73756666696369656e74207072656d69756d2073656e7400000000000000600082015250565b6000612da660198361252e565b9150612db182612d70565b602082019050919050565b60006020820190508181036000830152612dd581612d99565b9050919050565b60006020601f8301049050919050565b600082821b905092915050565b600060088302612e297fffffffffffffffffffffffffffffffffffffffffffffffffffffffffffffffff82612dec565b612e338683612dec565b95508019841693508086168417925050509392505050565b6000612e66612e61612e5c84611d7d565b612176565b611d7d565b9050919050565b6000819050919050565b612e8083612e4b565b612e94612e8c82612e6d565b848454612df9565b825550505050565b600090565b612ea9612e9c565b612eb4818484612e77565b505050565b5b81811015612ed857612ecd600082612ea1565b600181019050612eba565b5050565b601f821115612f1d57612eee81612977565b612ef784612ddc565b81016020851015612f06578190505b612f1a612f1285612ddc565b830182612eb9565b50505b505050565b600082821c905092915050565b6000612f4060001984600802612f22565b1980831691505092915050565b6000612f598383612f2f565b9150826002028217905092915050565b612f7282611d96565b67ffffffffffffffff811115612f8b57612f8a6121fa565b5b612f95825461287c565b612fa0828285612edc565b600060209050601f831160018114612fd35760008415612fc1578287015190505b612fcb8582612f4d565b865550613033565b601f198416612fe186612977565b60005b8281101561300957848901518255600182019150602085019450602081019050612fe4565b868310156130265784890151613022601f891682612f2f565b8355505b6001600288020188555050505b50505050505056fea2646970667358221220c34a951b4b6ab4a00185139a4661831164ac86ea94e7b62b457b8f06e2314c9464736f6c63430008130033",
  "linkReferences": {},
  "deployedLinkReferences": {}
}