{
  "_format": "hh-sol-artifact-1",
  "contractName": "BaggagePolicy",
  "sourceName": "contracts/BaggagePolicy.sol",
  "abi": [
    {
      "inputs": [
        {
          "internalType": "address",
          "name": "_oracleConnector",
          "type": "address"
        }
      ],
      "stateMutability": "nonpayable",
      "type": "constructor"
    },
    {
      "inputs": [],
      "name": "getAllPolicies",
      "outputs": [
        {
          "components": [
            {
              "internalType": "uint256",
              "name": "policyId",
              "type": "uint256"
            },
            {
              "components": [
                {
                  "internalType": "string",
                  "name": "templateId",
                  "type": "string"
                },
                {
                  "internalType": "string",
                  "name": "name",
                  "type": "string"
                },
                {
                  "internalType": "string",
                  "name": "description",
                  "type": "string"
                },
                {
                  "internalType": "uint256",
                  "name": "createdAt",
                  "type": "uint256"
                },
                {
                  "internalType": "uint256",
                  "name": "updatedAt",
                  "type": "uint256"
                },
                {
                  "internalType": "uint256",
                  "name": "premium",
                  "type": "uint256"
                },
                {
                  "internalType": "uint256",
                  "name": "payoutIfDelayed",
                  "type": "uint256"
                },
                {
                  "internalType": "uint256",
                  "name": "payoutIfLost",
                  "type": "uint256"
                },
                {
                  "internalType": "uint256",
                  "name": "maxTotalPayout",
                  "type": "uint256"
                },
                {
                  "internalType": "uint256",
                  "name": "coverageDurationDays",
                  "type": "uint256"
                },
                {
                  "internalType": "enum BaggagePolicy.PolicyTemplateStatus",
                  "name": "status",
                  "type": "uint8"
                }
              ],
              "internalType": "struct BaggagePolicy.PolicyTemplate",
              "name": "template",
              "type": "tuple"
            },
            {
              "internalType": "string",
              "name": "itemDescription",
              "type": "string"
            },
            {
              "internalType": "uint256",
              "name": "createdAt",
              "type": "uint256"
            },
            {
              "internalType": "uint256",
              "name": "payoutToDate",
              "type": "uint256"
            },
            {
              "internalType": "address",
              "name": "buyer",
              "type": "address"
            },
            {
              "internalType": "enum BaggagePolicy.PolicyStatus",
              "name": "status",
              "type": "uint8"
            }
          ],
          "internalType": "struct BaggagePolicy.UserPolicy[]",
          "name": "",
          "type": "tuple[]"
        }
      ],
      "stateMutability": "view",
      "type": "function"
    },
    {
      "inputs": [
        {
          "internalType": "address",
          "name": "user",
          "type": "address"
        }
      ],
      "name": "getUserPolicies",
      "outputs": [
        {
          "components": [
            {
              "internalType": "uint256",
              "name": "policyId",
              "type": "uint256"
            },
            {
              "components": [
                {
                  "internalType": "string",
                  "name": "templateId",
                  "type": "string"
                },
                {
                  "internalType": "string",
                  "name": "name",
                  "type": "string"
                },
                {
                  "internalType": "string",
                  "name": "description",
                  "type": "string"
                },
                {
                  "internalType": "uint256",
                  "name": "createdAt",
                  "type": "uint256"
                },
                {
                  "internalType": "uint256",
                  "name": "updatedAt",
                  "type": "uint256"
                },
                {
                  "internalType": "uint256",
                  "name": "premium",
                  "type": "uint256"
                },
                {
                  "internalType": "uint256",
                  "name": "payoutIfDelayed",
                  "type": "uint256"
                },
                {
                  "internalType": "uint256",
                  "name": "payoutIfLost",
                  "type": "uint256"
                },
                {
                  "internalType": "uint256",
                  "name": "maxTotalPayout",
                  "type": "uint256"
                },
                {
                  "internalType": "uint256",
                  "name": "coverageDurationDays",
                  "type": "uint256"
                },
                {
                  "internalType": "enum BaggagePolicy.PolicyTemplateStatus",
                  "name": "status",
                  "type": "uint8"
                }
              ],
              "internalType": "struct BaggagePolicy.PolicyTemplate",
              "name": "template",
              "type": "tuple"
            },
            {
              "internalType": "string",
              "name": "itemDescription",
              "type": "string"
            },
            {
              "internalType": "uint256",
              "name": "createdAt",
              "type": "uint256"
            },
            {
              "internalType": "uint256",
              "name": "payoutToDate",
              "type": "uint256"
            },
            {
              "internalType": "address",
              "name": "buyer",
              "type": "address"
            },
            {
              "internalType": "enum BaggagePolicy.PolicyStatus",
              "name": "status",
              "type": "uint8"
            }
          ],
          "internalType": "struct BaggagePolicy.UserPolicy[]",
          "name": "",
          "type": "tuple[]"
        }
      ],
      "stateMutability": "view",
      "type": "function"
    },
    {
      "inputs": [
        {
          "internalType": "string",
          "name": "templateId",
          "type": "string"
        }
      ],
      "name": "getUserPoliciesByTemplate",
      "outputs": [
        {
          "components": [
            {
              "internalType": "uint256",
              "name": "policyId",
              "type": "uint256"
            },
            {
              "components": [
                {
                  "internalType": "string",
                  "name": "templateId",
                  "type": "string"
                },
                {
                  "internalType": "string",
                  "name": "name",
                  "type": "string"
                },
                {
                  "internalType": "string",
                  "name": "description",
                  "type": "string"
                },
                {
                  "internalType": "uint256",
                  "name": "createdAt",
                  "type": "uint256"
                },
                {
                  "internalType": "uint256",
                  "name": "updatedAt",
                  "type": "uint256"
                },
                {
                  "internalType": "uint256",
                  "name": "premium",
                  "type": "uint256"
                },
                {
                  "internalType": "uint256",
                  "name": "payoutIfDelayed",
                  "type": "uint256"
                },
                {
                  "internalType": "uint256",
                  "name": "payoutIfLost",
                  "type": "uint256"
                },
                {
                  "internalType": "uint256",
                  "name": "maxTotalPayout",
                  "type": "uint256"
                },
                {
                  "internalType": "uint256",
                  "name": "coverageDurationDays",
                  "type": "uint256"
                },
                {
                  "internalType": "enum BaggagePolicy.PolicyTemplateStatus",
                  "name": "status",
                  "type": "uint8"
                }
              ],
              "internalType": "struct BaggagePolicy.PolicyTemplate",
              "name": "template",
              "type": "tuple"
            },
            {
              "internalType": "string",
              "name": "itemDescription",
              "type": "string"
            },
            {
              "internalType": "uint256",
              "name": "createdAt",
              "type": "uint256"
            },
            {
              "internalType": "uint256",
              "name": "payoutToDate",
              "type": "uint256"
            },
            {
              "internalType": "address",
              "name": "buyer",
              "type": "address"
            },
            {
              "internalType": "enum BaggagePolicy.PolicyStatus",
              "name": "status",
              "type": "uint8"
            }
          ],
          "internalType": "struct BaggagePolicy.UserPolicy[]",
          "name": "",
          "type": "tuple[]"
        }
      ],
      "stateMutability": "view",
      "type": "function"
    },
    {
      "inputs": [],
      "name": "insurerAddress",
      "outputs": [
        {
          "internalType": "address",
          "name": "",
          "type": "address"
        }
      ],
      "stateMutability": "view",
      "type": "function"
    },
    {
      "inputs": [
        {
          "internalType": "uint256",
          "name": "policyId",
          "type": "uint256"
        }
      ],
      "name": "markPolicyAsExpired",
      "outputs": [],
      "stateMutability": "nonpayable",
      "type": "function"
    },
    {
      "inputs": [],
      "name": "nextUserPolicyId",
      "outputs": [
        {
          "internalType": "uint256",
          "name": "",
          "type": "uint256"
        }
      ],
      "stateMutability": "view",
      "type": "function"
    },
    {
      "inputs": [],
      "name": "oracleConnector",
      "outputs": [
        {
          "internalType": "contract OracleConnector",
          "name": "",
          "type": "address"
        }
      ],
      "stateMutability": "view",
      "type": "function"
    },
    {
      "inputs": [
        {
          "components": [
            {
              "internalType": "string",
              "name": "templateId",
              "type": "string"
            },
            {
              "internalType": "string",
              "name": "name",
              "type": "string"
            },
            {
              "internalType": "string",
              "name": "description",
              "type": "string"
            },
            {
              "internalType": "uint256",
              "name": "createdAt",
              "type": "uint256"
            },
            {
              "internalType": "uint256",
              "name": "updatedAt",
              "type": "uint256"
            },
            {
              "internalType": "uint256",
              "name": "premium",
              "type": "uint256"
            },
            {
              "internalType": "uint256",
              "name": "payoutIfDelayed",
              "type": "uint256"
            },
            {
              "internalType": "uint256",
              "name": "payoutIfLost",
              "type": "uint256"
            },
            {
              "internalType": "uint256",
              "name": "maxTotalPayout",
              "type": "uint256"
            },
            {
              "internalType": "uint256",
              "name": "coverageDurationDays",
              "type": "uint256"
            },
            {
              "internalType": "enum BaggagePolicy.PolicyTemplateStatus",
              "name": "status",
              "type": "uint8"
            }
          ],
          "internalType": "struct BaggagePolicy.PolicyTemplate",
          "name": "template",
          "type": "tuple"
        },
        {
          "internalType": "string",
          "name": "itemDescription",
          "type": "string"
        },
        {
          "internalType": "address",
          "name": "buyer",
          "type": "address"
        }
      ],
      "name": "purchasePolicy",
      "outputs": [
        {
          "internalType": "uint256",
          "name": "",
          "type": "uint256"
        }
      ],
      "stateMutability": "payable",
      "type": "function"
    },
    {
      "inputs": [
        {
          "internalType": "uint256",
          "name": "",
          "type": "uint256"
        }
      ],
      "name": "userPolicies",
      "outputs": [
        {
          "internalType": "uint256",
          "name": "policyId",
          "type": "uint256"
        },
        {
          "components": [
            {
              "internalType": "string",
              "name": "templateId",
              "type": "string"
            },
            {
              "internalType": "string",
              "name": "name",
              "type": "string"
            },
            {
              "internalType": "string",
              "name": "description",
              "type": "string"
            },
            {
              "internalType": "uint256",
              "name": "createdAt",
              "type": "uint256"
            },
            {
              "internalType": "uint256",
              "name": "updatedAt",
              "type": "uint256"
            },
            {
              "internalType": "uint256",
              "name": "premium",
              "type": "uint256"
            },
            {
              "internalType": "uint256",
              "name": "payoutIfDelayed",
              "type": "uint256"
            },
            {
              "internalType": "uint256",
              "name": "payoutIfLost",
              "type": "uint256"
            },
            {
              "internalType": "uint256",
              "name": "maxTotalPayout",
              "type": "uint256"
            },
            {
              "internalType": "uint256",
              "name": "coverageDurationDays",
              "type": "uint256"
            },
            {
              "internalType": "enum BaggagePolicy.PolicyTemplateStatus",
              "name": "status",
              "type": "uint8"
            }
          ],
          "internalType": "struct BaggagePolicy.PolicyTemplate",
          "name": "template",
          "type": "tuple"
        },
        {
          "internalType": "string",
          "name": "itemDescription",
          "type": "string"
        },
        {
          "internalType": "uint256",
          "name": "createdAt",
          "type": "uint256"
        },
        {
          "internalType": "uint256",
          "name": "payoutToDate",
          "type": "uint256"
        },
        {
          "internalType": "address",
          "name": "buyer",
          "type": "address"
        },
        {
          "internalType": "enum BaggagePolicy.PolicyStatus",
          "name": "status",
          "type": "uint8"
        }
      ],
      "stateMutability": "view",
      "type": "function"
    },
    {
      "inputs": [
        {
          "internalType": "address",
          "name": "",
          "type": "address"
        },
        {
          "internalType": "uint256",
          "name": "",
          "type": "uint256"
        }
      ],
      "name": "userPolicyIds",
      "outputs": [
        {
          "internalType": "uint256",
          "name": "",
          "type": "uint256"
        }
      ],
      "stateMutability": "view",
      "type": "function"
    }
  ],
  "bytecode": "0x60a06040523480156200001157600080fd5b506040516200302938038062003029833981810160405281019062000037919062000125565b60016000819055503373ffffffffffffffffffffffffffffffffffffffff1660808173ffffffffffffffffffffffffffffffffffffffff168152505080600160006101000a81548173ffffffffffffffffffffffffffffffffffffffff021916908373ffffffffffffffffffffffffffffffffffffffff1602179055505062000157565b600080fd5b600073ffffffffffffffffffffffffffffffffffffffff82169050919050565b6000620000ed82620000c0565b9050919050565b620000ff81620000e0565b81146200010b57600080fd5b50565b6000815190506200011f81620000f4565b92915050565b6000602082840312156200013e576200013d620000bb565b5b60006200014e848285016200010e565b91505092915050565b608051612ea86200018160003960008181610787015281816111f601526115840152612ea86000f3fe6080604052600436106100915760003560e01c8063a7c0900e11610059578063a7c0900e14610191578063b6e283e1146101bc578063cba85f06146101f9578063cf39c6241461023c578063e05161491461026557610091565b806319ac461414610096578063457e5521146100d35780637b956415146100fe5780639a9122ac146101295780639c6cf7ef14610154575b600080fd5b3480156100a257600080fd5b506100bd60048036038101906100b89190611bed565b610295565b6040516100ca9190611ff3565b60405180910390f35b3480156100df57600080fd5b506100e8610783565b6040516100f59190611ff3565b60405180910390f35b34801561010a57600080fd5b50610113610c62565b6040516101209190612024565b60405180910390f35b34801561013557600080fd5b5061013e610c68565b60405161014b919061209e565b60405180910390f35b34801561016057600080fd5b5061017b600480360381019061017691906121ee565b610c8e565b6040516101889190611ff3565b60405180910390f35b34801561019d57600080fd5b506101a66111f4565b6040516101b39190612246565b60405180910390f35b3480156101c857600080fd5b506101e360048036038101906101de919061228d565b611218565b6040516101f09190612024565b60405180910390f35b34801561020557600080fd5b50610220600480360381019061021b91906122cd565b611249565b6040516102339796959493929190612450565b60405180910390f35b34801561024857600080fd5b50610263600480360381019061025e91906122cd565b611582565b005b61027f600480360381019061027a919061265c565b611780565b60405161028c9190612024565b60405180910390f35b60606000600360008473ffffffffffffffffffffffffffffffffffffffff1673ffffffffffffffffffffffffffffffffffffffff16815260200190815260200160002080549050905060008167ffffffffffffffff8111156102fa576102f96120c3565b5b60405190808252806020026020018201604052801561033357816020015b610320611aa4565b8152602001906001900390816103185790505b50905060005b828110156107785760026000600360008873ffffffffffffffffffffffffffffffffffffffff1673ffffffffffffffffffffffffffffffffffffffff1681526020019081526020016000208381548110610396576103956126e7565b5b906000526020600020015481526020019081526020016000206040518060e00160405290816000820154815260200160018201604051806101600160405290816000820180546103e590612745565b80601f016020809104026020016040519081016040528092919081815260200182805461041190612745565b801561045e5780601f106104335761010080835404028352916020019161045e565b820191906000526020600020905b81548152906001019060200180831161044157829003601f168201915b5050505050815260200160018201805461047790612745565b80601f01602080910402602001604051908101604052809291908181526020018280546104a390612745565b80156104f05780601f106104c5576101008083540402835291602001916104f0565b820191906000526020600020905b8154815290600101906020018083116104d357829003601f168201915b5050505050815260200160028201805461050990612745565b80601f016020809104026020016040519081016040528092919081815260200182805461053590612745565b80156105825780601f1061055757610100808354040283529160200191610582565b820191906000526020600020905b81548152906001019060200180831161056557829003601f168201915b5050505050815260200160038201548152602001600482015481526020016005820154815260200160068201548152602001600782015481526020016008820154815260200160098201548152602001600a820160009054906101000a900460ff1660018111156105f6576105f5611cef565b5b600181111561060857610607611cef565b5b815250508152602001600c8201805461062090612745565b80601f016020809104026020016040519081016040528092919081815260200182805461064c90612745565b80156106995780601f1061066e57610100808354040283529160200191610699565b820191906000526020600020905b81548152906001019060200180831161067c57829003601f168201915b50505050508152602001600d8201548152602001600e8201548152602001600f820160009054906101000a900473ffffffffffffffffffffffffffffffffffffffff1673ffffffffffffffffffffffffffffffffffffffff1673ffffffffffffffffffffffffffffffffffffffff168152602001600f820160149054906101000a900460ff16600281111561073157610730611cef565b5b600281111561074357610742611cef565b5b8152505082828151811061075a576107596126e7565b5b60200260200101819052508080610770906127a5565b915050610339565b508092505050919050565b60607f000000000000000000000000000000000000000000000000000000000000000073ffffffffffffffffffffffffffffffffffffffff163273ffffffffffffffffffffffffffffffffffffffff1614610813576040517f08c379a000000000000000000000000000000000000000000000000000000000815260040161080a9061285f565b60405180910390fd5b6000600454905060008167ffffffffffffffff811115610836576108356120c3565b5b60405190808252806020026020018201604052801561086f57816020015b61085c611aa4565b8152602001906001900390816108545790505b50905060005b82811015610c5957600260008281526020019081526020016000206040518060e00160405290816000820154815260200160018201604051806101600160405290816000820180546108c690612745565b80601f01602080910402602001604051908101604052809291908181526020018280546108f290612745565b801561093f5780601f106109145761010080835404028352916020019161093f565b820191906000526020600020905b81548152906001019060200180831161092257829003601f168201915b5050505050815260200160018201805461095890612745565b80601f016020809104026020016040519081016040528092919081815260200182805461098490612745565b80156109d15780601f106109a6576101008083540402835291602001916109d1565b820191906000526020600020905b8154815290600101906020018083116109b457829003601f168201915b505050505081526020016002820180546109ea90612745565b80601f0160208091040260200160405190810160405280929190818152602001828054610a1690612745565b8015610a635780601f10610a3857610100808354040283529160200191610a63565b820191906000526020600020905b815481529060010190602001808311610a4657829003601f168201915b5050505050815260200160038201548152602001600482015481526020016005820154815260200160068201548152602001600782015481526020016008820154815260200160098201548152602001600a820160009054906101000a900460ff166001811115610ad757610ad6611cef565b5b6001811115610ae957610ae8611cef565b5b815250508152602001600c82018054610b0190612745565b80601f0160208091040260200160405190810160405280929190818152602001828054610b2d90612745565b8015610b7a5780601f10610b4f57610100808354040283529160200191610b7a565b820191906000526020600020905b815481529060010190602001808311610b5d57829003601f168201915b50505050508152602001600d8201548152602001600e8201548152602001600f820160009054906101000a900473ffffffffffffffffffffffffffffffffffffffff1673ffffffffffffffffffffffffffffffffffffffff1673ffffffffffffffffffffffffffffffffffffffff168152602001600f820160149054906101000a900460ff166002811115610c1257610c11611cef565b5b6002811115610c2457610c23611cef565b5b81525050828281518110610c3b57610c3a6126e7565b5b60200260200101819052508080610c51906127a5565b915050610875565b50809250505090565b60045481565b600160009054906101000a900473ffffffffffffffffffffffffffffffffffffffff1681565b60606000805b600454811015610d2b5783604051602001610caf91906128bb565b6040516020818303038152906040528051906020012060026000838152602001908152602001600020600101600001604051602001610cee919061296a565b6040516020818303038152906040528051906020012003610d18578180610d14906127a5565b9250505b8080610d23906127a5565b915050610c94565b5060008167ffffffffffffffff811115610d4857610d476120c3565b5b604051908082528060200260200182016040528015610d8157816020015b610d6e611aa4565b815260200190600190039081610d665790505b5090506000805b6004548110156111e85785604051602001610da391906128bb565b6040516020818303038152906040528051906020012060026000838152602001908152602001600020600101600001604051602001610de2919061296a565b60405160208183030381529060405280519060200120036111d557600260008281526020019081526020016000206040518060e0016040529081600082015481526020016001820160405180610160016040529081600082018054610e4690612745565b80601f0160208091040260200160405190810160405280929190818152602001828054610e7290612745565b8015610ebf5780601f10610e9457610100808354040283529160200191610ebf565b820191906000526020600020905b815481529060010190602001808311610ea257829003601f168201915b50505050508152602001600182018054610ed890612745565b80601f0160208091040260200160405190810160405280929190818152602001828054610f0490612745565b8015610f515780601f10610f2657610100808354040283529160200191610f51565b820191906000526020600020905b815481529060010190602001808311610f3457829003601f168201915b50505050508152602001600282018054610f6a90612745565b80601f0160208091040260200160405190810160405280929190818152602001828054610f9690612745565b8015610fe35780601f10610fb857610100808354040283529160200191610fe3565b820191906000526020600020905b815481529060010190602001808311610fc657829003601f168201915b5050505050815260200160038201548152602001600482015481526020016005820154815260200160068201548152602001600782015481526020016008820154815260200160098201548152602001600a820160009054906101000a900460ff16600181111561105757611056611cef565b5b600181111561106957611068611cef565b5b815250508152602001600c8201805461108190612745565b80601f01602080910402602001604051908101604052809291908181526020018280546110ad90612745565b80156110fa5780601f106110cf576101008083540402835291602001916110fa565b820191906000526020600020905b8154815290600101906020018083116110dd57829003601f168201915b50505050508152602001600d8201548152602001600e8201548152602001600f820160009054906101000a900473ffffffffffffffffffffffffffffffffffffffff1673ffffffffffffffffffffffffffffffffffffffff1673ffffffffffffffffffffffffffffffffffffffff168152602001600f820160149054906101000a900460ff16600281111561119257611191611cef565b5b60028111156111a4576111a3611cef565b5b815250508383815181106111bb576111ba6126e7565b5b602002602001018190525081806111d1906127a5565b9250505b80806111e0906127a5565b915050610d88565b50819350505050919050565b7f000000000000000000000000000000000000000000000000000000000000000081565b6003602052816000526040600020818154811061123457600080fd5b90600052602060002001600091509150505481565b6002602052806000526040600020600091509050806000015490806001016040518061016001604052908160008201805461128390612745565b80601f01602080910402602001604051908101604052809291908181526020018280546112af90612745565b80156112fc5780601f106112d1576101008083540402835291602001916112fc565b820191906000526020600020905b8154815290600101906020018083116112df57829003601f168201915b5050505050815260200160018201805461131590612745565b80601f016020809104026020016040519081016040528092919081815260200182805461134190612745565b801561138e5780601f106113635761010080835404028352916020019161138e565b820191906000526020600020905b81548152906001019060200180831161137157829003601f168201915b505050505081526020016002820180546113a790612745565b80601f01602080910402602001604051908101604052809291908181526020018280546113d390612745565b80156114205780601f106113f557610100808354040283529160200191611420565b820191906000526020600020905b81548152906001019060200180831161140357829003601f168201915b5050505050815260200160038201548152602001600482015481526020016005820154815260200160068201548152602001600782015481526020016008820154815260200160098201548152602001600a820160009054906101000a900460ff16600181111561149457611493611cef565b5b60018111156114a6576114a5611cef565b5b815250509080600c0180546114ba90612745565b80601f01602080910402602001604051908101604052809291908181526020018280546114e690612745565b80156115335780601f1061150857610100808354040283529160200191611533565b820191906000526020600020905b81548152906001019060200180831161151657829003601f168201915b50505050509080600d01549080600e01549080600f0160009054906101000a900473ffffffffffffffffffffffffffffffffffffffff169080600f0160149054906101000a900460ff16905087565b7f000000000000000000000000000000000000000000000000000000000000000073ffffffffffffffffffffffffffffffffffffffff163273ffffffffffffffffffffffffffffffffffffffff1614611610576040517f08c379a00000000000000000000000000000000000000000000000000000000081526004016116079061285f565b60405180910390fd5b6004548110611654576040517f08c379a000000000000000000000000000000000000000000000000000000000815260040161164b906129cd565b60405180910390fd5b60006002600083815260200190815260200160002090506000600281111561167f5761167e611cef565b5b81600f0160149054906101000a900460ff1660028111156116a3576116a2611cef565b5b146116e3576040517f08c379a00000000000000000000000000000000000000000000000000000000081526004016116da90612a39565b60405180910390fd5b60006201518082600101600901546116fb9190612a59565b82600d015461170a9190612a9b565b905080421161174e576040517f08c379a000000000000000000000000000000000000000000000000000000000815260040161174590612b1b565b60405180910390fd5b600182600f0160146101000a81548160ff0219169083600281111561177657611775611cef565b5b0217905550505050565b600080600181111561179557611794611cef565b5b84610140015160018111156117ad576117ac611cef565b5b146117ed576040517f08c379a00000000000000000000000000000000000000000000000000000000081526004016117e490612b87565b60405180910390fd5b8360a00151341015611834576040517f08c379a000000000000000000000000000000000000000000000000000000000815260040161182b90612bf3565b60405180910390fd5b600060046000815480929190611849906127a5565b9190505590506040518060e00160405280828152602001868152602001858152602001428152602001600081526020018473ffffffffffffffffffffffffffffffffffffffff168152602001600060028111156118a9576118a8611cef565b5b815250600260008381526020019081526020016000206000820151816000015560208201518160010160008201518160000190816118e79190612da0565b5060208201518160010190816118fd9190612da0565b5060408201518160020190816119139190612da0565b50606082015181600301556080820151816004015560a0820151816005015560c0820151816006015560e082015181600701556101008201518160080155610120820151816009015561014082015181600a0160006101000a81548160ff0219169083600181111561198857611987611cef565b5b02179055505050604082015181600c0190816119a49190612da0565b50606082015181600d0155608082015181600e015560a082015181600f0160006101000a81548173ffffffffffffffffffffffffffffffffffffffff021916908373ffffffffffffffffffffffffffffffffffffffff16021790555060c082015181600f0160146101000a81548160ff02191690836002811115611a2b57611a2a611cef565b5b0217905550905050600360008473ffffffffffffffffffffffffffffffffffffffff1673ffffffffffffffffffffffffffffffffffffffff168152602001908152602001600020819080600181540180825580915050600190039060005260206000200160009091909190915055809150509392505050565b6040518060e0016040528060008152602001611abe611b0f565b8152602001606081526020016000815260200160008152602001600073ffffffffffffffffffffffffffffffffffffffff16815260200160006002811115611b0957611b08611cef565b5b81525090565b6040518061016001604052806060815260200160608152602001606081526020016000815260200160008152602001600081526020016000815260200160008152602001600081526020016000815260200160006001811115611b7557611b74611cef565b5b81525090565b6000604051905090565b600080fd5b600080fd5b600073ffffffffffffffffffffffffffffffffffffffff82169050919050565b6000611bba82611b8f565b9050919050565b611bca81611baf565b8114611bd557600080fd5b50565b600081359050611be781611bc1565b92915050565b600060208284031215611c0357611c02611b85565b5b6000611c1184828501611bd8565b91505092915050565b600081519050919050565b600082825260208201905092915050565b6000819050602082019050919050565b6000819050919050565b611c5981611c46565b82525050565b600081519050919050565b600082825260208201905092915050565b60005b83811015611c99578082015181840152602081019050611c7e565b60008484015250505050565b6000601f19601f8301169050919050565b6000611cc182611c5f565b611ccb8185611c6a565b9350611cdb818560208601611c7b565b611ce481611ca5565b840191505092915050565b7f4e487b7100000000000000000000000000000000000000000000000000000000600052602160045260246000fd5b60028110611d2f57611d2e611cef565b5b50565b6000819050611d4082611d1e565b919050565b6000611d5082611d32565b9050919050565b611d6081611d45565b82525050565b6000610160830160008301518482036000860152611d848282611cb6565b91505060208301518482036020860152611d9e8282611cb6565b91505060408301518482036040860152611db88282611cb6565b9150506060830151611dcd6060860182611c50565b506080830151611de06080860182611c50565b5060a0830151611df360a0860182611c50565b5060c0830151611e0660c0860182611c50565b5060e0830151611e1960e0860182611c50565b50610100830151611e2e610100860182611c50565b50610120830151611e43610120860182611c50565b50610140830151611e58610140860182611d57565b508091505092915050565b611e6c81611baf565b82525050565b60038110611e8357611e82611cef565b5b50565b6000819050611e9482611e72565b919050565b6000611ea482611e86565b9050919050565b611eb481611e99565b82525050565b600060e083016000830151611ed26000860182611c50565b5060208301518482036020860152611eea8282611d66565b91505060408301518482036040860152611f048282611cb6565b9150506060830151611f196060860182611c50565b506080830151611f2c6080860182611c50565b5060a0830151611f3f60a0860182611e63565b5060c0830151611f5260c0860182611eab565b508091505092915050565b6000611f698383611eba565b905092915050565b6000602082019050919050565b6000611f8982611c1a565b611f938185611c25565b935083602082028501611fa585611c36565b8060005b85811015611fe15784840389528151611fc28582611f5d565b9450611fcd83611f71565b925060208a01995050600181019050611fa9565b50829750879550505050505092915050565b6000602082019050818103600083015261200d8184611f7e565b905092915050565b61201e81611c46565b82525050565b60006020820190506120396000830184612015565b92915050565b6000819050919050565b600061206461205f61205a84611b8f565b61203f565b611b8f565b9050919050565b600061207682612049565b9050919050565b60006120888261206b565b9050919050565b6120988161207d565b82525050565b60006020820190506120b3600083018461208f565b92915050565b600080fd5b600080fd5b7f4e487b7100000000000000000000000000000000000000000000000000000000600052604160045260246000fd5b6120fb82611ca5565b810181811067ffffffffffffffff8211171561211a576121196120c3565b5b80604052505050565b600061212d611b7b565b905061213982826120f2565b919050565b600067ffffffffffffffff821115612159576121586120c3565b5b61216282611ca5565b9050602081019050919050565b82818337600083830152505050565b600061219161218c8461213e565b612123565b9050828152602081018484840111156121ad576121ac6120be565b5b6121b884828561216f565b509392505050565b600082601f8301126121d5576121d46120b9565b5b81356121e584826020860161217e565b91505092915050565b60006020828403121561220457612203611b85565b5b600082013567ffffffffffffffff81111561222257612221611b8a565b5b61222e848285016121c0565b91505092915050565b61224081611baf565b82525050565b600060208201905061225b6000830184612237565b92915050565b61226a81611c46565b811461227557600080fd5b50565b60008135905061228781612261565b92915050565b600080604083850312156122a4576122a3611b85565b5b60006122b285828601611bd8565b92505060206122c385828601612278565b9150509250929050565b6000602082840312156122e3576122e2611b85565b5b60006122f184828501612278565b91505092915050565b60006101608301600083015184820360008601526123188282611cb6565b915050602083015184820360208601526123328282611cb6565b9150506040830151848203604086015261234c8282611cb6565b91505060608301516123616060860182611c50565b5060808301516123746080860182611c50565b5060a083015161238760a0860182611c50565b5060c083015161239a60c0860182611c50565b5060e08301516123ad60e0860182611c50565b506101008301516123c2610100860182611c50565b506101208301516123d7610120860182611c50565b506101408301516123ec610140860182611d57565b508091505092915050565b600082825260208201905092915050565b600061241382611c5f565b61241d81856123f7565b935061242d818560208601611c7b565b61243681611ca5565b840191505092915050565b61244a81611e99565b82525050565b600060e082019050612465600083018a612015565b818103602083015261247781896122fa565b9050818103604083015261248b8188612408565b905061249a6060830187612015565b6124a76080830186612015565b6124b460a0830185612237565b6124c160c0830184612441565b98975050505050505050565b600080fd5b600080fd5b600281106124e457600080fd5b50565b6000813590506124f6816124d7565b92915050565b60006101608284031215612513576125126124cd565b5b61251e610160612123565b9050600082013567ffffffffffffffff81111561253e5761253d6124d2565b5b61254a848285016121c0565b600083015250602082013567ffffffffffffffff81111561256e5761256d6124d2565b5b61257a848285016121c0565b602083015250604082013567ffffffffffffffff81111561259e5761259d6124d2565b5b6125aa848285016121c0565b60408301525060606125be84828501612278565b60608301525060806125d284828501612278565b60808301525060a06125e684828501612278565b60a08301525060c06125fa84828501612278565b60c08301525060e061260e84828501612278565b60e08301525061010061262384828501612278565b6101008301525061012061263984828501612278565b6101208301525061014061264f848285016124e7565b6101408301525092915050565b60008060006060848603121561267557612674611b85565b5b600084013567ffffffffffffffff81111561269357612692611b8a565b5b61269f868287016124fc565b935050602084013567ffffffffffffffff8111156126c0576126bf611b8a565b5b6126cc868287016121c0565b92505060406126dd86828701611bd8565b9150509250925092565b7f4e487b7100000000000000000000000000000000000000000000000000000000600052603260045260246000fd5b7f4e487b7100000000000000000000000000000000000000000000000000000000600052602260045260246000fd5b6000600282049050600182168061275d57607f821691505b6020821081036127705761276f612716565b5b50919050565b7f4e487b7100000000000000000000000000000000000000000000000000000000600052601160045260246000fd5b60006127b082611c46565b91507fffffffffffffffffffffffffffffffffffffffffffffffffffffffffffffffff82036127e2576127e1612776565b5b600182019050919050565b7f42616767616765506f6c6963793a204f6e6c792074686520696e73757265722060008201527f63616e2063616c6c20746869732066756e6374696f6e00000000000000000000602082015250565b60006128496036836123f7565b9150612854826127ed565b604082019050919050565b600060208201905081810360008301526128788161283c565b9050919050565b600081905092915050565b600061289582611c5f565b61289f818561287f565b93506128af818560208601611c7b565b80840191505092915050565b60006128c7828461288a565b915081905092915050565b60008190508160005260206000209050919050565b600081546128f481612745565b6128fe818661287f565b94506001821660008114612919576001811461292e57612961565b60ff1983168652811515820286019350612961565b612937856128d2565b60005b838110156129595781548189015260018201915060208101905061293a565b838801955050505b50505092915050565b600061297682846128e7565b915081905092915050565b7f496e76616c696420706f6c696379496400000000000000000000000000000000600082015250565b60006129b76010836123f7565b91506129c282612981565b602082019050919050565b600060208201905081810360008301526129e6816129aa565b9050919050565b7f506f6c696379206973206e6f7420616374697665000000000000000000000000600082015250565b6000612a236014836123f7565b9150612a2e826129ed565b602082019050919050565b60006020820190508181036000830152612a5281612a16565b9050919050565b6000612a6482611c46565b9150612a6f83611c46565b9250828202612a7d81611c46565b91508282048414831517612a9457612a93612776565b5b5092915050565b6000612aa682611c46565b9150612ab183611c46565b9250828201905080821115612ac957612ac8612776565b5b92915050565b7f506f6c69637920686173206e6f74206578706972656420796574000000000000600082015250565b6000612b05601a836123f7565b9150612b1082612acf565b602082019050919050565b60006020820190508181036000830152612b3481612af8565b9050919050565b7f506f6c6963792074656d706c617465206973206e6f7420616374697665000000600082015250565b6000612b71601d836123f7565b9150612b7c82612b3b565b602082019050919050565b60006020820190508181036000830152612ba081612b64565b9050919050565b7f496e73756666696369656e74207072656d69756d2073656e7400000000000000600082015250565b6000612bdd6019836123f7565b9150612be882612ba7565b602082019050919050565b60006020820190508181036000830152612c0c81612bd0565b9050919050565b60006020601f8301049050919050565b600082821b905092915050565b600060088302612c607fffffffffffffffffffffffffffffffffffffffffffffffffffffffffffffffff82612c23565b612c6a8683612c23565b95508019841693508086168417925050509392505050565b6000612c9d612c98612c9384611c46565b61203f565b611c46565b9050919050565b6000819050919050565b612cb783612c82565b612ccb612cc382612ca4565b848454612c30565b825550505050565b600090565b612ce0612cd3565b612ceb818484612cae565b505050565b5b81811015612d0f57612d04600082612cd8565b600181019050612cf1565b5050565b601f821115612d5457612d25816128d2565b612d2e84612c13565b81016020851015612d3d578190505b612d51612d4985612c13565b830182612cf0565b50505b505050565b600082821c905092915050565b6000612d7760001984600802612d59565b1980831691505092915050565b6000612d908383612d66565b9150826002028217905092915050565b612da982611c5f565b67ffffffffffffffff811115612dc257612dc16120c3565b5b612dcc8254612745565b612dd7828285612d13565b600060209050601f831160018114612e0a5760008415612df8578287015190505b612e028582612d84565b865550612e6a565b601f198416612e18866128d2565b60005b82811015612e4057848901518255600182019150602085019450602081019050612e1b565b86831015612e5d5784890151612e59601f891682612d66565b8355505b6001600288020188555050505b50505050505056fea2646970667358221220088e62bf2376b3df6f4ece2ddb9f0ddc9ec01d475b8e922f140a051bd8eafff164736f6c63430008130033",
  "linkReferences": {},
  "deployedLinkReferences": {}
}