{
  "_format": "hh-sol-artifact-1",
  "contractName": "BaggagePolicy",
  "sourceName": "contracts/BaggagePolicy.sol",
  "abi": [
    {
      "inputs": [
        {
          "internalType": "address",
          "name": "_oracleConnector",
          "type": "address"
        }
      ],
      "stateMutability": "nonpayable",
      "type": "constructor"
    },
    {
      "inputs": [
        {
          "internalType": "uint256",
          "name": "currentTime",
          "type": "uint256"
        }
      ],
      "name": "getAllPolicies",
      "outputs": [
        {
          "components": [
            {
              "internalType": "uint256",
              "name": "policyId",
              "type": "uint256"
            },
            {
              "components": [
                {
                  "internalType": "string",
                  "name": "templateId",
                  "type": "string"
                },
                {
                  "internalType": "string",
                  "name": "name",
                  "type": "string"
                },
                {
                  "internalType": "string",
                  "name": "description",
                  "type": "string"
                },
                {
                  "internalType": "uint256",
                  "name": "createdAt",
                  "type": "uint256"
                },
                {
                  "internalType": "uint256",
                  "name": "updatedAt",
                  "type": "uint256"
                },
                {
                  "internalType": "uint256",
                  "name": "premium",
                  "type": "uint256"
                },
                {
                  "internalType": "uint256",
                  "name": "payoutIfDelayed",
                  "type": "uint256"
                },
                {
                  "internalType": "uint256",
                  "name": "payoutIfLost",
                  "type": "uint256"
                },
                {
                  "internalType": "uint256",
                  "name": "maxTotalPayout",
                  "type": "uint256"
                },
                {
                  "internalType": "uint256",
                  "name": "coverageDurationSeconds",
                  "type": "uint256"
                },
                {
                  "internalType": "enum BaggagePolicy.PolicyTemplateStatus",
                  "name": "status",
                  "type": "uint8"
                }
              ],
              "internalType": "struct BaggagePolicy.PolicyTemplate",
              "name": "template",
              "type": "tuple"
            },
            {
              "internalType": "string",
              "name": "itemDescription",
              "type": "string"
            },
            {
              "internalType": "uint256",
              "name": "createdAt",
              "type": "uint256"
            },
            {
              "internalType": "uint256",
              "name": "payoutToDate",
              "type": "uint256"
            },
            {
              "internalType": "address",
              "name": "buyer",
              "type": "address"
            },
            {
              "internalType": "enum BaggagePolicy.PolicyStatus",
              "name": "status",
              "type": "uint8"
            }
          ],
          "internalType": "struct BaggagePolicy.UserPolicy[]",
          "name": "",
          "type": "tuple[]"
        }
      ],
      "stateMutability": "view",
      "type": "function"
    },
    {
      "inputs": [
        {
          "internalType": "address",
          "name": "user",
          "type": "address"
        },
        {
          "internalType": "uint256",
          "name": "currentTime",
          "type": "uint256"
        }
      ],
      "name": "getUserPolicies",
      "outputs": [
        {
          "components": [
            {
              "internalType": "uint256",
              "name": "policyId",
              "type": "uint256"
            },
            {
              "components": [
                {
                  "internalType": "string",
                  "name": "templateId",
                  "type": "string"
                },
                {
                  "internalType": "string",
                  "name": "name",
                  "type": "string"
                },
                {
                  "internalType": "string",
                  "name": "description",
                  "type": "string"
                },
                {
                  "internalType": "uint256",
                  "name": "createdAt",
                  "type": "uint256"
                },
                {
                  "internalType": "uint256",
                  "name": "updatedAt",
                  "type": "uint256"
                },
                {
                  "internalType": "uint256",
                  "name": "premium",
                  "type": "uint256"
                },
                {
                  "internalType": "uint256",
                  "name": "payoutIfDelayed",
                  "type": "uint256"
                },
                {
                  "internalType": "uint256",
                  "name": "payoutIfLost",
                  "type": "uint256"
                },
                {
                  "internalType": "uint256",
                  "name": "maxTotalPayout",
                  "type": "uint256"
                },
                {
                  "internalType": "uint256",
                  "name": "coverageDurationSeconds",
                  "type": "uint256"
                },
                {
                  "internalType": "enum BaggagePolicy.PolicyTemplateStatus",
                  "name": "status",
                  "type": "uint8"
                }
              ],
              "internalType": "struct BaggagePolicy.PolicyTemplate",
              "name": "template",
              "type": "tuple"
            },
            {
              "internalType": "string",
              "name": "itemDescription",
              "type": "string"
            },
            {
              "internalType": "uint256",
              "name": "createdAt",
              "type": "uint256"
            },
            {
              "internalType": "uint256",
              "name": "payoutToDate",
              "type": "uint256"
            },
            {
              "internalType": "address",
              "name": "buyer",
              "type": "address"
            },
            {
              "internalType": "enum BaggagePolicy.PolicyStatus",
              "name": "status",
              "type": "uint8"
            }
          ],
          "internalType": "struct BaggagePolicy.UserPolicy[]",
          "name": "",
          "type": "tuple[]"
        }
      ],
      "stateMutability": "view",
      "type": "function"
    },
    {
      "inputs": [
        {
          "internalType": "string",
          "name": "templateId",
          "type": "string"
        },
        {
          "internalType": "uint256",
          "name": "currentTime",
          "type": "uint256"
        }
      ],
      "name": "getUserPoliciesByTemplate",
      "outputs": [
        {
          "components": [
            {
              "internalType": "uint256",
              "name": "policyId",
              "type": "uint256"
            },
            {
              "components": [
                {
                  "internalType": "string",
                  "name": "templateId",
                  "type": "string"
                },
                {
                  "internalType": "string",
                  "name": "name",
                  "type": "string"
                },
                {
                  "internalType": "string",
                  "name": "description",
                  "type": "string"
                },
                {
                  "internalType": "uint256",
                  "name": "createdAt",
                  "type": "uint256"
                },
                {
                  "internalType": "uint256",
                  "name": "updatedAt",
                  "type": "uint256"
                },
                {
                  "internalType": "uint256",
                  "name": "premium",
                  "type": "uint256"
                },
                {
                  "internalType": "uint256",
                  "name": "payoutIfDelayed",
                  "type": "uint256"
                },
                {
                  "internalType": "uint256",
                  "name": "payoutIfLost",
                  "type": "uint256"
                },
                {
                  "internalType": "uint256",
                  "name": "maxTotalPayout",
                  "type": "uint256"
                },
                {
                  "internalType": "uint256",
                  "name": "coverageDurationSeconds",
                  "type": "uint256"
                },
                {
                  "internalType": "enum BaggagePolicy.PolicyTemplateStatus",
                  "name": "status",
                  "type": "uint8"
                }
              ],
              "internalType": "struct BaggagePolicy.PolicyTemplate",
              "name": "template",
              "type": "tuple"
            },
            {
              "internalType": "string",
              "name": "itemDescription",
              "type": "string"
            },
            {
              "internalType": "uint256",
              "name": "createdAt",
              "type": "uint256"
            },
            {
              "internalType": "uint256",
              "name": "payoutToDate",
              "type": "uint256"
            },
            {
              "internalType": "address",
              "name": "buyer",
              "type": "address"
            },
            {
              "internalType": "enum BaggagePolicy.PolicyStatus",
              "name": "status",
              "type": "uint8"
            }
          ],
          "internalType": "struct BaggagePolicy.UserPolicy[]",
          "name": "",
          "type": "tuple[]"
        }
      ],
      "stateMutability": "view",
      "type": "function"
    },
    {
      "inputs": [],
      "name": "insurerAddress",
      "outputs": [
        {
          "internalType": "address",
          "name": "",
          "type": "address"
        }
      ],
      "stateMutability": "view",
      "type": "function"
    },
    {
      "inputs": [
        {
          "internalType": "uint256",
          "name": "policyId",
          "type": "uint256"
        }
      ],
      "name": "markPolicyAsExpired",
      "outputs": [],
      "stateMutability": "nonpayable",
      "type": "function"
    },
    {
      "inputs": [],
      "name": "nextUserPolicyId",
      "outputs": [
        {
          "internalType": "uint256",
          "name": "",
          "type": "uint256"
        }
      ],
      "stateMutability": "view",
      "type": "function"
    },
    {
      "inputs": [],
      "name": "oracleConnector",
      "outputs": [
        {
          "internalType": "contract OracleConnector",
          "name": "",
          "type": "address"
        }
      ],
      "stateMutability": "view",
      "type": "function"
    },
    {
      "inputs": [
        {
          "components": [
            {
              "internalType": "string",
              "name": "templateId",
              "type": "string"
            },
            {
              "internalType": "string",
              "name": "name",
              "type": "string"
            },
            {
              "internalType": "string",
              "name": "description",
              "type": "string"
            },
            {
              "internalType": "uint256",
              "name": "createdAt",
              "type": "uint256"
            },
            {
              "internalType": "uint256",
              "name": "updatedAt",
              "type": "uint256"
            },
            {
              "internalType": "uint256",
              "name": "premium",
              "type": "uint256"
            },
            {
              "internalType": "uint256",
              "name": "payoutIfDelayed",
              "type": "uint256"
            },
            {
              "internalType": "uint256",
              "name": "payoutIfLost",
              "type": "uint256"
            },
            {
              "internalType": "uint256",
              "name": "maxTotalPayout",
              "type": "uint256"
            },
            {
              "internalType": "uint256",
              "name": "coverageDurationSeconds",
              "type": "uint256"
            },
            {
              "internalType": "enum BaggagePolicy.PolicyTemplateStatus",
              "name": "status",
              "type": "uint8"
            }
          ],
          "internalType": "struct BaggagePolicy.PolicyTemplate",
          "name": "template",
          "type": "tuple"
        },
        {
          "internalType": "string",
          "name": "itemDescription",
          "type": "string"
        },
        {
          "internalType": "address",
          "name": "buyer",
          "type": "address"
        }
      ],
      "name": "purchasePolicy",
      "outputs": [
        {
          "internalType": "uint256",
          "name": "",
          "type": "uint256"
        }
      ],
      "stateMutability": "nonpayable",
      "type": "function"
    },
    {
      "inputs": [
        {
          "internalType": "uint256",
          "name": "",
          "type": "uint256"
        }
      ],
      "name": "userPolicies",
      "outputs": [
        {
          "internalType": "uint256",
          "name": "policyId",
          "type": "uint256"
        },
        {
          "components": [
            {
              "internalType": "string",
              "name": "templateId",
              "type": "string"
            },
            {
              "internalType": "string",
              "name": "name",
              "type": "string"
            },
            {
              "internalType": "string",
              "name": "description",
              "type": "string"
            },
            {
              "internalType": "uint256",
              "name": "createdAt",
              "type": "uint256"
            },
            {
              "internalType": "uint256",
              "name": "updatedAt",
              "type": "uint256"
            },
            {
              "internalType": "uint256",
              "name": "premium",
              "type": "uint256"
            },
            {
              "internalType": "uint256",
              "name": "payoutIfDelayed",
              "type": "uint256"
            },
            {
              "internalType": "uint256",
              "name": "payoutIfLost",
              "type": "uint256"
            },
            {
              "internalType": "uint256",
              "name": "maxTotalPayout",
              "type": "uint256"
            },
            {
              "internalType": "uint256",
              "name": "coverageDurationSeconds",
              "type": "uint256"
            },
            {
              "internalType": "enum BaggagePolicy.PolicyTemplateStatus",
              "name": "status",
              "type": "uint8"
            }
          ],
          "internalType": "struct BaggagePolicy.PolicyTemplate",
          "name": "template",
          "type": "tuple"
        },
        {
          "internalType": "string",
          "name": "itemDescription",
          "type": "string"
        },
        {
          "internalType": "uint256",
          "name": "createdAt",
          "type": "uint256"
        },
        {
          "internalType": "uint256",
          "name": "payoutToDate",
          "type": "uint256"
        },
        {
          "internalType": "address",
          "name": "buyer",
          "type": "address"
        },
        {
          "internalType": "enum BaggagePolicy.PolicyStatus",
          "name": "status",
          "type": "uint8"
        }
      ],
      "stateMutability": "view",
      "type": "function"
    },
    {
      "inputs": [
        {
          "internalType": "address",
          "name": "",
          "type": "address"
        },
        {
          "internalType": "uint256",
          "name": "",
          "type": "uint256"
        }
      ],
      "name": "userPolicyIds",
      "outputs": [
        {
          "internalType": "uint256",
          "name": "",
          "type": "uint256"
        }
      ],
      "stateMutability": "view",
      "type": "function"
    }
  ],
  "bytecode": "0x60a06040523480156200001157600080fd5b506040516200307c3803806200307c833981810160405281019062000037919062000125565b60016000819055503373ffffffffffffffffffffffffffffffffffffffff1660808173ffffffffffffffffffffffffffffffffffffffff168152505080600160006101000a81548173ffffffffffffffffffffffffffffffffffffffff021916908373ffffffffffffffffffffffffffffffffffffffff1602179055505062000157565b600080fd5b600073ffffffffffffffffffffffffffffffffffffffff82169050919050565b6000620000ed82620000c0565b9050919050565b620000ff81620000e0565b81146200010b57600080fd5b50565b6000815190506200011f81620000f4565b92915050565b6000602082840312156200013e576200013d620000bb565b5b60006200014e848285016200010e565b91505092915050565b608051612f026200017a60003960008181610bc1015261154c0152612f026000f3fe608060405234801561001057600080fd5b506004361061009e5760003560e01c8063b6e283e111610066578063b6e283e11461015d578063c52eaa401461018d578063cba85f06146101bd578063cf39c624146101f3578063e05161491461020f5761009e565b8063642bb925146100a357806364b72a65146100d35780637b956415146101035780639a9122ac14610121578063a7c0900e1461013f575b600080fd5b6100bd60048036038101906100b89190611cb3565b61023f565b6040516100ca91906120c2565b60405180910390f35b6100ed60048036038101906100e891906120e4565b610737565b6040516100fa91906120c2565b60405180910390f35b61010b610b93565b6040516101189190612120565b60405180910390f35b610129610b99565b604051610136919061219a565b60405180910390f35b610147610bbf565b60405161015491906121c4565b60405180910390f35b61017760048036038101906101729190611cb3565b610be3565b6040516101849190612120565b60405180910390f35b6101a760048036038101906101a29190612314565b610c14565b6040516101b491906120c2565b60405180910390f35b6101d760048036038101906101d291906120e4565b611184565b6040516101ea97969594939291906124c6565b60405180910390f35b61020d600480360381019061020891906120e4565b6114bd565b005b610229600480360381019061022491906126d2565b61173b565b6040516102369190612120565b60405180910390f35b60606000600360008573ffffffffffffffffffffffffffffffffffffffff1673ffffffffffffffffffffffffffffffffffffffff16815260200190815260200160002080549050905060008167ffffffffffffffff8111156102a4576102a36121e9565b5b6040519080825280602002602001820160405280156102dd57816020015b6102ca611b34565b8152602001906001900390816102c25790505b50905060005b828110156107225760026000600360008973ffffffffffffffffffffffffffffffffffffffff1673ffffffffffffffffffffffffffffffffffffffff16815260200190815260200160002083815481106103405761033f61275d565b5b906000526020600020015481526020019081526020016000206040518060e001604052908160008201548152602001600182016040518061016001604052908160008201805461038f906127bb565b80601f01602080910402602001604051908101604052809291908181526020018280546103bb906127bb565b80156104085780601f106103dd57610100808354040283529160200191610408565b820191906000526020600020905b8154815290600101906020018083116103eb57829003601f168201915b50505050508152602001600182018054610421906127bb565b80601f016020809104026020016040519081016040528092919081815260200182805461044d906127bb565b801561049a5780601f1061046f5761010080835404028352916020019161049a565b820191906000526020600020905b81548152906001019060200180831161047d57829003601f168201915b505050505081526020016002820180546104b3906127bb565b80601f01602080910402602001604051908101604052809291908181526020018280546104df906127bb565b801561052c5780601f106105015761010080835404028352916020019161052c565b820191906000526020600020905b81548152906001019060200180831161050f57829003601f168201915b5050505050815260200160038201548152602001600482015481526020016005820154815260200160068201548152602001600782015481526020016008820154815260200160098201548152602001600a820160009054906101000a900460ff1660018111156105a05761059f611dbe565b5b60018111156105b2576105b1611dbe565b5b815250508152602001600c820180546105ca906127bb565b80601f01602080910402602001604051908101604052809291908181526020018280546105f6906127bb565b80156106435780601f1061061857610100808354040283529160200191610643565b820191906000526020600020905b81548152906001019060200180831161062657829003601f168201915b50505050508152602001600d8201548152602001600e8201548152602001600f820160009054906101000a900473ffffffffffffffffffffffffffffffffffffffff1673ffffffffffffffffffffffffffffffffffffffff1673ffffffffffffffffffffffffffffffffffffffff168152602001600f820160149054906101000a900460ff1660028111156106db576106da611dbe565b5b60028111156106ed576106ec611dbe565b5b815250508282815181106107045761070361275d565b5b6020026020010181905250808061071a9061281b565b9150506102e3565b5061072d8185611a18565b9250505092915050565b60606000600454905060008167ffffffffffffffff81111561075c5761075b6121e9565b5b60405190808252806020026020018201604052801561079557816020015b610782611b34565b81526020019060019003908161077a5790505b50905060005b82811015610b7f57600260008281526020019081526020016000206040518060e00160405290816000820154815260200160018201604051806101600160405290816000820180546107ec906127bb565b80601f0160208091040260200160405190810160405280929190818152602001828054610818906127bb565b80156108655780601f1061083a57610100808354040283529160200191610865565b820191906000526020600020905b81548152906001019060200180831161084857829003601f168201915b5050505050815260200160018201805461087e906127bb565b80601f01602080910402602001604051908101604052809291908181526020018280546108aa906127bb565b80156108f75780601f106108cc576101008083540402835291602001916108f7565b820191906000526020600020905b8154815290600101906020018083116108da57829003601f168201915b50505050508152602001600282018054610910906127bb565b80601f016020809104026020016040519081016040528092919081815260200182805461093c906127bb565b80156109895780601f1061095e57610100808354040283529160200191610989565b820191906000526020600020905b81548152906001019060200180831161096c57829003601f168201915b5050505050815260200160038201548152602001600482015481526020016005820154815260200160068201548152602001600782015481526020016008820154815260200160098201548152602001600a820160009054906101000a900460ff1660018111156109fd576109fc611dbe565b5b6001811115610a0f57610a0e611dbe565b5b815250508152602001600c82018054610a27906127bb565b80601f0160208091040260200160405190810160405280929190818152602001828054610a53906127bb565b8015610aa05780601f10610a7557610100808354040283529160200191610aa0565b820191906000526020600020905b815481529060010190602001808311610a8357829003601f168201915b50505050508152602001600d8201548152602001600e8201548152602001600f820160009054906101000a900473ffffffffffffffffffffffffffffffffffffffff1673ffffffffffffffffffffffffffffffffffffffff1673ffffffffffffffffffffffffffffffffffffffff168152602001600f820160149054906101000a900460ff166002811115610b3857610b37611dbe565b5b6002811115610b4a57610b49611dbe565b5b81525050828281518110610b6157610b6061275d565b5b60200260200101819052508080610b779061281b565b91505061079b565b50610b8a8185611a18565b92505050919050565b60045481565b600160009054906101000a900473ffffffffffffffffffffffffffffffffffffffff1681565b7f000000000000000000000000000000000000000000000000000000000000000081565b60036020528160005260406000208181548110610bff57600080fd5b90600052602060002001600091509150505481565b60606000805b600454811015610cb15784604051602001610c35919061289f565b6040516020818303038152906040528051906020012060026000838152602001908152602001600020600101600001604051602001610c74919061294e565b6040516020818303038152906040528051906020012003610c9e578180610c9a9061281b565b9250505b8080610ca99061281b565b915050610c1a565b5060008167ffffffffffffffff811115610cce57610ccd6121e9565b5b604051908082528060200260200182016040528015610d0757816020015b610cf4611b34565b815260200190600190039081610cec5790505b5090506000805b60045481101561116e5786604051602001610d29919061289f565b6040516020818303038152906040528051906020012060026000838152602001908152602001600020600101600001604051602001610d68919061294e565b604051602081830303815290604052805190602001200361115b57600260008281526020019081526020016000206040518060e0016040529081600082015481526020016001820160405180610160016040529081600082018054610dcc906127bb565b80601f0160208091040260200160405190810160405280929190818152602001828054610df8906127bb565b8015610e455780601f10610e1a57610100808354040283529160200191610e45565b820191906000526020600020905b815481529060010190602001808311610e2857829003601f168201915b50505050508152602001600182018054610e5e906127bb565b80601f0160208091040260200160405190810160405280929190818152602001828054610e8a906127bb565b8015610ed75780601f10610eac57610100808354040283529160200191610ed7565b820191906000526020600020905b815481529060010190602001808311610eba57829003601f168201915b50505050508152602001600282018054610ef0906127bb565b80601f0160208091040260200160405190810160405280929190818152602001828054610f1c906127bb565b8015610f695780601f10610f3e57610100808354040283529160200191610f69565b820191906000526020600020905b815481529060010190602001808311610f4c57829003601f168201915b5050505050815260200160038201548152602001600482015481526020016005820154815260200160068201548152602001600782015481526020016008820154815260200160098201548152602001600a820160009054906101000a900460ff166001811115610fdd57610fdc611dbe565b5b6001811115610fef57610fee611dbe565b5b815250508152602001600c82018054611007906127bb565b80601f0160208091040260200160405190810160405280929190818152602001828054611033906127bb565b80156110805780601f1061105557610100808354040283529160200191611080565b820191906000526020600020905b81548152906001019060200180831161106357829003601f168201915b50505050508152602001600d8201548152602001600e8201548152602001600f820160009054906101000a900473ffffffffffffffffffffffffffffffffffffffff1673ffffffffffffffffffffffffffffffffffffffff1673ffffffffffffffffffffffffffffffffffffffff168152602001600f820160149054906101000a900460ff16600281111561111857611117611dbe565b5b600281111561112a57611129611dbe565b5b815250508383815181106111415761114061275d565b5b602002602001018190525081806111579061281b565b9250505b80806111669061281b565b915050610d0e565b506111798286611a18565b935050505092915050565b600260205280600052604060002060009150905080600001549080600101604051806101600160405290816000820180546111be906127bb565b80601f01602080910402602001604051908101604052809291908181526020018280546111ea906127bb565b80156112375780601f1061120c57610100808354040283529160200191611237565b820191906000526020600020905b81548152906001019060200180831161121a57829003601f168201915b50505050508152602001600182018054611250906127bb565b80601f016020809104026020016040519081016040528092919081815260200182805461127c906127bb565b80156112c95780601f1061129e576101008083540402835291602001916112c9565b820191906000526020600020905b8154815290600101906020018083116112ac57829003601f168201915b505050505081526020016002820180546112e2906127bb565b80601f016020809104026020016040519081016040528092919081815260200182805461130e906127bb565b801561135b5780601f106113305761010080835404028352916020019161135b565b820191906000526020600020905b81548152906001019060200180831161133e57829003601f168201915b5050505050815260200160038201548152602001600482015481526020016005820154815260200160068201548152602001600782015481526020016008820154815260200160098201548152602001600a820160009054906101000a900460ff1660018111156113cf576113ce611dbe565b5b60018111156113e1576113e0611dbe565b5b815250509080600c0180546113f5906127bb565b80601f0160208091040260200160405190810160405280929190818152602001828054611421906127bb565b801561146e5780601f106114435761010080835404028352916020019161146e565b820191906000526020600020905b81548152906001019060200180831161145157829003601f168201915b50505050509080600d01549080600e01549080600f0160009054906101000a900473ffffffffffffffffffffffffffffffffffffffff169080600f0160149054906101000a900460ff16905087565b60008060028111156114d2576114d1611dbe565b5b600260006004548152602001908152602001600020600f0160149054906101000a900460ff16600281111561150a57611509611dbe565b5b1461154a576040517f08c379a0000000000000000000000000000000000000000000000000000000008152600401611541906129d7565b60405180910390fd5b7f000000000000000000000000000000000000000000000000000000000000000073ffffffffffffffffffffffffffffffffffffffff163273ffffffffffffffffffffffffffffffffffffffff16146115d8576040517f08c379a00000000000000000000000000000000000000000000000000000000081526004016115cf90612a69565b60405180910390fd5b600454821061161c576040517f08c379a000000000000000000000000000000000000000000000000000000000815260040161161390612ad5565b60405180910390fd5b60006002600084815260200190815260200160002090506000600281111561164757611646611dbe565b5b81600f0160149054906101000a900460ff16600281111561166b5761166a611dbe565b5b146116ab576040517f08c379a00000000000000000000000000000000000000000000000000000000081526004016116a290612b41565b60405180910390fd5b6000816001016009015482600d01546116c49190612b61565b9050804211611708576040517f08c379a00000000000000000000000000000000000000000000000000000000081526004016116ff90612be1565b60405180910390fd5b600182600f0160146101000a81548160ff021916908360028111156117305761172f611dbe565b5b021790555050505050565b60008060018111156117505761174f611dbe565b5b846101400151600181111561176857611767611dbe565b5b146117a8576040517f08c379a000000000000000000000000000000000000000000000000000000000815260040161179f90612c4d565b60405180910390fd5b6000600460008154809291906117bd9061281b565b9190505590506040518060e00160405280828152602001868152602001858152602001428152602001600081526020018473ffffffffffffffffffffffffffffffffffffffff1681526020016000600281111561181d5761181c611dbe565b5b8152506002600083815260200190815260200160002060008201518160000155602082015181600101600082015181600001908161185b9190612dfa565b5060208201518160010190816118719190612dfa565b5060408201518160020190816118879190612dfa565b50606082015181600301556080820151816004015560a0820151816005015560c0820151816006015560e082015181600701556101008201518160080155610120820151816009015561014082015181600a0160006101000a81548160ff021916908360018111156118fc576118fb611dbe565b5b02179055505050604082015181600c0190816119189190612dfa565b50606082015181600d0155608082015181600e015560a082015181600f0160006101000a81548173ffffffffffffffffffffffffffffffffffffffff021916908373ffffffffffffffffffffffffffffffffffffffff16021790555060c082015181600f0160146101000a81548160ff0219169083600281111561199f5761199e611dbe565b5b0217905550905050600360008473ffffffffffffffffffffffffffffffffffffffff1673ffffffffffffffffffffffffffffffffffffffff168152602001908152602001600020819080600181540180825580915050600190039060005260206000200160009091909190915055809150509392505050565b606060005b8351811015611b2a5760006002811115611a3a57611a39611dbe565b5b848281518110611a4d57611a4c61275d565b5b602002602001015160c001516002811115611a6b57611a6a611dbe565b5b03611b17576000848281518110611a8557611a8461275d565b5b6020026020010151602001516101200151858381518110611aa957611aa861275d565b5b602002602001015160600151611abf9190612b61565b905080841115611b15576001858381518110611ade57611add61275d565b5b602002602001015160c001906002811115611afc57611afb611dbe565b5b90816002811115611b1057611b0f611dbe565b5b815250505b505b8080611b229061281b565b915050611a1d565b5082905092915050565b6040518060e0016040528060008152602001611b4e611b9f565b8152602001606081526020016000815260200160008152602001600073ffffffffffffffffffffffffffffffffffffffff16815260200160006002811115611b9957611b98611dbe565b5b81525090565b6040518061016001604052806060815260200160608152602001606081526020016000815260200160008152602001600081526020016000815260200160008152602001600081526020016000815260200160006001811115611c0557611c04611dbe565b5b81525090565b6000604051905090565b600080fd5b600080fd5b600073ffffffffffffffffffffffffffffffffffffffff82169050919050565b6000611c4a82611c1f565b9050919050565b611c5a81611c3f565b8114611c6557600080fd5b50565b600081359050611c7781611c51565b92915050565b6000819050919050565b611c9081611c7d565b8114611c9b57600080fd5b50565b600081359050611cad81611c87565b92915050565b60008060408385031215611cca57611cc9611c15565b5b6000611cd885828601611c68565b9250506020611ce985828601611c9e565b9150509250929050565b600081519050919050565b600082825260208201905092915050565b6000819050602082019050919050565b611d2881611c7d565b82525050565b600081519050919050565b600082825260208201905092915050565b60005b83811015611d68578082015181840152602081019050611d4d565b60008484015250505050565b6000601f19601f8301169050919050565b6000611d9082611d2e565b611d9a8185611d39565b9350611daa818560208601611d4a565b611db381611d74565b840191505092915050565b7f4e487b7100000000000000000000000000000000000000000000000000000000600052602160045260246000fd5b60028110611dfe57611dfd611dbe565b5b50565b6000819050611e0f82611ded565b919050565b6000611e1f82611e01565b9050919050565b611e2f81611e14565b82525050565b6000610160830160008301518482036000860152611e538282611d85565b91505060208301518482036020860152611e6d8282611d85565b91505060408301518482036040860152611e878282611d85565b9150506060830151611e9c6060860182611d1f565b506080830151611eaf6080860182611d1f565b5060a0830151611ec260a0860182611d1f565b5060c0830151611ed560c0860182611d1f565b5060e0830151611ee860e0860182611d1f565b50610100830151611efd610100860182611d1f565b50610120830151611f12610120860182611d1f565b50610140830151611f27610140860182611e26565b508091505092915050565b611f3b81611c3f565b82525050565b60038110611f5257611f51611dbe565b5b50565b6000819050611f6382611f41565b919050565b6000611f7382611f55565b9050919050565b611f8381611f68565b82525050565b600060e083016000830151611fa16000860182611d1f565b5060208301518482036020860152611fb98282611e35565b91505060408301518482036040860152611fd38282611d85565b9150506060830151611fe86060860182611d1f565b506080830151611ffb6080860182611d1f565b5060a083015161200e60a0860182611f32565b5060c083015161202160c0860182611f7a565b508091505092915050565b60006120388383611f89565b905092915050565b6000602082019050919050565b600061205882611cf3565b6120628185611cfe565b93508360208202850161207485611d0f565b8060005b858110156120b05784840389528151612091858261202c565b945061209c83612040565b925060208a01995050600181019050612078565b50829750879550505050505092915050565b600060208201905081810360008301526120dc818461204d565b905092915050565b6000602082840312156120fa576120f9611c15565b5b600061210884828501611c9e565b91505092915050565b61211a81611c7d565b82525050565b60006020820190506121356000830184612111565b92915050565b6000819050919050565b600061216061215b61215684611c1f565b61213b565b611c1f565b9050919050565b600061217282612145565b9050919050565b600061218482612167565b9050919050565b61219481612179565b82525050565b60006020820190506121af600083018461218b565b92915050565b6121be81611c3f565b82525050565b60006020820190506121d960008301846121b5565b92915050565b600080fd5b600080fd5b7f4e487b7100000000000000000000000000000000000000000000000000000000600052604160045260246000fd5b61222182611d74565b810181811067ffffffffffffffff821117156122405761223f6121e9565b5b80604052505050565b6000612253611c0b565b905061225f8282612218565b919050565b600067ffffffffffffffff82111561227f5761227e6121e9565b5b61228882611d74565b9050602081019050919050565b82818337600083830152505050565b60006122b76122b284612264565b612249565b9050828152602081018484840111156122d3576122d26121e4565b5b6122de848285612295565b509392505050565b600082601f8301126122fb576122fa6121df565b5b813561230b8482602086016122a4565b91505092915050565b6000806040838503121561232b5761232a611c15565b5b600083013567ffffffffffffffff81111561234957612348611c1a565b5b612355858286016122e6565b925050602061236685828601611c9e565b9150509250929050565b600061016083016000830151848203600086015261238e8282611d85565b915050602083015184820360208601526123a88282611d85565b915050604083015184820360408601526123c28282611d85565b91505060608301516123d76060860182611d1f565b5060808301516123ea6080860182611d1f565b5060a08301516123fd60a0860182611d1f565b5060c083015161241060c0860182611d1f565b5060e083015161242360e0860182611d1f565b50610100830151612438610100860182611d1f565b5061012083015161244d610120860182611d1f565b50610140830151612462610140860182611e26565b508091505092915050565b600082825260208201905092915050565b600061248982611d2e565b612493818561246d565b93506124a3818560208601611d4a565b6124ac81611d74565b840191505092915050565b6124c081611f68565b82525050565b600060e0820190506124db600083018a612111565b81810360208301526124ed8189612370565b90508181036040830152612501818861247e565b90506125106060830187612111565b61251d6080830186612111565b61252a60a08301856121b5565b61253760c08301846124b7565b98975050505050505050565b600080fd5b600080fd5b6002811061255a57600080fd5b50565b60008135905061256c8161254d565b92915050565b6000610160828403121561258957612588612543565b5b612594610160612249565b9050600082013567ffffffffffffffff8111156125b4576125b3612548565b5b6125c0848285016122e6565b600083015250602082013567ffffffffffffffff8111156125e4576125e3612548565b5b6125f0848285016122e6565b602083015250604082013567ffffffffffffffff81111561261457612613612548565b5b612620848285016122e6565b604083015250606061263484828501611c9e565b606083015250608061264884828501611c9e565b60808301525060a061265c84828501611c9e565b60a08301525060c061267084828501611c9e565b60c08301525060e061268484828501611c9e565b60e08301525061010061269984828501611c9e565b610100830152506101206126af84828501611c9e565b610120830152506101406126c58482850161255d565b6101408301525092915050565b6000806000606084860312156126eb576126ea611c15565b5b600084013567ffffffffffffffff81111561270957612708611c1a565b5b61271586828701612572565b935050602084013567ffffffffffffffff81111561273657612735611c1a565b5b612742868287016122e6565b925050604061275386828701611c68565b9150509250925092565b7f4e487b7100000000000000000000000000000000000000000000000000000000600052603260045260246000fd5b7f4e487b7100000000000000000000000000000000000000000000000000000000600052602260045260246000fd5b600060028204905060018216806127d357607f821691505b6020821081036127e6576127e561278c565b5b50919050565b7f4e487b7100000000000000000000000000000000000000000000000000000000600052601160045260246000fd5b600061282682611c7d565b91507fffffffffffffffffffffffffffffffffffffffffffffffffffffffffffffffff8203612858576128576127ec565b5b600182019050919050565b600081905092915050565b600061287982611d2e565b6128838185612863565b9350612893818560208601611d4a565b80840191505092915050565b60006128ab828461286e565b915081905092915050565b60008190508160005260206000209050919050565b600081546128d8816127bb565b6128e28186612863565b945060018216600081146128fd576001811461291257612945565b60ff1983168652811515820286019350612945565b61291b856128b6565b60005b8381101561293d5781548189015260018201915060208101905061291e565b838801955050505b50505092915050565b600061295a82846128cb565b915081905092915050565b7f42616767616765506f6c6963793a20506f6c696379206973206e6f7420696e2060008201527f74686520636f7272656374207374617475730000000000000000000000000000602082015250565b60006129c160328361246d565b91506129cc82612965565b604082019050919050565b600060208201905081810360008301526129f0816129b4565b9050919050565b7f42616767616765506f6c6963793a204f6e6c792074686520696e73757265722060008201527f63616e2063616c6c20746869732066756e6374696f6e00000000000000000000602082015250565b6000612a5360368361246d565b9150612a5e826129f7565b604082019050919050565b60006020820190508181036000830152612a8281612a46565b9050919050565b7f496e76616c696420706f6c696379496400000000000000000000000000000000600082015250565b6000612abf60108361246d565b9150612aca82612a89565b602082019050919050565b60006020820190508181036000830152612aee81612ab2565b9050919050565b7f506f6c696379206973206e6f7420616374697665000000000000000000000000600082015250565b6000612b2b60148361246d565b9150612b3682612af5565b602082019050919050565b60006020820190508181036000830152612b5a81612b1e565b9050919050565b6000612b6c82611c7d565b9150612b7783611c7d565b9250828201905080821115612b8f57612b8e6127ec565b5b92915050565b7f506f6c69637920686173206e6f74206578706972656420796574000000000000600082015250565b6000612bcb601a8361246d565b9150612bd682612b95565b602082019050919050565b60006020820190508181036000830152612bfa81612bbe565b9050919050565b7f506f6c6963792074656d706c617465206973206e6f7420616374697665000000600082015250565b6000612c37601d8361246d565b9150612c4282612c01565b602082019050919050565b60006020820190508181036000830152612c6681612c2a565b9050919050565b60006020601f8301049050919050565b600082821b905092915050565b600060088302612cba7fffffffffffffffffffffffffffffffffffffffffffffffffffffffffffffffff82612c7d565b612cc48683612c7d565b95508019841693508086168417925050509392505050565b6000612cf7612cf2612ced84611c7d565b61213b565b611c7d565b9050919050565b6000819050919050565b612d1183612cdc565b612d25612d1d82612cfe565b848454612c8a565b825550505050565b600090565b612d3a612d2d565b612d45818484612d08565b505050565b5b81811015612d6957612d5e600082612d32565b600181019050612d4b565b5050565b601f821115612dae57612d7f816128b6565b612d8884612c6d565b81016020851015612d97578190505b612dab612da385612c6d565b830182612d4a565b50505b505050565b600082821c905092915050565b6000612dd160001984600802612db3565b1980831691505092915050565b6000612dea8383612dc0565b9150826002028217905092915050565b612e0382611d2e565b67ffffffffffffffff811115612e1c57612e1b6121e9565b5b612e2682546127bb565b612e31828285612d6d565b600060209050601f831160018114612e645760008415612e52578287015190505b612e5c8582612dde565b865550612ec4565b601f198416612e72866128b6565b60005b82811015612e9a57848901518255600182019150602085019450602081019050612e75565b86831015612eb75784890151612eb3601f891682612dc0565b8355505b6001600288020188555050505b50505050505056fea2646970667358221220667bab2a6fa5aee6faf64bb6fb41be11ff3e5a426e368edd9bc66af6c95db6bd64736f6c63430008130033",
  "linkReferences": {},
  "deployedLinkReferences": {}
}