{
  "_format": "hh-sol-artifact-1",
  "contractName": "BaggagePolicy",
  "sourceName": "contracts/BaggagePolicy.sol",
  "abi": [
    {
      "inputs": [
        {
          "internalType": "address",
          "name": "_oracleConnector",
          "type": "address"
        }
      ],
      "stateMutability": "nonpayable",
      "type": "constructor"
    },
    {
      "inputs": [
        {
          "internalType": "string",
          "name": "name",
          "type": "string"
        },
        {
          "internalType": "string",
          "name": "description",
          "type": "string"
        },
        {
          "internalType": "uint256",
          "name": "premium",
          "type": "uint256"
        },
        {
          "internalType": "uint256",
          "name": "payoutIfDelayed",
          "type": "uint256"
        },
        {
          "internalType": "uint256",
          "name": "payoutIfLost",
          "type": "uint256"
        },
        {
          "internalType": "uint256",
          "name": "delayThresholdHours",
          "type": "uint256"
        },
        {
          "internalType": "uint256",
          "name": "maxTotalPayout",
          "type": "uint256"
        },
        {
          "internalType": "uint256",
          "name": "minPayoutAmt",
          "type": "uint256"
        },
        {
          "internalType": "uint256",
          "name": "coverageDurationDays",
          "type": "uint256"
        }
      ],
      "name": "createPolicyTemplate",
      "outputs": [
        {
          "internalType": "uint256",
          "name": "",
          "type": "uint256"
        }
      ],
      "stateMutability": "nonpayable",
      "type": "function"
    },
    {
      "inputs": [
        {
          "internalType": "uint256",
          "name": "templateId",
          "type": "uint256"
        }
      ],
      "name": "deactivatePolicyTemplate",
      "outputs": [],
      "stateMutability": "nonpayable",
      "type": "function"
    },
    {
      "inputs": [],
      "name": "getActivePolicyTemplates",
      "outputs": [
        {
          "components": [
            {
              "internalType": "uint256",
              "name": "templateId",
              "type": "uint256"
            },
            {
              "internalType": "string",
              "name": "name",
              "type": "string"
            },
            {
              "internalType": "string",
              "name": "description",
              "type": "string"
            },
            {
              "internalType": "uint256",
              "name": "createdAt",
              "type": "uint256"
            },
            {
              "internalType": "uint256",
              "name": "premium",
              "type": "uint256"
            },
            {
              "internalType": "uint256",
              "name": "payoutIfDelayed",
              "type": "uint256"
            },
            {
              "internalType": "uint256",
              "name": "payoutIfLost",
              "type": "uint256"
            },
            {
              "internalType": "uint256",
              "name": "delayThresholdHours",
              "type": "uint256"
            },
            {
              "internalType": "uint256",
              "name": "maxTotalPayout",
              "type": "uint256"
            },
            {
              "internalType": "uint256",
              "name": "minPayoutAmt",
              "type": "uint256"
            },
            {
              "internalType": "uint256",
              "name": "coverageDurationDays",
              "type": "uint256"
            },
            {
              "internalType": "enum BaggagePolicy.PolicyTemplateStatus",
              "name": "status",
              "type": "uint8"
            }
          ],
          "internalType": "struct BaggagePolicy.PolicyTemplate[]",
          "name": "",
          "type": "tuple[]"
        }
      ],
      "stateMutability": "view",
      "type": "function"
    },
    {
      "inputs": [],
      "name": "getAllPolicies",
      "outputs": [
        {
          "components": [
            {
              "internalType": "uint256",
              "name": "policyId",
              "type": "uint256"
            },
            {
              "internalType": "uint256",
              "name": "templateId",
              "type": "uint256"
            },
            {
              "internalType": "uint256",
              "name": "createdAt",
              "type": "uint256"
            },
            {
              "internalType": "uint256",
              "name": "payoutToDate",
              "type": "uint256"
            },
            {
              "internalType": "address",
              "name": "buyer",
              "type": "address"
            },
            {
              "internalType": "enum BaggagePolicy.PolicyStatus",
              "name": "status",
              "type": "uint8"
            }
          ],
          "internalType": "struct BaggagePolicy.UserPolicy[]",
          "name": "",
          "type": "tuple[]"
        }
      ],
      "stateMutability": "view",
      "type": "function"
    },
    {
      "inputs": [],
      "name": "getAllPolicyTemplates",
      "outputs": [
        {
          "components": [
            {
              "internalType": "uint256",
              "name": "templateId",
              "type": "uint256"
            },
            {
              "internalType": "string",
              "name": "name",
              "type": "string"
            },
            {
              "internalType": "string",
              "name": "description",
              "type": "string"
            },
            {
              "internalType": "uint256",
              "name": "createdAt",
              "type": "uint256"
            },
            {
              "internalType": "uint256",
              "name": "premium",
              "type": "uint256"
            },
            {
              "internalType": "uint256",
              "name": "payoutIfDelayed",
              "type": "uint256"
            },
            {
              "internalType": "uint256",
              "name": "payoutIfLost",
              "type": "uint256"
            },
            {
              "internalType": "uint256",
              "name": "delayThresholdHours",
              "type": "uint256"
            },
            {
              "internalType": "uint256",
              "name": "maxTotalPayout",
              "type": "uint256"
            },
            {
              "internalType": "uint256",
              "name": "minPayoutAmt",
              "type": "uint256"
            },
            {
              "internalType": "uint256",
              "name": "coverageDurationDays",
              "type": "uint256"
            },
            {
              "internalType": "enum BaggagePolicy.PolicyTemplateStatus",
              "name": "status",
              "type": "uint8"
            }
          ],
          "internalType": "struct BaggagePolicy.PolicyTemplate[]",
          "name": "",
          "type": "tuple[]"
        }
      ],
      "stateMutability": "view",
      "type": "function"
    },
    {
      "inputs": [
        {
          "internalType": "uint256",
          "name": "templateId",
          "type": "uint256"
        }
      ],
      "name": "getPolicyTemplateById",
      "outputs": [
        {
          "components": [
            {
              "internalType": "uint256",
              "name": "templateId",
              "type": "uint256"
            },
            {
              "internalType": "string",
              "name": "name",
              "type": "string"
            },
            {
              "internalType": "string",
              "name": "description",
              "type": "string"
            },
            {
              "internalType": "uint256",
              "name": "createdAt",
              "type": "uint256"
            },
            {
              "internalType": "uint256",
              "name": "premium",
              "type": "uint256"
            },
            {
              "internalType": "uint256",
              "name": "payoutIfDelayed",
              "type": "uint256"
            },
            {
              "internalType": "uint256",
              "name": "payoutIfLost",
              "type": "uint256"
            },
            {
              "internalType": "uint256",
              "name": "delayThresholdHours",
              "type": "uint256"
            },
            {
              "internalType": "uint256",
              "name": "maxTotalPayout",
              "type": "uint256"
            },
            {
              "internalType": "uint256",
              "name": "minPayoutAmt",
              "type": "uint256"
            },
            {
              "internalType": "uint256",
              "name": "coverageDurationDays",
              "type": "uint256"
            },
            {
              "internalType": "enum BaggagePolicy.PolicyTemplateStatus",
              "name": "status",
              "type": "uint8"
            }
          ],
          "internalType": "struct BaggagePolicy.PolicyTemplate",
          "name": "",
          "type": "tuple"
        }
      ],
      "stateMutability": "view",
      "type": "function"
    },
    {
      "inputs": [
        {
          "internalType": "address",
          "name": "user",
          "type": "address"
        }
      ],
      "name": "getUserPolicies",
      "outputs": [
        {
          "components": [
            {
              "internalType": "uint256",
              "name": "policyId",
              "type": "uint256"
            },
            {
              "internalType": "uint256",
              "name": "templateId",
              "type": "uint256"
            },
            {
              "internalType": "uint256",
              "name": "createdAt",
              "type": "uint256"
            },
            {
              "internalType": "uint256",
              "name": "payoutToDate",
              "type": "uint256"
            },
            {
              "internalType": "address",
              "name": "buyer",
              "type": "address"
            },
            {
              "internalType": "enum BaggagePolicy.PolicyStatus",
              "name": "status",
              "type": "uint8"
            }
          ],
          "internalType": "struct BaggagePolicy.UserPolicy[]",
          "name": "",
          "type": "tuple[]"
        }
      ],
      "stateMutability": "view",
      "type": "function"
    },
    {
      "inputs": [
        {
          "internalType": "uint256",
          "name": "templateId",
          "type": "uint256"
        }
      ],
      "name": "getUserPoliciesByTemplate",
      "outputs": [
        {
          "components": [
            {
              "internalType": "uint256",
              "name": "policyId",
              "type": "uint256"
            },
            {
              "internalType": "uint256",
              "name": "templateId",
              "type": "uint256"
            },
            {
              "internalType": "uint256",
              "name": "createdAt",
              "type": "uint256"
            },
            {
              "internalType": "uint256",
              "name": "payoutToDate",
              "type": "uint256"
            },
            {
              "internalType": "address",
              "name": "buyer",
              "type": "address"
            },
            {
              "internalType": "enum BaggagePolicy.PolicyStatus",
              "name": "status",
              "type": "uint8"
            }
          ],
          "internalType": "struct BaggagePolicy.UserPolicy[]",
          "name": "",
          "type": "tuple[]"
        }
      ],
      "stateMutability": "view",
      "type": "function"
    },
    {
      "inputs": [
        {
          "internalType": "address",
          "name": "user",
          "type": "address"
        },
        {
          "internalType": "uint256",
          "name": "policyId",
          "type": "uint256"
        }
      ],
      "name": "getUserPolicyWithTemplate",
      "outputs": [
        {
          "components": [
            {
              "internalType": "uint256",
              "name": "policyId",
              "type": "uint256"
            },
            {
              "internalType": "uint256",
              "name": "templateId",
              "type": "uint256"
            },
            {
              "internalType": "uint256",
              "name": "createdAt",
              "type": "uint256"
            },
            {
              "internalType": "uint256",
              "name": "payoutToDate",
              "type": "uint256"
            },
            {
              "internalType": "address",
              "name": "buyer",
              "type": "address"
            },
            {
              "internalType": "enum BaggagePolicy.PolicyStatus",
              "name": "status",
              "type": "uint8"
            }
          ],
          "internalType": "struct BaggagePolicy.UserPolicy",
          "name": "",
          "type": "tuple"
        },
        {
          "components": [
            {
              "internalType": "uint256",
              "name": "templateId",
              "type": "uint256"
            },
            {
              "internalType": "string",
              "name": "name",
              "type": "string"
            },
            {
              "internalType": "string",
              "name": "description",
              "type": "string"
            },
            {
              "internalType": "uint256",
              "name": "createdAt",
              "type": "uint256"
            },
            {
              "internalType": "uint256",
              "name": "premium",
              "type": "uint256"
            },
            {
              "internalType": "uint256",
              "name": "payoutIfDelayed",
              "type": "uint256"
            },
            {
              "internalType": "uint256",
              "name": "payoutIfLost",
              "type": "uint256"
            },
            {
              "internalType": "uint256",
              "name": "delayThresholdHours",
              "type": "uint256"
            },
            {
              "internalType": "uint256",
              "name": "maxTotalPayout",
              "type": "uint256"
            },
            {
              "internalType": "uint256",
              "name": "minPayoutAmt",
              "type": "uint256"
            },
            {
              "internalType": "uint256",
              "name": "coverageDurationDays",
              "type": "uint256"
            },
            {
              "internalType": "enum BaggagePolicy.PolicyTemplateStatus",
              "name": "status",
              "type": "uint8"
            }
          ],
          "internalType": "struct BaggagePolicy.PolicyTemplate",
          "name": "",
          "type": "tuple"
        }
      ],
      "stateMutability": "view",
      "type": "function"
    },
    {
      "inputs": [],
      "name": "insurerAddress",
      "outputs": [
        {
          "internalType": "address",
          "name": "",
          "type": "address"
        }
      ],
      "stateMutability": "view",
      "type": "function"
    },
    {
      "inputs": [
        {
          "internalType": "uint256",
          "name": "policyId",
          "type": "uint256"
        }
      ],
      "name": "markPolicyAsExpired",
      "outputs": [],
      "stateMutability": "nonpayable",
      "type": "function"
    },
    {
      "inputs": [],
      "name": "nextPolicyTemplateId",
      "outputs": [
        {
          "internalType": "uint256",
          "name": "",
          "type": "uint256"
        }
      ],
      "stateMutability": "view",
      "type": "function"
    },
    {
      "inputs": [],
      "name": "nextUserPolicyId",
      "outputs": [
        {
          "internalType": "uint256",
          "name": "",
          "type": "uint256"
        }
      ],
      "stateMutability": "view",
      "type": "function"
    },
    {
      "inputs": [],
      "name": "oracleConnector",
      "outputs": [
        {
          "internalType": "contract OracleConnector",
          "name": "",
          "type": "address"
        }
      ],
      "stateMutability": "view",
      "type": "function"
    },
    {
      "inputs": [
        {
          "internalType": "uint256",
          "name": "",
          "type": "uint256"
        }
      ],
      "name": "policyTemplates",
      "outputs": [
        {
          "internalType": "uint256",
          "name": "templateId",
          "type": "uint256"
        },
        {
          "internalType": "string",
          "name": "name",
          "type": "string"
        },
        {
          "internalType": "string",
          "name": "description",
          "type": "string"
        },
        {
          "internalType": "uint256",
          "name": "createdAt",
          "type": "uint256"
        },
        {
          "internalType": "uint256",
          "name": "premium",
          "type": "uint256"
        },
        {
          "internalType": "uint256",
          "name": "payoutIfDelayed",
          "type": "uint256"
        },
        {
          "internalType": "uint256",
          "name": "payoutIfLost",
          "type": "uint256"
        },
        {
          "internalType": "uint256",
          "name": "delayThresholdHours",
          "type": "uint256"
        },
        {
          "internalType": "uint256",
          "name": "maxTotalPayout",
          "type": "uint256"
        },
        {
          "internalType": "uint256",
          "name": "minPayoutAmt",
          "type": "uint256"
        },
        {
          "internalType": "uint256",
          "name": "coverageDurationDays",
          "type": "uint256"
        },
        {
          "internalType": "enum BaggagePolicy.PolicyTemplateStatus",
          "name": "status",
          "type": "uint8"
        }
      ],
      "stateMutability": "view",
      "type": "function"
    },
    {
      "inputs": [
        {
          "internalType": "uint256",
          "name": "templateId",
          "type": "uint256"
        },
        {
          "internalType": "address",
          "name": "buyer",
          "type": "address"
        }
      ],
      "name": "purchasePolicy",
      "outputs": [
        {
          "internalType": "uint256",
          "name": "",
          "type": "uint256"
        }
      ],
      "stateMutability": "payable",
      "type": "function"
    },
    {
      "inputs": [
        {
          "internalType": "uint256",
          "name": "",
          "type": "uint256"
        }
      ],
      "name": "userPolicies",
      "outputs": [
        {
          "internalType": "uint256",
          "name": "policyId",
          "type": "uint256"
        },
        {
          "internalType": "uint256",
          "name": "templateId",
          "type": "uint256"
        },
        {
          "internalType": "uint256",
          "name": "createdAt",
          "type": "uint256"
        },
        {
          "internalType": "uint256",
          "name": "payoutToDate",
          "type": "uint256"
        },
        {
          "internalType": "address",
          "name": "buyer",
          "type": "address"
        },
        {
          "internalType": "enum BaggagePolicy.PolicyStatus",
          "name": "status",
          "type": "uint8"
        }
      ],
      "stateMutability": "view",
      "type": "function"
    },
    {
      "inputs": [
        {
          "internalType": "address",
          "name": "",
          "type": "address"
        },
        {
          "internalType": "uint256",
          "name": "",
          "type": "uint256"
        }
      ],
      "name": "userPolicyIds",
      "outputs": [
        {
          "internalType": "uint256",
          "name": "",
          "type": "uint256"
        }
      ],
      "stateMutability": "view",
      "type": "function"
    }
  ],
  "bytecode": "0x60a06040523480156200001157600080fd5b5060405162003ce938038062003ce9833981810160405281019062000037919062000125565b60016000819055503373ffffffffffffffffffffffffffffffffffffffff1660808173ffffffffffffffffffffffffffffffffffffffff168152505080600160006101000a81548173ffffffffffffffffffffffffffffffffffffffff021916908373ffffffffffffffffffffffffffffffffffffffff1602179055505062000157565b600080fd5b600073ffffffffffffffffffffffffffffffffffffffff82169050919050565b6000620000ed82620000c0565b9050919050565b620000ff81620000e0565b81146200010b57600080fd5b50565b6000815190506200011f81620000f4565b92915050565b6000602082840312156200013e576200013d620000bb565b5b60006200014e848285016200010e565b91505092915050565b608051613b4c6200019d600039600081816104b901528181610f1a01528181611123015281816116ac0152818161198b01528181611bdd0152611e910152613b4c6000f3fe6080604052600436106101085760003560e01c80639a9122ac11610095578063b6e283e111610064578063b6e283e1146103b7578063cba85f06146103f4578063cf39c62414610436578063d32970101461045f578063e79cdf1d1461048a57610108565b80639a9122ac146102e7578063a098b8dd14610312578063a7c0900e1461034f578063b55d4a2f1461037a57610108565b8063457e5521116100dc578063457e5521146101fb578063482ab1021461022657806350886e7d1461024f5780635990fa361461027f5780637b956415146102bc57610108565b8062c84c041461010d57806313e896b61461013857806319ac4614146101765780633147b2cc146101b3575b600080fd5b34801561011957600080fd5b506101226104b5565b60405161012f9190612989565b60405180910390f35b34801561014457600080fd5b5061015f600480360381019061015a9190612a49565b6107bd565b60405161016d929190612c66565b60405180910390f35b34801561018257600080fd5b5061019d60048036038101906101989190612c96565b610b7f565b6040516101aa9190612ded565b60405180910390f35b3480156101bf57600080fd5b506101da60048036038101906101d59190612e0f565b610d99565b6040516101f29c9b9a99989796959493929190612ea4565b60405180910390f35b34801561020757600080fd5b50610210610f16565b60405161021d9190612ded565b60405180910390f35b34801561023257600080fd5b5061024d60048036038101906102489190612e0f565b611121565b005b61026960048036038101906102649190612f6c565b611235565b6040516102769190612fac565b60405180910390f35b34801561028b57600080fd5b506102a660048036038101906102a19190612e0f565b6116a2565b6040516102b39190612fc7565b60405180910390f35b3480156102c857600080fd5b506102d161195b565b6040516102de9190612fac565b60405180910390f35b3480156102f357600080fd5b506102fc611961565b6040516103099190613048565b60405180910390f35b34801561031e57600080fd5b5061033960048036038101906103349190613198565b611987565b6040516103469190612fac565b60405180910390f35b34801561035b57600080fd5b50610364611bdb565b60405161037191906132a9565b60405180910390f35b34801561038657600080fd5b506103a1600480360381019061039c9190612e0f565b611bff565b6040516103ae9190612ded565b60405180910390f35b3480156103c357600080fd5b506103de60048036038101906103d99190612a49565b611df5565b6040516103eb9190612fac565b60405180910390f35b34801561040057600080fd5b5061041b60048036038101906104169190612e0f565b611e26565b60405161042d969594939291906132d3565b60405180910390f35b34801561044257600080fd5b5061045d60048036038101906104589190612e0f565b611e8f565b005b34801561046b57600080fd5b5061047461226c565b6040516104819190612fac565b60405180910390f35b34801561049657600080fd5b5061049f612272565b6040516104ac9190612989565b60405180910390f35b60607f000000000000000000000000000000000000000000000000000000000000000073ffffffffffffffffffffffffffffffffffffffff163273ffffffffffffffffffffffffffffffffffffffff1614610545576040517f08c379a000000000000000000000000000000000000000000000000000000000815260040161053c906133a6565b60405180910390fd5b600060035467ffffffffffffffff8111156105635761056261306d565b5b60405190808252806020026020018201604052801561059c57816020015b6105896125cb565b8152602001906001900390816105815790505b50905060005b6003548110156107b5576002600082815260200190815260200160002060405180610180016040529081600082015481526020016001820180546105e5906133f5565b80601f0160208091040260200160405190810160405280929190818152602001828054610611906133f5565b801561065e5780601f106106335761010080835404028352916020019161065e565b820191906000526020600020905b81548152906001019060200180831161064157829003601f168201915b50505050508152602001600282018054610677906133f5565b80601f01602080910402602001604051908101604052809291908181526020018280546106a3906133f5565b80156106f05780601f106106c5576101008083540402835291602001916106f0565b820191906000526020600020905b8154815290600101906020018083116106d357829003601f168201915b5050505050815260200160038201548152602001600482015481526020016005820154815260200160068201548152602001600782015481526020016008820154815260200160098201548152602001600a8201548152602001600b820160009054906101000a900460ff16600181111561076e5761076d612771565b5b60018111156107805761077f612771565b5b8152505082828151811061079757610796613426565b5b602002602001018190525080806107ad90613484565b9150506105a2565b508091505090565b6107c561263e565b6107cd6125cb565b6006548310610811576040517f08c379a000000000000000000000000000000000000000000000000000000000815260040161080890613518565b60405180910390fd5b8373ffffffffffffffffffffffffffffffffffffffff166004600085815260200190815260200160002060040160009054906101000a900473ffffffffffffffffffffffffffffffffffffffff1673ffffffffffffffffffffffffffffffffffffffff16146108b5576040517f08c379a00000000000000000000000000000000000000000000000000000000081526004016108ac90613584565b60405180910390fd5b6000600460008581526020019081526020016000206040518060c0016040529081600082015481526020016001820154815260200160028201548152602001600382015481526020016004820160009054906101000a900473ffffffffffffffffffffffffffffffffffffffff1673ffffffffffffffffffffffffffffffffffffffff1673ffffffffffffffffffffffffffffffffffffffff1681526020016004820160149054906101000a900460ff16600281111561097857610977612771565b5b600281111561098a57610989612771565b5b8152505090506000600260008360200151815260200190815260200160002060405180610180016040529081600082015481526020016001820180546109cf906133f5565b80601f01602080910402602001604051908101604052809291908181526020018280546109fb906133f5565b8015610a485780601f10610a1d57610100808354040283529160200191610a48565b820191906000526020600020905b815481529060010190602001808311610a2b57829003601f168201915b50505050508152602001600282018054610a61906133f5565b80601f0160208091040260200160405190810160405280929190818152602001828054610a8d906133f5565b8015610ada5780601f10610aaf57610100808354040283529160200191610ada565b820191906000526020600020905b815481529060010190602001808311610abd57829003601f168201915b5050505050815260200160038201548152602001600482015481526020016005820154815260200160068201548152602001600782015481526020016008820154815260200160098201548152602001600a8201548152602001600b820160009054906101000a900460ff166001811115610b5857610b57612771565b5b6001811115610b6a57610b69612771565b5b81525050905081819350935050509250929050565b60606000600560008473ffffffffffffffffffffffffffffffffffffffff1673ffffffffffffffffffffffffffffffffffffffff16815260200190815260200160002080549050905060008167ffffffffffffffff811115610be457610be361306d565b5b604051908082528060200260200182016040528015610c1d57816020015b610c0a61263e565b815260200190600190039081610c025790505b50905060005b82811015610d8e5760046000600560008873ffffffffffffffffffffffffffffffffffffffff1673ffffffffffffffffffffffffffffffffffffffff1681526020019081526020016000208381548110610c8057610c7f613426565b5b906000526020600020015481526020019081526020016000206040518060c0016040529081600082015481526020016001820154815260200160028201548152602001600382015481526020016004820160009054906101000a900473ffffffffffffffffffffffffffffffffffffffff1673ffffffffffffffffffffffffffffffffffffffff1673ffffffffffffffffffffffffffffffffffffffff1681526020016004820160149054906101000a900460ff166002811115610d4757610d46612771565b5b6002811115610d5957610d58612771565b5b81525050828281518110610d7057610d6f613426565b5b60200260200101819052508080610d8690613484565b915050610c23565b508092505050919050565b6002602052806000526040600020600091509050806000015490806001018054610dc2906133f5565b80601f0160208091040260200160405190810160405280929190818152602001828054610dee906133f5565b8015610e3b5780601f10610e1057610100808354040283529160200191610e3b565b820191906000526020600020905b815481529060010190602001808311610e1e57829003601f168201915b505050505090806002018054610e50906133f5565b80601f0160208091040260200160405190810160405280929190818152602001828054610e7c906133f5565b8015610ec95780601f10610e9e57610100808354040283529160200191610ec9565b820191906000526020600020905b815481529060010190602001808311610eac57829003601f168201915b50505050509080600301549080600401549080600501549080600601549080600701549080600801549080600901549080600a01549080600b0160009054906101000a900460ff1690508c565b60607f000000000000000000000000000000000000000000000000000000000000000073ffffffffffffffffffffffffffffffffffffffff163273ffffffffffffffffffffffffffffffffffffffff1614610fa6576040517f08c379a0000000000000000000000000000000000000000000000000000000008152600401610f9d906133a6565b60405180910390fd5b6000600654905060008167ffffffffffffffff811115610fc957610fc861306d565b5b60405190808252806020026020018201604052801561100257816020015b610fef61263e565b815260200190600190039081610fe75790505b50905060005b8281101561111857600460008281526020019081526020016000206040518060c0016040529081600082015481526020016001820154815260200160028201548152602001600382015481526020016004820160009054906101000a900473ffffffffffffffffffffffffffffffffffffffff1673ffffffffffffffffffffffffffffffffffffffff1673ffffffffffffffffffffffffffffffffffffffff1681526020016004820160149054906101000a900460ff1660028111156110d1576110d0612771565b5b60028111156110e3576110e2612771565b5b815250508282815181106110fa576110f9613426565b5b6020026020010181905250808061111090613484565b915050611008565b50809250505090565b7f000000000000000000000000000000000000000000000000000000000000000073ffffffffffffffffffffffffffffffffffffffff163273ffffffffffffffffffffffffffffffffffffffff16146111af576040517f08c379a00000000000000000000000000000000000000000000000000000000081526004016111a6906133a6565b60405180910390fd5b60035481106111f3576040517f08c379a00000000000000000000000000000000000000000000000000000000081526004016111ea906135f0565b60405180910390fd5b600160026000838152602001908152602001600020600b0160006101000a81548160ff0219169083600181111561122d5761122c612771565b5b021790555050565b6000600354831061127b576040517f08c379a0000000000000000000000000000000000000000000000000000000008152600401611272906135f0565b60405180910390fd5b60006002600085815260200190815260200160002060405180610180016040529081600082015481526020016001820180546112b6906133f5565b80601f01602080910402602001604051908101604052809291908181526020018280546112e2906133f5565b801561132f5780601f106113045761010080835404028352916020019161132f565b820191906000526020600020905b81548152906001019060200180831161131257829003601f168201915b50505050508152602001600282018054611348906133f5565b80601f0160208091040260200160405190810160405280929190818152602001828054611374906133f5565b80156113c15780601f10611396576101008083540402835291602001916113c1565b820191906000526020600020905b8154815290600101906020018083116113a457829003601f168201915b5050505050815260200160038201548152602001600482015481526020016005820154815260200160068201548152602001600782015481526020016008820154815260200160098201548152602001600a8201548152602001600b820160009054906101000a900460ff16600181111561143f5761143e612771565b5b600181111561145157611450612771565b5b8152505090506000600181111561146b5761146a612771565b5b816101600151600181111561148357611482612771565b5b146114c3576040517f08c379a00000000000000000000000000000000000000000000000000000000081526004016114ba9061365c565b60405180910390fd5b806080015134101561150a576040517f08c379a0000000000000000000000000000000000000000000000000000000008152600401611501906136c8565b60405180910390fd5b60006006600081548092919061151f90613484565b9190505590506040518060c00160405280828152602001868152602001428152602001600081526020018573ffffffffffffffffffffffffffffffffffffffff1681526020016000600281111561157957611578612771565b5b815250600460008381526020019081526020016000206000820151816000015560208201518160010155604082015181600201556060820151816003015560808201518160040160006101000a81548173ffffffffffffffffffffffffffffffffffffffff021916908373ffffffffffffffffffffffffffffffffffffffff16021790555060a08201518160040160146101000a81548160ff0219169083600281111561162957611628612771565b5b0217905550905050600560008573ffffffffffffffffffffffffffffffffffffffff1673ffffffffffffffffffffffffffffffffffffffff168152602001908152602001600020819080600181540180825580915050600190039060005260206000200160009091909190915055809250505092915050565b6116aa6125cb565b7f000000000000000000000000000000000000000000000000000000000000000073ffffffffffffffffffffffffffffffffffffffff163273ffffffffffffffffffffffffffffffffffffffff1614611738576040517f08c379a000000000000000000000000000000000000000000000000000000000815260040161172f906133a6565b60405180910390fd5b600354821061177c576040517f08c379a000000000000000000000000000000000000000000000000000000000815260040161177390613734565b60405180910390fd5b6002600083815260200190815260200160002060405180610180016040529081600082015481526020016001820180546117b5906133f5565b80601f01602080910402602001604051908101604052809291908181526020018280546117e1906133f5565b801561182e5780601f106118035761010080835404028352916020019161182e565b820191906000526020600020905b81548152906001019060200180831161181157829003601f168201915b50505050508152602001600282018054611847906133f5565b80601f0160208091040260200160405190810160405280929190818152602001828054611873906133f5565b80156118c05780601f10611895576101008083540402835291602001916118c0565b820191906000526020600020905b8154815290600101906020018083116118a357829003601f168201915b5050505050815260200160038201548152602001600482015481526020016005820154815260200160068201548152602001600782015481526020016008820154815260200160098201548152602001600a8201548152602001600b820160009054906101000a900460ff16600181111561193e5761193d612771565b5b60018111156119505761194f612771565b5b815250509050919050565b60065481565b600160009054906101000a900473ffffffffffffffffffffffffffffffffffffffff1681565b60007f000000000000000000000000000000000000000000000000000000000000000073ffffffffffffffffffffffffffffffffffffffff163273ffffffffffffffffffffffffffffffffffffffff1614611a17576040517f08c379a0000000000000000000000000000000000000000000000000000000008152600401611a0e906133a6565b60405180910390fd5b600060035490506040518061018001604052808281526020018c81526020018b8152602001428152602001670de0b6b3a76400008b611a569190613754565b8152602001670de0b6b3a76400008a611a6f9190613754565b8152602001670de0b6b3a764000089611a889190613754565b8152602001878152602001670de0b6b3a764000087611aa79190613754565b8152602001670de0b6b3a764000086611ac09190613754565b815260200184815260200160006001811115611adf57611ade612771565b5b81525060026000838152602001908152602001600020600082015181600001556020820151816001019081611b149190613938565b506040820151816002019081611b2a9190613938565b50606082015181600301556080820151816004015560a0820151816005015560c0820151816006015560e082015181600701556101008201518160080155610120820151816009015561014082015181600a015561016082015181600b0160006101000a81548160ff02191690836001811115611baa57611ba9612771565b5b021790555090505060036000815480929190611bc590613484565b9190505550809150509998505050505050505050565b7f000000000000000000000000000000000000000000000000000000000000000081565b60606000805b600654811015611c4e5783600460008381526020019081526020016000206001015403611c3b578180611c3790613484565b9250505b8080611c4690613484565b915050611c05565b5060008167ffffffffffffffff811115611c6b57611c6a61306d565b5b604051908082528060200260200182016040528015611ca457816020015b611c9161263e565b815260200190600190039081611c895790505b5090506000805b600654811015611de95785600460008381526020019081526020016000206001015403611dd657600460008281526020019081526020016000206040518060c0016040529081600082015481526020016001820154815260200160028201548152602001600382015481526020016004820160009054906101000a900473ffffffffffffffffffffffffffffffffffffffff1673ffffffffffffffffffffffffffffffffffffffff1673ffffffffffffffffffffffffffffffffffffffff1681526020016004820160149054906101000a900460ff166002811115611d9357611d92612771565b5b6002811115611da557611da4612771565b5b81525050838381518110611dbc57611dbb613426565b5b60200260200101819052508180611dd290613484565b9250505b8080611de190613484565b915050611cab565b50819350505050919050565b60056020528160005260406000208181548110611e1157600080fd5b90600052602060002001600091509150505481565b60046020528060005260406000206000915090508060000154908060010154908060020154908060030154908060040160009054906101000a900473ffffffffffffffffffffffffffffffffffffffff16908060040160149054906101000a900460ff16905086565b7f000000000000000000000000000000000000000000000000000000000000000073ffffffffffffffffffffffffffffffffffffffff163273ffffffffffffffffffffffffffffffffffffffff1614611f1d576040517f08c379a0000000000000000000000000000000000000000000000000000000008152600401611f14906133a6565b60405180910390fd5b6006548110611f61576040517f08c379a0000000000000000000000000000000000000000000000000000000008152600401611f5890613518565b60405180910390fd5b600060046000838152602001908152602001600020905060006002811115611f8c57611f8b612771565b5b8160040160149054906101000a900460ff166002811115611fb057611faf612771565b5b14611ff0576040517f08c379a0000000000000000000000000000000000000000000000000000000008152600401611fe790613a56565b60405180910390fd5b60006002600083600101548152602001908152602001600020604051806101800160405290816000820154815260200160018201805461202f906133f5565b80601f016020809104026020016040519081016040528092919081815260200182805461205b906133f5565b80156120a85780601f1061207d576101008083540402835291602001916120a8565b820191906000526020600020905b81548152906001019060200180831161208b57829003601f168201915b505050505081526020016002820180546120c1906133f5565b80601f01602080910402602001604051908101604052809291908181526020018280546120ed906133f5565b801561213a5780601f1061210f5761010080835404028352916020019161213a565b820191906000526020600020905b81548152906001019060200180831161211d57829003601f168201915b5050505050815260200160038201548152602001600482015481526020016005820154815260200160068201548152602001600782015481526020016008820154815260200160098201548152602001600a8201548152602001600b820160009054906101000a900460ff1660018111156121b8576121b7612771565b5b60018111156121ca576121c9612771565b5b8152505090506000620151808261014001516121e69190613754565b83600201546121f59190613a76565b9050804211612239576040517f08c379a000000000000000000000000000000000000000000000000000000000815260040161223090613af6565b60405180910390fd5b60018360040160146101000a81548160ff0219169083600281111561226157612260612771565b5b021790555050505050565b60035481565b60606000805b6003548110156122f3576000600181111561229657612295612771565b5b60026000838152602001908152602001600020600b0160009054906101000a900460ff1660018111156122cc576122cb612771565b5b036122e05781806122dc90613484565b9250505b80806122eb90613484565b915050612278565b5060008167ffffffffffffffff8111156123105761230f61306d565b5b60405190808252806020026020018201604052801561234957816020015b6123366125cb565b81526020019060019003908161232e5790505b5090506000805b6003548110156125c1576000600181111561236e5761236d612771565b5b60026000838152602001908152602001600020600b0160009054906101000a900460ff1660018111156123a4576123a3612771565b5b036125ae576002600082815260200190815260200160002060405180610180016040529081600082015481526020016001820180546123e2906133f5565b80601f016020809104026020016040519081016040528092919081815260200182805461240e906133f5565b801561245b5780601f106124305761010080835404028352916020019161245b565b820191906000526020600020905b81548152906001019060200180831161243e57829003601f168201915b50505050508152602001600282018054612474906133f5565b80601f01602080910402602001604051908101604052809291908181526020018280546124a0906133f5565b80156124ed5780601f106124c2576101008083540402835291602001916124ed565b820191906000526020600020905b8154815290600101906020018083116124d057829003601f168201915b5050505050815260200160038201548152602001600482015481526020016005820154815260200160068201548152602001600782015481526020016008820154815260200160098201548152602001600a8201548152602001600b820160009054906101000a900460ff16600181111561256b5761256a612771565b5b600181111561257d5761257c612771565b5b8152505083838151811061259457612593613426565b5b602002602001018190525081806125aa90613484565b9250505b80806125b990613484565b915050612350565b5081935050505090565b60405180610180016040528060008152602001606081526020016060815260200160008152602001600081526020016000815260200160008152602001600081526020016000815260200160008152602001600081526020016000600181111561263857612637612771565b5b81525090565b6040518060c0016040528060008152602001600081526020016000815260200160008152602001600073ffffffffffffffffffffffffffffffffffffffff1681526020016000600281111561269657612695612771565b5b81525090565b600081519050919050565b600082825260208201905092915050565b6000819050602082019050919050565b6000819050919050565b6126db816126c8565b82525050565b600081519050919050565b600082825260208201905092915050565b60005b8381101561271b578082015181840152602081019050612700565b60008484015250505050565b6000601f19601f8301169050919050565b6000612743826126e1565b61274d81856126ec565b935061275d8185602086016126fd565b61276681612727565b840191505092915050565b7f4e487b7100000000000000000000000000000000000000000000000000000000600052602160045260246000fd5b600281106127b1576127b0612771565b5b50565b60008190506127c2826127a0565b919050565b60006127d2826127b4565b9050919050565b6127e2816127c7565b82525050565b60006101808301600083015161280160008601826126d2565b50602083015184820360208601526128198282612738565b915050604083015184820360408601526128338282612738565b915050606083015161284860608601826126d2565b50608083015161285b60808601826126d2565b5060a083015161286e60a08601826126d2565b5060c083015161288160c08601826126d2565b5060e083015161289460e08601826126d2565b506101008301516128a96101008601826126d2565b506101208301516128be6101208601826126d2565b506101408301516128d36101408601826126d2565b506101608301516128e86101608601826127d9565b508091505092915050565b60006128ff83836127e8565b905092915050565b6000602082019050919050565b600061291f8261269c565b61292981856126a7565b93508360208202850161293b856126b8565b8060005b85811015612977578484038952815161295885826128f3565b945061296383612907565b925060208a0199505060018101905061293f565b50829750879550505050505092915050565b600060208201905081810360008301526129a38184612914565b905092915050565b6000604051905090565b600080fd5b600080fd5b600073ffffffffffffffffffffffffffffffffffffffff82169050919050565b60006129ea826129bf565b9050919050565b6129fa816129df565b8114612a0557600080fd5b50565b600081359050612a17816129f1565b92915050565b612a26816126c8565b8114612a3157600080fd5b50565b600081359050612a4381612a1d565b92915050565b60008060408385031215612a6057612a5f6129b5565b5b6000612a6e85828601612a08565b9250506020612a7f85828601612a34565b9150509250929050565b612a92816129df565b82525050565b60038110612aa957612aa8612771565b5b50565b6000819050612aba82612a98565b919050565b6000612aca82612aac565b9050919050565b612ada81612abf565b82525050565b60c082016000820151612af660008501826126d2565b506020820151612b0960208501826126d2565b506040820151612b1c60408501826126d2565b506060820151612b2f60608501826126d2565b506080820151612b426080850182612a89565b5060a0820151612b5560a0850182612ad1565b50505050565b600061018083016000830151612b7460008601826126d2565b5060208301518482036020860152612b8c8282612738565b91505060408301518482036040860152612ba68282612738565b9150506060830151612bbb60608601826126d2565b506080830151612bce60808601826126d2565b5060a0830151612be160a08601826126d2565b5060c0830151612bf460c08601826126d2565b5060e0830151612c0760e08601826126d2565b50610100830151612c1c6101008601826126d2565b50610120830151612c316101208601826126d2565b50610140830151612c466101408601826126d2565b50610160830151612c5b6101608601826127d9565b508091505092915050565b600060e082019050612c7b6000830185612ae0565b81810360c0830152612c8d8184612b5b565b90509392505050565b600060208284031215612cac57612cab6129b5565b5b6000612cba84828501612a08565b91505092915050565b600081519050919050565b600082825260208201905092915050565b6000819050602082019050919050565b60c082016000820151612d0560008501826126d2565b506020820151612d1860208501826126d2565b506040820151612d2b60408501826126d2565b506060820151612d3e60608501826126d2565b506080820151612d516080850182612a89565b5060a0820151612d6460a0850182612ad1565b50505050565b6000612d768383612cef565b60c08301905092915050565b6000602082019050919050565b6000612d9a82612cc3565b612da48185612cce565b9350612daf83612cdf565b8060005b83811015612de0578151612dc78882612d6a565b9750612dd283612d82565b925050600181019050612db3565b5085935050505092915050565b60006020820190508181036000830152612e078184612d8f565b905092915050565b600060208284031215612e2557612e246129b5565b5b6000612e3384828501612a34565b91505092915050565b612e45816126c8565b82525050565b600082825260208201905092915050565b6000612e67826126e1565b612e718185612e4b565b9350612e818185602086016126fd565b612e8a81612727565b840191505092915050565b612e9e816127c7565b82525050565b600061018082019050612eba600083018f612e3c565b8181036020830152612ecc818e612e5c565b90508181036040830152612ee0818d612e5c565b9050612eef606083018c612e3c565b612efc608083018b612e3c565b612f0960a083018a612e3c565b612f1660c0830189612e3c565b612f2360e0830188612e3c565b612f31610100830187612e3c565b612f3f610120830186612e3c565b612f4d610140830185612e3c565b612f5b610160830184612e95565b9d9c50505050505050505050505050565b60008060408385031215612f8357612f826129b5565b5b6000612f9185828601612a34565b9250506020612fa285828601612a08565b9150509250929050565b6000602082019050612fc16000830184612e3c565b92915050565b60006020820190508181036000830152612fe18184612b5b565b905092915050565b6000819050919050565b600061300e613009613004846129bf565b612fe9565b6129bf565b9050919050565b600061302082612ff3565b9050919050565b600061303282613015565b9050919050565b61304281613027565b82525050565b600060208201905061305d6000830184613039565b92915050565b600080fd5b600080fd5b7f4e487b7100000000000000000000000000000000000000000000000000000000600052604160045260246000fd5b6130a582612727565b810181811067ffffffffffffffff821117156130c4576130c361306d565b5b80604052505050565b60006130d76129ab565b90506130e3828261309c565b919050565b600067ffffffffffffffff8211156131035761310261306d565b5b61310c82612727565b9050602081019050919050565b82818337600083830152505050565b600061313b613136846130e8565b6130cd565b90508281526020810184848401111561315757613156613068565b5b613162848285613119565b509392505050565b600082601f83011261317f5761317e613063565b5b813561318f848260208601613128565b91505092915050565b60008060008060008060008060006101208a8c0312156131bb576131ba6129b5565b5b60008a013567ffffffffffffffff8111156131d9576131d86129ba565b5b6131e58c828d0161316a565b99505060208a013567ffffffffffffffff811115613206576132056129ba565b5b6132128c828d0161316a565b98505060406132238c828d01612a34565b97505060606132348c828d01612a34565b96505060806132458c828d01612a34565b95505060a06132568c828d01612a34565b94505060c06132678c828d01612a34565b93505060e06132788c828d01612a34565b92505061010061328a8c828d01612a34565b9150509295985092959850929598565b6132a3816129df565b82525050565b60006020820190506132be600083018461329a565b92915050565b6132cd81612abf565b82525050565b600060c0820190506132e86000830189612e3c565b6132f56020830188612e3c565b6133026040830187612e3c565b61330f6060830186612e3c565b61331c608083018561329a565b61332960a08301846132c4565b979650505050505050565b7f466c69676874506f6c6963793a204f6e6c792074686520696e7375726572206360008201527f616e2063616c6c20746869732066756e6374696f6e0000000000000000000000602082015250565b6000613390603583612e4b565b915061339b82613334565b604082019050919050565b600060208201905081810360008301526133bf81613383565b9050919050565b7f4e487b7100000000000000000000000000000000000000000000000000000000600052602260045260246000fd5b6000600282049050600182168061340d57607f821691505b6020821081036134205761341f6133c6565b5b50919050565b7f4e487b7100000000000000000000000000000000000000000000000000000000600052603260045260246000fd5b7f4e487b7100000000000000000000000000000000000000000000000000000000600052601160045260246000fd5b600061348f826126c8565b91507fffffffffffffffffffffffffffffffffffffffffffffffffffffffffffffffff82036134c1576134c0613455565b5b600182019050919050565b7f496e76616c696420706f6c696379496400000000000000000000000000000000600082015250565b6000613502601083612e4b565b915061350d826134cc565b602082019050919050565b60006020820190508181036000830152613531816134f5565b9050919050565b7f4e6f7420796f757220706f6c6963790000000000000000000000000000000000600082015250565b600061356e600f83612e4b565b915061357982613538565b602082019050919050565b6000602082019050818103600083015261359d81613561565b9050919050565b7f496e76616c69642074656d706c61746549640000000000000000000000000000600082015250565b60006135da601283612e4b565b91506135e5826135a4565b602082019050919050565b60006020820190508181036000830152613609816135cd565b9050919050565b7f506f6c6963792074656d706c617465206973206e6f7420616374697665000000600082015250565b6000613646601d83612e4b565b915061365182613610565b602082019050919050565b6000602082019050818103600083015261367581613639565b9050919050565b7f496e73756666696369656e74207072656d69756d2073656e7400000000000000600082015250565b60006136b2601983612e4b565b91506136bd8261367c565b602082019050919050565b600060208201905081810360008301526136e1816136a5565b9050919050565b7f54656d706c61746520646f6573206e6f74206578697374000000000000000000600082015250565b600061371e601783612e4b565b9150613729826136e8565b602082019050919050565b6000602082019050818103600083015261374d81613711565b9050919050565b600061375f826126c8565b915061376a836126c8565b9250828202613778816126c8565b9150828204841483151761378f5761378e613455565b5b5092915050565b60008190508160005260206000209050919050565b60006020601f8301049050919050565b600082821b905092915050565b6000600883026137f87fffffffffffffffffffffffffffffffffffffffffffffffffffffffffffffffff826137bb565b61380286836137bb565b95508019841693508086168417925050509392505050565b600061383561383061382b846126c8565b612fe9565b6126c8565b9050919050565b6000819050919050565b61384f8361381a565b61386361385b8261383c565b8484546137c8565b825550505050565b600090565b61387861386b565b613883818484613846565b505050565b5b818110156138a75761389c600082613870565b600181019050613889565b5050565b601f8211156138ec576138bd81613796565b6138c6846137ab565b810160208510156138d5578190505b6138e96138e1856137ab565b830182613888565b50505b505050565b600082821c905092915050565b600061390f600019846008026138f1565b1980831691505092915050565b600061392883836138fe565b9150826002028217905092915050565b613941826126e1565b67ffffffffffffffff81111561395a5761395961306d565b5b61396482546133f5565b61396f8282856138ab565b600060209050601f8311600181146139a25760008415613990578287015190505b61399a858261391c565b865550613a02565b601f1984166139b086613796565b60005b828110156139d8578489015182556001820191506020850194506020810190506139b3565b868310156139f557848901516139f1601f8916826138fe565b8355505b6001600288020188555050505b505050505050565b7f506f6c696379206973206e6f7420616374697665000000000000000000000000600082015250565b6000613a40601483612e4b565b9150613a4b82613a0a565b602082019050919050565b60006020820190508181036000830152613a6f81613a33565b9050919050565b6000613a81826126c8565b9150613a8c836126c8565b9250828201905080821115613aa457613aa3613455565b5b92915050565b7f506f6c69637920686173206e6f74206578706972656420796574000000000000600082015250565b6000613ae0601a83612e4b565b9150613aeb82613aaa565b602082019050919050565b60006020820190508181036000830152613b0f81613ad3565b905091905056fea2646970667358221220e745e7940a4edc0a3716547d8fbd5f46eb130e794244a81a50afa80bc6035ea464736f6c63430008130033",
  "linkReferences": {},
  "deployedLinkReferences": {}
}