{
  "_format": "hh-sol-artifact-1",
  "contractName": "BaggagePolicy",
  "sourceName": "contracts/BaggagePolicy.sol",
  "abi": [
    {
      "inputs": [
        {
          "internalType": "address",
          "name": "_oracleConnector",
          "type": "address"
        }
      ],
      "stateMutability": "nonpayable",
      "type": "constructor"
    },
    {
      "inputs": [
        {
          "internalType": "uint256",
          "name": "currentTime",
          "type": "uint256"
        }
      ],
      "name": "getAllPolicies",
      "outputs": [
        {
          "components": [
            {
              "internalType": "uint256",
              "name": "policyId",
              "type": "uint256"
            },
            {
              "components": [
                {
                  "internalType": "string",
                  "name": "templateId",
                  "type": "string"
                },
                {
                  "internalType": "string",
                  "name": "name",
                  "type": "string"
                },
                {
                  "internalType": "string",
                  "name": "description",
                  "type": "string"
                },
                {
                  "internalType": "uint256",
                  "name": "createdAt",
                  "type": "uint256"
                },
                {
                  "internalType": "uint256",
                  "name": "updatedAt",
                  "type": "uint256"
                },
                {
                  "internalType": "uint256",
                  "name": "premium",
                  "type": "uint256"
                },
                {
                  "internalType": "uint256",
                  "name": "payoutIfDelayed",
                  "type": "uint256"
                },
                {
                  "internalType": "uint256",
                  "name": "payoutIfLost",
                  "type": "uint256"
                },
                {
                  "internalType": "uint256",
                  "name": "maxTotalPayout",
                  "type": "uint256"
                },
                {
                  "internalType": "uint256",
                  "name": "coverageDurationSeconds",
                  "type": "uint256"
                },
                {
                  "internalType": "enum BaggagePolicy.PolicyTemplateStatus",
                  "name": "status",
                  "type": "uint8"
                }
              ],
              "internalType": "struct BaggagePolicy.PolicyTemplate",
              "name": "template",
              "type": "tuple"
            },
            {
              "internalType": "string",
              "name": "itemDescription",
              "type": "string"
            },
            {
              "internalType": "uint256",
              "name": "createdAt",
              "type": "uint256"
            },
            {
              "internalType": "uint256",
              "name": "payoutToDate",
              "type": "uint256"
            },
            {
              "internalType": "address",
              "name": "buyer",
              "type": "address"
            },
            {
              "internalType": "enum BaggagePolicy.PolicyStatus",
              "name": "status",
              "type": "uint8"
            }
          ],
          "internalType": "struct BaggagePolicy.UserPolicy[]",
          "name": "",
          "type": "tuple[]"
        }
      ],
      "stateMutability": "view",
      "type": "function"
    },
    {
      "inputs": [
        {
          "internalType": "address",
          "name": "user",
          "type": "address"
        },
        {
          "internalType": "uint256",
          "name": "currentTime",
          "type": "uint256"
        }
      ],
      "name": "getUserPolicies",
      "outputs": [
        {
          "components": [
            {
              "internalType": "uint256",
              "name": "policyId",
              "type": "uint256"
            },
            {
              "components": [
                {
                  "internalType": "string",
                  "name": "templateId",
                  "type": "string"
                },
                {
                  "internalType": "string",
                  "name": "name",
                  "type": "string"
                },
                {
                  "internalType": "string",
                  "name": "description",
                  "type": "string"
                },
                {
                  "internalType": "uint256",
                  "name": "createdAt",
                  "type": "uint256"
                },
                {
                  "internalType": "uint256",
                  "name": "updatedAt",
                  "type": "uint256"
                },
                {
                  "internalType": "uint256",
                  "name": "premium",
                  "type": "uint256"
                },
                {
                  "internalType": "uint256",
                  "name": "payoutIfDelayed",
                  "type": "uint256"
                },
                {
                  "internalType": "uint256",
                  "name": "payoutIfLost",
                  "type": "uint256"
                },
                {
                  "internalType": "uint256",
                  "name": "maxTotalPayout",
                  "type": "uint256"
                },
                {
                  "internalType": "uint256",
                  "name": "coverageDurationSeconds",
                  "type": "uint256"
                },
                {
                  "internalType": "enum BaggagePolicy.PolicyTemplateStatus",
                  "name": "status",
                  "type": "uint8"
                }
              ],
              "internalType": "struct BaggagePolicy.PolicyTemplate",
              "name": "template",
              "type": "tuple"
            },
            {
              "internalType": "string",
              "name": "itemDescription",
              "type": "string"
            },
            {
              "internalType": "uint256",
              "name": "createdAt",
              "type": "uint256"
            },
            {
              "internalType": "uint256",
              "name": "payoutToDate",
              "type": "uint256"
            },
            {
              "internalType": "address",
              "name": "buyer",
              "type": "address"
            },
            {
              "internalType": "enum BaggagePolicy.PolicyStatus",
              "name": "status",
              "type": "uint8"
            }
          ],
          "internalType": "struct BaggagePolicy.UserPolicy[]",
          "name": "",
          "type": "tuple[]"
        }
      ],
      "stateMutability": "view",
      "type": "function"
    },
    {
      "inputs": [
        {
          "internalType": "string",
          "name": "templateId",
          "type": "string"
        },
        {
          "internalType": "uint256",
          "name": "currentTime",
          "type": "uint256"
        }
      ],
      "name": "getUserPoliciesByTemplate",
      "outputs": [
        {
          "components": [
            {
              "internalType": "uint256",
              "name": "policyId",
              "type": "uint256"
            },
            {
              "components": [
                {
                  "internalType": "string",
                  "name": "templateId",
                  "type": "string"
                },
                {
                  "internalType": "string",
                  "name": "name",
                  "type": "string"
                },
                {
                  "internalType": "string",
                  "name": "description",
                  "type": "string"
                },
                {
                  "internalType": "uint256",
                  "name": "createdAt",
                  "type": "uint256"
                },
                {
                  "internalType": "uint256",
                  "name": "updatedAt",
                  "type": "uint256"
                },
                {
                  "internalType": "uint256",
                  "name": "premium",
                  "type": "uint256"
                },
                {
                  "internalType": "uint256",
                  "name": "payoutIfDelayed",
                  "type": "uint256"
                },
                {
                  "internalType": "uint256",
                  "name": "payoutIfLost",
                  "type": "uint256"
                },
                {
                  "internalType": "uint256",
                  "name": "maxTotalPayout",
                  "type": "uint256"
                },
                {
                  "internalType": "uint256",
                  "name": "coverageDurationSeconds",
                  "type": "uint256"
                },
                {
                  "internalType": "enum BaggagePolicy.PolicyTemplateStatus",
                  "name": "status",
                  "type": "uint8"
                }
              ],
              "internalType": "struct BaggagePolicy.PolicyTemplate",
              "name": "template",
              "type": "tuple"
            },
            {
              "internalType": "string",
              "name": "itemDescription",
              "type": "string"
            },
            {
              "internalType": "uint256",
              "name": "createdAt",
              "type": "uint256"
            },
            {
              "internalType": "uint256",
              "name": "payoutToDate",
              "type": "uint256"
            },
            {
              "internalType": "address",
              "name": "buyer",
              "type": "address"
            },
            {
              "internalType": "enum BaggagePolicy.PolicyStatus",
              "name": "status",
              "type": "uint8"
            }
          ],
          "internalType": "struct BaggagePolicy.UserPolicy[]",
          "name": "",
          "type": "tuple[]"
        }
      ],
      "stateMutability": "view",
      "type": "function"
    },
    {
      "inputs": [],
      "name": "insurerAddress",
      "outputs": [
        {
          "internalType": "address",
          "name": "",
          "type": "address"
        }
      ],
      "stateMutability": "view",
      "type": "function"
    },
    {
      "inputs": [
        {
          "internalType": "uint256",
          "name": "policyId",
          "type": "uint256"
        }
      ],
      "name": "markPolicyAsExpired",
      "outputs": [],
      "stateMutability": "nonpayable",
      "type": "function"
    },
    {
      "inputs": [],
      "name": "nextUserPolicyId",
      "outputs": [
        {
          "internalType": "uint256",
          "name": "",
          "type": "uint256"
        }
      ],
      "stateMutability": "view",
      "type": "function"
    },
    {
      "inputs": [],
      "name": "oracleConnector",
      "outputs": [
        {
          "internalType": "contract OracleConnector",
          "name": "",
          "type": "address"
        }
      ],
      "stateMutability": "view",
      "type": "function"
    },
    {
      "inputs": [
        {
          "components": [
            {
              "internalType": "string",
              "name": "templateId",
              "type": "string"
            },
            {
              "internalType": "string",
              "name": "name",
              "type": "string"
            },
            {
              "internalType": "string",
              "name": "description",
              "type": "string"
            },
            {
              "internalType": "uint256",
              "name": "createdAt",
              "type": "uint256"
            },
            {
              "internalType": "uint256",
              "name": "updatedAt",
              "type": "uint256"
            },
            {
              "internalType": "uint256",
              "name": "premium",
              "type": "uint256"
            },
            {
              "internalType": "uint256",
              "name": "payoutIfDelayed",
              "type": "uint256"
            },
            {
              "internalType": "uint256",
              "name": "payoutIfLost",
              "type": "uint256"
            },
            {
              "internalType": "uint256",
              "name": "maxTotalPayout",
              "type": "uint256"
            },
            {
              "internalType": "uint256",
              "name": "coverageDurationSeconds",
              "type": "uint256"
            },
            {
              "internalType": "enum BaggagePolicy.PolicyTemplateStatus",
              "name": "status",
              "type": "uint8"
            }
          ],
          "internalType": "struct BaggagePolicy.PolicyTemplate",
          "name": "template",
          "type": "tuple"
        },
        {
          "internalType": "string",
          "name": "itemDescription",
          "type": "string"
        },
        {
          "internalType": "address",
          "name": "buyer",
          "type": "address"
        }
      ],
      "name": "purchasePolicy",
      "outputs": [
        {
          "internalType": "uint256",
          "name": "",
          "type": "uint256"
        }
      ],
      "stateMutability": "payable",
      "type": "function"
    },
    {
      "inputs": [
        {
          "internalType": "uint256",
          "name": "",
          "type": "uint256"
        }
      ],
      "name": "userPolicies",
      "outputs": [
        {
          "internalType": "uint256",
          "name": "policyId",
          "type": "uint256"
        },
        {
          "components": [
            {
              "internalType": "string",
              "name": "templateId",
              "type": "string"
            },
            {
              "internalType": "string",
              "name": "name",
              "type": "string"
            },
            {
              "internalType": "string",
              "name": "description",
              "type": "string"
            },
            {
              "internalType": "uint256",
              "name": "createdAt",
              "type": "uint256"
            },
            {
              "internalType": "uint256",
              "name": "updatedAt",
              "type": "uint256"
            },
            {
              "internalType": "uint256",
              "name": "premium",
              "type": "uint256"
            },
            {
              "internalType": "uint256",
              "name": "payoutIfDelayed",
              "type": "uint256"
            },
            {
              "internalType": "uint256",
              "name": "payoutIfLost",
              "type": "uint256"
            },
            {
              "internalType": "uint256",
              "name": "maxTotalPayout",
              "type": "uint256"
            },
            {
              "internalType": "uint256",
              "name": "coverageDurationSeconds",
              "type": "uint256"
            },
            {
              "internalType": "enum BaggagePolicy.PolicyTemplateStatus",
              "name": "status",
              "type": "uint8"
            }
          ],
          "internalType": "struct BaggagePolicy.PolicyTemplate",
          "name": "template",
          "type": "tuple"
        },
        {
          "internalType": "string",
          "name": "itemDescription",
          "type": "string"
        },
        {
          "internalType": "uint256",
          "name": "createdAt",
          "type": "uint256"
        },
        {
          "internalType": "uint256",
          "name": "payoutToDate",
          "type": "uint256"
        },
        {
          "internalType": "address",
          "name": "buyer",
          "type": "address"
        },
        {
          "internalType": "enum BaggagePolicy.PolicyStatus",
          "name": "status",
          "type": "uint8"
        }
      ],
      "stateMutability": "view",
      "type": "function"
    },
    {
      "inputs": [
        {
          "internalType": "address",
          "name": "",
          "type": "address"
        },
        {
          "internalType": "uint256",
          "name": "",
          "type": "uint256"
        }
      ],
      "name": "userPolicyIds",
      "outputs": [
        {
          "internalType": "uint256",
          "name": "",
          "type": "uint256"
        }
      ],
      "stateMutability": "view",
      "type": "function"
    }
  ],
  "bytecode": "0x60a06040523480156200001157600080fd5b506040516200319738038062003197833981810160405281019062000037919062000125565b60016000819055503373ffffffffffffffffffffffffffffffffffffffff1660808173ffffffffffffffffffffffffffffffffffffffff168152505080600160006101000a81548173ffffffffffffffffffffffffffffffffffffffff021916908373ffffffffffffffffffffffffffffffffffffffff1602179055505062000157565b600080fd5b600073ffffffffffffffffffffffffffffffffffffffff82169050919050565b6000620000ed82620000c0565b9050919050565b620000ff81620000e0565b81146200010b57600080fd5b50565b6000815190506200011f81620000f4565b92915050565b6000602082840312156200013e576200013d620000bb565b5b60006200014e848285016200010e565b91505092915050565b60805161301d6200017a60003960008181610c2901526115b4015261301d6000f3fe6080604052600436106100915760003560e01c8063b6e283e111610059578063b6e283e114610191578063c52eaa40146101ce578063cba85f061461020b578063cf39c6241461024e578063e05161491461027757610091565b8063642bb9251461009657806364b72a65146100d35780637b956415146101105780639a9122ac1461013b578063a7c0900e14610166575b600080fd5b3480156100a257600080fd5b506100bd60048036038101906100b89190611d62565b6102a7565b6040516100ca9190612171565b60405180910390f35b3480156100df57600080fd5b506100fa60048036038101906100f59190612193565b61079f565b6040516101079190612171565b60405180910390f35b34801561011c57600080fd5b50610125610bfb565b60405161013291906121cf565b60405180910390f35b34801561014757600080fd5b50610150610c01565b60405161015d9190612249565b60405180910390f35b34801561017257600080fd5b5061017b610c27565b6040516101889190612273565b60405180910390f35b34801561019d57600080fd5b506101b860048036038101906101b39190611d62565b610c4b565b6040516101c591906121cf565b60405180910390f35b3480156101da57600080fd5b506101f560048036038101906101f091906123c3565b610c7c565b6040516102029190612171565b60405180910390f35b34801561021757600080fd5b50610232600480360381019061022d9190612193565b6111ec565b6040516102459796959493929190612575565b60405180910390f35b34801561025a57600080fd5b5061027560048036038101906102709190612193565b611525565b005b610291600480360381019061028c9190612781565b6117a3565b60405161029e91906121cf565b60405180910390f35b60606000600360008573ffffffffffffffffffffffffffffffffffffffff1673ffffffffffffffffffffffffffffffffffffffff16815260200190815260200160002080549050905060008167ffffffffffffffff81111561030c5761030b612298565b5b60405190808252806020026020018201604052801561034557816020015b610332611be3565b81526020019060019003908161032a5790505b50905060005b8281101561078a5760026000600360008973ffffffffffffffffffffffffffffffffffffffff1673ffffffffffffffffffffffffffffffffffffffff16815260200190815260200160002083815481106103a8576103a761280c565b5b906000526020600020015481526020019081526020016000206040518060e00160405290816000820154815260200160018201604051806101600160405290816000820180546103f79061286a565b80601f01602080910402602001604051908101604052809291908181526020018280546104239061286a565b80156104705780601f1061044557610100808354040283529160200191610470565b820191906000526020600020905b81548152906001019060200180831161045357829003601f168201915b505050505081526020016001820180546104899061286a565b80601f01602080910402602001604051908101604052809291908181526020018280546104b59061286a565b80156105025780601f106104d757610100808354040283529160200191610502565b820191906000526020600020905b8154815290600101906020018083116104e557829003601f168201915b5050505050815260200160028201805461051b9061286a565b80601f01602080910402602001604051908101604052809291908181526020018280546105479061286a565b80156105945780601f1061056957610100808354040283529160200191610594565b820191906000526020600020905b81548152906001019060200180831161057757829003601f168201915b5050505050815260200160038201548152602001600482015481526020016005820154815260200160068201548152602001600782015481526020016008820154815260200160098201548152602001600a820160009054906101000a900460ff16600181111561060857610607611e6d565b5b600181111561061a57610619611e6d565b5b815250508152602001600c820180546106329061286a565b80601f016020809104026020016040519081016040528092919081815260200182805461065e9061286a565b80156106ab5780601f10610680576101008083540402835291602001916106ab565b820191906000526020600020905b81548152906001019060200180831161068e57829003601f168201915b50505050508152602001600d8201548152602001600e8201548152602001600f820160009054906101000a900473ffffffffffffffffffffffffffffffffffffffff1673ffffffffffffffffffffffffffffffffffffffff1673ffffffffffffffffffffffffffffffffffffffff168152602001600f820160149054906101000a900460ff16600281111561074357610742611e6d565b5b600281111561075557610754611e6d565b5b8152505082828151811061076c5761076b61280c565b5b60200260200101819052508080610782906128ca565b91505061034b565b506107958185611ac7565b9250505092915050565b60606000600454905060008167ffffffffffffffff8111156107c4576107c3612298565b5b6040519080825280602002602001820160405280156107fd57816020015b6107ea611be3565b8152602001906001900390816107e25790505b50905060005b82811015610be757600260008281526020019081526020016000206040518060e00160405290816000820154815260200160018201604051806101600160405290816000820180546108549061286a565b80601f01602080910402602001604051908101604052809291908181526020018280546108809061286a565b80156108cd5780601f106108a2576101008083540402835291602001916108cd565b820191906000526020600020905b8154815290600101906020018083116108b057829003601f168201915b505050505081526020016001820180546108e69061286a565b80601f01602080910402602001604051908101604052809291908181526020018280546109129061286a565b801561095f5780601f106109345761010080835404028352916020019161095f565b820191906000526020600020905b81548152906001019060200180831161094257829003601f168201915b505050505081526020016002820180546109789061286a565b80601f01602080910402602001604051908101604052809291908181526020018280546109a49061286a565b80156109f15780601f106109c6576101008083540402835291602001916109f1565b820191906000526020600020905b8154815290600101906020018083116109d457829003601f168201915b5050505050815260200160038201548152602001600482015481526020016005820154815260200160068201548152602001600782015481526020016008820154815260200160098201548152602001600a820160009054906101000a900460ff166001811115610a6557610a64611e6d565b5b6001811115610a7757610a76611e6d565b5b815250508152602001600c82018054610a8f9061286a565b80601f0160208091040260200160405190810160405280929190818152602001828054610abb9061286a565b8015610b085780601f10610add57610100808354040283529160200191610b08565b820191906000526020600020905b815481529060010190602001808311610aeb57829003601f168201915b50505050508152602001600d8201548152602001600e8201548152602001600f820160009054906101000a900473ffffffffffffffffffffffffffffffffffffffff1673ffffffffffffffffffffffffffffffffffffffff1673ffffffffffffffffffffffffffffffffffffffff168152602001600f820160149054906101000a900460ff166002811115610ba057610b9f611e6d565b5b6002811115610bb257610bb1611e6d565b5b81525050828281518110610bc957610bc861280c565b5b60200260200101819052508080610bdf906128ca565b915050610803565b50610bf28185611ac7565b92505050919050565b60045481565b600160009054906101000a900473ffffffffffffffffffffffffffffffffffffffff1681565b7f000000000000000000000000000000000000000000000000000000000000000081565b60036020528160005260406000208181548110610c6757600080fd5b90600052602060002001600091509150505481565b60606000805b600454811015610d195784604051602001610c9d919061294e565b6040516020818303038152906040528051906020012060026000838152602001908152602001600020600101600001604051602001610cdc91906129fd565b6040516020818303038152906040528051906020012003610d06578180610d02906128ca565b9250505b8080610d11906128ca565b915050610c82565b5060008167ffffffffffffffff811115610d3657610d35612298565b5b604051908082528060200260200182016040528015610d6f57816020015b610d5c611be3565b815260200190600190039081610d545790505b5090506000805b6004548110156111d65786604051602001610d91919061294e565b6040516020818303038152906040528051906020012060026000838152602001908152602001600020600101600001604051602001610dd091906129fd565b60405160208183030381529060405280519060200120036111c357600260008281526020019081526020016000206040518060e0016040529081600082015481526020016001820160405180610160016040529081600082018054610e349061286a565b80601f0160208091040260200160405190810160405280929190818152602001828054610e609061286a565b8015610ead5780601f10610e8257610100808354040283529160200191610ead565b820191906000526020600020905b815481529060010190602001808311610e9057829003601f168201915b50505050508152602001600182018054610ec69061286a565b80601f0160208091040260200160405190810160405280929190818152602001828054610ef29061286a565b8015610f3f5780601f10610f1457610100808354040283529160200191610f3f565b820191906000526020600020905b815481529060010190602001808311610f2257829003601f168201915b50505050508152602001600282018054610f589061286a565b80601f0160208091040260200160405190810160405280929190818152602001828054610f849061286a565b8015610fd15780601f10610fa657610100808354040283529160200191610fd1565b820191906000526020600020905b815481529060010190602001808311610fb457829003601f168201915b5050505050815260200160038201548152602001600482015481526020016005820154815260200160068201548152602001600782015481526020016008820154815260200160098201548152602001600a820160009054906101000a900460ff16600181111561104557611044611e6d565b5b600181111561105757611056611e6d565b5b815250508152602001600c8201805461106f9061286a565b80601f016020809104026020016040519081016040528092919081815260200182805461109b9061286a565b80156110e85780601f106110bd576101008083540402835291602001916110e8565b820191906000526020600020905b8154815290600101906020018083116110cb57829003601f168201915b50505050508152602001600d8201548152602001600e8201548152602001600f820160009054906101000a900473ffffffffffffffffffffffffffffffffffffffff1673ffffffffffffffffffffffffffffffffffffffff1673ffffffffffffffffffffffffffffffffffffffff168152602001600f820160149054906101000a900460ff1660028111156111805761117f611e6d565b5b600281111561119257611191611e6d565b5b815250508383815181106111a9576111a861280c565b5b602002602001018190525081806111bf906128ca565b9250505b80806111ce906128ca565b915050610d76565b506111e18286611ac7565b935050505092915050565b600260205280600052604060002060009150905080600001549080600101604051806101600160405290816000820180546112269061286a565b80601f01602080910402602001604051908101604052809291908181526020018280546112529061286a565b801561129f5780601f106112745761010080835404028352916020019161129f565b820191906000526020600020905b81548152906001019060200180831161128257829003601f168201915b505050505081526020016001820180546112b89061286a565b80601f01602080910402602001604051908101604052809291908181526020018280546112e49061286a565b80156113315780601f1061130657610100808354040283529160200191611331565b820191906000526020600020905b81548152906001019060200180831161131457829003601f168201915b5050505050815260200160028201805461134a9061286a565b80601f01602080910402602001604051908101604052809291908181526020018280546113769061286a565b80156113c35780601f10611398576101008083540402835291602001916113c3565b820191906000526020600020905b8154815290600101906020018083116113a657829003601f168201915b5050505050815260200160038201548152602001600482015481526020016005820154815260200160068201548152602001600782015481526020016008820154815260200160098201548152602001600a820160009054906101000a900460ff16600181111561143757611436611e6d565b5b600181111561144957611448611e6d565b5b815250509080600c01805461145d9061286a565b80601f01602080910402602001604051908101604052809291908181526020018280546114899061286a565b80156114d65780601f106114ab576101008083540402835291602001916114d6565b820191906000526020600020905b8154815290600101906020018083116114b957829003601f168201915b50505050509080600d01549080600e01549080600f0160009054906101000a900473ffffffffffffffffffffffffffffffffffffffff169080600f0160149054906101000a900460ff16905087565b600080600281111561153a57611539611e6d565b5b600260006004548152602001908152602001600020600f0160149054906101000a900460ff16600281111561157257611571611e6d565b5b146115b2576040517f08c379a00000000000000000000000000000000000000000000000000000000081526004016115a990612a86565b60405180910390fd5b7f000000000000000000000000000000000000000000000000000000000000000073ffffffffffffffffffffffffffffffffffffffff163273ffffffffffffffffffffffffffffffffffffffff1614611640576040517f08c379a000000000000000000000000000000000000000000000000000000000815260040161163790612b18565b60405180910390fd5b6004548210611684576040517f08c379a000000000000000000000000000000000000000000000000000000000815260040161167b90612b84565b60405180910390fd5b6000600260008481526020019081526020016000209050600060028111156116af576116ae611e6d565b5b81600f0160149054906101000a900460ff1660028111156116d3576116d2611e6d565b5b14611713576040517f08c379a000000000000000000000000000000000000000000000000000000000815260040161170a90612bf0565b60405180910390fd5b6000816001016009015482600d015461172c9190612c10565b9050804211611770576040517f08c379a000000000000000000000000000000000000000000000000000000000815260040161176790612c90565b60405180910390fd5b600182600f0160146101000a81548160ff0219169083600281111561179857611797611e6d565b5b021790555050505050565b60008060018111156117b8576117b7611e6d565b5b84610140015160018111156117d0576117cf611e6d565b5b14611810576040517f08c379a000000000000000000000000000000000000000000000000000000000815260040161180790612cfc565b60405180910390fd5b8360a00151341015611857576040517f08c379a000000000000000000000000000000000000000000000000000000000815260040161184e90612d68565b60405180910390fd5b60006004600081548092919061186c906128ca565b9190505590506040518060e00160405280828152602001868152602001858152602001428152602001600081526020018473ffffffffffffffffffffffffffffffffffffffff168152602001600060028111156118cc576118cb611e6d565b5b8152506002600083815260200190815260200160002060008201518160000155602082015181600101600082015181600001908161190a9190612f15565b5060208201518160010190816119209190612f15565b5060408201518160020190816119369190612f15565b50606082015181600301556080820151816004015560a0820151816005015560c0820151816006015560e082015181600701556101008201518160080155610120820151816009015561014082015181600a0160006101000a81548160ff021916908360018111156119ab576119aa611e6d565b5b02179055505050604082015181600c0190816119c79190612f15565b50606082015181600d0155608082015181600e015560a082015181600f0160006101000a81548173ffffffffffffffffffffffffffffffffffffffff021916908373ffffffffffffffffffffffffffffffffffffffff16021790555060c082015181600f0160146101000a81548160ff02191690836002811115611a4e57611a4d611e6d565b5b0217905550905050600360008473ffffffffffffffffffffffffffffffffffffffff1673ffffffffffffffffffffffffffffffffffffffff168152602001908152602001600020819080600181540180825580915050600190039060005260206000200160009091909190915055809150509392505050565b606060005b8351811015611bd95760006002811115611ae957611ae8611e6d565b5b848281518110611afc57611afb61280c565b5b602002602001015160c001516002811115611b1a57611b19611e6d565b5b03611bc6576000848281518110611b3457611b3361280c565b5b6020026020010151602001516101200151858381518110611b5857611b5761280c565b5b602002602001015160600151611b6e9190612c10565b905080841115611bc4576001858381518110611b8d57611b8c61280c565b5b602002602001015160c001906002811115611bab57611baa611e6d565b5b90816002811115611bbf57611bbe611e6d565b5b815250505b505b8080611bd1906128ca565b915050611acc565b5082905092915050565b6040518060e0016040528060008152602001611bfd611c4e565b8152602001606081526020016000815260200160008152602001600073ffffffffffffffffffffffffffffffffffffffff16815260200160006002811115611c4857611c47611e6d565b5b81525090565b6040518061016001604052806060815260200160608152602001606081526020016000815260200160008152602001600081526020016000815260200160008152602001600081526020016000815260200160006001811115611cb457611cb3611e6d565b5b81525090565b6000604051905090565b600080fd5b600080fd5b600073ffffffffffffffffffffffffffffffffffffffff82169050919050565b6000611cf982611cce565b9050919050565b611d0981611cee565b8114611d1457600080fd5b50565b600081359050611d2681611d00565b92915050565b6000819050919050565b611d3f81611d2c565b8114611d4a57600080fd5b50565b600081359050611d5c81611d36565b92915050565b60008060408385031215611d7957611d78611cc4565b5b6000611d8785828601611d17565b9250506020611d9885828601611d4d565b9150509250929050565b600081519050919050565b600082825260208201905092915050565b6000819050602082019050919050565b611dd781611d2c565b82525050565b600081519050919050565b600082825260208201905092915050565b60005b83811015611e17578082015181840152602081019050611dfc565b60008484015250505050565b6000601f19601f8301169050919050565b6000611e3f82611ddd565b611e498185611de8565b9350611e59818560208601611df9565b611e6281611e23565b840191505092915050565b7f4e487b7100000000000000000000000000000000000000000000000000000000600052602160045260246000fd5b60028110611ead57611eac611e6d565b5b50565b6000819050611ebe82611e9c565b919050565b6000611ece82611eb0565b9050919050565b611ede81611ec3565b82525050565b6000610160830160008301518482036000860152611f028282611e34565b91505060208301518482036020860152611f1c8282611e34565b91505060408301518482036040860152611f368282611e34565b9150506060830151611f4b6060860182611dce565b506080830151611f5e6080860182611dce565b5060a0830151611f7160a0860182611dce565b5060c0830151611f8460c0860182611dce565b5060e0830151611f9760e0860182611dce565b50610100830151611fac610100860182611dce565b50610120830151611fc1610120860182611dce565b50610140830151611fd6610140860182611ed5565b508091505092915050565b611fea81611cee565b82525050565b6003811061200157612000611e6d565b5b50565b600081905061201282611ff0565b919050565b600061202282612004565b9050919050565b61203281612017565b82525050565b600060e0830160008301516120506000860182611dce565b50602083015184820360208601526120688282611ee4565b915050604083015184820360408601526120828282611e34565b91505060608301516120976060860182611dce565b5060808301516120aa6080860182611dce565b5060a08301516120bd60a0860182611fe1565b5060c08301516120d060c0860182612029565b508091505092915050565b60006120e78383612038565b905092915050565b6000602082019050919050565b600061210782611da2565b6121118185611dad565b93508360208202850161212385611dbe565b8060005b8581101561215f578484038952815161214085826120db565b945061214b836120ef565b925060208a01995050600181019050612127565b50829750879550505050505092915050565b6000602082019050818103600083015261218b81846120fc565b905092915050565b6000602082840312156121a9576121a8611cc4565b5b60006121b784828501611d4d565b91505092915050565b6121c981611d2c565b82525050565b60006020820190506121e460008301846121c0565b92915050565b6000819050919050565b600061220f61220a61220584611cce565b6121ea565b611cce565b9050919050565b6000612221826121f4565b9050919050565b600061223382612216565b9050919050565b61224381612228565b82525050565b600060208201905061225e600083018461223a565b92915050565b61226d81611cee565b82525050565b60006020820190506122886000830184612264565b92915050565b600080fd5b600080fd5b7f4e487b7100000000000000000000000000000000000000000000000000000000600052604160045260246000fd5b6122d082611e23565b810181811067ffffffffffffffff821117156122ef576122ee612298565b5b80604052505050565b6000612302611cba565b905061230e82826122c7565b919050565b600067ffffffffffffffff82111561232e5761232d612298565b5b61233782611e23565b9050602081019050919050565b82818337600083830152505050565b600061236661236184612313565b6122f8565b90508281526020810184848401111561238257612381612293565b5b61238d848285612344565b509392505050565b600082601f8301126123aa576123a961228e565b5b81356123ba848260208601612353565b91505092915050565b600080604083850312156123da576123d9611cc4565b5b600083013567ffffffffffffffff8111156123f8576123f7611cc9565b5b61240485828601612395565b925050602061241585828601611d4d565b9150509250929050565b600061016083016000830151848203600086015261243d8282611e34565b915050602083015184820360208601526124578282611e34565b915050604083015184820360408601526124718282611e34565b91505060608301516124866060860182611dce565b5060808301516124996080860182611dce565b5060a08301516124ac60a0860182611dce565b5060c08301516124bf60c0860182611dce565b5060e08301516124d260e0860182611dce565b506101008301516124e7610100860182611dce565b506101208301516124fc610120860182611dce565b50610140830151612511610140860182611ed5565b508091505092915050565b600082825260208201905092915050565b600061253882611ddd565b612542818561251c565b9350612552818560208601611df9565b61255b81611e23565b840191505092915050565b61256f81612017565b82525050565b600060e08201905061258a600083018a6121c0565b818103602083015261259c818961241f565b905081810360408301526125b0818861252d565b90506125bf60608301876121c0565b6125cc60808301866121c0565b6125d960a0830185612264565b6125e660c0830184612566565b98975050505050505050565b600080fd5b600080fd5b6002811061260957600080fd5b50565b60008135905061261b816125fc565b92915050565b60006101608284031215612638576126376125f2565b5b6126436101606122f8565b9050600082013567ffffffffffffffff811115612663576126626125f7565b5b61266f84828501612395565b600083015250602082013567ffffffffffffffff811115612693576126926125f7565b5b61269f84828501612395565b602083015250604082013567ffffffffffffffff8111156126c3576126c26125f7565b5b6126cf84828501612395565b60408301525060606126e384828501611d4d565b60608301525060806126f784828501611d4d565b60808301525060a061270b84828501611d4d565b60a08301525060c061271f84828501611d4d565b60c08301525060e061273384828501611d4d565b60e08301525061010061274884828501611d4d565b6101008301525061012061275e84828501611d4d565b610120830152506101406127748482850161260c565b6101408301525092915050565b60008060006060848603121561279a57612799611cc4565b5b600084013567ffffffffffffffff8111156127b8576127b7611cc9565b5b6127c486828701612621565b935050602084013567ffffffffffffffff8111156127e5576127e4611cc9565b5b6127f186828701612395565b925050604061280286828701611d17565b9150509250925092565b7f4e487b7100000000000000000000000000000000000000000000000000000000600052603260045260246000fd5b7f4e487b7100000000000000000000000000000000000000000000000000000000600052602260045260246000fd5b6000600282049050600182168061288257607f821691505b6020821081036128955761289461283b565b5b50919050565b7f4e487b7100000000000000000000000000000000000000000000000000000000600052601160045260246000fd5b60006128d582611d2c565b91507fffffffffffffffffffffffffffffffffffffffffffffffffffffffffffffffff82036129075761290661289b565b5b600182019050919050565b600081905092915050565b600061292882611ddd565b6129328185612912565b9350612942818560208601611df9565b80840191505092915050565b600061295a828461291d565b915081905092915050565b60008190508160005260206000209050919050565b600081546129878161286a565b6129918186612912565b945060018216600081146129ac57600181146129c1576129f4565b60ff19831686528115158202860193506129f4565b6129ca85612965565b60005b838110156129ec578154818901526001820191506020810190506129cd565b838801955050505b50505092915050565b6000612a09828461297a565b915081905092915050565b7f42616767616765506f6c6963793a20506f6c696379206973206e6f7420696e2060008201527f74686520636f7272656374207374617475730000000000000000000000000000602082015250565b6000612a7060328361251c565b9150612a7b82612a14565b604082019050919050565b60006020820190508181036000830152612a9f81612a63565b9050919050565b7f42616767616765506f6c6963793a204f6e6c792074686520696e73757265722060008201527f63616e2063616c6c20746869732066756e6374696f6e00000000000000000000602082015250565b6000612b0260368361251c565b9150612b0d82612aa6565b604082019050919050565b60006020820190508181036000830152612b3181612af5565b9050919050565b7f496e76616c696420706f6c696379496400000000000000000000000000000000600082015250565b6000612b6e60108361251c565b9150612b7982612b38565b602082019050919050565b60006020820190508181036000830152612b9d81612b61565b9050919050565b7f506f6c696379206973206e6f7420616374697665000000000000000000000000600082015250565b6000612bda60148361251c565b9150612be582612ba4565b602082019050919050565b60006020820190508181036000830152612c0981612bcd565b9050919050565b6000612c1b82611d2c565b9150612c2683611d2c565b9250828201905080821115612c3e57612c3d61289b565b5b92915050565b7f506f6c69637920686173206e6f74206578706972656420796574000000000000600082015250565b6000612c7a601a8361251c565b9150612c8582612c44565b602082019050919050565b60006020820190508181036000830152612ca981612c6d565b9050919050565b7f506f6c6963792074656d706c617465206973206e6f7420616374697665000000600082015250565b6000612ce6601d8361251c565b9150612cf182612cb0565b602082019050919050565b60006020820190508181036000830152612d1581612cd9565b9050919050565b7f496e73756666696369656e74207072656d69756d2073656e7400000000000000600082015250565b6000612d5260198361251c565b9150612d5d82612d1c565b602082019050919050565b60006020820190508181036000830152612d8181612d45565b9050919050565b60006020601f8301049050919050565b600082821b905092915050565b600060088302612dd57fffffffffffffffffffffffffffffffffffffffffffffffffffffffffffffffff82612d98565b612ddf8683612d98565b95508019841693508086168417925050509392505050565b6000612e12612e0d612e0884611d2c565b6121ea565b611d2c565b9050919050565b6000819050919050565b612e2c83612df7565b612e40612e3882612e19565b848454612da5565b825550505050565b600090565b612e55612e48565b612e60818484612e23565b505050565b5b81811015612e8457612e79600082612e4d565b600181019050612e66565b5050565b601f821115612ec957612e9a81612965565b612ea384612d88565b81016020851015612eb2578190505b612ec6612ebe85612d88565b830182612e65565b50505b505050565b600082821c905092915050565b6000612eec60001984600802612ece565b1980831691505092915050565b6000612f058383612edb565b9150826002028217905092915050565b612f1e82611ddd565b67ffffffffffffffff811115612f3757612f36612298565b5b612f41825461286a565b612f4c828285612e88565b600060209050601f831160018114612f7f5760008415612f6d578287015190505b612f778582612ef9565b865550612fdf565b601f198416612f8d86612965565b60005b82811015612fb557848901518255600182019150602085019450602081019050612f90565b86831015612fd25784890151612fce601f891682612edb565b8355505b6001600288020188555050505b50505050505056fea2646970667358221220a54f39fb1a70b56cc399ed8cfb27a71959540af4eee385afa51c41a4b79f668364736f6c63430008130033",
  "linkReferences": {},
  "deployedLinkReferences": {}
}