{
  "_format": "hh-sol-artifact-1",
  "contractName": "FlightPolicy",
  "sourceName": "contracts/FlightPolicy.sol",
  "abi": [
    {
      "inputs": [],
      "stateMutability": "nonpayable",
      "type": "constructor"
    },
    {
      "inputs": [
        {
          "internalType": "uint256",
          "name": "policyId",
          "type": "uint256"
        },
        {
          "internalType": "address",
          "name": "buyer",
          "type": "address"
        }
      ],
      "name": "claimPayout",
      "outputs": [],
      "stateMutability": "nonpayable",
      "type": "function"
    },
    {
      "inputs": [],
      "name": "getAllPolicies",
      "outputs": [
        {
          "components": [
            {
              "internalType": "uint256",
              "name": "policyId",
              "type": "uint256"
            },
            {
              "components": [
                {
                  "internalType": "string",
                  "name": "templateId",
                  "type": "string"
                },
                {
                  "internalType": "string",
                  "name": "name",
                  "type": "string"
                },
                {
                  "internalType": "string",
                  "name": "description",
                  "type": "string"
                },
                {
                  "internalType": "uint256",
                  "name": "createdAt",
                  "type": "uint256"
                },
                {
                  "internalType": "uint256",
                  "name": "updatedAt",
                  "type": "uint256"
                },
                {
                  "internalType": "uint256",
                  "name": "premium",
                  "type": "uint256"
                },
                {
                  "internalType": "uint256",
                  "name": "payoutPerHour",
                  "type": "uint256"
                },
                {
                  "internalType": "uint256",
                  "name": "delayThresholdHours",
                  "type": "uint256"
                },
                {
                  "internalType": "uint256",
                  "name": "maxTotalPayout",
                  "type": "uint256"
                },
                {
                  "internalType": "uint256",
                  "name": "coverageDurationDays",
                  "type": "uint256"
                },
                {
                  "internalType": "enum FlightPolicy.PolicyTemplateStatus",
                  "name": "status",
                  "type": "uint8"
                }
              ],
              "internalType": "struct FlightPolicy.PolicyTemplate",
              "name": "template",
              "type": "tuple"
            },
            {
              "internalType": "string",
              "name": "flightNumber",
              "type": "string"
            },
            {
              "internalType": "string",
              "name": "departureAirportCode",
              "type": "string"
            },
            {
              "internalType": "string",
              "name": "arrivalAirportCode",
              "type": "string"
            },
            {
              "internalType": "uint256",
              "name": "departureTime",
              "type": "uint256"
            },
            {
              "internalType": "uint256",
              "name": "createdAt",
              "type": "uint256"
            },
            {
              "internalType": "uint256",
              "name": "payoutToDate",
              "type": "uint256"
            },
            {
              "internalType": "address",
              "name": "buyer",
              "type": "address"
            },
            {
              "internalType": "enum FlightPolicy.PolicyStatus",
              "name": "status",
              "type": "uint8"
            }
          ],
          "internalType": "struct FlightPolicy.UserPolicy[]",
          "name": "",
          "type": "tuple[]"
        }
      ],
      "stateMutability": "view",
      "type": "function"
    },
    {
      "inputs": [
        {
          "internalType": "address",
          "name": "user",
          "type": "address"
        }
      ],
      "name": "getUserPolicies",
      "outputs": [
        {
          "components": [
            {
              "internalType": "uint256",
              "name": "policyId",
              "type": "uint256"
            },
            {
              "components": [
                {
                  "internalType": "string",
                  "name": "templateId",
                  "type": "string"
                },
                {
                  "internalType": "string",
                  "name": "name",
                  "type": "string"
                },
                {
                  "internalType": "string",
                  "name": "description",
                  "type": "string"
                },
                {
                  "internalType": "uint256",
                  "name": "createdAt",
                  "type": "uint256"
                },
                {
                  "internalType": "uint256",
                  "name": "updatedAt",
                  "type": "uint256"
                },
                {
                  "internalType": "uint256",
                  "name": "premium",
                  "type": "uint256"
                },
                {
                  "internalType": "uint256",
                  "name": "payoutPerHour",
                  "type": "uint256"
                },
                {
                  "internalType": "uint256",
                  "name": "delayThresholdHours",
                  "type": "uint256"
                },
                {
                  "internalType": "uint256",
                  "name": "maxTotalPayout",
                  "type": "uint256"
                },
                {
                  "internalType": "uint256",
                  "name": "coverageDurationDays",
                  "type": "uint256"
                },
                {
                  "internalType": "enum FlightPolicy.PolicyTemplateStatus",
                  "name": "status",
                  "type": "uint8"
                }
              ],
              "internalType": "struct FlightPolicy.PolicyTemplate",
              "name": "template",
              "type": "tuple"
            },
            {
              "internalType": "string",
              "name": "flightNumber",
              "type": "string"
            },
            {
              "internalType": "string",
              "name": "departureAirportCode",
              "type": "string"
            },
            {
              "internalType": "string",
              "name": "arrivalAirportCode",
              "type": "string"
            },
            {
              "internalType": "uint256",
              "name": "departureTime",
              "type": "uint256"
            },
            {
              "internalType": "uint256",
              "name": "createdAt",
              "type": "uint256"
            },
            {
              "internalType": "uint256",
              "name": "payoutToDate",
              "type": "uint256"
            },
            {
              "internalType": "address",
              "name": "buyer",
              "type": "address"
            },
            {
              "internalType": "enum FlightPolicy.PolicyStatus",
              "name": "status",
              "type": "uint8"
            }
          ],
          "internalType": "struct FlightPolicy.UserPolicy[]",
          "name": "",
          "type": "tuple[]"
        }
      ],
      "stateMutability": "view",
      "type": "function"
    },
    {
      "inputs": [
        {
          "internalType": "string",
          "name": "templateId",
          "type": "string"
        }
      ],
      "name": "getUserPoliciesByTemplate",
      "outputs": [
        {
          "components": [
            {
              "internalType": "uint256",
              "name": "policyId",
              "type": "uint256"
            },
            {
              "components": [
                {
                  "internalType": "string",
                  "name": "templateId",
                  "type": "string"
                },
                {
                  "internalType": "string",
                  "name": "name",
                  "type": "string"
                },
                {
                  "internalType": "string",
                  "name": "description",
                  "type": "string"
                },
                {
                  "internalType": "uint256",
                  "name": "createdAt",
                  "type": "uint256"
                },
                {
                  "internalType": "uint256",
                  "name": "updatedAt",
                  "type": "uint256"
                },
                {
                  "internalType": "uint256",
                  "name": "premium",
                  "type": "uint256"
                },
                {
                  "internalType": "uint256",
                  "name": "payoutPerHour",
                  "type": "uint256"
                },
                {
                  "internalType": "uint256",
                  "name": "delayThresholdHours",
                  "type": "uint256"
                },
                {
                  "internalType": "uint256",
                  "name": "maxTotalPayout",
                  "type": "uint256"
                },
                {
                  "internalType": "uint256",
                  "name": "coverageDurationDays",
                  "type": "uint256"
                },
                {
                  "internalType": "enum FlightPolicy.PolicyTemplateStatus",
                  "name": "status",
                  "type": "uint8"
                }
              ],
              "internalType": "struct FlightPolicy.PolicyTemplate",
              "name": "template",
              "type": "tuple"
            },
            {
              "internalType": "string",
              "name": "flightNumber",
              "type": "string"
            },
            {
              "internalType": "string",
              "name": "departureAirportCode",
              "type": "string"
            },
            {
              "internalType": "string",
              "name": "arrivalAirportCode",
              "type": "string"
            },
            {
              "internalType": "uint256",
              "name": "departureTime",
              "type": "uint256"
            },
            {
              "internalType": "uint256",
              "name": "createdAt",
              "type": "uint256"
            },
            {
              "internalType": "uint256",
              "name": "payoutToDate",
              "type": "uint256"
            },
            {
              "internalType": "address",
              "name": "buyer",
              "type": "address"
            },
            {
              "internalType": "enum FlightPolicy.PolicyStatus",
              "name": "status",
              "type": "uint8"
            }
          ],
          "internalType": "struct FlightPolicy.UserPolicy[]",
          "name": "",
          "type": "tuple[]"
        }
      ],
      "stateMutability": "view",
      "type": "function"
    },
    {
      "inputs": [
        {
          "internalType": "address",
          "name": "user",
          "type": "address"
        },
        {
          "internalType": "uint256",
          "name": "policyId",
          "type": "uint256"
        }
      ],
      "name": "getUserPolicyWithTemplate",
      "outputs": [
        {
          "components": [
            {
              "internalType": "uint256",
              "name": "policyId",
              "type": "uint256"
            },
            {
              "components": [
                {
                  "internalType": "string",
                  "name": "templateId",
                  "type": "string"
                },
                {
                  "internalType": "string",
                  "name": "name",
                  "type": "string"
                },
                {
                  "internalType": "string",
                  "name": "description",
                  "type": "string"
                },
                {
                  "internalType": "uint256",
                  "name": "createdAt",
                  "type": "uint256"
                },
                {
                  "internalType": "uint256",
                  "name": "updatedAt",
                  "type": "uint256"
                },
                {
                  "internalType": "uint256",
                  "name": "premium",
                  "type": "uint256"
                },
                {
                  "internalType": "uint256",
                  "name": "payoutPerHour",
                  "type": "uint256"
                },
                {
                  "internalType": "uint256",
                  "name": "delayThresholdHours",
                  "type": "uint256"
                },
                {
                  "internalType": "uint256",
                  "name": "maxTotalPayout",
                  "type": "uint256"
                },
                {
                  "internalType": "uint256",
                  "name": "coverageDurationDays",
                  "type": "uint256"
                },
                {
                  "internalType": "enum FlightPolicy.PolicyTemplateStatus",
                  "name": "status",
                  "type": "uint8"
                }
              ],
              "internalType": "struct FlightPolicy.PolicyTemplate",
              "name": "template",
              "type": "tuple"
            },
            {
              "internalType": "string",
              "name": "flightNumber",
              "type": "string"
            },
            {
              "internalType": "string",
              "name": "departureAirportCode",
              "type": "string"
            },
            {
              "internalType": "string",
              "name": "arrivalAirportCode",
              "type": "string"
            },
            {
              "internalType": "uint256",
              "name": "departureTime",
              "type": "uint256"
            },
            {
              "internalType": "uint256",
              "name": "createdAt",
              "type": "uint256"
            },
            {
              "internalType": "uint256",
              "name": "payoutToDate",
              "type": "uint256"
            },
            {
              "internalType": "address",
              "name": "buyer",
              "type": "address"
            },
            {
              "internalType": "enum FlightPolicy.PolicyStatus",
              "name": "status",
              "type": "uint8"
            }
          ],
          "internalType": "struct FlightPolicy.UserPolicy",
          "name": "",
          "type": "tuple"
        },
        {
          "components": [
            {
              "internalType": "string",
              "name": "templateId",
              "type": "string"
            },
            {
              "internalType": "string",
              "name": "name",
              "type": "string"
            },
            {
              "internalType": "string",
              "name": "description",
              "type": "string"
            },
            {
              "internalType": "uint256",
              "name": "createdAt",
              "type": "uint256"
            },
            {
              "internalType": "uint256",
              "name": "updatedAt",
              "type": "uint256"
            },
            {
              "internalType": "uint256",
              "name": "premium",
              "type": "uint256"
            },
            {
              "internalType": "uint256",
              "name": "payoutPerHour",
              "type": "uint256"
            },
            {
              "internalType": "uint256",
              "name": "delayThresholdHours",
              "type": "uint256"
            },
            {
              "internalType": "uint256",
              "name": "maxTotalPayout",
              "type": "uint256"
            },
            {
              "internalType": "uint256",
              "name": "coverageDurationDays",
              "type": "uint256"
            },
            {
              "internalType": "enum FlightPolicy.PolicyTemplateStatus",
              "name": "status",
              "type": "uint8"
            }
          ],
          "internalType": "struct FlightPolicy.PolicyTemplate",
          "name": "",
          "type": "tuple"
        }
      ],
      "stateMutability": "view",
      "type": "function"
    },
    {
      "inputs": [],
      "name": "insurerAddress",
      "outputs": [
        {
          "internalType": "address",
          "name": "",
          "type": "address"
        }
      ],
      "stateMutability": "view",
      "type": "function"
    },
    {
      "inputs": [
        {
          "internalType": "address",
          "name": "buyer",
          "type": "address"
        },
        {
          "internalType": "uint256",
          "name": "policyId",
          "type": "uint256"
        }
      ],
      "name": "markPolicyAsClaimed",
      "outputs": [],
      "stateMutability": "nonpayable",
      "type": "function"
    },
    {
      "inputs": [
        {
          "internalType": "uint256",
          "name": "policyId",
          "type": "uint256"
        }
      ],
      "name": "markPolicyAsExpired",
      "outputs": [],
      "stateMutability": "nonpayable",
      "type": "function"
    },
    {
      "inputs": [],
      "name": "nextUserPolicyId",
      "outputs": [
        {
          "internalType": "uint256",
          "name": "",
          "type": "uint256"
        }
      ],
      "stateMutability": "view",
      "type": "function"
    },
    {
      "inputs": [],
      "name": "oracleConnector",
      "outputs": [
        {
          "internalType": "contract OracleConnector",
          "name": "",
          "type": "address"
        }
      ],
      "stateMutability": "view",
      "type": "function"
    },
    {
      "inputs": [
        {
          "components": [
            {
              "internalType": "string",
              "name": "templateId",
              "type": "string"
            },
            {
              "internalType": "string",
              "name": "name",
              "type": "string"
            },
            {
              "internalType": "string",
              "name": "description",
              "type": "string"
            },
            {
              "internalType": "uint256",
              "name": "createdAt",
              "type": "uint256"
            },
            {
              "internalType": "uint256",
              "name": "updatedAt",
              "type": "uint256"
            },
            {
              "internalType": "uint256",
              "name": "premium",
              "type": "uint256"
            },
            {
              "internalType": "uint256",
              "name": "payoutPerHour",
              "type": "uint256"
            },
            {
              "internalType": "uint256",
              "name": "delayThresholdHours",
              "type": "uint256"
            },
            {
              "internalType": "uint256",
              "name": "maxTotalPayout",
              "type": "uint256"
            },
            {
              "internalType": "uint256",
              "name": "coverageDurationDays",
              "type": "uint256"
            },
            {
              "internalType": "enum FlightPolicy.PolicyTemplateStatus",
              "name": "status",
              "type": "uint8"
            }
          ],
          "internalType": "struct FlightPolicy.PolicyTemplate",
          "name": "template",
          "type": "tuple"
        },
        {
          "internalType": "string",
          "name": "flightNumber",
          "type": "string"
        },
        {
          "internalType": "string",
          "name": "departureAirportCode",
          "type": "string"
        },
        {
          "internalType": "string",
          "name": "arrivalAirportCode",
          "type": "string"
        },
        {
          "internalType": "uint256",
          "name": "departureTime",
          "type": "uint256"
        },
        {
          "internalType": "address",
          "name": "buyer",
          "type": "address"
        }
      ],
      "name": "purchasePolicy",
      "outputs": [
        {
          "internalType": "uint256",
          "name": "",
          "type": "uint256"
        }
      ],
      "stateMutability": "payable",
      "type": "function"
    },
    {
      "inputs": [
        {
          "internalType": "address",
          "name": "_oracleConnector",
          "type": "address"
        }
      ],
      "name": "setOracleConnector",
      "outputs": [],
      "stateMutability": "nonpayable",
      "type": "function"
    },
    {
      "inputs": [
        {
          "internalType": "uint256",
          "name": "",
          "type": "uint256"
        }
      ],
      "name": "userPolicies",
      "outputs": [
        {
          "internalType": "uint256",
          "name": "policyId",
          "type": "uint256"
        },
        {
          "components": [
            {
              "internalType": "string",
              "name": "templateId",
              "type": "string"
            },
            {
              "internalType": "string",
              "name": "name",
              "type": "string"
            },
            {
              "internalType": "string",
              "name": "description",
              "type": "string"
            },
            {
              "internalType": "uint256",
              "name": "createdAt",
              "type": "uint256"
            },
            {
              "internalType": "uint256",
              "name": "updatedAt",
              "type": "uint256"
            },
            {
              "internalType": "uint256",
              "name": "premium",
              "type": "uint256"
            },
            {
              "internalType": "uint256",
              "name": "payoutPerHour",
              "type": "uint256"
            },
            {
              "internalType": "uint256",
              "name": "delayThresholdHours",
              "type": "uint256"
            },
            {
              "internalType": "uint256",
              "name": "maxTotalPayout",
              "type": "uint256"
            },
            {
              "internalType": "uint256",
              "name": "coverageDurationDays",
              "type": "uint256"
            },
            {
              "internalType": "enum FlightPolicy.PolicyTemplateStatus",
              "name": "status",
              "type": "uint8"
            }
          ],
          "internalType": "struct FlightPolicy.PolicyTemplate",
          "name": "template",
          "type": "tuple"
        },
        {
          "internalType": "string",
          "name": "flightNumber",
          "type": "string"
        },
        {
          "internalType": "string",
          "name": "departureAirportCode",
          "type": "string"
        },
        {
          "internalType": "string",
          "name": "arrivalAirportCode",
          "type": "string"
        },
        {
          "internalType": "uint256",
          "name": "departureTime",
          "type": "uint256"
        },
        {
          "internalType": "uint256",
          "name": "createdAt",
          "type": "uint256"
        },
        {
          "internalType": "uint256",
          "name": "payoutToDate",
          "type": "uint256"
        },
        {
          "internalType": "address",
          "name": "buyer",
          "type": "address"
        },
        {
          "internalType": "enum FlightPolicy.PolicyStatus",
          "name": "status",
          "type": "uint8"
        }
      ],
      "stateMutability": "view",
      "type": "function"
    },
    {
      "inputs": [
        {
          "internalType": "address",
          "name": "",
          "type": "address"
        },
        {
          "internalType": "uint256",
          "name": "",
          "type": "uint256"
        }
      ],
      "name": "userPolicyIds",
      "outputs": [
        {
          "internalType": "uint256",
          "name": "",
          "type": "uint256"
        }
      ],
      "stateMutability": "view",
      "type": "function"
    }
  ],
  "bytecode": "0x60a060405234801561001057600080fd5b5060016000819055503373ffffffffffffffffffffffffffffffffffffffff1660808173ffffffffffffffffffffffffffffffffffffffff1681525050608051614c1361008460003960008181610fa40152818161159c015281816122690152818161233b0152612bbb0152614c136000f3fe6080604052600436106100dd5760003560e01c80639c6cf7ef1161007f578063b0110cc611610059578063b0110cc6146102c8578063b6e283e1146102f1578063cba85f061461032e578063cf39c62414610374576100dd565b80639c6cf7ef14610237578063a233d41414610274578063a7c0900e1461029d576100dd565b806331953ecc116100bb57806331953ecc14610186578063457e5521146101b65780637b956415146101e15780639a9122ac1461020c576100dd565b806313e896b6146100e257806319ac46141461012057806328cf382c1461015d575b600080fd5b3480156100ee57600080fd5b50610109600480360381019061010491906131c6565b61039d565b60405161011792919061365c565b60405180910390f35b34801561012c57600080fd5b5061014760048036038101906101429190613693565b610985565b6040516101549190613871565b60405180910390f35b34801561016957600080fd5b50610184600480360381019061017f91906131c6565b610fa2565b005b6101a0600480360381019061019b9190613b57565b6111e4565b6040516101ad9190613c63565b60405180910390f35b3480156101c257600080fd5b506101cb611598565b6040516101d89190613871565b60405180910390f35b3480156101ed57600080fd5b506101f6611ba6565b6040516102039190613c63565b60405180910390f35b34801561021857600080fd5b50610221611bac565b60405161022e9190613cdd565b60405180910390f35b34801561024357600080fd5b5061025e60048036038101906102599190613cf8565b611bd2565b60405161026b9190613871565b60405180910390f35b34801561028057600080fd5b5061029b60048036038101906102969190613693565b612267565b005b3480156102a957600080fd5b506102b2612339565b6040516102bf9190613d50565b60405180910390f35b3480156102d457600080fd5b506102ef60048036038101906102ea9190613d6b565b61235d565b005b3480156102fd57600080fd5b50610318600480360381019061031391906131c6565b61272d565b6040516103259190613c63565b60405180910390f35b34801561033a57600080fd5b5061035560048036038101906103509190613dab565b61275e565b60405161036b9a99989796959493929190613e31565b60405180910390f35b34801561038057600080fd5b5061039b60048036038101906103969190613dab565b612bb9565b005b6103a5613031565b6103ad6130b2565b60045483106103f1576040517f08c379a00000000000000000000000000000000000000000000000000000000081526004016103e890613f35565b60405180910390fd5b8373ffffffffffffffffffffffffffffffffffffffff166002600085815260200190815260200160002060120160009054906101000a900473ffffffffffffffffffffffffffffffffffffffff1673ffffffffffffffffffffffffffffffffffffffff1614610495576040517f08c379a000000000000000000000000000000000000000000000000000000000815260040161048c90613fa1565b60405180910390fd5b600060026000858152602001908152602001600020604051806101400160405290816000820154815260200160018201604051806101600160405290816000820180546104e190613ff0565b80601f016020809104026020016040519081016040528092919081815260200182805461050d90613ff0565b801561055a5780601f1061052f5761010080835404028352916020019161055a565b820191906000526020600020905b81548152906001019060200180831161053d57829003601f168201915b5050505050815260200160018201805461057390613ff0565b80601f016020809104026020016040519081016040528092919081815260200182805461059f90613ff0565b80156105ec5780601f106105c1576101008083540402835291602001916105ec565b820191906000526020600020905b8154815290600101906020018083116105cf57829003601f168201915b5050505050815260200160028201805461060590613ff0565b80601f016020809104026020016040519081016040528092919081815260200182805461063190613ff0565b801561067e5780601f106106535761010080835404028352916020019161067e565b820191906000526020600020905b81548152906001019060200180831161066157829003601f168201915b5050505050815260200160038201548152602001600482015481526020016005820154815260200160068201548152602001600782015481526020016008820154815260200160098201548152602001600a820160009054906101000a900460ff1660018111156106f2576106f16132a5565b5b6001811115610704576107036132a5565b5b815250508152602001600c8201805461071c90613ff0565b80601f016020809104026020016040519081016040528092919081815260200182805461074890613ff0565b80156107955780601f1061076a57610100808354040283529160200191610795565b820191906000526020600020905b81548152906001019060200180831161077857829003601f168201915b50505050508152602001600d820180546107ae90613ff0565b80601f01602080910402602001604051908101604052809291908181526020018280546107da90613ff0565b80156108275780601f106107fc57610100808354040283529160200191610827565b820191906000526020600020905b81548152906001019060200180831161080a57829003601f168201915b50505050508152602001600e8201805461084090613ff0565b80601f016020809104026020016040519081016040528092919081815260200182805461086c90613ff0565b80156108b95780601f1061088e576101008083540402835291602001916108b9565b820191906000526020600020905b81548152906001019060200180831161089c57829003601f168201915b50505050508152602001600f820154815260200160108201548152602001601182015481526020016012820160009054906101000a900473ffffffffffffffffffffffffffffffffffffffff1673ffffffffffffffffffffffffffffffffffffffff1673ffffffffffffffffffffffffffffffffffffffff1681526020016012820160149054906101000a900460ff16600281111561095b5761095a6132a5565b5b600281111561096d5761096c6132a5565b5b81525050905080816020015192509250509250929050565b60606000600360008473ffffffffffffffffffffffffffffffffffffffff1673ffffffffffffffffffffffffffffffffffffffff16815260200190815260200160002080549050905060008167ffffffffffffffff8111156109ea576109e9613898565b5b604051908082528060200260200182016040528015610a2357816020015b610a10613031565b815260200190600190039081610a085790505b50905060005b82811015610f975760026000600360008873ffffffffffffffffffffffffffffffffffffffff1673ffffffffffffffffffffffffffffffffffffffff1681526020019081526020016000208381548110610a8657610a85614021565b5b9060005260206000200154815260200190815260200160002060405180610140016040529081600082015481526020016001820160405180610160016040529081600082018054610ad690613ff0565b80601f0160208091040260200160405190810160405280929190818152602001828054610b0290613ff0565b8015610b4f5780601f10610b2457610100808354040283529160200191610b4f565b820191906000526020600020905b815481529060010190602001808311610b3257829003601f168201915b50505050508152602001600182018054610b6890613ff0565b80601f0160208091040260200160405190810160405280929190818152602001828054610b9490613ff0565b8015610be15780601f10610bb657610100808354040283529160200191610be1565b820191906000526020600020905b815481529060010190602001808311610bc457829003601f168201915b50505050508152602001600282018054610bfa90613ff0565b80601f0160208091040260200160405190810160405280929190818152602001828054610c2690613ff0565b8015610c735780601f10610c4857610100808354040283529160200191610c73565b820191906000526020600020905b815481529060010190602001808311610c5657829003601f168201915b5050505050815260200160038201548152602001600482015481526020016005820154815260200160068201548152602001600782015481526020016008820154815260200160098201548152602001600a820160009054906101000a900460ff166001811115610ce757610ce66132a5565b5b6001811115610cf957610cf86132a5565b5b815250508152602001600c82018054610d1190613ff0565b80601f0160208091040260200160405190810160405280929190818152602001828054610d3d90613ff0565b8015610d8a5780601f10610d5f57610100808354040283529160200191610d8a565b820191906000526020600020905b815481529060010190602001808311610d6d57829003601f168201915b50505050508152602001600d82018054610da390613ff0565b80601f0160208091040260200160405190810160405280929190818152602001828054610dcf90613ff0565b8015610e1c5780601f10610df157610100808354040283529160200191610e1c565b820191906000526020600020905b815481529060010190602001808311610dff57829003601f168201915b50505050508152602001600e82018054610e3590613ff0565b80601f0160208091040260200160405190810160405280929190818152602001828054610e6190613ff0565b8015610eae5780601f10610e8357610100808354040283529160200191610eae565b820191906000526020600020905b815481529060010190602001808311610e9157829003601f168201915b50505050508152602001600f820154815260200160108201548152602001601182015481526020016012820160009054906101000a900473ffffffffffffffffffffffffffffffffffffffff1673ffffffffffffffffffffffffffffffffffffffff1673ffffffffffffffffffffffffffffffffffffffff1681526020016012820160149054906101000a900460ff166002811115610f5057610f4f6132a5565b5b6002811115610f6257610f616132a5565b5b81525050828281518110610f7957610f78614021565b5b60200260200101819052508080610f8f9061407f565b915050610a29565b508092505050919050565b7f000000000000000000000000000000000000000000000000000000000000000073ffffffffffffffffffffffffffffffffffffffff163273ffffffffffffffffffffffffffffffffffffffff1614611030576040517f08c379a000000000000000000000000000000000000000000000000000000000815260040161102790614139565b60405180910390fd5b6004548110611074576040517f08c379a000000000000000000000000000000000000000000000000000000000815260040161106b90613f35565b60405180910390fd5b8173ffffffffffffffffffffffffffffffffffffffff166002600083815260200190815260200160002060120160009054906101000a900473ffffffffffffffffffffffffffffffffffffffff1673ffffffffffffffffffffffffffffffffffffffff1614611118576040517f08c379a000000000000000000000000000000000000000000000000000000000815260040161110f906141a5565b60405180910390fd5b6000600281111561112c5761112b6132a5565b5b6002600083815260200190815260200160002060120160149054906101000a900460ff166002811115611162576111616132a5565b5b146111a2576040517f08c379a000000000000000000000000000000000000000000000000000000000815260040161119990614211565b60405180910390fd5b600280600083815260200190815260200160002060120160146101000a81548160ff021916908360028111156111db576111da6132a5565b5b02179055505050565b60008060018111156111f9576111f86132a5565b5b8761014001516001811115611211576112106132a5565b5b14611251576040517f08c379a00000000000000000000000000000000000000000000000000000000081526004016112489061427d565b60405180910390fd5b428311611293576040517f08c379a000000000000000000000000000000000000000000000000000000000815260040161128a9061430f565b60405180910390fd5b8660a001513410156112da576040517f08c379a00000000000000000000000000000000000000000000000000000000081526004016112d19061437b565b60405180910390fd5b6000600460008154809291906112ef9061407f565b919050559050604051806101400160405280828152602001898152602001888152602001878152602001868152602001858152602001428152602001600081526020018473ffffffffffffffffffffffffffffffffffffffff16815260200160006002811115611362576113616132a5565b5b815250600260008381526020019081526020016000206000820151816000015560208201518160010160008201518160000190816113a0919061453d565b5060208201518160010190816113b6919061453d565b5060408201518160020190816113cc919061453d565b50606082015181600301556080820151816004015560a0820151816005015560c0820151816006015560e082015181600701556101008201518160080155610120820151816009015561014082015181600a0160006101000a81548160ff02191690836001811115611441576114406132a5565b5b02179055505050604082015181600c01908161145d919061453d565b50606082015181600d019081611473919061453d565b50608082015181600e019081611489919061453d565b5060a082015181600f015560c0820151816010015560e082015181601101556101008201518160120160006101000a81548173ffffffffffffffffffffffffffffffffffffffff021916908373ffffffffffffffffffffffffffffffffffffffff1602179055506101208201518160120160146101000a81548160ff0219169083600281111561151c5761151b6132a5565b5b0217905550905050600360008473ffffffffffffffffffffffffffffffffffffffff1673ffffffffffffffffffffffffffffffffffffffff168152602001908152602001600020819080600181540180825580915050600190039060005260206000200160009091909190915055809150509695505050505050565b60607f000000000000000000000000000000000000000000000000000000000000000073ffffffffffffffffffffffffffffffffffffffff163273ffffffffffffffffffffffffffffffffffffffff1614611628576040517f08c379a000000000000000000000000000000000000000000000000000000000815260040161161f90614139565b60405180910390fd5b6000600454905060008167ffffffffffffffff81111561164b5761164a613898565b5b60405190808252806020026020018201604052801561168457816020015b611671613031565b8152602001906001900390816116695790505b50905060005b82811015611b9d5760026000828152602001908152602001600020604051806101400160405290816000820154815260200160018201604051806101600160405290816000820180546116dc90613ff0565b80601f016020809104026020016040519081016040528092919081815260200182805461170890613ff0565b80156117555780601f1061172a57610100808354040283529160200191611755565b820191906000526020600020905b81548152906001019060200180831161173857829003601f168201915b5050505050815260200160018201805461176e90613ff0565b80601f016020809104026020016040519081016040528092919081815260200182805461179a90613ff0565b80156117e75780601f106117bc576101008083540402835291602001916117e7565b820191906000526020600020905b8154815290600101906020018083116117ca57829003601f168201915b5050505050815260200160028201805461180090613ff0565b80601f016020809104026020016040519081016040528092919081815260200182805461182c90613ff0565b80156118795780601f1061184e57610100808354040283529160200191611879565b820191906000526020600020905b81548152906001019060200180831161185c57829003601f168201915b5050505050815260200160038201548152602001600482015481526020016005820154815260200160068201548152602001600782015481526020016008820154815260200160098201548152602001600a820160009054906101000a900460ff1660018111156118ed576118ec6132a5565b5b60018111156118ff576118fe6132a5565b5b815250508152602001600c8201805461191790613ff0565b80601f016020809104026020016040519081016040528092919081815260200182805461194390613ff0565b80156119905780601f1061196557610100808354040283529160200191611990565b820191906000526020600020905b81548152906001019060200180831161197357829003601f168201915b50505050508152602001600d820180546119a990613ff0565b80601f01602080910402602001604051908101604052809291908181526020018280546119d590613ff0565b8015611a225780601f106119f757610100808354040283529160200191611a22565b820191906000526020600020905b815481529060010190602001808311611a0557829003601f168201915b50505050508152602001600e82018054611a3b90613ff0565b80601f0160208091040260200160405190810160405280929190818152602001828054611a6790613ff0565b8015611ab45780601f10611a8957610100808354040283529160200191611ab4565b820191906000526020600020905b815481529060010190602001808311611a9757829003601f168201915b50505050508152602001600f820154815260200160108201548152602001601182015481526020016012820160009054906101000a900473ffffffffffffffffffffffffffffffffffffffff1673ffffffffffffffffffffffffffffffffffffffff1673ffffffffffffffffffffffffffffffffffffffff1681526020016012820160149054906101000a900460ff166002811115611b5657611b556132a5565b5b6002811115611b6857611b676132a5565b5b81525050828281518110611b7f57611b7e614021565b5b60200260200101819052508080611b959061407f565b91505061168a565b50809250505090565b60045481565b600160009054906101000a900473ffffffffffffffffffffffffffffffffffffffff1681565b60606000805b600454811015611c6f5783604051602001611bf3919061464b565b6040516020818303038152906040528051906020012060026000838152602001908152602001600020600101600001604051602001611c3291906146e5565b6040516020818303038152906040528051906020012003611c5c578180611c589061407f565b9250505b8080611c679061407f565b915050611bd8565b5060008167ffffffffffffffff811115611c8c57611c8b613898565b5b604051908082528060200260200182016040528015611cc557816020015b611cb2613031565b815260200190600190039081611caa5790505b5090506000805b60045481101561225b5785604051602001611ce7919061464b565b6040516020818303038152906040528051906020012060026000838152602001908152602001600020600101600001604051602001611d2691906146e5565b6040516020818303038152906040528051906020012003612248576002600082815260200190815260200160002060405180610140016040529081600082015481526020016001820160405180610160016040529081600082018054611d8b90613ff0565b80601f0160208091040260200160405190810160405280929190818152602001828054611db790613ff0565b8015611e045780601f10611dd957610100808354040283529160200191611e04565b820191906000526020600020905b815481529060010190602001808311611de757829003601f168201915b50505050508152602001600182018054611e1d90613ff0565b80601f0160208091040260200160405190810160405280929190818152602001828054611e4990613ff0565b8015611e965780601f10611e6b57610100808354040283529160200191611e96565b820191906000526020600020905b815481529060010190602001808311611e7957829003601f168201915b50505050508152602001600282018054611eaf90613ff0565b80601f0160208091040260200160405190810160405280929190818152602001828054611edb90613ff0565b8015611f285780601f10611efd57610100808354040283529160200191611f28565b820191906000526020600020905b815481529060010190602001808311611f0b57829003601f168201915b5050505050815260200160038201548152602001600482015481526020016005820154815260200160068201548152602001600782015481526020016008820154815260200160098201548152602001600a820160009054906101000a900460ff166001811115611f9c57611f9b6132a5565b5b6001811115611fae57611fad6132a5565b5b815250508152602001600c82018054611fc690613ff0565b80601f0160208091040260200160405190810160405280929190818152602001828054611ff290613ff0565b801561203f5780601f106120145761010080835404028352916020019161203f565b820191906000526020600020905b81548152906001019060200180831161202257829003601f168201915b50505050508152602001600d8201805461205890613ff0565b80601f016020809104026020016040519081016040528092919081815260200182805461208490613ff0565b80156120d15780601f106120a6576101008083540402835291602001916120d1565b820191906000526020600020905b8154815290600101906020018083116120b457829003601f168201915b50505050508152602001600e820180546120ea90613ff0565b80601f016020809104026020016040519081016040528092919081815260200182805461211690613ff0565b80156121635780601f1061213857610100808354040283529160200191612163565b820191906000526020600020905b81548152906001019060200180831161214657829003601f168201915b50505050508152602001600f820154815260200160108201548152602001601182015481526020016012820160009054906101000a900473ffffffffffffffffffffffffffffffffffffffff1673ffffffffffffffffffffffffffffffffffffffff1673ffffffffffffffffffffffffffffffffffffffff1681526020016012820160149054906101000a900460ff166002811115612205576122046132a5565b5b6002811115612217576122166132a5565b5b8152505083838151811061222e5761222d614021565b5b602002602001018190525081806122449061407f565b9250505b80806122539061407f565b915050611ccc565b50819350505050919050565b7f000000000000000000000000000000000000000000000000000000000000000073ffffffffffffffffffffffffffffffffffffffff163273ffffffffffffffffffffffffffffffffffffffff16146122f5576040517f08c379a00000000000000000000000000000000000000000000000000000000081526004016122ec90614139565b60405180910390fd5b80600160006101000a81548173ffffffffffffffffffffffffffffffffffffffff021916908373ffffffffffffffffffffffffffffffffffffffff16021790555050565b7f000000000000000000000000000000000000000000000000000000000000000081565b612365612db7565b60045482106123a9576040517f08c379a00000000000000000000000000000000000000000000000000000000081526004016123a090613f35565b60405180910390fd5b60006002600084815260200190815260200160002090508060120160009054906101000a900473ffffffffffffffffffffffffffffffffffffffff1673ffffffffffffffffffffffffffffffffffffffff168273ffffffffffffffffffffffffffffffffffffffff1614612452576040517f08c379a000000000000000000000000000000000000000000000000000000000815260040161244990614748565b60405180910390fd5b60006002811115612466576124656132a5565b5b8160120160149054906101000a900460ff16600281111561248a576124896132a5565b5b146124ca576040517f08c379a00000000000000000000000000000000000000000000000000000000081526004016124c1906147b4565b60405180910390fd5b60006124d982600f0154612e06565b9050600080600160009054906101000a900473ffffffffffffffffffffffffffffffffffffffff1673ffffffffffffffffffffffffffffffffffffffff166326ec641e85600c01856040518363ffffffff1660e01b815260040161253e929190614858565b60408051808303816000875af115801561255c573d6000803e3d6000fd5b505050506040513d601f19601f8201168201806040525081019061258091906148dc565b91509150816125c4576040517f08c379a00000000000000000000000000000000000000000000000000000000081526004016125bb90614968565b60405180910390fd5b60008460010160060154826125d99190614988565b905084600101600801548111156125f557846001016008015490505b60008111612638576040517f08c379a000000000000000000000000000000000000000000000000000000000815260040161262f90614a16565b60405180910390fd5b8047101561267b576040517f08c379a000000000000000000000000000000000000000000000000000000000815260040161267290614a82565b60405180910390fd5b60028560120160146101000a81548160ff021916908360028111156126a3576126a26132a5565b5b02179055508085601101819055508460120160009054906101000a900473ffffffffffffffffffffffffffffffffffffffff1673ffffffffffffffffffffffffffffffffffffffff166108fc829081150290604051600060405180830381858888f1935050505015801561271b573d6000803e3d6000fd5b505050505050612729612ed4565b5050565b6003602052816000526040600020818154811061274957600080fd5b90600052602060002001600091509150505481565b6002602052806000526040600020600091509050806000015490806001016040518061016001604052908160008201805461279890613ff0565b80601f01602080910402602001604051908101604052809291908181526020018280546127c490613ff0565b80156128115780601f106127e657610100808354040283529160200191612811565b820191906000526020600020905b8154815290600101906020018083116127f457829003601f168201915b5050505050815260200160018201805461282a90613ff0565b80601f016020809104026020016040519081016040528092919081815260200182805461285690613ff0565b80156128a35780601f10612878576101008083540402835291602001916128a3565b820191906000526020600020905b81548152906001019060200180831161288657829003601f168201915b505050505081526020016002820180546128bc90613ff0565b80601f01602080910402602001604051908101604052809291908181526020018280546128e890613ff0565b80156129355780601f1061290a57610100808354040283529160200191612935565b820191906000526020600020905b81548152906001019060200180831161291857829003601f168201915b5050505050815260200160038201548152602001600482015481526020016005820154815260200160068201548152602001600782015481526020016008820154815260200160098201548152602001600a820160009054906101000a900460ff1660018111156129a9576129a86132a5565b5b60018111156129bb576129ba6132a5565b5b815250509080600c0180546129cf90613ff0565b80601f01602080910402602001604051908101604052809291908181526020018280546129fb90613ff0565b8015612a485780601f10612a1d57610100808354040283529160200191612a48565b820191906000526020600020905b815481529060010190602001808311612a2b57829003601f168201915b50505050509080600d018054612a5d90613ff0565b80601f0160208091040260200160405190810160405280929190818152602001828054612a8990613ff0565b8015612ad65780601f10612aab57610100808354040283529160200191612ad6565b820191906000526020600020905b815481529060010190602001808311612ab957829003601f168201915b50505050509080600e018054612aeb90613ff0565b80601f0160208091040260200160405190810160405280929190818152602001828054612b1790613ff0565b8015612b645780601f10612b3957610100808354040283529160200191612b64565b820191906000526020600020905b815481529060010190602001808311612b4757829003601f168201915b50505050509080600f0154908060100154908060110154908060120160009054906101000a900473ffffffffffffffffffffffffffffffffffffffff16908060120160149054906101000a900460ff1690508a565b7f000000000000000000000000000000000000000000000000000000000000000073ffffffffffffffffffffffffffffffffffffffff163273ffffffffffffffffffffffffffffffffffffffff1614612c47576040517f08c379a0000000000000000000000000000000000000000000000000000000008152600401612c3e90614139565b60405180910390fd5b6004548110612c8b576040517f08c379a0000000000000000000000000000000000000000000000000000000008152600401612c8290613f35565b60405180910390fd5b600060026000838152602001908152602001600020905060006002811115612cb657612cb56132a5565b5b8160120160149054906101000a900460ff166002811115612cda57612cd96132a5565b5b14612d1a576040517f08c379a0000000000000000000000000000000000000000000000000000000008152600401612d1190614211565b60405180910390fd5b6000620151808260010160090154612d329190614988565b8260100154612d419190614aa2565b9050804211612d85576040517f08c379a0000000000000000000000000000000000000000000000000000000008152600401612d7c90614b22565b60405180910390fd5b60018260120160146101000a81548160ff02191690836002811115612dad57612dac6132a5565b5b0217905550505050565b600260005403612dfc576040517f08c379a0000000000000000000000000000000000000000000000000000000008152600401612df390614b8e565b60405180910390fd5b6002600081905550565b606060006001612e1584612ede565b01905060008167ffffffffffffffff811115612e3457612e33613898565b5b6040519080825280601f01601f191660200182016040528015612e665781602001600182028036833780820191505090505b509050600082602001820190505b600115612ec9578080600190039150507f3031323334353637383961626364656600000000000000000000000000000000600a86061a8153600a8581612ebd57612ebc614bae565b5b04945060008503612e74575b819350505050919050565b6001600081905550565b600080600090507a184f03e93ff9f4daa797ed6e38ed64bf6a1f0100000000000000008310612f3c577a184f03e93ff9f4daa797ed6e38ed64bf6a1f0100000000000000008381612f3257612f31614bae565b5b0492506040810190505b6d04ee2d6d415b85acef81000000008310612f79576d04ee2d6d415b85acef81000000008381612f6f57612f6e614bae565b5b0492506020810190505b662386f26fc100008310612fa857662386f26fc100008381612f9e57612f9d614bae565b5b0492506010810190505b6305f5e1008310612fd1576305f5e1008381612fc757612fc6614bae565b5b0492506008810190505b6127108310612ff6576127108381612fec57612feb614bae565b5b0492506004810190505b60648310613019576064838161300f5761300e614bae565b5b0492506002810190505b600a8310613028576001810190505b80915050919050565b6040518061014001604052806000815260200161304c6130b2565b8152602001606081526020016060815260200160608152602001600081526020016000815260200160008152602001600073ffffffffffffffffffffffffffffffffffffffff168152602001600060028111156130ac576130ab6132a5565b5b81525090565b6040518061016001604052806060815260200160608152602001606081526020016000815260200160008152602001600081526020016000815260200160008152602001600081526020016000815260200160006001811115613118576131176132a5565b5b81525090565b6000604051905090565b600080fd5b600080fd5b600073ffffffffffffffffffffffffffffffffffffffff82169050919050565b600061315d82613132565b9050919050565b61316d81613152565b811461317857600080fd5b50565b60008135905061318a81613164565b92915050565b6000819050919050565b6131a381613190565b81146131ae57600080fd5b50565b6000813590506131c08161319a565b92915050565b600080604083850312156131dd576131dc613128565b5b60006131eb8582860161317b565b92505060206131fc858286016131b1565b9150509250929050565b61320f81613190565b82525050565b600081519050919050565b600082825260208201905092915050565b60005b8381101561324f578082015181840152602081019050613234565b60008484015250505050565b6000601f19601f8301169050919050565b600061327782613215565b6132818185613220565b9350613291818560208601613231565b61329a8161325b565b840191505092915050565b7f4e487b7100000000000000000000000000000000000000000000000000000000600052602160045260246000fd5b600281106132e5576132e46132a5565b5b50565b60008190506132f6826132d4565b919050565b6000613306826132e8565b9050919050565b613316816132fb565b82525050565b600061016083016000830151848203600086015261333a828261326c565b91505060208301518482036020860152613354828261326c565b9150506040830151848203604086015261336e828261326c565b91505060608301516133836060860182613206565b5060808301516133966080860182613206565b5060a08301516133a960a0860182613206565b5060c08301516133bc60c0860182613206565b5060e08301516133cf60e0860182613206565b506101008301516133e4610100860182613206565b506101208301516133f9610120860182613206565b5061014083015161340e61014086018261330d565b508091505092915050565b61342281613152565b82525050565b60038110613439576134386132a5565b5b50565b600081905061344a82613428565b919050565b600061345a8261343c565b9050919050565b61346a8161344f565b82525050565b6000610140830160008301516134896000860182613206565b50602083015184820360208601526134a1828261331c565b915050604083015184820360408601526134bb828261326c565b915050606083015184820360608601526134d5828261326c565b915050608083015184820360808601526134ef828261326c565b91505060a083015161350460a0860182613206565b5060c083015161351760c0860182613206565b5060e083015161352a60e0860182613206565b5061010083015161353f610100860182613419565b50610120830151613554610120860182613461565b508091505092915050565b600061016083016000830151848203600086015261357d828261326c565b91505060208301518482036020860152613597828261326c565b915050604083015184820360408601526135b1828261326c565b91505060608301516135c66060860182613206565b5060808301516135d96080860182613206565b5060a08301516135ec60a0860182613206565b5060c08301516135ff60c0860182613206565b5060e083015161361260e0860182613206565b50610100830151613627610100860182613206565b5061012083015161363c610120860182613206565b5061014083015161365161014086018261330d565b508091505092915050565b600060408201905081810360008301526136768185613470565b9050818103602083015261368a818461355f565b90509392505050565b6000602082840312156136a9576136a8613128565b5b60006136b78482850161317b565b91505092915050565b600081519050919050565b600082825260208201905092915050565b6000819050602082019050919050565b6000610140830160008301516137056000860182613206565b506020830151848203602086015261371d828261331c565b91505060408301518482036040860152613737828261326c565b91505060608301518482036060860152613751828261326c565b9150506080830151848203608086015261376b828261326c565b91505060a083015161378060a0860182613206565b5060c083015161379360c0860182613206565b5060e08301516137a660e0860182613206565b506101008301516137bb610100860182613419565b506101208301516137d0610120860182613461565b508091505092915050565b60006137e783836136ec565b905092915050565b6000602082019050919050565b6000613807826136c0565b61381181856136cb565b935083602082028501613823856136dc565b8060005b8581101561385f578484038952815161384085826137db565b945061384b836137ef565b925060208a01995050600181019050613827565b50829750879550505050505092915050565b6000602082019050818103600083015261388b81846137fc565b905092915050565b600080fd5b7f4e487b7100000000000000000000000000000000000000000000000000000000600052604160045260246000fd5b6138d08261325b565b810181811067ffffffffffffffff821117156138ef576138ee613898565b5b80604052505050565b600061390261311e565b905061390e82826138c7565b919050565b600080fd5b600080fd5b600080fd5b600067ffffffffffffffff82111561393d5761393c613898565b5b6139468261325b565b9050602081019050919050565b82818337600083830152505050565b600061397561397084613922565b6138f8565b9050828152602081018484840111156139915761399061391d565b5b61399c848285613953565b509392505050565b600082601f8301126139b9576139b8613918565b5b81356139c9848260208601613962565b91505092915050565b600281106139df57600080fd5b50565b6000813590506139f1816139d2565b92915050565b60006101608284031215613a0e57613a0d613893565b5b613a196101606138f8565b9050600082013567ffffffffffffffff811115613a3957613a38613913565b5b613a45848285016139a4565b600083015250602082013567ffffffffffffffff811115613a6957613a68613913565b5b613a75848285016139a4565b602083015250604082013567ffffffffffffffff811115613a9957613a98613913565b5b613aa5848285016139a4565b6040830152506060613ab9848285016131b1565b6060830152506080613acd848285016131b1565b60808301525060a0613ae1848285016131b1565b60a08301525060c0613af5848285016131b1565b60c08301525060e0613b09848285016131b1565b60e083015250610100613b1e848285016131b1565b61010083015250610120613b34848285016131b1565b61012083015250610140613b4a848285016139e2565b6101408301525092915050565b60008060008060008060c08789031215613b7457613b73613128565b5b600087013567ffffffffffffffff811115613b9257613b9161312d565b5b613b9e89828a016139f7565b965050602087013567ffffffffffffffff811115613bbf57613bbe61312d565b5b613bcb89828a016139a4565b955050604087013567ffffffffffffffff811115613bec57613beb61312d565b5b613bf889828a016139a4565b945050606087013567ffffffffffffffff811115613c1957613c1861312d565b5b613c2589828a016139a4565b9350506080613c3689828a016131b1565b92505060a0613c4789828a0161317b565b9150509295509295509295565b613c5d81613190565b82525050565b6000602082019050613c786000830184613c54565b92915050565b6000819050919050565b6000613ca3613c9e613c9984613132565b613c7e565b613132565b9050919050565b6000613cb582613c88565b9050919050565b6000613cc782613caa565b9050919050565b613cd781613cbc565b82525050565b6000602082019050613cf26000830184613cce565b92915050565b600060208284031215613d0e57613d0d613128565b5b600082013567ffffffffffffffff811115613d2c57613d2b61312d565b5b613d38848285016139a4565b91505092915050565b613d4a81613152565b82525050565b6000602082019050613d656000830184613d41565b92915050565b60008060408385031215613d8257613d81613128565b5b6000613d90858286016131b1565b9250506020613da18582860161317b565b9150509250929050565b600060208284031215613dc157613dc0613128565b5b6000613dcf848285016131b1565b91505092915050565b600082825260208201905092915050565b6000613df482613215565b613dfe8185613dd8565b9350613e0e818560208601613231565b613e178161325b565b840191505092915050565b613e2b8161344f565b82525050565b600061014082019050613e47600083018d613c54565b8181036020830152613e59818c61355f565b90508181036040830152613e6d818b613de9565b90508181036060830152613e81818a613de9565b90508181036080830152613e958189613de9565b9050613ea460a0830188613c54565b613eb160c0830187613c54565b613ebe60e0830186613c54565b613ecc610100830185613d41565b613eda610120830184613e22565b9b9a5050505050505050505050565b7f496e76616c696420706f6c696379496400000000000000000000000000000000600082015250565b6000613f1f601083613dd8565b9150613f2a82613ee9565b602082019050919050565b60006020820190508181036000830152613f4e81613f12565b9050919050565b7f4e6f7420796f757220706f6c6963790000000000000000000000000000000000600082015250565b6000613f8b600f83613dd8565b9150613f9682613f55565b602082019050919050565b60006020820190508181036000830152613fba81613f7e565b9050919050565b7f4e487b7100000000000000000000000000000000000000000000000000000000600052602260045260246000fd5b6000600282049050600182168061400857607f821691505b60208210810361401b5761401a613fc1565b5b50919050565b7f4e487b7100000000000000000000000000000000000000000000000000000000600052603260045260246000fd5b7f4e487b7100000000000000000000000000000000000000000000000000000000600052601160045260246000fd5b600061408a82613190565b91507fffffffffffffffffffffffffffffffffffffffffffffffffffffffffffffffff82036140bc576140bb614050565b5b600182019050919050565b7f466c69676874506f6c6963793a204f6e6c792074686520696e7375726572206360008201527f616e2063616c6c20746869732066756e6374696f6e0000000000000000000000602082015250565b6000614123603583613dd8565b915061412e826140c7565b604082019050919050565b6000602082019050818103600083015261415281614116565b9050919050565b7f506f6c69637920646f65736e27742062656c6f6e6720746f2062757965720000600082015250565b600061418f601e83613dd8565b915061419a82614159565b602082019050919050565b600060208201905081810360008301526141be81614182565b9050919050565b7f506f6c696379206973206e6f7420616374697665000000000000000000000000600082015250565b60006141fb601483613dd8565b9150614206826141c5565b602082019050919050565b6000602082019050818103600083015261422a816141ee565b9050919050565b7f506f6c6963792074656d706c617465206973206e6f7420616374697665000000600082015250565b6000614267601d83613dd8565b915061427282614231565b602082019050919050565b600060208201905081810360008301526142968161425a565b9050919050565b7f4465706172747572652074696d65206d75737420626520696e2074686520667560008201527f7475726500000000000000000000000000000000000000000000000000000000602082015250565b60006142f9602483613dd8565b91506143048261429d565b604082019050919050565b60006020820190508181036000830152614328816142ec565b9050919050565b7f496e73756666696369656e74207072656d69756d2073656e7400000000000000600082015250565b6000614365601983613dd8565b91506143708261432f565b602082019050919050565b6000602082019050818103600083015261439481614358565b9050919050565b60008190508160005260206000209050919050565b60006020601f8301049050919050565b600082821b905092915050565b6000600883026143fd7fffffffffffffffffffffffffffffffffffffffffffffffffffffffffffffffff826143c0565b61440786836143c0565b95508019841693508086168417925050509392505050565b600061443a61443561443084613190565b613c7e565b613190565b9050919050565b6000819050919050565b6144548361441f565b61446861446082614441565b8484546143cd565b825550505050565b600090565b61447d614470565b61448881848461444b565b505050565b5b818110156144ac576144a1600082614475565b60018101905061448e565b5050565b601f8211156144f1576144c28161439b565b6144cb846143b0565b810160208510156144da578190505b6144ee6144e6856143b0565b83018261448d565b50505b505050565b600082821c905092915050565b6000614514600019846008026144f6565b1980831691505092915050565b600061452d8383614503565b9150826002028217905092915050565b61454682613215565b67ffffffffffffffff81111561455f5761455e613898565b5b6145698254613ff0565b6145748282856144b0565b600060209050601f8311600181146145a75760008415614595578287015190505b61459f8582614521565b865550614607565b601f1984166145b58661439b565b60005b828110156145dd578489015182556001820191506020850194506020810190506145b8565b868310156145fa57848901516145f6601f891682614503565b8355505b6001600288020188555050505b505050505050565b600081905092915050565b600061462582613215565b61462f818561460f565b935061463f818560208601613231565b80840191505092915050565b6000614657828461461a565b915081905092915050565b6000815461466f81613ff0565b614679818661460f565b9450600182166000811461469457600181146146a9576146dc565b60ff19831686528115158202860193506146dc565b6146b28561439b565b60005b838110156146d4578154818901526001820191506020810190506146b5565b838801955050505b50505092915050565b60006146f18284614662565b915081905092915050565b7f4e6f7420706f6c696379206f776e657200000000000000000000000000000000600082015250565b6000614732601083613dd8565b915061473d826146fc565b602082019050919050565b6000602082019050818103600083015261476181614725565b9050919050565b7f506f6c696379206e6f7420616374697665000000000000000000000000000000600082015250565b600061479e601183613dd8565b91506147a982614768565b602082019050919050565b600060208201905081810360008301526147cd81614791565b9050919050565b600081546147e181613ff0565b6147eb8186613dd8565b94506001821660008114614806576001811461481c5761484f565b60ff19831686528115156020028601935061484f565b6148258561439b565b60005b8381101561484757815481890152600182019150602081019050614828565b808801955050505b50505092915050565b6000604082019050818103600083015261487281856147d4565b905081810360208301526148868184613de9565b90509392505050565b60008115159050919050565b6148a48161488f565b81146148af57600080fd5b50565b6000815190506148c18161489b565b92915050565b6000815190506148d68161319a565b92915050565b600080604083850312156148f3576148f2613128565b5b6000614901858286016148b2565b9250506020614912858286016148c7565b9150509250929050565b7f466c69676874206e6f742064656c617965640000000000000000000000000000600082015250565b6000614952601283613dd8565b915061495d8261491c565b602082019050919050565b6000602082019050818103600083015261498181614945565b9050919050565b600061499382613190565b915061499e83613190565b92508282026149ac81613190565b915082820484148315176149c3576149c2614050565b5b5092915050565b7f4e6f207061796f75742064756500000000000000000000000000000000000000600082015250565b6000614a00600d83613dd8565b9150614a0b826149ca565b602082019050919050565b60006020820190508181036000830152614a2f816149f3565b9050919050565b7f496e73756666696369656e7420636f6e74726163742062616c616e6365000000600082015250565b6000614a6c601d83613dd8565b9150614a7782614a36565b602082019050919050565b60006020820190508181036000830152614a9b81614a5f565b9050919050565b6000614aad82613190565b9150614ab883613190565b9250828201905080821115614ad057614acf614050565b5b92915050565b7f506f6c69637920686173206e6f74206578706972656420796574000000000000600082015250565b6000614b0c601a83613dd8565b9150614b1782614ad6565b602082019050919050565b60006020820190508181036000830152614b3b81614aff565b9050919050565b7f5265656e7472616e637947756172643a207265656e7472616e742063616c6c00600082015250565b6000614b78601f83613dd8565b9150614b8382614b42565b602082019050919050565b60006020820190508181036000830152614ba781614b6b565b9050919050565b7f4e487b7100000000000000000000000000000000000000000000000000000000600052601260045260246000fdfea2646970667358221220cbe5db8a020e82088a2abe70bb728e50c3e48f25eaf0f0647e57b88ffdd8be8664736f6c63430008130033",
  "linkReferences": {},
  "deployedLinkReferences": {}
}