{
  "_format": "hh-sol-artifact-1",
  "contractName": "FlightPolicy",
  "sourceName": "contracts/FlightPolicy.sol",
  "abi": [
    {
      "inputs": [],
      "stateMutability": "nonpayable",
      "type": "constructor"
    },
    {
      "inputs": [
        {
          "internalType": "string",
          "name": "name",
          "type": "string"
        },
        {
          "internalType": "string",
          "name": "description",
          "type": "string"
        },
        {
          "internalType": "uint256",
          "name": "premium",
          "type": "uint256"
        },
        {
          "internalType": "uint256",
          "name": "payoutPerHour",
          "type": "uint256"
        },
        {
          "internalType": "uint256",
          "name": "delayThresholdHours",
          "type": "uint256"
        },
        {
          "internalType": "uint256",
          "name": "maxTotalPayout",
          "type": "uint256"
        },
        {
          "internalType": "uint256",
          "name": "coverageDurationDays",
          "type": "uint256"
        }
      ],
      "name": "createPolicyTemplate",
      "outputs": [
        {
          "internalType": "uint256",
          "name": "",
          "type": "uint256"
        }
      ],
      "stateMutability": "nonpayable",
      "type": "function"
    },
    {
      "inputs": [
        {
          "internalType": "uint256",
          "name": "templateId",
          "type": "uint256"
        }
      ],
      "name": "deactivatePolicyTemplate",
      "outputs": [],
      "stateMutability": "nonpayable",
      "type": "function"
    },
    {
      "inputs": [],
      "name": "getActivePolicyTemplates",
      "outputs": [
        {
          "components": [
            {
              "internalType": "uint256",
              "name": "templateId",
              "type": "uint256"
            },
            {
              "internalType": "string",
              "name": "name",
              "type": "string"
            },
            {
              "internalType": "string",
              "name": "description",
              "type": "string"
            },
            {
              "internalType": "uint256",
              "name": "createdAt",
              "type": "uint256"
            },
            {
              "internalType": "uint256",
              "name": "premium",
              "type": "uint256"
            },
            {
              "internalType": "uint256",
              "name": "payoutPerHour",
              "type": "uint256"
            },
            {
              "internalType": "uint256",
              "name": "delayThresholdHours",
              "type": "uint256"
            },
            {
              "internalType": "uint256",
              "name": "maxTotalPayout",
              "type": "uint256"
            },
            {
              "internalType": "uint256",
              "name": "coverageDurationDays",
              "type": "uint256"
            },
            {
              "internalType": "enum FlightPolicy.PolicyTemplateStatus",
              "name": "status",
              "type": "uint8"
            }
          ],
          "internalType": "struct FlightPolicy.PolicyTemplate[]",
          "name": "",
          "type": "tuple[]"
        }
      ],
      "stateMutability": "view",
      "type": "function"
    },
    {
      "inputs": [],
      "name": "getAllPolicyTemplates",
      "outputs": [
        {
          "components": [
            {
              "internalType": "uint256",
              "name": "templateId",
              "type": "uint256"
            },
            {
              "internalType": "string",
              "name": "name",
              "type": "string"
            },
            {
              "internalType": "string",
              "name": "description",
              "type": "string"
            },
            {
              "internalType": "uint256",
              "name": "createdAt",
              "type": "uint256"
            },
            {
              "internalType": "uint256",
              "name": "premium",
              "type": "uint256"
            },
            {
              "internalType": "uint256",
              "name": "payoutPerHour",
              "type": "uint256"
            },
            {
              "internalType": "uint256",
              "name": "delayThresholdHours",
              "type": "uint256"
            },
            {
              "internalType": "uint256",
              "name": "maxTotalPayout",
              "type": "uint256"
            },
            {
              "internalType": "uint256",
              "name": "coverageDurationDays",
              "type": "uint256"
            },
            {
              "internalType": "enum FlightPolicy.PolicyTemplateStatus",
              "name": "status",
              "type": "uint8"
            }
          ],
          "internalType": "struct FlightPolicy.PolicyTemplate[]",
          "name": "",
          "type": "tuple[]"
        }
      ],
      "stateMutability": "view",
      "type": "function"
    },
    {
      "inputs": [
        {
          "internalType": "uint256",
          "name": "templateId",
          "type": "uint256"
        }
      ],
      "name": "getPolicyTemplateById",
      "outputs": [
        {
          "components": [
            {
              "internalType": "uint256",
              "name": "templateId",
              "type": "uint256"
            },
            {
              "internalType": "string",
              "name": "name",
              "type": "string"
            },
            {
              "internalType": "string",
              "name": "description",
              "type": "string"
            },
            {
              "internalType": "uint256",
              "name": "createdAt",
              "type": "uint256"
            },
            {
              "internalType": "uint256",
              "name": "premium",
              "type": "uint256"
            },
            {
              "internalType": "uint256",
              "name": "payoutPerHour",
              "type": "uint256"
            },
            {
              "internalType": "uint256",
              "name": "delayThresholdHours",
              "type": "uint256"
            },
            {
              "internalType": "uint256",
              "name": "maxTotalPayout",
              "type": "uint256"
            },
            {
              "internalType": "uint256",
              "name": "coverageDurationDays",
              "type": "uint256"
            },
            {
              "internalType": "enum FlightPolicy.PolicyTemplateStatus",
              "name": "status",
              "type": "uint8"
            }
          ],
          "internalType": "struct FlightPolicy.PolicyTemplate",
          "name": "",
          "type": "tuple"
        }
      ],
      "stateMutability": "view",
      "type": "function"
    },
    {
      "inputs": [
        {
          "internalType": "address",
          "name": "user",
          "type": "address"
        }
      ],
      "name": "getUserPolicies",
      "outputs": [
        {
          "components": [
            {
              "internalType": "uint256",
              "name": "policyId",
              "type": "uint256"
            },
            {
              "internalType": "uint256",
              "name": "templateId",
              "type": "uint256"
            },
            {
              "internalType": "string",
              "name": "flightNumber",
              "type": "string"
            },
            {
              "internalType": "string",
              "name": "departureAirportCode",
              "type": "string"
            },
            {
              "internalType": "string",
              "name": "arrivalAirportCode",
              "type": "string"
            },
            {
              "internalType": "uint256",
              "name": "departureTime",
              "type": "uint256"
            },
            {
              "internalType": "uint256",
              "name": "createdAt",
              "type": "uint256"
            },
            {
              "internalType": "uint256",
              "name": "payoutToDate",
              "type": "uint256"
            },
            {
              "internalType": "address",
              "name": "buyer",
              "type": "address"
            },
            {
              "internalType": "enum FlightPolicy.PolicyStatus",
              "name": "status",
              "type": "uint8"
            }
          ],
          "internalType": "struct FlightPolicy.UserPolicy[]",
          "name": "",
          "type": "tuple[]"
        }
      ],
      "stateMutability": "view",
      "type": "function"
    },
    {
      "inputs": [
        {
          "internalType": "address",
          "name": "user",
          "type": "address"
        },
        {
          "internalType": "uint256",
          "name": "policyId",
          "type": "uint256"
        }
      ],
      "name": "getUserPolicyWithTemplate",
      "outputs": [
        {
          "components": [
            {
              "internalType": "uint256",
              "name": "policyId",
              "type": "uint256"
            },
            {
              "internalType": "uint256",
              "name": "templateId",
              "type": "uint256"
            },
            {
              "internalType": "string",
              "name": "flightNumber",
              "type": "string"
            },
            {
              "internalType": "string",
              "name": "departureAirportCode",
              "type": "string"
            },
            {
              "internalType": "string",
              "name": "arrivalAirportCode",
              "type": "string"
            },
            {
              "internalType": "uint256",
              "name": "departureTime",
              "type": "uint256"
            },
            {
              "internalType": "uint256",
              "name": "createdAt",
              "type": "uint256"
            },
            {
              "internalType": "uint256",
              "name": "payoutToDate",
              "type": "uint256"
            },
            {
              "internalType": "address",
              "name": "buyer",
              "type": "address"
            },
            {
              "internalType": "enum FlightPolicy.PolicyStatus",
              "name": "status",
              "type": "uint8"
            }
          ],
          "internalType": "struct FlightPolicy.UserPolicy",
          "name": "",
          "type": "tuple"
        },
        {
          "components": [
            {
              "internalType": "uint256",
              "name": "templateId",
              "type": "uint256"
            },
            {
              "internalType": "string",
              "name": "name",
              "type": "string"
            },
            {
              "internalType": "string",
              "name": "description",
              "type": "string"
            },
            {
              "internalType": "uint256",
              "name": "createdAt",
              "type": "uint256"
            },
            {
              "internalType": "uint256",
              "name": "premium",
              "type": "uint256"
            },
            {
              "internalType": "uint256",
              "name": "payoutPerHour",
              "type": "uint256"
            },
            {
              "internalType": "uint256",
              "name": "delayThresholdHours",
              "type": "uint256"
            },
            {
              "internalType": "uint256",
              "name": "maxTotalPayout",
              "type": "uint256"
            },
            {
              "internalType": "uint256",
              "name": "coverageDurationDays",
              "type": "uint256"
            },
            {
              "internalType": "enum FlightPolicy.PolicyTemplateStatus",
              "name": "status",
              "type": "uint8"
            }
          ],
          "internalType": "struct FlightPolicy.PolicyTemplate",
          "name": "",
          "type": "tuple"
        }
      ],
      "stateMutability": "view",
      "type": "function"
    },
    {
      "inputs": [],
      "name": "insurerAddress",
      "outputs": [
        {
          "internalType": "address",
          "name": "",
          "type": "address"
        }
      ],
      "stateMutability": "view",
      "type": "function"
    },
    {
      "inputs": [
        {
          "internalType": "address",
          "name": "buyer",
          "type": "address"
        },
        {
          "internalType": "uint256",
          "name": "policyId",
          "type": "uint256"
        }
      ],
      "name": "markPolicyAsClaimed",
      "outputs": [],
      "stateMutability": "nonpayable",
      "type": "function"
    },
    {
      "inputs": [
        {
          "internalType": "uint256",
          "name": "policyId",
          "type": "uint256"
        }
      ],
      "name": "markPolicyAsExpired",
      "outputs": [],
      "stateMutability": "nonpayable",
      "type": "function"
    },
    {
      "inputs": [],
      "name": "nextPolicyTemplateId",
      "outputs": [
        {
          "internalType": "uint256",
          "name": "",
          "type": "uint256"
        }
      ],
      "stateMutability": "view",
      "type": "function"
    },
    {
      "inputs": [],
      "name": "nextUserPolicyId",
      "outputs": [
        {
          "internalType": "uint256",
          "name": "",
          "type": "uint256"
        }
      ],
      "stateMutability": "view",
      "type": "function"
    },
    {
      "inputs": [
        {
          "internalType": "uint256",
          "name": "",
          "type": "uint256"
        }
      ],
      "name": "policyTemplates",
      "outputs": [
        {
          "internalType": "uint256",
          "name": "templateId",
          "type": "uint256"
        },
        {
          "internalType": "string",
          "name": "name",
          "type": "string"
        },
        {
          "internalType": "string",
          "name": "description",
          "type": "string"
        },
        {
          "internalType": "uint256",
          "name": "createdAt",
          "type": "uint256"
        },
        {
          "internalType": "uint256",
          "name": "premium",
          "type": "uint256"
        },
        {
          "internalType": "uint256",
          "name": "payoutPerHour",
          "type": "uint256"
        },
        {
          "internalType": "uint256",
          "name": "delayThresholdHours",
          "type": "uint256"
        },
        {
          "internalType": "uint256",
          "name": "maxTotalPayout",
          "type": "uint256"
        },
        {
          "internalType": "uint256",
          "name": "coverageDurationDays",
          "type": "uint256"
        },
        {
          "internalType": "enum FlightPolicy.PolicyTemplateStatus",
          "name": "status",
          "type": "uint8"
        }
      ],
      "stateMutability": "view",
      "type": "function"
    },
    {
      "inputs": [
        {
          "internalType": "uint256",
          "name": "templateId",
          "type": "uint256"
        },
        {
          "internalType": "string",
          "name": "flightNumber",
          "type": "string"
        },
        {
          "internalType": "string",
          "name": "departureAirportCode",
          "type": "string"
        },
        {
          "internalType": "string",
          "name": "arrivalAirportCode",
          "type": "string"
        },
        {
          "internalType": "uint256",
          "name": "departureTime",
          "type": "uint256"
        },
        {
          "internalType": "address",
          "name": "buyer",
          "type": "address"
        }
      ],
      "name": "purchasePolicy",
      "outputs": [
        {
          "internalType": "uint256",
          "name": "",
          "type": "uint256"
        }
      ],
      "stateMutability": "payable",
      "type": "function"
    },
    {
      "inputs": [
        {
          "internalType": "uint256",
          "name": "",
          "type": "uint256"
        }
      ],
      "name": "userPolicies",
      "outputs": [
        {
          "internalType": "uint256",
          "name": "policyId",
          "type": "uint256"
        },
        {
          "internalType": "uint256",
          "name": "templateId",
          "type": "uint256"
        },
        {
          "internalType": "string",
          "name": "flightNumber",
          "type": "string"
        },
        {
          "internalType": "string",
          "name": "departureAirportCode",
          "type": "string"
        },
        {
          "internalType": "string",
          "name": "arrivalAirportCode",
          "type": "string"
        },
        {
          "internalType": "uint256",
          "name": "departureTime",
          "type": "uint256"
        },
        {
          "internalType": "uint256",
          "name": "createdAt",
          "type": "uint256"
        },
        {
          "internalType": "uint256",
          "name": "payoutToDate",
          "type": "uint256"
        },
        {
          "internalType": "address",
          "name": "buyer",
          "type": "address"
        },
        {
          "internalType": "enum FlightPolicy.PolicyStatus",
          "name": "status",
          "type": "uint8"
        }
      ],
      "stateMutability": "view",
      "type": "function"
    },
    {
      "inputs": [
        {
          "internalType": "address",
          "name": "",
          "type": "address"
        },
        {
          "internalType": "uint256",
          "name": "",
          "type": "uint256"
        }
      ],
      "name": "userPolicyIds",
      "outputs": [
        {
          "internalType": "uint256",
          "name": "",
          "type": "uint256"
        }
      ],
      "stateMutability": "view",
      "type": "function"
    }
  ],
  "bytecode": "0x60a060405234801561001057600080fd5b503373ffffffffffffffffffffffffffffffffffffffff1660808173ffffffffffffffffffffffffffffffffffffffff1681525050608051613ebc61007c60003960008181610fe70152818161139a015281816116cb015281816118d201526120450152613ebc6000f3fe6080604052600436106100f25760003560e01c8063886414941161008a578063cba85f0611610059578063cba85f0614610372578063cf39c624146103b8578063d3297010146103e1578063e79cdf1d1461040c576100f2565b8063886414941461029d578063a7c0900e146102da578063b207edc714610305578063b6e283e114610335576100f2565b80633147b2cc116100c65780633147b2cc146101c6578063482ab1021461020c5780635990fa36146102355780637b95641514610272576100f2565b8062c84c04146100f757806313e896b61461012257806319ac46141461016057806328cf382c1461019d575b600080fd5b34801561010357600080fd5b5061010c610437565b6040516101199190612af6565b60405180910390f35b34801561012e57600080fd5b5061014960048036038101906101449190612bb6565b61069c565b604051610157929190612e16565b60405180910390f35b34801561016c57600080fd5b5061018760048036038101906101829190612e4d565b610c0a565b6040516101949190613024565b60405180910390f35b3480156101a957600080fd5b506101c460048036038101906101bf9190612bb6565b610fe5565b005b3480156101d257600080fd5b506101ed60048036038101906101e89190613046565b611227565b6040516102039a999897969594939291906130db565b60405180910390f35b34801561021857600080fd5b50610233600480360381019061022e9190613046565b611398565b005b34801561024157600080fd5b5061025c60048036038101906102579190613046565b6114ab565b6040516102699190613185565b60405180910390f35b34801561027e57600080fd5b506102876116c1565b60405161029491906131a7565b60405180910390f35b3480156102a957600080fd5b506102c460048036038101906102bf91906132f7565b6116c7565b6040516102d191906131a7565b60405180910390f35b3480156102e657600080fd5b506102ef6118d0565b6040516102fc91906133e0565b60405180910390f35b61031f600480360381019061031a91906133fb565b6118f4565b60405161032c91906131a7565b60405180910390f35b34801561034157600080fd5b5061035c60048036038101906103579190612bb6565b611df9565b60405161036991906131a7565b60405180910390f35b34801561037e57600080fd5b5061039960048036038101906103949190613046565b611e2a565b6040516103af9a999897969594939291906134eb565b60405180910390f35b3480156103c457600080fd5b506103df60048036038101906103da9190613046565b612043565b005b3480156103ed57600080fd5b506103f661240b565b60405161040391906131a7565b60405180910390f35b34801561041857600080fd5b50610421612411565b60405161042e9190612af6565b60405180910390f35b6060600060015467ffffffffffffffff811115610457576104566131cc565b5b60405190808252806020026020018201604052801561049057816020015b61047d612753565b8152602001906001900390816104755790505b50905060005b6001548110156106945760008082815260200190815260200160002060405180610140016040529081600082015481526020016001820180546104d8906135cb565b80601f0160208091040260200160405190810160405280929190818152602001828054610504906135cb565b80156105515780601f1061052657610100808354040283529160200191610551565b820191906000526020600020905b81548152906001019060200180831161053457829003601f168201915b5050505050815260200160028201805461056a906135cb565b80601f0160208091040260200160405190810160405280929190818152602001828054610596906135cb565b80156105e35780601f106105b8576101008083540402835291602001916105e3565b820191906000526020600020905b8154815290600101906020018083116105c657829003601f168201915b505050505081526020016003820154815260200160048201548152602001600582015481526020016006820154815260200160078201548152602001600882015481526020016009820160009054906101000a900460ff16600181111561064d5761064c612908565b5b600181111561065f5761065e612908565b5b81525050828281518110610676576106756135fc565b5b6020026020010181905250808061068c9061365a565b915050610496565b508091505090565b6106a46127b8565b6106ac612753565b60045483106106f0576040517f08c379a00000000000000000000000000000000000000000000000000000000081526004016106e7906136ee565b60405180910390fd5b8373ffffffffffffffffffffffffffffffffffffffff166002600085815260200190815260200160002060080160009054906101000a900473ffffffffffffffffffffffffffffffffffffffff1673ffffffffffffffffffffffffffffffffffffffff1614610794576040517f08c379a000000000000000000000000000000000000000000000000000000000815260040161078b9061375a565b60405180910390fd5b6000600260008581526020019081526020016000206040518061014001604052908160008201548152602001600182015481526020016002820180546107d9906135cb565b80601f0160208091040260200160405190810160405280929190818152602001828054610805906135cb565b80156108525780601f1061082757610100808354040283529160200191610852565b820191906000526020600020905b81548152906001019060200180831161083557829003601f168201915b5050505050815260200160038201805461086b906135cb565b80601f0160208091040260200160405190810160405280929190818152602001828054610897906135cb565b80156108e45780601f106108b9576101008083540402835291602001916108e4565b820191906000526020600020905b8154815290600101906020018083116108c757829003601f168201915b505050505081526020016004820180546108fd906135cb565b80601f0160208091040260200160405190810160405280929190818152602001828054610929906135cb565b80156109765780601f1061094b57610100808354040283529160200191610976565b820191906000526020600020905b81548152906001019060200180831161095957829003601f168201915b505050505081526020016005820154815260200160068201548152602001600782015481526020016008820160009054906101000a900473ffffffffffffffffffffffffffffffffffffffff1673ffffffffffffffffffffffffffffffffffffffff1673ffffffffffffffffffffffffffffffffffffffff1681526020016008820160149054906101000a900460ff166002811115610a1857610a17612908565b5b6002811115610a2a57610a29612908565b5b8152505090506000806000836020015181526020019081526020016000206040518061014001604052908160008201548152602001600182018054610a6e906135cb565b80601f0160208091040260200160405190810160405280929190818152602001828054610a9a906135cb565b8015610ae75780601f10610abc57610100808354040283529160200191610ae7565b820191906000526020600020905b815481529060010190602001808311610aca57829003601f168201915b50505050508152602001600282018054610b00906135cb565b80601f0160208091040260200160405190810160405280929190818152602001828054610b2c906135cb565b8015610b795780601f10610b4e57610100808354040283529160200191610b79565b820191906000526020600020905b815481529060010190602001808311610b5c57829003601f168201915b505050505081526020016003820154815260200160048201548152602001600582015481526020016006820154815260200160078201548152602001600882015481526020016009820160009054906101000a900460ff166001811115610be357610be2612908565b5b6001811115610bf557610bf4612908565b5b81525050905081819350935050509250929050565b60606000600360008473ffffffffffffffffffffffffffffffffffffffff1673ffffffffffffffffffffffffffffffffffffffff16815260200190815260200160002080549050905060008167ffffffffffffffff811115610c6f57610c6e6131cc565b5b604051908082528060200260200182016040528015610ca857816020015b610c956127b8565b815260200190600190039081610c8d5790505b50905060005b82811015610fda5760026000600360008873ffffffffffffffffffffffffffffffffffffffff1673ffffffffffffffffffffffffffffffffffffffff1681526020019081526020016000208381548110610d0b57610d0a6135fc565b5b90600052602060002001548152602001908152602001600020604051806101400160405290816000820154815260200160018201548152602001600282018054610d54906135cb565b80601f0160208091040260200160405190810160405280929190818152602001828054610d80906135cb565b8015610dcd5780601f10610da257610100808354040283529160200191610dcd565b820191906000526020600020905b815481529060010190602001808311610db057829003601f168201915b50505050508152602001600382018054610de6906135cb565b80601f0160208091040260200160405190810160405280929190818152602001828054610e12906135cb565b8015610e5f5780601f10610e3457610100808354040283529160200191610e5f565b820191906000526020600020905b815481529060010190602001808311610e4257829003601f168201915b50505050508152602001600482018054610e78906135cb565b80601f0160208091040260200160405190810160405280929190818152602001828054610ea4906135cb565b8015610ef15780601f10610ec657610100808354040283529160200191610ef1565b820191906000526020600020905b815481529060010190602001808311610ed457829003601f168201915b505050505081526020016005820154815260200160068201548152602001600782015481526020016008820160009054906101000a900473ffffffffffffffffffffffffffffffffffffffff1673ffffffffffffffffffffffffffffffffffffffff1673ffffffffffffffffffffffffffffffffffffffff1681526020016008820160149054906101000a900460ff166002811115610f9357610f92612908565b5b6002811115610fa557610fa4612908565b5b81525050828281518110610fbc57610fbb6135fc565b5b60200260200101819052508080610fd29061365a565b915050610cae565b508092505050919050565b7f000000000000000000000000000000000000000000000000000000000000000073ffffffffffffffffffffffffffffffffffffffff163273ffffffffffffffffffffffffffffffffffffffff1614611073576040517f08c379a000000000000000000000000000000000000000000000000000000000815260040161106a906137ec565b60405180910390fd5b60045481106110b7576040517f08c379a00000000000000000000000000000000000000000000000000000000081526004016110ae906136ee565b60405180910390fd5b8173ffffffffffffffffffffffffffffffffffffffff166002600083815260200190815260200160002060080160009054906101000a900473ffffffffffffffffffffffffffffffffffffffff1673ffffffffffffffffffffffffffffffffffffffff161461115b576040517f08c379a000000000000000000000000000000000000000000000000000000000815260040161115290613858565b60405180910390fd5b6000600281111561116f5761116e612908565b5b6002600083815260200190815260200160002060080160149054906101000a900460ff1660028111156111a5576111a4612908565b5b146111e5576040517f08c379a00000000000000000000000000000000000000000000000000000000081526004016111dc906138c4565b60405180910390fd5b600280600083815260200190815260200160002060080160146101000a81548160ff0219169083600281111561121e5761121d612908565b5b02179055505050565b6000602052806000526040600020600091509050806000015490806001018054611250906135cb565b80601f016020809104026020016040519081016040528092919081815260200182805461127c906135cb565b80156112c95780601f1061129e576101008083540402835291602001916112c9565b820191906000526020600020905b8154815290600101906020018083116112ac57829003601f168201915b5050505050908060020180546112de906135cb565b80601f016020809104026020016040519081016040528092919081815260200182805461130a906135cb565b80156113575780601f1061132c57610100808354040283529160200191611357565b820191906000526020600020905b81548152906001019060200180831161133a57829003601f168201915b5050505050908060030154908060040154908060050154908060060154908060070154908060080154908060090160009054906101000a900460ff1690508a565b7f000000000000000000000000000000000000000000000000000000000000000073ffffffffffffffffffffffffffffffffffffffff163273ffffffffffffffffffffffffffffffffffffffff1614611426576040517f08c379a000000000000000000000000000000000000000000000000000000000815260040161141d906137ec565b60405180910390fd5b600154811061146a576040517f08c379a000000000000000000000000000000000000000000000000000000000815260040161146190613930565b60405180910390fd5b600160008083815260200190815260200160002060090160006101000a81548160ff021916908360018111156114a3576114a2612908565b5b021790555050565b6114b3612753565b60015482106114f7576040517f08c379a00000000000000000000000000000000000000000000000000000000081526004016114ee9061399c565b60405180910390fd5b600080838152602001908152602001600020604051806101400160405290816000820154815260200160018201805461152f906135cb565b80601f016020809104026020016040519081016040528092919081815260200182805461155b906135cb565b80156115a85780601f1061157d576101008083540402835291602001916115a8565b820191906000526020600020905b81548152906001019060200180831161158b57829003601f168201915b505050505081526020016002820180546115c1906135cb565b80601f01602080910402602001604051908101604052809291908181526020018280546115ed906135cb565b801561163a5780601f1061160f5761010080835404028352916020019161163a565b820191906000526020600020905b81548152906001019060200180831161161d57829003601f168201915b505050505081526020016003820154815260200160048201548152602001600582015481526020016006820154815260200160078201548152602001600882015481526020016009820160009054906101000a900460ff1660018111156116a4576116a3612908565b5b60018111156116b6576116b5612908565b5b815250509050919050565b60045481565b60007f000000000000000000000000000000000000000000000000000000000000000073ffffffffffffffffffffffffffffffffffffffff163273ffffffffffffffffffffffffffffffffffffffff1614611757576040517f08c379a000000000000000000000000000000000000000000000000000000000815260040161174e906137ec565b60405180910390fd5b600060015490506040518061014001604052808281526020018a8152602001898152602001428152602001670de0b6b3a76400008961179691906139bc565b8152602001670de0b6b3a7640000886117af91906139bc565b8152602001868152602001670de0b6b3a7640000866117ce91906139bc565b8152602001848152602001600060018111156117ed576117ec612908565b5b8152506000808381526020019081526020016000206000820151816000015560208201518160010190816118219190613baa565b5060408201518160020190816118379190613baa565b50606082015181600301556080820151816004015560a0820151816005015560c0820151816006015560e0820151816007015561010082015181600801556101208201518160090160006101000a81548160ff021916908360018111156118a1576118a0612908565b5b0217905550905050600160008154809291906118bc9061365a565b919050555080915050979650505050505050565b7f000000000000000000000000000000000000000000000000000000000000000081565b6000600154871061193a576040517f08c379a000000000000000000000000000000000000000000000000000000000815260040161193190613930565b60405180910390fd5b60008060008981526020019081526020016000206040518061014001604052908160008201548152602001600182018054611974906135cb565b80601f01602080910402602001604051908101604052809291908181526020018280546119a0906135cb565b80156119ed5780601f106119c2576101008083540402835291602001916119ed565b820191906000526020600020905b8154815290600101906020018083116119d057829003601f168201915b50505050508152602001600282018054611a06906135cb565b80601f0160208091040260200160405190810160405280929190818152602001828054611a32906135cb565b8015611a7f5780601f10611a5457610100808354040283529160200191611a7f565b820191906000526020600020905b815481529060010190602001808311611a6257829003601f168201915b505050505081526020016003820154815260200160048201548152602001600582015481526020016006820154815260200160078201548152602001600882015481526020016009820160009054906101000a900460ff166001811115611ae957611ae8612908565b5b6001811115611afb57611afa612908565b5b81525050905060006001811115611b1557611b14612908565b5b8161012001516001811115611b2d57611b2c612908565b5b14611b6d576040517f08c379a0000000000000000000000000000000000000000000000000000000008152600401611b6490613cc8565b60405180910390fd5b428411611baf576040517f08c379a0000000000000000000000000000000000000000000000000000000008152600401611ba690613d5a565b60405180910390fd5b8060800151341015611bf6576040517f08c379a0000000000000000000000000000000000000000000000000000000008152600401611bed90613dc6565b60405180910390fd5b600060046000815480929190611c0b9061365a565b9190505590506040518061014001604052808281526020018a8152602001898152602001888152602001878152602001868152602001428152602001600081526020018573ffffffffffffffffffffffffffffffffffffffff16815260200160006002811115611c7e57611c7d612908565b5b8152506002600083815260200190815260200160002060008201518160000155602082015181600101556040820151816002019081611cbd9190613baa565b506060820151816003019081611cd39190613baa565b506080820151816004019081611ce99190613baa565b5060a0820151816005015560c0820151816006015560e082015181600701556101008201518160080160006101000a81548173ffffffffffffffffffffffffffffffffffffffff021916908373ffffffffffffffffffffffffffffffffffffffff1602179055506101208201518160080160146101000a81548160ff02191690836002811115611d7c57611d7b612908565b5b0217905550905050600360008573ffffffffffffffffffffffffffffffffffffffff1673ffffffffffffffffffffffffffffffffffffffff16815260200190815260200160002081908060018154018082558091505060019003906000526020600020016000909190919091505580925050509695505050505050565b60036020528160005260406000208181548110611e1557600080fd5b90600052602060002001600091509150505481565b6002602052806000526040600020600091509050806000015490806001015490806002018054611e59906135cb565b80601f0160208091040260200160405190810160405280929190818152602001828054611e85906135cb565b8015611ed25780601f10611ea757610100808354040283529160200191611ed2565b820191906000526020600020905b815481529060010190602001808311611eb557829003601f168201915b505050505090806003018054611ee7906135cb565b80601f0160208091040260200160405190810160405280929190818152602001828054611f13906135cb565b8015611f605780601f10611f3557610100808354040283529160200191611f60565b820191906000526020600020905b815481529060010190602001808311611f4357829003601f168201915b505050505090806004018054611f75906135cb565b80601f0160208091040260200160405190810160405280929190818152602001828054611fa1906135cb565b8015611fee5780601f10611fc357610100808354040283529160200191611fee565b820191906000526020600020905b815481529060010190602001808311611fd157829003601f168201915b5050505050908060050154908060060154908060070154908060080160009054906101000a900473ffffffffffffffffffffffffffffffffffffffff16908060080160149054906101000a900460ff1690508a565b7f000000000000000000000000000000000000000000000000000000000000000073ffffffffffffffffffffffffffffffffffffffff163273ffffffffffffffffffffffffffffffffffffffff16146120d1576040517f08c379a00000000000000000000000000000000000000000000000000000000081526004016120c8906137ec565b60405180910390fd5b6004548110612115576040517f08c379a000000000000000000000000000000000000000000000000000000000815260040161210c906136ee565b60405180910390fd5b6000600260008381526020019081526020016000209050600060028111156121405761213f612908565b5b8160080160149054906101000a900460ff16600281111561216457612163612908565b5b146121a4576040517f08c379a000000000000000000000000000000000000000000000000000000000815260040161219b906138c4565b60405180910390fd5b60008060008360010154815260200190815260200160002060405180610140016040529081600082015481526020016001820180546121e2906135cb565b80601f016020809104026020016040519081016040528092919081815260200182805461220e906135cb565b801561225b5780601f106122305761010080835404028352916020019161225b565b820191906000526020600020905b81548152906001019060200180831161223e57829003601f168201915b50505050508152602001600282018054612274906135cb565b80601f01602080910402602001604051908101604052809291908181526020018280546122a0906135cb565b80156122ed5780601f106122c2576101008083540402835291602001916122ed565b820191906000526020600020905b8154815290600101906020018083116122d057829003601f168201915b505050505081526020016003820154815260200160048201548152602001600582015481526020016006820154815260200160078201548152602001600882015481526020016009820160009054906101000a900460ff16600181111561235757612356612908565b5b600181111561236957612368612908565b5b81525050905060006201518082610100015161238591906139bc565b83600601546123949190613de6565b90508042116123d8576040517f08c379a00000000000000000000000000000000000000000000000000000000081526004016123cf90613e66565b60405180910390fd5b60018360080160146101000a81548160ff02191690836002811115612400576123ff612908565b5b021790555050505050565b60015481565b60606000805b600154811015612491576000600181111561243557612434612908565b5b60008083815260200190815260200160002060090160009054906101000a900460ff16600181111561246a57612469612908565b5b0361247e57818061247a9061365a565b9250505b80806124899061365a565b915050612417565b5060008167ffffffffffffffff8111156124ae576124ad6131cc565b5b6040519080825280602002602001820160405280156124e757816020015b6124d4612753565b8152602001906001900390816124cc5790505b5090506000805b600154811015612749576000600181111561250c5761250b612908565b5b60008083815260200190815260200160002060090160009054906101000a900460ff16600181111561254157612540612908565b5b0361273657600080828152602001908152602001600020604051806101400160405290816000820154815260200160018201805461257e906135cb565b80601f01602080910402602001604051908101604052809291908181526020018280546125aa906135cb565b80156125f75780601f106125cc576101008083540402835291602001916125f7565b820191906000526020600020905b8154815290600101906020018083116125da57829003601f168201915b50505050508152602001600282018054612610906135cb565b80601f016020809104026020016040519081016040528092919081815260200182805461263c906135cb565b80156126895780601f1061265e57610100808354040283529160200191612689565b820191906000526020600020905b81548152906001019060200180831161266c57829003601f168201915b505050505081526020016003820154815260200160048201548152602001600582015481526020016006820154815260200160078201548152602001600882015481526020016009820160009054906101000a900460ff1660018111156126f3576126f2612908565b5b600181111561270557612704612908565b5b8152505083838151811061271c5761271b6135fc565b5b602002602001018190525081806127329061365a565b9250505b80806127419061365a565b9150506124ee565b5081935050505090565b604051806101400160405280600081526020016060815260200160608152602001600081526020016000815260200160008152602001600081526020016000815260200160008152602001600060018111156127b2576127b1612908565b5b81525090565b6040518061014001604052806000815260200160008152602001606081526020016060815260200160608152602001600081526020016000815260200160008152602001600073ffffffffffffffffffffffffffffffffffffffff1681526020016000600281111561282d5761282c612908565b5b81525090565b600081519050919050565b600082825260208201905092915050565b6000819050602082019050919050565b6000819050919050565b6128728161285f565b82525050565b600081519050919050565b600082825260208201905092915050565b60005b838110156128b2578082015181840152602081019050612897565b60008484015250505050565b6000601f19601f8301169050919050565b60006128da82612878565b6128e48185612883565b93506128f4818560208601612894565b6128fd816128be565b840191505092915050565b7f4e487b7100000000000000000000000000000000000000000000000000000000600052602160045260246000fd5b6002811061294857612947612908565b5b50565b600081905061295982612937565b919050565b60006129698261294b565b9050919050565b6129798161295e565b82525050565b6000610140830160008301516129986000860182612869565b50602083015184820360208601526129b082826128cf565b915050604083015184820360408601526129ca82826128cf565b91505060608301516129df6060860182612869565b5060808301516129f26080860182612869565b5060a0830151612a0560a0860182612869565b5060c0830151612a1860c0860182612869565b5060e0830151612a2b60e0860182612869565b50610100830151612a40610100860182612869565b50610120830151612a55610120860182612970565b508091505092915050565b6000612a6c838361297f565b905092915050565b6000602082019050919050565b6000612a8c82612833565b612a96818561283e565b935083602082028501612aa88561284f565b8060005b85811015612ae45784840389528151612ac58582612a60565b9450612ad083612a74565b925060208a01995050600181019050612aac565b50829750879550505050505092915050565b60006020820190508181036000830152612b108184612a81565b905092915050565b6000604051905090565b600080fd5b600080fd5b600073ffffffffffffffffffffffffffffffffffffffff82169050919050565b6000612b5782612b2c565b9050919050565b612b6781612b4c565b8114612b7257600080fd5b50565b600081359050612b8481612b5e565b92915050565b612b938161285f565b8114612b9e57600080fd5b50565b600081359050612bb081612b8a565b92915050565b60008060408385031215612bcd57612bcc612b22565b5b6000612bdb85828601612b75565b9250506020612bec85828601612ba1565b9150509250929050565b612bff81612b4c565b82525050565b60038110612c1657612c15612908565b5b50565b6000819050612c2782612c05565b919050565b6000612c3782612c19565b9050919050565b612c4781612c2c565b82525050565b600061014083016000830151612c666000860182612869565b506020830151612c796020860182612869565b5060408301518482036040860152612c9182826128cf565b91505060608301518482036060860152612cab82826128cf565b91505060808301518482036080860152612cc582826128cf565b91505060a0830151612cda60a0860182612869565b5060c0830151612ced60c0860182612869565b5060e0830151612d0060e0860182612869565b50610100830151612d15610100860182612bf6565b50610120830151612d2a610120860182612c3e565b508091505092915050565b600061014083016000830151612d4e6000860182612869565b5060208301518482036020860152612d6682826128cf565b91505060408301518482036040860152612d8082826128cf565b9150506060830151612d956060860182612869565b506080830151612da86080860182612869565b5060a0830151612dbb60a0860182612869565b5060c0830151612dce60c0860182612869565b5060e0830151612de160e0860182612869565b50610100830151612df6610100860182612869565b50610120830151612e0b610120860182612970565b508091505092915050565b60006040820190508181036000830152612e308185612c4d565b90508181036020830152612e448184612d35565b90509392505050565b600060208284031215612e6357612e62612b22565b5b6000612e7184828501612b75565b91505092915050565b600081519050919050565b600082825260208201905092915050565b6000819050602082019050919050565b600061014083016000830151612ebf6000860182612869565b506020830151612ed26020860182612869565b5060408301518482036040860152612eea82826128cf565b91505060608301518482036060860152612f0482826128cf565b91505060808301518482036080860152612f1e82826128cf565b91505060a0830151612f3360a0860182612869565b5060c0830151612f4660c0860182612869565b5060e0830151612f5960e0860182612869565b50610100830151612f6e610100860182612bf6565b50610120830151612f83610120860182612c3e565b508091505092915050565b6000612f9a8383612ea6565b905092915050565b6000602082019050919050565b6000612fba82612e7a565b612fc48185612e85565b935083602082028501612fd685612e96565b8060005b858110156130125784840389528151612ff38582612f8e565b9450612ffe83612fa2565b925060208a01995050600181019050612fda565b50829750879550505050505092915050565b6000602082019050818103600083015261303e8184612faf565b905092915050565b60006020828403121561305c5761305b612b22565b5b600061306a84828501612ba1565b91505092915050565b61307c8161285f565b82525050565b600082825260208201905092915050565b600061309e82612878565b6130a88185613082565b93506130b8818560208601612894565b6130c1816128be565b840191505092915050565b6130d58161295e565b82525050565b6000610140820190506130f1600083018d613073565b8181036020830152613103818c613093565b90508181036040830152613117818b613093565b9050613126606083018a613073565b6131336080830189613073565b61314060a0830188613073565b61314d60c0830187613073565b61315a60e0830186613073565b613168610100830185613073565b6131766101208301846130cc565b9b9a5050505050505050505050565b6000602082019050818103600083015261319f8184612d35565b905092915050565b60006020820190506131bc6000830184613073565b92915050565b600080fd5b600080fd5b7f4e487b7100000000000000000000000000000000000000000000000000000000600052604160045260246000fd5b613204826128be565b810181811067ffffffffffffffff82111715613223576132226131cc565b5b80604052505050565b6000613236612b18565b905061324282826131fb565b919050565b600067ffffffffffffffff821115613262576132616131cc565b5b61326b826128be565b9050602081019050919050565b82818337600083830152505050565b600061329a61329584613247565b61322c565b9050828152602081018484840111156132b6576132b56131c7565b5b6132c1848285613278565b509392505050565b600082601f8301126132de576132dd6131c2565b5b81356132ee848260208601613287565b91505092915050565b600080600080600080600060e0888a03121561331657613315612b22565b5b600088013567ffffffffffffffff81111561333457613333612b27565b5b6133408a828b016132c9565b975050602088013567ffffffffffffffff81111561336157613360612b27565b5b61336d8a828b016132c9565b965050604061337e8a828b01612ba1565b955050606061338f8a828b01612ba1565b94505060806133a08a828b01612ba1565b93505060a06133b18a828b01612ba1565b92505060c06133c28a828b01612ba1565b91505092959891949750929550565b6133da81612b4c565b82525050565b60006020820190506133f560008301846133d1565b92915050565b60008060008060008060c0878903121561341857613417612b22565b5b600061342689828a01612ba1565b965050602087013567ffffffffffffffff81111561344757613446612b27565b5b61345389828a016132c9565b955050604087013567ffffffffffffffff81111561347457613473612b27565b5b61348089828a016132c9565b945050606087013567ffffffffffffffff8111156134a1576134a0612b27565b5b6134ad89828a016132c9565b93505060806134be89828a01612ba1565b92505060a06134cf89828a01612b75565b9150509295509295509295565b6134e581612c2c565b82525050565b600061014082019050613501600083018d613073565b61350e602083018c613073565b8181036040830152613520818b613093565b90508181036060830152613534818a613093565b905081810360808301526135488189613093565b905061355760a0830188613073565b61356460c0830187613073565b61357160e0830186613073565b61357f6101008301856133d1565b61358d6101208301846134dc565b9b9a5050505050505050505050565b7f4e487b7100000000000000000000000000000000000000000000000000000000600052602260045260246000fd5b600060028204905060018216806135e357607f821691505b6020821081036135f6576135f561359c565b5b50919050565b7f4e487b7100000000000000000000000000000000000000000000000000000000600052603260045260246000fd5b7f4e487b7100000000000000000000000000000000000000000000000000000000600052601160045260246000fd5b60006136658261285f565b91507fffffffffffffffffffffffffffffffffffffffffffffffffffffffffffffffff82036136975761369661362b565b5b600182019050919050565b7f496e76616c696420706f6c696379496400000000000000000000000000000000600082015250565b60006136d8601083613082565b91506136e3826136a2565b602082019050919050565b60006020820190508181036000830152613707816136cb565b9050919050565b7f4e6f7420796f757220706f6c6963790000000000000000000000000000000000600082015250565b6000613744600f83613082565b915061374f8261370e565b602082019050919050565b6000602082019050818103600083015261377381613737565b9050919050565b7f466c69676874506f6c6963793a204f6e6c792074686520696e7375726572206360008201527f616e2063616c6c20746869732066756e6374696f6e0000000000000000000000602082015250565b60006137d6603583613082565b91506137e18261377a565b604082019050919050565b60006020820190508181036000830152613805816137c9565b9050919050565b7f506f6c69637920646f65736e27742062656c6f6e6720746f2062757965720000600082015250565b6000613842601e83613082565b915061384d8261380c565b602082019050919050565b6000602082019050818103600083015261387181613835565b9050919050565b7f506f6c696379206973206e6f7420616374697665000000000000000000000000600082015250565b60006138ae601483613082565b91506138b982613878565b602082019050919050565b600060208201905081810360008301526138dd816138a1565b9050919050565b7f496e76616c69642074656d706c61746549640000000000000000000000000000600082015250565b600061391a601283613082565b9150613925826138e4565b602082019050919050565b600060208201905081810360008301526139498161390d565b9050919050565b7f54656d706c61746520646f6573206e6f74206578697374000000000000000000600082015250565b6000613986601783613082565b915061399182613950565b602082019050919050565b600060208201905081810360008301526139b581613979565b9050919050565b60006139c78261285f565b91506139d28361285f565b92508282026139e08161285f565b915082820484148315176139f7576139f661362b565b5b5092915050565b60008190508160005260206000209050919050565b60006020601f8301049050919050565b600082821b905092915050565b600060088302613a607fffffffffffffffffffffffffffffffffffffffffffffffffffffffffffffffff82613a23565b613a6a8683613a23565b95508019841693508086168417925050509392505050565b6000819050919050565b6000613aa7613aa2613a9d8461285f565b613a82565b61285f565b9050919050565b6000819050919050565b613ac183613a8c565b613ad5613acd82613aae565b848454613a30565b825550505050565b600090565b613aea613add565b613af5818484613ab8565b505050565b5b81811015613b1957613b0e600082613ae2565b600181019050613afb565b5050565b601f821115613b5e57613b2f816139fe565b613b3884613a13565b81016020851015613b47578190505b613b5b613b5385613a13565b830182613afa565b50505b505050565b600082821c905092915050565b6000613b8160001984600802613b63565b1980831691505092915050565b6000613b9a8383613b70565b9150826002028217905092915050565b613bb382612878565b67ffffffffffffffff811115613bcc57613bcb6131cc565b5b613bd682546135cb565b613be1828285613b1d565b600060209050601f831160018114613c145760008415613c02578287015190505b613c0c8582613b8e565b865550613c74565b601f198416613c22866139fe565b60005b82811015613c4a57848901518255600182019150602085019450602081019050613c25565b86831015613c675784890151613c63601f891682613b70565b8355505b6001600288020188555050505b505050505050565b7f506f6c6963792074656d706c617465206973206e6f7420616374697665000000600082015250565b6000613cb2601d83613082565b9150613cbd82613c7c565b602082019050919050565b60006020820190508181036000830152613ce181613ca5565b9050919050565b7f4465706172747572652074696d65206d75737420626520696e2074686520667560008201527f7475726500000000000000000000000000000000000000000000000000000000602082015250565b6000613d44602483613082565b9150613d4f82613ce8565b604082019050919050565b60006020820190508181036000830152613d7381613d37565b9050919050565b7f496e73756666696369656e74207072656d69756d2073656e7400000000000000600082015250565b6000613db0601983613082565b9150613dbb82613d7a565b602082019050919050565b60006020820190508181036000830152613ddf81613da3565b9050919050565b6000613df18261285f565b9150613dfc8361285f565b9250828201905080821115613e1457613e1361362b565b5b92915050565b7f506f6c69637920686173206e6f74206578706972656420796574000000000000600082015250565b6000613e50601a83613082565b9150613e5b82613e1a565b602082019050919050565b60006020820190508181036000830152613e7f81613e43565b905091905056fea2646970667358221220d2cb68d4dd8d48237cd642ef9c08f8cafb73d76891500ddc3fdc81f9002b7bf264736f6c63430008130033",
  "linkReferences": {},
  "deployedLinkReferences": {}
}