{
  "_format": "hh-sol-artifact-1",
  "contractName": "FlightPolicy",
  "sourceName": "contracts/FlightPolicy.sol",
  "abi": [
    {
      "inputs": [
        {
          "internalType": "address",
          "name": "_oracleConnector",
          "type": "address"
        }
      ],
      "stateMutability": "nonpayable",
      "type": "constructor"
    },
    {
      "anonymous": false,
      "inputs": [
        {
          "indexed": false,
          "internalType": "uint256",
          "name": "policyId",
          "type": "uint256"
        },
        {
          "indexed": false,
          "internalType": "address",
          "name": "buyer",
          "type": "address"
        },
        {
          "indexed": false,
          "internalType": "uint256",
          "name": "payout",
          "type": "uint256"
        },
        {
          "indexed": false,
          "internalType": "enum FlightPolicy.PayoutResult",
          "name": "result",
          "type": "uint8"
        }
      ],
      "name": "PayoutEvaluated",
      "type": "event"
    },
    {
      "inputs": [
        {
          "internalType": "uint256",
          "name": "policyId",
          "type": "uint256"
        },
        {
          "internalType": "address",
          "name": "buyer",
          "type": "address"
        }
      ],
      "name": "claimPayout",
      "outputs": [
        {
          "internalType": "uint256",
          "name": "",
          "type": "uint256"
        },
        {
          "components": [
            {
              "internalType": "uint256",
              "name": "policyId",
              "type": "uint256"
            },
            {
              "components": [
                {
                  "internalType": "string",
                  "name": "templateId",
                  "type": "string"
                },
                {
                  "internalType": "string",
                  "name": "name",
                  "type": "string"
                },
                {
                  "internalType": "string",
                  "name": "description",
                  "type": "string"
                },
                {
                  "internalType": "uint256",
                  "name": "createdAt",
                  "type": "uint256"
                },
                {
                  "internalType": "uint256",
                  "name": "updatedAt",
                  "type": "uint256"
                },
                {
                  "internalType": "uint256",
                  "name": "premium",
                  "type": "uint256"
                },
                {
                  "internalType": "uint256",
                  "name": "payoutPerHour",
                  "type": "uint256"
                },
                {
                  "internalType": "uint256",
                  "name": "maxTotalPayout",
                  "type": "uint256"
                },
                {
                  "internalType": "uint256",
                  "name": "delayThresholdHours",
                  "type": "uint256"
                },
                {
                  "internalType": "uint256",
                  "name": "coverageDurationSeconds",
                  "type": "uint256"
                },
                {
                  "internalType": "enum FlightPolicy.PolicyTemplateStatus",
                  "name": "status",
                  "type": "uint8"
                }
              ],
              "internalType": "struct FlightPolicy.PolicyTemplate",
              "name": "template",
              "type": "tuple"
            },
            {
              "internalType": "string",
              "name": "flightNumber",
              "type": "string"
            },
            {
              "internalType": "uint256",
              "name": "departureTime",
              "type": "uint256"
            },
            {
              "internalType": "uint256",
              "name": "createdAt",
              "type": "uint256"
            },
            {
              "internalType": "uint256",
              "name": "payoutToDate",
              "type": "uint256"
            },
            {
              "internalType": "address",
              "name": "buyer",
              "type": "address"
            },
            {
              "internalType": "enum FlightPolicy.PolicyStatus",
              "name": "status",
              "type": "uint8"
            }
          ],
          "internalType": "struct FlightPolicy.UserPolicy",
          "name": "",
          "type": "tuple"
        }
      ],
      "stateMutability": "nonpayable",
      "type": "function"
    },
    {
      "inputs": [
        {
          "internalType": "uint256",
          "name": "currentTime",
          "type": "uint256"
        }
      ],
      "name": "getAllPolicies",
      "outputs": [
        {
          "components": [
            {
              "internalType": "uint256",
              "name": "policyId",
              "type": "uint256"
            },
            {
              "components": [
                {
                  "internalType": "string",
                  "name": "templateId",
                  "type": "string"
                },
                {
                  "internalType": "string",
                  "name": "name",
                  "type": "string"
                },
                {
                  "internalType": "string",
                  "name": "description",
                  "type": "string"
                },
                {
                  "internalType": "uint256",
                  "name": "createdAt",
                  "type": "uint256"
                },
                {
                  "internalType": "uint256",
                  "name": "updatedAt",
                  "type": "uint256"
                },
                {
                  "internalType": "uint256",
                  "name": "premium",
                  "type": "uint256"
                },
                {
                  "internalType": "uint256",
                  "name": "payoutPerHour",
                  "type": "uint256"
                },
                {
                  "internalType": "uint256",
                  "name": "maxTotalPayout",
                  "type": "uint256"
                },
                {
                  "internalType": "uint256",
                  "name": "delayThresholdHours",
                  "type": "uint256"
                },
                {
                  "internalType": "uint256",
                  "name": "coverageDurationSeconds",
                  "type": "uint256"
                },
                {
                  "internalType": "enum FlightPolicy.PolicyTemplateStatus",
                  "name": "status",
                  "type": "uint8"
                }
              ],
              "internalType": "struct FlightPolicy.PolicyTemplate",
              "name": "template",
              "type": "tuple"
            },
            {
              "internalType": "string",
              "name": "flightNumber",
              "type": "string"
            },
            {
              "internalType": "uint256",
              "name": "departureTime",
              "type": "uint256"
            },
            {
              "internalType": "uint256",
              "name": "createdAt",
              "type": "uint256"
            },
            {
              "internalType": "uint256",
              "name": "payoutToDate",
              "type": "uint256"
            },
            {
              "internalType": "address",
              "name": "buyer",
              "type": "address"
            },
            {
              "internalType": "enum FlightPolicy.PolicyStatus",
              "name": "status",
              "type": "uint8"
            }
          ],
          "internalType": "struct FlightPolicy.UserPolicy[]",
          "name": "",
          "type": "tuple[]"
        }
      ],
      "stateMutability": "view",
      "type": "function"
    },
    {
      "inputs": [
        {
          "internalType": "address",
          "name": "user",
          "type": "address"
        },
        {
          "internalType": "uint256",
          "name": "currentTime",
          "type": "uint256"
        }
      ],
      "name": "getUserPolicies",
      "outputs": [
        {
          "components": [
            {
              "internalType": "uint256",
              "name": "policyId",
              "type": "uint256"
            },
            {
              "components": [
                {
                  "internalType": "string",
                  "name": "templateId",
                  "type": "string"
                },
                {
                  "internalType": "string",
                  "name": "name",
                  "type": "string"
                },
                {
                  "internalType": "string",
                  "name": "description",
                  "type": "string"
                },
                {
                  "internalType": "uint256",
                  "name": "createdAt",
                  "type": "uint256"
                },
                {
                  "internalType": "uint256",
                  "name": "updatedAt",
                  "type": "uint256"
                },
                {
                  "internalType": "uint256",
                  "name": "premium",
                  "type": "uint256"
                },
                {
                  "internalType": "uint256",
                  "name": "payoutPerHour",
                  "type": "uint256"
                },
                {
                  "internalType": "uint256",
                  "name": "maxTotalPayout",
                  "type": "uint256"
                },
                {
                  "internalType": "uint256",
                  "name": "delayThresholdHours",
                  "type": "uint256"
                },
                {
                  "internalType": "uint256",
                  "name": "coverageDurationSeconds",
                  "type": "uint256"
                },
                {
                  "internalType": "enum FlightPolicy.PolicyTemplateStatus",
                  "name": "status",
                  "type": "uint8"
                }
              ],
              "internalType": "struct FlightPolicy.PolicyTemplate",
              "name": "template",
              "type": "tuple"
            },
            {
              "internalType": "string",
              "name": "flightNumber",
              "type": "string"
            },
            {
              "internalType": "uint256",
              "name": "departureTime",
              "type": "uint256"
            },
            {
              "internalType": "uint256",
              "name": "createdAt",
              "type": "uint256"
            },
            {
              "internalType": "uint256",
              "name": "payoutToDate",
              "type": "uint256"
            },
            {
              "internalType": "address",
              "name": "buyer",
              "type": "address"
            },
            {
              "internalType": "enum FlightPolicy.PolicyStatus",
              "name": "status",
              "type": "uint8"
            }
          ],
          "internalType": "struct FlightPolicy.UserPolicy[]",
          "name": "",
          "type": "tuple[]"
        }
      ],
      "stateMutability": "view",
      "type": "function"
    },
    {
      "inputs": [
        {
          "internalType": "string",
          "name": "templateId",
          "type": "string"
        },
        {
          "internalType": "uint256",
          "name": "currentTime",
          "type": "uint256"
        }
      ],
      "name": "getUserPoliciesByTemplate",
      "outputs": [
        {
          "components": [
            {
              "internalType": "uint256",
              "name": "policyId",
              "type": "uint256"
            },
            {
              "components": [
                {
                  "internalType": "string",
                  "name": "templateId",
                  "type": "string"
                },
                {
                  "internalType": "string",
                  "name": "name",
                  "type": "string"
                },
                {
                  "internalType": "string",
                  "name": "description",
                  "type": "string"
                },
                {
                  "internalType": "uint256",
                  "name": "createdAt",
                  "type": "uint256"
                },
                {
                  "internalType": "uint256",
                  "name": "updatedAt",
                  "type": "uint256"
                },
                {
                  "internalType": "uint256",
                  "name": "premium",
                  "type": "uint256"
                },
                {
                  "internalType": "uint256",
                  "name": "payoutPerHour",
                  "type": "uint256"
                },
                {
                  "internalType": "uint256",
                  "name": "maxTotalPayout",
                  "type": "uint256"
                },
                {
                  "internalType": "uint256",
                  "name": "delayThresholdHours",
                  "type": "uint256"
                },
                {
                  "internalType": "uint256",
                  "name": "coverageDurationSeconds",
                  "type": "uint256"
                },
                {
                  "internalType": "enum FlightPolicy.PolicyTemplateStatus",
                  "name": "status",
                  "type": "uint8"
                }
              ],
              "internalType": "struct FlightPolicy.PolicyTemplate",
              "name": "template",
              "type": "tuple"
            },
            {
              "internalType": "string",
              "name": "flightNumber",
              "type": "string"
            },
            {
              "internalType": "uint256",
              "name": "departureTime",
              "type": "uint256"
            },
            {
              "internalType": "uint256",
              "name": "createdAt",
              "type": "uint256"
            },
            {
              "internalType": "uint256",
              "name": "payoutToDate",
              "type": "uint256"
            },
            {
              "internalType": "address",
              "name": "buyer",
              "type": "address"
            },
            {
              "internalType": "enum FlightPolicy.PolicyStatus",
              "name": "status",
              "type": "uint8"
            }
          ],
          "internalType": "struct FlightPolicy.UserPolicy[]",
          "name": "",
          "type": "tuple[]"
        }
      ],
      "stateMutability": "view",
      "type": "function"
    },
    {
      "inputs": [],
      "name": "insurerAddress",
      "outputs": [
        {
          "internalType": "address",
          "name": "",
          "type": "address"
        }
      ],
      "stateMutability": "view",
      "type": "function"
    },
    {
      "inputs": [],
      "name": "nextUserPolicyId",
      "outputs": [
        {
          "internalType": "uint256",
          "name": "",
          "type": "uint256"
        }
      ],
      "stateMutability": "view",
      "type": "function"
    },
    {
      "inputs": [],
      "name": "oracleConnector",
      "outputs": [
        {
          "internalType": "contract OracleConnector",
          "name": "",
          "type": "address"
        }
      ],
      "stateMutability": "view",
      "type": "function"
    },
    {
      "inputs": [
        {
          "components": [
            {
              "internalType": "string",
              "name": "templateId",
              "type": "string"
            },
            {
              "internalType": "string",
              "name": "name",
              "type": "string"
            },
            {
              "internalType": "string",
              "name": "description",
              "type": "string"
            },
            {
              "internalType": "uint256",
              "name": "createdAt",
              "type": "uint256"
            },
            {
              "internalType": "uint256",
              "name": "updatedAt",
              "type": "uint256"
            },
            {
              "internalType": "uint256",
              "name": "premium",
              "type": "uint256"
            },
            {
              "internalType": "uint256",
              "name": "payoutPerHour",
              "type": "uint256"
            },
            {
              "internalType": "uint256",
              "name": "maxTotalPayout",
              "type": "uint256"
            },
            {
              "internalType": "uint256",
              "name": "delayThresholdHours",
              "type": "uint256"
            },
            {
              "internalType": "uint256",
              "name": "coverageDurationSeconds",
              "type": "uint256"
            },
            {
              "internalType": "enum FlightPolicy.PolicyTemplateStatus",
              "name": "status",
              "type": "uint8"
            }
          ],
          "internalType": "struct FlightPolicy.PolicyTemplate",
          "name": "template",
          "type": "tuple"
        },
        {
          "internalType": "string",
          "name": "flightNumber",
          "type": "string"
        },
        {
          "internalType": "uint256",
          "name": "departureTime",
          "type": "uint256"
        },
        {
          "internalType": "address",
          "name": "buyer",
          "type": "address"
        }
      ],
      "name": "purchasePolicy",
      "outputs": [
        {
          "internalType": "uint256",
          "name": "",
          "type": "uint256"
        }
      ],
      "stateMutability": "nonpayable",
      "type": "function"
    },
    {
      "inputs": [
        {
          "internalType": "uint256",
          "name": "",
          "type": "uint256"
        }
      ],
      "name": "userPolicies",
      "outputs": [
        {
          "internalType": "uint256",
          "name": "policyId",
          "type": "uint256"
        },
        {
          "components": [
            {
              "internalType": "string",
              "name": "templateId",
              "type": "string"
            },
            {
              "internalType": "string",
              "name": "name",
              "type": "string"
            },
            {
              "internalType": "string",
              "name": "description",
              "type": "string"
            },
            {
              "internalType": "uint256",
              "name": "createdAt",
              "type": "uint256"
            },
            {
              "internalType": "uint256",
              "name": "updatedAt",
              "type": "uint256"
            },
            {
              "internalType": "uint256",
              "name": "premium",
              "type": "uint256"
            },
            {
              "internalType": "uint256",
              "name": "payoutPerHour",
              "type": "uint256"
            },
            {
              "internalType": "uint256",
              "name": "maxTotalPayout",
              "type": "uint256"
            },
            {
              "internalType": "uint256",
              "name": "delayThresholdHours",
              "type": "uint256"
            },
            {
              "internalType": "uint256",
              "name": "coverageDurationSeconds",
              "type": "uint256"
            },
            {
              "internalType": "enum FlightPolicy.PolicyTemplateStatus",
              "name": "status",
              "type": "uint8"
            }
          ],
          "internalType": "struct FlightPolicy.PolicyTemplate",
          "name": "template",
          "type": "tuple"
        },
        {
          "internalType": "string",
          "name": "flightNumber",
          "type": "string"
        },
        {
          "internalType": "uint256",
          "name": "departureTime",
          "type": "uint256"
        },
        {
          "internalType": "uint256",
          "name": "createdAt",
          "type": "uint256"
        },
        {
          "internalType": "uint256",
          "name": "payoutToDate",
          "type": "uint256"
        },
        {
          "internalType": "address",
          "name": "buyer",
          "type": "address"
        },
        {
          "internalType": "enum FlightPolicy.PolicyStatus",
          "name": "status",
          "type": "uint8"
        }
      ],
      "stateMutability": "view",
      "type": "function"
    },
    {
      "inputs": [
        {
          "internalType": "address",
          "name": "",
          "type": "address"
        },
        {
          "internalType": "uint256",
          "name": "",
          "type": "uint256"
        }
      ],
      "name": "userPolicyIds",
      "outputs": [
        {
          "internalType": "uint256",
          "name": "",
          "type": "uint256"
        }
      ],
      "stateMutability": "view",
      "type": "function"
    }
  ],
  "bytecode": "0x60a06040523480156200001157600080fd5b506040516200473238038062004732833981810160405281019062000037919062000125565b60016000819055503373ffffffffffffffffffffffffffffffffffffffff1660808173ffffffffffffffffffffffffffffffffffffffff168152505080600160006101000a81548173ffffffffffffffffffffffffffffffffffffffff021916908373ffffffffffffffffffffffffffffffffffffffff1602179055505062000157565b600080fd5b600073ffffffffffffffffffffffffffffffffffffffff82169050919050565b6000620000ed82620000c0565b9050919050565b620000ff81620000e0565b81146200010b57600080fd5b50565b6000815190506200011f81620000f4565b92915050565b6000602082840312156200013e576200013d620000bb565b5b60006200014e848285016200010e565b91505092915050565b6080516145bf620001736000396000610bed01526145bf6000f3fe608060405234801561001057600080fd5b506004361061009e5760003560e01c8063b0110cc611610066578063b0110cc61461015d578063b6e283e11461018e578063c52eaa40146101be578063cba85f06146101ee578063f6897d63146102255761009e565b8063642bb925146100a357806364b72a65146100d35780637b956415146101035780639a9122ac14610121578063a7c0900e1461013f575b600080fd5b6100bd60048036038101906100b89190612fbd565b610255565b6040516100ca91906133e0565b60405180910390f35b6100ed60048036038101906100e89190613402565b610758565b6040516100fa91906133e0565b60405180910390f35b61010b610bbf565b604051610118919061343e565b60405180910390f35b610129610bc5565b60405161013691906134b8565b60405180910390f35b610147610beb565b60405161015491906134e2565b60405180910390f35b610177600480360381019061017291906134fd565b610c0f565b6040516101859291906135f4565b60405180910390f35b6101a860048036038101906101a39190612fbd565b611ec6565b6040516101b5919061343e565b60405180910390f35b6101d860048036038101906101d39190613759565b611ef7565b6040516101e591906133e0565b60405180910390f35b61020860048036038101906102039190613402565b612472565b60405161021c98979695949392919061390b565b60405180910390f35b61023f600480360381019061023a9190613b26565b6127b1565b60405161024c919061343e565b60405180910390f35b60606000600360008573ffffffffffffffffffffffffffffffffffffffff1673ffffffffffffffffffffffffffffffffffffffff16815260200190815260200160002080549050905060008167ffffffffffffffff8111156102ba576102b961362e565b5b6040519080825280602002602001820160405280156102f357816020015b6102e0612e36565b8152602001906001900390816102d85790505b50905060005b828110156107435760026000600360008973ffffffffffffffffffffffffffffffffffffffff1673ffffffffffffffffffffffffffffffffffffffff168152602001908152602001600020838154811061035657610355613bc5565b5b90600052602060002001548152602001908152602001600020604051806101000160405290816000820154815260200160018201604051806101600160405290816000820180546103a690613c23565b80601f01602080910402602001604051908101604052809291908181526020018280546103d290613c23565b801561041f5780601f106103f45761010080835404028352916020019161041f565b820191906000526020600020905b81548152906001019060200180831161040257829003601f168201915b5050505050815260200160018201805461043890613c23565b80601f016020809104026020016040519081016040528092919081815260200182805461046490613c23565b80156104b15780601f10610486576101008083540402835291602001916104b1565b820191906000526020600020905b81548152906001019060200180831161049457829003601f168201915b505050505081526020016002820180546104ca90613c23565b80601f01602080910402602001604051908101604052809291908181526020018280546104f690613c23565b80156105435780601f1061051857610100808354040283529160200191610543565b820191906000526020600020905b81548152906001019060200180831161052657829003601f168201915b5050505050815260200160038201548152602001600482015481526020016005820154815260200160068201548152602001600782015481526020016008820154815260200160098201548152602001600a820160009054906101000a900460ff1660018111156105b7576105b66130c8565b5b60018111156105c9576105c86130c8565b5b815250508152602001600c820180546105e190613c23565b80601f016020809104026020016040519081016040528092919081815260200182805461060d90613c23565b801561065a5780601f1061062f5761010080835404028352916020019161065a565b820191906000526020600020905b81548152906001019060200180831161063d57829003601f168201915b50505050508152602001600d8201548152602001600e8201548152602001600f82015481526020016010820160009054906101000a900473ffffffffffffffffffffffffffffffffffffffff1673ffffffffffffffffffffffffffffffffffffffff1673ffffffffffffffffffffffffffffffffffffffff1681526020016010820160149054906101000a900460ff1660028111156106fc576106fb6130c8565b5b600281111561070e5761070d6130c8565b5b8152505082828151811061072557610724613bc5565b5b6020026020010181905250808061073b90613c83565b9150506102f9565b5061074e8185612aa0565b9250505092915050565b60606000600454905060008167ffffffffffffffff81111561077d5761077c61362e565b5b6040519080825280602002602001820160405280156107b657816020015b6107a3612e36565b81526020019060019003908161079b5790505b50905060005b82811015610bab57600260008281526020019081526020016000206040518061010001604052908160008201548152602001600182016040518061016001604052908160008201805461080e90613c23565b80601f016020809104026020016040519081016040528092919081815260200182805461083a90613c23565b80156108875780601f1061085c57610100808354040283529160200191610887565b820191906000526020600020905b81548152906001019060200180831161086a57829003601f168201915b505050505081526020016001820180546108a090613c23565b80601f01602080910402602001604051908101604052809291908181526020018280546108cc90613c23565b80156109195780601f106108ee57610100808354040283529160200191610919565b820191906000526020600020905b8154815290600101906020018083116108fc57829003601f168201915b5050505050815260200160028201805461093290613c23565b80601f016020809104026020016040519081016040528092919081815260200182805461095e90613c23565b80156109ab5780601f10610980576101008083540402835291602001916109ab565b820191906000526020600020905b81548152906001019060200180831161098e57829003601f168201915b5050505050815260200160038201548152602001600482015481526020016005820154815260200160068201548152602001600782015481526020016008820154815260200160098201548152602001600a820160009054906101000a900460ff166001811115610a1f57610a1e6130c8565b5b6001811115610a3157610a306130c8565b5b815250508152602001600c82018054610a4990613c23565b80601f0160208091040260200160405190810160405280929190818152602001828054610a7590613c23565b8015610ac25780601f10610a9757610100808354040283529160200191610ac2565b820191906000526020600020905b815481529060010190602001808311610aa557829003601f168201915b50505050508152602001600d8201548152602001600e8201548152602001600f82015481526020016010820160009054906101000a900473ffffffffffffffffffffffffffffffffffffffff1673ffffffffffffffffffffffffffffffffffffffff1673ffffffffffffffffffffffffffffffffffffffff1681526020016010820160149054906101000a900460ff166002811115610b6457610b636130c8565b5b6002811115610b7657610b756130c8565b5b81525050828281518110610b8d57610b8c613bc5565b5b60200260200101819052508080610ba390613c83565b9150506107bc565b50610bb68185612aa0565b92505050919050565b60045481565b600160009054906101000a900473ffffffffffffffffffffffffffffffffffffffff1681565b7f000000000000000000000000000000000000000000000000000000000000000081565b6000610c19612e36565b610c21612bbc565b6004548410610c65576040517f08c379a0000000000000000000000000000000000000000000000000000000008152600401610c5c90613d17565b60405180910390fd5b60006002600086815260200190815260200160002090508060100160009054906101000a900473ffffffffffffffffffffffffffffffffffffffff1673ffffffffffffffffffffffffffffffffffffffff168473ffffffffffffffffffffffffffffffffffffffff1614610d0e576040517f08c379a0000000000000000000000000000000000000000000000000000000008152600401610d0590613d83565b60405180910390fd5b60006002811115610d2257610d216130c8565b5b8160100160149054906101000a900460ff166002811115610d4657610d456130c8565b5b14610d86576040517f08c379a0000000000000000000000000000000000000000000000000000000008152600401610d7d90613def565b60405180910390fd5b6000806000600160009054906101000a900473ffffffffffffffffffffffffffffffffffffffff1673ffffffffffffffffffffffffffffffffffffffff166326ec641e85600c01610dda87600d0154612c0b565b6040518363ffffffff1660e01b8152600401610df7929190613ea8565b6060604051808303816000875af1158015610e16573d6000803e3d6000fd5b505050506040513d601f19601f82011682018060405250810190610e3a9190613f2c565b92509250925082611239577f5122fc8d66a635ed59633488b2363a87aa4103697e25b116e157f3a4f402760d8888600080604051610e7b9493929190614002565b60405180910390a16000848060405180610100016040529081600082015481526020016001820160405180610160016040529081600082018054610ebe90613c23565b80601f0160208091040260200160405190810160405280929190818152602001828054610eea90613c23565b8015610f375780601f10610f0c57610100808354040283529160200191610f37565b820191906000526020600020905b815481529060010190602001808311610f1a57829003601f168201915b50505050508152602001600182018054610f5090613c23565b80601f0160208091040260200160405190810160405280929190818152602001828054610f7c90613c23565b8015610fc95780601f10610f9e57610100808354040283529160200191610fc9565b820191906000526020600020905b815481529060010190602001808311610fac57829003601f168201915b50505050508152602001600282018054610fe290613c23565b80601f016020809104026020016040519081016040528092919081815260200182805461100e90613c23565b801561105b5780601f106110305761010080835404028352916020019161105b565b820191906000526020600020905b81548152906001019060200180831161103e57829003601f168201915b5050505050815260200160038201548152602001600482015481526020016005820154815260200160068201548152602001600782015481526020016008820154815260200160098201548152602001600a820160009054906101000a900460ff1660018111156110cf576110ce6130c8565b5b60018111156110e1576110e06130c8565b5b815250508152602001600c820180546110f990613c23565b80601f016020809104026020016040519081016040528092919081815260200182805461112590613c23565b80156111725780601f1061114757610100808354040283529160200191611172565b820191906000526020600020905b81548152906001019060200180831161115557829003601f168201915b50505050508152602001600d8201548152602001600e8201548152602001600f82015481526020016010820160009054906101000a900473ffffffffffffffffffffffffffffffffffffffff1673ffffffffffffffffffffffffffffffffffffffff1673ffffffffffffffffffffffffffffffffffffffff1681526020016010820160149054906101000a900460ff166002811115611214576112136130c8565b5b6002811115611226576112256130c8565b5b8152505090509550955050505050611eb7565b81611633577f5122fc8d66a635ed59633488b2363a87aa4103697e25b116e157f3a4f402760d8888600060016040516112759493929190614002565b60405180910390a160008480604051806101000160405290816000820154815260200160018201604051806101600160405290816000820180546112b890613c23565b80601f01602080910402602001604051908101604052809291908181526020018280546112e490613c23565b80156113315780601f1061130657610100808354040283529160200191611331565b820191906000526020600020905b81548152906001019060200180831161131457829003601f168201915b5050505050815260200160018201805461134a90613c23565b80601f016020809104026020016040519081016040528092919081815260200182805461137690613c23565b80156113c35780601f10611398576101008083540402835291602001916113c3565b820191906000526020600020905b8154815290600101906020018083116113a657829003601f168201915b505050505081526020016002820180546113dc90613c23565b80601f016020809104026020016040519081016040528092919081815260200182805461140890613c23565b80156114555780601f1061142a57610100808354040283529160200191611455565b820191906000526020600020905b81548152906001019060200180831161143857829003601f168201915b5050505050815260200160038201548152602001600482015481526020016005820154815260200160068201548152602001600782015481526020016008820154815260200160098201548152602001600a820160009054906101000a900460ff1660018111156114c9576114c86130c8565b5b60018111156114db576114da6130c8565b5b815250508152602001600c820180546114f390613c23565b80601f016020809104026020016040519081016040528092919081815260200182805461151f90613c23565b801561156c5780601f106115415761010080835404028352916020019161156c565b820191906000526020600020905b81548152906001019060200180831161154f57829003601f168201915b50505050508152602001600d8201548152602001600e8201548152602001600f82015481526020016010820160009054906101000a900473ffffffffffffffffffffffffffffffffffffffff1673ffffffffffffffffffffffffffffffffffffffff1673ffffffffffffffffffffffffffffffffffffffff1681526020016010820160149054906101000a900460ff16600281111561160e5761160d6130c8565b5b60028111156116205761161f6130c8565b5b8152505090509550955050505050611eb7565b60008460010160080154821161164a57600061165e565b84600101600801548261165d9190614047565b5b90506000856001016006015482611675919061407b565b9050856001016007015481111561169157856001016007015490505b60008103611a90577f5122fc8d66a635ed59633488b2363a87aa4103697e25b116e157f3a4f402760d8a8a600060026040516116d09493929190614002565b60405180910390a1600086806040518061010001604052908160008201548152602001600182016040518061016001604052908160008201805461171390613c23565b80601f016020809104026020016040519081016040528092919081815260200182805461173f90613c23565b801561178c5780601f106117615761010080835404028352916020019161178c565b820191906000526020600020905b81548152906001019060200180831161176f57829003601f168201915b505050505081526020016001820180546117a590613c23565b80601f01602080910402602001604051908101604052809291908181526020018280546117d190613c23565b801561181e5780601f106117f35761010080835404028352916020019161181e565b820191906000526020600020905b81548152906001019060200180831161180157829003601f168201915b5050505050815260200160028201805461183790613c23565b80601f016020809104026020016040519081016040528092919081815260200182805461186390613c23565b80156118b05780601f10611885576101008083540402835291602001916118b0565b820191906000526020600020905b81548152906001019060200180831161189357829003601f168201915b5050505050815260200160038201548152602001600482015481526020016005820154815260200160068201548152602001600782015481526020016008820154815260200160098201548152602001600a820160009054906101000a900460ff166001811115611924576119236130c8565b5b6001811115611936576119356130c8565b5b815250508152602001600c8201805461194e90613c23565b80601f016020809104026020016040519081016040528092919081815260200182805461197a90613c23565b80156119c75780601f1061199c576101008083540402835291602001916119c7565b820191906000526020600020905b8154815290600101906020018083116119aa57829003601f168201915b50505050508152602001600d8201548152602001600e8201548152602001600f82015481526020016010820160009054906101000a900473ffffffffffffffffffffffffffffffffffffffff1673ffffffffffffffffffffffffffffffffffffffff1673ffffffffffffffffffffffffffffffffffffffff1681526020016010820160149054906101000a900460ff166002811115611a6957611a686130c8565b5b6002811115611a7b57611a7a6130c8565b5b81525050905097509750505050505050611eb7565b60028660100160146101000a81548160ff02191690836002811115611ab857611ab76130c8565b5b02179055508086600f01819055507f5122fc8d66a635ed59633488b2363a87aa4103697e25b116e157f3a4f402760d8a8a836003604051611afc94939291906140bd565b60405180910390a180868060405180610100016040529081600082015481526020016001820160405180610160016040529081600082018054611b3e90613c23565b80601f0160208091040260200160405190810160405280929190818152602001828054611b6a90613c23565b8015611bb75780601f10611b8c57610100808354040283529160200191611bb7565b820191906000526020600020905b815481529060010190602001808311611b9a57829003601f168201915b50505050508152602001600182018054611bd090613c23565b80601f0160208091040260200160405190810160405280929190818152602001828054611bfc90613c23565b8015611c495780601f10611c1e57610100808354040283529160200191611c49565b820191906000526020600020905b815481529060010190602001808311611c2c57829003601f168201915b50505050508152602001600282018054611c6290613c23565b80601f0160208091040260200160405190810160405280929190818152602001828054611c8e90613c23565b8015611cdb5780601f10611cb057610100808354040283529160200191611cdb565b820191906000526020600020905b815481529060010190602001808311611cbe57829003601f168201915b5050505050815260200160038201548152602001600482015481526020016005820154815260200160068201548152602001600782015481526020016008820154815260200160098201548152602001600a820160009054906101000a900460ff166001811115611d4f57611d4e6130c8565b5b6001811115611d6157611d606130c8565b5b815250508152602001600c82018054611d7990613c23565b80601f0160208091040260200160405190810160405280929190818152602001828054611da590613c23565b8015611df25780601f10611dc757610100808354040283529160200191611df2565b820191906000526020600020905b815481529060010190602001808311611dd557829003601f168201915b50505050508152602001600d8201548152602001600e8201548152602001600f82015481526020016010820160009054906101000a900473ffffffffffffffffffffffffffffffffffffffff1673ffffffffffffffffffffffffffffffffffffffff1673ffffffffffffffffffffffffffffffffffffffff1681526020016010820160149054906101000a900460ff166002811115611e9457611e936130c8565b5b6002811115611ea657611ea56130c8565b5b815250509050975097505050505050505b611ebf612cd9565b9250929050565b60036020528160005260406000208181548110611ee257600080fd5b90600052602060002001600091509150505481565b60606000805b600454811015611f945784604051602001611f18919061413e565b6040516020818303038152906040528051906020012060026000838152602001908152602001600020600101600001604051602001611f5791906141d8565b6040516020818303038152906040528051906020012003611f81578180611f7d90613c83565b9250505b8080611f8c90613c83565b915050611efd565b5060008167ffffffffffffffff811115611fb157611fb061362e565b5b604051908082528060200260200182016040528015611fea57816020015b611fd7612e36565b815260200190600190039081611fcf5790505b5090506000805b60045481101561245c578660405160200161200c919061413e565b604051602081830303815290604052805190602001206002600083815260200190815260200160002060010160000160405160200161204b91906141d8565b60405160208183030381529060405280519060200120036124495760026000828152602001908152602001600020604051806101000160405290816000820154815260200160018201604051806101600160405290816000820180546120b090613c23565b80601f01602080910402602001604051908101604052809291908181526020018280546120dc90613c23565b80156121295780601f106120fe57610100808354040283529160200191612129565b820191906000526020600020905b81548152906001019060200180831161210c57829003601f168201915b5050505050815260200160018201805461214290613c23565b80601f016020809104026020016040519081016040528092919081815260200182805461216e90613c23565b80156121bb5780601f10612190576101008083540402835291602001916121bb565b820191906000526020600020905b81548152906001019060200180831161219e57829003601f168201915b505050505081526020016002820180546121d490613c23565b80601f016020809104026020016040519081016040528092919081815260200182805461220090613c23565b801561224d5780601f106122225761010080835404028352916020019161224d565b820191906000526020600020905b81548152906001019060200180831161223057829003601f168201915b5050505050815260200160038201548152602001600482015481526020016005820154815260200160068201548152602001600782015481526020016008820154815260200160098201548152602001600a820160009054906101000a900460ff1660018111156122c1576122c06130c8565b5b60018111156122d3576122d26130c8565b5b815250508152602001600c820180546122eb90613c23565b80601f016020809104026020016040519081016040528092919081815260200182805461231790613c23565b80156123645780601f1061233957610100808354040283529160200191612364565b820191906000526020600020905b81548152906001019060200180831161234757829003601f168201915b50505050508152602001600d8201548152602001600e8201548152602001600f82015481526020016010820160009054906101000a900473ffffffffffffffffffffffffffffffffffffffff1673ffffffffffffffffffffffffffffffffffffffff1673ffffffffffffffffffffffffffffffffffffffff1681526020016010820160149054906101000a900460ff166002811115612406576124056130c8565b5b6002811115612418576124176130c8565b5b8152505083838151811061242f5761242e613bc5565b5b6020026020010181905250818061244590613c83565b9250505b808061245490613c83565b915050611ff1565b506124678286612aa0565b935050505092915050565b600260205280600052604060002060009150905080600001549080600101604051806101600160405290816000820180546124ac90613c23565b80601f01602080910402602001604051908101604052809291908181526020018280546124d890613c23565b80156125255780601f106124fa57610100808354040283529160200191612525565b820191906000526020600020905b81548152906001019060200180831161250857829003601f168201915b5050505050815260200160018201805461253e90613c23565b80601f016020809104026020016040519081016040528092919081815260200182805461256a90613c23565b80156125b75780601f1061258c576101008083540402835291602001916125b7565b820191906000526020600020905b81548152906001019060200180831161259a57829003601f168201915b505050505081526020016002820180546125d090613c23565b80601f01602080910402602001604051908101604052809291908181526020018280546125fc90613c23565b80156126495780601f1061261e57610100808354040283529160200191612649565b820191906000526020600020905b81548152906001019060200180831161262c57829003601f168201915b5050505050815260200160038201548152602001600482015481526020016005820154815260200160068201548152602001600782015481526020016008820154815260200160098201548152602001600a820160009054906101000a900460ff1660018111156126bd576126bc6130c8565b5b60018111156126cf576126ce6130c8565b5b815250509080600c0180546126e390613c23565b80601f016020809104026020016040519081016040528092919081815260200182805461270f90613c23565b801561275c5780601f106127315761010080835404028352916020019161275c565b820191906000526020600020905b81548152906001019060200180831161273f57829003601f168201915b50505050509080600d01549080600e01549080600f0154908060100160009054906101000a900473ffffffffffffffffffffffffffffffffffffffff16908060100160149054906101000a900460ff16905088565b60008060018111156127c6576127c56130c8565b5b85610140015160018111156127de576127dd6130c8565b5b1461281e576040517f08c379a00000000000000000000000000000000000000000000000000000000081526004016128159061423b565b60405180910390fd5b60006004600081548092919061283390613c83565b919050559050604051806101000160405280828152602001878152602001868152602001858152602001428152602001600081526020018473ffffffffffffffffffffffffffffffffffffffff1681526020016000600281111561289a576128996130c8565b5b815250600260008381526020019081526020016000206000820151816000015560208201518160010160008201518160000190816128d891906143e8565b5060208201518160010190816128ee91906143e8565b50604082015181600201908161290491906143e8565b50606082015181600301556080820151816004015560a0820151816005015560c0820151816006015560e082015181600701556101008201518160080155610120820151816009015561014082015181600a0160006101000a81548160ff02191690836001811115612979576129786130c8565b5b02179055505050604082015181600c01908161299591906143e8565b50606082015181600d0155608082015181600e015560a082015181600f015560c08201518160100160006101000a81548173ffffffffffffffffffffffffffffffffffffffff021916908373ffffffffffffffffffffffffffffffffffffffff16021790555060e08201518160100160146101000a81548160ff02191690836002811115612a2657612a256130c8565b5b0217905550905050600360008473ffffffffffffffffffffffffffffffffffffffff1673ffffffffffffffffffffffffffffffffffffffff16815260200190815260200160002081908060018154018082558091505060019003906000526020600020016000909190919091505580915050949350505050565b606060005b8351811015612bb25760006002811115612ac257612ac16130c8565b5b848281518110612ad557612ad4613bc5565b5b602002602001015160e001516002811115612af357612af26130c8565b5b03612b9f576000848281518110612b0d57612b0c613bc5565b5b6020026020010151602001516101200151858381518110612b3157612b30613bc5565b5b602002602001015160800151612b4791906144ba565b905080841115612b9d576001858381518110612b6657612b65613bc5565b5b602002602001015160e001906002811115612b8457612b836130c8565b5b90816002811115612b9857612b976130c8565b5b815250505b505b8080612baa90613c83565b915050612aa5565b5082905092915050565b600260005403612c01576040517f08c379a0000000000000000000000000000000000000000000000000000000008152600401612bf89061453a565b60405180910390fd5b6002600081905550565b606060006001612c1a84612ce3565b01905060008167ffffffffffffffff811115612c3957612c3861362e565b5b6040519080825280601f01601f191660200182016040528015612c6b5781602001600182028036833780820191505090505b509050600082602001820190505b600115612cce578080600190039150507f3031323334353637383961626364656600000000000000000000000000000000600a86061a8153600a8581612cc257612cc161455a565b5b04945060008503612c79575b819350505050919050565b6001600081905550565b600080600090507a184f03e93ff9f4daa797ed6e38ed64bf6a1f0100000000000000008310612d41577a184f03e93ff9f4daa797ed6e38ed64bf6a1f0100000000000000008381612d3757612d3661455a565b5b0492506040810190505b6d04ee2d6d415b85acef81000000008310612d7e576d04ee2d6d415b85acef81000000008381612d7457612d7361455a565b5b0492506020810190505b662386f26fc100008310612dad57662386f26fc100008381612da357612da261455a565b5b0492506010810190505b6305f5e1008310612dd6576305f5e1008381612dcc57612dcb61455a565b5b0492506008810190505b6127108310612dfb576127108381612df157612df061455a565b5b0492506004810190505b60648310612e1e5760648381612e1457612e1361455a565b5b0492506002810190505b600a8310612e2d576001810190505b80915050919050565b60405180610100016040528060008152602001612e51612ea9565b815260200160608152602001600081526020016000815260200160008152602001600073ffffffffffffffffffffffffffffffffffffffff16815260200160006002811115612ea357612ea26130c8565b5b81525090565b6040518061016001604052806060815260200160608152602001606081526020016000815260200160008152602001600081526020016000815260200160008152602001600081526020016000815260200160006001811115612f0f57612f0e6130c8565b5b81525090565b6000604051905090565b600080fd5b600080fd5b600073ffffffffffffffffffffffffffffffffffffffff82169050919050565b6000612f5482612f29565b9050919050565b612f6481612f49565b8114612f6f57600080fd5b50565b600081359050612f8181612f5b565b92915050565b6000819050919050565b612f9a81612f87565b8114612fa557600080fd5b50565b600081359050612fb781612f91565b92915050565b60008060408385031215612fd457612fd3612f1f565b5b6000612fe285828601612f72565b9250506020612ff385828601612fa8565b9150509250929050565b600081519050919050565b600082825260208201905092915050565b6000819050602082019050919050565b61303281612f87565b82525050565b600081519050919050565b600082825260208201905092915050565b60005b83811015613072578082015181840152602081019050613057565b60008484015250505050565b6000601f19601f8301169050919050565b600061309a82613038565b6130a48185613043565b93506130b4818560208601613054565b6130bd8161307e565b840191505092915050565b7f4e487b7100000000000000000000000000000000000000000000000000000000600052602160045260246000fd5b60028110613108576131076130c8565b5b50565b6000819050613119826130f7565b919050565b60006131298261310b565b9050919050565b6131398161311e565b82525050565b600061016083016000830151848203600086015261315d828261308f565b91505060208301518482036020860152613177828261308f565b91505060408301518482036040860152613191828261308f565b91505060608301516131a66060860182613029565b5060808301516131b96080860182613029565b5060a08301516131cc60a0860182613029565b5060c08301516131df60c0860182613029565b5060e08301516131f260e0860182613029565b50610100830151613207610100860182613029565b5061012083015161321c610120860182613029565b50610140830151613231610140860182613130565b508091505092915050565b61324581612f49565b82525050565b6003811061325c5761325b6130c8565b5b50565b600081905061326d8261324b565b919050565b600061327d8261325f565b9050919050565b61328d81613272565b82525050565b6000610100830160008301516132ac6000860182613029565b50602083015184820360208601526132c4828261313f565b915050604083015184820360408601526132de828261308f565b91505060608301516132f36060860182613029565b5060808301516133066080860182613029565b5060a083015161331960a0860182613029565b5060c083015161332c60c086018261323c565b5060e083015161333f60e0860182613284565b508091505092915050565b60006133568383613293565b905092915050565b6000602082019050919050565b600061337682612ffd565b6133808185613008565b93508360208202850161339285613019565b8060005b858110156133ce57848403895281516133af858261334a565b94506133ba8361335e565b925060208a01995050600181019050613396565b50829750879550505050505092915050565b600060208201905081810360008301526133fa818461336b565b905092915050565b60006020828403121561341857613417612f1f565b5b600061342684828501612fa8565b91505092915050565b61343881612f87565b82525050565b6000602082019050613453600083018461342f565b92915050565b6000819050919050565b600061347e61347961347484612f29565b613459565b612f29565b9050919050565b600061349082613463565b9050919050565b60006134a282613485565b9050919050565b6134b281613497565b82525050565b60006020820190506134cd60008301846134a9565b92915050565b6134dc81612f49565b82525050565b60006020820190506134f760008301846134d3565b92915050565b6000806040838503121561351457613513612f1f565b5b600061352285828601612fa8565b925050602061353385828601612f72565b9150509250929050565b6000610100830160008301516135566000860182613029565b506020830151848203602086015261356e828261313f565b91505060408301518482036040860152613588828261308f565b915050606083015161359d6060860182613029565b5060808301516135b06080860182613029565b5060a08301516135c360a0860182613029565b5060c08301516135d660c086018261323c565b5060e08301516135e960e0860182613284565b508091505092915050565b6000604082019050613609600083018561342f565b818103602083015261361b818461353d565b90509392505050565b600080fd5b600080fd5b7f4e487b7100000000000000000000000000000000000000000000000000000000600052604160045260246000fd5b6136668261307e565b810181811067ffffffffffffffff821117156136855761368461362e565b5b80604052505050565b6000613698612f15565b90506136a4828261365d565b919050565b600067ffffffffffffffff8211156136c4576136c361362e565b5b6136cd8261307e565b9050602081019050919050565b82818337600083830152505050565b60006136fc6136f7846136a9565b61368e565b90508281526020810184848401111561371857613717613629565b5b6137238482856136da565b509392505050565b600082601f8301126137405761373f613624565b5b81356137508482602086016136e9565b91505092915050565b600080604083850312156137705761376f612f1f565b5b600083013567ffffffffffffffff81111561378e5761378d612f24565b5b61379a8582860161372b565b92505060206137ab85828601612fa8565b9150509250929050565b60006101608301600083015184820360008601526137d3828261308f565b915050602083015184820360208601526137ed828261308f565b91505060408301518482036040860152613807828261308f565b915050606083015161381c6060860182613029565b50608083015161382f6080860182613029565b5060a083015161384260a0860182613029565b5060c083015161385560c0860182613029565b5060e083015161386860e0860182613029565b5061010083015161387d610100860182613029565b50610120830151613892610120860182613029565b506101408301516138a7610140860182613130565b508091505092915050565b600082825260208201905092915050565b60006138ce82613038565b6138d881856138b2565b93506138e8818560208601613054565b6138f18161307e565b840191505092915050565b61390581613272565b82525050565b600061010082019050613921600083018b61342f565b8181036020830152613933818a6137b5565b9050818103604083015261394781896138c3565b9050613956606083018861342f565b613963608083018761342f565b61397060a083018661342f565b61397d60c08301856134d3565b61398a60e08301846138fc565b9998505050505050505050565b600080fd5b600080fd5b600281106139ae57600080fd5b50565b6000813590506139c0816139a1565b92915050565b600061016082840312156139dd576139dc613997565b5b6139e861016061368e565b9050600082013567ffffffffffffffff811115613a0857613a0761399c565b5b613a148482850161372b565b600083015250602082013567ffffffffffffffff811115613a3857613a3761399c565b5b613a448482850161372b565b602083015250604082013567ffffffffffffffff811115613a6857613a6761399c565b5b613a748482850161372b565b6040830152506060613a8884828501612fa8565b6060830152506080613a9c84828501612fa8565b60808301525060a0613ab084828501612fa8565b60a08301525060c0613ac484828501612fa8565b60c08301525060e0613ad884828501612fa8565b60e083015250610100613aed84828501612fa8565b61010083015250610120613b0384828501612fa8565b61012083015250610140613b19848285016139b1565b6101408301525092915050565b60008060008060808587031215613b4057613b3f612f1f565b5b600085013567ffffffffffffffff811115613b5e57613b5d612f24565b5b613b6a878288016139c6565b945050602085013567ffffffffffffffff811115613b8b57613b8a612f24565b5b613b978782880161372b565b9350506040613ba887828801612fa8565b9250506060613bb987828801612f72565b91505092959194509250565b7f4e487b7100000000000000000000000000000000000000000000000000000000600052603260045260246000fd5b7f4e487b7100000000000000000000000000000000000000000000000000000000600052602260045260246000fd5b60006002820490506001821680613c3b57607f821691505b602082108103613c4e57613c4d613bf4565b5b50919050565b7f4e487b7100000000000000000000000000000000000000000000000000000000600052601160045260246000fd5b6000613c8e82612f87565b91507fffffffffffffffffffffffffffffffffffffffffffffffffffffffffffffffff8203613cc057613cbf613c54565b5b600182019050919050565b7f496e76616c696420706f6c696379496400000000000000000000000000000000600082015250565b6000613d016010836138b2565b9150613d0c82613ccb565b602082019050919050565b60006020820190508181036000830152613d3081613cf4565b9050919050565b7f4e6f7420706f6c696379206f776e657200000000000000000000000000000000600082015250565b6000613d6d6010836138b2565b9150613d7882613d37565b602082019050919050565b60006020820190508181036000830152613d9c81613d60565b9050919050565b7f506f6c696379206e6f7420616374697665000000000000000000000000000000600082015250565b6000613dd96011836138b2565b9150613de482613da3565b602082019050919050565b60006020820190508181036000830152613e0881613dcc565b9050919050565b60008190508160005260206000209050919050565b60008154613e3181613c23565b613e3b81866138b2565b94506001821660008114613e565760018114613e6c57613e9f565b60ff198316865281151560200286019350613e9f565b613e7585613e0f565b60005b83811015613e9757815481890152600182019150602081019050613e78565b808801955050505b50505092915050565b60006040820190508181036000830152613ec28185613e24565b90508181036020830152613ed681846138c3565b90509392505050565b60008115159050919050565b613ef481613edf565b8114613eff57600080fd5b50565b600081519050613f1181613eeb565b92915050565b600081519050613f2681612f91565b92915050565b600080600060608486031215613f4557613f44612f1f565b5b6000613f5386828701613f02565b9350506020613f6486828701613f02565b9250506040613f7586828701613f17565b9150509250925092565b6000819050919050565b6000613fa4613f9f613f9a84613f7f565b613459565b612f87565b9050919050565b613fb481613f89565b82525050565b60048110613fcb57613fca6130c8565b5b50565b6000819050613fdc82613fba565b919050565b6000613fec82613fce565b9050919050565b613ffc81613fe1565b82525050565b6000608082019050614017600083018761342f565b61402460208301866134d3565b6140316040830185613fab565b61403e6060830184613ff3565b95945050505050565b600061405282612f87565b915061405d83612f87565b925082820390508181111561407557614074613c54565b5b92915050565b600061408682612f87565b915061409183612f87565b925082820261409f81612f87565b915082820484148315176140b6576140b5613c54565b5b5092915050565b60006080820190506140d2600083018761342f565b6140df60208301866134d3565b6140ec604083018561342f565b6140f96060830184613ff3565b95945050505050565b600081905092915050565b600061411882613038565b6141228185614102565b9350614132818560208601613054565b80840191505092915050565b600061414a828461410d565b915081905092915050565b6000815461416281613c23565b61416c8186614102565b94506001821660008114614187576001811461419c576141cf565b60ff19831686528115158202860193506141cf565b6141a585613e0f565b60005b838110156141c7578154818901526001820191506020810190506141a8565b838801955050505b50505092915050565b60006141e48284614155565b915081905092915050565b7f506f6c6963792074656d706c617465206973206e6f7420616374697665000000600082015250565b6000614225601d836138b2565b9150614230826141ef565b602082019050919050565b6000602082019050818103600083015261425481614218565b9050919050565b60006020601f8301049050919050565b600082821b905092915050565b6000600883026142a87fffffffffffffffffffffffffffffffffffffffffffffffffffffffffffffffff8261426b565b6142b2868361426b565b95508019841693508086168417925050509392505050565b60006142e56142e06142db84612f87565b613459565b612f87565b9050919050565b6000819050919050565b6142ff836142ca565b61431361430b826142ec565b848454614278565b825550505050565b600090565b61432861431b565b6143338184846142f6565b505050565b5b818110156143575761434c600082614320565b600181019050614339565b5050565b601f82111561439c5761436d81613e0f565b6143768461425b565b81016020851015614385578190505b6143996143918561425b565b830182614338565b50505b505050565b600082821c905092915050565b60006143bf600019846008026143a1565b1980831691505092915050565b60006143d883836143ae565b9150826002028217905092915050565b6143f182613038565b67ffffffffffffffff81111561440a5761440961362e565b5b6144148254613c23565b61441f82828561435b565b600060209050601f8311600181146144525760008415614440578287015190505b61444a85826143cc565b8655506144b2565b601f19841661446086613e0f565b60005b8281101561448857848901518255600182019150602085019450602081019050614463565b868310156144a557848901516144a1601f8916826143ae565b8355505b6001600288020188555050505b505050505050565b60006144c582612f87565b91506144d083612f87565b92508282019050808211156144e8576144e7613c54565b5b92915050565b7f5265656e7472616e637947756172643a207265656e7472616e742063616c6c00600082015250565b6000614524601f836138b2565b915061452f826144ee565b602082019050919050565b6000602082019050818103600083015261455381614517565b9050919050565b7f4e487b7100000000000000000000000000000000000000000000000000000000600052601260045260246000fdfea26469706673582212203f5515d9113fa26263f7b9277357bbc35ffa3f86feebc978ca1adaf2394561ce64736f6c63430008130033",
  "linkReferences": {},
  "deployedLinkReferences": {}
}