{
  "_format": "hh-sol-artifact-1",
  "contractName": "FlightPolicy",
  "sourceName": "contracts/FlightPolicy.sol",
  "abi": [
    {
      "inputs": [
        {
          "internalType": "address",
          "name": "_oracleConnector",
          "type": "address"
        }
      ],
      "stateMutability": "nonpayable",
      "type": "constructor"
    },
    {
      "anonymous": false,
      "inputs": [
        {
          "indexed": true,
          "internalType": "uint256",
          "name": "policyId",
          "type": "uint256"
        },
        {
          "indexed": true,
          "internalType": "address",
          "name": "buyer",
          "type": "address"
        }
      ],
      "name": "PayoutPending",
      "type": "event"
    },
    {
      "inputs": [
        {
          "internalType": "uint256",
          "name": "policyId",
          "type": "uint256"
        },
        {
          "internalType": "address",
          "name": "buyer",
          "type": "address"
        }
      ],
      "name": "claimPayout",
      "outputs": [
        {
          "internalType": "uint256",
          "name": "",
          "type": "uint256"
        },
        {
          "components": [
            {
              "internalType": "uint256",
              "name": "policyId",
              "type": "uint256"
            },
            {
              "components": [
                {
                  "internalType": "string",
                  "name": "templateId",
                  "type": "string"
                },
                {
                  "internalType": "string",
                  "name": "name",
                  "type": "string"
                },
                {
                  "internalType": "string",
                  "name": "description",
                  "type": "string"
                },
                {
                  "internalType": "uint256",
                  "name": "createdAt",
                  "type": "uint256"
                },
                {
                  "internalType": "uint256",
                  "name": "updatedAt",
                  "type": "uint256"
                },
                {
                  "internalType": "uint256",
                  "name": "premium",
                  "type": "uint256"
                },
                {
                  "internalType": "uint256",
                  "name": "payoutPerHour",
                  "type": "uint256"
                },
                {
                  "internalType": "uint256",
                  "name": "delayThresholdHours",
                  "type": "uint256"
                },
                {
                  "internalType": "uint256",
                  "name": "maxTotalPayout",
                  "type": "uint256"
                },
                {
                  "internalType": "uint256",
                  "name": "coverageDurationSeconds",
                  "type": "uint256"
                },
                {
                  "internalType": "enum FlightPolicy.PolicyTemplateStatus",
                  "name": "status",
                  "type": "uint8"
                }
              ],
              "internalType": "struct FlightPolicy.PolicyTemplate",
              "name": "template",
              "type": "tuple"
            },
            {
              "internalType": "string",
              "name": "flightNumber",
              "type": "string"
            },
            {
              "internalType": "string",
              "name": "departureAirportCode",
              "type": "string"
            },
            {
              "internalType": "string",
              "name": "arrivalAirportCode",
              "type": "string"
            },
            {
              "internalType": "uint256",
              "name": "departureTime",
              "type": "uint256"
            },
            {
              "internalType": "uint256",
              "name": "createdAt",
              "type": "uint256"
            },
            {
              "internalType": "uint256",
              "name": "payoutToDate",
              "type": "uint256"
            },
            {
              "internalType": "address",
              "name": "buyer",
              "type": "address"
            },
            {
              "internalType": "enum FlightPolicy.PolicyStatus",
              "name": "status",
              "type": "uint8"
            }
          ],
          "internalType": "struct FlightPolicy.UserPolicy",
          "name": "",
          "type": "tuple"
        }
      ],
      "stateMutability": "nonpayable",
      "type": "function"
    },
    {
      "inputs": [
        {
          "internalType": "uint256",
          "name": "currentTime",
          "type": "uint256"
        }
      ],
      "name": "getAllPolicies",
      "outputs": [
        {
          "components": [
            {
              "internalType": "uint256",
              "name": "policyId",
              "type": "uint256"
            },
            {
              "components": [
                {
                  "internalType": "string",
                  "name": "templateId",
                  "type": "string"
                },
                {
                  "internalType": "string",
                  "name": "name",
                  "type": "string"
                },
                {
                  "internalType": "string",
                  "name": "description",
                  "type": "string"
                },
                {
                  "internalType": "uint256",
                  "name": "createdAt",
                  "type": "uint256"
                },
                {
                  "internalType": "uint256",
                  "name": "updatedAt",
                  "type": "uint256"
                },
                {
                  "internalType": "uint256",
                  "name": "premium",
                  "type": "uint256"
                },
                {
                  "internalType": "uint256",
                  "name": "payoutPerHour",
                  "type": "uint256"
                },
                {
                  "internalType": "uint256",
                  "name": "delayThresholdHours",
                  "type": "uint256"
                },
                {
                  "internalType": "uint256",
                  "name": "maxTotalPayout",
                  "type": "uint256"
                },
                {
                  "internalType": "uint256",
                  "name": "coverageDurationSeconds",
                  "type": "uint256"
                },
                {
                  "internalType": "enum FlightPolicy.PolicyTemplateStatus",
                  "name": "status",
                  "type": "uint8"
                }
              ],
              "internalType": "struct FlightPolicy.PolicyTemplate",
              "name": "template",
              "type": "tuple"
            },
            {
              "internalType": "string",
              "name": "flightNumber",
              "type": "string"
            },
            {
              "internalType": "string",
              "name": "departureAirportCode",
              "type": "string"
            },
            {
              "internalType": "string",
              "name": "arrivalAirportCode",
              "type": "string"
            },
            {
              "internalType": "uint256",
              "name": "departureTime",
              "type": "uint256"
            },
            {
              "internalType": "uint256",
              "name": "createdAt",
              "type": "uint256"
            },
            {
              "internalType": "uint256",
              "name": "payoutToDate",
              "type": "uint256"
            },
            {
              "internalType": "address",
              "name": "buyer",
              "type": "address"
            },
            {
              "internalType": "enum FlightPolicy.PolicyStatus",
              "name": "status",
              "type": "uint8"
            }
          ],
          "internalType": "struct FlightPolicy.UserPolicy[]",
          "name": "",
          "type": "tuple[]"
        }
      ],
      "stateMutability": "view",
      "type": "function"
    },
    {
      "inputs": [
        {
          "internalType": "address",
          "name": "user",
          "type": "address"
        },
        {
          "internalType": "uint256",
          "name": "currentTime",
          "type": "uint256"
        }
      ],
      "name": "getUserPolicies",
      "outputs": [
        {
          "components": [
            {
              "internalType": "uint256",
              "name": "policyId",
              "type": "uint256"
            },
            {
              "components": [
                {
                  "internalType": "string",
                  "name": "templateId",
                  "type": "string"
                },
                {
                  "internalType": "string",
                  "name": "name",
                  "type": "string"
                },
                {
                  "internalType": "string",
                  "name": "description",
                  "type": "string"
                },
                {
                  "internalType": "uint256",
                  "name": "createdAt",
                  "type": "uint256"
                },
                {
                  "internalType": "uint256",
                  "name": "updatedAt",
                  "type": "uint256"
                },
                {
                  "internalType": "uint256",
                  "name": "premium",
                  "type": "uint256"
                },
                {
                  "internalType": "uint256",
                  "name": "payoutPerHour",
                  "type": "uint256"
                },
                {
                  "internalType": "uint256",
                  "name": "delayThresholdHours",
                  "type": "uint256"
                },
                {
                  "internalType": "uint256",
                  "name": "maxTotalPayout",
                  "type": "uint256"
                },
                {
                  "internalType": "uint256",
                  "name": "coverageDurationSeconds",
                  "type": "uint256"
                },
                {
                  "internalType": "enum FlightPolicy.PolicyTemplateStatus",
                  "name": "status",
                  "type": "uint8"
                }
              ],
              "internalType": "struct FlightPolicy.PolicyTemplate",
              "name": "template",
              "type": "tuple"
            },
            {
              "internalType": "string",
              "name": "flightNumber",
              "type": "string"
            },
            {
              "internalType": "string",
              "name": "departureAirportCode",
              "type": "string"
            },
            {
              "internalType": "string",
              "name": "arrivalAirportCode",
              "type": "string"
            },
            {
              "internalType": "uint256",
              "name": "departureTime",
              "type": "uint256"
            },
            {
              "internalType": "uint256",
              "name": "createdAt",
              "type": "uint256"
            },
            {
              "internalType": "uint256",
              "name": "payoutToDate",
              "type": "uint256"
            },
            {
              "internalType": "address",
              "name": "buyer",
              "type": "address"
            },
            {
              "internalType": "enum FlightPolicy.PolicyStatus",
              "name": "status",
              "type": "uint8"
            }
          ],
          "internalType": "struct FlightPolicy.UserPolicy[]",
          "name": "",
          "type": "tuple[]"
        }
      ],
      "stateMutability": "view",
      "type": "function"
    },
    {
      "inputs": [
        {
          "internalType": "string",
          "name": "templateId",
          "type": "string"
        },
        {
          "internalType": "uint256",
          "name": "currentTime",
          "type": "uint256"
        }
      ],
      "name": "getUserPoliciesByTemplate",
      "outputs": [
        {
          "components": [
            {
              "internalType": "uint256",
              "name": "policyId",
              "type": "uint256"
            },
            {
              "components": [
                {
                  "internalType": "string",
                  "name": "templateId",
                  "type": "string"
                },
                {
                  "internalType": "string",
                  "name": "name",
                  "type": "string"
                },
                {
                  "internalType": "string",
                  "name": "description",
                  "type": "string"
                },
                {
                  "internalType": "uint256",
                  "name": "createdAt",
                  "type": "uint256"
                },
                {
                  "internalType": "uint256",
                  "name": "updatedAt",
                  "type": "uint256"
                },
                {
                  "internalType": "uint256",
                  "name": "premium",
                  "type": "uint256"
                },
                {
                  "internalType": "uint256",
                  "name": "payoutPerHour",
                  "type": "uint256"
                },
                {
                  "internalType": "uint256",
                  "name": "delayThresholdHours",
                  "type": "uint256"
                },
                {
                  "internalType": "uint256",
                  "name": "maxTotalPayout",
                  "type": "uint256"
                },
                {
                  "internalType": "uint256",
                  "name": "coverageDurationSeconds",
                  "type": "uint256"
                },
                {
                  "internalType": "enum FlightPolicy.PolicyTemplateStatus",
                  "name": "status",
                  "type": "uint8"
                }
              ],
              "internalType": "struct FlightPolicy.PolicyTemplate",
              "name": "template",
              "type": "tuple"
            },
            {
              "internalType": "string",
              "name": "flightNumber",
              "type": "string"
            },
            {
              "internalType": "string",
              "name": "departureAirportCode",
              "type": "string"
            },
            {
              "internalType": "string",
              "name": "arrivalAirportCode",
              "type": "string"
            },
            {
              "internalType": "uint256",
              "name": "departureTime",
              "type": "uint256"
            },
            {
              "internalType": "uint256",
              "name": "createdAt",
              "type": "uint256"
            },
            {
              "internalType": "uint256",
              "name": "payoutToDate",
              "type": "uint256"
            },
            {
              "internalType": "address",
              "name": "buyer",
              "type": "address"
            },
            {
              "internalType": "enum FlightPolicy.PolicyStatus",
              "name": "status",
              "type": "uint8"
            }
          ],
          "internalType": "struct FlightPolicy.UserPolicy[]",
          "name": "",
          "type": "tuple[]"
        }
      ],
      "stateMutability": "view",
      "type": "function"
    },
    {
      "inputs": [],
      "name": "insurerAddress",
      "outputs": [
        {
          "internalType": "address",
          "name": "",
          "type": "address"
        }
      ],
      "stateMutability": "view",
      "type": "function"
    },
    {
      "inputs": [
        {
          "internalType": "uint256",
          "name": "policyId",
          "type": "uint256"
        }
      ],
      "name": "markPolicyAsExpired",
      "outputs": [],
      "stateMutability": "nonpayable",
      "type": "function"
    },
    {
      "inputs": [],
      "name": "nextUserPolicyId",
      "outputs": [
        {
          "internalType": "uint256",
          "name": "",
          "type": "uint256"
        }
      ],
      "stateMutability": "view",
      "type": "function"
    },
    {
      "inputs": [],
      "name": "oracleConnector",
      "outputs": [
        {
          "internalType": "contract OracleConnector",
          "name": "",
          "type": "address"
        }
      ],
      "stateMutability": "view",
      "type": "function"
    },
    {
      "inputs": [
        {
          "components": [
            {
              "internalType": "string",
              "name": "templateId",
              "type": "string"
            },
            {
              "internalType": "string",
              "name": "name",
              "type": "string"
            },
            {
              "internalType": "string",
              "name": "description",
              "type": "string"
            },
            {
              "internalType": "uint256",
              "name": "createdAt",
              "type": "uint256"
            },
            {
              "internalType": "uint256",
              "name": "updatedAt",
              "type": "uint256"
            },
            {
              "internalType": "uint256",
              "name": "premium",
              "type": "uint256"
            },
            {
              "internalType": "uint256",
              "name": "payoutPerHour",
              "type": "uint256"
            },
            {
              "internalType": "uint256",
              "name": "delayThresholdHours",
              "type": "uint256"
            },
            {
              "internalType": "uint256",
              "name": "maxTotalPayout",
              "type": "uint256"
            },
            {
              "internalType": "uint256",
              "name": "coverageDurationSeconds",
              "type": "uint256"
            },
            {
              "internalType": "enum FlightPolicy.PolicyTemplateStatus",
              "name": "status",
              "type": "uint8"
            }
          ],
          "internalType": "struct FlightPolicy.PolicyTemplate",
          "name": "template",
          "type": "tuple"
        },
        {
          "internalType": "string",
          "name": "flightNumber",
          "type": "string"
        },
        {
          "internalType": "string",
          "name": "departureAirportCode",
          "type": "string"
        },
        {
          "internalType": "string",
          "name": "arrivalAirportCode",
          "type": "string"
        },
        {
          "internalType": "uint256",
          "name": "departureTime",
          "type": "uint256"
        },
        {
          "internalType": "address",
          "name": "buyer",
          "type": "address"
        }
      ],
      "name": "purchasePolicy",
      "outputs": [
        {
          "internalType": "uint256",
          "name": "",
          "type": "uint256"
        }
      ],
      "stateMutability": "nonpayable",
      "type": "function"
    },
    {
      "inputs": [
        {
          "internalType": "uint256",
          "name": "",
          "type": "uint256"
        }
      ],
      "name": "userPolicies",
      "outputs": [
        {
          "internalType": "uint256",
          "name": "policyId",
          "type": "uint256"
        },
        {
          "components": [
            {
              "internalType": "string",
              "name": "templateId",
              "type": "string"
            },
            {
              "internalType": "string",
              "name": "name",
              "type": "string"
            },
            {
              "internalType": "string",
              "name": "description",
              "type": "string"
            },
            {
              "internalType": "uint256",
              "name": "createdAt",
              "type": "uint256"
            },
            {
              "internalType": "uint256",
              "name": "updatedAt",
              "type": "uint256"
            },
            {
              "internalType": "uint256",
              "name": "premium",
              "type": "uint256"
            },
            {
              "internalType": "uint256",
              "name": "payoutPerHour",
              "type": "uint256"
            },
            {
              "internalType": "uint256",
              "name": "delayThresholdHours",
              "type": "uint256"
            },
            {
              "internalType": "uint256",
              "name": "maxTotalPayout",
              "type": "uint256"
            },
            {
              "internalType": "uint256",
              "name": "coverageDurationSeconds",
              "type": "uint256"
            },
            {
              "internalType": "enum FlightPolicy.PolicyTemplateStatus",
              "name": "status",
              "type": "uint8"
            }
          ],
          "internalType": "struct FlightPolicy.PolicyTemplate",
          "name": "template",
          "type": "tuple"
        },
        {
          "internalType": "string",
          "name": "flightNumber",
          "type": "string"
        },
        {
          "internalType": "string",
          "name": "departureAirportCode",
          "type": "string"
        },
        {
          "internalType": "string",
          "name": "arrivalAirportCode",
          "type": "string"
        },
        {
          "internalType": "uint256",
          "name": "departureTime",
          "type": "uint256"
        },
        {
          "internalType": "uint256",
          "name": "createdAt",
          "type": "uint256"
        },
        {
          "internalType": "uint256",
          "name": "payoutToDate",
          "type": "uint256"
        },
        {
          "internalType": "address",
          "name": "buyer",
          "type": "address"
        },
        {
          "internalType": "enum FlightPolicy.PolicyStatus",
          "name": "status",
          "type": "uint8"
        }
      ],
      "stateMutability": "view",
      "type": "function"
    },
    {
      "inputs": [
        {
          "internalType": "address",
          "name": "",
          "type": "address"
        },
        {
          "internalType": "uint256",
          "name": "",
          "type": "uint256"
        }
      ],
      "name": "userPolicyIds",
      "outputs": [
        {
          "internalType": "uint256",
          "name": "",
          "type": "uint256"
        }
      ],
      "stateMutability": "view",
      "type": "function"
    }
  ],
  "bytecode": "0x60a06040523480156200001157600080fd5b5060405162004c1c38038062004c1c833981810160405281019062000037919062000125565b60016000819055503373ffffffffffffffffffffffffffffffffffffffff1660808173ffffffffffffffffffffffffffffffffffffffff168152505080600160006101000a81548173ffffffffffffffffffffffffffffffffffffffff021916908373ffffffffffffffffffffffffffffffffffffffff1602179055505062000157565b600080fd5b600073ffffffffffffffffffffffffffffffffffffffff82169050919050565b6000620000ed82620000c0565b9050919050565b620000ff81620000e0565b81146200010b57600080fd5b50565b6000815190506200011f81620000f4565b92915050565b6000602082840312156200013e576200013d620000bb565b5b60006200014e848285016200010e565b91505092915050565b608051614aa26200017a600039600081816111cd0152612a3f0152614aa26000f3fe608060405234801561001057600080fd5b50600436106100a95760003560e01c8063a7c0900e11610071578063a7c0900e1461017a578063b0110cc614610198578063b6e283e1146101c9578063c52eaa40146101f9578063cba85f0614610229578063cf39c62414610262576100a9565b806331953ecc146100ae578063642bb925146100de57806364b72a651461010e5780637b9564151461013e5780639a9122ac1461015c575b600080fd5b6100c860048036038101906100c3919061351b565b61027e565b6040516100d59190613627565b60405180910390f35b6100f860048036038101906100f39190613642565b6105ed565b6040516101059190613a8c565b60405180910390f35b61012860048036038101906101239190613aae565b610c14565b6040516101359190613a8c565b60405180910390f35b61014661119f565b6040516101539190613627565b60405180910390f35b6101646111a5565b6040516101719190613b3a565b60405180910390f35b6101826111cb565b60405161018f9190613b64565b60405180910390f35b6101b260048036038101906101ad9190613b7f565b6111ef565b6040516101c0929190613cae565b60405180910390f35b6101e360048036038101906101de9190613642565b611f12565b6040516101f09190613627565b60405180910390f35b610213600480360381019061020e9190613cde565b611f43565b6040516102209190613a8c565b60405180910390f35b610243600480360381019061023e9190613aae565b6125e2565b6040516102599a99989796959493929190613e90565b60405180910390f35b61027c60048036038101906102779190613aae565b612a3d565b005b60008060018111156102935761029261373c565b5b87610140015160018111156102ab576102aa61373c565b5b146102eb576040517f08c379a00000000000000000000000000000000000000000000000000000000081526004016102e290613f94565b60405180910390fd5b60006004600081548092919061030090613fe3565b919050559050604051806101400160405280828152602001898152602001888152602001878152602001868152602001858152602001428152602001600081526020018473ffffffffffffffffffffffffffffffffffffffff168152602001600060028111156103735761037261373c565b5b815250600260008381526020019081526020016000206000820151816000015560208201518160010160008201518160000190816103b1919061422d565b5060208201518160010190816103c7919061422d565b5060408201518160020190816103dd919061422d565b50606082015181600301556080820151816004015560a0820151816005015560c0820151816006015560e082015181600701556101008201518160080155610120820151816009015561014082015181600a0160006101000a81548160ff021916908360018111156104525761045161373c565b5b02179055505050604082015181600c01908161046e919061422d565b50606082015181600d019081610484919061422d565b50608082015181600e01908161049a919061422d565b5060a082015181600f015560c0820151816010015560e082015181601101556101008201518160120160006101000a81548173ffffffffffffffffffffffffffffffffffffffff021916908373ffffffffffffffffffffffffffffffffffffffff1602179055506101208201518160120160146101000a81548160ff0219169083600281111561052d5761052c61373c565b5b02179055509050506105796040518060400160405280600a81526020017f74656d706c6174653a2000000000000000000000000000000000000000000000815250896101200151612c2d565b600360008473ffffffffffffffffffffffffffffffffffffffff1673ffffffffffffffffffffffffffffffffffffffff168152602001908152602001600020819080600181540180825580915050600190039060005260206000200160009091909190915055809150509695505050505050565b60606000600360008573ffffffffffffffffffffffffffffffffffffffff1673ffffffffffffffffffffffffffffffffffffffff16815260200190815260200160002080549050905060008167ffffffffffffffff811115610652576106516131c8565b5b60405190808252806020026020018201604052801561068b57816020015b6106786130a7565b8152602001906001900390816106705790505b50905060005b82811015610bff5760026000600360008973ffffffffffffffffffffffffffffffffffffffff1673ffffffffffffffffffffffffffffffffffffffff16815260200190815260200160002083815481106106ee576106ed6142ff565b5b906000526020600020015481526020019081526020016000206040518061014001604052908160008201548152602001600182016040518061016001604052908160008201805461073e9061405a565b80601f016020809104026020016040519081016040528092919081815260200182805461076a9061405a565b80156107b75780601f1061078c576101008083540402835291602001916107b7565b820191906000526020600020905b81548152906001019060200180831161079a57829003601f168201915b505050505081526020016001820180546107d09061405a565b80601f01602080910402602001604051908101604052809291908181526020018280546107fc9061405a565b80156108495780601f1061081e57610100808354040283529160200191610849565b820191906000526020600020905b81548152906001019060200180831161082c57829003601f168201915b505050505081526020016002820180546108629061405a565b80601f016020809104026020016040519081016040528092919081815260200182805461088e9061405a565b80156108db5780601f106108b0576101008083540402835291602001916108db565b820191906000526020600020905b8154815290600101906020018083116108be57829003601f168201915b5050505050815260200160038201548152602001600482015481526020016005820154815260200160068201548152602001600782015481526020016008820154815260200160098201548152602001600a820160009054906101000a900460ff16600181111561094f5761094e61373c565b5b60018111156109615761096061373c565b5b815250508152602001600c820180546109799061405a565b80601f01602080910402602001604051908101604052809291908181526020018280546109a59061405a565b80156109f25780601f106109c7576101008083540402835291602001916109f2565b820191906000526020600020905b8154815290600101906020018083116109d557829003601f168201915b50505050508152602001600d82018054610a0b9061405a565b80601f0160208091040260200160405190810160405280929190818152602001828054610a379061405a565b8015610a845780601f10610a5957610100808354040283529160200191610a84565b820191906000526020600020905b815481529060010190602001808311610a6757829003601f168201915b50505050508152602001600e82018054610a9d9061405a565b80601f0160208091040260200160405190810160405280929190818152602001828054610ac99061405a565b8015610b165780601f10610aeb57610100808354040283529160200191610b16565b820191906000526020600020905b815481529060010190602001808311610af957829003601f168201915b50505050508152602001600f820154815260200160108201548152602001601182015481526020016012820160009054906101000a900473ffffffffffffffffffffffffffffffffffffffff1673ffffffffffffffffffffffffffffffffffffffff1673ffffffffffffffffffffffffffffffffffffffff1681526020016012820160149054906101000a900460ff166002811115610bb857610bb761373c565b5b6002811115610bca57610bc961373c565b5b81525050828281518110610be157610be06142ff565b5b60200260200101819052508080610bf790613fe3565b915050610691565b50610c0a8185612cc9565b9250505092915050565b60606000600454905060008167ffffffffffffffff811115610c3957610c386131c8565b5b604051908082528060200260200182016040528015610c7257816020015b610c5f6130a7565b815260200190600190039081610c575790505b50905060005b8281101561118b576002600082815260200190815260200160002060405180610140016040529081600082015481526020016001820160405180610160016040529081600082018054610cca9061405a565b80601f0160208091040260200160405190810160405280929190818152602001828054610cf69061405a565b8015610d435780601f10610d1857610100808354040283529160200191610d43565b820191906000526020600020905b815481529060010190602001808311610d2657829003601f168201915b50505050508152602001600182018054610d5c9061405a565b80601f0160208091040260200160405190810160405280929190818152602001828054610d889061405a565b8015610dd55780601f10610daa57610100808354040283529160200191610dd5565b820191906000526020600020905b815481529060010190602001808311610db857829003601f168201915b50505050508152602001600282018054610dee9061405a565b80601f0160208091040260200160405190810160405280929190818152602001828054610e1a9061405a565b8015610e675780601f10610e3c57610100808354040283529160200191610e67565b820191906000526020600020905b815481529060010190602001808311610e4a57829003601f168201915b5050505050815260200160038201548152602001600482015481526020016005820154815260200160068201548152602001600782015481526020016008820154815260200160098201548152602001600a820160009054906101000a900460ff166001811115610edb57610eda61373c565b5b6001811115610eed57610eec61373c565b5b815250508152602001600c82018054610f059061405a565b80601f0160208091040260200160405190810160405280929190818152602001828054610f319061405a565b8015610f7e5780601f10610f5357610100808354040283529160200191610f7e565b820191906000526020600020905b815481529060010190602001808311610f6157829003601f168201915b50505050508152602001600d82018054610f979061405a565b80601f0160208091040260200160405190810160405280929190818152602001828054610fc39061405a565b80156110105780601f10610fe557610100808354040283529160200191611010565b820191906000526020600020905b815481529060010190602001808311610ff357829003601f168201915b50505050508152602001600e820180546110299061405a565b80601f01602080910402602001604051908101604052809291908181526020018280546110559061405a565b80156110a25780601f10611077576101008083540402835291602001916110a2565b820191906000526020600020905b81548152906001019060200180831161108557829003601f168201915b50505050508152602001600f820154815260200160108201548152602001601182015481526020016012820160009054906101000a900473ffffffffffffffffffffffffffffffffffffffff1673ffffffffffffffffffffffffffffffffffffffff1673ffffffffffffffffffffffffffffffffffffffff1681526020016012820160149054906101000a900460ff1660028111156111445761114361373c565b5b60028111156111565761115561373c565b5b8152505082828151811061116d5761116c6142ff565b5b6020026020010181905250808061118390613fe3565b915050610c78565b506111968185612cc9565b92505050919050565b60045481565b600160009054906101000a900473ffffffffffffffffffffffffffffffffffffffff1681565b7f000000000000000000000000000000000000000000000000000000000000000081565b60006111f96130a7565b611201612de7565b6004548410611245576040517f08c379a000000000000000000000000000000000000000000000000000000000815260040161123c9061437a565b60405180910390fd5b60006002600086815260200190815260200160002090508060120160009054906101000a900473ffffffffffffffffffffffffffffffffffffffff1673ffffffffffffffffffffffffffffffffffffffff168473ffffffffffffffffffffffffffffffffffffffff16146112ee576040517f08c379a00000000000000000000000000000000000000000000000000000000081526004016112e5906143e6565b60405180910390fd5b600060028111156113025761130161373c565b5b8160120160149054906101000a900460ff1660028111156113265761132561373c565b5b14611366576040517f08c379a000000000000000000000000000000000000000000000000000000000815260040161135d90614452565b60405180910390fd5b6000806000600160009054906101000a900473ffffffffffffffffffffffffffffffffffffffff1673ffffffffffffffffffffffffffffffffffffffff166326ec641e85600c016113ba87600f0154612e36565b6040518363ffffffff1660e01b81526004016113d79291906144f6565b6060604051808303816000875af11580156113f6573d6000803e3d6000fd5b505050506040513d601f19601f8201168201806040525081019061141a919061457a565b92509250925082611943578673ffffffffffffffffffffffffffffffffffffffff16887fc4e3a8071242c038ed98710e51bff5452daaf51eed76c904cddbf6ed6cbfc80c60405160405180910390a360008480604051806101400160405290816000820154815260200160018201604051806101600160405290816000820180546114a49061405a565b80601f01602080910402602001604051908101604052809291908181526020018280546114d09061405a565b801561151d5780601f106114f25761010080835404028352916020019161151d565b820191906000526020600020905b81548152906001019060200180831161150057829003601f168201915b505050505081526020016001820180546115369061405a565b80601f01602080910402602001604051908101604052809291908181526020018280546115629061405a565b80156115af5780601f10611584576101008083540402835291602001916115af565b820191906000526020600020905b81548152906001019060200180831161159257829003601f168201915b505050505081526020016002820180546115c89061405a565b80601f01602080910402602001604051908101604052809291908181526020018280546115f49061405a565b80156116415780601f1061161657610100808354040283529160200191611641565b820191906000526020600020905b81548152906001019060200180831161162457829003601f168201915b5050505050815260200160038201548152602001600482015481526020016005820154815260200160068201548152602001600782015481526020016008820154815260200160098201548152602001600a820160009054906101000a900460ff1660018111156116b5576116b461373c565b5b60018111156116c7576116c661373c565b5b815250508152602001600c820180546116df9061405a565b80601f016020809104026020016040519081016040528092919081815260200182805461170b9061405a565b80156117585780601f1061172d57610100808354040283529160200191611758565b820191906000526020600020905b81548152906001019060200180831161173b57829003601f168201915b50505050508152602001600d820180546117719061405a565b80601f016020809104026020016040519081016040528092919081815260200182805461179d9061405a565b80156117ea5780601f106117bf576101008083540402835291602001916117ea565b820191906000526020600020905b8154815290600101906020018083116117cd57829003601f168201915b50505050508152602001600e820180546118039061405a565b80601f016020809104026020016040519081016040528092919081815260200182805461182f9061405a565b801561187c5780601f106118515761010080835404028352916020019161187c565b820191906000526020600020905b81548152906001019060200180831161185f57829003601f168201915b50505050508152602001600f820154815260200160108201548152602001601182015481526020016012820160009054906101000a900473ffffffffffffffffffffffffffffffffffffffff1673ffffffffffffffffffffffffffffffffffffffff1673ffffffffffffffffffffffffffffffffffffffff1681526020016012820160149054906101000a900460ff16600281111561191e5761191d61373c565b5b60028111156119305761192f61373c565b5b8152505090509550955050505050611f03565b81611983576040517f08c379a000000000000000000000000000000000000000000000000000000000815260040161197a90614619565b60405180910390fd5b60008460010160060154826119989190614639565b905084600101600801548111156119b457846001016008015490505b600081116119f7576040517f08c379a00000000000000000000000000000000000000000000000000000000081526004016119ee906146c7565b60405180910390fd5b60028560120160146101000a81548160ff02191690836002811115611a1f57611a1e61373c565b5b021790555080856011018190555080858060405180610140016040529081600082015481526020016001820160405180610160016040529081600082018054611a679061405a565b80601f0160208091040260200160405190810160405280929190818152602001828054611a939061405a565b8015611ae05780601f10611ab557610100808354040283529160200191611ae0565b820191906000526020600020905b815481529060010190602001808311611ac357829003601f168201915b50505050508152602001600182018054611af99061405a565b80601f0160208091040260200160405190810160405280929190818152602001828054611b259061405a565b8015611b725780601f10611b4757610100808354040283529160200191611b72565b820191906000526020600020905b815481529060010190602001808311611b5557829003601f168201915b50505050508152602001600282018054611b8b9061405a565b80601f0160208091040260200160405190810160405280929190818152602001828054611bb79061405a565b8015611c045780601f10611bd957610100808354040283529160200191611c04565b820191906000526020600020905b815481529060010190602001808311611be757829003601f168201915b5050505050815260200160038201548152602001600482015481526020016005820154815260200160068201548152602001600782015481526020016008820154815260200160098201548152602001600a820160009054906101000a900460ff166001811115611c7857611c7761373c565b5b6001811115611c8a57611c8961373c565b5b815250508152602001600c82018054611ca29061405a565b80601f0160208091040260200160405190810160405280929190818152602001828054611cce9061405a565b8015611d1b5780601f10611cf057610100808354040283529160200191611d1b565b820191906000526020600020905b815481529060010190602001808311611cfe57829003601f168201915b50505050508152602001600d82018054611d349061405a565b80601f0160208091040260200160405190810160405280929190818152602001828054611d609061405a565b8015611dad5780601f10611d8257610100808354040283529160200191611dad565b820191906000526020600020905b815481529060010190602001808311611d9057829003601f168201915b50505050508152602001600e82018054611dc69061405a565b80601f0160208091040260200160405190810160405280929190818152602001828054611df29061405a565b8015611e3f5780601f10611e1457610100808354040283529160200191611e3f565b820191906000526020600020905b815481529060010190602001808311611e2257829003601f168201915b50505050508152602001600f820154815260200160108201548152602001601182015481526020016012820160009054906101000a900473ffffffffffffffffffffffffffffffffffffffff1673ffffffffffffffffffffffffffffffffffffffff1673ffffffffffffffffffffffffffffffffffffffff1681526020016012820160149054906101000a900460ff166002811115611ee157611ee061373c565b5b6002811115611ef357611ef261373c565b5b8152505090509650965050505050505b611f0b612f04565b9250929050565b60036020528160005260406000208181548110611f2e57600080fd5b90600052602060002001600091509150505481565b60606000805b600454811015611fe05784604051602001611f649190614723565b6040516020818303038152906040528051906020012060026000838152602001908152602001600020600101600001604051602001611fa391906147bd565b6040516020818303038152906040528051906020012003611fcd578180611fc990613fe3565b9250505b8080611fd890613fe3565b915050611f49565b5060008167ffffffffffffffff811115611ffd57611ffc6131c8565b5b60405190808252806020026020018201604052801561203657816020015b6120236130a7565b81526020019060019003908161201b5790505b5090506000805b6004548110156125cc57866040516020016120589190614723565b604051602081830303815290604052805190602001206002600083815260200190815260200160002060010160000160405160200161209791906147bd565b60405160208183030381529060405280519060200120036125b95760026000828152602001908152602001600020604051806101400160405290816000820154815260200160018201604051806101600160405290816000820180546120fc9061405a565b80601f01602080910402602001604051908101604052809291908181526020018280546121289061405a565b80156121755780601f1061214a57610100808354040283529160200191612175565b820191906000526020600020905b81548152906001019060200180831161215857829003601f168201915b5050505050815260200160018201805461218e9061405a565b80601f01602080910402602001604051908101604052809291908181526020018280546121ba9061405a565b80156122075780601f106121dc57610100808354040283529160200191612207565b820191906000526020600020905b8154815290600101906020018083116121ea57829003601f168201915b505050505081526020016002820180546122209061405a565b80601f016020809104026020016040519081016040528092919081815260200182805461224c9061405a565b80156122995780601f1061226e57610100808354040283529160200191612299565b820191906000526020600020905b81548152906001019060200180831161227c57829003601f168201915b5050505050815260200160038201548152602001600482015481526020016005820154815260200160068201548152602001600782015481526020016008820154815260200160098201548152602001600a820160009054906101000a900460ff16600181111561230d5761230c61373c565b5b600181111561231f5761231e61373c565b5b815250508152602001600c820180546123379061405a565b80601f01602080910402602001604051908101604052809291908181526020018280546123639061405a565b80156123b05780601f10612385576101008083540402835291602001916123b0565b820191906000526020600020905b81548152906001019060200180831161239357829003601f168201915b50505050508152602001600d820180546123c99061405a565b80601f01602080910402602001604051908101604052809291908181526020018280546123f59061405a565b80156124425780601f1061241757610100808354040283529160200191612442565b820191906000526020600020905b81548152906001019060200180831161242557829003601f168201915b50505050508152602001600e8201805461245b9061405a565b80601f01602080910402602001604051908101604052809291908181526020018280546124879061405a565b80156124d45780601f106124a9576101008083540402835291602001916124d4565b820191906000526020600020905b8154815290600101906020018083116124b757829003601f168201915b50505050508152602001600f820154815260200160108201548152602001601182015481526020016012820160009054906101000a900473ffffffffffffffffffffffffffffffffffffffff1673ffffffffffffffffffffffffffffffffffffffff1673ffffffffffffffffffffffffffffffffffffffff1681526020016012820160149054906101000a900460ff1660028111156125765761257561373c565b5b60028111156125885761258761373c565b5b8152505083838151811061259f5761259e6142ff565b5b602002602001018190525081806125b590613fe3565b9250505b80806125c490613fe3565b91505061203d565b506125d78286612cc9565b935050505092915050565b6002602052806000526040600020600091509050806000015490806001016040518061016001604052908160008201805461261c9061405a565b80601f01602080910402602001604051908101604052809291908181526020018280546126489061405a565b80156126955780601f1061266a57610100808354040283529160200191612695565b820191906000526020600020905b81548152906001019060200180831161267857829003601f168201915b505050505081526020016001820180546126ae9061405a565b80601f01602080910402602001604051908101604052809291908181526020018280546126da9061405a565b80156127275780601f106126fc57610100808354040283529160200191612727565b820191906000526020600020905b81548152906001019060200180831161270a57829003601f168201915b505050505081526020016002820180546127409061405a565b80601f016020809104026020016040519081016040528092919081815260200182805461276c9061405a565b80156127b95780601f1061278e576101008083540402835291602001916127b9565b820191906000526020600020905b81548152906001019060200180831161279c57829003601f168201915b5050505050815260200160038201548152602001600482015481526020016005820154815260200160068201548152602001600782015481526020016008820154815260200160098201548152602001600a820160009054906101000a900460ff16600181111561282d5761282c61373c565b5b600181111561283f5761283e61373c565b5b815250509080600c0180546128539061405a565b80601f016020809104026020016040519081016040528092919081815260200182805461287f9061405a565b80156128cc5780601f106128a1576101008083540402835291602001916128cc565b820191906000526020600020905b8154815290600101906020018083116128af57829003601f168201915b50505050509080600d0180546128e19061405a565b80601f016020809104026020016040519081016040528092919081815260200182805461290d9061405a565b801561295a5780601f1061292f5761010080835404028352916020019161295a565b820191906000526020600020905b81548152906001019060200180831161293d57829003601f168201915b50505050509080600e01805461296f9061405a565b80601f016020809104026020016040519081016040528092919081815260200182805461299b9061405a565b80156129e85780601f106129bd576101008083540402835291602001916129e8565b820191906000526020600020905b8154815290600101906020018083116129cb57829003601f168201915b50505050509080600f0154908060100154908060110154908060120160009054906101000a900473ffffffffffffffffffffffffffffffffffffffff16908060120160149054906101000a900460ff1690508a565b7f000000000000000000000000000000000000000000000000000000000000000073ffffffffffffffffffffffffffffffffffffffff163273ffffffffffffffffffffffffffffffffffffffff1614612acb576040517f08c379a0000000000000000000000000000000000000000000000000000000008152600401612ac290614846565b60405180910390fd5b6004548110612b0f576040517f08c379a0000000000000000000000000000000000000000000000000000000008152600401612b069061437a565b60405180910390fd5b600060026000838152602001908152602001600020905060006002811115612b3a57612b3961373c565b5b8160120160149054906101000a900460ff166002811115612b5e57612b5d61373c565b5b14612b9e576040517f08c379a0000000000000000000000000000000000000000000000000000000008152600401612b95906148b2565b60405180910390fd5b600081600101600901548260100154612bb791906148d2565b9050804211612bfb576040517f08c379a0000000000000000000000000000000000000000000000000000000008152600401612bf290614952565b60405180910390fd5b60018260120160146101000a81548160ff02191690836002811115612c2357612c2261373c565b5b0217905550505050565b612cc58282604051602401612c43929190614972565b6040516020818303038152906040527fb60e72cc000000000000000000000000000000000000000000000000000000007bffffffffffffffffffffffffffffffffffffffffffffffffffffffff19166020820180517bffffffffffffffffffffffffffffffffffffffffffffffffffffffff8381831617835250505050612f0e565b5050565b606060005b8351811015612ddd5760006002811115612ceb57612cea61373c565b5b848281518110612cfe57612cfd6142ff565b5b602002602001015161012001516002811115612d1d57612d1c61373c565b5b03612dca576000848281518110612d3757612d366142ff565b5b6020026020010151602001516101200151858381518110612d5b57612d5a6142ff565b5b602002602001015160c00151612d7191906148d2565b905080841115612dc8576001858381518110612d9057612d8f6142ff565b5b602002602001015161012001906002811115612daf57612dae61373c565b5b90816002811115612dc357612dc261373c565b5b815250505b505b8080612dd590613fe3565b915050612cce565b5082905092915050565b600260005403612e2c576040517f08c379a0000000000000000000000000000000000000000000000000000000008152600401612e23906149ee565b60405180910390fd5b6002600081905550565b606060006001612e4584612f28565b01905060008167ffffffffffffffff811115612e6457612e636131c8565b5b6040519080825280601f01601f191660200182016040528015612e965781602001600182028036833780820191505090505b509050600082602001820190505b600115612ef9578080600190039150507f3031323334353637383961626364656600000000000000000000000000000000600a86061a8153600a8581612eed57612eec614a0e565b5b04945060008503612ea4575b819350505050919050565b6001600081905550565b612f2581612f1d61307b61309c565b63ffffffff16565b50565b600080600090507a184f03e93ff9f4daa797ed6e38ed64bf6a1f0100000000000000008310612f86577a184f03e93ff9f4daa797ed6e38ed64bf6a1f0100000000000000008381612f7c57612f7b614a0e565b5b0492506040810190505b6d04ee2d6d415b85acef81000000008310612fc3576d04ee2d6d415b85acef81000000008381612fb957612fb8614a0e565b5b0492506020810190505b662386f26fc100008310612ff257662386f26fc100008381612fe857612fe7614a0e565b5b0492506010810190505b6305f5e100831061301b576305f5e100838161301157613010614a0e565b5b0492506008810190505b612710831061304057612710838161303657613035614a0e565b5b0492506004810190505b60648310613063576064838161305957613058614a0e565b5b0492506002810190505b600a8310613072576001810190505b80915050919050565b60006a636f6e736f6c652e6c6f679050600080835160208501845afa505050565b613128819050919050565b604051806101400160405280600081526020016130c2613132565b8152602001606081526020016060815260200160608152602001600081526020016000815260200160008152602001600073ffffffffffffffffffffffffffffffffffffffff168152602001600060028111156131225761312161373c565b5b81525090565b613130614a3d565b565b60405180610160016040528060608152602001606081526020016060815260200160008152602001600081526020016000815260200160008152602001600081526020016000815260200160008152602001600060018111156131985761319761373c565b5b81525090565b6000604051905090565b600080fd5b600080fd5b600080fd5b6000601f19601f8301169050919050565b7f4e487b7100000000000000000000000000000000000000000000000000000000600052604160045260246000fd5b613200826131b7565b810181811067ffffffffffffffff8211171561321f5761321e6131c8565b5b80604052505050565b600061323261319e565b905061323e82826131f7565b919050565b600080fd5b600080fd5b600080fd5b600067ffffffffffffffff82111561326d5761326c6131c8565b5b613276826131b7565b9050602081019050919050565b82818337600083830152505050565b60006132a56132a084613252565b613228565b9050828152602081018484840111156132c1576132c061324d565b5b6132cc848285613283565b509392505050565b600082601f8301126132e9576132e8613248565b5b81356132f9848260208601613292565b91505092915050565b6000819050919050565b61331581613302565b811461332057600080fd5b50565b6000813590506133328161330c565b92915050565b6002811061334557600080fd5b50565b60008135905061335781613338565b92915050565b60006101608284031215613374576133736131b2565b5b61337f610160613228565b9050600082013567ffffffffffffffff81111561339f5761339e613243565b5b6133ab848285016132d4565b600083015250602082013567ffffffffffffffff8111156133cf576133ce613243565b5b6133db848285016132d4565b602083015250604082013567ffffffffffffffff8111156133ff576133fe613243565b5b61340b848285016132d4565b604083015250606061341f84828501613323565b606083015250608061343384828501613323565b60808301525060a061344784828501613323565b60a08301525060c061345b84828501613323565b60c08301525060e061346f84828501613323565b60e08301525061010061348484828501613323565b6101008301525061012061349a84828501613323565b610120830152506101406134b084828501613348565b6101408301525092915050565b600073ffffffffffffffffffffffffffffffffffffffff82169050919050565b60006134e8826134bd565b9050919050565b6134f8816134dd565b811461350357600080fd5b50565b600081359050613515816134ef565b92915050565b60008060008060008060c08789031215613538576135376131a8565b5b600087013567ffffffffffffffff811115613556576135556131ad565b5b61356289828a0161335d565b965050602087013567ffffffffffffffff811115613583576135826131ad565b5b61358f89828a016132d4565b955050604087013567ffffffffffffffff8111156135b0576135af6131ad565b5b6135bc89828a016132d4565b945050606087013567ffffffffffffffff8111156135dd576135dc6131ad565b5b6135e989828a016132d4565b93505060806135fa89828a01613323565b92505060a061360b89828a01613506565b9150509295509295509295565b61362181613302565b82525050565b600060208201905061363c6000830184613618565b92915050565b60008060408385031215613659576136586131a8565b5b600061366785828601613506565b925050602061367885828601613323565b9150509250929050565b600081519050919050565b600082825260208201905092915050565b6000819050602082019050919050565b6136b781613302565b82525050565b600081519050919050565b600082825260208201905092915050565b60005b838110156136f75780820151818401526020810190506136dc565b60008484015250505050565b600061370e826136bd565b61371881856136c8565b93506137288185602086016136d9565b613731816131b7565b840191505092915050565b7f4e487b7100000000000000000000000000000000000000000000000000000000600052602160045260246000fd5b6002811061377c5761377b61373c565b5b50565b600081905061378d8261376b565b919050565b600061379d8261377f565b9050919050565b6137ad81613792565b82525050565b60006101608301600083015184820360008601526137d18282613703565b915050602083015184820360208601526137eb8282613703565b915050604083015184820360408601526138058282613703565b915050606083015161381a60608601826136ae565b50608083015161382d60808601826136ae565b5060a083015161384060a08601826136ae565b5060c083015161385360c08601826136ae565b5060e083015161386660e08601826136ae565b5061010083015161387b6101008601826136ae565b506101208301516138906101208601826136ae565b506101408301516138a56101408601826137a4565b508091505092915050565b6138b9816134dd565b82525050565b600381106138d0576138cf61373c565b5b50565b60008190506138e1826138bf565b919050565b60006138f1826138d3565b9050919050565b613901816138e6565b82525050565b60006101408301600083015161392060008601826136ae565b506020830151848203602086015261393882826137b3565b915050604083015184820360408601526139528282613703565b9150506060830151848203606086015261396c8282613703565b915050608083015184820360808601526139868282613703565b91505060a083015161399b60a08601826136ae565b5060c08301516139ae60c08601826136ae565b5060e08301516139c160e08601826136ae565b506101008301516139d66101008601826138b0565b506101208301516139eb6101208601826138f8565b508091505092915050565b6000613a028383613907565b905092915050565b6000602082019050919050565b6000613a2282613682565b613a2c818561368d565b935083602082028501613a3e8561369e565b8060005b85811015613a7a5784840389528151613a5b85826139f6565b9450613a6683613a0a565b925060208a01995050600181019050613a42565b50829750879550505050505092915050565b60006020820190508181036000830152613aa68184613a17565b905092915050565b600060208284031215613ac457613ac36131a8565b5b6000613ad284828501613323565b91505092915050565b6000819050919050565b6000613b00613afb613af6846134bd565b613adb565b6134bd565b9050919050565b6000613b1282613ae5565b9050919050565b6000613b2482613b07565b9050919050565b613b3481613b19565b82525050565b6000602082019050613b4f6000830184613b2b565b92915050565b613b5e816134dd565b82525050565b6000602082019050613b796000830184613b55565b92915050565b60008060408385031215613b9657613b956131a8565b5b6000613ba485828601613323565b9250506020613bb585828601613506565b9150509250929050565b600061014083016000830151613bd860008601826136ae565b5060208301518482036020860152613bf082826137b3565b91505060408301518482036040860152613c0a8282613703565b91505060608301518482036060860152613c248282613703565b91505060808301518482036080860152613c3e8282613703565b91505060a0830151613c5360a08601826136ae565b5060c0830151613c6660c08601826136ae565b5060e0830151613c7960e08601826136ae565b50610100830151613c8e6101008601826138b0565b50610120830151613ca36101208601826138f8565b508091505092915050565b6000604082019050613cc36000830185613618565b8181036020830152613cd58184613bbf565b90509392505050565b60008060408385031215613cf557613cf46131a8565b5b600083013567ffffffffffffffff811115613d1357613d126131ad565b5b613d1f858286016132d4565b9250506020613d3085828601613323565b9150509250929050565b6000610160830160008301518482036000860152613d588282613703565b91505060208301518482036020860152613d728282613703565b91505060408301518482036040860152613d8c8282613703565b9150506060830151613da160608601826136ae565b506080830151613db460808601826136ae565b5060a0830151613dc760a08601826136ae565b5060c0830151613dda60c08601826136ae565b5060e0830151613ded60e08601826136ae565b50610100830151613e026101008601826136ae565b50610120830151613e176101208601826136ae565b50610140830151613e2c6101408601826137a4565b508091505092915050565b600082825260208201905092915050565b6000613e53826136bd565b613e5d8185613e37565b9350613e6d8185602086016136d9565b613e76816131b7565b840191505092915050565b613e8a816138e6565b82525050565b600061014082019050613ea6600083018d613618565b8181036020830152613eb8818c613d3a565b90508181036040830152613ecc818b613e48565b90508181036060830152613ee0818a613e48565b90508181036080830152613ef48189613e48565b9050613f0360a0830188613618565b613f1060c0830187613618565b613f1d60e0830186613618565b613f2b610100830185613b55565b613f39610120830184613e81565b9b9a5050505050505050505050565b7f506f6c6963792074656d706c617465206973206e6f7420616374697665000000600082015250565b6000613f7e601d83613e37565b9150613f8982613f48565b602082019050919050565b60006020820190508181036000830152613fad81613f71565b9050919050565b7f4e487b7100000000000000000000000000000000000000000000000000000000600052601160045260246000fd5b6000613fee82613302565b91507fffffffffffffffffffffffffffffffffffffffffffffffffffffffffffffffff82036140205761401f613fb4565b5b600182019050919050565b7f4e487b7100000000000000000000000000000000000000000000000000000000600052602260045260246000fd5b6000600282049050600182168061407257607f821691505b6020821081036140855761408461402b565b5b50919050565b60008190508160005260206000209050919050565b60006020601f8301049050919050565b600082821b905092915050565b6000600883026140ed7fffffffffffffffffffffffffffffffffffffffffffffffffffffffffffffffff826140b0565b6140f786836140b0565b95508019841693508086168417925050509392505050565b600061412a61412561412084613302565b613adb565b613302565b9050919050565b6000819050919050565b6141448361410f565b61415861415082614131565b8484546140bd565b825550505050565b600090565b61416d614160565b61417881848461413b565b505050565b5b8181101561419c57614191600082614165565b60018101905061417e565b5050565b601f8211156141e1576141b28161408b565b6141bb846140a0565b810160208510156141ca578190505b6141de6141d6856140a0565b83018261417d565b50505b505050565b600082821c905092915050565b6000614204600019846008026141e6565b1980831691505092915050565b600061421d83836141f3565b9150826002028217905092915050565b614236826136bd565b67ffffffffffffffff81111561424f5761424e6131c8565b5b614259825461405a565b6142648282856141a0565b600060209050601f8311600181146142975760008415614285578287015190505b61428f8582614211565b8655506142f7565b601f1984166142a58661408b565b60005b828110156142cd578489015182556001820191506020850194506020810190506142a8565b868310156142ea57848901516142e6601f8916826141f3565b8355505b6001600288020188555050505b505050505050565b7f4e487b7100000000000000000000000000000000000000000000000000000000600052603260045260246000fd5b7f496e76616c696420706f6c696379496400000000000000000000000000000000600082015250565b6000614364601083613e37565b915061436f8261432e565b602082019050919050565b6000602082019050818103600083015261439381614357565b9050919050565b7f4e6f7420706f6c696379206f776e657200000000000000000000000000000000600082015250565b60006143d0601083613e37565b91506143db8261439a565b602082019050919050565b600060208201905081810360008301526143ff816143c3565b9050919050565b7f506f6c696379206e6f7420616374697665000000000000000000000000000000600082015250565b600061443c601183613e37565b915061444782614406565b602082019050919050565b6000602082019050818103600083015261446b8161442f565b9050919050565b6000815461447f8161405a565b6144898186613e37565b945060018216600081146144a457600181146144ba576144ed565b60ff1983168652811515602002860193506144ed565b6144c38561408b565b60005b838110156144e5578154818901526001820191506020810190506144c6565b808801955050505b50505092915050565b600060408201905081810360008301526145108185614472565b905081810360208301526145248184613e48565b90509392505050565b60008115159050919050565b6145428161452d565b811461454d57600080fd5b50565b60008151905061455f81614539565b92915050565b6000815190506145748161330c565b92915050565b600080600060608486031215614593576145926131a8565b5b60006145a186828701614550565b93505060206145b286828701614550565b92505060406145c386828701614565565b9150509250925092565b7f466c69676874206e6f742064656c617965640000000000000000000000000000600082015250565b6000614603601283613e37565b915061460e826145cd565b602082019050919050565b60006020820190508181036000830152614632816145f6565b9050919050565b600061464482613302565b915061464f83613302565b925082820261465d81613302565b9150828204841483151761467457614673613fb4565b5b5092915050565b7f4e6f207061796f75742064756500000000000000000000000000000000000000600082015250565b60006146b1600d83613e37565b91506146bc8261467b565b602082019050919050565b600060208201905081810360008301526146e0816146a4565b9050919050565b600081905092915050565b60006146fd826136bd565b61470781856146e7565b93506147178185602086016136d9565b80840191505092915050565b600061472f82846146f2565b915081905092915050565b600081546147478161405a565b61475181866146e7565b9450600182166000811461476c5760018114614781576147b4565b60ff19831686528115158202860193506147b4565b61478a8561408b565b60005b838110156147ac5781548189015260018201915060208101905061478d565b838801955050505b50505092915050565b60006147c9828461473a565b915081905092915050565b7f466c69676874506f6c6963793a204f6e6c792074686520696e7375726572206360008201527f616e2063616c6c20746869732066756e6374696f6e0000000000000000000000602082015250565b6000614830603583613e37565b915061483b826147d4565b604082019050919050565b6000602082019050818103600083015261485f81614823565b9050919050565b7f506f6c696379206973206e6f7420616374697665000000000000000000000000600082015250565b600061489c601483613e37565b91506148a782614866565b602082019050919050565b600060208201905081810360008301526148cb8161488f565b9050919050565b60006148dd82613302565b91506148e883613302565b9250828201905080821115614900576148ff613fb4565b5b92915050565b7f506f6c69637920686173206e6f74206578706972656420796574000000000000600082015250565b600061493c601a83613e37565b915061494782614906565b602082019050919050565b6000602082019050818103600083015261496b8161492f565b9050919050565b6000604082019050818103600083015261498c8185613e48565b905061499b6020830184613618565b9392505050565b7f5265656e7472616e637947756172643a207265656e7472616e742063616c6c00600082015250565b60006149d8601f83613e37565b91506149e3826149a2565b602082019050919050565b60006020820190508181036000830152614a07816149cb565b9050919050565b7f4e487b7100000000000000000000000000000000000000000000000000000000600052601260045260246000fd5b7f4e487b7100000000000000000000000000000000000000000000000000000000600052605160045260246000fdfea264697066735822122087c4d2661de9e495e842f8f6d91a8d88a1dae20779e2ac6b6e418aadef78f31764736f6c63430008130033",
  "linkReferences": {},
  "deployedLinkReferences": {}
}