{
  "_format": "hh-sol-artifact-1",
  "contractName": "FlightPolicy",
  "sourceName": "contracts/FlightPolicy.sol",
  "abi": [
    {
      "inputs": [
        {
          "internalType": "address",
          "name": "_oracleConnector",
          "type": "address"
        }
      ],
      "stateMutability": "nonpayable",
      "type": "constructor"
    },
    {
      "inputs": [
        {
          "internalType": "uint256",
          "name": "policyId",
          "type": "uint256"
        },
        {
          "internalType": "address",
          "name": "buyer",
          "type": "address"
        }
      ],
      "name": "claimPayout",
      "outputs": [],
      "stateMutability": "nonpayable",
      "type": "function"
    },
    {
      "inputs": [],
      "name": "getAllPolicies",
      "outputs": [
        {
          "components": [
            {
              "internalType": "uint256",
              "name": "policyId",
              "type": "uint256"
            },
            {
              "components": [
                {
                  "internalType": "string",
                  "name": "templateId",
                  "type": "string"
                },
                {
                  "internalType": "string",
                  "name": "name",
                  "type": "string"
                },
                {
                  "internalType": "string",
                  "name": "description",
                  "type": "string"
                },
                {
                  "internalType": "uint256",
                  "name": "createdAt",
                  "type": "uint256"
                },
                {
                  "internalType": "uint256",
                  "name": "updatedAt",
                  "type": "uint256"
                },
                {
                  "internalType": "uint256",
                  "name": "premium",
                  "type": "uint256"
                },
                {
                  "internalType": "uint256",
                  "name": "payoutPerHour",
                  "type": "uint256"
                },
                {
                  "internalType": "uint256",
                  "name": "delayThresholdHours",
                  "type": "uint256"
                },
                {
                  "internalType": "uint256",
                  "name": "maxTotalPayout",
                  "type": "uint256"
                },
                {
                  "internalType": "uint256",
                  "name": "coverageDurationDays",
                  "type": "uint256"
                },
                {
                  "internalType": "enum FlightPolicy.PolicyTemplateStatus",
                  "name": "status",
                  "type": "uint8"
                }
              ],
              "internalType": "struct FlightPolicy.PolicyTemplate",
              "name": "template",
              "type": "tuple"
            },
            {
              "internalType": "string",
              "name": "flightNumber",
              "type": "string"
            },
            {
              "internalType": "string",
              "name": "departureAirportCode",
              "type": "string"
            },
            {
              "internalType": "string",
              "name": "arrivalAirportCode",
              "type": "string"
            },
            {
              "internalType": "uint256",
              "name": "departureTime",
              "type": "uint256"
            },
            {
              "internalType": "uint256",
              "name": "createdAt",
              "type": "uint256"
            },
            {
              "internalType": "uint256",
              "name": "payoutToDate",
              "type": "uint256"
            },
            {
              "internalType": "address",
              "name": "buyer",
              "type": "address"
            },
            {
              "internalType": "enum FlightPolicy.PolicyStatus",
              "name": "status",
              "type": "uint8"
            }
          ],
          "internalType": "struct FlightPolicy.UserPolicy[]",
          "name": "",
          "type": "tuple[]"
        }
      ],
      "stateMutability": "view",
      "type": "function"
    },
    {
      "inputs": [
        {
          "internalType": "address",
          "name": "user",
          "type": "address"
        }
      ],
      "name": "getUserPolicies",
      "outputs": [
        {
          "components": [
            {
              "internalType": "uint256",
              "name": "policyId",
              "type": "uint256"
            },
            {
              "components": [
                {
                  "internalType": "string",
                  "name": "templateId",
                  "type": "string"
                },
                {
                  "internalType": "string",
                  "name": "name",
                  "type": "string"
                },
                {
                  "internalType": "string",
                  "name": "description",
                  "type": "string"
                },
                {
                  "internalType": "uint256",
                  "name": "createdAt",
                  "type": "uint256"
                },
                {
                  "internalType": "uint256",
                  "name": "updatedAt",
                  "type": "uint256"
                },
                {
                  "internalType": "uint256",
                  "name": "premium",
                  "type": "uint256"
                },
                {
                  "internalType": "uint256",
                  "name": "payoutPerHour",
                  "type": "uint256"
                },
                {
                  "internalType": "uint256",
                  "name": "delayThresholdHours",
                  "type": "uint256"
                },
                {
                  "internalType": "uint256",
                  "name": "maxTotalPayout",
                  "type": "uint256"
                },
                {
                  "internalType": "uint256",
                  "name": "coverageDurationDays",
                  "type": "uint256"
                },
                {
                  "internalType": "enum FlightPolicy.PolicyTemplateStatus",
                  "name": "status",
                  "type": "uint8"
                }
              ],
              "internalType": "struct FlightPolicy.PolicyTemplate",
              "name": "template",
              "type": "tuple"
            },
            {
              "internalType": "string",
              "name": "flightNumber",
              "type": "string"
            },
            {
              "internalType": "string",
              "name": "departureAirportCode",
              "type": "string"
            },
            {
              "internalType": "string",
              "name": "arrivalAirportCode",
              "type": "string"
            },
            {
              "internalType": "uint256",
              "name": "departureTime",
              "type": "uint256"
            },
            {
              "internalType": "uint256",
              "name": "createdAt",
              "type": "uint256"
            },
            {
              "internalType": "uint256",
              "name": "payoutToDate",
              "type": "uint256"
            },
            {
              "internalType": "address",
              "name": "buyer",
              "type": "address"
            },
            {
              "internalType": "enum FlightPolicy.PolicyStatus",
              "name": "status",
              "type": "uint8"
            }
          ],
          "internalType": "struct FlightPolicy.UserPolicy[]",
          "name": "",
          "type": "tuple[]"
        }
      ],
      "stateMutability": "view",
      "type": "function"
    },
    {
      "inputs": [
        {
          "internalType": "string",
          "name": "templateId",
          "type": "string"
        }
      ],
      "name": "getUserPoliciesByTemplate",
      "outputs": [
        {
          "components": [
            {
              "internalType": "uint256",
              "name": "policyId",
              "type": "uint256"
            },
            {
              "components": [
                {
                  "internalType": "string",
                  "name": "templateId",
                  "type": "string"
                },
                {
                  "internalType": "string",
                  "name": "name",
                  "type": "string"
                },
                {
                  "internalType": "string",
                  "name": "description",
                  "type": "string"
                },
                {
                  "internalType": "uint256",
                  "name": "createdAt",
                  "type": "uint256"
                },
                {
                  "internalType": "uint256",
                  "name": "updatedAt",
                  "type": "uint256"
                },
                {
                  "internalType": "uint256",
                  "name": "premium",
                  "type": "uint256"
                },
                {
                  "internalType": "uint256",
                  "name": "payoutPerHour",
                  "type": "uint256"
                },
                {
                  "internalType": "uint256",
                  "name": "delayThresholdHours",
                  "type": "uint256"
                },
                {
                  "internalType": "uint256",
                  "name": "maxTotalPayout",
                  "type": "uint256"
                },
                {
                  "internalType": "uint256",
                  "name": "coverageDurationDays",
                  "type": "uint256"
                },
                {
                  "internalType": "enum FlightPolicy.PolicyTemplateStatus",
                  "name": "status",
                  "type": "uint8"
                }
              ],
              "internalType": "struct FlightPolicy.PolicyTemplate",
              "name": "template",
              "type": "tuple"
            },
            {
              "internalType": "string",
              "name": "flightNumber",
              "type": "string"
            },
            {
              "internalType": "string",
              "name": "departureAirportCode",
              "type": "string"
            },
            {
              "internalType": "string",
              "name": "arrivalAirportCode",
              "type": "string"
            },
            {
              "internalType": "uint256",
              "name": "departureTime",
              "type": "uint256"
            },
            {
              "internalType": "uint256",
              "name": "createdAt",
              "type": "uint256"
            },
            {
              "internalType": "uint256",
              "name": "payoutToDate",
              "type": "uint256"
            },
            {
              "internalType": "address",
              "name": "buyer",
              "type": "address"
            },
            {
              "internalType": "enum FlightPolicy.PolicyStatus",
              "name": "status",
              "type": "uint8"
            }
          ],
          "internalType": "struct FlightPolicy.UserPolicy[]",
          "name": "",
          "type": "tuple[]"
        }
      ],
      "stateMutability": "view",
      "type": "function"
    },
    {
      "inputs": [
        {
          "internalType": "address",
          "name": "user",
          "type": "address"
        },
        {
          "internalType": "uint256",
          "name": "policyId",
          "type": "uint256"
        }
      ],
      "name": "getUserPolicyWithTemplate",
      "outputs": [
        {
          "components": [
            {
              "internalType": "uint256",
              "name": "policyId",
              "type": "uint256"
            },
            {
              "components": [
                {
                  "internalType": "string",
                  "name": "templateId",
                  "type": "string"
                },
                {
                  "internalType": "string",
                  "name": "name",
                  "type": "string"
                },
                {
                  "internalType": "string",
                  "name": "description",
                  "type": "string"
                },
                {
                  "internalType": "uint256",
                  "name": "createdAt",
                  "type": "uint256"
                },
                {
                  "internalType": "uint256",
                  "name": "updatedAt",
                  "type": "uint256"
                },
                {
                  "internalType": "uint256",
                  "name": "premium",
                  "type": "uint256"
                },
                {
                  "internalType": "uint256",
                  "name": "payoutPerHour",
                  "type": "uint256"
                },
                {
                  "internalType": "uint256",
                  "name": "delayThresholdHours",
                  "type": "uint256"
                },
                {
                  "internalType": "uint256",
                  "name": "maxTotalPayout",
                  "type": "uint256"
                },
                {
                  "internalType": "uint256",
                  "name": "coverageDurationDays",
                  "type": "uint256"
                },
                {
                  "internalType": "enum FlightPolicy.PolicyTemplateStatus",
                  "name": "status",
                  "type": "uint8"
                }
              ],
              "internalType": "struct FlightPolicy.PolicyTemplate",
              "name": "template",
              "type": "tuple"
            },
            {
              "internalType": "string",
              "name": "flightNumber",
              "type": "string"
            },
            {
              "internalType": "string",
              "name": "departureAirportCode",
              "type": "string"
            },
            {
              "internalType": "string",
              "name": "arrivalAirportCode",
              "type": "string"
            },
            {
              "internalType": "uint256",
              "name": "departureTime",
              "type": "uint256"
            },
            {
              "internalType": "uint256",
              "name": "createdAt",
              "type": "uint256"
            },
            {
              "internalType": "uint256",
              "name": "payoutToDate",
              "type": "uint256"
            },
            {
              "internalType": "address",
              "name": "buyer",
              "type": "address"
            },
            {
              "internalType": "enum FlightPolicy.PolicyStatus",
              "name": "status",
              "type": "uint8"
            }
          ],
          "internalType": "struct FlightPolicy.UserPolicy",
          "name": "policy",
          "type": "tuple"
        },
        {
          "components": [
            {
              "internalType": "string",
              "name": "templateId",
              "type": "string"
            },
            {
              "internalType": "string",
              "name": "name",
              "type": "string"
            },
            {
              "internalType": "string",
              "name": "description",
              "type": "string"
            },
            {
              "internalType": "uint256",
              "name": "createdAt",
              "type": "uint256"
            },
            {
              "internalType": "uint256",
              "name": "updatedAt",
              "type": "uint256"
            },
            {
              "internalType": "uint256",
              "name": "premium",
              "type": "uint256"
            },
            {
              "internalType": "uint256",
              "name": "payoutPerHour",
              "type": "uint256"
            },
            {
              "internalType": "uint256",
              "name": "delayThresholdHours",
              "type": "uint256"
            },
            {
              "internalType": "uint256",
              "name": "maxTotalPayout",
              "type": "uint256"
            },
            {
              "internalType": "uint256",
              "name": "coverageDurationDays",
              "type": "uint256"
            },
            {
              "internalType": "enum FlightPolicy.PolicyTemplateStatus",
              "name": "status",
              "type": "uint8"
            }
          ],
          "internalType": "struct FlightPolicy.PolicyTemplate",
          "name": "template",
          "type": "tuple"
        }
      ],
      "stateMutability": "view",
      "type": "function"
    },
    {
      "inputs": [],
      "name": "insurerAddress",
      "outputs": [
        {
          "internalType": "address",
          "name": "",
          "type": "address"
        }
      ],
      "stateMutability": "view",
      "type": "function"
    },
    {
      "inputs": [
        {
          "internalType": "uint256",
          "name": "policyId",
          "type": "uint256"
        }
      ],
      "name": "markPolicyAsExpired",
      "outputs": [],
      "stateMutability": "nonpayable",
      "type": "function"
    },
    {
      "inputs": [],
      "name": "nextUserPolicyId",
      "outputs": [
        {
          "internalType": "uint256",
          "name": "",
          "type": "uint256"
        }
      ],
      "stateMutability": "view",
      "type": "function"
    },
    {
      "inputs": [],
      "name": "oracleConnector",
      "outputs": [
        {
          "internalType": "contract OracleConnector",
          "name": "",
          "type": "address"
        }
      ],
      "stateMutability": "view",
      "type": "function"
    },
    {
      "inputs": [
        {
          "components": [
            {
              "internalType": "string",
              "name": "templateId",
              "type": "string"
            },
            {
              "internalType": "string",
              "name": "name",
              "type": "string"
            },
            {
              "internalType": "string",
              "name": "description",
              "type": "string"
            },
            {
              "internalType": "uint256",
              "name": "createdAt",
              "type": "uint256"
            },
            {
              "internalType": "uint256",
              "name": "updatedAt",
              "type": "uint256"
            },
            {
              "internalType": "uint256",
              "name": "premium",
              "type": "uint256"
            },
            {
              "internalType": "uint256",
              "name": "payoutPerHour",
              "type": "uint256"
            },
            {
              "internalType": "uint256",
              "name": "delayThresholdHours",
              "type": "uint256"
            },
            {
              "internalType": "uint256",
              "name": "maxTotalPayout",
              "type": "uint256"
            },
            {
              "internalType": "uint256",
              "name": "coverageDurationDays",
              "type": "uint256"
            },
            {
              "internalType": "enum FlightPolicy.PolicyTemplateStatus",
              "name": "status",
              "type": "uint8"
            }
          ],
          "internalType": "struct FlightPolicy.PolicyTemplate",
          "name": "template",
          "type": "tuple"
        },
        {
          "internalType": "string",
          "name": "flightNumber",
          "type": "string"
        },
        {
          "internalType": "string",
          "name": "departureAirportCode",
          "type": "string"
        },
        {
          "internalType": "string",
          "name": "arrivalAirportCode",
          "type": "string"
        },
        {
          "internalType": "uint256",
          "name": "departureTime",
          "type": "uint256"
        },
        {
          "internalType": "address",
          "name": "buyer",
          "type": "address"
        }
      ],
      "name": "purchasePolicy",
      "outputs": [
        {
          "internalType": "uint256",
          "name": "",
          "type": "uint256"
        }
      ],
      "stateMutability": "payable",
      "type": "function"
    },
    {
      "inputs": [
        {
          "internalType": "uint256",
          "name": "",
          "type": "uint256"
        }
      ],
      "name": "userPolicies",
      "outputs": [
        {
          "internalType": "uint256",
          "name": "policyId",
          "type": "uint256"
        },
        {
          "components": [
            {
              "internalType": "string",
              "name": "templateId",
              "type": "string"
            },
            {
              "internalType": "string",
              "name": "name",
              "type": "string"
            },
            {
              "internalType": "string",
              "name": "description",
              "type": "string"
            },
            {
              "internalType": "uint256",
              "name": "createdAt",
              "type": "uint256"
            },
            {
              "internalType": "uint256",
              "name": "updatedAt",
              "type": "uint256"
            },
            {
              "internalType": "uint256",
              "name": "premium",
              "type": "uint256"
            },
            {
              "internalType": "uint256",
              "name": "payoutPerHour",
              "type": "uint256"
            },
            {
              "internalType": "uint256",
              "name": "delayThresholdHours",
              "type": "uint256"
            },
            {
              "internalType": "uint256",
              "name": "maxTotalPayout",
              "type": "uint256"
            },
            {
              "internalType": "uint256",
              "name": "coverageDurationDays",
              "type": "uint256"
            },
            {
              "internalType": "enum FlightPolicy.PolicyTemplateStatus",
              "name": "status",
              "type": "uint8"
            }
          ],
          "internalType": "struct FlightPolicy.PolicyTemplate",
          "name": "template",
          "type": "tuple"
        },
        {
          "internalType": "string",
          "name": "flightNumber",
          "type": "string"
        },
        {
          "internalType": "string",
          "name": "departureAirportCode",
          "type": "string"
        },
        {
          "internalType": "string",
          "name": "arrivalAirportCode",
          "type": "string"
        },
        {
          "internalType": "uint256",
          "name": "departureTime",
          "type": "uint256"
        },
        {
          "internalType": "uint256",
          "name": "createdAt",
          "type": "uint256"
        },
        {
          "internalType": "uint256",
          "name": "payoutToDate",
          "type": "uint256"
        },
        {
          "internalType": "address",
          "name": "buyer",
          "type": "address"
        },
        {
          "internalType": "enum FlightPolicy.PolicyStatus",
          "name": "status",
          "type": "uint8"
        }
      ],
      "stateMutability": "view",
      "type": "function"
    },
    {
      "inputs": [
        {
          "internalType": "address",
          "name": "",
          "type": "address"
        },
        {
          "internalType": "uint256",
          "name": "",
          "type": "uint256"
        }
      ],
      "name": "userPolicyIds",
      "outputs": [
        {
          "internalType": "uint256",
          "name": "",
          "type": "uint256"
        }
      ],
      "stateMutability": "view",
      "type": "function"
    }
  ],
  "bytecode": "0x60a06040523480156200001157600080fd5b50604051620049c5380380620049c5833981810160405281019062000037919062000125565b60016000819055503373ffffffffffffffffffffffffffffffffffffffff1660808173ffffffffffffffffffffffffffffffffffffffff168152505080600160006101000a81548173ffffffffffffffffffffffffffffffffffffffff021916908373ffffffffffffffffffffffffffffffffffffffff1602179055505062000157565b600080fd5b600073ffffffffffffffffffffffffffffffffffffffff82169050919050565b6000620000ed82620000c0565b9050919050565b620000ff81620000e0565b81146200010b57600080fd5b50565b6000815190506200011f81620000f4565b92915050565b6000602082840312156200013e576200013d620000bb565b5b60006200014e848285016200010e565b91505092915050565b60805161484462000181600039600081816112cc01528181611f99015261281f01526148446000f3fe6080604052600436106100a75760003560e01c80639c6cf7ef116100645780639c6cf7ef146101d8578063a7c0900e14610215578063b0110cc614610240578063b6e283e114610269578063cba85f06146102a6578063cf39c624146102ec576100a7565b806313e896b6146100ac57806319ac4614146100ea57806331953ecc14610127578063457e5521146101575780637b956415146101825780639a9122ac146101ad575b600080fd5b3480156100b857600080fd5b506100d360048036038101906100ce9190612e2a565b610315565b6040516100e19291906132c0565b60405180910390f35b3480156100f657600080fd5b50610111600480360381019061010c91906132f7565b6108f7565b60405161011e91906134d5565b60405180910390f35b610141600480360381019061013c91906137bb565b610f14565b60405161014e91906138c7565b60405180910390f35b34801561016357600080fd5b5061016c6112c8565b60405161017991906134d5565b60405180910390f35b34801561018e57600080fd5b506101976118d6565b6040516101a491906138c7565b60405180910390f35b3480156101b957600080fd5b506101c26118dc565b6040516101cf9190613941565b60405180910390f35b3480156101e457600080fd5b506101ff60048036038101906101fa919061395c565b611902565b60405161020c91906134d5565b60405180910390f35b34801561022157600080fd5b5061022a611f97565b60405161023791906139b4565b60405180910390f35b34801561024c57600080fd5b50610267600480360381019061026291906139cf565b611fbb565b005b34801561027557600080fd5b50610290600480360381019061028b9190612e2a565b612391565b60405161029d91906138c7565b60405180910390f35b3480156102b257600080fd5b506102cd60048036038101906102c89190613a0f565b6123c2565b6040516102e39a99989796959493929190613a95565b60405180910390f35b3480156102f857600080fd5b50610313600480360381019061030e9190613a0f565b61281d565b005b61031d612c95565b610325612d16565b6004548310610369576040517f08c379a000000000000000000000000000000000000000000000000000000000815260040161036090613b99565b60405180910390fd5b8373ffffffffffffffffffffffffffffffffffffffff166002600085815260200190815260200160002060120160009054906101000a900473ffffffffffffffffffffffffffffffffffffffff1673ffffffffffffffffffffffffffffffffffffffff161461040d576040517f08c379a000000000000000000000000000000000000000000000000000000000815260040161040490613c2b565b60405180910390fd5b600260008481526020019081526020016000206040518061014001604052908160008201548152602001600182016040518061016001604052908160008201805461045790613c7a565b80601f016020809104026020016040519081016040528092919081815260200182805461048390613c7a565b80156104d05780601f106104a5576101008083540402835291602001916104d0565b820191906000526020600020905b8154815290600101906020018083116104b357829003601f168201915b505050505081526020016001820180546104e990613c7a565b80601f016020809104026020016040519081016040528092919081815260200182805461051590613c7a565b80156105625780601f1061053757610100808354040283529160200191610562565b820191906000526020600020905b81548152906001019060200180831161054557829003601f168201915b5050505050815260200160028201805461057b90613c7a565b80601f01602080910402602001604051908101604052809291908181526020018280546105a790613c7a565b80156105f45780601f106105c9576101008083540402835291602001916105f4565b820191906000526020600020905b8154815290600101906020018083116105d757829003601f168201915b5050505050815260200160038201548152602001600482015481526020016005820154815260200160068201548152602001600782015481526020016008820154815260200160098201548152602001600a820160009054906101000a900460ff16600181111561066857610667612f09565b5b600181111561067a57610679612f09565b5b815250508152602001600c8201805461069290613c7a565b80601f01602080910402602001604051908101604052809291908181526020018280546106be90613c7a565b801561070b5780601f106106e05761010080835404028352916020019161070b565b820191906000526020600020905b8154815290600101906020018083116106ee57829003601f168201915b50505050508152602001600d8201805461072490613c7a565b80601f016020809104026020016040519081016040528092919081815260200182805461075090613c7a565b801561079d5780601f106107725761010080835404028352916020019161079d565b820191906000526020600020905b81548152906001019060200180831161078057829003601f168201915b50505050508152602001600e820180546107b690613c7a565b80601f01602080910402602001604051908101604052809291908181526020018280546107e290613c7a565b801561082f5780601f106108045761010080835404028352916020019161082f565b820191906000526020600020905b81548152906001019060200180831161081257829003601f168201915b50505050508152602001600f820154815260200160108201548152602001601182015481526020016012820160009054906101000a900473ffffffffffffffffffffffffffffffffffffffff1673ffffffffffffffffffffffffffffffffffffffff1673ffffffffffffffffffffffffffffffffffffffff1681526020016012820160149054906101000a900460ff1660028111156108d1576108d0612f09565b5b60028111156108e3576108e2612f09565b5b815250509150816020015190509250929050565b60606000600360008473ffffffffffffffffffffffffffffffffffffffff1673ffffffffffffffffffffffffffffffffffffffff16815260200190815260200160002080549050905060008167ffffffffffffffff81111561095c5761095b6134fc565b5b60405190808252806020026020018201604052801561099557816020015b610982612c95565b81526020019060019003908161097a5790505b50905060005b82811015610f095760026000600360008873ffffffffffffffffffffffffffffffffffffffff1673ffffffffffffffffffffffffffffffffffffffff16815260200190815260200160002083815481106109f8576109f7613cab565b5b9060005260206000200154815260200190815260200160002060405180610140016040529081600082015481526020016001820160405180610160016040529081600082018054610a4890613c7a565b80601f0160208091040260200160405190810160405280929190818152602001828054610a7490613c7a565b8015610ac15780601f10610a9657610100808354040283529160200191610ac1565b820191906000526020600020905b815481529060010190602001808311610aa457829003601f168201915b50505050508152602001600182018054610ada90613c7a565b80601f0160208091040260200160405190810160405280929190818152602001828054610b0690613c7a565b8015610b535780601f10610b2857610100808354040283529160200191610b53565b820191906000526020600020905b815481529060010190602001808311610b3657829003601f168201915b50505050508152602001600282018054610b6c90613c7a565b80601f0160208091040260200160405190810160405280929190818152602001828054610b9890613c7a565b8015610be55780601f10610bba57610100808354040283529160200191610be5565b820191906000526020600020905b815481529060010190602001808311610bc857829003601f168201915b5050505050815260200160038201548152602001600482015481526020016005820154815260200160068201548152602001600782015481526020016008820154815260200160098201548152602001600a820160009054906101000a900460ff166001811115610c5957610c58612f09565b5b6001811115610c6b57610c6a612f09565b5b815250508152602001600c82018054610c8390613c7a565b80601f0160208091040260200160405190810160405280929190818152602001828054610caf90613c7a565b8015610cfc5780601f10610cd157610100808354040283529160200191610cfc565b820191906000526020600020905b815481529060010190602001808311610cdf57829003601f168201915b50505050508152602001600d82018054610d1590613c7a565b80601f0160208091040260200160405190810160405280929190818152602001828054610d4190613c7a565b8015610d8e5780601f10610d6357610100808354040283529160200191610d8e565b820191906000526020600020905b815481529060010190602001808311610d7157829003601f168201915b50505050508152602001600e82018054610da790613c7a565b80601f0160208091040260200160405190810160405280929190818152602001828054610dd390613c7a565b8015610e205780601f10610df557610100808354040283529160200191610e20565b820191906000526020600020905b815481529060010190602001808311610e0357829003601f168201915b50505050508152602001600f820154815260200160108201548152602001601182015481526020016012820160009054906101000a900473ffffffffffffffffffffffffffffffffffffffff1673ffffffffffffffffffffffffffffffffffffffff1673ffffffffffffffffffffffffffffffffffffffff1681526020016012820160149054906101000a900460ff166002811115610ec257610ec1612f09565b5b6002811115610ed457610ed3612f09565b5b81525050828281518110610eeb57610eea613cab565b5b60200260200101819052508080610f0190613d09565b91505061099b565b508092505050919050565b6000806001811115610f2957610f28612f09565b5b8761014001516001811115610f4157610f40612f09565b5b14610f81576040517f08c379a0000000000000000000000000000000000000000000000000000000008152600401610f7890613d9d565b60405180910390fd5b428311610fc3576040517f08c379a0000000000000000000000000000000000000000000000000000000008152600401610fba90613e2f565b60405180910390fd5b8660a0015134101561100a576040517f08c379a000000000000000000000000000000000000000000000000000000000815260040161100190613e9b565b60405180910390fd5b60006004600081548092919061101f90613d09565b919050559050604051806101400160405280828152602001898152602001888152602001878152602001868152602001858152602001428152602001600081526020018473ffffffffffffffffffffffffffffffffffffffff1681526020016000600281111561109257611091612f09565b5b815250600260008381526020019081526020016000206000820151816000015560208201518160010160008201518160000190816110d0919061405d565b5060208201518160010190816110e6919061405d565b5060408201518160020190816110fc919061405d565b50606082015181600301556080820151816004015560a0820151816005015560c0820151816006015560e082015181600701556101008201518160080155610120820151816009015561014082015181600a0160006101000a81548160ff0219169083600181111561117157611170612f09565b5b02179055505050604082015181600c01908161118d919061405d565b50606082015181600d0190816111a3919061405d565b50608082015181600e0190816111b9919061405d565b5060a082015181600f015560c0820151816010015560e082015181601101556101008201518160120160006101000a81548173ffffffffffffffffffffffffffffffffffffffff021916908373ffffffffffffffffffffffffffffffffffffffff1602179055506101208201518160120160146101000a81548160ff0219169083600281111561124c5761124b612f09565b5b0217905550905050600360008473ffffffffffffffffffffffffffffffffffffffff1673ffffffffffffffffffffffffffffffffffffffff168152602001908152602001600020819080600181540180825580915050600190039060005260206000200160009091909190915055809150509695505050505050565b60607f000000000000000000000000000000000000000000000000000000000000000073ffffffffffffffffffffffffffffffffffffffff163273ffffffffffffffffffffffffffffffffffffffff1614611358576040517f08c379a000000000000000000000000000000000000000000000000000000000815260040161134f906141a1565b60405180910390fd5b6000600454905060008167ffffffffffffffff81111561137b5761137a6134fc565b5b6040519080825280602002602001820160405280156113b457816020015b6113a1612c95565b8152602001906001900390816113995790505b50905060005b828110156118cd57600260008281526020019081526020016000206040518061014001604052908160008201548152602001600182016040518061016001604052908160008201805461140c90613c7a565b80601f016020809104026020016040519081016040528092919081815260200182805461143890613c7a565b80156114855780601f1061145a57610100808354040283529160200191611485565b820191906000526020600020905b81548152906001019060200180831161146857829003601f168201915b5050505050815260200160018201805461149e90613c7a565b80601f01602080910402602001604051908101604052809291908181526020018280546114ca90613c7a565b80156115175780601f106114ec57610100808354040283529160200191611517565b820191906000526020600020905b8154815290600101906020018083116114fa57829003601f168201915b5050505050815260200160028201805461153090613c7a565b80601f016020809104026020016040519081016040528092919081815260200182805461155c90613c7a565b80156115a95780601f1061157e576101008083540402835291602001916115a9565b820191906000526020600020905b81548152906001019060200180831161158c57829003601f168201915b5050505050815260200160038201548152602001600482015481526020016005820154815260200160068201548152602001600782015481526020016008820154815260200160098201548152602001600a820160009054906101000a900460ff16600181111561161d5761161c612f09565b5b600181111561162f5761162e612f09565b5b815250508152602001600c8201805461164790613c7a565b80601f016020809104026020016040519081016040528092919081815260200182805461167390613c7a565b80156116c05780601f10611695576101008083540402835291602001916116c0565b820191906000526020600020905b8154815290600101906020018083116116a357829003601f168201915b50505050508152602001600d820180546116d990613c7a565b80601f016020809104026020016040519081016040528092919081815260200182805461170590613c7a565b80156117525780601f1061172757610100808354040283529160200191611752565b820191906000526020600020905b81548152906001019060200180831161173557829003601f168201915b50505050508152602001600e8201805461176b90613c7a565b80601f016020809104026020016040519081016040528092919081815260200182805461179790613c7a565b80156117e45780601f106117b9576101008083540402835291602001916117e4565b820191906000526020600020905b8154815290600101906020018083116117c757829003601f168201915b50505050508152602001600f820154815260200160108201548152602001601182015481526020016012820160009054906101000a900473ffffffffffffffffffffffffffffffffffffffff1673ffffffffffffffffffffffffffffffffffffffff1673ffffffffffffffffffffffffffffffffffffffff1681526020016012820160149054906101000a900460ff16600281111561188657611885612f09565b5b600281111561189857611897612f09565b5b815250508282815181106118af576118ae613cab565b5b602002602001018190525080806118c590613d09565b9150506113ba565b50809250505090565b60045481565b600160009054906101000a900473ffffffffffffffffffffffffffffffffffffffff1681565b60606000805b60045481101561199f578360405160200161192391906141fd565b60405160208183030381529060405280519060200120600260008381526020019081526020016000206001016000016040516020016119629190614297565b604051602081830303815290604052805190602001200361198c57818061198890613d09565b9250505b808061199790613d09565b915050611908565b5060008167ffffffffffffffff8111156119bc576119bb6134fc565b5b6040519080825280602002602001820160405280156119f557816020015b6119e2612c95565b8152602001906001900390816119da5790505b5090506000805b600454811015611f8b5785604051602001611a1791906141fd565b6040516020818303038152906040528051906020012060026000838152602001908152602001600020600101600001604051602001611a569190614297565b6040516020818303038152906040528051906020012003611f78576002600082815260200190815260200160002060405180610140016040529081600082015481526020016001820160405180610160016040529081600082018054611abb90613c7a565b80601f0160208091040260200160405190810160405280929190818152602001828054611ae790613c7a565b8015611b345780601f10611b0957610100808354040283529160200191611b34565b820191906000526020600020905b815481529060010190602001808311611b1757829003601f168201915b50505050508152602001600182018054611b4d90613c7a565b80601f0160208091040260200160405190810160405280929190818152602001828054611b7990613c7a565b8015611bc65780601f10611b9b57610100808354040283529160200191611bc6565b820191906000526020600020905b815481529060010190602001808311611ba957829003601f168201915b50505050508152602001600282018054611bdf90613c7a565b80601f0160208091040260200160405190810160405280929190818152602001828054611c0b90613c7a565b8015611c585780601f10611c2d57610100808354040283529160200191611c58565b820191906000526020600020905b815481529060010190602001808311611c3b57829003601f168201915b5050505050815260200160038201548152602001600482015481526020016005820154815260200160068201548152602001600782015481526020016008820154815260200160098201548152602001600a820160009054906101000a900460ff166001811115611ccc57611ccb612f09565b5b6001811115611cde57611cdd612f09565b5b815250508152602001600c82018054611cf690613c7a565b80601f0160208091040260200160405190810160405280929190818152602001828054611d2290613c7a565b8015611d6f5780601f10611d4457610100808354040283529160200191611d6f565b820191906000526020600020905b815481529060010190602001808311611d5257829003601f168201915b50505050508152602001600d82018054611d8890613c7a565b80601f0160208091040260200160405190810160405280929190818152602001828054611db490613c7a565b8015611e015780601f10611dd657610100808354040283529160200191611e01565b820191906000526020600020905b815481529060010190602001808311611de457829003601f168201915b50505050508152602001600e82018054611e1a90613c7a565b80601f0160208091040260200160405190810160405280929190818152602001828054611e4690613c7a565b8015611e935780601f10611e6857610100808354040283529160200191611e93565b820191906000526020600020905b815481529060010190602001808311611e7657829003601f168201915b50505050508152602001600f820154815260200160108201548152602001601182015481526020016012820160009054906101000a900473ffffffffffffffffffffffffffffffffffffffff1673ffffffffffffffffffffffffffffffffffffffff1673ffffffffffffffffffffffffffffffffffffffff1681526020016012820160149054906101000a900460ff166002811115611f3557611f34612f09565b5b6002811115611f4757611f46612f09565b5b81525050838381518110611f5e57611f5d613cab565b5b60200260200101819052508180611f7490613d09565b9250505b8080611f8390613d09565b9150506119fc565b50819350505050919050565b7f000000000000000000000000000000000000000000000000000000000000000081565b611fc3612a1b565b6004548210612007576040517f08c379a0000000000000000000000000000000000000000000000000000000008152600401611ffe90613b99565b60405180910390fd5b60006002600084815260200190815260200160002090508060120160009054906101000a900473ffffffffffffffffffffffffffffffffffffffff1673ffffffffffffffffffffffffffffffffffffffff168273ffffffffffffffffffffffffffffffffffffffff16146120b0576040517f08c379a00000000000000000000000000000000000000000000000000000000081526004016120a7906142fa565b60405180910390fd5b600060028111156120c4576120c3612f09565b5b8160120160149054906101000a900460ff1660028111156120e8576120e7612f09565b5b14612128576040517f08c379a000000000000000000000000000000000000000000000000000000000815260040161211f90614366565b60405180910390fd5b600061213782600f0154612a6a565b90506000806000600160009054906101000a900473ffffffffffffffffffffffffffffffffffffffff1673ffffffffffffffffffffffffffffffffffffffff166326ec641e86600c01866040518363ffffffff1660e01b815260040161219e92919061440a565b6060604051808303816000875af11580156121bd573d6000803e3d6000fd5b505050506040513d601f19601f820116820180604052508101906121e1919061448e565b92509250925081612227576040517f08c379a000000000000000000000000000000000000000000000000000000000815260040161221e9061452d565b60405180910390fd5b600085600101600601548261223c919061454d565b9050856001016008015481111561225857856001016008015490505b6000811161229b576040517f08c379a0000000000000000000000000000000000000000000000000000000008152600401612292906145db565b60405180910390fd5b804710156122de576040517f08c379a00000000000000000000000000000000000000000000000000000000081526004016122d590614647565b60405180910390fd5b60028660120160146101000a81548160ff0219169083600281111561230657612305612f09565b5b02179055508086601101819055508560120160009054906101000a900473ffffffffffffffffffffffffffffffffffffffff1673ffffffffffffffffffffffffffffffffffffffff166108fc829081150290604051600060405180830381858888f1935050505015801561237e573d6000803e3d6000fd5b5050505050505061238d612b38565b5050565b600360205281600052604060002081815481106123ad57600080fd5b90600052602060002001600091509150505481565b600260205280600052604060002060009150905080600001549080600101604051806101600160405290816000820180546123fc90613c7a565b80601f016020809104026020016040519081016040528092919081815260200182805461242890613c7a565b80156124755780601f1061244a57610100808354040283529160200191612475565b820191906000526020600020905b81548152906001019060200180831161245857829003601f168201915b5050505050815260200160018201805461248e90613c7a565b80601f01602080910402602001604051908101604052809291908181526020018280546124ba90613c7a565b80156125075780601f106124dc57610100808354040283529160200191612507565b820191906000526020600020905b8154815290600101906020018083116124ea57829003601f168201915b5050505050815260200160028201805461252090613c7a565b80601f016020809104026020016040519081016040528092919081815260200182805461254c90613c7a565b80156125995780601f1061256e57610100808354040283529160200191612599565b820191906000526020600020905b81548152906001019060200180831161257c57829003601f168201915b5050505050815260200160038201548152602001600482015481526020016005820154815260200160068201548152602001600782015481526020016008820154815260200160098201548152602001600a820160009054906101000a900460ff16600181111561260d5761260c612f09565b5b600181111561261f5761261e612f09565b5b815250509080600c01805461263390613c7a565b80601f016020809104026020016040519081016040528092919081815260200182805461265f90613c7a565b80156126ac5780601f10612681576101008083540402835291602001916126ac565b820191906000526020600020905b81548152906001019060200180831161268f57829003601f168201915b50505050509080600d0180546126c190613c7a565b80601f01602080910402602001604051908101604052809291908181526020018280546126ed90613c7a565b801561273a5780601f1061270f5761010080835404028352916020019161273a565b820191906000526020600020905b81548152906001019060200180831161271d57829003601f168201915b50505050509080600e01805461274f90613c7a565b80601f016020809104026020016040519081016040528092919081815260200182805461277b90613c7a565b80156127c85780601f1061279d576101008083540402835291602001916127c8565b820191906000526020600020905b8154815290600101906020018083116127ab57829003601f168201915b50505050509080600f0154908060100154908060110154908060120160009054906101000a900473ffffffffffffffffffffffffffffffffffffffff16908060120160149054906101000a900460ff1690508a565b7f000000000000000000000000000000000000000000000000000000000000000073ffffffffffffffffffffffffffffffffffffffff163273ffffffffffffffffffffffffffffffffffffffff16146128ab576040517f08c379a00000000000000000000000000000000000000000000000000000000081526004016128a2906141a1565b60405180910390fd5b60045481106128ef576040517f08c379a00000000000000000000000000000000000000000000000000000000081526004016128e690613b99565b60405180910390fd5b60006002600083815260200190815260200160002090506000600281111561291a57612919612f09565b5b8160120160149054906101000a900460ff16600281111561293e5761293d612f09565b5b1461297e576040517f08c379a0000000000000000000000000000000000000000000000000000000008152600401612975906146b3565b60405180910390fd5b6000620151808260010160090154612996919061454d565b82601001546129a591906146d3565b90508042116129e9576040517f08c379a00000000000000000000000000000000000000000000000000000000081526004016129e090614753565b60405180910390fd5b60018260120160146101000a81548160ff02191690836002811115612a1157612a10612f09565b5b0217905550505050565b600260005403612a60576040517f08c379a0000000000000000000000000000000000000000000000000000000008152600401612a57906147bf565b60405180910390fd5b6002600081905550565b606060006001612a7984612b42565b01905060008167ffffffffffffffff811115612a9857612a976134fc565b5b6040519080825280601f01601f191660200182016040528015612aca5781602001600182028036833780820191505090505b509050600082602001820190505b600115612b2d578080600190039150507f3031323334353637383961626364656600000000000000000000000000000000600a86061a8153600a8581612b2157612b206147df565b5b04945060008503612ad8575b819350505050919050565b6001600081905550565b600080600090507a184f03e93ff9f4daa797ed6e38ed64bf6a1f0100000000000000008310612ba0577a184f03e93ff9f4daa797ed6e38ed64bf6a1f0100000000000000008381612b9657612b956147df565b5b0492506040810190505b6d04ee2d6d415b85acef81000000008310612bdd576d04ee2d6d415b85acef81000000008381612bd357612bd26147df565b5b0492506020810190505b662386f26fc100008310612c0c57662386f26fc100008381612c0257612c016147df565b5b0492506010810190505b6305f5e1008310612c35576305f5e1008381612c2b57612c2a6147df565b5b0492506008810190505b6127108310612c5a576127108381612c5057612c4f6147df565b5b0492506004810190505b60648310612c7d5760648381612c7357612c726147df565b5b0492506002810190505b600a8310612c8c576001810190505b80915050919050565b60405180610140016040528060008152602001612cb0612d16565b8152602001606081526020016060815260200160608152602001600081526020016000815260200160008152602001600073ffffffffffffffffffffffffffffffffffffffff16815260200160006002811115612d1057612d0f612f09565b5b81525090565b6040518061016001604052806060815260200160608152602001606081526020016000815260200160008152602001600081526020016000815260200160008152602001600081526020016000815260200160006001811115612d7c57612d7b612f09565b5b81525090565b6000604051905090565b600080fd5b600080fd5b600073ffffffffffffffffffffffffffffffffffffffff82169050919050565b6000612dc182612d96565b9050919050565b612dd181612db6565b8114612ddc57600080fd5b50565b600081359050612dee81612dc8565b92915050565b6000819050919050565b612e0781612df4565b8114612e1257600080fd5b50565b600081359050612e2481612dfe565b92915050565b60008060408385031215612e4157612e40612d8c565b5b6000612e4f85828601612ddf565b9250506020612e6085828601612e15565b9150509250929050565b612e7381612df4565b82525050565b600081519050919050565b600082825260208201905092915050565b60005b83811015612eb3578082015181840152602081019050612e98565b60008484015250505050565b6000601f19601f8301169050919050565b6000612edb82612e79565b612ee58185612e84565b9350612ef5818560208601612e95565b612efe81612ebf565b840191505092915050565b7f4e487b7100000000000000000000000000000000000000000000000000000000600052602160045260246000fd5b60028110612f4957612f48612f09565b5b50565b6000819050612f5a82612f38565b919050565b6000612f6a82612f4c565b9050919050565b612f7a81612f5f565b82525050565b6000610160830160008301518482036000860152612f9e8282612ed0565b91505060208301518482036020860152612fb88282612ed0565b91505060408301518482036040860152612fd28282612ed0565b9150506060830151612fe76060860182612e6a565b506080830151612ffa6080860182612e6a565b5060a083015161300d60a0860182612e6a565b5060c083015161302060c0860182612e6a565b5060e083015161303360e0860182612e6a565b50610100830151613048610100860182612e6a565b5061012083015161305d610120860182612e6a565b50610140830151613072610140860182612f71565b508091505092915050565b61308681612db6565b82525050565b6003811061309d5761309c612f09565b5b50565b60008190506130ae8261308c565b919050565b60006130be826130a0565b9050919050565b6130ce816130b3565b82525050565b6000610140830160008301516130ed6000860182612e6a565b50602083015184820360208601526131058282612f80565b9150506040830151848203604086015261311f8282612ed0565b915050606083015184820360608601526131398282612ed0565b915050608083015184820360808601526131538282612ed0565b91505060a083015161316860a0860182612e6a565b5060c083015161317b60c0860182612e6a565b5060e083015161318e60e0860182612e6a565b506101008301516131a361010086018261307d565b506101208301516131b86101208601826130c5565b508091505092915050565b60006101608301600083015184820360008601526131e18282612ed0565b915050602083015184820360208601526131fb8282612ed0565b915050604083015184820360408601526132158282612ed0565b915050606083015161322a6060860182612e6a565b50608083015161323d6080860182612e6a565b5060a083015161325060a0860182612e6a565b5060c083015161326360c0860182612e6a565b5060e083015161327660e0860182612e6a565b5061010083015161328b610100860182612e6a565b506101208301516132a0610120860182612e6a565b506101408301516132b5610140860182612f71565b508091505092915050565b600060408201905081810360008301526132da81856130d4565b905081810360208301526132ee81846131c3565b90509392505050565b60006020828403121561330d5761330c612d8c565b5b600061331b84828501612ddf565b91505092915050565b600081519050919050565b600082825260208201905092915050565b6000819050602082019050919050565b6000610140830160008301516133696000860182612e6a565b50602083015184820360208601526133818282612f80565b9150506040830151848203604086015261339b8282612ed0565b915050606083015184820360608601526133b58282612ed0565b915050608083015184820360808601526133cf8282612ed0565b91505060a08301516133e460a0860182612e6a565b5060c08301516133f760c0860182612e6a565b5060e083015161340a60e0860182612e6a565b5061010083015161341f61010086018261307d565b506101208301516134346101208601826130c5565b508091505092915050565b600061344b8383613350565b905092915050565b6000602082019050919050565b600061346b82613324565b613475818561332f565b93508360208202850161348785613340565b8060005b858110156134c357848403895281516134a4858261343f565b94506134af83613453565b925060208a0199505060018101905061348b565b50829750879550505050505092915050565b600060208201905081810360008301526134ef8184613460565b905092915050565b600080fd5b7f4e487b7100000000000000000000000000000000000000000000000000000000600052604160045260246000fd5b61353482612ebf565b810181811067ffffffffffffffff82111715613553576135526134fc565b5b80604052505050565b6000613566612d82565b9050613572828261352b565b919050565b600080fd5b600080fd5b600080fd5b600067ffffffffffffffff8211156135a1576135a06134fc565b5b6135aa82612ebf565b9050602081019050919050565b82818337600083830152505050565b60006135d96135d484613586565b61355c565b9050828152602081018484840111156135f5576135f4613581565b5b6136008482856135b7565b509392505050565b600082601f83011261361d5761361c61357c565b5b813561362d8482602086016135c6565b91505092915050565b6002811061364357600080fd5b50565b60008135905061365581613636565b92915050565b60006101608284031215613672576136716134f7565b5b61367d61016061355c565b9050600082013567ffffffffffffffff81111561369d5761369c613577565b5b6136a984828501613608565b600083015250602082013567ffffffffffffffff8111156136cd576136cc613577565b5b6136d984828501613608565b602083015250604082013567ffffffffffffffff8111156136fd576136fc613577565b5b61370984828501613608565b604083015250606061371d84828501612e15565b606083015250608061373184828501612e15565b60808301525060a061374584828501612e15565b60a08301525060c061375984828501612e15565b60c08301525060e061376d84828501612e15565b60e08301525061010061378284828501612e15565b6101008301525061012061379884828501612e15565b610120830152506101406137ae84828501613646565b6101408301525092915050565b60008060008060008060c087890312156137d8576137d7612d8c565b5b600087013567ffffffffffffffff8111156137f6576137f5612d91565b5b61380289828a0161365b565b965050602087013567ffffffffffffffff81111561382357613822612d91565b5b61382f89828a01613608565b955050604087013567ffffffffffffffff8111156138505761384f612d91565b5b61385c89828a01613608565b945050606087013567ffffffffffffffff81111561387d5761387c612d91565b5b61388989828a01613608565b935050608061389a89828a01612e15565b92505060a06138ab89828a01612ddf565b9150509295509295509295565b6138c181612df4565b82525050565b60006020820190506138dc60008301846138b8565b92915050565b6000819050919050565b60006139076139026138fd84612d96565b6138e2565b612d96565b9050919050565b6000613919826138ec565b9050919050565b600061392b8261390e565b9050919050565b61393b81613920565b82525050565b60006020820190506139566000830184613932565b92915050565b60006020828403121561397257613971612d8c565b5b600082013567ffffffffffffffff8111156139905761398f612d91565b5b61399c84828501613608565b91505092915050565b6139ae81612db6565b82525050565b60006020820190506139c960008301846139a5565b92915050565b600080604083850312156139e6576139e5612d8c565b5b60006139f485828601612e15565b9250506020613a0585828601612ddf565b9150509250929050565b600060208284031215613a2557613a24612d8c565b5b6000613a3384828501612e15565b91505092915050565b600082825260208201905092915050565b6000613a5882612e79565b613a628185613a3c565b9350613a72818560208601612e95565b613a7b81612ebf565b840191505092915050565b613a8f816130b3565b82525050565b600061014082019050613aab600083018d6138b8565b8181036020830152613abd818c6131c3565b90508181036040830152613ad1818b613a4d565b90508181036060830152613ae5818a613a4d565b90508181036080830152613af98189613a4d565b9050613b0860a08301886138b8565b613b1560c08301876138b8565b613b2260e08301866138b8565b613b306101008301856139a5565b613b3e610120830184613a86565b9b9a5050505050505050505050565b7f496e76616c696420706f6c696379496400000000000000000000000000000000600082015250565b6000613b83601083613a3c565b9150613b8e82613b4d565b602082019050919050565b60006020820190508181036000830152613bb281613b76565b9050919050565b7f506f6c69637920646f6573206e6f742062656c6f6e6720746f2074686973207560008201527f7365720000000000000000000000000000000000000000000000000000000000602082015250565b6000613c15602383613a3c565b9150613c2082613bb9565b604082019050919050565b60006020820190508181036000830152613c4481613c08565b9050919050565b7f4e487b7100000000000000000000000000000000000000000000000000000000600052602260045260246000fd5b60006002820490506001821680613c9257607f821691505b602082108103613ca557613ca4613c4b565b5b50919050565b7f4e487b7100000000000000000000000000000000000000000000000000000000600052603260045260246000fd5b7f4e487b7100000000000000000000000000000000000000000000000000000000600052601160045260246000fd5b6000613d1482612df4565b91507fffffffffffffffffffffffffffffffffffffffffffffffffffffffffffffffff8203613d4657613d45613cda565b5b600182019050919050565b7f506f6c6963792074656d706c617465206973206e6f7420616374697665000000600082015250565b6000613d87601d83613a3c565b9150613d9282613d51565b602082019050919050565b60006020820190508181036000830152613db681613d7a565b9050919050565b7f4465706172747572652074696d65206d75737420626520696e2074686520667560008201527f7475726500000000000000000000000000000000000000000000000000000000602082015250565b6000613e19602483613a3c565b9150613e2482613dbd565b604082019050919050565b60006020820190508181036000830152613e4881613e0c565b9050919050565b7f496e73756666696369656e74207072656d69756d2073656e7400000000000000600082015250565b6000613e85601983613a3c565b9150613e9082613e4f565b602082019050919050565b60006020820190508181036000830152613eb481613e78565b9050919050565b60008190508160005260206000209050919050565b60006020601f8301049050919050565b600082821b905092915050565b600060088302613f1d7fffffffffffffffffffffffffffffffffffffffffffffffffffffffffffffffff82613ee0565b613f278683613ee0565b95508019841693508086168417925050509392505050565b6000613f5a613f55613f5084612df4565b6138e2565b612df4565b9050919050565b6000819050919050565b613f7483613f3f565b613f88613f8082613f61565b848454613eed565b825550505050565b600090565b613f9d613f90565b613fa8818484613f6b565b505050565b5b81811015613fcc57613fc1600082613f95565b600181019050613fae565b5050565b601f82111561401157613fe281613ebb565b613feb84613ed0565b81016020851015613ffa578190505b61400e61400685613ed0565b830182613fad565b50505b505050565b600082821c905092915050565b600061403460001984600802614016565b1980831691505092915050565b600061404d8383614023565b9150826002028217905092915050565b61406682612e79565b67ffffffffffffffff81111561407f5761407e6134fc565b5b6140898254613c7a565b614094828285613fd0565b600060209050601f8311600181146140c757600084156140b5578287015190505b6140bf8582614041565b865550614127565b601f1984166140d586613ebb565b60005b828110156140fd578489015182556001820191506020850194506020810190506140d8565b8683101561411a5784890151614116601f891682614023565b8355505b6001600288020188555050505b505050505050565b7f466c69676874506f6c6963793a204f6e6c792074686520696e7375726572206360008201527f616e2063616c6c20746869732066756e6374696f6e0000000000000000000000602082015250565b600061418b603583613a3c565b91506141968261412f565b604082019050919050565b600060208201905081810360008301526141ba8161417e565b9050919050565b600081905092915050565b60006141d782612e79565b6141e181856141c1565b93506141f1818560208601612e95565b80840191505092915050565b600061420982846141cc565b915081905092915050565b6000815461422181613c7a565b61422b81866141c1565b94506001821660008114614246576001811461425b5761428e565b60ff198316865281151582028601935061428e565b61426485613ebb565b60005b8381101561428657815481890152600182019150602081019050614267565b838801955050505b50505092915050565b60006142a38284614214565b915081905092915050565b7f4e6f7420706f6c696379206f776e657200000000000000000000000000000000600082015250565b60006142e4601083613a3c565b91506142ef826142ae565b602082019050919050565b60006020820190508181036000830152614313816142d7565b9050919050565b7f506f6c696379206e6f7420616374697665000000000000000000000000000000600082015250565b6000614350601183613a3c565b915061435b8261431a565b602082019050919050565b6000602082019050818103600083015261437f81614343565b9050919050565b6000815461439381613c7a565b61439d8186613a3c565b945060018216600081146143b857600181146143ce57614401565b60ff198316865281151560200286019350614401565b6143d785613ebb565b60005b838110156143f9578154818901526001820191506020810190506143da565b808801955050505b50505092915050565b600060408201905081810360008301526144248185614386565b905081810360208301526144388184613a4d565b90509392505050565b60008115159050919050565b61445681614441565b811461446157600080fd5b50565b6000815190506144738161444d565b92915050565b60008151905061448881612dfe565b92915050565b6000806000606084860312156144a7576144a6612d8c565b5b60006144b586828701614464565b93505060206144c686828701614464565b92505060406144d786828701614479565b9150509250925092565b7f466c69676874206e6f742064656c617965640000000000000000000000000000600082015250565b6000614517601283613a3c565b9150614522826144e1565b602082019050919050565b600060208201905081810360008301526145468161450a565b9050919050565b600061455882612df4565b915061456383612df4565b925082820261457181612df4565b9150828204841483151761458857614587613cda565b5b5092915050565b7f4e6f207061796f75742064756500000000000000000000000000000000000000600082015250565b60006145c5600d83613a3c565b91506145d08261458f565b602082019050919050565b600060208201905081810360008301526145f4816145b8565b9050919050565b7f496e73756666696369656e7420636f6e74726163742062616c616e6365000000600082015250565b6000614631601d83613a3c565b915061463c826145fb565b602082019050919050565b6000602082019050818103600083015261466081614624565b9050919050565b7f506f6c696379206973206e6f7420616374697665000000000000000000000000600082015250565b600061469d601483613a3c565b91506146a882614667565b602082019050919050565b600060208201905081810360008301526146cc81614690565b9050919050565b60006146de82612df4565b91506146e983612df4565b925082820190508082111561470157614700613cda565b5b92915050565b7f506f6c69637920686173206e6f74206578706972656420796574000000000000600082015250565b600061473d601a83613a3c565b915061474882614707565b602082019050919050565b6000602082019050818103600083015261476c81614730565b9050919050565b7f5265656e7472616e637947756172643a207265656e7472616e742063616c6c00600082015250565b60006147a9601f83613a3c565b91506147b482614773565b602082019050919050565b600060208201905081810360008301526147d88161479c565b9050919050565b7f4e487b7100000000000000000000000000000000000000000000000000000000600052601260045260246000fdfea26469706673582212209651098fe0ae665d0df3bb49c47b535808f9706a2e0a7d06d7def07acf0c62c364736f6c63430008130033",
  "linkReferences": {},
  "deployedLinkReferences": {}
}