{
  "_format": "hh-sol-artifact-1",
  "contractName": "FlightPolicy",
  "sourceName": "contracts/FlightPolicy.sol",
  "abi": [
    {
      "inputs": [
        {
          "internalType": "address",
          "name": "_oracleConnector",
          "type": "address"
        }
      ],
      "stateMutability": "nonpayable",
      "type": "constructor"
    },
    {
      "anonymous": false,
      "inputs": [
        {
          "indexed": true,
          "internalType": "uint256",
          "name": "policyId",
          "type": "uint256"
        },
        {
          "indexed": true,
          "internalType": "address",
          "name": "buyer",
          "type": "address"
        },
        {
          "indexed": false,
          "internalType": "uint256",
          "name": "amount",
          "type": "uint256"
        }
      ],
      "name": "PayoutClaimed",
      "type": "event"
    },
    {
      "inputs": [
        {
          "internalType": "uint256",
          "name": "policyId",
          "type": "uint256"
        },
        {
          "internalType": "address",
          "name": "buyer",
          "type": "address"
        }
      ],
      "name": "claimPayout",
      "outputs": [],
      "stateMutability": "nonpayable",
      "type": "function"
    },
    {
      "inputs": [],
      "name": "getAllPolicies",
      "outputs": [
        {
          "components": [
            {
              "internalType": "uint256",
              "name": "policyId",
              "type": "uint256"
            },
            {
              "components": [
                {
                  "internalType": "string",
                  "name": "templateId",
                  "type": "string"
                },
                {
                  "internalType": "string",
                  "name": "name",
                  "type": "string"
                },
                {
                  "internalType": "string",
                  "name": "description",
                  "type": "string"
                },
                {
                  "internalType": "uint256",
                  "name": "createdAt",
                  "type": "uint256"
                },
                {
                  "internalType": "uint256",
                  "name": "updatedAt",
                  "type": "uint256"
                },
                {
                  "internalType": "uint256",
                  "name": "premium",
                  "type": "uint256"
                },
                {
                  "internalType": "uint256",
                  "name": "payoutPerHour",
                  "type": "uint256"
                },
                {
                  "internalType": "uint256",
                  "name": "delayThresholdHours",
                  "type": "uint256"
                },
                {
                  "internalType": "uint256",
                  "name": "maxTotalPayout",
                  "type": "uint256"
                },
                {
                  "internalType": "uint256",
                  "name": "coverageDurationDays",
                  "type": "uint256"
                },
                {
                  "internalType": "enum FlightPolicy.PolicyTemplateStatus",
                  "name": "status",
                  "type": "uint8"
                }
              ],
              "internalType": "struct FlightPolicy.PolicyTemplate",
              "name": "template",
              "type": "tuple"
            },
            {
              "internalType": "string",
              "name": "flightNumber",
              "type": "string"
            },
            {
              "internalType": "string",
              "name": "departureAirportCode",
              "type": "string"
            },
            {
              "internalType": "string",
              "name": "arrivalAirportCode",
              "type": "string"
            },
            {
              "internalType": "uint256",
              "name": "departureTime",
              "type": "uint256"
            },
            {
              "internalType": "uint256",
              "name": "createdAt",
              "type": "uint256"
            },
            {
              "internalType": "uint256",
              "name": "payoutToDate",
              "type": "uint256"
            },
            {
              "internalType": "address",
              "name": "buyer",
              "type": "address"
            },
            {
              "internalType": "enum FlightPolicy.PolicyStatus",
              "name": "status",
              "type": "uint8"
            }
          ],
          "internalType": "struct FlightPolicy.UserPolicy[]",
          "name": "",
          "type": "tuple[]"
        }
      ],
      "stateMutability": "view",
      "type": "function"
    },
    {
      "inputs": [
        {
          "internalType": "address",
          "name": "user",
          "type": "address"
        }
      ],
      "name": "getUserPolicies",
      "outputs": [
        {
          "components": [
            {
              "internalType": "uint256",
              "name": "policyId",
              "type": "uint256"
            },
            {
              "components": [
                {
                  "internalType": "string",
                  "name": "templateId",
                  "type": "string"
                },
                {
                  "internalType": "string",
                  "name": "name",
                  "type": "string"
                },
                {
                  "internalType": "string",
                  "name": "description",
                  "type": "string"
                },
                {
                  "internalType": "uint256",
                  "name": "createdAt",
                  "type": "uint256"
                },
                {
                  "internalType": "uint256",
                  "name": "updatedAt",
                  "type": "uint256"
                },
                {
                  "internalType": "uint256",
                  "name": "premium",
                  "type": "uint256"
                },
                {
                  "internalType": "uint256",
                  "name": "payoutPerHour",
                  "type": "uint256"
                },
                {
                  "internalType": "uint256",
                  "name": "delayThresholdHours",
                  "type": "uint256"
                },
                {
                  "internalType": "uint256",
                  "name": "maxTotalPayout",
                  "type": "uint256"
                },
                {
                  "internalType": "uint256",
                  "name": "coverageDurationDays",
                  "type": "uint256"
                },
                {
                  "internalType": "enum FlightPolicy.PolicyTemplateStatus",
                  "name": "status",
                  "type": "uint8"
                }
              ],
              "internalType": "struct FlightPolicy.PolicyTemplate",
              "name": "template",
              "type": "tuple"
            },
            {
              "internalType": "string",
              "name": "flightNumber",
              "type": "string"
            },
            {
              "internalType": "string",
              "name": "departureAirportCode",
              "type": "string"
            },
            {
              "internalType": "string",
              "name": "arrivalAirportCode",
              "type": "string"
            },
            {
              "internalType": "uint256",
              "name": "departureTime",
              "type": "uint256"
            },
            {
              "internalType": "uint256",
              "name": "createdAt",
              "type": "uint256"
            },
            {
              "internalType": "uint256",
              "name": "payoutToDate",
              "type": "uint256"
            },
            {
              "internalType": "address",
              "name": "buyer",
              "type": "address"
            },
            {
              "internalType": "enum FlightPolicy.PolicyStatus",
              "name": "status",
              "type": "uint8"
            }
          ],
          "internalType": "struct FlightPolicy.UserPolicy[]",
          "name": "",
          "type": "tuple[]"
        }
      ],
      "stateMutability": "view",
      "type": "function"
    },
    {
      "inputs": [
        {
          "internalType": "string",
          "name": "templateId",
          "type": "string"
        }
      ],
      "name": "getUserPoliciesByTemplate",
      "outputs": [
        {
          "components": [
            {
              "internalType": "uint256",
              "name": "policyId",
              "type": "uint256"
            },
            {
              "components": [
                {
                  "internalType": "string",
                  "name": "templateId",
                  "type": "string"
                },
                {
                  "internalType": "string",
                  "name": "name",
                  "type": "string"
                },
                {
                  "internalType": "string",
                  "name": "description",
                  "type": "string"
                },
                {
                  "internalType": "uint256",
                  "name": "createdAt",
                  "type": "uint256"
                },
                {
                  "internalType": "uint256",
                  "name": "updatedAt",
                  "type": "uint256"
                },
                {
                  "internalType": "uint256",
                  "name": "premium",
                  "type": "uint256"
                },
                {
                  "internalType": "uint256",
                  "name": "payoutPerHour",
                  "type": "uint256"
                },
                {
                  "internalType": "uint256",
                  "name": "delayThresholdHours",
                  "type": "uint256"
                },
                {
                  "internalType": "uint256",
                  "name": "maxTotalPayout",
                  "type": "uint256"
                },
                {
                  "internalType": "uint256",
                  "name": "coverageDurationDays",
                  "type": "uint256"
                },
                {
                  "internalType": "enum FlightPolicy.PolicyTemplateStatus",
                  "name": "status",
                  "type": "uint8"
                }
              ],
              "internalType": "struct FlightPolicy.PolicyTemplate",
              "name": "template",
              "type": "tuple"
            },
            {
              "internalType": "string",
              "name": "flightNumber",
              "type": "string"
            },
            {
              "internalType": "string",
              "name": "departureAirportCode",
              "type": "string"
            },
            {
              "internalType": "string",
              "name": "arrivalAirportCode",
              "type": "string"
            },
            {
              "internalType": "uint256",
              "name": "departureTime",
              "type": "uint256"
            },
            {
              "internalType": "uint256",
              "name": "createdAt",
              "type": "uint256"
            },
            {
              "internalType": "uint256",
              "name": "payoutToDate",
              "type": "uint256"
            },
            {
              "internalType": "address",
              "name": "buyer",
              "type": "address"
            },
            {
              "internalType": "enum FlightPolicy.PolicyStatus",
              "name": "status",
              "type": "uint8"
            }
          ],
          "internalType": "struct FlightPolicy.UserPolicy[]",
          "name": "",
          "type": "tuple[]"
        }
      ],
      "stateMutability": "view",
      "type": "function"
    },
    {
      "inputs": [],
      "name": "insurerAddress",
      "outputs": [
        {
          "internalType": "address",
          "name": "",
          "type": "address"
        }
      ],
      "stateMutability": "view",
      "type": "function"
    },
    {
      "inputs": [],
      "name": "nextUserPolicyId",
      "outputs": [
        {
          "internalType": "uint256",
          "name": "",
          "type": "uint256"
        }
      ],
      "stateMutability": "view",
      "type": "function"
    },
    {
      "inputs": [],
      "name": "oracleConnector",
      "outputs": [
        {
          "internalType": "contract OracleConnector",
          "name": "",
          "type": "address"
        }
      ],
      "stateMutability": "view",
      "type": "function"
    },
    {
      "inputs": [
        {
          "components": [
            {
              "internalType": "string",
              "name": "templateId",
              "type": "string"
            },
            {
              "internalType": "string",
              "name": "name",
              "type": "string"
            },
            {
              "internalType": "string",
              "name": "description",
              "type": "string"
            },
            {
              "internalType": "uint256",
              "name": "createdAt",
              "type": "uint256"
            },
            {
              "internalType": "uint256",
              "name": "updatedAt",
              "type": "uint256"
            },
            {
              "internalType": "uint256",
              "name": "premium",
              "type": "uint256"
            },
            {
              "internalType": "uint256",
              "name": "payoutPerHour",
              "type": "uint256"
            },
            {
              "internalType": "uint256",
              "name": "delayThresholdHours",
              "type": "uint256"
            },
            {
              "internalType": "uint256",
              "name": "maxTotalPayout",
              "type": "uint256"
            },
            {
              "internalType": "uint256",
              "name": "coverageDurationDays",
              "type": "uint256"
            },
            {
              "internalType": "enum FlightPolicy.PolicyTemplateStatus",
              "name": "status",
              "type": "uint8"
            }
          ],
          "internalType": "struct FlightPolicy.PolicyTemplate",
          "name": "template",
          "type": "tuple"
        },
        {
          "internalType": "string",
          "name": "flightNumber",
          "type": "string"
        },
        {
          "internalType": "string",
          "name": "departureAirportCode",
          "type": "string"
        },
        {
          "internalType": "string",
          "name": "arrivalAirportCode",
          "type": "string"
        },
        {
          "internalType": "uint256",
          "name": "departureTime",
          "type": "uint256"
        },
        {
          "internalType": "address",
          "name": "buyer",
          "type": "address"
        }
      ],
      "name": "purchasePolicy",
      "outputs": [
        {
          "internalType": "uint256",
          "name": "",
          "type": "uint256"
        }
      ],
      "stateMutability": "payable",
      "type": "function"
    },
    {
      "inputs": [
        {
          "internalType": "uint256",
          "name": "",
          "type": "uint256"
        }
      ],
      "name": "userPolicies",
      "outputs": [
        {
          "internalType": "uint256",
          "name": "policyId",
          "type": "uint256"
        },
        {
          "components": [
            {
              "internalType": "string",
              "name": "templateId",
              "type": "string"
            },
            {
              "internalType": "string",
              "name": "name",
              "type": "string"
            },
            {
              "internalType": "string",
              "name": "description",
              "type": "string"
            },
            {
              "internalType": "uint256",
              "name": "createdAt",
              "type": "uint256"
            },
            {
              "internalType": "uint256",
              "name": "updatedAt",
              "type": "uint256"
            },
            {
              "internalType": "uint256",
              "name": "premium",
              "type": "uint256"
            },
            {
              "internalType": "uint256",
              "name": "payoutPerHour",
              "type": "uint256"
            },
            {
              "internalType": "uint256",
              "name": "delayThresholdHours",
              "type": "uint256"
            },
            {
              "internalType": "uint256",
              "name": "maxTotalPayout",
              "type": "uint256"
            },
            {
              "internalType": "uint256",
              "name": "coverageDurationDays",
              "type": "uint256"
            },
            {
              "internalType": "enum FlightPolicy.PolicyTemplateStatus",
              "name": "status",
              "type": "uint8"
            }
          ],
          "internalType": "struct FlightPolicy.PolicyTemplate",
          "name": "template",
          "type": "tuple"
        },
        {
          "internalType": "string",
          "name": "flightNumber",
          "type": "string"
        },
        {
          "internalType": "string",
          "name": "departureAirportCode",
          "type": "string"
        },
        {
          "internalType": "string",
          "name": "arrivalAirportCode",
          "type": "string"
        },
        {
          "internalType": "uint256",
          "name": "departureTime",
          "type": "uint256"
        },
        {
          "internalType": "uint256",
          "name": "createdAt",
          "type": "uint256"
        },
        {
          "internalType": "uint256",
          "name": "payoutToDate",
          "type": "uint256"
        },
        {
          "internalType": "address",
          "name": "buyer",
          "type": "address"
        },
        {
          "internalType": "enum FlightPolicy.PolicyStatus",
          "name": "status",
          "type": "uint8"
        }
      ],
      "stateMutability": "view",
      "type": "function"
    },
    {
      "inputs": [
        {
          "internalType": "address",
          "name": "",
          "type": "address"
        },
        {
          "internalType": "uint256",
          "name": "",
          "type": "uint256"
        }
      ],
      "name": "userPolicyIds",
      "outputs": [
        {
          "internalType": "uint256",
          "name": "",
          "type": "uint256"
        }
      ],
      "stateMutability": "view",
      "type": "function"
    }
  ],
  "bytecode": "0x60a06040523480156200001157600080fd5b5060405162003f2838038062003f28833981810160405281019062000037919062000125565b60016000819055503373ffffffffffffffffffffffffffffffffffffffff1660808173ffffffffffffffffffffffffffffffffffffffff168152505080600160006101000a81548173ffffffffffffffffffffffffffffffffffffffff021916908373ffffffffffffffffffffffffffffffffffffffff1602179055505062000157565b600080fd5b600073ffffffffffffffffffffffffffffffffffffffff82169050919050565b6000620000ed82620000c0565b9050919050565b620000ff81620000e0565b81146200010b57600080fd5b50565b6000815190506200011f81620000f4565b92915050565b6000602082840312156200013e576200013d620000bb565b5b60006200014e848285016200010e565b91505092915050565b608051613db56200017360003960006118820152613db56000f3fe6080604052600436106100915760003560e01c80639c6cf7ef116100595780639c6cf7ef14610184578063a7c0900e146101c1578063b0110cc6146101ec578063b6e283e114610215578063cba85f061461025257610091565b806319ac46141461009657806331953ecc146100d3578063457e5521146101035780637b9564151461012e5780639a9122ac14610159575b600080fd5b3480156100a257600080fd5b506100bd60048036038101906100b891906126ad565b610298565b6040516100ca9190612aff565b60405180910390f35b6100ed60048036038101906100e89190612e11565b6108bd565b6040516100fa9190612f1d565b60405180910390f35b34801561010f57600080fd5b50610118610c2f565b6040516101259190612aff565b60405180910390f35b34801561013a57600080fd5b506101436111b7565b6040516101509190612f1d565b60405180910390f35b34801561016557600080fd5b5061016e6111bd565b60405161017b9190612f97565b60405180910390f35b34801561019057600080fd5b506101ab60048036038101906101a69190612fb2565b6111e3565b6040516101b89190612aff565b60405180910390f35b3480156101cd57600080fd5b506101d6611880565b6040516101e3919061300a565b60405180910390f35b3480156101f857600080fd5b50610213600480360381019061020e9190613025565b6118a4565b005b34801561022157600080fd5b5061023c60048036038101906102379190613065565b611d27565b6040516102499190612f1d565b60405180910390f35b34801561025e57600080fd5b50610279600480360381019061027491906130a5565b611d58565b60405161028f9a99989796959493929190613228565b60405180910390f35b60606000600360008473ffffffffffffffffffffffffffffffffffffffff1673ffffffffffffffffffffffffffffffffffffffff16815260200190815260200160002080549050905060008167ffffffffffffffff8111156102fd576102fc612b26565b5b60405190808252806020026020018201604052801561033657816020015b61032361254e565b81526020019060019003908161031b5790505b50905060005b828110156108aa5760026000600360008873ffffffffffffffffffffffffffffffffffffffff1673ffffffffffffffffffffffffffffffffffffffff1681526020019081526020016000208381548110610399576103986132e0565b5b90600052602060002001548152602001908152602001600020604051806101400160405290816000820154815260200160018201604051806101600160405290816000820180546103e99061333e565b80601f01602080910402602001604051908101604052809291908181526020018280546104159061333e565b80156104625780601f1061043757610100808354040283529160200191610462565b820191906000526020600020905b81548152906001019060200180831161044557829003601f168201915b5050505050815260200160018201805461047b9061333e565b80601f01602080910402602001604051908101604052809291908181526020018280546104a79061333e565b80156104f45780601f106104c9576101008083540402835291602001916104f4565b820191906000526020600020905b8154815290600101906020018083116104d757829003601f168201915b5050505050815260200160028201805461050d9061333e565b80601f01602080910402602001604051908101604052809291908181526020018280546105399061333e565b80156105865780601f1061055b57610100808354040283529160200191610586565b820191906000526020600020905b81548152906001019060200180831161056957829003601f168201915b5050505050815260200160038201548152602001600482015481526020016005820154815260200160068201548152602001600782015481526020016008820154815260200160098201548152602001600a820160009054906101000a900460ff1660018111156105fa576105f96127af565b5b600181111561060c5761060b6127af565b5b815250508152602001600c820180546106249061333e565b80601f01602080910402602001604051908101604052809291908181526020018280546106509061333e565b801561069d5780601f106106725761010080835404028352916020019161069d565b820191906000526020600020905b81548152906001019060200180831161068057829003601f168201915b50505050508152602001600d820180546106b69061333e565b80601f01602080910402602001604051908101604052809291908181526020018280546106e29061333e565b801561072f5780601f106107045761010080835404028352916020019161072f565b820191906000526020600020905b81548152906001019060200180831161071257829003601f168201915b50505050508152602001600e820180546107489061333e565b80601f01602080910402602001604051908101604052809291908181526020018280546107749061333e565b80156107c15780601f10610796576101008083540402835291602001916107c1565b820191906000526020600020905b8154815290600101906020018083116107a457829003601f168201915b50505050508152602001600f820154815260200160108201548152602001601182015481526020016012820160009054906101000a900473ffffffffffffffffffffffffffffffffffffffff1673ffffffffffffffffffffffffffffffffffffffff1673ffffffffffffffffffffffffffffffffffffffff1681526020016012820160149054906101000a900460ff166002811115610863576108626127af565b5b6002811115610875576108746127af565b5b8152505082828151811061088c5761088b6132e0565b5b602002602001018190525080806108a29061339e565b91505061033c565b506108b4816121b3565b92505050919050565b60008060018111156108d2576108d16127af565b5b87610140015160018111156108ea576108e96127af565b5b1461092a576040517f08c379a000000000000000000000000000000000000000000000000000000000815260040161092190613432565b60405180910390fd5b8660a00151341015610971576040517f08c379a00000000000000000000000000000000000000000000000000000000081526004016109689061349e565b60405180910390fd5b6000600460008154809291906109869061339e565b919050559050604051806101400160405280828152602001898152602001888152602001878152602001868152602001858152602001428152602001600081526020018473ffffffffffffffffffffffffffffffffffffffff168152602001600060028111156109f9576109f86127af565b5b81525060026000838152602001908152602001600020600082015181600001556020820151816001016000820151816000019081610a379190613660565b506020820151816001019081610a4d9190613660565b506040820151816002019081610a639190613660565b50606082015181600301556080820151816004015560a0820151816005015560c0820151816006015560e082015181600701556101008201518160080155610120820151816009015561014082015181600a0160006101000a81548160ff02191690836001811115610ad857610ad76127af565b5b02179055505050604082015181600c019081610af49190613660565b50606082015181600d019081610b0a9190613660565b50608082015181600e019081610b209190613660565b5060a082015181600f015560c0820151816010015560e082015181601101556101008201518160120160006101000a81548173ffffffffffffffffffffffffffffffffffffffff021916908373ffffffffffffffffffffffffffffffffffffffff1602179055506101208201518160120160146101000a81548160ff02191690836002811115610bb357610bb26127af565b5b0217905550905050600360008473ffffffffffffffffffffffffffffffffffffffff1673ffffffffffffffffffffffffffffffffffffffff168152602001908152602001600020819080600181540180825580915050600190039060005260206000200160009091909190915055809150509695505050505050565b60606000600454905060008167ffffffffffffffff811115610c5457610c53612b26565b5b604051908082528060200260200182016040528015610c8d57816020015b610c7a61254e565b815260200190600190039081610c725790505b50905060005b828110156111a6576002600082815260200190815260200160002060405180610140016040529081600082015481526020016001820160405180610160016040529081600082018054610ce59061333e565b80601f0160208091040260200160405190810160405280929190818152602001828054610d119061333e565b8015610d5e5780601f10610d3357610100808354040283529160200191610d5e565b820191906000526020600020905b815481529060010190602001808311610d4157829003601f168201915b50505050508152602001600182018054610d779061333e565b80601f0160208091040260200160405190810160405280929190818152602001828054610da39061333e565b8015610df05780601f10610dc557610100808354040283529160200191610df0565b820191906000526020600020905b815481529060010190602001808311610dd357829003601f168201915b50505050508152602001600282018054610e099061333e565b80601f0160208091040260200160405190810160405280929190818152602001828054610e359061333e565b8015610e825780601f10610e5757610100808354040283529160200191610e82565b820191906000526020600020905b815481529060010190602001808311610e6557829003601f168201915b5050505050815260200160038201548152602001600482015481526020016005820154815260200160068201548152602001600782015481526020016008820154815260200160098201548152602001600a820160009054906101000a900460ff166001811115610ef657610ef56127af565b5b6001811115610f0857610f076127af565b5b815250508152602001600c82018054610f209061333e565b80601f0160208091040260200160405190810160405280929190818152602001828054610f4c9061333e565b8015610f995780601f10610f6e57610100808354040283529160200191610f99565b820191906000526020600020905b815481529060010190602001808311610f7c57829003601f168201915b50505050508152602001600d82018054610fb29061333e565b80601f0160208091040260200160405190810160405280929190818152602001828054610fde9061333e565b801561102b5780601f106110005761010080835404028352916020019161102b565b820191906000526020600020905b81548152906001019060200180831161100e57829003601f168201915b50505050508152602001600e820180546110449061333e565b80601f01602080910402602001604051908101604052809291908181526020018280546110709061333e565b80156110bd5780601f10611092576101008083540402835291602001916110bd565b820191906000526020600020905b8154815290600101906020018083116110a057829003601f168201915b50505050508152602001600f820154815260200160108201548152602001601182015481526020016012820160009054906101000a900473ffffffffffffffffffffffffffffffffffffffff1673ffffffffffffffffffffffffffffffffffffffff1673ffffffffffffffffffffffffffffffffffffffff1681526020016012820160149054906101000a900460ff16600281111561115f5761115e6127af565b5b6002811115611171576111706127af565b5b81525050828281518110611188576111876132e0565b5b6020026020010181905250808061119e9061339e565b915050610c93565b506111b0816121b3565b9250505090565b60045481565b600160009054906101000a900473ffffffffffffffffffffffffffffffffffffffff1681565b60606000805b6004548110156112805783604051602001611204919061376e565b60405160208183030381529060405280519060200120600260008381526020019081526020016000206001016000016040516020016112439190613808565b604051602081830303815290604052805190602001200361126d5781806112699061339e565b9250505b80806112789061339e565b9150506111e9565b5060008167ffffffffffffffff81111561129d5761129c612b26565b5b6040519080825280602002602001820160405280156112d657816020015b6112c361254e565b8152602001906001900390816112bb5790505b5090506000805b60045481101561186c57856040516020016112f8919061376e565b60405160208183030381529060405280519060200120600260008381526020019081526020016000206001016000016040516020016113379190613808565b604051602081830303815290604052805190602001200361185957600260008281526020019081526020016000206040518061014001604052908160008201548152602001600182016040518061016001604052908160008201805461139c9061333e565b80601f01602080910402602001604051908101604052809291908181526020018280546113c89061333e565b80156114155780601f106113ea57610100808354040283529160200191611415565b820191906000526020600020905b8154815290600101906020018083116113f857829003601f168201915b5050505050815260200160018201805461142e9061333e565b80601f016020809104026020016040519081016040528092919081815260200182805461145a9061333e565b80156114a75780601f1061147c576101008083540402835291602001916114a7565b820191906000526020600020905b81548152906001019060200180831161148a57829003601f168201915b505050505081526020016002820180546114c09061333e565b80601f01602080910402602001604051908101604052809291908181526020018280546114ec9061333e565b80156115395780601f1061150e57610100808354040283529160200191611539565b820191906000526020600020905b81548152906001019060200180831161151c57829003601f168201915b5050505050815260200160038201548152602001600482015481526020016005820154815260200160068201548152602001600782015481526020016008820154815260200160098201548152602001600a820160009054906101000a900460ff1660018111156115ad576115ac6127af565b5b60018111156115bf576115be6127af565b5b815250508152602001600c820180546115d79061333e565b80601f01602080910402602001604051908101604052809291908181526020018280546116039061333e565b80156116505780601f1061162557610100808354040283529160200191611650565b820191906000526020600020905b81548152906001019060200180831161163357829003601f168201915b50505050508152602001600d820180546116699061333e565b80601f01602080910402602001604051908101604052809291908181526020018280546116959061333e565b80156116e25780601f106116b7576101008083540402835291602001916116e2565b820191906000526020600020905b8154815290600101906020018083116116c557829003601f168201915b50505050508152602001600e820180546116fb9061333e565b80601f01602080910402602001604051908101604052809291908181526020018280546117279061333e565b80156117745780601f1061174957610100808354040283529160200191611774565b820191906000526020600020905b81548152906001019060200180831161175757829003601f168201915b50505050508152602001600f820154815260200160108201548152602001601182015481526020016012820160009054906101000a900473ffffffffffffffffffffffffffffffffffffffff1673ffffffffffffffffffffffffffffffffffffffff1673ffffffffffffffffffffffffffffffffffffffff1681526020016012820160149054906101000a900460ff166002811115611816576118156127af565b5b6002811115611828576118276127af565b5b8152505083838151811061183f5761183e6132e0565b5b602002602001018190525081806118559061339e565b9250505b80806118649061339e565b9150506112dd565b50611876826121b3565b9350505050919050565b7f000000000000000000000000000000000000000000000000000000000000000081565b6118ac6122d4565b60045482106118f0576040517f08c379a00000000000000000000000000000000000000000000000000000000081526004016118e79061386b565b60405180910390fd5b60006002600084815260200190815260200160002090508060120160009054906101000a900473ffffffffffffffffffffffffffffffffffffffff1673ffffffffffffffffffffffffffffffffffffffff168273ffffffffffffffffffffffffffffffffffffffff1614611999576040517f08c379a0000000000000000000000000000000000000000000000000000000008152600401611990906138d7565b60405180910390fd5b600060028111156119ad576119ac6127af565b5b8160120160149054906101000a900460ff1660028111156119d1576119d06127af565b5b14611a11576040517f08c379a0000000000000000000000000000000000000000000000000000000008152600401611a0890613943565b60405180910390fd5b6000806000600160009054906101000a900473ffffffffffffffffffffffffffffffffffffffff1673ffffffffffffffffffffffffffffffffffffffff166326ec641e85600c01611a6587600f0154612323565b6040518363ffffffff1660e01b8152600401611a829291906139e7565b6060604051808303816000875af1158015611aa1573d6000803e3d6000fd5b505050506040513d601f19601f82011682018060405250810190611ac59190613a6b565b92509250925082611b0b576040517f08c379a0000000000000000000000000000000000000000000000000000000008152600401611b0290613b0a565b60405180910390fd5b81611b4b576040517f08c379a0000000000000000000000000000000000000000000000000000000008152600401611b4290613b76565b60405180910390fd5b6000846001016006015482611b609190613b96565b90508460010160080154811115611b7c57846001016008015490505b60008111611bbf576040517f08c379a0000000000000000000000000000000000000000000000000000000008152600401611bb690613c24565b60405180910390fd5b80471015611c02576040517f08c379a0000000000000000000000000000000000000000000000000000000008152600401611bf990613c90565b60405180910390fd5b60028560120160146101000a81548160ff02191690836002811115611c2a57611c296127af565b5b02179055508085601101819055508460120160009054906101000a900473ffffffffffffffffffffffffffffffffffffffff1673ffffffffffffffffffffffffffffffffffffffff166108fc829081150290604051600060405180830381858888f19350505050158015611ca2573d6000803e3d6000fd5b508460120160009054906101000a900473ffffffffffffffffffffffffffffffffffffffff1673ffffffffffffffffffffffffffffffffffffffff16877fe97cee5a4c0549d3fdc81e322b718ddf0aeb3418ec87dce4f9a7fb28d117c31283604051611d0e9190612f1d565b60405180910390a35050505050611d236123f1565b5050565b60036020528160005260406000208181548110611d4357600080fd5b90600052602060002001600091509150505481565b60026020528060005260406000206000915090508060000154908060010160405180610160016040529081600082018054611d929061333e565b80601f0160208091040260200160405190810160405280929190818152602001828054611dbe9061333e565b8015611e0b5780601f10611de057610100808354040283529160200191611e0b565b820191906000526020600020905b815481529060010190602001808311611dee57829003601f168201915b50505050508152602001600182018054611e249061333e565b80601f0160208091040260200160405190810160405280929190818152602001828054611e509061333e565b8015611e9d5780601f10611e7257610100808354040283529160200191611e9d565b820191906000526020600020905b815481529060010190602001808311611e8057829003601f168201915b50505050508152602001600282018054611eb69061333e565b80601f0160208091040260200160405190810160405280929190818152602001828054611ee29061333e565b8015611f2f5780601f10611f0457610100808354040283529160200191611f2f565b820191906000526020600020905b815481529060010190602001808311611f1257829003601f168201915b5050505050815260200160038201548152602001600482015481526020016005820154815260200160068201548152602001600782015481526020016008820154815260200160098201548152602001600a820160009054906101000a900460ff166001811115611fa357611fa26127af565b5b6001811115611fb557611fb46127af565b5b815250509080600c018054611fc99061333e565b80601f0160208091040260200160405190810160405280929190818152602001828054611ff59061333e565b80156120425780601f1061201757610100808354040283529160200191612042565b820191906000526020600020905b81548152906001019060200180831161202557829003601f168201915b50505050509080600d0180546120579061333e565b80601f01602080910402602001604051908101604052809291908181526020018280546120839061333e565b80156120d05780601f106120a5576101008083540402835291602001916120d0565b820191906000526020600020905b8154815290600101906020018083116120b357829003601f168201915b50505050509080600e0180546120e59061333e565b80601f01602080910402602001604051908101604052809291908181526020018280546121119061333e565b801561215e5780601f106121335761010080835404028352916020019161215e565b820191906000526020600020905b81548152906001019060200180831161214157829003601f168201915b50505050509080600f0154908060100154908060110154908060120160009054906101000a900473ffffffffffffffffffffffffffffffffffffffff16908060120160149054906101000a900460ff1690508a565b606060005b82518110156122cb57600060028111156121d5576121d46127af565b5b8382815181106121e8576121e76132e0565b5b602002602001015161012001516002811115612207576122066127af565b5b036122b85760006201518060026000848152602001908152602001600020600101600901546122369190613b96565b848381518110612249576122486132e0565b5b602002602001015160c0015161225f9190613cb0565b9050804211156122b657600184838151811061227e5761227d6132e0565b5b60200260200101516101200190600281111561229d5761229c6127af565b5b908160028111156122b1576122b06127af565b5b815250505b505b80806122c39061339e565b9150506121b8565b50819050919050565b600260005403612319576040517f08c379a000000000000000000000000000000000000000000000000000000000815260040161231090613d30565b60405180910390fd5b6002600081905550565b606060006001612332846123fb565b01905060008167ffffffffffffffff81111561235157612350612b26565b5b6040519080825280601f01601f1916602001820160405280156123835781602001600182028036833780820191505090505b509050600082602001820190505b6001156123e6578080600190039150507f3031323334353637383961626364656600000000000000000000000000000000600a86061a8153600a85816123da576123d9613d50565b5b04945060008503612391575b819350505050919050565b6001600081905550565b600080600090507a184f03e93ff9f4daa797ed6e38ed64bf6a1f0100000000000000008310612459577a184f03e93ff9f4daa797ed6e38ed64bf6a1f010000000000000000838161244f5761244e613d50565b5b0492506040810190505b6d04ee2d6d415b85acef81000000008310612496576d04ee2d6d415b85acef8100000000838161248c5761248b613d50565b5b0492506020810190505b662386f26fc1000083106124c557662386f26fc1000083816124bb576124ba613d50565b5b0492506010810190505b6305f5e10083106124ee576305f5e10083816124e4576124e3613d50565b5b0492506008810190505b612710831061251357612710838161250957612508613d50565b5b0492506004810190505b60648310612536576064838161252c5761252b613d50565b5b0492506002810190505b600a8310612545576001810190505b80915050919050565b604051806101400160405280600081526020016125696125cf565b8152602001606081526020016060815260200160608152602001600081526020016000815260200160008152602001600073ffffffffffffffffffffffffffffffffffffffff168152602001600060028111156125c9576125c86127af565b5b81525090565b6040518061016001604052806060815260200160608152602001606081526020016000815260200160008152602001600081526020016000815260200160008152602001600081526020016000815260200160006001811115612635576126346127af565b5b81525090565b6000604051905090565b600080fd5b600080fd5b600073ffffffffffffffffffffffffffffffffffffffff82169050919050565b600061267a8261264f565b9050919050565b61268a8161266f565b811461269557600080fd5b50565b6000813590506126a781612681565b92915050565b6000602082840312156126c3576126c2612645565b5b60006126d184828501612698565b91505092915050565b600081519050919050565b600082825260208201905092915050565b6000819050602082019050919050565b6000819050919050565b61271981612706565b82525050565b600081519050919050565b600082825260208201905092915050565b60005b8381101561275957808201518184015260208101905061273e565b60008484015250505050565b6000601f19601f8301169050919050565b60006127818261271f565b61278b818561272a565b935061279b81856020860161273b565b6127a481612765565b840191505092915050565b7f4e487b7100000000000000000000000000000000000000000000000000000000600052602160045260246000fd5b600281106127ef576127ee6127af565b5b50565b6000819050612800826127de565b919050565b6000612810826127f2565b9050919050565b61282081612805565b82525050565b60006101608301600083015184820360008601526128448282612776565b9150506020830151848203602086015261285e8282612776565b915050604083015184820360408601526128788282612776565b915050606083015161288d6060860182612710565b5060808301516128a06080860182612710565b5060a08301516128b360a0860182612710565b5060c08301516128c660c0860182612710565b5060e08301516128d960e0860182612710565b506101008301516128ee610100860182612710565b50610120830151612903610120860182612710565b50610140830151612918610140860182612817565b508091505092915050565b61292c8161266f565b82525050565b60038110612943576129426127af565b5b50565b600081905061295482612932565b919050565b600061296482612946565b9050919050565b61297481612959565b82525050565b6000610140830160008301516129936000860182612710565b50602083015184820360208601526129ab8282612826565b915050604083015184820360408601526129c58282612776565b915050606083015184820360608601526129df8282612776565b915050608083015184820360808601526129f98282612776565b91505060a0830151612a0e60a0860182612710565b5060c0830151612a2160c0860182612710565b5060e0830151612a3460e0860182612710565b50610100830151612a49610100860182612923565b50610120830151612a5e61012086018261296b565b508091505092915050565b6000612a75838361297a565b905092915050565b6000602082019050919050565b6000612a95826126da565b612a9f81856126e5565b935083602082028501612ab1856126f6565b8060005b85811015612aed5784840389528151612ace8582612a69565b9450612ad983612a7d565b925060208a01995050600181019050612ab5565b50829750879550505050505092915050565b60006020820190508181036000830152612b198184612a8a565b905092915050565b600080fd5b7f4e487b7100000000000000000000000000000000000000000000000000000000600052604160045260246000fd5b612b5e82612765565b810181811067ffffffffffffffff82111715612b7d57612b7c612b26565b5b80604052505050565b6000612b9061263b565b9050612b9c8282612b55565b919050565b600080fd5b600080fd5b600080fd5b600067ffffffffffffffff821115612bcb57612bca612b26565b5b612bd482612765565b9050602081019050919050565b82818337600083830152505050565b6000612c03612bfe84612bb0565b612b86565b905082815260208101848484011115612c1f57612c1e612bab565b5b612c2a848285612be1565b509392505050565b600082601f830112612c4757612c46612ba6565b5b8135612c57848260208601612bf0565b91505092915050565b612c6981612706565b8114612c7457600080fd5b50565b600081359050612c8681612c60565b92915050565b60028110612c9957600080fd5b50565b600081359050612cab81612c8c565b92915050565b60006101608284031215612cc857612cc7612b21565b5b612cd3610160612b86565b9050600082013567ffffffffffffffff811115612cf357612cf2612ba1565b5b612cff84828501612c32565b600083015250602082013567ffffffffffffffff811115612d2357612d22612ba1565b5b612d2f84828501612c32565b602083015250604082013567ffffffffffffffff811115612d5357612d52612ba1565b5b612d5f84828501612c32565b6040830152506060612d7384828501612c77565b6060830152506080612d8784828501612c77565b60808301525060a0612d9b84828501612c77565b60a08301525060c0612daf84828501612c77565b60c08301525060e0612dc384828501612c77565b60e083015250610100612dd884828501612c77565b61010083015250610120612dee84828501612c77565b61012083015250610140612e0484828501612c9c565b6101408301525092915050565b60008060008060008060c08789031215612e2e57612e2d612645565b5b600087013567ffffffffffffffff811115612e4c57612e4b61264a565b5b612e5889828a01612cb1565b965050602087013567ffffffffffffffff811115612e7957612e7861264a565b5b612e8589828a01612c32565b955050604087013567ffffffffffffffff811115612ea657612ea561264a565b5b612eb289828a01612c32565b945050606087013567ffffffffffffffff811115612ed357612ed261264a565b5b612edf89828a01612c32565b9350506080612ef089828a01612c77565b92505060a0612f0189828a01612698565b9150509295509295509295565b612f1781612706565b82525050565b6000602082019050612f326000830184612f0e565b92915050565b6000819050919050565b6000612f5d612f58612f538461264f565b612f38565b61264f565b9050919050565b6000612f6f82612f42565b9050919050565b6000612f8182612f64565b9050919050565b612f9181612f76565b82525050565b6000602082019050612fac6000830184612f88565b92915050565b600060208284031215612fc857612fc7612645565b5b600082013567ffffffffffffffff811115612fe657612fe561264a565b5b612ff284828501612c32565b91505092915050565b6130048161266f565b82525050565b600060208201905061301f6000830184612ffb565b92915050565b6000806040838503121561303c5761303b612645565b5b600061304a85828601612c77565b925050602061305b85828601612698565b9150509250929050565b6000806040838503121561307c5761307b612645565b5b600061308a85828601612698565b925050602061309b85828601612c77565b9150509250929050565b6000602082840312156130bb576130ba612645565b5b60006130c984828501612c77565b91505092915050565b60006101608301600083015184820360008601526130f08282612776565b9150506020830151848203602086015261310a8282612776565b915050604083015184820360408601526131248282612776565b91505060608301516131396060860182612710565b50608083015161314c6080860182612710565b5060a083015161315f60a0860182612710565b5060c083015161317260c0860182612710565b5060e083015161318560e0860182612710565b5061010083015161319a610100860182612710565b506101208301516131af610120860182612710565b506101408301516131c4610140860182612817565b508091505092915050565b600082825260208201905092915050565b60006131eb8261271f565b6131f581856131cf565b935061320581856020860161273b565b61320e81612765565b840191505092915050565b61322281612959565b82525050565b60006101408201905061323e600083018d612f0e565b8181036020830152613250818c6130d2565b90508181036040830152613264818b6131e0565b90508181036060830152613278818a6131e0565b9050818103608083015261328c81896131e0565b905061329b60a0830188612f0e565b6132a860c0830187612f0e565b6132b560e0830186612f0e565b6132c3610100830185612ffb565b6132d1610120830184613219565b9b9a5050505050505050505050565b7f4e487b7100000000000000000000000000000000000000000000000000000000600052603260045260246000fd5b7f4e487b7100000000000000000000000000000000000000000000000000000000600052602260045260246000fd5b6000600282049050600182168061335657607f821691505b6020821081036133695761336861330f565b5b50919050565b7f4e487b7100000000000000000000000000000000000000000000000000000000600052601160045260246000fd5b60006133a982612706565b91507fffffffffffffffffffffffffffffffffffffffffffffffffffffffffffffffff82036133db576133da61336f565b5b600182019050919050565b7f506f6c6963792074656d706c617465206973206e6f7420616374697665000000600082015250565b600061341c601d836131cf565b9150613427826133e6565b602082019050919050565b6000602082019050818103600083015261344b8161340f565b9050919050565b7f496e73756666696369656e74207072656d69756d2073656e7400000000000000600082015250565b60006134886019836131cf565b915061349382613452565b602082019050919050565b600060208201905081810360008301526134b78161347b565b9050919050565b60008190508160005260206000209050919050565b60006020601f8301049050919050565b600082821b905092915050565b6000600883026135207fffffffffffffffffffffffffffffffffffffffffffffffffffffffffffffffff826134e3565b61352a86836134e3565b95508019841693508086168417925050509392505050565b600061355d61355861355384612706565b612f38565b612706565b9050919050565b6000819050919050565b61357783613542565b61358b61358382613564565b8484546134f0565b825550505050565b600090565b6135a0613593565b6135ab81848461356e565b505050565b5b818110156135cf576135c4600082613598565b6001810190506135b1565b5050565b601f821115613614576135e5816134be565b6135ee846134d3565b810160208510156135fd578190505b613611613609856134d3565b8301826135b0565b50505b505050565b600082821c905092915050565b600061363760001984600802613619565b1980831691505092915050565b60006136508383613626565b9150826002028217905092915050565b6136698261271f565b67ffffffffffffffff81111561368257613681612b26565b5b61368c825461333e565b6136978282856135d3565b600060209050601f8311600181146136ca57600084156136b8578287015190505b6136c28582613644565b86555061372a565b601f1984166136d8866134be565b60005b82811015613700578489015182556001820191506020850194506020810190506136db565b8683101561371d5784890151613719601f891682613626565b8355505b6001600288020188555050505b505050505050565b600081905092915050565b60006137488261271f565b6137528185613732565b935061376281856020860161273b565b80840191505092915050565b600061377a828461373d565b915081905092915050565b600081546137928161333e565b61379c8186613732565b945060018216600081146137b757600181146137cc576137ff565b60ff19831686528115158202860193506137ff565b6137d5856134be565b60005b838110156137f7578154818901526001820191506020810190506137d8565b838801955050505b50505092915050565b60006138148284613785565b915081905092915050565b7f496e76616c696420706f6c696379496400000000000000000000000000000000600082015250565b60006138556010836131cf565b91506138608261381f565b602082019050919050565b6000602082019050818103600083015261388481613848565b9050919050565b7f4e6f7420706f6c696379206f776e657200000000000000000000000000000000600082015250565b60006138c16010836131cf565b91506138cc8261388b565b602082019050919050565b600060208201905081810360008301526138f0816138b4565b9050919050565b7f506f6c696379206e6f7420616374697665000000000000000000000000000000600082015250565b600061392d6011836131cf565b9150613938826138f7565b602082019050919050565b6000602082019050818103600083015261395c81613920565b9050919050565b600081546139708161333e565b61397a81866131cf565b9450600182166000811461399557600181146139ab576139de565b60ff1983168652811515602002860193506139de565b6139b4856134be565b60005b838110156139d6578154818901526001820191506020810190506139b7565b808801955050505b50505092915050565b60006040820190508181036000830152613a018185613963565b90508181036020830152613a1581846131e0565b90509392505050565b60008115159050919050565b613a3381613a1e565b8114613a3e57600080fd5b50565b600081519050613a5081613a2a565b92915050565b600081519050613a6581612c60565b92915050565b600080600060608486031215613a8457613a83612645565b5b6000613a9286828701613a41565b9350506020613aa386828701613a41565b9250506040613ab486828701613a56565b9150509250925092565b7f4f5241434c455f50454e44494e47000000000000000000000000000000000000600082015250565b6000613af4600e836131cf565b9150613aff82613abe565b602082019050919050565b60006020820190508181036000830152613b2381613ae7565b9050919050565b7f466c69676874206e6f742064656c617965640000000000000000000000000000600082015250565b6000613b606012836131cf565b9150613b6b82613b2a565b602082019050919050565b60006020820190508181036000830152613b8f81613b53565b9050919050565b6000613ba182612706565b9150613bac83612706565b9250828202613bba81612706565b91508282048414831517613bd157613bd061336f565b5b5092915050565b7f4e6f207061796f75742064756500000000000000000000000000000000000000600082015250565b6000613c0e600d836131cf565b9150613c1982613bd8565b602082019050919050565b60006020820190508181036000830152613c3d81613c01565b9050919050565b7f496e73756666696369656e7420636f6e74726163742062616c616e6365000000600082015250565b6000613c7a601d836131cf565b9150613c8582613c44565b602082019050919050565b60006020820190508181036000830152613ca981613c6d565b9050919050565b6000613cbb82612706565b9150613cc683612706565b9250828201905080821115613cde57613cdd61336f565b5b92915050565b7f5265656e7472616e637947756172643a207265656e7472616e742063616c6c00600082015250565b6000613d1a601f836131cf565b9150613d2582613ce4565b602082019050919050565b60006020820190508181036000830152613d4981613d0d565b9050919050565b7f4e487b7100000000000000000000000000000000000000000000000000000000600052601260045260246000fdfea2646970667358221220c04ac41fe200a97c2f113ddfa37d2e8e6719de6bf808737a114eea48d009659164736f6c63430008130033",
  "linkReferences": {},
  "deployedLinkReferences": {}
}