{
  "_format": "hh-sol-artifact-1",
  "contractName": "FlightPolicy",
  "sourceName": "contracts/FlightPolicy.sol",
  "abi": [
    {
      "inputs": [],
      "stateMutability": "nonpayable",
      "type": "constructor"
    },
    {
      "inputs": [
        {
          "internalType": "string",
          "name": "name",
          "type": "string"
        },
        {
          "internalType": "string",
          "name": "description",
          "type": "string"
        },
        {
          "internalType": "uint256",
          "name": "premium",
          "type": "uint256"
        },
        {
          "internalType": "uint256",
          "name": "payoutPerHour",
          "type": "uint256"
        },
        {
          "internalType": "uint256",
          "name": "delayThresholdHours",
          "type": "uint256"
        },
        {
          "internalType": "uint256",
          "name": "maxTotalPayout",
          "type": "uint256"
        },
        {
          "internalType": "uint256",
          "name": "coverageDurationDays",
          "type": "uint256"
        }
      ],
      "name": "createPolicyTemplate",
      "outputs": [
        {
          "internalType": "uint256",
          "name": "",
          "type": "uint256"
        }
      ],
      "stateMutability": "nonpayable",
      "type": "function"
    },
    {
      "inputs": [
        {
          "internalType": "uint256",
          "name": "templateId",
          "type": "uint256"
        }
      ],
      "name": "deactivatePolicyTemplate",
      "outputs": [],
      "stateMutability": "nonpayable",
      "type": "function"
    },
    {
      "inputs": [],
      "name": "getActivePolicyTemplates",
      "outputs": [
        {
          "components": [
            {
              "internalType": "uint256",
              "name": "templateId",
              "type": "uint256"
            },
            {
              "internalType": "string",
              "name": "name",
              "type": "string"
            },
            {
              "internalType": "string",
              "name": "description",
              "type": "string"
            },
            {
              "internalType": "uint256",
              "name": "createdAt",
              "type": "uint256"
            },
            {
              "internalType": "uint256",
              "name": "premium",
              "type": "uint256"
            },
            {
              "internalType": "uint256",
              "name": "payoutPerHour",
              "type": "uint256"
            },
            {
              "internalType": "uint256",
              "name": "delayThresholdHours",
              "type": "uint256"
            },
            {
              "internalType": "uint256",
              "name": "maxTotalPayout",
              "type": "uint256"
            },
            {
              "internalType": "uint256",
              "name": "coverageDurationDays",
              "type": "uint256"
            },
            {
              "internalType": "enum FlightPolicy.PolicyTemplateStatus",
              "name": "status",
              "type": "uint8"
            }
          ],
          "internalType": "struct FlightPolicy.PolicyTemplate[]",
          "name": "",
          "type": "tuple[]"
        }
      ],
      "stateMutability": "view",
      "type": "function"
    },
    {
      "inputs": [],
      "name": "getAllPolicyTemplates",
      "outputs": [
        {
          "components": [
            {
              "internalType": "uint256",
              "name": "templateId",
              "type": "uint256"
            },
            {
              "internalType": "string",
              "name": "name",
              "type": "string"
            },
            {
              "internalType": "string",
              "name": "description",
              "type": "string"
            },
            {
              "internalType": "uint256",
              "name": "createdAt",
              "type": "uint256"
            },
            {
              "internalType": "uint256",
              "name": "premium",
              "type": "uint256"
            },
            {
              "internalType": "uint256",
              "name": "payoutPerHour",
              "type": "uint256"
            },
            {
              "internalType": "uint256",
              "name": "delayThresholdHours",
              "type": "uint256"
            },
            {
              "internalType": "uint256",
              "name": "maxTotalPayout",
              "type": "uint256"
            },
            {
              "internalType": "uint256",
              "name": "coverageDurationDays",
              "type": "uint256"
            },
            {
              "internalType": "enum FlightPolicy.PolicyTemplateStatus",
              "name": "status",
              "type": "uint8"
            }
          ],
          "internalType": "struct FlightPolicy.PolicyTemplate[]",
          "name": "",
          "type": "tuple[]"
        }
      ],
      "stateMutability": "view",
      "type": "function"
    },
    {
      "inputs": [
        {
          "internalType": "uint256",
          "name": "templateId",
          "type": "uint256"
        }
      ],
      "name": "getPolicyTemplateById",
      "outputs": [
        {
          "components": [
            {
              "internalType": "uint256",
              "name": "templateId",
              "type": "uint256"
            },
            {
              "internalType": "string",
              "name": "name",
              "type": "string"
            },
            {
              "internalType": "string",
              "name": "description",
              "type": "string"
            },
            {
              "internalType": "uint256",
              "name": "createdAt",
              "type": "uint256"
            },
            {
              "internalType": "uint256",
              "name": "premium",
              "type": "uint256"
            },
            {
              "internalType": "uint256",
              "name": "payoutPerHour",
              "type": "uint256"
            },
            {
              "internalType": "uint256",
              "name": "delayThresholdHours",
              "type": "uint256"
            },
            {
              "internalType": "uint256",
              "name": "maxTotalPayout",
              "type": "uint256"
            },
            {
              "internalType": "uint256",
              "name": "coverageDurationDays",
              "type": "uint256"
            },
            {
              "internalType": "enum FlightPolicy.PolicyTemplateStatus",
              "name": "status",
              "type": "uint8"
            }
          ],
          "internalType": "struct FlightPolicy.PolicyTemplate",
          "name": "",
          "type": "tuple"
        }
      ],
      "stateMutability": "view",
      "type": "function"
    },
    {
      "inputs": [
        {
          "internalType": "address",
          "name": "user",
          "type": "address"
        }
      ],
      "name": "getUserPolicies",
      "outputs": [
        {
          "components": [
            {
              "internalType": "uint256",
              "name": "policyId",
              "type": "uint256"
            },
            {
              "internalType": "uint256",
              "name": "templateId",
              "type": "uint256"
            },
            {
              "internalType": "string",
              "name": "flightNumber",
              "type": "string"
            },
            {
              "internalType": "string",
              "name": "departureAirportCode",
              "type": "string"
            },
            {
              "internalType": "string",
              "name": "arrivalAirportCode",
              "type": "string"
            },
            {
              "internalType": "uint256",
              "name": "departureTime",
              "type": "uint256"
            },
            {
              "internalType": "uint256",
              "name": "createdAt",
              "type": "uint256"
            },
            {
              "internalType": "uint256",
              "name": "payoutToDate",
              "type": "uint256"
            },
            {
              "internalType": "address",
              "name": "buyer",
              "type": "address"
            },
            {
              "internalType": "enum FlightPolicy.PolicyStatus",
              "name": "status",
              "type": "uint8"
            }
          ],
          "internalType": "struct FlightPolicy.UserPolicy[]",
          "name": "",
          "type": "tuple[]"
        }
      ],
      "stateMutability": "view",
      "type": "function"
    },
    {
      "inputs": [
        {
          "internalType": "uint256",
          "name": "templateId",
          "type": "uint256"
        }
      ],
      "name": "getUserPoliciesByTemplate",
      "outputs": [
        {
          "components": [
            {
              "internalType": "uint256",
              "name": "policyId",
              "type": "uint256"
            },
            {
              "internalType": "uint256",
              "name": "templateId",
              "type": "uint256"
            },
            {
              "internalType": "string",
              "name": "flightNumber",
              "type": "string"
            },
            {
              "internalType": "string",
              "name": "departureAirportCode",
              "type": "string"
            },
            {
              "internalType": "string",
              "name": "arrivalAirportCode",
              "type": "string"
            },
            {
              "internalType": "uint256",
              "name": "departureTime",
              "type": "uint256"
            },
            {
              "internalType": "uint256",
              "name": "createdAt",
              "type": "uint256"
            },
            {
              "internalType": "uint256",
              "name": "payoutToDate",
              "type": "uint256"
            },
            {
              "internalType": "address",
              "name": "buyer",
              "type": "address"
            },
            {
              "internalType": "enum FlightPolicy.PolicyStatus",
              "name": "status",
              "type": "uint8"
            }
          ],
          "internalType": "struct FlightPolicy.UserPolicy[]",
          "name": "",
          "type": "tuple[]"
        }
      ],
      "stateMutability": "view",
      "type": "function"
    },
    {
      "inputs": [
        {
          "internalType": "address",
          "name": "user",
          "type": "address"
        },
        {
          "internalType": "uint256",
          "name": "policyId",
          "type": "uint256"
        }
      ],
      "name": "getUserPolicyWithTemplate",
      "outputs": [
        {
          "components": [
            {
              "internalType": "uint256",
              "name": "policyId",
              "type": "uint256"
            },
            {
              "internalType": "uint256",
              "name": "templateId",
              "type": "uint256"
            },
            {
              "internalType": "string",
              "name": "flightNumber",
              "type": "string"
            },
            {
              "internalType": "string",
              "name": "departureAirportCode",
              "type": "string"
            },
            {
              "internalType": "string",
              "name": "arrivalAirportCode",
              "type": "string"
            },
            {
              "internalType": "uint256",
              "name": "departureTime",
              "type": "uint256"
            },
            {
              "internalType": "uint256",
              "name": "createdAt",
              "type": "uint256"
            },
            {
              "internalType": "uint256",
              "name": "payoutToDate",
              "type": "uint256"
            },
            {
              "internalType": "address",
              "name": "buyer",
              "type": "address"
            },
            {
              "internalType": "enum FlightPolicy.PolicyStatus",
              "name": "status",
              "type": "uint8"
            }
          ],
          "internalType": "struct FlightPolicy.UserPolicy",
          "name": "",
          "type": "tuple"
        },
        {
          "components": [
            {
              "internalType": "uint256",
              "name": "templateId",
              "type": "uint256"
            },
            {
              "internalType": "string",
              "name": "name",
              "type": "string"
            },
            {
              "internalType": "string",
              "name": "description",
              "type": "string"
            },
            {
              "internalType": "uint256",
              "name": "createdAt",
              "type": "uint256"
            },
            {
              "internalType": "uint256",
              "name": "premium",
              "type": "uint256"
            },
            {
              "internalType": "uint256",
              "name": "payoutPerHour",
              "type": "uint256"
            },
            {
              "internalType": "uint256",
              "name": "delayThresholdHours",
              "type": "uint256"
            },
            {
              "internalType": "uint256",
              "name": "maxTotalPayout",
              "type": "uint256"
            },
            {
              "internalType": "uint256",
              "name": "coverageDurationDays",
              "type": "uint256"
            },
            {
              "internalType": "enum FlightPolicy.PolicyTemplateStatus",
              "name": "status",
              "type": "uint8"
            }
          ],
          "internalType": "struct FlightPolicy.PolicyTemplate",
          "name": "",
          "type": "tuple"
        }
      ],
      "stateMutability": "view",
      "type": "function"
    },
    {
      "inputs": [],
      "name": "insurerAddress",
      "outputs": [
        {
          "internalType": "address",
          "name": "",
          "type": "address"
        }
      ],
      "stateMutability": "view",
      "type": "function"
    },
    {
      "inputs": [
        {
          "internalType": "address",
          "name": "buyer",
          "type": "address"
        },
        {
          "internalType": "uint256",
          "name": "policyId",
          "type": "uint256"
        }
      ],
      "name": "markPolicyAsClaimed",
      "outputs": [],
      "stateMutability": "nonpayable",
      "type": "function"
    },
    {
      "inputs": [
        {
          "internalType": "uint256",
          "name": "policyId",
          "type": "uint256"
        }
      ],
      "name": "markPolicyAsExpired",
      "outputs": [],
      "stateMutability": "nonpayable",
      "type": "function"
    },
    {
      "inputs": [],
      "name": "nextPolicyTemplateId",
      "outputs": [
        {
          "internalType": "uint256",
          "name": "",
          "type": "uint256"
        }
      ],
      "stateMutability": "view",
      "type": "function"
    },
    {
      "inputs": [],
      "name": "nextUserPolicyId",
      "outputs": [
        {
          "internalType": "uint256",
          "name": "",
          "type": "uint256"
        }
      ],
      "stateMutability": "view",
      "type": "function"
    },
    {
      "inputs": [
        {
          "internalType": "uint256",
          "name": "",
          "type": "uint256"
        }
      ],
      "name": "policyTemplates",
      "outputs": [
        {
          "internalType": "uint256",
          "name": "templateId",
          "type": "uint256"
        },
        {
          "internalType": "string",
          "name": "name",
          "type": "string"
        },
        {
          "internalType": "string",
          "name": "description",
          "type": "string"
        },
        {
          "internalType": "uint256",
          "name": "createdAt",
          "type": "uint256"
        },
        {
          "internalType": "uint256",
          "name": "premium",
          "type": "uint256"
        },
        {
          "internalType": "uint256",
          "name": "payoutPerHour",
          "type": "uint256"
        },
        {
          "internalType": "uint256",
          "name": "delayThresholdHours",
          "type": "uint256"
        },
        {
          "internalType": "uint256",
          "name": "maxTotalPayout",
          "type": "uint256"
        },
        {
          "internalType": "uint256",
          "name": "coverageDurationDays",
          "type": "uint256"
        },
        {
          "internalType": "enum FlightPolicy.PolicyTemplateStatus",
          "name": "status",
          "type": "uint8"
        }
      ],
      "stateMutability": "view",
      "type": "function"
    },
    {
      "inputs": [
        {
          "internalType": "address",
          "name": "buyer",
          "type": "address"
        },
        {
          "internalType": "uint256",
          "name": "templateId",
          "type": "uint256"
        },
        {
          "internalType": "string",
          "name": "flightNumber",
          "type": "string"
        },
        {
          "internalType": "string",
          "name": "departureAirportCode",
          "type": "string"
        },
        {
          "internalType": "string",
          "name": "arrivalAirportCode",
          "type": "string"
        },
        {
          "internalType": "uint256",
          "name": "departureTime",
          "type": "uint256"
        }
      ],
      "name": "purchasePolicy",
      "outputs": [
        {
          "internalType": "uint256",
          "name": "",
          "type": "uint256"
        }
      ],
      "stateMutability": "payable",
      "type": "function"
    },
    {
      "inputs": [
        {
          "internalType": "uint256",
          "name": "",
          "type": "uint256"
        }
      ],
      "name": "userPolicies",
      "outputs": [
        {
          "internalType": "uint256",
          "name": "policyId",
          "type": "uint256"
        },
        {
          "internalType": "uint256",
          "name": "templateId",
          "type": "uint256"
        },
        {
          "internalType": "string",
          "name": "flightNumber",
          "type": "string"
        },
        {
          "internalType": "string",
          "name": "departureAirportCode",
          "type": "string"
        },
        {
          "internalType": "string",
          "name": "arrivalAirportCode",
          "type": "string"
        },
        {
          "internalType": "uint256",
          "name": "departureTime",
          "type": "uint256"
        },
        {
          "internalType": "uint256",
          "name": "createdAt",
          "type": "uint256"
        },
        {
          "internalType": "uint256",
          "name": "payoutToDate",
          "type": "uint256"
        },
        {
          "internalType": "address",
          "name": "buyer",
          "type": "address"
        },
        {
          "internalType": "enum FlightPolicy.PolicyStatus",
          "name": "status",
          "type": "uint8"
        }
      ],
      "stateMutability": "view",
      "type": "function"
    },
    {
      "inputs": [
        {
          "internalType": "address",
          "name": "",
          "type": "address"
        },
        {
          "internalType": "uint256",
          "name": "",
          "type": "uint256"
        }
      ],
      "name": "userPolicyIds",
      "outputs": [
        {
          "internalType": "uint256",
          "name": "",
          "type": "uint256"
        }
      ],
      "stateMutability": "view",
      "type": "function"
    }
  ],
  "bytecode": "0x60a060405234801561001057600080fd5b503373ffffffffffffffffffffffffffffffffffffffff1660808173ffffffffffffffffffffffffffffffffffffffff16815250506080516142bb61007c6000396000818161102f015281816113e2015281816117130152818161191a015261244401526142bb6000f3fe6080604052600436106100fd5760003560e01c80638864149411610095578063b6e283e111610064578063b6e283e11461037d578063cba85f06146103ba578063cf39c62414610400578063d329701014610429578063e79cdf1d14610454576100fd565b806388641494146102a8578063a7c0900e146102e5578063acf7669314610310578063b55d4a2f14610340576100fd565b80633147b2cc116100d15780633147b2cc146101d1578063482ab102146102175780635990fa36146102405780637b9564151461027d576100fd565b8062c84c041461010257806313e896b61461012d57806319ac46141461016b57806328cf382c146101a8575b600080fd5b34801561010e57600080fd5b5061011761047f565b6040516101249190612ef5565b60405180910390f35b34801561013957600080fd5b50610154600480360381019061014f9190612fb5565b6106e4565b604051610162929190613215565b60405180910390f35b34801561017757600080fd5b50610192600480360381019061018d919061324c565b610c52565b60405161019f9190613423565b60405180910390f35b3480156101b457600080fd5b506101cf60048036038101906101ca9190612fb5565b61102d565b005b3480156101dd57600080fd5b506101f860048036038101906101f39190613445565b61126f565b60405161020e9a999897969594939291906134da565b60405180910390f35b34801561022357600080fd5b5061023e60048036038101906102399190613445565b6113e0565b005b34801561024c57600080fd5b5061026760048036038101906102629190613445565b6114f3565b6040516102749190613584565b60405180910390f35b34801561028957600080fd5b50610292611709565b60405161029f91906135a6565b60405180910390f35b3480156102b457600080fd5b506102cf60048036038101906102ca91906136f6565b61170f565b6040516102dc91906135a6565b60405180910390f35b3480156102f157600080fd5b506102fa611918565b60405161030791906137df565b60405180910390f35b61032a600480360381019061032591906137fa565b61193c565b60405161033791906135a6565b60405180910390f35b34801561034c57600080fd5b5061036760048036038101906103629190613445565b611e41565b6040516103749190613423565b60405180910390f35b34801561038957600080fd5b506103a4600480360381019061039f9190612fb5565b6121f8565b6040516103b191906135a6565b60405180910390f35b3480156103c657600080fd5b506103e160048036038101906103dc9190613445565b612229565b6040516103f79a999897969594939291906138ea565b60405180910390f35b34801561040c57600080fd5b5061042760048036038101906104229190613445565b612442565b005b34801561043557600080fd5b5061043e61280a565b60405161044b91906135a6565b60405180910390f35b34801561046057600080fd5b50610469612810565b6040516104769190612ef5565b60405180910390f35b6060600060015467ffffffffffffffff81111561049f5761049e6135cb565b5b6040519080825280602002602001820160405280156104d857816020015b6104c5612b52565b8152602001906001900390816104bd5790505b50905060005b6001548110156106dc576000808281526020019081526020016000206040518061014001604052908160008201548152602001600182018054610520906139ca565b80601f016020809104026020016040519081016040528092919081815260200182805461054c906139ca565b80156105995780601f1061056e57610100808354040283529160200191610599565b820191906000526020600020905b81548152906001019060200180831161057c57829003601f168201915b505050505081526020016002820180546105b2906139ca565b80601f01602080910402602001604051908101604052809291908181526020018280546105de906139ca565b801561062b5780601f106106005761010080835404028352916020019161062b565b820191906000526020600020905b81548152906001019060200180831161060e57829003601f168201915b505050505081526020016003820154815260200160048201548152602001600582015481526020016006820154815260200160078201548152602001600882015481526020016009820160009054906101000a900460ff16600181111561069557610694612d07565b5b60018111156106a7576106a6612d07565b5b815250508282815181106106be576106bd6139fb565b5b602002602001018190525080806106d490613a59565b9150506104de565b508091505090565b6106ec612bb7565b6106f4612b52565b6004548310610738576040517f08c379a000000000000000000000000000000000000000000000000000000000815260040161072f90613aed565b60405180910390fd5b8373ffffffffffffffffffffffffffffffffffffffff166002600085815260200190815260200160002060080160009054906101000a900473ffffffffffffffffffffffffffffffffffffffff1673ffffffffffffffffffffffffffffffffffffffff16146107dc576040517f08c379a00000000000000000000000000000000000000000000000000000000081526004016107d390613b59565b60405180910390fd5b600060026000858152602001908152602001600020604051806101400160405290816000820154815260200160018201548152602001600282018054610821906139ca565b80601f016020809104026020016040519081016040528092919081815260200182805461084d906139ca565b801561089a5780601f1061086f5761010080835404028352916020019161089a565b820191906000526020600020905b81548152906001019060200180831161087d57829003601f168201915b505050505081526020016003820180546108b3906139ca565b80601f01602080910402602001604051908101604052809291908181526020018280546108df906139ca565b801561092c5780601f106109015761010080835404028352916020019161092c565b820191906000526020600020905b81548152906001019060200180831161090f57829003601f168201915b50505050508152602001600482018054610945906139ca565b80601f0160208091040260200160405190810160405280929190818152602001828054610971906139ca565b80156109be5780601f10610993576101008083540402835291602001916109be565b820191906000526020600020905b8154815290600101906020018083116109a157829003601f168201915b505050505081526020016005820154815260200160068201548152602001600782015481526020016008820160009054906101000a900473ffffffffffffffffffffffffffffffffffffffff1673ffffffffffffffffffffffffffffffffffffffff1673ffffffffffffffffffffffffffffffffffffffff1681526020016008820160149054906101000a900460ff166002811115610a6057610a5f612d07565b5b6002811115610a7257610a71612d07565b5b8152505090506000806000836020015181526020019081526020016000206040518061014001604052908160008201548152602001600182018054610ab6906139ca565b80601f0160208091040260200160405190810160405280929190818152602001828054610ae2906139ca565b8015610b2f5780601f10610b0457610100808354040283529160200191610b2f565b820191906000526020600020905b815481529060010190602001808311610b1257829003601f168201915b50505050508152602001600282018054610b48906139ca565b80601f0160208091040260200160405190810160405280929190818152602001828054610b74906139ca565b8015610bc15780601f10610b9657610100808354040283529160200191610bc1565b820191906000526020600020905b815481529060010190602001808311610ba457829003601f168201915b505050505081526020016003820154815260200160048201548152602001600582015481526020016006820154815260200160078201548152602001600882015481526020016009820160009054906101000a900460ff166001811115610c2b57610c2a612d07565b5b6001811115610c3d57610c3c612d07565b5b81525050905081819350935050509250929050565b60606000600360008473ffffffffffffffffffffffffffffffffffffffff1673ffffffffffffffffffffffffffffffffffffffff16815260200190815260200160002080549050905060008167ffffffffffffffff811115610cb757610cb66135cb565b5b604051908082528060200260200182016040528015610cf057816020015b610cdd612bb7565b815260200190600190039081610cd55790505b50905060005b828110156110225760026000600360008873ffffffffffffffffffffffffffffffffffffffff1673ffffffffffffffffffffffffffffffffffffffff1681526020019081526020016000208381548110610d5357610d526139fb565b5b90600052602060002001548152602001908152602001600020604051806101400160405290816000820154815260200160018201548152602001600282018054610d9c906139ca565b80601f0160208091040260200160405190810160405280929190818152602001828054610dc8906139ca565b8015610e155780601f10610dea57610100808354040283529160200191610e15565b820191906000526020600020905b815481529060010190602001808311610df857829003601f168201915b50505050508152602001600382018054610e2e906139ca565b80601f0160208091040260200160405190810160405280929190818152602001828054610e5a906139ca565b8015610ea75780601f10610e7c57610100808354040283529160200191610ea7565b820191906000526020600020905b815481529060010190602001808311610e8a57829003601f168201915b50505050508152602001600482018054610ec0906139ca565b80601f0160208091040260200160405190810160405280929190818152602001828054610eec906139ca565b8015610f395780601f10610f0e57610100808354040283529160200191610f39565b820191906000526020600020905b815481529060010190602001808311610f1c57829003601f168201915b505050505081526020016005820154815260200160068201548152602001600782015481526020016008820160009054906101000a900473ffffffffffffffffffffffffffffffffffffffff1673ffffffffffffffffffffffffffffffffffffffff1673ffffffffffffffffffffffffffffffffffffffff1681526020016008820160149054906101000a900460ff166002811115610fdb57610fda612d07565b5b6002811115610fed57610fec612d07565b5b81525050828281518110611004576110036139fb565b5b6020026020010181905250808061101a90613a59565b915050610cf6565b508092505050919050565b7f000000000000000000000000000000000000000000000000000000000000000073ffffffffffffffffffffffffffffffffffffffff163273ffffffffffffffffffffffffffffffffffffffff16146110bb576040517f08c379a00000000000000000000000000000000000000000000000000000000081526004016110b290613beb565b60405180910390fd5b60045481106110ff576040517f08c379a00000000000000000000000000000000000000000000000000000000081526004016110f690613aed565b60405180910390fd5b8173ffffffffffffffffffffffffffffffffffffffff166002600083815260200190815260200160002060080160009054906101000a900473ffffffffffffffffffffffffffffffffffffffff1673ffffffffffffffffffffffffffffffffffffffff16146111a3576040517f08c379a000000000000000000000000000000000000000000000000000000000815260040161119a90613c57565b60405180910390fd5b600060028111156111b7576111b6612d07565b5b6002600083815260200190815260200160002060080160149054906101000a900460ff1660028111156111ed576111ec612d07565b5b1461122d576040517f08c379a000000000000000000000000000000000000000000000000000000000815260040161122490613cc3565b60405180910390fd5b600280600083815260200190815260200160002060080160146101000a81548160ff0219169083600281111561126657611265612d07565b5b02179055505050565b6000602052806000526040600020600091509050806000015490806001018054611298906139ca565b80601f01602080910402602001604051908101604052809291908181526020018280546112c4906139ca565b80156113115780601f106112e657610100808354040283529160200191611311565b820191906000526020600020905b8154815290600101906020018083116112f457829003601f168201915b505050505090806002018054611326906139ca565b80601f0160208091040260200160405190810160405280929190818152602001828054611352906139ca565b801561139f5780601f106113745761010080835404028352916020019161139f565b820191906000526020600020905b81548152906001019060200180831161138257829003601f168201915b5050505050908060030154908060040154908060050154908060060154908060070154908060080154908060090160009054906101000a900460ff1690508a565b7f000000000000000000000000000000000000000000000000000000000000000073ffffffffffffffffffffffffffffffffffffffff163273ffffffffffffffffffffffffffffffffffffffff161461146e576040517f08c379a000000000000000000000000000000000000000000000000000000000815260040161146590613beb565b60405180910390fd5b60015481106114b2576040517f08c379a00000000000000000000000000000000000000000000000000000000081526004016114a990613d2f565b60405180910390fd5b600160008083815260200190815260200160002060090160006101000a81548160ff021916908360018111156114eb576114ea612d07565b5b021790555050565b6114fb612b52565b600154821061153f576040517f08c379a000000000000000000000000000000000000000000000000000000000815260040161153690613d9b565b60405180910390fd5b6000808381526020019081526020016000206040518061014001604052908160008201548152602001600182018054611577906139ca565b80601f01602080910402602001604051908101604052809291908181526020018280546115a3906139ca565b80156115f05780601f106115c5576101008083540402835291602001916115f0565b820191906000526020600020905b8154815290600101906020018083116115d357829003601f168201915b50505050508152602001600282018054611609906139ca565b80601f0160208091040260200160405190810160405280929190818152602001828054611635906139ca565b80156116825780601f1061165757610100808354040283529160200191611682565b820191906000526020600020905b81548152906001019060200180831161166557829003601f168201915b505050505081526020016003820154815260200160048201548152602001600582015481526020016006820154815260200160078201548152602001600882015481526020016009820160009054906101000a900460ff1660018111156116ec576116eb612d07565b5b60018111156116fe576116fd612d07565b5b815250509050919050565b60045481565b60007f000000000000000000000000000000000000000000000000000000000000000073ffffffffffffffffffffffffffffffffffffffff163273ffffffffffffffffffffffffffffffffffffffff161461179f576040517f08c379a000000000000000000000000000000000000000000000000000000000815260040161179690613beb565b60405180910390fd5b600060015490506040518061014001604052808281526020018a8152602001898152602001428152602001670de0b6b3a7640000896117de9190613dbb565b8152602001670de0b6b3a7640000886117f79190613dbb565b8152602001868152602001670de0b6b3a7640000866118169190613dbb565b81526020018481526020016000600181111561183557611834612d07565b5b8152506000808381526020019081526020016000206000820151816000015560208201518160010190816118699190613fa9565b50604082015181600201908161187f9190613fa9565b50606082015181600301556080820151816004015560a0820151816005015560c0820151816006015560e0820151816007015561010082015181600801556101208201518160090160006101000a81548160ff021916908360018111156118e9576118e8612d07565b5b02179055509050506001600081548092919061190490613a59565b919050555080915050979650505050505050565b7f000000000000000000000000000000000000000000000000000000000000000081565b60006001548610611982576040517f08c379a000000000000000000000000000000000000000000000000000000000815260040161197990613d2f565b60405180910390fd5b600080600088815260200190815260200160002060405180610140016040529081600082015481526020016001820180546119bc906139ca565b80601f01602080910402602001604051908101604052809291908181526020018280546119e8906139ca565b8015611a355780601f10611a0a57610100808354040283529160200191611a35565b820191906000526020600020905b815481529060010190602001808311611a1857829003601f168201915b50505050508152602001600282018054611a4e906139ca565b80601f0160208091040260200160405190810160405280929190818152602001828054611a7a906139ca565b8015611ac75780601f10611a9c57610100808354040283529160200191611ac7565b820191906000526020600020905b815481529060010190602001808311611aaa57829003601f168201915b505050505081526020016003820154815260200160048201548152602001600582015481526020016006820154815260200160078201548152602001600882015481526020016009820160009054906101000a900460ff166001811115611b3157611b30612d07565b5b6001811115611b4357611b42612d07565b5b81525050905060006001811115611b5d57611b5c612d07565b5b8161012001516001811115611b7557611b74612d07565b5b14611bb5576040517f08c379a0000000000000000000000000000000000000000000000000000000008152600401611bac906140c7565b60405180910390fd5b428311611bf7576040517f08c379a0000000000000000000000000000000000000000000000000000000008152600401611bee90614159565b60405180910390fd5b8060800151341015611c3e576040517f08c379a0000000000000000000000000000000000000000000000000000000008152600401611c35906141c5565b60405180910390fd5b600060046000815480929190611c5390613a59565b919050559050604051806101400160405280828152602001898152602001888152602001878152602001868152602001858152602001428152602001600081526020018a73ffffffffffffffffffffffffffffffffffffffff16815260200160006002811115611cc657611cc5612d07565b5b8152506002600083815260200190815260200160002060008201518160000155602082015181600101556040820151816002019081611d059190613fa9565b506060820151816003019081611d1b9190613fa9565b506080820151816004019081611d319190613fa9565b5060a0820151816005015560c0820151816006015560e082015181600701556101008201518160080160006101000a81548173ffffffffffffffffffffffffffffffffffffffff021916908373ffffffffffffffffffffffffffffffffffffffff1602179055506101208201518160080160146101000a81548160ff02191690836002811115611dc457611dc3612d07565b5b0217905550905050600360008a73ffffffffffffffffffffffffffffffffffffffff1673ffffffffffffffffffffffffffffffffffffffff16815260200190815260200160002081908060018154018082558091505060019003906000526020600020016000909190919091505580925050509695505050505050565b60606000805b600454811015611e905783600260008381526020019081526020016000206001015403611e7d578180611e7990613a59565b9250505b8080611e8890613a59565b915050611e47565b5060008167ffffffffffffffff811115611ead57611eac6135cb565b5b604051908082528060200260200182016040528015611ee657816020015b611ed3612bb7565b815260200190600190039081611ecb5790505b5090506000805b6004548110156121ec57856002600083815260200190815260200160002060010154036121d95760026000828152602001908152602001600020604051806101400160405290816000820154815260200160018201548152602001600282018054611f57906139ca565b80601f0160208091040260200160405190810160405280929190818152602001828054611f83906139ca565b8015611fd05780601f10611fa557610100808354040283529160200191611fd0565b820191906000526020600020905b815481529060010190602001808311611fb357829003601f168201915b50505050508152602001600382018054611fe9906139ca565b80601f0160208091040260200160405190810160405280929190818152602001828054612015906139ca565b80156120625780601f1061203757610100808354040283529160200191612062565b820191906000526020600020905b81548152906001019060200180831161204557829003601f168201915b5050505050815260200160048201805461207b906139ca565b80601f01602080910402602001604051908101604052809291908181526020018280546120a7906139ca565b80156120f45780601f106120c9576101008083540402835291602001916120f4565b820191906000526020600020905b8154815290600101906020018083116120d757829003601f168201915b505050505081526020016005820154815260200160068201548152602001600782015481526020016008820160009054906101000a900473ffffffffffffffffffffffffffffffffffffffff1673ffffffffffffffffffffffffffffffffffffffff1673ffffffffffffffffffffffffffffffffffffffff1681526020016008820160149054906101000a900460ff16600281111561219657612195612d07565b5b60028111156121a8576121a7612d07565b5b815250508383815181106121bf576121be6139fb565b5b602002602001018190525081806121d590613a59565b9250505b80806121e490613a59565b915050611eed565b50819350505050919050565b6003602052816000526040600020818154811061221457600080fd5b90600052602060002001600091509150505481565b6002602052806000526040600020600091509050806000015490806001015490806002018054612258906139ca565b80601f0160208091040260200160405190810160405280929190818152602001828054612284906139ca565b80156122d15780601f106122a6576101008083540402835291602001916122d1565b820191906000526020600020905b8154815290600101906020018083116122b457829003601f168201915b5050505050908060030180546122e6906139ca565b80601f0160208091040260200160405190810160405280929190818152602001828054612312906139ca565b801561235f5780601f106123345761010080835404028352916020019161235f565b820191906000526020600020905b81548152906001019060200180831161234257829003601f168201915b505050505090806004018054612374906139ca565b80601f01602080910402602001604051908101604052809291908181526020018280546123a0906139ca565b80156123ed5780601f106123c2576101008083540402835291602001916123ed565b820191906000526020600020905b8154815290600101906020018083116123d057829003601f168201915b5050505050908060050154908060060154908060070154908060080160009054906101000a900473ffffffffffffffffffffffffffffffffffffffff16908060080160149054906101000a900460ff1690508a565b7f000000000000000000000000000000000000000000000000000000000000000073ffffffffffffffffffffffffffffffffffffffff163273ffffffffffffffffffffffffffffffffffffffff16146124d0576040517f08c379a00000000000000000000000000000000000000000000000000000000081526004016124c790613beb565b60405180910390fd5b6004548110612514576040517f08c379a000000000000000000000000000000000000000000000000000000000815260040161250b90613aed565b60405180910390fd5b60006002600083815260200190815260200160002090506000600281111561253f5761253e612d07565b5b8160080160149054906101000a900460ff16600281111561256357612562612d07565b5b146125a3576040517f08c379a000000000000000000000000000000000000000000000000000000000815260040161259a90613cc3565b60405180910390fd5b60008060008360010154815260200190815260200160002060405180610140016040529081600082015481526020016001820180546125e1906139ca565b80601f016020809104026020016040519081016040528092919081815260200182805461260d906139ca565b801561265a5780601f1061262f5761010080835404028352916020019161265a565b820191906000526020600020905b81548152906001019060200180831161263d57829003601f168201915b50505050508152602001600282018054612673906139ca565b80601f016020809104026020016040519081016040528092919081815260200182805461269f906139ca565b80156126ec5780601f106126c1576101008083540402835291602001916126ec565b820191906000526020600020905b8154815290600101906020018083116126cf57829003601f168201915b505050505081526020016003820154815260200160048201548152602001600582015481526020016006820154815260200160078201548152602001600882015481526020016009820160009054906101000a900460ff16600181111561275657612755612d07565b5b600181111561276857612767612d07565b5b8152505090506000620151808261010001516127849190613dbb565b836006015461279391906141e5565b90508042116127d7576040517f08c379a00000000000000000000000000000000000000000000000000000000081526004016127ce90614265565b60405180910390fd5b60018360080160146101000a81548160ff021916908360028111156127ff576127fe612d07565b5b021790555050505050565b60015481565b60606000805b600154811015612890576000600181111561283457612833612d07565b5b60008083815260200190815260200160002060090160009054906101000a900460ff16600181111561286957612868612d07565b5b0361287d57818061287990613a59565b9250505b808061288890613a59565b915050612816565b5060008167ffffffffffffffff8111156128ad576128ac6135cb565b5b6040519080825280602002602001820160405280156128e657816020015b6128d3612b52565b8152602001906001900390816128cb5790505b5090506000805b600154811015612b48576000600181111561290b5761290a612d07565b5b60008083815260200190815260200160002060090160009054906101000a900460ff1660018111156129405761293f612d07565b5b03612b3557600080828152602001908152602001600020604051806101400160405290816000820154815260200160018201805461297d906139ca565b80601f01602080910402602001604051908101604052809291908181526020018280546129a9906139ca565b80156129f65780601f106129cb576101008083540402835291602001916129f6565b820191906000526020600020905b8154815290600101906020018083116129d957829003601f168201915b50505050508152602001600282018054612a0f906139ca565b80601f0160208091040260200160405190810160405280929190818152602001828054612a3b906139ca565b8015612a885780601f10612a5d57610100808354040283529160200191612a88565b820191906000526020600020905b815481529060010190602001808311612a6b57829003601f168201915b505050505081526020016003820154815260200160048201548152602001600582015481526020016006820154815260200160078201548152602001600882015481526020016009820160009054906101000a900460ff166001811115612af257612af1612d07565b5b6001811115612b0457612b03612d07565b5b81525050838381518110612b1b57612b1a6139fb565b5b60200260200101819052508180612b3190613a59565b9250505b8080612b4090613a59565b9150506128ed565b5081935050505090565b60405180610140016040528060008152602001606081526020016060815260200160008152602001600081526020016000815260200160008152602001600081526020016000815260200160006001811115612bb157612bb0612d07565b5b81525090565b6040518061014001604052806000815260200160008152602001606081526020016060815260200160608152602001600081526020016000815260200160008152602001600073ffffffffffffffffffffffffffffffffffffffff16815260200160006002811115612c2c57612c2b612d07565b5b81525090565b600081519050919050565b600082825260208201905092915050565b6000819050602082019050919050565b6000819050919050565b612c7181612c5e565b82525050565b600081519050919050565b600082825260208201905092915050565b60005b83811015612cb1578082015181840152602081019050612c96565b60008484015250505050565b6000601f19601f8301169050919050565b6000612cd982612c77565b612ce38185612c82565b9350612cf3818560208601612c93565b612cfc81612cbd565b840191505092915050565b7f4e487b7100000000000000000000000000000000000000000000000000000000600052602160045260246000fd5b60028110612d4757612d46612d07565b5b50565b6000819050612d5882612d36565b919050565b6000612d6882612d4a565b9050919050565b612d7881612d5d565b82525050565b600061014083016000830151612d976000860182612c68565b5060208301518482036020860152612daf8282612cce565b91505060408301518482036040860152612dc98282612cce565b9150506060830151612dde6060860182612c68565b506080830151612df16080860182612c68565b5060a0830151612e0460a0860182612c68565b5060c0830151612e1760c0860182612c68565b5060e0830151612e2a60e0860182612c68565b50610100830151612e3f610100860182612c68565b50610120830151612e54610120860182612d6f565b508091505092915050565b6000612e6b8383612d7e565b905092915050565b6000602082019050919050565b6000612e8b82612c32565b612e958185612c3d565b935083602082028501612ea785612c4e565b8060005b85811015612ee35784840389528151612ec48582612e5f565b9450612ecf83612e73565b925060208a01995050600181019050612eab565b50829750879550505050505092915050565b60006020820190508181036000830152612f0f8184612e80565b905092915050565b6000604051905090565b600080fd5b600080fd5b600073ffffffffffffffffffffffffffffffffffffffff82169050919050565b6000612f5682612f2b565b9050919050565b612f6681612f4b565b8114612f7157600080fd5b50565b600081359050612f8381612f5d565b92915050565b612f9281612c5e565b8114612f9d57600080fd5b50565b600081359050612faf81612f89565b92915050565b60008060408385031215612fcc57612fcb612f21565b5b6000612fda85828601612f74565b9250506020612feb85828601612fa0565b9150509250929050565b612ffe81612f4b565b82525050565b6003811061301557613014612d07565b5b50565b600081905061302682613004565b919050565b600061303682613018565b9050919050565b6130468161302b565b82525050565b6000610140830160008301516130656000860182612c68565b5060208301516130786020860182612c68565b50604083015184820360408601526130908282612cce565b915050606083015184820360608601526130aa8282612cce565b915050608083015184820360808601526130c48282612cce565b91505060a08301516130d960a0860182612c68565b5060c08301516130ec60c0860182612c68565b5060e08301516130ff60e0860182612c68565b50610100830151613114610100860182612ff5565b5061012083015161312961012086018261303d565b508091505092915050565b60006101408301600083015161314d6000860182612c68565b50602083015184820360208601526131658282612cce565b9150506040830151848203604086015261317f8282612cce565b91505060608301516131946060860182612c68565b5060808301516131a76080860182612c68565b5060a08301516131ba60a0860182612c68565b5060c08301516131cd60c0860182612c68565b5060e08301516131e060e0860182612c68565b506101008301516131f5610100860182612c68565b5061012083015161320a610120860182612d6f565b508091505092915050565b6000604082019050818103600083015261322f818561304c565b905081810360208301526132438184613134565b90509392505050565b60006020828403121561326257613261612f21565b5b600061327084828501612f74565b91505092915050565b600081519050919050565b600082825260208201905092915050565b6000819050602082019050919050565b6000610140830160008301516132be6000860182612c68565b5060208301516132d16020860182612c68565b50604083015184820360408601526132e98282612cce565b915050606083015184820360608601526133038282612cce565b9150506080830151848203608086015261331d8282612cce565b91505060a083015161333260a0860182612c68565b5060c083015161334560c0860182612c68565b5060e083015161335860e0860182612c68565b5061010083015161336d610100860182612ff5565b5061012083015161338261012086018261303d565b508091505092915050565b600061339983836132a5565b905092915050565b6000602082019050919050565b60006133b982613279565b6133c38185613284565b9350836020820285016133d585613295565b8060005b8581101561341157848403895281516133f2858261338d565b94506133fd836133a1565b925060208a019950506001810190506133d9565b50829750879550505050505092915050565b6000602082019050818103600083015261343d81846133ae565b905092915050565b60006020828403121561345b5761345a612f21565b5b600061346984828501612fa0565b91505092915050565b61347b81612c5e565b82525050565b600082825260208201905092915050565b600061349d82612c77565b6134a78185613481565b93506134b7818560208601612c93565b6134c081612cbd565b840191505092915050565b6134d481612d5d565b82525050565b6000610140820190506134f0600083018d613472565b8181036020830152613502818c613492565b90508181036040830152613516818b613492565b9050613525606083018a613472565b6135326080830189613472565b61353f60a0830188613472565b61354c60c0830187613472565b61355960e0830186613472565b613567610100830185613472565b6135756101208301846134cb565b9b9a5050505050505050505050565b6000602082019050818103600083015261359e8184613134565b905092915050565b60006020820190506135bb6000830184613472565b92915050565b600080fd5b600080fd5b7f4e487b7100000000000000000000000000000000000000000000000000000000600052604160045260246000fd5b61360382612cbd565b810181811067ffffffffffffffff82111715613622576136216135cb565b5b80604052505050565b6000613635612f17565b905061364182826135fa565b919050565b600067ffffffffffffffff821115613661576136606135cb565b5b61366a82612cbd565b9050602081019050919050565b82818337600083830152505050565b600061369961369484613646565b61362b565b9050828152602081018484840111156136b5576136b46135c6565b5b6136c0848285613677565b509392505050565b600082601f8301126136dd576136dc6135c1565b5b81356136ed848260208601613686565b91505092915050565b600080600080600080600060e0888a03121561371557613714612f21565b5b600088013567ffffffffffffffff81111561373357613732612f26565b5b61373f8a828b016136c8565b975050602088013567ffffffffffffffff8111156137605761375f612f26565b5b61376c8a828b016136c8565b965050604061377d8a828b01612fa0565b955050606061378e8a828b01612fa0565b945050608061379f8a828b01612fa0565b93505060a06137b08a828b01612fa0565b92505060c06137c18a828b01612fa0565b91505092959891949750929550565b6137d981612f4b565b82525050565b60006020820190506137f460008301846137d0565b92915050565b60008060008060008060c0878903121561381757613816612f21565b5b600061382589828a01612f74565b965050602061383689828a01612fa0565b955050604087013567ffffffffffffffff81111561385757613856612f26565b5b61386389828a016136c8565b945050606087013567ffffffffffffffff81111561388457613883612f26565b5b61389089828a016136c8565b935050608087013567ffffffffffffffff8111156138b1576138b0612f26565b5b6138bd89828a016136c8565b92505060a06138ce89828a01612fa0565b9150509295509295509295565b6138e48161302b565b82525050565b600061014082019050613900600083018d613472565b61390d602083018c613472565b818103604083015261391f818b613492565b90508181036060830152613933818a613492565b905081810360808301526139478189613492565b905061395660a0830188613472565b61396360c0830187613472565b61397060e0830186613472565b61397e6101008301856137d0565b61398c6101208301846138db565b9b9a5050505050505050505050565b7f4e487b7100000000000000000000000000000000000000000000000000000000600052602260045260246000fd5b600060028204905060018216806139e257607f821691505b6020821081036139f5576139f461399b565b5b50919050565b7f4e487b7100000000000000000000000000000000000000000000000000000000600052603260045260246000fd5b7f4e487b7100000000000000000000000000000000000000000000000000000000600052601160045260246000fd5b6000613a6482612c5e565b91507fffffffffffffffffffffffffffffffffffffffffffffffffffffffffffffffff8203613a9657613a95613a2a565b5b600182019050919050565b7f496e76616c696420706f6c696379496400000000000000000000000000000000600082015250565b6000613ad7601083613481565b9150613ae282613aa1565b602082019050919050565b60006020820190508181036000830152613b0681613aca565b9050919050565b7f4e6f7420796f757220706f6c6963790000000000000000000000000000000000600082015250565b6000613b43600f83613481565b9150613b4e82613b0d565b602082019050919050565b60006020820190508181036000830152613b7281613b36565b9050919050565b7f466c69676874506f6c6963793a204f6e6c792074686520696e7375726572206360008201527f616e2063616c6c20746869732066756e6374696f6e0000000000000000000000602082015250565b6000613bd5603583613481565b9150613be082613b79565b604082019050919050565b60006020820190508181036000830152613c0481613bc8565b9050919050565b7f506f6c69637920646f65736e27742062656c6f6e6720746f2062757965720000600082015250565b6000613c41601e83613481565b9150613c4c82613c0b565b602082019050919050565b60006020820190508181036000830152613c7081613c34565b9050919050565b7f506f6c696379206973206e6f7420616374697665000000000000000000000000600082015250565b6000613cad601483613481565b9150613cb882613c77565b602082019050919050565b60006020820190508181036000830152613cdc81613ca0565b9050919050565b7f496e76616c69642074656d706c61746549640000000000000000000000000000600082015250565b6000613d19601283613481565b9150613d2482613ce3565b602082019050919050565b60006020820190508181036000830152613d4881613d0c565b9050919050565b7f54656d706c61746520646f6573206e6f74206578697374000000000000000000600082015250565b6000613d85601783613481565b9150613d9082613d4f565b602082019050919050565b60006020820190508181036000830152613db481613d78565b9050919050565b6000613dc682612c5e565b9150613dd183612c5e565b9250828202613ddf81612c5e565b91508282048414831517613df657613df5613a2a565b5b5092915050565b60008190508160005260206000209050919050565b60006020601f8301049050919050565b600082821b905092915050565b600060088302613e5f7fffffffffffffffffffffffffffffffffffffffffffffffffffffffffffffffff82613e22565b613e698683613e22565b95508019841693508086168417925050509392505050565b6000819050919050565b6000613ea6613ea1613e9c84612c5e565b613e81565b612c5e565b9050919050565b6000819050919050565b613ec083613e8b565b613ed4613ecc82613ead565b848454613e2f565b825550505050565b600090565b613ee9613edc565b613ef4818484613eb7565b505050565b5b81811015613f1857613f0d600082613ee1565b600181019050613efa565b5050565b601f821115613f5d57613f2e81613dfd565b613f3784613e12565b81016020851015613f46578190505b613f5a613f5285613e12565b830182613ef9565b50505b505050565b600082821c905092915050565b6000613f8060001984600802613f62565b1980831691505092915050565b6000613f998383613f6f565b9150826002028217905092915050565b613fb282612c77565b67ffffffffffffffff811115613fcb57613fca6135cb565b5b613fd582546139ca565b613fe0828285613f1c565b600060209050601f8311600181146140135760008415614001578287015190505b61400b8582613f8d565b865550614073565b601f19841661402186613dfd565b60005b8281101561404957848901518255600182019150602085019450602081019050614024565b868310156140665784890151614062601f891682613f6f565b8355505b6001600288020188555050505b505050505050565b7f506f6c6963792074656d706c617465206973206e6f7420616374697665000000600082015250565b60006140b1601d83613481565b91506140bc8261407b565b602082019050919050565b600060208201905081810360008301526140e0816140a4565b9050919050565b7f4465706172747572652074696d65206d75737420626520696e2074686520667560008201527f7475726500000000000000000000000000000000000000000000000000000000602082015250565b6000614143602483613481565b915061414e826140e7565b604082019050919050565b6000602082019050818103600083015261417281614136565b9050919050565b7f496e73756666696369656e74207072656d69756d2073656e7400000000000000600082015250565b60006141af601983613481565b91506141ba82614179565b602082019050919050565b600060208201905081810360008301526141de816141a2565b9050919050565b60006141f082612c5e565b91506141fb83612c5e565b925082820190508082111561421357614212613a2a565b5b92915050565b7f506f6c69637920686173206e6f74206578706972656420796574000000000000600082015250565b600061424f601a83613481565b915061425a82614219565b602082019050919050565b6000602082019050818103600083015261427e81614242565b905091905056fea2646970667358221220928f26567e29dfbd5912c86f25ca9fef2c85a62f6aec5653a4222a8821c06de664736f6c63430008130033",
  "linkReferences": {},
  "deployedLinkReferences": {}
}