{
  "_format": "hh-sol-artifact-1",
  "contractName": "FlightPolicy",
  "sourceName": "contracts/FlightPolicy.sol",
  "abi": [
    {
      "inputs": [],
      "stateMutability": "nonpayable",
      "type": "constructor"
    },
    {
      "inputs": [
        {
          "internalType": "uint256",
          "name": "policyId",
          "type": "uint256"
        },
        {
          "internalType": "address",
          "name": "buyer",
          "type": "address"
        }
      ],
      "name": "claimPayout",
      "outputs": [],
      "stateMutability": "nonpayable",
      "type": "function"
    },
    {
      "inputs": [],
      "name": "getAllPolicies",
      "outputs": [
        {
          "components": [
            {
              "internalType": "uint256",
              "name": "policyId",
              "type": "uint256"
            },
            {
              "components": [
                {
                  "internalType": "string",
                  "name": "templateId",
                  "type": "string"
                },
                {
                  "internalType": "string",
                  "name": "name",
                  "type": "string"
                },
                {
                  "internalType": "string",
                  "name": "description",
                  "type": "string"
                },
                {
                  "internalType": "uint256",
                  "name": "createdAt",
                  "type": "uint256"
                },
                {
                  "internalType": "uint256",
                  "name": "updatedAt",
                  "type": "uint256"
                },
                {
                  "internalType": "uint256",
                  "name": "premium",
                  "type": "uint256"
                },
                {
                  "internalType": "uint256",
                  "name": "payoutPerHour",
                  "type": "uint256"
                },
                {
                  "internalType": "uint256",
                  "name": "delayThresholdHours",
                  "type": "uint256"
                },
                {
                  "internalType": "uint256",
                  "name": "maxTotalPayout",
                  "type": "uint256"
                },
                {
                  "internalType": "uint256",
                  "name": "coverageDurationDays",
                  "type": "uint256"
                },
                {
                  "internalType": "enum FlightPolicy.PolicyTemplateStatus",
                  "name": "status",
                  "type": "uint8"
                }
              ],
              "internalType": "struct FlightPolicy.PolicyTemplate",
              "name": "template",
              "type": "tuple"
            },
            {
              "internalType": "string",
              "name": "flightNumber",
              "type": "string"
            },
            {
              "internalType": "string",
              "name": "departureAirportCode",
              "type": "string"
            },
            {
              "internalType": "string",
              "name": "arrivalAirportCode",
              "type": "string"
            },
            {
              "internalType": "uint256",
              "name": "departureTime",
              "type": "uint256"
            },
            {
              "internalType": "uint256",
              "name": "createdAt",
              "type": "uint256"
            },
            {
              "internalType": "uint256",
              "name": "payoutToDate",
              "type": "uint256"
            },
            {
              "internalType": "address",
              "name": "buyer",
              "type": "address"
            },
            {
              "internalType": "enum FlightPolicy.PolicyStatus",
              "name": "status",
              "type": "uint8"
            }
          ],
          "internalType": "struct FlightPolicy.UserPolicy[]",
          "name": "",
          "type": "tuple[]"
        }
      ],
      "stateMutability": "view",
      "type": "function"
    },
    {
      "inputs": [
        {
          "internalType": "address",
          "name": "user",
          "type": "address"
        }
      ],
      "name": "getUserPolicies",
      "outputs": [
        {
          "components": [
            {
              "internalType": "uint256",
              "name": "policyId",
              "type": "uint256"
            },
            {
              "components": [
                {
                  "internalType": "string",
                  "name": "templateId",
                  "type": "string"
                },
                {
                  "internalType": "string",
                  "name": "name",
                  "type": "string"
                },
                {
                  "internalType": "string",
                  "name": "description",
                  "type": "string"
                },
                {
                  "internalType": "uint256",
                  "name": "createdAt",
                  "type": "uint256"
                },
                {
                  "internalType": "uint256",
                  "name": "updatedAt",
                  "type": "uint256"
                },
                {
                  "internalType": "uint256",
                  "name": "premium",
                  "type": "uint256"
                },
                {
                  "internalType": "uint256",
                  "name": "payoutPerHour",
                  "type": "uint256"
                },
                {
                  "internalType": "uint256",
                  "name": "delayThresholdHours",
                  "type": "uint256"
                },
                {
                  "internalType": "uint256",
                  "name": "maxTotalPayout",
                  "type": "uint256"
                },
                {
                  "internalType": "uint256",
                  "name": "coverageDurationDays",
                  "type": "uint256"
                },
                {
                  "internalType": "enum FlightPolicy.PolicyTemplateStatus",
                  "name": "status",
                  "type": "uint8"
                }
              ],
              "internalType": "struct FlightPolicy.PolicyTemplate",
              "name": "template",
              "type": "tuple"
            },
            {
              "internalType": "string",
              "name": "flightNumber",
              "type": "string"
            },
            {
              "internalType": "string",
              "name": "departureAirportCode",
              "type": "string"
            },
            {
              "internalType": "string",
              "name": "arrivalAirportCode",
              "type": "string"
            },
            {
              "internalType": "uint256",
              "name": "departureTime",
              "type": "uint256"
            },
            {
              "internalType": "uint256",
              "name": "createdAt",
              "type": "uint256"
            },
            {
              "internalType": "uint256",
              "name": "payoutToDate",
              "type": "uint256"
            },
            {
              "internalType": "address",
              "name": "buyer",
              "type": "address"
            },
            {
              "internalType": "enum FlightPolicy.PolicyStatus",
              "name": "status",
              "type": "uint8"
            }
          ],
          "internalType": "struct FlightPolicy.UserPolicy[]",
          "name": "",
          "type": "tuple[]"
        }
      ],
      "stateMutability": "view",
      "type": "function"
    },
    {
      "inputs": [
        {
          "internalType": "string",
          "name": "templateId",
          "type": "string"
        }
      ],
      "name": "getUserPoliciesByTemplate",
      "outputs": [
        {
          "components": [
            {
              "internalType": "uint256",
              "name": "policyId",
              "type": "uint256"
            },
            {
              "components": [
                {
                  "internalType": "string",
                  "name": "templateId",
                  "type": "string"
                },
                {
                  "internalType": "string",
                  "name": "name",
                  "type": "string"
                },
                {
                  "internalType": "string",
                  "name": "description",
                  "type": "string"
                },
                {
                  "internalType": "uint256",
                  "name": "createdAt",
                  "type": "uint256"
                },
                {
                  "internalType": "uint256",
                  "name": "updatedAt",
                  "type": "uint256"
                },
                {
                  "internalType": "uint256",
                  "name": "premium",
                  "type": "uint256"
                },
                {
                  "internalType": "uint256",
                  "name": "payoutPerHour",
                  "type": "uint256"
                },
                {
                  "internalType": "uint256",
                  "name": "delayThresholdHours",
                  "type": "uint256"
                },
                {
                  "internalType": "uint256",
                  "name": "maxTotalPayout",
                  "type": "uint256"
                },
                {
                  "internalType": "uint256",
                  "name": "coverageDurationDays",
                  "type": "uint256"
                },
                {
                  "internalType": "enum FlightPolicy.PolicyTemplateStatus",
                  "name": "status",
                  "type": "uint8"
                }
              ],
              "internalType": "struct FlightPolicy.PolicyTemplate",
              "name": "template",
              "type": "tuple"
            },
            {
              "internalType": "string",
              "name": "flightNumber",
              "type": "string"
            },
            {
              "internalType": "string",
              "name": "departureAirportCode",
              "type": "string"
            },
            {
              "internalType": "string",
              "name": "arrivalAirportCode",
              "type": "string"
            },
            {
              "internalType": "uint256",
              "name": "departureTime",
              "type": "uint256"
            },
            {
              "internalType": "uint256",
              "name": "createdAt",
              "type": "uint256"
            },
            {
              "internalType": "uint256",
              "name": "payoutToDate",
              "type": "uint256"
            },
            {
              "internalType": "address",
              "name": "buyer",
              "type": "address"
            },
            {
              "internalType": "enum FlightPolicy.PolicyStatus",
              "name": "status",
              "type": "uint8"
            }
          ],
          "internalType": "struct FlightPolicy.UserPolicy[]",
          "name": "",
          "type": "tuple[]"
        }
      ],
      "stateMutability": "view",
      "type": "function"
    },
    {
      "inputs": [],
      "name": "insurerAddress",
      "outputs": [
        {
          "internalType": "address",
          "name": "",
          "type": "address"
        }
      ],
      "stateMutability": "view",
      "type": "function"
    },
    {
      "inputs": [
        {
          "internalType": "uint256",
          "name": "policyId",
          "type": "uint256"
        }
      ],
      "name": "markPolicyAsExpired",
      "outputs": [],
      "stateMutability": "nonpayable",
      "type": "function"
    },
    {
      "inputs": [],
      "name": "nextUserPolicyId",
      "outputs": [
        {
          "internalType": "uint256",
          "name": "",
          "type": "uint256"
        }
      ],
      "stateMutability": "view",
      "type": "function"
    },
    {
      "inputs": [],
      "name": "oracleConnector",
      "outputs": [
        {
          "internalType": "contract OracleConnector",
          "name": "",
          "type": "address"
        }
      ],
      "stateMutability": "view",
      "type": "function"
    },
    {
      "inputs": [
        {
          "components": [
            {
              "internalType": "string",
              "name": "templateId",
              "type": "string"
            },
            {
              "internalType": "string",
              "name": "name",
              "type": "string"
            },
            {
              "internalType": "string",
              "name": "description",
              "type": "string"
            },
            {
              "internalType": "uint256",
              "name": "createdAt",
              "type": "uint256"
            },
            {
              "internalType": "uint256",
              "name": "updatedAt",
              "type": "uint256"
            },
            {
              "internalType": "uint256",
              "name": "premium",
              "type": "uint256"
            },
            {
              "internalType": "uint256",
              "name": "payoutPerHour",
              "type": "uint256"
            },
            {
              "internalType": "uint256",
              "name": "delayThresholdHours",
              "type": "uint256"
            },
            {
              "internalType": "uint256",
              "name": "maxTotalPayout",
              "type": "uint256"
            },
            {
              "internalType": "uint256",
              "name": "coverageDurationDays",
              "type": "uint256"
            },
            {
              "internalType": "enum FlightPolicy.PolicyTemplateStatus",
              "name": "status",
              "type": "uint8"
            }
          ],
          "internalType": "struct FlightPolicy.PolicyTemplate",
          "name": "template",
          "type": "tuple"
        },
        {
          "internalType": "string",
          "name": "flightNumber",
          "type": "string"
        },
        {
          "internalType": "string",
          "name": "departureAirportCode",
          "type": "string"
        },
        {
          "internalType": "string",
          "name": "arrivalAirportCode",
          "type": "string"
        },
        {
          "internalType": "uint256",
          "name": "departureTime",
          "type": "uint256"
        },
        {
          "internalType": "address",
          "name": "buyer",
          "type": "address"
        }
      ],
      "name": "purchasePolicy",
      "outputs": [
        {
          "internalType": "uint256",
          "name": "",
          "type": "uint256"
        }
      ],
      "stateMutability": "payable",
      "type": "function"
    },
    {
      "inputs": [
        {
          "internalType": "address",
          "name": "_oracleConnector",
          "type": "address"
        }
      ],
      "name": "setOracleConnector",
      "outputs": [],
      "stateMutability": "nonpayable",
      "type": "function"
    },
    {
      "inputs": [
        {
          "internalType": "uint256",
          "name": "",
          "type": "uint256"
        }
      ],
      "name": "userPolicies",
      "outputs": [
        {
          "internalType": "uint256",
          "name": "policyId",
          "type": "uint256"
        },
        {
          "components": [
            {
              "internalType": "string",
              "name": "templateId",
              "type": "string"
            },
            {
              "internalType": "string",
              "name": "name",
              "type": "string"
            },
            {
              "internalType": "string",
              "name": "description",
              "type": "string"
            },
            {
              "internalType": "uint256",
              "name": "createdAt",
              "type": "uint256"
            },
            {
              "internalType": "uint256",
              "name": "updatedAt",
              "type": "uint256"
            },
            {
              "internalType": "uint256",
              "name": "premium",
              "type": "uint256"
            },
            {
              "internalType": "uint256",
              "name": "payoutPerHour",
              "type": "uint256"
            },
            {
              "internalType": "uint256",
              "name": "delayThresholdHours",
              "type": "uint256"
            },
            {
              "internalType": "uint256",
              "name": "maxTotalPayout",
              "type": "uint256"
            },
            {
              "internalType": "uint256",
              "name": "coverageDurationDays",
              "type": "uint256"
            },
            {
              "internalType": "enum FlightPolicy.PolicyTemplateStatus",
              "name": "status",
              "type": "uint8"
            }
          ],
          "internalType": "struct FlightPolicy.PolicyTemplate",
          "name": "template",
          "type": "tuple"
        },
        {
          "internalType": "string",
          "name": "flightNumber",
          "type": "string"
        },
        {
          "internalType": "string",
          "name": "departureAirportCode",
          "type": "string"
        },
        {
          "internalType": "string",
          "name": "arrivalAirportCode",
          "type": "string"
        },
        {
          "internalType": "uint256",
          "name": "departureTime",
          "type": "uint256"
        },
        {
          "internalType": "uint256",
          "name": "createdAt",
          "type": "uint256"
        },
        {
          "internalType": "uint256",
          "name": "payoutToDate",
          "type": "uint256"
        },
        {
          "internalType": "address",
          "name": "buyer",
          "type": "address"
        },
        {
          "internalType": "enum FlightPolicy.PolicyStatus",
          "name": "status",
          "type": "uint8"
        }
      ],
      "stateMutability": "view",
      "type": "function"
    },
    {
      "inputs": [
        {
          "internalType": "address",
          "name": "",
          "type": "address"
        },
        {
          "internalType": "uint256",
          "name": "",
          "type": "uint256"
        }
      ],
      "name": "userPolicyIds",
      "outputs": [
        {
          "internalType": "uint256",
          "name": "",
          "type": "uint256"
        }
      ],
      "stateMutability": "view",
      "type": "function"
    }
  ],
  "bytecode": "0x60a060405234801561001057600080fd5b5060016000819055503373ffffffffffffffffffffffffffffffffffffffff1660808173ffffffffffffffffffffffffffffffffffffffff168152505060805161414e61007d60003960008181610cd5015281816119a201528181611a7401526122f4015261414e6000f3fe6080604052600436106100a75760003560e01c8063a233d41411610064578063a233d414146101d7578063a7c0900e14610200578063b0110cc61461022b578063b6e283e114610254578063cba85f0614610291578063cf39c624146102d7576100a7565b806319ac4614146100ac57806331953ecc146100e9578063457e5521146101195780637b956415146101445780639a9122ac1461016f5780639c6cf7ef1461019a575b600080fd5b3480156100b857600080fd5b506100d360048036038101906100ce91906128c9565b610300565b6040516100e09190612d1b565b60405180910390f35b61010360048036038101906100fe919061302d565b61091d565b6040516101109190613139565b60405180910390f35b34801561012557600080fd5b5061012e610cd1565b60405161013b9190612d1b565b60405180910390f35b34801561015057600080fd5b506101596112df565b6040516101669190613139565b60405180910390f35b34801561017b57600080fd5b506101846112e5565b60405161019191906131b3565b60405180910390f35b3480156101a657600080fd5b506101c160048036038101906101bc91906131ce565b61130b565b6040516101ce9190612d1b565b60405180910390f35b3480156101e357600080fd5b506101fe60048036038101906101f991906128c9565b6119a0565b005b34801561020c57600080fd5b50610215611a72565b6040516102229190613226565b60405180910390f35b34801561023757600080fd5b50610252600480360381019061024d9190613241565b611a96565b005b34801561026057600080fd5b5061027b60048036038101906102769190613281565b611e66565b6040516102889190613139565b60405180910390f35b34801561029d57600080fd5b506102b860048036038101906102b391906132c1565b611e97565b6040516102ce9a99989796959493929190613444565b60405180910390f35b3480156102e357600080fd5b506102fe60048036038101906102f991906132c1565b6122f2565b005b60606000600360008473ffffffffffffffffffffffffffffffffffffffff1673ffffffffffffffffffffffffffffffffffffffff16815260200190815260200160002080549050905060008167ffffffffffffffff81111561036557610364612d42565b5b60405190808252806020026020018201604052801561039e57816020015b61038b61276a565b8152602001906001900390816103835790505b50905060005b828110156109125760026000600360008873ffffffffffffffffffffffffffffffffffffffff1673ffffffffffffffffffffffffffffffffffffffff1681526020019081526020016000208381548110610401576104006134fc565b5b90600052602060002001548152602001908152602001600020604051806101400160405290816000820154815260200160018201604051806101600160405290816000820180546104519061355a565b80601f016020809104026020016040519081016040528092919081815260200182805461047d9061355a565b80156104ca5780601f1061049f576101008083540402835291602001916104ca565b820191906000526020600020905b8154815290600101906020018083116104ad57829003601f168201915b505050505081526020016001820180546104e39061355a565b80601f016020809104026020016040519081016040528092919081815260200182805461050f9061355a565b801561055c5780601f106105315761010080835404028352916020019161055c565b820191906000526020600020905b81548152906001019060200180831161053f57829003601f168201915b505050505081526020016002820180546105759061355a565b80601f01602080910402602001604051908101604052809291908181526020018280546105a19061355a565b80156105ee5780601f106105c3576101008083540402835291602001916105ee565b820191906000526020600020905b8154815290600101906020018083116105d157829003601f168201915b5050505050815260200160038201548152602001600482015481526020016005820154815260200160068201548152602001600782015481526020016008820154815260200160098201548152602001600a820160009054906101000a900460ff166001811115610662576106616129cb565b5b6001811115610674576106736129cb565b5b815250508152602001600c8201805461068c9061355a565b80601f01602080910402602001604051908101604052809291908181526020018280546106b89061355a565b80156107055780601f106106da57610100808354040283529160200191610705565b820191906000526020600020905b8154815290600101906020018083116106e857829003601f168201915b50505050508152602001600d8201805461071e9061355a565b80601f016020809104026020016040519081016040528092919081815260200182805461074a9061355a565b80156107975780601f1061076c57610100808354040283529160200191610797565b820191906000526020600020905b81548152906001019060200180831161077a57829003601f168201915b50505050508152602001600e820180546107b09061355a565b80601f01602080910402602001604051908101604052809291908181526020018280546107dc9061355a565b80156108295780601f106107fe57610100808354040283529160200191610829565b820191906000526020600020905b81548152906001019060200180831161080c57829003601f168201915b50505050508152602001600f820154815260200160108201548152602001601182015481526020016012820160009054906101000a900473ffffffffffffffffffffffffffffffffffffffff1673ffffffffffffffffffffffffffffffffffffffff1673ffffffffffffffffffffffffffffffffffffffff1681526020016012820160149054906101000a900460ff1660028111156108cb576108ca6129cb565b5b60028111156108dd576108dc6129cb565b5b815250508282815181106108f4576108f36134fc565b5b6020026020010181905250808061090a906135ba565b9150506103a4565b508092505050919050565b6000806001811115610932576109316129cb565b5b876101400151600181111561094a576109496129cb565b5b1461098a576040517f08c379a00000000000000000000000000000000000000000000000000000000081526004016109819061364e565b60405180910390fd5b4283116109cc576040517f08c379a00000000000000000000000000000000000000000000000000000000081526004016109c3906136e0565b60405180910390fd5b8660a00151341015610a13576040517f08c379a0000000000000000000000000000000000000000000000000000000008152600401610a0a9061374c565b60405180910390fd5b600060046000815480929190610a28906135ba565b919050559050604051806101400160405280828152602001898152602001888152602001878152602001868152602001858152602001428152602001600081526020018473ffffffffffffffffffffffffffffffffffffffff16815260200160006002811115610a9b57610a9a6129cb565b5b81525060026000838152602001908152602001600020600082015181600001556020820151816001016000820151816000019081610ad9919061390e565b506020820151816001019081610aef919061390e565b506040820151816002019081610b05919061390e565b50606082015181600301556080820151816004015560a0820151816005015560c0820151816006015560e082015181600701556101008201518160080155610120820151816009015561014082015181600a0160006101000a81548160ff02191690836001811115610b7a57610b796129cb565b5b02179055505050604082015181600c019081610b96919061390e565b50606082015181600d019081610bac919061390e565b50608082015181600e019081610bc2919061390e565b5060a082015181600f015560c0820151816010015560e082015181601101556101008201518160120160006101000a81548173ffffffffffffffffffffffffffffffffffffffff021916908373ffffffffffffffffffffffffffffffffffffffff1602179055506101208201518160120160146101000a81548160ff02191690836002811115610c5557610c546129cb565b5b0217905550905050600360008473ffffffffffffffffffffffffffffffffffffffff1673ffffffffffffffffffffffffffffffffffffffff168152602001908152602001600020819080600181540180825580915050600190039060005260206000200160009091909190915055809150509695505050505050565b60607f000000000000000000000000000000000000000000000000000000000000000073ffffffffffffffffffffffffffffffffffffffff163273ffffffffffffffffffffffffffffffffffffffff1614610d61576040517f08c379a0000000000000000000000000000000000000000000000000000000008152600401610d5890613a52565b60405180910390fd5b6000600454905060008167ffffffffffffffff811115610d8457610d83612d42565b5b604051908082528060200260200182016040528015610dbd57816020015b610daa61276a565b815260200190600190039081610da25790505b50905060005b828110156112d6576002600082815260200190815260200160002060405180610140016040529081600082015481526020016001820160405180610160016040529081600082018054610e159061355a565b80601f0160208091040260200160405190810160405280929190818152602001828054610e419061355a565b8015610e8e5780601f10610e6357610100808354040283529160200191610e8e565b820191906000526020600020905b815481529060010190602001808311610e7157829003601f168201915b50505050508152602001600182018054610ea79061355a565b80601f0160208091040260200160405190810160405280929190818152602001828054610ed39061355a565b8015610f205780601f10610ef557610100808354040283529160200191610f20565b820191906000526020600020905b815481529060010190602001808311610f0357829003601f168201915b50505050508152602001600282018054610f399061355a565b80601f0160208091040260200160405190810160405280929190818152602001828054610f659061355a565b8015610fb25780601f10610f8757610100808354040283529160200191610fb2565b820191906000526020600020905b815481529060010190602001808311610f9557829003601f168201915b5050505050815260200160038201548152602001600482015481526020016005820154815260200160068201548152602001600782015481526020016008820154815260200160098201548152602001600a820160009054906101000a900460ff166001811115611026576110256129cb565b5b6001811115611038576110376129cb565b5b815250508152602001600c820180546110509061355a565b80601f016020809104026020016040519081016040528092919081815260200182805461107c9061355a565b80156110c95780601f1061109e576101008083540402835291602001916110c9565b820191906000526020600020905b8154815290600101906020018083116110ac57829003601f168201915b50505050508152602001600d820180546110e29061355a565b80601f016020809104026020016040519081016040528092919081815260200182805461110e9061355a565b801561115b5780601f106111305761010080835404028352916020019161115b565b820191906000526020600020905b81548152906001019060200180831161113e57829003601f168201915b50505050508152602001600e820180546111749061355a565b80601f01602080910402602001604051908101604052809291908181526020018280546111a09061355a565b80156111ed5780601f106111c2576101008083540402835291602001916111ed565b820191906000526020600020905b8154815290600101906020018083116111d057829003601f168201915b50505050508152602001600f820154815260200160108201548152602001601182015481526020016012820160009054906101000a900473ffffffffffffffffffffffffffffffffffffffff1673ffffffffffffffffffffffffffffffffffffffff1673ffffffffffffffffffffffffffffffffffffffff1681526020016012820160149054906101000a900460ff16600281111561128f5761128e6129cb565b5b60028111156112a1576112a06129cb565b5b815250508282815181106112b8576112b76134fc565b5b602002602001018190525080806112ce906135ba565b915050610dc3565b50809250505090565b60045481565b600160009054906101000a900473ffffffffffffffffffffffffffffffffffffffff1681565b60606000805b6004548110156113a8578360405160200161132c9190613aae565b604051602081830303815290604052805190602001206002600083815260200190815260200160002060010160000160405160200161136b9190613b48565b6040516020818303038152906040528051906020012003611395578180611391906135ba565b9250505b80806113a0906135ba565b915050611311565b5060008167ffffffffffffffff8111156113c5576113c4612d42565b5b6040519080825280602002602001820160405280156113fe57816020015b6113eb61276a565b8152602001906001900390816113e35790505b5090506000805b60045481101561199457856040516020016114209190613aae565b604051602081830303815290604052805190602001206002600083815260200190815260200160002060010160000160405160200161145f9190613b48565b60405160208183030381529060405280519060200120036119815760026000828152602001908152602001600020604051806101400160405290816000820154815260200160018201604051806101600160405290816000820180546114c49061355a565b80601f01602080910402602001604051908101604052809291908181526020018280546114f09061355a565b801561153d5780601f106115125761010080835404028352916020019161153d565b820191906000526020600020905b81548152906001019060200180831161152057829003601f168201915b505050505081526020016001820180546115569061355a565b80601f01602080910402602001604051908101604052809291908181526020018280546115829061355a565b80156115cf5780601f106115a4576101008083540402835291602001916115cf565b820191906000526020600020905b8154815290600101906020018083116115b257829003601f168201915b505050505081526020016002820180546115e89061355a565b80601f01602080910402602001604051908101604052809291908181526020018280546116149061355a565b80156116615780601f1061163657610100808354040283529160200191611661565b820191906000526020600020905b81548152906001019060200180831161164457829003601f168201915b5050505050815260200160038201548152602001600482015481526020016005820154815260200160068201548152602001600782015481526020016008820154815260200160098201548152602001600a820160009054906101000a900460ff1660018111156116d5576116d46129cb565b5b60018111156116e7576116e66129cb565b5b815250508152602001600c820180546116ff9061355a565b80601f016020809104026020016040519081016040528092919081815260200182805461172b9061355a565b80156117785780601f1061174d57610100808354040283529160200191611778565b820191906000526020600020905b81548152906001019060200180831161175b57829003601f168201915b50505050508152602001600d820180546117919061355a565b80601f01602080910402602001604051908101604052809291908181526020018280546117bd9061355a565b801561180a5780601f106117df5761010080835404028352916020019161180a565b820191906000526020600020905b8154815290600101906020018083116117ed57829003601f168201915b50505050508152602001600e820180546118239061355a565b80601f016020809104026020016040519081016040528092919081815260200182805461184f9061355a565b801561189c5780601f106118715761010080835404028352916020019161189c565b820191906000526020600020905b81548152906001019060200180831161187f57829003601f168201915b50505050508152602001600f820154815260200160108201548152602001601182015481526020016012820160009054906101000a900473ffffffffffffffffffffffffffffffffffffffff1673ffffffffffffffffffffffffffffffffffffffff1673ffffffffffffffffffffffffffffffffffffffff1681526020016012820160149054906101000a900460ff16600281111561193e5761193d6129cb565b5b60028111156119505761194f6129cb565b5b81525050838381518110611967576119666134fc565b5b6020026020010181905250818061197d906135ba565b9250505b808061198c906135ba565b915050611405565b50819350505050919050565b7f000000000000000000000000000000000000000000000000000000000000000073ffffffffffffffffffffffffffffffffffffffff163273ffffffffffffffffffffffffffffffffffffffff1614611a2e576040517f08c379a0000000000000000000000000000000000000000000000000000000008152600401611a2590613a52565b60405180910390fd5b80600160006101000a81548173ffffffffffffffffffffffffffffffffffffffff021916908373ffffffffffffffffffffffffffffffffffffffff16021790555050565b7f000000000000000000000000000000000000000000000000000000000000000081565b611a9e6124f0565b6004548210611ae2576040517f08c379a0000000000000000000000000000000000000000000000000000000008152600401611ad990613bab565b60405180910390fd5b60006002600084815260200190815260200160002090508060120160009054906101000a900473ffffffffffffffffffffffffffffffffffffffff1673ffffffffffffffffffffffffffffffffffffffff168273ffffffffffffffffffffffffffffffffffffffff1614611b8b576040517f08c379a0000000000000000000000000000000000000000000000000000000008152600401611b8290613c17565b60405180910390fd5b60006002811115611b9f57611b9e6129cb565b5b8160120160149054906101000a900460ff166002811115611bc357611bc26129cb565b5b14611c03576040517f08c379a0000000000000000000000000000000000000000000000000000000008152600401611bfa90613c83565b60405180910390fd5b6000611c1282600f015461253f565b9050600080600160009054906101000a900473ffffffffffffffffffffffffffffffffffffffff1673ffffffffffffffffffffffffffffffffffffffff166326ec641e85600c01856040518363ffffffff1660e01b8152600401611c77929190613d27565b60408051808303816000875af1158015611c95573d6000803e3d6000fd5b505050506040513d601f19601f82011682018060405250810190611cb99190613dab565b9150915081611cfd576040517f08c379a0000000000000000000000000000000000000000000000000000000008152600401611cf490613e37565b60405180910390fd5b6000846001016006015482611d129190613e57565b90508460010160080154811115611d2e57846001016008015490505b60008111611d71576040517f08c379a0000000000000000000000000000000000000000000000000000000008152600401611d6890613ee5565b60405180910390fd5b80471015611db4576040517f08c379a0000000000000000000000000000000000000000000000000000000008152600401611dab90613f51565b60405180910390fd5b60028560120160146101000a81548160ff02191690836002811115611ddc57611ddb6129cb565b5b02179055508085601101819055508460120160009054906101000a900473ffffffffffffffffffffffffffffffffffffffff1673ffffffffffffffffffffffffffffffffffffffff166108fc829081150290604051600060405180830381858888f19350505050158015611e54573d6000803e3d6000fd5b505050505050611e6261260d565b5050565b60036020528160005260406000208181548110611e8257600080fd5b90600052602060002001600091509150505481565b60026020528060005260406000206000915090508060000154908060010160405180610160016040529081600082018054611ed19061355a565b80601f0160208091040260200160405190810160405280929190818152602001828054611efd9061355a565b8015611f4a5780601f10611f1f57610100808354040283529160200191611f4a565b820191906000526020600020905b815481529060010190602001808311611f2d57829003601f168201915b50505050508152602001600182018054611f639061355a565b80601f0160208091040260200160405190810160405280929190818152602001828054611f8f9061355a565b8015611fdc5780601f10611fb157610100808354040283529160200191611fdc565b820191906000526020600020905b815481529060010190602001808311611fbf57829003601f168201915b50505050508152602001600282018054611ff59061355a565b80601f01602080910402602001604051908101604052809291908181526020018280546120219061355a565b801561206e5780601f106120435761010080835404028352916020019161206e565b820191906000526020600020905b81548152906001019060200180831161205157829003601f168201915b5050505050815260200160038201548152602001600482015481526020016005820154815260200160068201548152602001600782015481526020016008820154815260200160098201548152602001600a820160009054906101000a900460ff1660018111156120e2576120e16129cb565b5b60018111156120f4576120f36129cb565b5b815250509080600c0180546121089061355a565b80601f01602080910402602001604051908101604052809291908181526020018280546121349061355a565b80156121815780601f1061215657610100808354040283529160200191612181565b820191906000526020600020905b81548152906001019060200180831161216457829003601f168201915b50505050509080600d0180546121969061355a565b80601f01602080910402602001604051908101604052809291908181526020018280546121c29061355a565b801561220f5780601f106121e45761010080835404028352916020019161220f565b820191906000526020600020905b8154815290600101906020018083116121f257829003601f168201915b50505050509080600e0180546122249061355a565b80601f01602080910402602001604051908101604052809291908181526020018280546122509061355a565b801561229d5780601f106122725761010080835404028352916020019161229d565b820191906000526020600020905b81548152906001019060200180831161228057829003601f168201915b50505050509080600f0154908060100154908060110154908060120160009054906101000a900473ffffffffffffffffffffffffffffffffffffffff16908060120160149054906101000a900460ff1690508a565b7f000000000000000000000000000000000000000000000000000000000000000073ffffffffffffffffffffffffffffffffffffffff163273ffffffffffffffffffffffffffffffffffffffff1614612380576040517f08c379a000000000000000000000000000000000000000000000000000000000815260040161237790613a52565b60405180910390fd5b60045481106123c4576040517f08c379a00000000000000000000000000000000000000000000000000000000081526004016123bb90613bab565b60405180910390fd5b6000600260008381526020019081526020016000209050600060028111156123ef576123ee6129cb565b5b8160120160149054906101000a900460ff166002811115612413576124126129cb565b5b14612453576040517f08c379a000000000000000000000000000000000000000000000000000000000815260040161244a90613fbd565b60405180910390fd5b600062015180826001016009015461246b9190613e57565b826010015461247a9190613fdd565b90508042116124be576040517f08c379a00000000000000000000000000000000000000000000000000000000081526004016124b59061405d565b60405180910390fd5b60018260120160146101000a81548160ff021916908360028111156124e6576124e56129cb565b5b0217905550505050565b600260005403612535576040517f08c379a000000000000000000000000000000000000000000000000000000000815260040161252c906140c9565b60405180910390fd5b6002600081905550565b60606000600161254e84612617565b01905060008167ffffffffffffffff81111561256d5761256c612d42565b5b6040519080825280601f01601f19166020018201604052801561259f5781602001600182028036833780820191505090505b509050600082602001820190505b600115612602578080600190039150507f3031323334353637383961626364656600000000000000000000000000000000600a86061a8153600a85816125f6576125f56140e9565b5b049450600085036125ad575b819350505050919050565b6001600081905550565b600080600090507a184f03e93ff9f4daa797ed6e38ed64bf6a1f0100000000000000008310612675577a184f03e93ff9f4daa797ed6e38ed64bf6a1f010000000000000000838161266b5761266a6140e9565b5b0492506040810190505b6d04ee2d6d415b85acef810000000083106126b2576d04ee2d6d415b85acef810000000083816126a8576126a76140e9565b5b0492506020810190505b662386f26fc1000083106126e157662386f26fc1000083816126d7576126d66140e9565b5b0492506010810190505b6305f5e100831061270a576305f5e1008381612700576126ff6140e9565b5b0492506008810190505b612710831061272f576127108381612725576127246140e9565b5b0492506004810190505b606483106127525760648381612748576127476140e9565b5b0492506002810190505b600a8310612761576001810190505b80915050919050565b604051806101400160405280600081526020016127856127eb565b8152602001606081526020016060815260200160608152602001600081526020016000815260200160008152602001600073ffffffffffffffffffffffffffffffffffffffff168152602001600060028111156127e5576127e46129cb565b5b81525090565b6040518061016001604052806060815260200160608152602001606081526020016000815260200160008152602001600081526020016000815260200160008152602001600081526020016000815260200160006001811115612851576128506129cb565b5b81525090565b6000604051905090565b600080fd5b600080fd5b600073ffffffffffffffffffffffffffffffffffffffff82169050919050565b60006128968261286b565b9050919050565b6128a68161288b565b81146128b157600080fd5b50565b6000813590506128c38161289d565b92915050565b6000602082840312156128df576128de612861565b5b60006128ed848285016128b4565b91505092915050565b600081519050919050565b600082825260208201905092915050565b6000819050602082019050919050565b6000819050919050565b61293581612922565b82525050565b600081519050919050565b600082825260208201905092915050565b60005b8381101561297557808201518184015260208101905061295a565b60008484015250505050565b6000601f19601f8301169050919050565b600061299d8261293b565b6129a78185612946565b93506129b7818560208601612957565b6129c081612981565b840191505092915050565b7f4e487b7100000000000000000000000000000000000000000000000000000000600052602160045260246000fd5b60028110612a0b57612a0a6129cb565b5b50565b6000819050612a1c826129fa565b919050565b6000612a2c82612a0e565b9050919050565b612a3c81612a21565b82525050565b6000610160830160008301518482036000860152612a608282612992565b91505060208301518482036020860152612a7a8282612992565b91505060408301518482036040860152612a948282612992565b9150506060830151612aa9606086018261292c565b506080830151612abc608086018261292c565b5060a0830151612acf60a086018261292c565b5060c0830151612ae260c086018261292c565b5060e0830151612af560e086018261292c565b50610100830151612b0a61010086018261292c565b50610120830151612b1f61012086018261292c565b50610140830151612b34610140860182612a33565b508091505092915050565b612b488161288b565b82525050565b60038110612b5f57612b5e6129cb565b5b50565b6000819050612b7082612b4e565b919050565b6000612b8082612b62565b9050919050565b612b9081612b75565b82525050565b600061014083016000830151612baf600086018261292c565b5060208301518482036020860152612bc78282612a42565b91505060408301518482036040860152612be18282612992565b91505060608301518482036060860152612bfb8282612992565b91505060808301518482036080860152612c158282612992565b91505060a0830151612c2a60a086018261292c565b5060c0830151612c3d60c086018261292c565b5060e0830151612c5060e086018261292c565b50610100830151612c65610100860182612b3f565b50610120830151612c7a610120860182612b87565b508091505092915050565b6000612c918383612b96565b905092915050565b6000602082019050919050565b6000612cb1826128f6565b612cbb8185612901565b935083602082028501612ccd85612912565b8060005b85811015612d095784840389528151612cea8582612c85565b9450612cf583612c99565b925060208a01995050600181019050612cd1565b50829750879550505050505092915050565b60006020820190508181036000830152612d358184612ca6565b905092915050565b600080fd5b7f4e487b7100000000000000000000000000000000000000000000000000000000600052604160045260246000fd5b612d7a82612981565b810181811067ffffffffffffffff82111715612d9957612d98612d42565b5b80604052505050565b6000612dac612857565b9050612db88282612d71565b919050565b600080fd5b600080fd5b600080fd5b600067ffffffffffffffff821115612de757612de6612d42565b5b612df082612981565b9050602081019050919050565b82818337600083830152505050565b6000612e1f612e1a84612dcc565b612da2565b905082815260208101848484011115612e3b57612e3a612dc7565b5b612e46848285612dfd565b509392505050565b600082601f830112612e6357612e62612dc2565b5b8135612e73848260208601612e0c565b91505092915050565b612e8581612922565b8114612e9057600080fd5b50565b600081359050612ea281612e7c565b92915050565b60028110612eb557600080fd5b50565b600081359050612ec781612ea8565b92915050565b60006101608284031215612ee457612ee3612d3d565b5b612eef610160612da2565b9050600082013567ffffffffffffffff811115612f0f57612f0e612dbd565b5b612f1b84828501612e4e565b600083015250602082013567ffffffffffffffff811115612f3f57612f3e612dbd565b5b612f4b84828501612e4e565b602083015250604082013567ffffffffffffffff811115612f6f57612f6e612dbd565b5b612f7b84828501612e4e565b6040830152506060612f8f84828501612e93565b6060830152506080612fa384828501612e93565b60808301525060a0612fb784828501612e93565b60a08301525060c0612fcb84828501612e93565b60c08301525060e0612fdf84828501612e93565b60e083015250610100612ff484828501612e93565b6101008301525061012061300a84828501612e93565b6101208301525061014061302084828501612eb8565b6101408301525092915050565b60008060008060008060c0878903121561304a57613049612861565b5b600087013567ffffffffffffffff81111561306857613067612866565b5b61307489828a01612ecd565b965050602087013567ffffffffffffffff81111561309557613094612866565b5b6130a189828a01612e4e565b955050604087013567ffffffffffffffff8111156130c2576130c1612866565b5b6130ce89828a01612e4e565b945050606087013567ffffffffffffffff8111156130ef576130ee612866565b5b6130fb89828a01612e4e565b935050608061310c89828a01612e93565b92505060a061311d89828a016128b4565b9150509295509295509295565b61313381612922565b82525050565b600060208201905061314e600083018461312a565b92915050565b6000819050919050565b600061317961317461316f8461286b565b613154565b61286b565b9050919050565b600061318b8261315e565b9050919050565b600061319d82613180565b9050919050565b6131ad81613192565b82525050565b60006020820190506131c860008301846131a4565b92915050565b6000602082840312156131e4576131e3612861565b5b600082013567ffffffffffffffff81111561320257613201612866565b5b61320e84828501612e4e565b91505092915050565b6132208161288b565b82525050565b600060208201905061323b6000830184613217565b92915050565b6000806040838503121561325857613257612861565b5b600061326685828601612e93565b9250506020613277858286016128b4565b9150509250929050565b6000806040838503121561329857613297612861565b5b60006132a6858286016128b4565b92505060206132b785828601612e93565b9150509250929050565b6000602082840312156132d7576132d6612861565b5b60006132e584828501612e93565b91505092915050565b600061016083016000830151848203600086015261330c8282612992565b915050602083015184820360208601526133268282612992565b915050604083015184820360408601526133408282612992565b9150506060830151613355606086018261292c565b506080830151613368608086018261292c565b5060a083015161337b60a086018261292c565b5060c083015161338e60c086018261292c565b5060e08301516133a160e086018261292c565b506101008301516133b661010086018261292c565b506101208301516133cb61012086018261292c565b506101408301516133e0610140860182612a33565b508091505092915050565b600082825260208201905092915050565b60006134078261293b565b61341181856133eb565b9350613421818560208601612957565b61342a81612981565b840191505092915050565b61343e81612b75565b82525050565b60006101408201905061345a600083018d61312a565b818103602083015261346c818c6132ee565b90508181036040830152613480818b6133fc565b90508181036060830152613494818a6133fc565b905081810360808301526134a881896133fc565b90506134b760a083018861312a565b6134c460c083018761312a565b6134d160e083018661312a565b6134df610100830185613217565b6134ed610120830184613435565b9b9a5050505050505050505050565b7f4e487b7100000000000000000000000000000000000000000000000000000000600052603260045260246000fd5b7f4e487b7100000000000000000000000000000000000000000000000000000000600052602260045260246000fd5b6000600282049050600182168061357257607f821691505b6020821081036135855761358461352b565b5b50919050565b7f4e487b7100000000000000000000000000000000000000000000000000000000600052601160045260246000fd5b60006135c582612922565b91507fffffffffffffffffffffffffffffffffffffffffffffffffffffffffffffffff82036135f7576135f661358b565b5b600182019050919050565b7f506f6c6963792074656d706c617465206973206e6f7420616374697665000000600082015250565b6000613638601d836133eb565b915061364382613602565b602082019050919050565b600060208201905081810360008301526136678161362b565b9050919050565b7f4465706172747572652074696d65206d75737420626520696e2074686520667560008201527f7475726500000000000000000000000000000000000000000000000000000000602082015250565b60006136ca6024836133eb565b91506136d58261366e565b604082019050919050565b600060208201905081810360008301526136f9816136bd565b9050919050565b7f496e73756666696369656e74207072656d69756d2073656e7400000000000000600082015250565b60006137366019836133eb565b915061374182613700565b602082019050919050565b6000602082019050818103600083015261376581613729565b9050919050565b60008190508160005260206000209050919050565b60006020601f8301049050919050565b600082821b905092915050565b6000600883026137ce7fffffffffffffffffffffffffffffffffffffffffffffffffffffffffffffffff82613791565b6137d88683613791565b95508019841693508086168417925050509392505050565b600061380b61380661380184612922565b613154565b612922565b9050919050565b6000819050919050565b613825836137f0565b61383961383182613812565b84845461379e565b825550505050565b600090565b61384e613841565b61385981848461381c565b505050565b5b8181101561387d57613872600082613846565b60018101905061385f565b5050565b601f8211156138c2576138938161376c565b61389c84613781565b810160208510156138ab578190505b6138bf6138b785613781565b83018261385e565b50505b505050565b600082821c905092915050565b60006138e5600019846008026138c7565b1980831691505092915050565b60006138fe83836138d4565b9150826002028217905092915050565b6139178261293b565b67ffffffffffffffff8111156139305761392f612d42565b5b61393a825461355a565b613945828285613881565b600060209050601f8311600181146139785760008415613966578287015190505b61397085826138f2565b8655506139d8565b601f1984166139868661376c565b60005b828110156139ae57848901518255600182019150602085019450602081019050613989565b868310156139cb57848901516139c7601f8916826138d4565b8355505b6001600288020188555050505b505050505050565b7f466c69676874506f6c6963793a204f6e6c792074686520696e7375726572206360008201527f616e2063616c6c20746869732066756e6374696f6e0000000000000000000000602082015250565b6000613a3c6035836133eb565b9150613a47826139e0565b604082019050919050565b60006020820190508181036000830152613a6b81613a2f565b9050919050565b600081905092915050565b6000613a888261293b565b613a928185613a72565b9350613aa2818560208601612957565b80840191505092915050565b6000613aba8284613a7d565b915081905092915050565b60008154613ad28161355a565b613adc8186613a72565b94506001821660008114613af75760018114613b0c57613b3f565b60ff1983168652811515820286019350613b3f565b613b158561376c565b60005b83811015613b3757815481890152600182019150602081019050613b18565b838801955050505b50505092915050565b6000613b548284613ac5565b915081905092915050565b7f496e76616c696420706f6c696379496400000000000000000000000000000000600082015250565b6000613b956010836133eb565b9150613ba082613b5f565b602082019050919050565b60006020820190508181036000830152613bc481613b88565b9050919050565b7f4e6f7420706f6c696379206f776e657200000000000000000000000000000000600082015250565b6000613c016010836133eb565b9150613c0c82613bcb565b602082019050919050565b60006020820190508181036000830152613c3081613bf4565b9050919050565b7f506f6c696379206e6f7420616374697665000000000000000000000000000000600082015250565b6000613c6d6011836133eb565b9150613c7882613c37565b602082019050919050565b60006020820190508181036000830152613c9c81613c60565b9050919050565b60008154613cb08161355a565b613cba81866133eb565b94506001821660008114613cd55760018114613ceb57613d1e565b60ff198316865281151560200286019350613d1e565b613cf48561376c565b60005b83811015613d1657815481890152600182019150602081019050613cf7565b808801955050505b50505092915050565b60006040820190508181036000830152613d418185613ca3565b90508181036020830152613d5581846133fc565b90509392505050565b60008115159050919050565b613d7381613d5e565b8114613d7e57600080fd5b50565b600081519050613d9081613d6a565b92915050565b600081519050613da581612e7c565b92915050565b60008060408385031215613dc257613dc1612861565b5b6000613dd085828601613d81565b9250506020613de185828601613d96565b9150509250929050565b7f466c69676874206e6f742064656c617965640000000000000000000000000000600082015250565b6000613e216012836133eb565b9150613e2c82613deb565b602082019050919050565b60006020820190508181036000830152613e5081613e14565b9050919050565b6000613e6282612922565b9150613e6d83612922565b9250828202613e7b81612922565b91508282048414831517613e9257613e9161358b565b5b5092915050565b7f4e6f207061796f75742064756500000000000000000000000000000000000000600082015250565b6000613ecf600d836133eb565b9150613eda82613e99565b602082019050919050565b60006020820190508181036000830152613efe81613ec2565b9050919050565b7f496e73756666696369656e7420636f6e74726163742062616c616e6365000000600082015250565b6000613f3b601d836133eb565b9150613f4682613f05565b602082019050919050565b60006020820190508181036000830152613f6a81613f2e565b9050919050565b7f506f6c696379206973206e6f7420616374697665000000000000000000000000600082015250565b6000613fa76014836133eb565b9150613fb282613f71565b602082019050919050565b60006020820190508181036000830152613fd681613f9a565b9050919050565b6000613fe882612922565b9150613ff383612922565b925082820190508082111561400b5761400a61358b565b5b92915050565b7f506f6c69637920686173206e6f74206578706972656420796574000000000000600082015250565b6000614047601a836133eb565b915061405282614011565b602082019050919050565b600060208201905081810360008301526140768161403a565b9050919050565b7f5265656e7472616e637947756172643a207265656e7472616e742063616c6c00600082015250565b60006140b3601f836133eb565b91506140be8261407d565b602082019050919050565b600060208201905081810360008301526140e2816140a6565b9050919050565b7f4e487b7100000000000000000000000000000000000000000000000000000000600052601260045260246000fdfea264697066735822122035b7e8ae7423c9d51ce569f66d0eb87d3cc89dee7183ae8318e9d4c866e278d664736f6c63430008130033",
  "linkReferences": {},
  "deployedLinkReferences": {}
}