{
  "_format": "hh-sol-artifact-1",
  "contractName": "FlightPolicy",
  "sourceName": "contracts/FlightPolicy.sol",
  "abi": [
    {
      "inputs": [],
      "stateMutability": "nonpayable",
      "type": "constructor"
    },
    {
      "inputs": [
        {
          "internalType": "string",
          "name": "name",
          "type": "string"
        },
        {
          "internalType": "string",
          "name": "description",
          "type": "string"
        },
        {
          "internalType": "uint256",
          "name": "premium",
          "type": "uint256"
        },
        {
          "internalType": "uint256",
          "name": "payoutPerHour",
          "type": "uint256"
        },
        {
          "internalType": "uint256",
          "name": "delayThresholdHours",
          "type": "uint256"
        },
        {
          "internalType": "uint256",
          "name": "maxTotalPayout",
          "type": "uint256"
        },
        {
          "internalType": "uint256",
          "name": "coverageDurationDays",
          "type": "uint256"
        }
      ],
      "name": "createPolicyTemplate",
      "outputs": [
        {
          "internalType": "uint256",
          "name": "",
          "type": "uint256"
        }
      ],
      "stateMutability": "nonpayable",
      "type": "function"
    },
    {
      "inputs": [
        {
          "internalType": "uint256",
          "name": "templateId",
          "type": "uint256"
        }
      ],
      "name": "deactivatePolicyTemplate",
      "outputs": [],
      "stateMutability": "nonpayable",
      "type": "function"
    },
    {
      "inputs": [],
      "name": "getActivePolicyTemplates",
      "outputs": [
        {
          "components": [
            {
              "internalType": "uint256",
              "name": "templateId",
              "type": "uint256"
            },
            {
              "internalType": "string",
              "name": "name",
              "type": "string"
            },
            {
              "internalType": "string",
              "name": "description",
              "type": "string"
            },
            {
              "internalType": "uint256",
              "name": "createdAt",
              "type": "uint256"
            },
            {
              "internalType": "uint256",
              "name": "premium",
              "type": "uint256"
            },
            {
              "internalType": "uint256",
              "name": "payoutPerHour",
              "type": "uint256"
            },
            {
              "internalType": "uint256",
              "name": "delayThresholdHours",
              "type": "uint256"
            },
            {
              "internalType": "uint256",
              "name": "maxTotalPayout",
              "type": "uint256"
            },
            {
              "internalType": "uint256",
              "name": "coverageDurationDays",
              "type": "uint256"
            },
            {
              "internalType": "enum FlightPolicy.PolicyTemplateStatus",
              "name": "status",
              "type": "uint8"
            }
          ],
          "internalType": "struct FlightPolicy.PolicyTemplate[]",
          "name": "",
          "type": "tuple[]"
        }
      ],
      "stateMutability": "view",
      "type": "function"
    },
    {
      "inputs": [],
      "name": "getAllPolicies",
      "outputs": [
        {
          "components": [
            {
              "internalType": "uint256",
              "name": "policyId",
              "type": "uint256"
            },
            {
              "internalType": "uint256",
              "name": "templateId",
              "type": "uint256"
            },
            {
              "internalType": "string",
              "name": "flightNumber",
              "type": "string"
            },
            {
              "internalType": "string",
              "name": "departureAirportCode",
              "type": "string"
            },
            {
              "internalType": "string",
              "name": "arrivalAirportCode",
              "type": "string"
            },
            {
              "internalType": "uint256",
              "name": "departureTime",
              "type": "uint256"
            },
            {
              "internalType": "uint256",
              "name": "createdAt",
              "type": "uint256"
            },
            {
              "internalType": "uint256",
              "name": "payoutToDate",
              "type": "uint256"
            },
            {
              "internalType": "address",
              "name": "buyer",
              "type": "address"
            },
            {
              "internalType": "enum FlightPolicy.PolicyStatus",
              "name": "status",
              "type": "uint8"
            }
          ],
          "internalType": "struct FlightPolicy.UserPolicy[]",
          "name": "",
          "type": "tuple[]"
        }
      ],
      "stateMutability": "view",
      "type": "function"
    },
    {
      "inputs": [],
      "name": "getAllPolicyTemplates",
      "outputs": [
        {
          "components": [
            {
              "internalType": "uint256",
              "name": "templateId",
              "type": "uint256"
            },
            {
              "internalType": "string",
              "name": "name",
              "type": "string"
            },
            {
              "internalType": "string",
              "name": "description",
              "type": "string"
            },
            {
              "internalType": "uint256",
              "name": "createdAt",
              "type": "uint256"
            },
            {
              "internalType": "uint256",
              "name": "premium",
              "type": "uint256"
            },
            {
              "internalType": "uint256",
              "name": "payoutPerHour",
              "type": "uint256"
            },
            {
              "internalType": "uint256",
              "name": "delayThresholdHours",
              "type": "uint256"
            },
            {
              "internalType": "uint256",
              "name": "maxTotalPayout",
              "type": "uint256"
            },
            {
              "internalType": "uint256",
              "name": "coverageDurationDays",
              "type": "uint256"
            },
            {
              "internalType": "enum FlightPolicy.PolicyTemplateStatus",
              "name": "status",
              "type": "uint8"
            }
          ],
          "internalType": "struct FlightPolicy.PolicyTemplate[]",
          "name": "",
          "type": "tuple[]"
        }
      ],
      "stateMutability": "view",
      "type": "function"
    },
    {
      "inputs": [
        {
          "internalType": "uint256",
          "name": "templateId",
          "type": "uint256"
        }
      ],
      "name": "getPolicyTemplateById",
      "outputs": [
        {
          "components": [
            {
              "internalType": "uint256",
              "name": "templateId",
              "type": "uint256"
            },
            {
              "internalType": "string",
              "name": "name",
              "type": "string"
            },
            {
              "internalType": "string",
              "name": "description",
              "type": "string"
            },
            {
              "internalType": "uint256",
              "name": "createdAt",
              "type": "uint256"
            },
            {
              "internalType": "uint256",
              "name": "premium",
              "type": "uint256"
            },
            {
              "internalType": "uint256",
              "name": "payoutPerHour",
              "type": "uint256"
            },
            {
              "internalType": "uint256",
              "name": "delayThresholdHours",
              "type": "uint256"
            },
            {
              "internalType": "uint256",
              "name": "maxTotalPayout",
              "type": "uint256"
            },
            {
              "internalType": "uint256",
              "name": "coverageDurationDays",
              "type": "uint256"
            },
            {
              "internalType": "enum FlightPolicy.PolicyTemplateStatus",
              "name": "status",
              "type": "uint8"
            }
          ],
          "internalType": "struct FlightPolicy.PolicyTemplate",
          "name": "",
          "type": "tuple"
        }
      ],
      "stateMutability": "view",
      "type": "function"
    },
    {
      "inputs": [
        {
          "internalType": "address",
          "name": "user",
          "type": "address"
        }
      ],
      "name": "getUserPolicies",
      "outputs": [
        {
          "components": [
            {
              "internalType": "uint256",
              "name": "policyId",
              "type": "uint256"
            },
            {
              "internalType": "uint256",
              "name": "templateId",
              "type": "uint256"
            },
            {
              "internalType": "string",
              "name": "flightNumber",
              "type": "string"
            },
            {
              "internalType": "string",
              "name": "departureAirportCode",
              "type": "string"
            },
            {
              "internalType": "string",
              "name": "arrivalAirportCode",
              "type": "string"
            },
            {
              "internalType": "uint256",
              "name": "departureTime",
              "type": "uint256"
            },
            {
              "internalType": "uint256",
              "name": "createdAt",
              "type": "uint256"
            },
            {
              "internalType": "uint256",
              "name": "payoutToDate",
              "type": "uint256"
            },
            {
              "internalType": "address",
              "name": "buyer",
              "type": "address"
            },
            {
              "internalType": "enum FlightPolicy.PolicyStatus",
              "name": "status",
              "type": "uint8"
            }
          ],
          "internalType": "struct FlightPolicy.UserPolicy[]",
          "name": "",
          "type": "tuple[]"
        }
      ],
      "stateMutability": "view",
      "type": "function"
    },
    {
      "inputs": [
        {
          "internalType": "uint256",
          "name": "templateId",
          "type": "uint256"
        }
      ],
      "name": "getUserPoliciesByTemplate",
      "outputs": [
        {
          "components": [
            {
              "internalType": "uint256",
              "name": "policyId",
              "type": "uint256"
            },
            {
              "internalType": "uint256",
              "name": "templateId",
              "type": "uint256"
            },
            {
              "internalType": "string",
              "name": "flightNumber",
              "type": "string"
            },
            {
              "internalType": "string",
              "name": "departureAirportCode",
              "type": "string"
            },
            {
              "internalType": "string",
              "name": "arrivalAirportCode",
              "type": "string"
            },
            {
              "internalType": "uint256",
              "name": "departureTime",
              "type": "uint256"
            },
            {
              "internalType": "uint256",
              "name": "createdAt",
              "type": "uint256"
            },
            {
              "internalType": "uint256",
              "name": "payoutToDate",
              "type": "uint256"
            },
            {
              "internalType": "address",
              "name": "buyer",
              "type": "address"
            },
            {
              "internalType": "enum FlightPolicy.PolicyStatus",
              "name": "status",
              "type": "uint8"
            }
          ],
          "internalType": "struct FlightPolicy.UserPolicy[]",
          "name": "",
          "type": "tuple[]"
        }
      ],
      "stateMutability": "view",
      "type": "function"
    },
    {
      "inputs": [
        {
          "internalType": "address",
          "name": "user",
          "type": "address"
        },
        {
          "internalType": "uint256",
          "name": "policyId",
          "type": "uint256"
        }
      ],
      "name": "getUserPolicyWithTemplate",
      "outputs": [
        {
          "components": [
            {
              "internalType": "uint256",
              "name": "policyId",
              "type": "uint256"
            },
            {
              "internalType": "uint256",
              "name": "templateId",
              "type": "uint256"
            },
            {
              "internalType": "string",
              "name": "flightNumber",
              "type": "string"
            },
            {
              "internalType": "string",
              "name": "departureAirportCode",
              "type": "string"
            },
            {
              "internalType": "string",
              "name": "arrivalAirportCode",
              "type": "string"
            },
            {
              "internalType": "uint256",
              "name": "departureTime",
              "type": "uint256"
            },
            {
              "internalType": "uint256",
              "name": "createdAt",
              "type": "uint256"
            },
            {
              "internalType": "uint256",
              "name": "payoutToDate",
              "type": "uint256"
            },
            {
              "internalType": "address",
              "name": "buyer",
              "type": "address"
            },
            {
              "internalType": "enum FlightPolicy.PolicyStatus",
              "name": "status",
              "type": "uint8"
            }
          ],
          "internalType": "struct FlightPolicy.UserPolicy",
          "name": "",
          "type": "tuple"
        },
        {
          "components": [
            {
              "internalType": "uint256",
              "name": "templateId",
              "type": "uint256"
            },
            {
              "internalType": "string",
              "name": "name",
              "type": "string"
            },
            {
              "internalType": "string",
              "name": "description",
              "type": "string"
            },
            {
              "internalType": "uint256",
              "name": "createdAt",
              "type": "uint256"
            },
            {
              "internalType": "uint256",
              "name": "premium",
              "type": "uint256"
            },
            {
              "internalType": "uint256",
              "name": "payoutPerHour",
              "type": "uint256"
            },
            {
              "internalType": "uint256",
              "name": "delayThresholdHours",
              "type": "uint256"
            },
            {
              "internalType": "uint256",
              "name": "maxTotalPayout",
              "type": "uint256"
            },
            {
              "internalType": "uint256",
              "name": "coverageDurationDays",
              "type": "uint256"
            },
            {
              "internalType": "enum FlightPolicy.PolicyTemplateStatus",
              "name": "status",
              "type": "uint8"
            }
          ],
          "internalType": "struct FlightPolicy.PolicyTemplate",
          "name": "",
          "type": "tuple"
        }
      ],
      "stateMutability": "view",
      "type": "function"
    },
    {
      "inputs": [],
      "name": "insurerAddress",
      "outputs": [
        {
          "internalType": "address",
          "name": "",
          "type": "address"
        }
      ],
      "stateMutability": "view",
      "type": "function"
    },
    {
      "inputs": [
        {
          "internalType": "address",
          "name": "buyer",
          "type": "address"
        },
        {
          "internalType": "uint256",
          "name": "policyId",
          "type": "uint256"
        }
      ],
      "name": "markPolicyAsClaimed",
      "outputs": [],
      "stateMutability": "nonpayable",
      "type": "function"
    },
    {
      "inputs": [
        {
          "internalType": "uint256",
          "name": "policyId",
          "type": "uint256"
        }
      ],
      "name": "markPolicyAsExpired",
      "outputs": [],
      "stateMutability": "nonpayable",
      "type": "function"
    },
    {
      "inputs": [],
      "name": "nextPolicyTemplateId",
      "outputs": [
        {
          "internalType": "uint256",
          "name": "",
          "type": "uint256"
        }
      ],
      "stateMutability": "view",
      "type": "function"
    },
    {
      "inputs": [],
      "name": "nextUserPolicyId",
      "outputs": [
        {
          "internalType": "uint256",
          "name": "",
          "type": "uint256"
        }
      ],
      "stateMutability": "view",
      "type": "function"
    },
    {
      "inputs": [
        {
          "internalType": "uint256",
          "name": "",
          "type": "uint256"
        }
      ],
      "name": "policyTemplates",
      "outputs": [
        {
          "internalType": "uint256",
          "name": "templateId",
          "type": "uint256"
        },
        {
          "internalType": "string",
          "name": "name",
          "type": "string"
        },
        {
          "internalType": "string",
          "name": "description",
          "type": "string"
        },
        {
          "internalType": "uint256",
          "name": "createdAt",
          "type": "uint256"
        },
        {
          "internalType": "uint256",
          "name": "premium",
          "type": "uint256"
        },
        {
          "internalType": "uint256",
          "name": "payoutPerHour",
          "type": "uint256"
        },
        {
          "internalType": "uint256",
          "name": "delayThresholdHours",
          "type": "uint256"
        },
        {
          "internalType": "uint256",
          "name": "maxTotalPayout",
          "type": "uint256"
        },
        {
          "internalType": "uint256",
          "name": "coverageDurationDays",
          "type": "uint256"
        },
        {
          "internalType": "enum FlightPolicy.PolicyTemplateStatus",
          "name": "status",
          "type": "uint8"
        }
      ],
      "stateMutability": "view",
      "type": "function"
    },
    {
      "inputs": [
        {
          "internalType": "uint256",
          "name": "templateId",
          "type": "uint256"
        },
        {
          "internalType": "string",
          "name": "flightNumber",
          "type": "string"
        },
        {
          "internalType": "string",
          "name": "departureAirportCode",
          "type": "string"
        },
        {
          "internalType": "string",
          "name": "arrivalAirportCode",
          "type": "string"
        },
        {
          "internalType": "uint256",
          "name": "departureTime",
          "type": "uint256"
        },
        {
          "internalType": "address",
          "name": "buyer",
          "type": "address"
        }
      ],
      "name": "purchasePolicy",
      "outputs": [
        {
          "internalType": "uint256",
          "name": "",
          "type": "uint256"
        }
      ],
      "stateMutability": "payable",
      "type": "function"
    },
    {
      "inputs": [
        {
          "internalType": "uint256",
          "name": "",
          "type": "uint256"
        }
      ],
      "name": "userPolicies",
      "outputs": [
        {
          "internalType": "uint256",
          "name": "policyId",
          "type": "uint256"
        },
        {
          "internalType": "uint256",
          "name": "templateId",
          "type": "uint256"
        },
        {
          "internalType": "string",
          "name": "flightNumber",
          "type": "string"
        },
        {
          "internalType": "string",
          "name": "departureAirportCode",
          "type": "string"
        },
        {
          "internalType": "string",
          "name": "arrivalAirportCode",
          "type": "string"
        },
        {
          "internalType": "uint256",
          "name": "departureTime",
          "type": "uint256"
        },
        {
          "internalType": "uint256",
          "name": "createdAt",
          "type": "uint256"
        },
        {
          "internalType": "uint256",
          "name": "payoutToDate",
          "type": "uint256"
        },
        {
          "internalType": "address",
          "name": "buyer",
          "type": "address"
        },
        {
          "internalType": "enum FlightPolicy.PolicyStatus",
          "name": "status",
          "type": "uint8"
        }
      ],
      "stateMutability": "view",
      "type": "function"
    },
    {
      "inputs": [
        {
          "internalType": "address",
          "name": "",
          "type": "address"
        },
        {
          "internalType": "uint256",
          "name": "",
          "type": "uint256"
        }
      ],
      "name": "userPolicyIds",
      "outputs": [
        {
          "internalType": "uint256",
          "name": "",
          "type": "uint256"
        }
      ],
      "stateMutability": "view",
      "type": "function"
    }
  ],
  "bytecode": "0x60a060405234801561001057600080fd5b503373ffffffffffffffffffffffffffffffffffffffff1660808173ffffffffffffffffffffffffffffffffffffffff16815250506080516147d9610091600039600081816104b9015281816110f3015281816114a8015281816118720152818161198d01528181611c3101528181611e38015261296201526147d96000f3fe6080604052600436106101085760003560e01c80638864149411610095578063b6e283e111610064578063b6e283e1146103b3578063cba85f06146103f0578063cf39c62414610436578063d32970101461045f578063e79cdf1d1461048a57610108565b806388641494146102de578063a7c0900e1461031b578063b207edc714610346578063b55d4a2f1461037657610108565b80633147b2cc116100dc5780633147b2cc146101dc578063457e552114610222578063482ab1021461024d5780635990fa36146102765780637b956415146102b357610108565b8062c84c041461010d57806313e896b61461013857806319ac46141461017657806328cf382c146101b3575b600080fd5b34801561011957600080fd5b506101226104b5565b60405161012f9190613413565b60405180910390f35b34801561014457600080fd5b5061015f600480360381019061015a91906134d3565b6107a8565b60405161016d929190613733565b60405180910390f35b34801561018257600080fd5b5061019d6004803603810190610198919061376a565b610d16565b6040516101aa9190613941565b60405180910390f35b3480156101bf57600080fd5b506101da60048036038101906101d591906134d3565b6110f1565b005b3480156101e857600080fd5b5061020360048036038101906101fe9190613963565b611333565b6040516102199a999897969594939291906139f8565b60405180910390f35b34801561022e57600080fd5b506102376114a4565b6040516102449190613941565b60405180910390f35b34801561025957600080fd5b50610274600480360381019061026f9190613963565b611870565b005b34801561028257600080fd5b5061029d60048036038101906102989190613963565b611983565b6040516102aa9190613aa2565b60405180910390f35b3480156102bf57600080fd5b506102c8611c27565b6040516102d59190613ac4565b60405180910390f35b3480156102ea57600080fd5b5061030560048036038101906103009190613c14565b611c2d565b6040516103129190613ac4565b60405180910390f35b34801561032757600080fd5b50610330611e36565b60405161033d9190613cfd565b60405180910390f35b610360600480360381019061035b9190613d18565b611e5a565b60405161036d9190613ac4565b60405180910390f35b34801561038257600080fd5b5061039d60048036038101906103989190613963565b61235f565b6040516103aa9190613941565b60405180910390f35b3480156103bf57600080fd5b506103da60048036038101906103d591906134d3565b612716565b6040516103e79190613ac4565b60405180910390f35b3480156103fc57600080fd5b5061041760048036038101906104129190613963565b612747565b60405161042d9a99989796959493929190613e08565b60405180910390f35b34801561044257600080fd5b5061045d60048036038101906104589190613963565b612960565b005b34801561046b57600080fd5b50610474612d28565b6040516104819190613ac4565b60405180910390f35b34801561049657600080fd5b5061049f612d2e565b6040516104ac9190613413565b60405180910390f35b60607f000000000000000000000000000000000000000000000000000000000000000073ffffffffffffffffffffffffffffffffffffffff163273ffffffffffffffffffffffffffffffffffffffff1614610545576040517f08c379a000000000000000000000000000000000000000000000000000000000815260040161053c90613f2b565b60405180910390fd5b600060015467ffffffffffffffff81111561056357610562613ae9565b5b60405190808252806020026020018201604052801561059c57816020015b610589613070565b8152602001906001900390816105815790505b50905060005b6001548110156107a05760008082815260200190815260200160002060405180610140016040529081600082015481526020016001820180546105e490613f7a565b80601f016020809104026020016040519081016040528092919081815260200182805461061090613f7a565b801561065d5780601f106106325761010080835404028352916020019161065d565b820191906000526020600020905b81548152906001019060200180831161064057829003601f168201915b5050505050815260200160028201805461067690613f7a565b80601f01602080910402602001604051908101604052809291908181526020018280546106a290613f7a565b80156106ef5780601f106106c4576101008083540402835291602001916106ef565b820191906000526020600020905b8154815290600101906020018083116106d257829003601f168201915b505050505081526020016003820154815260200160048201548152602001600582015481526020016006820154815260200160078201548152602001600882015481526020016009820160009054906101000a900460ff16600181111561075957610758613225565b5b600181111561076b5761076a613225565b5b8152505082828151811061078257610781613fab565b5b6020026020010181905250808061079890614009565b9150506105a2565b508091505090565b6107b06130d5565b6107b8613070565b60045483106107fc576040517f08c379a00000000000000000000000000000000000000000000000000000000081526004016107f39061409d565b60405180910390fd5b8373ffffffffffffffffffffffffffffffffffffffff166002600085815260200190815260200160002060080160009054906101000a900473ffffffffffffffffffffffffffffffffffffffff1673ffffffffffffffffffffffffffffffffffffffff16146108a0576040517f08c379a000000000000000000000000000000000000000000000000000000000815260040161089790614109565b60405180910390fd5b6000600260008581526020019081526020016000206040518061014001604052908160008201548152602001600182015481526020016002820180546108e590613f7a565b80601f016020809104026020016040519081016040528092919081815260200182805461091190613f7a565b801561095e5780601f106109335761010080835404028352916020019161095e565b820191906000526020600020905b81548152906001019060200180831161094157829003601f168201915b5050505050815260200160038201805461097790613f7a565b80601f01602080910402602001604051908101604052809291908181526020018280546109a390613f7a565b80156109f05780601f106109c5576101008083540402835291602001916109f0565b820191906000526020600020905b8154815290600101906020018083116109d357829003601f168201915b50505050508152602001600482018054610a0990613f7a565b80601f0160208091040260200160405190810160405280929190818152602001828054610a3590613f7a565b8015610a825780601f10610a5757610100808354040283529160200191610a82565b820191906000526020600020905b815481529060010190602001808311610a6557829003601f168201915b505050505081526020016005820154815260200160068201548152602001600782015481526020016008820160009054906101000a900473ffffffffffffffffffffffffffffffffffffffff1673ffffffffffffffffffffffffffffffffffffffff1673ffffffffffffffffffffffffffffffffffffffff1681526020016008820160149054906101000a900460ff166002811115610b2457610b23613225565b5b6002811115610b3657610b35613225565b5b8152505090506000806000836020015181526020019081526020016000206040518061014001604052908160008201548152602001600182018054610b7a90613f7a565b80601f0160208091040260200160405190810160405280929190818152602001828054610ba690613f7a565b8015610bf35780601f10610bc857610100808354040283529160200191610bf3565b820191906000526020600020905b815481529060010190602001808311610bd657829003601f168201915b50505050508152602001600282018054610c0c90613f7a565b80601f0160208091040260200160405190810160405280929190818152602001828054610c3890613f7a565b8015610c855780601f10610c5a57610100808354040283529160200191610c85565b820191906000526020600020905b815481529060010190602001808311610c6857829003601f168201915b505050505081526020016003820154815260200160048201548152602001600582015481526020016006820154815260200160078201548152602001600882015481526020016009820160009054906101000a900460ff166001811115610cef57610cee613225565b5b6001811115610d0157610d00613225565b5b81525050905081819350935050509250929050565b60606000600360008473ffffffffffffffffffffffffffffffffffffffff1673ffffffffffffffffffffffffffffffffffffffff16815260200190815260200160002080549050905060008167ffffffffffffffff811115610d7b57610d7a613ae9565b5b604051908082528060200260200182016040528015610db457816020015b610da16130d5565b815260200190600190039081610d995790505b50905060005b828110156110e65760026000600360008873ffffffffffffffffffffffffffffffffffffffff1673ffffffffffffffffffffffffffffffffffffffff1681526020019081526020016000208381548110610e1757610e16613fab565b5b90600052602060002001548152602001908152602001600020604051806101400160405290816000820154815260200160018201548152602001600282018054610e6090613f7a565b80601f0160208091040260200160405190810160405280929190818152602001828054610e8c90613f7a565b8015610ed95780601f10610eae57610100808354040283529160200191610ed9565b820191906000526020600020905b815481529060010190602001808311610ebc57829003601f168201915b50505050508152602001600382018054610ef290613f7a565b80601f0160208091040260200160405190810160405280929190818152602001828054610f1e90613f7a565b8015610f6b5780601f10610f4057610100808354040283529160200191610f6b565b820191906000526020600020905b815481529060010190602001808311610f4e57829003601f168201915b50505050508152602001600482018054610f8490613f7a565b80601f0160208091040260200160405190810160405280929190818152602001828054610fb090613f7a565b8015610ffd5780601f10610fd257610100808354040283529160200191610ffd565b820191906000526020600020905b815481529060010190602001808311610fe057829003601f168201915b505050505081526020016005820154815260200160068201548152602001600782015481526020016008820160009054906101000a900473ffffffffffffffffffffffffffffffffffffffff1673ffffffffffffffffffffffffffffffffffffffff1673ffffffffffffffffffffffffffffffffffffffff1681526020016008820160149054906101000a900460ff16600281111561109f5761109e613225565b5b60028111156110b1576110b0613225565b5b815250508282815181106110c8576110c7613fab565b5b602002602001018190525080806110de90614009565b915050610dba565b508092505050919050565b7f000000000000000000000000000000000000000000000000000000000000000073ffffffffffffffffffffffffffffffffffffffff163273ffffffffffffffffffffffffffffffffffffffff161461117f576040517f08c379a000000000000000000000000000000000000000000000000000000000815260040161117690613f2b565b60405180910390fd5b60045481106111c3576040517f08c379a00000000000000000000000000000000000000000000000000000000081526004016111ba9061409d565b60405180910390fd5b8173ffffffffffffffffffffffffffffffffffffffff166002600083815260200190815260200160002060080160009054906101000a900473ffffffffffffffffffffffffffffffffffffffff1673ffffffffffffffffffffffffffffffffffffffff1614611267576040517f08c379a000000000000000000000000000000000000000000000000000000000815260040161125e90614175565b60405180910390fd5b6000600281111561127b5761127a613225565b5b6002600083815260200190815260200160002060080160149054906101000a900460ff1660028111156112b1576112b0613225565b5b146112f1576040517f08c379a00000000000000000000000000000000000000000000000000000000081526004016112e8906141e1565b60405180910390fd5b600280600083815260200190815260200160002060080160146101000a81548160ff0219169083600281111561132a57611329613225565b5b02179055505050565b600060205280600052604060002060009150905080600001549080600101805461135c90613f7a565b80601f016020809104026020016040519081016040528092919081815260200182805461138890613f7a565b80156113d55780601f106113aa576101008083540402835291602001916113d5565b820191906000526020600020905b8154815290600101906020018083116113b857829003601f168201915b5050505050908060020180546113ea90613f7a565b80601f016020809104026020016040519081016040528092919081815260200182805461141690613f7a565b80156114635780601f1061143857610100808354040283529160200191611463565b820191906000526020600020905b81548152906001019060200180831161144657829003601f168201915b5050505050908060030154908060040154908060050154908060060154908060070154908060080154908060090160009054906101000a900460ff1690508a565b60607f000000000000000000000000000000000000000000000000000000000000000073ffffffffffffffffffffffffffffffffffffffff163273ffffffffffffffffffffffffffffffffffffffff1614611534576040517f08c379a000000000000000000000000000000000000000000000000000000000815260040161152b90613f2b565b60405180910390fd5b6000600454905060008167ffffffffffffffff81111561155757611556613ae9565b5b60405190808252806020026020018201604052801561159057816020015b61157d6130d5565b8152602001906001900390816115755790505b50905060005b8281101561186757600260008281526020019081526020016000206040518061014001604052908160008201548152602001600182015481526020016002820180546115e190613f7a565b80601f016020809104026020016040519081016040528092919081815260200182805461160d90613f7a565b801561165a5780601f1061162f5761010080835404028352916020019161165a565b820191906000526020600020905b81548152906001019060200180831161163d57829003601f168201915b5050505050815260200160038201805461167390613f7a565b80601f016020809104026020016040519081016040528092919081815260200182805461169f90613f7a565b80156116ec5780601f106116c1576101008083540402835291602001916116ec565b820191906000526020600020905b8154815290600101906020018083116116cf57829003601f168201915b5050505050815260200160048201805461170590613f7a565b80601f016020809104026020016040519081016040528092919081815260200182805461173190613f7a565b801561177e5780601f106117535761010080835404028352916020019161177e565b820191906000526020600020905b81548152906001019060200180831161176157829003601f168201915b505050505081526020016005820154815260200160068201548152602001600782015481526020016008820160009054906101000a900473ffffffffffffffffffffffffffffffffffffffff1673ffffffffffffffffffffffffffffffffffffffff1673ffffffffffffffffffffffffffffffffffffffff1681526020016008820160149054906101000a900460ff1660028111156118205761181f613225565b5b600281111561183257611831613225565b5b8152505082828151811061184957611848613fab565b5b6020026020010181905250808061185f90614009565b915050611596565b50809250505090565b7f000000000000000000000000000000000000000000000000000000000000000073ffffffffffffffffffffffffffffffffffffffff163273ffffffffffffffffffffffffffffffffffffffff16146118fe576040517f08c379a00000000000000000000000000000000000000000000000000000000081526004016118f590613f2b565b60405180910390fd5b6001548110611942576040517f08c379a00000000000000000000000000000000000000000000000000000000081526004016119399061424d565b60405180910390fd5b600160008083815260200190815260200160002060090160006101000a81548160ff0219169083600181111561197b5761197a613225565b5b021790555050565b61198b613070565b7f000000000000000000000000000000000000000000000000000000000000000073ffffffffffffffffffffffffffffffffffffffff163273ffffffffffffffffffffffffffffffffffffffff1614611a19576040517f08c379a0000000000000000000000000000000000000000000000000000000008152600401611a1090613f2b565b60405180910390fd5b6001548210611a5d576040517f08c379a0000000000000000000000000000000000000000000000000000000008152600401611a54906142b9565b60405180910390fd5b6000808381526020019081526020016000206040518061014001604052908160008201548152602001600182018054611a9590613f7a565b80601f0160208091040260200160405190810160405280929190818152602001828054611ac190613f7a565b8015611b0e5780601f10611ae357610100808354040283529160200191611b0e565b820191906000526020600020905b815481529060010190602001808311611af157829003601f168201915b50505050508152602001600282018054611b2790613f7a565b80601f0160208091040260200160405190810160405280929190818152602001828054611b5390613f7a565b8015611ba05780601f10611b7557610100808354040283529160200191611ba0565b820191906000526020600020905b815481529060010190602001808311611b8357829003601f168201915b505050505081526020016003820154815260200160048201548152602001600582015481526020016006820154815260200160078201548152602001600882015481526020016009820160009054906101000a900460ff166001811115611c0a57611c09613225565b5b6001811115611c1c57611c1b613225565b5b815250509050919050565b60045481565b60007f000000000000000000000000000000000000000000000000000000000000000073ffffffffffffffffffffffffffffffffffffffff163273ffffffffffffffffffffffffffffffffffffffff1614611cbd576040517f08c379a0000000000000000000000000000000000000000000000000000000008152600401611cb490613f2b565b60405180910390fd5b600060015490506040518061014001604052808281526020018a8152602001898152602001428152602001670de0b6b3a764000089611cfc91906142d9565b8152602001670de0b6b3a764000088611d1591906142d9565b8152602001868152602001670de0b6b3a764000086611d3491906142d9565b815260200184815260200160006001811115611d5357611d52613225565b5b815250600080838152602001908152602001600020600082015181600001556020820151816001019081611d8791906144c7565b506040820151816002019081611d9d91906144c7565b50606082015181600301556080820151816004015560a0820151816005015560c0820151816006015560e0820151816007015561010082015181600801556101208201518160090160006101000a81548160ff02191690836001811115611e0757611e06613225565b5b021790555090505060016000815480929190611e2290614009565b919050555080915050979650505050505050565b7f000000000000000000000000000000000000000000000000000000000000000081565b60006001548710611ea0576040517f08c379a0000000000000000000000000000000000000000000000000000000008152600401611e979061424d565b60405180910390fd5b60008060008981526020019081526020016000206040518061014001604052908160008201548152602001600182018054611eda90613f7a565b80601f0160208091040260200160405190810160405280929190818152602001828054611f0690613f7a565b8015611f535780601f10611f2857610100808354040283529160200191611f53565b820191906000526020600020905b815481529060010190602001808311611f3657829003601f168201915b50505050508152602001600282018054611f6c90613f7a565b80601f0160208091040260200160405190810160405280929190818152602001828054611f9890613f7a565b8015611fe55780601f10611fba57610100808354040283529160200191611fe5565b820191906000526020600020905b815481529060010190602001808311611fc857829003601f168201915b505050505081526020016003820154815260200160048201548152602001600582015481526020016006820154815260200160078201548152602001600882015481526020016009820160009054906101000a900460ff16600181111561204f5761204e613225565b5b600181111561206157612060613225565b5b8152505090506000600181111561207b5761207a613225565b5b816101200151600181111561209357612092613225565b5b146120d3576040517f08c379a00000000000000000000000000000000000000000000000000000000081526004016120ca906145e5565b60405180910390fd5b428411612115576040517f08c379a000000000000000000000000000000000000000000000000000000000815260040161210c90614677565b60405180910390fd5b806080015134101561215c576040517f08c379a0000000000000000000000000000000000000000000000000000000008152600401612153906146e3565b60405180910390fd5b60006004600081548092919061217190614009565b9190505590506040518061014001604052808281526020018a8152602001898152602001888152602001878152602001868152602001428152602001600081526020018573ffffffffffffffffffffffffffffffffffffffff168152602001600060028111156121e4576121e3613225565b5b815250600260008381526020019081526020016000206000820151816000015560208201518160010155604082015181600201908161222391906144c7565b50606082015181600301908161223991906144c7565b50608082015181600401908161224f91906144c7565b5060a0820151816005015560c0820151816006015560e082015181600701556101008201518160080160006101000a81548173ffffffffffffffffffffffffffffffffffffffff021916908373ffffffffffffffffffffffffffffffffffffffff1602179055506101208201518160080160146101000a81548160ff021916908360028111156122e2576122e1613225565b5b0217905550905050600360008573ffffffffffffffffffffffffffffffffffffffff1673ffffffffffffffffffffffffffffffffffffffff16815260200190815260200160002081908060018154018082558091505060019003906000526020600020016000909190919091505580925050509695505050505050565b60606000805b6004548110156123ae578360026000838152602001908152602001600020600101540361239b57818061239790614009565b9250505b80806123a690614009565b915050612365565b5060008167ffffffffffffffff8111156123cb576123ca613ae9565b5b60405190808252806020026020018201604052801561240457816020015b6123f16130d5565b8152602001906001900390816123e95790505b5090506000805b60045481101561270a57856002600083815260200190815260200160002060010154036126f7576002600082815260200190815260200160002060405180610140016040529081600082015481526020016001820154815260200160028201805461247590613f7a565b80601f01602080910402602001604051908101604052809291908181526020018280546124a190613f7a565b80156124ee5780601f106124c3576101008083540402835291602001916124ee565b820191906000526020600020905b8154815290600101906020018083116124d157829003601f168201915b5050505050815260200160038201805461250790613f7a565b80601f016020809104026020016040519081016040528092919081815260200182805461253390613f7a565b80156125805780601f1061255557610100808354040283529160200191612580565b820191906000526020600020905b81548152906001019060200180831161256357829003601f168201915b5050505050815260200160048201805461259990613f7a565b80601f01602080910402602001604051908101604052809291908181526020018280546125c590613f7a565b80156126125780601f106125e757610100808354040283529160200191612612565b820191906000526020600020905b8154815290600101906020018083116125f557829003601f168201915b505050505081526020016005820154815260200160068201548152602001600782015481526020016008820160009054906101000a900473ffffffffffffffffffffffffffffffffffffffff1673ffffffffffffffffffffffffffffffffffffffff1673ffffffffffffffffffffffffffffffffffffffff1681526020016008820160149054906101000a900460ff1660028111156126b4576126b3613225565b5b60028111156126c6576126c5613225565b5b815250508383815181106126dd576126dc613fab565b5b602002602001018190525081806126f390614009565b9250505b808061270290614009565b91505061240b565b50819350505050919050565b6003602052816000526040600020818154811061273257600080fd5b90600052602060002001600091509150505481565b600260205280600052604060002060009150905080600001549080600101549080600201805461277690613f7a565b80601f01602080910402602001604051908101604052809291908181526020018280546127a290613f7a565b80156127ef5780601f106127c4576101008083540402835291602001916127ef565b820191906000526020600020905b8154815290600101906020018083116127d257829003601f168201915b50505050509080600301805461280490613f7a565b80601f016020809104026020016040519081016040528092919081815260200182805461283090613f7a565b801561287d5780601f106128525761010080835404028352916020019161287d565b820191906000526020600020905b81548152906001019060200180831161286057829003601f168201915b50505050509080600401805461289290613f7a565b80601f01602080910402602001604051908101604052809291908181526020018280546128be90613f7a565b801561290b5780601f106128e05761010080835404028352916020019161290b565b820191906000526020600020905b8154815290600101906020018083116128ee57829003601f168201915b5050505050908060050154908060060154908060070154908060080160009054906101000a900473ffffffffffffffffffffffffffffffffffffffff16908060080160149054906101000a900460ff1690508a565b7f000000000000000000000000000000000000000000000000000000000000000073ffffffffffffffffffffffffffffffffffffffff163273ffffffffffffffffffffffffffffffffffffffff16146129ee576040517f08c379a00000000000000000000000000000000000000000000000000000000081526004016129e590613f2b565b60405180910390fd5b6004548110612a32576040517f08c379a0000000000000000000000000000000000000000000000000000000008152600401612a299061409d565b60405180910390fd5b600060026000838152602001908152602001600020905060006002811115612a5d57612a5c613225565b5b8160080160149054906101000a900460ff166002811115612a8157612a80613225565b5b14612ac1576040517f08c379a0000000000000000000000000000000000000000000000000000000008152600401612ab8906141e1565b60405180910390fd5b6000806000836001015481526020019081526020016000206040518061014001604052908160008201548152602001600182018054612aff90613f7a565b80601f0160208091040260200160405190810160405280929190818152602001828054612b2b90613f7a565b8015612b785780601f10612b4d57610100808354040283529160200191612b78565b820191906000526020600020905b815481529060010190602001808311612b5b57829003601f168201915b50505050508152602001600282018054612b9190613f7a565b80601f0160208091040260200160405190810160405280929190818152602001828054612bbd90613f7a565b8015612c0a5780601f10612bdf57610100808354040283529160200191612c0a565b820191906000526020600020905b815481529060010190602001808311612bed57829003601f168201915b505050505081526020016003820154815260200160048201548152602001600582015481526020016006820154815260200160078201548152602001600882015481526020016009820160009054906101000a900460ff166001811115612c7457612c73613225565b5b6001811115612c8657612c85613225565b5b815250509050600062015180826101000151612ca291906142d9565b8360060154612cb19190614703565b9050804211612cf5576040517f08c379a0000000000000000000000000000000000000000000000000000000008152600401612cec90614783565b60405180910390fd5b60018360080160146101000a81548160ff02191690836002811115612d1d57612d1c613225565b5b021790555050505050565b60015481565b60606000805b600154811015612dae5760006001811115612d5257612d51613225565b5b60008083815260200190815260200160002060090160009054906101000a900460ff166001811115612d8757612d86613225565b5b03612d9b578180612d9790614009565b9250505b8080612da690614009565b915050612d34565b5060008167ffffffffffffffff811115612dcb57612dca613ae9565b5b604051908082528060200260200182016040528015612e0457816020015b612df1613070565b815260200190600190039081612de95790505b5090506000805b6001548110156130665760006001811115612e2957612e28613225565b5b60008083815260200190815260200160002060090160009054906101000a900460ff166001811115612e5e57612e5d613225565b5b03613053576000808281526020019081526020016000206040518061014001604052908160008201548152602001600182018054612e9b90613f7a565b80601f0160208091040260200160405190810160405280929190818152602001828054612ec790613f7a565b8015612f145780601f10612ee957610100808354040283529160200191612f14565b820191906000526020600020905b815481529060010190602001808311612ef757829003601f168201915b50505050508152602001600282018054612f2d90613f7a565b80601f0160208091040260200160405190810160405280929190818152602001828054612f5990613f7a565b8015612fa65780601f10612f7b57610100808354040283529160200191612fa6565b820191906000526020600020905b815481529060010190602001808311612f8957829003601f168201915b505050505081526020016003820154815260200160048201548152602001600582015481526020016006820154815260200160078201548152602001600882015481526020016009820160009054906101000a900460ff1660018111156130105761300f613225565b5b600181111561302257613021613225565b5b8152505083838151811061303957613038613fab565b5b6020026020010181905250818061304f90614009565b9250505b808061305e90614009565b915050612e0b565b5081935050505090565b604051806101400160405280600081526020016060815260200160608152602001600081526020016000815260200160008152602001600081526020016000815260200160008152602001600060018111156130cf576130ce613225565b5b81525090565b6040518061014001604052806000815260200160008152602001606081526020016060815260200160608152602001600081526020016000815260200160008152602001600073ffffffffffffffffffffffffffffffffffffffff1681526020016000600281111561314a57613149613225565b5b81525090565b600081519050919050565b600082825260208201905092915050565b6000819050602082019050919050565b6000819050919050565b61318f8161317c565b82525050565b600081519050919050565b600082825260208201905092915050565b60005b838110156131cf5780820151818401526020810190506131b4565b60008484015250505050565b6000601f19601f8301169050919050565b60006131f782613195565b61320181856131a0565b93506132118185602086016131b1565b61321a816131db565b840191505092915050565b7f4e487b7100000000000000000000000000000000000000000000000000000000600052602160045260246000fd5b6002811061326557613264613225565b5b50565b600081905061327682613254565b919050565b600061328682613268565b9050919050565b6132968161327b565b82525050565b6000610140830160008301516132b56000860182613186565b50602083015184820360208601526132cd82826131ec565b915050604083015184820360408601526132e782826131ec565b91505060608301516132fc6060860182613186565b50608083015161330f6080860182613186565b5060a083015161332260a0860182613186565b5060c083015161333560c0860182613186565b5060e083015161334860e0860182613186565b5061010083015161335d610100860182613186565b5061012083015161337261012086018261328d565b508091505092915050565b6000613389838361329c565b905092915050565b6000602082019050919050565b60006133a982613150565b6133b3818561315b565b9350836020820285016133c58561316c565b8060005b8581101561340157848403895281516133e2858261337d565b94506133ed83613391565b925060208a019950506001810190506133c9565b50829750879550505050505092915050565b6000602082019050818103600083015261342d818461339e565b905092915050565b6000604051905090565b600080fd5b600080fd5b600073ffffffffffffffffffffffffffffffffffffffff82169050919050565b600061347482613449565b9050919050565b61348481613469565b811461348f57600080fd5b50565b6000813590506134a18161347b565b92915050565b6134b08161317c565b81146134bb57600080fd5b50565b6000813590506134cd816134a7565b92915050565b600080604083850312156134ea576134e961343f565b5b60006134f885828601613492565b9250506020613509858286016134be565b9150509250929050565b61351c81613469565b82525050565b6003811061353357613532613225565b5b50565b600081905061354482613522565b919050565b600061355482613536565b9050919050565b61356481613549565b82525050565b6000610140830160008301516135836000860182613186565b5060208301516135966020860182613186565b50604083015184820360408601526135ae82826131ec565b915050606083015184820360608601526135c882826131ec565b915050608083015184820360808601526135e282826131ec565b91505060a08301516135f760a0860182613186565b5060c083015161360a60c0860182613186565b5060e083015161361d60e0860182613186565b50610100830151613632610100860182613513565b5061012083015161364761012086018261355b565b508091505092915050565b60006101408301600083015161366b6000860182613186565b506020830151848203602086015261368382826131ec565b9150506040830151848203604086015261369d82826131ec565b91505060608301516136b26060860182613186565b5060808301516136c56080860182613186565b5060a08301516136d860a0860182613186565b5060c08301516136eb60c0860182613186565b5060e08301516136fe60e0860182613186565b50610100830151613713610100860182613186565b5061012083015161372861012086018261328d565b508091505092915050565b6000604082019050818103600083015261374d818561356a565b905081810360208301526137618184613652565b90509392505050565b6000602082840312156137805761377f61343f565b5b600061378e84828501613492565b91505092915050565b600081519050919050565b600082825260208201905092915050565b6000819050602082019050919050565b6000610140830160008301516137dc6000860182613186565b5060208301516137ef6020860182613186565b506040830151848203604086015261380782826131ec565b9150506060830151848203606086015261382182826131ec565b9150506080830151848203608086015261383b82826131ec565b91505060a083015161385060a0860182613186565b5060c083015161386360c0860182613186565b5060e083015161387660e0860182613186565b5061010083015161388b610100860182613513565b506101208301516138a061012086018261355b565b508091505092915050565b60006138b783836137c3565b905092915050565b6000602082019050919050565b60006138d782613797565b6138e181856137a2565b9350836020820285016138f3856137b3565b8060005b8581101561392f578484038952815161391085826138ab565b945061391b836138bf565b925060208a019950506001810190506138f7565b50829750879550505050505092915050565b6000602082019050818103600083015261395b81846138cc565b905092915050565b6000602082840312156139795761397861343f565b5b6000613987848285016134be565b91505092915050565b6139998161317c565b82525050565b600082825260208201905092915050565b60006139bb82613195565b6139c5818561399f565b93506139d58185602086016131b1565b6139de816131db565b840191505092915050565b6139f28161327b565b82525050565b600061014082019050613a0e600083018d613990565b8181036020830152613a20818c6139b0565b90508181036040830152613a34818b6139b0565b9050613a43606083018a613990565b613a506080830189613990565b613a5d60a0830188613990565b613a6a60c0830187613990565b613a7760e0830186613990565b613a85610100830185613990565b613a936101208301846139e9565b9b9a5050505050505050505050565b60006020820190508181036000830152613abc8184613652565b905092915050565b6000602082019050613ad96000830184613990565b92915050565b600080fd5b600080fd5b7f4e487b7100000000000000000000000000000000000000000000000000000000600052604160045260246000fd5b613b21826131db565b810181811067ffffffffffffffff82111715613b4057613b3f613ae9565b5b80604052505050565b6000613b53613435565b9050613b5f8282613b18565b919050565b600067ffffffffffffffff821115613b7f57613b7e613ae9565b5b613b88826131db565b9050602081019050919050565b82818337600083830152505050565b6000613bb7613bb284613b64565b613b49565b905082815260208101848484011115613bd357613bd2613ae4565b5b613bde848285613b95565b509392505050565b600082601f830112613bfb57613bfa613adf565b5b8135613c0b848260208601613ba4565b91505092915050565b600080600080600080600060e0888a031215613c3357613c3261343f565b5b600088013567ffffffffffffffff811115613c5157613c50613444565b5b613c5d8a828b01613be6565b975050602088013567ffffffffffffffff811115613c7e57613c7d613444565b5b613c8a8a828b01613be6565b9650506040613c9b8a828b016134be565b9550506060613cac8a828b016134be565b9450506080613cbd8a828b016134be565b93505060a0613cce8a828b016134be565b92505060c0613cdf8a828b016134be565b91505092959891949750929550565b613cf781613469565b82525050565b6000602082019050613d126000830184613cee565b92915050565b60008060008060008060c08789031215613d3557613d3461343f565b5b6000613d4389828a016134be565b965050602087013567ffffffffffffffff811115613d6457613d63613444565b5b613d7089828a01613be6565b955050604087013567ffffffffffffffff811115613d9157613d90613444565b5b613d9d89828a01613be6565b945050606087013567ffffffffffffffff811115613dbe57613dbd613444565b5b613dca89828a01613be6565b9350506080613ddb89828a016134be565b92505060a0613dec89828a01613492565b9150509295509295509295565b613e0281613549565b82525050565b600061014082019050613e1e600083018d613990565b613e2b602083018c613990565b8181036040830152613e3d818b6139b0565b90508181036060830152613e51818a6139b0565b90508181036080830152613e6581896139b0565b9050613e7460a0830188613990565b613e8160c0830187613990565b613e8e60e0830186613990565b613e9c610100830185613cee565b613eaa610120830184613df9565b9b9a5050505050505050505050565b7f466c69676874506f6c6963793a204f6e6c792074686520696e7375726572206360008201527f616e2063616c6c20746869732066756e6374696f6e0000000000000000000000602082015250565b6000613f1560358361399f565b9150613f2082613eb9565b604082019050919050565b60006020820190508181036000830152613f4481613f08565b9050919050565b7f4e487b7100000000000000000000000000000000000000000000000000000000600052602260045260246000fd5b60006002820490506001821680613f9257607f821691505b602082108103613fa557613fa4613f4b565b5b50919050565b7f4e487b7100000000000000000000000000000000000000000000000000000000600052603260045260246000fd5b7f4e487b7100000000000000000000000000000000000000000000000000000000600052601160045260246000fd5b60006140148261317c565b91507fffffffffffffffffffffffffffffffffffffffffffffffffffffffffffffffff820361404657614045613fda565b5b600182019050919050565b7f496e76616c696420706f6c696379496400000000000000000000000000000000600082015250565b600061408760108361399f565b915061409282614051565b602082019050919050565b600060208201905081810360008301526140b68161407a565b9050919050565b7f4e6f7420796f757220706f6c6963790000000000000000000000000000000000600082015250565b60006140f3600f8361399f565b91506140fe826140bd565b602082019050919050565b60006020820190508181036000830152614122816140e6565b9050919050565b7f506f6c69637920646f65736e27742062656c6f6e6720746f2062757965720000600082015250565b600061415f601e8361399f565b915061416a82614129565b602082019050919050565b6000602082019050818103600083015261418e81614152565b9050919050565b7f506f6c696379206973206e6f7420616374697665000000000000000000000000600082015250565b60006141cb60148361399f565b91506141d682614195565b602082019050919050565b600060208201905081810360008301526141fa816141be565b9050919050565b7f496e76616c69642074656d706c61746549640000000000000000000000000000600082015250565b600061423760128361399f565b915061424282614201565b602082019050919050565b600060208201905081810360008301526142668161422a565b9050919050565b7f54656d706c61746520646f6573206e6f74206578697374000000000000000000600082015250565b60006142a360178361399f565b91506142ae8261426d565b602082019050919050565b600060208201905081810360008301526142d281614296565b9050919050565b60006142e48261317c565b91506142ef8361317c565b92508282026142fd8161317c565b9150828204841483151761431457614313613fda565b5b5092915050565b60008190508160005260206000209050919050565b60006020601f8301049050919050565b600082821b905092915050565b60006008830261437d7fffffffffffffffffffffffffffffffffffffffffffffffffffffffffffffffff82614340565b6143878683614340565b95508019841693508086168417925050509392505050565b6000819050919050565b60006143c46143bf6143ba8461317c565b61439f565b61317c565b9050919050565b6000819050919050565b6143de836143a9565b6143f26143ea826143cb565b84845461434d565b825550505050565b600090565b6144076143fa565b6144128184846143d5565b505050565b5b818110156144365761442b6000826143ff565b600181019050614418565b5050565b601f82111561447b5761444c8161431b565b61445584614330565b81016020851015614464578190505b61447861447085614330565b830182614417565b50505b505050565b600082821c905092915050565b600061449e60001984600802614480565b1980831691505092915050565b60006144b7838361448d565b9150826002028217905092915050565b6144d082613195565b67ffffffffffffffff8111156144e9576144e8613ae9565b5b6144f38254613f7a565b6144fe82828561443a565b600060209050601f831160018114614531576000841561451f578287015190505b61452985826144ab565b865550614591565b601f19841661453f8661431b565b60005b8281101561456757848901518255600182019150602085019450602081019050614542565b868310156145845784890151614580601f89168261448d565b8355505b6001600288020188555050505b505050505050565b7f506f6c6963792074656d706c617465206973206e6f7420616374697665000000600082015250565b60006145cf601d8361399f565b91506145da82614599565b602082019050919050565b600060208201905081810360008301526145fe816145c2565b9050919050565b7f4465706172747572652074696d65206d75737420626520696e2074686520667560008201527f7475726500000000000000000000000000000000000000000000000000000000602082015250565b600061466160248361399f565b915061466c82614605565b604082019050919050565b6000602082019050818103600083015261469081614654565b9050919050565b7f496e73756666696369656e74207072656d69756d2073656e7400000000000000600082015250565b60006146cd60198361399f565b91506146d882614697565b602082019050919050565b600060208201905081810360008301526146fc816146c0565b9050919050565b600061470e8261317c565b91506147198361317c565b925082820190508082111561473157614730613fda565b5b92915050565b7f506f6c69637920686173206e6f74206578706972656420796574000000000000600082015250565b600061476d601a8361399f565b915061477882614737565b602082019050919050565b6000602082019050818103600083015261479c81614760565b905091905056fea2646970667358221220c1fc960cb8b1bfa553020c4dfc565ded39b21fe3c00447b60fa0036dee04bab064736f6c63430008130033",
  "linkReferences": {},
  "deployedLinkReferences": {}
}