{
  "_format": "hh-sol-artifact-1",
  "contractName": "FlightPolicy",
  "sourceName": "contracts/FlightPolicy.sol",
  "abi": [
    {
      "inputs": [],
      "stateMutability": "nonpayable",
      "type": "constructor"
    },
    {
      "inputs": [],
      "name": "getAllPolicies",
      "outputs": [
        {
          "components": [
            {
              "internalType": "uint256",
              "name": "policyId",
              "type": "uint256"
            },
            {
              "components": [
                {
                  "internalType": "string",
                  "name": "templateId",
                  "type": "string"
                },
                {
                  "internalType": "string",
                  "name": "name",
                  "type": "string"
                },
                {
                  "internalType": "string",
                  "name": "description",
                  "type": "string"
                },
                {
                  "internalType": "uint256",
                  "name": "createdAt",
                  "type": "uint256"
                },
                {
                  "internalType": "uint256",
                  "name": "updatedAt",
                  "type": "uint256"
                },
                {
                  "internalType": "uint256",
                  "name": "premium",
                  "type": "uint256"
                },
                {
                  "internalType": "uint256",
                  "name": "payoutPerHour",
                  "type": "uint256"
                },
                {
                  "internalType": "uint256",
                  "name": "delayThresholdHours",
                  "type": "uint256"
                },
                {
                  "internalType": "uint256",
                  "name": "maxTotalPayout",
                  "type": "uint256"
                },
                {
                  "internalType": "uint256",
                  "name": "coverageDurationDays",
                  "type": "uint256"
                },
                {
                  "internalType": "enum FlightPolicy.PolicyTemplateStatus",
                  "name": "status",
                  "type": "uint8"
                }
              ],
              "internalType": "struct FlightPolicy.PolicyTemplate",
              "name": "template",
              "type": "tuple"
            },
            {
              "internalType": "string",
              "name": "flightNumber",
              "type": "string"
            },
            {
              "internalType": "string",
              "name": "departureAirportCode",
              "type": "string"
            },
            {
              "internalType": "string",
              "name": "arrivalAirportCode",
              "type": "string"
            },
            {
              "internalType": "uint256",
              "name": "departureTime",
              "type": "uint256"
            },
            {
              "internalType": "uint256",
              "name": "createdAt",
              "type": "uint256"
            },
            {
              "internalType": "uint256",
              "name": "payoutToDate",
              "type": "uint256"
            },
            {
              "internalType": "address",
              "name": "buyer",
              "type": "address"
            },
            {
              "internalType": "enum FlightPolicy.PolicyStatus",
              "name": "status",
              "type": "uint8"
            }
          ],
          "internalType": "struct FlightPolicy.UserPolicy[]",
          "name": "",
          "type": "tuple[]"
        }
      ],
      "stateMutability": "view",
      "type": "function"
    },
    {
      "inputs": [
        {
          "internalType": "address",
          "name": "user",
          "type": "address"
        }
      ],
      "name": "getUserPolicies",
      "outputs": [
        {
          "components": [
            {
              "internalType": "uint256",
              "name": "policyId",
              "type": "uint256"
            },
            {
              "components": [
                {
                  "internalType": "string",
                  "name": "templateId",
                  "type": "string"
                },
                {
                  "internalType": "string",
                  "name": "name",
                  "type": "string"
                },
                {
                  "internalType": "string",
                  "name": "description",
                  "type": "string"
                },
                {
                  "internalType": "uint256",
                  "name": "createdAt",
                  "type": "uint256"
                },
                {
                  "internalType": "uint256",
                  "name": "updatedAt",
                  "type": "uint256"
                },
                {
                  "internalType": "uint256",
                  "name": "premium",
                  "type": "uint256"
                },
                {
                  "internalType": "uint256",
                  "name": "payoutPerHour",
                  "type": "uint256"
                },
                {
                  "internalType": "uint256",
                  "name": "delayThresholdHours",
                  "type": "uint256"
                },
                {
                  "internalType": "uint256",
                  "name": "maxTotalPayout",
                  "type": "uint256"
                },
                {
                  "internalType": "uint256",
                  "name": "coverageDurationDays",
                  "type": "uint256"
                },
                {
                  "internalType": "enum FlightPolicy.PolicyTemplateStatus",
                  "name": "status",
                  "type": "uint8"
                }
              ],
              "internalType": "struct FlightPolicy.PolicyTemplate",
              "name": "template",
              "type": "tuple"
            },
            {
              "internalType": "string",
              "name": "flightNumber",
              "type": "string"
            },
            {
              "internalType": "string",
              "name": "departureAirportCode",
              "type": "string"
            },
            {
              "internalType": "string",
              "name": "arrivalAirportCode",
              "type": "string"
            },
            {
              "internalType": "uint256",
              "name": "departureTime",
              "type": "uint256"
            },
            {
              "internalType": "uint256",
              "name": "createdAt",
              "type": "uint256"
            },
            {
              "internalType": "uint256",
              "name": "payoutToDate",
              "type": "uint256"
            },
            {
              "internalType": "address",
              "name": "buyer",
              "type": "address"
            },
            {
              "internalType": "enum FlightPolicy.PolicyStatus",
              "name": "status",
              "type": "uint8"
            }
          ],
          "internalType": "struct FlightPolicy.UserPolicy[]",
          "name": "",
          "type": "tuple[]"
        }
      ],
      "stateMutability": "view",
      "type": "function"
    },
    {
      "inputs": [
        {
          "internalType": "string",
          "name": "templateId",
          "type": "string"
        }
      ],
      "name": "getUserPoliciesByTemplate",
      "outputs": [
        {
          "components": [
            {
              "internalType": "uint256",
              "name": "policyId",
              "type": "uint256"
            },
            {
              "components": [
                {
                  "internalType": "string",
                  "name": "templateId",
                  "type": "string"
                },
                {
                  "internalType": "string",
                  "name": "name",
                  "type": "string"
                },
                {
                  "internalType": "string",
                  "name": "description",
                  "type": "string"
                },
                {
                  "internalType": "uint256",
                  "name": "createdAt",
                  "type": "uint256"
                },
                {
                  "internalType": "uint256",
                  "name": "updatedAt",
                  "type": "uint256"
                },
                {
                  "internalType": "uint256",
                  "name": "premium",
                  "type": "uint256"
                },
                {
                  "internalType": "uint256",
                  "name": "payoutPerHour",
                  "type": "uint256"
                },
                {
                  "internalType": "uint256",
                  "name": "delayThresholdHours",
                  "type": "uint256"
                },
                {
                  "internalType": "uint256",
                  "name": "maxTotalPayout",
                  "type": "uint256"
                },
                {
                  "internalType": "uint256",
                  "name": "coverageDurationDays",
                  "type": "uint256"
                },
                {
                  "internalType": "enum FlightPolicy.PolicyTemplateStatus",
                  "name": "status",
                  "type": "uint8"
                }
              ],
              "internalType": "struct FlightPolicy.PolicyTemplate",
              "name": "template",
              "type": "tuple"
            },
            {
              "internalType": "string",
              "name": "flightNumber",
              "type": "string"
            },
            {
              "internalType": "string",
              "name": "departureAirportCode",
              "type": "string"
            },
            {
              "internalType": "string",
              "name": "arrivalAirportCode",
              "type": "string"
            },
            {
              "internalType": "uint256",
              "name": "departureTime",
              "type": "uint256"
            },
            {
              "internalType": "uint256",
              "name": "createdAt",
              "type": "uint256"
            },
            {
              "internalType": "uint256",
              "name": "payoutToDate",
              "type": "uint256"
            },
            {
              "internalType": "address",
              "name": "buyer",
              "type": "address"
            },
            {
              "internalType": "enum FlightPolicy.PolicyStatus",
              "name": "status",
              "type": "uint8"
            }
          ],
          "internalType": "struct FlightPolicy.UserPolicy[]",
          "name": "",
          "type": "tuple[]"
        }
      ],
      "stateMutability": "view",
      "type": "function"
    },
    {
      "inputs": [
        {
          "internalType": "address",
          "name": "user",
          "type": "address"
        },
        {
          "internalType": "uint256",
          "name": "policyId",
          "type": "uint256"
        }
      ],
      "name": "getUserPolicyWithTemplate",
      "outputs": [
        {
          "components": [
            {
              "internalType": "uint256",
              "name": "policyId",
              "type": "uint256"
            },
            {
              "components": [
                {
                  "internalType": "string",
                  "name": "templateId",
                  "type": "string"
                },
                {
                  "internalType": "string",
                  "name": "name",
                  "type": "string"
                },
                {
                  "internalType": "string",
                  "name": "description",
                  "type": "string"
                },
                {
                  "internalType": "uint256",
                  "name": "createdAt",
                  "type": "uint256"
                },
                {
                  "internalType": "uint256",
                  "name": "updatedAt",
                  "type": "uint256"
                },
                {
                  "internalType": "uint256",
                  "name": "premium",
                  "type": "uint256"
                },
                {
                  "internalType": "uint256",
                  "name": "payoutPerHour",
                  "type": "uint256"
                },
                {
                  "internalType": "uint256",
                  "name": "delayThresholdHours",
                  "type": "uint256"
                },
                {
                  "internalType": "uint256",
                  "name": "maxTotalPayout",
                  "type": "uint256"
                },
                {
                  "internalType": "uint256",
                  "name": "coverageDurationDays",
                  "type": "uint256"
                },
                {
                  "internalType": "enum FlightPolicy.PolicyTemplateStatus",
                  "name": "status",
                  "type": "uint8"
                }
              ],
              "internalType": "struct FlightPolicy.PolicyTemplate",
              "name": "template",
              "type": "tuple"
            },
            {
              "internalType": "string",
              "name": "flightNumber",
              "type": "string"
            },
            {
              "internalType": "string",
              "name": "departureAirportCode",
              "type": "string"
            },
            {
              "internalType": "string",
              "name": "arrivalAirportCode",
              "type": "string"
            },
            {
              "internalType": "uint256",
              "name": "departureTime",
              "type": "uint256"
            },
            {
              "internalType": "uint256",
              "name": "createdAt",
              "type": "uint256"
            },
            {
              "internalType": "uint256",
              "name": "payoutToDate",
              "type": "uint256"
            },
            {
              "internalType": "address",
              "name": "buyer",
              "type": "address"
            },
            {
              "internalType": "enum FlightPolicy.PolicyStatus",
              "name": "status",
              "type": "uint8"
            }
          ],
          "internalType": "struct FlightPolicy.UserPolicy",
          "name": "",
          "type": "tuple"
        },
        {
          "components": [
            {
              "internalType": "string",
              "name": "templateId",
              "type": "string"
            },
            {
              "internalType": "string",
              "name": "name",
              "type": "string"
            },
            {
              "internalType": "string",
              "name": "description",
              "type": "string"
            },
            {
              "internalType": "uint256",
              "name": "createdAt",
              "type": "uint256"
            },
            {
              "internalType": "uint256",
              "name": "updatedAt",
              "type": "uint256"
            },
            {
              "internalType": "uint256",
              "name": "premium",
              "type": "uint256"
            },
            {
              "internalType": "uint256",
              "name": "payoutPerHour",
              "type": "uint256"
            },
            {
              "internalType": "uint256",
              "name": "delayThresholdHours",
              "type": "uint256"
            },
            {
              "internalType": "uint256",
              "name": "maxTotalPayout",
              "type": "uint256"
            },
            {
              "internalType": "uint256",
              "name": "coverageDurationDays",
              "type": "uint256"
            },
            {
              "internalType": "enum FlightPolicy.PolicyTemplateStatus",
              "name": "status",
              "type": "uint8"
            }
          ],
          "internalType": "struct FlightPolicy.PolicyTemplate",
          "name": "",
          "type": "tuple"
        }
      ],
      "stateMutability": "view",
      "type": "function"
    },
    {
      "inputs": [],
      "name": "insurerAddress",
      "outputs": [
        {
          "internalType": "address",
          "name": "",
          "type": "address"
        }
      ],
      "stateMutability": "view",
      "type": "function"
    },
    {
      "inputs": [
        {
          "internalType": "address",
          "name": "buyer",
          "type": "address"
        },
        {
          "internalType": "uint256",
          "name": "policyId",
          "type": "uint256"
        }
      ],
      "name": "markPolicyAsClaimed",
      "outputs": [],
      "stateMutability": "nonpayable",
      "type": "function"
    },
    {
      "inputs": [
        {
          "internalType": "uint256",
          "name": "policyId",
          "type": "uint256"
        }
      ],
      "name": "markPolicyAsExpired",
      "outputs": [],
      "stateMutability": "nonpayable",
      "type": "function"
    },
    {
      "inputs": [],
      "name": "nextUserPolicyId",
      "outputs": [
        {
          "internalType": "uint256",
          "name": "",
          "type": "uint256"
        }
      ],
      "stateMutability": "view",
      "type": "function"
    },
    {
      "inputs": [
        {
          "components": [
            {
              "internalType": "string",
              "name": "templateId",
              "type": "string"
            },
            {
              "internalType": "string",
              "name": "name",
              "type": "string"
            },
            {
              "internalType": "string",
              "name": "description",
              "type": "string"
            },
            {
              "internalType": "uint256",
              "name": "createdAt",
              "type": "uint256"
            },
            {
              "internalType": "uint256",
              "name": "updatedAt",
              "type": "uint256"
            },
            {
              "internalType": "uint256",
              "name": "premium",
              "type": "uint256"
            },
            {
              "internalType": "uint256",
              "name": "payoutPerHour",
              "type": "uint256"
            },
            {
              "internalType": "uint256",
              "name": "delayThresholdHours",
              "type": "uint256"
            },
            {
              "internalType": "uint256",
              "name": "maxTotalPayout",
              "type": "uint256"
            },
            {
              "internalType": "uint256",
              "name": "coverageDurationDays",
              "type": "uint256"
            },
            {
              "internalType": "enum FlightPolicy.PolicyTemplateStatus",
              "name": "status",
              "type": "uint8"
            }
          ],
          "internalType": "struct FlightPolicy.PolicyTemplate",
          "name": "template",
          "type": "tuple"
        },
        {
          "internalType": "string",
          "name": "flightNumber",
          "type": "string"
        },
        {
          "internalType": "string",
          "name": "departureAirportCode",
          "type": "string"
        },
        {
          "internalType": "string",
          "name": "arrivalAirportCode",
          "type": "string"
        },
        {
          "internalType": "uint256",
          "name": "departureTime",
          "type": "uint256"
        },
        {
          "internalType": "address",
          "name": "buyer",
          "type": "address"
        }
      ],
      "name": "purchasePolicy",
      "outputs": [
        {
          "internalType": "uint256",
          "name": "",
          "type": "uint256"
        }
      ],
      "stateMutability": "payable",
      "type": "function"
    },
    {
      "inputs": [
        {
          "internalType": "uint256",
          "name": "",
          "type": "uint256"
        }
      ],
      "name": "userPolicies",
      "outputs": [
        {
          "internalType": "uint256",
          "name": "policyId",
          "type": "uint256"
        },
        {
          "components": [
            {
              "internalType": "string",
              "name": "templateId",
              "type": "string"
            },
            {
              "internalType": "string",
              "name": "name",
              "type": "string"
            },
            {
              "internalType": "string",
              "name": "description",
              "type": "string"
            },
            {
              "internalType": "uint256",
              "name": "createdAt",
              "type": "uint256"
            },
            {
              "internalType": "uint256",
              "name": "updatedAt",
              "type": "uint256"
            },
            {
              "internalType": "uint256",
              "name": "premium",
              "type": "uint256"
            },
            {
              "internalType": "uint256",
              "name": "payoutPerHour",
              "type": "uint256"
            },
            {
              "internalType": "uint256",
              "name": "delayThresholdHours",
              "type": "uint256"
            },
            {
              "internalType": "uint256",
              "name": "maxTotalPayout",
              "type": "uint256"
            },
            {
              "internalType": "uint256",
              "name": "coverageDurationDays",
              "type": "uint256"
            },
            {
              "internalType": "enum FlightPolicy.PolicyTemplateStatus",
              "name": "status",
              "type": "uint8"
            }
          ],
          "internalType": "struct FlightPolicy.PolicyTemplate",
          "name": "template",
          "type": "tuple"
        },
        {
          "internalType": "string",
          "name": "flightNumber",
          "type": "string"
        },
        {
          "internalType": "string",
          "name": "departureAirportCode",
          "type": "string"
        },
        {
          "internalType": "string",
          "name": "arrivalAirportCode",
          "type": "string"
        },
        {
          "internalType": "uint256",
          "name": "departureTime",
          "type": "uint256"
        },
        {
          "internalType": "uint256",
          "name": "createdAt",
          "type": "uint256"
        },
        {
          "internalType": "uint256",
          "name": "payoutToDate",
          "type": "uint256"
        },
        {
          "internalType": "address",
          "name": "buyer",
          "type": "address"
        },
        {
          "internalType": "enum FlightPolicy.PolicyStatus",
          "name": "status",
          "type": "uint8"
        }
      ],
      "stateMutability": "view",
      "type": "function"
    },
    {
      "inputs": [
        {
          "internalType": "address",
          "name": "",
          "type": "address"
        },
        {
          "internalType": "uint256",
          "name": "",
          "type": "uint256"
        }
      ],
      "name": "userPolicyIds",
      "outputs": [
        {
          "internalType": "uint256",
          "name": "",
          "type": "uint256"
        }
      ],
      "stateMutability": "view",
      "type": "function"
    }
  ],
  "bytecode": "0x60a060405234801561001057600080fd5b503373ffffffffffffffffffffffffffffffffffffffff1660808173ffffffffffffffffffffffffffffffffffffffff1681525050608051613f5961007560003960008181610ee3015281816114d80152818161217b015261262b0152613f596000f3fe60806040526004361061009c5760003560e01c80637b956415116100645780637b956415146101a05780639c6cf7ef146101cb578063a7c0900e14610208578063b6e283e114610233578063cba85f0614610270578063cf39c624146102b65761009c565b806313e896b6146100a157806319ac4614146100df57806328cf382c1461011c57806331953ecc14610145578063457e552114610175575b600080fd5b3480156100ad57600080fd5b506100c860048036038101906100c391906129bb565b6102df565b6040516100d6929190612e51565b60405180910390f35b3480156100eb57600080fd5b5061010660048036038101906101019190612e88565b6108c5565b6040516101139190613066565b60405180910390f35b34801561012857600080fd5b50610143600480360381019061013e91906129bb565b610ee1565b005b61015f600480360381019061015a919061334c565b611121565b60405161016c9190613458565b60405180910390f35b34801561018157600080fd5b5061018a6114d4565b6040516101979190613066565b60405180910390f35b3480156101ac57600080fd5b506101b5611ae1565b6040516101c29190613458565b60405180910390f35b3480156101d757600080fd5b506101f260048036038101906101ed9190613473565b611ae7565b6040516101ff9190613066565b60405180910390f35b34801561021457600080fd5b5061021d612179565b60405161022a91906134cb565b60405180910390f35b34801561023f57600080fd5b5061025a600480360381019061025591906129bb565b61219d565b6040516102679190613458565b60405180910390f35b34801561027c57600080fd5b50610297600480360381019061029291906134e6565b6121ce565b6040516102ad9a9998979695949392919061356c565b60405180910390f35b3480156102c257600080fd5b506102dd60048036038101906102d891906134e6565b612629565b005b6102e7612826565b6102ef6128a7565b6002548310610333576040517f08c379a000000000000000000000000000000000000000000000000000000000815260040161032a90613670565b60405180910390fd5b8373ffffffffffffffffffffffffffffffffffffffff1660008085815260200190815260200160002060120160009054906101000a900473ffffffffffffffffffffffffffffffffffffffff1673ffffffffffffffffffffffffffffffffffffffff16146103d6576040517f08c379a00000000000000000000000000000000000000000000000000000000081526004016103cd906136dc565b60405180910390fd5b6000806000858152602001908152602001600020604051806101400160405290816000820154815260200160018201604051806101600160405290816000820180546104219061372b565b80601f016020809104026020016040519081016040528092919081815260200182805461044d9061372b565b801561049a5780601f1061046f5761010080835404028352916020019161049a565b820191906000526020600020905b81548152906001019060200180831161047d57829003601f168201915b505050505081526020016001820180546104b39061372b565b80601f01602080910402602001604051908101604052809291908181526020018280546104df9061372b565b801561052c5780601f106105015761010080835404028352916020019161052c565b820191906000526020600020905b81548152906001019060200180831161050f57829003601f168201915b505050505081526020016002820180546105459061372b565b80601f01602080910402602001604051908101604052809291908181526020018280546105719061372b565b80156105be5780601f10610593576101008083540402835291602001916105be565b820191906000526020600020905b8154815290600101906020018083116105a157829003601f168201915b5050505050815260200160038201548152602001600482015481526020016005820154815260200160068201548152602001600782015481526020016008820154815260200160098201548152602001600a820160009054906101000a900460ff16600181111561063257610631612a9a565b5b600181111561064457610643612a9a565b5b815250508152602001600c8201805461065c9061372b565b80601f01602080910402602001604051908101604052809291908181526020018280546106889061372b565b80156106d55780601f106106aa576101008083540402835291602001916106d5565b820191906000526020600020905b8154815290600101906020018083116106b857829003601f168201915b50505050508152602001600d820180546106ee9061372b565b80601f016020809104026020016040519081016040528092919081815260200182805461071a9061372b565b80156107675780601f1061073c57610100808354040283529160200191610767565b820191906000526020600020905b81548152906001019060200180831161074a57829003601f168201915b50505050508152602001600e820180546107809061372b565b80601f01602080910402602001604051908101604052809291908181526020018280546107ac9061372b565b80156107f95780601f106107ce576101008083540402835291602001916107f9565b820191906000526020600020905b8154815290600101906020018083116107dc57829003601f168201915b50505050508152602001600f820154815260200160108201548152602001601182015481526020016012820160009054906101000a900473ffffffffffffffffffffffffffffffffffffffff1673ffffffffffffffffffffffffffffffffffffffff1673ffffffffffffffffffffffffffffffffffffffff1681526020016012820160149054906101000a900460ff16600281111561089b5761089a612a9a565b5b60028111156108ad576108ac612a9a565b5b81525050905080816020015192509250509250929050565b60606000600160008473ffffffffffffffffffffffffffffffffffffffff1673ffffffffffffffffffffffffffffffffffffffff16815260200190815260200160002080549050905060008167ffffffffffffffff81111561092a5761092961308d565b5b60405190808252806020026020018201604052801561096357816020015b610950612826565b8152602001906001900390816109485790505b50905060005b82811015610ed657600080600160008873ffffffffffffffffffffffffffffffffffffffff1673ffffffffffffffffffffffffffffffffffffffff16815260200190815260200160002083815481106109c5576109c461375c565b5b9060005260206000200154815260200190815260200160002060405180610140016040529081600082015481526020016001820160405180610160016040529081600082018054610a159061372b565b80601f0160208091040260200160405190810160405280929190818152602001828054610a419061372b565b8015610a8e5780601f10610a6357610100808354040283529160200191610a8e565b820191906000526020600020905b815481529060010190602001808311610a7157829003601f168201915b50505050508152602001600182018054610aa79061372b565b80601f0160208091040260200160405190810160405280929190818152602001828054610ad39061372b565b8015610b205780601f10610af557610100808354040283529160200191610b20565b820191906000526020600020905b815481529060010190602001808311610b0357829003601f168201915b50505050508152602001600282018054610b399061372b565b80601f0160208091040260200160405190810160405280929190818152602001828054610b659061372b565b8015610bb25780601f10610b8757610100808354040283529160200191610bb2565b820191906000526020600020905b815481529060010190602001808311610b9557829003601f168201915b5050505050815260200160038201548152602001600482015481526020016005820154815260200160068201548152602001600782015481526020016008820154815260200160098201548152602001600a820160009054906101000a900460ff166001811115610c2657610c25612a9a565b5b6001811115610c3857610c37612a9a565b5b815250508152602001600c82018054610c509061372b565b80601f0160208091040260200160405190810160405280929190818152602001828054610c7c9061372b565b8015610cc95780601f10610c9e57610100808354040283529160200191610cc9565b820191906000526020600020905b815481529060010190602001808311610cac57829003601f168201915b50505050508152602001600d82018054610ce29061372b565b80601f0160208091040260200160405190810160405280929190818152602001828054610d0e9061372b565b8015610d5b5780601f10610d3057610100808354040283529160200191610d5b565b820191906000526020600020905b815481529060010190602001808311610d3e57829003601f168201915b50505050508152602001600e82018054610d749061372b565b80601f0160208091040260200160405190810160405280929190818152602001828054610da09061372b565b8015610ded5780601f10610dc257610100808354040283529160200191610ded565b820191906000526020600020905b815481529060010190602001808311610dd057829003601f168201915b50505050508152602001600f820154815260200160108201548152602001601182015481526020016012820160009054906101000a900473ffffffffffffffffffffffffffffffffffffffff1673ffffffffffffffffffffffffffffffffffffffff1673ffffffffffffffffffffffffffffffffffffffff1681526020016012820160149054906101000a900460ff166002811115610e8f57610e8e612a9a565b5b6002811115610ea157610ea0612a9a565b5b81525050828281518110610eb857610eb761375c565b5b60200260200101819052508080610ece906137ba565b915050610969565b508092505050919050565b7f000000000000000000000000000000000000000000000000000000000000000073ffffffffffffffffffffffffffffffffffffffff163273ffffffffffffffffffffffffffffffffffffffff1614610f6f576040517f08c379a0000000000000000000000000000000000000000000000000000000008152600401610f6690613874565b60405180910390fd5b6002548110610fb3576040517f08c379a0000000000000000000000000000000000000000000000000000000008152600401610faa90613670565b60405180910390fd5b8173ffffffffffffffffffffffffffffffffffffffff1660008083815260200190815260200160002060120160009054906101000a900473ffffffffffffffffffffffffffffffffffffffff1673ffffffffffffffffffffffffffffffffffffffff1614611056576040517f08c379a000000000000000000000000000000000000000000000000000000000815260040161104d906138e0565b60405180910390fd5b6000600281111561106a57611069612a9a565b5b60008083815260200190815260200160002060120160149054906101000a900460ff16600281111561109f5761109e612a9a565b5b146110df576040517f08c379a00000000000000000000000000000000000000000000000000000000081526004016110d69061394c565b60405180910390fd5b600260008083815260200190815260200160002060120160146101000a81548160ff0219169083600281111561111857611117612a9a565b5b02179055505050565b600080600181111561113657611135612a9a565b5b876101400151600181111561114e5761114d612a9a565b5b1461118e576040517f08c379a0000000000000000000000000000000000000000000000000000000008152600401611185906139b8565b60405180910390fd5b4283116111d0576040517f08c379a00000000000000000000000000000000000000000000000000000000081526004016111c790613a4a565b60405180910390fd5b8660a00151341015611217576040517f08c379a000000000000000000000000000000000000000000000000000000000815260040161120e90613ab6565b60405180910390fd5b60006002600081548092919061122c906137ba565b919050559050604051806101400160405280828152602001898152602001888152602001878152602001868152602001858152602001428152602001600081526020018473ffffffffffffffffffffffffffffffffffffffff1681526020016000600281111561129f5761129e612a9a565b5b8152506000808381526020019081526020016000206000820151816000015560208201518160010160008201518160000190816112dc9190613c82565b5060208201518160010190816112f29190613c82565b5060408201518160020190816113089190613c82565b50606082015181600301556080820151816004015560a0820151816005015560c0820151816006015560e082015181600701556101008201518160080155610120820151816009015561014082015181600a0160006101000a81548160ff0219169083600181111561137d5761137c612a9a565b5b02179055505050604082015181600c0190816113999190613c82565b50606082015181600d0190816113af9190613c82565b50608082015181600e0190816113c59190613c82565b5060a082015181600f015560c0820151816010015560e082015181601101556101008201518160120160006101000a81548173ffffffffffffffffffffffffffffffffffffffff021916908373ffffffffffffffffffffffffffffffffffffffff1602179055506101208201518160120160146101000a81548160ff0219169083600281111561145857611457612a9a565b5b0217905550905050600160008473ffffffffffffffffffffffffffffffffffffffff1673ffffffffffffffffffffffffffffffffffffffff168152602001908152602001600020819080600181540180825580915050600190039060005260206000200160009091909190915055809150509695505050505050565b60607f000000000000000000000000000000000000000000000000000000000000000073ffffffffffffffffffffffffffffffffffffffff163273ffffffffffffffffffffffffffffffffffffffff1614611564576040517f08c379a000000000000000000000000000000000000000000000000000000000815260040161155b90613874565b60405180910390fd5b6000600254905060008167ffffffffffffffff8111156115875761158661308d565b5b6040519080825280602002602001820160405280156115c057816020015b6115ad612826565b8152602001906001900390816115a55790505b50905060005b82811015611ad857600080828152602001908152602001600020604051806101400160405290816000820154815260200160018201604051806101600160405290816000820180546116179061372b565b80601f01602080910402602001604051908101604052809291908181526020018280546116439061372b565b80156116905780601f1061166557610100808354040283529160200191611690565b820191906000526020600020905b81548152906001019060200180831161167357829003601f168201915b505050505081526020016001820180546116a99061372b565b80601f01602080910402602001604051908101604052809291908181526020018280546116d59061372b565b80156117225780601f106116f757610100808354040283529160200191611722565b820191906000526020600020905b81548152906001019060200180831161170557829003601f168201915b5050505050815260200160028201805461173b9061372b565b80601f01602080910402602001604051908101604052809291908181526020018280546117679061372b565b80156117b45780601f10611789576101008083540402835291602001916117b4565b820191906000526020600020905b81548152906001019060200180831161179757829003601f168201915b5050505050815260200160038201548152602001600482015481526020016005820154815260200160068201548152602001600782015481526020016008820154815260200160098201548152602001600a820160009054906101000a900460ff16600181111561182857611827612a9a565b5b600181111561183a57611839612a9a565b5b815250508152602001600c820180546118529061372b565b80601f016020809104026020016040519081016040528092919081815260200182805461187e9061372b565b80156118cb5780601f106118a0576101008083540402835291602001916118cb565b820191906000526020600020905b8154815290600101906020018083116118ae57829003601f168201915b50505050508152602001600d820180546118e49061372b565b80601f01602080910402602001604051908101604052809291908181526020018280546119109061372b565b801561195d5780601f106119325761010080835404028352916020019161195d565b820191906000526020600020905b81548152906001019060200180831161194057829003601f168201915b50505050508152602001600e820180546119769061372b565b80601f01602080910402602001604051908101604052809291908181526020018280546119a29061372b565b80156119ef5780601f106119c4576101008083540402835291602001916119ef565b820191906000526020600020905b8154815290600101906020018083116119d257829003601f168201915b50505050508152602001600f820154815260200160108201548152602001601182015481526020016012820160009054906101000a900473ffffffffffffffffffffffffffffffffffffffff1673ffffffffffffffffffffffffffffffffffffffff1673ffffffffffffffffffffffffffffffffffffffff1681526020016012820160149054906101000a900460ff166002811115611a9157611a90612a9a565b5b6002811115611aa357611aa2612a9a565b5b81525050828281518110611aba57611ab961375c565b5b60200260200101819052508080611ad0906137ba565b9150506115c6565b50809250505090565b60025481565b60606000805b600254811015611b835783604051602001611b089190613d90565b60405160208183030381529060405280519060200120600080838152602001908152602001600020600101600001604051602001611b469190613e2a565b6040516020818303038152906040528051906020012003611b70578180611b6c906137ba565b9250505b8080611b7b906137ba565b915050611aed565b5060008167ffffffffffffffff811115611ba057611b9f61308d565b5b604051908082528060200260200182016040528015611bd957816020015b611bc6612826565b815260200190600190039081611bbe5790505b5090506000805b60025481101561216d5785604051602001611bfb9190613d90565b60405160208183030381529060405280519060200120600080838152602001908152602001600020600101600001604051602001611c399190613e2a565b604051602081830303815290604052805190602001200361215a5760008082815260200190815260200160002060405180610140016040529081600082015481526020016001820160405180610160016040529081600082018054611c9d9061372b565b80601f0160208091040260200160405190810160405280929190818152602001828054611cc99061372b565b8015611d165780601f10611ceb57610100808354040283529160200191611d16565b820191906000526020600020905b815481529060010190602001808311611cf957829003601f168201915b50505050508152602001600182018054611d2f9061372b565b80601f0160208091040260200160405190810160405280929190818152602001828054611d5b9061372b565b8015611da85780601f10611d7d57610100808354040283529160200191611da8565b820191906000526020600020905b815481529060010190602001808311611d8b57829003601f168201915b50505050508152602001600282018054611dc19061372b565b80601f0160208091040260200160405190810160405280929190818152602001828054611ded9061372b565b8015611e3a5780601f10611e0f57610100808354040283529160200191611e3a565b820191906000526020600020905b815481529060010190602001808311611e1d57829003601f168201915b5050505050815260200160038201548152602001600482015481526020016005820154815260200160068201548152602001600782015481526020016008820154815260200160098201548152602001600a820160009054906101000a900460ff166001811115611eae57611ead612a9a565b5b6001811115611ec057611ebf612a9a565b5b815250508152602001600c82018054611ed89061372b565b80601f0160208091040260200160405190810160405280929190818152602001828054611f049061372b565b8015611f515780601f10611f2657610100808354040283529160200191611f51565b820191906000526020600020905b815481529060010190602001808311611f3457829003601f168201915b50505050508152602001600d82018054611f6a9061372b565b80601f0160208091040260200160405190810160405280929190818152602001828054611f969061372b565b8015611fe35780601f10611fb857610100808354040283529160200191611fe3565b820191906000526020600020905b815481529060010190602001808311611fc657829003601f168201915b50505050508152602001600e82018054611ffc9061372b565b80601f01602080910402602001604051908101604052809291908181526020018280546120289061372b565b80156120755780601f1061204a57610100808354040283529160200191612075565b820191906000526020600020905b81548152906001019060200180831161205857829003601f168201915b50505050508152602001600f820154815260200160108201548152602001601182015481526020016012820160009054906101000a900473ffffffffffffffffffffffffffffffffffffffff1673ffffffffffffffffffffffffffffffffffffffff1673ffffffffffffffffffffffffffffffffffffffff1681526020016012820160149054906101000a900460ff16600281111561211757612116612a9a565b5b600281111561212957612128612a9a565b5b815250508383815181106121405761213f61375c565b5b60200260200101819052508180612156906137ba565b9250505b8080612165906137ba565b915050611be0565b50819350505050919050565b7f000000000000000000000000000000000000000000000000000000000000000081565b600160205281600052604060002081815481106121b957600080fd5b90600052602060002001600091509150505481565b600060205280600052604060002060009150905080600001549080600101604051806101600160405290816000820180546122089061372b565b80601f01602080910402602001604051908101604052809291908181526020018280546122349061372b565b80156122815780601f1061225657610100808354040283529160200191612281565b820191906000526020600020905b81548152906001019060200180831161226457829003601f168201915b5050505050815260200160018201805461229a9061372b565b80601f01602080910402602001604051908101604052809291908181526020018280546122c69061372b565b80156123135780601f106122e857610100808354040283529160200191612313565b820191906000526020600020905b8154815290600101906020018083116122f657829003601f168201915b5050505050815260200160028201805461232c9061372b565b80601f01602080910402602001604051908101604052809291908181526020018280546123589061372b565b80156123a55780601f1061237a576101008083540402835291602001916123a5565b820191906000526020600020905b81548152906001019060200180831161238857829003601f168201915b5050505050815260200160038201548152602001600482015481526020016005820154815260200160068201548152602001600782015481526020016008820154815260200160098201548152602001600a820160009054906101000a900460ff16600181111561241957612418612a9a565b5b600181111561242b5761242a612a9a565b5b815250509080600c01805461243f9061372b565b80601f016020809104026020016040519081016040528092919081815260200182805461246b9061372b565b80156124b85780601f1061248d576101008083540402835291602001916124b8565b820191906000526020600020905b81548152906001019060200180831161249b57829003601f168201915b50505050509080600d0180546124cd9061372b565b80601f01602080910402602001604051908101604052809291908181526020018280546124f99061372b565b80156125465780601f1061251b57610100808354040283529160200191612546565b820191906000526020600020905b81548152906001019060200180831161252957829003601f168201915b50505050509080600e01805461255b9061372b565b80601f01602080910402602001604051908101604052809291908181526020018280546125879061372b565b80156125d45780601f106125a9576101008083540402835291602001916125d4565b820191906000526020600020905b8154815290600101906020018083116125b757829003601f168201915b50505050509080600f0154908060100154908060110154908060120160009054906101000a900473ffffffffffffffffffffffffffffffffffffffff16908060120160149054906101000a900460ff1690508a565b7f000000000000000000000000000000000000000000000000000000000000000073ffffffffffffffffffffffffffffffffffffffff163273ffffffffffffffffffffffffffffffffffffffff16146126b7576040517f08c379a00000000000000000000000000000000000000000000000000000000081526004016126ae90613874565b60405180910390fd5b60025481106126fb576040517f08c379a00000000000000000000000000000000000000000000000000000000081526004016126f290613670565b60405180910390fd5b600080600083815260200190815260200160002090506000600281111561272557612724612a9a565b5b8160120160149054906101000a900460ff16600281111561274957612748612a9a565b5b14612789576040517f08c379a00000000000000000000000000000000000000000000000000000000081526004016127809061394c565b60405180910390fd5b60006201518082600101600901546127a19190613e41565b82601001546127b09190613e83565b90508042116127f4576040517f08c379a00000000000000000000000000000000000000000000000000000000081526004016127eb90613f03565b60405180910390fd5b60018260120160146101000a81548160ff0219169083600281111561281c5761281b612a9a565b5b0217905550505050565b604051806101400160405280600081526020016128416128a7565b8152602001606081526020016060815260200160608152602001600081526020016000815260200160008152602001600073ffffffffffffffffffffffffffffffffffffffff168152602001600060028111156128a1576128a0612a9a565b5b81525090565b604051806101600160405280606081526020016060815260200160608152602001600081526020016000815260200160008152602001600081526020016000815260200160008152602001600081526020016000600181111561290d5761290c612a9a565b5b81525090565b6000604051905090565b600080fd5b600080fd5b600073ffffffffffffffffffffffffffffffffffffffff82169050919050565b600061295282612927565b9050919050565b61296281612947565b811461296d57600080fd5b50565b60008135905061297f81612959565b92915050565b6000819050919050565b61299881612985565b81146129a357600080fd5b50565b6000813590506129b58161298f565b92915050565b600080604083850312156129d2576129d161291d565b5b60006129e085828601612970565b92505060206129f1858286016129a6565b9150509250929050565b612a0481612985565b82525050565b600081519050919050565b600082825260208201905092915050565b60005b83811015612a44578082015181840152602081019050612a29565b60008484015250505050565b6000601f19601f8301169050919050565b6000612a6c82612a0a565b612a768185612a15565b9350612a86818560208601612a26565b612a8f81612a50565b840191505092915050565b7f4e487b7100000000000000000000000000000000000000000000000000000000600052602160045260246000fd5b60028110612ada57612ad9612a9a565b5b50565b6000819050612aeb82612ac9565b919050565b6000612afb82612add565b9050919050565b612b0b81612af0565b82525050565b6000610160830160008301518482036000860152612b2f8282612a61565b91505060208301518482036020860152612b498282612a61565b91505060408301518482036040860152612b638282612a61565b9150506060830151612b7860608601826129fb565b506080830151612b8b60808601826129fb565b5060a0830151612b9e60a08601826129fb565b5060c0830151612bb160c08601826129fb565b5060e0830151612bc460e08601826129fb565b50610100830151612bd96101008601826129fb565b50610120830151612bee6101208601826129fb565b50610140830151612c03610140860182612b02565b508091505092915050565b612c1781612947565b82525050565b60038110612c2e57612c2d612a9a565b5b50565b6000819050612c3f82612c1d565b919050565b6000612c4f82612c31565b9050919050565b612c5f81612c44565b82525050565b600061014083016000830151612c7e60008601826129fb565b5060208301518482036020860152612c968282612b11565b91505060408301518482036040860152612cb08282612a61565b91505060608301518482036060860152612cca8282612a61565b91505060808301518482036080860152612ce48282612a61565b91505060a0830151612cf960a08601826129fb565b5060c0830151612d0c60c08601826129fb565b5060e0830151612d1f60e08601826129fb565b50610100830151612d34610100860182612c0e565b50610120830151612d49610120860182612c56565b508091505092915050565b6000610160830160008301518482036000860152612d728282612a61565b91505060208301518482036020860152612d8c8282612a61565b91505060408301518482036040860152612da68282612a61565b9150506060830151612dbb60608601826129fb565b506080830151612dce60808601826129fb565b5060a0830151612de160a08601826129fb565b5060c0830151612df460c08601826129fb565b5060e0830151612e0760e08601826129fb565b50610100830151612e1c6101008601826129fb565b50610120830151612e316101208601826129fb565b50610140830151612e46610140860182612b02565b508091505092915050565b60006040820190508181036000830152612e6b8185612c65565b90508181036020830152612e7f8184612d54565b90509392505050565b600060208284031215612e9e57612e9d61291d565b5b6000612eac84828501612970565b91505092915050565b600081519050919050565b600082825260208201905092915050565b6000819050602082019050919050565b600061014083016000830151612efa60008601826129fb565b5060208301518482036020860152612f128282612b11565b91505060408301518482036040860152612f2c8282612a61565b91505060608301518482036060860152612f468282612a61565b91505060808301518482036080860152612f608282612a61565b91505060a0830151612f7560a08601826129fb565b5060c0830151612f8860c08601826129fb565b5060e0830151612f9b60e08601826129fb565b50610100830151612fb0610100860182612c0e565b50610120830151612fc5610120860182612c56565b508091505092915050565b6000612fdc8383612ee1565b905092915050565b6000602082019050919050565b6000612ffc82612eb5565b6130068185612ec0565b93508360208202850161301885612ed1565b8060005b8581101561305457848403895281516130358582612fd0565b945061304083612fe4565b925060208a0199505060018101905061301c565b50829750879550505050505092915050565b600060208201905081810360008301526130808184612ff1565b905092915050565b600080fd5b7f4e487b7100000000000000000000000000000000000000000000000000000000600052604160045260246000fd5b6130c582612a50565b810181811067ffffffffffffffff821117156130e4576130e361308d565b5b80604052505050565b60006130f7612913565b905061310382826130bc565b919050565b600080fd5b600080fd5b600080fd5b600067ffffffffffffffff8211156131325761313161308d565b5b61313b82612a50565b9050602081019050919050565b82818337600083830152505050565b600061316a61316584613117565b6130ed565b90508281526020810184848401111561318657613185613112565b5b613191848285613148565b509392505050565b600082601f8301126131ae576131ad61310d565b5b81356131be848260208601613157565b91505092915050565b600281106131d457600080fd5b50565b6000813590506131e6816131c7565b92915050565b6000610160828403121561320357613202613088565b5b61320e6101606130ed565b9050600082013567ffffffffffffffff81111561322e5761322d613108565b5b61323a84828501613199565b600083015250602082013567ffffffffffffffff81111561325e5761325d613108565b5b61326a84828501613199565b602083015250604082013567ffffffffffffffff81111561328e5761328d613108565b5b61329a84828501613199565b60408301525060606132ae848285016129a6565b60608301525060806132c2848285016129a6565b60808301525060a06132d6848285016129a6565b60a08301525060c06132ea848285016129a6565b60c08301525060e06132fe848285016129a6565b60e083015250610100613313848285016129a6565b61010083015250610120613329848285016129a6565b6101208301525061014061333f848285016131d7565b6101408301525092915050565b60008060008060008060c087890312156133695761336861291d565b5b600087013567ffffffffffffffff81111561338757613386612922565b5b61339389828a016131ec565b965050602087013567ffffffffffffffff8111156133b4576133b3612922565b5b6133c089828a01613199565b955050604087013567ffffffffffffffff8111156133e1576133e0612922565b5b6133ed89828a01613199565b945050606087013567ffffffffffffffff81111561340e5761340d612922565b5b61341a89828a01613199565b935050608061342b89828a016129a6565b92505060a061343c89828a01612970565b9150509295509295509295565b61345281612985565b82525050565b600060208201905061346d6000830184613449565b92915050565b6000602082840312156134895761348861291d565b5b600082013567ffffffffffffffff8111156134a7576134a6612922565b5b6134b384828501613199565b91505092915050565b6134c581612947565b82525050565b60006020820190506134e060008301846134bc565b92915050565b6000602082840312156134fc576134fb61291d565b5b600061350a848285016129a6565b91505092915050565b600082825260208201905092915050565b600061352f82612a0a565b6135398185613513565b9350613549818560208601612a26565b61355281612a50565b840191505092915050565b61356681612c44565b82525050565b600061014082019050613582600083018d613449565b8181036020830152613594818c612d54565b905081810360408301526135a8818b613524565b905081810360608301526135bc818a613524565b905081810360808301526135d08189613524565b90506135df60a0830188613449565b6135ec60c0830187613449565b6135f960e0830186613449565b6136076101008301856134bc565b61361561012083018461355d565b9b9a5050505050505050505050565b7f496e76616c696420706f6c696379496400000000000000000000000000000000600082015250565b600061365a601083613513565b915061366582613624565b602082019050919050565b600060208201905081810360008301526136898161364d565b9050919050565b7f4e6f7420796f757220706f6c6963790000000000000000000000000000000000600082015250565b60006136c6600f83613513565b91506136d182613690565b602082019050919050565b600060208201905081810360008301526136f5816136b9565b9050919050565b7f4e487b7100000000000000000000000000000000000000000000000000000000600052602260045260246000fd5b6000600282049050600182168061374357607f821691505b602082108103613756576137556136fc565b5b50919050565b7f4e487b7100000000000000000000000000000000000000000000000000000000600052603260045260246000fd5b7f4e487b7100000000000000000000000000000000000000000000000000000000600052601160045260246000fd5b60006137c582612985565b91507fffffffffffffffffffffffffffffffffffffffffffffffffffffffffffffffff82036137f7576137f661378b565b5b600182019050919050565b7f466c69676874506f6c6963793a204f6e6c792074686520696e7375726572206360008201527f616e2063616c6c20746869732066756e6374696f6e0000000000000000000000602082015250565b600061385e603583613513565b915061386982613802565b604082019050919050565b6000602082019050818103600083015261388d81613851565b9050919050565b7f506f6c69637920646f65736e27742062656c6f6e6720746f2062757965720000600082015250565b60006138ca601e83613513565b91506138d582613894565b602082019050919050565b600060208201905081810360008301526138f9816138bd565b9050919050565b7f506f6c696379206973206e6f7420616374697665000000000000000000000000600082015250565b6000613936601483613513565b915061394182613900565b602082019050919050565b6000602082019050818103600083015261396581613929565b9050919050565b7f506f6c6963792074656d706c617465206973206e6f7420616374697665000000600082015250565b60006139a2601d83613513565b91506139ad8261396c565b602082019050919050565b600060208201905081810360008301526139d181613995565b9050919050565b7f4465706172747572652074696d65206d75737420626520696e2074686520667560008201527f7475726500000000000000000000000000000000000000000000000000000000602082015250565b6000613a34602483613513565b9150613a3f826139d8565b604082019050919050565b60006020820190508181036000830152613a6381613a27565b9050919050565b7f496e73756666696369656e74207072656d69756d2073656e7400000000000000600082015250565b6000613aa0601983613513565b9150613aab82613a6a565b602082019050919050565b60006020820190508181036000830152613acf81613a93565b9050919050565b60008190508160005260206000209050919050565b60006020601f8301049050919050565b600082821b905092915050565b600060088302613b387fffffffffffffffffffffffffffffffffffffffffffffffffffffffffffffffff82613afb565b613b428683613afb565b95508019841693508086168417925050509392505050565b6000819050919050565b6000613b7f613b7a613b7584612985565b613b5a565b612985565b9050919050565b6000819050919050565b613b9983613b64565b613bad613ba582613b86565b848454613b08565b825550505050565b600090565b613bc2613bb5565b613bcd818484613b90565b505050565b5b81811015613bf157613be6600082613bba565b600181019050613bd3565b5050565b601f821115613c3657613c0781613ad6565b613c1084613aeb565b81016020851015613c1f578190505b613c33613c2b85613aeb565b830182613bd2565b50505b505050565b600082821c905092915050565b6000613c5960001984600802613c3b565b1980831691505092915050565b6000613c728383613c48565b9150826002028217905092915050565b613c8b82612a0a565b67ffffffffffffffff811115613ca457613ca361308d565b5b613cae825461372b565b613cb9828285613bf5565b600060209050601f831160018114613cec5760008415613cda578287015190505b613ce48582613c66565b865550613d4c565b601f198416613cfa86613ad6565b60005b82811015613d2257848901518255600182019150602085019450602081019050613cfd565b86831015613d3f5784890151613d3b601f891682613c48565b8355505b6001600288020188555050505b505050505050565b600081905092915050565b6000613d6a82612a0a565b613d748185613d54565b9350613d84818560208601612a26565b80840191505092915050565b6000613d9c8284613d5f565b915081905092915050565b60008154613db48161372b565b613dbe8186613d54565b94506001821660008114613dd95760018114613dee57613e21565b60ff1983168652811515820286019350613e21565b613df785613ad6565b60005b83811015613e1957815481890152600182019150602081019050613dfa565b838801955050505b50505092915050565b6000613e368284613da7565b915081905092915050565b6000613e4c82612985565b9150613e5783612985565b9250828202613e6581612985565b91508282048414831517613e7c57613e7b61378b565b5b5092915050565b6000613e8e82612985565b9150613e9983612985565b9250828201905080821115613eb157613eb061378b565b5b92915050565b7f506f6c69637920686173206e6f74206578706972656420796574000000000000600082015250565b6000613eed601a83613513565b9150613ef882613eb7565b602082019050919050565b60006020820190508181036000830152613f1c81613ee0565b905091905056fea2646970667358221220c57ace993378319530f10e6926beb6c89f4e8e03c52dd11be383ace8f6f5f4f464736f6c63430008130033",
  "linkReferences": {},
  "deployedLinkReferences": {}
}