{
  "_format": "hh-sol-artifact-1",
  "contractName": "FlightPolicy",
  "sourceName": "contracts/FlightPolicy.sol",
  "abi": [
    {
      "inputs": [
        {
          "internalType": "address",
          "name": "_oracleConnector",
          "type": "address"
        }
      ],
      "stateMutability": "nonpayable",
      "type": "constructor"
    },
    {
      "inputs": [
        {
          "internalType": "uint256",
          "name": "policyId",
          "type": "uint256"
        },
        {
          "internalType": "address",
          "name": "buyer",
          "type": "address"
        }
      ],
      "name": "claimPayout",
      "outputs": [],
      "stateMutability": "nonpayable",
      "type": "function"
    },
    {
      "inputs": [],
      "name": "getAllPolicies",
      "outputs": [
        {
          "components": [
            {
              "internalType": "uint256",
              "name": "policyId",
              "type": "uint256"
            },
            {
              "components": [
                {
                  "internalType": "string",
                  "name": "templateId",
                  "type": "string"
                },
                {
                  "internalType": "string",
                  "name": "name",
                  "type": "string"
                },
                {
                  "internalType": "string",
                  "name": "description",
                  "type": "string"
                },
                {
                  "internalType": "uint256",
                  "name": "createdAt",
                  "type": "uint256"
                },
                {
                  "internalType": "uint256",
                  "name": "updatedAt",
                  "type": "uint256"
                },
                {
                  "internalType": "uint256",
                  "name": "premium",
                  "type": "uint256"
                },
                {
                  "internalType": "uint256",
                  "name": "payoutPerHour",
                  "type": "uint256"
                },
                {
                  "internalType": "uint256",
                  "name": "delayThresholdHours",
                  "type": "uint256"
                },
                {
                  "internalType": "uint256",
                  "name": "maxTotalPayout",
                  "type": "uint256"
                },
                {
                  "internalType": "uint256",
                  "name": "coverageDurationDays",
                  "type": "uint256"
                },
                {
                  "internalType": "enum FlightPolicy.PolicyTemplateStatus",
                  "name": "status",
                  "type": "uint8"
                }
              ],
              "internalType": "struct FlightPolicy.PolicyTemplate",
              "name": "template",
              "type": "tuple"
            },
            {
              "internalType": "string",
              "name": "flightNumber",
              "type": "string"
            },
            {
              "internalType": "string",
              "name": "departureAirportCode",
              "type": "string"
            },
            {
              "internalType": "string",
              "name": "arrivalAirportCode",
              "type": "string"
            },
            {
              "internalType": "uint256",
              "name": "departureTime",
              "type": "uint256"
            },
            {
              "internalType": "uint256",
              "name": "createdAt",
              "type": "uint256"
            },
            {
              "internalType": "uint256",
              "name": "payoutToDate",
              "type": "uint256"
            },
            {
              "internalType": "address",
              "name": "buyer",
              "type": "address"
            },
            {
              "internalType": "enum FlightPolicy.PolicyStatus",
              "name": "status",
              "type": "uint8"
            }
          ],
          "internalType": "struct FlightPolicy.UserPolicy[]",
          "name": "",
          "type": "tuple[]"
        }
      ],
      "stateMutability": "view",
      "type": "function"
    },
    {
      "inputs": [
        {
          "internalType": "address",
          "name": "user",
          "type": "address"
        }
      ],
      "name": "getUserPolicies",
      "outputs": [
        {
          "components": [
            {
              "internalType": "uint256",
              "name": "policyId",
              "type": "uint256"
            },
            {
              "components": [
                {
                  "internalType": "string",
                  "name": "templateId",
                  "type": "string"
                },
                {
                  "internalType": "string",
                  "name": "name",
                  "type": "string"
                },
                {
                  "internalType": "string",
                  "name": "description",
                  "type": "string"
                },
                {
                  "internalType": "uint256",
                  "name": "createdAt",
                  "type": "uint256"
                },
                {
                  "internalType": "uint256",
                  "name": "updatedAt",
                  "type": "uint256"
                },
                {
                  "internalType": "uint256",
                  "name": "premium",
                  "type": "uint256"
                },
                {
                  "internalType": "uint256",
                  "name": "payoutPerHour",
                  "type": "uint256"
                },
                {
                  "internalType": "uint256",
                  "name": "delayThresholdHours",
                  "type": "uint256"
                },
                {
                  "internalType": "uint256",
                  "name": "maxTotalPayout",
                  "type": "uint256"
                },
                {
                  "internalType": "uint256",
                  "name": "coverageDurationDays",
                  "type": "uint256"
                },
                {
                  "internalType": "enum FlightPolicy.PolicyTemplateStatus",
                  "name": "status",
                  "type": "uint8"
                }
              ],
              "internalType": "struct FlightPolicy.PolicyTemplate",
              "name": "template",
              "type": "tuple"
            },
            {
              "internalType": "string",
              "name": "flightNumber",
              "type": "string"
            },
            {
              "internalType": "string",
              "name": "departureAirportCode",
              "type": "string"
            },
            {
              "internalType": "string",
              "name": "arrivalAirportCode",
              "type": "string"
            },
            {
              "internalType": "uint256",
              "name": "departureTime",
              "type": "uint256"
            },
            {
              "internalType": "uint256",
              "name": "createdAt",
              "type": "uint256"
            },
            {
              "internalType": "uint256",
              "name": "payoutToDate",
              "type": "uint256"
            },
            {
              "internalType": "address",
              "name": "buyer",
              "type": "address"
            },
            {
              "internalType": "enum FlightPolicy.PolicyStatus",
              "name": "status",
              "type": "uint8"
            }
          ],
          "internalType": "struct FlightPolicy.UserPolicy[]",
          "name": "",
          "type": "tuple[]"
        }
      ],
      "stateMutability": "view",
      "type": "function"
    },
    {
      "inputs": [
        {
          "internalType": "string",
          "name": "templateId",
          "type": "string"
        }
      ],
      "name": "getUserPoliciesByTemplate",
      "outputs": [
        {
          "components": [
            {
              "internalType": "uint256",
              "name": "policyId",
              "type": "uint256"
            },
            {
              "components": [
                {
                  "internalType": "string",
                  "name": "templateId",
                  "type": "string"
                },
                {
                  "internalType": "string",
                  "name": "name",
                  "type": "string"
                },
                {
                  "internalType": "string",
                  "name": "description",
                  "type": "string"
                },
                {
                  "internalType": "uint256",
                  "name": "createdAt",
                  "type": "uint256"
                },
                {
                  "internalType": "uint256",
                  "name": "updatedAt",
                  "type": "uint256"
                },
                {
                  "internalType": "uint256",
                  "name": "premium",
                  "type": "uint256"
                },
                {
                  "internalType": "uint256",
                  "name": "payoutPerHour",
                  "type": "uint256"
                },
                {
                  "internalType": "uint256",
                  "name": "delayThresholdHours",
                  "type": "uint256"
                },
                {
                  "internalType": "uint256",
                  "name": "maxTotalPayout",
                  "type": "uint256"
                },
                {
                  "internalType": "uint256",
                  "name": "coverageDurationDays",
                  "type": "uint256"
                },
                {
                  "internalType": "enum FlightPolicy.PolicyTemplateStatus",
                  "name": "status",
                  "type": "uint8"
                }
              ],
              "internalType": "struct FlightPolicy.PolicyTemplate",
              "name": "template",
              "type": "tuple"
            },
            {
              "internalType": "string",
              "name": "flightNumber",
              "type": "string"
            },
            {
              "internalType": "string",
              "name": "departureAirportCode",
              "type": "string"
            },
            {
              "internalType": "string",
              "name": "arrivalAirportCode",
              "type": "string"
            },
            {
              "internalType": "uint256",
              "name": "departureTime",
              "type": "uint256"
            },
            {
              "internalType": "uint256",
              "name": "createdAt",
              "type": "uint256"
            },
            {
              "internalType": "uint256",
              "name": "payoutToDate",
              "type": "uint256"
            },
            {
              "internalType": "address",
              "name": "buyer",
              "type": "address"
            },
            {
              "internalType": "enum FlightPolicy.PolicyStatus",
              "name": "status",
              "type": "uint8"
            }
          ],
          "internalType": "struct FlightPolicy.UserPolicy[]",
          "name": "",
          "type": "tuple[]"
        }
      ],
      "stateMutability": "view",
      "type": "function"
    },
    {
      "inputs": [],
      "name": "insurerAddress",
      "outputs": [
        {
          "internalType": "address",
          "name": "",
          "type": "address"
        }
      ],
      "stateMutability": "view",
      "type": "function"
    },
    {
      "inputs": [
        {
          "internalType": "uint256",
          "name": "policyId",
          "type": "uint256"
        }
      ],
      "name": "markPolicyAsExpired",
      "outputs": [],
      "stateMutability": "nonpayable",
      "type": "function"
    },
    {
      "inputs": [],
      "name": "nextUserPolicyId",
      "outputs": [
        {
          "internalType": "uint256",
          "name": "",
          "type": "uint256"
        }
      ],
      "stateMutability": "view",
      "type": "function"
    },
    {
      "inputs": [],
      "name": "oracleConnector",
      "outputs": [
        {
          "internalType": "contract OracleConnector",
          "name": "",
          "type": "address"
        }
      ],
      "stateMutability": "view",
      "type": "function"
    },
    {
      "inputs": [
        {
          "components": [
            {
              "internalType": "string",
              "name": "templateId",
              "type": "string"
            },
            {
              "internalType": "string",
              "name": "name",
              "type": "string"
            },
            {
              "internalType": "string",
              "name": "description",
              "type": "string"
            },
            {
              "internalType": "uint256",
              "name": "createdAt",
              "type": "uint256"
            },
            {
              "internalType": "uint256",
              "name": "updatedAt",
              "type": "uint256"
            },
            {
              "internalType": "uint256",
              "name": "premium",
              "type": "uint256"
            },
            {
              "internalType": "uint256",
              "name": "payoutPerHour",
              "type": "uint256"
            },
            {
              "internalType": "uint256",
              "name": "delayThresholdHours",
              "type": "uint256"
            },
            {
              "internalType": "uint256",
              "name": "maxTotalPayout",
              "type": "uint256"
            },
            {
              "internalType": "uint256",
              "name": "coverageDurationDays",
              "type": "uint256"
            },
            {
              "internalType": "enum FlightPolicy.PolicyTemplateStatus",
              "name": "status",
              "type": "uint8"
            }
          ],
          "internalType": "struct FlightPolicy.PolicyTemplate",
          "name": "template",
          "type": "tuple"
        },
        {
          "internalType": "string",
          "name": "flightNumber",
          "type": "string"
        },
        {
          "internalType": "string",
          "name": "departureAirportCode",
          "type": "string"
        },
        {
          "internalType": "string",
          "name": "arrivalAirportCode",
          "type": "string"
        },
        {
          "internalType": "uint256",
          "name": "departureTime",
          "type": "uint256"
        },
        {
          "internalType": "address",
          "name": "buyer",
          "type": "address"
        }
      ],
      "name": "purchasePolicy",
      "outputs": [
        {
          "internalType": "uint256",
          "name": "",
          "type": "uint256"
        }
      ],
      "stateMutability": "payable",
      "type": "function"
    },
    {
      "inputs": [
        {
          "internalType": "uint256",
          "name": "",
          "type": "uint256"
        }
      ],
      "name": "userPolicies",
      "outputs": [
        {
          "internalType": "uint256",
          "name": "policyId",
          "type": "uint256"
        },
        {
          "components": [
            {
              "internalType": "string",
              "name": "templateId",
              "type": "string"
            },
            {
              "internalType": "string",
              "name": "name",
              "type": "string"
            },
            {
              "internalType": "string",
              "name": "description",
              "type": "string"
            },
            {
              "internalType": "uint256",
              "name": "createdAt",
              "type": "uint256"
            },
            {
              "internalType": "uint256",
              "name": "updatedAt",
              "type": "uint256"
            },
            {
              "internalType": "uint256",
              "name": "premium",
              "type": "uint256"
            },
            {
              "internalType": "uint256",
              "name": "payoutPerHour",
              "type": "uint256"
            },
            {
              "internalType": "uint256",
              "name": "delayThresholdHours",
              "type": "uint256"
            },
            {
              "internalType": "uint256",
              "name": "maxTotalPayout",
              "type": "uint256"
            },
            {
              "internalType": "uint256",
              "name": "coverageDurationDays",
              "type": "uint256"
            },
            {
              "internalType": "enum FlightPolicy.PolicyTemplateStatus",
              "name": "status",
              "type": "uint8"
            }
          ],
          "internalType": "struct FlightPolicy.PolicyTemplate",
          "name": "template",
          "type": "tuple"
        },
        {
          "internalType": "string",
          "name": "flightNumber",
          "type": "string"
        },
        {
          "internalType": "string",
          "name": "departureAirportCode",
          "type": "string"
        },
        {
          "internalType": "string",
          "name": "arrivalAirportCode",
          "type": "string"
        },
        {
          "internalType": "uint256",
          "name": "departureTime",
          "type": "uint256"
        },
        {
          "internalType": "uint256",
          "name": "createdAt",
          "type": "uint256"
        },
        {
          "internalType": "uint256",
          "name": "payoutToDate",
          "type": "uint256"
        },
        {
          "internalType": "address",
          "name": "buyer",
          "type": "address"
        },
        {
          "internalType": "enum FlightPolicy.PolicyStatus",
          "name": "status",
          "type": "uint8"
        }
      ],
      "stateMutability": "view",
      "type": "function"
    },
    {
      "inputs": [
        {
          "internalType": "address",
          "name": "",
          "type": "address"
        },
        {
          "internalType": "uint256",
          "name": "",
          "type": "uint256"
        }
      ],
      "name": "userPolicyIds",
      "outputs": [
        {
          "internalType": "uint256",
          "name": "",
          "type": "uint256"
        }
      ],
      "stateMutability": "view",
      "type": "function"
    }
  ],
  "bytecode": "0x60a06040523480156200001157600080fd5b5060405162004c2338038062004c23833981810160405281019062000037919062000125565b60016000819055503373ffffffffffffffffffffffffffffffffffffffff1660808173ffffffffffffffffffffffffffffffffffffffff168152505080600160006101000a81548173ffffffffffffffffffffffffffffffffffffffff021916908373ffffffffffffffffffffffffffffffffffffffff1602179055505062000157565b600080fd5b600073ffffffffffffffffffffffffffffffffffffffff82169050919050565b6000620000ed82620000c0565b9050919050565b620000ff81620000e0565b81146200010b57600080fd5b50565b6000815190506200011f81620000f4565b92915050565b6000602082840312156200013e576200013d620000bb565b5b60006200014e848285016200010e565b91505092915050565b608051614aa96200017a60003960008181611ae601526129250152614aa96000f3fe60806040526004361061009c5760003560e01c80639c6cf7ef116100645780639c6cf7ef1461018f578063a7c0900e146101cc578063b0110cc6146101f7578063b6e283e114610220578063cba85f061461025d578063cf39c624146102a35761009c565b806319ac4614146100a157806331953ecc146100de578063457e55211461010e5780637b956415146101395780639a9122ac14610164575b600080fd5b3480156100ad57600080fd5b506100c860048036038101906100c391906131a4565b6102cc565b6040516100d591906135f6565b60405180910390f35b6100f860048036038101906100f39190613908565b610adf565b6040516101059190613a14565b60405180910390f35b34801561011a57600080fd5b50610123610e93565b60405161013091906135f6565b60405180910390f35b34801561014557600080fd5b5061014e61141b565b60405161015b9190613a14565b60405180910390f35b34801561017057600080fd5b50610179611421565b6040516101869190613a8e565b60405180910390f35b34801561019b57600080fd5b506101b660048036038101906101b19190613aa9565b611447565b6040516101c391906135f6565b60405180910390f35b3480156101d857600080fd5b506101e1611ae4565b6040516101ee9190613b01565b60405180910390f35b34801561020357600080fd5b5061021e60048036038101906102199190613b1c565b611b08565b005b34801561022c57600080fd5b5061024760048036038101906102429190613b5c565b61240a565b6040516102549190613a14565b60405180910390f35b34801561026957600080fd5b50610284600480360381019061027f9190613b9c565b61243b565b60405161029a9a99989796959493929190613d1f565b60405180910390f35b3480156102af57600080fd5b506102ca60048036038101906102c59190613b9c565b612896565b005b60606000600360008473ffffffffffffffffffffffffffffffffffffffff1673ffffffffffffffffffffffffffffffffffffffff16815260200190815260200160002080549050905060008167ffffffffffffffff8111156103315761033061361d565b5b60405190808252806020026020018201604052801561036a57816020015b61035761303b565b81526020019060019003908161034f5790505b50905060005b82811015610acc5760026000600360008873ffffffffffffffffffffffffffffffffffffffff1673ffffffffffffffffffffffffffffffffffffffff16815260200190815260200160002083815481106103cd576103cc613dd7565b5b906000526020600020015481526020019081526020016000206040518061014001604052908160008201548152602001600182016040518061016001604052908160008201805461041d90613e35565b80601f016020809104026020016040519081016040528092919081815260200182805461044990613e35565b80156104965780601f1061046b57610100808354040283529160200191610496565b820191906000526020600020905b81548152906001019060200180831161047957829003601f168201915b505050505081526020016001820180546104af90613e35565b80601f01602080910402602001604051908101604052809291908181526020018280546104db90613e35565b80156105285780601f106104fd57610100808354040283529160200191610528565b820191906000526020600020905b81548152906001019060200180831161050b57829003601f168201915b5050505050815260200160028201805461054190613e35565b80601f016020809104026020016040519081016040528092919081815260200182805461056d90613e35565b80156105ba5780601f1061058f576101008083540402835291602001916105ba565b820191906000526020600020905b81548152906001019060200180831161059d57829003601f168201915b5050505050815260200160038201548152602001600482015481526020016005820154815260200160068201548152602001600782015481526020016008820154815260200160098201548152602001600a820160009054906101000a900460ff16600181111561062e5761062d6132a6565b5b60018111156106405761063f6132a6565b5b815250508152602001600c8201805461065890613e35565b80601f016020809104026020016040519081016040528092919081815260200182805461068490613e35565b80156106d15780601f106106a6576101008083540402835291602001916106d1565b820191906000526020600020905b8154815290600101906020018083116106b457829003601f168201915b50505050508152602001600d820180546106ea90613e35565b80601f016020809104026020016040519081016040528092919081815260200182805461071690613e35565b80156107635780601f1061073857610100808354040283529160200191610763565b820191906000526020600020905b81548152906001019060200180831161074657829003601f168201915b50505050508152602001600e8201805461077c90613e35565b80601f01602080910402602001604051908101604052809291908181526020018280546107a890613e35565b80156107f55780601f106107ca576101008083540402835291602001916107f5565b820191906000526020600020905b8154815290600101906020018083116107d857829003601f168201915b50505050508152602001600f820154815260200160108201548152602001601182015481526020016012820160009054906101000a900473ffffffffffffffffffffffffffffffffffffffff1673ffffffffffffffffffffffffffffffffffffffff1673ffffffffffffffffffffffffffffffffffffffff1681526020016012820160149054906101000a900460ff166002811115610897576108966132a6565b5b60028111156108a9576108a86132a6565b5b815250508282815181106108c0576108bf613dd7565b5b602002602001018190525061097e6040518060400160405280601281526020017f54656d706c617465207072656d69756d3a20000000000000000000000000000081525060026000600360008a73ffffffffffffffffffffffffffffffffffffffff1673ffffffffffffffffffffffffffffffffffffffff168152602001908152602001600020858154811061095957610958613dd7565b5b9060005260206000200154815260200190815260200160002060010160050154612b22565b610ab96040518060400160405280600f81526020017f54656d706c617465206e616d653a20000000000000000000000000000000000081525060026000600360008a73ffffffffffffffffffffffffffffffffffffffff1673ffffffffffffffffffffffffffffffffffffffff1681526020019081526020016000208581548110610a0c57610a0b613dd7565b5b906000526020600020015481526020019081526020016000206001016001018054610a3690613e35565b80601f0160208091040260200160405190810160405280929190818152602001828054610a6290613e35565b8015610aaf5780601f10610a8457610100808354040283529160200191610aaf565b820191906000526020600020905b815481529060010190602001808311610a9257829003601f168201915b5050505050612bbe565b8080610ac490613e95565b915050610370565b50610ad681612c5a565b92505050919050565b6000806001811115610af457610af36132a6565b5b8761014001516001811115610b0c57610b0b6132a6565b5b14610b4c576040517f08c379a0000000000000000000000000000000000000000000000000000000008152600401610b4390613f29565b60405180910390fd5b428311610b8e576040517f08c379a0000000000000000000000000000000000000000000000000000000008152600401610b8590613fbb565b60405180910390fd5b8660a00151341015610bd5576040517f08c379a0000000000000000000000000000000000000000000000000000000008152600401610bcc90614027565b60405180910390fd5b600060046000815480929190610bea90613e95565b919050559050604051806101400160405280828152602001898152602001888152602001878152602001868152602001858152602001428152602001600081526020018473ffffffffffffffffffffffffffffffffffffffff16815260200160006002811115610c5d57610c5c6132a6565b5b81525060026000838152602001908152602001600020600082015181600001556020820151816001016000820151816000019081610c9b91906141e9565b506020820151816001019081610cb191906141e9565b506040820151816002019081610cc791906141e9565b50606082015181600301556080820151816004015560a0820151816005015560c0820151816006015560e082015181600701556101008201518160080155610120820151816009015561014082015181600a0160006101000a81548160ff02191690836001811115610d3c57610d3b6132a6565b5b02179055505050604082015181600c019081610d5891906141e9565b50606082015181600d019081610d6e91906141e9565b50608082015181600e019081610d8491906141e9565b5060a082015181600f015560c0820151816010015560e082015181601101556101008201518160120160006101000a81548173ffffffffffffffffffffffffffffffffffffffff021916908373ffffffffffffffffffffffffffffffffffffffff1602179055506101208201518160120160146101000a81548160ff02191690836002811115610e1757610e166132a6565b5b0217905550905050600360008473ffffffffffffffffffffffffffffffffffffffff1673ffffffffffffffffffffffffffffffffffffffff168152602001908152602001600020819080600181540180825580915050600190039060005260206000200160009091909190915055809150509695505050505050565b60606000600454905060008167ffffffffffffffff811115610eb857610eb761361d565b5b604051908082528060200260200182016040528015610ef157816020015b610ede61303b565b815260200190600190039081610ed65790505b50905060005b8281101561140a576002600082815260200190815260200160002060405180610140016040529081600082015481526020016001820160405180610160016040529081600082018054610f4990613e35565b80601f0160208091040260200160405190810160405280929190818152602001828054610f7590613e35565b8015610fc25780601f10610f9757610100808354040283529160200191610fc2565b820191906000526020600020905b815481529060010190602001808311610fa557829003601f168201915b50505050508152602001600182018054610fdb90613e35565b80601f016020809104026020016040519081016040528092919081815260200182805461100790613e35565b80156110545780601f1061102957610100808354040283529160200191611054565b820191906000526020600020905b81548152906001019060200180831161103757829003601f168201915b5050505050815260200160028201805461106d90613e35565b80601f016020809104026020016040519081016040528092919081815260200182805461109990613e35565b80156110e65780601f106110bb576101008083540402835291602001916110e6565b820191906000526020600020905b8154815290600101906020018083116110c957829003601f168201915b5050505050815260200160038201548152602001600482015481526020016005820154815260200160068201548152602001600782015481526020016008820154815260200160098201548152602001600a820160009054906101000a900460ff16600181111561115a576111596132a6565b5b600181111561116c5761116b6132a6565b5b815250508152602001600c8201805461118490613e35565b80601f01602080910402602001604051908101604052809291908181526020018280546111b090613e35565b80156111fd5780601f106111d2576101008083540402835291602001916111fd565b820191906000526020600020905b8154815290600101906020018083116111e057829003601f168201915b50505050508152602001600d8201805461121690613e35565b80601f016020809104026020016040519081016040528092919081815260200182805461124290613e35565b801561128f5780601f106112645761010080835404028352916020019161128f565b820191906000526020600020905b81548152906001019060200180831161127257829003601f168201915b50505050508152602001600e820180546112a890613e35565b80601f01602080910402602001604051908101604052809291908181526020018280546112d490613e35565b80156113215780601f106112f657610100808354040283529160200191611321565b820191906000526020600020905b81548152906001019060200180831161130457829003601f168201915b50505050508152602001600f820154815260200160108201548152602001601182015481526020016012820160009054906101000a900473ffffffffffffffffffffffffffffffffffffffff1673ffffffffffffffffffffffffffffffffffffffff1673ffffffffffffffffffffffffffffffffffffffff1681526020016012820160149054906101000a900460ff1660028111156113c3576113c26132a6565b5b60028111156113d5576113d46132a6565b5b815250508282815181106113ec576113eb613dd7565b5b6020026020010181905250808061140290613e95565b915050610ef7565b5061141481612c5a565b9250505090565b60045481565b600160009054906101000a900473ffffffffffffffffffffffffffffffffffffffff1681565b60606000805b6004548110156114e4578360405160200161146891906142f7565b60405160208183030381529060405280519060200120600260008381526020019081526020016000206001016000016040516020016114a79190614391565b60405160208183030381529060405280519060200120036114d15781806114cd90613e95565b9250505b80806114dc90613e95565b91505061144d565b5060008167ffffffffffffffff8111156115015761150061361d565b5b60405190808252806020026020018201604052801561153a57816020015b61152761303b565b81526020019060019003908161151f5790505b5090506000805b600454811015611ad0578560405160200161155c91906142f7565b604051602081830303815290604052805190602001206002600083815260200190815260200160002060010160000160405160200161159b9190614391565b6040516020818303038152906040528051906020012003611abd57600260008281526020019081526020016000206040518061014001604052908160008201548152602001600182016040518061016001604052908160008201805461160090613e35565b80601f016020809104026020016040519081016040528092919081815260200182805461162c90613e35565b80156116795780601f1061164e57610100808354040283529160200191611679565b820191906000526020600020905b81548152906001019060200180831161165c57829003601f168201915b5050505050815260200160018201805461169290613e35565b80601f01602080910402602001604051908101604052809291908181526020018280546116be90613e35565b801561170b5780601f106116e05761010080835404028352916020019161170b565b820191906000526020600020905b8154815290600101906020018083116116ee57829003601f168201915b5050505050815260200160028201805461172490613e35565b80601f016020809104026020016040519081016040528092919081815260200182805461175090613e35565b801561179d5780601f106117725761010080835404028352916020019161179d565b820191906000526020600020905b81548152906001019060200180831161178057829003601f168201915b5050505050815260200160038201548152602001600482015481526020016005820154815260200160068201548152602001600782015481526020016008820154815260200160098201548152602001600a820160009054906101000a900460ff166001811115611811576118106132a6565b5b6001811115611823576118226132a6565b5b815250508152602001600c8201805461183b90613e35565b80601f016020809104026020016040519081016040528092919081815260200182805461186790613e35565b80156118b45780601f10611889576101008083540402835291602001916118b4565b820191906000526020600020905b81548152906001019060200180831161189757829003601f168201915b50505050508152602001600d820180546118cd90613e35565b80601f01602080910402602001604051908101604052809291908181526020018280546118f990613e35565b80156119465780601f1061191b57610100808354040283529160200191611946565b820191906000526020600020905b81548152906001019060200180831161192957829003601f168201915b50505050508152602001600e8201805461195f90613e35565b80601f016020809104026020016040519081016040528092919081815260200182805461198b90613e35565b80156119d85780601f106119ad576101008083540402835291602001916119d8565b820191906000526020600020905b8154815290600101906020018083116119bb57829003601f168201915b50505050508152602001600f820154815260200160108201548152602001601182015481526020016012820160009054906101000a900473ffffffffffffffffffffffffffffffffffffffff1673ffffffffffffffffffffffffffffffffffffffff1673ffffffffffffffffffffffffffffffffffffffff1681526020016012820160149054906101000a900460ff166002811115611a7a57611a796132a6565b5b6002811115611a8c57611a8b6132a6565b5b81525050838381518110611aa357611aa2613dd7565b5b60200260200101819052508180611ab990613e95565b9250505b8080611ac890613e95565b915050611541565b50611ada82612c5a565b9350505050919050565b7f000000000000000000000000000000000000000000000000000000000000000081565b611b10612d7b565b6004548210611b54576040517f08c379a0000000000000000000000000000000000000000000000000000000008152600401611b4b906143f4565b60405180910390fd5b6000600167ffffffffffffffff811115611b7157611b7061361d565b5b604051908082528060200260200182016040528015611baa57816020015b611b9761303b565b815260200190600190039081611b8f5790505b5090506002600084815260200190815260200160002060405180610140016040529081600082015481526020016001820160405180610160016040529081600082018054611bf790613e35565b80601f0160208091040260200160405190810160405280929190818152602001828054611c2390613e35565b8015611c705780601f10611c4557610100808354040283529160200191611c70565b820191906000526020600020905b815481529060010190602001808311611c5357829003601f168201915b50505050508152602001600182018054611c8990613e35565b80601f0160208091040260200160405190810160405280929190818152602001828054611cb590613e35565b8015611d025780601f10611cd757610100808354040283529160200191611d02565b820191906000526020600020905b815481529060010190602001808311611ce557829003601f168201915b50505050508152602001600282018054611d1b90613e35565b80601f0160208091040260200160405190810160405280929190818152602001828054611d4790613e35565b8015611d945780601f10611d6957610100808354040283529160200191611d94565b820191906000526020600020905b815481529060010190602001808311611d7757829003601f168201915b5050505050815260200160038201548152602001600482015481526020016005820154815260200160068201548152602001600782015481526020016008820154815260200160098201548152602001600a820160009054906101000a900460ff166001811115611e0857611e076132a6565b5b6001811115611e1a57611e196132a6565b5b815250508152602001600c82018054611e3290613e35565b80601f0160208091040260200160405190810160405280929190818152602001828054611e5e90613e35565b8015611eab5780601f10611e8057610100808354040283529160200191611eab565b820191906000526020600020905b815481529060010190602001808311611e8e57829003601f168201915b50505050508152602001600d82018054611ec490613e35565b80601f0160208091040260200160405190810160405280929190818152602001828054611ef090613e35565b8015611f3d5780601f10611f1257610100808354040283529160200191611f3d565b820191906000526020600020905b815481529060010190602001808311611f2057829003601f168201915b50505050508152602001600e82018054611f5690613e35565b80601f0160208091040260200160405190810160405280929190818152602001828054611f8290613e35565b8015611fcf5780601f10611fa457610100808354040283529160200191611fcf565b820191906000526020600020905b815481529060010190602001808311611fb257829003601f168201915b50505050508152602001600f820154815260200160108201548152602001601182015481526020016012820160009054906101000a900473ffffffffffffffffffffffffffffffffffffffff1673ffffffffffffffffffffffffffffffffffffffff1673ffffffffffffffffffffffffffffffffffffffff1681526020016012820160149054906101000a900460ff166002811115612071576120706132a6565b5b6002811115612083576120826132a6565b5b815250508160008151811061209b5761209a613dd7565b5b602002602001018190525060006120b182612c5a565b90506000816000815181106120c9576120c8613dd7565b5b6020026020010151905080610100015173ffffffffffffffffffffffffffffffffffffffff168473ffffffffffffffffffffffffffffffffffffffff1614612146576040517f08c379a000000000000000000000000000000000000000000000000000000000815260040161213d90614460565b60405180910390fd5b6000600281111561215a576121596132a6565b5b8161012001516002811115612172576121716132a6565b5b146121b2576040517f08c379a00000000000000000000000000000000000000000000000000000000081526004016121a9906144cc565b60405180910390fd5b60006121c18260a00151612dca565b90506000806000600160009054906101000a900473ffffffffffffffffffffffffffffffffffffffff1673ffffffffffffffffffffffffffffffffffffffff166326ec641e8660400151866040518363ffffffff1660e01b81526004016122299291906144ec565b6060604051808303816000875af1158015612248573d6000803e3d6000fd5b505050506040513d601f19601f8201168201806040525081019061226c9190614570565b925092509250816122b2576040517f08c379a00000000000000000000000000000000000000000000000000000000081526004016122a99061460f565b60405180910390fd5b6000856020015160c00151826122c8919061462f565b9050856020015161010001518111156122e8578560200151610100015190505b6000811161232b576040517f08c379a0000000000000000000000000000000000000000000000000000000008152600401612322906146bd565b60405180910390fd5b8047101561236e576040517f08c379a000000000000000000000000000000000000000000000000000000000815260040161236590614729565b60405180910390fd5b60028661012001906002811115612388576123876132a6565b5b9081600281111561239c5761239b6132a6565b5b81525050808660e001818152505085610100015173ffffffffffffffffffffffffffffffffffffffff166108fc829081150290604051600060405180830381858888f193505050501580156123f5573d6000803e3d6000fd5b505050505050505050612406612e98565b5050565b6003602052816000526040600020818154811061242657600080fd5b90600052602060002001600091509150505481565b6002602052806000526040600020600091509050806000015490806001016040518061016001604052908160008201805461247590613e35565b80601f01602080910402602001604051908101604052809291908181526020018280546124a190613e35565b80156124ee5780601f106124c3576101008083540402835291602001916124ee565b820191906000526020600020905b8154815290600101906020018083116124d157829003601f168201915b5050505050815260200160018201805461250790613e35565b80601f016020809104026020016040519081016040528092919081815260200182805461253390613e35565b80156125805780601f1061255557610100808354040283529160200191612580565b820191906000526020600020905b81548152906001019060200180831161256357829003601f168201915b5050505050815260200160028201805461259990613e35565b80601f01602080910402602001604051908101604052809291908181526020018280546125c590613e35565b80156126125780601f106125e757610100808354040283529160200191612612565b820191906000526020600020905b8154815290600101906020018083116125f557829003601f168201915b5050505050815260200160038201548152602001600482015481526020016005820154815260200160068201548152602001600782015481526020016008820154815260200160098201548152602001600a820160009054906101000a900460ff166001811115612686576126856132a6565b5b6001811115612698576126976132a6565b5b815250509080600c0180546126ac90613e35565b80601f01602080910402602001604051908101604052809291908181526020018280546126d890613e35565b80156127255780601f106126fa57610100808354040283529160200191612725565b820191906000526020600020905b81548152906001019060200180831161270857829003601f168201915b50505050509080600d01805461273a90613e35565b80601f016020809104026020016040519081016040528092919081815260200182805461276690613e35565b80156127b35780601f10612788576101008083540402835291602001916127b3565b820191906000526020600020905b81548152906001019060200180831161279657829003601f168201915b50505050509080600e0180546127c890613e35565b80601f01602080910402602001604051908101604052809291908181526020018280546127f490613e35565b80156128415780601f1061281657610100808354040283529160200191612841565b820191906000526020600020905b81548152906001019060200180831161282457829003601f168201915b50505050509080600f0154908060100154908060110154908060120160009054906101000a900473ffffffffffffffffffffffffffffffffffffffff16908060120160149054906101000a900460ff1690508a565b60008060028111156128ab576128aa6132a6565b5b60026000600454815260200190815260200160002060120160149054906101000a900460ff1660028111156128e3576128e26132a6565b5b14612923576040517f08c379a000000000000000000000000000000000000000000000000000000000815260040161291a906147bb565b60405180910390fd5b7f000000000000000000000000000000000000000000000000000000000000000073ffffffffffffffffffffffffffffffffffffffff163273ffffffffffffffffffffffffffffffffffffffff16146129b1576040517f08c379a00000000000000000000000000000000000000000000000000000000081526004016129a89061484d565b60405180910390fd5b60045482106129f5576040517f08c379a00000000000000000000000000000000000000000000000000000000081526004016129ec906143f4565b60405180910390fd5b600060026000848152602001908152602001600020905060006002811115612a2057612a1f6132a6565b5b8160120160149054906101000a900460ff166002811115612a4457612a436132a6565b5b14612a84576040517f08c379a0000000000000000000000000000000000000000000000000000000008152600401612a7b906148b9565b60405180910390fd5b6000620151808260010160090154612a9c919061462f565b8260100154612aab91906148d9565b9050804211612aef576040517f08c379a0000000000000000000000000000000000000000000000000000000008152600401612ae690614959565b60405180910390fd5b60018260120160146101000a81548160ff02191690836002811115612b1757612b166132a6565b5b021790555050505050565b612bba8282604051602401612b38929190614979565b6040516020818303038152906040527fb60e72cc000000000000000000000000000000000000000000000000000000007bffffffffffffffffffffffffffffffffffffffffffffffffffffffff19166020820180517bffffffffffffffffffffffffffffffffffffffffffffffffffffffff8381831617835250505050612ea2565b5050565b612c568282604051602401612bd49291906144ec565b6040516020818303038152906040527f4b5c4277000000000000000000000000000000000000000000000000000000007bffffffffffffffffffffffffffffffffffffffffffffffffffffffff19166020820180517bffffffffffffffffffffffffffffffffffffffffffffffffffffffff8381831617835250505050612ea2565b5050565b606060005b8251811015612d725760006002811115612c7c57612c7b6132a6565b5b838281518110612c8f57612c8e613dd7565b5b602002602001015161012001516002811115612cae57612cad6132a6565b5b03612d5f576000620151806002600084815260200190815260200160002060010160090154612cdd919061462f565b848381518110612cf057612cef613dd7565b5b602002602001015160c00151612d0691906148d9565b905080421115612d5d576001848381518110612d2557612d24613dd7565b5b602002602001015161012001906002811115612d4457612d436132a6565b5b90816002811115612d5857612d576132a6565b5b815250505b505b8080612d6a90613e95565b915050612c5f565b50819050919050565b600260005403612dc0576040517f08c379a0000000000000000000000000000000000000000000000000000000008152600401612db7906149f5565b60405180910390fd5b6002600081905550565b606060006001612dd984612ebc565b01905060008167ffffffffffffffff811115612df857612df761361d565b5b6040519080825280601f01601f191660200182016040528015612e2a5781602001600182028036833780820191505090505b509050600082602001820190505b600115612e8d578080600190039150507f3031323334353637383961626364656600000000000000000000000000000000600a86061a8153600a8581612e8157612e80614a15565b5b04945060008503612e38575b819350505050919050565b6001600081905550565b612eb981612eb161300f613030565b63ffffffff16565b50565b600080600090507a184f03e93ff9f4daa797ed6e38ed64bf6a1f0100000000000000008310612f1a577a184f03e93ff9f4daa797ed6e38ed64bf6a1f0100000000000000008381612f1057612f0f614a15565b5b0492506040810190505b6d04ee2d6d415b85acef81000000008310612f57576d04ee2d6d415b85acef81000000008381612f4d57612f4c614a15565b5b0492506020810190505b662386f26fc100008310612f8657662386f26fc100008381612f7c57612f7b614a15565b5b0492506010810190505b6305f5e1008310612faf576305f5e1008381612fa557612fa4614a15565b5b0492506008810190505b6127108310612fd4576127108381612fca57612fc9614a15565b5b0492506004810190505b60648310612ff75760648381612fed57612fec614a15565b5b0492506002810190505b600a8310613006576001810190505b80915050919050565b60006a636f6e736f6c652e6c6f679050600080835160208501845afa505050565b6130bc819050919050565b604051806101400160405280600081526020016130566130c6565b8152602001606081526020016060815260200160608152602001600081526020016000815260200160008152602001600073ffffffffffffffffffffffffffffffffffffffff168152602001600060028111156130b6576130b56132a6565b5b81525090565b6130c4614a44565b565b604051806101600160405280606081526020016060815260200160608152602001600081526020016000815260200160008152602001600081526020016000815260200160008152602001600081526020016000600181111561312c5761312b6132a6565b5b81525090565b6000604051905090565b600080fd5b600080fd5b600073ffffffffffffffffffffffffffffffffffffffff82169050919050565b600061317182613146565b9050919050565b61318181613166565b811461318c57600080fd5b50565b60008135905061319e81613178565b92915050565b6000602082840312156131ba576131b961313c565b5b60006131c88482850161318f565b91505092915050565b600081519050919050565b600082825260208201905092915050565b6000819050602082019050919050565b6000819050919050565b613210816131fd565b82525050565b600081519050919050565b600082825260208201905092915050565b60005b83811015613250578082015181840152602081019050613235565b60008484015250505050565b6000601f19601f8301169050919050565b600061327882613216565b6132828185613221565b9350613292818560208601613232565b61329b8161325c565b840191505092915050565b7f4e487b7100000000000000000000000000000000000000000000000000000000600052602160045260246000fd5b600281106132e6576132e56132a6565b5b50565b60008190506132f7826132d5565b919050565b6000613307826132e9565b9050919050565b613317816132fc565b82525050565b600061016083016000830151848203600086015261333b828261326d565b91505060208301518482036020860152613355828261326d565b9150506040830151848203604086015261336f828261326d565b91505060608301516133846060860182613207565b5060808301516133976080860182613207565b5060a08301516133aa60a0860182613207565b5060c08301516133bd60c0860182613207565b5060e08301516133d060e0860182613207565b506101008301516133e5610100860182613207565b506101208301516133fa610120860182613207565b5061014083015161340f61014086018261330e565b508091505092915050565b61342381613166565b82525050565b6003811061343a576134396132a6565b5b50565b600081905061344b82613429565b919050565b600061345b8261343d565b9050919050565b61346b81613450565b82525050565b60006101408301600083015161348a6000860182613207565b50602083015184820360208601526134a2828261331d565b915050604083015184820360408601526134bc828261326d565b915050606083015184820360608601526134d6828261326d565b915050608083015184820360808601526134f0828261326d565b91505060a083015161350560a0860182613207565b5060c083015161351860c0860182613207565b5060e083015161352b60e0860182613207565b5061010083015161354061010086018261341a565b50610120830151613555610120860182613462565b508091505092915050565b600061356c8383613471565b905092915050565b6000602082019050919050565b600061358c826131d1565b61359681856131dc565b9350836020820285016135a8856131ed565b8060005b858110156135e457848403895281516135c58582613560565b94506135d083613574565b925060208a019950506001810190506135ac565b50829750879550505050505092915050565b600060208201905081810360008301526136108184613581565b905092915050565b600080fd5b7f4e487b7100000000000000000000000000000000000000000000000000000000600052604160045260246000fd5b6136558261325c565b810181811067ffffffffffffffff821117156136745761367361361d565b5b80604052505050565b6000613687613132565b9050613693828261364c565b919050565b600080fd5b600080fd5b600080fd5b600067ffffffffffffffff8211156136c2576136c161361d565b5b6136cb8261325c565b9050602081019050919050565b82818337600083830152505050565b60006136fa6136f5846136a7565b61367d565b905082815260208101848484011115613716576137156136a2565b5b6137218482856136d8565b509392505050565b600082601f83011261373e5761373d61369d565b5b813561374e8482602086016136e7565b91505092915050565b613760816131fd565b811461376b57600080fd5b50565b60008135905061377d81613757565b92915050565b6002811061379057600080fd5b50565b6000813590506137a281613783565b92915050565b600061016082840312156137bf576137be613618565b5b6137ca61016061367d565b9050600082013567ffffffffffffffff8111156137ea576137e9613698565b5b6137f684828501613729565b600083015250602082013567ffffffffffffffff81111561381a57613819613698565b5b61382684828501613729565b602083015250604082013567ffffffffffffffff81111561384a57613849613698565b5b61385684828501613729565b604083015250606061386a8482850161376e565b606083015250608061387e8482850161376e565b60808301525060a06138928482850161376e565b60a08301525060c06138a68482850161376e565b60c08301525060e06138ba8482850161376e565b60e0830152506101006138cf8482850161376e565b610100830152506101206138e58482850161376e565b610120830152506101406138fb84828501613793565b6101408301525092915050565b60008060008060008060c087890312156139255761392461313c565b5b600087013567ffffffffffffffff81111561394357613942613141565b5b61394f89828a016137a8565b965050602087013567ffffffffffffffff8111156139705761396f613141565b5b61397c89828a01613729565b955050604087013567ffffffffffffffff81111561399d5761399c613141565b5b6139a989828a01613729565b945050606087013567ffffffffffffffff8111156139ca576139c9613141565b5b6139d689828a01613729565b93505060806139e789828a0161376e565b92505060a06139f889828a0161318f565b9150509295509295509295565b613a0e816131fd565b82525050565b6000602082019050613a296000830184613a05565b92915050565b6000819050919050565b6000613a54613a4f613a4a84613146565b613a2f565b613146565b9050919050565b6000613a6682613a39565b9050919050565b6000613a7882613a5b565b9050919050565b613a8881613a6d565b82525050565b6000602082019050613aa36000830184613a7f565b92915050565b600060208284031215613abf57613abe61313c565b5b600082013567ffffffffffffffff811115613add57613adc613141565b5b613ae984828501613729565b91505092915050565b613afb81613166565b82525050565b6000602082019050613b166000830184613af2565b92915050565b60008060408385031215613b3357613b3261313c565b5b6000613b418582860161376e565b9250506020613b528582860161318f565b9150509250929050565b60008060408385031215613b7357613b7261313c565b5b6000613b818582860161318f565b9250506020613b928582860161376e565b9150509250929050565b600060208284031215613bb257613bb161313c565b5b6000613bc08482850161376e565b91505092915050565b6000610160830160008301518482036000860152613be7828261326d565b91505060208301518482036020860152613c01828261326d565b91505060408301518482036040860152613c1b828261326d565b9150506060830151613c306060860182613207565b506080830151613c436080860182613207565b5060a0830151613c5660a0860182613207565b5060c0830151613c6960c0860182613207565b5060e0830151613c7c60e0860182613207565b50610100830151613c91610100860182613207565b50610120830151613ca6610120860182613207565b50610140830151613cbb61014086018261330e565b508091505092915050565b600082825260208201905092915050565b6000613ce282613216565b613cec8185613cc6565b9350613cfc818560208601613232565b613d058161325c565b840191505092915050565b613d1981613450565b82525050565b600061014082019050613d35600083018d613a05565b8181036020830152613d47818c613bc9565b90508181036040830152613d5b818b613cd7565b90508181036060830152613d6f818a613cd7565b90508181036080830152613d838189613cd7565b9050613d9260a0830188613a05565b613d9f60c0830187613a05565b613dac60e0830186613a05565b613dba610100830185613af2565b613dc8610120830184613d10565b9b9a5050505050505050505050565b7f4e487b7100000000000000000000000000000000000000000000000000000000600052603260045260246000fd5b7f4e487b7100000000000000000000000000000000000000000000000000000000600052602260045260246000fd5b60006002820490506001821680613e4d57607f821691505b602082108103613e6057613e5f613e06565b5b50919050565b7f4e487b7100000000000000000000000000000000000000000000000000000000600052601160045260246000fd5b6000613ea0826131fd565b91507fffffffffffffffffffffffffffffffffffffffffffffffffffffffffffffffff8203613ed257613ed1613e66565b5b600182019050919050565b7f506f6c6963792074656d706c617465206973206e6f7420616374697665000000600082015250565b6000613f13601d83613cc6565b9150613f1e82613edd565b602082019050919050565b60006020820190508181036000830152613f4281613f06565b9050919050565b7f4465706172747572652074696d65206d75737420626520696e2074686520667560008201527f7475726500000000000000000000000000000000000000000000000000000000602082015250565b6000613fa5602483613cc6565b9150613fb082613f49565b604082019050919050565b60006020820190508181036000830152613fd481613f98565b9050919050565b7f496e73756666696369656e74207072656d69756d2073656e7400000000000000600082015250565b6000614011601983613cc6565b915061401c82613fdb565b602082019050919050565b6000602082019050818103600083015261404081614004565b9050919050565b60008190508160005260206000209050919050565b60006020601f8301049050919050565b600082821b905092915050565b6000600883026140a97fffffffffffffffffffffffffffffffffffffffffffffffffffffffffffffffff8261406c565b6140b3868361406c565b95508019841693508086168417925050509392505050565b60006140e66140e16140dc846131fd565b613a2f565b6131fd565b9050919050565b6000819050919050565b614100836140cb565b61411461410c826140ed565b848454614079565b825550505050565b600090565b61412961411c565b6141348184846140f7565b505050565b5b818110156141585761414d600082614121565b60018101905061413a565b5050565b601f82111561419d5761416e81614047565b6141778461405c565b81016020851015614186578190505b61419a6141928561405c565b830182614139565b50505b505050565b600082821c905092915050565b60006141c0600019846008026141a2565b1980831691505092915050565b60006141d983836141af565b9150826002028217905092915050565b6141f282613216565b67ffffffffffffffff81111561420b5761420a61361d565b5b6142158254613e35565b61422082828561415c565b600060209050601f8311600181146142535760008415614241578287015190505b61424b85826141cd565b8655506142b3565b601f19841661426186614047565b60005b8281101561428957848901518255600182019150602085019450602081019050614264565b868310156142a657848901516142a2601f8916826141af565b8355505b6001600288020188555050505b505050505050565b600081905092915050565b60006142d182613216565b6142db81856142bb565b93506142eb818560208601613232565b80840191505092915050565b600061430382846142c6565b915081905092915050565b6000815461431b81613e35565b61432581866142bb565b94506001821660008114614340576001811461435557614388565b60ff1983168652811515820286019350614388565b61435e85614047565b60005b8381101561438057815481890152600182019150602081019050614361565b838801955050505b50505092915050565b600061439d828461430e565b915081905092915050565b7f496e76616c696420706f6c696379496400000000000000000000000000000000600082015250565b60006143de601083613cc6565b91506143e9826143a8565b602082019050919050565b6000602082019050818103600083015261440d816143d1565b9050919050565b7f4e6f7420706f6c696379206f776e657200000000000000000000000000000000600082015250565b600061444a601083613cc6565b915061445582614414565b602082019050919050565b600060208201905081810360008301526144798161443d565b9050919050565b7f506f6c696379206e6f7420616374697665000000000000000000000000000000600082015250565b60006144b6601183613cc6565b91506144c182614480565b602082019050919050565b600060208201905081810360008301526144e5816144a9565b9050919050565b600060408201905081810360008301526145068185613cd7565b9050818103602083015261451a8184613cd7565b90509392505050565b60008115159050919050565b61453881614523565b811461454357600080fd5b50565b6000815190506145558161452f565b92915050565b60008151905061456a81613757565b92915050565b6000806000606084860312156145895761458861313c565b5b600061459786828701614546565b93505060206145a886828701614546565b92505060406145b98682870161455b565b9150509250925092565b7f466c69676874206e6f742064656c617965640000000000000000000000000000600082015250565b60006145f9601283613cc6565b9150614604826145c3565b602082019050919050565b60006020820190508181036000830152614628816145ec565b9050919050565b600061463a826131fd565b9150614645836131fd565b9250828202614653816131fd565b9150828204841483151761466a57614669613e66565b5b5092915050565b7f4e6f207061796f75742064756500000000000000000000000000000000000000600082015250565b60006146a7600d83613cc6565b91506146b282614671565b602082019050919050565b600060208201905081810360008301526146d68161469a565b9050919050565b7f496e73756666696369656e7420636f6e74726163742062616c616e6365000000600082015250565b6000614713601d83613cc6565b915061471e826146dd565b602082019050919050565b6000602082019050818103600083015261474281614706565b9050919050565b7f42616767616765506f6c6963793a20506f6c696379206973206e6f7420696e2060008201527f74686520636f7272656374207374617475730000000000000000000000000000602082015250565b60006147a5603283613cc6565b91506147b082614749565b604082019050919050565b600060208201905081810360008301526147d481614798565b9050919050565b7f466c69676874506f6c6963793a204f6e6c792074686520696e7375726572206360008201527f616e2063616c6c20746869732066756e6374696f6e0000000000000000000000602082015250565b6000614837603583613cc6565b9150614842826147db565b604082019050919050565b600060208201905081810360008301526148668161482a565b9050919050565b7f506f6c696379206973206e6f7420616374697665000000000000000000000000600082015250565b60006148a3601483613cc6565b91506148ae8261486d565b602082019050919050565b600060208201905081810360008301526148d281614896565b9050919050565b60006148e4826131fd565b91506148ef836131fd565b925082820190508082111561490757614906613e66565b5b92915050565b7f506f6c69637920686173206e6f74206578706972656420796574000000000000600082015250565b6000614943601a83613cc6565b915061494e8261490d565b602082019050919050565b6000602082019050818103600083015261497281614936565b9050919050565b600060408201905081810360008301526149938185613cd7565b90506149a26020830184613a05565b9392505050565b7f5265656e7472616e637947756172643a207265656e7472616e742063616c6c00600082015250565b60006149df601f83613cc6565b91506149ea826149a9565b602082019050919050565b60006020820190508181036000830152614a0e816149d2565b9050919050565b7f4e487b7100000000000000000000000000000000000000000000000000000000600052601260045260246000fd5b7f4e487b7100000000000000000000000000000000000000000000000000000000600052605160045260246000fdfea26469706673582212202305205a6339463bb38d35d2d1375166bd09ba5881f89a7e21bfcdda74c7ddb164736f6c63430008130033",
  "linkReferences": {},
  "deployedLinkReferences": {}
}