{
  "_format": "hh-sol-artifact-1",
  "contractName": "FlightPolicy",
  "sourceName": "contracts/FlightPolicy.sol",
  "abi": [
    {
      "inputs": [
        {
          "internalType": "address",
          "name": "_oracleConnector",
          "type": "address"
        }
      ],
      "stateMutability": "nonpayable",
      "type": "constructor"
    },
    {
      "anonymous": false,
      "inputs": [
        {
          "indexed": true,
          "internalType": "uint256",
          "name": "policyId",
          "type": "uint256"
        },
        {
          "indexed": true,
          "internalType": "address",
          "name": "buyer",
          "type": "address"
        },
        {
          "indexed": false,
          "internalType": "uint256",
          "name": "amount",
          "type": "uint256"
        }
      ],
      "name": "PayoutClaimed",
      "type": "event"
    },
    {
      "inputs": [
        {
          "internalType": "uint256",
          "name": "policyId",
          "type": "uint256"
        },
        {
          "internalType": "address",
          "name": "buyer",
          "type": "address"
        }
      ],
      "name": "claimPayout",
      "outputs": [
        {
          "internalType": "bool",
          "name": "",
          "type": "bool"
        }
      ],
      "stateMutability": "nonpayable",
      "type": "function"
    },
    {
      "inputs": [
        {
          "internalType": "uint256",
          "name": "currentTime",
          "type": "uint256"
        }
      ],
      "name": "getAllPolicies",
      "outputs": [
        {
          "components": [
            {
              "internalType": "uint256",
              "name": "policyId",
              "type": "uint256"
            },
            {
              "components": [
                {
                  "internalType": "string",
                  "name": "templateId",
                  "type": "string"
                },
                {
                  "internalType": "string",
                  "name": "name",
                  "type": "string"
                },
                {
                  "internalType": "string",
                  "name": "description",
                  "type": "string"
                },
                {
                  "internalType": "uint256",
                  "name": "createdAt",
                  "type": "uint256"
                },
                {
                  "internalType": "uint256",
                  "name": "updatedAt",
                  "type": "uint256"
                },
                {
                  "internalType": "uint256",
                  "name": "premium",
                  "type": "uint256"
                },
                {
                  "internalType": "uint256",
                  "name": "payoutPerHour",
                  "type": "uint256"
                },
                {
                  "internalType": "uint256",
                  "name": "delayThresholdHours",
                  "type": "uint256"
                },
                {
                  "internalType": "uint256",
                  "name": "maxTotalPayout",
                  "type": "uint256"
                },
                {
                  "internalType": "uint256",
                  "name": "coverageDurationSeconds",
                  "type": "uint256"
                },
                {
                  "internalType": "enum FlightPolicy.PolicyTemplateStatus",
                  "name": "status",
                  "type": "uint8"
                }
              ],
              "internalType": "struct FlightPolicy.PolicyTemplate",
              "name": "template",
              "type": "tuple"
            },
            {
              "internalType": "string",
              "name": "flightNumber",
              "type": "string"
            },
            {
              "internalType": "string",
              "name": "departureAirportCode",
              "type": "string"
            },
            {
              "internalType": "string",
              "name": "arrivalAirportCode",
              "type": "string"
            },
            {
              "internalType": "uint256",
              "name": "departureTime",
              "type": "uint256"
            },
            {
              "internalType": "uint256",
              "name": "createdAt",
              "type": "uint256"
            },
            {
              "internalType": "uint256",
              "name": "payoutToDate",
              "type": "uint256"
            },
            {
              "internalType": "address",
              "name": "buyer",
              "type": "address"
            },
            {
              "internalType": "enum FlightPolicy.PolicyStatus",
              "name": "status",
              "type": "uint8"
            }
          ],
          "internalType": "struct FlightPolicy.UserPolicy[]",
          "name": "",
          "type": "tuple[]"
        }
      ],
      "stateMutability": "view",
      "type": "function"
    },
    {
      "inputs": [
        {
          "internalType": "address",
          "name": "user",
          "type": "address"
        },
        {
          "internalType": "uint256",
          "name": "currentTime",
          "type": "uint256"
        }
      ],
      "name": "getUserPolicies",
      "outputs": [
        {
          "components": [
            {
              "internalType": "uint256",
              "name": "policyId",
              "type": "uint256"
            },
            {
              "components": [
                {
                  "internalType": "string",
                  "name": "templateId",
                  "type": "string"
                },
                {
                  "internalType": "string",
                  "name": "name",
                  "type": "string"
                },
                {
                  "internalType": "string",
                  "name": "description",
                  "type": "string"
                },
                {
                  "internalType": "uint256",
                  "name": "createdAt",
                  "type": "uint256"
                },
                {
                  "internalType": "uint256",
                  "name": "updatedAt",
                  "type": "uint256"
                },
                {
                  "internalType": "uint256",
                  "name": "premium",
                  "type": "uint256"
                },
                {
                  "internalType": "uint256",
                  "name": "payoutPerHour",
                  "type": "uint256"
                },
                {
                  "internalType": "uint256",
                  "name": "delayThresholdHours",
                  "type": "uint256"
                },
                {
                  "internalType": "uint256",
                  "name": "maxTotalPayout",
                  "type": "uint256"
                },
                {
                  "internalType": "uint256",
                  "name": "coverageDurationSeconds",
                  "type": "uint256"
                },
                {
                  "internalType": "enum FlightPolicy.PolicyTemplateStatus",
                  "name": "status",
                  "type": "uint8"
                }
              ],
              "internalType": "struct FlightPolicy.PolicyTemplate",
              "name": "template",
              "type": "tuple"
            },
            {
              "internalType": "string",
              "name": "flightNumber",
              "type": "string"
            },
            {
              "internalType": "string",
              "name": "departureAirportCode",
              "type": "string"
            },
            {
              "internalType": "string",
              "name": "arrivalAirportCode",
              "type": "string"
            },
            {
              "internalType": "uint256",
              "name": "departureTime",
              "type": "uint256"
            },
            {
              "internalType": "uint256",
              "name": "createdAt",
              "type": "uint256"
            },
            {
              "internalType": "uint256",
              "name": "payoutToDate",
              "type": "uint256"
            },
            {
              "internalType": "address",
              "name": "buyer",
              "type": "address"
            },
            {
              "internalType": "enum FlightPolicy.PolicyStatus",
              "name": "status",
              "type": "uint8"
            }
          ],
          "internalType": "struct FlightPolicy.UserPolicy[]",
          "name": "",
          "type": "tuple[]"
        }
      ],
      "stateMutability": "view",
      "type": "function"
    },
    {
      "inputs": [
        {
          "internalType": "string",
          "name": "templateId",
          "type": "string"
        },
        {
          "internalType": "uint256",
          "name": "currentTime",
          "type": "uint256"
        }
      ],
      "name": "getUserPoliciesByTemplate",
      "outputs": [
        {
          "components": [
            {
              "internalType": "uint256",
              "name": "policyId",
              "type": "uint256"
            },
            {
              "components": [
                {
                  "internalType": "string",
                  "name": "templateId",
                  "type": "string"
                },
                {
                  "internalType": "string",
                  "name": "name",
                  "type": "string"
                },
                {
                  "internalType": "string",
                  "name": "description",
                  "type": "string"
                },
                {
                  "internalType": "uint256",
                  "name": "createdAt",
                  "type": "uint256"
                },
                {
                  "internalType": "uint256",
                  "name": "updatedAt",
                  "type": "uint256"
                },
                {
                  "internalType": "uint256",
                  "name": "premium",
                  "type": "uint256"
                },
                {
                  "internalType": "uint256",
                  "name": "payoutPerHour",
                  "type": "uint256"
                },
                {
                  "internalType": "uint256",
                  "name": "delayThresholdHours",
                  "type": "uint256"
                },
                {
                  "internalType": "uint256",
                  "name": "maxTotalPayout",
                  "type": "uint256"
                },
                {
                  "internalType": "uint256",
                  "name": "coverageDurationSeconds",
                  "type": "uint256"
                },
                {
                  "internalType": "enum FlightPolicy.PolicyTemplateStatus",
                  "name": "status",
                  "type": "uint8"
                }
              ],
              "internalType": "struct FlightPolicy.PolicyTemplate",
              "name": "template",
              "type": "tuple"
            },
            {
              "internalType": "string",
              "name": "flightNumber",
              "type": "string"
            },
            {
              "internalType": "string",
              "name": "departureAirportCode",
              "type": "string"
            },
            {
              "internalType": "string",
              "name": "arrivalAirportCode",
              "type": "string"
            },
            {
              "internalType": "uint256",
              "name": "departureTime",
              "type": "uint256"
            },
            {
              "internalType": "uint256",
              "name": "createdAt",
              "type": "uint256"
            },
            {
              "internalType": "uint256",
              "name": "payoutToDate",
              "type": "uint256"
            },
            {
              "internalType": "address",
              "name": "buyer",
              "type": "address"
            },
            {
              "internalType": "enum FlightPolicy.PolicyStatus",
              "name": "status",
              "type": "uint8"
            }
          ],
          "internalType": "struct FlightPolicy.UserPolicy[]",
          "name": "",
          "type": "tuple[]"
        }
      ],
      "stateMutability": "view",
      "type": "function"
    },
    {
      "inputs": [],
      "name": "insurerAddress",
      "outputs": [
        {
          "internalType": "address",
          "name": "",
          "type": "address"
        }
      ],
      "stateMutability": "view",
      "type": "function"
    },
    {
      "inputs": [
        {
          "internalType": "uint256",
          "name": "policyId",
          "type": "uint256"
        }
      ],
      "name": "markPolicyAsExpired",
      "outputs": [],
      "stateMutability": "nonpayable",
      "type": "function"
    },
    {
      "inputs": [],
      "name": "nextUserPolicyId",
      "outputs": [
        {
          "internalType": "uint256",
          "name": "",
          "type": "uint256"
        }
      ],
      "stateMutability": "view",
      "type": "function"
    },
    {
      "inputs": [],
      "name": "oracleConnector",
      "outputs": [
        {
          "internalType": "contract OracleConnector",
          "name": "",
          "type": "address"
        }
      ],
      "stateMutability": "view",
      "type": "function"
    },
    {
      "inputs": [
        {
          "components": [
            {
              "internalType": "string",
              "name": "templateId",
              "type": "string"
            },
            {
              "internalType": "string",
              "name": "name",
              "type": "string"
            },
            {
              "internalType": "string",
              "name": "description",
              "type": "string"
            },
            {
              "internalType": "uint256",
              "name": "createdAt",
              "type": "uint256"
            },
            {
              "internalType": "uint256",
              "name": "updatedAt",
              "type": "uint256"
            },
            {
              "internalType": "uint256",
              "name": "premium",
              "type": "uint256"
            },
            {
              "internalType": "uint256",
              "name": "payoutPerHour",
              "type": "uint256"
            },
            {
              "internalType": "uint256",
              "name": "delayThresholdHours",
              "type": "uint256"
            },
            {
              "internalType": "uint256",
              "name": "maxTotalPayout",
              "type": "uint256"
            },
            {
              "internalType": "uint256",
              "name": "coverageDurationSeconds",
              "type": "uint256"
            },
            {
              "internalType": "enum FlightPolicy.PolicyTemplateStatus",
              "name": "status",
              "type": "uint8"
            }
          ],
          "internalType": "struct FlightPolicy.PolicyTemplate",
          "name": "template",
          "type": "tuple"
        },
        {
          "internalType": "string",
          "name": "flightNumber",
          "type": "string"
        },
        {
          "internalType": "string",
          "name": "departureAirportCode",
          "type": "string"
        },
        {
          "internalType": "string",
          "name": "arrivalAirportCode",
          "type": "string"
        },
        {
          "internalType": "uint256",
          "name": "departureTime",
          "type": "uint256"
        },
        {
          "internalType": "address",
          "name": "buyer",
          "type": "address"
        }
      ],
      "name": "purchasePolicy",
      "outputs": [
        {
          "internalType": "uint256",
          "name": "",
          "type": "uint256"
        }
      ],
      "stateMutability": "payable",
      "type": "function"
    },
    {
      "inputs": [
        {
          "internalType": "uint256",
          "name": "",
          "type": "uint256"
        }
      ],
      "name": "userPolicies",
      "outputs": [
        {
          "internalType": "uint256",
          "name": "policyId",
          "type": "uint256"
        },
        {
          "components": [
            {
              "internalType": "string",
              "name": "templateId",
              "type": "string"
            },
            {
              "internalType": "string",
              "name": "name",
              "type": "string"
            },
            {
              "internalType": "string",
              "name": "description",
              "type": "string"
            },
            {
              "internalType": "uint256",
              "name": "createdAt",
              "type": "uint256"
            },
            {
              "internalType": "uint256",
              "name": "updatedAt",
              "type": "uint256"
            },
            {
              "internalType": "uint256",
              "name": "premium",
              "type": "uint256"
            },
            {
              "internalType": "uint256",
              "name": "payoutPerHour",
              "type": "uint256"
            },
            {
              "internalType": "uint256",
              "name": "delayThresholdHours",
              "type": "uint256"
            },
            {
              "internalType": "uint256",
              "name": "maxTotalPayout",
              "type": "uint256"
            },
            {
              "internalType": "uint256",
              "name": "coverageDurationSeconds",
              "type": "uint256"
            },
            {
              "internalType": "enum FlightPolicy.PolicyTemplateStatus",
              "name": "status",
              "type": "uint8"
            }
          ],
          "internalType": "struct FlightPolicy.PolicyTemplate",
          "name": "template",
          "type": "tuple"
        },
        {
          "internalType": "string",
          "name": "flightNumber",
          "type": "string"
        },
        {
          "internalType": "string",
          "name": "departureAirportCode",
          "type": "string"
        },
        {
          "internalType": "string",
          "name": "arrivalAirportCode",
          "type": "string"
        },
        {
          "internalType": "uint256",
          "name": "departureTime",
          "type": "uint256"
        },
        {
          "internalType": "uint256",
          "name": "createdAt",
          "type": "uint256"
        },
        {
          "internalType": "uint256",
          "name": "payoutToDate",
          "type": "uint256"
        },
        {
          "internalType": "address",
          "name": "buyer",
          "type": "address"
        },
        {
          "internalType": "enum FlightPolicy.PolicyStatus",
          "name": "status",
          "type": "uint8"
        }
      ],
      "stateMutability": "view",
      "type": "function"
    },
    {
      "inputs": [
        {
          "internalType": "address",
          "name": "",
          "type": "address"
        },
        {
          "internalType": "uint256",
          "name": "",
          "type": "uint256"
        }
      ],
      "name": "userPolicyIds",
      "outputs": [
        {
          "internalType": "uint256",
          "name": "",
          "type": "uint256"
        }
      ],
      "stateMutability": "view",
      "type": "function"
    }
  ],
  "bytecode": "0x60a06040523480156200001157600080fd5b506040516200427838038062004278833981810160405281019062000037919062000125565b60016000819055503373ffffffffffffffffffffffffffffffffffffffff1660808173ffffffffffffffffffffffffffffffffffffffff168152505080600160006101000a81548173ffffffffffffffffffffffffffffffffffffffff021916908373ffffffffffffffffffffffffffffffffffffffff1602179055505062000157565b600080fd5b600073ffffffffffffffffffffffffffffffffffffffff82169050919050565b6000620000ed82620000c0565b9050919050565b620000ff81620000e0565b81146200010b57600080fd5b50565b6000815190506200011f81620000f4565b92915050565b6000602082840312156200013e576200013d620000bb565b5b60006200014e848285016200010e565b91505092915050565b6080516140fe6200017a600039600081816118ca01526121d801526140fe6000f3fe60806040526004361061009c5760003560e01c80639c6cf7ef116100645780639c6cf7ef1461018f578063a7c0900e146101cc578063b0110cc6146101f7578063b6e283e114610234578063cba85f0614610271578063cf39c624146102b75761009c565b806319ac4614146100a157806331953ecc146100de578063457e55211461010e5780637b956415146101395780639a9122ac14610164575b600080fd5b3480156100ad57600080fd5b506100c860048036038101906100c391906128ce565b6102e0565b6040516100d59190612d20565b60405180910390f35b6100f860048036038101906100f39190613032565b610905565b604051610105919061313e565b60405180910390f35b34801561011a57600080fd5b50610123610c77565b6040516101309190612d20565b60405180910390f35b34801561014557600080fd5b5061014e6111ff565b60405161015b919061313e565b60405180910390f35b34801561017057600080fd5b50610179611205565b60405161018691906131b8565b60405180910390f35b34801561019b57600080fd5b506101b660048036038101906101b191906131d3565b61122b565b6040516101c39190612d20565b60405180910390f35b3480156101d857600080fd5b506101e16118c8565b6040516101ee919061322b565b60405180910390f35b34801561020357600080fd5b5061021e60048036038101906102199190613246565b6118ec565b60405161022b91906132a1565b60405180910390f35b34801561024057600080fd5b5061025b600480360381019061025691906132bc565b611d4a565b604051610268919061313e565b60405180910390f35b34801561027d57600080fd5b50610298600480360381019061029391906132fc565b611d7b565b6040516102ae9a9998979695949392919061347f565b60405180910390f35b3480156102c357600080fd5b506102de60048036038101906102d991906132fc565b6121d6565b005b60606000600360008473ffffffffffffffffffffffffffffffffffffffff1673ffffffffffffffffffffffffffffffffffffffff16815260200190815260200160002080549050905060008167ffffffffffffffff81111561034557610344612d47565b5b60405190808252806020026020018201604052801561037e57816020015b61036b61276f565b8152602001906001900390816103635790505b50905060005b828110156108f25760026000600360008873ffffffffffffffffffffffffffffffffffffffff1673ffffffffffffffffffffffffffffffffffffffff16815260200190815260200160002083815481106103e1576103e0613537565b5b906000526020600020015481526020019081526020016000206040518061014001604052908160008201548152602001600182016040518061016001604052908160008201805461043190613595565b80601f016020809104026020016040519081016040528092919081815260200182805461045d90613595565b80156104aa5780601f1061047f576101008083540402835291602001916104aa565b820191906000526020600020905b81548152906001019060200180831161048d57829003601f168201915b505050505081526020016001820180546104c390613595565b80601f01602080910402602001604051908101604052809291908181526020018280546104ef90613595565b801561053c5780601f106105115761010080835404028352916020019161053c565b820191906000526020600020905b81548152906001019060200180831161051f57829003601f168201915b5050505050815260200160028201805461055590613595565b80601f016020809104026020016040519081016040528092919081815260200182805461058190613595565b80156105ce5780601f106105a3576101008083540402835291602001916105ce565b820191906000526020600020905b8154815290600101906020018083116105b157829003601f168201915b5050505050815260200160038201548152602001600482015481526020016005820154815260200160068201548152602001600782015481526020016008820154815260200160098201548152602001600a820160009054906101000a900460ff166001811115610642576106416129d0565b5b6001811115610654576106536129d0565b5b815250508152602001600c8201805461066c90613595565b80601f016020809104026020016040519081016040528092919081815260200182805461069890613595565b80156106e55780601f106106ba576101008083540402835291602001916106e5565b820191906000526020600020905b8154815290600101906020018083116106c857829003601f168201915b50505050508152602001600d820180546106fe90613595565b80601f016020809104026020016040519081016040528092919081815260200182805461072a90613595565b80156107775780601f1061074c57610100808354040283529160200191610777565b820191906000526020600020905b81548152906001019060200180831161075a57829003601f168201915b50505050508152602001600e8201805461079090613595565b80601f01602080910402602001604051908101604052809291908181526020018280546107bc90613595565b80156108095780601f106107de57610100808354040283529160200191610809565b820191906000526020600020905b8154815290600101906020018083116107ec57829003601f168201915b50505050508152602001600f820154815260200160108201548152602001601182015481526020016012820160009054906101000a900473ffffffffffffffffffffffffffffffffffffffff1673ffffffffffffffffffffffffffffffffffffffff1673ffffffffffffffffffffffffffffffffffffffff1681526020016012820160149054906101000a900460ff1660028111156108ab576108aa6129d0565b5b60028111156108bd576108bc6129d0565b5b815250508282815181106108d4576108d3613537565b5b602002602001018190525080806108ea906135f5565b915050610384565b506108fc816123d4565b92505050919050565b600080600181111561091a576109196129d0565b5b8761014001516001811115610932576109316129d0565b5b14610972576040517f08c379a000000000000000000000000000000000000000000000000000000000815260040161096990613689565b60405180910390fd5b8660a001513410156109b9576040517f08c379a00000000000000000000000000000000000000000000000000000000081526004016109b0906136f5565b60405180910390fd5b6000600460008154809291906109ce906135f5565b919050559050604051806101400160405280828152602001898152602001888152602001878152602001868152602001858152602001428152602001600081526020018473ffffffffffffffffffffffffffffffffffffffff16815260200160006002811115610a4157610a406129d0565b5b81525060026000838152602001908152602001600020600082015181600001556020820151816001016000820151816000019081610a7f91906138b7565b506020820151816001019081610a9591906138b7565b506040820151816002019081610aab91906138b7565b50606082015181600301556080820151816004015560a0820151816005015560c0820151816006015560e082015181600701556101008201518160080155610120820151816009015561014082015181600a0160006101000a81548160ff02191690836001811115610b2057610b1f6129d0565b5b02179055505050604082015181600c019081610b3c91906138b7565b50606082015181600d019081610b5291906138b7565b50608082015181600e019081610b6891906138b7565b5060a082015181600f015560c0820151816010015560e082015181601101556101008201518160120160006101000a81548173ffffffffffffffffffffffffffffffffffffffff021916908373ffffffffffffffffffffffffffffffffffffffff1602179055506101208201518160120160146101000a81548160ff02191690836002811115610bfb57610bfa6129d0565b5b0217905550905050600360008473ffffffffffffffffffffffffffffffffffffffff1673ffffffffffffffffffffffffffffffffffffffff168152602001908152602001600020819080600181540180825580915050600190039060005260206000200160009091909190915055809150509695505050505050565b60606000600454905060008167ffffffffffffffff811115610c9c57610c9b612d47565b5b604051908082528060200260200182016040528015610cd557816020015b610cc261276f565b815260200190600190039081610cba5790505b50905060005b828110156111ee576002600082815260200190815260200160002060405180610140016040529081600082015481526020016001820160405180610160016040529081600082018054610d2d90613595565b80601f0160208091040260200160405190810160405280929190818152602001828054610d5990613595565b8015610da65780601f10610d7b57610100808354040283529160200191610da6565b820191906000526020600020905b815481529060010190602001808311610d8957829003601f168201915b50505050508152602001600182018054610dbf90613595565b80601f0160208091040260200160405190810160405280929190818152602001828054610deb90613595565b8015610e385780601f10610e0d57610100808354040283529160200191610e38565b820191906000526020600020905b815481529060010190602001808311610e1b57829003601f168201915b50505050508152602001600282018054610e5190613595565b80601f0160208091040260200160405190810160405280929190818152602001828054610e7d90613595565b8015610eca5780601f10610e9f57610100808354040283529160200191610eca565b820191906000526020600020905b815481529060010190602001808311610ead57829003601f168201915b5050505050815260200160038201548152602001600482015481526020016005820154815260200160068201548152602001600782015481526020016008820154815260200160098201548152602001600a820160009054906101000a900460ff166001811115610f3e57610f3d6129d0565b5b6001811115610f5057610f4f6129d0565b5b815250508152602001600c82018054610f6890613595565b80601f0160208091040260200160405190810160405280929190818152602001828054610f9490613595565b8015610fe15780601f10610fb657610100808354040283529160200191610fe1565b820191906000526020600020905b815481529060010190602001808311610fc457829003601f168201915b50505050508152602001600d82018054610ffa90613595565b80601f016020809104026020016040519081016040528092919081815260200182805461102690613595565b80156110735780601f1061104857610100808354040283529160200191611073565b820191906000526020600020905b81548152906001019060200180831161105657829003601f168201915b50505050508152602001600e8201805461108c90613595565b80601f01602080910402602001604051908101604052809291908181526020018280546110b890613595565b80156111055780601f106110da57610100808354040283529160200191611105565b820191906000526020600020905b8154815290600101906020018083116110e857829003601f168201915b50505050508152602001600f820154815260200160108201548152602001601182015481526020016012820160009054906101000a900473ffffffffffffffffffffffffffffffffffffffff1673ffffffffffffffffffffffffffffffffffffffff1673ffffffffffffffffffffffffffffffffffffffff1681526020016012820160149054906101000a900460ff1660028111156111a7576111a66129d0565b5b60028111156111b9576111b86129d0565b5b815250508282815181106111d0576111cf613537565b5b602002602001018190525080806111e6906135f5565b915050610cdb565b506111f8816123d4565b9250505090565b60045481565b600160009054906101000a900473ffffffffffffffffffffffffffffffffffffffff1681565b60606000805b6004548110156112c8578360405160200161124c91906139c5565b604051602081830303815290604052805190602001206002600083815260200190815260200160002060010160000160405160200161128b9190613a5f565b60405160208183030381529060405280519060200120036112b55781806112b1906135f5565b9250505b80806112c0906135f5565b915050611231565b5060008167ffffffffffffffff8111156112e5576112e4612d47565b5b60405190808252806020026020018201604052801561131e57816020015b61130b61276f565b8152602001906001900390816113035790505b5090506000805b6004548110156118b4578560405160200161134091906139c5565b604051602081830303815290604052805190602001206002600083815260200190815260200160002060010160000160405160200161137f9190613a5f565b60405160208183030381529060405280519060200120036118a15760026000828152602001908152602001600020604051806101400160405290816000820154815260200160018201604051806101600160405290816000820180546113e490613595565b80601f016020809104026020016040519081016040528092919081815260200182805461141090613595565b801561145d5780601f106114325761010080835404028352916020019161145d565b820191906000526020600020905b81548152906001019060200180831161144057829003601f168201915b5050505050815260200160018201805461147690613595565b80601f01602080910402602001604051908101604052809291908181526020018280546114a290613595565b80156114ef5780601f106114c4576101008083540402835291602001916114ef565b820191906000526020600020905b8154815290600101906020018083116114d257829003601f168201915b5050505050815260200160028201805461150890613595565b80601f016020809104026020016040519081016040528092919081815260200182805461153490613595565b80156115815780601f1061155657610100808354040283529160200191611581565b820191906000526020600020905b81548152906001019060200180831161156457829003601f168201915b5050505050815260200160038201548152602001600482015481526020016005820154815260200160068201548152602001600782015481526020016008820154815260200160098201548152602001600a820160009054906101000a900460ff1660018111156115f5576115f46129d0565b5b6001811115611607576116066129d0565b5b815250508152602001600c8201805461161f90613595565b80601f016020809104026020016040519081016040528092919081815260200182805461164b90613595565b80156116985780601f1061166d57610100808354040283529160200191611698565b820191906000526020600020905b81548152906001019060200180831161167b57829003601f168201915b50505050508152602001600d820180546116b190613595565b80601f01602080910402602001604051908101604052809291908181526020018280546116dd90613595565b801561172a5780601f106116ff5761010080835404028352916020019161172a565b820191906000526020600020905b81548152906001019060200180831161170d57829003601f168201915b50505050508152602001600e8201805461174390613595565b80601f016020809104026020016040519081016040528092919081815260200182805461176f90613595565b80156117bc5780601f10611791576101008083540402835291602001916117bc565b820191906000526020600020905b81548152906001019060200180831161179f57829003601f168201915b50505050508152602001600f820154815260200160108201548152602001601182015481526020016012820160009054906101000a900473ffffffffffffffffffffffffffffffffffffffff1673ffffffffffffffffffffffffffffffffffffffff1673ffffffffffffffffffffffffffffffffffffffff1681526020016012820160149054906101000a900460ff16600281111561185e5761185d6129d0565b5b60028111156118705761186f6129d0565b5b8152505083838151811061188757611886613537565b5b6020026020010181905250818061189d906135f5565b9250505b80806118ac906135f5565b915050611325565b506118be826123d4565b9350505050919050565b7f000000000000000000000000000000000000000000000000000000000000000081565b60006118f66124f5565b600454831061193a576040517f08c379a000000000000000000000000000000000000000000000000000000000815260040161193190613ac2565b60405180910390fd5b60006002600085815260200190815260200160002090508060120160009054906101000a900473ffffffffffffffffffffffffffffffffffffffff1673ffffffffffffffffffffffffffffffffffffffff168373ffffffffffffffffffffffffffffffffffffffff16146119e3576040517f08c379a00000000000000000000000000000000000000000000000000000000081526004016119da90613b2e565b60405180910390fd5b600060028111156119f7576119f66129d0565b5b8160120160149054906101000a900460ff166002811115611a1b57611a1a6129d0565b5b14611a5b576040517f08c379a0000000000000000000000000000000000000000000000000000000008152600401611a5290613b9a565b60405180910390fd5b6000806000600160009054906101000a900473ffffffffffffffffffffffffffffffffffffffff1673ffffffffffffffffffffffffffffffffffffffff166326ec641e85600c01611aaf87600f0154612544565b6040518363ffffffff1660e01b8152600401611acc929190613c3e565b6060604051808303816000875af1158015611aeb573d6000803e3d6000fd5b505050506040513d601f19601f82011682018060405250810190611b0f9190613cb6565b92509250925082611b27576000945050505050611d3c565b81611b67576040517f08c379a0000000000000000000000000000000000000000000000000000000008152600401611b5e90613d55565b60405180910390fd5b6000846001016006015482611b7c9190613d75565b90508460010160080154811115611b9857846001016008015490505b60008111611bdb576040517f08c379a0000000000000000000000000000000000000000000000000000000008152600401611bd290613e03565b60405180910390fd5b80471015611c1e576040517f08c379a0000000000000000000000000000000000000000000000000000000008152600401611c1590613e6f565b60405180910390fd5b60028560120160146101000a81548160ff02191690836002811115611c4657611c456129d0565b5b02179055508085601101819055508460120160009054906101000a900473ffffffffffffffffffffffffffffffffffffffff1673ffffffffffffffffffffffffffffffffffffffff166108fc829081150290604051600060405180830381858888f19350505050158015611cbe573d6000803e3d6000fd5b508460120160009054906101000a900473ffffffffffffffffffffffffffffffffffffffff1673ffffffffffffffffffffffffffffffffffffffff16887fe97cee5a4c0549d3fdc81e322b718ddf0aeb3418ec87dce4f9a7fb28d117c31283604051611d2a919061313e565b60405180910390a36001955050505050505b611d44612612565b92915050565b60036020528160005260406000208181548110611d6657600080fd5b90600052602060002001600091509150505481565b60026020528060005260406000206000915090508060000154908060010160405180610160016040529081600082018054611db590613595565b80601f0160208091040260200160405190810160405280929190818152602001828054611de190613595565b8015611e2e5780601f10611e0357610100808354040283529160200191611e2e565b820191906000526020600020905b815481529060010190602001808311611e1157829003601f168201915b50505050508152602001600182018054611e4790613595565b80601f0160208091040260200160405190810160405280929190818152602001828054611e7390613595565b8015611ec05780601f10611e9557610100808354040283529160200191611ec0565b820191906000526020600020905b815481529060010190602001808311611ea357829003601f168201915b50505050508152602001600282018054611ed990613595565b80601f0160208091040260200160405190810160405280929190818152602001828054611f0590613595565b8015611f525780601f10611f2757610100808354040283529160200191611f52565b820191906000526020600020905b815481529060010190602001808311611f3557829003601f168201915b5050505050815260200160038201548152602001600482015481526020016005820154815260200160068201548152602001600782015481526020016008820154815260200160098201548152602001600a820160009054906101000a900460ff166001811115611fc657611fc56129d0565b5b6001811115611fd857611fd76129d0565b5b815250509080600c018054611fec90613595565b80601f016020809104026020016040519081016040528092919081815260200182805461201890613595565b80156120655780601f1061203a57610100808354040283529160200191612065565b820191906000526020600020905b81548152906001019060200180831161204857829003601f168201915b50505050509080600d01805461207a90613595565b80601f01602080910402602001604051908101604052809291908181526020018280546120a690613595565b80156120f35780601f106120c8576101008083540402835291602001916120f3565b820191906000526020600020905b8154815290600101906020018083116120d657829003601f168201915b50505050509080600e01805461210890613595565b80601f016020809104026020016040519081016040528092919081815260200182805461213490613595565b80156121815780601f1061215657610100808354040283529160200191612181565b820191906000526020600020905b81548152906001019060200180831161216457829003601f168201915b50505050509080600f0154908060100154908060110154908060120160009054906101000a900473ffffffffffffffffffffffffffffffffffffffff16908060120160149054906101000a900460ff1690508a565b7f000000000000000000000000000000000000000000000000000000000000000073ffffffffffffffffffffffffffffffffffffffff163273ffffffffffffffffffffffffffffffffffffffff1614612264576040517f08c379a000000000000000000000000000000000000000000000000000000000815260040161225b90613f01565b60405180910390fd5b60045481106122a8576040517f08c379a000000000000000000000000000000000000000000000000000000000815260040161229f90613ac2565b60405180910390fd5b6000600260008381526020019081526020016000209050600060028111156122d3576122d26129d0565b5b8160120160149054906101000a900460ff1660028111156122f7576122f66129d0565b5b14612337576040517f08c379a000000000000000000000000000000000000000000000000000000000815260040161232e90613f6d565b60405180910390fd5b600062015180826001016009015461234f9190613d75565b826010015461235e9190613f8d565b90508042116123a2576040517f08c379a00000000000000000000000000000000000000000000000000000000081526004016123999061400d565b60405180910390fd5b60018260120160146101000a81548160ff021916908360028111156123ca576123c96129d0565b5b0217905550505050565b606060005b82518110156124ec57600060028111156123f6576123f56129d0565b5b83828151811061240957612408613537565b5b602002602001015161012001516002811115612428576124276129d0565b5b036124d95760006201518060026000848152602001908152602001600020600101600901546124579190613d75565b84838151811061246a57612469613537565b5b602002602001015160c001516124809190613f8d565b9050804211156124d757600184838151811061249f5761249e613537565b5b6020026020010151610120019060028111156124be576124bd6129d0565b5b908160028111156124d2576124d16129d0565b5b815250505b505b80806124e4906135f5565b9150506123d9565b50819050919050565b60026000540361253a576040517f08c379a000000000000000000000000000000000000000000000000000000000815260040161253190614079565b60405180910390fd5b6002600081905550565b6060600060016125538461261c565b01905060008167ffffffffffffffff81111561257257612571612d47565b5b6040519080825280601f01601f1916602001820160405280156125a45781602001600182028036833780820191505090505b509050600082602001820190505b600115612607578080600190039150507f3031323334353637383961626364656600000000000000000000000000000000600a86061a8153600a85816125fb576125fa614099565b5b049450600085036125b2575b819350505050919050565b6001600081905550565b600080600090507a184f03e93ff9f4daa797ed6e38ed64bf6a1f010000000000000000831061267a577a184f03e93ff9f4daa797ed6e38ed64bf6a1f01000000000000000083816126705761266f614099565b5b0492506040810190505b6d04ee2d6d415b85acef810000000083106126b7576d04ee2d6d415b85acef810000000083816126ad576126ac614099565b5b0492506020810190505b662386f26fc1000083106126e657662386f26fc1000083816126dc576126db614099565b5b0492506010810190505b6305f5e100831061270f576305f5e100838161270557612704614099565b5b0492506008810190505b612710831061273457612710838161272a57612729614099565b5b0492506004810190505b60648310612757576064838161274d5761274c614099565b5b0492506002810190505b600a8310612766576001810190505b80915050919050565b6040518061014001604052806000815260200161278a6127f0565b8152602001606081526020016060815260200160608152602001600081526020016000815260200160008152602001600073ffffffffffffffffffffffffffffffffffffffff168152602001600060028111156127ea576127e96129d0565b5b81525090565b6040518061016001604052806060815260200160608152602001606081526020016000815260200160008152602001600081526020016000815260200160008152602001600081526020016000815260200160006001811115612856576128556129d0565b5b81525090565b6000604051905090565b600080fd5b600080fd5b600073ffffffffffffffffffffffffffffffffffffffff82169050919050565b600061289b82612870565b9050919050565b6128ab81612890565b81146128b657600080fd5b50565b6000813590506128c8816128a2565b92915050565b6000602082840312156128e4576128e3612866565b5b60006128f2848285016128b9565b91505092915050565b600081519050919050565b600082825260208201905092915050565b6000819050602082019050919050565b6000819050919050565b61293a81612927565b82525050565b600081519050919050565b600082825260208201905092915050565b60005b8381101561297a57808201518184015260208101905061295f565b60008484015250505050565b6000601f19601f8301169050919050565b60006129a282612940565b6129ac818561294b565b93506129bc81856020860161295c565b6129c581612986565b840191505092915050565b7f4e487b7100000000000000000000000000000000000000000000000000000000600052602160045260246000fd5b60028110612a1057612a0f6129d0565b5b50565b6000819050612a21826129ff565b919050565b6000612a3182612a13565b9050919050565b612a4181612a26565b82525050565b6000610160830160008301518482036000860152612a658282612997565b91505060208301518482036020860152612a7f8282612997565b91505060408301518482036040860152612a998282612997565b9150506060830151612aae6060860182612931565b506080830151612ac16080860182612931565b5060a0830151612ad460a0860182612931565b5060c0830151612ae760c0860182612931565b5060e0830151612afa60e0860182612931565b50610100830151612b0f610100860182612931565b50610120830151612b24610120860182612931565b50610140830151612b39610140860182612a38565b508091505092915050565b612b4d81612890565b82525050565b60038110612b6457612b636129d0565b5b50565b6000819050612b7582612b53565b919050565b6000612b8582612b67565b9050919050565b612b9581612b7a565b82525050565b600061014083016000830151612bb46000860182612931565b5060208301518482036020860152612bcc8282612a47565b91505060408301518482036040860152612be68282612997565b91505060608301518482036060860152612c008282612997565b91505060808301518482036080860152612c1a8282612997565b91505060a0830151612c2f60a0860182612931565b5060c0830151612c4260c0860182612931565b5060e0830151612c5560e0860182612931565b50610100830151612c6a610100860182612b44565b50610120830151612c7f610120860182612b8c565b508091505092915050565b6000612c968383612b9b565b905092915050565b6000602082019050919050565b6000612cb6826128fb565b612cc08185612906565b935083602082028501612cd285612917565b8060005b85811015612d0e5784840389528151612cef8582612c8a565b9450612cfa83612c9e565b925060208a01995050600181019050612cd6565b50829750879550505050505092915050565b60006020820190508181036000830152612d3a8184612cab565b905092915050565b600080fd5b7f4e487b7100000000000000000000000000000000000000000000000000000000600052604160045260246000fd5b612d7f82612986565b810181811067ffffffffffffffff82111715612d9e57612d9d612d47565b5b80604052505050565b6000612db161285c565b9050612dbd8282612d76565b919050565b600080fd5b600080fd5b600080fd5b600067ffffffffffffffff821115612dec57612deb612d47565b5b612df582612986565b9050602081019050919050565b82818337600083830152505050565b6000612e24612e1f84612dd1565b612da7565b905082815260208101848484011115612e4057612e3f612dcc565b5b612e4b848285612e02565b509392505050565b600082601f830112612e6857612e67612dc7565b5b8135612e78848260208601612e11565b91505092915050565b612e8a81612927565b8114612e9557600080fd5b50565b600081359050612ea781612e81565b92915050565b60028110612eba57600080fd5b50565b600081359050612ecc81612ead565b92915050565b60006101608284031215612ee957612ee8612d42565b5b612ef4610160612da7565b9050600082013567ffffffffffffffff811115612f1457612f13612dc2565b5b612f2084828501612e53565b600083015250602082013567ffffffffffffffff811115612f4457612f43612dc2565b5b612f5084828501612e53565b602083015250604082013567ffffffffffffffff811115612f7457612f73612dc2565b5b612f8084828501612e53565b6040830152506060612f9484828501612e98565b6060830152506080612fa884828501612e98565b60808301525060a0612fbc84828501612e98565b60a08301525060c0612fd084828501612e98565b60c08301525060e0612fe484828501612e98565b60e083015250610100612ff984828501612e98565b6101008301525061012061300f84828501612e98565b6101208301525061014061302584828501612ebd565b6101408301525092915050565b60008060008060008060c0878903121561304f5761304e612866565b5b600087013567ffffffffffffffff81111561306d5761306c61286b565b5b61307989828a01612ed2565b965050602087013567ffffffffffffffff81111561309a5761309961286b565b5b6130a689828a01612e53565b955050604087013567ffffffffffffffff8111156130c7576130c661286b565b5b6130d389828a01612e53565b945050606087013567ffffffffffffffff8111156130f4576130f361286b565b5b61310089828a01612e53565b935050608061311189828a01612e98565b92505060a061312289828a016128b9565b9150509295509295509295565b61313881612927565b82525050565b6000602082019050613153600083018461312f565b92915050565b6000819050919050565b600061317e61317961317484612870565b613159565b612870565b9050919050565b600061319082613163565b9050919050565b60006131a282613185565b9050919050565b6131b281613197565b82525050565b60006020820190506131cd60008301846131a9565b92915050565b6000602082840312156131e9576131e8612866565b5b600082013567ffffffffffffffff8111156132075761320661286b565b5b61321384828501612e53565b91505092915050565b61322581612890565b82525050565b6000602082019050613240600083018461321c565b92915050565b6000806040838503121561325d5761325c612866565b5b600061326b85828601612e98565b925050602061327c858286016128b9565b9150509250929050565b60008115159050919050565b61329b81613286565b82525050565b60006020820190506132b66000830184613292565b92915050565b600080604083850312156132d3576132d2612866565b5b60006132e1858286016128b9565b92505060206132f285828601612e98565b9150509250929050565b60006020828403121561331257613311612866565b5b600061332084828501612e98565b91505092915050565b60006101608301600083015184820360008601526133478282612997565b915050602083015184820360208601526133618282612997565b9150506040830151848203604086015261337b8282612997565b91505060608301516133906060860182612931565b5060808301516133a36080860182612931565b5060a08301516133b660a0860182612931565b5060c08301516133c960c0860182612931565b5060e08301516133dc60e0860182612931565b506101008301516133f1610100860182612931565b50610120830151613406610120860182612931565b5061014083015161341b610140860182612a38565b508091505092915050565b600082825260208201905092915050565b600061344282612940565b61344c8185613426565b935061345c81856020860161295c565b61346581612986565b840191505092915050565b61347981612b7a565b82525050565b600061014082019050613495600083018d61312f565b81810360208301526134a7818c613329565b905081810360408301526134bb818b613437565b905081810360608301526134cf818a613437565b905081810360808301526134e38189613437565b90506134f260a083018861312f565b6134ff60c083018761312f565b61350c60e083018661312f565b61351a61010083018561321c565b613528610120830184613470565b9b9a5050505050505050505050565b7f4e487b7100000000000000000000000000000000000000000000000000000000600052603260045260246000fd5b7f4e487b7100000000000000000000000000000000000000000000000000000000600052602260045260246000fd5b600060028204905060018216806135ad57607f821691505b6020821081036135c0576135bf613566565b5b50919050565b7f4e487b7100000000000000000000000000000000000000000000000000000000600052601160045260246000fd5b600061360082612927565b91507fffffffffffffffffffffffffffffffffffffffffffffffffffffffffffffffff8203613632576136316135c6565b5b600182019050919050565b7f506f6c6963792074656d706c617465206973206e6f7420616374697665000000600082015250565b6000613673601d83613426565b915061367e8261363d565b602082019050919050565b600060208201905081810360008301526136a281613666565b9050919050565b7f496e73756666696369656e74207072656d69756d2073656e7400000000000000600082015250565b60006136df601983613426565b91506136ea826136a9565b602082019050919050565b6000602082019050818103600083015261370e816136d2565b9050919050565b60008190508160005260206000209050919050565b60006020601f8301049050919050565b600082821b905092915050565b6000600883026137777fffffffffffffffffffffffffffffffffffffffffffffffffffffffffffffffff8261373a565b613781868361373a565b95508019841693508086168417925050509392505050565b60006137b46137af6137aa84612927565b613159565b612927565b9050919050565b6000819050919050565b6137ce83613799565b6137e26137da826137bb565b848454613747565b825550505050565b600090565b6137f76137ea565b6138028184846137c5565b505050565b5b818110156138265761381b6000826137ef565b600181019050613808565b5050565b601f82111561386b5761383c81613715565b6138458461372a565b81016020851015613854578190505b6138686138608561372a565b830182613807565b50505b505050565b600082821c905092915050565b600061388e60001984600802613870565b1980831691505092915050565b60006138a7838361387d565b9150826002028217905092915050565b6138c082612940565b67ffffffffffffffff8111156138d9576138d8612d47565b5b6138e38254613595565b6138ee82828561382a565b600060209050601f831160018114613921576000841561390f578287015190505b613919858261389b565b865550613981565b601f19841661392f86613715565b60005b8281101561395757848901518255600182019150602085019450602081019050613932565b868310156139745784890151613970601f89168261387d565b8355505b6001600288020188555050505b505050505050565b600081905092915050565b600061399f82612940565b6139a98185613989565b93506139b981856020860161295c565b80840191505092915050565b60006139d18284613994565b915081905092915050565b600081546139e981613595565b6139f38186613989565b94506001821660008114613a0e5760018114613a2357613a56565b60ff1983168652811515820286019350613a56565b613a2c85613715565b60005b83811015613a4e57815481890152600182019150602081019050613a2f565b838801955050505b50505092915050565b6000613a6b82846139dc565b915081905092915050565b7f496e76616c696420706f6c696379496400000000000000000000000000000000600082015250565b6000613aac601083613426565b9150613ab782613a76565b602082019050919050565b60006020820190508181036000830152613adb81613a9f565b9050919050565b7f4e6f7420706f6c696379206f776e657200000000000000000000000000000000600082015250565b6000613b18601083613426565b9150613b2382613ae2565b602082019050919050565b60006020820190508181036000830152613b4781613b0b565b9050919050565b7f506f6c696379206e6f7420616374697665000000000000000000000000000000600082015250565b6000613b84601183613426565b9150613b8f82613b4e565b602082019050919050565b60006020820190508181036000830152613bb381613b77565b9050919050565b60008154613bc781613595565b613bd18186613426565b94506001821660008114613bec5760018114613c0257613c35565b60ff198316865281151560200286019350613c35565b613c0b85613715565b60005b83811015613c2d57815481890152600182019150602081019050613c0e565b808801955050505b50505092915050565b60006040820190508181036000830152613c588185613bba565b90508181036020830152613c6c8184613437565b90509392505050565b613c7e81613286565b8114613c8957600080fd5b50565b600081519050613c9b81613c75565b92915050565b600081519050613cb081612e81565b92915050565b600080600060608486031215613ccf57613cce612866565b5b6000613cdd86828701613c8c565b9350506020613cee86828701613c8c565b9250506040613cff86828701613ca1565b9150509250925092565b7f466c69676874206e6f742064656c617965640000000000000000000000000000600082015250565b6000613d3f601283613426565b9150613d4a82613d09565b602082019050919050565b60006020820190508181036000830152613d6e81613d32565b9050919050565b6000613d8082612927565b9150613d8b83612927565b9250828202613d9981612927565b91508282048414831517613db057613daf6135c6565b5b5092915050565b7f4e6f207061796f75742064756500000000000000000000000000000000000000600082015250565b6000613ded600d83613426565b9150613df882613db7565b602082019050919050565b60006020820190508181036000830152613e1c81613de0565b9050919050565b7f496e73756666696369656e7420636f6e74726163742062616c616e6365000000600082015250565b6000613e59601d83613426565b9150613e6482613e23565b602082019050919050565b60006020820190508181036000830152613e8881613e4c565b9050919050565b7f466c69676874506f6c6963793a204f6e6c792074686520696e7375726572206360008201527f616e2063616c6c20746869732066756e6374696f6e0000000000000000000000602082015250565b6000613eeb603583613426565b9150613ef682613e8f565b604082019050919050565b60006020820190508181036000830152613f1a81613ede565b9050919050565b7f506f6c696379206973206e6f7420616374697665000000000000000000000000600082015250565b6000613f57601483613426565b9150613f6282613f21565b602082019050919050565b60006020820190508181036000830152613f8681613f4a565b9050919050565b6000613f9882612927565b9150613fa383612927565b9250828201905080821115613fbb57613fba6135c6565b5b92915050565b7f506f6c69637920686173206e6f74206578706972656420796574000000000000600082015250565b6000613ff7601a83613426565b915061400282613fc1565b602082019050919050565b6000602082019050818103600083015261402681613fea565b9050919050565b7f5265656e7472616e637947756172643a207265656e7472616e742063616c6c00600082015250565b6000614063601f83613426565b915061406e8261402d565b602082019050919050565b6000602082019050818103600083015261409281614056565b9050919050565b7f4e487b7100000000000000000000000000000000000000000000000000000000600052601260045260246000fdfea26469706673582212209f9a6932372203a31095b91394d116347e9d37bf26d5161d989f46e91117cf6f64736f6c63430008130033",
  "linkReferences": {},
  "deployedLinkReferences": {}
}