{
  "_format": "hh-sol-artifact-1",
  "contractName": "FlightPolicy",
  "sourceName": "contracts/FlightPolicy.sol",
  "abi": [
    {
      "inputs": [],
      "stateMutability": "nonpayable",
      "type": "constructor"
    },
    {
      "inputs": [
        {
          "internalType": "uint256",
          "name": "policyId",
          "type": "uint256"
        },
        {
          "internalType": "address",
          "name": "buyer",
          "type": "address"
        }
      ],
      "name": "claimPayout",
      "outputs": [],
      "stateMutability": "nonpayable",
      "type": "function"
    },
    {
      "inputs": [
        {
          "internalType": "string",
          "name": "name",
          "type": "string"
        },
        {
          "internalType": "string",
          "name": "description",
          "type": "string"
        },
        {
          "internalType": "uint256",
          "name": "premium",
          "type": "uint256"
        },
        {
          "internalType": "uint256",
          "name": "payoutPerHour",
          "type": "uint256"
        },
        {
          "internalType": "uint256",
          "name": "delayThresholdHours",
          "type": "uint256"
        },
        {
          "internalType": "uint256",
          "name": "maxTotalPayout",
          "type": "uint256"
        },
        {
          "internalType": "uint256",
          "name": "coverageDurationDays",
          "type": "uint256"
        }
      ],
      "name": "createPolicyTemplate",
      "outputs": [
        {
          "internalType": "uint256",
          "name": "",
          "type": "uint256"
        }
      ],
      "stateMutability": "nonpayable",
      "type": "function"
    },
    {
      "inputs": [
        {
          "internalType": "uint256",
          "name": "templateId",
          "type": "uint256"
        }
      ],
      "name": "deactivatePolicyTemplate",
      "outputs": [],
      "stateMutability": "nonpayable",
      "type": "function"
    },
    {
      "inputs": [],
      "name": "getActivePolicyTemplates",
      "outputs": [
        {
          "components": [
            {
              "internalType": "uint256",
              "name": "templateId",
              "type": "uint256"
            },
            {
              "internalType": "string",
              "name": "name",
              "type": "string"
            },
            {
              "internalType": "string",
              "name": "description",
              "type": "string"
            },
            {
              "internalType": "uint256",
              "name": "createdAt",
              "type": "uint256"
            },
            {
              "internalType": "uint256",
              "name": "premium",
              "type": "uint256"
            },
            {
              "internalType": "uint256",
              "name": "payoutPerHour",
              "type": "uint256"
            },
            {
              "internalType": "uint256",
              "name": "delayThresholdHours",
              "type": "uint256"
            },
            {
              "internalType": "uint256",
              "name": "maxTotalPayout",
              "type": "uint256"
            },
            {
              "internalType": "uint256",
              "name": "coverageDurationDays",
              "type": "uint256"
            },
            {
              "internalType": "enum FlightPolicy.PolicyTemplateStatus",
              "name": "status",
              "type": "uint8"
            }
          ],
          "internalType": "struct FlightPolicy.PolicyTemplate[]",
          "name": "",
          "type": "tuple[]"
        }
      ],
      "stateMutability": "view",
      "type": "function"
    },
    {
      "inputs": [],
      "name": "getAllPolicies",
      "outputs": [
        {
          "components": [
            {
              "internalType": "uint256",
              "name": "policyId",
              "type": "uint256"
            },
            {
              "internalType": "uint256",
              "name": "templateId",
              "type": "uint256"
            },
            {
              "internalType": "string",
              "name": "flightNumber",
              "type": "string"
            },
            {
              "internalType": "string",
              "name": "departureAirportCode",
              "type": "string"
            },
            {
              "internalType": "string",
              "name": "arrivalAirportCode",
              "type": "string"
            },
            {
              "internalType": "uint256",
              "name": "departureTime",
              "type": "uint256"
            },
            {
              "internalType": "uint256",
              "name": "createdAt",
              "type": "uint256"
            },
            {
              "internalType": "uint256",
              "name": "payoutToDate",
              "type": "uint256"
            },
            {
              "internalType": "address",
              "name": "buyer",
              "type": "address"
            },
            {
              "internalType": "enum FlightPolicy.PolicyStatus",
              "name": "status",
              "type": "uint8"
            }
          ],
          "internalType": "struct FlightPolicy.UserPolicy[]",
          "name": "",
          "type": "tuple[]"
        }
      ],
      "stateMutability": "view",
      "type": "function"
    },
    {
      "inputs": [],
      "name": "getAllPolicyTemplates",
      "outputs": [
        {
          "components": [
            {
              "internalType": "uint256",
              "name": "templateId",
              "type": "uint256"
            },
            {
              "internalType": "string",
              "name": "name",
              "type": "string"
            },
            {
              "internalType": "string",
              "name": "description",
              "type": "string"
            },
            {
              "internalType": "uint256",
              "name": "createdAt",
              "type": "uint256"
            },
            {
              "internalType": "uint256",
              "name": "premium",
              "type": "uint256"
            },
            {
              "internalType": "uint256",
              "name": "payoutPerHour",
              "type": "uint256"
            },
            {
              "internalType": "uint256",
              "name": "delayThresholdHours",
              "type": "uint256"
            },
            {
              "internalType": "uint256",
              "name": "maxTotalPayout",
              "type": "uint256"
            },
            {
              "internalType": "uint256",
              "name": "coverageDurationDays",
              "type": "uint256"
            },
            {
              "internalType": "enum FlightPolicy.PolicyTemplateStatus",
              "name": "status",
              "type": "uint8"
            }
          ],
          "internalType": "struct FlightPolicy.PolicyTemplate[]",
          "name": "",
          "type": "tuple[]"
        }
      ],
      "stateMutability": "view",
      "type": "function"
    },
    {
      "inputs": [
        {
          "internalType": "uint256",
          "name": "templateId",
          "type": "uint256"
        }
      ],
      "name": "getPolicyTemplateById",
      "outputs": [
        {
          "components": [
            {
              "internalType": "uint256",
              "name": "templateId",
              "type": "uint256"
            },
            {
              "internalType": "string",
              "name": "name",
              "type": "string"
            },
            {
              "internalType": "string",
              "name": "description",
              "type": "string"
            },
            {
              "internalType": "uint256",
              "name": "createdAt",
              "type": "uint256"
            },
            {
              "internalType": "uint256",
              "name": "premium",
              "type": "uint256"
            },
            {
              "internalType": "uint256",
              "name": "payoutPerHour",
              "type": "uint256"
            },
            {
              "internalType": "uint256",
              "name": "delayThresholdHours",
              "type": "uint256"
            },
            {
              "internalType": "uint256",
              "name": "maxTotalPayout",
              "type": "uint256"
            },
            {
              "internalType": "uint256",
              "name": "coverageDurationDays",
              "type": "uint256"
            },
            {
              "internalType": "enum FlightPolicy.PolicyTemplateStatus",
              "name": "status",
              "type": "uint8"
            }
          ],
          "internalType": "struct FlightPolicy.PolicyTemplate",
          "name": "",
          "type": "tuple"
        }
      ],
      "stateMutability": "view",
      "type": "function"
    },
    {
      "inputs": [
        {
          "internalType": "address",
          "name": "user",
          "type": "address"
        }
      ],
      "name": "getUserPolicies",
      "outputs": [
        {
          "components": [
            {
              "internalType": "uint256",
              "name": "policyId",
              "type": "uint256"
            },
            {
              "internalType": "uint256",
              "name": "templateId",
              "type": "uint256"
            },
            {
              "internalType": "string",
              "name": "flightNumber",
              "type": "string"
            },
            {
              "internalType": "string",
              "name": "departureAirportCode",
              "type": "string"
            },
            {
              "internalType": "string",
              "name": "arrivalAirportCode",
              "type": "string"
            },
            {
              "internalType": "uint256",
              "name": "departureTime",
              "type": "uint256"
            },
            {
              "internalType": "uint256",
              "name": "createdAt",
              "type": "uint256"
            },
            {
              "internalType": "uint256",
              "name": "payoutToDate",
              "type": "uint256"
            },
            {
              "internalType": "address",
              "name": "buyer",
              "type": "address"
            },
            {
              "internalType": "enum FlightPolicy.PolicyStatus",
              "name": "status",
              "type": "uint8"
            }
          ],
          "internalType": "struct FlightPolicy.UserPolicy[]",
          "name": "",
          "type": "tuple[]"
        }
      ],
      "stateMutability": "view",
      "type": "function"
    },
    {
      "inputs": [
        {
          "internalType": "uint256",
          "name": "templateId",
          "type": "uint256"
        }
      ],
      "name": "getUserPoliciesByTemplate",
      "outputs": [
        {
          "components": [
            {
              "internalType": "uint256",
              "name": "policyId",
              "type": "uint256"
            },
            {
              "internalType": "uint256",
              "name": "templateId",
              "type": "uint256"
            },
            {
              "internalType": "string",
              "name": "flightNumber",
              "type": "string"
            },
            {
              "internalType": "string",
              "name": "departureAirportCode",
              "type": "string"
            },
            {
              "internalType": "string",
              "name": "arrivalAirportCode",
              "type": "string"
            },
            {
              "internalType": "uint256",
              "name": "departureTime",
              "type": "uint256"
            },
            {
              "internalType": "uint256",
              "name": "createdAt",
              "type": "uint256"
            },
            {
              "internalType": "uint256",
              "name": "payoutToDate",
              "type": "uint256"
            },
            {
              "internalType": "address",
              "name": "buyer",
              "type": "address"
            },
            {
              "internalType": "enum FlightPolicy.PolicyStatus",
              "name": "status",
              "type": "uint8"
            }
          ],
          "internalType": "struct FlightPolicy.UserPolicy[]",
          "name": "",
          "type": "tuple[]"
        }
      ],
      "stateMutability": "view",
      "type": "function"
    },
    {
      "inputs": [
        {
          "internalType": "address",
          "name": "user",
          "type": "address"
        },
        {
          "internalType": "uint256",
          "name": "policyId",
          "type": "uint256"
        }
      ],
      "name": "getUserPolicyWithTemplate",
      "outputs": [
        {
          "components": [
            {
              "internalType": "uint256",
              "name": "policyId",
              "type": "uint256"
            },
            {
              "internalType": "uint256",
              "name": "templateId",
              "type": "uint256"
            },
            {
              "internalType": "string",
              "name": "flightNumber",
              "type": "string"
            },
            {
              "internalType": "string",
              "name": "departureAirportCode",
              "type": "string"
            },
            {
              "internalType": "string",
              "name": "arrivalAirportCode",
              "type": "string"
            },
            {
              "internalType": "uint256",
              "name": "departureTime",
              "type": "uint256"
            },
            {
              "internalType": "uint256",
              "name": "createdAt",
              "type": "uint256"
            },
            {
              "internalType": "uint256",
              "name": "payoutToDate",
              "type": "uint256"
            },
            {
              "internalType": "address",
              "name": "buyer",
              "type": "address"
            },
            {
              "internalType": "enum FlightPolicy.PolicyStatus",
              "name": "status",
              "type": "uint8"
            }
          ],
          "internalType": "struct FlightPolicy.UserPolicy",
          "name": "",
          "type": "tuple"
        },
        {
          "components": [
            {
              "internalType": "uint256",
              "name": "templateId",
              "type": "uint256"
            },
            {
              "internalType": "string",
              "name": "name",
              "type": "string"
            },
            {
              "internalType": "string",
              "name": "description",
              "type": "string"
            },
            {
              "internalType": "uint256",
              "name": "createdAt",
              "type": "uint256"
            },
            {
              "internalType": "uint256",
              "name": "premium",
              "type": "uint256"
            },
            {
              "internalType": "uint256",
              "name": "payoutPerHour",
              "type": "uint256"
            },
            {
              "internalType": "uint256",
              "name": "delayThresholdHours",
              "type": "uint256"
            },
            {
              "internalType": "uint256",
              "name": "maxTotalPayout",
              "type": "uint256"
            },
            {
              "internalType": "uint256",
              "name": "coverageDurationDays",
              "type": "uint256"
            },
            {
              "internalType": "enum FlightPolicy.PolicyTemplateStatus",
              "name": "status",
              "type": "uint8"
            }
          ],
          "internalType": "struct FlightPolicy.PolicyTemplate",
          "name": "",
          "type": "tuple"
        }
      ],
      "stateMutability": "view",
      "type": "function"
    },
    {
      "inputs": [],
      "name": "insurerAddress",
      "outputs": [
        {
          "internalType": "address",
          "name": "",
          "type": "address"
        }
      ],
      "stateMutability": "view",
      "type": "function"
    },
    {
      "inputs": [
        {
          "internalType": "uint256",
          "name": "policyId",
          "type": "uint256"
        }
      ],
      "name": "markPolicyAsExpired",
      "outputs": [],
      "stateMutability": "nonpayable",
      "type": "function"
    },
    {
      "inputs": [],
      "name": "nextPolicyTemplateId",
      "outputs": [
        {
          "internalType": "uint256",
          "name": "",
          "type": "uint256"
        }
      ],
      "stateMutability": "view",
      "type": "function"
    },
    {
      "inputs": [],
      "name": "nextUserPolicyId",
      "outputs": [
        {
          "internalType": "uint256",
          "name": "",
          "type": "uint256"
        }
      ],
      "stateMutability": "view",
      "type": "function"
    },
    {
      "inputs": [],
      "name": "oracleConnector",
      "outputs": [
        {
          "internalType": "contract OracleConnector",
          "name": "",
          "type": "address"
        }
      ],
      "stateMutability": "view",
      "type": "function"
    },
    {
      "inputs": [
        {
          "internalType": "uint256",
          "name": "",
          "type": "uint256"
        }
      ],
      "name": "policyTemplates",
      "outputs": [
        {
          "internalType": "uint256",
          "name": "templateId",
          "type": "uint256"
        },
        {
          "internalType": "string",
          "name": "name",
          "type": "string"
        },
        {
          "internalType": "string",
          "name": "description",
          "type": "string"
        },
        {
          "internalType": "uint256",
          "name": "createdAt",
          "type": "uint256"
        },
        {
          "internalType": "uint256",
          "name": "premium",
          "type": "uint256"
        },
        {
          "internalType": "uint256",
          "name": "payoutPerHour",
          "type": "uint256"
        },
        {
          "internalType": "uint256",
          "name": "delayThresholdHours",
          "type": "uint256"
        },
        {
          "internalType": "uint256",
          "name": "maxTotalPayout",
          "type": "uint256"
        },
        {
          "internalType": "uint256",
          "name": "coverageDurationDays",
          "type": "uint256"
        },
        {
          "internalType": "enum FlightPolicy.PolicyTemplateStatus",
          "name": "status",
          "type": "uint8"
        }
      ],
      "stateMutability": "view",
      "type": "function"
    },
    {
      "inputs": [
        {
          "internalType": "uint256",
          "name": "templateId",
          "type": "uint256"
        },
        {
          "internalType": "string",
          "name": "flightNumber",
          "type": "string"
        },
        {
          "internalType": "string",
          "name": "departureAirportCode",
          "type": "string"
        },
        {
          "internalType": "string",
          "name": "arrivalAirportCode",
          "type": "string"
        },
        {
          "internalType": "uint256",
          "name": "departureTime",
          "type": "uint256"
        },
        {
          "internalType": "address",
          "name": "buyer",
          "type": "address"
        }
      ],
      "name": "purchasePolicy",
      "outputs": [
        {
          "internalType": "uint256",
          "name": "",
          "type": "uint256"
        }
      ],
      "stateMutability": "payable",
      "type": "function"
    },
    {
      "inputs": [
        {
          "internalType": "address",
          "name": "_oracleConnector",
          "type": "address"
        }
      ],
      "name": "setOracleConnector",
      "outputs": [],
      "stateMutability": "nonpayable",
      "type": "function"
    },
    {
      "inputs": [
        {
          "internalType": "uint256",
          "name": "",
          "type": "uint256"
        }
      ],
      "name": "userPolicies",
      "outputs": [
        {
          "internalType": "uint256",
          "name": "policyId",
          "type": "uint256"
        },
        {
          "internalType": "uint256",
          "name": "templateId",
          "type": "uint256"
        },
        {
          "internalType": "string",
          "name": "flightNumber",
          "type": "string"
        },
        {
          "internalType": "string",
          "name": "departureAirportCode",
          "type": "string"
        },
        {
          "internalType": "string",
          "name": "arrivalAirportCode",
          "type": "string"
        },
        {
          "internalType": "uint256",
          "name": "departureTime",
          "type": "uint256"
        },
        {
          "internalType": "uint256",
          "name": "createdAt",
          "type": "uint256"
        },
        {
          "internalType": "uint256",
          "name": "payoutToDate",
          "type": "uint256"
        },
        {
          "internalType": "address",
          "name": "buyer",
          "type": "address"
        },
        {
          "internalType": "enum FlightPolicy.PolicyStatus",
          "name": "status",
          "type": "uint8"
        }
      ],
      "stateMutability": "view",
      "type": "function"
    },
    {
      "inputs": [
        {
          "internalType": "address",
          "name": "",
          "type": "address"
        },
        {
          "internalType": "uint256",
          "name": "",
          "type": "uint256"
        }
      ],
      "name": "userPolicyIds",
      "outputs": [
        {
          "internalType": "uint256",
          "name": "",
          "type": "uint256"
        }
      ],
      "stateMutability": "view",
      "type": "function"
    }
  ],
  "bytecode": "0x60a060405234801561001057600080fd5b5060016000819055503373ffffffffffffffffffffffffffffffffffffffff1660808173ffffffffffffffffffffffffffffffffffffffff168152505060805161535461009960003960008181610523015281816112d20152818161169c015281816117b801528181611a5d01528181611c8b01528181611d5d0152612e1c01526153546000f3fe60806040526004361061011e5760003560e01c8063a233d414116100a0578063b6e283e111610064578063b6e283e11461041d578063cba85f061461045a578063cf39c624146104a0578063d3297010146104c9578063e79cdf1d146104f45761011e565b8063a233d41414610333578063a7c0900e1461035c578063b0110cc614610387578063b207edc7146103b0578063b55d4a2f146103e05761011e565b8063482ab102116100e7578063482ab1021461023a5780635990fa36146102635780637b956415146102a057806388641494146102cb5780639a9122ac146103085761011e565b8062c84c041461012357806313e896b61461014e57806319ac46141461018c5780633147b2cc146101c9578063457e55211461020f575b600080fd5b34801561012f57600080fd5b5061013861051f565b6040516101459190613b4b565b60405180910390f35b34801561015a57600080fd5b5061017560048036038101906101709190613c0b565b610813565b604051610183929190613e6b565b60405180910390f35b34801561019857600080fd5b506101b360048036038101906101ae9190613ea2565b610d82565b6040516101c09190614079565b60405180910390f35b3480156101d557600080fd5b506101f060048036038101906101eb919061409b565b61115d565b6040516102069a99989796959493929190614130565b60405180910390f35b34801561021b57600080fd5b506102246112ce565b6040516102319190614079565b60405180910390f35b34801561024657600080fd5b50610261600480360381019061025c919061409b565b61169a565b005b34801561026f57600080fd5b5061028a6004803603810190610285919061409b565b6117ae565b60405161029791906141da565b60405180910390f35b3480156102ac57600080fd5b506102b5611a53565b6040516102c291906141fc565b60405180910390f35b3480156102d757600080fd5b506102f260048036038101906102ed919061434c565b611a59565b6040516102ff91906141fc565b60405180910390f35b34801561031457600080fd5b5061031d611c63565b60405161032a9190614485565b60405180910390f35b34801561033f57600080fd5b5061035a60048036038101906103559190613ea2565b611c89565b005b34801561036857600080fd5b50610371611d5b565b60405161037e91906144af565b60405180910390f35b34801561039357600080fd5b506103ae60048036038101906103a991906144ca565b611d7f565b005b6103ca60048036038101906103c5919061450a565b612313565b6040516103d791906141fc565b60405180910390f35b3480156103ec57600080fd5b506104076004803603810190610402919061409b565b612819565b6040516104149190614079565b60405180910390f35b34801561042957600080fd5b50610444600480360381019061043f9190613c0b565b612bd0565b60405161045191906141fc565b60405180910390f35b34801561046657600080fd5b50610481600480360381019061047c919061409b565b612c01565b6040516104979a999897969594939291906145fa565b60405180910390f35b3480156104ac57600080fd5b506104c760048036038101906104c2919061409b565b612e1a565b005b3480156104d557600080fd5b506104de6131e3565b6040516104eb91906141fc565b60405180910390f35b34801561050057600080fd5b506105096131e9565b6040516105169190613b4b565b60405180910390f35b60607f000000000000000000000000000000000000000000000000000000000000000073ffffffffffffffffffffffffffffffffffffffff163273ffffffffffffffffffffffffffffffffffffffff16146105af576040517f08c379a00000000000000000000000000000000000000000000000000000000081526004016105a69061471d565b60405180910390fd5b600060035467ffffffffffffffff8111156105cd576105cc614221565b5b60405190808252806020026020018201604052801561060657816020015b6105f36137a8565b8152602001906001900390816105eb5790505b50905060005b60035481101561080b5760026000828152602001908152602001600020604051806101400160405290816000820154815260200160018201805461064f9061476c565b80601f016020809104026020016040519081016040528092919081815260200182805461067b9061476c565b80156106c85780601f1061069d576101008083540402835291602001916106c8565b820191906000526020600020905b8154815290600101906020018083116106ab57829003601f168201915b505050505081526020016002820180546106e19061476c565b80601f016020809104026020016040519081016040528092919081815260200182805461070d9061476c565b801561075a5780601f1061072f5761010080835404028352916020019161075a565b820191906000526020600020905b81548152906001019060200180831161073d57829003601f168201915b505050505081526020016003820154815260200160048201548152602001600582015481526020016006820154815260200160078201548152602001600882015481526020016009820160009054906101000a900460ff1660018111156107c4576107c361395d565b5b60018111156107d6576107d561395d565b5b815250508282815181106107ed576107ec61479d565b5b60200260200101819052508080610803906147fb565b91505061060c565b508091505090565b61081b61380d565b6108236137a8565b6006548310610867576040517f08c379a000000000000000000000000000000000000000000000000000000000815260040161085e9061488f565b60405180910390fd5b8373ffffffffffffffffffffffffffffffffffffffff166004600085815260200190815260200160002060080160009054906101000a900473ffffffffffffffffffffffffffffffffffffffff1673ffffffffffffffffffffffffffffffffffffffff161461090b576040517f08c379a0000000000000000000000000000000000000000000000000000000008152600401610902906148fb565b60405180910390fd5b6000600460008581526020019081526020016000206040518061014001604052908160008201548152602001600182015481526020016002820180546109509061476c565b80601f016020809104026020016040519081016040528092919081815260200182805461097c9061476c565b80156109c95780601f1061099e576101008083540402835291602001916109c9565b820191906000526020600020905b8154815290600101906020018083116109ac57829003601f168201915b505050505081526020016003820180546109e29061476c565b80601f0160208091040260200160405190810160405280929190818152602001828054610a0e9061476c565b8015610a5b5780601f10610a3057610100808354040283529160200191610a5b565b820191906000526020600020905b815481529060010190602001808311610a3e57829003601f168201915b50505050508152602001600482018054610a749061476c565b80601f0160208091040260200160405190810160405280929190818152602001828054610aa09061476c565b8015610aed5780601f10610ac257610100808354040283529160200191610aed565b820191906000526020600020905b815481529060010190602001808311610ad057829003601f168201915b505050505081526020016005820154815260200160068201548152602001600782015481526020016008820160009054906101000a900473ffffffffffffffffffffffffffffffffffffffff1673ffffffffffffffffffffffffffffffffffffffff1673ffffffffffffffffffffffffffffffffffffffff1681526020016008820160149054906101000a900460ff166002811115610b8f57610b8e61395d565b5b6002811115610ba157610ba061395d565b5b815250509050600060026000836020015181526020019081526020016000206040518061014001604052908160008201548152602001600182018054610be69061476c565b80601f0160208091040260200160405190810160405280929190818152602001828054610c129061476c565b8015610c5f5780601f10610c3457610100808354040283529160200191610c5f565b820191906000526020600020905b815481529060010190602001808311610c4257829003601f168201915b50505050508152602001600282018054610c789061476c565b80601f0160208091040260200160405190810160405280929190818152602001828054610ca49061476c565b8015610cf15780601f10610cc657610100808354040283529160200191610cf1565b820191906000526020600020905b815481529060010190602001808311610cd457829003601f168201915b505050505081526020016003820154815260200160048201548152602001600582015481526020016006820154815260200160078201548152602001600882015481526020016009820160009054906101000a900460ff166001811115610d5b57610d5a61395d565b5b6001811115610d6d57610d6c61395d565b5b81525050905081819350935050509250929050565b60606000600560008473ffffffffffffffffffffffffffffffffffffffff1673ffffffffffffffffffffffffffffffffffffffff16815260200190815260200160002080549050905060008167ffffffffffffffff811115610de757610de6614221565b5b604051908082528060200260200182016040528015610e2057816020015b610e0d61380d565b815260200190600190039081610e055790505b50905060005b828110156111525760046000600560008873ffffffffffffffffffffffffffffffffffffffff1673ffffffffffffffffffffffffffffffffffffffff1681526020019081526020016000208381548110610e8357610e8261479d565b5b90600052602060002001548152602001908152602001600020604051806101400160405290816000820154815260200160018201548152602001600282018054610ecc9061476c565b80601f0160208091040260200160405190810160405280929190818152602001828054610ef89061476c565b8015610f455780601f10610f1a57610100808354040283529160200191610f45565b820191906000526020600020905b815481529060010190602001808311610f2857829003601f168201915b50505050508152602001600382018054610f5e9061476c565b80601f0160208091040260200160405190810160405280929190818152602001828054610f8a9061476c565b8015610fd75780601f10610fac57610100808354040283529160200191610fd7565b820191906000526020600020905b815481529060010190602001808311610fba57829003601f168201915b50505050508152602001600482018054610ff09061476c565b80601f016020809104026020016040519081016040528092919081815260200182805461101c9061476c565b80156110695780601f1061103e57610100808354040283529160200191611069565b820191906000526020600020905b81548152906001019060200180831161104c57829003601f168201915b505050505081526020016005820154815260200160068201548152602001600782015481526020016008820160009054906101000a900473ffffffffffffffffffffffffffffffffffffffff1673ffffffffffffffffffffffffffffffffffffffff1673ffffffffffffffffffffffffffffffffffffffff1681526020016008820160149054906101000a900460ff16600281111561110b5761110a61395d565b5b600281111561111d5761111c61395d565b5b815250508282815181106111345761113361479d565b5b6020026020010181905250808061114a906147fb565b915050610e26565b508092505050919050565b60026020528060005260406000206000915090508060000154908060010180546111869061476c565b80601f01602080910402602001604051908101604052809291908181526020018280546111b29061476c565b80156111ff5780601f106111d4576101008083540402835291602001916111ff565b820191906000526020600020905b8154815290600101906020018083116111e257829003601f168201915b5050505050908060020180546112149061476c565b80601f01602080910402602001604051908101604052809291908181526020018280546112409061476c565b801561128d5780601f106112625761010080835404028352916020019161128d565b820191906000526020600020905b81548152906001019060200180831161127057829003601f168201915b5050505050908060030154908060040154908060050154908060060154908060070154908060080154908060090160009054906101000a900460ff1690508a565b60607f000000000000000000000000000000000000000000000000000000000000000073ffffffffffffffffffffffffffffffffffffffff163273ffffffffffffffffffffffffffffffffffffffff161461135e576040517f08c379a00000000000000000000000000000000000000000000000000000000081526004016113559061471d565b60405180910390fd5b6000600654905060008167ffffffffffffffff81111561138157611380614221565b5b6040519080825280602002602001820160405280156113ba57816020015b6113a761380d565b81526020019060019003908161139f5790505b50905060005b82811015611691576004600082815260200190815260200160002060405180610140016040529081600082015481526020016001820154815260200160028201805461140b9061476c565b80601f01602080910402602001604051908101604052809291908181526020018280546114379061476c565b80156114845780601f1061145957610100808354040283529160200191611484565b820191906000526020600020905b81548152906001019060200180831161146757829003601f168201915b5050505050815260200160038201805461149d9061476c565b80601f01602080910402602001604051908101604052809291908181526020018280546114c99061476c565b80156115165780601f106114eb57610100808354040283529160200191611516565b820191906000526020600020905b8154815290600101906020018083116114f957829003601f168201915b5050505050815260200160048201805461152f9061476c565b80601f016020809104026020016040519081016040528092919081815260200182805461155b9061476c565b80156115a85780601f1061157d576101008083540402835291602001916115a8565b820191906000526020600020905b81548152906001019060200180831161158b57829003601f168201915b505050505081526020016005820154815260200160068201548152602001600782015481526020016008820160009054906101000a900473ffffffffffffffffffffffffffffffffffffffff1673ffffffffffffffffffffffffffffffffffffffff1673ffffffffffffffffffffffffffffffffffffffff1681526020016008820160149054906101000a900460ff16600281111561164a5761164961395d565b5b600281111561165c5761165b61395d565b5b815250508282815181106116735761167261479d565b5b60200260200101819052508080611689906147fb565b9150506113c0565b50809250505090565b7f000000000000000000000000000000000000000000000000000000000000000073ffffffffffffffffffffffffffffffffffffffff163273ffffffffffffffffffffffffffffffffffffffff1614611728576040517f08c379a000000000000000000000000000000000000000000000000000000000815260040161171f9061471d565b60405180910390fd5b600354811061176c576040517f08c379a000000000000000000000000000000000000000000000000000000000815260040161176390614967565b60405180910390fd5b60016002600083815260200190815260200160002060090160006101000a81548160ff021916908360018111156117a6576117a561395d565b5b021790555050565b6117b66137a8565b7f000000000000000000000000000000000000000000000000000000000000000073ffffffffffffffffffffffffffffffffffffffff163273ffffffffffffffffffffffffffffffffffffffff1614611844576040517f08c379a000000000000000000000000000000000000000000000000000000000815260040161183b9061471d565b60405180910390fd5b6003548210611888576040517f08c379a000000000000000000000000000000000000000000000000000000000815260040161187f906149d3565b60405180910390fd5b6002600083815260200190815260200160002060405180610140016040529081600082015481526020016001820180546118c19061476c565b80601f01602080910402602001604051908101604052809291908181526020018280546118ed9061476c565b801561193a5780601f1061190f5761010080835404028352916020019161193a565b820191906000526020600020905b81548152906001019060200180831161191d57829003601f168201915b505050505081526020016002820180546119539061476c565b80601f016020809104026020016040519081016040528092919081815260200182805461197f9061476c565b80156119cc5780601f106119a1576101008083540402835291602001916119cc565b820191906000526020600020905b8154815290600101906020018083116119af57829003601f168201915b505050505081526020016003820154815260200160048201548152602001600582015481526020016006820154815260200160078201548152602001600882015481526020016009820160009054906101000a900460ff166001811115611a3657611a3561395d565b5b6001811115611a4857611a4761395d565b5b815250509050919050565b60065481565b60007f000000000000000000000000000000000000000000000000000000000000000073ffffffffffffffffffffffffffffffffffffffff163273ffffffffffffffffffffffffffffffffffffffff1614611ae9576040517f08c379a0000000000000000000000000000000000000000000000000000000008152600401611ae09061471d565b60405180910390fd5b600060035490506040518061014001604052808281526020018a8152602001898152602001428152602001670de0b6b3a764000089611b2891906149f3565b8152602001670de0b6b3a764000088611b4191906149f3565b8152602001868152602001670de0b6b3a764000086611b6091906149f3565b815260200184815260200160006001811115611b7f57611b7e61395d565b5b81525060026000838152602001908152602001600020600082015181600001556020820151816001019081611bb49190614bd7565b506040820151816002019081611bca9190614bd7565b50606082015181600301556080820151816004015560a0820151816005015560c0820151816006015560e0820151816007015561010082015181600801556101208201518160090160006101000a81548160ff02191690836001811115611c3457611c3361395d565b5b021790555090505060036000815480929190611c4f906147fb565b919050555080915050979650505050505050565b600160009054906101000a900473ffffffffffffffffffffffffffffffffffffffff1681565b7f000000000000000000000000000000000000000000000000000000000000000073ffffffffffffffffffffffffffffffffffffffff163273ffffffffffffffffffffffffffffffffffffffff1614611d17576040517f08c379a0000000000000000000000000000000000000000000000000000000008152600401611d0e9061471d565b60405180910390fd5b80600160006101000a81548173ffffffffffffffffffffffffffffffffffffffff021916908373ffffffffffffffffffffffffffffffffffffffff16021790555050565b7f000000000000000000000000000000000000000000000000000000000000000081565b611d8761352e565b6006548210611dcb576040517f08c379a0000000000000000000000000000000000000000000000000000000008152600401611dc29061488f565b60405180910390fd5b60006004600084815260200190815260200160002090508060080160009054906101000a900473ffffffffffffffffffffffffffffffffffffffff1673ffffffffffffffffffffffffffffffffffffffff168273ffffffffffffffffffffffffffffffffffffffff1614611e74576040517f08c379a0000000000000000000000000000000000000000000000000000000008152600401611e6b90614cf5565b60405180910390fd5b60006002811115611e8857611e8761395d565b5b8160080160149054906101000a900460ff166002811115611eac57611eab61395d565b5b14611eec576040517f08c379a0000000000000000000000000000000000000000000000000000000008152600401611ee390614d61565b60405180910390fd5b600060026000836001015481526020019081526020016000206040518061014001604052908160008201548152602001600182018054611f2b9061476c565b80601f0160208091040260200160405190810160405280929190818152602001828054611f579061476c565b8015611fa45780601f10611f7957610100808354040283529160200191611fa4565b820191906000526020600020905b815481529060010190602001808311611f8757829003601f168201915b50505050508152602001600282018054611fbd9061476c565b80601f0160208091040260200160405190810160405280929190818152602001828054611fe99061476c565b80156120365780601f1061200b57610100808354040283529160200191612036565b820191906000526020600020905b81548152906001019060200180831161201957829003601f168201915b505050505081526020016003820154815260200160048201548152602001600582015481526020016006820154815260200160078201548152602001600882015481526020016009820160009054906101000a900460ff1660018111156120a05761209f61395d565b5b60018111156120b2576120b161395d565b5b81525050905060006120c7836005015461357d565b9050600080600160009054906101000a900473ffffffffffffffffffffffffffffffffffffffff1673ffffffffffffffffffffffffffffffffffffffff166326ec641e86600201856040518363ffffffff1660e01b815260040161212c929190614e05565b60408051808303816000875af115801561214a573d6000803e3d6000fd5b505050506040513d601f19601f8201168201806040525081019061216e9190614e89565b91509150816121b2576040517f08c379a00000000000000000000000000000000000000000000000000000000081526004016121a990614f15565b60405180910390fd5b60008460a00151826121c491906149f3565b90508460e001518111156121da578460e0015190505b6000811161221d576040517f08c379a000000000000000000000000000000000000000000000000000000000815260040161221490614f81565b60405180910390fd5b80471015612260576040517f08c379a000000000000000000000000000000000000000000000000000000000815260040161225790614fed565b60405180910390fd5b60028660080160146101000a81548160ff021916908360028111156122885761228761395d565b5b02179055508086600701819055508560080160009054906101000a900473ffffffffffffffffffffffffffffffffffffffff1673ffffffffffffffffffffffffffffffffffffffff166108fc829081150290604051600060405180830381858888f19350505050158015612300573d6000803e3d6000fd5b5050505050505061230f61364b565b5050565b60006003548710612359576040517f08c379a000000000000000000000000000000000000000000000000000000000815260040161235090614967565b60405180910390fd5b60006002600089815260200190815260200160002060405180610140016040529081600082015481526020016001820180546123949061476c565b80601f01602080910402602001604051908101604052809291908181526020018280546123c09061476c565b801561240d5780601f106123e25761010080835404028352916020019161240d565b820191906000526020600020905b8154815290600101906020018083116123f057829003601f168201915b505050505081526020016002820180546124269061476c565b80601f01602080910402602001604051908101604052809291908181526020018280546124529061476c565b801561249f5780601f106124745761010080835404028352916020019161249f565b820191906000526020600020905b81548152906001019060200180831161248257829003601f168201915b505050505081526020016003820154815260200160048201548152602001600582015481526020016006820154815260200160078201548152602001600882015481526020016009820160009054906101000a900460ff1660018111156125095761250861395d565b5b600181111561251b5761251a61395d565b5b815250509050600060018111156125355761253461395d565b5b816101200151600181111561254d5761254c61395d565b5b1461258d576040517f08c379a000000000000000000000000000000000000000000000000000000000815260040161258490615059565b60405180910390fd5b4284116125cf576040517f08c379a00000000000000000000000000000000000000000000000000000000081526004016125c6906150eb565b60405180910390fd5b8060800151341015612616576040517f08c379a000000000000000000000000000000000000000000000000000000000815260040161260d90615157565b60405180910390fd5b60006006600081548092919061262b906147fb565b9190505590506040518061014001604052808281526020018a8152602001898152602001888152602001878152602001868152602001428152602001600081526020018573ffffffffffffffffffffffffffffffffffffffff1681526020016000600281111561269e5761269d61395d565b5b81525060046000838152602001908152602001600020600082015181600001556020820151816001015560408201518160020190816126dd9190614bd7565b5060608201518160030190816126f39190614bd7565b5060808201518160040190816127099190614bd7565b5060a0820151816005015560c0820151816006015560e082015181600701556101008201518160080160006101000a81548173ffffffffffffffffffffffffffffffffffffffff021916908373ffffffffffffffffffffffffffffffffffffffff1602179055506101208201518160080160146101000a81548160ff0219169083600281111561279c5761279b61395d565b5b0217905550905050600560008573ffffffffffffffffffffffffffffffffffffffff1673ffffffffffffffffffffffffffffffffffffffff16815260200190815260200160002081908060018154018082558091505060019003906000526020600020016000909190919091505580925050509695505050505050565b60606000805b6006548110156128685783600460008381526020019081526020016000206001015403612855578180612851906147fb565b9250505b8080612860906147fb565b91505061281f565b5060008167ffffffffffffffff81111561288557612884614221565b5b6040519080825280602002602001820160405280156128be57816020015b6128ab61380d565b8152602001906001900390816128a35790505b5090506000805b600654811015612bc45785600460008381526020019081526020016000206001015403612bb1576004600082815260200190815260200160002060405180610140016040529081600082015481526020016001820154815260200160028201805461292f9061476c565b80601f016020809104026020016040519081016040528092919081815260200182805461295b9061476c565b80156129a85780601f1061297d576101008083540402835291602001916129a8565b820191906000526020600020905b81548152906001019060200180831161298b57829003601f168201915b505050505081526020016003820180546129c19061476c565b80601f01602080910402602001604051908101604052809291908181526020018280546129ed9061476c565b8015612a3a5780601f10612a0f57610100808354040283529160200191612a3a565b820191906000526020600020905b815481529060010190602001808311612a1d57829003601f168201915b50505050508152602001600482018054612a539061476c565b80601f0160208091040260200160405190810160405280929190818152602001828054612a7f9061476c565b8015612acc5780601f10612aa157610100808354040283529160200191612acc565b820191906000526020600020905b815481529060010190602001808311612aaf57829003601f168201915b505050505081526020016005820154815260200160068201548152602001600782015481526020016008820160009054906101000a900473ffffffffffffffffffffffffffffffffffffffff1673ffffffffffffffffffffffffffffffffffffffff1673ffffffffffffffffffffffffffffffffffffffff1681526020016008820160149054906101000a900460ff166002811115612b6e57612b6d61395d565b5b6002811115612b8057612b7f61395d565b5b81525050838381518110612b9757612b9661479d565b5b60200260200101819052508180612bad906147fb565b9250505b8080612bbc906147fb565b9150506128c5565b50819350505050919050565b60056020528160005260406000208181548110612bec57600080fd5b90600052602060002001600091509150505481565b6004602052806000526040600020600091509050806000015490806001015490806002018054612c309061476c565b80601f0160208091040260200160405190810160405280929190818152602001828054612c5c9061476c565b8015612ca95780601f10612c7e57610100808354040283529160200191612ca9565b820191906000526020600020905b815481529060010190602001808311612c8c57829003601f168201915b505050505090806003018054612cbe9061476c565b80601f0160208091040260200160405190810160405280929190818152602001828054612cea9061476c565b8015612d375780601f10612d0c57610100808354040283529160200191612d37565b820191906000526020600020905b815481529060010190602001808311612d1a57829003601f168201915b505050505090806004018054612d4c9061476c565b80601f0160208091040260200160405190810160405280929190818152602001828054612d789061476c565b8015612dc55780601f10612d9a57610100808354040283529160200191612dc5565b820191906000526020600020905b815481529060010190602001808311612da857829003601f168201915b5050505050908060050154908060060154908060070154908060080160009054906101000a900473ffffffffffffffffffffffffffffffffffffffff16908060080160149054906101000a900460ff1690508a565b7f000000000000000000000000000000000000000000000000000000000000000073ffffffffffffffffffffffffffffffffffffffff163273ffffffffffffffffffffffffffffffffffffffff1614612ea8576040517f08c379a0000000000000000000000000000000000000000000000000000000008152600401612e9f9061471d565b60405180910390fd5b6006548110612eec576040517f08c379a0000000000000000000000000000000000000000000000000000000008152600401612ee39061488f565b60405180910390fd5b600060046000838152602001908152602001600020905060006002811115612f1757612f1661395d565b5b8160080160149054906101000a900460ff166002811115612f3b57612f3a61395d565b5b14612f7b576040517f08c379a0000000000000000000000000000000000000000000000000000000008152600401612f72906151c3565b60405180910390fd5b600060026000836001015481526020019081526020016000206040518061014001604052908160008201548152602001600182018054612fba9061476c565b80601f0160208091040260200160405190810160405280929190818152602001828054612fe69061476c565b80156130335780601f1061300857610100808354040283529160200191613033565b820191906000526020600020905b81548152906001019060200180831161301657829003601f168201915b5050505050815260200160028201805461304c9061476c565b80601f01602080910402602001604051908101604052809291908181526020018280546130789061476c565b80156130c55780601f1061309a576101008083540402835291602001916130c5565b820191906000526020600020905b8154815290600101906020018083116130a857829003601f168201915b505050505081526020016003820154815260200160048201548152602001600582015481526020016006820154815260200160078201548152602001600882015481526020016009820160009054906101000a900460ff16600181111561312f5761312e61395d565b5b60018111156131415761314061395d565b5b81525050905060006201518082610100015161315d91906149f3565b836006015461316c91906151e3565b90508042116131b0576040517f08c379a00000000000000000000000000000000000000000000000000000000081526004016131a790615263565b60405180910390fd5b60018360080160146101000a81548160ff021916908360028111156131d8576131d761395d565b5b021790555050505050565b60035481565b60606000805b60035481101561326a576000600181111561320d5761320c61395d565b5b6002600083815260200190815260200160002060090160009054906101000a900460ff1660018111156132435761324261395d565b5b03613257578180613253906147fb565b9250505b8080613262906147fb565b9150506131ef565b5060008167ffffffffffffffff81111561328757613286614221565b5b6040519080825280602002602001820160405280156132c057816020015b6132ad6137a8565b8152602001906001900390816132a55790505b5090506000805b60035481101561352457600060018111156132e5576132e461395d565b5b6002600083815260200190815260200160002060090160009054906101000a900460ff16600181111561331b5761331a61395d565b5b03613511576002600082815260200190815260200160002060405180610140016040529081600082015481526020016001820180546133599061476c565b80601f01602080910402602001604051908101604052809291908181526020018280546133859061476c565b80156133d25780601f106133a7576101008083540402835291602001916133d2565b820191906000526020600020905b8154815290600101906020018083116133b557829003601f168201915b505050505081526020016002820180546133eb9061476c565b80601f01602080910402602001604051908101604052809291908181526020018280546134179061476c565b80156134645780601f1061343957610100808354040283529160200191613464565b820191906000526020600020905b81548152906001019060200180831161344757829003601f168201915b505050505081526020016003820154815260200160048201548152602001600582015481526020016006820154815260200160078201548152602001600882015481526020016009820160009054906101000a900460ff1660018111156134ce576134cd61395d565b5b60018111156134e0576134df61395d565b5b815250508383815181106134f7576134f661479d565b5b6020026020010181905250818061350d906147fb565b9250505b808061351c906147fb565b9150506132c7565b5081935050505090565b600260005403613573576040517f08c379a000000000000000000000000000000000000000000000000000000000815260040161356a906152cf565b60405180910390fd5b6002600081905550565b60606000600161358c84613655565b01905060008167ffffffffffffffff8111156135ab576135aa614221565b5b6040519080825280601f01601f1916602001820160405280156135dd5781602001600182028036833780820191505090505b509050600082602001820190505b600115613640578080600190039150507f3031323334353637383961626364656600000000000000000000000000000000600a86061a8153600a8581613634576136336152ef565b5b049450600085036135eb575b819350505050919050565b6001600081905550565b600080600090507a184f03e93ff9f4daa797ed6e38ed64bf6a1f01000000000000000083106136b3577a184f03e93ff9f4daa797ed6e38ed64bf6a1f01000000000000000083816136a9576136a86152ef565b5b0492506040810190505b6d04ee2d6d415b85acef810000000083106136f0576d04ee2d6d415b85acef810000000083816136e6576136e56152ef565b5b0492506020810190505b662386f26fc10000831061371f57662386f26fc100008381613715576137146152ef565b5b0492506010810190505b6305f5e1008310613748576305f5e100838161373e5761373d6152ef565b5b0492506008810190505b612710831061376d576127108381613763576137626152ef565b5b0492506004810190505b606483106137905760648381613786576137856152ef565b5b0492506002810190505b600a831061379f576001810190505b80915050919050565b604051806101400160405280600081526020016060815260200160608152602001600081526020016000815260200160008152602001600081526020016000815260200160008152602001600060018111156138075761380661395d565b5b81525090565b6040518061014001604052806000815260200160008152602001606081526020016060815260200160608152602001600081526020016000815260200160008152602001600073ffffffffffffffffffffffffffffffffffffffff168152602001600060028111156138825761388161395d565b5b81525090565b600081519050919050565b600082825260208201905092915050565b6000819050602082019050919050565b6000819050919050565b6138c7816138b4565b82525050565b600081519050919050565b600082825260208201905092915050565b60005b838110156139075780820151818401526020810190506138ec565b60008484015250505050565b6000601f19601f8301169050919050565b600061392f826138cd565b61393981856138d8565b93506139498185602086016138e9565b61395281613913565b840191505092915050565b7f4e487b7100000000000000000000000000000000000000000000000000000000600052602160045260246000fd5b6002811061399d5761399c61395d565b5b50565b60008190506139ae8261398c565b919050565b60006139be826139a0565b9050919050565b6139ce816139b3565b82525050565b6000610140830160008301516139ed60008601826138be565b5060208301518482036020860152613a058282613924565b91505060408301518482036040860152613a1f8282613924565b9150506060830151613a3460608601826138be565b506080830151613a4760808601826138be565b5060a0830151613a5a60a08601826138be565b5060c0830151613a6d60c08601826138be565b5060e0830151613a8060e08601826138be565b50610100830151613a956101008601826138be565b50610120830151613aaa6101208601826139c5565b508091505092915050565b6000613ac183836139d4565b905092915050565b6000602082019050919050565b6000613ae182613888565b613aeb8185613893565b935083602082028501613afd856138a4565b8060005b85811015613b395784840389528151613b1a8582613ab5565b9450613b2583613ac9565b925060208a01995050600181019050613b01565b50829750879550505050505092915050565b60006020820190508181036000830152613b658184613ad6565b905092915050565b6000604051905090565b600080fd5b600080fd5b600073ffffffffffffffffffffffffffffffffffffffff82169050919050565b6000613bac82613b81565b9050919050565b613bbc81613ba1565b8114613bc757600080fd5b50565b600081359050613bd981613bb3565b92915050565b613be8816138b4565b8114613bf357600080fd5b50565b600081359050613c0581613bdf565b92915050565b60008060408385031215613c2257613c21613b77565b5b6000613c3085828601613bca565b9250506020613c4185828601613bf6565b9150509250929050565b613c5481613ba1565b82525050565b60038110613c6b57613c6a61395d565b5b50565b6000819050613c7c82613c5a565b919050565b6000613c8c82613c6e565b9050919050565b613c9c81613c81565b82525050565b600061014083016000830151613cbb60008601826138be565b506020830151613cce60208601826138be565b5060408301518482036040860152613ce68282613924565b91505060608301518482036060860152613d008282613924565b91505060808301518482036080860152613d1a8282613924565b91505060a0830151613d2f60a08601826138be565b5060c0830151613d4260c08601826138be565b5060e0830151613d5560e08601826138be565b50610100830151613d6a610100860182613c4b565b50610120830151613d7f610120860182613c93565b508091505092915050565b600061014083016000830151613da360008601826138be565b5060208301518482036020860152613dbb8282613924565b91505060408301518482036040860152613dd58282613924565b9150506060830151613dea60608601826138be565b506080830151613dfd60808601826138be565b5060a0830151613e1060a08601826138be565b5060c0830151613e2360c08601826138be565b5060e0830151613e3660e08601826138be565b50610100830151613e4b6101008601826138be565b50610120830151613e606101208601826139c5565b508091505092915050565b60006040820190508181036000830152613e858185613ca2565b90508181036020830152613e998184613d8a565b90509392505050565b600060208284031215613eb857613eb7613b77565b5b6000613ec684828501613bca565b91505092915050565b600081519050919050565b600082825260208201905092915050565b6000819050602082019050919050565b600061014083016000830151613f1460008601826138be565b506020830151613f2760208601826138be565b5060408301518482036040860152613f3f8282613924565b91505060608301518482036060860152613f598282613924565b91505060808301518482036080860152613f738282613924565b91505060a0830151613f8860a08601826138be565b5060c0830151613f9b60c08601826138be565b5060e0830151613fae60e08601826138be565b50610100830151613fc3610100860182613c4b565b50610120830151613fd8610120860182613c93565b508091505092915050565b6000613fef8383613efb565b905092915050565b6000602082019050919050565b600061400f82613ecf565b6140198185613eda565b93508360208202850161402b85613eeb565b8060005b8581101561406757848403895281516140488582613fe3565b945061405383613ff7565b925060208a0199505060018101905061402f565b50829750879550505050505092915050565b600060208201905081810360008301526140938184614004565b905092915050565b6000602082840312156140b1576140b0613b77565b5b60006140bf84828501613bf6565b91505092915050565b6140d1816138b4565b82525050565b600082825260208201905092915050565b60006140f3826138cd565b6140fd81856140d7565b935061410d8185602086016138e9565b61411681613913565b840191505092915050565b61412a816139b3565b82525050565b600061014082019050614146600083018d6140c8565b8181036020830152614158818c6140e8565b9050818103604083015261416c818b6140e8565b905061417b606083018a6140c8565b61418860808301896140c8565b61419560a08301886140c8565b6141a260c08301876140c8565b6141af60e08301866140c8565b6141bd6101008301856140c8565b6141cb610120830184614121565b9b9a5050505050505050505050565b600060208201905081810360008301526141f48184613d8a565b905092915050565b600060208201905061421160008301846140c8565b92915050565b600080fd5b600080fd5b7f4e487b7100000000000000000000000000000000000000000000000000000000600052604160045260246000fd5b61425982613913565b810181811067ffffffffffffffff8211171561427857614277614221565b5b80604052505050565b600061428b613b6d565b90506142978282614250565b919050565b600067ffffffffffffffff8211156142b7576142b6614221565b5b6142c082613913565b9050602081019050919050565b82818337600083830152505050565b60006142ef6142ea8461429c565b614281565b90508281526020810184848401111561430b5761430a61421c565b5b6143168482856142cd565b509392505050565b600082601f83011261433357614332614217565b5b81356143438482602086016142dc565b91505092915050565b600080600080600080600060e0888a03121561436b5761436a613b77565b5b600088013567ffffffffffffffff81111561438957614388613b7c565b5b6143958a828b0161431e565b975050602088013567ffffffffffffffff8111156143b6576143b5613b7c565b5b6143c28a828b0161431e565b96505060406143d38a828b01613bf6565b95505060606143e48a828b01613bf6565b94505060806143f58a828b01613bf6565b93505060a06144068a828b01613bf6565b92505060c06144178a828b01613bf6565b91505092959891949750929550565b6000819050919050565b600061444b61444661444184613b81565b614426565b613b81565b9050919050565b600061445d82614430565b9050919050565b600061446f82614452565b9050919050565b61447f81614464565b82525050565b600060208201905061449a6000830184614476565b92915050565b6144a981613ba1565b82525050565b60006020820190506144c460008301846144a0565b92915050565b600080604083850312156144e1576144e0613b77565b5b60006144ef85828601613bf6565b925050602061450085828601613bca565b9150509250929050565b60008060008060008060c0878903121561452757614526613b77565b5b600061453589828a01613bf6565b965050602087013567ffffffffffffffff81111561455657614555613b7c565b5b61456289828a0161431e565b955050604087013567ffffffffffffffff81111561458357614582613b7c565b5b61458f89828a0161431e565b945050606087013567ffffffffffffffff8111156145b0576145af613b7c565b5b6145bc89828a0161431e565b93505060806145cd89828a01613bf6565b92505060a06145de89828a01613bca565b9150509295509295509295565b6145f481613c81565b82525050565b600061014082019050614610600083018d6140c8565b61461d602083018c6140c8565b818103604083015261462f818b6140e8565b90508181036060830152614643818a6140e8565b9050818103608083015261465781896140e8565b905061466660a08301886140c8565b61467360c08301876140c8565b61468060e08301866140c8565b61468e6101008301856144a0565b61469c6101208301846145eb565b9b9a5050505050505050505050565b7f466c69676874506f6c6963793a204f6e6c792074686520696e7375726572206360008201527f616e2063616c6c20746869732066756e6374696f6e0000000000000000000000602082015250565b60006147076035836140d7565b9150614712826146ab565b604082019050919050565b60006020820190508181036000830152614736816146fa565b9050919050565b7f4e487b7100000000000000000000000000000000000000000000000000000000600052602260045260246000fd5b6000600282049050600182168061478457607f821691505b6020821081036147975761479661473d565b5b50919050565b7f4e487b7100000000000000000000000000000000000000000000000000000000600052603260045260246000fd5b7f4e487b7100000000000000000000000000000000000000000000000000000000600052601160045260246000fd5b6000614806826138b4565b91507fffffffffffffffffffffffffffffffffffffffffffffffffffffffffffffffff8203614838576148376147cc565b5b600182019050919050565b7f496e76616c696420706f6c696379496400000000000000000000000000000000600082015250565b60006148796010836140d7565b915061488482614843565b602082019050919050565b600060208201905081810360008301526148a88161486c565b9050919050565b7f4e6f7420796f757220706f6c6963790000000000000000000000000000000000600082015250565b60006148e5600f836140d7565b91506148f0826148af565b602082019050919050565b60006020820190508181036000830152614914816148d8565b9050919050565b7f496e76616c69642074656d706c61746549640000000000000000000000000000600082015250565b60006149516012836140d7565b915061495c8261491b565b602082019050919050565b6000602082019050818103600083015261498081614944565b9050919050565b7f54656d706c61746520646f6573206e6f74206578697374000000000000000000600082015250565b60006149bd6017836140d7565b91506149c882614987565b602082019050919050565b600060208201905081810360008301526149ec816149b0565b9050919050565b60006149fe826138b4565b9150614a09836138b4565b9250828202614a17816138b4565b91508282048414831517614a2e57614a2d6147cc565b5b5092915050565b60008190508160005260206000209050919050565b60006020601f8301049050919050565b600082821b905092915050565b600060088302614a977fffffffffffffffffffffffffffffffffffffffffffffffffffffffffffffffff82614a5a565b614aa18683614a5a565b95508019841693508086168417925050509392505050565b6000614ad4614acf614aca846138b4565b614426565b6138b4565b9050919050565b6000819050919050565b614aee83614ab9565b614b02614afa82614adb565b848454614a67565b825550505050565b600090565b614b17614b0a565b614b22818484614ae5565b505050565b5b81811015614b4657614b3b600082614b0f565b600181019050614b28565b5050565b601f821115614b8b57614b5c81614a35565b614b6584614a4a565b81016020851015614b74578190505b614b88614b8085614a4a565b830182614b27565b50505b505050565b600082821c905092915050565b6000614bae60001984600802614b90565b1980831691505092915050565b6000614bc78383614b9d565b9150826002028217905092915050565b614be0826138cd565b67ffffffffffffffff811115614bf957614bf8614221565b5b614c03825461476c565b614c0e828285614b4a565b600060209050601f831160018114614c415760008415614c2f578287015190505b614c398582614bbb565b865550614ca1565b601f198416614c4f86614a35565b60005b82811015614c7757848901518255600182019150602085019450602081019050614c52565b86831015614c945784890151614c90601f891682614b9d565b8355505b6001600288020188555050505b505050505050565b7f4e6f7420706f6c696379206f776e657200000000000000000000000000000000600082015250565b6000614cdf6010836140d7565b9150614cea82614ca9565b602082019050919050565b60006020820190508181036000830152614d0e81614cd2565b9050919050565b7f506f6c696379206e6f7420616374697665000000000000000000000000000000600082015250565b6000614d4b6011836140d7565b9150614d5682614d15565b602082019050919050565b60006020820190508181036000830152614d7a81614d3e565b9050919050565b60008154614d8e8161476c565b614d9881866140d7565b94506001821660008114614db35760018114614dc957614dfc565b60ff198316865281151560200286019350614dfc565b614dd285614a35565b60005b83811015614df457815481890152600182019150602081019050614dd5565b808801955050505b50505092915050565b60006040820190508181036000830152614e1f8185614d81565b90508181036020830152614e3381846140e8565b90509392505050565b60008115159050919050565b614e5181614e3c565b8114614e5c57600080fd5b50565b600081519050614e6e81614e48565b92915050565b600081519050614e8381613bdf565b92915050565b60008060408385031215614ea057614e9f613b77565b5b6000614eae85828601614e5f565b9250506020614ebf85828601614e74565b9150509250929050565b7f466c69676874206e6f742064656c617965640000000000000000000000000000600082015250565b6000614eff6012836140d7565b9150614f0a82614ec9565b602082019050919050565b60006020820190508181036000830152614f2e81614ef2565b9050919050565b7f4e6f207061796f75742064756500000000000000000000000000000000000000600082015250565b6000614f6b600d836140d7565b9150614f7682614f35565b602082019050919050565b60006020820190508181036000830152614f9a81614f5e565b9050919050565b7f496e73756666696369656e7420636f6e74726163742062616c616e6365000000600082015250565b6000614fd7601d836140d7565b9150614fe282614fa1565b602082019050919050565b6000602082019050818103600083015261500681614fca565b9050919050565b7f506f6c6963792074656d706c617465206973206e6f7420616374697665000000600082015250565b6000615043601d836140d7565b915061504e8261500d565b602082019050919050565b6000602082019050818103600083015261507281615036565b9050919050565b7f4465706172747572652074696d65206d75737420626520696e2074686520667560008201527f7475726500000000000000000000000000000000000000000000000000000000602082015250565b60006150d56024836140d7565b91506150e082615079565b604082019050919050565b60006020820190508181036000830152615104816150c8565b9050919050565b7f496e73756666696369656e74207072656d69756d2073656e7400000000000000600082015250565b60006151416019836140d7565b915061514c8261510b565b602082019050919050565b6000602082019050818103600083015261517081615134565b9050919050565b7f506f6c696379206973206e6f7420616374697665000000000000000000000000600082015250565b60006151ad6014836140d7565b91506151b882615177565b602082019050919050565b600060208201905081810360008301526151dc816151a0565b9050919050565b60006151ee826138b4565b91506151f9836138b4565b9250828201905080821115615211576152106147cc565b5b92915050565b7f506f6c69637920686173206e6f74206578706972656420796574000000000000600082015250565b600061524d601a836140d7565b915061525882615217565b602082019050919050565b6000602082019050818103600083015261527c81615240565b9050919050565b7f5265656e7472616e637947756172643a207265656e7472616e742063616c6c00600082015250565b60006152b9601f836140d7565b91506152c482615283565b602082019050919050565b600060208201905081810360008301526152e8816152ac565b9050919050565b7f4e487b7100000000000000000000000000000000000000000000000000000000600052601260045260246000fdfea26469706673582212201053b223b459c139c27a775286328251be465ce717b35792f8c99a2ffcbb05f064736f6c63430008130033",
  "linkReferences": {},
  "deployedLinkReferences": {}
}