{
  "_format": "hh-sol-artifact-1",
  "contractName": "FlightPolicy",
  "sourceName": "contracts/FlightPolicy.sol",
  "abi": [
    {
      "inputs": [],
      "stateMutability": "nonpayable",
      "type": "constructor"
    },
    {
      "inputs": [
        {
          "internalType": "string",
          "name": "name",
          "type": "string"
        },
        {
          "internalType": "string",
          "name": "description",
          "type": "string"
        },
        {
          "internalType": "uint256",
          "name": "premium",
          "type": "uint256"
        },
        {
          "internalType": "uint256",
          "name": "payoutPerHour",
          "type": "uint256"
        },
        {
          "internalType": "uint256",
          "name": "delayThresholdHours",
          "type": "uint256"
        },
        {
          "internalType": "uint256",
          "name": "maxTotalPayout",
          "type": "uint256"
        },
        {
          "internalType": "uint256",
          "name": "coverageDurationDays",
          "type": "uint256"
        }
      ],
      "name": "createPolicyTemplate",
      "outputs": [
        {
          "internalType": "uint256",
          "name": "",
          "type": "uint256"
        }
      ],
      "stateMutability": "nonpayable",
      "type": "function"
    },
    {
      "inputs": [
        {
          "internalType": "uint256",
          "name": "templateId",
          "type": "uint256"
        }
      ],
      "name": "deactivatePolicyTemplate",
      "outputs": [],
      "stateMutability": "nonpayable",
      "type": "function"
    },
    {
      "inputs": [],
      "name": "getActivePolicyTemplates",
      "outputs": [
        {
          "components": [
            {
              "internalType": "uint256",
              "name": "templateId",
              "type": "uint256"
            },
            {
              "internalType": "string",
              "name": "name",
              "type": "string"
            },
            {
              "internalType": "string",
              "name": "description",
              "type": "string"
            },
            {
              "internalType": "uint256",
              "name": "createdAt",
              "type": "uint256"
            },
            {
              "internalType": "uint256",
              "name": "premium",
              "type": "uint256"
            },
            {
              "internalType": "uint256",
              "name": "payoutPerHour",
              "type": "uint256"
            },
            {
              "internalType": "uint256",
              "name": "delayThresholdHours",
              "type": "uint256"
            },
            {
              "internalType": "uint256",
              "name": "maxTotalPayout",
              "type": "uint256"
            },
            {
              "internalType": "uint256",
              "name": "coverageDurationDays",
              "type": "uint256"
            },
            {
              "internalType": "enum FlightPolicy.PolicyTemplateStatus",
              "name": "status",
              "type": "uint8"
            }
          ],
          "internalType": "struct FlightPolicy.PolicyTemplate[]",
          "name": "",
          "type": "tuple[]"
        }
      ],
      "stateMutability": "view",
      "type": "function"
    },
    {
      "inputs": [],
      "name": "getAllPolicies",
      "outputs": [
        {
          "components": [
            {
              "internalType": "uint256",
              "name": "policyId",
              "type": "uint256"
            },
            {
              "internalType": "uint256",
              "name": "templateId",
              "type": "uint256"
            },
            {
              "internalType": "string",
              "name": "flightNumber",
              "type": "string"
            },
            {
              "internalType": "string",
              "name": "departureAirportCode",
              "type": "string"
            },
            {
              "internalType": "string",
              "name": "arrivalAirportCode",
              "type": "string"
            },
            {
              "internalType": "uint256",
              "name": "departureTime",
              "type": "uint256"
            },
            {
              "internalType": "uint256",
              "name": "createdAt",
              "type": "uint256"
            },
            {
              "internalType": "uint256",
              "name": "payoutToDate",
              "type": "uint256"
            },
            {
              "internalType": "address",
              "name": "buyer",
              "type": "address"
            },
            {
              "internalType": "enum FlightPolicy.PolicyStatus",
              "name": "status",
              "type": "uint8"
            }
          ],
          "internalType": "struct FlightPolicy.UserPolicy[]",
          "name": "",
          "type": "tuple[]"
        }
      ],
      "stateMutability": "view",
      "type": "function"
    },
    {
      "inputs": [],
      "name": "getAllPolicyTemplates",
      "outputs": [
        {
          "components": [
            {
              "internalType": "uint256",
              "name": "templateId",
              "type": "uint256"
            },
            {
              "internalType": "string",
              "name": "name",
              "type": "string"
            },
            {
              "internalType": "string",
              "name": "description",
              "type": "string"
            },
            {
              "internalType": "uint256",
              "name": "createdAt",
              "type": "uint256"
            },
            {
              "internalType": "uint256",
              "name": "premium",
              "type": "uint256"
            },
            {
              "internalType": "uint256",
              "name": "payoutPerHour",
              "type": "uint256"
            },
            {
              "internalType": "uint256",
              "name": "delayThresholdHours",
              "type": "uint256"
            },
            {
              "internalType": "uint256",
              "name": "maxTotalPayout",
              "type": "uint256"
            },
            {
              "internalType": "uint256",
              "name": "coverageDurationDays",
              "type": "uint256"
            },
            {
              "internalType": "enum FlightPolicy.PolicyTemplateStatus",
              "name": "status",
              "type": "uint8"
            }
          ],
          "internalType": "struct FlightPolicy.PolicyTemplate[]",
          "name": "",
          "type": "tuple[]"
        }
      ],
      "stateMutability": "view",
      "type": "function"
    },
    {
      "inputs": [
        {
          "internalType": "uint256",
          "name": "templateId",
          "type": "uint256"
        }
      ],
      "name": "getPolicyTemplateById",
      "outputs": [
        {
          "components": [
            {
              "internalType": "uint256",
              "name": "templateId",
              "type": "uint256"
            },
            {
              "internalType": "string",
              "name": "name",
              "type": "string"
            },
            {
              "internalType": "string",
              "name": "description",
              "type": "string"
            },
            {
              "internalType": "uint256",
              "name": "createdAt",
              "type": "uint256"
            },
            {
              "internalType": "uint256",
              "name": "premium",
              "type": "uint256"
            },
            {
              "internalType": "uint256",
              "name": "payoutPerHour",
              "type": "uint256"
            },
            {
              "internalType": "uint256",
              "name": "delayThresholdHours",
              "type": "uint256"
            },
            {
              "internalType": "uint256",
              "name": "maxTotalPayout",
              "type": "uint256"
            },
            {
              "internalType": "uint256",
              "name": "coverageDurationDays",
              "type": "uint256"
            },
            {
              "internalType": "enum FlightPolicy.PolicyTemplateStatus",
              "name": "status",
              "type": "uint8"
            }
          ],
          "internalType": "struct FlightPolicy.PolicyTemplate",
          "name": "",
          "type": "tuple"
        }
      ],
      "stateMutability": "view",
      "type": "function"
    },
    {
      "inputs": [
        {
          "internalType": "address",
          "name": "user",
          "type": "address"
        }
      ],
      "name": "getUserPolicies",
      "outputs": [
        {
          "components": [
            {
              "internalType": "uint256",
              "name": "policyId",
              "type": "uint256"
            },
            {
              "internalType": "uint256",
              "name": "templateId",
              "type": "uint256"
            },
            {
              "internalType": "string",
              "name": "flightNumber",
              "type": "string"
            },
            {
              "internalType": "string",
              "name": "departureAirportCode",
              "type": "string"
            },
            {
              "internalType": "string",
              "name": "arrivalAirportCode",
              "type": "string"
            },
            {
              "internalType": "uint256",
              "name": "departureTime",
              "type": "uint256"
            },
            {
              "internalType": "uint256",
              "name": "createdAt",
              "type": "uint256"
            },
            {
              "internalType": "uint256",
              "name": "payoutToDate",
              "type": "uint256"
            },
            {
              "internalType": "address",
              "name": "buyer",
              "type": "address"
            },
            {
              "internalType": "enum FlightPolicy.PolicyStatus",
              "name": "status",
              "type": "uint8"
            }
          ],
          "internalType": "struct FlightPolicy.UserPolicy[]",
          "name": "",
          "type": "tuple[]"
        }
      ],
      "stateMutability": "view",
      "type": "function"
    },
    {
      "inputs": [
        {
          "internalType": "address",
          "name": "user",
          "type": "address"
        },
        {
          "internalType": "uint256",
          "name": "policyId",
          "type": "uint256"
        }
      ],
      "name": "getUserPolicyWithTemplate",
      "outputs": [
        {
          "components": [
            {
              "internalType": "uint256",
              "name": "policyId",
              "type": "uint256"
            },
            {
              "internalType": "uint256",
              "name": "templateId",
              "type": "uint256"
            },
            {
              "internalType": "string",
              "name": "flightNumber",
              "type": "string"
            },
            {
              "internalType": "string",
              "name": "departureAirportCode",
              "type": "string"
            },
            {
              "internalType": "string",
              "name": "arrivalAirportCode",
              "type": "string"
            },
            {
              "internalType": "uint256",
              "name": "departureTime",
              "type": "uint256"
            },
            {
              "internalType": "uint256",
              "name": "createdAt",
              "type": "uint256"
            },
            {
              "internalType": "uint256",
              "name": "payoutToDate",
              "type": "uint256"
            },
            {
              "internalType": "address",
              "name": "buyer",
              "type": "address"
            },
            {
              "internalType": "enum FlightPolicy.PolicyStatus",
              "name": "status",
              "type": "uint8"
            }
          ],
          "internalType": "struct FlightPolicy.UserPolicy",
          "name": "",
          "type": "tuple"
        },
        {
          "components": [
            {
              "internalType": "uint256",
              "name": "templateId",
              "type": "uint256"
            },
            {
              "internalType": "string",
              "name": "name",
              "type": "string"
            },
            {
              "internalType": "string",
              "name": "description",
              "type": "string"
            },
            {
              "internalType": "uint256",
              "name": "createdAt",
              "type": "uint256"
            },
            {
              "internalType": "uint256",
              "name": "premium",
              "type": "uint256"
            },
            {
              "internalType": "uint256",
              "name": "payoutPerHour",
              "type": "uint256"
            },
            {
              "internalType": "uint256",
              "name": "delayThresholdHours",
              "type": "uint256"
            },
            {
              "internalType": "uint256",
              "name": "maxTotalPayout",
              "type": "uint256"
            },
            {
              "internalType": "uint256",
              "name": "coverageDurationDays",
              "type": "uint256"
            },
            {
              "internalType": "enum FlightPolicy.PolicyTemplateStatus",
              "name": "status",
              "type": "uint8"
            }
          ],
          "internalType": "struct FlightPolicy.PolicyTemplate",
          "name": "",
          "type": "tuple"
        }
      ],
      "stateMutability": "view",
      "type": "function"
    },
    {
      "inputs": [],
      "name": "insurerAddress",
      "outputs": [
        {
          "internalType": "address",
          "name": "",
          "type": "address"
        }
      ],
      "stateMutability": "view",
      "type": "function"
    },
    {
      "inputs": [
        {
          "internalType": "address",
          "name": "buyer",
          "type": "address"
        },
        {
          "internalType": "uint256",
          "name": "policyId",
          "type": "uint256"
        }
      ],
      "name": "markPolicyAsClaimed",
      "outputs": [],
      "stateMutability": "nonpayable",
      "type": "function"
    },
    {
      "inputs": [
        {
          "internalType": "uint256",
          "name": "policyId",
          "type": "uint256"
        }
      ],
      "name": "markPolicyAsExpired",
      "outputs": [],
      "stateMutability": "nonpayable",
      "type": "function"
    },
    {
      "inputs": [],
      "name": "nextPolicyTemplateId",
      "outputs": [
        {
          "internalType": "uint256",
          "name": "",
          "type": "uint256"
        }
      ],
      "stateMutability": "view",
      "type": "function"
    },
    {
      "inputs": [],
      "name": "nextUserPolicyId",
      "outputs": [
        {
          "internalType": "uint256",
          "name": "",
          "type": "uint256"
        }
      ],
      "stateMutability": "view",
      "type": "function"
    },
    {
      "inputs": [
        {
          "internalType": "uint256",
          "name": "",
          "type": "uint256"
        }
      ],
      "name": "policyTemplates",
      "outputs": [
        {
          "internalType": "uint256",
          "name": "templateId",
          "type": "uint256"
        },
        {
          "internalType": "string",
          "name": "name",
          "type": "string"
        },
        {
          "internalType": "string",
          "name": "description",
          "type": "string"
        },
        {
          "internalType": "uint256",
          "name": "createdAt",
          "type": "uint256"
        },
        {
          "internalType": "uint256",
          "name": "premium",
          "type": "uint256"
        },
        {
          "internalType": "uint256",
          "name": "payoutPerHour",
          "type": "uint256"
        },
        {
          "internalType": "uint256",
          "name": "delayThresholdHours",
          "type": "uint256"
        },
        {
          "internalType": "uint256",
          "name": "maxTotalPayout",
          "type": "uint256"
        },
        {
          "internalType": "uint256",
          "name": "coverageDurationDays",
          "type": "uint256"
        },
        {
          "internalType": "enum FlightPolicy.PolicyTemplateStatus",
          "name": "status",
          "type": "uint8"
        }
      ],
      "stateMutability": "view",
      "type": "function"
    },
    {
      "inputs": [
        {
          "internalType": "uint256",
          "name": "templateId",
          "type": "uint256"
        },
        {
          "internalType": "string",
          "name": "flightNumber",
          "type": "string"
        },
        {
          "internalType": "string",
          "name": "departureAirportCode",
          "type": "string"
        },
        {
          "internalType": "string",
          "name": "arrivalAirportCode",
          "type": "string"
        },
        {
          "internalType": "uint256",
          "name": "departureTime",
          "type": "uint256"
        },
        {
          "internalType": "address",
          "name": "buyer",
          "type": "address"
        }
      ],
      "name": "purchasePolicy",
      "outputs": [
        {
          "internalType": "uint256",
          "name": "",
          "type": "uint256"
        }
      ],
      "stateMutability": "payable",
      "type": "function"
    },
    {
      "inputs": [
        {
          "internalType": "uint256",
          "name": "",
          "type": "uint256"
        }
      ],
      "name": "userPolicies",
      "outputs": [
        {
          "internalType": "uint256",
          "name": "policyId",
          "type": "uint256"
        },
        {
          "internalType": "uint256",
          "name": "templateId",
          "type": "uint256"
        },
        {
          "internalType": "string",
          "name": "flightNumber",
          "type": "string"
        },
        {
          "internalType": "string",
          "name": "departureAirportCode",
          "type": "string"
        },
        {
          "internalType": "string",
          "name": "arrivalAirportCode",
          "type": "string"
        },
        {
          "internalType": "uint256",
          "name": "departureTime",
          "type": "uint256"
        },
        {
          "internalType": "uint256",
          "name": "createdAt",
          "type": "uint256"
        },
        {
          "internalType": "uint256",
          "name": "payoutToDate",
          "type": "uint256"
        },
        {
          "internalType": "address",
          "name": "buyer",
          "type": "address"
        },
        {
          "internalType": "enum FlightPolicy.PolicyStatus",
          "name": "status",
          "type": "uint8"
        }
      ],
      "stateMutability": "view",
      "type": "function"
    },
    {
      "inputs": [
        {
          "internalType": "address",
          "name": "",
          "type": "address"
        },
        {
          "internalType": "uint256",
          "name": "",
          "type": "uint256"
        }
      ],
      "name": "userPolicyIds",
      "outputs": [
        {
          "internalType": "uint256",
          "name": "",
          "type": "uint256"
        }
      ],
      "stateMutability": "view",
      "type": "function"
    }
  ],
  "bytecode": "0x60a060405234801561001057600080fd5b503373ffffffffffffffffffffffffffffffffffffffff1660808173ffffffffffffffffffffffffffffffffffffffff16815250506080516143da61009160003960008181610471015281816110ab015281816114600152818161182a0152818161194501528181611be901528181611df0015261256301526143da6000f3fe6080604052600436106100fd5760003560e01c80637b95641511610095578063b6e283e111610064578063b6e283e11461036b578063cba85f06146103a8578063cf39c624146103ee578063d329701014610417578063e79cdf1d14610442576100fd565b80637b956415146102a857806388641494146102d3578063a7c0900e14610310578063b207edc71461033b576100fd565b80633147b2cc116100d15780633147b2cc146101d1578063457e552114610217578063482ab102146102425780635990fa361461026b576100fd565b8062c84c041461010257806313e896b61461012d57806319ac46141461016b57806328cf382c146101a8575b600080fd5b34801561010e57600080fd5b5061011761046d565b6040516101249190613014565b60405180910390f35b34801561013957600080fd5b50610154600480360381019061014f91906130d4565b610760565b604051610162929190613334565b60405180910390f35b34801561017757600080fd5b50610192600480360381019061018d919061336b565b610cce565b60405161019f9190613542565b60405180910390f35b3480156101b457600080fd5b506101cf60048036038101906101ca91906130d4565b6110a9565b005b3480156101dd57600080fd5b506101f860048036038101906101f39190613564565b6112eb565b60405161020e9a999897969594939291906135f9565b60405180910390f35b34801561022357600080fd5b5061022c61145c565b6040516102399190613542565b60405180910390f35b34801561024e57600080fd5b5061026960048036038101906102649190613564565b611828565b005b34801561027757600080fd5b50610292600480360381019061028d9190613564565b61193b565b60405161029f91906136a3565b60405180910390f35b3480156102b457600080fd5b506102bd611bdf565b6040516102ca91906136c5565b60405180910390f35b3480156102df57600080fd5b506102fa60048036038101906102f59190613815565b611be5565b60405161030791906136c5565b60405180910390f35b34801561031c57600080fd5b50610325611dee565b60405161033291906138fe565b60405180910390f35b61035560048036038101906103509190613919565b611e12565b60405161036291906136c5565b60405180910390f35b34801561037757600080fd5b50610392600480360381019061038d91906130d4565b612317565b60405161039f91906136c5565b60405180910390f35b3480156103b457600080fd5b506103cf60048036038101906103ca9190613564565b612348565b6040516103e59a99989796959493929190613a09565b60405180910390f35b3480156103fa57600080fd5b5061041560048036038101906104109190613564565b612561565b005b34801561042357600080fd5b5061042c612929565b60405161043991906136c5565b60405180910390f35b34801561044e57600080fd5b5061045761292f565b6040516104649190613014565b60405180910390f35b60607f000000000000000000000000000000000000000000000000000000000000000073ffffffffffffffffffffffffffffffffffffffff163273ffffffffffffffffffffffffffffffffffffffff16146104fd576040517f08c379a00000000000000000000000000000000000000000000000000000000081526004016104f490613b2c565b60405180910390fd5b600060015467ffffffffffffffff81111561051b5761051a6136ea565b5b60405190808252806020026020018201604052801561055457816020015b610541612c71565b8152602001906001900390816105395790505b50905060005b60015481101561075857600080828152602001908152602001600020604051806101400160405290816000820154815260200160018201805461059c90613b7b565b80601f01602080910402602001604051908101604052809291908181526020018280546105c890613b7b565b80156106155780601f106105ea57610100808354040283529160200191610615565b820191906000526020600020905b8154815290600101906020018083116105f857829003601f168201915b5050505050815260200160028201805461062e90613b7b565b80601f016020809104026020016040519081016040528092919081815260200182805461065a90613b7b565b80156106a75780601f1061067c576101008083540402835291602001916106a7565b820191906000526020600020905b81548152906001019060200180831161068a57829003601f168201915b505050505081526020016003820154815260200160048201548152602001600582015481526020016006820154815260200160078201548152602001600882015481526020016009820160009054906101000a900460ff16600181111561071157610710612e26565b5b600181111561072357610722612e26565b5b8152505082828151811061073a57610739613bac565b5b6020026020010181905250808061075090613c0a565b91505061055a565b508091505090565b610768612cd6565b610770612c71565b60045483106107b4576040517f08c379a00000000000000000000000000000000000000000000000000000000081526004016107ab90613c9e565b60405180910390fd5b8373ffffffffffffffffffffffffffffffffffffffff166002600085815260200190815260200160002060080160009054906101000a900473ffffffffffffffffffffffffffffffffffffffff1673ffffffffffffffffffffffffffffffffffffffff1614610858576040517f08c379a000000000000000000000000000000000000000000000000000000000815260040161084f90613d0a565b60405180910390fd5b60006002600085815260200190815260200160002060405180610140016040529081600082015481526020016001820154815260200160028201805461089d90613b7b565b80601f01602080910402602001604051908101604052809291908181526020018280546108c990613b7b565b80156109165780601f106108eb57610100808354040283529160200191610916565b820191906000526020600020905b8154815290600101906020018083116108f957829003601f168201915b5050505050815260200160038201805461092f90613b7b565b80601f016020809104026020016040519081016040528092919081815260200182805461095b90613b7b565b80156109a85780601f1061097d576101008083540402835291602001916109a8565b820191906000526020600020905b81548152906001019060200180831161098b57829003601f168201915b505050505081526020016004820180546109c190613b7b565b80601f01602080910402602001604051908101604052809291908181526020018280546109ed90613b7b565b8015610a3a5780601f10610a0f57610100808354040283529160200191610a3a565b820191906000526020600020905b815481529060010190602001808311610a1d57829003601f168201915b505050505081526020016005820154815260200160068201548152602001600782015481526020016008820160009054906101000a900473ffffffffffffffffffffffffffffffffffffffff1673ffffffffffffffffffffffffffffffffffffffff1673ffffffffffffffffffffffffffffffffffffffff1681526020016008820160149054906101000a900460ff166002811115610adc57610adb612e26565b5b6002811115610aee57610aed612e26565b5b8152505090506000806000836020015181526020019081526020016000206040518061014001604052908160008201548152602001600182018054610b3290613b7b565b80601f0160208091040260200160405190810160405280929190818152602001828054610b5e90613b7b565b8015610bab5780601f10610b8057610100808354040283529160200191610bab565b820191906000526020600020905b815481529060010190602001808311610b8e57829003601f168201915b50505050508152602001600282018054610bc490613b7b565b80601f0160208091040260200160405190810160405280929190818152602001828054610bf090613b7b565b8015610c3d5780601f10610c1257610100808354040283529160200191610c3d565b820191906000526020600020905b815481529060010190602001808311610c2057829003601f168201915b505050505081526020016003820154815260200160048201548152602001600582015481526020016006820154815260200160078201548152602001600882015481526020016009820160009054906101000a900460ff166001811115610ca757610ca6612e26565b5b6001811115610cb957610cb8612e26565b5b81525050905081819350935050509250929050565b60606000600360008473ffffffffffffffffffffffffffffffffffffffff1673ffffffffffffffffffffffffffffffffffffffff16815260200190815260200160002080549050905060008167ffffffffffffffff811115610d3357610d326136ea565b5b604051908082528060200260200182016040528015610d6c57816020015b610d59612cd6565b815260200190600190039081610d515790505b50905060005b8281101561109e5760026000600360008873ffffffffffffffffffffffffffffffffffffffff1673ffffffffffffffffffffffffffffffffffffffff1681526020019081526020016000208381548110610dcf57610dce613bac565b5b90600052602060002001548152602001908152602001600020604051806101400160405290816000820154815260200160018201548152602001600282018054610e1890613b7b565b80601f0160208091040260200160405190810160405280929190818152602001828054610e4490613b7b565b8015610e915780601f10610e6657610100808354040283529160200191610e91565b820191906000526020600020905b815481529060010190602001808311610e7457829003601f168201915b50505050508152602001600382018054610eaa90613b7b565b80601f0160208091040260200160405190810160405280929190818152602001828054610ed690613b7b565b8015610f235780601f10610ef857610100808354040283529160200191610f23565b820191906000526020600020905b815481529060010190602001808311610f0657829003601f168201915b50505050508152602001600482018054610f3c90613b7b565b80601f0160208091040260200160405190810160405280929190818152602001828054610f6890613b7b565b8015610fb55780601f10610f8a57610100808354040283529160200191610fb5565b820191906000526020600020905b815481529060010190602001808311610f9857829003601f168201915b505050505081526020016005820154815260200160068201548152602001600782015481526020016008820160009054906101000a900473ffffffffffffffffffffffffffffffffffffffff1673ffffffffffffffffffffffffffffffffffffffff1673ffffffffffffffffffffffffffffffffffffffff1681526020016008820160149054906101000a900460ff16600281111561105757611056612e26565b5b600281111561106957611068612e26565b5b815250508282815181106110805761107f613bac565b5b6020026020010181905250808061109690613c0a565b915050610d72565b508092505050919050565b7f000000000000000000000000000000000000000000000000000000000000000073ffffffffffffffffffffffffffffffffffffffff163273ffffffffffffffffffffffffffffffffffffffff1614611137576040517f08c379a000000000000000000000000000000000000000000000000000000000815260040161112e90613b2c565b60405180910390fd5b600454811061117b576040517f08c379a000000000000000000000000000000000000000000000000000000000815260040161117290613c9e565b60405180910390fd5b8173ffffffffffffffffffffffffffffffffffffffff166002600083815260200190815260200160002060080160009054906101000a900473ffffffffffffffffffffffffffffffffffffffff1673ffffffffffffffffffffffffffffffffffffffff161461121f576040517f08c379a000000000000000000000000000000000000000000000000000000000815260040161121690613d76565b60405180910390fd5b6000600281111561123357611232612e26565b5b6002600083815260200190815260200160002060080160149054906101000a900460ff16600281111561126957611268612e26565b5b146112a9576040517f08c379a00000000000000000000000000000000000000000000000000000000081526004016112a090613de2565b60405180910390fd5b600280600083815260200190815260200160002060080160146101000a81548160ff021916908360028111156112e2576112e1612e26565b5b02179055505050565b600060205280600052604060002060009150905080600001549080600101805461131490613b7b565b80601f016020809104026020016040519081016040528092919081815260200182805461134090613b7b565b801561138d5780601f106113625761010080835404028352916020019161138d565b820191906000526020600020905b81548152906001019060200180831161137057829003601f168201915b5050505050908060020180546113a290613b7b565b80601f01602080910402602001604051908101604052809291908181526020018280546113ce90613b7b565b801561141b5780601f106113f05761010080835404028352916020019161141b565b820191906000526020600020905b8154815290600101906020018083116113fe57829003601f168201915b5050505050908060030154908060040154908060050154908060060154908060070154908060080154908060090160009054906101000a900460ff1690508a565b60607f000000000000000000000000000000000000000000000000000000000000000073ffffffffffffffffffffffffffffffffffffffff163273ffffffffffffffffffffffffffffffffffffffff16146114ec576040517f08c379a00000000000000000000000000000000000000000000000000000000081526004016114e390613b2c565b60405180910390fd5b6000600454905060008167ffffffffffffffff81111561150f5761150e6136ea565b5b60405190808252806020026020018201604052801561154857816020015b611535612cd6565b81526020019060019003908161152d5790505b50905060005b8281101561181f576002600082815260200190815260200160002060405180610140016040529081600082015481526020016001820154815260200160028201805461159990613b7b565b80601f01602080910402602001604051908101604052809291908181526020018280546115c590613b7b565b80156116125780601f106115e757610100808354040283529160200191611612565b820191906000526020600020905b8154815290600101906020018083116115f557829003601f168201915b5050505050815260200160038201805461162b90613b7b565b80601f016020809104026020016040519081016040528092919081815260200182805461165790613b7b565b80156116a45780601f10611679576101008083540402835291602001916116a4565b820191906000526020600020905b81548152906001019060200180831161168757829003601f168201915b505050505081526020016004820180546116bd90613b7b565b80601f01602080910402602001604051908101604052809291908181526020018280546116e990613b7b565b80156117365780601f1061170b57610100808354040283529160200191611736565b820191906000526020600020905b81548152906001019060200180831161171957829003601f168201915b505050505081526020016005820154815260200160068201548152602001600782015481526020016008820160009054906101000a900473ffffffffffffffffffffffffffffffffffffffff1673ffffffffffffffffffffffffffffffffffffffff1673ffffffffffffffffffffffffffffffffffffffff1681526020016008820160149054906101000a900460ff1660028111156117d8576117d7612e26565b5b60028111156117ea576117e9612e26565b5b8152505082828151811061180157611800613bac565b5b6020026020010181905250808061181790613c0a565b91505061154e565b50809250505090565b7f000000000000000000000000000000000000000000000000000000000000000073ffffffffffffffffffffffffffffffffffffffff163273ffffffffffffffffffffffffffffffffffffffff16146118b6576040517f08c379a00000000000000000000000000000000000000000000000000000000081526004016118ad90613b2c565b60405180910390fd5b60015481106118fa576040517f08c379a00000000000000000000000000000000000000000000000000000000081526004016118f190613e4e565b60405180910390fd5b600160008083815260200190815260200160002060090160006101000a81548160ff0219169083600181111561193357611932612e26565b5b021790555050565b611943612c71565b7f000000000000000000000000000000000000000000000000000000000000000073ffffffffffffffffffffffffffffffffffffffff163273ffffffffffffffffffffffffffffffffffffffff16146119d1576040517f08c379a00000000000000000000000000000000000000000000000000000000081526004016119c890613b2c565b60405180910390fd5b6001548210611a15576040517f08c379a0000000000000000000000000000000000000000000000000000000008152600401611a0c90613eba565b60405180910390fd5b6000808381526020019081526020016000206040518061014001604052908160008201548152602001600182018054611a4d90613b7b565b80601f0160208091040260200160405190810160405280929190818152602001828054611a7990613b7b565b8015611ac65780601f10611a9b57610100808354040283529160200191611ac6565b820191906000526020600020905b815481529060010190602001808311611aa957829003601f168201915b50505050508152602001600282018054611adf90613b7b565b80601f0160208091040260200160405190810160405280929190818152602001828054611b0b90613b7b565b8015611b585780601f10611b2d57610100808354040283529160200191611b58565b820191906000526020600020905b815481529060010190602001808311611b3b57829003601f168201915b505050505081526020016003820154815260200160048201548152602001600582015481526020016006820154815260200160078201548152602001600882015481526020016009820160009054906101000a900460ff166001811115611bc257611bc1612e26565b5b6001811115611bd457611bd3612e26565b5b815250509050919050565b60045481565b60007f000000000000000000000000000000000000000000000000000000000000000073ffffffffffffffffffffffffffffffffffffffff163273ffffffffffffffffffffffffffffffffffffffff1614611c75576040517f08c379a0000000000000000000000000000000000000000000000000000000008152600401611c6c90613b2c565b60405180910390fd5b600060015490506040518061014001604052808281526020018a8152602001898152602001428152602001670de0b6b3a764000089611cb49190613eda565b8152602001670de0b6b3a764000088611ccd9190613eda565b8152602001868152602001670de0b6b3a764000086611cec9190613eda565b815260200184815260200160006001811115611d0b57611d0a612e26565b5b815250600080838152602001908152602001600020600082015181600001556020820151816001019081611d3f91906140c8565b506040820151816002019081611d5591906140c8565b50606082015181600301556080820151816004015560a0820151816005015560c0820151816006015560e0820151816007015561010082015181600801556101208201518160090160006101000a81548160ff02191690836001811115611dbf57611dbe612e26565b5b021790555090505060016000815480929190611dda90613c0a565b919050555080915050979650505050505050565b7f000000000000000000000000000000000000000000000000000000000000000081565b60006001548710611e58576040517f08c379a0000000000000000000000000000000000000000000000000000000008152600401611e4f90613e4e565b60405180910390fd5b60008060008981526020019081526020016000206040518061014001604052908160008201548152602001600182018054611e9290613b7b565b80601f0160208091040260200160405190810160405280929190818152602001828054611ebe90613b7b565b8015611f0b5780601f10611ee057610100808354040283529160200191611f0b565b820191906000526020600020905b815481529060010190602001808311611eee57829003601f168201915b50505050508152602001600282018054611f2490613b7b565b80601f0160208091040260200160405190810160405280929190818152602001828054611f5090613b7b565b8015611f9d5780601f10611f7257610100808354040283529160200191611f9d565b820191906000526020600020905b815481529060010190602001808311611f8057829003601f168201915b505050505081526020016003820154815260200160048201548152602001600582015481526020016006820154815260200160078201548152602001600882015481526020016009820160009054906101000a900460ff16600181111561200757612006612e26565b5b600181111561201957612018612e26565b5b8152505090506000600181111561203357612032612e26565b5b816101200151600181111561204b5761204a612e26565b5b1461208b576040517f08c379a0000000000000000000000000000000000000000000000000000000008152600401612082906141e6565b60405180910390fd5b4284116120cd576040517f08c379a00000000000000000000000000000000000000000000000000000000081526004016120c490614278565b60405180910390fd5b8060800151341015612114576040517f08c379a000000000000000000000000000000000000000000000000000000000815260040161210b906142e4565b60405180910390fd5b60006004600081548092919061212990613c0a565b9190505590506040518061014001604052808281526020018a8152602001898152602001888152602001878152602001868152602001428152602001600081526020018573ffffffffffffffffffffffffffffffffffffffff1681526020016000600281111561219c5761219b612e26565b5b81525060026000838152602001908152602001600020600082015181600001556020820151816001015560408201518160020190816121db91906140c8565b5060608201518160030190816121f191906140c8565b50608082015181600401908161220791906140c8565b5060a0820151816005015560c0820151816006015560e082015181600701556101008201518160080160006101000a81548173ffffffffffffffffffffffffffffffffffffffff021916908373ffffffffffffffffffffffffffffffffffffffff1602179055506101208201518160080160146101000a81548160ff0219169083600281111561229a57612299612e26565b5b0217905550905050600360008573ffffffffffffffffffffffffffffffffffffffff1673ffffffffffffffffffffffffffffffffffffffff16815260200190815260200160002081908060018154018082558091505060019003906000526020600020016000909190919091505580925050509695505050505050565b6003602052816000526040600020818154811061233357600080fd5b90600052602060002001600091509150505481565b600260205280600052604060002060009150905080600001549080600101549080600201805461237790613b7b565b80601f01602080910402602001604051908101604052809291908181526020018280546123a390613b7b565b80156123f05780601f106123c5576101008083540402835291602001916123f0565b820191906000526020600020905b8154815290600101906020018083116123d357829003601f168201915b50505050509080600301805461240590613b7b565b80601f016020809104026020016040519081016040528092919081815260200182805461243190613b7b565b801561247e5780601f106124535761010080835404028352916020019161247e565b820191906000526020600020905b81548152906001019060200180831161246157829003601f168201915b50505050509080600401805461249390613b7b565b80601f01602080910402602001604051908101604052809291908181526020018280546124bf90613b7b565b801561250c5780601f106124e15761010080835404028352916020019161250c565b820191906000526020600020905b8154815290600101906020018083116124ef57829003601f168201915b5050505050908060050154908060060154908060070154908060080160009054906101000a900473ffffffffffffffffffffffffffffffffffffffff16908060080160149054906101000a900460ff1690508a565b7f000000000000000000000000000000000000000000000000000000000000000073ffffffffffffffffffffffffffffffffffffffff163273ffffffffffffffffffffffffffffffffffffffff16146125ef576040517f08c379a00000000000000000000000000000000000000000000000000000000081526004016125e690613b2c565b60405180910390fd5b6004548110612633576040517f08c379a000000000000000000000000000000000000000000000000000000000815260040161262a90613c9e565b60405180910390fd5b60006002600083815260200190815260200160002090506000600281111561265e5761265d612e26565b5b8160080160149054906101000a900460ff16600281111561268257612681612e26565b5b146126c2576040517f08c379a00000000000000000000000000000000000000000000000000000000081526004016126b990613de2565b60405180910390fd5b600080600083600101548152602001908152602001600020604051806101400160405290816000820154815260200160018201805461270090613b7b565b80601f016020809104026020016040519081016040528092919081815260200182805461272c90613b7b565b80156127795780601f1061274e57610100808354040283529160200191612779565b820191906000526020600020905b81548152906001019060200180831161275c57829003601f168201915b5050505050815260200160028201805461279290613b7b565b80601f01602080910402602001604051908101604052809291908181526020018280546127be90613b7b565b801561280b5780601f106127e05761010080835404028352916020019161280b565b820191906000526020600020905b8154815290600101906020018083116127ee57829003601f168201915b505050505081526020016003820154815260200160048201548152602001600582015481526020016006820154815260200160078201548152602001600882015481526020016009820160009054906101000a900460ff16600181111561287557612874612e26565b5b600181111561288757612886612e26565b5b8152505090506000620151808261010001516128a39190613eda565b83600601546128b29190614304565b90508042116128f6576040517f08c379a00000000000000000000000000000000000000000000000000000000081526004016128ed90614384565b60405180910390fd5b60018360080160146101000a81548160ff0219169083600281111561291e5761291d612e26565b5b021790555050505050565b60015481565b60606000805b6001548110156129af576000600181111561295357612952612e26565b5b60008083815260200190815260200160002060090160009054906101000a900460ff16600181111561298857612987612e26565b5b0361299c57818061299890613c0a565b9250505b80806129a790613c0a565b915050612935565b5060008167ffffffffffffffff8111156129cc576129cb6136ea565b5b604051908082528060200260200182016040528015612a0557816020015b6129f2612c71565b8152602001906001900390816129ea5790505b5090506000805b600154811015612c675760006001811115612a2a57612a29612e26565b5b60008083815260200190815260200160002060090160009054906101000a900460ff166001811115612a5f57612a5e612e26565b5b03612c54576000808281526020019081526020016000206040518061014001604052908160008201548152602001600182018054612a9c90613b7b565b80601f0160208091040260200160405190810160405280929190818152602001828054612ac890613b7b565b8015612b155780601f10612aea57610100808354040283529160200191612b15565b820191906000526020600020905b815481529060010190602001808311612af857829003601f168201915b50505050508152602001600282018054612b2e90613b7b565b80601f0160208091040260200160405190810160405280929190818152602001828054612b5a90613b7b565b8015612ba75780601f10612b7c57610100808354040283529160200191612ba7565b820191906000526020600020905b815481529060010190602001808311612b8a57829003601f168201915b505050505081526020016003820154815260200160048201548152602001600582015481526020016006820154815260200160078201548152602001600882015481526020016009820160009054906101000a900460ff166001811115612c1157612c10612e26565b5b6001811115612c2357612c22612e26565b5b81525050838381518110612c3a57612c39613bac565b5b60200260200101819052508180612c5090613c0a565b9250505b8080612c5f90613c0a565b915050612a0c565b5081935050505090565b60405180610140016040528060008152602001606081526020016060815260200160008152602001600081526020016000815260200160008152602001600081526020016000815260200160006001811115612cd057612ccf612e26565b5b81525090565b6040518061014001604052806000815260200160008152602001606081526020016060815260200160608152602001600081526020016000815260200160008152602001600073ffffffffffffffffffffffffffffffffffffffff16815260200160006002811115612d4b57612d4a612e26565b5b81525090565b600081519050919050565b600082825260208201905092915050565b6000819050602082019050919050565b6000819050919050565b612d9081612d7d565b82525050565b600081519050919050565b600082825260208201905092915050565b60005b83811015612dd0578082015181840152602081019050612db5565b60008484015250505050565b6000601f19601f8301169050919050565b6000612df882612d96565b612e028185612da1565b9350612e12818560208601612db2565b612e1b81612ddc565b840191505092915050565b7f4e487b7100000000000000000000000000000000000000000000000000000000600052602160045260246000fd5b60028110612e6657612e65612e26565b5b50565b6000819050612e7782612e55565b919050565b6000612e8782612e69565b9050919050565b612e9781612e7c565b82525050565b600061014083016000830151612eb66000860182612d87565b5060208301518482036020860152612ece8282612ded565b91505060408301518482036040860152612ee88282612ded565b9150506060830151612efd6060860182612d87565b506080830151612f106080860182612d87565b5060a0830151612f2360a0860182612d87565b5060c0830151612f3660c0860182612d87565b5060e0830151612f4960e0860182612d87565b50610100830151612f5e610100860182612d87565b50610120830151612f73610120860182612e8e565b508091505092915050565b6000612f8a8383612e9d565b905092915050565b6000602082019050919050565b6000612faa82612d51565b612fb48185612d5c565b935083602082028501612fc685612d6d565b8060005b858110156130025784840389528151612fe38582612f7e565b9450612fee83612f92565b925060208a01995050600181019050612fca565b50829750879550505050505092915050565b6000602082019050818103600083015261302e8184612f9f565b905092915050565b6000604051905090565b600080fd5b600080fd5b600073ffffffffffffffffffffffffffffffffffffffff82169050919050565b60006130758261304a565b9050919050565b6130858161306a565b811461309057600080fd5b50565b6000813590506130a28161307c565b92915050565b6130b181612d7d565b81146130bc57600080fd5b50565b6000813590506130ce816130a8565b92915050565b600080604083850312156130eb576130ea613040565b5b60006130f985828601613093565b925050602061310a858286016130bf565b9150509250929050565b61311d8161306a565b82525050565b6003811061313457613133612e26565b5b50565b600081905061314582613123565b919050565b600061315582613137565b9050919050565b6131658161314a565b82525050565b6000610140830160008301516131846000860182612d87565b5060208301516131976020860182612d87565b50604083015184820360408601526131af8282612ded565b915050606083015184820360608601526131c98282612ded565b915050608083015184820360808601526131e38282612ded565b91505060a08301516131f860a0860182612d87565b5060c083015161320b60c0860182612d87565b5060e083015161321e60e0860182612d87565b50610100830151613233610100860182613114565b5061012083015161324861012086018261315c565b508091505092915050565b60006101408301600083015161326c6000860182612d87565b50602083015184820360208601526132848282612ded565b9150506040830151848203604086015261329e8282612ded565b91505060608301516132b36060860182612d87565b5060808301516132c66080860182612d87565b5060a08301516132d960a0860182612d87565b5060c08301516132ec60c0860182612d87565b5060e08301516132ff60e0860182612d87565b50610100830151613314610100860182612d87565b50610120830151613329610120860182612e8e565b508091505092915050565b6000604082019050818103600083015261334e818561316b565b905081810360208301526133628184613253565b90509392505050565b60006020828403121561338157613380613040565b5b600061338f84828501613093565b91505092915050565b600081519050919050565b600082825260208201905092915050565b6000819050602082019050919050565b6000610140830160008301516133dd6000860182612d87565b5060208301516133f06020860182612d87565b50604083015184820360408601526134088282612ded565b915050606083015184820360608601526134228282612ded565b9150506080830151848203608086015261343c8282612ded565b91505060a083015161345160a0860182612d87565b5060c083015161346460c0860182612d87565b5060e083015161347760e0860182612d87565b5061010083015161348c610100860182613114565b506101208301516134a161012086018261315c565b508091505092915050565b60006134b883836133c4565b905092915050565b6000602082019050919050565b60006134d882613398565b6134e281856133a3565b9350836020820285016134f4856133b4565b8060005b85811015613530578484038952815161351185826134ac565b945061351c836134c0565b925060208a019950506001810190506134f8565b50829750879550505050505092915050565b6000602082019050818103600083015261355c81846134cd565b905092915050565b60006020828403121561357a57613579613040565b5b6000613588848285016130bf565b91505092915050565b61359a81612d7d565b82525050565b600082825260208201905092915050565b60006135bc82612d96565b6135c681856135a0565b93506135d6818560208601612db2565b6135df81612ddc565b840191505092915050565b6135f381612e7c565b82525050565b60006101408201905061360f600083018d613591565b8181036020830152613621818c6135b1565b90508181036040830152613635818b6135b1565b9050613644606083018a613591565b6136516080830189613591565b61365e60a0830188613591565b61366b60c0830187613591565b61367860e0830186613591565b613686610100830185613591565b6136946101208301846135ea565b9b9a5050505050505050505050565b600060208201905081810360008301526136bd8184613253565b905092915050565b60006020820190506136da6000830184613591565b92915050565b600080fd5b600080fd5b7f4e487b7100000000000000000000000000000000000000000000000000000000600052604160045260246000fd5b61372282612ddc565b810181811067ffffffffffffffff82111715613741576137406136ea565b5b80604052505050565b6000613754613036565b90506137608282613719565b919050565b600067ffffffffffffffff8211156137805761377f6136ea565b5b61378982612ddc565b9050602081019050919050565b82818337600083830152505050565b60006137b86137b384613765565b61374a565b9050828152602081018484840111156137d4576137d36136e5565b5b6137df848285613796565b509392505050565b600082601f8301126137fc576137fb6136e0565b5b813561380c8482602086016137a5565b91505092915050565b600080600080600080600060e0888a03121561383457613833613040565b5b600088013567ffffffffffffffff81111561385257613851613045565b5b61385e8a828b016137e7565b975050602088013567ffffffffffffffff81111561387f5761387e613045565b5b61388b8a828b016137e7565b965050604061389c8a828b016130bf565b95505060606138ad8a828b016130bf565b94505060806138be8a828b016130bf565b93505060a06138cf8a828b016130bf565b92505060c06138e08a828b016130bf565b91505092959891949750929550565b6138f88161306a565b82525050565b600060208201905061391360008301846138ef565b92915050565b60008060008060008060c0878903121561393657613935613040565b5b600061394489828a016130bf565b965050602087013567ffffffffffffffff81111561396557613964613045565b5b61397189828a016137e7565b955050604087013567ffffffffffffffff81111561399257613991613045565b5b61399e89828a016137e7565b945050606087013567ffffffffffffffff8111156139bf576139be613045565b5b6139cb89828a016137e7565b93505060806139dc89828a016130bf565b92505060a06139ed89828a01613093565b9150509295509295509295565b613a038161314a565b82525050565b600061014082019050613a1f600083018d613591565b613a2c602083018c613591565b8181036040830152613a3e818b6135b1565b90508181036060830152613a52818a6135b1565b90508181036080830152613a6681896135b1565b9050613a7560a0830188613591565b613a8260c0830187613591565b613a8f60e0830186613591565b613a9d6101008301856138ef565b613aab6101208301846139fa565b9b9a5050505050505050505050565b7f466c69676874506f6c6963793a204f6e6c792074686520696e7375726572206360008201527f616e2063616c6c20746869732066756e6374696f6e0000000000000000000000602082015250565b6000613b166035836135a0565b9150613b2182613aba565b604082019050919050565b60006020820190508181036000830152613b4581613b09565b9050919050565b7f4e487b7100000000000000000000000000000000000000000000000000000000600052602260045260246000fd5b60006002820490506001821680613b9357607f821691505b602082108103613ba657613ba5613b4c565b5b50919050565b7f4e487b7100000000000000000000000000000000000000000000000000000000600052603260045260246000fd5b7f4e487b7100000000000000000000000000000000000000000000000000000000600052601160045260246000fd5b6000613c1582612d7d565b91507fffffffffffffffffffffffffffffffffffffffffffffffffffffffffffffffff8203613c4757613c46613bdb565b5b600182019050919050565b7f496e76616c696420706f6c696379496400000000000000000000000000000000600082015250565b6000613c886010836135a0565b9150613c9382613c52565b602082019050919050565b60006020820190508181036000830152613cb781613c7b565b9050919050565b7f4e6f7420796f757220706f6c6963790000000000000000000000000000000000600082015250565b6000613cf4600f836135a0565b9150613cff82613cbe565b602082019050919050565b60006020820190508181036000830152613d2381613ce7565b9050919050565b7f506f6c69637920646f65736e27742062656c6f6e6720746f2062757965720000600082015250565b6000613d60601e836135a0565b9150613d6b82613d2a565b602082019050919050565b60006020820190508181036000830152613d8f81613d53565b9050919050565b7f506f6c696379206973206e6f7420616374697665000000000000000000000000600082015250565b6000613dcc6014836135a0565b9150613dd782613d96565b602082019050919050565b60006020820190508181036000830152613dfb81613dbf565b9050919050565b7f496e76616c69642074656d706c61746549640000000000000000000000000000600082015250565b6000613e386012836135a0565b9150613e4382613e02565b602082019050919050565b60006020820190508181036000830152613e6781613e2b565b9050919050565b7f54656d706c61746520646f6573206e6f74206578697374000000000000000000600082015250565b6000613ea46017836135a0565b9150613eaf82613e6e565b602082019050919050565b60006020820190508181036000830152613ed381613e97565b9050919050565b6000613ee582612d7d565b9150613ef083612d7d565b9250828202613efe81612d7d565b91508282048414831517613f1557613f14613bdb565b5b5092915050565b60008190508160005260206000209050919050565b60006020601f8301049050919050565b600082821b905092915050565b600060088302613f7e7fffffffffffffffffffffffffffffffffffffffffffffffffffffffffffffffff82613f41565b613f888683613f41565b95508019841693508086168417925050509392505050565b6000819050919050565b6000613fc5613fc0613fbb84612d7d565b613fa0565b612d7d565b9050919050565b6000819050919050565b613fdf83613faa565b613ff3613feb82613fcc565b848454613f4e565b825550505050565b600090565b614008613ffb565b614013818484613fd6565b505050565b5b818110156140375761402c600082614000565b600181019050614019565b5050565b601f82111561407c5761404d81613f1c565b61405684613f31565b81016020851015614065578190505b61407961407185613f31565b830182614018565b50505b505050565b600082821c905092915050565b600061409f60001984600802614081565b1980831691505092915050565b60006140b8838361408e565b9150826002028217905092915050565b6140d182612d96565b67ffffffffffffffff8111156140ea576140e96136ea565b5b6140f48254613b7b565b6140ff82828561403b565b600060209050601f8311600181146141325760008415614120578287015190505b61412a85826140ac565b865550614192565b601f19841661414086613f1c565b60005b8281101561416857848901518255600182019150602085019450602081019050614143565b868310156141855784890151614181601f89168261408e565b8355505b6001600288020188555050505b505050505050565b7f506f6c6963792074656d706c617465206973206e6f7420616374697665000000600082015250565b60006141d0601d836135a0565b91506141db8261419a565b602082019050919050565b600060208201905081810360008301526141ff816141c3565b9050919050565b7f4465706172747572652074696d65206d75737420626520696e2074686520667560008201527f7475726500000000000000000000000000000000000000000000000000000000602082015250565b60006142626024836135a0565b915061426d82614206565b604082019050919050565b6000602082019050818103600083015261429181614255565b9050919050565b7f496e73756666696369656e74207072656d69756d2073656e7400000000000000600082015250565b60006142ce6019836135a0565b91506142d982614298565b602082019050919050565b600060208201905081810360008301526142fd816142c1565b9050919050565b600061430f82612d7d565b915061431a83612d7d565b925082820190508082111561433257614331613bdb565b5b92915050565b7f506f6c69637920686173206e6f74206578706972656420796574000000000000600082015250565b600061436e601a836135a0565b915061437982614338565b602082019050919050565b6000602082019050818103600083015261439d81614361565b905091905056fea264697066735822122087407e4357452efa459fad31bb184667b1f4f97f198a2259f104a3911d3134e064736f6c63430008130033",
  "linkReferences": {},
  "deployedLinkReferences": {}
}