{
  "_format": "hh-sol-artifact-1",
  "contractName": "FlightPolicy",
  "sourceName": "contracts/FlightPolicy.sol",
  "abi": [
    {
      "inputs": [
        {
          "internalType": "address",
          "name": "_oracleConnector",
          "type": "address"
        }
      ],
      "stateMutability": "nonpayable",
      "type": "constructor"
    },
    {
      "inputs": [
        {
          "internalType": "uint256",
          "name": "policyId",
          "type": "uint256"
        },
        {
          "internalType": "address",
          "name": "buyer",
          "type": "address"
        }
      ],
      "name": "claimPayout",
      "outputs": [],
      "stateMutability": "nonpayable",
      "type": "function"
    },
    {
      "inputs": [],
      "name": "getAllPolicies",
      "outputs": [
        {
          "components": [
            {
              "internalType": "uint256",
              "name": "policyId",
              "type": "uint256"
            },
            {
              "components": [
                {
                  "internalType": "string",
                  "name": "templateId",
                  "type": "string"
                },
                {
                  "internalType": "string",
                  "name": "name",
                  "type": "string"
                },
                {
                  "internalType": "string",
                  "name": "description",
                  "type": "string"
                },
                {
                  "internalType": "uint256",
                  "name": "createdAt",
                  "type": "uint256"
                },
                {
                  "internalType": "uint256",
                  "name": "updatedAt",
                  "type": "uint256"
                },
                {
                  "internalType": "uint256",
                  "name": "premium",
                  "type": "uint256"
                },
                {
                  "internalType": "uint256",
                  "name": "payoutPerHour",
                  "type": "uint256"
                },
                {
                  "internalType": "uint256",
                  "name": "delayThresholdHours",
                  "type": "uint256"
                },
                {
                  "internalType": "uint256",
                  "name": "maxTotalPayout",
                  "type": "uint256"
                },
                {
                  "internalType": "uint256",
                  "name": "coverageDurationDays",
                  "type": "uint256"
                },
                {
                  "internalType": "enum FlightPolicy.PolicyTemplateStatus",
                  "name": "status",
                  "type": "uint8"
                }
              ],
              "internalType": "struct FlightPolicy.PolicyTemplate",
              "name": "template",
              "type": "tuple"
            },
            {
              "internalType": "string",
              "name": "flightNumber",
              "type": "string"
            },
            {
              "internalType": "string",
              "name": "departureAirportCode",
              "type": "string"
            },
            {
              "internalType": "string",
              "name": "arrivalAirportCode",
              "type": "string"
            },
            {
              "internalType": "uint256",
              "name": "departureTime",
              "type": "uint256"
            },
            {
              "internalType": "uint256",
              "name": "createdAt",
              "type": "uint256"
            },
            {
              "internalType": "uint256",
              "name": "payoutToDate",
              "type": "uint256"
            },
            {
              "internalType": "address",
              "name": "buyer",
              "type": "address"
            },
            {
              "internalType": "enum FlightPolicy.PolicyStatus",
              "name": "status",
              "type": "uint8"
            }
          ],
          "internalType": "struct FlightPolicy.UserPolicy[]",
          "name": "",
          "type": "tuple[]"
        }
      ],
      "stateMutability": "view",
      "type": "function"
    },
    {
      "inputs": [
        {
          "internalType": "address",
          "name": "user",
          "type": "address"
        }
      ],
      "name": "getUserPolicies",
      "outputs": [
        {
          "components": [
            {
              "internalType": "uint256",
              "name": "policyId",
              "type": "uint256"
            },
            {
              "components": [
                {
                  "internalType": "string",
                  "name": "templateId",
                  "type": "string"
                },
                {
                  "internalType": "string",
                  "name": "name",
                  "type": "string"
                },
                {
                  "internalType": "string",
                  "name": "description",
                  "type": "string"
                },
                {
                  "internalType": "uint256",
                  "name": "createdAt",
                  "type": "uint256"
                },
                {
                  "internalType": "uint256",
                  "name": "updatedAt",
                  "type": "uint256"
                },
                {
                  "internalType": "uint256",
                  "name": "premium",
                  "type": "uint256"
                },
                {
                  "internalType": "uint256",
                  "name": "payoutPerHour",
                  "type": "uint256"
                },
                {
                  "internalType": "uint256",
                  "name": "delayThresholdHours",
                  "type": "uint256"
                },
                {
                  "internalType": "uint256",
                  "name": "maxTotalPayout",
                  "type": "uint256"
                },
                {
                  "internalType": "uint256",
                  "name": "coverageDurationDays",
                  "type": "uint256"
                },
                {
                  "internalType": "enum FlightPolicy.PolicyTemplateStatus",
                  "name": "status",
                  "type": "uint8"
                }
              ],
              "internalType": "struct FlightPolicy.PolicyTemplate",
              "name": "template",
              "type": "tuple"
            },
            {
              "internalType": "string",
              "name": "flightNumber",
              "type": "string"
            },
            {
              "internalType": "string",
              "name": "departureAirportCode",
              "type": "string"
            },
            {
              "internalType": "string",
              "name": "arrivalAirportCode",
              "type": "string"
            },
            {
              "internalType": "uint256",
              "name": "departureTime",
              "type": "uint256"
            },
            {
              "internalType": "uint256",
              "name": "createdAt",
              "type": "uint256"
            },
            {
              "internalType": "uint256",
              "name": "payoutToDate",
              "type": "uint256"
            },
            {
              "internalType": "address",
              "name": "buyer",
              "type": "address"
            },
            {
              "internalType": "enum FlightPolicy.PolicyStatus",
              "name": "status",
              "type": "uint8"
            }
          ],
          "internalType": "struct FlightPolicy.UserPolicy[]",
          "name": "",
          "type": "tuple[]"
        }
      ],
      "stateMutability": "view",
      "type": "function"
    },
    {
      "inputs": [
        {
          "internalType": "string",
          "name": "templateId",
          "type": "string"
        }
      ],
      "name": "getUserPoliciesByTemplate",
      "outputs": [
        {
          "components": [
            {
              "internalType": "uint256",
              "name": "policyId",
              "type": "uint256"
            },
            {
              "components": [
                {
                  "internalType": "string",
                  "name": "templateId",
                  "type": "string"
                },
                {
                  "internalType": "string",
                  "name": "name",
                  "type": "string"
                },
                {
                  "internalType": "string",
                  "name": "description",
                  "type": "string"
                },
                {
                  "internalType": "uint256",
                  "name": "createdAt",
                  "type": "uint256"
                },
                {
                  "internalType": "uint256",
                  "name": "updatedAt",
                  "type": "uint256"
                },
                {
                  "internalType": "uint256",
                  "name": "premium",
                  "type": "uint256"
                },
                {
                  "internalType": "uint256",
                  "name": "payoutPerHour",
                  "type": "uint256"
                },
                {
                  "internalType": "uint256",
                  "name": "delayThresholdHours",
                  "type": "uint256"
                },
                {
                  "internalType": "uint256",
                  "name": "maxTotalPayout",
                  "type": "uint256"
                },
                {
                  "internalType": "uint256",
                  "name": "coverageDurationDays",
                  "type": "uint256"
                },
                {
                  "internalType": "enum FlightPolicy.PolicyTemplateStatus",
                  "name": "status",
                  "type": "uint8"
                }
              ],
              "internalType": "struct FlightPolicy.PolicyTemplate",
              "name": "template",
              "type": "tuple"
            },
            {
              "internalType": "string",
              "name": "flightNumber",
              "type": "string"
            },
            {
              "internalType": "string",
              "name": "departureAirportCode",
              "type": "string"
            },
            {
              "internalType": "string",
              "name": "arrivalAirportCode",
              "type": "string"
            },
            {
              "internalType": "uint256",
              "name": "departureTime",
              "type": "uint256"
            },
            {
              "internalType": "uint256",
              "name": "createdAt",
              "type": "uint256"
            },
            {
              "internalType": "uint256",
              "name": "payoutToDate",
              "type": "uint256"
            },
            {
              "internalType": "address",
              "name": "buyer",
              "type": "address"
            },
            {
              "internalType": "enum FlightPolicy.PolicyStatus",
              "name": "status",
              "type": "uint8"
            }
          ],
          "internalType": "struct FlightPolicy.UserPolicy[]",
          "name": "",
          "type": "tuple[]"
        }
      ],
      "stateMutability": "view",
      "type": "function"
    },
    {
      "inputs": [],
      "name": "insurerAddress",
      "outputs": [
        {
          "internalType": "address",
          "name": "",
          "type": "address"
        }
      ],
      "stateMutability": "view",
      "type": "function"
    },
    {
      "inputs": [
        {
          "internalType": "uint256",
          "name": "policyId",
          "type": "uint256"
        }
      ],
      "name": "markPolicyAsExpired",
      "outputs": [],
      "stateMutability": "nonpayable",
      "type": "function"
    },
    {
      "inputs": [],
      "name": "nextUserPolicyId",
      "outputs": [
        {
          "internalType": "uint256",
          "name": "",
          "type": "uint256"
        }
      ],
      "stateMutability": "view",
      "type": "function"
    },
    {
      "inputs": [],
      "name": "oracleConnector",
      "outputs": [
        {
          "internalType": "contract OracleConnector",
          "name": "",
          "type": "address"
        }
      ],
      "stateMutability": "view",
      "type": "function"
    },
    {
      "inputs": [
        {
          "components": [
            {
              "internalType": "string",
              "name": "templateId",
              "type": "string"
            },
            {
              "internalType": "string",
              "name": "name",
              "type": "string"
            },
            {
              "internalType": "string",
              "name": "description",
              "type": "string"
            },
            {
              "internalType": "uint256",
              "name": "createdAt",
              "type": "uint256"
            },
            {
              "internalType": "uint256",
              "name": "updatedAt",
              "type": "uint256"
            },
            {
              "internalType": "uint256",
              "name": "premium",
              "type": "uint256"
            },
            {
              "internalType": "uint256",
              "name": "payoutPerHour",
              "type": "uint256"
            },
            {
              "internalType": "uint256",
              "name": "delayThresholdHours",
              "type": "uint256"
            },
            {
              "internalType": "uint256",
              "name": "maxTotalPayout",
              "type": "uint256"
            },
            {
              "internalType": "uint256",
              "name": "coverageDurationDays",
              "type": "uint256"
            },
            {
              "internalType": "enum FlightPolicy.PolicyTemplateStatus",
              "name": "status",
              "type": "uint8"
            }
          ],
          "internalType": "struct FlightPolicy.PolicyTemplate",
          "name": "template",
          "type": "tuple"
        },
        {
          "internalType": "string",
          "name": "flightNumber",
          "type": "string"
        },
        {
          "internalType": "string",
          "name": "departureAirportCode",
          "type": "string"
        },
        {
          "internalType": "string",
          "name": "arrivalAirportCode",
          "type": "string"
        },
        {
          "internalType": "uint256",
          "name": "departureTime",
          "type": "uint256"
        },
        {
          "internalType": "address",
          "name": "buyer",
          "type": "address"
        }
      ],
      "name": "purchasePolicy",
      "outputs": [
        {
          "internalType": "uint256",
          "name": "",
          "type": "uint256"
        }
      ],
      "stateMutability": "payable",
      "type": "function"
    },
    {
      "inputs": [
        {
          "internalType": "uint256",
          "name": "",
          "type": "uint256"
        }
      ],
      "name": "userPolicies",
      "outputs": [
        {
          "internalType": "uint256",
          "name": "policyId",
          "type": "uint256"
        },
        {
          "components": [
            {
              "internalType": "string",
              "name": "templateId",
              "type": "string"
            },
            {
              "internalType": "string",
              "name": "name",
              "type": "string"
            },
            {
              "internalType": "string",
              "name": "description",
              "type": "string"
            },
            {
              "internalType": "uint256",
              "name": "createdAt",
              "type": "uint256"
            },
            {
              "internalType": "uint256",
              "name": "updatedAt",
              "type": "uint256"
            },
            {
              "internalType": "uint256",
              "name": "premium",
              "type": "uint256"
            },
            {
              "internalType": "uint256",
              "name": "payoutPerHour",
              "type": "uint256"
            },
            {
              "internalType": "uint256",
              "name": "delayThresholdHours",
              "type": "uint256"
            },
            {
              "internalType": "uint256",
              "name": "maxTotalPayout",
              "type": "uint256"
            },
            {
              "internalType": "uint256",
              "name": "coverageDurationDays",
              "type": "uint256"
            },
            {
              "internalType": "enum FlightPolicy.PolicyTemplateStatus",
              "name": "status",
              "type": "uint8"
            }
          ],
          "internalType": "struct FlightPolicy.PolicyTemplate",
          "name": "template",
          "type": "tuple"
        },
        {
          "internalType": "string",
          "name": "flightNumber",
          "type": "string"
        },
        {
          "internalType": "string",
          "name": "departureAirportCode",
          "type": "string"
        },
        {
          "internalType": "string",
          "name": "arrivalAirportCode",
          "type": "string"
        },
        {
          "internalType": "uint256",
          "name": "departureTime",
          "type": "uint256"
        },
        {
          "internalType": "uint256",
          "name": "createdAt",
          "type": "uint256"
        },
        {
          "internalType": "uint256",
          "name": "payoutToDate",
          "type": "uint256"
        },
        {
          "internalType": "address",
          "name": "buyer",
          "type": "address"
        },
        {
          "internalType": "enum FlightPolicy.PolicyStatus",
          "name": "status",
          "type": "uint8"
        }
      ],
      "stateMutability": "view",
      "type": "function"
    },
    {
      "inputs": [
        {
          "internalType": "address",
          "name": "",
          "type": "address"
        },
        {
          "internalType": "uint256",
          "name": "",
          "type": "uint256"
        }
      ],
      "name": "userPolicyIds",
      "outputs": [
        {
          "internalType": "uint256",
          "name": "",
          "type": "uint256"
        }
      ],
      "stateMutability": "view",
      "type": "function"
    }
  ],
  "bytecode": "0x60a06040523480156200001157600080fd5b50604051620041e2380380620041e2833981810160405281019062000037919062000125565b60016000819055503373ffffffffffffffffffffffffffffffffffffffff1660808173ffffffffffffffffffffffffffffffffffffffff168152505080600160006101000a81548173ffffffffffffffffffffffffffffffffffffffff021916908373ffffffffffffffffffffffffffffffffffffffff1602179055505062000157565b600080fd5b600073ffffffffffffffffffffffffffffffffffffffff82169050919050565b6000620000ed82620000c0565b9050919050565b620000ff81620000e0565b81146200010b57600080fd5b50565b6000815190506200011f81620000f4565b92915050565b6000602082840312156200013e576200013d620000bb565b5b60006200014e848285016200010e565b91505092915050565b6080516140616200018160003960008181610ca10152818161196e01526121f401526140616000f3fe60806040526004361061009c5760003560e01c80639c6cf7ef116100645780639c6cf7ef1461018f578063a7c0900e146101cc578063b0110cc6146101f7578063b6e283e114610220578063cba85f061461025d578063cf39c624146102a35761009c565b806319ac4614146100a157806331953ecc146100de578063457e55211461010e5780637b956415146101395780639a9122ac14610164575b600080fd5b3480156100ad57600080fd5b506100c860048036038101906100c391906127c9565b6102cc565b6040516100d59190612c1b565b60405180910390f35b6100f860048036038101906100f39190612f2d565b6108e9565b6040516101059190613039565b60405180910390f35b34801561011a57600080fd5b50610123610c9d565b6040516101309190612c1b565b60405180910390f35b34801561014557600080fd5b5061014e6112ab565b60405161015b9190613039565b60405180910390f35b34801561017057600080fd5b506101796112b1565b60405161018691906130b3565b60405180910390f35b34801561019b57600080fd5b506101b660048036038101906101b191906130ce565b6112d7565b6040516101c39190612c1b565b60405180910390f35b3480156101d857600080fd5b506101e161196c565b6040516101ee9190613126565b60405180910390f35b34801561020357600080fd5b5061021e60048036038101906102199190613141565b611990565b005b34801561022c57600080fd5b5061024760048036038101906102429190613181565b611d66565b6040516102549190613039565b60405180910390f35b34801561026957600080fd5b50610284600480360381019061027f91906131c1565b611d97565b60405161029a9a99989796959493929190613344565b60405180910390f35b3480156102af57600080fd5b506102ca60048036038101906102c591906131c1565b6121f2565b005b60606000600360008473ffffffffffffffffffffffffffffffffffffffff1673ffffffffffffffffffffffffffffffffffffffff16815260200190815260200160002080549050905060008167ffffffffffffffff81111561033157610330612c42565b5b60405190808252806020026020018201604052801561036a57816020015b61035761266a565b81526020019060019003908161034f5790505b50905060005b828110156108de5760026000600360008873ffffffffffffffffffffffffffffffffffffffff1673ffffffffffffffffffffffffffffffffffffffff16815260200190815260200160002083815481106103cd576103cc6133fc565b5b906000526020600020015481526020019081526020016000206040518061014001604052908160008201548152602001600182016040518061016001604052908160008201805461041d9061345a565b80601f01602080910402602001604051908101604052809291908181526020018280546104499061345a565b80156104965780601f1061046b57610100808354040283529160200191610496565b820191906000526020600020905b81548152906001019060200180831161047957829003601f168201915b505050505081526020016001820180546104af9061345a565b80601f01602080910402602001604051908101604052809291908181526020018280546104db9061345a565b80156105285780601f106104fd57610100808354040283529160200191610528565b820191906000526020600020905b81548152906001019060200180831161050b57829003601f168201915b505050505081526020016002820180546105419061345a565b80601f016020809104026020016040519081016040528092919081815260200182805461056d9061345a565b80156105ba5780601f1061058f576101008083540402835291602001916105ba565b820191906000526020600020905b81548152906001019060200180831161059d57829003601f168201915b5050505050815260200160038201548152602001600482015481526020016005820154815260200160068201548152602001600782015481526020016008820154815260200160098201548152602001600a820160009054906101000a900460ff16600181111561062e5761062d6128cb565b5b60018111156106405761063f6128cb565b5b815250508152602001600c820180546106589061345a565b80601f01602080910402602001604051908101604052809291908181526020018280546106849061345a565b80156106d15780601f106106a6576101008083540402835291602001916106d1565b820191906000526020600020905b8154815290600101906020018083116106b457829003601f168201915b50505050508152602001600d820180546106ea9061345a565b80601f01602080910402602001604051908101604052809291908181526020018280546107169061345a565b80156107635780601f1061073857610100808354040283529160200191610763565b820191906000526020600020905b81548152906001019060200180831161074657829003601f168201915b50505050508152602001600e8201805461077c9061345a565b80601f01602080910402602001604051908101604052809291908181526020018280546107a89061345a565b80156107f55780601f106107ca576101008083540402835291602001916107f5565b820191906000526020600020905b8154815290600101906020018083116107d857829003601f168201915b50505050508152602001600f820154815260200160108201548152602001601182015481526020016012820160009054906101000a900473ffffffffffffffffffffffffffffffffffffffff1673ffffffffffffffffffffffffffffffffffffffff1673ffffffffffffffffffffffffffffffffffffffff1681526020016012820160149054906101000a900460ff166002811115610897576108966128cb565b5b60028111156108a9576108a86128cb565b5b815250508282815181106108c0576108bf6133fc565b5b602002602001018190525080806108d6906134ba565b915050610370565b508092505050919050565b60008060018111156108fe576108fd6128cb565b5b8761014001516001811115610916576109156128cb565b5b14610956576040517f08c379a000000000000000000000000000000000000000000000000000000000815260040161094d9061354e565b60405180910390fd5b428311610998576040517f08c379a000000000000000000000000000000000000000000000000000000000815260040161098f906135e0565b60405180910390fd5b8660a001513410156109df576040517f08c379a00000000000000000000000000000000000000000000000000000000081526004016109d69061364c565b60405180910390fd5b6000600460008154809291906109f4906134ba565b919050559050604051806101400160405280828152602001898152602001888152602001878152602001868152602001858152602001428152602001600081526020018473ffffffffffffffffffffffffffffffffffffffff16815260200160006002811115610a6757610a666128cb565b5b81525060026000838152602001908152602001600020600082015181600001556020820151816001016000820151816000019081610aa5919061380e565b506020820151816001019081610abb919061380e565b506040820151816002019081610ad1919061380e565b50606082015181600301556080820151816004015560a0820151816005015560c0820151816006015560e082015181600701556101008201518160080155610120820151816009015561014082015181600a0160006101000a81548160ff02191690836001811115610b4657610b456128cb565b5b02179055505050604082015181600c019081610b62919061380e565b50606082015181600d019081610b78919061380e565b50608082015181600e019081610b8e919061380e565b5060a082015181600f015560c0820151816010015560e082015181601101556101008201518160120160006101000a81548173ffffffffffffffffffffffffffffffffffffffff021916908373ffffffffffffffffffffffffffffffffffffffff1602179055506101208201518160120160146101000a81548160ff02191690836002811115610c2157610c206128cb565b5b0217905550905050600360008473ffffffffffffffffffffffffffffffffffffffff1673ffffffffffffffffffffffffffffffffffffffff168152602001908152602001600020819080600181540180825580915050600190039060005260206000200160009091909190915055809150509695505050505050565b60607f000000000000000000000000000000000000000000000000000000000000000073ffffffffffffffffffffffffffffffffffffffff163273ffffffffffffffffffffffffffffffffffffffff1614610d2d576040517f08c379a0000000000000000000000000000000000000000000000000000000008152600401610d2490613952565b60405180910390fd5b6000600454905060008167ffffffffffffffff811115610d5057610d4f612c42565b5b604051908082528060200260200182016040528015610d8957816020015b610d7661266a565b815260200190600190039081610d6e5790505b50905060005b828110156112a2576002600082815260200190815260200160002060405180610140016040529081600082015481526020016001820160405180610160016040529081600082018054610de19061345a565b80601f0160208091040260200160405190810160405280929190818152602001828054610e0d9061345a565b8015610e5a5780601f10610e2f57610100808354040283529160200191610e5a565b820191906000526020600020905b815481529060010190602001808311610e3d57829003601f168201915b50505050508152602001600182018054610e739061345a565b80601f0160208091040260200160405190810160405280929190818152602001828054610e9f9061345a565b8015610eec5780601f10610ec157610100808354040283529160200191610eec565b820191906000526020600020905b815481529060010190602001808311610ecf57829003601f168201915b50505050508152602001600282018054610f059061345a565b80601f0160208091040260200160405190810160405280929190818152602001828054610f319061345a565b8015610f7e5780601f10610f5357610100808354040283529160200191610f7e565b820191906000526020600020905b815481529060010190602001808311610f6157829003601f168201915b5050505050815260200160038201548152602001600482015481526020016005820154815260200160068201548152602001600782015481526020016008820154815260200160098201548152602001600a820160009054906101000a900460ff166001811115610ff257610ff16128cb565b5b6001811115611004576110036128cb565b5b815250508152602001600c8201805461101c9061345a565b80601f01602080910402602001604051908101604052809291908181526020018280546110489061345a565b80156110955780601f1061106a57610100808354040283529160200191611095565b820191906000526020600020905b81548152906001019060200180831161107857829003601f168201915b50505050508152602001600d820180546110ae9061345a565b80601f01602080910402602001604051908101604052809291908181526020018280546110da9061345a565b80156111275780601f106110fc57610100808354040283529160200191611127565b820191906000526020600020905b81548152906001019060200180831161110a57829003601f168201915b50505050508152602001600e820180546111409061345a565b80601f016020809104026020016040519081016040528092919081815260200182805461116c9061345a565b80156111b95780601f1061118e576101008083540402835291602001916111b9565b820191906000526020600020905b81548152906001019060200180831161119c57829003601f168201915b50505050508152602001600f820154815260200160108201548152602001601182015481526020016012820160009054906101000a900473ffffffffffffffffffffffffffffffffffffffff1673ffffffffffffffffffffffffffffffffffffffff1673ffffffffffffffffffffffffffffffffffffffff1681526020016012820160149054906101000a900460ff16600281111561125b5761125a6128cb565b5b600281111561126d5761126c6128cb565b5b81525050828281518110611284576112836133fc565b5b6020026020010181905250808061129a906134ba565b915050610d8f565b50809250505090565b60045481565b600160009054906101000a900473ffffffffffffffffffffffffffffffffffffffff1681565b60606000805b60045481101561137457836040516020016112f891906139ae565b60405160208183030381529060405280519060200120600260008381526020019081526020016000206001016000016040516020016113379190613a48565b604051602081830303815290604052805190602001200361136157818061135d906134ba565b9250505b808061136c906134ba565b9150506112dd565b5060008167ffffffffffffffff81111561139157611390612c42565b5b6040519080825280602002602001820160405280156113ca57816020015b6113b761266a565b8152602001906001900390816113af5790505b5090506000805b60045481101561196057856040516020016113ec91906139ae565b604051602081830303815290604052805190602001206002600083815260200190815260200160002060010160000160405160200161142b9190613a48565b604051602081830303815290604052805190602001200361194d5760026000828152602001908152602001600020604051806101400160405290816000820154815260200160018201604051806101600160405290816000820180546114909061345a565b80601f01602080910402602001604051908101604052809291908181526020018280546114bc9061345a565b80156115095780601f106114de57610100808354040283529160200191611509565b820191906000526020600020905b8154815290600101906020018083116114ec57829003601f168201915b505050505081526020016001820180546115229061345a565b80601f016020809104026020016040519081016040528092919081815260200182805461154e9061345a565b801561159b5780601f106115705761010080835404028352916020019161159b565b820191906000526020600020905b81548152906001019060200180831161157e57829003601f168201915b505050505081526020016002820180546115b49061345a565b80601f01602080910402602001604051908101604052809291908181526020018280546115e09061345a565b801561162d5780601f106116025761010080835404028352916020019161162d565b820191906000526020600020905b81548152906001019060200180831161161057829003601f168201915b5050505050815260200160038201548152602001600482015481526020016005820154815260200160068201548152602001600782015481526020016008820154815260200160098201548152602001600a820160009054906101000a900460ff1660018111156116a1576116a06128cb565b5b60018111156116b3576116b26128cb565b5b815250508152602001600c820180546116cb9061345a565b80601f01602080910402602001604051908101604052809291908181526020018280546116f79061345a565b80156117445780601f1061171957610100808354040283529160200191611744565b820191906000526020600020905b81548152906001019060200180831161172757829003601f168201915b50505050508152602001600d8201805461175d9061345a565b80601f01602080910402602001604051908101604052809291908181526020018280546117899061345a565b80156117d65780601f106117ab576101008083540402835291602001916117d6565b820191906000526020600020905b8154815290600101906020018083116117b957829003601f168201915b50505050508152602001600e820180546117ef9061345a565b80601f016020809104026020016040519081016040528092919081815260200182805461181b9061345a565b80156118685780601f1061183d57610100808354040283529160200191611868565b820191906000526020600020905b81548152906001019060200180831161184b57829003601f168201915b50505050508152602001600f820154815260200160108201548152602001601182015481526020016012820160009054906101000a900473ffffffffffffffffffffffffffffffffffffffff1673ffffffffffffffffffffffffffffffffffffffff1673ffffffffffffffffffffffffffffffffffffffff1681526020016012820160149054906101000a900460ff16600281111561190a576119096128cb565b5b600281111561191c5761191b6128cb565b5b81525050838381518110611933576119326133fc565b5b60200260200101819052508180611949906134ba565b9250505b8080611958906134ba565b9150506113d1565b50819350505050919050565b7f000000000000000000000000000000000000000000000000000000000000000081565b6119986123f0565b60045482106119dc576040517f08c379a00000000000000000000000000000000000000000000000000000000081526004016119d390613aab565b60405180910390fd5b60006002600084815260200190815260200160002090508060120160009054906101000a900473ffffffffffffffffffffffffffffffffffffffff1673ffffffffffffffffffffffffffffffffffffffff168273ffffffffffffffffffffffffffffffffffffffff1614611a85576040517f08c379a0000000000000000000000000000000000000000000000000000000008152600401611a7c90613b17565b60405180910390fd5b60006002811115611a9957611a986128cb565b5b8160120160149054906101000a900460ff166002811115611abd57611abc6128cb565b5b14611afd576040517f08c379a0000000000000000000000000000000000000000000000000000000008152600401611af490613b83565b60405180910390fd5b6000611b0c82600f015461243f565b90506000806000600160009054906101000a900473ffffffffffffffffffffffffffffffffffffffff1673ffffffffffffffffffffffffffffffffffffffff166326ec641e86600c01866040518363ffffffff1660e01b8152600401611b73929190613c27565b6060604051808303816000875af1158015611b92573d6000803e3d6000fd5b505050506040513d601f19601f82011682018060405250810190611bb69190613cab565b92509250925081611bfc576040517f08c379a0000000000000000000000000000000000000000000000000000000008152600401611bf390613d4a565b60405180910390fd5b6000856001016006015482611c119190613d6a565b90508560010160080154811115611c2d57856001016008015490505b60008111611c70576040517f08c379a0000000000000000000000000000000000000000000000000000000008152600401611c6790613df8565b60405180910390fd5b80471015611cb3576040517f08c379a0000000000000000000000000000000000000000000000000000000008152600401611caa90613e64565b60405180910390fd5b60028660120160146101000a81548160ff02191690836002811115611cdb57611cda6128cb565b5b02179055508086601101819055508560120160009054906101000a900473ffffffffffffffffffffffffffffffffffffffff1673ffffffffffffffffffffffffffffffffffffffff166108fc829081150290604051600060405180830381858888f19350505050158015611d53573d6000803e3d6000fd5b50505050505050611d6261250d565b5050565b60036020528160005260406000208181548110611d8257600080fd5b90600052602060002001600091509150505481565b60026020528060005260406000206000915090508060000154908060010160405180610160016040529081600082018054611dd19061345a565b80601f0160208091040260200160405190810160405280929190818152602001828054611dfd9061345a565b8015611e4a5780601f10611e1f57610100808354040283529160200191611e4a565b820191906000526020600020905b815481529060010190602001808311611e2d57829003601f168201915b50505050508152602001600182018054611e639061345a565b80601f0160208091040260200160405190810160405280929190818152602001828054611e8f9061345a565b8015611edc5780601f10611eb157610100808354040283529160200191611edc565b820191906000526020600020905b815481529060010190602001808311611ebf57829003601f168201915b50505050508152602001600282018054611ef59061345a565b80601f0160208091040260200160405190810160405280929190818152602001828054611f219061345a565b8015611f6e5780601f10611f4357610100808354040283529160200191611f6e565b820191906000526020600020905b815481529060010190602001808311611f5157829003601f168201915b5050505050815260200160038201548152602001600482015481526020016005820154815260200160068201548152602001600782015481526020016008820154815260200160098201548152602001600a820160009054906101000a900460ff166001811115611fe257611fe16128cb565b5b6001811115611ff457611ff36128cb565b5b815250509080600c0180546120089061345a565b80601f01602080910402602001604051908101604052809291908181526020018280546120349061345a565b80156120815780601f1061205657610100808354040283529160200191612081565b820191906000526020600020905b81548152906001019060200180831161206457829003601f168201915b50505050509080600d0180546120969061345a565b80601f01602080910402602001604051908101604052809291908181526020018280546120c29061345a565b801561210f5780601f106120e45761010080835404028352916020019161210f565b820191906000526020600020905b8154815290600101906020018083116120f257829003601f168201915b50505050509080600e0180546121249061345a565b80601f01602080910402602001604051908101604052809291908181526020018280546121509061345a565b801561219d5780601f106121725761010080835404028352916020019161219d565b820191906000526020600020905b81548152906001019060200180831161218057829003601f168201915b50505050509080600f0154908060100154908060110154908060120160009054906101000a900473ffffffffffffffffffffffffffffffffffffffff16908060120160149054906101000a900460ff1690508a565b7f000000000000000000000000000000000000000000000000000000000000000073ffffffffffffffffffffffffffffffffffffffff163273ffffffffffffffffffffffffffffffffffffffff1614612280576040517f08c379a000000000000000000000000000000000000000000000000000000000815260040161227790613952565b60405180910390fd5b60045481106122c4576040517f08c379a00000000000000000000000000000000000000000000000000000000081526004016122bb90613aab565b60405180910390fd5b6000600260008381526020019081526020016000209050600060028111156122ef576122ee6128cb565b5b8160120160149054906101000a900460ff166002811115612313576123126128cb565b5b14612353576040517f08c379a000000000000000000000000000000000000000000000000000000000815260040161234a90613ed0565b60405180910390fd5b600062015180826001016009015461236b9190613d6a565b826010015461237a9190613ef0565b90508042116123be576040517f08c379a00000000000000000000000000000000000000000000000000000000081526004016123b590613f70565b60405180910390fd5b60018260120160146101000a81548160ff021916908360028111156123e6576123e56128cb565b5b0217905550505050565b600260005403612435576040517f08c379a000000000000000000000000000000000000000000000000000000000815260040161242c90613fdc565b60405180910390fd5b6002600081905550565b60606000600161244e84612517565b01905060008167ffffffffffffffff81111561246d5761246c612c42565b5b6040519080825280601f01601f19166020018201604052801561249f5781602001600182028036833780820191505090505b509050600082602001820190505b600115612502578080600190039150507f3031323334353637383961626364656600000000000000000000000000000000600a86061a8153600a85816124f6576124f5613ffc565b5b049450600085036124ad575b819350505050919050565b6001600081905550565b600080600090507a184f03e93ff9f4daa797ed6e38ed64bf6a1f0100000000000000008310612575577a184f03e93ff9f4daa797ed6e38ed64bf6a1f010000000000000000838161256b5761256a613ffc565b5b0492506040810190505b6d04ee2d6d415b85acef810000000083106125b2576d04ee2d6d415b85acef810000000083816125a8576125a7613ffc565b5b0492506020810190505b662386f26fc1000083106125e157662386f26fc1000083816125d7576125d6613ffc565b5b0492506010810190505b6305f5e100831061260a576305f5e1008381612600576125ff613ffc565b5b0492506008810190505b612710831061262f57612710838161262557612624613ffc565b5b0492506004810190505b60648310612652576064838161264857612647613ffc565b5b0492506002810190505b600a8310612661576001810190505b80915050919050565b604051806101400160405280600081526020016126856126eb565b8152602001606081526020016060815260200160608152602001600081526020016000815260200160008152602001600073ffffffffffffffffffffffffffffffffffffffff168152602001600060028111156126e5576126e46128cb565b5b81525090565b6040518061016001604052806060815260200160608152602001606081526020016000815260200160008152602001600081526020016000815260200160008152602001600081526020016000815260200160006001811115612751576127506128cb565b5b81525090565b6000604051905090565b600080fd5b600080fd5b600073ffffffffffffffffffffffffffffffffffffffff82169050919050565b60006127968261276b565b9050919050565b6127a68161278b565b81146127b157600080fd5b50565b6000813590506127c38161279d565b92915050565b6000602082840312156127df576127de612761565b5b60006127ed848285016127b4565b91505092915050565b600081519050919050565b600082825260208201905092915050565b6000819050602082019050919050565b6000819050919050565b61283581612822565b82525050565b600081519050919050565b600082825260208201905092915050565b60005b8381101561287557808201518184015260208101905061285a565b60008484015250505050565b6000601f19601f8301169050919050565b600061289d8261283b565b6128a78185612846565b93506128b7818560208601612857565b6128c081612881565b840191505092915050565b7f4e487b7100000000000000000000000000000000000000000000000000000000600052602160045260246000fd5b6002811061290b5761290a6128cb565b5b50565b600081905061291c826128fa565b919050565b600061292c8261290e565b9050919050565b61293c81612921565b82525050565b60006101608301600083015184820360008601526129608282612892565b9150506020830151848203602086015261297a8282612892565b915050604083015184820360408601526129948282612892565b91505060608301516129a9606086018261282c565b5060808301516129bc608086018261282c565b5060a08301516129cf60a086018261282c565b5060c08301516129e260c086018261282c565b5060e08301516129f560e086018261282c565b50610100830151612a0a61010086018261282c565b50610120830151612a1f61012086018261282c565b50610140830151612a34610140860182612933565b508091505092915050565b612a488161278b565b82525050565b60038110612a5f57612a5e6128cb565b5b50565b6000819050612a7082612a4e565b919050565b6000612a8082612a62565b9050919050565b612a9081612a75565b82525050565b600061014083016000830151612aaf600086018261282c565b5060208301518482036020860152612ac78282612942565b91505060408301518482036040860152612ae18282612892565b91505060608301518482036060860152612afb8282612892565b91505060808301518482036080860152612b158282612892565b91505060a0830151612b2a60a086018261282c565b5060c0830151612b3d60c086018261282c565b5060e0830151612b5060e086018261282c565b50610100830151612b65610100860182612a3f565b50610120830151612b7a610120860182612a87565b508091505092915050565b6000612b918383612a96565b905092915050565b6000602082019050919050565b6000612bb1826127f6565b612bbb8185612801565b935083602082028501612bcd85612812565b8060005b85811015612c095784840389528151612bea8582612b85565b9450612bf583612b99565b925060208a01995050600181019050612bd1565b50829750879550505050505092915050565b60006020820190508181036000830152612c358184612ba6565b905092915050565b600080fd5b7f4e487b7100000000000000000000000000000000000000000000000000000000600052604160045260246000fd5b612c7a82612881565b810181811067ffffffffffffffff82111715612c9957612c98612c42565b5b80604052505050565b6000612cac612757565b9050612cb88282612c71565b919050565b600080fd5b600080fd5b600080fd5b600067ffffffffffffffff821115612ce757612ce6612c42565b5b612cf082612881565b9050602081019050919050565b82818337600083830152505050565b6000612d1f612d1a84612ccc565b612ca2565b905082815260208101848484011115612d3b57612d3a612cc7565b5b612d46848285612cfd565b509392505050565b600082601f830112612d6357612d62612cc2565b5b8135612d73848260208601612d0c565b91505092915050565b612d8581612822565b8114612d9057600080fd5b50565b600081359050612da281612d7c565b92915050565b60028110612db557600080fd5b50565b600081359050612dc781612da8565b92915050565b60006101608284031215612de457612de3612c3d565b5b612def610160612ca2565b9050600082013567ffffffffffffffff811115612e0f57612e0e612cbd565b5b612e1b84828501612d4e565b600083015250602082013567ffffffffffffffff811115612e3f57612e3e612cbd565b5b612e4b84828501612d4e565b602083015250604082013567ffffffffffffffff811115612e6f57612e6e612cbd565b5b612e7b84828501612d4e565b6040830152506060612e8f84828501612d93565b6060830152506080612ea384828501612d93565b60808301525060a0612eb784828501612d93565b60a08301525060c0612ecb84828501612d93565b60c08301525060e0612edf84828501612d93565b60e083015250610100612ef484828501612d93565b61010083015250610120612f0a84828501612d93565b61012083015250610140612f2084828501612db8565b6101408301525092915050565b60008060008060008060c08789031215612f4a57612f49612761565b5b600087013567ffffffffffffffff811115612f6857612f67612766565b5b612f7489828a01612dcd565b965050602087013567ffffffffffffffff811115612f9557612f94612766565b5b612fa189828a01612d4e565b955050604087013567ffffffffffffffff811115612fc257612fc1612766565b5b612fce89828a01612d4e565b945050606087013567ffffffffffffffff811115612fef57612fee612766565b5b612ffb89828a01612d4e565b935050608061300c89828a01612d93565b92505060a061301d89828a016127b4565b9150509295509295509295565b61303381612822565b82525050565b600060208201905061304e600083018461302a565b92915050565b6000819050919050565b600061307961307461306f8461276b565b613054565b61276b565b9050919050565b600061308b8261305e565b9050919050565b600061309d82613080565b9050919050565b6130ad81613092565b82525050565b60006020820190506130c860008301846130a4565b92915050565b6000602082840312156130e4576130e3612761565b5b600082013567ffffffffffffffff81111561310257613101612766565b5b61310e84828501612d4e565b91505092915050565b6131208161278b565b82525050565b600060208201905061313b6000830184613117565b92915050565b6000806040838503121561315857613157612761565b5b600061316685828601612d93565b9250506020613177858286016127b4565b9150509250929050565b6000806040838503121561319857613197612761565b5b60006131a6858286016127b4565b92505060206131b785828601612d93565b9150509250929050565b6000602082840312156131d7576131d6612761565b5b60006131e584828501612d93565b91505092915050565b600061016083016000830151848203600086015261320c8282612892565b915050602083015184820360208601526132268282612892565b915050604083015184820360408601526132408282612892565b9150506060830151613255606086018261282c565b506080830151613268608086018261282c565b5060a083015161327b60a086018261282c565b5060c083015161328e60c086018261282c565b5060e08301516132a160e086018261282c565b506101008301516132b661010086018261282c565b506101208301516132cb61012086018261282c565b506101408301516132e0610140860182612933565b508091505092915050565b600082825260208201905092915050565b60006133078261283b565b61331181856132eb565b9350613321818560208601612857565b61332a81612881565b840191505092915050565b61333e81612a75565b82525050565b60006101408201905061335a600083018d61302a565b818103602083015261336c818c6131ee565b90508181036040830152613380818b6132fc565b90508181036060830152613394818a6132fc565b905081810360808301526133a881896132fc565b90506133b760a083018861302a565b6133c460c083018761302a565b6133d160e083018661302a565b6133df610100830185613117565b6133ed610120830184613335565b9b9a5050505050505050505050565b7f4e487b7100000000000000000000000000000000000000000000000000000000600052603260045260246000fd5b7f4e487b7100000000000000000000000000000000000000000000000000000000600052602260045260246000fd5b6000600282049050600182168061347257607f821691505b6020821081036134855761348461342b565b5b50919050565b7f4e487b7100000000000000000000000000000000000000000000000000000000600052601160045260246000fd5b60006134c582612822565b91507fffffffffffffffffffffffffffffffffffffffffffffffffffffffffffffffff82036134f7576134f661348b565b5b600182019050919050565b7f506f6c6963792074656d706c617465206973206e6f7420616374697665000000600082015250565b6000613538601d836132eb565b915061354382613502565b602082019050919050565b600060208201905081810360008301526135678161352b565b9050919050565b7f4465706172747572652074696d65206d75737420626520696e2074686520667560008201527f7475726500000000000000000000000000000000000000000000000000000000602082015250565b60006135ca6024836132eb565b91506135d58261356e565b604082019050919050565b600060208201905081810360008301526135f9816135bd565b9050919050565b7f496e73756666696369656e74207072656d69756d2073656e7400000000000000600082015250565b60006136366019836132eb565b915061364182613600565b602082019050919050565b6000602082019050818103600083015261366581613629565b9050919050565b60008190508160005260206000209050919050565b60006020601f8301049050919050565b600082821b905092915050565b6000600883026136ce7fffffffffffffffffffffffffffffffffffffffffffffffffffffffffffffffff82613691565b6136d88683613691565b95508019841693508086168417925050509392505050565b600061370b61370661370184612822565b613054565b612822565b9050919050565b6000819050919050565b613725836136f0565b61373961373182613712565b84845461369e565b825550505050565b600090565b61374e613741565b61375981848461371c565b505050565b5b8181101561377d57613772600082613746565b60018101905061375f565b5050565b601f8211156137c2576137938161366c565b61379c84613681565b810160208510156137ab578190505b6137bf6137b785613681565b83018261375e565b50505b505050565b600082821c905092915050565b60006137e5600019846008026137c7565b1980831691505092915050565b60006137fe83836137d4565b9150826002028217905092915050565b6138178261283b565b67ffffffffffffffff8111156138305761382f612c42565b5b61383a825461345a565b613845828285613781565b600060209050601f8311600181146138785760008415613866578287015190505b61387085826137f2565b8655506138d8565b601f1984166138868661366c565b60005b828110156138ae57848901518255600182019150602085019450602081019050613889565b868310156138cb57848901516138c7601f8916826137d4565b8355505b6001600288020188555050505b505050505050565b7f466c69676874506f6c6963793a204f6e6c792074686520696e7375726572206360008201527f616e2063616c6c20746869732066756e6374696f6e0000000000000000000000602082015250565b600061393c6035836132eb565b9150613947826138e0565b604082019050919050565b6000602082019050818103600083015261396b8161392f565b9050919050565b600081905092915050565b60006139888261283b565b6139928185613972565b93506139a2818560208601612857565b80840191505092915050565b60006139ba828461397d565b915081905092915050565b600081546139d28161345a565b6139dc8186613972565b945060018216600081146139f75760018114613a0c57613a3f565b60ff1983168652811515820286019350613a3f565b613a158561366c565b60005b83811015613a3757815481890152600182019150602081019050613a18565b838801955050505b50505092915050565b6000613a5482846139c5565b915081905092915050565b7f496e76616c696420706f6c696379496400000000000000000000000000000000600082015250565b6000613a956010836132eb565b9150613aa082613a5f565b602082019050919050565b60006020820190508181036000830152613ac481613a88565b9050919050565b7f4e6f7420706f6c696379206f776e657200000000000000000000000000000000600082015250565b6000613b016010836132eb565b9150613b0c82613acb565b602082019050919050565b60006020820190508181036000830152613b3081613af4565b9050919050565b7f506f6c696379206e6f7420616374697665000000000000000000000000000000600082015250565b6000613b6d6011836132eb565b9150613b7882613b37565b602082019050919050565b60006020820190508181036000830152613b9c81613b60565b9050919050565b60008154613bb08161345a565b613bba81866132eb565b94506001821660008114613bd55760018114613beb57613c1e565b60ff198316865281151560200286019350613c1e565b613bf48561366c565b60005b83811015613c1657815481890152600182019150602081019050613bf7565b808801955050505b50505092915050565b60006040820190508181036000830152613c418185613ba3565b90508181036020830152613c5581846132fc565b90509392505050565b60008115159050919050565b613c7381613c5e565b8114613c7e57600080fd5b50565b600081519050613c9081613c6a565b92915050565b600081519050613ca581612d7c565b92915050565b600080600060608486031215613cc457613cc3612761565b5b6000613cd286828701613c81565b9350506020613ce386828701613c81565b9250506040613cf486828701613c96565b9150509250925092565b7f466c69676874206e6f742064656c617965640000000000000000000000000000600082015250565b6000613d346012836132eb565b9150613d3f82613cfe565b602082019050919050565b60006020820190508181036000830152613d6381613d27565b9050919050565b6000613d7582612822565b9150613d8083612822565b9250828202613d8e81612822565b91508282048414831517613da557613da461348b565b5b5092915050565b7f4e6f207061796f75742064756500000000000000000000000000000000000000600082015250565b6000613de2600d836132eb565b9150613ded82613dac565b602082019050919050565b60006020820190508181036000830152613e1181613dd5565b9050919050565b7f496e73756666696369656e7420636f6e74726163742062616c616e6365000000600082015250565b6000613e4e601d836132eb565b9150613e5982613e18565b602082019050919050565b60006020820190508181036000830152613e7d81613e41565b9050919050565b7f506f6c696379206973206e6f7420616374697665000000000000000000000000600082015250565b6000613eba6014836132eb565b9150613ec582613e84565b602082019050919050565b60006020820190508181036000830152613ee981613ead565b9050919050565b6000613efb82612822565b9150613f0683612822565b9250828201905080821115613f1e57613f1d61348b565b5b92915050565b7f506f6c69637920686173206e6f74206578706972656420796574000000000000600082015250565b6000613f5a601a836132eb565b9150613f6582613f24565b602082019050919050565b60006020820190508181036000830152613f8981613f4d565b9050919050565b7f5265656e7472616e637947756172643a207265656e7472616e742063616c6c00600082015250565b6000613fc6601f836132eb565b9150613fd182613f90565b602082019050919050565b60006020820190508181036000830152613ff581613fb9565b9050919050565b7f4e487b7100000000000000000000000000000000000000000000000000000000600052601260045260246000fdfea26469706673582212209a7f20cf0ffbe38fa02d7446c92444f1c3bbc7a82fef4b28e5e30aa77d316ae864736f6c63430008130033",
  "linkReferences": {},
  "deployedLinkReferences": {}
}