{
  "_format": "hh-sol-artifact-1",
  "contractName": "Insurer",
  "sourceName": "contracts/Insurer.sol",
  "abi": [
    {
      "inputs": [
        {
          "internalType": "address",
          "name": "_flightPolicyAddress",
          "type": "address"
        }
      ],
      "stateMutability": "nonpayable",
      "type": "constructor"
    },
    {
      "anonymous": false,
      "inputs": [
        {
          "indexed": true,
          "internalType": "address",
          "name": "buyer",
          "type": "address"
        },
        {
          "indexed": true,
          "internalType": "uint256",
          "name": "policyId",
          "type": "uint256"
        },
        {
          "indexed": true,
          "internalType": "uint256",
          "name": "templateId",
          "type": "uint256"
        }
      ],
      "name": "FlightPolicyPurchased",
      "type": "event"
    },
    {
      "anonymous": false,
      "inputs": [
        {
          "indexed": true,
          "internalType": "uint256",
          "name": "templateId",
          "type": "uint256"
        },
        {
          "indexed": false,
          "internalType": "string",
          "name": "name",
          "type": "string"
        }
      ],
      "name": "FlightPolicyTemplateCreated",
      "type": "event"
    },
    {
      "anonymous": false,
      "inputs": [
        {
          "indexed": true,
          "internalType": "uint256",
          "name": "templateId",
          "type": "uint256"
        }
      ],
      "name": "FlightPolicyTemplateDeactivated",
      "type": "event"
    },
    {
      "inputs": [
        {
          "internalType": "string",
          "name": "name",
          "type": "string"
        },
        {
          "internalType": "string",
          "name": "description",
          "type": "string"
        },
        {
          "internalType": "uint256",
          "name": "premium",
          "type": "uint256"
        },
        {
          "internalType": "uint256",
          "name": "payoutPerHour",
          "type": "uint256"
        },
        {
          "internalType": "uint256",
          "name": "delayThresholdHours",
          "type": "uint256"
        },
        {
          "internalType": "uint256",
          "name": "maxTotalPayout",
          "type": "uint256"
        },
        {
          "internalType": "uint256",
          "name": "coverageDurationDays",
          "type": "uint256"
        }
      ],
      "name": "createFlightPolicyTemplate",
      "outputs": [],
      "stateMutability": "nonpayable",
      "type": "function"
    },
    {
      "inputs": [
        {
          "internalType": "uint256",
          "name": "templateId",
          "type": "uint256"
        }
      ],
      "name": "deactivateFlightPolicyTemplate",
      "outputs": [],
      "stateMutability": "nonpayable",
      "type": "function"
    },
    {
      "inputs": [],
      "name": "flightPolicy",
      "outputs": [
        {
          "internalType": "contract FlightPolicy",
          "name": "",
          "type": "address"
        }
      ],
      "stateMutability": "view",
      "type": "function"
    },
    {
      "inputs": [],
      "name": "getActiveFlightPolicyTemplates",
      "outputs": [
        {
          "components": [
            {
              "internalType": "uint256",
              "name": "templateId",
              "type": "uint256"
            },
            {
              "internalType": "string",
              "name": "name",
              "type": "string"
            },
            {
              "internalType": "string",
              "name": "description",
              "type": "string"
            },
            {
              "internalType": "uint256",
              "name": "createdAt",
              "type": "uint256"
            },
            {
              "internalType": "uint256",
              "name": "premium",
              "type": "uint256"
            },
            {
              "internalType": "uint256",
              "name": "payoutPerHour",
              "type": "uint256"
            },
            {
              "internalType": "uint256",
              "name": "delayThresholdHours",
              "type": "uint256"
            },
            {
              "internalType": "uint256",
              "name": "maxTotalPayout",
              "type": "uint256"
            },
            {
              "internalType": "uint256",
              "name": "coverageDurationDays",
              "type": "uint256"
            },
            {
              "internalType": "enum FlightPolicy.PolicyTemplateStatus",
              "name": "status",
              "type": "uint8"
            }
          ],
          "internalType": "struct FlightPolicy.PolicyTemplate[]",
          "name": "",
          "type": "tuple[]"
        }
      ],
      "stateMutability": "view",
      "type": "function"
    },
    {
      "inputs": [],
      "name": "getAllFlightPolicyTemplates",
      "outputs": [
        {
          "components": [
            {
              "internalType": "uint256",
              "name": "templateId",
              "type": "uint256"
            },
            {
              "internalType": "string",
              "name": "name",
              "type": "string"
            },
            {
              "internalType": "string",
              "name": "description",
              "type": "string"
            },
            {
              "internalType": "uint256",
              "name": "createdAt",
              "type": "uint256"
            },
            {
              "internalType": "uint256",
              "name": "premium",
              "type": "uint256"
            },
            {
              "internalType": "uint256",
              "name": "payoutPerHour",
              "type": "uint256"
            },
            {
              "internalType": "uint256",
              "name": "delayThresholdHours",
              "type": "uint256"
            },
            {
              "internalType": "uint256",
              "name": "maxTotalPayout",
              "type": "uint256"
            },
            {
              "internalType": "uint256",
              "name": "coverageDurationDays",
              "type": "uint256"
            },
            {
              "internalType": "enum FlightPolicy.PolicyTemplateStatus",
              "name": "status",
              "type": "uint8"
            }
          ],
          "internalType": "struct FlightPolicy.PolicyTemplate[]",
          "name": "",
          "type": "tuple[]"
        }
      ],
      "stateMutability": "view",
      "type": "function"
    },
    {
      "inputs": [
        {
          "internalType": "uint256",
          "name": "templateId",
          "type": "uint256"
        }
      ],
      "name": "getFlightPolicyTemplateById",
      "outputs": [
        {
          "components": [
            {
              "internalType": "uint256",
              "name": "templateId",
              "type": "uint256"
            },
            {
              "internalType": "string",
              "name": "name",
              "type": "string"
            },
            {
              "internalType": "string",
              "name": "description",
              "type": "string"
            },
            {
              "internalType": "uint256",
              "name": "createdAt",
              "type": "uint256"
            },
            {
              "internalType": "uint256",
              "name": "premium",
              "type": "uint256"
            },
            {
              "internalType": "uint256",
              "name": "payoutPerHour",
              "type": "uint256"
            },
            {
              "internalType": "uint256",
              "name": "delayThresholdHours",
              "type": "uint256"
            },
            {
              "internalType": "uint256",
              "name": "maxTotalPayout",
              "type": "uint256"
            },
            {
              "internalType": "uint256",
              "name": "coverageDurationDays",
              "type": "uint256"
            },
            {
              "internalType": "enum FlightPolicy.PolicyTemplateStatus",
              "name": "status",
              "type": "uint8"
            }
          ],
          "internalType": "struct FlightPolicy.PolicyTemplate",
          "name": "",
          "type": "tuple"
        }
      ],
      "stateMutability": "view",
      "type": "function"
    },
    {
      "inputs": [
        {
          "internalType": "address",
          "name": "user",
          "type": "address"
        },
        {
          "internalType": "uint256",
          "name": "policyId",
          "type": "uint256"
        }
      ],
      "name": "getFlightPolicyWithTemplate",
      "outputs": [
        {
          "components": [
            {
              "internalType": "uint256",
              "name": "policyId",
              "type": "uint256"
            },
            {
              "internalType": "uint256",
              "name": "templateId",
              "type": "uint256"
            },
            {
              "internalType": "string",
              "name": "flightNumber",
              "type": "string"
            },
            {
              "internalType": "string",
              "name": "departureAirportCode",
              "type": "string"
            },
            {
              "internalType": "string",
              "name": "arrivalAirportCode",
              "type": "string"
            },
            {
              "internalType": "uint256",
              "name": "departureTime",
              "type": "uint256"
            },
            {
              "internalType": "uint256",
              "name": "createdAt",
              "type": "uint256"
            },
            {
              "internalType": "uint256",
              "name": "payoutToDate",
              "type": "uint256"
            },
            {
              "internalType": "address",
              "name": "buyer",
              "type": "address"
            },
            {
              "internalType": "enum FlightPolicy.PolicyStatus",
              "name": "status",
              "type": "uint8"
            }
          ],
          "internalType": "struct FlightPolicy.UserPolicy",
          "name": "",
          "type": "tuple"
        },
        {
          "components": [
            {
              "internalType": "uint256",
              "name": "templateId",
              "type": "uint256"
            },
            {
              "internalType": "string",
              "name": "name",
              "type": "string"
            },
            {
              "internalType": "string",
              "name": "description",
              "type": "string"
            },
            {
              "internalType": "uint256",
              "name": "createdAt",
              "type": "uint256"
            },
            {
              "internalType": "uint256",
              "name": "premium",
              "type": "uint256"
            },
            {
              "internalType": "uint256",
              "name": "payoutPerHour",
              "type": "uint256"
            },
            {
              "internalType": "uint256",
              "name": "delayThresholdHours",
              "type": "uint256"
            },
            {
              "internalType": "uint256",
              "name": "maxTotalPayout",
              "type": "uint256"
            },
            {
              "internalType": "uint256",
              "name": "coverageDurationDays",
              "type": "uint256"
            },
            {
              "internalType": "enum FlightPolicy.PolicyTemplateStatus",
              "name": "status",
              "type": "uint8"
            }
          ],
          "internalType": "struct FlightPolicy.PolicyTemplate",
          "name": "",
          "type": "tuple"
        }
      ],
      "stateMutability": "view",
      "type": "function"
    },
    {
      "inputs": [
        {
          "internalType": "address",
          "name": "user",
          "type": "address"
        }
      ],
      "name": "getUserFlightPolicies",
      "outputs": [
        {
          "components": [
            {
              "internalType": "uint256",
              "name": "policyId",
              "type": "uint256"
            },
            {
              "internalType": "uint256",
              "name": "templateId",
              "type": "uint256"
            },
            {
              "internalType": "string",
              "name": "flightNumber",
              "type": "string"
            },
            {
              "internalType": "string",
              "name": "departureAirportCode",
              "type": "string"
            },
            {
              "internalType": "string",
              "name": "arrivalAirportCode",
              "type": "string"
            },
            {
              "internalType": "uint256",
              "name": "departureTime",
              "type": "uint256"
            },
            {
              "internalType": "uint256",
              "name": "createdAt",
              "type": "uint256"
            },
            {
              "internalType": "uint256",
              "name": "payoutToDate",
              "type": "uint256"
            },
            {
              "internalType": "address",
              "name": "buyer",
              "type": "address"
            },
            {
              "internalType": "enum FlightPolicy.PolicyStatus",
              "name": "status",
              "type": "uint8"
            }
          ],
          "internalType": "struct FlightPolicy.UserPolicy[]",
          "name": "",
          "type": "tuple[]"
        }
      ],
      "stateMutability": "view",
      "type": "function"
    },
    {
      "inputs": [
        {
          "internalType": "uint256",
          "name": "templateId",
          "type": "uint256"
        }
      ],
      "name": "getUserPoliciesByTemplate",
      "outputs": [
        {
          "components": [
            {
              "internalType": "uint256",
              "name": "policyId",
              "type": "uint256"
            },
            {
              "internalType": "uint256",
              "name": "templateId",
              "type": "uint256"
            },
            {
              "internalType": "string",
              "name": "flightNumber",
              "type": "string"
            },
            {
              "internalType": "string",
              "name": "departureAirportCode",
              "type": "string"
            },
            {
              "internalType": "string",
              "name": "arrivalAirportCode",
              "type": "string"
            },
            {
              "internalType": "uint256",
              "name": "departureTime",
              "type": "uint256"
            },
            {
              "internalType": "uint256",
              "name": "createdAt",
              "type": "uint256"
            },
            {
              "internalType": "uint256",
              "name": "payoutToDate",
              "type": "uint256"
            },
            {
              "internalType": "address",
              "name": "buyer",
              "type": "address"
            },
            {
              "internalType": "enum FlightPolicy.PolicyStatus",
              "name": "status",
              "type": "uint8"
            }
          ],
          "internalType": "struct FlightPolicy.UserPolicy[]",
          "name": "",
          "type": "tuple[]"
        }
      ],
      "stateMutability": "view",
      "type": "function"
    },
    {
      "inputs": [],
      "name": "insurerAddress",
      "outputs": [
        {
          "internalType": "address",
          "name": "",
          "type": "address"
        }
      ],
      "stateMutability": "view",
      "type": "function"
    },
    {
      "inputs": [
        {
          "internalType": "address",
          "name": "user",
          "type": "address"
        }
      ],
      "name": "isInsurer",
      "outputs": [
        {
          "internalType": "bool",
          "name": "",
          "type": "bool"
        }
      ],
      "stateMutability": "view",
      "type": "function"
    },
    {
      "inputs": [
        {
          "internalType": "address",
          "name": "buyer",
          "type": "address"
        },
        {
          "internalType": "uint256",
          "name": "policyId",
          "type": "uint256"
        }
      ],
      "name": "markFlightPolicyAsClaimed",
      "outputs": [],
      "stateMutability": "nonpayable",
      "type": "function"
    },
    {
      "inputs": [
        {
          "internalType": "uint256",
          "name": "policyId",
          "type": "uint256"
        }
      ],
      "name": "markFlightPolicyAsExpired",
      "outputs": [],
      "stateMutability": "nonpayable",
      "type": "function"
    },
    {
      "inputs": [
        {
          "internalType": "uint256",
          "name": "templateId",
          "type": "uint256"
        },
        {
          "internalType": "string",
          "name": "flightNumber",
          "type": "string"
        },
        {
          "internalType": "string",
          "name": "departureAirportCode",
          "type": "string"
        },
        {
          "internalType": "string",
          "name": "arrivalAirportCode",
          "type": "string"
        },
        {
          "internalType": "uint256",
          "name": "departureTime",
          "type": "uint256"
        }
      ],
      "name": "purchaseFlightPolicy",
      "outputs": [],
      "stateMutability": "payable",
      "type": "function"
    },
    {
      "inputs": [
        {
          "internalType": "uint256",
          "name": "amountInWei",
          "type": "uint256"
        }
      ],
      "name": "withdraw",
      "outputs": [],
      "stateMutability": "nonpayable",
      "type": "function"
    },
    {
      "stateMutability": "payable",
      "type": "receive"
    }
  ],
  "bytecode": "0x60a06040523480156200001157600080fd5b50604051620027ab380380620027ab83398181016040528101906200003791906200011c565b3373ffffffffffffffffffffffffffffffffffffffff1660808173ffffffffffffffffffffffffffffffffffffffff1681525050806000806101000a81548173ffffffffffffffffffffffffffffffffffffffff021916908373ffffffffffffffffffffffffffffffffffffffff160217905550506200014e565b600080fd5b600073ffffffffffffffffffffffffffffffffffffffff82169050919050565b6000620000e482620000b7565b9050919050565b620000f681620000d7565b81146200010257600080fd5b50565b6000815190506200011681620000eb565b92915050565b600060208284031215620001355762000134620000b2565b5b6000620001458482850162000105565b91505092915050565b6080516126106200019b6000396000818161048001528181610551015281816107620152818161097901528181610a9501528181610bb401528181610d280152610e7301526126106000f3fe6080604052600436106100ec5760003560e01c80636906496e1161008a578063b715521b11610059578063b715521b146102de578063be3dfb781461031b578063da7897e214610344578063f05e5b6214610381576100f3565b80636906496e14610224578063884d7f641461024d578063a7c0900e14610276578063b55d4a2f146102a1576100f3565b806333018f45116100c657806333018f451461017757806343c0e7cb146101b45780634aefa0fe146101d05780636017f97e146101f9576100f3565b806307116510146100f85780632287ddc4146101235780632e1a7d4d1461014e576100f3565b366100f357005b600080fd5b34801561010457600080fd5b5061010d6103bf565b60405161011a91906110e2565b60405180910390f35b34801561012f57600080fd5b506101386103e3565b60405161014591906113c0565b60405180910390f35b34801561015a57600080fd5b5061017560048036038101906101709190611422565b61047e565b005b34801561018357600080fd5b5061019e60048036038101906101999190611422565b6105b9565b6040516101ab9190611530565b60405180910390f35b6101ce60048036038101906101c99190611687565b610667565b005b3480156101dc57600080fd5b506101f760048036038101906101f29190611756565b610760565b005b34801561020557600080fd5b5061020e6108dd565b60405161021b91906113c0565b60405180910390f35b34801561023057600080fd5b5061024b60048036038101906102469190611422565b610977565b005b34801561025957600080fd5b50610274600480360381019061026f919061186e565b610a93565b005b34801561028257600080fd5b5061028b610bb2565b60405161029891906118bd565b60405180910390f35b3480156102ad57600080fd5b506102c860048036038101906102c39190611422565b610bd6565b6040516102d59190611ad9565b60405180910390f35b3480156102ea57600080fd5b5061030560048036038101906103009190611afb565b610c7e565b6040516103129190611ad9565b60405180910390f35b34801561032757600080fd5b50610342600480360381019061033d9190611422565b610d26565b005b34801561035057600080fd5b5061036b60048036038101906103669190611afb565b610e6f565b6040516103789190611b43565b60405180910390f35b34801561038d57600080fd5b506103a860048036038101906103a3919061186e565b610ec7565b6040516103b6929190611c46565b60405180910390f35b60008054906101000a900473ffffffffffffffffffffffffffffffffffffffff1681565b606060008054906101000a900473ffffffffffffffffffffffffffffffffffffffff1673ffffffffffffffffffffffffffffffffffffffff1663e79cdf1d6040518163ffffffff1660e01b8152600401600060405180830381865afa158015610450573d6000803e3d6000fd5b505050506040513d6000823e3d601f19601f820116820180604052508101906104799190611f45565b905090565b7f000000000000000000000000000000000000000000000000000000000000000073ffffffffffffffffffffffffffffffffffffffff163373ffffffffffffffffffffffffffffffffffffffff161461050c576040517f08c379a000000000000000000000000000000000000000000000000000000000815260040161050390612011565b60405180910390fd5b8047101561054f576040517f08c379a00000000000000000000000000000000000000000000000000000000081526004016105469061207d565b60405180910390fd5b7f000000000000000000000000000000000000000000000000000000000000000073ffffffffffffffffffffffffffffffffffffffff166108fc829081150290604051600060405180830381858888f193505050501580156105b5573d6000803e3d6000fd5b5050565b6105c1610f83565b60008054906101000a900473ffffffffffffffffffffffffffffffffffffffff1673ffffffffffffffffffffffffffffffffffffffff16635990fa36836040518263ffffffff1660e01b815260040161061a91906120ac565b600060405180830381865afa158015610637573d6000803e3d6000fd5b505050506040513d6000823e3d601f19601f8201168201806040525081019061066091906120c7565b9050919050565b60008060009054906101000a900473ffffffffffffffffffffffffffffffffffffffff1673ffffffffffffffffffffffffffffffffffffffff1663acf76693343389898989896040518863ffffffff1660e01b81526004016106ce96959493929190612149565b60206040518083038185885af11580156106ec573d6000803e3d6000fd5b50505050506040513d601f19601f8201168201806040525081019061071191906121bf565b905085813373ffffffffffffffffffffffffffffffffffffffff167feffe1aca794f1f12cecd2282e563efd5541b166abc4535dbd19df10aa98a16de60405160405180910390a4505050505050565b7f000000000000000000000000000000000000000000000000000000000000000073ffffffffffffffffffffffffffffffffffffffff163373ffffffffffffffffffffffffffffffffffffffff16146107ee576040517f08c379a00000000000000000000000000000000000000000000000000000000081526004016107e590612011565b60405180910390fd5b60008060009054906101000a900473ffffffffffffffffffffffffffffffffffffffff1673ffffffffffffffffffffffffffffffffffffffff166388641494898989898989896040518863ffffffff1660e01b815260040161085697969594939291906121ec565b6020604051808303816000875af1158015610875573d6000803e3d6000fd5b505050506040513d601f19601f8201168201806040525081019061089991906121bf565b9050807fc69722450388b8bc8a6113ad1972ad8c8ddfde8ef6606ec1d011e195bc00dfb8896040516108cb9190612269565b60405180910390a25050505050505050565b606060008054906101000a900473ffffffffffffffffffffffffffffffffffffffff1673ffffffffffffffffffffffffffffffffffffffff1662c84c046040518163ffffffff1660e01b8152600401600060405180830381865afa158015610949573d6000803e3d6000fd5b505050506040513d6000823e3d601f19601f820116820180604052508101906109729190611f45565b905090565b7f000000000000000000000000000000000000000000000000000000000000000073ffffffffffffffffffffffffffffffffffffffff163373ffffffffffffffffffffffffffffffffffffffff1614610a05576040517f08c379a00000000000000000000000000000000000000000000000000000000081526004016109fc90612011565b60405180910390fd5b60008054906101000a900473ffffffffffffffffffffffffffffffffffffffff1673ffffffffffffffffffffffffffffffffffffffff1663cf39c624826040518263ffffffff1660e01b8152600401610a5e91906120ac565b600060405180830381600087803b158015610a7857600080fd5b505af1158015610a8c573d6000803e3d6000fd5b5050505050565b7f000000000000000000000000000000000000000000000000000000000000000073ffffffffffffffffffffffffffffffffffffffff163373ffffffffffffffffffffffffffffffffffffffff1614610b21576040517f08c379a0000000000000000000000000000000000000000000000000000000008152600401610b1890612011565b60405180910390fd5b60008054906101000a900473ffffffffffffffffffffffffffffffffffffffff1673ffffffffffffffffffffffffffffffffffffffff166328cf382c83836040518363ffffffff1660e01b8152600401610b7c92919061228b565b600060405180830381600087803b158015610b9657600080fd5b505af1158015610baa573d6000803e3d6000fd5b505050505050565b7f000000000000000000000000000000000000000000000000000000000000000081565b606060008054906101000a900473ffffffffffffffffffffffffffffffffffffffff1673ffffffffffffffffffffffffffffffffffffffff1663b55d4a2f836040518263ffffffff1660e01b8152600401610c3191906120ac565b600060405180830381865afa158015610c4e573d6000803e3d6000fd5b505050506040513d6000823e3d601f19601f82011682018060405250810190610c779190612519565b9050919050565b606060008054906101000a900473ffffffffffffffffffffffffffffffffffffffff1673ffffffffffffffffffffffffffffffffffffffff166319ac4614836040518263ffffffff1660e01b8152600401610cd991906118bd565b600060405180830381865afa158015610cf6573d6000803e3d6000fd5b505050506040513d6000823e3d601f19601f82011682018060405250810190610d1f9190612519565b9050919050565b7f000000000000000000000000000000000000000000000000000000000000000073ffffffffffffffffffffffffffffffffffffffff163373ffffffffffffffffffffffffffffffffffffffff1614610db4576040517f08c379a0000000000000000000000000000000000000000000000000000000008152600401610dab90612011565b60405180910390fd5b60008054906101000a900473ffffffffffffffffffffffffffffffffffffffff1673ffffffffffffffffffffffffffffffffffffffff1663482ab102826040518263ffffffff1660e01b8152600401610e0d91906120ac565b600060405180830381600087803b158015610e2757600080fd5b505af1158015610e3b573d6000803e3d6000fd5b50505050807f143219b70842595e29b0ba3550cb75419efa6e37ecb13c1d58dcb81e6ff95f1960405160405180910390a250565b60007f000000000000000000000000000000000000000000000000000000000000000073ffffffffffffffffffffffffffffffffffffffff168273ffffffffffffffffffffffffffffffffffffffff16149050919050565b610ecf610fe8565b610ed7610f83565b60008054906101000a900473ffffffffffffffffffffffffffffffffffffffff1673ffffffffffffffffffffffffffffffffffffffff166313e896b685856040518363ffffffff1660e01b8152600401610f3292919061228b565b600060405180830381865afa158015610f4f573d6000803e3d6000fd5b505050506040513d6000823e3d601f19601f82011682018060405250810190610f789190612562565b915091509250929050565b60405180610140016040528060008152602001606081526020016060815260200160008152602001600081526020016000815260200160008152602001600081526020016000815260200160006001811115610fe257610fe16111d2565b5b81525090565b6040518061014001604052806000815260200160008152602001606081526020016060815260200160608152602001600081526020016000815260200160008152602001600073ffffffffffffffffffffffffffffffffffffffff1681526020016000600281111561105d5761105c6111d2565b5b81525090565b600073ffffffffffffffffffffffffffffffffffffffff82169050919050565b6000819050919050565b60006110a86110a361109e84611063565b611083565b611063565b9050919050565b60006110ba8261108d565b9050919050565b60006110cc826110af565b9050919050565b6110dc816110c1565b82525050565b60006020820190506110f760008301846110d3565b92915050565b600081519050919050565b600082825260208201905092915050565b6000819050602082019050919050565b6000819050919050565b61113c81611129565b82525050565b600081519050919050565b600082825260208201905092915050565b60005b8381101561117c578082015181840152602081019050611161565b60008484015250505050565b6000601f19601f8301169050919050565b60006111a482611142565b6111ae818561114d565b93506111be81856020860161115e565b6111c781611188565b840191505092915050565b7f4e487b7100000000000000000000000000000000000000000000000000000000600052602160045260246000fd5b60028110611212576112116111d2565b5b50565b600081905061122382611201565b919050565b600061123382611215565b9050919050565b61124381611228565b82525050565b6000610140830160008301516112626000860182611133565b506020830151848203602086015261127a8282611199565b915050604083015184820360408601526112948282611199565b91505060608301516112a96060860182611133565b5060808301516112bc6080860182611133565b5060a08301516112cf60a0860182611133565b5060c08301516112e260c0860182611133565b5060e08301516112f560e0860182611133565b5061010083015161130a610100860182611133565b5061012083015161131f61012086018261123a565b508091505092915050565b60006113368383611249565b905092915050565b6000602082019050919050565b6000611356826110fd565b6113608185611108565b93508360208202850161137285611119565b8060005b858110156113ae578484038952815161138f858261132a565b945061139a8361133e565b925060208a01995050600181019050611376565b50829750879550505050505092915050565b600060208201905081810360008301526113da818461134b565b905092915050565b6000604051905090565b600080fd5b600080fd5b6113ff81611129565b811461140a57600080fd5b50565b60008135905061141c816113f6565b92915050565b600060208284031215611438576114376113ec565b5b60006114468482850161140d565b91505092915050565b6000610140830160008301516114686000860182611133565b50602083015184820360208601526114808282611199565b9150506040830151848203604086015261149a8282611199565b91505060608301516114af6060860182611133565b5060808301516114c26080860182611133565b5060a08301516114d560a0860182611133565b5060c08301516114e860c0860182611133565b5060e08301516114fb60e0860182611133565b50610100830151611510610100860182611133565b5061012083015161152561012086018261123a565b508091505092915050565b6000602082019050818103600083015261154a818461144f565b905092915050565b600080fd5b600080fd5b7f4e487b7100000000000000000000000000000000000000000000000000000000600052604160045260246000fd5b61159482611188565b810181811067ffffffffffffffff821117156115b3576115b261155c565b5b80604052505050565b60006115c66113e2565b90506115d2828261158b565b919050565b600067ffffffffffffffff8211156115f2576115f161155c565b5b6115fb82611188565b9050602081019050919050565b82818337600083830152505050565b600061162a611625846115d7565b6115bc565b90508281526020810184848401111561164657611645611557565b5b611651848285611608565b509392505050565b600082601f83011261166e5761166d611552565b5b813561167e848260208601611617565b91505092915050565b600080600080600060a086880312156116a3576116a26113ec565b5b60006116b18882890161140d565b955050602086013567ffffffffffffffff8111156116d2576116d16113f1565b5b6116de88828901611659565b945050604086013567ffffffffffffffff8111156116ff576116fe6113f1565b5b61170b88828901611659565b935050606086013567ffffffffffffffff81111561172c5761172b6113f1565b5b61173888828901611659565b92505060806117498882890161140d565b9150509295509295909350565b600080600080600080600060e0888a031215611775576117746113ec565b5b600088013567ffffffffffffffff811115611793576117926113f1565b5b61179f8a828b01611659565b975050602088013567ffffffffffffffff8111156117c0576117bf6113f1565b5b6117cc8a828b01611659565b96505060406117dd8a828b0161140d565b95505060606117ee8a828b0161140d565b94505060806117ff8a828b0161140d565b93505060a06118108a828b0161140d565b92505060c06118218a828b0161140d565b91505092959891949750929550565b600061183b82611063565b9050919050565b61184b81611830565b811461185657600080fd5b50565b60008135905061186881611842565b92915050565b60008060408385031215611885576118846113ec565b5b600061189385828601611859565b92505060206118a48582860161140d565b9150509250929050565b6118b781611830565b82525050565b60006020820190506118d260008301846118ae565b92915050565b600081519050919050565b600082825260208201905092915050565b6000819050602082019050919050565b61190d81611830565b82525050565b60038110611924576119236111d2565b5b50565b600081905061193582611913565b919050565b600061194582611927565b9050919050565b6119558161193a565b82525050565b6000610140830160008301516119746000860182611133565b5060208301516119876020860182611133565b506040830151848203604086015261199f8282611199565b915050606083015184820360608601526119b98282611199565b915050608083015184820360808601526119d38282611199565b91505060a08301516119e860a0860182611133565b5060c08301516119fb60c0860182611133565b5060e0830151611a0e60e0860182611133565b50610100830151611a23610100860182611904565b50610120830151611a3861012086018261194c565b508091505092915050565b6000611a4f838361195b565b905092915050565b6000602082019050919050565b6000611a6f826118d8565b611a7981856118e3565b935083602082028501611a8b856118f4565b8060005b85811015611ac75784840389528151611aa88582611a43565b9450611ab383611a57565b925060208a01995050600181019050611a8f565b50829750879550505050505092915050565b60006020820190508181036000830152611af38184611a64565b905092915050565b600060208284031215611b1157611b106113ec565b5b6000611b1f84828501611859565b91505092915050565b60008115159050919050565b611b3d81611b28565b82525050565b6000602082019050611b586000830184611b34565b92915050565b600061014083016000830151611b776000860182611133565b506020830151611b8a6020860182611133565b5060408301518482036040860152611ba28282611199565b91505060608301518482036060860152611bbc8282611199565b91505060808301518482036080860152611bd68282611199565b91505060a0830151611beb60a0860182611133565b5060c0830151611bfe60c0860182611133565b5060e0830151611c1160e0860182611133565b50610100830151611c26610100860182611904565b50610120830151611c3b61012086018261194c565b508091505092915050565b60006040820190508181036000830152611c608185611b5e565b90508181036020830152611c74818461144f565b90509392505050565b600067ffffffffffffffff821115611c9857611c9761155c565b5b602082029050602081019050919050565b600080fd5b600080fd5b600080fd5b600081519050611cc7816113f6565b92915050565b6000611ce0611cdb846115d7565b6115bc565b905082815260208101848484011115611cfc57611cfb611557565b5b611d0784828561115e565b509392505050565b600082601f830112611d2457611d23611552565b5b8151611d34848260208601611ccd565b91505092915050565b60028110611d4a57600080fd5b50565b600081519050611d5c81611d3d565b92915050565b60006101408284031215611d7957611d78611cae565b5b611d846101406115bc565b90506000611d9484828501611cb8565b600083015250602082015167ffffffffffffffff811115611db857611db7611cb3565b5b611dc484828501611d0f565b602083015250604082015167ffffffffffffffff811115611de857611de7611cb3565b5b611df484828501611d0f565b6040830152506060611e0884828501611cb8565b6060830152506080611e1c84828501611cb8565b60808301525060a0611e3084828501611cb8565b60a08301525060c0611e4484828501611cb8565b60c08301525060e0611e5884828501611cb8565b60e083015250610100611e6d84828501611cb8565b61010083015250610120611e8384828501611d4d565b6101208301525092915050565b6000611ea3611e9e84611c7d565b6115bc565b90508083825260208201905060208402830185811115611ec657611ec5611ca9565b5b835b81811015611f0d57805167ffffffffffffffff811115611eeb57611eea611552565b5b808601611ef88982611d62565b85526020850194505050602081019050611ec8565b5050509392505050565b600082601f830112611f2c57611f2b611552565b5b8151611f3c848260208601611e90565b91505092915050565b600060208284031215611f5b57611f5a6113ec565b5b600082015167ffffffffffffffff811115611f7957611f786113f1565b5b611f8584828501611f17565b91505092915050565b600082825260208201905092915050565b7f496e73757265723a204f6e6c792074686520696e73757265722063616e20636160008201527f6c6c207468697300000000000000000000000000000000000000000000000000602082015250565b6000611ffb602783611f8e565b915061200682611f9f565b604082019050919050565b6000602082019050818103600083015261202a81611fee565b9050919050565b7f496e73756666696369656e742062616c616e6365000000000000000000000000600082015250565b6000612067601483611f8e565b915061207282612031565b602082019050919050565b600060208201905081810360008301526120968161205a565b9050919050565b6120a681611129565b82525050565b60006020820190506120c1600083018461209d565b92915050565b6000602082840312156120dd576120dc6113ec565b5b600082015167ffffffffffffffff8111156120fb576120fa6113f1565b5b61210784828501611d62565b91505092915050565b600061211b82611142565b6121258185611f8e565b935061213581856020860161115e565b61213e81611188565b840191505092915050565b600060c08201905061215e60008301896118ae565b61216b602083018861209d565b818103604083015261217d8187612110565b905081810360608301526121918186612110565b905081810360808301526121a58185612110565b90506121b460a083018461209d565b979650505050505050565b6000602082840312156121d5576121d46113ec565b5b60006121e384828501611cb8565b91505092915050565b600060e0820190508181036000830152612206818a612110565b9050818103602083015261221a8189612110565b9050612229604083018861209d565b612236606083018761209d565b612243608083018661209d565b61225060a083018561209d565b61225d60c083018461209d565b98975050505050505050565b600060208201905081810360008301526122838184612110565b905092915050565b60006040820190506122a060008301856118ae565b6122ad602083018461209d565b9392505050565b600067ffffffffffffffff8211156122cf576122ce61155c565b5b602082029050602081019050919050565b6000815190506122ef81611842565b92915050565b6003811061230257600080fd5b50565b600081519050612314816122f5565b92915050565b6000610140828403121561233157612330611cae565b5b61233c6101406115bc565b9050600061234c84828501611cb8565b600083015250602061236084828501611cb8565b602083015250604082015167ffffffffffffffff81111561238457612383611cb3565b5b61239084828501611d0f565b604083015250606082015167ffffffffffffffff8111156123b4576123b3611cb3565b5b6123c084828501611d0f565b606083015250608082015167ffffffffffffffff8111156123e4576123e3611cb3565b5b6123f084828501611d0f565b60808301525060a061240484828501611cb8565b60a08301525060c061241884828501611cb8565b60c08301525060e061242c84828501611cb8565b60e083015250610100612441848285016122e0565b6101008301525061012061245784828501612305565b6101208301525092915050565b6000612477612472846122b4565b6115bc565b9050808382526020820190506020840283018581111561249a57612499611ca9565b5b835b818110156124e157805167ffffffffffffffff8111156124bf576124be611552565b5b8086016124cc898261231a565b8552602085019450505060208101905061249c565b5050509392505050565b600082601f830112612500576124ff611552565b5b8151612510848260208601612464565b91505092915050565b60006020828403121561252f5761252e6113ec565b5b600082015167ffffffffffffffff81111561254d5761254c6113f1565b5b612559848285016124eb565b91505092915050565b60008060408385031215612579576125786113ec565b5b600083015167ffffffffffffffff811115612597576125966113f1565b5b6125a38582860161231a565b925050602083015167ffffffffffffffff8111156125c4576125c36113f1565b5b6125d085828601611d62565b915050925092905056fea26469706673582212205c60911ccf9a55835f1cf901f5391d23a22728355ee4498fc28e3184a81ecb4064736f6c63430008130033",
  "linkReferences": {},
  "deployedLinkReferences": {}
}