{
  "_format": "hh-sol-artifact-1",
  "contractName": "Insurer",
  "sourceName": "contracts/Insurer.sol",
  "abi": [
    {
      "inputs": [
        {
          "internalType": "address",
          "name": "_flightPolicyAddress",
          "type": "address"
        },
        {
          "internalType": "address",
          "name": "_baggagePolicyAddress",
          "type": "address"
        }
      ],
      "stateMutability": "nonpayable",
      "type": "constructor"
    },
    {
      "anonymous": false,
      "inputs": [
        {
          "indexed": true,
          "internalType": "address",
          "name": "buyer",
          "type": "address"
        },
        {
          "indexed": true,
          "internalType": "uint256",
          "name": "policyId",
          "type": "uint256"
        }
      ],
      "name": "BaggagePolicyClaimed",
      "type": "event"
    },
    {
      "anonymous": false,
      "inputs": [
        {
          "indexed": true,
          "internalType": "address",
          "name": "buyer",
          "type": "address"
        },
        {
          "indexed": true,
          "internalType": "uint256",
          "name": "policyId",
          "type": "uint256"
        },
        {
          "indexed": true,
          "internalType": "string",
          "name": "templateId",
          "type": "string"
        }
      ],
      "name": "BaggagePolicyPurchased",
      "type": "event"
    },
    {
      "anonymous": false,
      "inputs": [
        {
          "indexed": true,
          "internalType": "address",
          "name": "buyer",
          "type": "address"
        },
        {
          "indexed": true,
          "internalType": "uint256",
          "name": "policyId",
          "type": "uint256"
        }
      ],
      "name": "FlightPolicyClaimed",
      "type": "event"
    },
    {
      "anonymous": false,
      "inputs": [
        {
          "indexed": true,
          "internalType": "address",
          "name": "buyer",
          "type": "address"
        },
        {
          "indexed": true,
          "internalType": "uint256",
          "name": "policyId",
          "type": "uint256"
        },
        {
          "indexed": true,
          "internalType": "string",
          "name": "templateId",
          "type": "string"
        }
      ],
      "name": "FlightPolicyPurchased",
      "type": "event"
    },
    {
      "anonymous": false,
      "inputs": [
        {
          "indexed": true,
          "internalType": "address",
          "name": "insurer",
          "type": "address"
        },
        {
          "indexed": false,
          "internalType": "uint256",
          "name": "amount",
          "type": "uint256"
        }
      ],
      "name": "FundsDeposited",
      "type": "event"
    },
    {
      "anonymous": false,
      "inputs": [
        {
          "indexed": true,
          "internalType": "address",
          "name": "insurer",
          "type": "address"
        },
        {
          "indexed": false,
          "internalType": "uint256",
          "name": "amount",
          "type": "uint256"
        }
      ],
      "name": "FundsWithdrawn",
      "type": "event"
    },
    {
      "inputs": [],
      "name": "baggagePolicy",
      "outputs": [
        {
          "internalType": "contract BaggagePolicy",
          "name": "",
          "type": "address"
        }
      ],
      "stateMutability": "view",
      "type": "function"
    },
    {
      "inputs": [],
      "name": "deposit",
      "outputs": [],
      "stateMutability": "payable",
      "type": "function"
    },
    {
      "inputs": [],
      "name": "flightPolicy",
      "outputs": [
        {
          "internalType": "contract FlightPolicy",
          "name": "",
          "type": "address"
        }
      ],
      "stateMutability": "view",
      "type": "function"
    },
    {
      "inputs": [],
      "name": "getAllBaggagePolicies",
      "outputs": [
        {
          "components": [
            {
              "internalType": "uint256",
              "name": "policyId",
              "type": "uint256"
            },
            {
              "components": [
                {
                  "internalType": "string",
                  "name": "templateId",
                  "type": "string"
                },
                {
                  "internalType": "string",
                  "name": "name",
                  "type": "string"
                },
                {
                  "internalType": "string",
                  "name": "description",
                  "type": "string"
                },
                {
                  "internalType": "uint256",
                  "name": "createdAt",
                  "type": "uint256"
                },
                {
                  "internalType": "uint256",
                  "name": "updatedAt",
                  "type": "uint256"
                },
                {
                  "internalType": "uint256",
                  "name": "premium",
                  "type": "uint256"
                },
                {
                  "internalType": "uint256",
                  "name": "payoutIfDelayed",
                  "type": "uint256"
                },
                {
                  "internalType": "uint256",
                  "name": "payoutIfLost",
                  "type": "uint256"
                },
                {
                  "internalType": "uint256",
                  "name": "maxTotalPayout",
                  "type": "uint256"
                },
                {
                  "internalType": "uint256",
                  "name": "coverageDurationDays",
                  "type": "uint256"
                },
                {
                  "internalType": "enum BaggagePolicy.PolicyTemplateStatus",
                  "name": "status",
                  "type": "uint8"
                }
              ],
              "internalType": "struct BaggagePolicy.PolicyTemplate",
              "name": "template",
              "type": "tuple"
            },
            {
              "internalType": "string",
              "name": "itemDescription",
              "type": "string"
            },
            {
              "internalType": "uint256",
              "name": "createdAt",
              "type": "uint256"
            },
            {
              "internalType": "uint256",
              "name": "payoutToDate",
              "type": "uint256"
            },
            {
              "internalType": "address",
              "name": "buyer",
              "type": "address"
            },
            {
              "internalType": "enum BaggagePolicy.PolicyStatus",
              "name": "status",
              "type": "uint8"
            }
          ],
          "internalType": "struct BaggagePolicy.UserPolicy[]",
          "name": "",
          "type": "tuple[]"
        }
      ],
      "stateMutability": "view",
      "type": "function"
    },
    {
      "inputs": [],
      "name": "getAllFlightPolicies",
      "outputs": [
        {
          "components": [
            {
              "internalType": "uint256",
              "name": "policyId",
              "type": "uint256"
            },
            {
              "components": [
                {
                  "internalType": "string",
                  "name": "templateId",
                  "type": "string"
                },
                {
                  "internalType": "string",
                  "name": "name",
                  "type": "string"
                },
                {
                  "internalType": "string",
                  "name": "description",
                  "type": "string"
                },
                {
                  "internalType": "uint256",
                  "name": "createdAt",
                  "type": "uint256"
                },
                {
                  "internalType": "uint256",
                  "name": "updatedAt",
                  "type": "uint256"
                },
                {
                  "internalType": "uint256",
                  "name": "premium",
                  "type": "uint256"
                },
                {
                  "internalType": "uint256",
                  "name": "payoutPerHour",
                  "type": "uint256"
                },
                {
                  "internalType": "uint256",
                  "name": "delayThresholdHours",
                  "type": "uint256"
                },
                {
                  "internalType": "uint256",
                  "name": "maxTotalPayout",
                  "type": "uint256"
                },
                {
                  "internalType": "uint256",
                  "name": "coverageDurationDays",
                  "type": "uint256"
                },
                {
                  "internalType": "enum FlightPolicy.PolicyTemplateStatus",
                  "name": "status",
                  "type": "uint8"
                }
              ],
              "internalType": "struct FlightPolicy.PolicyTemplate",
              "name": "template",
              "type": "tuple"
            },
            {
              "internalType": "string",
              "name": "flightNumber",
              "type": "string"
            },
            {
              "internalType": "string",
              "name": "departureAirportCode",
              "type": "string"
            },
            {
              "internalType": "string",
              "name": "arrivalAirportCode",
              "type": "string"
            },
            {
              "internalType": "uint256",
              "name": "departureTime",
              "type": "uint256"
            },
            {
              "internalType": "uint256",
              "name": "createdAt",
              "type": "uint256"
            },
            {
              "internalType": "uint256",
              "name": "payoutToDate",
              "type": "uint256"
            },
            {
              "internalType": "address",
              "name": "buyer",
              "type": "address"
            },
            {
              "internalType": "enum FlightPolicy.PolicyStatus",
              "name": "status",
              "type": "uint8"
            }
          ],
          "internalType": "struct FlightPolicy.UserPolicy[]",
          "name": "",
          "type": "tuple[]"
        }
      ],
      "stateMutability": "view",
      "type": "function"
    },
    {
      "inputs": [],
      "name": "getContractBalance",
      "outputs": [
        {
          "internalType": "uint256",
          "name": "",
          "type": "uint256"
        }
      ],
      "stateMutability": "view",
      "type": "function"
    },
    {
      "inputs": [
        {
          "internalType": "address",
          "name": "user",
          "type": "address"
        }
      ],
      "name": "getUserBaggagePolicies",
      "outputs": [
        {
          "components": [
            {
              "internalType": "uint256",
              "name": "policyId",
              "type": "uint256"
            },
            {
              "components": [
                {
                  "internalType": "string",
                  "name": "templateId",
                  "type": "string"
                },
                {
                  "internalType": "string",
                  "name": "name",
                  "type": "string"
                },
                {
                  "internalType": "string",
                  "name": "description",
                  "type": "string"
                },
                {
                  "internalType": "uint256",
                  "name": "createdAt",
                  "type": "uint256"
                },
                {
                  "internalType": "uint256",
                  "name": "updatedAt",
                  "type": "uint256"
                },
                {
                  "internalType": "uint256",
                  "name": "premium",
                  "type": "uint256"
                },
                {
                  "internalType": "uint256",
                  "name": "payoutIfDelayed",
                  "type": "uint256"
                },
                {
                  "internalType": "uint256",
                  "name": "payoutIfLost",
                  "type": "uint256"
                },
                {
                  "internalType": "uint256",
                  "name": "maxTotalPayout",
                  "type": "uint256"
                },
                {
                  "internalType": "uint256",
                  "name": "coverageDurationDays",
                  "type": "uint256"
                },
                {
                  "internalType": "enum BaggagePolicy.PolicyTemplateStatus",
                  "name": "status",
                  "type": "uint8"
                }
              ],
              "internalType": "struct BaggagePolicy.PolicyTemplate",
              "name": "template",
              "type": "tuple"
            },
            {
              "internalType": "string",
              "name": "itemDescription",
              "type": "string"
            },
            {
              "internalType": "uint256",
              "name": "createdAt",
              "type": "uint256"
            },
            {
              "internalType": "uint256",
              "name": "payoutToDate",
              "type": "uint256"
            },
            {
              "internalType": "address",
              "name": "buyer",
              "type": "address"
            },
            {
              "internalType": "enum BaggagePolicy.PolicyStatus",
              "name": "status",
              "type": "uint8"
            }
          ],
          "internalType": "struct BaggagePolicy.UserPolicy[]",
          "name": "",
          "type": "tuple[]"
        }
      ],
      "stateMutability": "view",
      "type": "function"
    },
    {
      "inputs": [
        {
          "internalType": "string",
          "name": "templateId",
          "type": "string"
        }
      ],
      "name": "getUserBaggagePoliciesByTemplate",
      "outputs": [
        {
          "components": [
            {
              "internalType": "uint256",
              "name": "policyId",
              "type": "uint256"
            },
            {
              "components": [
                {
                  "internalType": "string",
                  "name": "templateId",
                  "type": "string"
                },
                {
                  "internalType": "string",
                  "name": "name",
                  "type": "string"
                },
                {
                  "internalType": "string",
                  "name": "description",
                  "type": "string"
                },
                {
                  "internalType": "uint256",
                  "name": "createdAt",
                  "type": "uint256"
                },
                {
                  "internalType": "uint256",
                  "name": "updatedAt",
                  "type": "uint256"
                },
                {
                  "internalType": "uint256",
                  "name": "premium",
                  "type": "uint256"
                },
                {
                  "internalType": "uint256",
                  "name": "payoutIfDelayed",
                  "type": "uint256"
                },
                {
                  "internalType": "uint256",
                  "name": "payoutIfLost",
                  "type": "uint256"
                },
                {
                  "internalType": "uint256",
                  "name": "maxTotalPayout",
                  "type": "uint256"
                },
                {
                  "internalType": "uint256",
                  "name": "coverageDurationDays",
                  "type": "uint256"
                },
                {
                  "internalType": "enum BaggagePolicy.PolicyTemplateStatus",
                  "name": "status",
                  "type": "uint8"
                }
              ],
              "internalType": "struct BaggagePolicy.PolicyTemplate",
              "name": "template",
              "type": "tuple"
            },
            {
              "internalType": "string",
              "name": "itemDescription",
              "type": "string"
            },
            {
              "internalType": "uint256",
              "name": "createdAt",
              "type": "uint256"
            },
            {
              "internalType": "uint256",
              "name": "payoutToDate",
              "type": "uint256"
            },
            {
              "internalType": "address",
              "name": "buyer",
              "type": "address"
            },
            {
              "internalType": "enum BaggagePolicy.PolicyStatus",
              "name": "status",
              "type": "uint8"
            }
          ],
          "internalType": "struct BaggagePolicy.UserPolicy[]",
          "name": "",
          "type": "tuple[]"
        }
      ],
      "stateMutability": "view",
      "type": "function"
    },
    {
      "inputs": [
        {
          "internalType": "address",
          "name": "user",
          "type": "address"
        }
      ],
      "name": "getUserFlightPolicies",
      "outputs": [
        {
          "components": [
            {
              "internalType": "uint256",
              "name": "policyId",
              "type": "uint256"
            },
            {
              "components": [
                {
                  "internalType": "string",
                  "name": "templateId",
                  "type": "string"
                },
                {
                  "internalType": "string",
                  "name": "name",
                  "type": "string"
                },
                {
                  "internalType": "string",
                  "name": "description",
                  "type": "string"
                },
                {
                  "internalType": "uint256",
                  "name": "createdAt",
                  "type": "uint256"
                },
                {
                  "internalType": "uint256",
                  "name": "updatedAt",
                  "type": "uint256"
                },
                {
                  "internalType": "uint256",
                  "name": "premium",
                  "type": "uint256"
                },
                {
                  "internalType": "uint256",
                  "name": "payoutPerHour",
                  "type": "uint256"
                },
                {
                  "internalType": "uint256",
                  "name": "delayThresholdHours",
                  "type": "uint256"
                },
                {
                  "internalType": "uint256",
                  "name": "maxTotalPayout",
                  "type": "uint256"
                },
                {
                  "internalType": "uint256",
                  "name": "coverageDurationDays",
                  "type": "uint256"
                },
                {
                  "internalType": "enum FlightPolicy.PolicyTemplateStatus",
                  "name": "status",
                  "type": "uint8"
                }
              ],
              "internalType": "struct FlightPolicy.PolicyTemplate",
              "name": "template",
              "type": "tuple"
            },
            {
              "internalType": "string",
              "name": "flightNumber",
              "type": "string"
            },
            {
              "internalType": "string",
              "name": "departureAirportCode",
              "type": "string"
            },
            {
              "internalType": "string",
              "name": "arrivalAirportCode",
              "type": "string"
            },
            {
              "internalType": "uint256",
              "name": "departureTime",
              "type": "uint256"
            },
            {
              "internalType": "uint256",
              "name": "createdAt",
              "type": "uint256"
            },
            {
              "internalType": "uint256",
              "name": "payoutToDate",
              "type": "uint256"
            },
            {
              "internalType": "address",
              "name": "buyer",
              "type": "address"
            },
            {
              "internalType": "enum FlightPolicy.PolicyStatus",
              "name": "status",
              "type": "uint8"
            }
          ],
          "internalType": "struct FlightPolicy.UserPolicy[]",
          "name": "",
          "type": "tuple[]"
        }
      ],
      "stateMutability": "view",
      "type": "function"
    },
    {
      "inputs": [
        {
          "internalType": "string",
          "name": "templateId",
          "type": "string"
        }
      ],
      "name": "getUserFlightPoliciesByTemplate",
      "outputs": [
        {
          "components": [
            {
              "internalType": "uint256",
              "name": "policyId",
              "type": "uint256"
            },
            {
              "components": [
                {
                  "internalType": "string",
                  "name": "templateId",
                  "type": "string"
                },
                {
                  "internalType": "string",
                  "name": "name",
                  "type": "string"
                },
                {
                  "internalType": "string",
                  "name": "description",
                  "type": "string"
                },
                {
                  "internalType": "uint256",
                  "name": "createdAt",
                  "type": "uint256"
                },
                {
                  "internalType": "uint256",
                  "name": "updatedAt",
                  "type": "uint256"
                },
                {
                  "internalType": "uint256",
                  "name": "premium",
                  "type": "uint256"
                },
                {
                  "internalType": "uint256",
                  "name": "payoutPerHour",
                  "type": "uint256"
                },
                {
                  "internalType": "uint256",
                  "name": "delayThresholdHours",
                  "type": "uint256"
                },
                {
                  "internalType": "uint256",
                  "name": "maxTotalPayout",
                  "type": "uint256"
                },
                {
                  "internalType": "uint256",
                  "name": "coverageDurationDays",
                  "type": "uint256"
                },
                {
                  "internalType": "enum FlightPolicy.PolicyTemplateStatus",
                  "name": "status",
                  "type": "uint8"
                }
              ],
              "internalType": "struct FlightPolicy.PolicyTemplate",
              "name": "template",
              "type": "tuple"
            },
            {
              "internalType": "string",
              "name": "flightNumber",
              "type": "string"
            },
            {
              "internalType": "string",
              "name": "departureAirportCode",
              "type": "string"
            },
            {
              "internalType": "string",
              "name": "arrivalAirportCode",
              "type": "string"
            },
            {
              "internalType": "uint256",
              "name": "departureTime",
              "type": "uint256"
            },
            {
              "internalType": "uint256",
              "name": "createdAt",
              "type": "uint256"
            },
            {
              "internalType": "uint256",
              "name": "payoutToDate",
              "type": "uint256"
            },
            {
              "internalType": "address",
              "name": "buyer",
              "type": "address"
            },
            {
              "internalType": "enum FlightPolicy.PolicyStatus",
              "name": "status",
              "type": "uint8"
            }
          ],
          "internalType": "struct FlightPolicy.UserPolicy[]",
          "name": "",
          "type": "tuple[]"
        }
      ],
      "stateMutability": "view",
      "type": "function"
    },
    {
      "inputs": [],
      "name": "insurerAddress",
      "outputs": [
        {
          "internalType": "address",
          "name": "",
          "type": "address"
        }
      ],
      "stateMutability": "view",
      "type": "function"
    },
    {
      "inputs": [
        {
          "components": [
            {
              "internalType": "string",
              "name": "templateId",
              "type": "string"
            },
            {
              "internalType": "string",
              "name": "name",
              "type": "string"
            },
            {
              "internalType": "string",
              "name": "description",
              "type": "string"
            },
            {
              "internalType": "uint256",
              "name": "createdAt",
              "type": "uint256"
            },
            {
              "internalType": "uint256",
              "name": "updatedAt",
              "type": "uint256"
            },
            {
              "internalType": "uint256",
              "name": "premium",
              "type": "uint256"
            },
            {
              "internalType": "uint256",
              "name": "payoutIfDelayed",
              "type": "uint256"
            },
            {
              "internalType": "uint256",
              "name": "payoutIfLost",
              "type": "uint256"
            },
            {
              "internalType": "uint256",
              "name": "maxTotalPayout",
              "type": "uint256"
            },
            {
              "internalType": "uint256",
              "name": "coverageDurationDays",
              "type": "uint256"
            },
            {
              "internalType": "enum BaggagePolicy.PolicyTemplateStatus",
              "name": "status",
              "type": "uint8"
            }
          ],
          "internalType": "struct BaggagePolicy.PolicyTemplate[]",
          "name": "templates",
          "type": "tuple[]"
        }
      ],
      "name": "isBaggagePolicyAllowedForPurchase",
      "outputs": [
        {
          "internalType": "bool[]",
          "name": "",
          "type": "bool[]"
        }
      ],
      "stateMutability": "view",
      "type": "function"
    },
    {
      "inputs": [
        {
          "components": [
            {
              "internalType": "string",
              "name": "templateId",
              "type": "string"
            },
            {
              "internalType": "string",
              "name": "name",
              "type": "string"
            },
            {
              "internalType": "string",
              "name": "description",
              "type": "string"
            },
            {
              "internalType": "uint256",
              "name": "createdAt",
              "type": "uint256"
            },
            {
              "internalType": "uint256",
              "name": "updatedAt",
              "type": "uint256"
            },
            {
              "internalType": "uint256",
              "name": "premium",
              "type": "uint256"
            },
            {
              "internalType": "uint256",
              "name": "payoutPerHour",
              "type": "uint256"
            },
            {
              "internalType": "uint256",
              "name": "delayThresholdHours",
              "type": "uint256"
            },
            {
              "internalType": "uint256",
              "name": "maxTotalPayout",
              "type": "uint256"
            },
            {
              "internalType": "uint256",
              "name": "coverageDurationDays",
              "type": "uint256"
            },
            {
              "internalType": "enum FlightPolicy.PolicyTemplateStatus",
              "name": "status",
              "type": "uint8"
            }
          ],
          "internalType": "struct FlightPolicy.PolicyTemplate[]",
          "name": "templates",
          "type": "tuple[]"
        }
      ],
      "name": "isFlightPolicyAllowedForPurchase",
      "outputs": [
        {
          "internalType": "bool[]",
          "name": "",
          "type": "bool[]"
        }
      ],
      "stateMutability": "view",
      "type": "function"
    },
    {
      "inputs": [
        {
          "internalType": "address",
          "name": "user",
          "type": "address"
        }
      ],
      "name": "isInsurer",
      "outputs": [
        {
          "internalType": "bool",
          "name": "",
          "type": "bool"
        }
      ],
      "stateMutability": "view",
      "type": "function"
    },
    {
      "inputs": [
        {
          "internalType": "uint256",
          "name": "policyId",
          "type": "uint256"
        }
      ],
      "name": "markBaggagePolicyAsExpired",
      "outputs": [],
      "stateMutability": "nonpayable",
      "type": "function"
    },
    {
      "inputs": [
        {
          "components": [
            {
              "internalType": "string",
              "name": "templateId",
              "type": "string"
            },
            {
              "internalType": "string",
              "name": "name",
              "type": "string"
            },
            {
              "internalType": "string",
              "name": "description",
              "type": "string"
            },
            {
              "internalType": "uint256",
              "name": "createdAt",
              "type": "uint256"
            },
            {
              "internalType": "uint256",
              "name": "updatedAt",
              "type": "uint256"
            },
            {
              "internalType": "uint256",
              "name": "premium",
              "type": "uint256"
            },
            {
              "internalType": "uint256",
              "name": "payoutIfDelayed",
              "type": "uint256"
            },
            {
              "internalType": "uint256",
              "name": "payoutIfLost",
              "type": "uint256"
            },
            {
              "internalType": "uint256",
              "name": "maxTotalPayout",
              "type": "uint256"
            },
            {
              "internalType": "uint256",
              "name": "coverageDurationDays",
              "type": "uint256"
            },
            {
              "internalType": "enum BaggagePolicy.PolicyTemplateStatus",
              "name": "status",
              "type": "uint8"
            }
          ],
          "internalType": "struct BaggagePolicy.PolicyTemplate",
          "name": "template",
          "type": "tuple"
        },
        {
          "internalType": "string",
          "name": "itemDescription",
          "type": "string"
        }
      ],
      "name": "purchaseBaggagePolicy",
      "outputs": [],
      "stateMutability": "payable",
      "type": "function"
    },
    {
      "inputs": [
        {
          "components": [
            {
              "internalType": "string",
              "name": "templateId",
              "type": "string"
            },
            {
              "internalType": "string",
              "name": "name",
              "type": "string"
            },
            {
              "internalType": "string",
              "name": "description",
              "type": "string"
            },
            {
              "internalType": "uint256",
              "name": "createdAt",
              "type": "uint256"
            },
            {
              "internalType": "uint256",
              "name": "updatedAt",
              "type": "uint256"
            },
            {
              "internalType": "uint256",
              "name": "premium",
              "type": "uint256"
            },
            {
              "internalType": "uint256",
              "name": "payoutPerHour",
              "type": "uint256"
            },
            {
              "internalType": "uint256",
              "name": "delayThresholdHours",
              "type": "uint256"
            },
            {
              "internalType": "uint256",
              "name": "maxTotalPayout",
              "type": "uint256"
            },
            {
              "internalType": "uint256",
              "name": "coverageDurationDays",
              "type": "uint256"
            },
            {
              "internalType": "enum FlightPolicy.PolicyTemplateStatus",
              "name": "status",
              "type": "uint8"
            }
          ],
          "internalType": "struct FlightPolicy.PolicyTemplate",
          "name": "template",
          "type": "tuple"
        },
        {
          "internalType": "string",
          "name": "flightNumber",
          "type": "string"
        },
        {
          "internalType": "string",
          "name": "departureAirportCode",
          "type": "string"
        },
        {
          "internalType": "string",
          "name": "arrivalAirportCode",
          "type": "string"
        },
        {
          "internalType": "uint256",
          "name": "departureTime",
          "type": "uint256"
        }
      ],
      "name": "purchaseFlightPolicy",
      "outputs": [],
      "stateMutability": "payable",
      "type": "function"
    },
    {
      "inputs": [
        {
          "internalType": "uint256",
          "name": "amountInWei",
          "type": "uint256"
        }
      ],
      "name": "withdraw",
      "outputs": [],
      "stateMutability": "nonpayable",
      "type": "function"
    },
    {
      "stateMutability": "payable",
      "type": "receive"
    }
  ],
  "bytecode": "0x60a06040523480156200001157600080fd5b5060405162003a1f38038062003a1f83398181016040528101906200003791906200015e565b3373ffffffffffffffffffffffffffffffffffffffff1660808173ffffffffffffffffffffffffffffffffffffffff1681525050816000806101000a81548173ffffffffffffffffffffffffffffffffffffffff021916908373ffffffffffffffffffffffffffffffffffffffff16021790555080600160006101000a81548173ffffffffffffffffffffffffffffffffffffffff021916908373ffffffffffffffffffffffffffffffffffffffff1602179055505050620001a5565b600080fd5b600073ffffffffffffffffffffffffffffffffffffffff82169050919050565b60006200012682620000f9565b9050919050565b620001388162000119565b81146200014457600080fd5b50565b60008151905062000158816200012d565b92915050565b60008060408385031215620001785762000177620000f4565b5b6000620001888582860162000147565b92505060206200019b8582860162000147565b9150509250929050565b608051613818620002076000396000818161048001528181610551015281816105b80152818161062b015281816107520152818161091a01528181610e5f01528181610fd701528181611100015281816111d1015261124301526138186000f3fe60806040526004361061010d5760003560e01c8063a4472e3211610095578063ca7e292911610064578063ca7e292914610380578063d0e30db0146103ab578063da7897e2146103b5578063f368bc27146103f2578063f8aa1d951461041d57610114565b8063a4472e32146102bf578063a7c0900e146102db578063b715521b14610306578063bc8e51651461034357610114565b80636db30bad116100dc5780636db30bad146101c15780636f9fb98a146101fe5780637fba9ee514610229578063825ab849146102665780638350e578146102a357610114565b806307116510146101195780632e1a7d4d146101445780634dd7b2a81461016d578063516f92f71461019857610114565b3661011457005b600080fd5b34801561012557600080fd5b5061012e61045a565b60405161013b9190611646565b60405180910390f35b34801561015057600080fd5b5061016b600480360381019061016691906116ab565b61047e565b005b34801561017957600080fd5b50610182610627565b60405161018f9190611b05565b60405180910390f35b3480156101a457600080fd5b506101bf60048036038101906101ba91906116ab565b610750565b005b3480156101cd57600080fd5b506101e860048036038101906101e39190611c5c565b61086e565b6040516101f59190611b05565b60405180910390f35b34801561020a57600080fd5b50610213610916565b6040516102209190611cb4565b60405180910390f35b34801561023557600080fd5b50610250600480360381019061024b9190611c5c565b6109ac565b60405161025d9190611fc1565b60405180910390f35b34801561027257600080fd5b5061028d60048036038101906102889190612258565b610a56565b60405161029a919061236b565b60405180910390f35b6102bd60048036038101906102b89190612512565b610b7b565b005b6102d960048036038101906102d491906125fd565b610cf0565b005b3480156102e757600080fd5b506102f0610e5d565b6040516102fd9190612684565b60405180910390f35b34801561031257600080fd5b5061032d600480360381019061032891906126cb565b610e81565b60405161033a9190611b05565b60405180910390f35b34801561034f57600080fd5b5061036a600480360381019061036591906126cb565b610f29565b6040516103779190611fc1565b60405180910390f35b34801561038c57600080fd5b50610395610fd3565b6040516103a29190611fc1565b60405180910390f35b6103b36110fe565b005b3480156103c157600080fd5b506103dc60048036038101906103d791906126cb565b61123f565b6040516103e99190612707565b60405180910390f35b3480156103fe57600080fd5b50610407611297565b6040516104149190612743565b60405180910390f35b34801561042957600080fd5b50610444600480360381019061043f919061283f565b6112bd565b604051610451919061236b565b60405180910390f35b60008054906101000a900473ffffffffffffffffffffffffffffffffffffffff1681565b7f000000000000000000000000000000000000000000000000000000000000000073ffffffffffffffffffffffffffffffffffffffff163373ffffffffffffffffffffffffffffffffffffffff161461050c576040517f08c379a00000000000000000000000000000000000000000000000000000000081526004016105039061290b565b60405180910390fd5b8047101561054f576040517f08c379a000000000000000000000000000000000000000000000000000000000815260040161054690612977565b60405180910390fd5b7f000000000000000000000000000000000000000000000000000000000000000073ffffffffffffffffffffffffffffffffffffffff166108fc829081150290604051600060405180830381858888f193505050501580156105b5573d6000803e3d6000fd5b507f000000000000000000000000000000000000000000000000000000000000000073ffffffffffffffffffffffffffffffffffffffff167feaff4b37086828766ad3268786972c0cd24259d4c87a80f9d3963a3c3d999b0d8260405161061c9190611cb4565b60405180910390a250565b60607f000000000000000000000000000000000000000000000000000000000000000073ffffffffffffffffffffffffffffffffffffffff163373ffffffffffffffffffffffffffffffffffffffff16146106b7576040517f08c379a00000000000000000000000000000000000000000000000000000000081526004016106ae9061290b565b60405180910390fd5b60008054906101000a900473ffffffffffffffffffffffffffffffffffffffff1673ffffffffffffffffffffffffffffffffffffffff1663457e55216040518163ffffffff1660e01b8152600401600060405180830381865afa158015610722573d6000803e3d6000fd5b505050506040513d6000823e3d601f19601f8201168201806040525081019061074b9190612e12565b905090565b7f000000000000000000000000000000000000000000000000000000000000000073ffffffffffffffffffffffffffffffffffffffff163373ffffffffffffffffffffffffffffffffffffffff16146107de576040517f08c379a00000000000000000000000000000000000000000000000000000000081526004016107d59061290b565b60405180910390fd5b600160009054906101000a900473ffffffffffffffffffffffffffffffffffffffff1673ffffffffffffffffffffffffffffffffffffffff1663cf39c624826040518263ffffffff1660e01b81526004016108399190611cb4565b600060405180830381600087803b15801561085357600080fd5b505af1158015610867573d6000803e3d6000fd5b5050505050565b606060008054906101000a900473ffffffffffffffffffffffffffffffffffffffff1673ffffffffffffffffffffffffffffffffffffffff16639c6cf7ef836040518263ffffffff1660e01b81526004016108c99190612e94565b600060405180830381865afa1580156108e6573d6000803e3d6000fd5b505050506040513d6000823e3d601f19601f8201168201806040525081019061090f9190612e12565b9050919050565b60007f000000000000000000000000000000000000000000000000000000000000000073ffffffffffffffffffffffffffffffffffffffff163373ffffffffffffffffffffffffffffffffffffffff16146109a6576040517f08c379a000000000000000000000000000000000000000000000000000000000815260040161099d9061290b565b60405180910390fd5b47905090565b6060600160009054906101000a900473ffffffffffffffffffffffffffffffffffffffff1673ffffffffffffffffffffffffffffffffffffffff16639c6cf7ef836040518263ffffffff1660e01b8152600401610a099190612e94565b600060405180830381865afa158015610a26573d6000803e3d6000fd5b505050506040513d6000823e3d601f19601f82011682018060405250810190610a4f919061321d565b9050919050565b60606000825167ffffffffffffffff811115610a7557610a74611b31565b5b604051908082528060200260200182016040528015610aa35781602001602082028036833780820191505090505b5090506000610ab06113e2565b905060005b8451811015610b70576000858281518110610ad357610ad2613266565b5b6020026020010151610100015183610aeb91906132c4565b905047670de0b6b3a764000082610b0291906132f8565b1115610b34576000848381518110610b1d57610b1c613266565b5b602002602001019015159081151581525050610b5c565b6001848381518110610b4957610b48613266565b5b6020026020010190151590811515815250505b508080610b689061333a565b915050610ab5565b508192505050919050565b6000610b856113e2565b905085610100015181610b9891906132c4565b905047811115610bdd576040517f08c379a0000000000000000000000000000000000000000000000000000000008152600401610bd4906133f4565b60405180910390fd5b60008060009054906101000a900473ffffffffffffffffffffffffffffffffffffffff1673ffffffffffffffffffffffffffffffffffffffff166331953ecc348989898989336040518863ffffffff1660e01b8152600401610c4496959493929190613511565b60206040518083038185885af1158015610c62573d6000803e3d6000fd5b50505050506040513d601f19601f82011682018060405250810190610c87919061358e565b90508660000151604051610c9b91906135f7565b6040518091039020813373ffffffffffffffffffffffffffffffffffffffff167f43617ea01c45d3386d7be4a6cb66bf94c0152a674cbd34a5de81ed135dfd7b1760405160405180910390a450505050505050565b6000610cfa6113e2565b905082610100015181610d0d91906132c4565b905047811115610d52576040517f08c379a0000000000000000000000000000000000000000000000000000000008152600401610d49906133f4565b60405180910390fd5b6000600160009054906101000a900473ffffffffffffffffffffffffffffffffffffffff1673ffffffffffffffffffffffffffffffffffffffff1663e0516149348686336040518563ffffffff1660e01b8152600401610db49392919061370b565b60206040518083038185885af1158015610dd2573d6000803e3d6000fd5b50505050506040513d601f19601f82011682018060405250810190610df7919061358e565b90508360000151604051610e0b91906135f7565b6040518091039020813373ffffffffffffffffffffffffffffffffffffffff167fd3ad849e96e45902e7d1f5bd084268392ad649bd4509857dbfd40ceb536aef3860405160405180910390a450505050565b7f000000000000000000000000000000000000000000000000000000000000000081565b606060008054906101000a900473ffffffffffffffffffffffffffffffffffffffff1673ffffffffffffffffffffffffffffffffffffffff166319ac4614836040518263ffffffff1660e01b8152600401610edc9190612684565b600060405180830381865afa158015610ef9573d6000803e3d6000fd5b505050506040513d6000823e3d601f19601f82011682018060405250810190610f229190612e12565b9050919050565b6060600160009054906101000a900473ffffffffffffffffffffffffffffffffffffffff1673ffffffffffffffffffffffffffffffffffffffff166319ac4614836040518263ffffffff1660e01b8152600401610f869190612684565b600060405180830381865afa158015610fa3573d6000803e3d6000fd5b505050506040513d6000823e3d601f19601f82011682018060405250810190610fcc919061321d565b9050919050565b60607f000000000000000000000000000000000000000000000000000000000000000073ffffffffffffffffffffffffffffffffffffffff163373ffffffffffffffffffffffffffffffffffffffff1614611063576040517f08c379a000000000000000000000000000000000000000000000000000000000815260040161105a9061290b565b60405180910390fd5b600160009054906101000a900473ffffffffffffffffffffffffffffffffffffffff1673ffffffffffffffffffffffffffffffffffffffff1663457e55216040518163ffffffff1660e01b8152600401600060405180830381865afa1580156110d0573d6000803e3d6000fd5b505050506040513d6000823e3d601f19601f820116820180604052508101906110f9919061321d565b905090565b7f000000000000000000000000000000000000000000000000000000000000000073ffffffffffffffffffffffffffffffffffffffff163373ffffffffffffffffffffffffffffffffffffffff161461118c576040517f08c379a00000000000000000000000000000000000000000000000000000000081526004016111839061290b565b60405180910390fd5b600034116111cf576040517f08c379a00000000000000000000000000000000000000000000000000000000081526004016111c6906137c2565b60405180910390fd5b7f000000000000000000000000000000000000000000000000000000000000000073ffffffffffffffffffffffffffffffffffffffff167f543ba50a5eec5e6178218e364b1d0f396157b3c8fa278522c2cb7fd99407d474346040516112359190611cb4565b60405180910390a2565b60007f000000000000000000000000000000000000000000000000000000000000000073ffffffffffffffffffffffffffffffffffffffff168273ffffffffffffffffffffffffffffffffffffffff16149050919050565b600160009054906101000a900473ffffffffffffffffffffffffffffffffffffffff1681565b60606000825167ffffffffffffffff8111156112dc576112db611b31565b5b60405190808252806020026020018201604052801561130a5781602001602082028036833780820191505090505b50905060006113176113e2565b905060005b84518110156113d757600085828151811061133a57611339613266565b5b602002602001015161010001518361135291906132c4565b905047670de0b6b3a76400008261136991906132f8565b111561139b57600084838151811061138457611383613266565b5b6020026020010190151590811515815250506113c3565b60018483815181106113b0576113af613266565b5b6020026020010190151590811515815250505b5080806113cf9061333a565b91505061131c565b508192505050919050565b6000806000905060008060009054906101000a900473ffffffffffffffffffffffffffffffffffffffff1673ffffffffffffffffffffffffffffffffffffffff1663457e55216040518163ffffffff1660e01b8152600401600060405180830381865afa158015611457573d6000803e3d6000fd5b505050506040513d6000823e3d601f19601f820116820180604052508101906114809190612e12565b90506000600160009054906101000a900473ffffffffffffffffffffffffffffffffffffffff1673ffffffffffffffffffffffffffffffffffffffff1663457e55216040518163ffffffff1660e01b8152600401600060405180830381865afa1580156114f1573d6000803e3d6000fd5b505050506040513d6000823e3d601f19601f8201168201806040525081019061151a919061321d565b905060005b825181101561156c5782818151811061153b5761153a613266565b5b60200260200101516020015161010001518461155791906132c4565b935080806115649061333a565b91505061151f565b5060005b81518110156115bd5781818151811061158c5761158b613266565b5b6020026020010151602001516101000151846115a891906132c4565b935080806115b59061333a565b915050611570565b5082935050505090565b600073ffffffffffffffffffffffffffffffffffffffff82169050919050565b6000819050919050565b600061160c611607611602846115c7565b6115e7565b6115c7565b9050919050565b600061161e826115f1565b9050919050565b600061163082611613565b9050919050565b61164081611625565b82525050565b600060208201905061165b6000830184611637565b92915050565b6000604051905090565b600080fd5b600080fd5b6000819050919050565b61168881611675565b811461169357600080fd5b50565b6000813590506116a58161167f565b92915050565b6000602082840312156116c1576116c061166b565b5b60006116cf84828501611696565b91505092915050565b600081519050919050565b600082825260208201905092915050565b6000819050602082019050919050565b61170d81611675565b82525050565b600081519050919050565b600082825260208201905092915050565b60005b8381101561174d578082015181840152602081019050611732565b60008484015250505050565b6000601f19601f8301169050919050565b600061177582611713565b61177f818561171e565b935061178f81856020860161172f565b61179881611759565b840191505092915050565b7f4e487b7100000000000000000000000000000000000000000000000000000000600052602160045260246000fd5b600281106117e3576117e26117a3565b5b50565b60008190506117f4826117d2565b919050565b6000611804826117e6565b9050919050565b611814816117f9565b82525050565b6000610160830160008301518482036000860152611838828261176a565b91505060208301518482036020860152611852828261176a565b9150506040830151848203604086015261186c828261176a565b91505060608301516118816060860182611704565b5060808301516118946080860182611704565b5060a08301516118a760a0860182611704565b5060c08301516118ba60c0860182611704565b5060e08301516118cd60e0860182611704565b506101008301516118e2610100860182611704565b506101208301516118f7610120860182611704565b5061014083015161190c61014086018261180b565b508091505092915050565b6000611922826115c7565b9050919050565b61193281611917565b82525050565b60038110611949576119486117a3565b5b50565b600081905061195a82611938565b919050565b600061196a8261194c565b9050919050565b61197a8161195f565b82525050565b6000610140830160008301516119996000860182611704565b50602083015184820360208601526119b1828261181a565b915050604083015184820360408601526119cb828261176a565b915050606083015184820360608601526119e5828261176a565b915050608083015184820360808601526119ff828261176a565b91505060a0830151611a1460a0860182611704565b5060c0830151611a2760c0860182611704565b5060e0830151611a3a60e0860182611704565b50610100830151611a4f610100860182611929565b50610120830151611a64610120860182611971565b508091505092915050565b6000611a7b8383611980565b905092915050565b6000602082019050919050565b6000611a9b826116d8565b611aa581856116e3565b935083602082028501611ab7856116f4565b8060005b85811015611af35784840389528151611ad48582611a6f565b9450611adf83611a83565b925060208a01995050600181019050611abb565b50829750879550505050505092915050565b60006020820190508181036000830152611b1f8184611a90565b905092915050565b600080fd5b600080fd5b7f4e487b7100000000000000000000000000000000000000000000000000000000600052604160045260246000fd5b611b6982611759565b810181811067ffffffffffffffff82111715611b8857611b87611b31565b5b80604052505050565b6000611b9b611661565b9050611ba78282611b60565b919050565b600067ffffffffffffffff821115611bc757611bc6611b31565b5b611bd082611759565b9050602081019050919050565b82818337600083830152505050565b6000611bff611bfa84611bac565b611b91565b905082815260208101848484011115611c1b57611c1a611b2c565b5b611c26848285611bdd565b509392505050565b600082601f830112611c4357611c42611b27565b5b8135611c53848260208601611bec565b91505092915050565b600060208284031215611c7257611c7161166b565b5b600082013567ffffffffffffffff811115611c9057611c8f611670565b5b611c9c84828501611c2e565b91505092915050565b611cae81611675565b82525050565b6000602082019050611cc96000830184611ca5565b92915050565b600081519050919050565b600082825260208201905092915050565b6000819050602082019050919050565b60028110611d0c57611d0b6117a3565b5b50565b6000819050611d1d82611cfb565b919050565b6000611d2d82611d0f565b9050919050565b611d3d81611d22565b82525050565b6000610160830160008301518482036000860152611d61828261176a565b91505060208301518482036020860152611d7b828261176a565b91505060408301518482036040860152611d95828261176a565b9150506060830151611daa6060860182611704565b506080830151611dbd6080860182611704565b5060a0830151611dd060a0860182611704565b5060c0830151611de360c0860182611704565b5060e0830151611df660e0860182611704565b50610100830151611e0b610100860182611704565b50610120830151611e20610120860182611704565b50610140830151611e35610140860182611d34565b508091505092915050565b60038110611e5157611e506117a3565b5b50565b6000819050611e6282611e40565b919050565b6000611e7282611e54565b9050919050565b611e8281611e67565b82525050565b600060e083016000830151611ea06000860182611704565b5060208301518482036020860152611eb88282611d43565b91505060408301518482036040860152611ed2828261176a565b9150506060830151611ee76060860182611704565b506080830151611efa6080860182611704565b5060a0830151611f0d60a0860182611929565b5060c0830151611f2060c0860182611e79565b508091505092915050565b6000611f378383611e88565b905092915050565b6000602082019050919050565b6000611f5782611ccf565b611f618185611cda565b935083602082028501611f7385611ceb565b8060005b85811015611faf5784840389528151611f908582611f2b565b9450611f9b83611f3f565b925060208a01995050600181019050611f77565b50829750879550505050505092915050565b60006020820190508181036000830152611fdb8184611f4c565b905092915050565b600067ffffffffffffffff821115611ffe57611ffd611b31565b5b602082029050602081019050919050565b600080fd5b600080fd5b600080fd5b6002811061202b57600080fd5b50565b60008135905061203d8161201e565b92915050565b6000610160828403121561205a57612059612014565b5b612065610160611b91565b9050600082013567ffffffffffffffff81111561208557612084612019565b5b61209184828501611c2e565b600083015250602082013567ffffffffffffffff8111156120b5576120b4612019565b5b6120c184828501611c2e565b602083015250604082013567ffffffffffffffff8111156120e5576120e4612019565b5b6120f184828501611c2e565b604083015250606061210584828501611696565b606083015250608061211984828501611696565b60808301525060a061212d84828501611696565b60a08301525060c061214184828501611696565b60c08301525060e061215584828501611696565b60e08301525061010061216a84828501611696565b6101008301525061012061218084828501611696565b610120830152506101406121968482850161202e565b6101408301525092915050565b60006121b66121b184611fe3565b611b91565b905080838252602082019050602084028301858111156121d9576121d861200f565b5b835b8181101561222057803567ffffffffffffffff8111156121fe576121fd611b27565b5b80860161220b8982612043565b855260208501945050506020810190506121db565b5050509392505050565b600082601f83011261223f5761223e611b27565b5b813561224f8482602086016121a3565b91505092915050565b60006020828403121561226e5761226d61166b565b5b600082013567ffffffffffffffff81111561228c5761228b611670565b5b6122988482850161222a565b91505092915050565b600081519050919050565b600082825260208201905092915050565b6000819050602082019050919050565b60008115159050919050565b6122e2816122cd565b82525050565b60006122f483836122d9565b60208301905092915050565b6000602082019050919050565b6000612318826122a1565b61232281856122ac565b935061232d836122bd565b8060005b8381101561235e57815161234588826122e8565b975061235083612300565b925050600181019050612331565b5085935050505092915050565b60006020820190508181036000830152612385818461230d565b905092915050565b6002811061239a57600080fd5b50565b6000813590506123ac8161238d565b92915050565b600061016082840312156123c9576123c8612014565b5b6123d4610160611b91565b9050600082013567ffffffffffffffff8111156123f4576123f3612019565b5b61240084828501611c2e565b600083015250602082013567ffffffffffffffff81111561242457612423612019565b5b61243084828501611c2e565b602083015250604082013567ffffffffffffffff81111561245457612453612019565b5b61246084828501611c2e565b604083015250606061247484828501611696565b606083015250608061248884828501611696565b60808301525060a061249c84828501611696565b60a08301525060c06124b084828501611696565b60c08301525060e06124c484828501611696565b60e0830152506101006124d984828501611696565b610100830152506101206124ef84828501611696565b610120830152506101406125058482850161239d565b6101408301525092915050565b600080600080600060a0868803121561252e5761252d61166b565b5b600086013567ffffffffffffffff81111561254c5761254b611670565b5b612558888289016123b2565b955050602086013567ffffffffffffffff81111561257957612578611670565b5b61258588828901611c2e565b945050604086013567ffffffffffffffff8111156125a6576125a5611670565b5b6125b288828901611c2e565b935050606086013567ffffffffffffffff8111156125d3576125d2611670565b5b6125df88828901611c2e565b92505060806125f088828901611696565b9150509295509295909350565b600080604083850312156126145761261361166b565b5b600083013567ffffffffffffffff81111561263257612631611670565b5b61263e85828601612043565b925050602083013567ffffffffffffffff81111561265f5761265e611670565b5b61266b85828601611c2e565b9150509250929050565b61267e81611917565b82525050565b60006020820190506126996000830184612675565b92915050565b6126a881611917565b81146126b357600080fd5b50565b6000813590506126c58161269f565b92915050565b6000602082840312156126e1576126e061166b565b5b60006126ef848285016126b6565b91505092915050565b612701816122cd565b82525050565b600060208201905061271c60008301846126f8565b92915050565b600061272d82611613565b9050919050565b61273d81612722565b82525050565b60006020820190506127586000830184612734565b92915050565b600067ffffffffffffffff82111561277957612778611b31565b5b602082029050602081019050919050565b600061279d6127988461275e565b611b91565b905080838252602082019050602084028301858111156127c0576127bf61200f565b5b835b8181101561280757803567ffffffffffffffff8111156127e5576127e4611b27565b5b8086016127f289826123b2565b855260208501945050506020810190506127c2565b5050509392505050565b600082601f83011261282657612825611b27565b5b813561283684826020860161278a565b91505092915050565b6000602082840312156128555761285461166b565b5b600082013567ffffffffffffffff81111561287357612872611670565b5b61287f84828501612811565b91505092915050565b600082825260208201905092915050565b7f496e73757265723a204f6e6c792074686520696e73757265722063616e20636160008201527f6c6c207468697300000000000000000000000000000000000000000000000000602082015250565b60006128f5602783612888565b915061290082612899565b604082019050919050565b60006020820190508181036000830152612924816128e8565b9050919050565b7f496e73756666696369656e742062616c616e6365000000000000000000000000600082015250565b6000612961601483612888565b915061296c8261292b565b602082019050919050565b6000602082019050818103600083015261299081612954565b9050919050565b600067ffffffffffffffff8211156129b2576129b1611b31565b5b602082029050602081019050919050565b6000815190506129d28161167f565b92915050565b60006129eb6129e684611bac565b611b91565b905082815260208101848484011115612a0757612a06611b2c565b5b612a1284828561172f565b509392505050565b600082601f830112612a2f57612a2e611b27565b5b8151612a3f8482602086016129d8565b91505092915050565b600081519050612a578161238d565b92915050565b60006101608284031215612a7457612a73612014565b5b612a7f610160611b91565b9050600082015167ffffffffffffffff811115612a9f57612a9e612019565b5b612aab84828501612a1a565b600083015250602082015167ffffffffffffffff811115612acf57612ace612019565b5b612adb84828501612a1a565b602083015250604082015167ffffffffffffffff811115612aff57612afe612019565b5b612b0b84828501612a1a565b6040830152506060612b1f848285016129c3565b6060830152506080612b33848285016129c3565b60808301525060a0612b47848285016129c3565b60a08301525060c0612b5b848285016129c3565b60c08301525060e0612b6f848285016129c3565b60e083015250610100612b84848285016129c3565b61010083015250610120612b9a848285016129c3565b61012083015250610140612bb084828501612a48565b6101408301525092915050565b600081519050612bcc8161269f565b92915050565b60038110612bdf57600080fd5b50565b600081519050612bf181612bd2565b92915050565b60006101408284031215612c0e57612c0d612014565b5b612c19610140611b91565b90506000612c29848285016129c3565b600083015250602082015167ffffffffffffffff811115612c4d57612c4c612019565b5b612c5984828501612a5d565b602083015250604082015167ffffffffffffffff811115612c7d57612c7c612019565b5b612c8984828501612a1a565b604083015250606082015167ffffffffffffffff811115612cad57612cac612019565b5b612cb984828501612a1a565b606083015250608082015167ffffffffffffffff811115612cdd57612cdc612019565b5b612ce984828501612a1a565b60808301525060a0612cfd848285016129c3565b60a08301525060c0612d11848285016129c3565b60c08301525060e0612d25848285016129c3565b60e083015250610100612d3a84828501612bbd565b61010083015250610120612d5084828501612be2565b6101208301525092915050565b6000612d70612d6b84612997565b611b91565b90508083825260208201905060208402830185811115612d9357612d9261200f565b5b835b81811015612dda57805167ffffffffffffffff811115612db857612db7611b27565b5b808601612dc58982612bf7565b85526020850194505050602081019050612d95565b5050509392505050565b600082601f830112612df957612df8611b27565b5b8151612e09848260208601612d5d565b91505092915050565b600060208284031215612e2857612e2761166b565b5b600082015167ffffffffffffffff811115612e4657612e45611670565b5b612e5284828501612de4565b91505092915050565b6000612e6682611713565b612e708185612888565b9350612e8081856020860161172f565b612e8981611759565b840191505092915050565b60006020820190508181036000830152612eae8184612e5b565b905092915050565b600067ffffffffffffffff821115612ed157612ed0611b31565b5b602082029050602081019050919050565b600081519050612ef18161201e565b92915050565b60006101608284031215612f0e57612f0d612014565b5b612f19610160611b91565b9050600082015167ffffffffffffffff811115612f3957612f38612019565b5b612f4584828501612a1a565b600083015250602082015167ffffffffffffffff811115612f6957612f68612019565b5b612f7584828501612a1a565b602083015250604082015167ffffffffffffffff811115612f9957612f98612019565b5b612fa584828501612a1a565b6040830152506060612fb9848285016129c3565b6060830152506080612fcd848285016129c3565b60808301525060a0612fe1848285016129c3565b60a08301525060c0612ff5848285016129c3565b60c08301525060e0613009848285016129c3565b60e08301525061010061301e848285016129c3565b61010083015250610120613034848285016129c3565b6101208301525061014061304a84828501612ee2565b6101408301525092915050565b6003811061306457600080fd5b50565b60008151905061307681613057565b92915050565b600060e0828403121561309257613091612014565b5b61309c60e0611b91565b905060006130ac848285016129c3565b600083015250602082015167ffffffffffffffff8111156130d0576130cf612019565b5b6130dc84828501612ef7565b602083015250604082015167ffffffffffffffff811115613100576130ff612019565b5b61310c84828501612a1a565b6040830152506060613120848285016129c3565b6060830152506080613134848285016129c3565b60808301525060a061314884828501612bbd565b60a08301525060c061315c84828501613067565b60c08301525092915050565b600061317b61317684612eb6565b611b91565b9050808382526020820190506020840283018581111561319e5761319d61200f565b5b835b818110156131e557805167ffffffffffffffff8111156131c3576131c2611b27565b5b8086016131d0898261307c565b855260208501945050506020810190506131a0565b5050509392505050565b600082601f83011261320457613203611b27565b5b8151613214848260208601613168565b91505092915050565b6000602082840312156132335761323261166b565b5b600082015167ffffffffffffffff81111561325157613250611670565b5b61325d848285016131ef565b91505092915050565b7f4e487b7100000000000000000000000000000000000000000000000000000000600052603260045260246000fd5b7f4e487b7100000000000000000000000000000000000000000000000000000000600052601160045260246000fd5b60006132cf82611675565b91506132da83611675565b92508282019050808211156132f2576132f1613295565b5b92915050565b600061330382611675565b915061330e83611675565b925082820261331c81611675565b9150828204841483151761333357613332613295565b5b5092915050565b600061334582611675565b91507fffffffffffffffffffffffffffffffffffffffffffffffffffffffffffffffff820361337757613376613295565b5b600182019050919050565b7f496e73756666696369656e7420636f6e74726163742062616c616e636520746f60008201527f20636f76657220706f74656e7469616c207061796f7574730000000000000000602082015250565b60006133de603883612888565b91506133e982613382565b604082019050919050565b6000602082019050818103600083015261340d816133d1565b9050919050565b6000610160830160008301518482036000860152613432828261176a565b9150506020830151848203602086015261344c828261176a565b91505060408301518482036040860152613466828261176a565b915050606083015161347b6060860182611704565b50608083015161348e6080860182611704565b5060a08301516134a160a0860182611704565b5060c08301516134b460c0860182611704565b5060e08301516134c760e0860182611704565b506101008301516134dc610100860182611704565b506101208301516134f1610120860182611704565b5061014083015161350661014086018261180b565b508091505092915050565b600060c082019050818103600083015261352b8189613414565b9050818103602083015261353f8188612e5b565b905081810360408301526135538187612e5b565b905081810360608301526135678186612e5b565b90506135766080830185611ca5565b61358360a0830184612675565b979650505050505050565b6000602082840312156135a4576135a361166b565b5b60006135b2848285016129c3565b91505092915050565b600081905092915050565b60006135d182611713565b6135db81856135bb565b93506135eb81856020860161172f565b80840191505092915050565b600061360382846135c6565b915081905092915050565b600061016083016000830151848203600086015261362c828261176a565b91505060208301518482036020860152613646828261176a565b91505060408301518482036040860152613660828261176a565b91505060608301516136756060860182611704565b5060808301516136886080860182611704565b5060a083015161369b60a0860182611704565b5060c08301516136ae60c0860182611704565b5060e08301516136c160e0860182611704565b506101008301516136d6610100860182611704565b506101208301516136eb610120860182611704565b50610140830151613700610140860182611d34565b508091505092915050565b60006060820190508181036000830152613725818661360e565b905081810360208301526137398185612e5b565b90506137486040830184612675565b949350505050565b7f496e73757265723a204d757374206465706f736974206120706f73697469766560008201527f20616d6f756e7400000000000000000000000000000000000000000000000000602082015250565b60006137ac602783612888565b91506137b782613750565b604082019050919050565b600060208201905081810360008301526137db8161379f565b905091905056fea264697066735822122097691f2929fc3a0f53fce85e8802a414da0cc59f422bbf0d5d0fc22a3c390e4464736f6c63430008130033",
  "linkReferences": {},
  "deployedLinkReferences": {}
}