{
  "_format": "hh-sol-artifact-1",
  "contractName": "Insurer",
  "sourceName": "contracts/Insurer.sol",
  "abi": [
    {
      "inputs": [
        {
          "internalType": "address",
          "name": "_flightPolicyAddress",
          "type": "address"
        }
      ],
      "stateMutability": "nonpayable",
      "type": "constructor"
    },
    {
      "anonymous": false,
      "inputs": [
        {
          "indexed": true,
          "internalType": "address",
          "name": "buyer",
          "type": "address"
        },
        {
          "indexed": true,
          "internalType": "uint256",
          "name": "policyId",
          "type": "uint256"
        },
        {
          "indexed": true,
          "internalType": "uint256",
          "name": "templateId",
          "type": "uint256"
        }
      ],
      "name": "FlightPolicyPurchased",
      "type": "event"
    },
    {
      "anonymous": false,
      "inputs": [
        {
          "indexed": true,
          "internalType": "uint256",
          "name": "templateId",
          "type": "uint256"
        },
        {
          "indexed": false,
          "internalType": "string",
          "name": "name",
          "type": "string"
        }
      ],
      "name": "FlightPolicyTemplateCreated",
      "type": "event"
    },
    {
      "anonymous": false,
      "inputs": [
        {
          "indexed": true,
          "internalType": "uint256",
          "name": "templateId",
          "type": "uint256"
        }
      ],
      "name": "FlightPolicyTemplateDeactivated",
      "type": "event"
    },
    {
      "inputs": [
        {
          "internalType": "string",
          "name": "name",
          "type": "string"
        },
        {
          "internalType": "string",
          "name": "description",
          "type": "string"
        },
        {
          "internalType": "uint256",
          "name": "premium",
          "type": "uint256"
        },
        {
          "internalType": "uint256",
          "name": "payoutPerHour",
          "type": "uint256"
        },
        {
          "internalType": "uint256",
          "name": "delayThresholdHours",
          "type": "uint256"
        },
        {
          "internalType": "uint256",
          "name": "maxTotalPayout",
          "type": "uint256"
        },
        {
          "internalType": "uint256",
          "name": "coverageDurationDays",
          "type": "uint256"
        }
      ],
      "name": "createFlightPolicyTemplate",
      "outputs": [],
      "stateMutability": "nonpayable",
      "type": "function"
    },
    {
      "inputs": [
        {
          "internalType": "uint256",
          "name": "templateId",
          "type": "uint256"
        }
      ],
      "name": "deactivateFlightPolicyTemplate",
      "outputs": [],
      "stateMutability": "nonpayable",
      "type": "function"
    },
    {
      "inputs": [],
      "name": "flightPolicy",
      "outputs": [
        {
          "internalType": "contract FlightPolicy",
          "name": "",
          "type": "address"
        }
      ],
      "stateMutability": "view",
      "type": "function"
    },
    {
      "inputs": [],
      "name": "getActiveFlightPolicyTemplates",
      "outputs": [
        {
          "components": [
            {
              "internalType": "uint256",
              "name": "templateId",
              "type": "uint256"
            },
            {
              "internalType": "string",
              "name": "name",
              "type": "string"
            },
            {
              "internalType": "string",
              "name": "description",
              "type": "string"
            },
            {
              "internalType": "uint256",
              "name": "createdAt",
              "type": "uint256"
            },
            {
              "internalType": "uint256",
              "name": "premium",
              "type": "uint256"
            },
            {
              "internalType": "uint256",
              "name": "payoutPerHour",
              "type": "uint256"
            },
            {
              "internalType": "uint256",
              "name": "delayThresholdHours",
              "type": "uint256"
            },
            {
              "internalType": "uint256",
              "name": "maxTotalPayout",
              "type": "uint256"
            },
            {
              "internalType": "uint256",
              "name": "coverageDurationDays",
              "type": "uint256"
            },
            {
              "internalType": "enum FlightPolicy.PolicyTemplateStatus",
              "name": "status",
              "type": "uint8"
            }
          ],
          "internalType": "struct FlightPolicy.PolicyTemplate[]",
          "name": "",
          "type": "tuple[]"
        }
      ],
      "stateMutability": "view",
      "type": "function"
    },
    {
      "inputs": [],
      "name": "getAllFlightPolicies",
      "outputs": [
        {
          "components": [
            {
              "internalType": "uint256",
              "name": "policyId",
              "type": "uint256"
            },
            {
              "internalType": "uint256",
              "name": "templateId",
              "type": "uint256"
            },
            {
              "internalType": "string",
              "name": "flightNumber",
              "type": "string"
            },
            {
              "internalType": "string",
              "name": "departureAirportCode",
              "type": "string"
            },
            {
              "internalType": "string",
              "name": "arrivalAirportCode",
              "type": "string"
            },
            {
              "internalType": "uint256",
              "name": "departureTime",
              "type": "uint256"
            },
            {
              "internalType": "uint256",
              "name": "createdAt",
              "type": "uint256"
            },
            {
              "internalType": "uint256",
              "name": "payoutToDate",
              "type": "uint256"
            },
            {
              "internalType": "address",
              "name": "buyer",
              "type": "address"
            },
            {
              "internalType": "enum FlightPolicy.PolicyStatus",
              "name": "status",
              "type": "uint8"
            }
          ],
          "internalType": "struct FlightPolicy.UserPolicy[]",
          "name": "",
          "type": "tuple[]"
        }
      ],
      "stateMutability": "view",
      "type": "function"
    },
    {
      "inputs": [],
      "name": "getAllFlightPolicyTemplates",
      "outputs": [
        {
          "components": [
            {
              "internalType": "uint256",
              "name": "templateId",
              "type": "uint256"
            },
            {
              "internalType": "string",
              "name": "name",
              "type": "string"
            },
            {
              "internalType": "string",
              "name": "description",
              "type": "string"
            },
            {
              "internalType": "uint256",
              "name": "createdAt",
              "type": "uint256"
            },
            {
              "internalType": "uint256",
              "name": "premium",
              "type": "uint256"
            },
            {
              "internalType": "uint256",
              "name": "payoutPerHour",
              "type": "uint256"
            },
            {
              "internalType": "uint256",
              "name": "delayThresholdHours",
              "type": "uint256"
            },
            {
              "internalType": "uint256",
              "name": "maxTotalPayout",
              "type": "uint256"
            },
            {
              "internalType": "uint256",
              "name": "coverageDurationDays",
              "type": "uint256"
            },
            {
              "internalType": "enum FlightPolicy.PolicyTemplateStatus",
              "name": "status",
              "type": "uint8"
            }
          ],
          "internalType": "struct FlightPolicy.PolicyTemplate[]",
          "name": "",
          "type": "tuple[]"
        }
      ],
      "stateMutability": "view",
      "type": "function"
    },
    {
      "inputs": [
        {
          "internalType": "uint256",
          "name": "templateId",
          "type": "uint256"
        }
      ],
      "name": "getFlightPolicyTemplateById",
      "outputs": [
        {
          "components": [
            {
              "internalType": "uint256",
              "name": "templateId",
              "type": "uint256"
            },
            {
              "internalType": "string",
              "name": "name",
              "type": "string"
            },
            {
              "internalType": "string",
              "name": "description",
              "type": "string"
            },
            {
              "internalType": "uint256",
              "name": "createdAt",
              "type": "uint256"
            },
            {
              "internalType": "uint256",
              "name": "premium",
              "type": "uint256"
            },
            {
              "internalType": "uint256",
              "name": "payoutPerHour",
              "type": "uint256"
            },
            {
              "internalType": "uint256",
              "name": "delayThresholdHours",
              "type": "uint256"
            },
            {
              "internalType": "uint256",
              "name": "maxTotalPayout",
              "type": "uint256"
            },
            {
              "internalType": "uint256",
              "name": "coverageDurationDays",
              "type": "uint256"
            },
            {
              "internalType": "enum FlightPolicy.PolicyTemplateStatus",
              "name": "status",
              "type": "uint8"
            }
          ],
          "internalType": "struct FlightPolicy.PolicyTemplate",
          "name": "",
          "type": "tuple"
        }
      ],
      "stateMutability": "view",
      "type": "function"
    },
    {
      "inputs": [
        {
          "internalType": "address",
          "name": "user",
          "type": "address"
        },
        {
          "internalType": "uint256",
          "name": "policyId",
          "type": "uint256"
        }
      ],
      "name": "getFlightPolicyWithTemplate",
      "outputs": [
        {
          "components": [
            {
              "internalType": "uint256",
              "name": "policyId",
              "type": "uint256"
            },
            {
              "internalType": "uint256",
              "name": "templateId",
              "type": "uint256"
            },
            {
              "internalType": "string",
              "name": "flightNumber",
              "type": "string"
            },
            {
              "internalType": "string",
              "name": "departureAirportCode",
              "type": "string"
            },
            {
              "internalType": "string",
              "name": "arrivalAirportCode",
              "type": "string"
            },
            {
              "internalType": "uint256",
              "name": "departureTime",
              "type": "uint256"
            },
            {
              "internalType": "uint256",
              "name": "createdAt",
              "type": "uint256"
            },
            {
              "internalType": "uint256",
              "name": "payoutToDate",
              "type": "uint256"
            },
            {
              "internalType": "address",
              "name": "buyer",
              "type": "address"
            },
            {
              "internalType": "enum FlightPolicy.PolicyStatus",
              "name": "status",
              "type": "uint8"
            }
          ],
          "internalType": "struct FlightPolicy.UserPolicy",
          "name": "",
          "type": "tuple"
        },
        {
          "components": [
            {
              "internalType": "uint256",
              "name": "templateId",
              "type": "uint256"
            },
            {
              "internalType": "string",
              "name": "name",
              "type": "string"
            },
            {
              "internalType": "string",
              "name": "description",
              "type": "string"
            },
            {
              "internalType": "uint256",
              "name": "createdAt",
              "type": "uint256"
            },
            {
              "internalType": "uint256",
              "name": "premium",
              "type": "uint256"
            },
            {
              "internalType": "uint256",
              "name": "payoutPerHour",
              "type": "uint256"
            },
            {
              "internalType": "uint256",
              "name": "delayThresholdHours",
              "type": "uint256"
            },
            {
              "internalType": "uint256",
              "name": "maxTotalPayout",
              "type": "uint256"
            },
            {
              "internalType": "uint256",
              "name": "coverageDurationDays",
              "type": "uint256"
            },
            {
              "internalType": "enum FlightPolicy.PolicyTemplateStatus",
              "name": "status",
              "type": "uint8"
            }
          ],
          "internalType": "struct FlightPolicy.PolicyTemplate",
          "name": "",
          "type": "tuple"
        }
      ],
      "stateMutability": "view",
      "type": "function"
    },
    {
      "inputs": [
        {
          "internalType": "address",
          "name": "user",
          "type": "address"
        }
      ],
      "name": "getUserFlightPolicies",
      "outputs": [
        {
          "components": [
            {
              "internalType": "uint256",
              "name": "policyId",
              "type": "uint256"
            },
            {
              "internalType": "uint256",
              "name": "templateId",
              "type": "uint256"
            },
            {
              "internalType": "string",
              "name": "flightNumber",
              "type": "string"
            },
            {
              "internalType": "string",
              "name": "departureAirportCode",
              "type": "string"
            },
            {
              "internalType": "string",
              "name": "arrivalAirportCode",
              "type": "string"
            },
            {
              "internalType": "uint256",
              "name": "departureTime",
              "type": "uint256"
            },
            {
              "internalType": "uint256",
              "name": "createdAt",
              "type": "uint256"
            },
            {
              "internalType": "uint256",
              "name": "payoutToDate",
              "type": "uint256"
            },
            {
              "internalType": "address",
              "name": "buyer",
              "type": "address"
            },
            {
              "internalType": "enum FlightPolicy.PolicyStatus",
              "name": "status",
              "type": "uint8"
            }
          ],
          "internalType": "struct FlightPolicy.UserPolicy[]",
          "name": "",
          "type": "tuple[]"
        }
      ],
      "stateMutability": "view",
      "type": "function"
    },
    {
      "inputs": [
        {
          "internalType": "uint256",
          "name": "templateId",
          "type": "uint256"
        }
      ],
      "name": "getUserPoliciesByTemplate",
      "outputs": [
        {
          "components": [
            {
              "internalType": "uint256",
              "name": "policyId",
              "type": "uint256"
            },
            {
              "internalType": "uint256",
              "name": "templateId",
              "type": "uint256"
            },
            {
              "internalType": "string",
              "name": "flightNumber",
              "type": "string"
            },
            {
              "internalType": "string",
              "name": "departureAirportCode",
              "type": "string"
            },
            {
              "internalType": "string",
              "name": "arrivalAirportCode",
              "type": "string"
            },
            {
              "internalType": "uint256",
              "name": "departureTime",
              "type": "uint256"
            },
            {
              "internalType": "uint256",
              "name": "createdAt",
              "type": "uint256"
            },
            {
              "internalType": "uint256",
              "name": "payoutToDate",
              "type": "uint256"
            },
            {
              "internalType": "address",
              "name": "buyer",
              "type": "address"
            },
            {
              "internalType": "enum FlightPolicy.PolicyStatus",
              "name": "status",
              "type": "uint8"
            }
          ],
          "internalType": "struct FlightPolicy.UserPolicy[]",
          "name": "",
          "type": "tuple[]"
        }
      ],
      "stateMutability": "view",
      "type": "function"
    },
    {
      "inputs": [],
      "name": "insurerAddress",
      "outputs": [
        {
          "internalType": "address",
          "name": "",
          "type": "address"
        }
      ],
      "stateMutability": "view",
      "type": "function"
    },
    {
      "inputs": [
        {
          "internalType": "address",
          "name": "user",
          "type": "address"
        }
      ],
      "name": "isInsurer",
      "outputs": [
        {
          "internalType": "bool",
          "name": "",
          "type": "bool"
        }
      ],
      "stateMutability": "view",
      "type": "function"
    },
    {
      "inputs": [
        {
          "internalType": "address",
          "name": "buyer",
          "type": "address"
        },
        {
          "internalType": "uint256",
          "name": "policyId",
          "type": "uint256"
        }
      ],
      "name": "markFlightPolicyAsClaimed",
      "outputs": [],
      "stateMutability": "nonpayable",
      "type": "function"
    },
    {
      "inputs": [
        {
          "internalType": "uint256",
          "name": "policyId",
          "type": "uint256"
        }
      ],
      "name": "markFlightPolicyAsExpired",
      "outputs": [],
      "stateMutability": "nonpayable",
      "type": "function"
    },
    {
      "inputs": [
        {
          "internalType": "uint256",
          "name": "templateId",
          "type": "uint256"
        },
        {
          "internalType": "string",
          "name": "flightNumber",
          "type": "string"
        },
        {
          "internalType": "string",
          "name": "departureAirportCode",
          "type": "string"
        },
        {
          "internalType": "string",
          "name": "arrivalAirportCode",
          "type": "string"
        },
        {
          "internalType": "uint256",
          "name": "departureTime",
          "type": "uint256"
        }
      ],
      "name": "purchaseFlightPolicy",
      "outputs": [],
      "stateMutability": "payable",
      "type": "function"
    },
    {
      "inputs": [
        {
          "internalType": "uint256",
          "name": "amountInWei",
          "type": "uint256"
        }
      ],
      "name": "withdraw",
      "outputs": [],
      "stateMutability": "nonpayable",
      "type": "function"
    },
    {
      "stateMutability": "payable",
      "type": "receive"
    }
  ],
  "bytecode": "0x60a06040523480156200001157600080fd5b5060405162002a3b38038062002a3b83398181016040528101906200003791906200011c565b3373ffffffffffffffffffffffffffffffffffffffff1660808173ffffffffffffffffffffffffffffffffffffffff1681525050806000806101000a81548173ffffffffffffffffffffffffffffffffffffffff021916908373ffffffffffffffffffffffffffffffffffffffff160217905550506200014e565b600080fd5b600073ffffffffffffffffffffffffffffffffffffffff82169050919050565b6000620000e482620000b7565b9050919050565b620000f681620000d7565b81146200010257600080fd5b50565b6000815190506200011681620000eb565b92915050565b600060208284031215620001355762000134620000b2565b5b6000620001458482850162000105565b91505092915050565b60805161288b620001b0600039600081816104b601528181610587015281816105f901528181610826015281816109a501528181610ace01528181610bf401528181610d1001528181610e2f01528181610fa301526110ee015261288b6000f3fe6080604052600436106100f75760003560e01c80636906496e1161008a578063b715521b11610059578063b715521b14610314578063be3dfb7814610351578063da7897e21461037a578063f05e5b62146103b7576100fe565b80636906496e1461025a578063884d7f6414610283578063a7c0900e146102ac578063b55d4a2f146102d7576100fe565b806343c0e7cb116100c657806343c0e7cb146101bf5780634aefa0fe146101db5780634dd7b2a8146102045780636017f97e1461022f576100fe565b806307116510146101035780632287ddc41461012e5780632e1a7d4d1461015957806333018f4514610182576100fe565b366100fe57005b600080fd5b34801561010f57600080fd5b506101186103f5565b604051610125919061135d565b60405180910390f35b34801561013a57600080fd5b50610143610419565b604051610150919061163b565b60405180910390f35b34801561016557600080fd5b50610180600480360381019061017b919061169d565b6104b4565b005b34801561018e57600080fd5b506101a960048036038101906101a4919061169d565b6105ef565b6040516101b691906117ab565b60405180910390f35b6101d960048036038101906101d49190611902565b61072b565b005b3480156101e757600080fd5b5061020260048036038101906101fd91906119d1565b610824565b005b34801561021057600080fd5b506102196109a1565b6040516102269190611cbe565b60405180910390f35b34801561023b57600080fd5b50610244610aca565b604051610251919061163b565b60405180910390f35b34801561026657600080fd5b50610281600480360381019061027c919061169d565b610bf2565b005b34801561028f57600080fd5b506102aa60048036038101906102a59190611d0c565b610d0e565b005b3480156102b857600080fd5b506102c1610e2d565b6040516102ce9190611d5b565b60405180910390f35b3480156102e357600080fd5b506102fe60048036038101906102f9919061169d565b610e51565b60405161030b9190611cbe565b60405180910390f35b34801561032057600080fd5b5061033b60048036038101906103369190611d76565b610ef9565b6040516103489190611cbe565b60405180910390f35b34801561035d57600080fd5b506103786004803603810190610373919061169d565b610fa1565b005b34801561038657600080fd5b506103a1600480360381019061039c9190611d76565b6110ea565b6040516103ae9190611dbe565b60405180910390f35b3480156103c357600080fd5b506103de60048036038101906103d99190611d0c565b611142565b6040516103ec929190611ec1565b60405180910390f35b60008054906101000a900473ffffffffffffffffffffffffffffffffffffffff1681565b606060008054906101000a900473ffffffffffffffffffffffffffffffffffffffff1673ffffffffffffffffffffffffffffffffffffffff1663e79cdf1d6040518163ffffffff1660e01b8152600401600060405180830381865afa158015610486573d6000803e3d6000fd5b505050506040513d6000823e3d601f19601f820116820180604052508101906104af91906121c0565b905090565b7f000000000000000000000000000000000000000000000000000000000000000073ffffffffffffffffffffffffffffffffffffffff163373ffffffffffffffffffffffffffffffffffffffff1614610542576040517f08c379a00000000000000000000000000000000000000000000000000000000081526004016105399061228c565b60405180910390fd5b80471015610585576040517f08c379a000000000000000000000000000000000000000000000000000000000815260040161057c906122f8565b60405180910390fd5b7f000000000000000000000000000000000000000000000000000000000000000073ffffffffffffffffffffffffffffffffffffffff166108fc829081150290604051600060405180830381858888f193505050501580156105eb573d6000803e3d6000fd5b5050565b6105f76111fe565b7f000000000000000000000000000000000000000000000000000000000000000073ffffffffffffffffffffffffffffffffffffffff163373ffffffffffffffffffffffffffffffffffffffff1614610685576040517f08c379a000000000000000000000000000000000000000000000000000000000815260040161067c9061228c565b60405180910390fd5b60008054906101000a900473ffffffffffffffffffffffffffffffffffffffff1673ffffffffffffffffffffffffffffffffffffffff16635990fa36836040518263ffffffff1660e01b81526004016106de9190612327565b600060405180830381865afa1580156106fb573d6000803e3d6000fd5b505050506040513d6000823e3d601f19601f820116820180604052508101906107249190612342565b9050919050565b60008060009054906101000a900473ffffffffffffffffffffffffffffffffffffffff1673ffffffffffffffffffffffffffffffffffffffff1663b207edc7348888888888336040518863ffffffff1660e01b8152600401610792969594939291906123c4565b60206040518083038185885af11580156107b0573d6000803e3d6000fd5b50505050506040513d601f19601f820116820180604052508101906107d5919061243a565b905085813373ffffffffffffffffffffffffffffffffffffffff167feffe1aca794f1f12cecd2282e563efd5541b166abc4535dbd19df10aa98a16de60405160405180910390a4505050505050565b7f000000000000000000000000000000000000000000000000000000000000000073ffffffffffffffffffffffffffffffffffffffff163373ffffffffffffffffffffffffffffffffffffffff16146108b2576040517f08c379a00000000000000000000000000000000000000000000000000000000081526004016108a99061228c565b60405180910390fd5b60008060009054906101000a900473ffffffffffffffffffffffffffffffffffffffff1673ffffffffffffffffffffffffffffffffffffffff166388641494898989898989896040518863ffffffff1660e01b815260040161091a9796959493929190612467565b6020604051808303816000875af1158015610939573d6000803e3d6000fd5b505050506040513d601f19601f8201168201806040525081019061095d919061243a565b9050807fc69722450388b8bc8a6113ad1972ad8c8ddfde8ef6606ec1d011e195bc00dfb88960405161098f91906124e4565b60405180910390a25050505050505050565b60607f000000000000000000000000000000000000000000000000000000000000000073ffffffffffffffffffffffffffffffffffffffff163373ffffffffffffffffffffffffffffffffffffffff1614610a31576040517f08c379a0000000000000000000000000000000000000000000000000000000008152600401610a289061228c565b60405180910390fd5b60008054906101000a900473ffffffffffffffffffffffffffffffffffffffff1673ffffffffffffffffffffffffffffffffffffffff1663457e55216040518163ffffffff1660e01b8152600401600060405180830381865afa158015610a9c573d6000803e3d6000fd5b505050506040513d6000823e3d601f19601f82011682018060405250810190610ac5919061276b565b905090565b60607f000000000000000000000000000000000000000000000000000000000000000073ffffffffffffffffffffffffffffffffffffffff163373ffffffffffffffffffffffffffffffffffffffff1614610b5a576040517f08c379a0000000000000000000000000000000000000000000000000000000008152600401610b519061228c565b60405180910390fd5b60008054906101000a900473ffffffffffffffffffffffffffffffffffffffff1673ffffffffffffffffffffffffffffffffffffffff1662c84c046040518163ffffffff1660e01b8152600401600060405180830381865afa158015610bc4573d6000803e3d6000fd5b505050506040513d6000823e3d601f19601f82011682018060405250810190610bed91906121c0565b905090565b7f000000000000000000000000000000000000000000000000000000000000000073ffffffffffffffffffffffffffffffffffffffff163373ffffffffffffffffffffffffffffffffffffffff1614610c80576040517f08c379a0000000000000000000000000000000000000000000000000000000008152600401610c779061228c565b60405180910390fd5b60008054906101000a900473ffffffffffffffffffffffffffffffffffffffff1673ffffffffffffffffffffffffffffffffffffffff1663cf39c624826040518263ffffffff1660e01b8152600401610cd99190612327565b600060405180830381600087803b158015610cf357600080fd5b505af1158015610d07573d6000803e3d6000fd5b5050505050565b7f000000000000000000000000000000000000000000000000000000000000000073ffffffffffffffffffffffffffffffffffffffff163373ffffffffffffffffffffffffffffffffffffffff1614610d9c576040517f08c379a0000000000000000000000000000000000000000000000000000000008152600401610d939061228c565b60405180910390fd5b60008054906101000a900473ffffffffffffffffffffffffffffffffffffffff1673ffffffffffffffffffffffffffffffffffffffff166328cf382c83836040518363ffffffff1660e01b8152600401610df79291906127b4565b600060405180830381600087803b158015610e1157600080fd5b505af1158015610e25573d6000803e3d6000fd5b505050505050565b7f000000000000000000000000000000000000000000000000000000000000000081565b606060008054906101000a900473ffffffffffffffffffffffffffffffffffffffff1673ffffffffffffffffffffffffffffffffffffffff1663b55d4a2f836040518263ffffffff1660e01b8152600401610eac9190612327565b600060405180830381865afa158015610ec9573d6000803e3d6000fd5b505050506040513d6000823e3d601f19601f82011682018060405250810190610ef2919061276b565b9050919050565b606060008054906101000a900473ffffffffffffffffffffffffffffffffffffffff1673ffffffffffffffffffffffffffffffffffffffff166319ac4614836040518263ffffffff1660e01b8152600401610f549190611d5b565b600060405180830381865afa158015610f71573d6000803e3d6000fd5b505050506040513d6000823e3d601f19601f82011682018060405250810190610f9a919061276b565b9050919050565b7f000000000000000000000000000000000000000000000000000000000000000073ffffffffffffffffffffffffffffffffffffffff163373ffffffffffffffffffffffffffffffffffffffff161461102f576040517f08c379a00000000000000000000000000000000000000000000000000000000081526004016110269061228c565b60405180910390fd5b60008054906101000a900473ffffffffffffffffffffffffffffffffffffffff1673ffffffffffffffffffffffffffffffffffffffff1663482ab102826040518263ffffffff1660e01b81526004016110889190612327565b600060405180830381600087803b1580156110a257600080fd5b505af11580156110b6573d6000803e3d6000fd5b50505050807f143219b70842595e29b0ba3550cb75419efa6e37ecb13c1d58dcb81e6ff95f1960405160405180910390a250565b60007f000000000000000000000000000000000000000000000000000000000000000073ffffffffffffffffffffffffffffffffffffffff168273ffffffffffffffffffffffffffffffffffffffff16149050919050565b61114a611263565b6111526111fe565b60008054906101000a900473ffffffffffffffffffffffffffffffffffffffff1673ffffffffffffffffffffffffffffffffffffffff166313e896b685856040518363ffffffff1660e01b81526004016111ad9291906127b4565b600060405180830381865afa1580156111ca573d6000803e3d6000fd5b505050506040513d6000823e3d601f19601f820116820180604052508101906111f391906127dd565b915091509250929050565b6040518061014001604052806000815260200160608152602001606081526020016000815260200160008152602001600081526020016000815260200160008152602001600081526020016000600181111561125d5761125c61144d565b5b81525090565b6040518061014001604052806000815260200160008152602001606081526020016060815260200160608152602001600081526020016000815260200160008152602001600073ffffffffffffffffffffffffffffffffffffffff168152602001600060028111156112d8576112d761144d565b5b81525090565b600073ffffffffffffffffffffffffffffffffffffffff82169050919050565b6000819050919050565b600061132361131e611319846112de565b6112fe565b6112de565b9050919050565b600061133582611308565b9050919050565b60006113478261132a565b9050919050565b6113578161133c565b82525050565b6000602082019050611372600083018461134e565b92915050565b600081519050919050565b600082825260208201905092915050565b6000819050602082019050919050565b6000819050919050565b6113b7816113a4565b82525050565b600081519050919050565b600082825260208201905092915050565b60005b838110156113f75780820151818401526020810190506113dc565b60008484015250505050565b6000601f19601f8301169050919050565b600061141f826113bd565b61142981856113c8565b93506114398185602086016113d9565b61144281611403565b840191505092915050565b7f4e487b7100000000000000000000000000000000000000000000000000000000600052602160045260246000fd5b6002811061148d5761148c61144d565b5b50565b600081905061149e8261147c565b919050565b60006114ae82611490565b9050919050565b6114be816114a3565b82525050565b6000610140830160008301516114dd60008601826113ae565b50602083015184820360208601526114f58282611414565b9150506040830151848203604086015261150f8282611414565b915050606083015161152460608601826113ae565b50608083015161153760808601826113ae565b5060a083015161154a60a08601826113ae565b5060c083015161155d60c08601826113ae565b5060e083015161157060e08601826113ae565b506101008301516115856101008601826113ae565b5061012083015161159a6101208601826114b5565b508091505092915050565b60006115b183836114c4565b905092915050565b6000602082019050919050565b60006115d182611378565b6115db8185611383565b9350836020820285016115ed85611394565b8060005b85811015611629578484038952815161160a85826115a5565b9450611615836115b9565b925060208a019950506001810190506115f1565b50829750879550505050505092915050565b6000602082019050818103600083015261165581846115c6565b905092915050565b6000604051905090565b600080fd5b600080fd5b61167a816113a4565b811461168557600080fd5b50565b60008135905061169781611671565b92915050565b6000602082840312156116b3576116b2611667565b5b60006116c184828501611688565b91505092915050565b6000610140830160008301516116e360008601826113ae565b50602083015184820360208601526116fb8282611414565b915050604083015184820360408601526117158282611414565b915050606083015161172a60608601826113ae565b50608083015161173d60808601826113ae565b5060a083015161175060a08601826113ae565b5060c083015161176360c08601826113ae565b5060e083015161177660e08601826113ae565b5061010083015161178b6101008601826113ae565b506101208301516117a06101208601826114b5565b508091505092915050565b600060208201905081810360008301526117c581846116ca565b905092915050565b600080fd5b600080fd5b7f4e487b7100000000000000000000000000000000000000000000000000000000600052604160045260246000fd5b61180f82611403565b810181811067ffffffffffffffff8211171561182e5761182d6117d7565b5b80604052505050565b600061184161165d565b905061184d8282611806565b919050565b600067ffffffffffffffff82111561186d5761186c6117d7565b5b61187682611403565b9050602081019050919050565b82818337600083830152505050565b60006118a56118a084611852565b611837565b9050828152602081018484840111156118c1576118c06117d2565b5b6118cc848285611883565b509392505050565b600082601f8301126118e9576118e86117cd565b5b81356118f9848260208601611892565b91505092915050565b600080600080600060a0868803121561191e5761191d611667565b5b600061192c88828901611688565b955050602086013567ffffffffffffffff81111561194d5761194c61166c565b5b611959888289016118d4565b945050604086013567ffffffffffffffff81111561197a5761197961166c565b5b611986888289016118d4565b935050606086013567ffffffffffffffff8111156119a7576119a661166c565b5b6119b3888289016118d4565b92505060806119c488828901611688565b9150509295509295909350565b600080600080600080600060e0888a0312156119f0576119ef611667565b5b600088013567ffffffffffffffff811115611a0e57611a0d61166c565b5b611a1a8a828b016118d4565b975050602088013567ffffffffffffffff811115611a3b57611a3a61166c565b5b611a478a828b016118d4565b9650506040611a588a828b01611688565b9550506060611a698a828b01611688565b9450506080611a7a8a828b01611688565b93505060a0611a8b8a828b01611688565b92505060c0611a9c8a828b01611688565b91505092959891949750929550565b600081519050919050565b600082825260208201905092915050565b6000819050602082019050919050565b6000611ae2826112de565b9050919050565b611af281611ad7565b82525050565b60038110611b0957611b0861144d565b5b50565b6000819050611b1a82611af8565b919050565b6000611b2a82611b0c565b9050919050565b611b3a81611b1f565b82525050565b600061014083016000830151611b5960008601826113ae565b506020830151611b6c60208601826113ae565b5060408301518482036040860152611b848282611414565b91505060608301518482036060860152611b9e8282611414565b91505060808301518482036080860152611bb88282611414565b91505060a0830151611bcd60a08601826113ae565b5060c0830151611be060c08601826113ae565b5060e0830151611bf360e08601826113ae565b50610100830151611c08610100860182611ae9565b50610120830151611c1d610120860182611b31565b508091505092915050565b6000611c348383611b40565b905092915050565b6000602082019050919050565b6000611c5482611aab565b611c5e8185611ab6565b935083602082028501611c7085611ac7565b8060005b85811015611cac5784840389528151611c8d8582611c28565b9450611c9883611c3c565b925060208a01995050600181019050611c74565b50829750879550505050505092915050565b60006020820190508181036000830152611cd88184611c49565b905092915050565b611ce981611ad7565b8114611cf457600080fd5b50565b600081359050611d0681611ce0565b92915050565b60008060408385031215611d2357611d22611667565b5b6000611d3185828601611cf7565b9250506020611d4285828601611688565b9150509250929050565b611d5581611ad7565b82525050565b6000602082019050611d706000830184611d4c565b92915050565b600060208284031215611d8c57611d8b611667565b5b6000611d9a84828501611cf7565b91505092915050565b60008115159050919050565b611db881611da3565b82525050565b6000602082019050611dd36000830184611daf565b92915050565b600061014083016000830151611df260008601826113ae565b506020830151611e0560208601826113ae565b5060408301518482036040860152611e1d8282611414565b91505060608301518482036060860152611e378282611414565b91505060808301518482036080860152611e518282611414565b91505060a0830151611e6660a08601826113ae565b5060c0830151611e7960c08601826113ae565b5060e0830151611e8c60e08601826113ae565b50610100830151611ea1610100860182611ae9565b50610120830151611eb6610120860182611b31565b508091505092915050565b60006040820190508181036000830152611edb8185611dd9565b90508181036020830152611eef81846116ca565b90509392505050565b600067ffffffffffffffff821115611f1357611f126117d7565b5b602082029050602081019050919050565b600080fd5b600080fd5b600080fd5b600081519050611f4281611671565b92915050565b6000611f5b611f5684611852565b611837565b905082815260208101848484011115611f7757611f766117d2565b5b611f828482856113d9565b509392505050565b600082601f830112611f9f57611f9e6117cd565b5b8151611faf848260208601611f48565b91505092915050565b60028110611fc557600080fd5b50565b600081519050611fd781611fb8565b92915050565b60006101408284031215611ff457611ff3611f29565b5b611fff610140611837565b9050600061200f84828501611f33565b600083015250602082015167ffffffffffffffff81111561203357612032611f2e565b5b61203f84828501611f8a565b602083015250604082015167ffffffffffffffff81111561206357612062611f2e565b5b61206f84828501611f8a565b604083015250606061208384828501611f33565b606083015250608061209784828501611f33565b60808301525060a06120ab84828501611f33565b60a08301525060c06120bf84828501611f33565b60c08301525060e06120d384828501611f33565b60e0830152506101006120e884828501611f33565b610100830152506101206120fe84828501611fc8565b6101208301525092915050565b600061211e61211984611ef8565b611837565b9050808382526020820190506020840283018581111561214157612140611f24565b5b835b8181101561218857805167ffffffffffffffff811115612166576121656117cd565b5b8086016121738982611fdd565b85526020850194505050602081019050612143565b5050509392505050565b600082601f8301126121a7576121a66117cd565b5b81516121b784826020860161210b565b91505092915050565b6000602082840312156121d6576121d5611667565b5b600082015167ffffffffffffffff8111156121f4576121f361166c565b5b61220084828501612192565b91505092915050565b600082825260208201905092915050565b7f496e73757265723a204f6e6c792074686520696e73757265722063616e20636160008201527f6c6c207468697300000000000000000000000000000000000000000000000000602082015250565b6000612276602783612209565b91506122818261221a565b604082019050919050565b600060208201905081810360008301526122a581612269565b9050919050565b7f496e73756666696369656e742062616c616e6365000000000000000000000000600082015250565b60006122e2601483612209565b91506122ed826122ac565b602082019050919050565b60006020820190508181036000830152612311816122d5565b9050919050565b612321816113a4565b82525050565b600060208201905061233c6000830184612318565b92915050565b60006020828403121561235857612357611667565b5b600082015167ffffffffffffffff8111156123765761237561166c565b5b61238284828501611fdd565b91505092915050565b6000612396826113bd565b6123a08185612209565b93506123b08185602086016113d9565b6123b981611403565b840191505092915050565b600060c0820190506123d96000830189612318565b81810360208301526123eb818861238b565b905081810360408301526123ff818761238b565b90508181036060830152612413818661238b565b90506124226080830185612318565b61242f60a0830184611d4c565b979650505050505050565b6000602082840312156124505761244f611667565b5b600061245e84828501611f33565b91505092915050565b600060e0820190508181036000830152612481818a61238b565b90508181036020830152612495818961238b565b90506124a46040830188612318565b6124b16060830187612318565b6124be6080830186612318565b6124cb60a0830185612318565b6124d860c0830184612318565b98975050505050505050565b600060208201905081810360008301526124fe818461238b565b905092915050565b600067ffffffffffffffff821115612521576125206117d7565b5b602082029050602081019050919050565b60008151905061254181611ce0565b92915050565b6003811061255457600080fd5b50565b60008151905061256681612547565b92915050565b6000610140828403121561258357612582611f29565b5b61258e610140611837565b9050600061259e84828501611f33565b60008301525060206125b284828501611f33565b602083015250604082015167ffffffffffffffff8111156125d6576125d5611f2e565b5b6125e284828501611f8a565b604083015250606082015167ffffffffffffffff81111561260657612605611f2e565b5b61261284828501611f8a565b606083015250608082015167ffffffffffffffff81111561263657612635611f2e565b5b61264284828501611f8a565b60808301525060a061265684828501611f33565b60a08301525060c061266a84828501611f33565b60c08301525060e061267e84828501611f33565b60e08301525061010061269384828501612532565b610100830152506101206126a984828501612557565b6101208301525092915050565b60006126c96126c484612506565b611837565b905080838252602082019050602084028301858111156126ec576126eb611f24565b5b835b8181101561273357805167ffffffffffffffff811115612711576127106117cd565b5b80860161271e898261256c565b855260208501945050506020810190506126ee565b5050509392505050565b600082601f830112612752576127516117cd565b5b81516127628482602086016126b6565b91505092915050565b60006020828403121561278157612780611667565b5b600082015167ffffffffffffffff81111561279f5761279e61166c565b5b6127ab8482850161273d565b91505092915050565b60006040820190506127c96000830185611d4c565b6127d66020830184612318565b9392505050565b600080604083850312156127f4576127f3611667565b5b600083015167ffffffffffffffff8111156128125761281161166c565b5b61281e8582860161256c565b925050602083015167ffffffffffffffff81111561283f5761283e61166c565b5b61284b85828601611fdd565b915050925092905056fea2646970667358221220357643b5ec09a4c62fe39719372daa2b7f1e3661878f38bafece5ab46075130364736f6c63430008130033",
  "linkReferences": {},
  "deployedLinkReferences": {}
}