{
  "_format": "hh-sol-artifact-1",
  "contractName": "Insurer",
  "sourceName": "contracts/Insurer.sol",
  "abi": [
    {
      "inputs": [
        {
          "internalType": "address",
          "name": "_flightPolicyAddress",
          "type": "address"
        }
      ],
      "stateMutability": "nonpayable",
      "type": "constructor"
    },
    {
      "anonymous": false,
      "inputs": [
        {
          "indexed": true,
          "internalType": "address",
          "name": "buyer",
          "type": "address"
        },
        {
          "indexed": true,
          "internalType": "uint256",
          "name": "policyId",
          "type": "uint256"
        }
      ],
      "name": "FlightPolicyClaimed",
      "type": "event"
    },
    {
      "anonymous": false,
      "inputs": [
        {
          "indexed": true,
          "internalType": "address",
          "name": "buyer",
          "type": "address"
        },
        {
          "indexed": true,
          "internalType": "uint256",
          "name": "policyId",
          "type": "uint256"
        },
        {
          "indexed": true,
          "internalType": "string",
          "name": "templateId",
          "type": "string"
        }
      ],
      "name": "FlightPolicyPurchased",
      "type": "event"
    },
    {
      "inputs": [
        {
          "internalType": "uint256",
          "name": "policyId",
          "type": "uint256"
        }
      ],
      "name": "claimFlightPayout",
      "outputs": [],
      "stateMutability": "nonpayable",
      "type": "function"
    },
    {
      "inputs": [],
      "name": "flightPolicy",
      "outputs": [
        {
          "internalType": "contract FlightPolicy",
          "name": "",
          "type": "address"
        }
      ],
      "stateMutability": "view",
      "type": "function"
    },
    {
      "inputs": [],
      "name": "getAllFlightPolicies",
      "outputs": [
        {
          "components": [
            {
              "internalType": "uint256",
              "name": "policyId",
              "type": "uint256"
            },
            {
              "components": [
                {
                  "internalType": "string",
                  "name": "templateId",
                  "type": "string"
                },
                {
                  "internalType": "string",
                  "name": "name",
                  "type": "string"
                },
                {
                  "internalType": "string",
                  "name": "description",
                  "type": "string"
                },
                {
                  "internalType": "uint256",
                  "name": "createdAt",
                  "type": "uint256"
                },
                {
                  "internalType": "uint256",
                  "name": "updatedAt",
                  "type": "uint256"
                },
                {
                  "internalType": "uint256",
                  "name": "premium",
                  "type": "uint256"
                },
                {
                  "internalType": "uint256",
                  "name": "payoutPerHour",
                  "type": "uint256"
                },
                {
                  "internalType": "uint256",
                  "name": "delayThresholdHours",
                  "type": "uint256"
                },
                {
                  "internalType": "uint256",
                  "name": "maxTotalPayout",
                  "type": "uint256"
                },
                {
                  "internalType": "uint256",
                  "name": "coverageDurationDays",
                  "type": "uint256"
                },
                {
                  "internalType": "enum FlightPolicy.PolicyTemplateStatus",
                  "name": "status",
                  "type": "uint8"
                }
              ],
              "internalType": "struct FlightPolicy.PolicyTemplate",
              "name": "template",
              "type": "tuple"
            },
            {
              "internalType": "string",
              "name": "flightNumber",
              "type": "string"
            },
            {
              "internalType": "string",
              "name": "departureAirportCode",
              "type": "string"
            },
            {
              "internalType": "string",
              "name": "arrivalAirportCode",
              "type": "string"
            },
            {
              "internalType": "uint256",
              "name": "departureTime",
              "type": "uint256"
            },
            {
              "internalType": "uint256",
              "name": "createdAt",
              "type": "uint256"
            },
            {
              "internalType": "uint256",
              "name": "payoutToDate",
              "type": "uint256"
            },
            {
              "internalType": "address",
              "name": "buyer",
              "type": "address"
            },
            {
              "internalType": "enum FlightPolicy.PolicyStatus",
              "name": "status",
              "type": "uint8"
            }
          ],
          "internalType": "struct FlightPolicy.UserPolicy[]",
          "name": "",
          "type": "tuple[]"
        }
      ],
      "stateMutability": "view",
      "type": "function"
    },
    {
      "inputs": [
        {
          "internalType": "address",
          "name": "user",
          "type": "address"
        },
        {
          "internalType": "uint256",
          "name": "policyId",
          "type": "uint256"
        }
      ],
      "name": "getFlightPolicyWithTemplate",
      "outputs": [
        {
          "components": [
            {
              "internalType": "uint256",
              "name": "policyId",
              "type": "uint256"
            },
            {
              "components": [
                {
                  "internalType": "string",
                  "name": "templateId",
                  "type": "string"
                },
                {
                  "internalType": "string",
                  "name": "name",
                  "type": "string"
                },
                {
                  "internalType": "string",
                  "name": "description",
                  "type": "string"
                },
                {
                  "internalType": "uint256",
                  "name": "createdAt",
                  "type": "uint256"
                },
                {
                  "internalType": "uint256",
                  "name": "updatedAt",
                  "type": "uint256"
                },
                {
                  "internalType": "uint256",
                  "name": "premium",
                  "type": "uint256"
                },
                {
                  "internalType": "uint256",
                  "name": "payoutPerHour",
                  "type": "uint256"
                },
                {
                  "internalType": "uint256",
                  "name": "delayThresholdHours",
                  "type": "uint256"
                },
                {
                  "internalType": "uint256",
                  "name": "maxTotalPayout",
                  "type": "uint256"
                },
                {
                  "internalType": "uint256",
                  "name": "coverageDurationDays",
                  "type": "uint256"
                },
                {
                  "internalType": "enum FlightPolicy.PolicyTemplateStatus",
                  "name": "status",
                  "type": "uint8"
                }
              ],
              "internalType": "struct FlightPolicy.PolicyTemplate",
              "name": "template",
              "type": "tuple"
            },
            {
              "internalType": "string",
              "name": "flightNumber",
              "type": "string"
            },
            {
              "internalType": "string",
              "name": "departureAirportCode",
              "type": "string"
            },
            {
              "internalType": "string",
              "name": "arrivalAirportCode",
              "type": "string"
            },
            {
              "internalType": "uint256",
              "name": "departureTime",
              "type": "uint256"
            },
            {
              "internalType": "uint256",
              "name": "createdAt",
              "type": "uint256"
            },
            {
              "internalType": "uint256",
              "name": "payoutToDate",
              "type": "uint256"
            },
            {
              "internalType": "address",
              "name": "buyer",
              "type": "address"
            },
            {
              "internalType": "enum FlightPolicy.PolicyStatus",
              "name": "status",
              "type": "uint8"
            }
          ],
          "internalType": "struct FlightPolicy.UserPolicy",
          "name": "",
          "type": "tuple"
        },
        {
          "components": [
            {
              "internalType": "string",
              "name": "templateId",
              "type": "string"
            },
            {
              "internalType": "string",
              "name": "name",
              "type": "string"
            },
            {
              "internalType": "string",
              "name": "description",
              "type": "string"
            },
            {
              "internalType": "uint256",
              "name": "createdAt",
              "type": "uint256"
            },
            {
              "internalType": "uint256",
              "name": "updatedAt",
              "type": "uint256"
            },
            {
              "internalType": "uint256",
              "name": "premium",
              "type": "uint256"
            },
            {
              "internalType": "uint256",
              "name": "payoutPerHour",
              "type": "uint256"
            },
            {
              "internalType": "uint256",
              "name": "delayThresholdHours",
              "type": "uint256"
            },
            {
              "internalType": "uint256",
              "name": "maxTotalPayout",
              "type": "uint256"
            },
            {
              "internalType": "uint256",
              "name": "coverageDurationDays",
              "type": "uint256"
            },
            {
              "internalType": "enum FlightPolicy.PolicyTemplateStatus",
              "name": "status",
              "type": "uint8"
            }
          ],
          "internalType": "struct FlightPolicy.PolicyTemplate",
          "name": "",
          "type": "tuple"
        }
      ],
      "stateMutability": "view",
      "type": "function"
    },
    {
      "inputs": [
        {
          "internalType": "address",
          "name": "user",
          "type": "address"
        }
      ],
      "name": "getUserFlightPolicies",
      "outputs": [
        {
          "components": [
            {
              "internalType": "uint256",
              "name": "policyId",
              "type": "uint256"
            },
            {
              "components": [
                {
                  "internalType": "string",
                  "name": "templateId",
                  "type": "string"
                },
                {
                  "internalType": "string",
                  "name": "name",
                  "type": "string"
                },
                {
                  "internalType": "string",
                  "name": "description",
                  "type": "string"
                },
                {
                  "internalType": "uint256",
                  "name": "createdAt",
                  "type": "uint256"
                },
                {
                  "internalType": "uint256",
                  "name": "updatedAt",
                  "type": "uint256"
                },
                {
                  "internalType": "uint256",
                  "name": "premium",
                  "type": "uint256"
                },
                {
                  "internalType": "uint256",
                  "name": "payoutPerHour",
                  "type": "uint256"
                },
                {
                  "internalType": "uint256",
                  "name": "delayThresholdHours",
                  "type": "uint256"
                },
                {
                  "internalType": "uint256",
                  "name": "maxTotalPayout",
                  "type": "uint256"
                },
                {
                  "internalType": "uint256",
                  "name": "coverageDurationDays",
                  "type": "uint256"
                },
                {
                  "internalType": "enum FlightPolicy.PolicyTemplateStatus",
                  "name": "status",
                  "type": "uint8"
                }
              ],
              "internalType": "struct FlightPolicy.PolicyTemplate",
              "name": "template",
              "type": "tuple"
            },
            {
              "internalType": "string",
              "name": "flightNumber",
              "type": "string"
            },
            {
              "internalType": "string",
              "name": "departureAirportCode",
              "type": "string"
            },
            {
              "internalType": "string",
              "name": "arrivalAirportCode",
              "type": "string"
            },
            {
              "internalType": "uint256",
              "name": "departureTime",
              "type": "uint256"
            },
            {
              "internalType": "uint256",
              "name": "createdAt",
              "type": "uint256"
            },
            {
              "internalType": "uint256",
              "name": "payoutToDate",
              "type": "uint256"
            },
            {
              "internalType": "address",
              "name": "buyer",
              "type": "address"
            },
            {
              "internalType": "enum FlightPolicy.PolicyStatus",
              "name": "status",
              "type": "uint8"
            }
          ],
          "internalType": "struct FlightPolicy.UserPolicy[]",
          "name": "",
          "type": "tuple[]"
        }
      ],
      "stateMutability": "view",
      "type": "function"
    },
    {
      "inputs": [
        {
          "internalType": "string",
          "name": "templateId",
          "type": "string"
        }
      ],
      "name": "getUserPoliciesByTemplate",
      "outputs": [
        {
          "components": [
            {
              "internalType": "uint256",
              "name": "policyId",
              "type": "uint256"
            },
            {
              "components": [
                {
                  "internalType": "string",
                  "name": "templateId",
                  "type": "string"
                },
                {
                  "internalType": "string",
                  "name": "name",
                  "type": "string"
                },
                {
                  "internalType": "string",
                  "name": "description",
                  "type": "string"
                },
                {
                  "internalType": "uint256",
                  "name": "createdAt",
                  "type": "uint256"
                },
                {
                  "internalType": "uint256",
                  "name": "updatedAt",
                  "type": "uint256"
                },
                {
                  "internalType": "uint256",
                  "name": "premium",
                  "type": "uint256"
                },
                {
                  "internalType": "uint256",
                  "name": "payoutPerHour",
                  "type": "uint256"
                },
                {
                  "internalType": "uint256",
                  "name": "delayThresholdHours",
                  "type": "uint256"
                },
                {
                  "internalType": "uint256",
                  "name": "maxTotalPayout",
                  "type": "uint256"
                },
                {
                  "internalType": "uint256",
                  "name": "coverageDurationDays",
                  "type": "uint256"
                },
                {
                  "internalType": "enum FlightPolicy.PolicyTemplateStatus",
                  "name": "status",
                  "type": "uint8"
                }
              ],
              "internalType": "struct FlightPolicy.PolicyTemplate",
              "name": "template",
              "type": "tuple"
            },
            {
              "internalType": "string",
              "name": "flightNumber",
              "type": "string"
            },
            {
              "internalType": "string",
              "name": "departureAirportCode",
              "type": "string"
            },
            {
              "internalType": "string",
              "name": "arrivalAirportCode",
              "type": "string"
            },
            {
              "internalType": "uint256",
              "name": "departureTime",
              "type": "uint256"
            },
            {
              "internalType": "uint256",
              "name": "createdAt",
              "type": "uint256"
            },
            {
              "internalType": "uint256",
              "name": "payoutToDate",
              "type": "uint256"
            },
            {
              "internalType": "address",
              "name": "buyer",
              "type": "address"
            },
            {
              "internalType": "enum FlightPolicy.PolicyStatus",
              "name": "status",
              "type": "uint8"
            }
          ],
          "internalType": "struct FlightPolicy.UserPolicy[]",
          "name": "",
          "type": "tuple[]"
        }
      ],
      "stateMutability": "view",
      "type": "function"
    },
    {
      "inputs": [],
      "name": "insurerAddress",
      "outputs": [
        {
          "internalType": "address",
          "name": "",
          "type": "address"
        }
      ],
      "stateMutability": "view",
      "type": "function"
    },
    {
      "inputs": [
        {
          "internalType": "address",
          "name": "user",
          "type": "address"
        }
      ],
      "name": "isInsurer",
      "outputs": [
        {
          "internalType": "bool",
          "name": "",
          "type": "bool"
        }
      ],
      "stateMutability": "view",
      "type": "function"
    },
    {
      "inputs": [
        {
          "internalType": "uint256",
          "name": "policyId",
          "type": "uint256"
        }
      ],
      "name": "markFlightPolicyAsExpired",
      "outputs": [],
      "stateMutability": "nonpayable",
      "type": "function"
    },
    {
      "inputs": [
        {
          "components": [
            {
              "internalType": "string",
              "name": "templateId",
              "type": "string"
            },
            {
              "internalType": "string",
              "name": "name",
              "type": "string"
            },
            {
              "internalType": "string",
              "name": "description",
              "type": "string"
            },
            {
              "internalType": "uint256",
              "name": "createdAt",
              "type": "uint256"
            },
            {
              "internalType": "uint256",
              "name": "updatedAt",
              "type": "uint256"
            },
            {
              "internalType": "uint256",
              "name": "premium",
              "type": "uint256"
            },
            {
              "internalType": "uint256",
              "name": "payoutPerHour",
              "type": "uint256"
            },
            {
              "internalType": "uint256",
              "name": "delayThresholdHours",
              "type": "uint256"
            },
            {
              "internalType": "uint256",
              "name": "maxTotalPayout",
              "type": "uint256"
            },
            {
              "internalType": "uint256",
              "name": "coverageDurationDays",
              "type": "uint256"
            },
            {
              "internalType": "enum FlightPolicy.PolicyTemplateStatus",
              "name": "status",
              "type": "uint8"
            }
          ],
          "internalType": "struct FlightPolicy.PolicyTemplate",
          "name": "template",
          "type": "tuple"
        },
        {
          "internalType": "string",
          "name": "flightNumber",
          "type": "string"
        },
        {
          "internalType": "string",
          "name": "departureAirportCode",
          "type": "string"
        },
        {
          "internalType": "string",
          "name": "arrivalAirportCode",
          "type": "string"
        },
        {
          "internalType": "uint256",
          "name": "departureTime",
          "type": "uint256"
        }
      ],
      "name": "purchaseFlightPolicy",
      "outputs": [],
      "stateMutability": "payable",
      "type": "function"
    },
    {
      "inputs": [
        {
          "internalType": "uint256",
          "name": "amountInWei",
          "type": "uint256"
        }
      ],
      "name": "withdraw",
      "outputs": [],
      "stateMutability": "nonpayable",
      "type": "function"
    },
    {
      "stateMutability": "payable",
      "type": "receive"
    }
  ],
  "bytecode": "0x60a06040523480156200001157600080fd5b50604051620022133803806200221383398181016040528101906200003791906200011c565b3373ffffffffffffffffffffffffffffffffffffffff1660808173ffffffffffffffffffffffffffffffffffffffff1681525050806000806101000a81548173ffffffffffffffffffffffffffffffffffffffff021916908373ffffffffffffffffffffffffffffffffffffffff160217905550506200014e565b600080fd5b600073ffffffffffffffffffffffffffffffffffffffff82169050919050565b6000620000e482620000b7565b9050919050565b620000f681620000d7565b81146200010257600080fd5b50565b6000815190506200011681620000eb565b92915050565b600060208284031215620001355762000134620000b2565b5b6000620001458482850162000105565b91505092915050565b6080516120866200018d600039600081816103b301528181610484015281816104f001528181610617015281816108ed01526109bb01526120866000f3fe6080604052600436106100a05760003560e01c80638350e578116100645780638350e5781461017d5780639c6cf7ef14610199578063a7c0900e146101d6578063b715521b14610201578063da7897e21461023e578063f05e5b621461027b576100a7565b806307116510146100ac578063260d47c5146100d75780632e1a7d4d146101005780634dd7b2a8146101295780636906496e14610154576100a7565b366100a757005b600080fd5b3480156100b857600080fd5b506100c16102b9565b6040516100ce9190610c37565b60405180910390f35b3480156100e357600080fd5b506100fe60048036038101906100f99190610c9c565b6102dd565b005b34801561010c57600080fd5b5061012760048036038101906101229190610c9c565b6103b1565b005b34801561013557600080fd5b5061013e6104ec565b60405161014b91906110f6565b60405180910390f35b34801561016057600080fd5b5061017b60048036038101906101769190610c9c565b610615565b005b610197600480360381019061019291906113dc565b610731565b005b3480156101a557600080fd5b506101c060048036038101906101bb91906114c7565b610843565b6040516101cd91906110f6565b60405180910390f35b3480156101e257600080fd5b506101eb6108eb565b6040516101f8919061151f565b60405180910390f35b34801561020d57600080fd5b5061022860048036038101906102239190611566565b61090f565b60405161023591906110f6565b60405180910390f35b34801561024a57600080fd5b5061026560048036038101906102609190611566565b6109b7565b60405161027291906115ae565b60405180910390f35b34801561028757600080fd5b506102a2600480360381019061029d91906115c9565b610a0f565b6040516102b09291906117f5565b60405180910390f35b60008054906101000a900473ffffffffffffffffffffffffffffffffffffffff1681565b60008054906101000a900473ffffffffffffffffffffffffffffffffffffffff1673ffffffffffffffffffffffffffffffffffffffff1663b0110cc682336040518363ffffffff1660e01b815260040161033892919061183b565b600060405180830381600087803b15801561035257600080fd5b505af1158015610366573d6000803e3d6000fd5b50505050803373ffffffffffffffffffffffffffffffffffffffff167fd97fa6902eb91d71aea44cc906baaea3f41dab00c2f987da7f9d97b28172d40660405160405180910390a350565b7f000000000000000000000000000000000000000000000000000000000000000073ffffffffffffffffffffffffffffffffffffffff163373ffffffffffffffffffffffffffffffffffffffff161461043f576040517f08c379a0000000000000000000000000000000000000000000000000000000008152600401610436906118e7565b60405180910390fd5b80471015610482576040517f08c379a000000000000000000000000000000000000000000000000000000000815260040161047990611953565b60405180910390fd5b7f000000000000000000000000000000000000000000000000000000000000000073ffffffffffffffffffffffffffffffffffffffff166108fc829081150290604051600060405180830381858888f193505050501580156104e8573d6000803e3d6000fd5b5050565b60607f000000000000000000000000000000000000000000000000000000000000000073ffffffffffffffffffffffffffffffffffffffff163373ffffffffffffffffffffffffffffffffffffffff161461057c576040517f08c379a0000000000000000000000000000000000000000000000000000000008152600401610573906118e7565b60405180910390fd5b60008054906101000a900473ffffffffffffffffffffffffffffffffffffffff1673ffffffffffffffffffffffffffffffffffffffff1663457e55216040518163ffffffff1660e01b8152600401600060405180830381865afa1580156105e7573d6000803e3d6000fd5b505050506040513d6000823e3d601f19601f820116820180604052508101906106109190611df3565b905090565b7f000000000000000000000000000000000000000000000000000000000000000073ffffffffffffffffffffffffffffffffffffffff163373ffffffffffffffffffffffffffffffffffffffff16146106a3576040517f08c379a000000000000000000000000000000000000000000000000000000000815260040161069a906118e7565b60405180910390fd5b60008054906101000a900473ffffffffffffffffffffffffffffffffffffffff1673ffffffffffffffffffffffffffffffffffffffff1663cf39c624826040518263ffffffff1660e01b81526004016106fc9190611e3c565b600060405180830381600087803b15801561071657600080fd5b505af115801561072a573d6000803e3d6000fd5b5050505050565b60008060009054906101000a900473ffffffffffffffffffffffffffffffffffffffff1673ffffffffffffffffffffffffffffffffffffffff166331953ecc348888888888336040518863ffffffff1660e01b815260040161079896959493929190611e90565b60206040518083038185885af11580156107b6573d6000803e3d6000fd5b50505050506040513d601f19601f820116820180604052508101906107db9190611f0d565b905085600001516040516107ef9190611f76565b6040518091039020813373ffffffffffffffffffffffffffffffffffffffff167f43617ea01c45d3386d7be4a6cb66bf94c0152a674cbd34a5de81ed135dfd7b1760405160405180910390a4505050505050565b606060008054906101000a900473ffffffffffffffffffffffffffffffffffffffff1673ffffffffffffffffffffffffffffffffffffffff16639c6cf7ef836040518263ffffffff1660e01b815260040161089e9190611f8d565b600060405180830381865afa1580156108bb573d6000803e3d6000fd5b505050506040513d6000823e3d601f19601f820116820180604052508101906108e49190611df3565b9050919050565b7f000000000000000000000000000000000000000000000000000000000000000081565b606060008054906101000a900473ffffffffffffffffffffffffffffffffffffffff1673ffffffffffffffffffffffffffffffffffffffff166319ac4614836040518263ffffffff1660e01b815260040161096a919061151f565b600060405180830381865afa158015610987573d6000803e3d6000fd5b505050506040513d6000823e3d601f19601f820116820180604052508101906109b09190611df3565b9050919050565b60007f000000000000000000000000000000000000000000000000000000000000000073ffffffffffffffffffffffffffffffffffffffff168273ffffffffffffffffffffffffffffffffffffffff16149050919050565b610a17610acb565b610a1f610b4c565b60008054906101000a900473ffffffffffffffffffffffffffffffffffffffff1673ffffffffffffffffffffffffffffffffffffffff166313e896b685856040518363ffffffff1660e01b8152600401610a7a929190611faf565b600060405180830381865afa158015610a97573d6000803e3d6000fd5b505050506040513d6000823e3d601f19601f82011682018060405250810190610ac09190611fd8565b915091509250929050565b60405180610140016040528060008152602001610ae6610b4c565b8152602001606081526020016060815260200160608152602001600081526020016000815260200160008152602001600073ffffffffffffffffffffffffffffffffffffffff16815260200160006002811115610b4657610b45610d94565b5b81525090565b6040518061016001604052806060815260200160608152602001606081526020016000815260200160008152602001600081526020016000815260200160008152602001600081526020016000815260200160006001811115610bb257610bb1610d94565b5b81525090565b600073ffffffffffffffffffffffffffffffffffffffff82169050919050565b6000819050919050565b6000610bfd610bf8610bf384610bb8565b610bd8565b610bb8565b9050919050565b6000610c0f82610be2565b9050919050565b6000610c2182610c04565b9050919050565b610c3181610c16565b82525050565b6000602082019050610c4c6000830184610c28565b92915050565b6000604051905090565b600080fd5b600080fd5b6000819050919050565b610c7981610c66565b8114610c8457600080fd5b50565b600081359050610c9681610c70565b92915050565b600060208284031215610cb257610cb1610c5c565b5b6000610cc084828501610c87565b91505092915050565b600081519050919050565b600082825260208201905092915050565b6000819050602082019050919050565b610cfe81610c66565b82525050565b600081519050919050565b600082825260208201905092915050565b60005b83811015610d3e578082015181840152602081019050610d23565b60008484015250505050565b6000601f19601f8301169050919050565b6000610d6682610d04565b610d708185610d0f565b9350610d80818560208601610d20565b610d8981610d4a565b840191505092915050565b7f4e487b7100000000000000000000000000000000000000000000000000000000600052602160045260246000fd5b60028110610dd457610dd3610d94565b5b50565b6000819050610de582610dc3565b919050565b6000610df582610dd7565b9050919050565b610e0581610dea565b82525050565b6000610160830160008301518482036000860152610e298282610d5b565b91505060208301518482036020860152610e438282610d5b565b91505060408301518482036040860152610e5d8282610d5b565b9150506060830151610e726060860182610cf5565b506080830151610e856080860182610cf5565b5060a0830151610e9860a0860182610cf5565b5060c0830151610eab60c0860182610cf5565b5060e0830151610ebe60e0860182610cf5565b50610100830151610ed3610100860182610cf5565b50610120830151610ee8610120860182610cf5565b50610140830151610efd610140860182610dfc565b508091505092915050565b6000610f1382610bb8565b9050919050565b610f2381610f08565b82525050565b60038110610f3a57610f39610d94565b5b50565b6000819050610f4b82610f29565b919050565b6000610f5b82610f3d565b9050919050565b610f6b81610f50565b82525050565b600061014083016000830151610f8a6000860182610cf5565b5060208301518482036020860152610fa28282610e0b565b91505060408301518482036040860152610fbc8282610d5b565b91505060608301518482036060860152610fd68282610d5b565b91505060808301518482036080860152610ff08282610d5b565b91505060a083015161100560a0860182610cf5565b5060c083015161101860c0860182610cf5565b5060e083015161102b60e0860182610cf5565b50610100830151611040610100860182610f1a565b50610120830151611055610120860182610f62565b508091505092915050565b600061106c8383610f71565b905092915050565b6000602082019050919050565b600061108c82610cc9565b6110968185610cd4565b9350836020820285016110a885610ce5565b8060005b858110156110e457848403895281516110c58582611060565b94506110d083611074565b925060208a019950506001810190506110ac565b50829750879550505050505092915050565b600060208201905081810360008301526111108184611081565b905092915050565b600080fd5b7f4e487b7100000000000000000000000000000000000000000000000000000000600052604160045260246000fd5b61115582610d4a565b810181811067ffffffffffffffff821117156111745761117361111d565b5b80604052505050565b6000611187610c52565b9050611193828261114c565b919050565b600080fd5b600080fd5b600080fd5b600067ffffffffffffffff8211156111c2576111c161111d565b5b6111cb82610d4a565b9050602081019050919050565b82818337600083830152505050565b60006111fa6111f5846111a7565b61117d565b905082815260208101848484011115611216576112156111a2565b5b6112218482856111d8565b509392505050565b600082601f83011261123e5761123d61119d565b5b813561124e8482602086016111e7565b91505092915050565b6002811061126457600080fd5b50565b60008135905061127681611257565b92915050565b6000610160828403121561129357611292611118565b5b61129e61016061117d565b9050600082013567ffffffffffffffff8111156112be576112bd611198565b5b6112ca84828501611229565b600083015250602082013567ffffffffffffffff8111156112ee576112ed611198565b5b6112fa84828501611229565b602083015250604082013567ffffffffffffffff81111561131e5761131d611198565b5b61132a84828501611229565b604083015250606061133e84828501610c87565b606083015250608061135284828501610c87565b60808301525060a061136684828501610c87565b60a08301525060c061137a84828501610c87565b60c08301525060e061138e84828501610c87565b60e0830152506101006113a384828501610c87565b610100830152506101206113b984828501610c87565b610120830152506101406113cf84828501611267565b6101408301525092915050565b600080600080600060a086880312156113f8576113f7610c5c565b5b600086013567ffffffffffffffff81111561141657611415610c61565b5b6114228882890161127c565b955050602086013567ffffffffffffffff81111561144357611442610c61565b5b61144f88828901611229565b945050604086013567ffffffffffffffff8111156114705761146f610c61565b5b61147c88828901611229565b935050606086013567ffffffffffffffff81111561149d5761149c610c61565b5b6114a988828901611229565b92505060806114ba88828901610c87565b9150509295509295909350565b6000602082840312156114dd576114dc610c5c565b5b600082013567ffffffffffffffff8111156114fb576114fa610c61565b5b61150784828501611229565b91505092915050565b61151981610f08565b82525050565b60006020820190506115346000830184611510565b92915050565b61154381610f08565b811461154e57600080fd5b50565b6000813590506115608161153a565b92915050565b60006020828403121561157c5761157b610c5c565b5b600061158a84828501611551565b91505092915050565b60008115159050919050565b6115a881611593565b82525050565b60006020820190506115c3600083018461159f565b92915050565b600080604083850312156115e0576115df610c5c565b5b60006115ee85828601611551565b92505060206115ff85828601610c87565b9150509250929050565b6000610140830160008301516116226000860182610cf5565b506020830151848203602086015261163a8282610e0b565b915050604083015184820360408601526116548282610d5b565b9150506060830151848203606086015261166e8282610d5b565b915050608083015184820360808601526116888282610d5b565b91505060a083015161169d60a0860182610cf5565b5060c08301516116b060c0860182610cf5565b5060e08301516116c360e0860182610cf5565b506101008301516116d8610100860182610f1a565b506101208301516116ed610120860182610f62565b508091505092915050565b60006101608301600083015184820360008601526117168282610d5b565b915050602083015184820360208601526117308282610d5b565b9150506040830151848203604086015261174a8282610d5b565b915050606083015161175f6060860182610cf5565b5060808301516117726080860182610cf5565b5060a083015161178560a0860182610cf5565b5060c083015161179860c0860182610cf5565b5060e08301516117ab60e0860182610cf5565b506101008301516117c0610100860182610cf5565b506101208301516117d5610120860182610cf5565b506101408301516117ea610140860182610dfc565b508091505092915050565b6000604082019050818103600083015261180f8185611609565b9050818103602083015261182381846116f8565b90509392505050565b61183581610c66565b82525050565b6000604082019050611850600083018561182c565b61185d6020830184611510565b9392505050565b600082825260208201905092915050565b7f496e73757265723a204f6e6c792074686520696e73757265722063616e20636160008201527f6c6c207468697300000000000000000000000000000000000000000000000000602082015250565b60006118d1602783611864565b91506118dc82611875565b604082019050919050565b60006020820190508181036000830152611900816118c4565b9050919050565b7f496e73756666696369656e742062616c616e6365000000000000000000000000600082015250565b600061193d601483611864565b915061194882611907565b602082019050919050565b6000602082019050818103600083015261196c81611930565b9050919050565b600067ffffffffffffffff82111561198e5761198d61111d565b5b602082029050602081019050919050565b600080fd5b6000815190506119b381610c70565b92915050565b60006119cc6119c7846111a7565b61117d565b9050828152602081018484840111156119e8576119e76111a2565b5b6119f3848285610d20565b509392505050565b600082601f830112611a1057611a0f61119d565b5b8151611a208482602086016119b9565b91505092915050565b600081519050611a3881611257565b92915050565b60006101608284031215611a5557611a54611118565b5b611a6061016061117d565b9050600082015167ffffffffffffffff811115611a8057611a7f611198565b5b611a8c848285016119fb565b600083015250602082015167ffffffffffffffff811115611ab057611aaf611198565b5b611abc848285016119fb565b602083015250604082015167ffffffffffffffff811115611ae057611adf611198565b5b611aec848285016119fb565b6040830152506060611b00848285016119a4565b6060830152506080611b14848285016119a4565b60808301525060a0611b28848285016119a4565b60a08301525060c0611b3c848285016119a4565b60c08301525060e0611b50848285016119a4565b60e083015250610100611b65848285016119a4565b61010083015250610120611b7b848285016119a4565b61012083015250610140611b9184828501611a29565b6101408301525092915050565b600081519050611bad8161153a565b92915050565b60038110611bc057600080fd5b50565b600081519050611bd281611bb3565b92915050565b60006101408284031215611bef57611bee611118565b5b611bfa61014061117d565b90506000611c0a848285016119a4565b600083015250602082015167ffffffffffffffff811115611c2e57611c2d611198565b5b611c3a84828501611a3e565b602083015250604082015167ffffffffffffffff811115611c5e57611c5d611198565b5b611c6a848285016119fb565b604083015250606082015167ffffffffffffffff811115611c8e57611c8d611198565b5b611c9a848285016119fb565b606083015250608082015167ffffffffffffffff811115611cbe57611cbd611198565b5b611cca848285016119fb565b60808301525060a0611cde848285016119a4565b60a08301525060c0611cf2848285016119a4565b60c08301525060e0611d06848285016119a4565b60e083015250610100611d1b84828501611b9e565b61010083015250610120611d3184828501611bc3565b6101208301525092915050565b6000611d51611d4c84611973565b61117d565b90508083825260208201905060208402830185811115611d7457611d7361199f565b5b835b81811015611dbb57805167ffffffffffffffff811115611d9957611d9861119d565b5b808601611da68982611bd8565b85526020850194505050602081019050611d76565b5050509392505050565b600082601f830112611dda57611dd961119d565b5b8151611dea848260208601611d3e565b91505092915050565b600060208284031215611e0957611e08610c5c565b5b600082015167ffffffffffffffff811115611e2757611e26610c61565b5b611e3384828501611dc5565b91505092915050565b6000602082019050611e51600083018461182c565b92915050565b6000611e6282610d04565b611e6c8185611864565b9350611e7c818560208601610d20565b611e8581610d4a565b840191505092915050565b600060c0820190508181036000830152611eaa81896116f8565b90508181036020830152611ebe8188611e57565b90508181036040830152611ed28187611e57565b90508181036060830152611ee68186611e57565b9050611ef5608083018561182c565b611f0260a0830184611510565b979650505050505050565b600060208284031215611f2357611f22610c5c565b5b6000611f31848285016119a4565b91505092915050565b600081905092915050565b6000611f5082610d04565b611f5a8185611f3a565b9350611f6a818560208601610d20565b80840191505092915050565b6000611f828284611f45565b915081905092915050565b60006020820190508181036000830152611fa78184611e57565b905092915050565b6000604082019050611fc46000830185611510565b611fd1602083018461182c565b9392505050565b60008060408385031215611fef57611fee610c5c565b5b600083015167ffffffffffffffff81111561200d5761200c610c61565b5b61201985828601611bd8565b925050602083015167ffffffffffffffff81111561203a57612039610c61565b5b61204685828601611a3e565b915050925092905056fea26469706673582212200a66eda8666e838e97e14825d78cb4c3a2a0f7b4c8096e5f4e0a2914461fcf6f64736f6c63430008130033",
  "linkReferences": {},
  "deployedLinkReferences": {}
}