{
  "_format": "hh-sol-artifact-1",
  "contractName": "Insurer",
  "sourceName": "contracts/Insurer.sol",
  "abi": [
    {
      "inputs": [
        {
          "internalType": "address",
          "name": "_flightPolicyAddress",
          "type": "address"
        },
        {
          "internalType": "address",
          "name": "_baggagePolicyAddress",
          "type": "address"
        }
      ],
      "stateMutability": "nonpayable",
      "type": "constructor"
    },
    {
      "anonymous": false,
      "inputs": [
        {
          "indexed": true,
          "internalType": "address",
          "name": "buyer",
          "type": "address"
        },
        {
          "indexed": true,
          "internalType": "uint256",
          "name": "policyId",
          "type": "uint256"
        }
      ],
      "name": "BaggagePolicyClaimed",
      "type": "event"
    },
    {
      "anonymous": false,
      "inputs": [
        {
          "indexed": true,
          "internalType": "address",
          "name": "buyer",
          "type": "address"
        },
        {
          "indexed": true,
          "internalType": "uint256",
          "name": "policyId",
          "type": "uint256"
        },
        {
          "indexed": true,
          "internalType": "string",
          "name": "templateId",
          "type": "string"
        }
      ],
      "name": "BaggagePolicyPurchased",
      "type": "event"
    },
    {
      "anonymous": false,
      "inputs": [
        {
          "indexed": true,
          "internalType": "address",
          "name": "buyer",
          "type": "address"
        },
        {
          "indexed": true,
          "internalType": "uint256",
          "name": "policyId",
          "type": "uint256"
        },
        {
          "indexed": true,
          "internalType": "string",
          "name": "templateId",
          "type": "string"
        }
      ],
      "name": "FlightPolicyPurchased",
      "type": "event"
    },
    {
      "anonymous": false,
      "inputs": [
        {
          "indexed": true,
          "internalType": "address",
          "name": "insurer",
          "type": "address"
        },
        {
          "indexed": false,
          "internalType": "uint256",
          "name": "amount",
          "type": "uint256"
        }
      ],
      "name": "FundsDeposited",
      "type": "event"
    },
    {
      "anonymous": false,
      "inputs": [
        {
          "indexed": true,
          "internalType": "address",
          "name": "insurer",
          "type": "address"
        },
        {
          "indexed": false,
          "internalType": "uint256",
          "name": "amount",
          "type": "uint256"
        }
      ],
      "name": "FundsWithdrawn",
      "type": "event"
    },
    {
      "inputs": [],
      "name": "baggagePolicy",
      "outputs": [
        {
          "internalType": "contract BaggagePolicy",
          "name": "",
          "type": "address"
        }
      ],
      "stateMutability": "view",
      "type": "function"
    },
    {
      "inputs": [
        {
          "internalType": "uint256",
          "name": "policyId",
          "type": "uint256"
        }
      ],
      "name": "claimFlightPayout",
      "outputs": [
        {
          "internalType": "bool",
          "name": "",
          "type": "bool"
        }
      ],
      "stateMutability": "nonpayable",
      "type": "function"
    },
    {
      "inputs": [],
      "name": "deposit",
      "outputs": [],
      "stateMutability": "payable",
      "type": "function"
    },
    {
      "inputs": [],
      "name": "flightPolicy",
      "outputs": [
        {
          "internalType": "contract FlightPolicy",
          "name": "",
          "type": "address"
        }
      ],
      "stateMutability": "view",
      "type": "function"
    },
    {
      "inputs": [],
      "name": "getAllBaggagePolicies",
      "outputs": [
        {
          "components": [
            {
              "internalType": "uint256",
              "name": "policyId",
              "type": "uint256"
            },
            {
              "components": [
                {
                  "internalType": "string",
                  "name": "templateId",
                  "type": "string"
                },
                {
                  "internalType": "string",
                  "name": "name",
                  "type": "string"
                },
                {
                  "internalType": "string",
                  "name": "description",
                  "type": "string"
                },
                {
                  "internalType": "uint256",
                  "name": "createdAt",
                  "type": "uint256"
                },
                {
                  "internalType": "uint256",
                  "name": "updatedAt",
                  "type": "uint256"
                },
                {
                  "internalType": "uint256",
                  "name": "premium",
                  "type": "uint256"
                },
                {
                  "internalType": "uint256",
                  "name": "payoutIfDelayed",
                  "type": "uint256"
                },
                {
                  "internalType": "uint256",
                  "name": "payoutIfLost",
                  "type": "uint256"
                },
                {
                  "internalType": "uint256",
                  "name": "maxTotalPayout",
                  "type": "uint256"
                },
                {
                  "internalType": "uint256",
                  "name": "coverageDurationDays",
                  "type": "uint256"
                },
                {
                  "internalType": "enum BaggagePolicy.PolicyTemplateStatus",
                  "name": "status",
                  "type": "uint8"
                }
              ],
              "internalType": "struct BaggagePolicy.PolicyTemplate",
              "name": "template",
              "type": "tuple"
            },
            {
              "internalType": "string",
              "name": "itemDescription",
              "type": "string"
            },
            {
              "internalType": "uint256",
              "name": "createdAt",
              "type": "uint256"
            },
            {
              "internalType": "uint256",
              "name": "payoutToDate",
              "type": "uint256"
            },
            {
              "internalType": "address",
              "name": "buyer",
              "type": "address"
            },
            {
              "internalType": "enum BaggagePolicy.PolicyStatus",
              "name": "status",
              "type": "uint8"
            }
          ],
          "internalType": "struct BaggagePolicy.UserPolicy[]",
          "name": "",
          "type": "tuple[]"
        }
      ],
      "stateMutability": "view",
      "type": "function"
    },
    {
      "inputs": [],
      "name": "getAllFlightPolicies",
      "outputs": [
        {
          "components": [
            {
              "internalType": "uint256",
              "name": "policyId",
              "type": "uint256"
            },
            {
              "components": [
                {
                  "internalType": "string",
                  "name": "templateId",
                  "type": "string"
                },
                {
                  "internalType": "string",
                  "name": "name",
                  "type": "string"
                },
                {
                  "internalType": "string",
                  "name": "description",
                  "type": "string"
                },
                {
                  "internalType": "uint256",
                  "name": "createdAt",
                  "type": "uint256"
                },
                {
                  "internalType": "uint256",
                  "name": "updatedAt",
                  "type": "uint256"
                },
                {
                  "internalType": "uint256",
                  "name": "premium",
                  "type": "uint256"
                },
                {
                  "internalType": "uint256",
                  "name": "payoutPerHour",
                  "type": "uint256"
                },
                {
                  "internalType": "uint256",
                  "name": "delayThresholdHours",
                  "type": "uint256"
                },
                {
                  "internalType": "uint256",
                  "name": "maxTotalPayout",
                  "type": "uint256"
                },
                {
                  "internalType": "uint256",
                  "name": "coverageDurationDays",
                  "type": "uint256"
                },
                {
                  "internalType": "enum FlightPolicy.PolicyTemplateStatus",
                  "name": "status",
                  "type": "uint8"
                }
              ],
              "internalType": "struct FlightPolicy.PolicyTemplate",
              "name": "template",
              "type": "tuple"
            },
            {
              "internalType": "string",
              "name": "flightNumber",
              "type": "string"
            },
            {
              "internalType": "string",
              "name": "departureAirportCode",
              "type": "string"
            },
            {
              "internalType": "string",
              "name": "arrivalAirportCode",
              "type": "string"
            },
            {
              "internalType": "uint256",
              "name": "departureTime",
              "type": "uint256"
            },
            {
              "internalType": "uint256",
              "name": "createdAt",
              "type": "uint256"
            },
            {
              "internalType": "uint256",
              "name": "payoutToDate",
              "type": "uint256"
            },
            {
              "internalType": "address",
              "name": "buyer",
              "type": "address"
            },
            {
              "internalType": "enum FlightPolicy.PolicyStatus",
              "name": "status",
              "type": "uint8"
            }
          ],
          "internalType": "struct FlightPolicy.UserPolicy[]",
          "name": "",
          "type": "tuple[]"
        }
      ],
      "stateMutability": "view",
      "type": "function"
    },
    {
      "inputs": [],
      "name": "getContractBalance",
      "outputs": [
        {
          "internalType": "uint256",
          "name": "",
          "type": "uint256"
        }
      ],
      "stateMutability": "view",
      "type": "function"
    },
    {
      "inputs": [
        {
          "internalType": "address",
          "name": "user",
          "type": "address"
        }
      ],
      "name": "getUserBaggagePolicies",
      "outputs": [
        {
          "components": [
            {
              "internalType": "uint256",
              "name": "policyId",
              "type": "uint256"
            },
            {
              "components": [
                {
                  "internalType": "string",
                  "name": "templateId",
                  "type": "string"
                },
                {
                  "internalType": "string",
                  "name": "name",
                  "type": "string"
                },
                {
                  "internalType": "string",
                  "name": "description",
                  "type": "string"
                },
                {
                  "internalType": "uint256",
                  "name": "createdAt",
                  "type": "uint256"
                },
                {
                  "internalType": "uint256",
                  "name": "updatedAt",
                  "type": "uint256"
                },
                {
                  "internalType": "uint256",
                  "name": "premium",
                  "type": "uint256"
                },
                {
                  "internalType": "uint256",
                  "name": "payoutIfDelayed",
                  "type": "uint256"
                },
                {
                  "internalType": "uint256",
                  "name": "payoutIfLost",
                  "type": "uint256"
                },
                {
                  "internalType": "uint256",
                  "name": "maxTotalPayout",
                  "type": "uint256"
                },
                {
                  "internalType": "uint256",
                  "name": "coverageDurationDays",
                  "type": "uint256"
                },
                {
                  "internalType": "enum BaggagePolicy.PolicyTemplateStatus",
                  "name": "status",
                  "type": "uint8"
                }
              ],
              "internalType": "struct BaggagePolicy.PolicyTemplate",
              "name": "template",
              "type": "tuple"
            },
            {
              "internalType": "string",
              "name": "itemDescription",
              "type": "string"
            },
            {
              "internalType": "uint256",
              "name": "createdAt",
              "type": "uint256"
            },
            {
              "internalType": "uint256",
              "name": "payoutToDate",
              "type": "uint256"
            },
            {
              "internalType": "address",
              "name": "buyer",
              "type": "address"
            },
            {
              "internalType": "enum BaggagePolicy.PolicyStatus",
              "name": "status",
              "type": "uint8"
            }
          ],
          "internalType": "struct BaggagePolicy.UserPolicy[]",
          "name": "",
          "type": "tuple[]"
        }
      ],
      "stateMutability": "view",
      "type": "function"
    },
    {
      "inputs": [
        {
          "internalType": "string",
          "name": "templateId",
          "type": "string"
        }
      ],
      "name": "getUserBaggagePoliciesByTemplate",
      "outputs": [
        {
          "components": [
            {
              "internalType": "uint256",
              "name": "policyId",
              "type": "uint256"
            },
            {
              "components": [
                {
                  "internalType": "string",
                  "name": "templateId",
                  "type": "string"
                },
                {
                  "internalType": "string",
                  "name": "name",
                  "type": "string"
                },
                {
                  "internalType": "string",
                  "name": "description",
                  "type": "string"
                },
                {
                  "internalType": "uint256",
                  "name": "createdAt",
                  "type": "uint256"
                },
                {
                  "internalType": "uint256",
                  "name": "updatedAt",
                  "type": "uint256"
                },
                {
                  "internalType": "uint256",
                  "name": "premium",
                  "type": "uint256"
                },
                {
                  "internalType": "uint256",
                  "name": "payoutIfDelayed",
                  "type": "uint256"
                },
                {
                  "internalType": "uint256",
                  "name": "payoutIfLost",
                  "type": "uint256"
                },
                {
                  "internalType": "uint256",
                  "name": "maxTotalPayout",
                  "type": "uint256"
                },
                {
                  "internalType": "uint256",
                  "name": "coverageDurationDays",
                  "type": "uint256"
                },
                {
                  "internalType": "enum BaggagePolicy.PolicyTemplateStatus",
                  "name": "status",
                  "type": "uint8"
                }
              ],
              "internalType": "struct BaggagePolicy.PolicyTemplate",
              "name": "template",
              "type": "tuple"
            },
            {
              "internalType": "string",
              "name": "itemDescription",
              "type": "string"
            },
            {
              "internalType": "uint256",
              "name": "createdAt",
              "type": "uint256"
            },
            {
              "internalType": "uint256",
              "name": "payoutToDate",
              "type": "uint256"
            },
            {
              "internalType": "address",
              "name": "buyer",
              "type": "address"
            },
            {
              "internalType": "enum BaggagePolicy.PolicyStatus",
              "name": "status",
              "type": "uint8"
            }
          ],
          "internalType": "struct BaggagePolicy.UserPolicy[]",
          "name": "",
          "type": "tuple[]"
        }
      ],
      "stateMutability": "view",
      "type": "function"
    },
    {
      "inputs": [
        {
          "internalType": "address",
          "name": "user",
          "type": "address"
        }
      ],
      "name": "getUserFlightPolicies",
      "outputs": [
        {
          "components": [
            {
              "internalType": "uint256",
              "name": "policyId",
              "type": "uint256"
            },
            {
              "components": [
                {
                  "internalType": "string",
                  "name": "templateId",
                  "type": "string"
                },
                {
                  "internalType": "string",
                  "name": "name",
                  "type": "string"
                },
                {
                  "internalType": "string",
                  "name": "description",
                  "type": "string"
                },
                {
                  "internalType": "uint256",
                  "name": "createdAt",
                  "type": "uint256"
                },
                {
                  "internalType": "uint256",
                  "name": "updatedAt",
                  "type": "uint256"
                },
                {
                  "internalType": "uint256",
                  "name": "premium",
                  "type": "uint256"
                },
                {
                  "internalType": "uint256",
                  "name": "payoutPerHour",
                  "type": "uint256"
                },
                {
                  "internalType": "uint256",
                  "name": "delayThresholdHours",
                  "type": "uint256"
                },
                {
                  "internalType": "uint256",
                  "name": "maxTotalPayout",
                  "type": "uint256"
                },
                {
                  "internalType": "uint256",
                  "name": "coverageDurationDays",
                  "type": "uint256"
                },
                {
                  "internalType": "enum FlightPolicy.PolicyTemplateStatus",
                  "name": "status",
                  "type": "uint8"
                }
              ],
              "internalType": "struct FlightPolicy.PolicyTemplate",
              "name": "template",
              "type": "tuple"
            },
            {
              "internalType": "string",
              "name": "flightNumber",
              "type": "string"
            },
            {
              "internalType": "string",
              "name": "departureAirportCode",
              "type": "string"
            },
            {
              "internalType": "string",
              "name": "arrivalAirportCode",
              "type": "string"
            },
            {
              "internalType": "uint256",
              "name": "departureTime",
              "type": "uint256"
            },
            {
              "internalType": "uint256",
              "name": "createdAt",
              "type": "uint256"
            },
            {
              "internalType": "uint256",
              "name": "payoutToDate",
              "type": "uint256"
            },
            {
              "internalType": "address",
              "name": "buyer",
              "type": "address"
            },
            {
              "internalType": "enum FlightPolicy.PolicyStatus",
              "name": "status",
              "type": "uint8"
            }
          ],
          "internalType": "struct FlightPolicy.UserPolicy[]",
          "name": "",
          "type": "tuple[]"
        }
      ],
      "stateMutability": "view",
      "type": "function"
    },
    {
      "inputs": [
        {
          "internalType": "string",
          "name": "templateId",
          "type": "string"
        }
      ],
      "name": "getUserFlightPoliciesByTemplate",
      "outputs": [
        {
          "components": [
            {
              "internalType": "uint256",
              "name": "policyId",
              "type": "uint256"
            },
            {
              "components": [
                {
                  "internalType": "string",
                  "name": "templateId",
                  "type": "string"
                },
                {
                  "internalType": "string",
                  "name": "name",
                  "type": "string"
                },
                {
                  "internalType": "string",
                  "name": "description",
                  "type": "string"
                },
                {
                  "internalType": "uint256",
                  "name": "createdAt",
                  "type": "uint256"
                },
                {
                  "internalType": "uint256",
                  "name": "updatedAt",
                  "type": "uint256"
                },
                {
                  "internalType": "uint256",
                  "name": "premium",
                  "type": "uint256"
                },
                {
                  "internalType": "uint256",
                  "name": "payoutPerHour",
                  "type": "uint256"
                },
                {
                  "internalType": "uint256",
                  "name": "delayThresholdHours",
                  "type": "uint256"
                },
                {
                  "internalType": "uint256",
                  "name": "maxTotalPayout",
                  "type": "uint256"
                },
                {
                  "internalType": "uint256",
                  "name": "coverageDurationDays",
                  "type": "uint256"
                },
                {
                  "internalType": "enum FlightPolicy.PolicyTemplateStatus",
                  "name": "status",
                  "type": "uint8"
                }
              ],
              "internalType": "struct FlightPolicy.PolicyTemplate",
              "name": "template",
              "type": "tuple"
            },
            {
              "internalType": "string",
              "name": "flightNumber",
              "type": "string"
            },
            {
              "internalType": "string",
              "name": "departureAirportCode",
              "type": "string"
            },
            {
              "internalType": "string",
              "name": "arrivalAirportCode",
              "type": "string"
            },
            {
              "internalType": "uint256",
              "name": "departureTime",
              "type": "uint256"
            },
            {
              "internalType": "uint256",
              "name": "createdAt",
              "type": "uint256"
            },
            {
              "internalType": "uint256",
              "name": "payoutToDate",
              "type": "uint256"
            },
            {
              "internalType": "address",
              "name": "buyer",
              "type": "address"
            },
            {
              "internalType": "enum FlightPolicy.PolicyStatus",
              "name": "status",
              "type": "uint8"
            }
          ],
          "internalType": "struct FlightPolicy.UserPolicy[]",
          "name": "",
          "type": "tuple[]"
        }
      ],
      "stateMutability": "view",
      "type": "function"
    },
    {
      "inputs": [],
      "name": "insurerAddress",
      "outputs": [
        {
          "internalType": "address",
          "name": "",
          "type": "address"
        }
      ],
      "stateMutability": "view",
      "type": "function"
    },
    {
      "inputs": [
        {
          "components": [
            {
              "internalType": "string",
              "name": "templateId",
              "type": "string"
            },
            {
              "internalType": "string",
              "name": "name",
              "type": "string"
            },
            {
              "internalType": "string",
              "name": "description",
              "type": "string"
            },
            {
              "internalType": "uint256",
              "name": "createdAt",
              "type": "uint256"
            },
            {
              "internalType": "uint256",
              "name": "updatedAt",
              "type": "uint256"
            },
            {
              "internalType": "uint256",
              "name": "premium",
              "type": "uint256"
            },
            {
              "internalType": "uint256",
              "name": "payoutIfDelayed",
              "type": "uint256"
            },
            {
              "internalType": "uint256",
              "name": "payoutIfLost",
              "type": "uint256"
            },
            {
              "internalType": "uint256",
              "name": "maxTotalPayout",
              "type": "uint256"
            },
            {
              "internalType": "uint256",
              "name": "coverageDurationDays",
              "type": "uint256"
            },
            {
              "internalType": "enum BaggagePolicy.PolicyTemplateStatus",
              "name": "status",
              "type": "uint8"
            }
          ],
          "internalType": "struct BaggagePolicy.PolicyTemplate[]",
          "name": "templates",
          "type": "tuple[]"
        }
      ],
      "name": "isBaggagePolicyAllowedForPurchase",
      "outputs": [
        {
          "internalType": "bool[]",
          "name": "",
          "type": "bool[]"
        }
      ],
      "stateMutability": "view",
      "type": "function"
    },
    {
      "inputs": [
        {
          "components": [
            {
              "internalType": "string",
              "name": "templateId",
              "type": "string"
            },
            {
              "internalType": "string",
              "name": "name",
              "type": "string"
            },
            {
              "internalType": "string",
              "name": "description",
              "type": "string"
            },
            {
              "internalType": "uint256",
              "name": "createdAt",
              "type": "uint256"
            },
            {
              "internalType": "uint256",
              "name": "updatedAt",
              "type": "uint256"
            },
            {
              "internalType": "uint256",
              "name": "premium",
              "type": "uint256"
            },
            {
              "internalType": "uint256",
              "name": "payoutPerHour",
              "type": "uint256"
            },
            {
              "internalType": "uint256",
              "name": "delayThresholdHours",
              "type": "uint256"
            },
            {
              "internalType": "uint256",
              "name": "maxTotalPayout",
              "type": "uint256"
            },
            {
              "internalType": "uint256",
              "name": "coverageDurationDays",
              "type": "uint256"
            },
            {
              "internalType": "enum FlightPolicy.PolicyTemplateStatus",
              "name": "status",
              "type": "uint8"
            }
          ],
          "internalType": "struct FlightPolicy.PolicyTemplate[]",
          "name": "templates",
          "type": "tuple[]"
        }
      ],
      "name": "isFlightPolicyAllowedForPurchase",
      "outputs": [
        {
          "internalType": "bool[]",
          "name": "",
          "type": "bool[]"
        }
      ],
      "stateMutability": "view",
      "type": "function"
    },
    {
      "inputs": [
        {
          "internalType": "address",
          "name": "user",
          "type": "address"
        }
      ],
      "name": "isInsurer",
      "outputs": [
        {
          "internalType": "bool",
          "name": "",
          "type": "bool"
        }
      ],
      "stateMutability": "view",
      "type": "function"
    },
    {
      "inputs": [
        {
          "internalType": "uint256",
          "name": "policyId",
          "type": "uint256"
        }
      ],
      "name": "markBaggagePolicyAsExpired",
      "outputs": [],
      "stateMutability": "nonpayable",
      "type": "function"
    },
    {
      "inputs": [
        {
          "components": [
            {
              "internalType": "string",
              "name": "templateId",
              "type": "string"
            },
            {
              "internalType": "string",
              "name": "name",
              "type": "string"
            },
            {
              "internalType": "string",
              "name": "description",
              "type": "string"
            },
            {
              "internalType": "uint256",
              "name": "createdAt",
              "type": "uint256"
            },
            {
              "internalType": "uint256",
              "name": "updatedAt",
              "type": "uint256"
            },
            {
              "internalType": "uint256",
              "name": "premium",
              "type": "uint256"
            },
            {
              "internalType": "uint256",
              "name": "payoutIfDelayed",
              "type": "uint256"
            },
            {
              "internalType": "uint256",
              "name": "payoutIfLost",
              "type": "uint256"
            },
            {
              "internalType": "uint256",
              "name": "maxTotalPayout",
              "type": "uint256"
            },
            {
              "internalType": "uint256",
              "name": "coverageDurationDays",
              "type": "uint256"
            },
            {
              "internalType": "enum BaggagePolicy.PolicyTemplateStatus",
              "name": "status",
              "type": "uint8"
            }
          ],
          "internalType": "struct BaggagePolicy.PolicyTemplate",
          "name": "template",
          "type": "tuple"
        },
        {
          "internalType": "string",
          "name": "itemDescription",
          "type": "string"
        }
      ],
      "name": "purchaseBaggagePolicy",
      "outputs": [],
      "stateMutability": "payable",
      "type": "function"
    },
    {
      "inputs": [
        {
          "components": [
            {
              "internalType": "string",
              "name": "templateId",
              "type": "string"
            },
            {
              "internalType": "string",
              "name": "name",
              "type": "string"
            },
            {
              "internalType": "string",
              "name": "description",
              "type": "string"
            },
            {
              "internalType": "uint256",
              "name": "createdAt",
              "type": "uint256"
            },
            {
              "internalType": "uint256",
              "name": "updatedAt",
              "type": "uint256"
            },
            {
              "internalType": "uint256",
              "name": "premium",
              "type": "uint256"
            },
            {
              "internalType": "uint256",
              "name": "payoutPerHour",
              "type": "uint256"
            },
            {
              "internalType": "uint256",
              "name": "delayThresholdHours",
              "type": "uint256"
            },
            {
              "internalType": "uint256",
              "name": "maxTotalPayout",
              "type": "uint256"
            },
            {
              "internalType": "uint256",
              "name": "coverageDurationDays",
              "type": "uint256"
            },
            {
              "internalType": "enum FlightPolicy.PolicyTemplateStatus",
              "name": "status",
              "type": "uint8"
            }
          ],
          "internalType": "struct FlightPolicy.PolicyTemplate",
          "name": "template",
          "type": "tuple"
        },
        {
          "internalType": "string",
          "name": "flightNumber",
          "type": "string"
        },
        {
          "internalType": "string",
          "name": "departureAirportCode",
          "type": "string"
        },
        {
          "internalType": "string",
          "name": "arrivalAirportCode",
          "type": "string"
        },
        {
          "internalType": "uint256",
          "name": "departureTime",
          "type": "uint256"
        }
      ],
      "name": "purchaseFlightPolicy",
      "outputs": [],
      "stateMutability": "payable",
      "type": "function"
    },
    {
      "inputs": [
        {
          "internalType": "uint256",
          "name": "amountInWei",
          "type": "uint256"
        }
      ],
      "name": "withdraw",
      "outputs": [],
      "stateMutability": "nonpayable",
      "type": "function"
    },
    {
      "stateMutability": "payable",
      "type": "receive"
    }
  ],
  "bytecode": "0x60a06040523480156200001157600080fd5b5060405162003b9138038062003b9183398181016040528101906200003791906200015e565b3373ffffffffffffffffffffffffffffffffffffffff1660808173ffffffffffffffffffffffffffffffffffffffff1681525050816000806101000a81548173ffffffffffffffffffffffffffffffffffffffff021916908373ffffffffffffffffffffffffffffffffffffffff16021790555080600160006101000a81548173ffffffffffffffffffffffffffffffffffffffff021916908373ffffffffffffffffffffffffffffffffffffffff1602179055505050620001a5565b600080fd5b600073ffffffffffffffffffffffffffffffffffffffff82169050919050565b60006200012682620000f9565b9050919050565b620001388162000119565b81146200014457600080fd5b50565b60008151905062000158816200012d565b92915050565b60008060408385031215620001785762000177620000f4565b5b6000620001888582860162000147565b92505060206200019b8582860162000147565b9150509250929050565b60805161398a620002076000396000818161057001528181610641015281816106a80152818161071b0152818161084201528181610a0a01528181610f4f015281816110c7015281816111f0015281816112c10152611333015261398a6000f3fe6080604052600436106101185760003560e01c80638350e578116100a0578063ca7e292911610064578063ca7e2929146103c8578063d0e30db0146103f3578063da7897e2146103fd578063f368bc271461043a578063f8aa1d95146104655761011f565b80638350e578146102eb578063a4472e3214610307578063a7c0900e14610323578063b715521b1461034e578063bc8e51651461038b5761011f565b8063516f92f7116100e7578063516f92f7146101e05780636db30bad146102095780636f9fb98a146102465780637fba9ee514610271578063825ab849146102ae5761011f565b80630711651014610124578063260d47c51461014f5780632e1a7d4d1461018c5780634dd7b2a8146101b55761011f565b3661011f57005b600080fd5b34801561013057600080fd5b506101396104a2565b6040516101469190611736565b60405180910390f35b34801561015b57600080fd5b506101766004803603810190610171919061179b565b6104c6565b60405161018391906117e3565b60405180910390f35b34801561019857600080fd5b506101b360048036038101906101ae919061179b565b61056e565b005b3480156101c157600080fd5b506101ca610717565b6040516101d79190611c2b565b60405180910390f35b3480156101ec57600080fd5b506102076004803603810190610202919061179b565b610840565b005b34801561021557600080fd5b50610230600480360381019061022b9190611d82565b61095e565b60405161023d9190611c2b565b60405180910390f35b34801561025257600080fd5b5061025b610a06565b6040516102689190611dda565b60405180910390f35b34801561027d57600080fd5b5061029860048036038101906102939190611d82565b610a9c565b6040516102a591906120e7565b60405180910390f35b3480156102ba57600080fd5b506102d560048036038101906102d0919061237e565b610b46565b6040516102e29190612485565b60405180910390f35b6103056004803603810190610300919061262c565b610c6b565b005b610321600480360381019061031c9190612717565b610de0565b005b34801561032f57600080fd5b50610338610f4d565b604051610345919061279e565b60405180910390f35b34801561035a57600080fd5b50610375600480360381019061037091906127e5565b610f71565b6040516103829190611c2b565b60405180910390f35b34801561039757600080fd5b506103b260048036038101906103ad91906127e5565b611019565b6040516103bf91906120e7565b60405180910390f35b3480156103d457600080fd5b506103dd6110c3565b6040516103ea91906120e7565b60405180910390f35b6103fb6111ee565b005b34801561040957600080fd5b50610424600480360381019061041f91906127e5565b61132f565b60405161043191906117e3565b60405180910390f35b34801561044657600080fd5b5061044f611387565b60405161045c9190612833565b60405180910390f35b34801561047157600080fd5b5061048c6004803603810190610487919061292f565b6113ad565b6040516104999190612485565b60405180910390f35b60008054906101000a900473ffffffffffffffffffffffffffffffffffffffff1681565b60008060009054906101000a900473ffffffffffffffffffffffffffffffffffffffff1673ffffffffffffffffffffffffffffffffffffffff1663b0110cc683336040518363ffffffff1660e01b8152600401610524929190612978565b6020604051808303816000875af1158015610543573d6000803e3d6000fd5b505050506040513d601f19601f8201168201806040525081019061056791906129cd565b9050919050565b7f000000000000000000000000000000000000000000000000000000000000000073ffffffffffffffffffffffffffffffffffffffff163373ffffffffffffffffffffffffffffffffffffffff16146105fc576040517f08c379a00000000000000000000000000000000000000000000000000000000081526004016105f390612a7d565b60405180910390fd5b8047101561063f576040517f08c379a000000000000000000000000000000000000000000000000000000000815260040161063690612ae9565b60405180910390fd5b7f000000000000000000000000000000000000000000000000000000000000000073ffffffffffffffffffffffffffffffffffffffff166108fc829081150290604051600060405180830381858888f193505050501580156106a5573d6000803e3d6000fd5b507f000000000000000000000000000000000000000000000000000000000000000073ffffffffffffffffffffffffffffffffffffffff167feaff4b37086828766ad3268786972c0cd24259d4c87a80f9d3963a3c3d999b0d8260405161070c9190611dda565b60405180910390a250565b60607f000000000000000000000000000000000000000000000000000000000000000073ffffffffffffffffffffffffffffffffffffffff163373ffffffffffffffffffffffffffffffffffffffff16146107a7576040517f08c379a000000000000000000000000000000000000000000000000000000000815260040161079e90612a7d565b60405180910390fd5b60008054906101000a900473ffffffffffffffffffffffffffffffffffffffff1673ffffffffffffffffffffffffffffffffffffffff1663457e55216040518163ffffffff1660e01b8152600401600060405180830381865afa158015610812573d6000803e3d6000fd5b505050506040513d6000823e3d601f19601f8201168201806040525081019061083b9190612f84565b905090565b7f000000000000000000000000000000000000000000000000000000000000000073ffffffffffffffffffffffffffffffffffffffff163373ffffffffffffffffffffffffffffffffffffffff16146108ce576040517f08c379a00000000000000000000000000000000000000000000000000000000081526004016108c590612a7d565b60405180910390fd5b600160009054906101000a900473ffffffffffffffffffffffffffffffffffffffff1673ffffffffffffffffffffffffffffffffffffffff1663cf39c624826040518263ffffffff1660e01b81526004016109299190611dda565b600060405180830381600087803b15801561094357600080fd5b505af1158015610957573d6000803e3d6000fd5b5050505050565b606060008054906101000a900473ffffffffffffffffffffffffffffffffffffffff1673ffffffffffffffffffffffffffffffffffffffff16639c6cf7ef836040518263ffffffff1660e01b81526004016109b99190613006565b600060405180830381865afa1580156109d6573d6000803e3d6000fd5b505050506040513d6000823e3d601f19601f820116820180604052508101906109ff9190612f84565b9050919050565b60007f000000000000000000000000000000000000000000000000000000000000000073ffffffffffffffffffffffffffffffffffffffff163373ffffffffffffffffffffffffffffffffffffffff1614610a96576040517f08c379a0000000000000000000000000000000000000000000000000000000008152600401610a8d90612a7d565b60405180910390fd5b47905090565b6060600160009054906101000a900473ffffffffffffffffffffffffffffffffffffffff1673ffffffffffffffffffffffffffffffffffffffff16639c6cf7ef836040518263ffffffff1660e01b8152600401610af99190613006565b600060405180830381865afa158015610b16573d6000803e3d6000fd5b505050506040513d6000823e3d601f19601f82011682018060405250810190610b3f919061338f565b9050919050565b60606000825167ffffffffffffffff811115610b6557610b64611c57565b5b604051908082528060200260200182016040528015610b935781602001602082028036833780820191505090505b5090506000610ba06114d2565b905060005b8451811015610c60576000858281518110610bc357610bc26133d8565b5b6020026020010151610100015183610bdb9190613436565b905047670de0b6b3a764000082610bf2919061346a565b1115610c24576000848381518110610c0d57610c0c6133d8565b5b602002602001019015159081151581525050610c4c565b6001848381518110610c3957610c386133d8565b5b6020026020010190151590811515815250505b508080610c58906134ac565b915050610ba5565b508192505050919050565b6000610c756114d2565b905085610100015181610c889190613436565b905047811115610ccd576040517f08c379a0000000000000000000000000000000000000000000000000000000008152600401610cc490613566565b60405180910390fd5b60008060009054906101000a900473ffffffffffffffffffffffffffffffffffffffff1673ffffffffffffffffffffffffffffffffffffffff166331953ecc348989898989336040518863ffffffff1660e01b8152600401610d3496959493929190613683565b60206040518083038185885af1158015610d52573d6000803e3d6000fd5b50505050506040513d601f19601f82011682018060405250810190610d779190613700565b90508660000151604051610d8b9190613769565b6040518091039020813373ffffffffffffffffffffffffffffffffffffffff167f43617ea01c45d3386d7be4a6cb66bf94c0152a674cbd34a5de81ed135dfd7b1760405160405180910390a450505050505050565b6000610dea6114d2565b905082610100015181610dfd9190613436565b905047811115610e42576040517f08c379a0000000000000000000000000000000000000000000000000000000008152600401610e3990613566565b60405180910390fd5b6000600160009054906101000a900473ffffffffffffffffffffffffffffffffffffffff1673ffffffffffffffffffffffffffffffffffffffff1663e0516149348686336040518563ffffffff1660e01b8152600401610ea49392919061387d565b60206040518083038185885af1158015610ec2573d6000803e3d6000fd5b50505050506040513d601f19601f82011682018060405250810190610ee79190613700565b90508360000151604051610efb9190613769565b6040518091039020813373ffffffffffffffffffffffffffffffffffffffff167fd3ad849e96e45902e7d1f5bd084268392ad649bd4509857dbfd40ceb536aef3860405160405180910390a450505050565b7f000000000000000000000000000000000000000000000000000000000000000081565b606060008054906101000a900473ffffffffffffffffffffffffffffffffffffffff1673ffffffffffffffffffffffffffffffffffffffff166319ac4614836040518263ffffffff1660e01b8152600401610fcc919061279e565b600060405180830381865afa158015610fe9573d6000803e3d6000fd5b505050506040513d6000823e3d601f19601f820116820180604052508101906110129190612f84565b9050919050565b6060600160009054906101000a900473ffffffffffffffffffffffffffffffffffffffff1673ffffffffffffffffffffffffffffffffffffffff166319ac4614836040518263ffffffff1660e01b8152600401611076919061279e565b600060405180830381865afa158015611093573d6000803e3d6000fd5b505050506040513d6000823e3d601f19601f820116820180604052508101906110bc919061338f565b9050919050565b60607f000000000000000000000000000000000000000000000000000000000000000073ffffffffffffffffffffffffffffffffffffffff163373ffffffffffffffffffffffffffffffffffffffff1614611153576040517f08c379a000000000000000000000000000000000000000000000000000000000815260040161114a90612a7d565b60405180910390fd5b600160009054906101000a900473ffffffffffffffffffffffffffffffffffffffff1673ffffffffffffffffffffffffffffffffffffffff1663457e55216040518163ffffffff1660e01b8152600401600060405180830381865afa1580156111c0573d6000803e3d6000fd5b505050506040513d6000823e3d601f19601f820116820180604052508101906111e9919061338f565b905090565b7f000000000000000000000000000000000000000000000000000000000000000073ffffffffffffffffffffffffffffffffffffffff163373ffffffffffffffffffffffffffffffffffffffff161461127c576040517f08c379a000000000000000000000000000000000000000000000000000000000815260040161127390612a7d565b60405180910390fd5b600034116112bf576040517f08c379a00000000000000000000000000000000000000000000000000000000081526004016112b690613934565b60405180910390fd5b7f000000000000000000000000000000000000000000000000000000000000000073ffffffffffffffffffffffffffffffffffffffff167f543ba50a5eec5e6178218e364b1d0f396157b3c8fa278522c2cb7fd99407d474346040516113259190611dda565b60405180910390a2565b60007f000000000000000000000000000000000000000000000000000000000000000073ffffffffffffffffffffffffffffffffffffffff168273ffffffffffffffffffffffffffffffffffffffff16149050919050565b600160009054906101000a900473ffffffffffffffffffffffffffffffffffffffff1681565b60606000825167ffffffffffffffff8111156113cc576113cb611c57565b5b6040519080825280602002602001820160405280156113fa5781602001602082028036833780820191505090505b50905060006114076114d2565b905060005b84518110156114c757600085828151811061142a576114296133d8565b5b60200260200101516101000151836114429190613436565b905047670de0b6b3a764000082611459919061346a565b111561148b576000848381518110611474576114736133d8565b5b6020026020010190151590811515815250506114b3565b60018483815181106114a05761149f6133d8565b5b6020026020010190151590811515815250505b5080806114bf906134ac565b91505061140c565b508192505050919050565b6000806000905060008060009054906101000a900473ffffffffffffffffffffffffffffffffffffffff1673ffffffffffffffffffffffffffffffffffffffff1663457e55216040518163ffffffff1660e01b8152600401600060405180830381865afa158015611547573d6000803e3d6000fd5b505050506040513d6000823e3d601f19601f820116820180604052508101906115709190612f84565b90506000600160009054906101000a900473ffffffffffffffffffffffffffffffffffffffff1673ffffffffffffffffffffffffffffffffffffffff1663457e55216040518163ffffffff1660e01b8152600401600060405180830381865afa1580156115e1573d6000803e3d6000fd5b505050506040513d6000823e3d601f19601f8201168201806040525081019061160a919061338f565b905060005b825181101561165c5782818151811061162b5761162a6133d8565b5b6020026020010151602001516101000151846116479190613436565b93508080611654906134ac565b91505061160f565b5060005b81518110156116ad5781818151811061167c5761167b6133d8565b5b6020026020010151602001516101000151846116989190613436565b935080806116a5906134ac565b915050611660565b5082935050505090565b600073ffffffffffffffffffffffffffffffffffffffff82169050919050565b6000819050919050565b60006116fc6116f76116f2846116b7565b6116d7565b6116b7565b9050919050565b600061170e826116e1565b9050919050565b600061172082611703565b9050919050565b61173081611715565b82525050565b600060208201905061174b6000830184611727565b92915050565b6000604051905090565b600080fd5b600080fd5b6000819050919050565b61177881611765565b811461178357600080fd5b50565b6000813590506117958161176f565b92915050565b6000602082840312156117b1576117b061175b565b5b60006117bf84828501611786565b91505092915050565b60008115159050919050565b6117dd816117c8565b82525050565b60006020820190506117f860008301846117d4565b92915050565b600081519050919050565b600082825260208201905092915050565b6000819050602082019050919050565b61183381611765565b82525050565b600081519050919050565b600082825260208201905092915050565b60005b83811015611873578082015181840152602081019050611858565b60008484015250505050565b6000601f19601f8301169050919050565b600061189b82611839565b6118a58185611844565b93506118b5818560208601611855565b6118be8161187f565b840191505092915050565b7f4e487b7100000000000000000000000000000000000000000000000000000000600052602160045260246000fd5b60028110611909576119086118c9565b5b50565b600081905061191a826118f8565b919050565b600061192a8261190c565b9050919050565b61193a8161191f565b82525050565b600061016083016000830151848203600086015261195e8282611890565b915050602083015184820360208601526119788282611890565b915050604083015184820360408601526119928282611890565b91505060608301516119a7606086018261182a565b5060808301516119ba608086018261182a565b5060a08301516119cd60a086018261182a565b5060c08301516119e060c086018261182a565b5060e08301516119f360e086018261182a565b50610100830151611a0861010086018261182a565b50610120830151611a1d61012086018261182a565b50610140830151611a32610140860182611931565b508091505092915050565b6000611a48826116b7565b9050919050565b611a5881611a3d565b82525050565b60038110611a6f57611a6e6118c9565b5b50565b6000819050611a8082611a5e565b919050565b6000611a9082611a72565b9050919050565b611aa081611a85565b82525050565b600061014083016000830151611abf600086018261182a565b5060208301518482036020860152611ad78282611940565b91505060408301518482036040860152611af18282611890565b91505060608301518482036060860152611b0b8282611890565b91505060808301518482036080860152611b258282611890565b91505060a0830151611b3a60a086018261182a565b5060c0830151611b4d60c086018261182a565b5060e0830151611b6060e086018261182a565b50610100830151611b75610100860182611a4f565b50610120830151611b8a610120860182611a97565b508091505092915050565b6000611ba18383611aa6565b905092915050565b6000602082019050919050565b6000611bc1826117fe565b611bcb8185611809565b935083602082028501611bdd8561181a565b8060005b85811015611c195784840389528151611bfa8582611b95565b9450611c0583611ba9565b925060208a01995050600181019050611be1565b50829750879550505050505092915050565b60006020820190508181036000830152611c458184611bb6565b905092915050565b600080fd5b600080fd5b7f4e487b7100000000000000000000000000000000000000000000000000000000600052604160045260246000fd5b611c8f8261187f565b810181811067ffffffffffffffff82111715611cae57611cad611c57565b5b80604052505050565b6000611cc1611751565b9050611ccd8282611c86565b919050565b600067ffffffffffffffff821115611ced57611cec611c57565b5b611cf68261187f565b9050602081019050919050565b82818337600083830152505050565b6000611d25611d2084611cd2565b611cb7565b905082815260208101848484011115611d4157611d40611c52565b5b611d4c848285611d03565b509392505050565b600082601f830112611d6957611d68611c4d565b5b8135611d79848260208601611d12565b91505092915050565b600060208284031215611d9857611d9761175b565b5b600082013567ffffffffffffffff811115611db657611db5611760565b5b611dc284828501611d54565b91505092915050565b611dd481611765565b82525050565b6000602082019050611def6000830184611dcb565b92915050565b600081519050919050565b600082825260208201905092915050565b6000819050602082019050919050565b60028110611e3257611e316118c9565b5b50565b6000819050611e4382611e21565b919050565b6000611e5382611e35565b9050919050565b611e6381611e48565b82525050565b6000610160830160008301518482036000860152611e878282611890565b91505060208301518482036020860152611ea18282611890565b91505060408301518482036040860152611ebb8282611890565b9150506060830151611ed0606086018261182a565b506080830151611ee3608086018261182a565b5060a0830151611ef660a086018261182a565b5060c0830151611f0960c086018261182a565b5060e0830151611f1c60e086018261182a565b50610100830151611f3161010086018261182a565b50610120830151611f4661012086018261182a565b50610140830151611f5b610140860182611e5a565b508091505092915050565b60038110611f7757611f766118c9565b5b50565b6000819050611f8882611f66565b919050565b6000611f9882611f7a565b9050919050565b611fa881611f8d565b82525050565b600060e083016000830151611fc6600086018261182a565b5060208301518482036020860152611fde8282611e69565b91505060408301518482036040860152611ff88282611890565b915050606083015161200d606086018261182a565b506080830151612020608086018261182a565b5060a083015161203360a0860182611a4f565b5060c083015161204660c0860182611f9f565b508091505092915050565b600061205d8383611fae565b905092915050565b6000602082019050919050565b600061207d82611df5565b6120878185611e00565b93508360208202850161209985611e11565b8060005b858110156120d557848403895281516120b68582612051565b94506120c183612065565b925060208a0199505060018101905061209d565b50829750879550505050505092915050565b600060208201905081810360008301526121018184612072565b905092915050565b600067ffffffffffffffff82111561212457612123611c57565b5b602082029050602081019050919050565b600080fd5b600080fd5b600080fd5b6002811061215157600080fd5b50565b60008135905061216381612144565b92915050565b600061016082840312156121805761217f61213a565b5b61218b610160611cb7565b9050600082013567ffffffffffffffff8111156121ab576121aa61213f565b5b6121b784828501611d54565b600083015250602082013567ffffffffffffffff8111156121db576121da61213f565b5b6121e784828501611d54565b602083015250604082013567ffffffffffffffff81111561220b5761220a61213f565b5b61221784828501611d54565b604083015250606061222b84828501611786565b606083015250608061223f84828501611786565b60808301525060a061225384828501611786565b60a08301525060c061226784828501611786565b60c08301525060e061227b84828501611786565b60e08301525061010061229084828501611786565b610100830152506101206122a684828501611786565b610120830152506101406122bc84828501612154565b6101408301525092915050565b60006122dc6122d784612109565b611cb7565b905080838252602082019050602084028301858111156122ff576122fe612135565b5b835b8181101561234657803567ffffffffffffffff81111561232457612323611c4d565b5b8086016123318982612169565b85526020850194505050602081019050612301565b5050509392505050565b600082601f83011261236557612364611c4d565b5b81356123758482602086016122c9565b91505092915050565b6000602082840312156123945761239361175b565b5b600082013567ffffffffffffffff8111156123b2576123b1611760565b5b6123be84828501612350565b91505092915050565b600081519050919050565b600082825260208201905092915050565b6000819050602082019050919050565b6123fc816117c8565b82525050565b600061240e83836123f3565b60208301905092915050565b6000602082019050919050565b6000612432826123c7565b61243c81856123d2565b9350612447836123e3565b8060005b8381101561247857815161245f8882612402565b975061246a8361241a565b92505060018101905061244b565b5085935050505092915050565b6000602082019050818103600083015261249f8184612427565b905092915050565b600281106124b457600080fd5b50565b6000813590506124c6816124a7565b92915050565b600061016082840312156124e3576124e261213a565b5b6124ee610160611cb7565b9050600082013567ffffffffffffffff81111561250e5761250d61213f565b5b61251a84828501611d54565b600083015250602082013567ffffffffffffffff81111561253e5761253d61213f565b5b61254a84828501611d54565b602083015250604082013567ffffffffffffffff81111561256e5761256d61213f565b5b61257a84828501611d54565b604083015250606061258e84828501611786565b60608301525060806125a284828501611786565b60808301525060a06125b684828501611786565b60a08301525060c06125ca84828501611786565b60c08301525060e06125de84828501611786565b60e0830152506101006125f384828501611786565b6101008301525061012061260984828501611786565b6101208301525061014061261f848285016124b7565b6101408301525092915050565b600080600080600060a086880312156126485761264761175b565b5b600086013567ffffffffffffffff81111561266657612665611760565b5b612672888289016124cc565b955050602086013567ffffffffffffffff81111561269357612692611760565b5b61269f88828901611d54565b945050604086013567ffffffffffffffff8111156126c0576126bf611760565b5b6126cc88828901611d54565b935050606086013567ffffffffffffffff8111156126ed576126ec611760565b5b6126f988828901611d54565b925050608061270a88828901611786565b9150509295509295909350565b6000806040838503121561272e5761272d61175b565b5b600083013567ffffffffffffffff81111561274c5761274b611760565b5b61275885828601612169565b925050602083013567ffffffffffffffff81111561277957612778611760565b5b61278585828601611d54565b9150509250929050565b61279881611a3d565b82525050565b60006020820190506127b3600083018461278f565b92915050565b6127c281611a3d565b81146127cd57600080fd5b50565b6000813590506127df816127b9565b92915050565b6000602082840312156127fb576127fa61175b565b5b6000612809848285016127d0565b91505092915050565b600061281d82611703565b9050919050565b61282d81612812565b82525050565b60006020820190506128486000830184612824565b92915050565b600067ffffffffffffffff82111561286957612868611c57565b5b602082029050602081019050919050565b600061288d6128888461284e565b611cb7565b905080838252602082019050602084028301858111156128b0576128af612135565b5b835b818110156128f757803567ffffffffffffffff8111156128d5576128d4611c4d565b5b8086016128e289826124cc565b855260208501945050506020810190506128b2565b5050509392505050565b600082601f83011261291657612915611c4d565b5b813561292684826020860161287a565b91505092915050565b6000602082840312156129455761294461175b565b5b600082013567ffffffffffffffff81111561296357612962611760565b5b61296f84828501612901565b91505092915050565b600060408201905061298d6000830185611dcb565b61299a602083018461278f565b9392505050565b6129aa816117c8565b81146129b557600080fd5b50565b6000815190506129c7816129a1565b92915050565b6000602082840312156129e3576129e261175b565b5b60006129f1848285016129b8565b91505092915050565b600082825260208201905092915050565b7f496e73757265723a204f6e6c792074686520696e73757265722063616e20636160008201527f6c6c207468697300000000000000000000000000000000000000000000000000602082015250565b6000612a676027836129fa565b9150612a7282612a0b565b604082019050919050565b60006020820190508181036000830152612a9681612a5a565b9050919050565b7f496e73756666696369656e742062616c616e6365000000000000000000000000600082015250565b6000612ad36014836129fa565b9150612ade82612a9d565b602082019050919050565b60006020820190508181036000830152612b0281612ac6565b9050919050565b600067ffffffffffffffff821115612b2457612b23611c57565b5b602082029050602081019050919050565b600081519050612b448161176f565b92915050565b6000612b5d612b5884611cd2565b611cb7565b905082815260208101848484011115612b7957612b78611c52565b5b612b84848285611855565b509392505050565b600082601f830112612ba157612ba0611c4d565b5b8151612bb1848260208601612b4a565b91505092915050565b600081519050612bc9816124a7565b92915050565b60006101608284031215612be657612be561213a565b5b612bf1610160611cb7565b9050600082015167ffffffffffffffff811115612c1157612c1061213f565b5b612c1d84828501612b8c565b600083015250602082015167ffffffffffffffff811115612c4157612c4061213f565b5b612c4d84828501612b8c565b602083015250604082015167ffffffffffffffff811115612c7157612c7061213f565b5b612c7d84828501612b8c565b6040830152506060612c9184828501612b35565b6060830152506080612ca584828501612b35565b60808301525060a0612cb984828501612b35565b60a08301525060c0612ccd84828501612b35565b60c08301525060e0612ce184828501612b35565b60e083015250610100612cf684828501612b35565b61010083015250610120612d0c84828501612b35565b61012083015250610140612d2284828501612bba565b6101408301525092915050565b600081519050612d3e816127b9565b92915050565b60038110612d5157600080fd5b50565b600081519050612d6381612d44565b92915050565b60006101408284031215612d8057612d7f61213a565b5b612d8b610140611cb7565b90506000612d9b84828501612b35565b600083015250602082015167ffffffffffffffff811115612dbf57612dbe61213f565b5b612dcb84828501612bcf565b602083015250604082015167ffffffffffffffff811115612def57612dee61213f565b5b612dfb84828501612b8c565b604083015250606082015167ffffffffffffffff811115612e1f57612e1e61213f565b5b612e2b84828501612b8c565b606083015250608082015167ffffffffffffffff811115612e4f57612e4e61213f565b5b612e5b84828501612b8c565b60808301525060a0612e6f84828501612b35565b60a08301525060c0612e8384828501612b35565b60c08301525060e0612e9784828501612b35565b60e083015250610100612eac84828501612d2f565b61010083015250610120612ec284828501612d54565b6101208301525092915050565b6000612ee2612edd84612b09565b611cb7565b90508083825260208201905060208402830185811115612f0557612f04612135565b5b835b81811015612f4c57805167ffffffffffffffff811115612f2a57612f29611c4d565b5b808601612f378982612d69565b85526020850194505050602081019050612f07565b5050509392505050565b600082601f830112612f6b57612f6a611c4d565b5b8151612f7b848260208601612ecf565b91505092915050565b600060208284031215612f9a57612f9961175b565b5b600082015167ffffffffffffffff811115612fb857612fb7611760565b5b612fc484828501612f56565b91505092915050565b6000612fd882611839565b612fe281856129fa565b9350612ff2818560208601611855565b612ffb8161187f565b840191505092915050565b600060208201905081810360008301526130208184612fcd565b905092915050565b600067ffffffffffffffff82111561304357613042611c57565b5b602082029050602081019050919050565b60008151905061306381612144565b92915050565b600061016082840312156130805761307f61213a565b5b61308b610160611cb7565b9050600082015167ffffffffffffffff8111156130ab576130aa61213f565b5b6130b784828501612b8c565b600083015250602082015167ffffffffffffffff8111156130db576130da61213f565b5b6130e784828501612b8c565b602083015250604082015167ffffffffffffffff81111561310b5761310a61213f565b5b61311784828501612b8c565b604083015250606061312b84828501612b35565b606083015250608061313f84828501612b35565b60808301525060a061315384828501612b35565b60a08301525060c061316784828501612b35565b60c08301525060e061317b84828501612b35565b60e08301525061010061319084828501612b35565b610100830152506101206131a684828501612b35565b610120830152506101406131bc84828501613054565b6101408301525092915050565b600381106131d657600080fd5b50565b6000815190506131e8816131c9565b92915050565b600060e082840312156132045761320361213a565b5b61320e60e0611cb7565b9050600061321e84828501612b35565b600083015250602082015167ffffffffffffffff8111156132425761324161213f565b5b61324e84828501613069565b602083015250604082015167ffffffffffffffff8111156132725761327161213f565b5b61327e84828501612b8c565b604083015250606061329284828501612b35565b60608301525060806132a684828501612b35565b60808301525060a06132ba84828501612d2f565b60a08301525060c06132ce848285016131d9565b60c08301525092915050565b60006132ed6132e884613028565b611cb7565b905080838252602082019050602084028301858111156133105761330f612135565b5b835b8181101561335757805167ffffffffffffffff81111561333557613334611c4d565b5b80860161334289826131ee565b85526020850194505050602081019050613312565b5050509392505050565b600082601f83011261337657613375611c4d565b5b81516133868482602086016132da565b91505092915050565b6000602082840312156133a5576133a461175b565b5b600082015167ffffffffffffffff8111156133c3576133c2611760565b5b6133cf84828501613361565b91505092915050565b7f4e487b7100000000000000000000000000000000000000000000000000000000600052603260045260246000fd5b7f4e487b7100000000000000000000000000000000000000000000000000000000600052601160045260246000fd5b600061344182611765565b915061344c83611765565b925082820190508082111561346457613463613407565b5b92915050565b600061347582611765565b915061348083611765565b925082820261348e81611765565b915082820484148315176134a5576134a4613407565b5b5092915050565b60006134b782611765565b91507fffffffffffffffffffffffffffffffffffffffffffffffffffffffffffffffff82036134e9576134e8613407565b5b600182019050919050565b7f496e73756666696369656e7420636f6e74726163742062616c616e636520746f60008201527f20636f76657220706f74656e7469616c207061796f7574730000000000000000602082015250565b60006135506038836129fa565b915061355b826134f4565b604082019050919050565b6000602082019050818103600083015261357f81613543565b9050919050565b60006101608301600083015184820360008601526135a48282611890565b915050602083015184820360208601526135be8282611890565b915050604083015184820360408601526135d88282611890565b91505060608301516135ed606086018261182a565b506080830151613600608086018261182a565b5060a083015161361360a086018261182a565b5060c083015161362660c086018261182a565b5060e083015161363960e086018261182a565b5061010083015161364e61010086018261182a565b5061012083015161366361012086018261182a565b50610140830151613678610140860182611931565b508091505092915050565b600060c082019050818103600083015261369d8189613586565b905081810360208301526136b18188612fcd565b905081810360408301526136c58187612fcd565b905081810360608301526136d98186612fcd565b90506136e86080830185611dcb565b6136f560a083018461278f565b979650505050505050565b6000602082840312156137165761371561175b565b5b600061372484828501612b35565b91505092915050565b600081905092915050565b600061374382611839565b61374d818561372d565b935061375d818560208601611855565b80840191505092915050565b60006137758284613738565b915081905092915050565b600061016083016000830151848203600086015261379e8282611890565b915050602083015184820360208601526137b88282611890565b915050604083015184820360408601526137d28282611890565b91505060608301516137e7606086018261182a565b5060808301516137fa608086018261182a565b5060a083015161380d60a086018261182a565b5060c083015161382060c086018261182a565b5060e083015161383360e086018261182a565b5061010083015161384861010086018261182a565b5061012083015161385d61012086018261182a565b50610140830151613872610140860182611e5a565b508091505092915050565b600060608201905081810360008301526138978186613780565b905081810360208301526138ab8185612fcd565b90506138ba604083018461278f565b949350505050565b7f496e73757265723a204d757374206465706f736974206120706f73697469766560008201527f20616d6f756e7400000000000000000000000000000000000000000000000000602082015250565b600061391e6027836129fa565b9150613929826138c2565b604082019050919050565b6000602082019050818103600083015261394d81613911565b905091905056fea26469706673582212208edea8771ff66e3f31957f7dbe49134230f95fa3c8825961b4e2de95eed2613964736f6c63430008130033",
  "linkReferences": {},
  "deployedLinkReferences": {}
}