{
  "_format": "hh-sol-artifact-1",
  "contractName": "Insurer",
  "sourceName": "contracts/Insurer.sol",
  "abi": [
    {
      "inputs": [
        {
          "internalType": "address",
          "name": "_flightPolicyAddress",
          "type": "address"
        }
      ],
      "stateMutability": "nonpayable",
      "type": "constructor"
    },
    {
      "anonymous": false,
      "inputs": [
        {
          "indexed": true,
          "internalType": "address",
          "name": "buyer",
          "type": "address"
        },
        {
          "indexed": true,
          "internalType": "uint256",
          "name": "policyId",
          "type": "uint256"
        }
      ],
      "name": "FlightPolicyClaimed",
      "type": "event"
    },
    {
      "anonymous": false,
      "inputs": [
        {
          "indexed": true,
          "internalType": "address",
          "name": "buyer",
          "type": "address"
        },
        {
          "indexed": true,
          "internalType": "uint256",
          "name": "policyId",
          "type": "uint256"
        },
        {
          "indexed": true,
          "internalType": "uint256",
          "name": "templateId",
          "type": "uint256"
        }
      ],
      "name": "FlightPolicyPurchased",
      "type": "event"
    },
    {
      "anonymous": false,
      "inputs": [
        {
          "indexed": true,
          "internalType": "uint256",
          "name": "templateId",
          "type": "uint256"
        },
        {
          "indexed": false,
          "internalType": "string",
          "name": "name",
          "type": "string"
        }
      ],
      "name": "FlightPolicyTemplateCreated",
      "type": "event"
    },
    {
      "anonymous": false,
      "inputs": [
        {
          "indexed": true,
          "internalType": "uint256",
          "name": "templateId",
          "type": "uint256"
        }
      ],
      "name": "FlightPolicyTemplateDeactivated",
      "type": "event"
    },
    {
      "inputs": [
        {
          "internalType": "uint256",
          "name": "policyId",
          "type": "uint256"
        }
      ],
      "name": "claimFlightPayout",
      "outputs": [],
      "stateMutability": "nonpayable",
      "type": "function"
    },
    {
      "inputs": [
        {
          "internalType": "string",
          "name": "name",
          "type": "string"
        },
        {
          "internalType": "string",
          "name": "description",
          "type": "string"
        },
        {
          "internalType": "uint256",
          "name": "premium",
          "type": "uint256"
        },
        {
          "internalType": "uint256",
          "name": "payoutPerHour",
          "type": "uint256"
        },
        {
          "internalType": "uint256",
          "name": "delayThresholdHours",
          "type": "uint256"
        },
        {
          "internalType": "uint256",
          "name": "maxTotalPayout",
          "type": "uint256"
        },
        {
          "internalType": "uint256",
          "name": "coverageDurationDays",
          "type": "uint256"
        }
      ],
      "name": "createFlightPolicyTemplate",
      "outputs": [],
      "stateMutability": "nonpayable",
      "type": "function"
    },
    {
      "inputs": [
        {
          "internalType": "uint256",
          "name": "templateId",
          "type": "uint256"
        }
      ],
      "name": "deactivateFlightPolicyTemplate",
      "outputs": [],
      "stateMutability": "nonpayable",
      "type": "function"
    },
    {
      "inputs": [],
      "name": "flightPolicy",
      "outputs": [
        {
          "internalType": "contract FlightPolicy",
          "name": "",
          "type": "address"
        }
      ],
      "stateMutability": "view",
      "type": "function"
    },
    {
      "inputs": [],
      "name": "getActiveFlightPolicyTemplates",
      "outputs": [
        {
          "components": [
            {
              "internalType": "uint256",
              "name": "templateId",
              "type": "uint256"
            },
            {
              "internalType": "string",
              "name": "name",
              "type": "string"
            },
            {
              "internalType": "string",
              "name": "description",
              "type": "string"
            },
            {
              "internalType": "uint256",
              "name": "createdAt",
              "type": "uint256"
            },
            {
              "internalType": "uint256",
              "name": "premium",
              "type": "uint256"
            },
            {
              "internalType": "uint256",
              "name": "payoutPerHour",
              "type": "uint256"
            },
            {
              "internalType": "uint256",
              "name": "delayThresholdHours",
              "type": "uint256"
            },
            {
              "internalType": "uint256",
              "name": "maxTotalPayout",
              "type": "uint256"
            },
            {
              "internalType": "uint256",
              "name": "coverageDurationDays",
              "type": "uint256"
            },
            {
              "internalType": "enum FlightPolicy.PolicyTemplateStatus",
              "name": "status",
              "type": "uint8"
            }
          ],
          "internalType": "struct FlightPolicy.PolicyTemplate[]",
          "name": "",
          "type": "tuple[]"
        }
      ],
      "stateMutability": "view",
      "type": "function"
    },
    {
      "inputs": [],
      "name": "getAllFlightPolicies",
      "outputs": [
        {
          "components": [
            {
              "internalType": "uint256",
              "name": "policyId",
              "type": "uint256"
            },
            {
              "internalType": "uint256",
              "name": "templateId",
              "type": "uint256"
            },
            {
              "internalType": "string",
              "name": "flightNumber",
              "type": "string"
            },
            {
              "internalType": "string",
              "name": "departureAirportCode",
              "type": "string"
            },
            {
              "internalType": "string",
              "name": "arrivalAirportCode",
              "type": "string"
            },
            {
              "internalType": "uint256",
              "name": "departureTime",
              "type": "uint256"
            },
            {
              "internalType": "uint256",
              "name": "createdAt",
              "type": "uint256"
            },
            {
              "internalType": "uint256",
              "name": "payoutToDate",
              "type": "uint256"
            },
            {
              "internalType": "address",
              "name": "buyer",
              "type": "address"
            },
            {
              "internalType": "enum FlightPolicy.PolicyStatus",
              "name": "status",
              "type": "uint8"
            }
          ],
          "internalType": "struct FlightPolicy.UserPolicy[]",
          "name": "",
          "type": "tuple[]"
        }
      ],
      "stateMutability": "view",
      "type": "function"
    },
    {
      "inputs": [],
      "name": "getAllFlightPolicyTemplates",
      "outputs": [
        {
          "components": [
            {
              "internalType": "uint256",
              "name": "templateId",
              "type": "uint256"
            },
            {
              "internalType": "string",
              "name": "name",
              "type": "string"
            },
            {
              "internalType": "string",
              "name": "description",
              "type": "string"
            },
            {
              "internalType": "uint256",
              "name": "createdAt",
              "type": "uint256"
            },
            {
              "internalType": "uint256",
              "name": "premium",
              "type": "uint256"
            },
            {
              "internalType": "uint256",
              "name": "payoutPerHour",
              "type": "uint256"
            },
            {
              "internalType": "uint256",
              "name": "delayThresholdHours",
              "type": "uint256"
            },
            {
              "internalType": "uint256",
              "name": "maxTotalPayout",
              "type": "uint256"
            },
            {
              "internalType": "uint256",
              "name": "coverageDurationDays",
              "type": "uint256"
            },
            {
              "internalType": "enum FlightPolicy.PolicyTemplateStatus",
              "name": "status",
              "type": "uint8"
            }
          ],
          "internalType": "struct FlightPolicy.PolicyTemplate[]",
          "name": "",
          "type": "tuple[]"
        }
      ],
      "stateMutability": "view",
      "type": "function"
    },
    {
      "inputs": [
        {
          "internalType": "uint256",
          "name": "templateId",
          "type": "uint256"
        }
      ],
      "name": "getFlightPolicyTemplateById",
      "outputs": [
        {
          "components": [
            {
              "internalType": "uint256",
              "name": "templateId",
              "type": "uint256"
            },
            {
              "internalType": "string",
              "name": "name",
              "type": "string"
            },
            {
              "internalType": "string",
              "name": "description",
              "type": "string"
            },
            {
              "internalType": "uint256",
              "name": "createdAt",
              "type": "uint256"
            },
            {
              "internalType": "uint256",
              "name": "premium",
              "type": "uint256"
            },
            {
              "internalType": "uint256",
              "name": "payoutPerHour",
              "type": "uint256"
            },
            {
              "internalType": "uint256",
              "name": "delayThresholdHours",
              "type": "uint256"
            },
            {
              "internalType": "uint256",
              "name": "maxTotalPayout",
              "type": "uint256"
            },
            {
              "internalType": "uint256",
              "name": "coverageDurationDays",
              "type": "uint256"
            },
            {
              "internalType": "enum FlightPolicy.PolicyTemplateStatus",
              "name": "status",
              "type": "uint8"
            }
          ],
          "internalType": "struct FlightPolicy.PolicyTemplate",
          "name": "",
          "type": "tuple"
        }
      ],
      "stateMutability": "view",
      "type": "function"
    },
    {
      "inputs": [
        {
          "internalType": "address",
          "name": "user",
          "type": "address"
        },
        {
          "internalType": "uint256",
          "name": "policyId",
          "type": "uint256"
        }
      ],
      "name": "getFlightPolicyWithTemplate",
      "outputs": [
        {
          "components": [
            {
              "internalType": "uint256",
              "name": "policyId",
              "type": "uint256"
            },
            {
              "internalType": "uint256",
              "name": "templateId",
              "type": "uint256"
            },
            {
              "internalType": "string",
              "name": "flightNumber",
              "type": "string"
            },
            {
              "internalType": "string",
              "name": "departureAirportCode",
              "type": "string"
            },
            {
              "internalType": "string",
              "name": "arrivalAirportCode",
              "type": "string"
            },
            {
              "internalType": "uint256",
              "name": "departureTime",
              "type": "uint256"
            },
            {
              "internalType": "uint256",
              "name": "createdAt",
              "type": "uint256"
            },
            {
              "internalType": "uint256",
              "name": "payoutToDate",
              "type": "uint256"
            },
            {
              "internalType": "address",
              "name": "buyer",
              "type": "address"
            },
            {
              "internalType": "enum FlightPolicy.PolicyStatus",
              "name": "status",
              "type": "uint8"
            }
          ],
          "internalType": "struct FlightPolicy.UserPolicy",
          "name": "",
          "type": "tuple"
        },
        {
          "components": [
            {
              "internalType": "uint256",
              "name": "templateId",
              "type": "uint256"
            },
            {
              "internalType": "string",
              "name": "name",
              "type": "string"
            },
            {
              "internalType": "string",
              "name": "description",
              "type": "string"
            },
            {
              "internalType": "uint256",
              "name": "createdAt",
              "type": "uint256"
            },
            {
              "internalType": "uint256",
              "name": "premium",
              "type": "uint256"
            },
            {
              "internalType": "uint256",
              "name": "payoutPerHour",
              "type": "uint256"
            },
            {
              "internalType": "uint256",
              "name": "delayThresholdHours",
              "type": "uint256"
            },
            {
              "internalType": "uint256",
              "name": "maxTotalPayout",
              "type": "uint256"
            },
            {
              "internalType": "uint256",
              "name": "coverageDurationDays",
              "type": "uint256"
            },
            {
              "internalType": "enum FlightPolicy.PolicyTemplateStatus",
              "name": "status",
              "type": "uint8"
            }
          ],
          "internalType": "struct FlightPolicy.PolicyTemplate",
          "name": "",
          "type": "tuple"
        }
      ],
      "stateMutability": "view",
      "type": "function"
    },
    {
      "inputs": [
        {
          "internalType": "address",
          "name": "user",
          "type": "address"
        }
      ],
      "name": "getUserFlightPolicies",
      "outputs": [
        {
          "components": [
            {
              "internalType": "uint256",
              "name": "policyId",
              "type": "uint256"
            },
            {
              "internalType": "uint256",
              "name": "templateId",
              "type": "uint256"
            },
            {
              "internalType": "string",
              "name": "flightNumber",
              "type": "string"
            },
            {
              "internalType": "string",
              "name": "departureAirportCode",
              "type": "string"
            },
            {
              "internalType": "string",
              "name": "arrivalAirportCode",
              "type": "string"
            },
            {
              "internalType": "uint256",
              "name": "departureTime",
              "type": "uint256"
            },
            {
              "internalType": "uint256",
              "name": "createdAt",
              "type": "uint256"
            },
            {
              "internalType": "uint256",
              "name": "payoutToDate",
              "type": "uint256"
            },
            {
              "internalType": "address",
              "name": "buyer",
              "type": "address"
            },
            {
              "internalType": "enum FlightPolicy.PolicyStatus",
              "name": "status",
              "type": "uint8"
            }
          ],
          "internalType": "struct FlightPolicy.UserPolicy[]",
          "name": "",
          "type": "tuple[]"
        }
      ],
      "stateMutability": "view",
      "type": "function"
    },
    {
      "inputs": [
        {
          "internalType": "uint256",
          "name": "templateId",
          "type": "uint256"
        }
      ],
      "name": "getUserPoliciesByTemplate",
      "outputs": [
        {
          "components": [
            {
              "internalType": "uint256",
              "name": "policyId",
              "type": "uint256"
            },
            {
              "internalType": "uint256",
              "name": "templateId",
              "type": "uint256"
            },
            {
              "internalType": "string",
              "name": "flightNumber",
              "type": "string"
            },
            {
              "internalType": "string",
              "name": "departureAirportCode",
              "type": "string"
            },
            {
              "internalType": "string",
              "name": "arrivalAirportCode",
              "type": "string"
            },
            {
              "internalType": "uint256",
              "name": "departureTime",
              "type": "uint256"
            },
            {
              "internalType": "uint256",
              "name": "createdAt",
              "type": "uint256"
            },
            {
              "internalType": "uint256",
              "name": "payoutToDate",
              "type": "uint256"
            },
            {
              "internalType": "address",
              "name": "buyer",
              "type": "address"
            },
            {
              "internalType": "enum FlightPolicy.PolicyStatus",
              "name": "status",
              "type": "uint8"
            }
          ],
          "internalType": "struct FlightPolicy.UserPolicy[]",
          "name": "",
          "type": "tuple[]"
        }
      ],
      "stateMutability": "view",
      "type": "function"
    },
    {
      "inputs": [],
      "name": "insurerAddress",
      "outputs": [
        {
          "internalType": "address",
          "name": "",
          "type": "address"
        }
      ],
      "stateMutability": "view",
      "type": "function"
    },
    {
      "inputs": [
        {
          "internalType": "address",
          "name": "user",
          "type": "address"
        }
      ],
      "name": "isInsurer",
      "outputs": [
        {
          "internalType": "bool",
          "name": "",
          "type": "bool"
        }
      ],
      "stateMutability": "view",
      "type": "function"
    },
    {
      "inputs": [
        {
          "internalType": "uint256",
          "name": "policyId",
          "type": "uint256"
        }
      ],
      "name": "markFlightPolicyAsExpired",
      "outputs": [],
      "stateMutability": "nonpayable",
      "type": "function"
    },
    {
      "inputs": [
        {
          "internalType": "uint256",
          "name": "templateId",
          "type": "uint256"
        },
        {
          "internalType": "string",
          "name": "flightNumber",
          "type": "string"
        },
        {
          "internalType": "string",
          "name": "departureAirportCode",
          "type": "string"
        },
        {
          "internalType": "string",
          "name": "arrivalAirportCode",
          "type": "string"
        },
        {
          "internalType": "uint256",
          "name": "departureTime",
          "type": "uint256"
        }
      ],
      "name": "purchaseFlightPolicy",
      "outputs": [],
      "stateMutability": "payable",
      "type": "function"
    },
    {
      "inputs": [
        {
          "internalType": "uint256",
          "name": "amountInWei",
          "type": "uint256"
        }
      ],
      "name": "withdraw",
      "outputs": [],
      "stateMutability": "nonpayable",
      "type": "function"
    },
    {
      "stateMutability": "payable",
      "type": "receive"
    }
  ],
  "bytecode": "0x60a06040523480156200001157600080fd5b5060405162002a1238038062002a1283398181016040528101906200003791906200011c565b3373ffffffffffffffffffffffffffffffffffffffff1660808173ffffffffffffffffffffffffffffffffffffffff1681525050806000806101000a81548173ffffffffffffffffffffffffffffffffffffffff021916908373ffffffffffffffffffffffffffffffffffffffff160217905550506200014e565b600080fd5b600073ffffffffffffffffffffffffffffffffffffffff82169050919050565b6000620000e482620000b7565b9050919050565b620000f681620000d7565b81146200010257600080fd5b50565b6000815190506200011681620000eb565b92915050565b600060208284031215620001355762000134620000b2565b5b6000620001458482850162000105565b91505092915050565b608051612869620001a96000396000818161058a0152818161065b015281816106cd015281816108fa01528181610a7901528181610ba201528181610cc801528181610de401528181610f5801526110a301526128696000f3fe6080604052600436106100f75760003560e01c80636017f97e1161008a578063b715521b11610059578063b715521b14610314578063be3dfb7814610351578063da7897e21461037a578063f05e5b62146103b7576100fe565b80636017f97e146102585780636906496e14610283578063a7c0900e146102ac578063b55d4a2f146102d7576100fe565b806333018f45116100c657806333018f45146101ab57806343c0e7cb146101e85780634aefa0fe146102045780634dd7b2a81461022d576100fe565b806307116510146101035780632287ddc41461012e578063260d47c5146101595780632e1a7d4d14610182576100fe565b366100fe57005b600080fd5b34801561010f57600080fd5b506101186103f5565b6040516101259190611312565b60405180910390f35b34801561013a57600080fd5b50610143610419565b60405161015091906115f0565b60405180910390f35b34801561016557600080fd5b50610180600480360381019061017b9190611652565b6104b4565b005b34801561018e57600080fd5b506101a960048036038101906101a49190611652565b610588565b005b3480156101b757600080fd5b506101d260048036038101906101cd9190611652565b6106c3565b6040516101df9190611760565b60405180910390f35b61020260048036038101906101fd91906118b7565b6107ff565b005b34801561021057600080fd5b5061022b60048036038101906102269190611986565b6108f8565b005b34801561023957600080fd5b50610242610a75565b60405161024f9190611c73565b60405180910390f35b34801561026457600080fd5b5061026d610b9e565b60405161027a91906115f0565b60405180910390f35b34801561028f57600080fd5b506102aa60048036038101906102a59190611652565b610cc6565b005b3480156102b857600080fd5b506102c1610de2565b6040516102ce9190611ca4565b60405180910390f35b3480156102e357600080fd5b506102fe60048036038101906102f99190611652565b610e06565b60405161030b9190611c73565b60405180910390f35b34801561032057600080fd5b5061033b60048036038101906103369190611ceb565b610eae565b6040516103489190611c73565b60405180910390f35b34801561035d57600080fd5b5061037860048036038101906103739190611652565b610f56565b005b34801561038657600080fd5b506103a1600480360381019061039c9190611ceb565b61109f565b6040516103ae9190611d33565b60405180910390f35b3480156103c357600080fd5b506103de60048036038101906103d99190611d4e565b6110f7565b6040516103ec929190611e76565b60405180910390f35b60008054906101000a900473ffffffffffffffffffffffffffffffffffffffff1681565b606060008054906101000a900473ffffffffffffffffffffffffffffffffffffffff1673ffffffffffffffffffffffffffffffffffffffff1663e79cdf1d6040518163ffffffff1660e01b8152600401600060405180830381865afa158015610486573d6000803e3d6000fd5b505050506040513d6000823e3d601f19601f820116820180604052508101906104af9190612175565b905090565b60008054906101000a900473ffffffffffffffffffffffffffffffffffffffff1673ffffffffffffffffffffffffffffffffffffffff1663b0110cc682336040518363ffffffff1660e01b815260040161050f9291906121cd565b600060405180830381600087803b15801561052957600080fd5b505af115801561053d573d6000803e3d6000fd5b50505050803373ffffffffffffffffffffffffffffffffffffffff167fd97fa6902eb91d71aea44cc906baaea3f41dab00c2f987da7f9d97b28172d40660405160405180910390a350565b7f000000000000000000000000000000000000000000000000000000000000000073ffffffffffffffffffffffffffffffffffffffff163373ffffffffffffffffffffffffffffffffffffffff1614610616576040517f08c379a000000000000000000000000000000000000000000000000000000000815260040161060d90612279565b60405180910390fd5b80471015610659576040517f08c379a0000000000000000000000000000000000000000000000000000000008152600401610650906122e5565b60405180910390fd5b7f000000000000000000000000000000000000000000000000000000000000000073ffffffffffffffffffffffffffffffffffffffff166108fc829081150290604051600060405180830381858888f193505050501580156106bf573d6000803e3d6000fd5b5050565b6106cb6111b3565b7f000000000000000000000000000000000000000000000000000000000000000073ffffffffffffffffffffffffffffffffffffffff163373ffffffffffffffffffffffffffffffffffffffff1614610759576040517f08c379a000000000000000000000000000000000000000000000000000000000815260040161075090612279565b60405180910390fd5b60008054906101000a900473ffffffffffffffffffffffffffffffffffffffff1673ffffffffffffffffffffffffffffffffffffffff16635990fa36836040518263ffffffff1660e01b81526004016107b29190612305565b600060405180830381865afa1580156107cf573d6000803e3d6000fd5b505050506040513d6000823e3d601f19601f820116820180604052508101906107f89190612320565b9050919050565b60008060009054906101000a900473ffffffffffffffffffffffffffffffffffffffff1673ffffffffffffffffffffffffffffffffffffffff1663b207edc7348888888888336040518863ffffffff1660e01b8152600401610866969594939291906123a2565b60206040518083038185885af1158015610884573d6000803e3d6000fd5b50505050506040513d601f19601f820116820180604052508101906108a99190612418565b905085813373ffffffffffffffffffffffffffffffffffffffff167feffe1aca794f1f12cecd2282e563efd5541b166abc4535dbd19df10aa98a16de60405160405180910390a4505050505050565b7f000000000000000000000000000000000000000000000000000000000000000073ffffffffffffffffffffffffffffffffffffffff163373ffffffffffffffffffffffffffffffffffffffff1614610986576040517f08c379a000000000000000000000000000000000000000000000000000000000815260040161097d90612279565b60405180910390fd5b60008060009054906101000a900473ffffffffffffffffffffffffffffffffffffffff1673ffffffffffffffffffffffffffffffffffffffff166388641494898989898989896040518863ffffffff1660e01b81526004016109ee9796959493929190612445565b6020604051808303816000875af1158015610a0d573d6000803e3d6000fd5b505050506040513d601f19601f82011682018060405250810190610a319190612418565b9050807fc69722450388b8bc8a6113ad1972ad8c8ddfde8ef6606ec1d011e195bc00dfb889604051610a6391906124c2565b60405180910390a25050505050505050565b60607f000000000000000000000000000000000000000000000000000000000000000073ffffffffffffffffffffffffffffffffffffffff163373ffffffffffffffffffffffffffffffffffffffff1614610b05576040517f08c379a0000000000000000000000000000000000000000000000000000000008152600401610afc90612279565b60405180910390fd5b60008054906101000a900473ffffffffffffffffffffffffffffffffffffffff1673ffffffffffffffffffffffffffffffffffffffff1663457e55216040518163ffffffff1660e01b8152600401600060405180830381865afa158015610b70573d6000803e3d6000fd5b505050506040513d6000823e3d601f19601f82011682018060405250810190610b999190612749565b905090565b60607f000000000000000000000000000000000000000000000000000000000000000073ffffffffffffffffffffffffffffffffffffffff163373ffffffffffffffffffffffffffffffffffffffff1614610c2e576040517f08c379a0000000000000000000000000000000000000000000000000000000008152600401610c2590612279565b60405180910390fd5b60008054906101000a900473ffffffffffffffffffffffffffffffffffffffff1673ffffffffffffffffffffffffffffffffffffffff1662c84c046040518163ffffffff1660e01b8152600401600060405180830381865afa158015610c98573d6000803e3d6000fd5b505050506040513d6000823e3d601f19601f82011682018060405250810190610cc19190612175565b905090565b7f000000000000000000000000000000000000000000000000000000000000000073ffffffffffffffffffffffffffffffffffffffff163373ffffffffffffffffffffffffffffffffffffffff1614610d54576040517f08c379a0000000000000000000000000000000000000000000000000000000008152600401610d4b90612279565b60405180910390fd5b60008054906101000a900473ffffffffffffffffffffffffffffffffffffffff1673ffffffffffffffffffffffffffffffffffffffff1663cf39c624826040518263ffffffff1660e01b8152600401610dad9190612305565b600060405180830381600087803b158015610dc757600080fd5b505af1158015610ddb573d6000803e3d6000fd5b5050505050565b7f000000000000000000000000000000000000000000000000000000000000000081565b606060008054906101000a900473ffffffffffffffffffffffffffffffffffffffff1673ffffffffffffffffffffffffffffffffffffffff1663b55d4a2f836040518263ffffffff1660e01b8152600401610e619190612305565b600060405180830381865afa158015610e7e573d6000803e3d6000fd5b505050506040513d6000823e3d601f19601f82011682018060405250810190610ea79190612749565b9050919050565b606060008054906101000a900473ffffffffffffffffffffffffffffffffffffffff1673ffffffffffffffffffffffffffffffffffffffff166319ac4614836040518263ffffffff1660e01b8152600401610f099190611ca4565b600060405180830381865afa158015610f26573d6000803e3d6000fd5b505050506040513d6000823e3d601f19601f82011682018060405250810190610f4f9190612749565b9050919050565b7f000000000000000000000000000000000000000000000000000000000000000073ffffffffffffffffffffffffffffffffffffffff163373ffffffffffffffffffffffffffffffffffffffff1614610fe4576040517f08c379a0000000000000000000000000000000000000000000000000000000008152600401610fdb90612279565b60405180910390fd5b60008054906101000a900473ffffffffffffffffffffffffffffffffffffffff1673ffffffffffffffffffffffffffffffffffffffff1663482ab102826040518263ffffffff1660e01b815260040161103d9190612305565b600060405180830381600087803b15801561105757600080fd5b505af115801561106b573d6000803e3d6000fd5b50505050807f143219b70842595e29b0ba3550cb75419efa6e37ecb13c1d58dcb81e6ff95f1960405160405180910390a250565b60007f000000000000000000000000000000000000000000000000000000000000000073ffffffffffffffffffffffffffffffffffffffff168273ffffffffffffffffffffffffffffffffffffffff16149050919050565b6110ff611218565b6111076111b3565b60008054906101000a900473ffffffffffffffffffffffffffffffffffffffff1673ffffffffffffffffffffffffffffffffffffffff166313e896b685856040518363ffffffff1660e01b8152600401611162929190612792565b600060405180830381865afa15801561117f573d6000803e3d6000fd5b505050506040513d6000823e3d601f19601f820116820180604052508101906111a891906127bb565b915091509250929050565b6040518061014001604052806000815260200160608152602001606081526020016000815260200160008152602001600081526020016000815260200160008152602001600081526020016000600181111561121257611211611402565b5b81525090565b6040518061014001604052806000815260200160008152602001606081526020016060815260200160608152602001600081526020016000815260200160008152602001600073ffffffffffffffffffffffffffffffffffffffff1681526020016000600281111561128d5761128c611402565b5b81525090565b600073ffffffffffffffffffffffffffffffffffffffff82169050919050565b6000819050919050565b60006112d86112d36112ce84611293565b6112b3565b611293565b9050919050565b60006112ea826112bd565b9050919050565b60006112fc826112df565b9050919050565b61130c816112f1565b82525050565b60006020820190506113276000830184611303565b92915050565b600081519050919050565b600082825260208201905092915050565b6000819050602082019050919050565b6000819050919050565b61136c81611359565b82525050565b600081519050919050565b600082825260208201905092915050565b60005b838110156113ac578082015181840152602081019050611391565b60008484015250505050565b6000601f19601f8301169050919050565b60006113d482611372565b6113de818561137d565b93506113ee81856020860161138e565b6113f7816113b8565b840191505092915050565b7f4e487b7100000000000000000000000000000000000000000000000000000000600052602160045260246000fd5b6002811061144257611441611402565b5b50565b600081905061145382611431565b919050565b600061146382611445565b9050919050565b61147381611458565b82525050565b6000610140830160008301516114926000860182611363565b50602083015184820360208601526114aa82826113c9565b915050604083015184820360408601526114c482826113c9565b91505060608301516114d96060860182611363565b5060808301516114ec6080860182611363565b5060a08301516114ff60a0860182611363565b5060c083015161151260c0860182611363565b5060e083015161152560e0860182611363565b5061010083015161153a610100860182611363565b5061012083015161154f61012086018261146a565b508091505092915050565b60006115668383611479565b905092915050565b6000602082019050919050565b60006115868261132d565b6115908185611338565b9350836020820285016115a285611349565b8060005b858110156115de57848403895281516115bf858261155a565b94506115ca8361156e565b925060208a019950506001810190506115a6565b50829750879550505050505092915050565b6000602082019050818103600083015261160a818461157b565b905092915050565b6000604051905090565b600080fd5b600080fd5b61162f81611359565b811461163a57600080fd5b50565b60008135905061164c81611626565b92915050565b6000602082840312156116685761166761161c565b5b60006116768482850161163d565b91505092915050565b6000610140830160008301516116986000860182611363565b50602083015184820360208601526116b082826113c9565b915050604083015184820360408601526116ca82826113c9565b91505060608301516116df6060860182611363565b5060808301516116f26080860182611363565b5060a083015161170560a0860182611363565b5060c083015161171860c0860182611363565b5060e083015161172b60e0860182611363565b50610100830151611740610100860182611363565b5061012083015161175561012086018261146a565b508091505092915050565b6000602082019050818103600083015261177a818461167f565b905092915050565b600080fd5b600080fd5b7f4e487b7100000000000000000000000000000000000000000000000000000000600052604160045260246000fd5b6117c4826113b8565b810181811067ffffffffffffffff821117156117e3576117e261178c565b5b80604052505050565b60006117f6611612565b905061180282826117bb565b919050565b600067ffffffffffffffff8211156118225761182161178c565b5b61182b826113b8565b9050602081019050919050565b82818337600083830152505050565b600061185a61185584611807565b6117ec565b90508281526020810184848401111561187657611875611787565b5b611881848285611838565b509392505050565b600082601f83011261189e5761189d611782565b5b81356118ae848260208601611847565b91505092915050565b600080600080600060a086880312156118d3576118d261161c565b5b60006118e18882890161163d565b955050602086013567ffffffffffffffff81111561190257611901611621565b5b61190e88828901611889565b945050604086013567ffffffffffffffff81111561192f5761192e611621565b5b61193b88828901611889565b935050606086013567ffffffffffffffff81111561195c5761195b611621565b5b61196888828901611889565b92505060806119798882890161163d565b9150509295509295909350565b600080600080600080600060e0888a0312156119a5576119a461161c565b5b600088013567ffffffffffffffff8111156119c3576119c2611621565b5b6119cf8a828b01611889565b975050602088013567ffffffffffffffff8111156119f0576119ef611621565b5b6119fc8a828b01611889565b9650506040611a0d8a828b0161163d565b9550506060611a1e8a828b0161163d565b9450506080611a2f8a828b0161163d565b93505060a0611a408a828b0161163d565b92505060c0611a518a828b0161163d565b91505092959891949750929550565b600081519050919050565b600082825260208201905092915050565b6000819050602082019050919050565b6000611a9782611293565b9050919050565b611aa781611a8c565b82525050565b60038110611abe57611abd611402565b5b50565b6000819050611acf82611aad565b919050565b6000611adf82611ac1565b9050919050565b611aef81611ad4565b82525050565b600061014083016000830151611b0e6000860182611363565b506020830151611b216020860182611363565b5060408301518482036040860152611b3982826113c9565b91505060608301518482036060860152611b5382826113c9565b91505060808301518482036080860152611b6d82826113c9565b91505060a0830151611b8260a0860182611363565b5060c0830151611b9560c0860182611363565b5060e0830151611ba860e0860182611363565b50610100830151611bbd610100860182611a9e565b50610120830151611bd2610120860182611ae6565b508091505092915050565b6000611be98383611af5565b905092915050565b6000602082019050919050565b6000611c0982611a60565b611c138185611a6b565b935083602082028501611c2585611a7c565b8060005b85811015611c615784840389528151611c428582611bdd565b9450611c4d83611bf1565b925060208a01995050600181019050611c29565b50829750879550505050505092915050565b60006020820190508181036000830152611c8d8184611bfe565b905092915050565b611c9e81611a8c565b82525050565b6000602082019050611cb96000830184611c95565b92915050565b611cc881611a8c565b8114611cd357600080fd5b50565b600081359050611ce581611cbf565b92915050565b600060208284031215611d0157611d0061161c565b5b6000611d0f84828501611cd6565b91505092915050565b60008115159050919050565b611d2d81611d18565b82525050565b6000602082019050611d486000830184611d24565b92915050565b60008060408385031215611d6557611d6461161c565b5b6000611d7385828601611cd6565b9250506020611d848582860161163d565b9150509250929050565b600061014083016000830151611da76000860182611363565b506020830151611dba6020860182611363565b5060408301518482036040860152611dd282826113c9565b91505060608301518482036060860152611dec82826113c9565b91505060808301518482036080860152611e0682826113c9565b91505060a0830151611e1b60a0860182611363565b5060c0830151611e2e60c0860182611363565b5060e0830151611e4160e0860182611363565b50610100830151611e56610100860182611a9e565b50610120830151611e6b610120860182611ae6565b508091505092915050565b60006040820190508181036000830152611e908185611d8e565b90508181036020830152611ea4818461167f565b90509392505050565b600067ffffffffffffffff821115611ec857611ec761178c565b5b602082029050602081019050919050565b600080fd5b600080fd5b600080fd5b600081519050611ef781611626565b92915050565b6000611f10611f0b84611807565b6117ec565b905082815260208101848484011115611f2c57611f2b611787565b5b611f3784828561138e565b509392505050565b600082601f830112611f5457611f53611782565b5b8151611f64848260208601611efd565b91505092915050565b60028110611f7a57600080fd5b50565b600081519050611f8c81611f6d565b92915050565b60006101408284031215611fa957611fa8611ede565b5b611fb46101406117ec565b90506000611fc484828501611ee8565b600083015250602082015167ffffffffffffffff811115611fe857611fe7611ee3565b5b611ff484828501611f3f565b602083015250604082015167ffffffffffffffff81111561201857612017611ee3565b5b61202484828501611f3f565b604083015250606061203884828501611ee8565b606083015250608061204c84828501611ee8565b60808301525060a061206084828501611ee8565b60a08301525060c061207484828501611ee8565b60c08301525060e061208884828501611ee8565b60e08301525061010061209d84828501611ee8565b610100830152506101206120b384828501611f7d565b6101208301525092915050565b60006120d36120ce84611ead565b6117ec565b905080838252602082019050602084028301858111156120f6576120f5611ed9565b5b835b8181101561213d57805167ffffffffffffffff81111561211b5761211a611782565b5b8086016121288982611f92565b855260208501945050506020810190506120f8565b5050509392505050565b600082601f83011261215c5761215b611782565b5b815161216c8482602086016120c0565b91505092915050565b60006020828403121561218b5761218a61161c565b5b600082015167ffffffffffffffff8111156121a9576121a8611621565b5b6121b584828501612147565b91505092915050565b6121c781611359565b82525050565b60006040820190506121e260008301856121be565b6121ef6020830184611c95565b9392505050565b600082825260208201905092915050565b7f496e73757265723a204f6e6c792074686520696e73757265722063616e20636160008201527f6c6c207468697300000000000000000000000000000000000000000000000000602082015250565b60006122636027836121f6565b915061226e82612207565b604082019050919050565b6000602082019050818103600083015261229281612256565b9050919050565b7f496e73756666696369656e742062616c616e6365000000000000000000000000600082015250565b60006122cf6014836121f6565b91506122da82612299565b602082019050919050565b600060208201905081810360008301526122fe816122c2565b9050919050565b600060208201905061231a60008301846121be565b92915050565b6000602082840312156123365761233561161c565b5b600082015167ffffffffffffffff81111561235457612353611621565b5b61236084828501611f92565b91505092915050565b600061237482611372565b61237e81856121f6565b935061238e81856020860161138e565b612397816113b8565b840191505092915050565b600060c0820190506123b760008301896121be565b81810360208301526123c98188612369565b905081810360408301526123dd8187612369565b905081810360608301526123f18186612369565b905061240060808301856121be565b61240d60a0830184611c95565b979650505050505050565b60006020828403121561242e5761242d61161c565b5b600061243c84828501611ee8565b91505092915050565b600060e082019050818103600083015261245f818a612369565b905081810360208301526124738189612369565b905061248260408301886121be565b61248f60608301876121be565b61249c60808301866121be565b6124a960a08301856121be565b6124b660c08301846121be565b98975050505050505050565b600060208201905081810360008301526124dc8184612369565b905092915050565b600067ffffffffffffffff8211156124ff576124fe61178c565b5b602082029050602081019050919050565b60008151905061251f81611cbf565b92915050565b6003811061253257600080fd5b50565b60008151905061254481612525565b92915050565b6000610140828403121561256157612560611ede565b5b61256c6101406117ec565b9050600061257c84828501611ee8565b600083015250602061259084828501611ee8565b602083015250604082015167ffffffffffffffff8111156125b4576125b3611ee3565b5b6125c084828501611f3f565b604083015250606082015167ffffffffffffffff8111156125e4576125e3611ee3565b5b6125f084828501611f3f565b606083015250608082015167ffffffffffffffff81111561261457612613611ee3565b5b61262084828501611f3f565b60808301525060a061263484828501611ee8565b60a08301525060c061264884828501611ee8565b60c08301525060e061265c84828501611ee8565b60e08301525061010061267184828501612510565b6101008301525061012061268784828501612535565b6101208301525092915050565b60006126a76126a2846124e4565b6117ec565b905080838252602082019050602084028301858111156126ca576126c9611ed9565b5b835b8181101561271157805167ffffffffffffffff8111156126ef576126ee611782565b5b8086016126fc898261254a565b855260208501945050506020810190506126cc565b5050509392505050565b600082601f8301126127305761272f611782565b5b8151612740848260208601612694565b91505092915050565b60006020828403121561275f5761275e61161c565b5b600082015167ffffffffffffffff81111561277d5761277c611621565b5b6127898482850161271b565b91505092915050565b60006040820190506127a76000830185611c95565b6127b460208301846121be565b9392505050565b600080604083850312156127d2576127d161161c565b5b600083015167ffffffffffffffff8111156127f0576127ef611621565b5b6127fc8582860161254a565b925050602083015167ffffffffffffffff81111561281d5761281c611621565b5b61282985828601611f92565b915050925092905056fea2646970667358221220fe84c332b8e13a09fa932fbe150528a1062a73b87d8b3f379adc956277d1bf6464736f6c63430008130033",
  "linkReferences": {},
  "deployedLinkReferences": {}
}