{
  "_format": "hh-sol-artifact-1",
  "contractName": "Insurer",
  "sourceName": "contracts/Insurer.sol",
  "abi": [
    {
      "inputs": [
        {
          "internalType": "address",
          "name": "_flightPolicyAddress",
          "type": "address"
        },
        {
          "internalType": "address",
          "name": "_baggagePolicyAddress",
          "type": "address"
        }
      ],
      "stateMutability": "nonpayable",
      "type": "constructor"
    },
    {
      "anonymous": false,
      "inputs": [
        {
          "indexed": true,
          "internalType": "address",
          "name": "buyer",
          "type": "address"
        },
        {
          "indexed": true,
          "internalType": "uint256",
          "name": "policyId",
          "type": "uint256"
        }
      ],
      "name": "BaggagePolicyClaimed",
      "type": "event"
    },
    {
      "anonymous": false,
      "inputs": [
        {
          "indexed": true,
          "internalType": "address",
          "name": "buyer",
          "type": "address"
        },
        {
          "indexed": true,
          "internalType": "uint256",
          "name": "policyId",
          "type": "uint256"
        },
        {
          "indexed": true,
          "internalType": "string",
          "name": "templateId",
          "type": "string"
        }
      ],
      "name": "BaggagePolicyPurchased",
      "type": "event"
    },
    {
      "anonymous": false,
      "inputs": [
        {
          "indexed": true,
          "internalType": "address",
          "name": "buyer",
          "type": "address"
        },
        {
          "indexed": true,
          "internalType": "uint256",
          "name": "policyId",
          "type": "uint256"
        },
        {
          "indexed": true,
          "internalType": "string",
          "name": "templateId",
          "type": "string"
        }
      ],
      "name": "FlightPolicyPurchased",
      "type": "event"
    },
    {
      "anonymous": false,
      "inputs": [
        {
          "indexed": true,
          "internalType": "address",
          "name": "insurer",
          "type": "address"
        },
        {
          "indexed": false,
          "internalType": "uint256",
          "name": "amount",
          "type": "uint256"
        }
      ],
      "name": "FundsDeposited",
      "type": "event"
    },
    {
      "anonymous": false,
      "inputs": [
        {
          "indexed": true,
          "internalType": "address",
          "name": "insurer",
          "type": "address"
        },
        {
          "indexed": false,
          "internalType": "uint256",
          "name": "amount",
          "type": "uint256"
        }
      ],
      "name": "FundsWithdrawn",
      "type": "event"
    },
    {
      "anonymous": false,
      "inputs": [
        {
          "indexed": true,
          "internalType": "uint256",
          "name": "policyId",
          "type": "uint256"
        },
        {
          "indexed": true,
          "internalType": "address",
          "name": "buyer",
          "type": "address"
        },
        {
          "indexed": false,
          "internalType": "uint256",
          "name": "amount",
          "type": "uint256"
        }
      ],
      "name": "PayoutClaimed",
      "type": "event"
    },
    {
      "inputs": [],
      "name": "baggagePolicy",
      "outputs": [
        {
          "internalType": "contract BaggagePolicy",
          "name": "",
          "type": "address"
        }
      ],
      "stateMutability": "view",
      "type": "function"
    },
    {
      "inputs": [
        {
          "internalType": "uint256",
          "name": "policyId",
          "type": "uint256"
        }
      ],
      "name": "claimFlightPayout",
      "outputs": [],
      "stateMutability": "nonpayable",
      "type": "function"
    },
    {
      "inputs": [],
      "name": "deposit",
      "outputs": [],
      "stateMutability": "payable",
      "type": "function"
    },
    {
      "inputs": [],
      "name": "flightPolicy",
      "outputs": [
        {
          "internalType": "contract FlightPolicy",
          "name": "",
          "type": "address"
        }
      ],
      "stateMutability": "view",
      "type": "function"
    },
    {
      "inputs": [
        {
          "internalType": "uint256",
          "name": "currentTime",
          "type": "uint256"
        }
      ],
      "name": "getAllBaggagePolicies",
      "outputs": [
        {
          "components": [
            {
              "internalType": "uint256",
              "name": "policyId",
              "type": "uint256"
            },
            {
              "components": [
                {
                  "internalType": "string",
                  "name": "templateId",
                  "type": "string"
                },
                {
                  "internalType": "string",
                  "name": "name",
                  "type": "string"
                },
                {
                  "internalType": "string",
                  "name": "description",
                  "type": "string"
                },
                {
                  "internalType": "uint256",
                  "name": "createdAt",
                  "type": "uint256"
                },
                {
                  "internalType": "uint256",
                  "name": "updatedAt",
                  "type": "uint256"
                },
                {
                  "internalType": "uint256",
                  "name": "premium",
                  "type": "uint256"
                },
                {
                  "internalType": "uint256",
                  "name": "payoutIfDelayed",
                  "type": "uint256"
                },
                {
                  "internalType": "uint256",
                  "name": "payoutIfLost",
                  "type": "uint256"
                },
                {
                  "internalType": "uint256",
                  "name": "maxTotalPayout",
                  "type": "uint256"
                },
                {
                  "internalType": "uint256",
                  "name": "coverageDurationSeconds",
                  "type": "uint256"
                },
                {
                  "internalType": "enum BaggagePolicy.PolicyTemplateStatus",
                  "name": "status",
                  "type": "uint8"
                }
              ],
              "internalType": "struct BaggagePolicy.PolicyTemplate",
              "name": "template",
              "type": "tuple"
            },
            {
              "internalType": "string",
              "name": "itemDescription",
              "type": "string"
            },
            {
              "internalType": "uint256",
              "name": "createdAt",
              "type": "uint256"
            },
            {
              "internalType": "uint256",
              "name": "payoutToDate",
              "type": "uint256"
            },
            {
              "internalType": "address",
              "name": "buyer",
              "type": "address"
            },
            {
              "internalType": "enum BaggagePolicy.PolicyStatus",
              "name": "status",
              "type": "uint8"
            }
          ],
          "internalType": "struct BaggagePolicy.UserPolicy[]",
          "name": "",
          "type": "tuple[]"
        }
      ],
      "stateMutability": "view",
      "type": "function"
    },
    {
      "inputs": [
        {
          "internalType": "uint256",
          "name": "currentTime",
          "type": "uint256"
        }
      ],
      "name": "getAllFlightPolicies",
      "outputs": [
        {
          "components": [
            {
              "internalType": "uint256",
              "name": "policyId",
              "type": "uint256"
            },
            {
              "components": [
                {
                  "internalType": "string",
                  "name": "templateId",
                  "type": "string"
                },
                {
                  "internalType": "string",
                  "name": "name",
                  "type": "string"
                },
                {
                  "internalType": "string",
                  "name": "description",
                  "type": "string"
                },
                {
                  "internalType": "uint256",
                  "name": "createdAt",
                  "type": "uint256"
                },
                {
                  "internalType": "uint256",
                  "name": "updatedAt",
                  "type": "uint256"
                },
                {
                  "internalType": "uint256",
                  "name": "premium",
                  "type": "uint256"
                },
                {
                  "internalType": "uint256",
                  "name": "payoutPerHour",
                  "type": "uint256"
                },
                {
                  "internalType": "uint256",
                  "name": "delayThresholdHours",
                  "type": "uint256"
                },
                {
                  "internalType": "uint256",
                  "name": "maxTotalPayout",
                  "type": "uint256"
                },
                {
                  "internalType": "uint256",
                  "name": "coverageDurationSeconds",
                  "type": "uint256"
                },
                {
                  "internalType": "enum FlightPolicy.PolicyTemplateStatus",
                  "name": "status",
                  "type": "uint8"
                }
              ],
              "internalType": "struct FlightPolicy.PolicyTemplate",
              "name": "template",
              "type": "tuple"
            },
            {
              "internalType": "string",
              "name": "flightNumber",
              "type": "string"
            },
            {
              "internalType": "string",
              "name": "departureAirportCode",
              "type": "string"
            },
            {
              "internalType": "string",
              "name": "arrivalAirportCode",
              "type": "string"
            },
            {
              "internalType": "uint256",
              "name": "departureTime",
              "type": "uint256"
            },
            {
              "internalType": "uint256",
              "name": "createdAt",
              "type": "uint256"
            },
            {
              "internalType": "uint256",
              "name": "payoutToDate",
              "type": "uint256"
            },
            {
              "internalType": "address",
              "name": "buyer",
              "type": "address"
            },
            {
              "internalType": "enum FlightPolicy.PolicyStatus",
              "name": "status",
              "type": "uint8"
            }
          ],
          "internalType": "struct FlightPolicy.UserPolicy[]",
          "name": "",
          "type": "tuple[]"
        }
      ],
      "stateMutability": "view",
      "type": "function"
    },
    {
      "inputs": [],
      "name": "getContractBalance",
      "outputs": [
        {
          "internalType": "uint256",
          "name": "",
          "type": "uint256"
        }
      ],
      "stateMutability": "view",
      "type": "function"
    },
    {
      "inputs": [
        {
          "internalType": "address",
          "name": "user",
          "type": "address"
        },
        {
          "internalType": "uint256",
          "name": "currentTime",
          "type": "uint256"
        }
      ],
      "name": "getUserBaggagePolicies",
      "outputs": [
        {
          "components": [
            {
              "internalType": "uint256",
              "name": "policyId",
              "type": "uint256"
            },
            {
              "components": [
                {
                  "internalType": "string",
                  "name": "templateId",
                  "type": "string"
                },
                {
                  "internalType": "string",
                  "name": "name",
                  "type": "string"
                },
                {
                  "internalType": "string",
                  "name": "description",
                  "type": "string"
                },
                {
                  "internalType": "uint256",
                  "name": "createdAt",
                  "type": "uint256"
                },
                {
                  "internalType": "uint256",
                  "name": "updatedAt",
                  "type": "uint256"
                },
                {
                  "internalType": "uint256",
                  "name": "premium",
                  "type": "uint256"
                },
                {
                  "internalType": "uint256",
                  "name": "payoutIfDelayed",
                  "type": "uint256"
                },
                {
                  "internalType": "uint256",
                  "name": "payoutIfLost",
                  "type": "uint256"
                },
                {
                  "internalType": "uint256",
                  "name": "maxTotalPayout",
                  "type": "uint256"
                },
                {
                  "internalType": "uint256",
                  "name": "coverageDurationSeconds",
                  "type": "uint256"
                },
                {
                  "internalType": "enum BaggagePolicy.PolicyTemplateStatus",
                  "name": "status",
                  "type": "uint8"
                }
              ],
              "internalType": "struct BaggagePolicy.PolicyTemplate",
              "name": "template",
              "type": "tuple"
            },
            {
              "internalType": "string",
              "name": "itemDescription",
              "type": "string"
            },
            {
              "internalType": "uint256",
              "name": "createdAt",
              "type": "uint256"
            },
            {
              "internalType": "uint256",
              "name": "payoutToDate",
              "type": "uint256"
            },
            {
              "internalType": "address",
              "name": "buyer",
              "type": "address"
            },
            {
              "internalType": "enum BaggagePolicy.PolicyStatus",
              "name": "status",
              "type": "uint8"
            }
          ],
          "internalType": "struct BaggagePolicy.UserPolicy[]",
          "name": "",
          "type": "tuple[]"
        }
      ],
      "stateMutability": "view",
      "type": "function"
    },
    {
      "inputs": [
        {
          "internalType": "string",
          "name": "templateId",
          "type": "string"
        },
        {
          "internalType": "uint256",
          "name": "currentTime",
          "type": "uint256"
        }
      ],
      "name": "getUserBaggagePoliciesByTemplate",
      "outputs": [
        {
          "components": [
            {
              "internalType": "uint256",
              "name": "policyId",
              "type": "uint256"
            },
            {
              "components": [
                {
                  "internalType": "string",
                  "name": "templateId",
                  "type": "string"
                },
                {
                  "internalType": "string",
                  "name": "name",
                  "type": "string"
                },
                {
                  "internalType": "string",
                  "name": "description",
                  "type": "string"
                },
                {
                  "internalType": "uint256",
                  "name": "createdAt",
                  "type": "uint256"
                },
                {
                  "internalType": "uint256",
                  "name": "updatedAt",
                  "type": "uint256"
                },
                {
                  "internalType": "uint256",
                  "name": "premium",
                  "type": "uint256"
                },
                {
                  "internalType": "uint256",
                  "name": "payoutIfDelayed",
                  "type": "uint256"
                },
                {
                  "internalType": "uint256",
                  "name": "payoutIfLost",
                  "type": "uint256"
                },
                {
                  "internalType": "uint256",
                  "name": "maxTotalPayout",
                  "type": "uint256"
                },
                {
                  "internalType": "uint256",
                  "name": "coverageDurationSeconds",
                  "type": "uint256"
                },
                {
                  "internalType": "enum BaggagePolicy.PolicyTemplateStatus",
                  "name": "status",
                  "type": "uint8"
                }
              ],
              "internalType": "struct BaggagePolicy.PolicyTemplate",
              "name": "template",
              "type": "tuple"
            },
            {
              "internalType": "string",
              "name": "itemDescription",
              "type": "string"
            },
            {
              "internalType": "uint256",
              "name": "createdAt",
              "type": "uint256"
            },
            {
              "internalType": "uint256",
              "name": "payoutToDate",
              "type": "uint256"
            },
            {
              "internalType": "address",
              "name": "buyer",
              "type": "address"
            },
            {
              "internalType": "enum BaggagePolicy.PolicyStatus",
              "name": "status",
              "type": "uint8"
            }
          ],
          "internalType": "struct BaggagePolicy.UserPolicy[]",
          "name": "",
          "type": "tuple[]"
        }
      ],
      "stateMutability": "view",
      "type": "function"
    },
    {
      "inputs": [
        {
          "internalType": "address",
          "name": "user",
          "type": "address"
        },
        {
          "internalType": "uint256",
          "name": "currentTime",
          "type": "uint256"
        }
      ],
      "name": "getUserFlightPolicies",
      "outputs": [
        {
          "components": [
            {
              "internalType": "uint256",
              "name": "policyId",
              "type": "uint256"
            },
            {
              "components": [
                {
                  "internalType": "string",
                  "name": "templateId",
                  "type": "string"
                },
                {
                  "internalType": "string",
                  "name": "name",
                  "type": "string"
                },
                {
                  "internalType": "string",
                  "name": "description",
                  "type": "string"
                },
                {
                  "internalType": "uint256",
                  "name": "createdAt",
                  "type": "uint256"
                },
                {
                  "internalType": "uint256",
                  "name": "updatedAt",
                  "type": "uint256"
                },
                {
                  "internalType": "uint256",
                  "name": "premium",
                  "type": "uint256"
                },
                {
                  "internalType": "uint256",
                  "name": "payoutPerHour",
                  "type": "uint256"
                },
                {
                  "internalType": "uint256",
                  "name": "delayThresholdHours",
                  "type": "uint256"
                },
                {
                  "internalType": "uint256",
                  "name": "maxTotalPayout",
                  "type": "uint256"
                },
                {
                  "internalType": "uint256",
                  "name": "coverageDurationSeconds",
                  "type": "uint256"
                },
                {
                  "internalType": "enum FlightPolicy.PolicyTemplateStatus",
                  "name": "status",
                  "type": "uint8"
                }
              ],
              "internalType": "struct FlightPolicy.PolicyTemplate",
              "name": "template",
              "type": "tuple"
            },
            {
              "internalType": "string",
              "name": "flightNumber",
              "type": "string"
            },
            {
              "internalType": "string",
              "name": "departureAirportCode",
              "type": "string"
            },
            {
              "internalType": "string",
              "name": "arrivalAirportCode",
              "type": "string"
            },
            {
              "internalType": "uint256",
              "name": "departureTime",
              "type": "uint256"
            },
            {
              "internalType": "uint256",
              "name": "createdAt",
              "type": "uint256"
            },
            {
              "internalType": "uint256",
              "name": "payoutToDate",
              "type": "uint256"
            },
            {
              "internalType": "address",
              "name": "buyer",
              "type": "address"
            },
            {
              "internalType": "enum FlightPolicy.PolicyStatus",
              "name": "status",
              "type": "uint8"
            }
          ],
          "internalType": "struct FlightPolicy.UserPolicy[]",
          "name": "",
          "type": "tuple[]"
        }
      ],
      "stateMutability": "view",
      "type": "function"
    },
    {
      "inputs": [
        {
          "internalType": "string",
          "name": "templateId",
          "type": "string"
        },
        {
          "internalType": "uint256",
          "name": "currentTime",
          "type": "uint256"
        }
      ],
      "name": "getUserFlightPoliciesByTemplate",
      "outputs": [
        {
          "components": [
            {
              "internalType": "uint256",
              "name": "policyId",
              "type": "uint256"
            },
            {
              "components": [
                {
                  "internalType": "string",
                  "name": "templateId",
                  "type": "string"
                },
                {
                  "internalType": "string",
                  "name": "name",
                  "type": "string"
                },
                {
                  "internalType": "string",
                  "name": "description",
                  "type": "string"
                },
                {
                  "internalType": "uint256",
                  "name": "createdAt",
                  "type": "uint256"
                },
                {
                  "internalType": "uint256",
                  "name": "updatedAt",
                  "type": "uint256"
                },
                {
                  "internalType": "uint256",
                  "name": "premium",
                  "type": "uint256"
                },
                {
                  "internalType": "uint256",
                  "name": "payoutPerHour",
                  "type": "uint256"
                },
                {
                  "internalType": "uint256",
                  "name": "delayThresholdHours",
                  "type": "uint256"
                },
                {
                  "internalType": "uint256",
                  "name": "maxTotalPayout",
                  "type": "uint256"
                },
                {
                  "internalType": "uint256",
                  "name": "coverageDurationSeconds",
                  "type": "uint256"
                },
                {
                  "internalType": "enum FlightPolicy.PolicyTemplateStatus",
                  "name": "status",
                  "type": "uint8"
                }
              ],
              "internalType": "struct FlightPolicy.PolicyTemplate",
              "name": "template",
              "type": "tuple"
            },
            {
              "internalType": "string",
              "name": "flightNumber",
              "type": "string"
            },
            {
              "internalType": "string",
              "name": "departureAirportCode",
              "type": "string"
            },
            {
              "internalType": "string",
              "name": "arrivalAirportCode",
              "type": "string"
            },
            {
              "internalType": "uint256",
              "name": "departureTime",
              "type": "uint256"
            },
            {
              "internalType": "uint256",
              "name": "createdAt",
              "type": "uint256"
            },
            {
              "internalType": "uint256",
              "name": "payoutToDate",
              "type": "uint256"
            },
            {
              "internalType": "address",
              "name": "buyer",
              "type": "address"
            },
            {
              "internalType": "enum FlightPolicy.PolicyStatus",
              "name": "status",
              "type": "uint8"
            }
          ],
          "internalType": "struct FlightPolicy.UserPolicy[]",
          "name": "",
          "type": "tuple[]"
        }
      ],
      "stateMutability": "view",
      "type": "function"
    },
    {
      "inputs": [],
      "name": "insurerAddress",
      "outputs": [
        {
          "internalType": "address",
          "name": "",
          "type": "address"
        }
      ],
      "stateMutability": "view",
      "type": "function"
    },
    {
      "inputs": [
        {
          "components": [
            {
              "internalType": "string",
              "name": "templateId",
              "type": "string"
            },
            {
              "internalType": "string",
              "name": "name",
              "type": "string"
            },
            {
              "internalType": "string",
              "name": "description",
              "type": "string"
            },
            {
              "internalType": "uint256",
              "name": "createdAt",
              "type": "uint256"
            },
            {
              "internalType": "uint256",
              "name": "updatedAt",
              "type": "uint256"
            },
            {
              "internalType": "uint256",
              "name": "premium",
              "type": "uint256"
            },
            {
              "internalType": "uint256",
              "name": "payoutIfDelayed",
              "type": "uint256"
            },
            {
              "internalType": "uint256",
              "name": "payoutIfLost",
              "type": "uint256"
            },
            {
              "internalType": "uint256",
              "name": "maxTotalPayout",
              "type": "uint256"
            },
            {
              "internalType": "uint256",
              "name": "coverageDurationSeconds",
              "type": "uint256"
            },
            {
              "internalType": "enum BaggagePolicy.PolicyTemplateStatus",
              "name": "status",
              "type": "uint8"
            }
          ],
          "internalType": "struct BaggagePolicy.PolicyTemplate[]",
          "name": "templates",
          "type": "tuple[]"
        },
        {
          "internalType": "uint256",
          "name": "currentTime",
          "type": "uint256"
        }
      ],
      "name": "isBaggagePolicyAllowedForPurchase",
      "outputs": [
        {
          "internalType": "bool[]",
          "name": "",
          "type": "bool[]"
        }
      ],
      "stateMutability": "view",
      "type": "function"
    },
    {
      "inputs": [
        {
          "components": [
            {
              "internalType": "string",
              "name": "templateId",
              "type": "string"
            },
            {
              "internalType": "string",
              "name": "name",
              "type": "string"
            },
            {
              "internalType": "string",
              "name": "description",
              "type": "string"
            },
            {
              "internalType": "uint256",
              "name": "createdAt",
              "type": "uint256"
            },
            {
              "internalType": "uint256",
              "name": "updatedAt",
              "type": "uint256"
            },
            {
              "internalType": "uint256",
              "name": "premium",
              "type": "uint256"
            },
            {
              "internalType": "uint256",
              "name": "payoutPerHour",
              "type": "uint256"
            },
            {
              "internalType": "uint256",
              "name": "delayThresholdHours",
              "type": "uint256"
            },
            {
              "internalType": "uint256",
              "name": "maxTotalPayout",
              "type": "uint256"
            },
            {
              "internalType": "uint256",
              "name": "coverageDurationSeconds",
              "type": "uint256"
            },
            {
              "internalType": "enum FlightPolicy.PolicyTemplateStatus",
              "name": "status",
              "type": "uint8"
            }
          ],
          "internalType": "struct FlightPolicy.PolicyTemplate[]",
          "name": "templates",
          "type": "tuple[]"
        },
        {
          "internalType": "uint256",
          "name": "currentTime",
          "type": "uint256"
        }
      ],
      "name": "isFlightPolicyAllowedForPurchase",
      "outputs": [
        {
          "internalType": "bool[]",
          "name": "",
          "type": "bool[]"
        }
      ],
      "stateMutability": "view",
      "type": "function"
    },
    {
      "inputs": [
        {
          "internalType": "address",
          "name": "user",
          "type": "address"
        }
      ],
      "name": "isInsurer",
      "outputs": [
        {
          "internalType": "bool",
          "name": "",
          "type": "bool"
        }
      ],
      "stateMutability": "view",
      "type": "function"
    },
    {
      "inputs": [
        {
          "internalType": "uint256",
          "name": "policyId",
          "type": "uint256"
        }
      ],
      "name": "markBaggagePolicyAsExpired",
      "outputs": [],
      "stateMutability": "nonpayable",
      "type": "function"
    },
    {
      "inputs": [
        {
          "components": [
            {
              "internalType": "string",
              "name": "templateId",
              "type": "string"
            },
            {
              "internalType": "string",
              "name": "name",
              "type": "string"
            },
            {
              "internalType": "string",
              "name": "description",
              "type": "string"
            },
            {
              "internalType": "uint256",
              "name": "createdAt",
              "type": "uint256"
            },
            {
              "internalType": "uint256",
              "name": "updatedAt",
              "type": "uint256"
            },
            {
              "internalType": "uint256",
              "name": "premium",
              "type": "uint256"
            },
            {
              "internalType": "uint256",
              "name": "payoutIfDelayed",
              "type": "uint256"
            },
            {
              "internalType": "uint256",
              "name": "payoutIfLost",
              "type": "uint256"
            },
            {
              "internalType": "uint256",
              "name": "maxTotalPayout",
              "type": "uint256"
            },
            {
              "internalType": "uint256",
              "name": "coverageDurationSeconds",
              "type": "uint256"
            },
            {
              "internalType": "enum BaggagePolicy.PolicyTemplateStatus",
              "name": "status",
              "type": "uint8"
            }
          ],
          "internalType": "struct BaggagePolicy.PolicyTemplate",
          "name": "template",
          "type": "tuple"
        },
        {
          "internalType": "string",
          "name": "itemDescription",
          "type": "string"
        },
        {
          "internalType": "uint256",
          "name": "currentTime",
          "type": "uint256"
        }
      ],
      "name": "purchaseBaggagePolicy",
      "outputs": [],
      "stateMutability": "payable",
      "type": "function"
    },
    {
      "inputs": [
        {
          "components": [
            {
              "internalType": "string",
              "name": "templateId",
              "type": "string"
            },
            {
              "internalType": "string",
              "name": "name",
              "type": "string"
            },
            {
              "internalType": "string",
              "name": "description",
              "type": "string"
            },
            {
              "internalType": "uint256",
              "name": "createdAt",
              "type": "uint256"
            },
            {
              "internalType": "uint256",
              "name": "updatedAt",
              "type": "uint256"
            },
            {
              "internalType": "uint256",
              "name": "premium",
              "type": "uint256"
            },
            {
              "internalType": "uint256",
              "name": "payoutPerHour",
              "type": "uint256"
            },
            {
              "internalType": "uint256",
              "name": "delayThresholdHours",
              "type": "uint256"
            },
            {
              "internalType": "uint256",
              "name": "maxTotalPayout",
              "type": "uint256"
            },
            {
              "internalType": "uint256",
              "name": "coverageDurationSeconds",
              "type": "uint256"
            },
            {
              "internalType": "enum FlightPolicy.PolicyTemplateStatus",
              "name": "status",
              "type": "uint8"
            }
          ],
          "internalType": "struct FlightPolicy.PolicyTemplate",
          "name": "template",
          "type": "tuple"
        },
        {
          "internalType": "string",
          "name": "flightNumber",
          "type": "string"
        },
        {
          "internalType": "string",
          "name": "departureAirportCode",
          "type": "string"
        },
        {
          "internalType": "string",
          "name": "arrivalAirportCode",
          "type": "string"
        },
        {
          "internalType": "uint256",
          "name": "departureTime",
          "type": "uint256"
        },
        {
          "internalType": "uint256",
          "name": "currentTime",
          "type": "uint256"
        }
      ],
      "name": "purchaseFlightPolicy",
      "outputs": [],
      "stateMutability": "payable",
      "type": "function"
    },
    {
      "inputs": [
        {
          "internalType": "uint256",
          "name": "amountInWei",
          "type": "uint256"
        }
      ],
      "name": "withdraw",
      "outputs": [],
      "stateMutability": "nonpayable",
      "type": "function"
    },
    {
      "stateMutability": "payable",
      "type": "receive"
    }
  ],
  "bytecode": "0x60a06040523480156200001157600080fd5b5060405162003f3c38038062003f3c83398181016040528101906200003791906200015e565b3373ffffffffffffffffffffffffffffffffffffffff1660808173ffffffffffffffffffffffffffffffffffffffff1681525050816000806101000a81548173ffffffffffffffffffffffffffffffffffffffff021916908373ffffffffffffffffffffffffffffffffffffffff16021790555080600160006101000a81548173ffffffffffffffffffffffffffffffffffffffff021916908373ffffffffffffffffffffffffffffffffffffffff1602179055505050620001a5565b600080fd5b600073ffffffffffffffffffffffffffffffffffffffff82169050919050565b60006200012682620000f9565b9050919050565b620001388162000119565b81146200014457600080fd5b50565b60008151905062000158816200012d565b92915050565b60008060408385031215620001785762000177620000f4565b5b6000620001888582860162000147565b92505060206200019b8582860162000147565b9150509250929050565b608051613d356200020760003960008181610717015281816107e80152818161084f0152818161096d01528181610a8d01528181610ce001528181610ec30152818161110d015281816111de0152818161125001526112ce0152613d356000f3fe6080604052600436106101185760003560e01c8063a7c0900e116100a0578063da7897e211610064578063da7897e2146103b4578063f368bc27146103f1578063fca1ecdb1461041c578063fdae7ad114610459578063fe532a37146104965761011f565b8063a7c0900e146102e9578063ae6feff414610314578063c1ec399214610330578063ca155a1b1461036d578063d0e30db0146103aa5761011f565b80633f60875d116100e75780633f60875d146101de578063516f92f71461021b5780636f9fb98a14610244578063757ae1ba1461026f5780637d9d7b9a146102ac5761011f565b806307116510146101245780632377cd1e1461014f578063260d47c51461018c5780632e1a7d4d146101b55761011f565b3661011f57005b600080fd5b34801561013057600080fd5b506101396104b2565b6040516101469190611973565b60405180910390f35b34801561015b57600080fd5b5061017660048036038101906101719190611a16565b6104d6565b6040516101839190611e25565b60405180910390f35b34801561019857600080fd5b506101b360048036038101906101ae9190611e47565b610583565b005b3480156101c157600080fd5b506101dc60048036038101906101d79190611e47565b610715565b005b3480156101ea57600080fd5b5061020560048036038101906102009190611fa9565b6108be565b6040516102129190611e25565b60405180910390f35b34801561022757600080fd5b50610242600480360381019061023d9190611e47565b61096b565b005b34801561025057600080fd5b50610259610a89565b6040516102669190612014565b60405180910390f35b34801561027b57600080fd5b5061029660048036038101906102919190611a16565b610b1f565b6040516102a3919061236d565b60405180910390f35b3480156102b857600080fd5b506102d360048036038101906102ce9190612604565b610bca565b6040516102e0919061272a565b60405180910390f35b3480156102f557600080fd5b506102fe610cde565b60405161030b919061275b565b60405180910390f35b61032e60048036038101906103299190612776565b610d02565b005b34801561033c57600080fd5b5061035760048036038101906103529190611e47565b610ebf565b6040516103649190611e25565b60405180910390f35b34801561037957600080fd5b50610394600480360381019061038f9190612ad9565b610ff7565b6040516103a1919061272a565b60405180910390f35b6103b261110b565b005b3480156103c057600080fd5b506103db60048036038101906103d69190612b35565b61124c565b6040516103e89190612b71565b60405180910390f35b3480156103fd57600080fd5b506104066112a4565b6040516104139190612bad565b60405180910390f35b34801561042857600080fd5b50610443600480360381019061043e9190611e47565b6112ca565b604051610450919061236d565b60405180910390f35b34801561046557600080fd5b50610480600480360381019061047b9190611fa9565b611400565b60405161048d919061236d565b60405180910390f35b6104b060048036038101906104ab9190612bc8565b6114ab565b005b60008054906101000a900473ffffffffffffffffffffffffffffffffffffffff1681565b6060600160009054906101000a900473ffffffffffffffffffffffffffffffffffffffff1673ffffffffffffffffffffffffffffffffffffffff1663642bb92584846040518363ffffffff1660e01b8152600401610535929190612c53565b600060405180830381865afa158015610552573d6000803e3d6000fd5b505050506040513d6000823e3d601f19601f8201168201806040525081019061057b919061307d565b905092915050565b60008060008054906101000a900473ffffffffffffffffffffffffffffffffffffffff1673ffffffffffffffffffffffffffffffffffffffff1663b0110cc684336040518363ffffffff1660e01b81526004016105e19291906130c6565b6000604051808303816000875af1158015610600573d6000803e3d6000fd5b505050506040513d6000823e3d601f19601f8201168201806040525081019061062991906133ef565b9150915081471015610670576040517f08c379a0000000000000000000000000000000000000000000000000000000008152600401610667906134a8565b60405180910390fd5b80610100015173ffffffffffffffffffffffffffffffffffffffff166108fc839081150290604051600060405180830381858888f193505050501580156106bb573d6000803e3d6000fd5b5080610100015173ffffffffffffffffffffffffffffffffffffffff16837fe97cee5a4c0549d3fdc81e322b718ddf0aeb3418ec87dce4f9a7fb28d117c312846040516107089190612014565b60405180910390a3505050565b7f000000000000000000000000000000000000000000000000000000000000000073ffffffffffffffffffffffffffffffffffffffff163373ffffffffffffffffffffffffffffffffffffffff16146107a3576040517f08c379a000000000000000000000000000000000000000000000000000000000815260040161079a9061353a565b60405180910390fd5b804710156107e6576040517f08c379a00000000000000000000000000000000000000000000000000000000081526004016107dd906135a6565b60405180910390fd5b7f000000000000000000000000000000000000000000000000000000000000000073ffffffffffffffffffffffffffffffffffffffff166108fc829081150290604051600060405180830381858888f1935050505015801561084c573d6000803e3d6000fd5b507f000000000000000000000000000000000000000000000000000000000000000073ffffffffffffffffffffffffffffffffffffffff167feaff4b37086828766ad3268786972c0cd24259d4c87a80f9d3963a3c3d999b0d826040516108b39190612014565b60405180910390a250565b6060600160009054906101000a900473ffffffffffffffffffffffffffffffffffffffff1673ffffffffffffffffffffffffffffffffffffffff1663c52eaa4084846040518363ffffffff1660e01b815260040161091d9291906135ff565b600060405180830381865afa15801561093a573d6000803e3d6000fd5b505050506040513d6000823e3d601f19601f82011682018060405250810190610963919061307d565b905092915050565b7f000000000000000000000000000000000000000000000000000000000000000073ffffffffffffffffffffffffffffffffffffffff163373ffffffffffffffffffffffffffffffffffffffff16146109f9576040517f08c379a00000000000000000000000000000000000000000000000000000000081526004016109f09061353a565b60405180910390fd5b600160009054906101000a900473ffffffffffffffffffffffffffffffffffffffff1673ffffffffffffffffffffffffffffffffffffffff1663cf39c624826040518263ffffffff1660e01b8152600401610a549190612014565b600060405180830381600087803b158015610a6e57600080fd5b505af1158015610a82573d6000803e3d6000fd5b5050505050565b60007f000000000000000000000000000000000000000000000000000000000000000073ffffffffffffffffffffffffffffffffffffffff163373ffffffffffffffffffffffffffffffffffffffff1614610b19576040517f08c379a0000000000000000000000000000000000000000000000000000000008152600401610b109061353a565b60405180910390fd5b47905090565b606060008054906101000a900473ffffffffffffffffffffffffffffffffffffffff1673ffffffffffffffffffffffffffffffffffffffff1663642bb92584846040518363ffffffff1660e01b8152600401610b7c929190612c53565b600060405180830381865afa158015610b99573d6000803e3d6000fd5b505050506040513d6000823e3d601f19601f82011682018060405250810190610bc29190613710565b905092915050565b60606000835167ffffffffffffffff811115610be957610be8611e7e565b5b604051908082528060200260200182016040528015610c175781602001602082028036833780820191505090505b5090506000610c2584611660565b905060005b8551811015610cd2576000868281518110610c4857610c47613759565b5b6020026020010151610100015183610c6091906137b7565b905047811115610c96576000848381518110610c7f57610c7e613759565b5b602002602001019015159081151581525050610cbe565b6001848381518110610cab57610caa613759565b5b6020026020010190151590811515815250505b508080610cca906137eb565b915050610c2a565b50819250505092915050565b7f000000000000000000000000000000000000000000000000000000000000000081565b6000610d0d82611660565b905086610100015181610d2091906137b7565b905047811115610d65576040517f08c379a0000000000000000000000000000000000000000000000000000000008152600401610d5c906138a5565b60405180910390fd5b8660a00151341015610dac576040517f08c379a0000000000000000000000000000000000000000000000000000000008152600401610da390613911565b60405180910390fd5b60008060009054906101000a900473ffffffffffffffffffffffffffffffffffffffff1673ffffffffffffffffffffffffffffffffffffffff166331953ecc8989898989336040518763ffffffff1660e01b8152600401610e1296959493929190613a2e565b6020604051808303816000875af1158015610e31573d6000803e3d6000fd5b505050506040513d601f19601f82011682018060405250810190610e559190613aab565b90508760000151604051610e699190613b14565b6040518091039020813373ffffffffffffffffffffffffffffffffffffffff167f43617ea01c45d3386d7be4a6cb66bf94c0152a674cbd34a5de81ed135dfd7b1760405160405180910390a45050505050505050565b60607f000000000000000000000000000000000000000000000000000000000000000073ffffffffffffffffffffffffffffffffffffffff163373ffffffffffffffffffffffffffffffffffffffff1614610f4f576040517f08c379a0000000000000000000000000000000000000000000000000000000008152600401610f469061353a565b60405180910390fd5b600160009054906101000a900473ffffffffffffffffffffffffffffffffffffffff1673ffffffffffffffffffffffffffffffffffffffff166364b72a65836040518263ffffffff1660e01b8152600401610faa9190612014565b600060405180830381865afa158015610fc7573d6000803e3d6000fd5b505050506040513d6000823e3d601f19601f82011682018060405250810190610ff0919061307d565b9050919050565b60606000835167ffffffffffffffff81111561101657611015611e7e565b5b6040519080825280602002602001820160405280156110445781602001602082028036833780820191505090505b509050600061105284611660565b905060005b85518110156110ff57600086828151811061107557611074613759565b5b602002602001015161010001518361108d91906137b7565b9050478111156110c35760008483815181106110ac576110ab613759565b5b6020026020010190151590811515815250506110eb565b60018483815181106110d8576110d7613759565b5b6020026020010190151590811515815250505b5080806110f7906137eb565b915050611057565b50819250505092915050565b7f000000000000000000000000000000000000000000000000000000000000000073ffffffffffffffffffffffffffffffffffffffff163373ffffffffffffffffffffffffffffffffffffffff1614611199576040517f08c379a00000000000000000000000000000000000000000000000000000000081526004016111909061353a565b60405180910390fd5b600034116111dc576040517f08c379a00000000000000000000000000000000000000000000000000000000081526004016111d390613b9d565b60405180910390fd5b7f000000000000000000000000000000000000000000000000000000000000000073ffffffffffffffffffffffffffffffffffffffff167f543ba50a5eec5e6178218e364b1d0f396157b3c8fa278522c2cb7fd99407d474346040516112429190612014565b60405180910390a2565b60007f000000000000000000000000000000000000000000000000000000000000000073ffffffffffffffffffffffffffffffffffffffff168273ffffffffffffffffffffffffffffffffffffffff16149050919050565b600160009054906101000a900473ffffffffffffffffffffffffffffffffffffffff1681565b60607f000000000000000000000000000000000000000000000000000000000000000073ffffffffffffffffffffffffffffffffffffffff163373ffffffffffffffffffffffffffffffffffffffff161461135a576040517f08c379a00000000000000000000000000000000000000000000000000000000081526004016113519061353a565b60405180910390fd5b60008054906101000a900473ffffffffffffffffffffffffffffffffffffffff1673ffffffffffffffffffffffffffffffffffffffff166364b72a65836040518263ffffffff1660e01b81526004016113b39190612014565b600060405180830381865afa1580156113d0573d6000803e3d6000fd5b505050506040513d6000823e3d601f19601f820116820180604052508101906113f99190613710565b9050919050565b606060008054906101000a900473ffffffffffffffffffffffffffffffffffffffff1673ffffffffffffffffffffffffffffffffffffffff1663c52eaa4084846040518363ffffffff1660e01b815260040161145d9291906135ff565b600060405180830381865afa15801561147a573d6000803e3d6000fd5b505050506040513d6000823e3d601f19601f820116820180604052508101906114a39190613710565b905092915050565b60006114b682611660565b9050836101000151816114c991906137b7565b90504781111561150e576040517f08c379a0000000000000000000000000000000000000000000000000000000008152600401611505906138a5565b60405180910390fd5b8360a00151341015611555576040517f08c379a000000000000000000000000000000000000000000000000000000000815260040161154c90613911565b60405180910390fd5b6000600160009054906101000a900473ffffffffffffffffffffffffffffffffffffffff1673ffffffffffffffffffffffffffffffffffffffff1663e05161498686336040518463ffffffff1660e01b81526004016115b693929190613cba565b6020604051808303816000875af11580156115d5573d6000803e3d6000fd5b505050506040513d601f19601f820116820180604052508101906115f99190613aab565b9050846000015160405161160d9190613b14565b6040518091039020813373ffffffffffffffffffffffffffffffffffffffff167fd3ad849e96e45902e7d1f5bd084268392ad649bd4509857dbfd40ceb536aef3860405160405180910390a45050505050565b6000806000905060008060009054906101000a900473ffffffffffffffffffffffffffffffffffffffff1673ffffffffffffffffffffffffffffffffffffffff166364b72a65856040518263ffffffff1660e01b81526004016116c39190612014565b600060405180830381865afa1580156116e0573d6000803e3d6000fd5b505050506040513d6000823e3d601f19601f820116820180604052508101906117099190613710565b90506000600160009054906101000a900473ffffffffffffffffffffffffffffffffffffffff1673ffffffffffffffffffffffffffffffffffffffff166364b72a65866040518263ffffffff1660e01b81526004016117689190612014565b600060405180830381865afa158015611785573d6000803e3d6000fd5b505050506040513d6000823e3d601f19601f820116820180604052508101906117ae919061307d565b905060005b825181101561184c57600060028111156117d0576117cf611b21565b5b8382815181106117e3576117e2613759565b5b60200260200101516101200151600281111561180257611801611b21565b5b036118395782818151811061181a57611819613759565b5b60200260200101516020015161010001518461183691906137b7565b93505b8080611844906137eb565b9150506117b3565b5060005b81518110156118e8576000600281111561186d5761186c611b21565b5b8282815181106118805761187f613759565b5b602002602001015160c00151600281111561189e5761189d611b21565b5b036118d5578181815181106118b6576118b5613759565b5b6020026020010151602001516101000151846118d291906137b7565b93505b80806118e0906137eb565b915050611850565b50829350505050919050565b600073ffffffffffffffffffffffffffffffffffffffff82169050919050565b6000819050919050565b600061193961193461192f846118f4565b611914565b6118f4565b9050919050565b600061194b8261191e565b9050919050565b600061195d82611940565b9050919050565b61196d81611952565b82525050565b60006020820190506119886000830184611964565b92915050565b6000604051905090565b600080fd5b600080fd5b60006119ad826118f4565b9050919050565b6119bd816119a2565b81146119c857600080fd5b50565b6000813590506119da816119b4565b92915050565b6000819050919050565b6119f3816119e0565b81146119fe57600080fd5b50565b600081359050611a10816119ea565b92915050565b60008060408385031215611a2d57611a2c611998565b5b6000611a3b858286016119cb565b9250506020611a4c85828601611a01565b9150509250929050565b600081519050919050565b600082825260208201905092915050565b6000819050602082019050919050565b611a8b816119e0565b82525050565b600081519050919050565b600082825260208201905092915050565b60005b83811015611acb578082015181840152602081019050611ab0565b60008484015250505050565b6000601f19601f8301169050919050565b6000611af382611a91565b611afd8185611a9c565b9350611b0d818560208601611aad565b611b1681611ad7565b840191505092915050565b7f4e487b7100000000000000000000000000000000000000000000000000000000600052602160045260246000fd5b60028110611b6157611b60611b21565b5b50565b6000819050611b7282611b50565b919050565b6000611b8282611b64565b9050919050565b611b9281611b77565b82525050565b6000610160830160008301518482036000860152611bb68282611ae8565b91505060208301518482036020860152611bd08282611ae8565b91505060408301518482036040860152611bea8282611ae8565b9150506060830151611bff6060860182611a82565b506080830151611c126080860182611a82565b5060a0830151611c2560a0860182611a82565b5060c0830151611c3860c0860182611a82565b5060e0830151611c4b60e0860182611a82565b50610100830151611c60610100860182611a82565b50610120830151611c75610120860182611a82565b50610140830151611c8a610140860182611b89565b508091505092915050565b611c9e816119a2565b82525050565b60038110611cb557611cb4611b21565b5b50565b6000819050611cc682611ca4565b919050565b6000611cd682611cb8565b9050919050565b611ce681611ccb565b82525050565b600060e083016000830151611d046000860182611a82565b5060208301518482036020860152611d1c8282611b98565b91505060408301518482036040860152611d368282611ae8565b9150506060830151611d4b6060860182611a82565b506080830151611d5e6080860182611a82565b5060a0830151611d7160a0860182611c95565b5060c0830151611d8460c0860182611cdd565b508091505092915050565b6000611d9b8383611cec565b905092915050565b6000602082019050919050565b6000611dbb82611a56565b611dc58185611a61565b935083602082028501611dd785611a72565b8060005b85811015611e135784840389528151611df48582611d8f565b9450611dff83611da3565b925060208a01995050600181019050611ddb565b50829750879550505050505092915050565b60006020820190508181036000830152611e3f8184611db0565b905092915050565b600060208284031215611e5d57611e5c611998565b5b6000611e6b84828501611a01565b91505092915050565b600080fd5b600080fd5b7f4e487b7100000000000000000000000000000000000000000000000000000000600052604160045260246000fd5b611eb682611ad7565b810181811067ffffffffffffffff82111715611ed557611ed4611e7e565b5b80604052505050565b6000611ee861198e565b9050611ef48282611ead565b919050565b600067ffffffffffffffff821115611f1457611f13611e7e565b5b611f1d82611ad7565b9050602081019050919050565b82818337600083830152505050565b6000611f4c611f4784611ef9565b611ede565b905082815260208101848484011115611f6857611f67611e79565b5b611f73848285611f2a565b509392505050565b600082601f830112611f9057611f8f611e74565b5b8135611fa0848260208601611f39565b91505092915050565b60008060408385031215611fc057611fbf611998565b5b600083013567ffffffffffffffff811115611fde57611fdd61199d565b5b611fea85828601611f7b565b9250506020611ffb85828601611a01565b9150509250929050565b61200e816119e0565b82525050565b60006020820190506120296000830184612005565b92915050565b600081519050919050565b600082825260208201905092915050565b6000819050602082019050919050565b6002811061206c5761206b611b21565b5b50565b600081905061207d8261205b565b919050565b600061208d8261206f565b9050919050565b61209d81612082565b82525050565b60006101608301600083015184820360008601526120c18282611ae8565b915050602083015184820360208601526120db8282611ae8565b915050604083015184820360408601526120f58282611ae8565b915050606083015161210a6060860182611a82565b50608083015161211d6080860182611a82565b5060a083015161213060a0860182611a82565b5060c083015161214360c0860182611a82565b5060e083015161215660e0860182611a82565b5061010083015161216b610100860182611a82565b50610120830151612180610120860182611a82565b50610140830151612195610140860182612094565b508091505092915050565b600381106121b1576121b0611b21565b5b50565b60008190506121c2826121a0565b919050565b60006121d2826121b4565b9050919050565b6121e2816121c7565b82525050565b6000610140830160008301516122016000860182611a82565b506020830151848203602086015261221982826120a3565b915050604083015184820360408601526122338282611ae8565b9150506060830151848203606086015261224d8282611ae8565b915050608083015184820360808601526122678282611ae8565b91505060a083015161227c60a0860182611a82565b5060c083015161228f60c0860182611a82565b5060e08301516122a260e0860182611a82565b506101008301516122b7610100860182611c95565b506101208301516122cc6101208601826121d9565b508091505092915050565b60006122e383836121e8565b905092915050565b6000602082019050919050565b60006123038261202f565b61230d818561203a565b93508360208202850161231f8561204b565b8060005b8581101561235b578484038952815161233c85826122d7565b9450612347836122eb565b925060208a01995050600181019050612323565b50829750879550505050505092915050565b6000602082019050818103600083015261238781846122f8565b905092915050565b600067ffffffffffffffff8211156123aa576123a9611e7e565b5b602082029050602081019050919050565b600080fd5b600080fd5b600080fd5b600281106123d757600080fd5b50565b6000813590506123e9816123ca565b92915050565b60006101608284031215612406576124056123c0565b5b612411610160611ede565b9050600082013567ffffffffffffffff811115612431576124306123c5565b5b61243d84828501611f7b565b600083015250602082013567ffffffffffffffff811115612461576124606123c5565b5b61246d84828501611f7b565b602083015250604082013567ffffffffffffffff811115612491576124906123c5565b5b61249d84828501611f7b565b60408301525060606124b184828501611a01565b60608301525060806124c584828501611a01565b60808301525060a06124d984828501611a01565b60a08301525060c06124ed84828501611a01565b60c08301525060e061250184828501611a01565b60e08301525061010061251684828501611a01565b6101008301525061012061252c84828501611a01565b61012083015250610140612542848285016123da565b6101408301525092915050565b600061256261255d8461238f565b611ede565b90508083825260208201905060208402830185811115612585576125846123bb565b5b835b818110156125cc57803567ffffffffffffffff8111156125aa576125a9611e74565b5b8086016125b789826123ef565b85526020850194505050602081019050612587565b5050509392505050565b600082601f8301126125eb576125ea611e74565b5b81356125fb84826020860161254f565b91505092915050565b6000806040838503121561261b5761261a611998565b5b600083013567ffffffffffffffff8111156126395761263861199d565b5b612645858286016125d6565b925050602061265685828601611a01565b9150509250929050565b600081519050919050565b600082825260208201905092915050565b6000819050602082019050919050565b60008115159050919050565b6126a18161268c565b82525050565b60006126b38383612698565b60208301905092915050565b6000602082019050919050565b60006126d782612660565b6126e1818561266b565b93506126ec8361267c565b8060005b8381101561271d57815161270488826126a7565b975061270f836126bf565b9250506001810190506126f0565b5085935050505092915050565b6000602082019050818103600083015261274481846126cc565b905092915050565b612755816119a2565b82525050565b6000602082019050612770600083018461274c565b92915050565b60008060008060008060c0878903121561279357612792611998565b5b600087013567ffffffffffffffff8111156127b1576127b061199d565b5b6127bd89828a016123ef565b965050602087013567ffffffffffffffff8111156127de576127dd61199d565b5b6127ea89828a01611f7b565b955050604087013567ffffffffffffffff81111561280b5761280a61199d565b5b61281789828a01611f7b565b945050606087013567ffffffffffffffff8111156128385761283761199d565b5b61284489828a01611f7b565b935050608061285589828a01611a01565b92505060a061286689828a01611a01565b9150509295509295509295565b600067ffffffffffffffff82111561288e5761288d611e7e565b5b602082029050602081019050919050565b600281106128ac57600080fd5b50565b6000813590506128be8161289f565b92915050565b600061016082840312156128db576128da6123c0565b5b6128e6610160611ede565b9050600082013567ffffffffffffffff811115612906576129056123c5565b5b61291284828501611f7b565b600083015250602082013567ffffffffffffffff811115612936576129356123c5565b5b61294284828501611f7b565b602083015250604082013567ffffffffffffffff811115612966576129656123c5565b5b61297284828501611f7b565b604083015250606061298684828501611a01565b606083015250608061299a84828501611a01565b60808301525060a06129ae84828501611a01565b60a08301525060c06129c284828501611a01565b60c08301525060e06129d684828501611a01565b60e0830152506101006129eb84828501611a01565b61010083015250610120612a0184828501611a01565b61012083015250610140612a17848285016128af565b6101408301525092915050565b6000612a37612a3284612873565b611ede565b90508083825260208201905060208402830185811115612a5a57612a596123bb565b5b835b81811015612aa157803567ffffffffffffffff811115612a7f57612a7e611e74565b5b808601612a8c89826128c4565b85526020850194505050602081019050612a5c565b5050509392505050565b600082601f830112612ac057612abf611e74565b5b8135612ad0848260208601612a24565b91505092915050565b60008060408385031215612af057612aef611998565b5b600083013567ffffffffffffffff811115612b0e57612b0d61199d565b5b612b1a85828601612aab565b9250506020612b2b85828601611a01565b9150509250929050565b600060208284031215612b4b57612b4a611998565b5b6000612b59848285016119cb565b91505092915050565b612b6b8161268c565b82525050565b6000602082019050612b866000830184612b62565b92915050565b6000612b9782611940565b9050919050565b612ba781612b8c565b82525050565b6000602082019050612bc26000830184612b9e565b92915050565b600080600060608486031215612be157612be0611998565b5b600084013567ffffffffffffffff811115612bff57612bfe61199d565b5b612c0b868287016128c4565b935050602084013567ffffffffffffffff811115612c2c57612c2b61199d565b5b612c3886828701611f7b565b9250506040612c4986828701611a01565b9150509250925092565b6000604082019050612c68600083018561274c565b612c756020830184612005565b9392505050565b600067ffffffffffffffff821115612c9757612c96611e7e565b5b602082029050602081019050919050565b600081519050612cb7816119ea565b92915050565b6000612cd0612ccb84611ef9565b611ede565b905082815260208101848484011115612cec57612ceb611e79565b5b612cf7848285611aad565b509392505050565b600082601f830112612d1457612d13611e74565b5b8151612d24848260208601612cbd565b91505092915050565b600081519050612d3c8161289f565b92915050565b60006101608284031215612d5957612d586123c0565b5b612d64610160611ede565b9050600082015167ffffffffffffffff811115612d8457612d836123c5565b5b612d9084828501612cff565b600083015250602082015167ffffffffffffffff811115612db457612db36123c5565b5b612dc084828501612cff565b602083015250604082015167ffffffffffffffff811115612de457612de36123c5565b5b612df084828501612cff565b6040830152506060612e0484828501612ca8565b6060830152506080612e1884828501612ca8565b60808301525060a0612e2c84828501612ca8565b60a08301525060c0612e4084828501612ca8565b60c08301525060e0612e5484828501612ca8565b60e083015250610100612e6984828501612ca8565b61010083015250610120612e7f84828501612ca8565b61012083015250610140612e9584828501612d2d565b6101408301525092915050565b600081519050612eb1816119b4565b92915050565b60038110612ec457600080fd5b50565b600081519050612ed681612eb7565b92915050565b600060e08284031215612ef257612ef16123c0565b5b612efc60e0611ede565b90506000612f0c84828501612ca8565b600083015250602082015167ffffffffffffffff811115612f3057612f2f6123c5565b5b612f3c84828501612d42565b602083015250604082015167ffffffffffffffff811115612f6057612f5f6123c5565b5b612f6c84828501612cff565b6040830152506060612f8084828501612ca8565b6060830152506080612f9484828501612ca8565b60808301525060a0612fa884828501612ea2565b60a08301525060c0612fbc84828501612ec7565b60c08301525092915050565b6000612fdb612fd684612c7c565b611ede565b90508083825260208201905060208402830185811115612ffe57612ffd6123bb565b5b835b8181101561304557805167ffffffffffffffff81111561302357613022611e74565b5b8086016130308982612edc565b85526020850194505050602081019050613000565b5050509392505050565b600082601f83011261306457613063611e74565b5b8151613074848260208601612fc8565b91505092915050565b60006020828403121561309357613092611998565b5b600082015167ffffffffffffffff8111156130b1576130b061199d565b5b6130bd8482850161304f565b91505092915050565b60006040820190506130db6000830185612005565b6130e8602083018461274c565b9392505050565b6000815190506130fe816123ca565b92915050565b6000610160828403121561311b5761311a6123c0565b5b613126610160611ede565b9050600082015167ffffffffffffffff811115613146576131456123c5565b5b61315284828501612cff565b600083015250602082015167ffffffffffffffff811115613176576131756123c5565b5b61318284828501612cff565b602083015250604082015167ffffffffffffffff8111156131a6576131a56123c5565b5b6131b284828501612cff565b60408301525060606131c684828501612ca8565b60608301525060806131da84828501612ca8565b60808301525060a06131ee84828501612ca8565b60a08301525060c061320284828501612ca8565b60c08301525060e061321684828501612ca8565b60e08301525061010061322b84828501612ca8565b6101008301525061012061324184828501612ca8565b61012083015250610140613257848285016130ef565b6101408301525092915050565b6003811061327157600080fd5b50565b60008151905061328381613264565b92915050565b600061014082840312156132a05761329f6123c0565b5b6132ab610140611ede565b905060006132bb84828501612ca8565b600083015250602082015167ffffffffffffffff8111156132df576132de6123c5565b5b6132eb84828501613104565b602083015250604082015167ffffffffffffffff81111561330f5761330e6123c5565b5b61331b84828501612cff565b604083015250606082015167ffffffffffffffff81111561333f5761333e6123c5565b5b61334b84828501612cff565b606083015250608082015167ffffffffffffffff81111561336f5761336e6123c5565b5b61337b84828501612cff565b60808301525060a061338f84828501612ca8565b60a08301525060c06133a384828501612ca8565b60c08301525060e06133b784828501612ca8565b60e0830152506101006133cc84828501612ea2565b610100830152506101206133e284828501613274565b6101208301525092915050565b6000806040838503121561340657613405611998565b5b600061341485828601612ca8565b925050602083015167ffffffffffffffff8111156134355761343461199d565b5b61344185828601613289565b9150509250929050565b600082825260208201905092915050565b7f496e73756666696369656e7420636f6e74726163742062616c616e6365000000600082015250565b6000613492601d8361344b565b915061349d8261345c565b602082019050919050565b600060208201905081810360008301526134c181613485565b9050919050565b7f496e73757265723a204f6e6c792074686520696e73757265722063616e20636160008201527f6c6c207468697300000000000000000000000000000000000000000000000000602082015250565b600061352460278361344b565b915061352f826134c8565b604082019050919050565b6000602082019050818103600083015261355381613517565b9050919050565b7f496e73756666696369656e742062616c616e6365000000000000000000000000600082015250565b600061359060148361344b565b915061359b8261355a565b602082019050919050565b600060208201905081810360008301526135bf81613583565b9050919050565b60006135d182611a91565b6135db818561344b565b93506135eb818560208601611aad565b6135f481611ad7565b840191505092915050565b6000604082019050818103600083015261361981856135c6565b90506136286020830184612005565b9392505050565b600067ffffffffffffffff82111561364a57613649611e7e565b5b602082029050602081019050919050565b600061366e6136698461362f565b611ede565b90508083825260208201905060208402830185811115613691576136906123bb565b5b835b818110156136d857805167ffffffffffffffff8111156136b6576136b5611e74565b5b8086016136c38982613289565b85526020850194505050602081019050613693565b5050509392505050565b600082601f8301126136f7576136f6611e74565b5b815161370784826020860161365b565b91505092915050565b60006020828403121561372657613725611998565b5b600082015167ffffffffffffffff8111156137445761374361199d565b5b613750848285016136e2565b91505092915050565b7f4e487b7100000000000000000000000000000000000000000000000000000000600052603260045260246000fd5b7f4e487b7100000000000000000000000000000000000000000000000000000000600052601160045260246000fd5b60006137c2826119e0565b91506137cd836119e0565b92508282019050808211156137e5576137e4613788565b5b92915050565b60006137f6826119e0565b91507fffffffffffffffffffffffffffffffffffffffffffffffffffffffffffffffff820361382857613827613788565b5b600182019050919050565b7f496e73756666696369656e7420636f6e74726163742062616c616e636520746f60008201527f20636f76657220706f74656e7469616c207061796f7574730000000000000000602082015250565b600061388f60388361344b565b915061389a82613833565b604082019050919050565b600060208201905081810360008301526138be81613882565b9050919050565b7f496e73756666696369656e74207072656d69756d2073656e7400000000000000600082015250565b60006138fb60198361344b565b9150613906826138c5565b602082019050919050565b6000602082019050818103600083015261392a816138ee565b9050919050565b600061016083016000830151848203600086015261394f8282611ae8565b915050602083015184820360208601526139698282611ae8565b915050604083015184820360408601526139838282611ae8565b91505060608301516139986060860182611a82565b5060808301516139ab6080860182611a82565b5060a08301516139be60a0860182611a82565b5060c08301516139d160c0860182611a82565b5060e08301516139e460e0860182611a82565b506101008301516139f9610100860182611a82565b50610120830151613a0e610120860182611a82565b50610140830151613a23610140860182612094565b508091505092915050565b600060c0820190508181036000830152613a488189613931565b90508181036020830152613a5c81886135c6565b90508181036040830152613a7081876135c6565b90508181036060830152613a8481866135c6565b9050613a936080830185612005565b613aa060a083018461274c565b979650505050505050565b600060208284031215613ac157613ac0611998565b5b6000613acf84828501612ca8565b91505092915050565b600081905092915050565b6000613aee82611a91565b613af88185613ad8565b9350613b08818560208601611aad565b80840191505092915050565b6000613b208284613ae3565b915081905092915050565b7f496e73757265723a204d757374206465706f736974206120706f73697469766560008201527f20616d6f756e7400000000000000000000000000000000000000000000000000602082015250565b6000613b8760278361344b565b9150613b9282613b2b565b604082019050919050565b60006020820190508181036000830152613bb681613b7a565b9050919050565b6000610160830160008301518482036000860152613bdb8282611ae8565b91505060208301518482036020860152613bf58282611ae8565b91505060408301518482036040860152613c0f8282611ae8565b9150506060830151613c246060860182611a82565b506080830151613c376080860182611a82565b5060a0830151613c4a60a0860182611a82565b5060c0830151613c5d60c0860182611a82565b5060e0830151613c7060e0860182611a82565b50610100830151613c85610100860182611a82565b50610120830151613c9a610120860182611a82565b50610140830151613caf610140860182611b89565b508091505092915050565b60006060820190508181036000830152613cd48186613bbd565b90508181036020830152613ce881856135c6565b9050613cf7604083018461274c565b94935050505056fea2646970667358221220c40dbc70808c4f05e9457e3d366f2839d892cfe17b1aae9cf5bca0b4a5f4efbc64736f6c63430008130033",
  "linkReferences": {},
  "deployedLinkReferences": {}
}