{
  "_format": "hh-sol-artifact-1",
  "contractName": "Insurer",
  "sourceName": "contracts/Insurer.sol",
  "abi": [
    {
      "inputs": [
        {
          "internalType": "address",
          "name": "_flightPolicyAddress",
          "type": "address"
        },
        {
          "internalType": "address",
          "name": "_baggagePolicyAddress",
          "type": "address"
        }
      ],
      "stateMutability": "nonpayable",
      "type": "constructor"
    },
    {
      "anonymous": false,
      "inputs": [
        {
          "indexed": true,
          "internalType": "address",
          "name": "buyer",
          "type": "address"
        },
        {
          "indexed": true,
          "internalType": "uint256",
          "name": "policyId",
          "type": "uint256"
        }
      ],
      "name": "BaggagePolicyClaimed",
      "type": "event"
    },
    {
      "anonymous": false,
      "inputs": [
        {
          "indexed": true,
          "internalType": "address",
          "name": "buyer",
          "type": "address"
        },
        {
          "indexed": true,
          "internalType": "uint256",
          "name": "policyId",
          "type": "uint256"
        },
        {
          "indexed": true,
          "internalType": "string",
          "name": "templateId",
          "type": "string"
        }
      ],
      "name": "BaggagePolicyPurchased",
      "type": "event"
    },
    {
      "anonymous": false,
      "inputs": [
        {
          "indexed": true,
          "internalType": "address",
          "name": "buyer",
          "type": "address"
        },
        {
          "indexed": true,
          "internalType": "uint256",
          "name": "policyId",
          "type": "uint256"
        }
      ],
      "name": "FlightPolicyClaimed",
      "type": "event"
    },
    {
      "anonymous": false,
      "inputs": [
        {
          "indexed": true,
          "internalType": "address",
          "name": "buyer",
          "type": "address"
        },
        {
          "indexed": true,
          "internalType": "uint256",
          "name": "policyId",
          "type": "uint256"
        },
        {
          "indexed": true,
          "internalType": "string",
          "name": "templateId",
          "type": "string"
        }
      ],
      "name": "FlightPolicyPurchased",
      "type": "event"
    },
    {
      "anonymous": false,
      "inputs": [
        {
          "indexed": true,
          "internalType": "address",
          "name": "insurer",
          "type": "address"
        },
        {
          "indexed": false,
          "internalType": "uint256",
          "name": "amount",
          "type": "uint256"
        }
      ],
      "name": "FundsDeposited",
      "type": "event"
    },
    {
      "anonymous": false,
      "inputs": [
        {
          "indexed": true,
          "internalType": "address",
          "name": "insurer",
          "type": "address"
        },
        {
          "indexed": false,
          "internalType": "uint256",
          "name": "amount",
          "type": "uint256"
        }
      ],
      "name": "FundsWithdrawn",
      "type": "event"
    },
    {
      "inputs": [],
      "name": "baggagePolicy",
      "outputs": [
        {
          "internalType": "contract BaggagePolicy",
          "name": "",
          "type": "address"
        }
      ],
      "stateMutability": "view",
      "type": "function"
    },
    {
      "inputs": [
        {
          "internalType": "uint256",
          "name": "policyId",
          "type": "uint256"
        }
      ],
      "name": "claimFlightPayout",
      "outputs": [],
      "stateMutability": "nonpayable",
      "type": "function"
    },
    {
      "inputs": [],
      "name": "deposit",
      "outputs": [],
      "stateMutability": "payable",
      "type": "function"
    },
    {
      "inputs": [],
      "name": "flightPolicy",
      "outputs": [
        {
          "internalType": "contract FlightPolicy",
          "name": "",
          "type": "address"
        }
      ],
      "stateMutability": "view",
      "type": "function"
    },
    {
      "inputs": [],
      "name": "getAllBaggagePolicies",
      "outputs": [
        {
          "components": [
            {
              "internalType": "uint256",
              "name": "policyId",
              "type": "uint256"
            },
            {
              "components": [
                {
                  "internalType": "string",
                  "name": "templateId",
                  "type": "string"
                },
                {
                  "internalType": "string",
                  "name": "name",
                  "type": "string"
                },
                {
                  "internalType": "string",
                  "name": "description",
                  "type": "string"
                },
                {
                  "internalType": "uint256",
                  "name": "createdAt",
                  "type": "uint256"
                },
                {
                  "internalType": "uint256",
                  "name": "updatedAt",
                  "type": "uint256"
                },
                {
                  "internalType": "uint256",
                  "name": "premium",
                  "type": "uint256"
                },
                {
                  "internalType": "uint256",
                  "name": "payoutIfDelayed",
                  "type": "uint256"
                },
                {
                  "internalType": "uint256",
                  "name": "payoutIfLost",
                  "type": "uint256"
                },
                {
                  "internalType": "uint256",
                  "name": "maxTotalPayout",
                  "type": "uint256"
                },
                {
                  "internalType": "uint256",
                  "name": "coverageDurationDays",
                  "type": "uint256"
                },
                {
                  "internalType": "enum BaggagePolicy.PolicyTemplateStatus",
                  "name": "status",
                  "type": "uint8"
                }
              ],
              "internalType": "struct BaggagePolicy.PolicyTemplate",
              "name": "template",
              "type": "tuple"
            },
            {
              "internalType": "string",
              "name": "itemDescription",
              "type": "string"
            },
            {
              "internalType": "uint256",
              "name": "createdAt",
              "type": "uint256"
            },
            {
              "internalType": "uint256",
              "name": "payoutToDate",
              "type": "uint256"
            },
            {
              "internalType": "address",
              "name": "buyer",
              "type": "address"
            },
            {
              "internalType": "enum BaggagePolicy.PolicyStatus",
              "name": "status",
              "type": "uint8"
            }
          ],
          "internalType": "struct BaggagePolicy.UserPolicy[]",
          "name": "",
          "type": "tuple[]"
        }
      ],
      "stateMutability": "view",
      "type": "function"
    },
    {
      "inputs": [],
      "name": "getAllFlightPolicies",
      "outputs": [
        {
          "components": [
            {
              "internalType": "uint256",
              "name": "policyId",
              "type": "uint256"
            },
            {
              "components": [
                {
                  "internalType": "string",
                  "name": "templateId",
                  "type": "string"
                },
                {
                  "internalType": "string",
                  "name": "name",
                  "type": "string"
                },
                {
                  "internalType": "string",
                  "name": "description",
                  "type": "string"
                },
                {
                  "internalType": "uint256",
                  "name": "createdAt",
                  "type": "uint256"
                },
                {
                  "internalType": "uint256",
                  "name": "updatedAt",
                  "type": "uint256"
                },
                {
                  "internalType": "uint256",
                  "name": "premium",
                  "type": "uint256"
                },
                {
                  "internalType": "uint256",
                  "name": "payoutPerHour",
                  "type": "uint256"
                },
                {
                  "internalType": "uint256",
                  "name": "delayThresholdHours",
                  "type": "uint256"
                },
                {
                  "internalType": "uint256",
                  "name": "maxTotalPayout",
                  "type": "uint256"
                },
                {
                  "internalType": "uint256",
                  "name": "coverageDurationDays",
                  "type": "uint256"
                },
                {
                  "internalType": "enum FlightPolicy.PolicyTemplateStatus",
                  "name": "status",
                  "type": "uint8"
                }
              ],
              "internalType": "struct FlightPolicy.PolicyTemplate",
              "name": "template",
              "type": "tuple"
            },
            {
              "internalType": "string",
              "name": "flightNumber",
              "type": "string"
            },
            {
              "internalType": "string",
              "name": "departureAirportCode",
              "type": "string"
            },
            {
              "internalType": "string",
              "name": "arrivalAirportCode",
              "type": "string"
            },
            {
              "internalType": "uint256",
              "name": "departureTime",
              "type": "uint256"
            },
            {
              "internalType": "uint256",
              "name": "createdAt",
              "type": "uint256"
            },
            {
              "internalType": "uint256",
              "name": "payoutToDate",
              "type": "uint256"
            },
            {
              "internalType": "address",
              "name": "buyer",
              "type": "address"
            },
            {
              "internalType": "enum FlightPolicy.PolicyStatus",
              "name": "status",
              "type": "uint8"
            }
          ],
          "internalType": "struct FlightPolicy.UserPolicy[]",
          "name": "",
          "type": "tuple[]"
        }
      ],
      "stateMutability": "view",
      "type": "function"
    },
    {
      "inputs": [],
      "name": "getContractBalance",
      "outputs": [
        {
          "internalType": "uint256",
          "name": "",
          "type": "uint256"
        }
      ],
      "stateMutability": "view",
      "type": "function"
    },
    {
      "inputs": [
        {
          "internalType": "address",
          "name": "user",
          "type": "address"
        }
      ],
      "name": "getUserBaggagePolicies",
      "outputs": [
        {
          "components": [
            {
              "internalType": "uint256",
              "name": "policyId",
              "type": "uint256"
            },
            {
              "components": [
                {
                  "internalType": "string",
                  "name": "templateId",
                  "type": "string"
                },
                {
                  "internalType": "string",
                  "name": "name",
                  "type": "string"
                },
                {
                  "internalType": "string",
                  "name": "description",
                  "type": "string"
                },
                {
                  "internalType": "uint256",
                  "name": "createdAt",
                  "type": "uint256"
                },
                {
                  "internalType": "uint256",
                  "name": "updatedAt",
                  "type": "uint256"
                },
                {
                  "internalType": "uint256",
                  "name": "premium",
                  "type": "uint256"
                },
                {
                  "internalType": "uint256",
                  "name": "payoutIfDelayed",
                  "type": "uint256"
                },
                {
                  "internalType": "uint256",
                  "name": "payoutIfLost",
                  "type": "uint256"
                },
                {
                  "internalType": "uint256",
                  "name": "maxTotalPayout",
                  "type": "uint256"
                },
                {
                  "internalType": "uint256",
                  "name": "coverageDurationDays",
                  "type": "uint256"
                },
                {
                  "internalType": "enum BaggagePolicy.PolicyTemplateStatus",
                  "name": "status",
                  "type": "uint8"
                }
              ],
              "internalType": "struct BaggagePolicy.PolicyTemplate",
              "name": "template",
              "type": "tuple"
            },
            {
              "internalType": "string",
              "name": "itemDescription",
              "type": "string"
            },
            {
              "internalType": "uint256",
              "name": "createdAt",
              "type": "uint256"
            },
            {
              "internalType": "uint256",
              "name": "payoutToDate",
              "type": "uint256"
            },
            {
              "internalType": "address",
              "name": "buyer",
              "type": "address"
            },
            {
              "internalType": "enum BaggagePolicy.PolicyStatus",
              "name": "status",
              "type": "uint8"
            }
          ],
          "internalType": "struct BaggagePolicy.UserPolicy[]",
          "name": "",
          "type": "tuple[]"
        }
      ],
      "stateMutability": "view",
      "type": "function"
    },
    {
      "inputs": [
        {
          "internalType": "string",
          "name": "templateId",
          "type": "string"
        }
      ],
      "name": "getUserBaggagePoliciesByTemplate",
      "outputs": [
        {
          "components": [
            {
              "internalType": "uint256",
              "name": "policyId",
              "type": "uint256"
            },
            {
              "components": [
                {
                  "internalType": "string",
                  "name": "templateId",
                  "type": "string"
                },
                {
                  "internalType": "string",
                  "name": "name",
                  "type": "string"
                },
                {
                  "internalType": "string",
                  "name": "description",
                  "type": "string"
                },
                {
                  "internalType": "uint256",
                  "name": "createdAt",
                  "type": "uint256"
                },
                {
                  "internalType": "uint256",
                  "name": "updatedAt",
                  "type": "uint256"
                },
                {
                  "internalType": "uint256",
                  "name": "premium",
                  "type": "uint256"
                },
                {
                  "internalType": "uint256",
                  "name": "payoutIfDelayed",
                  "type": "uint256"
                },
                {
                  "internalType": "uint256",
                  "name": "payoutIfLost",
                  "type": "uint256"
                },
                {
                  "internalType": "uint256",
                  "name": "maxTotalPayout",
                  "type": "uint256"
                },
                {
                  "internalType": "uint256",
                  "name": "coverageDurationDays",
                  "type": "uint256"
                },
                {
                  "internalType": "enum BaggagePolicy.PolicyTemplateStatus",
                  "name": "status",
                  "type": "uint8"
                }
              ],
              "internalType": "struct BaggagePolicy.PolicyTemplate",
              "name": "template",
              "type": "tuple"
            },
            {
              "internalType": "string",
              "name": "itemDescription",
              "type": "string"
            },
            {
              "internalType": "uint256",
              "name": "createdAt",
              "type": "uint256"
            },
            {
              "internalType": "uint256",
              "name": "payoutToDate",
              "type": "uint256"
            },
            {
              "internalType": "address",
              "name": "buyer",
              "type": "address"
            },
            {
              "internalType": "enum BaggagePolicy.PolicyStatus",
              "name": "status",
              "type": "uint8"
            }
          ],
          "internalType": "struct BaggagePolicy.UserPolicy[]",
          "name": "",
          "type": "tuple[]"
        }
      ],
      "stateMutability": "view",
      "type": "function"
    },
    {
      "inputs": [
        {
          "internalType": "address",
          "name": "user",
          "type": "address"
        }
      ],
      "name": "getUserFlightPolicies",
      "outputs": [
        {
          "components": [
            {
              "internalType": "uint256",
              "name": "policyId",
              "type": "uint256"
            },
            {
              "components": [
                {
                  "internalType": "string",
                  "name": "templateId",
                  "type": "string"
                },
                {
                  "internalType": "string",
                  "name": "name",
                  "type": "string"
                },
                {
                  "internalType": "string",
                  "name": "description",
                  "type": "string"
                },
                {
                  "internalType": "uint256",
                  "name": "createdAt",
                  "type": "uint256"
                },
                {
                  "internalType": "uint256",
                  "name": "updatedAt",
                  "type": "uint256"
                },
                {
                  "internalType": "uint256",
                  "name": "premium",
                  "type": "uint256"
                },
                {
                  "internalType": "uint256",
                  "name": "payoutPerHour",
                  "type": "uint256"
                },
                {
                  "internalType": "uint256",
                  "name": "delayThresholdHours",
                  "type": "uint256"
                },
                {
                  "internalType": "uint256",
                  "name": "maxTotalPayout",
                  "type": "uint256"
                },
                {
                  "internalType": "uint256",
                  "name": "coverageDurationDays",
                  "type": "uint256"
                },
                {
                  "internalType": "enum FlightPolicy.PolicyTemplateStatus",
                  "name": "status",
                  "type": "uint8"
                }
              ],
              "internalType": "struct FlightPolicy.PolicyTemplate",
              "name": "template",
              "type": "tuple"
            },
            {
              "internalType": "string",
              "name": "flightNumber",
              "type": "string"
            },
            {
              "internalType": "string",
              "name": "departureAirportCode",
              "type": "string"
            },
            {
              "internalType": "string",
              "name": "arrivalAirportCode",
              "type": "string"
            },
            {
              "internalType": "uint256",
              "name": "departureTime",
              "type": "uint256"
            },
            {
              "internalType": "uint256",
              "name": "createdAt",
              "type": "uint256"
            },
            {
              "internalType": "uint256",
              "name": "payoutToDate",
              "type": "uint256"
            },
            {
              "internalType": "address",
              "name": "buyer",
              "type": "address"
            },
            {
              "internalType": "enum FlightPolicy.PolicyStatus",
              "name": "status",
              "type": "uint8"
            }
          ],
          "internalType": "struct FlightPolicy.UserPolicy[]",
          "name": "",
          "type": "tuple[]"
        }
      ],
      "stateMutability": "view",
      "type": "function"
    },
    {
      "inputs": [
        {
          "internalType": "string",
          "name": "templateId",
          "type": "string"
        }
      ],
      "name": "getUserFlightPoliciesByTemplate",
      "outputs": [
        {
          "components": [
            {
              "internalType": "uint256",
              "name": "policyId",
              "type": "uint256"
            },
            {
              "components": [
                {
                  "internalType": "string",
                  "name": "templateId",
                  "type": "string"
                },
                {
                  "internalType": "string",
                  "name": "name",
                  "type": "string"
                },
                {
                  "internalType": "string",
                  "name": "description",
                  "type": "string"
                },
                {
                  "internalType": "uint256",
                  "name": "createdAt",
                  "type": "uint256"
                },
                {
                  "internalType": "uint256",
                  "name": "updatedAt",
                  "type": "uint256"
                },
                {
                  "internalType": "uint256",
                  "name": "premium",
                  "type": "uint256"
                },
                {
                  "internalType": "uint256",
                  "name": "payoutPerHour",
                  "type": "uint256"
                },
                {
                  "internalType": "uint256",
                  "name": "delayThresholdHours",
                  "type": "uint256"
                },
                {
                  "internalType": "uint256",
                  "name": "maxTotalPayout",
                  "type": "uint256"
                },
                {
                  "internalType": "uint256",
                  "name": "coverageDurationDays",
                  "type": "uint256"
                },
                {
                  "internalType": "enum FlightPolicy.PolicyTemplateStatus",
                  "name": "status",
                  "type": "uint8"
                }
              ],
              "internalType": "struct FlightPolicy.PolicyTemplate",
              "name": "template",
              "type": "tuple"
            },
            {
              "internalType": "string",
              "name": "flightNumber",
              "type": "string"
            },
            {
              "internalType": "string",
              "name": "departureAirportCode",
              "type": "string"
            },
            {
              "internalType": "string",
              "name": "arrivalAirportCode",
              "type": "string"
            },
            {
              "internalType": "uint256",
              "name": "departureTime",
              "type": "uint256"
            },
            {
              "internalType": "uint256",
              "name": "createdAt",
              "type": "uint256"
            },
            {
              "internalType": "uint256",
              "name": "payoutToDate",
              "type": "uint256"
            },
            {
              "internalType": "address",
              "name": "buyer",
              "type": "address"
            },
            {
              "internalType": "enum FlightPolicy.PolicyStatus",
              "name": "status",
              "type": "uint8"
            }
          ],
          "internalType": "struct FlightPolicy.UserPolicy[]",
          "name": "",
          "type": "tuple[]"
        }
      ],
      "stateMutability": "view",
      "type": "function"
    },
    {
      "inputs": [],
      "name": "insurerAddress",
      "outputs": [
        {
          "internalType": "address",
          "name": "",
          "type": "address"
        }
      ],
      "stateMutability": "view",
      "type": "function"
    },
    {
      "inputs": [
        {
          "components": [
            {
              "internalType": "string",
              "name": "templateId",
              "type": "string"
            },
            {
              "internalType": "string",
              "name": "name",
              "type": "string"
            },
            {
              "internalType": "string",
              "name": "description",
              "type": "string"
            },
            {
              "internalType": "uint256",
              "name": "createdAt",
              "type": "uint256"
            },
            {
              "internalType": "uint256",
              "name": "updatedAt",
              "type": "uint256"
            },
            {
              "internalType": "uint256",
              "name": "premium",
              "type": "uint256"
            },
            {
              "internalType": "uint256",
              "name": "payoutIfDelayed",
              "type": "uint256"
            },
            {
              "internalType": "uint256",
              "name": "payoutIfLost",
              "type": "uint256"
            },
            {
              "internalType": "uint256",
              "name": "maxTotalPayout",
              "type": "uint256"
            },
            {
              "internalType": "uint256",
              "name": "coverageDurationDays",
              "type": "uint256"
            },
            {
              "internalType": "enum BaggagePolicy.PolicyTemplateStatus",
              "name": "status",
              "type": "uint8"
            }
          ],
          "internalType": "struct BaggagePolicy.PolicyTemplate[]",
          "name": "templates",
          "type": "tuple[]"
        }
      ],
      "name": "isBaggagePolicyAllowedForPurchase",
      "outputs": [
        {
          "internalType": "bool[]",
          "name": "",
          "type": "bool[]"
        }
      ],
      "stateMutability": "view",
      "type": "function"
    },
    {
      "inputs": [
        {
          "components": [
            {
              "internalType": "string",
              "name": "templateId",
              "type": "string"
            },
            {
              "internalType": "string",
              "name": "name",
              "type": "string"
            },
            {
              "internalType": "string",
              "name": "description",
              "type": "string"
            },
            {
              "internalType": "uint256",
              "name": "createdAt",
              "type": "uint256"
            },
            {
              "internalType": "uint256",
              "name": "updatedAt",
              "type": "uint256"
            },
            {
              "internalType": "uint256",
              "name": "premium",
              "type": "uint256"
            },
            {
              "internalType": "uint256",
              "name": "payoutPerHour",
              "type": "uint256"
            },
            {
              "internalType": "uint256",
              "name": "delayThresholdHours",
              "type": "uint256"
            },
            {
              "internalType": "uint256",
              "name": "maxTotalPayout",
              "type": "uint256"
            },
            {
              "internalType": "uint256",
              "name": "coverageDurationDays",
              "type": "uint256"
            },
            {
              "internalType": "enum FlightPolicy.PolicyTemplateStatus",
              "name": "status",
              "type": "uint8"
            }
          ],
          "internalType": "struct FlightPolicy.PolicyTemplate[]",
          "name": "templates",
          "type": "tuple[]"
        }
      ],
      "name": "isFlightPolicyAllowedForPurchase",
      "outputs": [
        {
          "internalType": "bool[]",
          "name": "",
          "type": "bool[]"
        }
      ],
      "stateMutability": "view",
      "type": "function"
    },
    {
      "inputs": [
        {
          "internalType": "address",
          "name": "user",
          "type": "address"
        }
      ],
      "name": "isInsurer",
      "outputs": [
        {
          "internalType": "bool",
          "name": "",
          "type": "bool"
        }
      ],
      "stateMutability": "view",
      "type": "function"
    },
    {
      "inputs": [
        {
          "internalType": "uint256",
          "name": "policyId",
          "type": "uint256"
        }
      ],
      "name": "markBaggagePolicyAsExpired",
      "outputs": [],
      "stateMutability": "nonpayable",
      "type": "function"
    },
    {
      "inputs": [
        {
          "internalType": "uint256",
          "name": "policyId",
          "type": "uint256"
        }
      ],
      "name": "markFlightPolicyAsExpired",
      "outputs": [],
      "stateMutability": "nonpayable",
      "type": "function"
    },
    {
      "inputs": [
        {
          "components": [
            {
              "internalType": "string",
              "name": "templateId",
              "type": "string"
            },
            {
              "internalType": "string",
              "name": "name",
              "type": "string"
            },
            {
              "internalType": "string",
              "name": "description",
              "type": "string"
            },
            {
              "internalType": "uint256",
              "name": "createdAt",
              "type": "uint256"
            },
            {
              "internalType": "uint256",
              "name": "updatedAt",
              "type": "uint256"
            },
            {
              "internalType": "uint256",
              "name": "premium",
              "type": "uint256"
            },
            {
              "internalType": "uint256",
              "name": "payoutIfDelayed",
              "type": "uint256"
            },
            {
              "internalType": "uint256",
              "name": "payoutIfLost",
              "type": "uint256"
            },
            {
              "internalType": "uint256",
              "name": "maxTotalPayout",
              "type": "uint256"
            },
            {
              "internalType": "uint256",
              "name": "coverageDurationDays",
              "type": "uint256"
            },
            {
              "internalType": "enum BaggagePolicy.PolicyTemplateStatus",
              "name": "status",
              "type": "uint8"
            }
          ],
          "internalType": "struct BaggagePolicy.PolicyTemplate",
          "name": "template",
          "type": "tuple"
        },
        {
          "internalType": "string",
          "name": "itemDescription",
          "type": "string"
        }
      ],
      "name": "purchaseBaggagePolicy",
      "outputs": [],
      "stateMutability": "payable",
      "type": "function"
    },
    {
      "inputs": [
        {
          "components": [
            {
              "internalType": "string",
              "name": "templateId",
              "type": "string"
            },
            {
              "internalType": "string",
              "name": "name",
              "type": "string"
            },
            {
              "internalType": "string",
              "name": "description",
              "type": "string"
            },
            {
              "internalType": "uint256",
              "name": "createdAt",
              "type": "uint256"
            },
            {
              "internalType": "uint256",
              "name": "updatedAt",
              "type": "uint256"
            },
            {
              "internalType": "uint256",
              "name": "premium",
              "type": "uint256"
            },
            {
              "internalType": "uint256",
              "name": "payoutPerHour",
              "type": "uint256"
            },
            {
              "internalType": "uint256",
              "name": "delayThresholdHours",
              "type": "uint256"
            },
            {
              "internalType": "uint256",
              "name": "maxTotalPayout",
              "type": "uint256"
            },
            {
              "internalType": "uint256",
              "name": "coverageDurationDays",
              "type": "uint256"
            },
            {
              "internalType": "enum FlightPolicy.PolicyTemplateStatus",
              "name": "status",
              "type": "uint8"
            }
          ],
          "internalType": "struct FlightPolicy.PolicyTemplate",
          "name": "template",
          "type": "tuple"
        },
        {
          "internalType": "string",
          "name": "flightNumber",
          "type": "string"
        },
        {
          "internalType": "string",
          "name": "departureAirportCode",
          "type": "string"
        },
        {
          "internalType": "string",
          "name": "arrivalAirportCode",
          "type": "string"
        },
        {
          "internalType": "uint256",
          "name": "departureTime",
          "type": "uint256"
        }
      ],
      "name": "purchaseFlightPolicy",
      "outputs": [],
      "stateMutability": "payable",
      "type": "function"
    },
    {
      "inputs": [
        {
          "internalType": "uint256",
          "name": "amountInWei",
          "type": "uint256"
        }
      ],
      "name": "withdraw",
      "outputs": [],
      "stateMutability": "nonpayable",
      "type": "function"
    },
    {
      "stateMutability": "payable",
      "type": "receive"
    }
  ],
  "bytecode": "0x60a06040523480156200001157600080fd5b5060405162003eb738038062003eb783398181016040528101906200003791906200015e565b3373ffffffffffffffffffffffffffffffffffffffff1660808173ffffffffffffffffffffffffffffffffffffffff1681525050816000806101000a81548173ffffffffffffffffffffffffffffffffffffffff021916908373ffffffffffffffffffffffffffffffffffffffff16021790555080600160006101000a81548173ffffffffffffffffffffffffffffffffffffffff021916908373ffffffffffffffffffffffffffffffffffffffff1602179055505050620001a5565b600080fd5b600073ffffffffffffffffffffffffffffffffffffffff82169050919050565b60006200012682620000f9565b9050919050565b620001388162000119565b81146200014457600080fd5b50565b60008151905062000158816200012d565b92915050565b60008060408385031215620001785762000177620000f4565b5b6000620001888582860162000147565b92505060206200019b8582860162000147565b9150509250929050565b608051613ca96200020e600039600081816105bc0152818161068d015281816106f4015281816107670152818161088e015281816109ac01528181610b720152818161111101528181611289015281816113b20152818161148301526114f50152613ca96000f3fe6080604052600436106101235760003560e01c80638350e578116100a0578063ca7e292911610064578063ca7e2929146103e8578063d0e30db014610413578063da7897e21461041d578063f368bc271461045a578063f8aa1d95146104855761012a565b80638350e5781461030b578063a4472e3214610327578063a7c0900e14610343578063b715521b1461036e578063bc8e5165146103ab5761012a565b80636906496e116100e75780636906496e146102005780636db30bad146102295780636f9fb98a146102665780637fba9ee514610291578063825ab849146102ce5761012a565b8063071165101461012f578063260d47c51461015a5780632e1a7d4d146101835780634dd7b2a8146101ac578063516f92f7146101d75761012a565b3661012a57005b600080fd5b34801561013b57600080fd5b506101446104c2565b6040516101519190611a41565b60405180910390f35b34801561016657600080fd5b50610181600480360381019061017c9190611aa6565b6104e6565b005b34801561018f57600080fd5b506101aa60048036038101906101a59190611aa6565b6105ba565b005b3480156101b857600080fd5b506101c1610763565b6040516101ce9190611f00565b60405180910390f35b3480156101e357600080fd5b506101fe60048036038101906101f99190611aa6565b61088c565b005b34801561020c57600080fd5b5061022760048036038101906102229190611aa6565b6109aa565b005b34801561023557600080fd5b50610250600480360381019061024b9190612057565b610ac6565b60405161025d9190611f00565b60405180910390f35b34801561027257600080fd5b5061027b610b6e565b60405161028891906120af565b60405180910390f35b34801561029d57600080fd5b506102b860048036038101906102b39190612057565b610c04565b6040516102c591906123bc565b60405180910390f35b3480156102da57600080fd5b506102f560048036038101906102f09190612653565b610cae565b6040516103029190612766565b60405180910390f35b6103256004803603810190610320919061290d565b610e2d565b005b610341600480360381019061033c91906129f8565b610fa2565b005b34801561034f57600080fd5b5061035861110f565b6040516103659190612a7f565b60405180910390f35b34801561037a57600080fd5b5061039560048036038101906103909190612ac6565b611133565b6040516103a29190611f00565b60405180910390f35b3480156103b757600080fd5b506103d260048036038101906103cd9190612ac6565b6111db565b6040516103df91906123bc565b60405180910390f35b3480156103f457600080fd5b506103fd611285565b60405161040a91906123bc565b60405180910390f35b61041b6113b0565b005b34801561042957600080fd5b50610444600480360381019061043f9190612ac6565b6114f1565b6040516104519190612b02565b60405180910390f35b34801561046657600080fd5b5061046f611549565b60405161047c9190612b3e565b60405180910390f35b34801561049157600080fd5b506104ac60048036038101906104a79190612c3a565b61156f565b6040516104b99190612766565b60405180910390f35b60008054906101000a900473ffffffffffffffffffffffffffffffffffffffff1681565b60008054906101000a900473ffffffffffffffffffffffffffffffffffffffff1673ffffffffffffffffffffffffffffffffffffffff1663b0110cc682336040518363ffffffff1660e01b8152600401610541929190612c83565b600060405180830381600087803b15801561055b57600080fd5b505af115801561056f573d6000803e3d6000fd5b50505050803373ffffffffffffffffffffffffffffffffffffffff167fd97fa6902eb91d71aea44cc906baaea3f41dab00c2f987da7f9d97b28172d40660405160405180910390a350565b7f000000000000000000000000000000000000000000000000000000000000000073ffffffffffffffffffffffffffffffffffffffff163373ffffffffffffffffffffffffffffffffffffffff1614610648576040517f08c379a000000000000000000000000000000000000000000000000000000000815260040161063f90612d2f565b60405180910390fd5b8047101561068b576040517f08c379a000000000000000000000000000000000000000000000000000000000815260040161068290612d9b565b60405180910390fd5b7f000000000000000000000000000000000000000000000000000000000000000073ffffffffffffffffffffffffffffffffffffffff166108fc829081150290604051600060405180830381858888f193505050501580156106f1573d6000803e3d6000fd5b507f000000000000000000000000000000000000000000000000000000000000000073ffffffffffffffffffffffffffffffffffffffff167feaff4b37086828766ad3268786972c0cd24259d4c87a80f9d3963a3c3d999b0d8260405161075891906120af565b60405180910390a250565b60607f000000000000000000000000000000000000000000000000000000000000000073ffffffffffffffffffffffffffffffffffffffff163373ffffffffffffffffffffffffffffffffffffffff16146107f3576040517f08c379a00000000000000000000000000000000000000000000000000000000081526004016107ea90612d2f565b60405180910390fd5b60008054906101000a900473ffffffffffffffffffffffffffffffffffffffff1673ffffffffffffffffffffffffffffffffffffffff1663457e55216040518163ffffffff1660e01b8152600401600060405180830381865afa15801561085e573d6000803e3d6000fd5b505050506040513d6000823e3d601f19601f820116820180604052508101906108879190613236565b905090565b7f000000000000000000000000000000000000000000000000000000000000000073ffffffffffffffffffffffffffffffffffffffff163373ffffffffffffffffffffffffffffffffffffffff161461091a576040517f08c379a000000000000000000000000000000000000000000000000000000000815260040161091190612d2f565b60405180910390fd5b600160009054906101000a900473ffffffffffffffffffffffffffffffffffffffff1673ffffffffffffffffffffffffffffffffffffffff1663cf39c624826040518263ffffffff1660e01b815260040161097591906120af565b600060405180830381600087803b15801561098f57600080fd5b505af11580156109a3573d6000803e3d6000fd5b5050505050565b7f000000000000000000000000000000000000000000000000000000000000000073ffffffffffffffffffffffffffffffffffffffff163373ffffffffffffffffffffffffffffffffffffffff1614610a38576040517f08c379a0000000000000000000000000000000000000000000000000000000008152600401610a2f90612d2f565b60405180910390fd5b60008054906101000a900473ffffffffffffffffffffffffffffffffffffffff1673ffffffffffffffffffffffffffffffffffffffff1663cf39c624826040518263ffffffff1660e01b8152600401610a9191906120af565b600060405180830381600087803b158015610aab57600080fd5b505af1158015610abf573d6000803e3d6000fd5b5050505050565b606060008054906101000a900473ffffffffffffffffffffffffffffffffffffffff1673ffffffffffffffffffffffffffffffffffffffff16639c6cf7ef836040518263ffffffff1660e01b8152600401610b2191906132b8565b600060405180830381865afa158015610b3e573d6000803e3d6000fd5b505050506040513d6000823e3d601f19601f82011682018060405250810190610b679190613236565b9050919050565b60007f000000000000000000000000000000000000000000000000000000000000000073ffffffffffffffffffffffffffffffffffffffff163373ffffffffffffffffffffffffffffffffffffffff1614610bfe576040517f08c379a0000000000000000000000000000000000000000000000000000000008152600401610bf590612d2f565b60405180910390fd5b47905090565b6060600160009054906101000a900473ffffffffffffffffffffffffffffffffffffffff1673ffffffffffffffffffffffffffffffffffffffff16639c6cf7ef836040518263ffffffff1660e01b8152600401610c6191906132b8565b600060405180830381865afa158015610c7e573d6000803e3d6000fd5b505050506040513d6000823e3d601f19601f82011682018060405250810190610ca79190613641565b9050919050565b60606000825167ffffffffffffffff811115610ccd57610ccc611f2c565b5b604051908082528060200260200182016040528015610cfb5781602001602082028036833780820191505090505b5090506000610d086116ee565b905060005b8451811015610e22576000858281518110610d2b57610d2a61368a565b5b6020026020010151610100015183610d4391906136e8565b905047670de0b6b3a764000082610d5a919061371c565b1115610d8c576000848381518110610d7557610d7461368a565b5b602002602001019015159081151581525050610db4565b6001848381518110610da157610da061368a565b5b6020026020010190151590811515815250505b610e0e6040518060400160405280600781526020017f626167676167650000000000000000000000000000000000000000000000000081525083868581518110610e0157610e0061368a565b5b60200260200101516118d3565b508080610e1a9061375e565b915050610d0d565b508192505050919050565b6000610e376116ee565b905085610100015181610e4a91906136e8565b905047811115610e8f576040517f08c379a0000000000000000000000000000000000000000000000000000000008152600401610e8690613818565b60405180910390fd5b60008060009054906101000a900473ffffffffffffffffffffffffffffffffffffffff1673ffffffffffffffffffffffffffffffffffffffff166331953ecc348989898989336040518863ffffffff1660e01b8152600401610ef696959493929190613935565b60206040518083038185885af1158015610f14573d6000803e3d6000fd5b50505050506040513d601f19601f82011682018060405250810190610f3991906139b2565b90508660000151604051610f4d9190613a1b565b6040518091039020813373ffffffffffffffffffffffffffffffffffffffff167f43617ea01c45d3386d7be4a6cb66bf94c0152a674cbd34a5de81ed135dfd7b1760405160405180910390a450505050505050565b6000610fac6116ee565b905082610100015181610fbf91906136e8565b905047811115611004576040517f08c379a0000000000000000000000000000000000000000000000000000000008152600401610ffb90613818565b60405180910390fd5b6000600160009054906101000a900473ffffffffffffffffffffffffffffffffffffffff1673ffffffffffffffffffffffffffffffffffffffff1663e0516149348686336040518563ffffffff1660e01b815260040161106693929190613b2f565b60206040518083038185885af1158015611084573d6000803e3d6000fd5b50505050506040513d601f19601f820116820180604052508101906110a991906139b2565b905083600001516040516110bd9190613a1b565b6040518091039020813373ffffffffffffffffffffffffffffffffffffffff167fd3ad849e96e45902e7d1f5bd084268392ad649bd4509857dbfd40ceb536aef3860405160405180910390a450505050565b7f000000000000000000000000000000000000000000000000000000000000000081565b606060008054906101000a900473ffffffffffffffffffffffffffffffffffffffff1673ffffffffffffffffffffffffffffffffffffffff166319ac4614836040518263ffffffff1660e01b815260040161118e9190612a7f565b600060405180830381865afa1580156111ab573d6000803e3d6000fd5b505050506040513d6000823e3d601f19601f820116820180604052508101906111d49190613236565b9050919050565b6060600160009054906101000a900473ffffffffffffffffffffffffffffffffffffffff1673ffffffffffffffffffffffffffffffffffffffff166319ac4614836040518263ffffffff1660e01b81526004016112389190612a7f565b600060405180830381865afa158015611255573d6000803e3d6000fd5b505050506040513d6000823e3d601f19601f8201168201806040525081019061127e9190613641565b9050919050565b60607f000000000000000000000000000000000000000000000000000000000000000073ffffffffffffffffffffffffffffffffffffffff163373ffffffffffffffffffffffffffffffffffffffff1614611315576040517f08c379a000000000000000000000000000000000000000000000000000000000815260040161130c90612d2f565b60405180910390fd5b600160009054906101000a900473ffffffffffffffffffffffffffffffffffffffff1673ffffffffffffffffffffffffffffffffffffffff1663457e55216040518163ffffffff1660e01b8152600401600060405180830381865afa158015611382573d6000803e3d6000fd5b505050506040513d6000823e3d601f19601f820116820180604052508101906113ab9190613641565b905090565b7f000000000000000000000000000000000000000000000000000000000000000073ffffffffffffffffffffffffffffffffffffffff163373ffffffffffffffffffffffffffffffffffffffff161461143e576040517f08c379a000000000000000000000000000000000000000000000000000000000815260040161143590612d2f565b60405180910390fd5b60003411611481576040517f08c379a000000000000000000000000000000000000000000000000000000000815260040161147890613be6565b60405180910390fd5b7f000000000000000000000000000000000000000000000000000000000000000073ffffffffffffffffffffffffffffffffffffffff167f543ba50a5eec5e6178218e364b1d0f396157b3c8fa278522c2cb7fd99407d474346040516114e791906120af565b60405180910390a2565b60007f000000000000000000000000000000000000000000000000000000000000000073ffffffffffffffffffffffffffffffffffffffff168273ffffffffffffffffffffffffffffffffffffffff16149050919050565b600160009054906101000a900473ffffffffffffffffffffffffffffffffffffffff1681565b60606000825167ffffffffffffffff81111561158e5761158d611f2c565b5b6040519080825280602002602001820160405280156115bc5781602001602082028036833780820191505090505b50905060006115c96116ee565b905060005b84518110156116e35760008582815181106115ec576115eb61368a565b5b602002602001015161010001518361160491906136e8565b905047670de0b6b3a76400008261161b919061371c565b111561164d5760008483815181106116365761163561368a565b5b602002602001019015159081151581525050611675565b60018483815181106116625761166161368a565b5b6020026020010190151590811515815250505b6116cf6040518060400160405280600681526020017f666c696768740000000000000000000000000000000000000000000000000000815250838685815181106116c2576116c161368a565b5b60200260200101516118d3565b5080806116db9061375e565b9150506115ce565b508192505050919050565b6000806000905060008060009054906101000a900473ffffffffffffffffffffffffffffffffffffffff1673ffffffffffffffffffffffffffffffffffffffff1663457e55216040518163ffffffff1660e01b8152600401600060405180830381865afa158015611763573d6000803e3d6000fd5b505050506040513d6000823e3d601f19601f8201168201806040525081019061178c9190613236565b90506000600160009054906101000a900473ffffffffffffffffffffffffffffffffffffffff1673ffffffffffffffffffffffffffffffffffffffff1663457e55216040518163ffffffff1660e01b8152600401600060405180830381865afa1580156117fd573d6000803e3d6000fd5b505050506040513d6000823e3d601f19601f820116820180604052508101906118269190613641565b905060005b8251811015611878578281815181106118475761184661368a565b5b60200260200101516020015161010001518461186391906136e8565b935080806118709061375e565b91505061182b565b5060005b81518110156118c9578181815181106118985761189761368a565b5b6020026020010151602001516101000151846118b491906136e8565b935080806118c19061375e565b91505061187c565b5082935050505090565b61196d8383836040516024016118eb93929190613c06565b6040516020818303038152906040527fca7733b1000000000000000000000000000000000000000000000000000000007bffffffffffffffffffffffffffffffffffffffffffffffffffffffff19166020820180517bffffffffffffffffffffffffffffffffffffffffffffffffffffffff8381831617835250505050611972565b505050565b6119898161198161198c6119ad565b63ffffffff16565b50565b60006a636f6e736f6c652e6c6f679050600080835160208501845afa505050565b6119b8819050919050565b6119c0613c44565b565b600073ffffffffffffffffffffffffffffffffffffffff82169050919050565b6000819050919050565b6000611a07611a026119fd846119c2565b6119e2565b6119c2565b9050919050565b6000611a19826119ec565b9050919050565b6000611a2b82611a0e565b9050919050565b611a3b81611a20565b82525050565b6000602082019050611a566000830184611a32565b92915050565b6000604051905090565b600080fd5b600080fd5b6000819050919050565b611a8381611a70565b8114611a8e57600080fd5b50565b600081359050611aa081611a7a565b92915050565b600060208284031215611abc57611abb611a66565b5b6000611aca84828501611a91565b91505092915050565b600081519050919050565b600082825260208201905092915050565b6000819050602082019050919050565b611b0881611a70565b82525050565b600081519050919050565b600082825260208201905092915050565b60005b83811015611b48578082015181840152602081019050611b2d565b60008484015250505050565b6000601f19601f8301169050919050565b6000611b7082611b0e565b611b7a8185611b19565b9350611b8a818560208601611b2a565b611b9381611b54565b840191505092915050565b7f4e487b7100000000000000000000000000000000000000000000000000000000600052602160045260246000fd5b60028110611bde57611bdd611b9e565b5b50565b6000819050611bef82611bcd565b919050565b6000611bff82611be1565b9050919050565b611c0f81611bf4565b82525050565b6000610160830160008301518482036000860152611c338282611b65565b91505060208301518482036020860152611c4d8282611b65565b91505060408301518482036040860152611c678282611b65565b9150506060830151611c7c6060860182611aff565b506080830151611c8f6080860182611aff565b5060a0830151611ca260a0860182611aff565b5060c0830151611cb560c0860182611aff565b5060e0830151611cc860e0860182611aff565b50610100830151611cdd610100860182611aff565b50610120830151611cf2610120860182611aff565b50610140830151611d07610140860182611c06565b508091505092915050565b6000611d1d826119c2565b9050919050565b611d2d81611d12565b82525050565b60038110611d4457611d43611b9e565b5b50565b6000819050611d5582611d33565b919050565b6000611d6582611d47565b9050919050565b611d7581611d5a565b82525050565b600061014083016000830151611d946000860182611aff565b5060208301518482036020860152611dac8282611c15565b91505060408301518482036040860152611dc68282611b65565b91505060608301518482036060860152611de08282611b65565b91505060808301518482036080860152611dfa8282611b65565b91505060a0830151611e0f60a0860182611aff565b5060c0830151611e2260c0860182611aff565b5060e0830151611e3560e0860182611aff565b50610100830151611e4a610100860182611d24565b50610120830151611e5f610120860182611d6c565b508091505092915050565b6000611e768383611d7b565b905092915050565b6000602082019050919050565b6000611e9682611ad3565b611ea08185611ade565b935083602082028501611eb285611aef565b8060005b85811015611eee5784840389528151611ecf8582611e6a565b9450611eda83611e7e565b925060208a01995050600181019050611eb6565b50829750879550505050505092915050565b60006020820190508181036000830152611f1a8184611e8b565b905092915050565b600080fd5b600080fd5b7f4e487b7100000000000000000000000000000000000000000000000000000000600052604160045260246000fd5b611f6482611b54565b810181811067ffffffffffffffff82111715611f8357611f82611f2c565b5b80604052505050565b6000611f96611a5c565b9050611fa28282611f5b565b919050565b600067ffffffffffffffff821115611fc257611fc1611f2c565b5b611fcb82611b54565b9050602081019050919050565b82818337600083830152505050565b6000611ffa611ff584611fa7565b611f8c565b90508281526020810184848401111561201657612015611f27565b5b612021848285611fd8565b509392505050565b600082601f83011261203e5761203d611f22565b5b813561204e848260208601611fe7565b91505092915050565b60006020828403121561206d5761206c611a66565b5b600082013567ffffffffffffffff81111561208b5761208a611a6b565b5b61209784828501612029565b91505092915050565b6120a981611a70565b82525050565b60006020820190506120c460008301846120a0565b92915050565b600081519050919050565b600082825260208201905092915050565b6000819050602082019050919050565b6002811061210757612106611b9e565b5b50565b6000819050612118826120f6565b919050565b60006121288261210a565b9050919050565b6121388161211d565b82525050565b600061016083016000830151848203600086015261215c8282611b65565b915050602083015184820360208601526121768282611b65565b915050604083015184820360408601526121908282611b65565b91505060608301516121a56060860182611aff565b5060808301516121b86080860182611aff565b5060a08301516121cb60a0860182611aff565b5060c08301516121de60c0860182611aff565b5060e08301516121f160e0860182611aff565b50610100830151612206610100860182611aff565b5061012083015161221b610120860182611aff565b5061014083015161223061014086018261212f565b508091505092915050565b6003811061224c5761224b611b9e565b5b50565b600081905061225d8261223b565b919050565b600061226d8261224f565b9050919050565b61227d81612262565b82525050565b600060e08301600083015161229b6000860182611aff565b50602083015184820360208601526122b3828261213e565b915050604083015184820360408601526122cd8282611b65565b91505060608301516122e26060860182611aff565b5060808301516122f56080860182611aff565b5060a083015161230860a0860182611d24565b5060c083015161231b60c0860182612274565b508091505092915050565b60006123328383612283565b905092915050565b6000602082019050919050565b6000612352826120ca565b61235c81856120d5565b93508360208202850161236e856120e6565b8060005b858110156123aa578484038952815161238b8582612326565b94506123968361233a565b925060208a01995050600181019050612372565b50829750879550505050505092915050565b600060208201905081810360008301526123d68184612347565b905092915050565b600067ffffffffffffffff8211156123f9576123f8611f2c565b5b602082029050602081019050919050565b600080fd5b600080fd5b600080fd5b6002811061242657600080fd5b50565b60008135905061243881612419565b92915050565b600061016082840312156124555761245461240f565b5b612460610160611f8c565b9050600082013567ffffffffffffffff8111156124805761247f612414565b5b61248c84828501612029565b600083015250602082013567ffffffffffffffff8111156124b0576124af612414565b5b6124bc84828501612029565b602083015250604082013567ffffffffffffffff8111156124e0576124df612414565b5b6124ec84828501612029565b604083015250606061250084828501611a91565b606083015250608061251484828501611a91565b60808301525060a061252884828501611a91565b60a08301525060c061253c84828501611a91565b60c08301525060e061255084828501611a91565b60e08301525061010061256584828501611a91565b6101008301525061012061257b84828501611a91565b6101208301525061014061259184828501612429565b6101408301525092915050565b60006125b16125ac846123de565b611f8c565b905080838252602082019050602084028301858111156125d4576125d361240a565b5b835b8181101561261b57803567ffffffffffffffff8111156125f9576125f8611f22565b5b808601612606898261243e565b855260208501945050506020810190506125d6565b5050509392505050565b600082601f83011261263a57612639611f22565b5b813561264a84826020860161259e565b91505092915050565b60006020828403121561266957612668611a66565b5b600082013567ffffffffffffffff81111561268757612686611a6b565b5b61269384828501612625565b91505092915050565b600081519050919050565b600082825260208201905092915050565b6000819050602082019050919050565b60008115159050919050565b6126dd816126c8565b82525050565b60006126ef83836126d4565b60208301905092915050565b6000602082019050919050565b60006127138261269c565b61271d81856126a7565b9350612728836126b8565b8060005b8381101561275957815161274088826126e3565b975061274b836126fb565b92505060018101905061272c565b5085935050505092915050565b600060208201905081810360008301526127808184612708565b905092915050565b6002811061279557600080fd5b50565b6000813590506127a781612788565b92915050565b600061016082840312156127c4576127c361240f565b5b6127cf610160611f8c565b9050600082013567ffffffffffffffff8111156127ef576127ee612414565b5b6127fb84828501612029565b600083015250602082013567ffffffffffffffff81111561281f5761281e612414565b5b61282b84828501612029565b602083015250604082013567ffffffffffffffff81111561284f5761284e612414565b5b61285b84828501612029565b604083015250606061286f84828501611a91565b606083015250608061288384828501611a91565b60808301525060a061289784828501611a91565b60a08301525060c06128ab84828501611a91565b60c08301525060e06128bf84828501611a91565b60e0830152506101006128d484828501611a91565b610100830152506101206128ea84828501611a91565b6101208301525061014061290084828501612798565b6101408301525092915050565b600080600080600060a0868803121561292957612928611a66565b5b600086013567ffffffffffffffff81111561294757612946611a6b565b5b612953888289016127ad565b955050602086013567ffffffffffffffff81111561297457612973611a6b565b5b61298088828901612029565b945050604086013567ffffffffffffffff8111156129a1576129a0611a6b565b5b6129ad88828901612029565b935050606086013567ffffffffffffffff8111156129ce576129cd611a6b565b5b6129da88828901612029565b92505060806129eb88828901611a91565b9150509295509295909350565b60008060408385031215612a0f57612a0e611a66565b5b600083013567ffffffffffffffff811115612a2d57612a2c611a6b565b5b612a398582860161243e565b925050602083013567ffffffffffffffff811115612a5a57612a59611a6b565b5b612a6685828601612029565b9150509250929050565b612a7981611d12565b82525050565b6000602082019050612a946000830184612a70565b92915050565b612aa381611d12565b8114612aae57600080fd5b50565b600081359050612ac081612a9a565b92915050565b600060208284031215612adc57612adb611a66565b5b6000612aea84828501612ab1565b91505092915050565b612afc816126c8565b82525050565b6000602082019050612b176000830184612af3565b92915050565b6000612b2882611a0e565b9050919050565b612b3881612b1d565b82525050565b6000602082019050612b536000830184612b2f565b92915050565b600067ffffffffffffffff821115612b7457612b73611f2c565b5b602082029050602081019050919050565b6000612b98612b9384612b59565b611f8c565b90508083825260208201905060208402830185811115612bbb57612bba61240a565b5b835b81811015612c0257803567ffffffffffffffff811115612be057612bdf611f22565b5b808601612bed89826127ad565b85526020850194505050602081019050612bbd565b5050509392505050565b600082601f830112612c2157612c20611f22565b5b8135612c31848260208601612b85565b91505092915050565b600060208284031215612c5057612c4f611a66565b5b600082013567ffffffffffffffff811115612c6e57612c6d611a6b565b5b612c7a84828501612c0c565b91505092915050565b6000604082019050612c9860008301856120a0565b612ca56020830184612a70565b9392505050565b600082825260208201905092915050565b7f496e73757265723a204f6e6c792074686520696e73757265722063616e20636160008201527f6c6c207468697300000000000000000000000000000000000000000000000000602082015250565b6000612d19602783612cac565b9150612d2482612cbd565b604082019050919050565b60006020820190508181036000830152612d4881612d0c565b9050919050565b7f496e73756666696369656e742062616c616e6365000000000000000000000000600082015250565b6000612d85601483612cac565b9150612d9082612d4f565b602082019050919050565b60006020820190508181036000830152612db481612d78565b9050919050565b600067ffffffffffffffff821115612dd657612dd5611f2c565b5b602082029050602081019050919050565b600081519050612df681611a7a565b92915050565b6000612e0f612e0a84611fa7565b611f8c565b905082815260208101848484011115612e2b57612e2a611f27565b5b612e36848285611b2a565b509392505050565b600082601f830112612e5357612e52611f22565b5b8151612e63848260208601612dfc565b91505092915050565b600081519050612e7b81612788565b92915050565b60006101608284031215612e9857612e9761240f565b5b612ea3610160611f8c565b9050600082015167ffffffffffffffff811115612ec357612ec2612414565b5b612ecf84828501612e3e565b600083015250602082015167ffffffffffffffff811115612ef357612ef2612414565b5b612eff84828501612e3e565b602083015250604082015167ffffffffffffffff811115612f2357612f22612414565b5b612f2f84828501612e3e565b6040830152506060612f4384828501612de7565b6060830152506080612f5784828501612de7565b60808301525060a0612f6b84828501612de7565b60a08301525060c0612f7f84828501612de7565b60c08301525060e0612f9384828501612de7565b60e083015250610100612fa884828501612de7565b61010083015250610120612fbe84828501612de7565b61012083015250610140612fd484828501612e6c565b6101408301525092915050565b600081519050612ff081612a9a565b92915050565b6003811061300357600080fd5b50565b60008151905061301581612ff6565b92915050565b600061014082840312156130325761303161240f565b5b61303d610140611f8c565b9050600061304d84828501612de7565b600083015250602082015167ffffffffffffffff81111561307157613070612414565b5b61307d84828501612e81565b602083015250604082015167ffffffffffffffff8111156130a1576130a0612414565b5b6130ad84828501612e3e565b604083015250606082015167ffffffffffffffff8111156130d1576130d0612414565b5b6130dd84828501612e3e565b606083015250608082015167ffffffffffffffff81111561310157613100612414565b5b61310d84828501612e3e565b60808301525060a061312184828501612de7565b60a08301525060c061313584828501612de7565b60c08301525060e061314984828501612de7565b60e08301525061010061315e84828501612fe1565b6101008301525061012061317484828501613006565b6101208301525092915050565b600061319461318f84612dbb565b611f8c565b905080838252602082019050602084028301858111156131b7576131b661240a565b5b835b818110156131fe57805167ffffffffffffffff8111156131dc576131db611f22565b5b8086016131e9898261301b565b855260208501945050506020810190506131b9565b5050509392505050565b600082601f83011261321d5761321c611f22565b5b815161322d848260208601613181565b91505092915050565b60006020828403121561324c5761324b611a66565b5b600082015167ffffffffffffffff81111561326a57613269611a6b565b5b61327684828501613208565b91505092915050565b600061328a82611b0e565b6132948185612cac565b93506132a4818560208601611b2a565b6132ad81611b54565b840191505092915050565b600060208201905081810360008301526132d2818461327f565b905092915050565b600067ffffffffffffffff8211156132f5576132f4611f2c565b5b602082029050602081019050919050565b60008151905061331581612419565b92915050565b600061016082840312156133325761333161240f565b5b61333d610160611f8c565b9050600082015167ffffffffffffffff81111561335d5761335c612414565b5b61336984828501612e3e565b600083015250602082015167ffffffffffffffff81111561338d5761338c612414565b5b61339984828501612e3e565b602083015250604082015167ffffffffffffffff8111156133bd576133bc612414565b5b6133c984828501612e3e565b60408301525060606133dd84828501612de7565b60608301525060806133f184828501612de7565b60808301525060a061340584828501612de7565b60a08301525060c061341984828501612de7565b60c08301525060e061342d84828501612de7565b60e08301525061010061344284828501612de7565b6101008301525061012061345884828501612de7565b6101208301525061014061346e84828501613306565b6101408301525092915050565b6003811061348857600080fd5b50565b60008151905061349a8161347b565b92915050565b600060e082840312156134b6576134b561240f565b5b6134c060e0611f8c565b905060006134d084828501612de7565b600083015250602082015167ffffffffffffffff8111156134f4576134f3612414565b5b6135008482850161331b565b602083015250604082015167ffffffffffffffff81111561352457613523612414565b5b61353084828501612e3e565b604083015250606061354484828501612de7565b606083015250608061355884828501612de7565b60808301525060a061356c84828501612fe1565b60a08301525060c06135808482850161348b565b60c08301525092915050565b600061359f61359a846132da565b611f8c565b905080838252602082019050602084028301858111156135c2576135c161240a565b5b835b8181101561360957805167ffffffffffffffff8111156135e7576135e6611f22565b5b8086016135f489826134a0565b855260208501945050506020810190506135c4565b5050509392505050565b600082601f83011261362857613627611f22565b5b815161363884826020860161358c565b91505092915050565b60006020828403121561365757613656611a66565b5b600082015167ffffffffffffffff81111561367557613674611a6b565b5b61368184828501613613565b91505092915050565b7f4e487b7100000000000000000000000000000000000000000000000000000000600052603260045260246000fd5b7f4e487b7100000000000000000000000000000000000000000000000000000000600052601160045260246000fd5b60006136f382611a70565b91506136fe83611a70565b9250828201905080821115613716576137156136b9565b5b92915050565b600061372782611a70565b915061373283611a70565b925082820261374081611a70565b91508282048414831517613757576137566136b9565b5b5092915050565b600061376982611a70565b91507fffffffffffffffffffffffffffffffffffffffffffffffffffffffffffffffff820361379b5761379a6136b9565b5b600182019050919050565b7f496e73756666696369656e7420636f6e74726163742062616c616e636520746f60008201527f20636f76657220706f74656e7469616c207061796f7574730000000000000000602082015250565b6000613802603883612cac565b915061380d826137a6565b604082019050919050565b60006020820190508181036000830152613831816137f5565b9050919050565b60006101608301600083015184820360008601526138568282611b65565b915050602083015184820360208601526138708282611b65565b9150506040830151848203604086015261388a8282611b65565b915050606083015161389f6060860182611aff565b5060808301516138b26080860182611aff565b5060a08301516138c560a0860182611aff565b5060c08301516138d860c0860182611aff565b5060e08301516138eb60e0860182611aff565b50610100830151613900610100860182611aff565b50610120830151613915610120860182611aff565b5061014083015161392a610140860182611c06565b508091505092915050565b600060c082019050818103600083015261394f8189613838565b90508181036020830152613963818861327f565b90508181036040830152613977818761327f565b9050818103606083015261398b818661327f565b905061399a60808301856120a0565b6139a760a0830184612a70565b979650505050505050565b6000602082840312156139c8576139c7611a66565b5b60006139d684828501612de7565b91505092915050565b600081905092915050565b60006139f582611b0e565b6139ff81856139df565b9350613a0f818560208601611b2a565b80840191505092915050565b6000613a2782846139ea565b915081905092915050565b6000610160830160008301518482036000860152613a508282611b65565b91505060208301518482036020860152613a6a8282611b65565b91505060408301518482036040860152613a848282611b65565b9150506060830151613a996060860182611aff565b506080830151613aac6080860182611aff565b5060a0830151613abf60a0860182611aff565b5060c0830151613ad260c0860182611aff565b5060e0830151613ae560e0860182611aff565b50610100830151613afa610100860182611aff565b50610120830151613b0f610120860182611aff565b50610140830151613b2461014086018261212f565b508091505092915050565b60006060820190508181036000830152613b498186613a32565b90508181036020830152613b5d818561327f565b9050613b6c6040830184612a70565b949350505050565b7f496e73757265723a204d757374206465706f736974206120706f73697469766560008201527f20616d6f756e7400000000000000000000000000000000000000000000000000602082015250565b6000613bd0602783612cac565b9150613bdb82613b74565b604082019050919050565b60006020820190508181036000830152613bff81613bc3565b9050919050565b60006060820190508181036000830152613c20818661327f565b9050613c2f60208301856120a0565b613c3c6040830184612af3565b949350505050565b7f4e487b7100000000000000000000000000000000000000000000000000000000600052605160045260246000fdfea2646970667358221220712b2dc37772810c997bb982bb630dcccdd10cdcfbba72f3213199c2c9ee2e5f64736f6c63430008130033",
  "linkReferences": {},
  "deployedLinkReferences": {}
}