{
  "_format": "hh-sol-artifact-1",
  "contractName": "Insurer",
  "sourceName": "contracts/Insurer.sol",
  "abi": [
    {
      "inputs": [
        {
          "internalType": "address",
          "name": "_flightPolicyAddress",
          "type": "address"
        }
      ],
      "stateMutability": "nonpayable",
      "type": "constructor"
    },
    {
      "anonymous": false,
      "inputs": [
        {
          "indexed": true,
          "internalType": "address",
          "name": "buyer",
          "type": "address"
        },
        {
          "indexed": true,
          "internalType": "uint256",
          "name": "policyId",
          "type": "uint256"
        }
      ],
      "name": "FlightPolicyClaimed",
      "type": "event"
    },
    {
      "anonymous": false,
      "inputs": [
        {
          "indexed": true,
          "internalType": "address",
          "name": "buyer",
          "type": "address"
        },
        {
          "indexed": true,
          "internalType": "uint256",
          "name": "policyId",
          "type": "uint256"
        },
        {
          "indexed": true,
          "internalType": "string",
          "name": "templateId",
          "type": "string"
        }
      ],
      "name": "FlightPolicyPurchased",
      "type": "event"
    },
    {
      "anonymous": false,
      "inputs": [
        {
          "indexed": true,
          "internalType": "address",
          "name": "insurer",
          "type": "address"
        },
        {
          "indexed": false,
          "internalType": "uint256",
          "name": "amount",
          "type": "uint256"
        }
      ],
      "name": "FundsDeposited",
      "type": "event"
    },
    {
      "anonymous": false,
      "inputs": [
        {
          "indexed": true,
          "internalType": "address",
          "name": "insurer",
          "type": "address"
        },
        {
          "indexed": false,
          "internalType": "uint256",
          "name": "amount",
          "type": "uint256"
        }
      ],
      "name": "FundsWithdrawn",
      "type": "event"
    },
    {
      "inputs": [
        {
          "internalType": "uint256",
          "name": "policyId",
          "type": "uint256"
        }
      ],
      "name": "claimFlightPayout",
      "outputs": [],
      "stateMutability": "nonpayable",
      "type": "function"
    },
    {
      "inputs": [],
      "name": "deposit",
      "outputs": [],
      "stateMutability": "payable",
      "type": "function"
    },
    {
      "inputs": [],
      "name": "flightPolicy",
      "outputs": [
        {
          "internalType": "contract FlightPolicy",
          "name": "",
          "type": "address"
        }
      ],
      "stateMutability": "view",
      "type": "function"
    },
    {
      "inputs": [],
      "name": "getAllFlightPolicies",
      "outputs": [
        {
          "components": [
            {
              "internalType": "uint256",
              "name": "policyId",
              "type": "uint256"
            },
            {
              "components": [
                {
                  "internalType": "string",
                  "name": "templateId",
                  "type": "string"
                },
                {
                  "internalType": "string",
                  "name": "name",
                  "type": "string"
                },
                {
                  "internalType": "string",
                  "name": "description",
                  "type": "string"
                },
                {
                  "internalType": "uint256",
                  "name": "createdAt",
                  "type": "uint256"
                },
                {
                  "internalType": "uint256",
                  "name": "updatedAt",
                  "type": "uint256"
                },
                {
                  "internalType": "uint256",
                  "name": "premium",
                  "type": "uint256"
                },
                {
                  "internalType": "uint256",
                  "name": "payoutPerHour",
                  "type": "uint256"
                },
                {
                  "internalType": "uint256",
                  "name": "delayThresholdHours",
                  "type": "uint256"
                },
                {
                  "internalType": "uint256",
                  "name": "maxTotalPayout",
                  "type": "uint256"
                },
                {
                  "internalType": "uint256",
                  "name": "coverageDurationDays",
                  "type": "uint256"
                },
                {
                  "internalType": "enum FlightPolicy.PolicyTemplateStatus",
                  "name": "status",
                  "type": "uint8"
                }
              ],
              "internalType": "struct FlightPolicy.PolicyTemplate",
              "name": "template",
              "type": "tuple"
            },
            {
              "internalType": "string",
              "name": "flightNumber",
              "type": "string"
            },
            {
              "internalType": "string",
              "name": "departureAirportCode",
              "type": "string"
            },
            {
              "internalType": "string",
              "name": "arrivalAirportCode",
              "type": "string"
            },
            {
              "internalType": "uint256",
              "name": "departureTime",
              "type": "uint256"
            },
            {
              "internalType": "uint256",
              "name": "createdAt",
              "type": "uint256"
            },
            {
              "internalType": "uint256",
              "name": "payoutToDate",
              "type": "uint256"
            },
            {
              "internalType": "address",
              "name": "buyer",
              "type": "address"
            },
            {
              "internalType": "enum FlightPolicy.PolicyStatus",
              "name": "status",
              "type": "uint8"
            }
          ],
          "internalType": "struct FlightPolicy.UserPolicy[]",
          "name": "",
          "type": "tuple[]"
        }
      ],
      "stateMutability": "view",
      "type": "function"
    },
    {
      "inputs": [],
      "name": "getContractBalance",
      "outputs": [
        {
          "internalType": "uint256",
          "name": "",
          "type": "uint256"
        }
      ],
      "stateMutability": "view",
      "type": "function"
    },
    {
      "inputs": [
        {
          "internalType": "address",
          "name": "user",
          "type": "address"
        },
        {
          "internalType": "uint256",
          "name": "policyId",
          "type": "uint256"
        }
      ],
      "name": "getFlightPolicyWithTemplate",
      "outputs": [
        {
          "components": [
            {
              "internalType": "uint256",
              "name": "policyId",
              "type": "uint256"
            },
            {
              "components": [
                {
                  "internalType": "string",
                  "name": "templateId",
                  "type": "string"
                },
                {
                  "internalType": "string",
                  "name": "name",
                  "type": "string"
                },
                {
                  "internalType": "string",
                  "name": "description",
                  "type": "string"
                },
                {
                  "internalType": "uint256",
                  "name": "createdAt",
                  "type": "uint256"
                },
                {
                  "internalType": "uint256",
                  "name": "updatedAt",
                  "type": "uint256"
                },
                {
                  "internalType": "uint256",
                  "name": "premium",
                  "type": "uint256"
                },
                {
                  "internalType": "uint256",
                  "name": "payoutPerHour",
                  "type": "uint256"
                },
                {
                  "internalType": "uint256",
                  "name": "delayThresholdHours",
                  "type": "uint256"
                },
                {
                  "internalType": "uint256",
                  "name": "maxTotalPayout",
                  "type": "uint256"
                },
                {
                  "internalType": "uint256",
                  "name": "coverageDurationDays",
                  "type": "uint256"
                },
                {
                  "internalType": "enum FlightPolicy.PolicyTemplateStatus",
                  "name": "status",
                  "type": "uint8"
                }
              ],
              "internalType": "struct FlightPolicy.PolicyTemplate",
              "name": "template",
              "type": "tuple"
            },
            {
              "internalType": "string",
              "name": "flightNumber",
              "type": "string"
            },
            {
              "internalType": "string",
              "name": "departureAirportCode",
              "type": "string"
            },
            {
              "internalType": "string",
              "name": "arrivalAirportCode",
              "type": "string"
            },
            {
              "internalType": "uint256",
              "name": "departureTime",
              "type": "uint256"
            },
            {
              "internalType": "uint256",
              "name": "createdAt",
              "type": "uint256"
            },
            {
              "internalType": "uint256",
              "name": "payoutToDate",
              "type": "uint256"
            },
            {
              "internalType": "address",
              "name": "buyer",
              "type": "address"
            },
            {
              "internalType": "enum FlightPolicy.PolicyStatus",
              "name": "status",
              "type": "uint8"
            }
          ],
          "internalType": "struct FlightPolicy.UserPolicy",
          "name": "policy",
          "type": "tuple"
        },
        {
          "components": [
            {
              "internalType": "string",
              "name": "templateId",
              "type": "string"
            },
            {
              "internalType": "string",
              "name": "name",
              "type": "string"
            },
            {
              "internalType": "string",
              "name": "description",
              "type": "string"
            },
            {
              "internalType": "uint256",
              "name": "createdAt",
              "type": "uint256"
            },
            {
              "internalType": "uint256",
              "name": "updatedAt",
              "type": "uint256"
            },
            {
              "internalType": "uint256",
              "name": "premium",
              "type": "uint256"
            },
            {
              "internalType": "uint256",
              "name": "payoutPerHour",
              "type": "uint256"
            },
            {
              "internalType": "uint256",
              "name": "delayThresholdHours",
              "type": "uint256"
            },
            {
              "internalType": "uint256",
              "name": "maxTotalPayout",
              "type": "uint256"
            },
            {
              "internalType": "uint256",
              "name": "coverageDurationDays",
              "type": "uint256"
            },
            {
              "internalType": "enum FlightPolicy.PolicyTemplateStatus",
              "name": "status",
              "type": "uint8"
            }
          ],
          "internalType": "struct FlightPolicy.PolicyTemplate",
          "name": "template",
          "type": "tuple"
        }
      ],
      "stateMutability": "view",
      "type": "function"
    },
    {
      "inputs": [
        {
          "internalType": "address",
          "name": "user",
          "type": "address"
        }
      ],
      "name": "getUserFlightPolicies",
      "outputs": [
        {
          "components": [
            {
              "internalType": "uint256",
              "name": "policyId",
              "type": "uint256"
            },
            {
              "components": [
                {
                  "internalType": "string",
                  "name": "templateId",
                  "type": "string"
                },
                {
                  "internalType": "string",
                  "name": "name",
                  "type": "string"
                },
                {
                  "internalType": "string",
                  "name": "description",
                  "type": "string"
                },
                {
                  "internalType": "uint256",
                  "name": "createdAt",
                  "type": "uint256"
                },
                {
                  "internalType": "uint256",
                  "name": "updatedAt",
                  "type": "uint256"
                },
                {
                  "internalType": "uint256",
                  "name": "premium",
                  "type": "uint256"
                },
                {
                  "internalType": "uint256",
                  "name": "payoutPerHour",
                  "type": "uint256"
                },
                {
                  "internalType": "uint256",
                  "name": "delayThresholdHours",
                  "type": "uint256"
                },
                {
                  "internalType": "uint256",
                  "name": "maxTotalPayout",
                  "type": "uint256"
                },
                {
                  "internalType": "uint256",
                  "name": "coverageDurationDays",
                  "type": "uint256"
                },
                {
                  "internalType": "enum FlightPolicy.PolicyTemplateStatus",
                  "name": "status",
                  "type": "uint8"
                }
              ],
              "internalType": "struct FlightPolicy.PolicyTemplate",
              "name": "template",
              "type": "tuple"
            },
            {
              "internalType": "string",
              "name": "flightNumber",
              "type": "string"
            },
            {
              "internalType": "string",
              "name": "departureAirportCode",
              "type": "string"
            },
            {
              "internalType": "string",
              "name": "arrivalAirportCode",
              "type": "string"
            },
            {
              "internalType": "uint256",
              "name": "departureTime",
              "type": "uint256"
            },
            {
              "internalType": "uint256",
              "name": "createdAt",
              "type": "uint256"
            },
            {
              "internalType": "uint256",
              "name": "payoutToDate",
              "type": "uint256"
            },
            {
              "internalType": "address",
              "name": "buyer",
              "type": "address"
            },
            {
              "internalType": "enum FlightPolicy.PolicyStatus",
              "name": "status",
              "type": "uint8"
            }
          ],
          "internalType": "struct FlightPolicy.UserPolicy[]",
          "name": "",
          "type": "tuple[]"
        }
      ],
      "stateMutability": "view",
      "type": "function"
    },
    {
      "inputs": [
        {
          "internalType": "string",
          "name": "templateId",
          "type": "string"
        }
      ],
      "name": "getUserPoliciesByTemplate",
      "outputs": [
        {
          "components": [
            {
              "internalType": "uint256",
              "name": "policyId",
              "type": "uint256"
            },
            {
              "components": [
                {
                  "internalType": "string",
                  "name": "templateId",
                  "type": "string"
                },
                {
                  "internalType": "string",
                  "name": "name",
                  "type": "string"
                },
                {
                  "internalType": "string",
                  "name": "description",
                  "type": "string"
                },
                {
                  "internalType": "uint256",
                  "name": "createdAt",
                  "type": "uint256"
                },
                {
                  "internalType": "uint256",
                  "name": "updatedAt",
                  "type": "uint256"
                },
                {
                  "internalType": "uint256",
                  "name": "premium",
                  "type": "uint256"
                },
                {
                  "internalType": "uint256",
                  "name": "payoutPerHour",
                  "type": "uint256"
                },
                {
                  "internalType": "uint256",
                  "name": "delayThresholdHours",
                  "type": "uint256"
                },
                {
                  "internalType": "uint256",
                  "name": "maxTotalPayout",
                  "type": "uint256"
                },
                {
                  "internalType": "uint256",
                  "name": "coverageDurationDays",
                  "type": "uint256"
                },
                {
                  "internalType": "enum FlightPolicy.PolicyTemplateStatus",
                  "name": "status",
                  "type": "uint8"
                }
              ],
              "internalType": "struct FlightPolicy.PolicyTemplate",
              "name": "template",
              "type": "tuple"
            },
            {
              "internalType": "string",
              "name": "flightNumber",
              "type": "string"
            },
            {
              "internalType": "string",
              "name": "departureAirportCode",
              "type": "string"
            },
            {
              "internalType": "string",
              "name": "arrivalAirportCode",
              "type": "string"
            },
            {
              "internalType": "uint256",
              "name": "departureTime",
              "type": "uint256"
            },
            {
              "internalType": "uint256",
              "name": "createdAt",
              "type": "uint256"
            },
            {
              "internalType": "uint256",
              "name": "payoutToDate",
              "type": "uint256"
            },
            {
              "internalType": "address",
              "name": "buyer",
              "type": "address"
            },
            {
              "internalType": "enum FlightPolicy.PolicyStatus",
              "name": "status",
              "type": "uint8"
            }
          ],
          "internalType": "struct FlightPolicy.UserPolicy[]",
          "name": "",
          "type": "tuple[]"
        }
      ],
      "stateMutability": "view",
      "type": "function"
    },
    {
      "inputs": [],
      "name": "insurerAddress",
      "outputs": [
        {
          "internalType": "address",
          "name": "",
          "type": "address"
        }
      ],
      "stateMutability": "view",
      "type": "function"
    },
    {
      "inputs": [
        {
          "internalType": "address",
          "name": "user",
          "type": "address"
        }
      ],
      "name": "isInsurer",
      "outputs": [
        {
          "internalType": "bool",
          "name": "",
          "type": "bool"
        }
      ],
      "stateMutability": "view",
      "type": "function"
    },
    {
      "inputs": [
        {
          "internalType": "uint256",
          "name": "policyId",
          "type": "uint256"
        }
      ],
      "name": "markFlightPolicyAsExpired",
      "outputs": [],
      "stateMutability": "nonpayable",
      "type": "function"
    },
    {
      "inputs": [
        {
          "components": [
            {
              "internalType": "string",
              "name": "templateId",
              "type": "string"
            },
            {
              "internalType": "string",
              "name": "name",
              "type": "string"
            },
            {
              "internalType": "string",
              "name": "description",
              "type": "string"
            },
            {
              "internalType": "uint256",
              "name": "createdAt",
              "type": "uint256"
            },
            {
              "internalType": "uint256",
              "name": "updatedAt",
              "type": "uint256"
            },
            {
              "internalType": "uint256",
              "name": "premium",
              "type": "uint256"
            },
            {
              "internalType": "uint256",
              "name": "payoutPerHour",
              "type": "uint256"
            },
            {
              "internalType": "uint256",
              "name": "delayThresholdHours",
              "type": "uint256"
            },
            {
              "internalType": "uint256",
              "name": "maxTotalPayout",
              "type": "uint256"
            },
            {
              "internalType": "uint256",
              "name": "coverageDurationDays",
              "type": "uint256"
            },
            {
              "internalType": "enum FlightPolicy.PolicyTemplateStatus",
              "name": "status",
              "type": "uint8"
            }
          ],
          "internalType": "struct FlightPolicy.PolicyTemplate",
          "name": "template",
          "type": "tuple"
        },
        {
          "internalType": "string",
          "name": "flightNumber",
          "type": "string"
        },
        {
          "internalType": "string",
          "name": "departureAirportCode",
          "type": "string"
        },
        {
          "internalType": "string",
          "name": "arrivalAirportCode",
          "type": "string"
        },
        {
          "internalType": "uint256",
          "name": "departureTime",
          "type": "uint256"
        }
      ],
      "name": "purchaseFlightPolicy",
      "outputs": [],
      "stateMutability": "payable",
      "type": "function"
    },
    {
      "inputs": [
        {
          "internalType": "uint256",
          "name": "amountInWei",
          "type": "uint256"
        }
      ],
      "name": "withdraw",
      "outputs": [],
      "stateMutability": "nonpayable",
      "type": "function"
    },
    {
      "stateMutability": "payable",
      "type": "receive"
    }
  ],
  "bytecode": "0x60a06040523480156200001157600080fd5b50604051620025613803806200256183398181016040528101906200003791906200011c565b3373ffffffffffffffffffffffffffffffffffffffff1660808173ffffffffffffffffffffffffffffffffffffffff1681525050806000806101000a81548173ffffffffffffffffffffffffffffffffffffffff021916908373ffffffffffffffffffffffffffffffffffffffff160217905550506200014e565b600080fd5b600073ffffffffffffffffffffffffffffffffffffffff82169050919050565b6000620000e482620000b7565b9050919050565b620000f681620000d7565b81146200010257600080fd5b50565b6000815190506200011681620000eb565b92915050565b600060208284031215620001355762000134620000b2565b5b6000620001458482850162000105565b91505092915050565b6080516123b8620001a96000396000818161040e015281816104df01528181610546015281816105b9015281816106e0015281816107fe01528181610a4c01528181610b1801528181610be90152610c5b01526123b86000f3fe6080604052600436106100c65760003560e01c80638350e5781161007f578063b715521b11610059578063b715521b14610252578063d0e30db01461028f578063da7897e214610299578063f05e5b62146102d6576100cd565b80638350e578146101ce5780639c6cf7ef146101ea578063a7c0900e14610227576100cd565b806307116510146100d2578063260d47c5146100fd5780632e1a7d4d146101265780634dd7b2a81461014f5780636906496e1461017a5780636f9fb98a146101a3576100cd565b366100cd57005b600080fd5b3480156100de57600080fd5b506100e7610314565b6040516100f49190610ed7565b60405180910390f35b34801561010957600080fd5b50610124600480360381019061011f9190610f3c565b610338565b005b34801561013257600080fd5b5061014d60048036038101906101489190610f3c565b61040c565b005b34801561015b57600080fd5b506101646105b5565b6040516101719190611396565b60405180910390f35b34801561018657600080fd5b506101a1600480360381019061019c9190610f3c565b6106de565b005b3480156101af57600080fd5b506101b86107fa565b6040516101c591906113c7565b60405180910390f35b6101e860048036038101906101e391906116a6565b610890565b005b3480156101f657600080fd5b50610211600480360381019061020c9190611791565b6109a2565b60405161021e9190611396565b60405180910390f35b34801561023357600080fd5b5061023c610a4a565b60405161024991906117e9565b60405180910390f35b34801561025e57600080fd5b5061027960048036038101906102749190611830565b610a6e565b6040516102869190611396565b60405180910390f35b610297610b16565b005b3480156102a557600080fd5b506102c060048036038101906102bb9190611830565b610c57565b6040516102cd9190611878565b60405180910390f35b3480156102e257600080fd5b506102fd60048036038101906102f89190611893565b610caf565b60405161030b929190611abf565b60405180910390f35b60008054906101000a900473ffffffffffffffffffffffffffffffffffffffff1681565b60008054906101000a900473ffffffffffffffffffffffffffffffffffffffff1673ffffffffffffffffffffffffffffffffffffffff1663b0110cc682336040518363ffffffff1660e01b8152600401610393929190611af6565b600060405180830381600087803b1580156103ad57600080fd5b505af11580156103c1573d6000803e3d6000fd5b50505050803373ffffffffffffffffffffffffffffffffffffffff167fd97fa6902eb91d71aea44cc906baaea3f41dab00c2f987da7f9d97b28172d40660405160405180910390a350565b7f000000000000000000000000000000000000000000000000000000000000000073ffffffffffffffffffffffffffffffffffffffff163373ffffffffffffffffffffffffffffffffffffffff161461049a576040517f08c379a000000000000000000000000000000000000000000000000000000000815260040161049190611ba2565b60405180910390fd5b804710156104dd576040517f08c379a00000000000000000000000000000000000000000000000000000000081526004016104d490611c0e565b60405180910390fd5b7f000000000000000000000000000000000000000000000000000000000000000073ffffffffffffffffffffffffffffffffffffffff166108fc829081150290604051600060405180830381858888f19350505050158015610543573d6000803e3d6000fd5b507f000000000000000000000000000000000000000000000000000000000000000073ffffffffffffffffffffffffffffffffffffffff167feaff4b37086828766ad3268786972c0cd24259d4c87a80f9d3963a3c3d999b0d826040516105aa91906113c7565b60405180910390a250565b60607f000000000000000000000000000000000000000000000000000000000000000073ffffffffffffffffffffffffffffffffffffffff163373ffffffffffffffffffffffffffffffffffffffff1614610645576040517f08c379a000000000000000000000000000000000000000000000000000000000815260040161063c90611ba2565b60405180910390fd5b60008054906101000a900473ffffffffffffffffffffffffffffffffffffffff1673ffffffffffffffffffffffffffffffffffffffff1663457e55216040518163ffffffff1660e01b8152600401600060405180830381865afa1580156106b0573d6000803e3d6000fd5b505050506040513d6000823e3d601f19601f820116820180604052508101906106d991906120ae565b905090565b7f000000000000000000000000000000000000000000000000000000000000000073ffffffffffffffffffffffffffffffffffffffff163373ffffffffffffffffffffffffffffffffffffffff161461076c576040517f08c379a000000000000000000000000000000000000000000000000000000000815260040161076390611ba2565b60405180910390fd5b60008054906101000a900473ffffffffffffffffffffffffffffffffffffffff1673ffffffffffffffffffffffffffffffffffffffff1663cf39c624826040518263ffffffff1660e01b81526004016107c591906113c7565b600060405180830381600087803b1580156107df57600080fd5b505af11580156107f3573d6000803e3d6000fd5b5050505050565b60007f000000000000000000000000000000000000000000000000000000000000000073ffffffffffffffffffffffffffffffffffffffff163373ffffffffffffffffffffffffffffffffffffffff161461088a576040517f08c379a000000000000000000000000000000000000000000000000000000000815260040161088190611ba2565b60405180910390fd5b47905090565b60008060009054906101000a900473ffffffffffffffffffffffffffffffffffffffff1673ffffffffffffffffffffffffffffffffffffffff166331953ecc348888888888336040518863ffffffff1660e01b81526004016108f796959493929190612130565b60206040518083038185885af1158015610915573d6000803e3d6000fd5b50505050506040513d601f19601f8201168201806040525081019061093a91906121ad565b9050856000015160405161094e9190612216565b6040518091039020813373ffffffffffffffffffffffffffffffffffffffff167f43617ea01c45d3386d7be4a6cb66bf94c0152a674cbd34a5de81ed135dfd7b1760405160405180910390a4505050505050565b606060008054906101000a900473ffffffffffffffffffffffffffffffffffffffff1673ffffffffffffffffffffffffffffffffffffffff16639c6cf7ef836040518263ffffffff1660e01b81526004016109fd919061222d565b600060405180830381865afa158015610a1a573d6000803e3d6000fd5b505050506040513d6000823e3d601f19601f82011682018060405250810190610a4391906120ae565b9050919050565b7f000000000000000000000000000000000000000000000000000000000000000081565b606060008054906101000a900473ffffffffffffffffffffffffffffffffffffffff1673ffffffffffffffffffffffffffffffffffffffff166319ac4614836040518263ffffffff1660e01b8152600401610ac991906117e9565b600060405180830381865afa158015610ae6573d6000803e3d6000fd5b505050506040513d6000823e3d601f19601f82011682018060405250810190610b0f91906120ae565b9050919050565b7f000000000000000000000000000000000000000000000000000000000000000073ffffffffffffffffffffffffffffffffffffffff163373ffffffffffffffffffffffffffffffffffffffff1614610ba4576040517f08c379a0000000000000000000000000000000000000000000000000000000008152600401610b9b90611ba2565b60405180910390fd5b60003411610be7576040517f08c379a0000000000000000000000000000000000000000000000000000000008152600401610bde906122c1565b60405180910390fd5b7f000000000000000000000000000000000000000000000000000000000000000073ffffffffffffffffffffffffffffffffffffffff167f543ba50a5eec5e6178218e364b1d0f396157b3c8fa278522c2cb7fd99407d47434604051610c4d91906113c7565b60405180910390a2565b60007f000000000000000000000000000000000000000000000000000000000000000073ffffffffffffffffffffffffffffffffffffffff168273ffffffffffffffffffffffffffffffffffffffff16149050919050565b610cb7610d6b565b610cbf610dec565b60008054906101000a900473ffffffffffffffffffffffffffffffffffffffff1673ffffffffffffffffffffffffffffffffffffffff166313e896b685856040518363ffffffff1660e01b8152600401610d1a9291906122e1565b600060405180830381865afa158015610d37573d6000803e3d6000fd5b505050506040513d6000823e3d601f19601f82011682018060405250810190610d60919061230a565b915091509250929050565b60405180610140016040528060008152602001610d86610dec565b8152602001606081526020016060815260200160608152602001600081526020016000815260200160008152602001600073ffffffffffffffffffffffffffffffffffffffff16815260200160006002811115610de657610de5611034565b5b81525090565b6040518061016001604052806060815260200160608152602001606081526020016000815260200160008152602001600081526020016000815260200160008152602001600081526020016000815260200160006001811115610e5257610e51611034565b5b81525090565b600073ffffffffffffffffffffffffffffffffffffffff82169050919050565b6000819050919050565b6000610e9d610e98610e9384610e58565b610e78565b610e58565b9050919050565b6000610eaf82610e82565b9050919050565b6000610ec182610ea4565b9050919050565b610ed181610eb6565b82525050565b6000602082019050610eec6000830184610ec8565b92915050565b6000604051905090565b600080fd5b600080fd5b6000819050919050565b610f1981610f06565b8114610f2457600080fd5b50565b600081359050610f3681610f10565b92915050565b600060208284031215610f5257610f51610efc565b5b6000610f6084828501610f27565b91505092915050565b600081519050919050565b600082825260208201905092915050565b6000819050602082019050919050565b610f9e81610f06565b82525050565b600081519050919050565b600082825260208201905092915050565b60005b83811015610fde578082015181840152602081019050610fc3565b60008484015250505050565b6000601f19601f8301169050919050565b600061100682610fa4565b6110108185610faf565b9350611020818560208601610fc0565b61102981610fea565b840191505092915050565b7f4e487b7100000000000000000000000000000000000000000000000000000000600052602160045260246000fd5b6002811061107457611073611034565b5b50565b600081905061108582611063565b919050565b600061109582611077565b9050919050565b6110a58161108a565b82525050565b60006101608301600083015184820360008601526110c98282610ffb565b915050602083015184820360208601526110e38282610ffb565b915050604083015184820360408601526110fd8282610ffb565b91505060608301516111126060860182610f95565b5060808301516111256080860182610f95565b5060a083015161113860a0860182610f95565b5060c083015161114b60c0860182610f95565b5060e083015161115e60e0860182610f95565b50610100830151611173610100860182610f95565b50610120830151611188610120860182610f95565b5061014083015161119d61014086018261109c565b508091505092915050565b60006111b382610e58565b9050919050565b6111c3816111a8565b82525050565b600381106111da576111d9611034565b5b50565b60008190506111eb826111c9565b919050565b60006111fb826111dd565b9050919050565b61120b816111f0565b82525050565b60006101408301600083015161122a6000860182610f95565b506020830151848203602086015261124282826110ab565b9150506040830151848203604086015261125c8282610ffb565b915050606083015184820360608601526112768282610ffb565b915050608083015184820360808601526112908282610ffb565b91505060a08301516112a560a0860182610f95565b5060c08301516112b860c0860182610f95565b5060e08301516112cb60e0860182610f95565b506101008301516112e06101008601826111ba565b506101208301516112f5610120860182611202565b508091505092915050565b600061130c8383611211565b905092915050565b6000602082019050919050565b600061132c82610f69565b6113368185610f74565b93508360208202850161134885610f85565b8060005b8581101561138457848403895281516113658582611300565b945061137083611314565b925060208a0199505060018101905061134c565b50829750879550505050505092915050565b600060208201905081810360008301526113b08184611321565b905092915050565b6113c181610f06565b82525050565b60006020820190506113dc60008301846113b8565b92915050565b600080fd5b7f4e487b7100000000000000000000000000000000000000000000000000000000600052604160045260246000fd5b61141f82610fea565b810181811067ffffffffffffffff8211171561143e5761143d6113e7565b5b80604052505050565b6000611451610ef2565b905061145d8282611416565b919050565b600080fd5b600080fd5b600080fd5b600067ffffffffffffffff82111561148c5761148b6113e7565b5b61149582610fea565b9050602081019050919050565b82818337600083830152505050565b60006114c46114bf84611471565b611447565b9050828152602081018484840111156114e0576114df61146c565b5b6114eb8482856114a2565b509392505050565b600082601f83011261150857611507611467565b5b81356115188482602086016114b1565b91505092915050565b6002811061152e57600080fd5b50565b60008135905061154081611521565b92915050565b6000610160828403121561155d5761155c6113e2565b5b611568610160611447565b9050600082013567ffffffffffffffff81111561158857611587611462565b5b611594848285016114f3565b600083015250602082013567ffffffffffffffff8111156115b8576115b7611462565b5b6115c4848285016114f3565b602083015250604082013567ffffffffffffffff8111156115e8576115e7611462565b5b6115f4848285016114f3565b604083015250606061160884828501610f27565b606083015250608061161c84828501610f27565b60808301525060a061163084828501610f27565b60a08301525060c061164484828501610f27565b60c08301525060e061165884828501610f27565b60e08301525061010061166d84828501610f27565b6101008301525061012061168384828501610f27565b6101208301525061014061169984828501611531565b6101408301525092915050565b600080600080600060a086880312156116c2576116c1610efc565b5b600086013567ffffffffffffffff8111156116e0576116df610f01565b5b6116ec88828901611546565b955050602086013567ffffffffffffffff81111561170d5761170c610f01565b5b611719888289016114f3565b945050604086013567ffffffffffffffff81111561173a57611739610f01565b5b611746888289016114f3565b935050606086013567ffffffffffffffff81111561176757611766610f01565b5b611773888289016114f3565b925050608061178488828901610f27565b9150509295509295909350565b6000602082840312156117a7576117a6610efc565b5b600082013567ffffffffffffffff8111156117c5576117c4610f01565b5b6117d1848285016114f3565b91505092915050565b6117e3816111a8565b82525050565b60006020820190506117fe60008301846117da565b92915050565b61180d816111a8565b811461181857600080fd5b50565b60008135905061182a81611804565b92915050565b60006020828403121561184657611845610efc565b5b60006118548482850161181b565b91505092915050565b60008115159050919050565b6118728161185d565b82525050565b600060208201905061188d6000830184611869565b92915050565b600080604083850312156118aa576118a9610efc565b5b60006118b88582860161181b565b92505060206118c985828601610f27565b9150509250929050565b6000610140830160008301516118ec6000860182610f95565b506020830151848203602086015261190482826110ab565b9150506040830151848203604086015261191e8282610ffb565b915050606083015184820360608601526119388282610ffb565b915050608083015184820360808601526119528282610ffb565b91505060a083015161196760a0860182610f95565b5060c083015161197a60c0860182610f95565b5060e083015161198d60e0860182610f95565b506101008301516119a26101008601826111ba565b506101208301516119b7610120860182611202565b508091505092915050565b60006101608301600083015184820360008601526119e08282610ffb565b915050602083015184820360208601526119fa8282610ffb565b91505060408301518482036040860152611a148282610ffb565b9150506060830151611a296060860182610f95565b506080830151611a3c6080860182610f95565b5060a0830151611a4f60a0860182610f95565b5060c0830151611a6260c0860182610f95565b5060e0830151611a7560e0860182610f95565b50610100830151611a8a610100860182610f95565b50610120830151611a9f610120860182610f95565b50610140830151611ab461014086018261109c565b508091505092915050565b60006040820190508181036000830152611ad981856118d3565b90508181036020830152611aed81846119c2565b90509392505050565b6000604082019050611b0b60008301856113b8565b611b1860208301846117da565b9392505050565b600082825260208201905092915050565b7f496e73757265723a204f6e6c792074686520696e73757265722063616e20636160008201527f6c6c207468697300000000000000000000000000000000000000000000000000602082015250565b6000611b8c602783611b1f565b9150611b9782611b30565b604082019050919050565b60006020820190508181036000830152611bbb81611b7f565b9050919050565b7f496e73756666696369656e742062616c616e6365000000000000000000000000600082015250565b6000611bf8601483611b1f565b9150611c0382611bc2565b602082019050919050565b60006020820190508181036000830152611c2781611beb565b9050919050565b600067ffffffffffffffff821115611c4957611c486113e7565b5b602082029050602081019050919050565b600080fd5b600081519050611c6e81610f10565b92915050565b6000611c87611c8284611471565b611447565b905082815260208101848484011115611ca357611ca261146c565b5b611cae848285610fc0565b509392505050565b600082601f830112611ccb57611cca611467565b5b8151611cdb848260208601611c74565b91505092915050565b600081519050611cf381611521565b92915050565b60006101608284031215611d1057611d0f6113e2565b5b611d1b610160611447565b9050600082015167ffffffffffffffff811115611d3b57611d3a611462565b5b611d4784828501611cb6565b600083015250602082015167ffffffffffffffff811115611d6b57611d6a611462565b5b611d7784828501611cb6565b602083015250604082015167ffffffffffffffff811115611d9b57611d9a611462565b5b611da784828501611cb6565b6040830152506060611dbb84828501611c5f565b6060830152506080611dcf84828501611c5f565b60808301525060a0611de384828501611c5f565b60a08301525060c0611df784828501611c5f565b60c08301525060e0611e0b84828501611c5f565b60e083015250610100611e2084828501611c5f565b61010083015250610120611e3684828501611c5f565b61012083015250610140611e4c84828501611ce4565b6101408301525092915050565b600081519050611e6881611804565b92915050565b60038110611e7b57600080fd5b50565b600081519050611e8d81611e6e565b92915050565b60006101408284031215611eaa57611ea96113e2565b5b611eb5610140611447565b90506000611ec584828501611c5f565b600083015250602082015167ffffffffffffffff811115611ee957611ee8611462565b5b611ef584828501611cf9565b602083015250604082015167ffffffffffffffff811115611f1957611f18611462565b5b611f2584828501611cb6565b604083015250606082015167ffffffffffffffff811115611f4957611f48611462565b5b611f5584828501611cb6565b606083015250608082015167ffffffffffffffff811115611f7957611f78611462565b5b611f8584828501611cb6565b60808301525060a0611f9984828501611c5f565b60a08301525060c0611fad84828501611c5f565b60c08301525060e0611fc184828501611c5f565b60e083015250610100611fd684828501611e59565b61010083015250610120611fec84828501611e7e565b6101208301525092915050565b600061200c61200784611c2e565b611447565b9050808382526020820190506020840283018581111561202f5761202e611c5a565b5b835b8181101561207657805167ffffffffffffffff81111561205457612053611467565b5b8086016120618982611e93565b85526020850194505050602081019050612031565b5050509392505050565b600082601f83011261209557612094611467565b5b81516120a5848260208601611ff9565b91505092915050565b6000602082840312156120c4576120c3610efc565b5b600082015167ffffffffffffffff8111156120e2576120e1610f01565b5b6120ee84828501612080565b91505092915050565b600061210282610fa4565b61210c8185611b1f565b935061211c818560208601610fc0565b61212581610fea565b840191505092915050565b600060c082019050818103600083015261214a81896119c2565b9050818103602083015261215e81886120f7565b9050818103604083015261217281876120f7565b9050818103606083015261218681866120f7565b905061219560808301856113b8565b6121a260a08301846117da565b979650505050505050565b6000602082840312156121c3576121c2610efc565b5b60006121d184828501611c5f565b91505092915050565b600081905092915050565b60006121f082610fa4565b6121fa81856121da565b935061220a818560208601610fc0565b80840191505092915050565b600061222282846121e5565b915081905092915050565b6000602082019050818103600083015261224781846120f7565b905092915050565b7f496e73757265723a204d757374206465706f736974206120706f73697469766560008201527f20616d6f756e7400000000000000000000000000000000000000000000000000602082015250565b60006122ab602783611b1f565b91506122b68261224f565b604082019050919050565b600060208201905081810360008301526122da8161229e565b9050919050565b60006040820190506122f660008301856117da565b61230360208301846113b8565b9392505050565b6000806040838503121561232157612320610efc565b5b600083015167ffffffffffffffff81111561233f5761233e610f01565b5b61234b85828601611e93565b925050602083015167ffffffffffffffff81111561236c5761236b610f01565b5b61237885828601611cf9565b915050925092905056fea26469706673582212204c517f7c52289f79ebfbf976aa75496b9ba7d31bfcc4ae900007ed23c801de7964736f6c63430008130033",
  "linkReferences": {},
  "deployedLinkReferences": {}
}