{
  "_format": "hh-sol-artifact-1",
  "contractName": "Insurer",
  "sourceName": "contracts/Insurer.sol",
  "abi": [
    {
      "inputs": [
        {
          "internalType": "address",
          "name": "_flightPolicyAddress",
          "type": "address"
        },
        {
          "internalType": "address",
          "name": "_baggagePolicyAddress",
          "type": "address"
        }
      ],
      "stateMutability": "nonpayable",
      "type": "constructor"
    },
    {
      "anonymous": false,
      "inputs": [
        {
          "indexed": true,
          "internalType": "address",
          "name": "buyer",
          "type": "address"
        },
        {
          "indexed": true,
          "internalType": "uint256",
          "name": "policyId",
          "type": "uint256"
        }
      ],
      "name": "BaggagePolicyClaimed",
      "type": "event"
    },
    {
      "anonymous": false,
      "inputs": [
        {
          "indexed": true,
          "internalType": "address",
          "name": "buyer",
          "type": "address"
        },
        {
          "indexed": true,
          "internalType": "uint256",
          "name": "policyId",
          "type": "uint256"
        },
        {
          "indexed": true,
          "internalType": "string",
          "name": "templateId",
          "type": "string"
        }
      ],
      "name": "BaggagePolicyPurchased",
      "type": "event"
    },
    {
      "anonymous": false,
      "inputs": [
        {
          "indexed": true,
          "internalType": "address",
          "name": "buyer",
          "type": "address"
        },
        {
          "indexed": true,
          "internalType": "uint256",
          "name": "policyId",
          "type": "uint256"
        }
      ],
      "name": "FlightPolicyClaimed",
      "type": "event"
    },
    {
      "anonymous": false,
      "inputs": [
        {
          "indexed": true,
          "internalType": "address",
          "name": "buyer",
          "type": "address"
        },
        {
          "indexed": true,
          "internalType": "uint256",
          "name": "policyId",
          "type": "uint256"
        },
        {
          "indexed": true,
          "internalType": "string",
          "name": "templateId",
          "type": "string"
        }
      ],
      "name": "FlightPolicyPurchased",
      "type": "event"
    },
    {
      "anonymous": false,
      "inputs": [
        {
          "indexed": true,
          "internalType": "address",
          "name": "insurer",
          "type": "address"
        },
        {
          "indexed": false,
          "internalType": "uint256",
          "name": "amount",
          "type": "uint256"
        }
      ],
      "name": "FundsDeposited",
      "type": "event"
    },
    {
      "anonymous": false,
      "inputs": [
        {
          "indexed": true,
          "internalType": "address",
          "name": "insurer",
          "type": "address"
        },
        {
          "indexed": false,
          "internalType": "uint256",
          "name": "amount",
          "type": "uint256"
        }
      ],
      "name": "FundsWithdrawn",
      "type": "event"
    },
    {
      "inputs": [],
      "name": "baggagePolicy",
      "outputs": [
        {
          "internalType": "contract BaggagePolicy",
          "name": "",
          "type": "address"
        }
      ],
      "stateMutability": "view",
      "type": "function"
    },
    {
      "inputs": [
        {
          "internalType": "uint256",
          "name": "policyId",
          "type": "uint256"
        }
      ],
      "name": "claimFlightPayout",
      "outputs": [],
      "stateMutability": "nonpayable",
      "type": "function"
    },
    {
      "inputs": [],
      "name": "deposit",
      "outputs": [],
      "stateMutability": "payable",
      "type": "function"
    },
    {
      "inputs": [],
      "name": "flightPolicy",
      "outputs": [
        {
          "internalType": "contract FlightPolicy",
          "name": "",
          "type": "address"
        }
      ],
      "stateMutability": "view",
      "type": "function"
    },
    {
      "inputs": [],
      "name": "getAllBaggagePolicies",
      "outputs": [
        {
          "components": [
            {
              "internalType": "uint256",
              "name": "policyId",
              "type": "uint256"
            },
            {
              "components": [
                {
                  "internalType": "string",
                  "name": "templateId",
                  "type": "string"
                },
                {
                  "internalType": "string",
                  "name": "name",
                  "type": "string"
                },
                {
                  "internalType": "string",
                  "name": "description",
                  "type": "string"
                },
                {
                  "internalType": "uint256",
                  "name": "createdAt",
                  "type": "uint256"
                },
                {
                  "internalType": "uint256",
                  "name": "updatedAt",
                  "type": "uint256"
                },
                {
                  "internalType": "uint256",
                  "name": "premium",
                  "type": "uint256"
                },
                {
                  "internalType": "uint256",
                  "name": "payoutIfDelayed",
                  "type": "uint256"
                },
                {
                  "internalType": "uint256",
                  "name": "payoutIfLost",
                  "type": "uint256"
                },
                {
                  "internalType": "uint256",
                  "name": "maxTotalPayout",
                  "type": "uint256"
                },
                {
                  "internalType": "uint256",
                  "name": "coverageDurationDays",
                  "type": "uint256"
                },
                {
                  "internalType": "enum BaggagePolicy.PolicyTemplateStatus",
                  "name": "status",
                  "type": "uint8"
                }
              ],
              "internalType": "struct BaggagePolicy.PolicyTemplate",
              "name": "template",
              "type": "tuple"
            },
            {
              "internalType": "string",
              "name": "itemDescription",
              "type": "string"
            },
            {
              "internalType": "uint256",
              "name": "createdAt",
              "type": "uint256"
            },
            {
              "internalType": "uint256",
              "name": "payoutToDate",
              "type": "uint256"
            },
            {
              "internalType": "address",
              "name": "buyer",
              "type": "address"
            },
            {
              "internalType": "enum BaggagePolicy.PolicyStatus",
              "name": "status",
              "type": "uint8"
            }
          ],
          "internalType": "struct BaggagePolicy.UserPolicy[]",
          "name": "",
          "type": "tuple[]"
        }
      ],
      "stateMutability": "view",
      "type": "function"
    },
    {
      "inputs": [],
      "name": "getAllFlightPolicies",
      "outputs": [
        {
          "components": [
            {
              "internalType": "uint256",
              "name": "policyId",
              "type": "uint256"
            },
            {
              "components": [
                {
                  "internalType": "string",
                  "name": "templateId",
                  "type": "string"
                },
                {
                  "internalType": "string",
                  "name": "name",
                  "type": "string"
                },
                {
                  "internalType": "string",
                  "name": "description",
                  "type": "string"
                },
                {
                  "internalType": "uint256",
                  "name": "createdAt",
                  "type": "uint256"
                },
                {
                  "internalType": "uint256",
                  "name": "updatedAt",
                  "type": "uint256"
                },
                {
                  "internalType": "uint256",
                  "name": "premium",
                  "type": "uint256"
                },
                {
                  "internalType": "uint256",
                  "name": "payoutPerHour",
                  "type": "uint256"
                },
                {
                  "internalType": "uint256",
                  "name": "delayThresholdHours",
                  "type": "uint256"
                },
                {
                  "internalType": "uint256",
                  "name": "maxTotalPayout",
                  "type": "uint256"
                },
                {
                  "internalType": "uint256",
                  "name": "coverageDurationDays",
                  "type": "uint256"
                },
                {
                  "internalType": "enum FlightPolicy.PolicyTemplateStatus",
                  "name": "status",
                  "type": "uint8"
                }
              ],
              "internalType": "struct FlightPolicy.PolicyTemplate",
              "name": "template",
              "type": "tuple"
            },
            {
              "internalType": "string",
              "name": "flightNumber",
              "type": "string"
            },
            {
              "internalType": "string",
              "name": "departureAirportCode",
              "type": "string"
            },
            {
              "internalType": "string",
              "name": "arrivalAirportCode",
              "type": "string"
            },
            {
              "internalType": "uint256",
              "name": "departureTime",
              "type": "uint256"
            },
            {
              "internalType": "uint256",
              "name": "createdAt",
              "type": "uint256"
            },
            {
              "internalType": "uint256",
              "name": "payoutToDate",
              "type": "uint256"
            },
            {
              "internalType": "address",
              "name": "buyer",
              "type": "address"
            },
            {
              "internalType": "enum FlightPolicy.PolicyStatus",
              "name": "status",
              "type": "uint8"
            }
          ],
          "internalType": "struct FlightPolicy.UserPolicy[]",
          "name": "",
          "type": "tuple[]"
        }
      ],
      "stateMutability": "view",
      "type": "function"
    },
    {
      "inputs": [],
      "name": "getContractBalance",
      "outputs": [
        {
          "internalType": "uint256",
          "name": "",
          "type": "uint256"
        }
      ],
      "stateMutability": "view",
      "type": "function"
    },
    {
      "inputs": [
        {
          "internalType": "address",
          "name": "user",
          "type": "address"
        }
      ],
      "name": "getUserBaggagePolicies",
      "outputs": [
        {
          "components": [
            {
              "internalType": "uint256",
              "name": "policyId",
              "type": "uint256"
            },
            {
              "components": [
                {
                  "internalType": "string",
                  "name": "templateId",
                  "type": "string"
                },
                {
                  "internalType": "string",
                  "name": "name",
                  "type": "string"
                },
                {
                  "internalType": "string",
                  "name": "description",
                  "type": "string"
                },
                {
                  "internalType": "uint256",
                  "name": "createdAt",
                  "type": "uint256"
                },
                {
                  "internalType": "uint256",
                  "name": "updatedAt",
                  "type": "uint256"
                },
                {
                  "internalType": "uint256",
                  "name": "premium",
                  "type": "uint256"
                },
                {
                  "internalType": "uint256",
                  "name": "payoutIfDelayed",
                  "type": "uint256"
                },
                {
                  "internalType": "uint256",
                  "name": "payoutIfLost",
                  "type": "uint256"
                },
                {
                  "internalType": "uint256",
                  "name": "maxTotalPayout",
                  "type": "uint256"
                },
                {
                  "internalType": "uint256",
                  "name": "coverageDurationDays",
                  "type": "uint256"
                },
                {
                  "internalType": "enum BaggagePolicy.PolicyTemplateStatus",
                  "name": "status",
                  "type": "uint8"
                }
              ],
              "internalType": "struct BaggagePolicy.PolicyTemplate",
              "name": "template",
              "type": "tuple"
            },
            {
              "internalType": "string",
              "name": "itemDescription",
              "type": "string"
            },
            {
              "internalType": "uint256",
              "name": "createdAt",
              "type": "uint256"
            },
            {
              "internalType": "uint256",
              "name": "payoutToDate",
              "type": "uint256"
            },
            {
              "internalType": "address",
              "name": "buyer",
              "type": "address"
            },
            {
              "internalType": "enum BaggagePolicy.PolicyStatus",
              "name": "status",
              "type": "uint8"
            }
          ],
          "internalType": "struct BaggagePolicy.UserPolicy[]",
          "name": "",
          "type": "tuple[]"
        }
      ],
      "stateMutability": "view",
      "type": "function"
    },
    {
      "inputs": [
        {
          "internalType": "string",
          "name": "templateId",
          "type": "string"
        }
      ],
      "name": "getUserBaggagePoliciesByTemplate",
      "outputs": [
        {
          "components": [
            {
              "internalType": "uint256",
              "name": "policyId",
              "type": "uint256"
            },
            {
              "components": [
                {
                  "internalType": "string",
                  "name": "templateId",
                  "type": "string"
                },
                {
                  "internalType": "string",
                  "name": "name",
                  "type": "string"
                },
                {
                  "internalType": "string",
                  "name": "description",
                  "type": "string"
                },
                {
                  "internalType": "uint256",
                  "name": "createdAt",
                  "type": "uint256"
                },
                {
                  "internalType": "uint256",
                  "name": "updatedAt",
                  "type": "uint256"
                },
                {
                  "internalType": "uint256",
                  "name": "premium",
                  "type": "uint256"
                },
                {
                  "internalType": "uint256",
                  "name": "payoutIfDelayed",
                  "type": "uint256"
                },
                {
                  "internalType": "uint256",
                  "name": "payoutIfLost",
                  "type": "uint256"
                },
                {
                  "internalType": "uint256",
                  "name": "maxTotalPayout",
                  "type": "uint256"
                },
                {
                  "internalType": "uint256",
                  "name": "coverageDurationDays",
                  "type": "uint256"
                },
                {
                  "internalType": "enum BaggagePolicy.PolicyTemplateStatus",
                  "name": "status",
                  "type": "uint8"
                }
              ],
              "internalType": "struct BaggagePolicy.PolicyTemplate",
              "name": "template",
              "type": "tuple"
            },
            {
              "internalType": "string",
              "name": "itemDescription",
              "type": "string"
            },
            {
              "internalType": "uint256",
              "name": "createdAt",
              "type": "uint256"
            },
            {
              "internalType": "uint256",
              "name": "payoutToDate",
              "type": "uint256"
            },
            {
              "internalType": "address",
              "name": "buyer",
              "type": "address"
            },
            {
              "internalType": "enum BaggagePolicy.PolicyStatus",
              "name": "status",
              "type": "uint8"
            }
          ],
          "internalType": "struct BaggagePolicy.UserPolicy[]",
          "name": "",
          "type": "tuple[]"
        }
      ],
      "stateMutability": "view",
      "type": "function"
    },
    {
      "inputs": [
        {
          "internalType": "address",
          "name": "user",
          "type": "address"
        }
      ],
      "name": "getUserFlightPolicies",
      "outputs": [
        {
          "components": [
            {
              "internalType": "uint256",
              "name": "policyId",
              "type": "uint256"
            },
            {
              "components": [
                {
                  "internalType": "string",
                  "name": "templateId",
                  "type": "string"
                },
                {
                  "internalType": "string",
                  "name": "name",
                  "type": "string"
                },
                {
                  "internalType": "string",
                  "name": "description",
                  "type": "string"
                },
                {
                  "internalType": "uint256",
                  "name": "createdAt",
                  "type": "uint256"
                },
                {
                  "internalType": "uint256",
                  "name": "updatedAt",
                  "type": "uint256"
                },
                {
                  "internalType": "uint256",
                  "name": "premium",
                  "type": "uint256"
                },
                {
                  "internalType": "uint256",
                  "name": "payoutPerHour",
                  "type": "uint256"
                },
                {
                  "internalType": "uint256",
                  "name": "delayThresholdHours",
                  "type": "uint256"
                },
                {
                  "internalType": "uint256",
                  "name": "maxTotalPayout",
                  "type": "uint256"
                },
                {
                  "internalType": "uint256",
                  "name": "coverageDurationDays",
                  "type": "uint256"
                },
                {
                  "internalType": "enum FlightPolicy.PolicyTemplateStatus",
                  "name": "status",
                  "type": "uint8"
                }
              ],
              "internalType": "struct FlightPolicy.PolicyTemplate",
              "name": "template",
              "type": "tuple"
            },
            {
              "internalType": "string",
              "name": "flightNumber",
              "type": "string"
            },
            {
              "internalType": "string",
              "name": "departureAirportCode",
              "type": "string"
            },
            {
              "internalType": "string",
              "name": "arrivalAirportCode",
              "type": "string"
            },
            {
              "internalType": "uint256",
              "name": "departureTime",
              "type": "uint256"
            },
            {
              "internalType": "uint256",
              "name": "createdAt",
              "type": "uint256"
            },
            {
              "internalType": "uint256",
              "name": "payoutToDate",
              "type": "uint256"
            },
            {
              "internalType": "address",
              "name": "buyer",
              "type": "address"
            },
            {
              "internalType": "enum FlightPolicy.PolicyStatus",
              "name": "status",
              "type": "uint8"
            }
          ],
          "internalType": "struct FlightPolicy.UserPolicy[]",
          "name": "",
          "type": "tuple[]"
        }
      ],
      "stateMutability": "view",
      "type": "function"
    },
    {
      "inputs": [
        {
          "internalType": "string",
          "name": "templateId",
          "type": "string"
        }
      ],
      "name": "getUserFlightPoliciesByTemplate",
      "outputs": [
        {
          "components": [
            {
              "internalType": "uint256",
              "name": "policyId",
              "type": "uint256"
            },
            {
              "components": [
                {
                  "internalType": "string",
                  "name": "templateId",
                  "type": "string"
                },
                {
                  "internalType": "string",
                  "name": "name",
                  "type": "string"
                },
                {
                  "internalType": "string",
                  "name": "description",
                  "type": "string"
                },
                {
                  "internalType": "uint256",
                  "name": "createdAt",
                  "type": "uint256"
                },
                {
                  "internalType": "uint256",
                  "name": "updatedAt",
                  "type": "uint256"
                },
                {
                  "internalType": "uint256",
                  "name": "premium",
                  "type": "uint256"
                },
                {
                  "internalType": "uint256",
                  "name": "payoutPerHour",
                  "type": "uint256"
                },
                {
                  "internalType": "uint256",
                  "name": "delayThresholdHours",
                  "type": "uint256"
                },
                {
                  "internalType": "uint256",
                  "name": "maxTotalPayout",
                  "type": "uint256"
                },
                {
                  "internalType": "uint256",
                  "name": "coverageDurationDays",
                  "type": "uint256"
                },
                {
                  "internalType": "enum FlightPolicy.PolicyTemplateStatus",
                  "name": "status",
                  "type": "uint8"
                }
              ],
              "internalType": "struct FlightPolicy.PolicyTemplate",
              "name": "template",
              "type": "tuple"
            },
            {
              "internalType": "string",
              "name": "flightNumber",
              "type": "string"
            },
            {
              "internalType": "string",
              "name": "departureAirportCode",
              "type": "string"
            },
            {
              "internalType": "string",
              "name": "arrivalAirportCode",
              "type": "string"
            },
            {
              "internalType": "uint256",
              "name": "departureTime",
              "type": "uint256"
            },
            {
              "internalType": "uint256",
              "name": "createdAt",
              "type": "uint256"
            },
            {
              "internalType": "uint256",
              "name": "payoutToDate",
              "type": "uint256"
            },
            {
              "internalType": "address",
              "name": "buyer",
              "type": "address"
            },
            {
              "internalType": "enum FlightPolicy.PolicyStatus",
              "name": "status",
              "type": "uint8"
            }
          ],
          "internalType": "struct FlightPolicy.UserPolicy[]",
          "name": "",
          "type": "tuple[]"
        }
      ],
      "stateMutability": "view",
      "type": "function"
    },
    {
      "inputs": [],
      "name": "insurerAddress",
      "outputs": [
        {
          "internalType": "address",
          "name": "",
          "type": "address"
        }
      ],
      "stateMutability": "view",
      "type": "function"
    },
    {
      "inputs": [
        {
          "internalType": "address",
          "name": "user",
          "type": "address"
        }
      ],
      "name": "isInsurer",
      "outputs": [
        {
          "internalType": "bool",
          "name": "",
          "type": "bool"
        }
      ],
      "stateMutability": "view",
      "type": "function"
    },
    {
      "inputs": [
        {
          "internalType": "uint256",
          "name": "policyId",
          "type": "uint256"
        }
      ],
      "name": "markBaggagePolicyAsExpired",
      "outputs": [],
      "stateMutability": "nonpayable",
      "type": "function"
    },
    {
      "inputs": [
        {
          "internalType": "uint256",
          "name": "policyId",
          "type": "uint256"
        }
      ],
      "name": "markFlightPolicyAsExpired",
      "outputs": [],
      "stateMutability": "nonpayable",
      "type": "function"
    },
    {
      "inputs": [
        {
          "components": [
            {
              "internalType": "string",
              "name": "templateId",
              "type": "string"
            },
            {
              "internalType": "string",
              "name": "name",
              "type": "string"
            },
            {
              "internalType": "string",
              "name": "description",
              "type": "string"
            },
            {
              "internalType": "uint256",
              "name": "createdAt",
              "type": "uint256"
            },
            {
              "internalType": "uint256",
              "name": "updatedAt",
              "type": "uint256"
            },
            {
              "internalType": "uint256",
              "name": "premium",
              "type": "uint256"
            },
            {
              "internalType": "uint256",
              "name": "payoutIfDelayed",
              "type": "uint256"
            },
            {
              "internalType": "uint256",
              "name": "payoutIfLost",
              "type": "uint256"
            },
            {
              "internalType": "uint256",
              "name": "maxTotalPayout",
              "type": "uint256"
            },
            {
              "internalType": "uint256",
              "name": "coverageDurationDays",
              "type": "uint256"
            },
            {
              "internalType": "enum BaggagePolicy.PolicyTemplateStatus",
              "name": "status",
              "type": "uint8"
            }
          ],
          "internalType": "struct BaggagePolicy.PolicyTemplate",
          "name": "template",
          "type": "tuple"
        },
        {
          "internalType": "string",
          "name": "itemDescription",
          "type": "string"
        }
      ],
      "name": "purchaseBaggagePolicy",
      "outputs": [],
      "stateMutability": "payable",
      "type": "function"
    },
    {
      "inputs": [
        {
          "components": [
            {
              "internalType": "string",
              "name": "templateId",
              "type": "string"
            },
            {
              "internalType": "string",
              "name": "name",
              "type": "string"
            },
            {
              "internalType": "string",
              "name": "description",
              "type": "string"
            },
            {
              "internalType": "uint256",
              "name": "createdAt",
              "type": "uint256"
            },
            {
              "internalType": "uint256",
              "name": "updatedAt",
              "type": "uint256"
            },
            {
              "internalType": "uint256",
              "name": "premium",
              "type": "uint256"
            },
            {
              "internalType": "uint256",
              "name": "payoutPerHour",
              "type": "uint256"
            },
            {
              "internalType": "uint256",
              "name": "delayThresholdHours",
              "type": "uint256"
            },
            {
              "internalType": "uint256",
              "name": "maxTotalPayout",
              "type": "uint256"
            },
            {
              "internalType": "uint256",
              "name": "coverageDurationDays",
              "type": "uint256"
            },
            {
              "internalType": "enum FlightPolicy.PolicyTemplateStatus",
              "name": "status",
              "type": "uint8"
            }
          ],
          "internalType": "struct FlightPolicy.PolicyTemplate",
          "name": "template",
          "type": "tuple"
        },
        {
          "internalType": "string",
          "name": "flightNumber",
          "type": "string"
        },
        {
          "internalType": "string",
          "name": "departureAirportCode",
          "type": "string"
        },
        {
          "internalType": "string",
          "name": "arrivalAirportCode",
          "type": "string"
        },
        {
          "internalType": "uint256",
          "name": "departureTime",
          "type": "uint256"
        }
      ],
      "name": "purchaseFlightPolicy",
      "outputs": [],
      "stateMutability": "payable",
      "type": "function"
    },
    {
      "inputs": [
        {
          "internalType": "uint256",
          "name": "amountInWei",
          "type": "uint256"
        }
      ],
      "name": "withdraw",
      "outputs": [],
      "stateMutability": "nonpayable",
      "type": "function"
    },
    {
      "stateMutability": "payable",
      "type": "receive"
    }
  ],
  "bytecode": "0x60a06040523480156200001157600080fd5b50604051620032403803806200324083398181016040528101906200003791906200015e565b3373ffffffffffffffffffffffffffffffffffffffff1660808173ffffffffffffffffffffffffffffffffffffffff1681525050816000806101000a81548173ffffffffffffffffffffffffffffffffffffffff021916908373ffffffffffffffffffffffffffffffffffffffff16021790555080600160006101000a81548173ffffffffffffffffffffffffffffffffffffffff021916908373ffffffffffffffffffffffffffffffffffffffff1602179055505050620001a5565b600080fd5b600073ffffffffffffffffffffffffffffffffffffffff82169050919050565b60006200012682620000f9565b9050919050565b620001388162000119565b81146200014457600080fd5b50565b60008151905062000158816200012d565b92915050565b60008060408385031215620001785762000177620000f4565b5b6000620001888582860162000147565b92505060206200019b8582860162000147565b9150509250929050565b6080516130326200020e6000396000818161052c015281816105fd01528181610664015281816106d7015281816107fe0152818161091c01528181610ae201528181610e3c01528181610fb4015281816110dd015281816111ae015261122001526130326000f3fe60806040526004361061010d5760003560e01c80638350e57811610095578063bc8e516511610064578063bc8e516514610358578063ca7e292914610395578063d0e30db0146103c0578063da7897e2146103ca578063f368bc271461040757610114565b80638350e578146102b8578063a4472e32146102d4578063a7c0900e146102f0578063b715521b1461031b57610114565b8063516f92f7116100dc578063516f92f7146101c15780636906496e146101ea5780636db30bad146102135780636f9fb98a146102505780637fba9ee51461027b57610114565b80630711651014610119578063260d47c5146101445780632e1a7d4d1461016d5780634dd7b2a81461019657610114565b3661011457005b600080fd5b34801561012557600080fd5b5061012e610432565b60405161013b9190611319565b60405180910390f35b34801561015057600080fd5b5061016b6004803603810190610166919061137e565b610456565b005b34801561017957600080fd5b50610194600480360381019061018f919061137e565b61052a565b005b3480156101a257600080fd5b506101ab6106d3565b6040516101b891906117d8565b60405180910390f35b3480156101cd57600080fd5b506101e860048036038101906101e3919061137e565b6107fc565b005b3480156101f657600080fd5b50610211600480360381019061020c919061137e565b61091a565b005b34801561021f57600080fd5b5061023a6004803603810190610235919061192f565b610a36565b60405161024791906117d8565b60405180910390f35b34801561025c57600080fd5b50610265610ade565b6040516102729190611987565b60405180910390f35b34801561028757600080fd5b506102a2600480360381019061029d919061192f565b610b74565b6040516102af9190611c94565b60405180910390f35b6102d260048036038101906102cd9190611e45565b610c1e565b005b6102ee60048036038101906102e991906120b5565b610d30565b005b3480156102fc57600080fd5b50610305610e3a565b604051610312919061213c565b60405180910390f35b34801561032757600080fd5b50610342600480360381019061033d9190612183565b610e5e565b60405161034f91906117d8565b60405180910390f35b34801561036457600080fd5b5061037f600480360381019061037a9190612183565b610f06565b60405161038c9190611c94565b60405180910390f35b3480156103a157600080fd5b506103aa610fb0565b6040516103b79190611c94565b60405180910390f35b6103c86110db565b005b3480156103d657600080fd5b506103f160048036038101906103ec9190612183565b61121c565b6040516103fe91906121cb565b60405180910390f35b34801561041357600080fd5b5061041c611274565b6040516104299190612207565b60405180910390f35b60008054906101000a900473ffffffffffffffffffffffffffffffffffffffff1681565b60008054906101000a900473ffffffffffffffffffffffffffffffffffffffff1673ffffffffffffffffffffffffffffffffffffffff1663b0110cc682336040518363ffffffff1660e01b81526004016104b1929190612222565b600060405180830381600087803b1580156104cb57600080fd5b505af11580156104df573d6000803e3d6000fd5b50505050803373ffffffffffffffffffffffffffffffffffffffff167fd97fa6902eb91d71aea44cc906baaea3f41dab00c2f987da7f9d97b28172d40660405160405180910390a350565b7f000000000000000000000000000000000000000000000000000000000000000073ffffffffffffffffffffffffffffffffffffffff163373ffffffffffffffffffffffffffffffffffffffff16146105b8576040517f08c379a00000000000000000000000000000000000000000000000000000000081526004016105af906122ce565b60405180910390fd5b804710156105fb576040517f08c379a00000000000000000000000000000000000000000000000000000000081526004016105f29061233a565b60405180910390fd5b7f000000000000000000000000000000000000000000000000000000000000000073ffffffffffffffffffffffffffffffffffffffff166108fc829081150290604051600060405180830381858888f19350505050158015610661573d6000803e3d6000fd5b507f000000000000000000000000000000000000000000000000000000000000000073ffffffffffffffffffffffffffffffffffffffff167feaff4b37086828766ad3268786972c0cd24259d4c87a80f9d3963a3c3d999b0d826040516106c89190611987565b60405180910390a250565b60607f000000000000000000000000000000000000000000000000000000000000000073ffffffffffffffffffffffffffffffffffffffff163373ffffffffffffffffffffffffffffffffffffffff1614610763576040517f08c379a000000000000000000000000000000000000000000000000000000000815260040161075a906122ce565b60405180910390fd5b60008054906101000a900473ffffffffffffffffffffffffffffffffffffffff1673ffffffffffffffffffffffffffffffffffffffff1663457e55216040518163ffffffff1660e01b8152600401600060405180830381865afa1580156107ce573d6000803e3d6000fd5b505050506040513d6000823e3d601f19601f820116820180604052508101906107f791906127da565b905090565b7f000000000000000000000000000000000000000000000000000000000000000073ffffffffffffffffffffffffffffffffffffffff163373ffffffffffffffffffffffffffffffffffffffff161461088a576040517f08c379a0000000000000000000000000000000000000000000000000000000008152600401610881906122ce565b60405180910390fd5b600160009054906101000a900473ffffffffffffffffffffffffffffffffffffffff1673ffffffffffffffffffffffffffffffffffffffff1663cf39c624826040518263ffffffff1660e01b81526004016108e59190611987565b600060405180830381600087803b1580156108ff57600080fd5b505af1158015610913573d6000803e3d6000fd5b5050505050565b7f000000000000000000000000000000000000000000000000000000000000000073ffffffffffffffffffffffffffffffffffffffff163373ffffffffffffffffffffffffffffffffffffffff16146109a8576040517f08c379a000000000000000000000000000000000000000000000000000000000815260040161099f906122ce565b60405180910390fd5b60008054906101000a900473ffffffffffffffffffffffffffffffffffffffff1673ffffffffffffffffffffffffffffffffffffffff1663cf39c624826040518263ffffffff1660e01b8152600401610a019190611987565b600060405180830381600087803b158015610a1b57600080fd5b505af1158015610a2f573d6000803e3d6000fd5b5050505050565b606060008054906101000a900473ffffffffffffffffffffffffffffffffffffffff1673ffffffffffffffffffffffffffffffffffffffff16639c6cf7ef836040518263ffffffff1660e01b8152600401610a91919061285c565b600060405180830381865afa158015610aae573d6000803e3d6000fd5b505050506040513d6000823e3d601f19601f82011682018060405250810190610ad791906127da565b9050919050565b60007f000000000000000000000000000000000000000000000000000000000000000073ffffffffffffffffffffffffffffffffffffffff163373ffffffffffffffffffffffffffffffffffffffff1614610b6e576040517f08c379a0000000000000000000000000000000000000000000000000000000008152600401610b65906122ce565b60405180910390fd5b47905090565b6060600160009054906101000a900473ffffffffffffffffffffffffffffffffffffffff1673ffffffffffffffffffffffffffffffffffffffff16639c6cf7ef836040518263ffffffff1660e01b8152600401610bd1919061285c565b600060405180830381865afa158015610bee573d6000803e3d6000fd5b505050506040513d6000823e3d601f19601f82011682018060405250810190610c179190612be5565b9050919050565b60008060009054906101000a900473ffffffffffffffffffffffffffffffffffffffff1673ffffffffffffffffffffffffffffffffffffffff166331953ecc348888888888336040518863ffffffff1660e01b8152600401610c8596959493929190612d2b565b60206040518083038185885af1158015610ca3573d6000803e3d6000fd5b50505050506040513d601f19601f82011682018060405250810190610cc89190612da8565b90508560000151604051610cdc9190612e11565b6040518091039020813373ffffffffffffffffffffffffffffffffffffffff167f43617ea01c45d3386d7be4a6cb66bf94c0152a674cbd34a5de81ed135dfd7b1760405160405180910390a4505050505050565b6000600160009054906101000a900473ffffffffffffffffffffffffffffffffffffffff1673ffffffffffffffffffffffffffffffffffffffff1663e0516149348585336040518563ffffffff1660e01b8152600401610d9293929190612f25565b60206040518083038185885af1158015610db0573d6000803e3d6000fd5b50505050506040513d601f19601f82011682018060405250810190610dd59190612da8565b90508260000151604051610de99190612e11565b6040518091039020813373ffffffffffffffffffffffffffffffffffffffff167fd3ad849e96e45902e7d1f5bd084268392ad649bd4509857dbfd40ceb536aef3860405160405180910390a4505050565b7f000000000000000000000000000000000000000000000000000000000000000081565b606060008054906101000a900473ffffffffffffffffffffffffffffffffffffffff1673ffffffffffffffffffffffffffffffffffffffff166319ac4614836040518263ffffffff1660e01b8152600401610eb9919061213c565b600060405180830381865afa158015610ed6573d6000803e3d6000fd5b505050506040513d6000823e3d601f19601f82011682018060405250810190610eff91906127da565b9050919050565b6060600160009054906101000a900473ffffffffffffffffffffffffffffffffffffffff1673ffffffffffffffffffffffffffffffffffffffff166319ac4614836040518263ffffffff1660e01b8152600401610f63919061213c565b600060405180830381865afa158015610f80573d6000803e3d6000fd5b505050506040513d6000823e3d601f19601f82011682018060405250810190610fa99190612be5565b9050919050565b60607f000000000000000000000000000000000000000000000000000000000000000073ffffffffffffffffffffffffffffffffffffffff163373ffffffffffffffffffffffffffffffffffffffff1614611040576040517f08c379a0000000000000000000000000000000000000000000000000000000008152600401611037906122ce565b60405180910390fd5b600160009054906101000a900473ffffffffffffffffffffffffffffffffffffffff1673ffffffffffffffffffffffffffffffffffffffff1663457e55216040518163ffffffff1660e01b8152600401600060405180830381865afa1580156110ad573d6000803e3d6000fd5b505050506040513d6000823e3d601f19601f820116820180604052508101906110d69190612be5565b905090565b7f000000000000000000000000000000000000000000000000000000000000000073ffffffffffffffffffffffffffffffffffffffff163373ffffffffffffffffffffffffffffffffffffffff1614611169576040517f08c379a0000000000000000000000000000000000000000000000000000000008152600401611160906122ce565b60405180910390fd5b600034116111ac576040517f08c379a00000000000000000000000000000000000000000000000000000000081526004016111a390612fdc565b60405180910390fd5b7f000000000000000000000000000000000000000000000000000000000000000073ffffffffffffffffffffffffffffffffffffffff167f543ba50a5eec5e6178218e364b1d0f396157b3c8fa278522c2cb7fd99407d474346040516112129190611987565b60405180910390a2565b60007f000000000000000000000000000000000000000000000000000000000000000073ffffffffffffffffffffffffffffffffffffffff168273ffffffffffffffffffffffffffffffffffffffff16149050919050565b600160009054906101000a900473ffffffffffffffffffffffffffffffffffffffff1681565b600073ffffffffffffffffffffffffffffffffffffffff82169050919050565b6000819050919050565b60006112df6112da6112d58461129a565b6112ba565b61129a565b9050919050565b60006112f1826112c4565b9050919050565b6000611303826112e6565b9050919050565b611313816112f8565b82525050565b600060208201905061132e600083018461130a565b92915050565b6000604051905090565b600080fd5b600080fd5b6000819050919050565b61135b81611348565b811461136657600080fd5b50565b60008135905061137881611352565b92915050565b6000602082840312156113945761139361133e565b5b60006113a284828501611369565b91505092915050565b600081519050919050565b600082825260208201905092915050565b6000819050602082019050919050565b6113e081611348565b82525050565b600081519050919050565b600082825260208201905092915050565b60005b83811015611420578082015181840152602081019050611405565b60008484015250505050565b6000601f19601f8301169050919050565b6000611448826113e6565b61145281856113f1565b9350611462818560208601611402565b61146b8161142c565b840191505092915050565b7f4e487b7100000000000000000000000000000000000000000000000000000000600052602160045260246000fd5b600281106114b6576114b5611476565b5b50565b60008190506114c7826114a5565b919050565b60006114d7826114b9565b9050919050565b6114e7816114cc565b82525050565b600061016083016000830151848203600086015261150b828261143d565b91505060208301518482036020860152611525828261143d565b9150506040830151848203604086015261153f828261143d565b915050606083015161155460608601826113d7565b50608083015161156760808601826113d7565b5060a083015161157a60a08601826113d7565b5060c083015161158d60c08601826113d7565b5060e08301516115a060e08601826113d7565b506101008301516115b56101008601826113d7565b506101208301516115ca6101208601826113d7565b506101408301516115df6101408601826114de565b508091505092915050565b60006115f58261129a565b9050919050565b611605816115ea565b82525050565b6003811061161c5761161b611476565b5b50565b600081905061162d8261160b565b919050565b600061163d8261161f565b9050919050565b61164d81611632565b82525050565b60006101408301600083015161166c60008601826113d7565b506020830151848203602086015261168482826114ed565b9150506040830151848203604086015261169e828261143d565b915050606083015184820360608601526116b8828261143d565b915050608083015184820360808601526116d2828261143d565b91505060a08301516116e760a08601826113d7565b5060c08301516116fa60c08601826113d7565b5060e083015161170d60e08601826113d7565b506101008301516117226101008601826115fc565b50610120830151611737610120860182611644565b508091505092915050565b600061174e8383611653565b905092915050565b6000602082019050919050565b600061176e826113ab565b61177881856113b6565b93508360208202850161178a856113c7565b8060005b858110156117c657848403895281516117a78582611742565b94506117b283611756565b925060208a0199505060018101905061178e565b50829750879550505050505092915050565b600060208201905081810360008301526117f28184611763565b905092915050565b600080fd5b600080fd5b7f4e487b7100000000000000000000000000000000000000000000000000000000600052604160045260246000fd5b61183c8261142c565b810181811067ffffffffffffffff8211171561185b5761185a611804565b5b80604052505050565b600061186e611334565b905061187a8282611833565b919050565b600067ffffffffffffffff82111561189a57611899611804565b5b6118a38261142c565b9050602081019050919050565b82818337600083830152505050565b60006118d26118cd8461187f565b611864565b9050828152602081018484840111156118ee576118ed6117ff565b5b6118f98482856118b0565b509392505050565b600082601f830112611916576119156117fa565b5b81356119268482602086016118bf565b91505092915050565b6000602082840312156119455761194461133e565b5b600082013567ffffffffffffffff81111561196357611962611343565b5b61196f84828501611901565b91505092915050565b61198181611348565b82525050565b600060208201905061199c6000830184611978565b92915050565b600081519050919050565b600082825260208201905092915050565b6000819050602082019050919050565b600281106119df576119de611476565b5b50565b60008190506119f0826119ce565b919050565b6000611a00826119e2565b9050919050565b611a10816119f5565b82525050565b6000610160830160008301518482036000860152611a34828261143d565b91505060208301518482036020860152611a4e828261143d565b91505060408301518482036040860152611a68828261143d565b9150506060830151611a7d60608601826113d7565b506080830151611a9060808601826113d7565b5060a0830151611aa360a08601826113d7565b5060c0830151611ab660c08601826113d7565b5060e0830151611ac960e08601826113d7565b50610100830151611ade6101008601826113d7565b50610120830151611af36101208601826113d7565b50610140830151611b08610140860182611a07565b508091505092915050565b60038110611b2457611b23611476565b5b50565b6000819050611b3582611b13565b919050565b6000611b4582611b27565b9050919050565b611b5581611b3a565b82525050565b600060e083016000830151611b7360008601826113d7565b5060208301518482036020860152611b8b8282611a16565b91505060408301518482036040860152611ba5828261143d565b9150506060830151611bba60608601826113d7565b506080830151611bcd60808601826113d7565b5060a0830151611be060a08601826115fc565b5060c0830151611bf360c0860182611b4c565b508091505092915050565b6000611c0a8383611b5b565b905092915050565b6000602082019050919050565b6000611c2a826119a2565b611c3481856119ad565b935083602082028501611c46856119be565b8060005b85811015611c825784840389528151611c638582611bfe565b9450611c6e83611c12565b925060208a01995050600181019050611c4a565b50829750879550505050505092915050565b60006020820190508181036000830152611cae8184611c1f565b905092915050565b600080fd5b600080fd5b60028110611ccd57600080fd5b50565b600081359050611cdf81611cc0565b92915050565b60006101608284031215611cfc57611cfb611cb6565b5b611d07610160611864565b9050600082013567ffffffffffffffff811115611d2757611d26611cbb565b5b611d3384828501611901565b600083015250602082013567ffffffffffffffff811115611d5757611d56611cbb565b5b611d6384828501611901565b602083015250604082013567ffffffffffffffff811115611d8757611d86611cbb565b5b611d9384828501611901565b6040830152506060611da784828501611369565b6060830152506080611dbb84828501611369565b60808301525060a0611dcf84828501611369565b60a08301525060c0611de384828501611369565b60c08301525060e0611df784828501611369565b60e083015250610100611e0c84828501611369565b61010083015250610120611e2284828501611369565b61012083015250610140611e3884828501611cd0565b6101408301525092915050565b600080600080600060a08688031215611e6157611e6061133e565b5b600086013567ffffffffffffffff811115611e7f57611e7e611343565b5b611e8b88828901611ce5565b955050602086013567ffffffffffffffff811115611eac57611eab611343565b5b611eb888828901611901565b945050604086013567ffffffffffffffff811115611ed957611ed8611343565b5b611ee588828901611901565b935050606086013567ffffffffffffffff811115611f0657611f05611343565b5b611f1288828901611901565b9250506080611f2388828901611369565b9150509295509295909350565b60028110611f3d57600080fd5b50565b600081359050611f4f81611f30565b92915050565b60006101608284031215611f6c57611f6b611cb6565b5b611f77610160611864565b9050600082013567ffffffffffffffff811115611f9757611f96611cbb565b5b611fa384828501611901565b600083015250602082013567ffffffffffffffff811115611fc757611fc6611cbb565b5b611fd384828501611901565b602083015250604082013567ffffffffffffffff811115611ff757611ff6611cbb565b5b61200384828501611901565b604083015250606061201784828501611369565b606083015250608061202b84828501611369565b60808301525060a061203f84828501611369565b60a08301525060c061205384828501611369565b60c08301525060e061206784828501611369565b60e08301525061010061207c84828501611369565b6101008301525061012061209284828501611369565b610120830152506101406120a884828501611f40565b6101408301525092915050565b600080604083850312156120cc576120cb61133e565b5b600083013567ffffffffffffffff8111156120ea576120e9611343565b5b6120f685828601611f55565b925050602083013567ffffffffffffffff81111561211757612116611343565b5b61212385828601611901565b9150509250929050565b612136816115ea565b82525050565b6000602082019050612151600083018461212d565b92915050565b612160816115ea565b811461216b57600080fd5b50565b60008135905061217d81612157565b92915050565b6000602082840312156121995761219861133e565b5b60006121a78482850161216e565b91505092915050565b60008115159050919050565b6121c5816121b0565b82525050565b60006020820190506121e060008301846121bc565b92915050565b60006121f1826112e6565b9050919050565b612201816121e6565b82525050565b600060208201905061221c60008301846121f8565b92915050565b60006040820190506122376000830185611978565b612244602083018461212d565b9392505050565b600082825260208201905092915050565b7f496e73757265723a204f6e6c792074686520696e73757265722063616e20636160008201527f6c6c207468697300000000000000000000000000000000000000000000000000602082015250565b60006122b860278361224b565b91506122c38261225c565b604082019050919050565b600060208201905081810360008301526122e7816122ab565b9050919050565b7f496e73756666696369656e742062616c616e6365000000000000000000000000600082015250565b600061232460148361224b565b915061232f826122ee565b602082019050919050565b6000602082019050818103600083015261235381612317565b9050919050565b600067ffffffffffffffff82111561237557612374611804565b5b602082029050602081019050919050565b600080fd5b60008151905061239a81611352565b92915050565b60006123b36123ae8461187f565b611864565b9050828152602081018484840111156123cf576123ce6117ff565b5b6123da848285611402565b509392505050565b600082601f8301126123f7576123f66117fa565b5b81516124078482602086016123a0565b91505092915050565b60008151905061241f81611cc0565b92915050565b6000610160828403121561243c5761243b611cb6565b5b612447610160611864565b9050600082015167ffffffffffffffff81111561246757612466611cbb565b5b612473848285016123e2565b600083015250602082015167ffffffffffffffff81111561249757612496611cbb565b5b6124a3848285016123e2565b602083015250604082015167ffffffffffffffff8111156124c7576124c6611cbb565b5b6124d3848285016123e2565b60408301525060606124e78482850161238b565b60608301525060806124fb8482850161238b565b60808301525060a061250f8482850161238b565b60a08301525060c06125238482850161238b565b60c08301525060e06125378482850161238b565b60e08301525061010061254c8482850161238b565b610100830152506101206125628482850161238b565b6101208301525061014061257884828501612410565b6101408301525092915050565b60008151905061259481612157565b92915050565b600381106125a757600080fd5b50565b6000815190506125b98161259a565b92915050565b600061014082840312156125d6576125d5611cb6565b5b6125e1610140611864565b905060006125f18482850161238b565b600083015250602082015167ffffffffffffffff81111561261557612614611cbb565b5b61262184828501612425565b602083015250604082015167ffffffffffffffff81111561264557612644611cbb565b5b612651848285016123e2565b604083015250606082015167ffffffffffffffff81111561267557612674611cbb565b5b612681848285016123e2565b606083015250608082015167ffffffffffffffff8111156126a5576126a4611cbb565b5b6126b1848285016123e2565b60808301525060a06126c58482850161238b565b60a08301525060c06126d98482850161238b565b60c08301525060e06126ed8482850161238b565b60e08301525061010061270284828501612585565b61010083015250610120612718848285016125aa565b6101208301525092915050565b60006127386127338461235a565b611864565b9050808382526020820190506020840283018581111561275b5761275a612386565b5b835b818110156127a257805167ffffffffffffffff8111156127805761277f6117fa565b5b80860161278d89826125bf565b8552602085019450505060208101905061275d565b5050509392505050565b600082601f8301126127c1576127c06117fa565b5b81516127d1848260208601612725565b91505092915050565b6000602082840312156127f0576127ef61133e565b5b600082015167ffffffffffffffff81111561280e5761280d611343565b5b61281a848285016127ac565b91505092915050565b600061282e826113e6565b612838818561224b565b9350612848818560208601611402565b6128518161142c565b840191505092915050565b600060208201905081810360008301526128768184612823565b905092915050565b600067ffffffffffffffff82111561289957612898611804565b5b602082029050602081019050919050565b6000815190506128b981611f30565b92915050565b600061016082840312156128d6576128d5611cb6565b5b6128e1610160611864565b9050600082015167ffffffffffffffff81111561290157612900611cbb565b5b61290d848285016123e2565b600083015250602082015167ffffffffffffffff81111561293157612930611cbb565b5b61293d848285016123e2565b602083015250604082015167ffffffffffffffff81111561296157612960611cbb565b5b61296d848285016123e2565b60408301525060606129818482850161238b565b60608301525060806129958482850161238b565b60808301525060a06129a98482850161238b565b60a08301525060c06129bd8482850161238b565b60c08301525060e06129d18482850161238b565b60e0830152506101006129e68482850161238b565b610100830152506101206129fc8482850161238b565b61012083015250610140612a12848285016128aa565b6101408301525092915050565b60038110612a2c57600080fd5b50565b600081519050612a3e81612a1f565b92915050565b600060e08284031215612a5a57612a59611cb6565b5b612a6460e0611864565b90506000612a748482850161238b565b600083015250602082015167ffffffffffffffff811115612a9857612a97611cbb565b5b612aa4848285016128bf565b602083015250604082015167ffffffffffffffff811115612ac857612ac7611cbb565b5b612ad4848285016123e2565b6040830152506060612ae88482850161238b565b6060830152506080612afc8482850161238b565b60808301525060a0612b1084828501612585565b60a08301525060c0612b2484828501612a2f565b60c08301525092915050565b6000612b43612b3e8461287e565b611864565b90508083825260208201905060208402830185811115612b6657612b65612386565b5b835b81811015612bad57805167ffffffffffffffff811115612b8b57612b8a6117fa565b5b808601612b988982612a44565b85526020850194505050602081019050612b68565b5050509392505050565b600082601f830112612bcc57612bcb6117fa565b5b8151612bdc848260208601612b30565b91505092915050565b600060208284031215612bfb57612bfa61133e565b5b600082015167ffffffffffffffff811115612c1957612c18611343565b5b612c2584828501612bb7565b91505092915050565b6000610160830160008301518482036000860152612c4c828261143d565b91505060208301518482036020860152612c66828261143d565b91505060408301518482036040860152612c80828261143d565b9150506060830151612c9560608601826113d7565b506080830151612ca860808601826113d7565b5060a0830151612cbb60a08601826113d7565b5060c0830151612cce60c08601826113d7565b5060e0830151612ce160e08601826113d7565b50610100830151612cf66101008601826113d7565b50610120830151612d0b6101208601826113d7565b50610140830151612d206101408601826114de565b508091505092915050565b600060c0820190508181036000830152612d458189612c2e565b90508181036020830152612d598188612823565b90508181036040830152612d6d8187612823565b90508181036060830152612d818186612823565b9050612d906080830185611978565b612d9d60a083018461212d565b979650505050505050565b600060208284031215612dbe57612dbd61133e565b5b6000612dcc8482850161238b565b91505092915050565b600081905092915050565b6000612deb826113e6565b612df58185612dd5565b9350612e05818560208601611402565b80840191505092915050565b6000612e1d8284612de0565b915081905092915050565b6000610160830160008301518482036000860152612e46828261143d565b91505060208301518482036020860152612e60828261143d565b91505060408301518482036040860152612e7a828261143d565b9150506060830151612e8f60608601826113d7565b506080830151612ea260808601826113d7565b5060a0830151612eb560a08601826113d7565b5060c0830151612ec860c08601826113d7565b5060e0830151612edb60e08601826113d7565b50610100830151612ef06101008601826113d7565b50610120830151612f056101208601826113d7565b50610140830151612f1a610140860182611a07565b508091505092915050565b60006060820190508181036000830152612f3f8186612e28565b90508181036020830152612f538185612823565b9050612f62604083018461212d565b949350505050565b7f496e73757265723a204d757374206465706f736974206120706f73697469766560008201527f20616d6f756e7400000000000000000000000000000000000000000000000000602082015250565b6000612fc660278361224b565b9150612fd182612f6a565b604082019050919050565b60006020820190508181036000830152612ff581612fb9565b905091905056fea2646970667358221220f6e63cc6e81f071baceaa05c10b82fdab49ec3a75e7430a2f6124c894986659064736f6c63430008130033",
  "linkReferences": {},
  "deployedLinkReferences": {}
}