{
  "_format": "hh-sol-artifact-1",
  "contractName": "Insurer",
  "sourceName": "contracts/Insurer.sol",
  "abi": [
    {
      "inputs": [
        {
          "internalType": "address",
          "name": "_flightPolicyAddress",
          "type": "address"
        }
      ],
      "stateMutability": "nonpayable",
      "type": "constructor"
    },
    {
      "anonymous": false,
      "inputs": [
        {
          "indexed": true,
          "internalType": "address",
          "name": "buyer",
          "type": "address"
        },
        {
          "indexed": true,
          "internalType": "uint256",
          "name": "policyId",
          "type": "uint256"
        }
      ],
      "name": "FlightPolicyClaimed",
      "type": "event"
    },
    {
      "anonymous": false,
      "inputs": [
        {
          "indexed": true,
          "internalType": "address",
          "name": "buyer",
          "type": "address"
        },
        {
          "indexed": true,
          "internalType": "uint256",
          "name": "policyId",
          "type": "uint256"
        },
        {
          "indexed": true,
          "internalType": "string",
          "name": "templateId",
          "type": "string"
        }
      ],
      "name": "FlightPolicyPurchased",
      "type": "event"
    },
    {
      "inputs": [
        {
          "internalType": "uint256",
          "name": "policyId",
          "type": "uint256"
        }
      ],
      "name": "claimFlightPayout",
      "outputs": [],
      "stateMutability": "nonpayable",
      "type": "function"
    },
    {
      "inputs": [],
      "name": "flightPolicy",
      "outputs": [
        {
          "internalType": "contract FlightPolicy",
          "name": "",
          "type": "address"
        }
      ],
      "stateMutability": "view",
      "type": "function"
    },
    {
      "inputs": [],
      "name": "getAllFlightPolicies",
      "outputs": [
        {
          "components": [
            {
              "internalType": "uint256",
              "name": "policyId",
              "type": "uint256"
            },
            {
              "components": [
                {
                  "internalType": "string",
                  "name": "templateId",
                  "type": "string"
                },
                {
                  "internalType": "string",
                  "name": "name",
                  "type": "string"
                },
                {
                  "internalType": "string",
                  "name": "description",
                  "type": "string"
                },
                {
                  "internalType": "uint256",
                  "name": "createdAt",
                  "type": "uint256"
                },
                {
                  "internalType": "uint256",
                  "name": "updatedAt",
                  "type": "uint256"
                },
                {
                  "internalType": "uint256",
                  "name": "premium",
                  "type": "uint256"
                },
                {
                  "internalType": "uint256",
                  "name": "payoutPerHour",
                  "type": "uint256"
                },
                {
                  "internalType": "uint256",
                  "name": "delayThresholdHours",
                  "type": "uint256"
                },
                {
                  "internalType": "uint256",
                  "name": "maxTotalPayout",
                  "type": "uint256"
                },
                {
                  "internalType": "uint256",
                  "name": "coverageDurationDays",
                  "type": "uint256"
                },
                {
                  "internalType": "enum FlightPolicy.PolicyTemplateStatus",
                  "name": "status",
                  "type": "uint8"
                }
              ],
              "internalType": "struct FlightPolicy.PolicyTemplate",
              "name": "template",
              "type": "tuple"
            },
            {
              "internalType": "string",
              "name": "flightNumber",
              "type": "string"
            },
            {
              "internalType": "string",
              "name": "departureAirportCode",
              "type": "string"
            },
            {
              "internalType": "string",
              "name": "arrivalAirportCode",
              "type": "string"
            },
            {
              "internalType": "uint256",
              "name": "departureTime",
              "type": "uint256"
            },
            {
              "internalType": "uint256",
              "name": "createdAt",
              "type": "uint256"
            },
            {
              "internalType": "uint256",
              "name": "payoutToDate",
              "type": "uint256"
            },
            {
              "internalType": "address",
              "name": "buyer",
              "type": "address"
            },
            {
              "internalType": "enum FlightPolicy.PolicyStatus",
              "name": "status",
              "type": "uint8"
            }
          ],
          "internalType": "struct FlightPolicy.UserPolicy[]",
          "name": "",
          "type": "tuple[]"
        }
      ],
      "stateMutability": "view",
      "type": "function"
    },
    {
      "inputs": [
        {
          "internalType": "address",
          "name": "user",
          "type": "address"
        }
      ],
      "name": "getUserFlightPolicies",
      "outputs": [
        {
          "components": [
            {
              "internalType": "uint256",
              "name": "policyId",
              "type": "uint256"
            },
            {
              "components": [
                {
                  "internalType": "string",
                  "name": "templateId",
                  "type": "string"
                },
                {
                  "internalType": "string",
                  "name": "name",
                  "type": "string"
                },
                {
                  "internalType": "string",
                  "name": "description",
                  "type": "string"
                },
                {
                  "internalType": "uint256",
                  "name": "createdAt",
                  "type": "uint256"
                },
                {
                  "internalType": "uint256",
                  "name": "updatedAt",
                  "type": "uint256"
                },
                {
                  "internalType": "uint256",
                  "name": "premium",
                  "type": "uint256"
                },
                {
                  "internalType": "uint256",
                  "name": "payoutPerHour",
                  "type": "uint256"
                },
                {
                  "internalType": "uint256",
                  "name": "delayThresholdHours",
                  "type": "uint256"
                },
                {
                  "internalType": "uint256",
                  "name": "maxTotalPayout",
                  "type": "uint256"
                },
                {
                  "internalType": "uint256",
                  "name": "coverageDurationDays",
                  "type": "uint256"
                },
                {
                  "internalType": "enum FlightPolicy.PolicyTemplateStatus",
                  "name": "status",
                  "type": "uint8"
                }
              ],
              "internalType": "struct FlightPolicy.PolicyTemplate",
              "name": "template",
              "type": "tuple"
            },
            {
              "internalType": "string",
              "name": "flightNumber",
              "type": "string"
            },
            {
              "internalType": "string",
              "name": "departureAirportCode",
              "type": "string"
            },
            {
              "internalType": "string",
              "name": "arrivalAirportCode",
              "type": "string"
            },
            {
              "internalType": "uint256",
              "name": "departureTime",
              "type": "uint256"
            },
            {
              "internalType": "uint256",
              "name": "createdAt",
              "type": "uint256"
            },
            {
              "internalType": "uint256",
              "name": "payoutToDate",
              "type": "uint256"
            },
            {
              "internalType": "address",
              "name": "buyer",
              "type": "address"
            },
            {
              "internalType": "enum FlightPolicy.PolicyStatus",
              "name": "status",
              "type": "uint8"
            }
          ],
          "internalType": "struct FlightPolicy.UserPolicy[]",
          "name": "",
          "type": "tuple[]"
        }
      ],
      "stateMutability": "view",
      "type": "function"
    },
    {
      "inputs": [
        {
          "internalType": "string",
          "name": "templateId",
          "type": "string"
        }
      ],
      "name": "getUserPoliciesByTemplate",
      "outputs": [
        {
          "components": [
            {
              "internalType": "uint256",
              "name": "policyId",
              "type": "uint256"
            },
            {
              "components": [
                {
                  "internalType": "string",
                  "name": "templateId",
                  "type": "string"
                },
                {
                  "internalType": "string",
                  "name": "name",
                  "type": "string"
                },
                {
                  "internalType": "string",
                  "name": "description",
                  "type": "string"
                },
                {
                  "internalType": "uint256",
                  "name": "createdAt",
                  "type": "uint256"
                },
                {
                  "internalType": "uint256",
                  "name": "updatedAt",
                  "type": "uint256"
                },
                {
                  "internalType": "uint256",
                  "name": "premium",
                  "type": "uint256"
                },
                {
                  "internalType": "uint256",
                  "name": "payoutPerHour",
                  "type": "uint256"
                },
                {
                  "internalType": "uint256",
                  "name": "delayThresholdHours",
                  "type": "uint256"
                },
                {
                  "internalType": "uint256",
                  "name": "maxTotalPayout",
                  "type": "uint256"
                },
                {
                  "internalType": "uint256",
                  "name": "coverageDurationDays",
                  "type": "uint256"
                },
                {
                  "internalType": "enum FlightPolicy.PolicyTemplateStatus",
                  "name": "status",
                  "type": "uint8"
                }
              ],
              "internalType": "struct FlightPolicy.PolicyTemplate",
              "name": "template",
              "type": "tuple"
            },
            {
              "internalType": "string",
              "name": "flightNumber",
              "type": "string"
            },
            {
              "internalType": "string",
              "name": "departureAirportCode",
              "type": "string"
            },
            {
              "internalType": "string",
              "name": "arrivalAirportCode",
              "type": "string"
            },
            {
              "internalType": "uint256",
              "name": "departureTime",
              "type": "uint256"
            },
            {
              "internalType": "uint256",
              "name": "createdAt",
              "type": "uint256"
            },
            {
              "internalType": "uint256",
              "name": "payoutToDate",
              "type": "uint256"
            },
            {
              "internalType": "address",
              "name": "buyer",
              "type": "address"
            },
            {
              "internalType": "enum FlightPolicy.PolicyStatus",
              "name": "status",
              "type": "uint8"
            }
          ],
          "internalType": "struct FlightPolicy.UserPolicy[]",
          "name": "",
          "type": "tuple[]"
        }
      ],
      "stateMutability": "view",
      "type": "function"
    },
    {
      "inputs": [],
      "name": "insurerAddress",
      "outputs": [
        {
          "internalType": "address",
          "name": "",
          "type": "address"
        }
      ],
      "stateMutability": "view",
      "type": "function"
    },
    {
      "inputs": [
        {
          "internalType": "address",
          "name": "user",
          "type": "address"
        }
      ],
      "name": "isInsurer",
      "outputs": [
        {
          "internalType": "bool",
          "name": "",
          "type": "bool"
        }
      ],
      "stateMutability": "view",
      "type": "function"
    },
    {
      "inputs": [
        {
          "internalType": "uint256",
          "name": "policyId",
          "type": "uint256"
        }
      ],
      "name": "markFlightPolicyAsExpired",
      "outputs": [],
      "stateMutability": "nonpayable",
      "type": "function"
    },
    {
      "inputs": [
        {
          "components": [
            {
              "internalType": "string",
              "name": "templateId",
              "type": "string"
            },
            {
              "internalType": "string",
              "name": "name",
              "type": "string"
            },
            {
              "internalType": "string",
              "name": "description",
              "type": "string"
            },
            {
              "internalType": "uint256",
              "name": "createdAt",
              "type": "uint256"
            },
            {
              "internalType": "uint256",
              "name": "updatedAt",
              "type": "uint256"
            },
            {
              "internalType": "uint256",
              "name": "premium",
              "type": "uint256"
            },
            {
              "internalType": "uint256",
              "name": "payoutPerHour",
              "type": "uint256"
            },
            {
              "internalType": "uint256",
              "name": "delayThresholdHours",
              "type": "uint256"
            },
            {
              "internalType": "uint256",
              "name": "maxTotalPayout",
              "type": "uint256"
            },
            {
              "internalType": "uint256",
              "name": "coverageDurationDays",
              "type": "uint256"
            },
            {
              "internalType": "enum FlightPolicy.PolicyTemplateStatus",
              "name": "status",
              "type": "uint8"
            }
          ],
          "internalType": "struct FlightPolicy.PolicyTemplate",
          "name": "template",
          "type": "tuple"
        },
        {
          "internalType": "string",
          "name": "flightNumber",
          "type": "string"
        },
        {
          "internalType": "string",
          "name": "departureAirportCode",
          "type": "string"
        },
        {
          "internalType": "string",
          "name": "arrivalAirportCode",
          "type": "string"
        },
        {
          "internalType": "uint256",
          "name": "departureTime",
          "type": "uint256"
        }
      ],
      "name": "purchaseFlightPolicy",
      "outputs": [],
      "stateMutability": "payable",
      "type": "function"
    },
    {
      "inputs": [
        {
          "internalType": "uint256",
          "name": "amountInWei",
          "type": "uint256"
        }
      ],
      "name": "withdraw",
      "outputs": [],
      "stateMutability": "nonpayable",
      "type": "function"
    },
    {
      "stateMutability": "payable",
      "type": "receive"
    }
  ],
  "bytecode": "0x60a06040523480156200001157600080fd5b5060405162001e1a38038062001e1a83398181016040528101906200003791906200011c565b3373ffffffffffffffffffffffffffffffffffffffff1660808173ffffffffffffffffffffffffffffffffffffffff1681525050806000806101000a81548173ffffffffffffffffffffffffffffffffffffffff021916908373ffffffffffffffffffffffffffffffffffffffff160217905550506200014e565b600080fd5b600073ffffffffffffffffffffffffffffffffffffffff82169050919050565b6000620000e482620000b7565b9050919050565b620000f681620000d7565b81146200010257600080fd5b50565b6000815190506200011681620000eb565b92915050565b600060208284031215620001355762000134620000b2565b5b6000620001458482850162000105565b91505092915050565b608051611c8d6200018d6000396000818161036a0152818161043b015281816104a7015281816105ce015281816108a401526109720152611c8d6000f3fe6080604052600436106100955760003560e01c80638350e578116100595780638350e578146101725780639c6cf7ef1461018e578063a7c0900e146101cb578063b715521b146101f6578063da7897e2146102335761009c565b806307116510146100a1578063260d47c5146100cc5780632e1a7d4d146100f55780634dd7b2a81461011e5780636906496e146101495761009c565b3661009c57005b600080fd5b3480156100ad57600080fd5b506100b6610270565b6040516100c39190610a45565b60405180910390f35b3480156100d857600080fd5b506100f360048036038101906100ee9190610aaa565b610294565b005b34801561010157600080fd5b5061011c60048036038101906101179190610aaa565b610368565b005b34801561012a57600080fd5b506101336104a3565b6040516101409190610f04565b60405180910390f35b34801561015557600080fd5b50610170600480360381019061016b9190610aaa565b6105cc565b005b61018c600480360381019061018791906111ea565b6106e8565b005b34801561019a57600080fd5b506101b560048036038101906101b091906112d5565b6107fa565b6040516101c29190610f04565b60405180910390f35b3480156101d757600080fd5b506101e06108a2565b6040516101ed919061132d565b60405180910390f35b34801561020257600080fd5b5061021d60048036038101906102189190611374565b6108c6565b60405161022a9190610f04565b60405180910390f35b34801561023f57600080fd5b5061025a60048036038101906102559190611374565b61096e565b60405161026791906113bc565b60405180910390f35b60008054906101000a900473ffffffffffffffffffffffffffffffffffffffff1681565b60008054906101000a900473ffffffffffffffffffffffffffffffffffffffff1673ffffffffffffffffffffffffffffffffffffffff1663b0110cc682336040518363ffffffff1660e01b81526004016102ef9291906113e6565b600060405180830381600087803b15801561030957600080fd5b505af115801561031d573d6000803e3d6000fd5b50505050803373ffffffffffffffffffffffffffffffffffffffff167fd97fa6902eb91d71aea44cc906baaea3f41dab00c2f987da7f9d97b28172d40660405160405180910390a350565b7f000000000000000000000000000000000000000000000000000000000000000073ffffffffffffffffffffffffffffffffffffffff163373ffffffffffffffffffffffffffffffffffffffff16146103f6576040517f08c379a00000000000000000000000000000000000000000000000000000000081526004016103ed90611492565b60405180910390fd5b80471015610439576040517f08c379a0000000000000000000000000000000000000000000000000000000008152600401610430906114fe565b60405180910390fd5b7f000000000000000000000000000000000000000000000000000000000000000073ffffffffffffffffffffffffffffffffffffffff166108fc829081150290604051600060405180830381858888f1935050505015801561049f573d6000803e3d6000fd5b5050565b60607f000000000000000000000000000000000000000000000000000000000000000073ffffffffffffffffffffffffffffffffffffffff163373ffffffffffffffffffffffffffffffffffffffff1614610533576040517f08c379a000000000000000000000000000000000000000000000000000000000815260040161052a90611492565b60405180910390fd5b60008054906101000a900473ffffffffffffffffffffffffffffffffffffffff1673ffffffffffffffffffffffffffffffffffffffff1663457e55216040518163ffffffff1660e01b8152600401600060405180830381865afa15801561059e573d6000803e3d6000fd5b505050506040513d6000823e3d601f19601f820116820180604052508101906105c7919061199e565b905090565b7f000000000000000000000000000000000000000000000000000000000000000073ffffffffffffffffffffffffffffffffffffffff163373ffffffffffffffffffffffffffffffffffffffff161461065a576040517f08c379a000000000000000000000000000000000000000000000000000000000815260040161065190611492565b60405180910390fd5b60008054906101000a900473ffffffffffffffffffffffffffffffffffffffff1673ffffffffffffffffffffffffffffffffffffffff1663cf39c624826040518263ffffffff1660e01b81526004016106b391906119e7565b600060405180830381600087803b1580156106cd57600080fd5b505af11580156106e1573d6000803e3d6000fd5b5050505050565b60008060009054906101000a900473ffffffffffffffffffffffffffffffffffffffff1673ffffffffffffffffffffffffffffffffffffffff166331953ecc348888888888336040518863ffffffff1660e01b815260040161074f96959493929190611b38565b60206040518083038185885af115801561076d573d6000803e3d6000fd5b50505050506040513d601f19601f820116820180604052508101906107929190611bb5565b905085600001516040516107a69190611c1e565b6040518091039020813373ffffffffffffffffffffffffffffffffffffffff167f43617ea01c45d3386d7be4a6cb66bf94c0152a674cbd34a5de81ed135dfd7b1760405160405180910390a4505050505050565b606060008054906101000a900473ffffffffffffffffffffffffffffffffffffffff1673ffffffffffffffffffffffffffffffffffffffff16639c6cf7ef836040518263ffffffff1660e01b81526004016108559190611c35565b600060405180830381865afa158015610872573d6000803e3d6000fd5b505050506040513d6000823e3d601f19601f8201168201806040525081019061089b919061199e565b9050919050565b7f000000000000000000000000000000000000000000000000000000000000000081565b606060008054906101000a900473ffffffffffffffffffffffffffffffffffffffff1673ffffffffffffffffffffffffffffffffffffffff166319ac4614836040518263ffffffff1660e01b8152600401610921919061132d565b600060405180830381865afa15801561093e573d6000803e3d6000fd5b505050506040513d6000823e3d601f19601f82011682018060405250810190610967919061199e565b9050919050565b60007f000000000000000000000000000000000000000000000000000000000000000073ffffffffffffffffffffffffffffffffffffffff168273ffffffffffffffffffffffffffffffffffffffff16149050919050565b600073ffffffffffffffffffffffffffffffffffffffff82169050919050565b6000819050919050565b6000610a0b610a06610a01846109c6565b6109e6565b6109c6565b9050919050565b6000610a1d826109f0565b9050919050565b6000610a2f82610a12565b9050919050565b610a3f81610a24565b82525050565b6000602082019050610a5a6000830184610a36565b92915050565b6000604051905090565b600080fd5b600080fd5b6000819050919050565b610a8781610a74565b8114610a9257600080fd5b50565b600081359050610aa481610a7e565b92915050565b600060208284031215610ac057610abf610a6a565b5b6000610ace84828501610a95565b91505092915050565b600081519050919050565b600082825260208201905092915050565b6000819050602082019050919050565b610b0c81610a74565b82525050565b600081519050919050565b600082825260208201905092915050565b60005b83811015610b4c578082015181840152602081019050610b31565b60008484015250505050565b6000601f19601f8301169050919050565b6000610b7482610b12565b610b7e8185610b1d565b9350610b8e818560208601610b2e565b610b9781610b58565b840191505092915050565b7f4e487b7100000000000000000000000000000000000000000000000000000000600052602160045260246000fd5b60028110610be257610be1610ba2565b5b50565b6000819050610bf382610bd1565b919050565b6000610c0382610be5565b9050919050565b610c1381610bf8565b82525050565b6000610160830160008301518482036000860152610c378282610b69565b91505060208301518482036020860152610c518282610b69565b91505060408301518482036040860152610c6b8282610b69565b9150506060830151610c806060860182610b03565b506080830151610c936080860182610b03565b5060a0830151610ca660a0860182610b03565b5060c0830151610cb960c0860182610b03565b5060e0830151610ccc60e0860182610b03565b50610100830151610ce1610100860182610b03565b50610120830151610cf6610120860182610b03565b50610140830151610d0b610140860182610c0a565b508091505092915050565b6000610d21826109c6565b9050919050565b610d3181610d16565b82525050565b60038110610d4857610d47610ba2565b5b50565b6000819050610d5982610d37565b919050565b6000610d6982610d4b565b9050919050565b610d7981610d5e565b82525050565b600061014083016000830151610d986000860182610b03565b5060208301518482036020860152610db08282610c19565b91505060408301518482036040860152610dca8282610b69565b91505060608301518482036060860152610de48282610b69565b91505060808301518482036080860152610dfe8282610b69565b91505060a0830151610e1360a0860182610b03565b5060c0830151610e2660c0860182610b03565b5060e0830151610e3960e0860182610b03565b50610100830151610e4e610100860182610d28565b50610120830151610e63610120860182610d70565b508091505092915050565b6000610e7a8383610d7f565b905092915050565b6000602082019050919050565b6000610e9a82610ad7565b610ea48185610ae2565b935083602082028501610eb685610af3565b8060005b85811015610ef25784840389528151610ed38582610e6e565b9450610ede83610e82565b925060208a01995050600181019050610eba565b50829750879550505050505092915050565b60006020820190508181036000830152610f1e8184610e8f565b905092915050565b600080fd5b7f4e487b7100000000000000000000000000000000000000000000000000000000600052604160045260246000fd5b610f6382610b58565b810181811067ffffffffffffffff82111715610f8257610f81610f2b565b5b80604052505050565b6000610f95610a60565b9050610fa18282610f5a565b919050565b600080fd5b600080fd5b600080fd5b600067ffffffffffffffff821115610fd057610fcf610f2b565b5b610fd982610b58565b9050602081019050919050565b82818337600083830152505050565b600061100861100384610fb5565b610f8b565b90508281526020810184848401111561102457611023610fb0565b5b61102f848285610fe6565b509392505050565b600082601f83011261104c5761104b610fab565b5b813561105c848260208601610ff5565b91505092915050565b6002811061107257600080fd5b50565b60008135905061108481611065565b92915050565b600061016082840312156110a1576110a0610f26565b5b6110ac610160610f8b565b9050600082013567ffffffffffffffff8111156110cc576110cb610fa6565b5b6110d884828501611037565b600083015250602082013567ffffffffffffffff8111156110fc576110fb610fa6565b5b61110884828501611037565b602083015250604082013567ffffffffffffffff81111561112c5761112b610fa6565b5b61113884828501611037565b604083015250606061114c84828501610a95565b606083015250608061116084828501610a95565b60808301525060a061117484828501610a95565b60a08301525060c061118884828501610a95565b60c08301525060e061119c84828501610a95565b60e0830152506101006111b184828501610a95565b610100830152506101206111c784828501610a95565b610120830152506101406111dd84828501611075565b6101408301525092915050565b600080600080600060a0868803121561120657611205610a6a565b5b600086013567ffffffffffffffff81111561122457611223610a6f565b5b6112308882890161108a565b955050602086013567ffffffffffffffff81111561125157611250610a6f565b5b61125d88828901611037565b945050604086013567ffffffffffffffff81111561127e5761127d610a6f565b5b61128a88828901611037565b935050606086013567ffffffffffffffff8111156112ab576112aa610a6f565b5b6112b788828901611037565b92505060806112c888828901610a95565b9150509295509295909350565b6000602082840312156112eb576112ea610a6a565b5b600082013567ffffffffffffffff81111561130957611308610a6f565b5b61131584828501611037565b91505092915050565b61132781610d16565b82525050565b6000602082019050611342600083018461131e565b92915050565b61135181610d16565b811461135c57600080fd5b50565b60008135905061136e81611348565b92915050565b60006020828403121561138a57611389610a6a565b5b60006113988482850161135f565b91505092915050565b60008115159050919050565b6113b6816113a1565b82525050565b60006020820190506113d160008301846113ad565b92915050565b6113e081610a74565b82525050565b60006040820190506113fb60008301856113d7565b611408602083018461131e565b9392505050565b600082825260208201905092915050565b7f496e73757265723a204f6e6c792074686520696e73757265722063616e20636160008201527f6c6c207468697300000000000000000000000000000000000000000000000000602082015250565b600061147c60278361140f565b915061148782611420565b604082019050919050565b600060208201905081810360008301526114ab8161146f565b9050919050565b7f496e73756666696369656e742062616c616e6365000000000000000000000000600082015250565b60006114e860148361140f565b91506114f3826114b2565b602082019050919050565b60006020820190508181036000830152611517816114db565b9050919050565b600067ffffffffffffffff82111561153957611538610f2b565b5b602082029050602081019050919050565b600080fd5b60008151905061155e81610a7e565b92915050565b600061157761157284610fb5565b610f8b565b90508281526020810184848401111561159357611592610fb0565b5b61159e848285610b2e565b509392505050565b600082601f8301126115bb576115ba610fab565b5b81516115cb848260208601611564565b91505092915050565b6000815190506115e381611065565b92915050565b60006101608284031215611600576115ff610f26565b5b61160b610160610f8b565b9050600082015167ffffffffffffffff81111561162b5761162a610fa6565b5b611637848285016115a6565b600083015250602082015167ffffffffffffffff81111561165b5761165a610fa6565b5b611667848285016115a6565b602083015250604082015167ffffffffffffffff81111561168b5761168a610fa6565b5b611697848285016115a6565b60408301525060606116ab8482850161154f565b60608301525060806116bf8482850161154f565b60808301525060a06116d38482850161154f565b60a08301525060c06116e78482850161154f565b60c08301525060e06116fb8482850161154f565b60e0830152506101006117108482850161154f565b610100830152506101206117268482850161154f565b6101208301525061014061173c848285016115d4565b6101408301525092915050565b60008151905061175881611348565b92915050565b6003811061176b57600080fd5b50565b60008151905061177d8161175e565b92915050565b6000610140828403121561179a57611799610f26565b5b6117a5610140610f8b565b905060006117b58482850161154f565b600083015250602082015167ffffffffffffffff8111156117d9576117d8610fa6565b5b6117e5848285016115e9565b602083015250604082015167ffffffffffffffff81111561180957611808610fa6565b5b611815848285016115a6565b604083015250606082015167ffffffffffffffff81111561183957611838610fa6565b5b611845848285016115a6565b606083015250608082015167ffffffffffffffff81111561186957611868610fa6565b5b611875848285016115a6565b60808301525060a06118898482850161154f565b60a08301525060c061189d8482850161154f565b60c08301525060e06118b18482850161154f565b60e0830152506101006118c684828501611749565b610100830152506101206118dc8482850161176e565b6101208301525092915050565b60006118fc6118f78461151e565b610f8b565b9050808382526020820190506020840283018581111561191f5761191e61154a565b5b835b8181101561196657805167ffffffffffffffff81111561194457611943610fab565b5b8086016119518982611783565b85526020850194505050602081019050611921565b5050509392505050565b600082601f83011261198557611984610fab565b5b81516119958482602086016118e9565b91505092915050565b6000602082840312156119b4576119b3610a6a565b5b600082015167ffffffffffffffff8111156119d2576119d1610a6f565b5b6119de84828501611970565b91505092915050565b60006020820190506119fc60008301846113d7565b92915050565b6000610160830160008301518482036000860152611a208282610b69565b91505060208301518482036020860152611a3a8282610b69565b91505060408301518482036040860152611a548282610b69565b9150506060830151611a696060860182610b03565b506080830151611a7c6080860182610b03565b5060a0830151611a8f60a0860182610b03565b5060c0830151611aa260c0860182610b03565b5060e0830151611ab560e0860182610b03565b50610100830151611aca610100860182610b03565b50610120830151611adf610120860182610b03565b50610140830151611af4610140860182610c0a565b508091505092915050565b6000611b0a82610b12565b611b14818561140f565b9350611b24818560208601610b2e565b611b2d81610b58565b840191505092915050565b600060c0820190508181036000830152611b528189611a02565b90508181036020830152611b668188611aff565b90508181036040830152611b7a8187611aff565b90508181036060830152611b8e8186611aff565b9050611b9d60808301856113d7565b611baa60a083018461131e565b979650505050505050565b600060208284031215611bcb57611bca610a6a565b5b6000611bd98482850161154f565b91505092915050565b600081905092915050565b6000611bf882610b12565b611c028185611be2565b9350611c12818560208601610b2e565b80840191505092915050565b6000611c2a8284611bed565b915081905092915050565b60006020820190508181036000830152611c4f8184611aff565b90509291505056fea26469706673582212207eb92b0f9dbc09e84780d802360a5178bfb83cbf5cc2711beb199b2769baab7b64736f6c63430008130033",
  "linkReferences": {},
  "deployedLinkReferences": {}
}