{
  "_format": "hh-sol-artifact-1",
  "contractName": "Insurer",
  "sourceName": "contracts/Insurer.sol",
  "abi": [
    {
      "inputs": [
        {
          "internalType": "address",
          "name": "_flightPolicyAddress",
          "type": "address"
        }
      ],
      "stateMutability": "nonpayable",
      "type": "constructor"
    },
    {
      "anonymous": false,
      "inputs": [
        {
          "indexed": true,
          "internalType": "address",
          "name": "buyer",
          "type": "address"
        },
        {
          "indexed": true,
          "internalType": "uint256",
          "name": "policyId",
          "type": "uint256"
        },
        {
          "indexed": true,
          "internalType": "uint256",
          "name": "templateId",
          "type": "uint256"
        }
      ],
      "name": "FlightPolicyPurchased",
      "type": "event"
    },
    {
      "anonymous": false,
      "inputs": [
        {
          "indexed": true,
          "internalType": "uint256",
          "name": "templateId",
          "type": "uint256"
        },
        {
          "indexed": false,
          "internalType": "string",
          "name": "name",
          "type": "string"
        }
      ],
      "name": "FlightPolicyTemplateCreated",
      "type": "event"
    },
    {
      "anonymous": false,
      "inputs": [
        {
          "indexed": true,
          "internalType": "uint256",
          "name": "templateId",
          "type": "uint256"
        }
      ],
      "name": "FlightPolicyTemplateDeactivated",
      "type": "event"
    },
    {
      "inputs": [
        {
          "internalType": "string",
          "name": "name",
          "type": "string"
        },
        {
          "internalType": "string",
          "name": "description",
          "type": "string"
        },
        {
          "internalType": "uint256",
          "name": "premium",
          "type": "uint256"
        },
        {
          "internalType": "uint256",
          "name": "payoutPerHour",
          "type": "uint256"
        },
        {
          "internalType": "uint256",
          "name": "delayThresholdHours",
          "type": "uint256"
        },
        {
          "internalType": "uint256",
          "name": "maxTotalPayout",
          "type": "uint256"
        },
        {
          "internalType": "uint256",
          "name": "coverageDurationDays",
          "type": "uint256"
        }
      ],
      "name": "createFlightPolicyTemplate",
      "outputs": [],
      "stateMutability": "nonpayable",
      "type": "function"
    },
    {
      "inputs": [
        {
          "internalType": "uint256",
          "name": "templateId",
          "type": "uint256"
        }
      ],
      "name": "deactivateFlightPolicyTemplate",
      "outputs": [],
      "stateMutability": "nonpayable",
      "type": "function"
    },
    {
      "inputs": [],
      "name": "flightPolicy",
      "outputs": [
        {
          "internalType": "contract FlightPolicy",
          "name": "",
          "type": "address"
        }
      ],
      "stateMutability": "view",
      "type": "function"
    },
    {
      "inputs": [],
      "name": "getActiveFlightPolicyTemplates",
      "outputs": [
        {
          "components": [
            {
              "internalType": "uint256",
              "name": "templateId",
              "type": "uint256"
            },
            {
              "internalType": "string",
              "name": "name",
              "type": "string"
            },
            {
              "internalType": "string",
              "name": "description",
              "type": "string"
            },
            {
              "internalType": "uint256",
              "name": "createdAt",
              "type": "uint256"
            },
            {
              "internalType": "uint256",
              "name": "premium",
              "type": "uint256"
            },
            {
              "internalType": "uint256",
              "name": "payoutPerHour",
              "type": "uint256"
            },
            {
              "internalType": "uint256",
              "name": "delayThresholdHours",
              "type": "uint256"
            },
            {
              "internalType": "uint256",
              "name": "maxTotalPayout",
              "type": "uint256"
            },
            {
              "internalType": "uint256",
              "name": "coverageDurationDays",
              "type": "uint256"
            },
            {
              "internalType": "enum FlightPolicy.PolicyTemplateStatus",
              "name": "status",
              "type": "uint8"
            }
          ],
          "internalType": "struct FlightPolicy.PolicyTemplate[]",
          "name": "",
          "type": "tuple[]"
        }
      ],
      "stateMutability": "view",
      "type": "function"
    },
    {
      "inputs": [],
      "name": "getAllFlightPolicyTemplates",
      "outputs": [
        {
          "components": [
            {
              "internalType": "uint256",
              "name": "templateId",
              "type": "uint256"
            },
            {
              "internalType": "string",
              "name": "name",
              "type": "string"
            },
            {
              "internalType": "string",
              "name": "description",
              "type": "string"
            },
            {
              "internalType": "uint256",
              "name": "createdAt",
              "type": "uint256"
            },
            {
              "internalType": "uint256",
              "name": "premium",
              "type": "uint256"
            },
            {
              "internalType": "uint256",
              "name": "payoutPerHour",
              "type": "uint256"
            },
            {
              "internalType": "uint256",
              "name": "delayThresholdHours",
              "type": "uint256"
            },
            {
              "internalType": "uint256",
              "name": "maxTotalPayout",
              "type": "uint256"
            },
            {
              "internalType": "uint256",
              "name": "coverageDurationDays",
              "type": "uint256"
            },
            {
              "internalType": "enum FlightPolicy.PolicyTemplateStatus",
              "name": "status",
              "type": "uint8"
            }
          ],
          "internalType": "struct FlightPolicy.PolicyTemplate[]",
          "name": "",
          "type": "tuple[]"
        }
      ],
      "stateMutability": "view",
      "type": "function"
    },
    {
      "inputs": [
        {
          "internalType": "uint256",
          "name": "templateId",
          "type": "uint256"
        }
      ],
      "name": "getFlightPolicyTemplateById",
      "outputs": [
        {
          "components": [
            {
              "internalType": "uint256",
              "name": "templateId",
              "type": "uint256"
            },
            {
              "internalType": "string",
              "name": "name",
              "type": "string"
            },
            {
              "internalType": "string",
              "name": "description",
              "type": "string"
            },
            {
              "internalType": "uint256",
              "name": "createdAt",
              "type": "uint256"
            },
            {
              "internalType": "uint256",
              "name": "premium",
              "type": "uint256"
            },
            {
              "internalType": "uint256",
              "name": "payoutPerHour",
              "type": "uint256"
            },
            {
              "internalType": "uint256",
              "name": "delayThresholdHours",
              "type": "uint256"
            },
            {
              "internalType": "uint256",
              "name": "maxTotalPayout",
              "type": "uint256"
            },
            {
              "internalType": "uint256",
              "name": "coverageDurationDays",
              "type": "uint256"
            },
            {
              "internalType": "enum FlightPolicy.PolicyTemplateStatus",
              "name": "status",
              "type": "uint8"
            }
          ],
          "internalType": "struct FlightPolicy.PolicyTemplate",
          "name": "",
          "type": "tuple"
        }
      ],
      "stateMutability": "view",
      "type": "function"
    },
    {
      "inputs": [
        {
          "internalType": "address",
          "name": "user",
          "type": "address"
        },
        {
          "internalType": "uint256",
          "name": "policyId",
          "type": "uint256"
        }
      ],
      "name": "getFlightPolicyWithTemplate",
      "outputs": [
        {
          "components": [
            {
              "internalType": "uint256",
              "name": "policyId",
              "type": "uint256"
            },
            {
              "internalType": "uint256",
              "name": "templateId",
              "type": "uint256"
            },
            {
              "internalType": "string",
              "name": "flightNumber",
              "type": "string"
            },
            {
              "internalType": "string",
              "name": "departureAirportCode",
              "type": "string"
            },
            {
              "internalType": "string",
              "name": "arrivalAirportCode",
              "type": "string"
            },
            {
              "internalType": "uint256",
              "name": "departureTime",
              "type": "uint256"
            },
            {
              "internalType": "uint256",
              "name": "createdAt",
              "type": "uint256"
            },
            {
              "internalType": "uint256",
              "name": "payoutToDate",
              "type": "uint256"
            },
            {
              "internalType": "address",
              "name": "buyer",
              "type": "address"
            },
            {
              "internalType": "enum FlightPolicy.PolicyStatus",
              "name": "status",
              "type": "uint8"
            }
          ],
          "internalType": "struct FlightPolicy.UserPolicy",
          "name": "",
          "type": "tuple"
        },
        {
          "components": [
            {
              "internalType": "uint256",
              "name": "templateId",
              "type": "uint256"
            },
            {
              "internalType": "string",
              "name": "name",
              "type": "string"
            },
            {
              "internalType": "string",
              "name": "description",
              "type": "string"
            },
            {
              "internalType": "uint256",
              "name": "createdAt",
              "type": "uint256"
            },
            {
              "internalType": "uint256",
              "name": "premium",
              "type": "uint256"
            },
            {
              "internalType": "uint256",
              "name": "payoutPerHour",
              "type": "uint256"
            },
            {
              "internalType": "uint256",
              "name": "delayThresholdHours",
              "type": "uint256"
            },
            {
              "internalType": "uint256",
              "name": "maxTotalPayout",
              "type": "uint256"
            },
            {
              "internalType": "uint256",
              "name": "coverageDurationDays",
              "type": "uint256"
            },
            {
              "internalType": "enum FlightPolicy.PolicyTemplateStatus",
              "name": "status",
              "type": "uint8"
            }
          ],
          "internalType": "struct FlightPolicy.PolicyTemplate",
          "name": "",
          "type": "tuple"
        }
      ],
      "stateMutability": "view",
      "type": "function"
    },
    {
      "inputs": [
        {
          "internalType": "address",
          "name": "user",
          "type": "address"
        }
      ],
      "name": "getUserFlightPolicies",
      "outputs": [
        {
          "components": [
            {
              "internalType": "uint256",
              "name": "policyId",
              "type": "uint256"
            },
            {
              "internalType": "uint256",
              "name": "templateId",
              "type": "uint256"
            },
            {
              "internalType": "string",
              "name": "flightNumber",
              "type": "string"
            },
            {
              "internalType": "string",
              "name": "departureAirportCode",
              "type": "string"
            },
            {
              "internalType": "string",
              "name": "arrivalAirportCode",
              "type": "string"
            },
            {
              "internalType": "uint256",
              "name": "departureTime",
              "type": "uint256"
            },
            {
              "internalType": "uint256",
              "name": "createdAt",
              "type": "uint256"
            },
            {
              "internalType": "uint256",
              "name": "payoutToDate",
              "type": "uint256"
            },
            {
              "internalType": "address",
              "name": "buyer",
              "type": "address"
            },
            {
              "internalType": "enum FlightPolicy.PolicyStatus",
              "name": "status",
              "type": "uint8"
            }
          ],
          "internalType": "struct FlightPolicy.UserPolicy[]",
          "name": "",
          "type": "tuple[]"
        }
      ],
      "stateMutability": "view",
      "type": "function"
    },
    {
      "inputs": [],
      "name": "insurerAddress",
      "outputs": [
        {
          "internalType": "address",
          "name": "",
          "type": "address"
        }
      ],
      "stateMutability": "view",
      "type": "function"
    },
    {
      "inputs": [
        {
          "internalType": "address",
          "name": "user",
          "type": "address"
        }
      ],
      "name": "isInsurer",
      "outputs": [
        {
          "internalType": "bool",
          "name": "",
          "type": "bool"
        }
      ],
      "stateMutability": "view",
      "type": "function"
    },
    {
      "inputs": [
        {
          "internalType": "address",
          "name": "buyer",
          "type": "address"
        },
        {
          "internalType": "uint256",
          "name": "policyId",
          "type": "uint256"
        }
      ],
      "name": "markFlightPolicyAsClaimed",
      "outputs": [],
      "stateMutability": "nonpayable",
      "type": "function"
    },
    {
      "inputs": [
        {
          "internalType": "uint256",
          "name": "policyId",
          "type": "uint256"
        }
      ],
      "name": "markFlightPolicyAsExpired",
      "outputs": [],
      "stateMutability": "nonpayable",
      "type": "function"
    },
    {
      "inputs": [
        {
          "internalType": "uint256",
          "name": "templateId",
          "type": "uint256"
        },
        {
          "internalType": "string",
          "name": "flightNumber",
          "type": "string"
        },
        {
          "internalType": "string",
          "name": "departureAirportCode",
          "type": "string"
        },
        {
          "internalType": "string",
          "name": "arrivalAirportCode",
          "type": "string"
        },
        {
          "internalType": "uint256",
          "name": "departureTime",
          "type": "uint256"
        }
      ],
      "name": "purchaseFlightPolicy",
      "outputs": [],
      "stateMutability": "payable",
      "type": "function"
    },
    {
      "inputs": [
        {
          "internalType": "uint256",
          "name": "amountInWei",
          "type": "uint256"
        }
      ],
      "name": "withdraw",
      "outputs": [],
      "stateMutability": "nonpayable",
      "type": "function"
    },
    {
      "stateMutability": "payable",
      "type": "receive"
    }
  ],
  "bytecode": "0x60a06040523480156200001157600080fd5b50604051620026bb380380620026bb83398181016040528101906200003791906200011c565b3373ffffffffffffffffffffffffffffffffffffffff1660808173ffffffffffffffffffffffffffffffffffffffff1681525050806000806101000a81548173ffffffffffffffffffffffffffffffffffffffff021916908373ffffffffffffffffffffffffffffffffffffffff160217905550506200014e565b600080fd5b600073ffffffffffffffffffffffffffffffffffffffff82169050919050565b6000620000e482620000b7565b9050919050565b620000f681620000d7565b81146200010257600080fd5b50565b6000815190506200011681620000eb565b92915050565b600060208284031215620001355762000134620000b2565b5b6000620001458482850162000105565b91505092915050565b6080516125206200019b60003960008181610438015281816105090152818161071a0152818161093101528181610a4d01528181610b6c01528181610c380152610d8301526125206000f3fe6080604052600436106100e15760003560e01c80636906496e1161007f578063b715521b11610059578063b715521b14610296578063be3dfb78146102d3578063da7897e2146102fc578063f05e5b6214610339576100e8565b80636906496e14610219578063884d7f6414610242578063a7c0900e1461026b576100e8565b806333018f45116100bb57806333018f451461016c57806343c0e7cb146101a95780634aefa0fe146101c55780636017f97e146101ee576100e8565b806307116510146100ed5780632287ddc4146101185780632e1a7d4d14610143576100e8565b366100e857005b600080fd5b3480156100f957600080fd5b50610102610377565b60405161010f9190610ff2565b60405180910390f35b34801561012457600080fd5b5061012d61039b565b60405161013a91906112d0565b60405180910390f35b34801561014f57600080fd5b5061016a60048036038101906101659190611332565b610436565b005b34801561017857600080fd5b50610193600480360381019061018e9190611332565b610571565b6040516101a09190611440565b60405180910390f35b6101c360048036038101906101be9190611597565b61061f565b005b3480156101d157600080fd5b506101ec60048036038101906101e79190611666565b610718565b005b3480156101fa57600080fd5b50610203610895565b60405161021091906112d0565b60405180910390f35b34801561022557600080fd5b50610240600480360381019061023b9190611332565b61092f565b005b34801561024e57600080fd5b506102696004803603810190610264919061177e565b610a4b565b005b34801561027757600080fd5b50610280610b6a565b60405161028d91906117cd565b60405180910390f35b3480156102a257600080fd5b506102bd60048036038101906102b891906117e8565b610b8e565b6040516102ca9190611a16565b60405180910390f35b3480156102df57600080fd5b506102fa60048036038101906102f59190611332565b610c36565b005b34801561030857600080fd5b50610323600480360381019061031e91906117e8565b610d7f565b6040516103309190611a53565b60405180910390f35b34801561034557600080fd5b50610360600480360381019061035b919061177e565b610dd7565b60405161036e929190611b56565b60405180910390f35b60008054906101000a900473ffffffffffffffffffffffffffffffffffffffff1681565b606060008054906101000a900473ffffffffffffffffffffffffffffffffffffffff1673ffffffffffffffffffffffffffffffffffffffff1663e79cdf1d6040518163ffffffff1660e01b8152600401600060405180830381865afa158015610408573d6000803e3d6000fd5b505050506040513d6000823e3d601f19601f820116820180604052508101906104319190611e55565b905090565b7f000000000000000000000000000000000000000000000000000000000000000073ffffffffffffffffffffffffffffffffffffffff163373ffffffffffffffffffffffffffffffffffffffff16146104c4576040517f08c379a00000000000000000000000000000000000000000000000000000000081526004016104bb90611f21565b60405180910390fd5b80471015610507576040517f08c379a00000000000000000000000000000000000000000000000000000000081526004016104fe90611f8d565b60405180910390fd5b7f000000000000000000000000000000000000000000000000000000000000000073ffffffffffffffffffffffffffffffffffffffff166108fc829081150290604051600060405180830381858888f1935050505015801561056d573d6000803e3d6000fd5b5050565b610579610e93565b60008054906101000a900473ffffffffffffffffffffffffffffffffffffffff1673ffffffffffffffffffffffffffffffffffffffff16635990fa36836040518263ffffffff1660e01b81526004016105d29190611fbc565b600060405180830381865afa1580156105ef573d6000803e3d6000fd5b505050506040513d6000823e3d601f19601f820116820180604052508101906106189190611fd7565b9050919050565b60008060009054906101000a900473ffffffffffffffffffffffffffffffffffffffff1673ffffffffffffffffffffffffffffffffffffffff1663acf76693343389898989896040518863ffffffff1660e01b815260040161068696959493929190612059565b60206040518083038185885af11580156106a4573d6000803e3d6000fd5b50505050506040513d601f19601f820116820180604052508101906106c991906120cf565b905085813373ffffffffffffffffffffffffffffffffffffffff167feffe1aca794f1f12cecd2282e563efd5541b166abc4535dbd19df10aa98a16de60405160405180910390a4505050505050565b7f000000000000000000000000000000000000000000000000000000000000000073ffffffffffffffffffffffffffffffffffffffff163373ffffffffffffffffffffffffffffffffffffffff16146107a6576040517f08c379a000000000000000000000000000000000000000000000000000000000815260040161079d90611f21565b60405180910390fd5b60008060009054906101000a900473ffffffffffffffffffffffffffffffffffffffff1673ffffffffffffffffffffffffffffffffffffffff166388641494898989898989896040518863ffffffff1660e01b815260040161080e97969594939291906120fc565b6020604051808303816000875af115801561082d573d6000803e3d6000fd5b505050506040513d601f19601f8201168201806040525081019061085191906120cf565b9050807fc69722450388b8bc8a6113ad1972ad8c8ddfde8ef6606ec1d011e195bc00dfb8896040516108839190612179565b60405180910390a25050505050505050565b606060008054906101000a900473ffffffffffffffffffffffffffffffffffffffff1673ffffffffffffffffffffffffffffffffffffffff1662c84c046040518163ffffffff1660e01b8152600401600060405180830381865afa158015610901573d6000803e3d6000fd5b505050506040513d6000823e3d601f19601f8201168201806040525081019061092a9190611e55565b905090565b7f000000000000000000000000000000000000000000000000000000000000000073ffffffffffffffffffffffffffffffffffffffff163373ffffffffffffffffffffffffffffffffffffffff16146109bd576040517f08c379a00000000000000000000000000000000000000000000000000000000081526004016109b490611f21565b60405180910390fd5b60008054906101000a900473ffffffffffffffffffffffffffffffffffffffff1673ffffffffffffffffffffffffffffffffffffffff1663cf39c624826040518263ffffffff1660e01b8152600401610a169190611fbc565b600060405180830381600087803b158015610a3057600080fd5b505af1158015610a44573d6000803e3d6000fd5b5050505050565b7f000000000000000000000000000000000000000000000000000000000000000073ffffffffffffffffffffffffffffffffffffffff163373ffffffffffffffffffffffffffffffffffffffff1614610ad9576040517f08c379a0000000000000000000000000000000000000000000000000000000008152600401610ad090611f21565b60405180910390fd5b60008054906101000a900473ffffffffffffffffffffffffffffffffffffffff1673ffffffffffffffffffffffffffffffffffffffff166328cf382c83836040518363ffffffff1660e01b8152600401610b3492919061219b565b600060405180830381600087803b158015610b4e57600080fd5b505af1158015610b62573d6000803e3d6000fd5b505050505050565b7f000000000000000000000000000000000000000000000000000000000000000081565b606060008054906101000a900473ffffffffffffffffffffffffffffffffffffffff1673ffffffffffffffffffffffffffffffffffffffff166319ac4614836040518263ffffffff1660e01b8152600401610be991906117cd565b600060405180830381865afa158015610c06573d6000803e3d6000fd5b505050506040513d6000823e3d601f19601f82011682018060405250810190610c2f9190612429565b9050919050565b7f000000000000000000000000000000000000000000000000000000000000000073ffffffffffffffffffffffffffffffffffffffff163373ffffffffffffffffffffffffffffffffffffffff1614610cc4576040517f08c379a0000000000000000000000000000000000000000000000000000000008152600401610cbb90611f21565b60405180910390fd5b60008054906101000a900473ffffffffffffffffffffffffffffffffffffffff1673ffffffffffffffffffffffffffffffffffffffff1663482ab102826040518263ffffffff1660e01b8152600401610d1d9190611fbc565b600060405180830381600087803b158015610d3757600080fd5b505af1158015610d4b573d6000803e3d6000fd5b50505050807f143219b70842595e29b0ba3550cb75419efa6e37ecb13c1d58dcb81e6ff95f1960405160405180910390a250565b60007f000000000000000000000000000000000000000000000000000000000000000073ffffffffffffffffffffffffffffffffffffffff168273ffffffffffffffffffffffffffffffffffffffff16149050919050565b610ddf610ef8565b610de7610e93565b60008054906101000a900473ffffffffffffffffffffffffffffffffffffffff1673ffffffffffffffffffffffffffffffffffffffff166313e896b685856040518363ffffffff1660e01b8152600401610e4292919061219b565b600060405180830381865afa158015610e5f573d6000803e3d6000fd5b505050506040513d6000823e3d601f19601f82011682018060405250810190610e889190612472565b915091509250929050565b60405180610140016040528060008152602001606081526020016060815260200160008152602001600081526020016000815260200160008152602001600081526020016000815260200160006001811115610ef257610ef16110e2565b5b81525090565b6040518061014001604052806000815260200160008152602001606081526020016060815260200160608152602001600081526020016000815260200160008152602001600073ffffffffffffffffffffffffffffffffffffffff16815260200160006002811115610f6d57610f6c6110e2565b5b81525090565b600073ffffffffffffffffffffffffffffffffffffffff82169050919050565b6000819050919050565b6000610fb8610fb3610fae84610f73565b610f93565b610f73565b9050919050565b6000610fca82610f9d565b9050919050565b6000610fdc82610fbf565b9050919050565b610fec81610fd1565b82525050565b60006020820190506110076000830184610fe3565b92915050565b600081519050919050565b600082825260208201905092915050565b6000819050602082019050919050565b6000819050919050565b61104c81611039565b82525050565b600081519050919050565b600082825260208201905092915050565b60005b8381101561108c578082015181840152602081019050611071565b60008484015250505050565b6000601f19601f8301169050919050565b60006110b482611052565b6110be818561105d565b93506110ce81856020860161106e565b6110d781611098565b840191505092915050565b7f4e487b7100000000000000000000000000000000000000000000000000000000600052602160045260246000fd5b60028110611122576111216110e2565b5b50565b600081905061113382611111565b919050565b600061114382611125565b9050919050565b61115381611138565b82525050565b6000610140830160008301516111726000860182611043565b506020830151848203602086015261118a82826110a9565b915050604083015184820360408601526111a482826110a9565b91505060608301516111b96060860182611043565b5060808301516111cc6080860182611043565b5060a08301516111df60a0860182611043565b5060c08301516111f260c0860182611043565b5060e083015161120560e0860182611043565b5061010083015161121a610100860182611043565b5061012083015161122f61012086018261114a565b508091505092915050565b60006112468383611159565b905092915050565b6000602082019050919050565b60006112668261100d565b6112708185611018565b93508360208202850161128285611029565b8060005b858110156112be578484038952815161129f858261123a565b94506112aa8361124e565b925060208a01995050600181019050611286565b50829750879550505050505092915050565b600060208201905081810360008301526112ea818461125b565b905092915050565b6000604051905090565b600080fd5b600080fd5b61130f81611039565b811461131a57600080fd5b50565b60008135905061132c81611306565b92915050565b600060208284031215611348576113476112fc565b5b60006113568482850161131d565b91505092915050565b6000610140830160008301516113786000860182611043565b506020830151848203602086015261139082826110a9565b915050604083015184820360408601526113aa82826110a9565b91505060608301516113bf6060860182611043565b5060808301516113d26080860182611043565b5060a08301516113e560a0860182611043565b5060c08301516113f860c0860182611043565b5060e083015161140b60e0860182611043565b50610100830151611420610100860182611043565b5061012083015161143561012086018261114a565b508091505092915050565b6000602082019050818103600083015261145a818461135f565b905092915050565b600080fd5b600080fd5b7f4e487b7100000000000000000000000000000000000000000000000000000000600052604160045260246000fd5b6114a482611098565b810181811067ffffffffffffffff821117156114c3576114c261146c565b5b80604052505050565b60006114d66112f2565b90506114e2828261149b565b919050565b600067ffffffffffffffff8211156115025761150161146c565b5b61150b82611098565b9050602081019050919050565b82818337600083830152505050565b600061153a611535846114e7565b6114cc565b90508281526020810184848401111561155657611555611467565b5b611561848285611518565b509392505050565b600082601f83011261157e5761157d611462565b5b813561158e848260208601611527565b91505092915050565b600080600080600060a086880312156115b3576115b26112fc565b5b60006115c18882890161131d565b955050602086013567ffffffffffffffff8111156115e2576115e1611301565b5b6115ee88828901611569565b945050604086013567ffffffffffffffff81111561160f5761160e611301565b5b61161b88828901611569565b935050606086013567ffffffffffffffff81111561163c5761163b611301565b5b61164888828901611569565b92505060806116598882890161131d565b9150509295509295909350565b600080600080600080600060e0888a031215611685576116846112fc565b5b600088013567ffffffffffffffff8111156116a3576116a2611301565b5b6116af8a828b01611569565b975050602088013567ffffffffffffffff8111156116d0576116cf611301565b5b6116dc8a828b01611569565b96505060406116ed8a828b0161131d565b95505060606116fe8a828b0161131d565b945050608061170f8a828b0161131d565b93505060a06117208a828b0161131d565b92505060c06117318a828b0161131d565b91505092959891949750929550565b600061174b82610f73565b9050919050565b61175b81611740565b811461176657600080fd5b50565b60008135905061177881611752565b92915050565b60008060408385031215611795576117946112fc565b5b60006117a385828601611769565b92505060206117b48582860161131d565b9150509250929050565b6117c781611740565b82525050565b60006020820190506117e260008301846117be565b92915050565b6000602082840312156117fe576117fd6112fc565b5b600061180c84828501611769565b91505092915050565b600081519050919050565b600082825260208201905092915050565b6000819050602082019050919050565b61184a81611740565b82525050565b60038110611861576118606110e2565b5b50565b600081905061187282611850565b919050565b600061188282611864565b9050919050565b61189281611877565b82525050565b6000610140830160008301516118b16000860182611043565b5060208301516118c46020860182611043565b50604083015184820360408601526118dc82826110a9565b915050606083015184820360608601526118f682826110a9565b9150506080830151848203608086015261191082826110a9565b91505060a083015161192560a0860182611043565b5060c083015161193860c0860182611043565b5060e083015161194b60e0860182611043565b50610100830151611960610100860182611841565b50610120830151611975610120860182611889565b508091505092915050565b600061198c8383611898565b905092915050565b6000602082019050919050565b60006119ac82611815565b6119b68185611820565b9350836020820285016119c885611831565b8060005b85811015611a0457848403895281516119e58582611980565b94506119f083611994565b925060208a019950506001810190506119cc565b50829750879550505050505092915050565b60006020820190508181036000830152611a3081846119a1565b905092915050565b60008115159050919050565b611a4d81611a38565b82525050565b6000602082019050611a686000830184611a44565b92915050565b600061014083016000830151611a876000860182611043565b506020830151611a9a6020860182611043565b5060408301518482036040860152611ab282826110a9565b91505060608301518482036060860152611acc82826110a9565b91505060808301518482036080860152611ae682826110a9565b91505060a0830151611afb60a0860182611043565b5060c0830151611b0e60c0860182611043565b5060e0830151611b2160e0860182611043565b50610100830151611b36610100860182611841565b50610120830151611b4b610120860182611889565b508091505092915050565b60006040820190508181036000830152611b708185611a6e565b90508181036020830152611b84818461135f565b90509392505050565b600067ffffffffffffffff821115611ba857611ba761146c565b5b602082029050602081019050919050565b600080fd5b600080fd5b600080fd5b600081519050611bd781611306565b92915050565b6000611bf0611beb846114e7565b6114cc565b905082815260208101848484011115611c0c57611c0b611467565b5b611c1784828561106e565b509392505050565b600082601f830112611c3457611c33611462565b5b8151611c44848260208601611bdd565b91505092915050565b60028110611c5a57600080fd5b50565b600081519050611c6c81611c4d565b92915050565b60006101408284031215611c8957611c88611bbe565b5b611c946101406114cc565b90506000611ca484828501611bc8565b600083015250602082015167ffffffffffffffff811115611cc857611cc7611bc3565b5b611cd484828501611c1f565b602083015250604082015167ffffffffffffffff811115611cf857611cf7611bc3565b5b611d0484828501611c1f565b6040830152506060611d1884828501611bc8565b6060830152506080611d2c84828501611bc8565b60808301525060a0611d4084828501611bc8565b60a08301525060c0611d5484828501611bc8565b60c08301525060e0611d6884828501611bc8565b60e083015250610100611d7d84828501611bc8565b61010083015250610120611d9384828501611c5d565b6101208301525092915050565b6000611db3611dae84611b8d565b6114cc565b90508083825260208201905060208402830185811115611dd657611dd5611bb9565b5b835b81811015611e1d57805167ffffffffffffffff811115611dfb57611dfa611462565b5b808601611e088982611c72565b85526020850194505050602081019050611dd8565b5050509392505050565b600082601f830112611e3c57611e3b611462565b5b8151611e4c848260208601611da0565b91505092915050565b600060208284031215611e6b57611e6a6112fc565b5b600082015167ffffffffffffffff811115611e8957611e88611301565b5b611e9584828501611e27565b91505092915050565b600082825260208201905092915050565b7f496e73757265723a204f6e6c792074686520696e73757265722063616e20636160008201527f6c6c207468697300000000000000000000000000000000000000000000000000602082015250565b6000611f0b602783611e9e565b9150611f1682611eaf565b604082019050919050565b60006020820190508181036000830152611f3a81611efe565b9050919050565b7f496e73756666696369656e742062616c616e6365000000000000000000000000600082015250565b6000611f77601483611e9e565b9150611f8282611f41565b602082019050919050565b60006020820190508181036000830152611fa681611f6a565b9050919050565b611fb681611039565b82525050565b6000602082019050611fd16000830184611fad565b92915050565b600060208284031215611fed57611fec6112fc565b5b600082015167ffffffffffffffff81111561200b5761200a611301565b5b61201784828501611c72565b91505092915050565b600061202b82611052565b6120358185611e9e565b935061204581856020860161106e565b61204e81611098565b840191505092915050565b600060c08201905061206e60008301896117be565b61207b6020830188611fad565b818103604083015261208d8187612020565b905081810360608301526120a18186612020565b905081810360808301526120b58185612020565b90506120c460a0830184611fad565b979650505050505050565b6000602082840312156120e5576120e46112fc565b5b60006120f384828501611bc8565b91505092915050565b600060e0820190508181036000830152612116818a612020565b9050818103602083015261212a8189612020565b90506121396040830188611fad565b6121466060830187611fad565b6121536080830186611fad565b61216060a0830185611fad565b61216d60c0830184611fad565b98975050505050505050565b600060208201905081810360008301526121938184612020565b905092915050565b60006040820190506121b060008301856117be565b6121bd6020830184611fad565b9392505050565b600067ffffffffffffffff8211156121df576121de61146c565b5b602082029050602081019050919050565b6000815190506121ff81611752565b92915050565b6003811061221257600080fd5b50565b60008151905061222481612205565b92915050565b6000610140828403121561224157612240611bbe565b5b61224c6101406114cc565b9050600061225c84828501611bc8565b600083015250602061227084828501611bc8565b602083015250604082015167ffffffffffffffff81111561229457612293611bc3565b5b6122a084828501611c1f565b604083015250606082015167ffffffffffffffff8111156122c4576122c3611bc3565b5b6122d084828501611c1f565b606083015250608082015167ffffffffffffffff8111156122f4576122f3611bc3565b5b61230084828501611c1f565b60808301525060a061231484828501611bc8565b60a08301525060c061232884828501611bc8565b60c08301525060e061233c84828501611bc8565b60e083015250610100612351848285016121f0565b6101008301525061012061236784828501612215565b6101208301525092915050565b6000612387612382846121c4565b6114cc565b905080838252602082019050602084028301858111156123aa576123a9611bb9565b5b835b818110156123f157805167ffffffffffffffff8111156123cf576123ce611462565b5b8086016123dc898261222a565b855260208501945050506020810190506123ac565b5050509392505050565b600082601f8301126124105761240f611462565b5b8151612420848260208601612374565b91505092915050565b60006020828403121561243f5761243e6112fc565b5b600082015167ffffffffffffffff81111561245d5761245c611301565b5b612469848285016123fb565b91505092915050565b60008060408385031215612489576124886112fc565b5b600083015167ffffffffffffffff8111156124a7576124a6611301565b5b6124b38582860161222a565b925050602083015167ffffffffffffffff8111156124d4576124d3611301565b5b6124e085828601611c72565b915050925092905056fea26469706673582212203f5042616aa32a51dd3cf9f938cc86c4bed0fed2acb67f98b5aa28196e34550764736f6c63430008130033",
  "linkReferences": {},
  "deployedLinkReferences": {}
}