{
  "_format": "hh-sol-artifact-1",
  "contractName": "Insurer",
  "sourceName": "contracts/Insurer.sol",
  "abi": [
    {
      "inputs": [
        {
          "internalType": "address",
          "name": "_flightPolicyAddress",
          "type": "address"
        },
        {
          "internalType": "address",
          "name": "_baggagePolicyAddress",
          "type": "address"
        }
      ],
      "stateMutability": "nonpayable",
      "type": "constructor"
    },
    {
      "anonymous": false,
      "inputs": [
        {
          "indexed": true,
          "internalType": "address",
          "name": "buyer",
          "type": "address"
        },
        {
          "indexed": true,
          "internalType": "uint256",
          "name": "policyId",
          "type": "uint256"
        }
      ],
      "name": "BaggagePolicyClaimed",
      "type": "event"
    },
    {
      "anonymous": false,
      "inputs": [
        {
          "indexed": true,
          "internalType": "address",
          "name": "buyer",
          "type": "address"
        },
        {
          "indexed": true,
          "internalType": "uint256",
          "name": "policyId",
          "type": "uint256"
        },
        {
          "indexed": true,
          "internalType": "string",
          "name": "templateId",
          "type": "string"
        }
      ],
      "name": "BaggagePolicyPurchased",
      "type": "event"
    },
    {
      "anonymous": false,
      "inputs": [
        {
          "indexed": true,
          "internalType": "address",
          "name": "buyer",
          "type": "address"
        },
        {
          "indexed": true,
          "internalType": "uint256",
          "name": "policyId",
          "type": "uint256"
        },
        {
          "indexed": true,
          "internalType": "string",
          "name": "templateId",
          "type": "string"
        }
      ],
      "name": "FlightPolicyPurchased",
      "type": "event"
    },
    {
      "anonymous": false,
      "inputs": [
        {
          "indexed": true,
          "internalType": "address",
          "name": "insurer",
          "type": "address"
        },
        {
          "indexed": false,
          "internalType": "uint256",
          "name": "amount",
          "type": "uint256"
        }
      ],
      "name": "FundsDeposited",
      "type": "event"
    },
    {
      "anonymous": false,
      "inputs": [
        {
          "indexed": true,
          "internalType": "address",
          "name": "insurer",
          "type": "address"
        },
        {
          "indexed": false,
          "internalType": "uint256",
          "name": "amount",
          "type": "uint256"
        }
      ],
      "name": "FundsWithdrawn",
      "type": "event"
    },
    {
      "anonymous": false,
      "inputs": [
        {
          "indexed": true,
          "internalType": "uint256",
          "name": "policyId",
          "type": "uint256"
        },
        {
          "indexed": true,
          "internalType": "address",
          "name": "buyer",
          "type": "address"
        },
        {
          "indexed": false,
          "internalType": "uint256",
          "name": "amount",
          "type": "uint256"
        }
      ],
      "name": "PayoutClaimed",
      "type": "event"
    },
    {
      "inputs": [],
      "name": "baggagePolicy",
      "outputs": [
        {
          "internalType": "contract BaggagePolicy",
          "name": "",
          "type": "address"
        }
      ],
      "stateMutability": "view",
      "type": "function"
    },
    {
      "inputs": [
        {
          "internalType": "uint256",
          "name": "policyId",
          "type": "uint256"
        }
      ],
      "name": "claimFlightPayout",
      "outputs": [],
      "stateMutability": "nonpayable",
      "type": "function"
    },
    {
      "inputs": [],
      "name": "deposit",
      "outputs": [],
      "stateMutability": "payable",
      "type": "function"
    },
    {
      "inputs": [],
      "name": "flightPolicy",
      "outputs": [
        {
          "internalType": "contract FlightPolicy",
          "name": "",
          "type": "address"
        }
      ],
      "stateMutability": "view",
      "type": "function"
    },
    {
      "inputs": [
        {
          "internalType": "uint256",
          "name": "currentTime",
          "type": "uint256"
        }
      ],
      "name": "getAllBaggagePolicies",
      "outputs": [
        {
          "components": [
            {
              "internalType": "uint256",
              "name": "policyId",
              "type": "uint256"
            },
            {
              "components": [
                {
                  "internalType": "string",
                  "name": "templateId",
                  "type": "string"
                },
                {
                  "internalType": "string",
                  "name": "name",
                  "type": "string"
                },
                {
                  "internalType": "string",
                  "name": "description",
                  "type": "string"
                },
                {
                  "internalType": "uint256",
                  "name": "createdAt",
                  "type": "uint256"
                },
                {
                  "internalType": "uint256",
                  "name": "updatedAt",
                  "type": "uint256"
                },
                {
                  "internalType": "uint256",
                  "name": "premium",
                  "type": "uint256"
                },
                {
                  "internalType": "uint256",
                  "name": "payoutIfDelayed",
                  "type": "uint256"
                },
                {
                  "internalType": "uint256",
                  "name": "payoutIfLost",
                  "type": "uint256"
                },
                {
                  "internalType": "uint256",
                  "name": "maxTotalPayout",
                  "type": "uint256"
                },
                {
                  "internalType": "uint256",
                  "name": "coverageDurationSeconds",
                  "type": "uint256"
                },
                {
                  "internalType": "enum BaggagePolicy.PolicyTemplateStatus",
                  "name": "status",
                  "type": "uint8"
                }
              ],
              "internalType": "struct BaggagePolicy.PolicyTemplate",
              "name": "template",
              "type": "tuple"
            },
            {
              "internalType": "string",
              "name": "itemDescription",
              "type": "string"
            },
            {
              "internalType": "uint256",
              "name": "createdAt",
              "type": "uint256"
            },
            {
              "internalType": "uint256",
              "name": "payoutToDate",
              "type": "uint256"
            },
            {
              "internalType": "address",
              "name": "buyer",
              "type": "address"
            },
            {
              "internalType": "enum BaggagePolicy.PolicyStatus",
              "name": "status",
              "type": "uint8"
            }
          ],
          "internalType": "struct BaggagePolicy.UserPolicy[]",
          "name": "",
          "type": "tuple[]"
        }
      ],
      "stateMutability": "view",
      "type": "function"
    },
    {
      "inputs": [
        {
          "internalType": "uint256",
          "name": "currentTime",
          "type": "uint256"
        }
      ],
      "name": "getAllFlightPolicies",
      "outputs": [
        {
          "components": [
            {
              "internalType": "uint256",
              "name": "policyId",
              "type": "uint256"
            },
            {
              "components": [
                {
                  "internalType": "string",
                  "name": "templateId",
                  "type": "string"
                },
                {
                  "internalType": "string",
                  "name": "name",
                  "type": "string"
                },
                {
                  "internalType": "string",
                  "name": "description",
                  "type": "string"
                },
                {
                  "internalType": "uint256",
                  "name": "createdAt",
                  "type": "uint256"
                },
                {
                  "internalType": "uint256",
                  "name": "updatedAt",
                  "type": "uint256"
                },
                {
                  "internalType": "uint256",
                  "name": "premium",
                  "type": "uint256"
                },
                {
                  "internalType": "uint256",
                  "name": "payoutPerHour",
                  "type": "uint256"
                },
                {
                  "internalType": "uint256",
                  "name": "delayThresholdHours",
                  "type": "uint256"
                },
                {
                  "internalType": "uint256",
                  "name": "maxTotalPayout",
                  "type": "uint256"
                },
                {
                  "internalType": "uint256",
                  "name": "coverageDurationSeconds",
                  "type": "uint256"
                },
                {
                  "internalType": "enum FlightPolicy.PolicyTemplateStatus",
                  "name": "status",
                  "type": "uint8"
                }
              ],
              "internalType": "struct FlightPolicy.PolicyTemplate",
              "name": "template",
              "type": "tuple"
            },
            {
              "internalType": "string",
              "name": "flightNumber",
              "type": "string"
            },
            {
              "internalType": "string",
              "name": "departureAirportCode",
              "type": "string"
            },
            {
              "internalType": "string",
              "name": "arrivalAirportCode",
              "type": "string"
            },
            {
              "internalType": "uint256",
              "name": "departureTime",
              "type": "uint256"
            },
            {
              "internalType": "uint256",
              "name": "createdAt",
              "type": "uint256"
            },
            {
              "internalType": "uint256",
              "name": "payoutToDate",
              "type": "uint256"
            },
            {
              "internalType": "address",
              "name": "buyer",
              "type": "address"
            },
            {
              "internalType": "enum FlightPolicy.PolicyStatus",
              "name": "status",
              "type": "uint8"
            }
          ],
          "internalType": "struct FlightPolicy.UserPolicy[]",
          "name": "",
          "type": "tuple[]"
        }
      ],
      "stateMutability": "view",
      "type": "function"
    },
    {
      "inputs": [],
      "name": "getContractBalance",
      "outputs": [
        {
          "internalType": "uint256",
          "name": "",
          "type": "uint256"
        }
      ],
      "stateMutability": "view",
      "type": "function"
    },
    {
      "inputs": [
        {
          "internalType": "address",
          "name": "user",
          "type": "address"
        },
        {
          "internalType": "uint256",
          "name": "currentTime",
          "type": "uint256"
        }
      ],
      "name": "getUserBaggagePolicies",
      "outputs": [
        {
          "components": [
            {
              "internalType": "uint256",
              "name": "policyId",
              "type": "uint256"
            },
            {
              "components": [
                {
                  "internalType": "string",
                  "name": "templateId",
                  "type": "string"
                },
                {
                  "internalType": "string",
                  "name": "name",
                  "type": "string"
                },
                {
                  "internalType": "string",
                  "name": "description",
                  "type": "string"
                },
                {
                  "internalType": "uint256",
                  "name": "createdAt",
                  "type": "uint256"
                },
                {
                  "internalType": "uint256",
                  "name": "updatedAt",
                  "type": "uint256"
                },
                {
                  "internalType": "uint256",
                  "name": "premium",
                  "type": "uint256"
                },
                {
                  "internalType": "uint256",
                  "name": "payoutIfDelayed",
                  "type": "uint256"
                },
                {
                  "internalType": "uint256",
                  "name": "payoutIfLost",
                  "type": "uint256"
                },
                {
                  "internalType": "uint256",
                  "name": "maxTotalPayout",
                  "type": "uint256"
                },
                {
                  "internalType": "uint256",
                  "name": "coverageDurationSeconds",
                  "type": "uint256"
                },
                {
                  "internalType": "enum BaggagePolicy.PolicyTemplateStatus",
                  "name": "status",
                  "type": "uint8"
                }
              ],
              "internalType": "struct BaggagePolicy.PolicyTemplate",
              "name": "template",
              "type": "tuple"
            },
            {
              "internalType": "string",
              "name": "itemDescription",
              "type": "string"
            },
            {
              "internalType": "uint256",
              "name": "createdAt",
              "type": "uint256"
            },
            {
              "internalType": "uint256",
              "name": "payoutToDate",
              "type": "uint256"
            },
            {
              "internalType": "address",
              "name": "buyer",
              "type": "address"
            },
            {
              "internalType": "enum BaggagePolicy.PolicyStatus",
              "name": "status",
              "type": "uint8"
            }
          ],
          "internalType": "struct BaggagePolicy.UserPolicy[]",
          "name": "",
          "type": "tuple[]"
        }
      ],
      "stateMutability": "view",
      "type": "function"
    },
    {
      "inputs": [
        {
          "internalType": "string",
          "name": "templateId",
          "type": "string"
        },
        {
          "internalType": "uint256",
          "name": "currentTime",
          "type": "uint256"
        }
      ],
      "name": "getUserBaggagePoliciesByTemplate",
      "outputs": [
        {
          "components": [
            {
              "internalType": "uint256",
              "name": "policyId",
              "type": "uint256"
            },
            {
              "components": [
                {
                  "internalType": "string",
                  "name": "templateId",
                  "type": "string"
                },
                {
                  "internalType": "string",
                  "name": "name",
                  "type": "string"
                },
                {
                  "internalType": "string",
                  "name": "description",
                  "type": "string"
                },
                {
                  "internalType": "uint256",
                  "name": "createdAt",
                  "type": "uint256"
                },
                {
                  "internalType": "uint256",
                  "name": "updatedAt",
                  "type": "uint256"
                },
                {
                  "internalType": "uint256",
                  "name": "premium",
                  "type": "uint256"
                },
                {
                  "internalType": "uint256",
                  "name": "payoutIfDelayed",
                  "type": "uint256"
                },
                {
                  "internalType": "uint256",
                  "name": "payoutIfLost",
                  "type": "uint256"
                },
                {
                  "internalType": "uint256",
                  "name": "maxTotalPayout",
                  "type": "uint256"
                },
                {
                  "internalType": "uint256",
                  "name": "coverageDurationSeconds",
                  "type": "uint256"
                },
                {
                  "internalType": "enum BaggagePolicy.PolicyTemplateStatus",
                  "name": "status",
                  "type": "uint8"
                }
              ],
              "internalType": "struct BaggagePolicy.PolicyTemplate",
              "name": "template",
              "type": "tuple"
            },
            {
              "internalType": "string",
              "name": "itemDescription",
              "type": "string"
            },
            {
              "internalType": "uint256",
              "name": "createdAt",
              "type": "uint256"
            },
            {
              "internalType": "uint256",
              "name": "payoutToDate",
              "type": "uint256"
            },
            {
              "internalType": "address",
              "name": "buyer",
              "type": "address"
            },
            {
              "internalType": "enum BaggagePolicy.PolicyStatus",
              "name": "status",
              "type": "uint8"
            }
          ],
          "internalType": "struct BaggagePolicy.UserPolicy[]",
          "name": "",
          "type": "tuple[]"
        }
      ],
      "stateMutability": "view",
      "type": "function"
    },
    {
      "inputs": [
        {
          "internalType": "address",
          "name": "user",
          "type": "address"
        },
        {
          "internalType": "uint256",
          "name": "currentTime",
          "type": "uint256"
        }
      ],
      "name": "getUserFlightPolicies",
      "outputs": [
        {
          "components": [
            {
              "internalType": "uint256",
              "name": "policyId",
              "type": "uint256"
            },
            {
              "components": [
                {
                  "internalType": "string",
                  "name": "templateId",
                  "type": "string"
                },
                {
                  "internalType": "string",
                  "name": "name",
                  "type": "string"
                },
                {
                  "internalType": "string",
                  "name": "description",
                  "type": "string"
                },
                {
                  "internalType": "uint256",
                  "name": "createdAt",
                  "type": "uint256"
                },
                {
                  "internalType": "uint256",
                  "name": "updatedAt",
                  "type": "uint256"
                },
                {
                  "internalType": "uint256",
                  "name": "premium",
                  "type": "uint256"
                },
                {
                  "internalType": "uint256",
                  "name": "payoutPerHour",
                  "type": "uint256"
                },
                {
                  "internalType": "uint256",
                  "name": "delayThresholdHours",
                  "type": "uint256"
                },
                {
                  "internalType": "uint256",
                  "name": "maxTotalPayout",
                  "type": "uint256"
                },
                {
                  "internalType": "uint256",
                  "name": "coverageDurationSeconds",
                  "type": "uint256"
                },
                {
                  "internalType": "enum FlightPolicy.PolicyTemplateStatus",
                  "name": "status",
                  "type": "uint8"
                }
              ],
              "internalType": "struct FlightPolicy.PolicyTemplate",
              "name": "template",
              "type": "tuple"
            },
            {
              "internalType": "string",
              "name": "flightNumber",
              "type": "string"
            },
            {
              "internalType": "string",
              "name": "departureAirportCode",
              "type": "string"
            },
            {
              "internalType": "string",
              "name": "arrivalAirportCode",
              "type": "string"
            },
            {
              "internalType": "uint256",
              "name": "departureTime",
              "type": "uint256"
            },
            {
              "internalType": "uint256",
              "name": "createdAt",
              "type": "uint256"
            },
            {
              "internalType": "uint256",
              "name": "payoutToDate",
              "type": "uint256"
            },
            {
              "internalType": "address",
              "name": "buyer",
              "type": "address"
            },
            {
              "internalType": "enum FlightPolicy.PolicyStatus",
              "name": "status",
              "type": "uint8"
            }
          ],
          "internalType": "struct FlightPolicy.UserPolicy[]",
          "name": "",
          "type": "tuple[]"
        }
      ],
      "stateMutability": "view",
      "type": "function"
    },
    {
      "inputs": [
        {
          "internalType": "string",
          "name": "templateId",
          "type": "string"
        },
        {
          "internalType": "uint256",
          "name": "currentTime",
          "type": "uint256"
        }
      ],
      "name": "getUserFlightPoliciesByTemplate",
      "outputs": [
        {
          "components": [
            {
              "internalType": "uint256",
              "name": "policyId",
              "type": "uint256"
            },
            {
              "components": [
                {
                  "internalType": "string",
                  "name": "templateId",
                  "type": "string"
                },
                {
                  "internalType": "string",
                  "name": "name",
                  "type": "string"
                },
                {
                  "internalType": "string",
                  "name": "description",
                  "type": "string"
                },
                {
                  "internalType": "uint256",
                  "name": "createdAt",
                  "type": "uint256"
                },
                {
                  "internalType": "uint256",
                  "name": "updatedAt",
                  "type": "uint256"
                },
                {
                  "internalType": "uint256",
                  "name": "premium",
                  "type": "uint256"
                },
                {
                  "internalType": "uint256",
                  "name": "payoutPerHour",
                  "type": "uint256"
                },
                {
                  "internalType": "uint256",
                  "name": "delayThresholdHours",
                  "type": "uint256"
                },
                {
                  "internalType": "uint256",
                  "name": "maxTotalPayout",
                  "type": "uint256"
                },
                {
                  "internalType": "uint256",
                  "name": "coverageDurationSeconds",
                  "type": "uint256"
                },
                {
                  "internalType": "enum FlightPolicy.PolicyTemplateStatus",
                  "name": "status",
                  "type": "uint8"
                }
              ],
              "internalType": "struct FlightPolicy.PolicyTemplate",
              "name": "template",
              "type": "tuple"
            },
            {
              "internalType": "string",
              "name": "flightNumber",
              "type": "string"
            },
            {
              "internalType": "string",
              "name": "departureAirportCode",
              "type": "string"
            },
            {
              "internalType": "string",
              "name": "arrivalAirportCode",
              "type": "string"
            },
            {
              "internalType": "uint256",
              "name": "departureTime",
              "type": "uint256"
            },
            {
              "internalType": "uint256",
              "name": "createdAt",
              "type": "uint256"
            },
            {
              "internalType": "uint256",
              "name": "payoutToDate",
              "type": "uint256"
            },
            {
              "internalType": "address",
              "name": "buyer",
              "type": "address"
            },
            {
              "internalType": "enum FlightPolicy.PolicyStatus",
              "name": "status",
              "type": "uint8"
            }
          ],
          "internalType": "struct FlightPolicy.UserPolicy[]",
          "name": "",
          "type": "tuple[]"
        }
      ],
      "stateMutability": "view",
      "type": "function"
    },
    {
      "inputs": [],
      "name": "insurerAddress",
      "outputs": [
        {
          "internalType": "address",
          "name": "",
          "type": "address"
        }
      ],
      "stateMutability": "view",
      "type": "function"
    },
    {
      "inputs": [
        {
          "components": [
            {
              "internalType": "string",
              "name": "templateId",
              "type": "string"
            },
            {
              "internalType": "string",
              "name": "name",
              "type": "string"
            },
            {
              "internalType": "string",
              "name": "description",
              "type": "string"
            },
            {
              "internalType": "uint256",
              "name": "createdAt",
              "type": "uint256"
            },
            {
              "internalType": "uint256",
              "name": "updatedAt",
              "type": "uint256"
            },
            {
              "internalType": "uint256",
              "name": "premium",
              "type": "uint256"
            },
            {
              "internalType": "uint256",
              "name": "payoutIfDelayed",
              "type": "uint256"
            },
            {
              "internalType": "uint256",
              "name": "payoutIfLost",
              "type": "uint256"
            },
            {
              "internalType": "uint256",
              "name": "maxTotalPayout",
              "type": "uint256"
            },
            {
              "internalType": "uint256",
              "name": "coverageDurationSeconds",
              "type": "uint256"
            },
            {
              "internalType": "enum BaggagePolicy.PolicyTemplateStatus",
              "name": "status",
              "type": "uint8"
            }
          ],
          "internalType": "struct BaggagePolicy.PolicyTemplate[]",
          "name": "templates",
          "type": "tuple[]"
        },
        {
          "internalType": "uint256",
          "name": "currentTime",
          "type": "uint256"
        }
      ],
      "name": "isBaggagePolicyAllowedForPurchase",
      "outputs": [
        {
          "internalType": "bool[]",
          "name": "",
          "type": "bool[]"
        }
      ],
      "stateMutability": "view",
      "type": "function"
    },
    {
      "inputs": [
        {
          "components": [
            {
              "internalType": "string",
              "name": "templateId",
              "type": "string"
            },
            {
              "internalType": "string",
              "name": "name",
              "type": "string"
            },
            {
              "internalType": "string",
              "name": "description",
              "type": "string"
            },
            {
              "internalType": "uint256",
              "name": "createdAt",
              "type": "uint256"
            },
            {
              "internalType": "uint256",
              "name": "updatedAt",
              "type": "uint256"
            },
            {
              "internalType": "uint256",
              "name": "premium",
              "type": "uint256"
            },
            {
              "internalType": "uint256",
              "name": "payoutPerHour",
              "type": "uint256"
            },
            {
              "internalType": "uint256",
              "name": "delayThresholdHours",
              "type": "uint256"
            },
            {
              "internalType": "uint256",
              "name": "maxTotalPayout",
              "type": "uint256"
            },
            {
              "internalType": "uint256",
              "name": "coverageDurationSeconds",
              "type": "uint256"
            },
            {
              "internalType": "enum FlightPolicy.PolicyTemplateStatus",
              "name": "status",
              "type": "uint8"
            }
          ],
          "internalType": "struct FlightPolicy.PolicyTemplate[]",
          "name": "templates",
          "type": "tuple[]"
        },
        {
          "internalType": "uint256",
          "name": "currentTime",
          "type": "uint256"
        }
      ],
      "name": "isFlightPolicyAllowedForPurchase",
      "outputs": [
        {
          "internalType": "bool[]",
          "name": "",
          "type": "bool[]"
        }
      ],
      "stateMutability": "view",
      "type": "function"
    },
    {
      "inputs": [
        {
          "internalType": "address",
          "name": "user",
          "type": "address"
        }
      ],
      "name": "isInsurer",
      "outputs": [
        {
          "internalType": "bool",
          "name": "",
          "type": "bool"
        }
      ],
      "stateMutability": "view",
      "type": "function"
    },
    {
      "inputs": [
        {
          "internalType": "uint256",
          "name": "policyId",
          "type": "uint256"
        }
      ],
      "name": "markBaggagePolicyAsExpired",
      "outputs": [],
      "stateMutability": "nonpayable",
      "type": "function"
    },
    {
      "inputs": [
        {
          "components": [
            {
              "internalType": "string",
              "name": "templateId",
              "type": "string"
            },
            {
              "internalType": "string",
              "name": "name",
              "type": "string"
            },
            {
              "internalType": "string",
              "name": "description",
              "type": "string"
            },
            {
              "internalType": "uint256",
              "name": "createdAt",
              "type": "uint256"
            },
            {
              "internalType": "uint256",
              "name": "updatedAt",
              "type": "uint256"
            },
            {
              "internalType": "uint256",
              "name": "premium",
              "type": "uint256"
            },
            {
              "internalType": "uint256",
              "name": "payoutIfDelayed",
              "type": "uint256"
            },
            {
              "internalType": "uint256",
              "name": "payoutIfLost",
              "type": "uint256"
            },
            {
              "internalType": "uint256",
              "name": "maxTotalPayout",
              "type": "uint256"
            },
            {
              "internalType": "uint256",
              "name": "coverageDurationSeconds",
              "type": "uint256"
            },
            {
              "internalType": "enum BaggagePolicy.PolicyTemplateStatus",
              "name": "status",
              "type": "uint8"
            }
          ],
          "internalType": "struct BaggagePolicy.PolicyTemplate",
          "name": "template",
          "type": "tuple"
        },
        {
          "internalType": "string",
          "name": "itemDescription",
          "type": "string"
        },
        {
          "internalType": "uint256",
          "name": "currentTime",
          "type": "uint256"
        }
      ],
      "name": "purchaseBaggagePolicy",
      "outputs": [],
      "stateMutability": "payable",
      "type": "function"
    },
    {
      "inputs": [
        {
          "components": [
            {
              "internalType": "string",
              "name": "templateId",
              "type": "string"
            },
            {
              "internalType": "string",
              "name": "name",
              "type": "string"
            },
            {
              "internalType": "string",
              "name": "description",
              "type": "string"
            },
            {
              "internalType": "uint256",
              "name": "createdAt",
              "type": "uint256"
            },
            {
              "internalType": "uint256",
              "name": "updatedAt",
              "type": "uint256"
            },
            {
              "internalType": "uint256",
              "name": "premium",
              "type": "uint256"
            },
            {
              "internalType": "uint256",
              "name": "payoutPerHour",
              "type": "uint256"
            },
            {
              "internalType": "uint256",
              "name": "delayThresholdHours",
              "type": "uint256"
            },
            {
              "internalType": "uint256",
              "name": "maxTotalPayout",
              "type": "uint256"
            },
            {
              "internalType": "uint256",
              "name": "coverageDurationSeconds",
              "type": "uint256"
            },
            {
              "internalType": "enum FlightPolicy.PolicyTemplateStatus",
              "name": "status",
              "type": "uint8"
            }
          ],
          "internalType": "struct FlightPolicy.PolicyTemplate",
          "name": "template",
          "type": "tuple"
        },
        {
          "internalType": "string",
          "name": "flightNumber",
          "type": "string"
        },
        {
          "internalType": "string",
          "name": "departureAirportCode",
          "type": "string"
        },
        {
          "internalType": "string",
          "name": "arrivalAirportCode",
          "type": "string"
        },
        {
          "internalType": "uint256",
          "name": "departureTime",
          "type": "uint256"
        },
        {
          "internalType": "uint256",
          "name": "currentTime",
          "type": "uint256"
        }
      ],
      "name": "purchaseFlightPolicy",
      "outputs": [],
      "stateMutability": "payable",
      "type": "function"
    },
    {
      "inputs": [
        {
          "internalType": "uint256",
          "name": "amountInWei",
          "type": "uint256"
        }
      ],
      "name": "withdraw",
      "outputs": [],
      "stateMutability": "nonpayable",
      "type": "function"
    },
    {
      "stateMutability": "payable",
      "type": "receive"
    }
  ],
  "bytecode": "0x60a06040523480156200001157600080fd5b506040516200419f3803806200419f83398181016040528101906200003791906200015e565b3373ffffffffffffffffffffffffffffffffffffffff1660808173ffffffffffffffffffffffffffffffffffffffff1681525050816000806101000a81548173ffffffffffffffffffffffffffffffffffffffff021916908373ffffffffffffffffffffffffffffffffffffffff16021790555080600160006101000a81548173ffffffffffffffffffffffffffffffffffffffff021916908373ffffffffffffffffffffffffffffffffffffffff1602179055505050620001a5565b600080fd5b600073ffffffffffffffffffffffffffffffffffffffff82169050919050565b60006200012682620000f9565b9050919050565b620001388162000119565b81146200014457600080fd5b50565b60008151905062000158816200012d565b92915050565b60008060408385031215620001785762000177620000f4565b5b6000620001888582860162000147565b92505060206200019b8582860162000147565b9150509250929050565b608051613f9862000207600039600081816107d9015281816108aa0152818161091101528181610a2f01528181610b4f01528181610da201528181610f85015281816111cf015281816112a00152818161131201526113900152613f986000f3fe6080604052600436106101185760003560e01c8063a7c0900e116100a0578063da7897e211610064578063da7897e2146103b4578063f368bc27146103f1578063fca1ecdb1461041c578063fdae7ad114610459578063fe532a37146104965761011f565b8063a7c0900e146102e9578063ae6feff414610314578063c1ec399214610330578063ca155a1b1461036d578063d0e30db0146103aa5761011f565b80633f60875d116100e75780633f60875d146101de578063516f92f71461021b5780636f9fb98a14610244578063757ae1ba1461026f5780637d9d7b9a146102ac5761011f565b806307116510146101245780632377cd1e1461014f578063260d47c51461018c5780632e1a7d4d146101b55761011f565b3661011f57005b600080fd5b34801561013057600080fd5b506101396104b2565b6040516101469190611b77565b60405180910390f35b34801561015b57600080fd5b5061017660048036038101906101719190611c1a565b6104d6565b6040516101839190612029565b60405180910390f35b34801561019857600080fd5b506101b360048036038101906101ae919061204b565b610583565b005b3480156101c157600080fd5b506101dc60048036038101906101d7919061204b565b6107d7565b005b3480156101ea57600080fd5b50610205600480360381019061020091906121ad565b610980565b6040516102129190612029565b60405180910390f35b34801561022757600080fd5b50610242600480360381019061023d919061204b565b610a2d565b005b34801561025057600080fd5b50610259610b4b565b6040516102669190612218565b60405180910390f35b34801561027b57600080fd5b5061029660048036038101906102919190611c1a565b610be1565b6040516102a39190612571565b60405180910390f35b3480156102b857600080fd5b506102d360048036038101906102ce9190612808565b610c8c565b6040516102e0919061292e565b60405180910390f35b3480156102f557600080fd5b506102fe610da0565b60405161030b919061295f565b60405180910390f35b61032e6004803603810190610329919061297a565b610dc4565b005b34801561033c57600080fd5b506103576004803603810190610352919061204b565b610f81565b6040516103649190612029565b60405180910390f35b34801561037957600080fd5b50610394600480360381019061038f9190612cdd565b6110b9565b6040516103a1919061292e565b60405180910390f35b6103b26111cd565b005b3480156103c057600080fd5b506103db60048036038101906103d69190612d39565b61130e565b6040516103e89190612d75565b60405180910390f35b3480156103fd57600080fd5b50610406611366565b6040516104139190612db1565b60405180910390f35b34801561042857600080fd5b50610443600480360381019061043e919061204b565b61138c565b6040516104509190612571565b60405180910390f35b34801561046557600080fd5b50610480600480360381019061047b91906121ad565b6114c2565b60405161048d9190612571565b60405180910390f35b6104b060048036038101906104ab9190612dcc565b61156d565b005b60008054906101000a900473ffffffffffffffffffffffffffffffffffffffff1681565b6060600160009054906101000a900473ffffffffffffffffffffffffffffffffffffffff1673ffffffffffffffffffffffffffffffffffffffff1663642bb92584846040518363ffffffff1660e01b8152600401610535929190612e57565b600060405180830381865afa158015610552573d6000803e3d6000fd5b505050506040513d6000823e3d601f19601f8201168201806040525081019061057b9190613281565b905092915050565b60008060008054906101000a900473ffffffffffffffffffffffffffffffffffffffff1673ffffffffffffffffffffffffffffffffffffffff1663b0110cc684336040518363ffffffff1660e01b81526004016105e19291906132ca565b6000604051808303816000875af1158015610600573d6000803e3d6000fd5b505050506040513d6000823e3d601f19601f8201168201806040525081019061062991906135f3565b9150915081471015610670576040517f08c379a0000000000000000000000000000000000000000000000000000000008152600401610667906136ac565b60405180910390fd5b6106af6040518060400160405280600e81526020017f6166746572207061796f75743a20000000000000000000000000000000000000815250836116dc565b6106f36040518060400160405280600781526020017f62757965723a2000000000000000000000000000000000000000000000000000815250826101000151611778565b6107326040518060400160405280601581526020017f616464726573732874686973292e62616c616e63650000000000000000000000815250476116dc565b80610100015173ffffffffffffffffffffffffffffffffffffffff166108fc839081150290604051600060405180830381858888f1935050505015801561077d573d6000803e3d6000fd5b5080610100015173ffffffffffffffffffffffffffffffffffffffff16837fe97cee5a4c0549d3fdc81e322b718ddf0aeb3418ec87dce4f9a7fb28d117c312846040516107ca9190612218565b60405180910390a3505050565b7f000000000000000000000000000000000000000000000000000000000000000073ffffffffffffffffffffffffffffffffffffffff163373ffffffffffffffffffffffffffffffffffffffff1614610865576040517f08c379a000000000000000000000000000000000000000000000000000000000815260040161085c9061373e565b60405180910390fd5b804710156108a8576040517f08c379a000000000000000000000000000000000000000000000000000000000815260040161089f906137aa565b60405180910390fd5b7f000000000000000000000000000000000000000000000000000000000000000073ffffffffffffffffffffffffffffffffffffffff166108fc829081150290604051600060405180830381858888f1935050505015801561090e573d6000803e3d6000fd5b507f000000000000000000000000000000000000000000000000000000000000000073ffffffffffffffffffffffffffffffffffffffff167feaff4b37086828766ad3268786972c0cd24259d4c87a80f9d3963a3c3d999b0d826040516109759190612218565b60405180910390a250565b6060600160009054906101000a900473ffffffffffffffffffffffffffffffffffffffff1673ffffffffffffffffffffffffffffffffffffffff1663c52eaa4084846040518363ffffffff1660e01b81526004016109df929190613803565b600060405180830381865afa1580156109fc573d6000803e3d6000fd5b505050506040513d6000823e3d601f19601f82011682018060405250810190610a259190613281565b905092915050565b7f000000000000000000000000000000000000000000000000000000000000000073ffffffffffffffffffffffffffffffffffffffff163373ffffffffffffffffffffffffffffffffffffffff1614610abb576040517f08c379a0000000000000000000000000000000000000000000000000000000008152600401610ab29061373e565b60405180910390fd5b600160009054906101000a900473ffffffffffffffffffffffffffffffffffffffff1673ffffffffffffffffffffffffffffffffffffffff1663cf39c624826040518263ffffffff1660e01b8152600401610b169190612218565b600060405180830381600087803b158015610b3057600080fd5b505af1158015610b44573d6000803e3d6000fd5b5050505050565b60007f000000000000000000000000000000000000000000000000000000000000000073ffffffffffffffffffffffffffffffffffffffff163373ffffffffffffffffffffffffffffffffffffffff1614610bdb576040517f08c379a0000000000000000000000000000000000000000000000000000000008152600401610bd29061373e565b60405180910390fd5b47905090565b606060008054906101000a900473ffffffffffffffffffffffffffffffffffffffff1673ffffffffffffffffffffffffffffffffffffffff1663642bb92584846040518363ffffffff1660e01b8152600401610c3e929190612e57565b600060405180830381865afa158015610c5b573d6000803e3d6000fd5b505050506040513d6000823e3d601f19601f82011682018060405250810190610c849190613914565b905092915050565b60606000835167ffffffffffffffff811115610cab57610caa612082565b5b604051908082528060200260200182016040528015610cd95781602001602082028036833780820191505090505b5090506000610ce784611814565b905060005b8551811015610d94576000868281518110610d0a57610d0961395d565b5b6020026020010151610100015183610d2291906139bb565b905047811115610d58576000848381518110610d4157610d4061395d565b5b602002602001019015159081151581525050610d80565b6001848381518110610d6d57610d6c61395d565b5b6020026020010190151590811515815250505b508080610d8c906139ef565b915050610cec565b50819250505092915050565b7f000000000000000000000000000000000000000000000000000000000000000081565b6000610dcf82611814565b905086610100015181610de291906139bb565b905047811115610e27576040517f08c379a0000000000000000000000000000000000000000000000000000000008152600401610e1e90613aa9565b60405180910390fd5b8660a00151341015610e6e576040517f08c379a0000000000000000000000000000000000000000000000000000000008152600401610e6590613b15565b60405180910390fd5b60008060009054906101000a900473ffffffffffffffffffffffffffffffffffffffff1673ffffffffffffffffffffffffffffffffffffffff166331953ecc8989898989336040518763ffffffff1660e01b8152600401610ed496959493929190613c32565b6020604051808303816000875af1158015610ef3573d6000803e3d6000fd5b505050506040513d601f19601f82011682018060405250810190610f179190613caf565b90508760000151604051610f2b9190613d18565b6040518091039020813373ffffffffffffffffffffffffffffffffffffffff167f43617ea01c45d3386d7be4a6cb66bf94c0152a674cbd34a5de81ed135dfd7b1760405160405180910390a45050505050505050565b60607f000000000000000000000000000000000000000000000000000000000000000073ffffffffffffffffffffffffffffffffffffffff163373ffffffffffffffffffffffffffffffffffffffff1614611011576040517f08c379a00000000000000000000000000000000000000000000000000000000081526004016110089061373e565b60405180910390fd5b600160009054906101000a900473ffffffffffffffffffffffffffffffffffffffff1673ffffffffffffffffffffffffffffffffffffffff166364b72a65836040518263ffffffff1660e01b815260040161106c9190612218565b600060405180830381865afa158015611089573d6000803e3d6000fd5b505050506040513d6000823e3d601f19601f820116820180604052508101906110b29190613281565b9050919050565b60606000835167ffffffffffffffff8111156110d8576110d7612082565b5b6040519080825280602002602001820160405280156111065781602001602082028036833780820191505090505b509050600061111484611814565b905060005b85518110156111c15760008682815181106111375761113661395d565b5b602002602001015161010001518361114f91906139bb565b90504781111561118557600084838151811061116e5761116d61395d565b5b6020026020010190151590811515815250506111ad565b600184838151811061119a5761119961395d565b5b6020026020010190151590811515815250505b5080806111b9906139ef565b915050611119565b50819250505092915050565b7f000000000000000000000000000000000000000000000000000000000000000073ffffffffffffffffffffffffffffffffffffffff163373ffffffffffffffffffffffffffffffffffffffff161461125b576040517f08c379a00000000000000000000000000000000000000000000000000000000081526004016112529061373e565b60405180910390fd5b6000341161129e576040517f08c379a000000000000000000000000000000000000000000000000000000000815260040161129590613da1565b60405180910390fd5b7f000000000000000000000000000000000000000000000000000000000000000073ffffffffffffffffffffffffffffffffffffffff167f543ba50a5eec5e6178218e364b1d0f396157b3c8fa278522c2cb7fd99407d474346040516113049190612218565b60405180910390a2565b60007f000000000000000000000000000000000000000000000000000000000000000073ffffffffffffffffffffffffffffffffffffffff168273ffffffffffffffffffffffffffffffffffffffff16149050919050565b600160009054906101000a900473ffffffffffffffffffffffffffffffffffffffff1681565b60607f000000000000000000000000000000000000000000000000000000000000000073ffffffffffffffffffffffffffffffffffffffff163373ffffffffffffffffffffffffffffffffffffffff161461141c576040517f08c379a00000000000000000000000000000000000000000000000000000000081526004016114139061373e565b60405180910390fd5b60008054906101000a900473ffffffffffffffffffffffffffffffffffffffff1673ffffffffffffffffffffffffffffffffffffffff166364b72a65836040518263ffffffff1660e01b81526004016114759190612218565b600060405180830381865afa158015611492573d6000803e3d6000fd5b505050506040513d6000823e3d601f19601f820116820180604052508101906114bb9190613914565b9050919050565b606060008054906101000a900473ffffffffffffffffffffffffffffffffffffffff1673ffffffffffffffffffffffffffffffffffffffff1663c52eaa4084846040518363ffffffff1660e01b815260040161151f929190613803565b600060405180830381865afa15801561153c573d6000803e3d6000fd5b505050506040513d6000823e3d601f19601f820116820180604052508101906115659190613914565b905092915050565b600061157882611814565b90508361010001518161158b91906139bb565b9050478111156115d0576040517f08c379a00000000000000000000000000000000000000000000000000000000081526004016115c790613aa9565b60405180910390fd5b6000600160009054906101000a900473ffffffffffffffffffffffffffffffffffffffff1673ffffffffffffffffffffffffffffffffffffffff1663e0516149348787336040518563ffffffff1660e01b815260040161163293929190613ebe565b60206040518083038185885af1158015611650573d6000803e3d6000fd5b50505050506040513d601f19601f820116820180604052508101906116759190613caf565b905084600001516040516116899190613d18565b6040518091039020813373ffffffffffffffffffffffffffffffffffffffff167fd3ad849e96e45902e7d1f5bd084268392ad649bd4509857dbfd40ceb536aef3860405160405180910390a45050505050565b61177482826040516024016116f2929190613803565b6040516020818303038152906040527fb60e72cc000000000000000000000000000000000000000000000000000000007bffffffffffffffffffffffffffffffffffffffffffffffffffffffff19166020820180517bffffffffffffffffffffffffffffffffffffffffffffffffffffffff8381831617835250505050611aa8565b5050565b611810828260405160240161178e929190613f03565b6040516020818303038152906040527f319af333000000000000000000000000000000000000000000000000000000007bffffffffffffffffffffffffffffffffffffffffffffffffffffffff19166020820180517bffffffffffffffffffffffffffffffffffffffffffffffffffffffff8381831617835250505050611aa8565b5050565b6000806000905060008060009054906101000a900473ffffffffffffffffffffffffffffffffffffffff1673ffffffffffffffffffffffffffffffffffffffff166364b72a65856040518263ffffffff1660e01b81526004016118779190612218565b600060405180830381865afa158015611894573d6000803e3d6000fd5b505050506040513d6000823e3d601f19601f820116820180604052508101906118bd9190613914565b90506000600160009054906101000a900473ffffffffffffffffffffffffffffffffffffffff1673ffffffffffffffffffffffffffffffffffffffff166364b72a65866040518263ffffffff1660e01b815260040161191c9190612218565b600060405180830381865afa158015611939573d6000803e3d6000fd5b505050506040513d6000823e3d601f19601f820116820180604052508101906119629190613281565b905060005b8251811015611a00576000600281111561198457611983611d25565b5b8382815181106119975761199661395d565b5b6020026020010151610120015160028111156119b6576119b5611d25565b5b036119ed578281815181106119ce576119cd61395d565b5b6020026020010151602001516101000151846119ea91906139bb565b93505b80806119f8906139ef565b915050611967565b5060005b8151811015611a9c5760006002811115611a2157611a20611d25565b5b828281518110611a3457611a3361395d565b5b602002602001015160c001516002811115611a5257611a51611d25565b5b03611a8957818181518110611a6a57611a6961395d565b5b602002602001015160200151610100015184611a8691906139bb565b93505b8080611a94906139ef565b915050611a04565b50829350505050919050565b611abf81611ab7611ac2611ae3565b63ffffffff16565b50565b60006a636f6e736f6c652e6c6f679050600080835160208501845afa505050565b611aee819050919050565b611af6613f33565b565b600073ffffffffffffffffffffffffffffffffffffffff82169050919050565b6000819050919050565b6000611b3d611b38611b3384611af8565b611b18565b611af8565b9050919050565b6000611b4f82611b22565b9050919050565b6000611b6182611b44565b9050919050565b611b7181611b56565b82525050565b6000602082019050611b8c6000830184611b68565b92915050565b6000604051905090565b600080fd5b600080fd5b6000611bb182611af8565b9050919050565b611bc181611ba6565b8114611bcc57600080fd5b50565b600081359050611bde81611bb8565b92915050565b6000819050919050565b611bf781611be4565b8114611c0257600080fd5b50565b600081359050611c1481611bee565b92915050565b60008060408385031215611c3157611c30611b9c565b5b6000611c3f85828601611bcf565b9250506020611c5085828601611c05565b9150509250929050565b600081519050919050565b600082825260208201905092915050565b6000819050602082019050919050565b611c8f81611be4565b82525050565b600081519050919050565b600082825260208201905092915050565b60005b83811015611ccf578082015181840152602081019050611cb4565b60008484015250505050565b6000601f19601f8301169050919050565b6000611cf782611c95565b611d018185611ca0565b9350611d11818560208601611cb1565b611d1a81611cdb565b840191505092915050565b7f4e487b7100000000000000000000000000000000000000000000000000000000600052602160045260246000fd5b60028110611d6557611d64611d25565b5b50565b6000819050611d7682611d54565b919050565b6000611d8682611d68565b9050919050565b611d9681611d7b565b82525050565b6000610160830160008301518482036000860152611dba8282611cec565b91505060208301518482036020860152611dd48282611cec565b91505060408301518482036040860152611dee8282611cec565b9150506060830151611e036060860182611c86565b506080830151611e166080860182611c86565b5060a0830151611e2960a0860182611c86565b5060c0830151611e3c60c0860182611c86565b5060e0830151611e4f60e0860182611c86565b50610100830151611e64610100860182611c86565b50610120830151611e79610120860182611c86565b50610140830151611e8e610140860182611d8d565b508091505092915050565b611ea281611ba6565b82525050565b60038110611eb957611eb8611d25565b5b50565b6000819050611eca82611ea8565b919050565b6000611eda82611ebc565b9050919050565b611eea81611ecf565b82525050565b600060e083016000830151611f086000860182611c86565b5060208301518482036020860152611f208282611d9c565b91505060408301518482036040860152611f3a8282611cec565b9150506060830151611f4f6060860182611c86565b506080830151611f626080860182611c86565b5060a0830151611f7560a0860182611e99565b5060c0830151611f8860c0860182611ee1565b508091505092915050565b6000611f9f8383611ef0565b905092915050565b6000602082019050919050565b6000611fbf82611c5a565b611fc98185611c65565b935083602082028501611fdb85611c76565b8060005b858110156120175784840389528151611ff88582611f93565b945061200383611fa7565b925060208a01995050600181019050611fdf565b50829750879550505050505092915050565b600060208201905081810360008301526120438184611fb4565b905092915050565b60006020828403121561206157612060611b9c565b5b600061206f84828501611c05565b91505092915050565b600080fd5b600080fd5b7f4e487b7100000000000000000000000000000000000000000000000000000000600052604160045260246000fd5b6120ba82611cdb565b810181811067ffffffffffffffff821117156120d9576120d8612082565b5b80604052505050565b60006120ec611b92565b90506120f882826120b1565b919050565b600067ffffffffffffffff82111561211857612117612082565b5b61212182611cdb565b9050602081019050919050565b82818337600083830152505050565b600061215061214b846120fd565b6120e2565b90508281526020810184848401111561216c5761216b61207d565b5b61217784828561212e565b509392505050565b600082601f83011261219457612193612078565b5b81356121a484826020860161213d565b91505092915050565b600080604083850312156121c4576121c3611b9c565b5b600083013567ffffffffffffffff8111156121e2576121e1611ba1565b5b6121ee8582860161217f565b92505060206121ff85828601611c05565b9150509250929050565b61221281611be4565b82525050565b600060208201905061222d6000830184612209565b92915050565b600081519050919050565b600082825260208201905092915050565b6000819050602082019050919050565b600281106122705761226f611d25565b5b50565b60008190506122818261225f565b919050565b600061229182612273565b9050919050565b6122a181612286565b82525050565b60006101608301600083015184820360008601526122c58282611cec565b915050602083015184820360208601526122df8282611cec565b915050604083015184820360408601526122f98282611cec565b915050606083015161230e6060860182611c86565b5060808301516123216080860182611c86565b5060a083015161233460a0860182611c86565b5060c083015161234760c0860182611c86565b5060e083015161235a60e0860182611c86565b5061010083015161236f610100860182611c86565b50610120830151612384610120860182611c86565b50610140830151612399610140860182612298565b508091505092915050565b600381106123b5576123b4611d25565b5b50565b60008190506123c6826123a4565b919050565b60006123d6826123b8565b9050919050565b6123e6816123cb565b82525050565b6000610140830160008301516124056000860182611c86565b506020830151848203602086015261241d82826122a7565b915050604083015184820360408601526124378282611cec565b915050606083015184820360608601526124518282611cec565b9150506080830151848203608086015261246b8282611cec565b91505060a083015161248060a0860182611c86565b5060c083015161249360c0860182611c86565b5060e08301516124a660e0860182611c86565b506101008301516124bb610100860182611e99565b506101208301516124d06101208601826123dd565b508091505092915050565b60006124e783836123ec565b905092915050565b6000602082019050919050565b600061250782612233565b612511818561223e565b9350836020820285016125238561224f565b8060005b8581101561255f578484038952815161254085826124db565b945061254b836124ef565b925060208a01995050600181019050612527565b50829750879550505050505092915050565b6000602082019050818103600083015261258b81846124fc565b905092915050565b600067ffffffffffffffff8211156125ae576125ad612082565b5b602082029050602081019050919050565b600080fd5b600080fd5b600080fd5b600281106125db57600080fd5b50565b6000813590506125ed816125ce565b92915050565b6000610160828403121561260a576126096125c4565b5b6126156101606120e2565b9050600082013567ffffffffffffffff811115612635576126346125c9565b5b6126418482850161217f565b600083015250602082013567ffffffffffffffff811115612665576126646125c9565b5b6126718482850161217f565b602083015250604082013567ffffffffffffffff811115612695576126946125c9565b5b6126a18482850161217f565b60408301525060606126b584828501611c05565b60608301525060806126c984828501611c05565b60808301525060a06126dd84828501611c05565b60a08301525060c06126f184828501611c05565b60c08301525060e061270584828501611c05565b60e08301525061010061271a84828501611c05565b6101008301525061012061273084828501611c05565b61012083015250610140612746848285016125de565b6101408301525092915050565b600061276661276184612593565b6120e2565b90508083825260208201905060208402830185811115612789576127886125bf565b5b835b818110156127d057803567ffffffffffffffff8111156127ae576127ad612078565b5b8086016127bb89826125f3565b8552602085019450505060208101905061278b565b5050509392505050565b600082601f8301126127ef576127ee612078565b5b81356127ff848260208601612753565b91505092915050565b6000806040838503121561281f5761281e611b9c565b5b600083013567ffffffffffffffff81111561283d5761283c611ba1565b5b612849858286016127da565b925050602061285a85828601611c05565b9150509250929050565b600081519050919050565b600082825260208201905092915050565b6000819050602082019050919050565b60008115159050919050565b6128a581612890565b82525050565b60006128b7838361289c565b60208301905092915050565b6000602082019050919050565b60006128db82612864565b6128e5818561286f565b93506128f083612880565b8060005b8381101561292157815161290888826128ab565b9750612913836128c3565b9250506001810190506128f4565b5085935050505092915050565b6000602082019050818103600083015261294881846128d0565b905092915050565b61295981611ba6565b82525050565b60006020820190506129746000830184612950565b92915050565b60008060008060008060c0878903121561299757612996611b9c565b5b600087013567ffffffffffffffff8111156129b5576129b4611ba1565b5b6129c189828a016125f3565b965050602087013567ffffffffffffffff8111156129e2576129e1611ba1565b5b6129ee89828a0161217f565b955050604087013567ffffffffffffffff811115612a0f57612a0e611ba1565b5b612a1b89828a0161217f565b945050606087013567ffffffffffffffff811115612a3c57612a3b611ba1565b5b612a4889828a0161217f565b9350506080612a5989828a01611c05565b92505060a0612a6a89828a01611c05565b9150509295509295509295565b600067ffffffffffffffff821115612a9257612a91612082565b5b602082029050602081019050919050565b60028110612ab057600080fd5b50565b600081359050612ac281612aa3565b92915050565b60006101608284031215612adf57612ade6125c4565b5b612aea6101606120e2565b9050600082013567ffffffffffffffff811115612b0a57612b096125c9565b5b612b168482850161217f565b600083015250602082013567ffffffffffffffff811115612b3a57612b396125c9565b5b612b468482850161217f565b602083015250604082013567ffffffffffffffff811115612b6a57612b696125c9565b5b612b768482850161217f565b6040830152506060612b8a84828501611c05565b6060830152506080612b9e84828501611c05565b60808301525060a0612bb284828501611c05565b60a08301525060c0612bc684828501611c05565b60c08301525060e0612bda84828501611c05565b60e083015250610100612bef84828501611c05565b61010083015250610120612c0584828501611c05565b61012083015250610140612c1b84828501612ab3565b6101408301525092915050565b6000612c3b612c3684612a77565b6120e2565b90508083825260208201905060208402830185811115612c5e57612c5d6125bf565b5b835b81811015612ca557803567ffffffffffffffff811115612c8357612c82612078565b5b808601612c908982612ac8565b85526020850194505050602081019050612c60565b5050509392505050565b600082601f830112612cc457612cc3612078565b5b8135612cd4848260208601612c28565b91505092915050565b60008060408385031215612cf457612cf3611b9c565b5b600083013567ffffffffffffffff811115612d1257612d11611ba1565b5b612d1e85828601612caf565b9250506020612d2f85828601611c05565b9150509250929050565b600060208284031215612d4f57612d4e611b9c565b5b6000612d5d84828501611bcf565b91505092915050565b612d6f81612890565b82525050565b6000602082019050612d8a6000830184612d66565b92915050565b6000612d9b82611b44565b9050919050565b612dab81612d90565b82525050565b6000602082019050612dc66000830184612da2565b92915050565b600080600060608486031215612de557612de4611b9c565b5b600084013567ffffffffffffffff811115612e0357612e02611ba1565b5b612e0f86828701612ac8565b935050602084013567ffffffffffffffff811115612e3057612e2f611ba1565b5b612e3c8682870161217f565b9250506040612e4d86828701611c05565b9150509250925092565b6000604082019050612e6c6000830185612950565b612e796020830184612209565b9392505050565b600067ffffffffffffffff821115612e9b57612e9a612082565b5b602082029050602081019050919050565b600081519050612ebb81611bee565b92915050565b6000612ed4612ecf846120fd565b6120e2565b905082815260208101848484011115612ef057612eef61207d565b5b612efb848285611cb1565b509392505050565b600082601f830112612f1857612f17612078565b5b8151612f28848260208601612ec1565b91505092915050565b600081519050612f4081612aa3565b92915050565b60006101608284031215612f5d57612f5c6125c4565b5b612f686101606120e2565b9050600082015167ffffffffffffffff811115612f8857612f876125c9565b5b612f9484828501612f03565b600083015250602082015167ffffffffffffffff811115612fb857612fb76125c9565b5b612fc484828501612f03565b602083015250604082015167ffffffffffffffff811115612fe857612fe76125c9565b5b612ff484828501612f03565b604083015250606061300884828501612eac565b606083015250608061301c84828501612eac565b60808301525060a061303084828501612eac565b60a08301525060c061304484828501612eac565b60c08301525060e061305884828501612eac565b60e08301525061010061306d84828501612eac565b6101008301525061012061308384828501612eac565b6101208301525061014061309984828501612f31565b6101408301525092915050565b6000815190506130b581611bb8565b92915050565b600381106130c857600080fd5b50565b6000815190506130da816130bb565b92915050565b600060e082840312156130f6576130f56125c4565b5b61310060e06120e2565b9050600061311084828501612eac565b600083015250602082015167ffffffffffffffff811115613134576131336125c9565b5b61314084828501612f46565b602083015250604082015167ffffffffffffffff811115613164576131636125c9565b5b61317084828501612f03565b604083015250606061318484828501612eac565b606083015250608061319884828501612eac565b60808301525060a06131ac848285016130a6565b60a08301525060c06131c0848285016130cb565b60c08301525092915050565b60006131df6131da84612e80565b6120e2565b90508083825260208201905060208402830185811115613202576132016125bf565b5b835b8181101561324957805167ffffffffffffffff81111561322757613226612078565b5b80860161323489826130e0565b85526020850194505050602081019050613204565b5050509392505050565b600082601f83011261326857613267612078565b5b81516132788482602086016131cc565b91505092915050565b60006020828403121561329757613296611b9c565b5b600082015167ffffffffffffffff8111156132b5576132b4611ba1565b5b6132c184828501613253565b91505092915050565b60006040820190506132df6000830185612209565b6132ec6020830184612950565b9392505050565b600081519050613302816125ce565b92915050565b6000610160828403121561331f5761331e6125c4565b5b61332a6101606120e2565b9050600082015167ffffffffffffffff81111561334a576133496125c9565b5b61335684828501612f03565b600083015250602082015167ffffffffffffffff81111561337a576133796125c9565b5b61338684828501612f03565b602083015250604082015167ffffffffffffffff8111156133aa576133a96125c9565b5b6133b684828501612f03565b60408301525060606133ca84828501612eac565b60608301525060806133de84828501612eac565b60808301525060a06133f284828501612eac565b60a08301525060c061340684828501612eac565b60c08301525060e061341a84828501612eac565b60e08301525061010061342f84828501612eac565b6101008301525061012061344584828501612eac565b6101208301525061014061345b848285016132f3565b6101408301525092915050565b6003811061347557600080fd5b50565b60008151905061348781613468565b92915050565b600061014082840312156134a4576134a36125c4565b5b6134af6101406120e2565b905060006134bf84828501612eac565b600083015250602082015167ffffffffffffffff8111156134e3576134e26125c9565b5b6134ef84828501613308565b602083015250604082015167ffffffffffffffff811115613513576135126125c9565b5b61351f84828501612f03565b604083015250606082015167ffffffffffffffff811115613543576135426125c9565b5b61354f84828501612f03565b606083015250608082015167ffffffffffffffff811115613573576135726125c9565b5b61357f84828501612f03565b60808301525060a061359384828501612eac565b60a08301525060c06135a784828501612eac565b60c08301525060e06135bb84828501612eac565b60e0830152506101006135d0848285016130a6565b610100830152506101206135e684828501613478565b6101208301525092915050565b6000806040838503121561360a57613609611b9c565b5b600061361885828601612eac565b925050602083015167ffffffffffffffff81111561363957613638611ba1565b5b6136458582860161348d565b9150509250929050565b600082825260208201905092915050565b7f496e73756666696369656e7420636f6e74726163742062616c616e6365000000600082015250565b6000613696601d8361364f565b91506136a182613660565b602082019050919050565b600060208201905081810360008301526136c581613689565b9050919050565b7f496e73757265723a204f6e6c792074686520696e73757265722063616e20636160008201527f6c6c207468697300000000000000000000000000000000000000000000000000602082015250565b600061372860278361364f565b9150613733826136cc565b604082019050919050565b600060208201905081810360008301526137578161371b565b9050919050565b7f496e73756666696369656e742062616c616e6365000000000000000000000000600082015250565b600061379460148361364f565b915061379f8261375e565b602082019050919050565b600060208201905081810360008301526137c381613787565b9050919050565b60006137d582611c95565b6137df818561364f565b93506137ef818560208601611cb1565b6137f881611cdb565b840191505092915050565b6000604082019050818103600083015261381d81856137ca565b905061382c6020830184612209565b9392505050565b600067ffffffffffffffff82111561384e5761384d612082565b5b602082029050602081019050919050565b600061387261386d84613833565b6120e2565b90508083825260208201905060208402830185811115613895576138946125bf565b5b835b818110156138dc57805167ffffffffffffffff8111156138ba576138b9612078565b5b8086016138c7898261348d565b85526020850194505050602081019050613897565b5050509392505050565b600082601f8301126138fb576138fa612078565b5b815161390b84826020860161385f565b91505092915050565b60006020828403121561392a57613929611b9c565b5b600082015167ffffffffffffffff81111561394857613947611ba1565b5b613954848285016138e6565b91505092915050565b7f4e487b7100000000000000000000000000000000000000000000000000000000600052603260045260246000fd5b7f4e487b7100000000000000000000000000000000000000000000000000000000600052601160045260246000fd5b60006139c682611be4565b91506139d183611be4565b92508282019050808211156139e9576139e861398c565b5b92915050565b60006139fa82611be4565b91507fffffffffffffffffffffffffffffffffffffffffffffffffffffffffffffffff8203613a2c57613a2b61398c565b5b600182019050919050565b7f496e73756666696369656e7420636f6e74726163742062616c616e636520746f60008201527f20636f76657220706f74656e7469616c207061796f7574730000000000000000602082015250565b6000613a9360388361364f565b9150613a9e82613a37565b604082019050919050565b60006020820190508181036000830152613ac281613a86565b9050919050565b7f496e73756666696369656e74207072656d69756d2073656e7400000000000000600082015250565b6000613aff60198361364f565b9150613b0a82613ac9565b602082019050919050565b60006020820190508181036000830152613b2e81613af2565b9050919050565b6000610160830160008301518482036000860152613b538282611cec565b91505060208301518482036020860152613b6d8282611cec565b91505060408301518482036040860152613b878282611cec565b9150506060830151613b9c6060860182611c86565b506080830151613baf6080860182611c86565b5060a0830151613bc260a0860182611c86565b5060c0830151613bd560c0860182611c86565b5060e0830151613be860e0860182611c86565b50610100830151613bfd610100860182611c86565b50610120830151613c12610120860182611c86565b50610140830151613c27610140860182612298565b508091505092915050565b600060c0820190508181036000830152613c4c8189613b35565b90508181036020830152613c6081886137ca565b90508181036040830152613c7481876137ca565b90508181036060830152613c8881866137ca565b9050613c976080830185612209565b613ca460a0830184612950565b979650505050505050565b600060208284031215613cc557613cc4611b9c565b5b6000613cd384828501612eac565b91505092915050565b600081905092915050565b6000613cf282611c95565b613cfc8185613cdc565b9350613d0c818560208601611cb1565b80840191505092915050565b6000613d248284613ce7565b915081905092915050565b7f496e73757265723a204d757374206465706f736974206120706f73697469766560008201527f20616d6f756e7400000000000000000000000000000000000000000000000000602082015250565b6000613d8b60278361364f565b9150613d9682613d2f565b604082019050919050565b60006020820190508181036000830152613dba81613d7e565b9050919050565b6000610160830160008301518482036000860152613ddf8282611cec565b91505060208301518482036020860152613df98282611cec565b91505060408301518482036040860152613e138282611cec565b9150506060830151613e286060860182611c86565b506080830151613e3b6080860182611c86565b5060a0830151613e4e60a0860182611c86565b5060c0830151613e6160c0860182611c86565b5060e0830151613e7460e0860182611c86565b50610100830151613e89610100860182611c86565b50610120830151613e9e610120860182611c86565b50610140830151613eb3610140860182611d8d565b508091505092915050565b60006060820190508181036000830152613ed88186613dc1565b90508181036020830152613eec81856137ca565b9050613efb6040830184612950565b949350505050565b60006040820190508181036000830152613f1d81856137ca565b9050613f2c6020830184612950565b9392505050565b7f4e487b7100000000000000000000000000000000000000000000000000000000600052605160045260246000fdfea26469706673582212209ff44edfbada96046d1f59bce5bfdb8e8e3c3f6c3e470527ee7aa4d01fabfc9464736f6c63430008130033",
  "linkReferences": {},
  "deployedLinkReferences": {}
}