{
  "_format": "hh-sol-artifact-1",
  "contractName": "Insurer",
  "sourceName": "contracts/Insurer.sol",
  "abi": [
    {
      "inputs": [
        {
          "internalType": "address",
          "name": "_flightPolicyAddress",
          "type": "address"
        },
        {
          "internalType": "address",
          "name": "_baggagePolicyAddress",
          "type": "address"
        }
      ],
      "stateMutability": "nonpayable",
      "type": "constructor"
    },
    {
      "anonymous": false,
      "inputs": [
        {
          "indexed": true,
          "internalType": "address",
          "name": "buyer",
          "type": "address"
        },
        {
          "indexed": true,
          "internalType": "uint256",
          "name": "policyId",
          "type": "uint256"
        }
      ],
      "name": "BaggagePolicyClaimed",
      "type": "event"
    },
    {
      "anonymous": false,
      "inputs": [
        {
          "indexed": true,
          "internalType": "address",
          "name": "buyer",
          "type": "address"
        },
        {
          "indexed": true,
          "internalType": "uint256",
          "name": "policyId",
          "type": "uint256"
        },
        {
          "indexed": true,
          "internalType": "string",
          "name": "templateId",
          "type": "string"
        }
      ],
      "name": "BaggagePolicyPurchased",
      "type": "event"
    },
    {
      "anonymous": false,
      "inputs": [
        {
          "indexed": true,
          "internalType": "address",
          "name": "buyer",
          "type": "address"
        },
        {
          "indexed": true,
          "internalType": "uint256",
          "name": "policyId",
          "type": "uint256"
        }
      ],
      "name": "FlightPolicyClaimed",
      "type": "event"
    },
    {
      "anonymous": false,
      "inputs": [
        {
          "indexed": true,
          "internalType": "address",
          "name": "buyer",
          "type": "address"
        },
        {
          "indexed": true,
          "internalType": "uint256",
          "name": "policyId",
          "type": "uint256"
        },
        {
          "indexed": true,
          "internalType": "string",
          "name": "templateId",
          "type": "string"
        }
      ],
      "name": "FlightPolicyPurchased",
      "type": "event"
    },
    {
      "anonymous": false,
      "inputs": [
        {
          "indexed": true,
          "internalType": "address",
          "name": "insurer",
          "type": "address"
        },
        {
          "indexed": false,
          "internalType": "uint256",
          "name": "amount",
          "type": "uint256"
        }
      ],
      "name": "FundsDeposited",
      "type": "event"
    },
    {
      "anonymous": false,
      "inputs": [
        {
          "indexed": true,
          "internalType": "address",
          "name": "insurer",
          "type": "address"
        },
        {
          "indexed": false,
          "internalType": "uint256",
          "name": "amount",
          "type": "uint256"
        }
      ],
      "name": "FundsWithdrawn",
      "type": "event"
    },
    {
      "inputs": [],
      "name": "baggagePolicy",
      "outputs": [
        {
          "internalType": "contract BaggagePolicy",
          "name": "",
          "type": "address"
        }
      ],
      "stateMutability": "view",
      "type": "function"
    },
    {
      "inputs": [
        {
          "internalType": "uint256",
          "name": "policyId",
          "type": "uint256"
        }
      ],
      "name": "claimFlightPayout",
      "outputs": [],
      "stateMutability": "nonpayable",
      "type": "function"
    },
    {
      "inputs": [],
      "name": "deposit",
      "outputs": [],
      "stateMutability": "payable",
      "type": "function"
    },
    {
      "inputs": [],
      "name": "flightPolicy",
      "outputs": [
        {
          "internalType": "contract FlightPolicy",
          "name": "",
          "type": "address"
        }
      ],
      "stateMutability": "view",
      "type": "function"
    },
    {
      "inputs": [],
      "name": "getAllBaggagePolicies",
      "outputs": [
        {
          "components": [
            {
              "internalType": "uint256",
              "name": "policyId",
              "type": "uint256"
            },
            {
              "components": [
                {
                  "internalType": "string",
                  "name": "templateId",
                  "type": "string"
                },
                {
                  "internalType": "string",
                  "name": "name",
                  "type": "string"
                },
                {
                  "internalType": "string",
                  "name": "description",
                  "type": "string"
                },
                {
                  "internalType": "uint256",
                  "name": "createdAt",
                  "type": "uint256"
                },
                {
                  "internalType": "uint256",
                  "name": "updatedAt",
                  "type": "uint256"
                },
                {
                  "internalType": "uint256",
                  "name": "premium",
                  "type": "uint256"
                },
                {
                  "internalType": "uint256",
                  "name": "payoutIfDelayed",
                  "type": "uint256"
                },
                {
                  "internalType": "uint256",
                  "name": "payoutIfLost",
                  "type": "uint256"
                },
                {
                  "internalType": "uint256",
                  "name": "maxTotalPayout",
                  "type": "uint256"
                },
                {
                  "internalType": "uint256",
                  "name": "coverageDurationDays",
                  "type": "uint256"
                },
                {
                  "internalType": "enum BaggagePolicy.PolicyTemplateStatus",
                  "name": "status",
                  "type": "uint8"
                }
              ],
              "internalType": "struct BaggagePolicy.PolicyTemplate",
              "name": "template",
              "type": "tuple"
            },
            {
              "internalType": "string",
              "name": "itemDescription",
              "type": "string"
            },
            {
              "internalType": "uint256",
              "name": "createdAt",
              "type": "uint256"
            },
            {
              "internalType": "uint256",
              "name": "payoutToDate",
              "type": "uint256"
            },
            {
              "internalType": "address",
              "name": "buyer",
              "type": "address"
            },
            {
              "internalType": "enum BaggagePolicy.PolicyStatus",
              "name": "status",
              "type": "uint8"
            }
          ],
          "internalType": "struct BaggagePolicy.UserPolicy[]",
          "name": "",
          "type": "tuple[]"
        }
      ],
      "stateMutability": "view",
      "type": "function"
    },
    {
      "inputs": [],
      "name": "getAllFlightPolicies",
      "outputs": [
        {
          "components": [
            {
              "internalType": "uint256",
              "name": "policyId",
              "type": "uint256"
            },
            {
              "components": [
                {
                  "internalType": "string",
                  "name": "templateId",
                  "type": "string"
                },
                {
                  "internalType": "string",
                  "name": "name",
                  "type": "string"
                },
                {
                  "internalType": "string",
                  "name": "description",
                  "type": "string"
                },
                {
                  "internalType": "uint256",
                  "name": "createdAt",
                  "type": "uint256"
                },
                {
                  "internalType": "uint256",
                  "name": "updatedAt",
                  "type": "uint256"
                },
                {
                  "internalType": "uint256",
                  "name": "premium",
                  "type": "uint256"
                },
                {
                  "internalType": "uint256",
                  "name": "payoutPerHour",
                  "type": "uint256"
                },
                {
                  "internalType": "uint256",
                  "name": "delayThresholdHours",
                  "type": "uint256"
                },
                {
                  "internalType": "uint256",
                  "name": "maxTotalPayout",
                  "type": "uint256"
                },
                {
                  "internalType": "uint256",
                  "name": "coverageDurationDays",
                  "type": "uint256"
                },
                {
                  "internalType": "enum FlightPolicy.PolicyTemplateStatus",
                  "name": "status",
                  "type": "uint8"
                }
              ],
              "internalType": "struct FlightPolicy.PolicyTemplate",
              "name": "template",
              "type": "tuple"
            },
            {
              "internalType": "string",
              "name": "flightNumber",
              "type": "string"
            },
            {
              "internalType": "string",
              "name": "departureAirportCode",
              "type": "string"
            },
            {
              "internalType": "string",
              "name": "arrivalAirportCode",
              "type": "string"
            },
            {
              "internalType": "uint256",
              "name": "departureTime",
              "type": "uint256"
            },
            {
              "internalType": "uint256",
              "name": "createdAt",
              "type": "uint256"
            },
            {
              "internalType": "uint256",
              "name": "payoutToDate",
              "type": "uint256"
            },
            {
              "internalType": "address",
              "name": "buyer",
              "type": "address"
            },
            {
              "internalType": "enum FlightPolicy.PolicyStatus",
              "name": "status",
              "type": "uint8"
            }
          ],
          "internalType": "struct FlightPolicy.UserPolicy[]",
          "name": "",
          "type": "tuple[]"
        }
      ],
      "stateMutability": "view",
      "type": "function"
    },
    {
      "inputs": [],
      "name": "getContractBalance",
      "outputs": [
        {
          "internalType": "uint256",
          "name": "",
          "type": "uint256"
        }
      ],
      "stateMutability": "view",
      "type": "function"
    },
    {
      "inputs": [
        {
          "internalType": "address",
          "name": "user",
          "type": "address"
        }
      ],
      "name": "getUserBaggagePolicies",
      "outputs": [
        {
          "components": [
            {
              "internalType": "uint256",
              "name": "policyId",
              "type": "uint256"
            },
            {
              "components": [
                {
                  "internalType": "string",
                  "name": "templateId",
                  "type": "string"
                },
                {
                  "internalType": "string",
                  "name": "name",
                  "type": "string"
                },
                {
                  "internalType": "string",
                  "name": "description",
                  "type": "string"
                },
                {
                  "internalType": "uint256",
                  "name": "createdAt",
                  "type": "uint256"
                },
                {
                  "internalType": "uint256",
                  "name": "updatedAt",
                  "type": "uint256"
                },
                {
                  "internalType": "uint256",
                  "name": "premium",
                  "type": "uint256"
                },
                {
                  "internalType": "uint256",
                  "name": "payoutIfDelayed",
                  "type": "uint256"
                },
                {
                  "internalType": "uint256",
                  "name": "payoutIfLost",
                  "type": "uint256"
                },
                {
                  "internalType": "uint256",
                  "name": "maxTotalPayout",
                  "type": "uint256"
                },
                {
                  "internalType": "uint256",
                  "name": "coverageDurationDays",
                  "type": "uint256"
                },
                {
                  "internalType": "enum BaggagePolicy.PolicyTemplateStatus",
                  "name": "status",
                  "type": "uint8"
                }
              ],
              "internalType": "struct BaggagePolicy.PolicyTemplate",
              "name": "template",
              "type": "tuple"
            },
            {
              "internalType": "string",
              "name": "itemDescription",
              "type": "string"
            },
            {
              "internalType": "uint256",
              "name": "createdAt",
              "type": "uint256"
            },
            {
              "internalType": "uint256",
              "name": "payoutToDate",
              "type": "uint256"
            },
            {
              "internalType": "address",
              "name": "buyer",
              "type": "address"
            },
            {
              "internalType": "enum BaggagePolicy.PolicyStatus",
              "name": "status",
              "type": "uint8"
            }
          ],
          "internalType": "struct BaggagePolicy.UserPolicy[]",
          "name": "",
          "type": "tuple[]"
        }
      ],
      "stateMutability": "view",
      "type": "function"
    },
    {
      "inputs": [
        {
          "internalType": "string",
          "name": "templateId",
          "type": "string"
        }
      ],
      "name": "getUserBaggagePoliciesByTemplate",
      "outputs": [
        {
          "components": [
            {
              "internalType": "uint256",
              "name": "policyId",
              "type": "uint256"
            },
            {
              "components": [
                {
                  "internalType": "string",
                  "name": "templateId",
                  "type": "string"
                },
                {
                  "internalType": "string",
                  "name": "name",
                  "type": "string"
                },
                {
                  "internalType": "string",
                  "name": "description",
                  "type": "string"
                },
                {
                  "internalType": "uint256",
                  "name": "createdAt",
                  "type": "uint256"
                },
                {
                  "internalType": "uint256",
                  "name": "updatedAt",
                  "type": "uint256"
                },
                {
                  "internalType": "uint256",
                  "name": "premium",
                  "type": "uint256"
                },
                {
                  "internalType": "uint256",
                  "name": "payoutIfDelayed",
                  "type": "uint256"
                },
                {
                  "internalType": "uint256",
                  "name": "payoutIfLost",
                  "type": "uint256"
                },
                {
                  "internalType": "uint256",
                  "name": "maxTotalPayout",
                  "type": "uint256"
                },
                {
                  "internalType": "uint256",
                  "name": "coverageDurationDays",
                  "type": "uint256"
                },
                {
                  "internalType": "enum BaggagePolicy.PolicyTemplateStatus",
                  "name": "status",
                  "type": "uint8"
                }
              ],
              "internalType": "struct BaggagePolicy.PolicyTemplate",
              "name": "template",
              "type": "tuple"
            },
            {
              "internalType": "string",
              "name": "itemDescription",
              "type": "string"
            },
            {
              "internalType": "uint256",
              "name": "createdAt",
              "type": "uint256"
            },
            {
              "internalType": "uint256",
              "name": "payoutToDate",
              "type": "uint256"
            },
            {
              "internalType": "address",
              "name": "buyer",
              "type": "address"
            },
            {
              "internalType": "enum BaggagePolicy.PolicyStatus",
              "name": "status",
              "type": "uint8"
            }
          ],
          "internalType": "struct BaggagePolicy.UserPolicy[]",
          "name": "",
          "type": "tuple[]"
        }
      ],
      "stateMutability": "view",
      "type": "function"
    },
    {
      "inputs": [
        {
          "internalType": "address",
          "name": "user",
          "type": "address"
        }
      ],
      "name": "getUserFlightPolicies",
      "outputs": [
        {
          "components": [
            {
              "internalType": "uint256",
              "name": "policyId",
              "type": "uint256"
            },
            {
              "components": [
                {
                  "internalType": "string",
                  "name": "templateId",
                  "type": "string"
                },
                {
                  "internalType": "string",
                  "name": "name",
                  "type": "string"
                },
                {
                  "internalType": "string",
                  "name": "description",
                  "type": "string"
                },
                {
                  "internalType": "uint256",
                  "name": "createdAt",
                  "type": "uint256"
                },
                {
                  "internalType": "uint256",
                  "name": "updatedAt",
                  "type": "uint256"
                },
                {
                  "internalType": "uint256",
                  "name": "premium",
                  "type": "uint256"
                },
                {
                  "internalType": "uint256",
                  "name": "payoutPerHour",
                  "type": "uint256"
                },
                {
                  "internalType": "uint256",
                  "name": "delayThresholdHours",
                  "type": "uint256"
                },
                {
                  "internalType": "uint256",
                  "name": "maxTotalPayout",
                  "type": "uint256"
                },
                {
                  "internalType": "uint256",
                  "name": "coverageDurationDays",
                  "type": "uint256"
                },
                {
                  "internalType": "enum FlightPolicy.PolicyTemplateStatus",
                  "name": "status",
                  "type": "uint8"
                }
              ],
              "internalType": "struct FlightPolicy.PolicyTemplate",
              "name": "template",
              "type": "tuple"
            },
            {
              "internalType": "string",
              "name": "flightNumber",
              "type": "string"
            },
            {
              "internalType": "string",
              "name": "departureAirportCode",
              "type": "string"
            },
            {
              "internalType": "string",
              "name": "arrivalAirportCode",
              "type": "string"
            },
            {
              "internalType": "uint256",
              "name": "departureTime",
              "type": "uint256"
            },
            {
              "internalType": "uint256",
              "name": "createdAt",
              "type": "uint256"
            },
            {
              "internalType": "uint256",
              "name": "payoutToDate",
              "type": "uint256"
            },
            {
              "internalType": "address",
              "name": "buyer",
              "type": "address"
            },
            {
              "internalType": "enum FlightPolicy.PolicyStatus",
              "name": "status",
              "type": "uint8"
            }
          ],
          "internalType": "struct FlightPolicy.UserPolicy[]",
          "name": "",
          "type": "tuple[]"
        }
      ],
      "stateMutability": "view",
      "type": "function"
    },
    {
      "inputs": [
        {
          "internalType": "string",
          "name": "templateId",
          "type": "string"
        }
      ],
      "name": "getUserFlightPoliciesByTemplate",
      "outputs": [
        {
          "components": [
            {
              "internalType": "uint256",
              "name": "policyId",
              "type": "uint256"
            },
            {
              "components": [
                {
                  "internalType": "string",
                  "name": "templateId",
                  "type": "string"
                },
                {
                  "internalType": "string",
                  "name": "name",
                  "type": "string"
                },
                {
                  "internalType": "string",
                  "name": "description",
                  "type": "string"
                },
                {
                  "internalType": "uint256",
                  "name": "createdAt",
                  "type": "uint256"
                },
                {
                  "internalType": "uint256",
                  "name": "updatedAt",
                  "type": "uint256"
                },
                {
                  "internalType": "uint256",
                  "name": "premium",
                  "type": "uint256"
                },
                {
                  "internalType": "uint256",
                  "name": "payoutPerHour",
                  "type": "uint256"
                },
                {
                  "internalType": "uint256",
                  "name": "delayThresholdHours",
                  "type": "uint256"
                },
                {
                  "internalType": "uint256",
                  "name": "maxTotalPayout",
                  "type": "uint256"
                },
                {
                  "internalType": "uint256",
                  "name": "coverageDurationDays",
                  "type": "uint256"
                },
                {
                  "internalType": "enum FlightPolicy.PolicyTemplateStatus",
                  "name": "status",
                  "type": "uint8"
                }
              ],
              "internalType": "struct FlightPolicy.PolicyTemplate",
              "name": "template",
              "type": "tuple"
            },
            {
              "internalType": "string",
              "name": "flightNumber",
              "type": "string"
            },
            {
              "internalType": "string",
              "name": "departureAirportCode",
              "type": "string"
            },
            {
              "internalType": "string",
              "name": "arrivalAirportCode",
              "type": "string"
            },
            {
              "internalType": "uint256",
              "name": "departureTime",
              "type": "uint256"
            },
            {
              "internalType": "uint256",
              "name": "createdAt",
              "type": "uint256"
            },
            {
              "internalType": "uint256",
              "name": "payoutToDate",
              "type": "uint256"
            },
            {
              "internalType": "address",
              "name": "buyer",
              "type": "address"
            },
            {
              "internalType": "enum FlightPolicy.PolicyStatus",
              "name": "status",
              "type": "uint8"
            }
          ],
          "internalType": "struct FlightPolicy.UserPolicy[]",
          "name": "",
          "type": "tuple[]"
        }
      ],
      "stateMutability": "view",
      "type": "function"
    },
    {
      "inputs": [],
      "name": "insurerAddress",
      "outputs": [
        {
          "internalType": "address",
          "name": "",
          "type": "address"
        }
      ],
      "stateMutability": "view",
      "type": "function"
    },
    {
      "inputs": [
        {
          "components": [
            {
              "internalType": "string",
              "name": "templateId",
              "type": "string"
            },
            {
              "internalType": "string",
              "name": "name",
              "type": "string"
            },
            {
              "internalType": "string",
              "name": "description",
              "type": "string"
            },
            {
              "internalType": "uint256",
              "name": "createdAt",
              "type": "uint256"
            },
            {
              "internalType": "uint256",
              "name": "updatedAt",
              "type": "uint256"
            },
            {
              "internalType": "uint256",
              "name": "premium",
              "type": "uint256"
            },
            {
              "internalType": "uint256",
              "name": "payoutIfDelayed",
              "type": "uint256"
            },
            {
              "internalType": "uint256",
              "name": "payoutIfLost",
              "type": "uint256"
            },
            {
              "internalType": "uint256",
              "name": "maxTotalPayout",
              "type": "uint256"
            },
            {
              "internalType": "uint256",
              "name": "coverageDurationDays",
              "type": "uint256"
            },
            {
              "internalType": "enum BaggagePolicy.PolicyTemplateStatus",
              "name": "status",
              "type": "uint8"
            }
          ],
          "internalType": "struct BaggagePolicy.PolicyTemplate[]",
          "name": "templates",
          "type": "tuple[]"
        }
      ],
      "name": "isBaggagePolicyAllowedForPurchase",
      "outputs": [
        {
          "internalType": "bool[]",
          "name": "",
          "type": "bool[]"
        }
      ],
      "stateMutability": "view",
      "type": "function"
    },
    {
      "inputs": [
        {
          "components": [
            {
              "internalType": "string",
              "name": "templateId",
              "type": "string"
            },
            {
              "internalType": "string",
              "name": "name",
              "type": "string"
            },
            {
              "internalType": "string",
              "name": "description",
              "type": "string"
            },
            {
              "internalType": "uint256",
              "name": "createdAt",
              "type": "uint256"
            },
            {
              "internalType": "uint256",
              "name": "updatedAt",
              "type": "uint256"
            },
            {
              "internalType": "uint256",
              "name": "premium",
              "type": "uint256"
            },
            {
              "internalType": "uint256",
              "name": "payoutPerHour",
              "type": "uint256"
            },
            {
              "internalType": "uint256",
              "name": "delayThresholdHours",
              "type": "uint256"
            },
            {
              "internalType": "uint256",
              "name": "maxTotalPayout",
              "type": "uint256"
            },
            {
              "internalType": "uint256",
              "name": "coverageDurationDays",
              "type": "uint256"
            },
            {
              "internalType": "enum FlightPolicy.PolicyTemplateStatus",
              "name": "status",
              "type": "uint8"
            }
          ],
          "internalType": "struct FlightPolicy.PolicyTemplate[]",
          "name": "templates",
          "type": "tuple[]"
        }
      ],
      "name": "isFlightPolicyAllowedForPurchase",
      "outputs": [
        {
          "internalType": "bool[]",
          "name": "",
          "type": "bool[]"
        }
      ],
      "stateMutability": "view",
      "type": "function"
    },
    {
      "inputs": [
        {
          "internalType": "address",
          "name": "user",
          "type": "address"
        }
      ],
      "name": "isInsurer",
      "outputs": [
        {
          "internalType": "bool",
          "name": "",
          "type": "bool"
        }
      ],
      "stateMutability": "view",
      "type": "function"
    },
    {
      "inputs": [
        {
          "internalType": "uint256",
          "name": "policyId",
          "type": "uint256"
        }
      ],
      "name": "markBaggagePolicyAsExpired",
      "outputs": [],
      "stateMutability": "nonpayable",
      "type": "function"
    },
    {
      "inputs": [
        {
          "internalType": "uint256",
          "name": "policyId",
          "type": "uint256"
        }
      ],
      "name": "markFlightPolicyAsExpired",
      "outputs": [],
      "stateMutability": "nonpayable",
      "type": "function"
    },
    {
      "inputs": [
        {
          "components": [
            {
              "internalType": "string",
              "name": "templateId",
              "type": "string"
            },
            {
              "internalType": "string",
              "name": "name",
              "type": "string"
            },
            {
              "internalType": "string",
              "name": "description",
              "type": "string"
            },
            {
              "internalType": "uint256",
              "name": "createdAt",
              "type": "uint256"
            },
            {
              "internalType": "uint256",
              "name": "updatedAt",
              "type": "uint256"
            },
            {
              "internalType": "uint256",
              "name": "premium",
              "type": "uint256"
            },
            {
              "internalType": "uint256",
              "name": "payoutIfDelayed",
              "type": "uint256"
            },
            {
              "internalType": "uint256",
              "name": "payoutIfLost",
              "type": "uint256"
            },
            {
              "internalType": "uint256",
              "name": "maxTotalPayout",
              "type": "uint256"
            },
            {
              "internalType": "uint256",
              "name": "coverageDurationDays",
              "type": "uint256"
            },
            {
              "internalType": "enum BaggagePolicy.PolicyTemplateStatus",
              "name": "status",
              "type": "uint8"
            }
          ],
          "internalType": "struct BaggagePolicy.PolicyTemplate",
          "name": "template",
          "type": "tuple"
        },
        {
          "internalType": "string",
          "name": "itemDescription",
          "type": "string"
        }
      ],
      "name": "purchaseBaggagePolicy",
      "outputs": [],
      "stateMutability": "payable",
      "type": "function"
    },
    {
      "inputs": [
        {
          "components": [
            {
              "internalType": "string",
              "name": "templateId",
              "type": "string"
            },
            {
              "internalType": "string",
              "name": "name",
              "type": "string"
            },
            {
              "internalType": "string",
              "name": "description",
              "type": "string"
            },
            {
              "internalType": "uint256",
              "name": "createdAt",
              "type": "uint256"
            },
            {
              "internalType": "uint256",
              "name": "updatedAt",
              "type": "uint256"
            },
            {
              "internalType": "uint256",
              "name": "premium",
              "type": "uint256"
            },
            {
              "internalType": "uint256",
              "name": "payoutPerHour",
              "type": "uint256"
            },
            {
              "internalType": "uint256",
              "name": "delayThresholdHours",
              "type": "uint256"
            },
            {
              "internalType": "uint256",
              "name": "maxTotalPayout",
              "type": "uint256"
            },
            {
              "internalType": "uint256",
              "name": "coverageDurationDays",
              "type": "uint256"
            },
            {
              "internalType": "enum FlightPolicy.PolicyTemplateStatus",
              "name": "status",
              "type": "uint8"
            }
          ],
          "internalType": "struct FlightPolicy.PolicyTemplate",
          "name": "template",
          "type": "tuple"
        },
        {
          "internalType": "string",
          "name": "flightNumber",
          "type": "string"
        },
        {
          "internalType": "string",
          "name": "departureAirportCode",
          "type": "string"
        },
        {
          "internalType": "string",
          "name": "arrivalAirportCode",
          "type": "string"
        },
        {
          "internalType": "uint256",
          "name": "departureTime",
          "type": "uint256"
        }
      ],
      "name": "purchaseFlightPolicy",
      "outputs": [],
      "stateMutability": "payable",
      "type": "function"
    },
    {
      "inputs": [
        {
          "internalType": "uint256",
          "name": "amountInWei",
          "type": "uint256"
        }
      ],
      "name": "withdraw",
      "outputs": [],
      "stateMutability": "nonpayable",
      "type": "function"
    },
    {
      "stateMutability": "payable",
      "type": "receive"
    }
  ],
  "bytecode": "0x60a06040523480156200001157600080fd5b5060405162003ca738038062003ca783398181016040528101906200003791906200015e565b3373ffffffffffffffffffffffffffffffffffffffff1660808173ffffffffffffffffffffffffffffffffffffffff1681525050816000806101000a81548173ffffffffffffffffffffffffffffffffffffffff021916908373ffffffffffffffffffffffffffffffffffffffff16021790555080600160006101000a81548173ffffffffffffffffffffffffffffffffffffffff021916908373ffffffffffffffffffffffffffffffffffffffff1602179055505050620001a5565b600080fd5b600073ffffffffffffffffffffffffffffffffffffffff82169050919050565b60006200012682620000f9565b9050919050565b620001388162000119565b81146200014457600080fd5b50565b60008151905062000158816200012d565b92915050565b60008060408385031215620001785762000177620000f4565b5b6000620001888582860162000147565b92505060206200019b8582860162000147565b9150509250929050565b608051613a996200020e600039600081816105bc0152818161068d015281816106f4015281816107670152818161088e015281816109ac01528181610b72015281816110b70152818161122f0152818161135801528181611429015261149b0152613a996000f3fe6080604052600436106101235760003560e01c80638350e578116100a0578063ca7e292911610064578063ca7e2929146103e8578063d0e30db014610413578063da7897e21461041d578063f368bc271461045a578063f8aa1d95146104855761012a565b80638350e5781461030b578063a4472e3214610327578063a7c0900e14610343578063b715521b1461036e578063bc8e5165146103ab5761012a565b80636906496e116100e75780636906496e146102005780636db30bad146102295780636f9fb98a146102665780637fba9ee514610291578063825ab849146102ce5761012a565b8063071165101461012f578063260d47c51461015a5780632e1a7d4d146101835780634dd7b2a8146101ac578063516f92f7146101d75761012a565b3661012a57005b600080fd5b34801561013b57600080fd5b506101446104c2565b604051610151919061189e565b60405180910390f35b34801561016657600080fd5b50610181600480360381019061017c9190611903565b6104e6565b005b34801561018f57600080fd5b506101aa60048036038101906101a59190611903565b6105ba565b005b3480156101b857600080fd5b506101c1610763565b6040516101ce9190611d5d565b60405180910390f35b3480156101e357600080fd5b506101fe60048036038101906101f99190611903565b61088c565b005b34801561020c57600080fd5b5061022760048036038101906102229190611903565b6109aa565b005b34801561023557600080fd5b50610250600480360381019061024b9190611eb4565b610ac6565b60405161025d9190611d5d565b60405180910390f35b34801561027257600080fd5b5061027b610b6e565b6040516102889190611f0c565b60405180910390f35b34801561029d57600080fd5b506102b860048036038101906102b39190611eb4565b610c04565b6040516102c59190612219565b60405180910390f35b3480156102da57600080fd5b506102f560048036038101906102f091906124b0565b610cae565b60405161030291906125c3565b60405180910390f35b6103256004803603810190610320919061276a565b610dd3565b005b610341600480360381019061033c9190612855565b610f48565b005b34801561034f57600080fd5b506103586110b5565b60405161036591906128dc565b60405180910390f35b34801561037a57600080fd5b5061039560048036038101906103909190612923565b6110d9565b6040516103a29190611d5d565b60405180910390f35b3480156103b757600080fd5b506103d260048036038101906103cd9190612923565b611181565b6040516103df9190612219565b60405180910390f35b3480156103f457600080fd5b506103fd61122b565b60405161040a9190612219565b60405180910390f35b61041b611356565b005b34801561042957600080fd5b50610444600480360381019061043f9190612923565b611497565b604051610451919061295f565b60405180910390f35b34801561046657600080fd5b5061046f6114ef565b60405161047c919061299b565b60405180910390f35b34801561049157600080fd5b506104ac60048036038101906104a79190612a97565b611515565b6040516104b991906125c3565b60405180910390f35b60008054906101000a900473ffffffffffffffffffffffffffffffffffffffff1681565b60008054906101000a900473ffffffffffffffffffffffffffffffffffffffff1673ffffffffffffffffffffffffffffffffffffffff1663b0110cc682336040518363ffffffff1660e01b8152600401610541929190612ae0565b600060405180830381600087803b15801561055b57600080fd5b505af115801561056f573d6000803e3d6000fd5b50505050803373ffffffffffffffffffffffffffffffffffffffff167fd97fa6902eb91d71aea44cc906baaea3f41dab00c2f987da7f9d97b28172d40660405160405180910390a350565b7f000000000000000000000000000000000000000000000000000000000000000073ffffffffffffffffffffffffffffffffffffffff163373ffffffffffffffffffffffffffffffffffffffff1614610648576040517f08c379a000000000000000000000000000000000000000000000000000000000815260040161063f90612b8c565b60405180910390fd5b8047101561068b576040517f08c379a000000000000000000000000000000000000000000000000000000000815260040161068290612bf8565b60405180910390fd5b7f000000000000000000000000000000000000000000000000000000000000000073ffffffffffffffffffffffffffffffffffffffff166108fc829081150290604051600060405180830381858888f193505050501580156106f1573d6000803e3d6000fd5b507f000000000000000000000000000000000000000000000000000000000000000073ffffffffffffffffffffffffffffffffffffffff167feaff4b37086828766ad3268786972c0cd24259d4c87a80f9d3963a3c3d999b0d826040516107589190611f0c565b60405180910390a250565b60607f000000000000000000000000000000000000000000000000000000000000000073ffffffffffffffffffffffffffffffffffffffff163373ffffffffffffffffffffffffffffffffffffffff16146107f3576040517f08c379a00000000000000000000000000000000000000000000000000000000081526004016107ea90612b8c565b60405180910390fd5b60008054906101000a900473ffffffffffffffffffffffffffffffffffffffff1673ffffffffffffffffffffffffffffffffffffffff1663457e55216040518163ffffffff1660e01b8152600401600060405180830381865afa15801561085e573d6000803e3d6000fd5b505050506040513d6000823e3d601f19601f820116820180604052508101906108879190613093565b905090565b7f000000000000000000000000000000000000000000000000000000000000000073ffffffffffffffffffffffffffffffffffffffff163373ffffffffffffffffffffffffffffffffffffffff161461091a576040517f08c379a000000000000000000000000000000000000000000000000000000000815260040161091190612b8c565b60405180910390fd5b600160009054906101000a900473ffffffffffffffffffffffffffffffffffffffff1673ffffffffffffffffffffffffffffffffffffffff1663cf39c624826040518263ffffffff1660e01b81526004016109759190611f0c565b600060405180830381600087803b15801561098f57600080fd5b505af11580156109a3573d6000803e3d6000fd5b5050505050565b7f000000000000000000000000000000000000000000000000000000000000000073ffffffffffffffffffffffffffffffffffffffff163373ffffffffffffffffffffffffffffffffffffffff1614610a38576040517f08c379a0000000000000000000000000000000000000000000000000000000008152600401610a2f90612b8c565b60405180910390fd5b60008054906101000a900473ffffffffffffffffffffffffffffffffffffffff1673ffffffffffffffffffffffffffffffffffffffff1663cf39c624826040518263ffffffff1660e01b8152600401610a919190611f0c565b600060405180830381600087803b158015610aab57600080fd5b505af1158015610abf573d6000803e3d6000fd5b5050505050565b606060008054906101000a900473ffffffffffffffffffffffffffffffffffffffff1673ffffffffffffffffffffffffffffffffffffffff16639c6cf7ef836040518263ffffffff1660e01b8152600401610b219190613115565b600060405180830381865afa158015610b3e573d6000803e3d6000fd5b505050506040513d6000823e3d601f19601f82011682018060405250810190610b679190613093565b9050919050565b60007f000000000000000000000000000000000000000000000000000000000000000073ffffffffffffffffffffffffffffffffffffffff163373ffffffffffffffffffffffffffffffffffffffff1614610bfe576040517f08c379a0000000000000000000000000000000000000000000000000000000008152600401610bf590612b8c565b60405180910390fd5b47905090565b6060600160009054906101000a900473ffffffffffffffffffffffffffffffffffffffff1673ffffffffffffffffffffffffffffffffffffffff16639c6cf7ef836040518263ffffffff1660e01b8152600401610c619190613115565b600060405180830381865afa158015610c7e573d6000803e3d6000fd5b505050506040513d6000823e3d601f19601f82011682018060405250810190610ca7919061349e565b9050919050565b60606000825167ffffffffffffffff811115610ccd57610ccc611d89565b5b604051908082528060200260200182016040528015610cfb5781602001602082028036833780820191505090505b5090506000610d0861163a565b905060005b8451811015610dc8576000858281518110610d2b57610d2a6134e7565b5b6020026020010151610100015183610d439190613545565b905047670de0b6b3a764000082610d5a9190613579565b1115610d8c576000848381518110610d7557610d746134e7565b5b602002602001019015159081151581525050610db4565b6001848381518110610da157610da06134e7565b5b6020026020010190151590811515815250505b508080610dc0906135bb565b915050610d0d565b508192505050919050565b6000610ddd61163a565b905085610100015181610df09190613545565b905047811115610e35576040517f08c379a0000000000000000000000000000000000000000000000000000000008152600401610e2c90613675565b60405180910390fd5b60008060009054906101000a900473ffffffffffffffffffffffffffffffffffffffff1673ffffffffffffffffffffffffffffffffffffffff166331953ecc348989898989336040518863ffffffff1660e01b8152600401610e9c96959493929190613792565b60206040518083038185885af1158015610eba573d6000803e3d6000fd5b50505050506040513d601f19601f82011682018060405250810190610edf919061380f565b90508660000151604051610ef39190613878565b6040518091039020813373ffffffffffffffffffffffffffffffffffffffff167f43617ea01c45d3386d7be4a6cb66bf94c0152a674cbd34a5de81ed135dfd7b1760405160405180910390a450505050505050565b6000610f5261163a565b905082610100015181610f659190613545565b905047811115610faa576040517f08c379a0000000000000000000000000000000000000000000000000000000008152600401610fa190613675565b60405180910390fd5b6000600160009054906101000a900473ffffffffffffffffffffffffffffffffffffffff1673ffffffffffffffffffffffffffffffffffffffff1663e0516149348686336040518563ffffffff1660e01b815260040161100c9392919061398c565b60206040518083038185885af115801561102a573d6000803e3d6000fd5b50505050506040513d601f19601f8201168201806040525081019061104f919061380f565b905083600001516040516110639190613878565b6040518091039020813373ffffffffffffffffffffffffffffffffffffffff167fd3ad849e96e45902e7d1f5bd084268392ad649bd4509857dbfd40ceb536aef3860405160405180910390a450505050565b7f000000000000000000000000000000000000000000000000000000000000000081565b606060008054906101000a900473ffffffffffffffffffffffffffffffffffffffff1673ffffffffffffffffffffffffffffffffffffffff166319ac4614836040518263ffffffff1660e01b815260040161113491906128dc565b600060405180830381865afa158015611151573d6000803e3d6000fd5b505050506040513d6000823e3d601f19601f8201168201806040525081019061117a9190613093565b9050919050565b6060600160009054906101000a900473ffffffffffffffffffffffffffffffffffffffff1673ffffffffffffffffffffffffffffffffffffffff166319ac4614836040518263ffffffff1660e01b81526004016111de91906128dc565b600060405180830381865afa1580156111fb573d6000803e3d6000fd5b505050506040513d6000823e3d601f19601f82011682018060405250810190611224919061349e565b9050919050565b60607f000000000000000000000000000000000000000000000000000000000000000073ffffffffffffffffffffffffffffffffffffffff163373ffffffffffffffffffffffffffffffffffffffff16146112bb576040517f08c379a00000000000000000000000000000000000000000000000000000000081526004016112b290612b8c565b60405180910390fd5b600160009054906101000a900473ffffffffffffffffffffffffffffffffffffffff1673ffffffffffffffffffffffffffffffffffffffff1663457e55216040518163ffffffff1660e01b8152600401600060405180830381865afa158015611328573d6000803e3d6000fd5b505050506040513d6000823e3d601f19601f82011682018060405250810190611351919061349e565b905090565b7f000000000000000000000000000000000000000000000000000000000000000073ffffffffffffffffffffffffffffffffffffffff163373ffffffffffffffffffffffffffffffffffffffff16146113e4576040517f08c379a00000000000000000000000000000000000000000000000000000000081526004016113db90612b8c565b60405180910390fd5b60003411611427576040517f08c379a000000000000000000000000000000000000000000000000000000000815260040161141e90613a43565b60405180910390fd5b7f000000000000000000000000000000000000000000000000000000000000000073ffffffffffffffffffffffffffffffffffffffff167f543ba50a5eec5e6178218e364b1d0f396157b3c8fa278522c2cb7fd99407d4743460405161148d9190611f0c565b60405180910390a2565b60007f000000000000000000000000000000000000000000000000000000000000000073ffffffffffffffffffffffffffffffffffffffff168273ffffffffffffffffffffffffffffffffffffffff16149050919050565b600160009054906101000a900473ffffffffffffffffffffffffffffffffffffffff1681565b60606000825167ffffffffffffffff81111561153457611533611d89565b5b6040519080825280602002602001820160405280156115625781602001602082028036833780820191505090505b509050600061156f61163a565b905060005b845181101561162f576000858281518110611592576115916134e7565b5b60200260200101516101000151836115aa9190613545565b905047670de0b6b3a7640000826115c19190613579565b11156115f35760008483815181106115dc576115db6134e7565b5b60200260200101901515908115158152505061161b565b6001848381518110611608576116076134e7565b5b6020026020010190151590811515815250505b508080611627906135bb565b915050611574565b508192505050919050565b6000806000905060008060009054906101000a900473ffffffffffffffffffffffffffffffffffffffff1673ffffffffffffffffffffffffffffffffffffffff1663457e55216040518163ffffffff1660e01b8152600401600060405180830381865afa1580156116af573d6000803e3d6000fd5b505050506040513d6000823e3d601f19601f820116820180604052508101906116d89190613093565b90506000600160009054906101000a900473ffffffffffffffffffffffffffffffffffffffff1673ffffffffffffffffffffffffffffffffffffffff1663457e55216040518163ffffffff1660e01b8152600401600060405180830381865afa158015611749573d6000803e3d6000fd5b505050506040513d6000823e3d601f19601f82011682018060405250810190611772919061349e565b905060005b82518110156117c457828181518110611793576117926134e7565b5b6020026020010151602001516101000151846117af9190613545565b935080806117bc906135bb565b915050611777565b5060005b8151811015611815578181815181106117e4576117e36134e7565b5b6020026020010151602001516101000151846118009190613545565b9350808061180d906135bb565b9150506117c8565b5082935050505090565b600073ffffffffffffffffffffffffffffffffffffffff82169050919050565b6000819050919050565b600061186461185f61185a8461181f565b61183f565b61181f565b9050919050565b600061187682611849565b9050919050565b60006118888261186b565b9050919050565b6118988161187d565b82525050565b60006020820190506118b3600083018461188f565b92915050565b6000604051905090565b600080fd5b600080fd5b6000819050919050565b6118e0816118cd565b81146118eb57600080fd5b50565b6000813590506118fd816118d7565b92915050565b600060208284031215611919576119186118c3565b5b6000611927848285016118ee565b91505092915050565b600081519050919050565b600082825260208201905092915050565b6000819050602082019050919050565b611965816118cd565b82525050565b600081519050919050565b600082825260208201905092915050565b60005b838110156119a557808201518184015260208101905061198a565b60008484015250505050565b6000601f19601f8301169050919050565b60006119cd8261196b565b6119d78185611976565b93506119e7818560208601611987565b6119f0816119b1565b840191505092915050565b7f4e487b7100000000000000000000000000000000000000000000000000000000600052602160045260246000fd5b60028110611a3b57611a3a6119fb565b5b50565b6000819050611a4c82611a2a565b919050565b6000611a5c82611a3e565b9050919050565b611a6c81611a51565b82525050565b6000610160830160008301518482036000860152611a9082826119c2565b91505060208301518482036020860152611aaa82826119c2565b91505060408301518482036040860152611ac482826119c2565b9150506060830151611ad9606086018261195c565b506080830151611aec608086018261195c565b5060a0830151611aff60a086018261195c565b5060c0830151611b1260c086018261195c565b5060e0830151611b2560e086018261195c565b50610100830151611b3a61010086018261195c565b50610120830151611b4f61012086018261195c565b50610140830151611b64610140860182611a63565b508091505092915050565b6000611b7a8261181f565b9050919050565b611b8a81611b6f565b82525050565b60038110611ba157611ba06119fb565b5b50565b6000819050611bb282611b90565b919050565b6000611bc282611ba4565b9050919050565b611bd281611bb7565b82525050565b600061014083016000830151611bf1600086018261195c565b5060208301518482036020860152611c098282611a72565b91505060408301518482036040860152611c2382826119c2565b91505060608301518482036060860152611c3d82826119c2565b91505060808301518482036080860152611c5782826119c2565b91505060a0830151611c6c60a086018261195c565b5060c0830151611c7f60c086018261195c565b5060e0830151611c9260e086018261195c565b50610100830151611ca7610100860182611b81565b50610120830151611cbc610120860182611bc9565b508091505092915050565b6000611cd38383611bd8565b905092915050565b6000602082019050919050565b6000611cf382611930565b611cfd818561193b565b935083602082028501611d0f8561194c565b8060005b85811015611d4b5784840389528151611d2c8582611cc7565b9450611d3783611cdb565b925060208a01995050600181019050611d13565b50829750879550505050505092915050565b60006020820190508181036000830152611d778184611ce8565b905092915050565b600080fd5b600080fd5b7f4e487b7100000000000000000000000000000000000000000000000000000000600052604160045260246000fd5b611dc1826119b1565b810181811067ffffffffffffffff82111715611de057611ddf611d89565b5b80604052505050565b6000611df36118b9565b9050611dff8282611db8565b919050565b600067ffffffffffffffff821115611e1f57611e1e611d89565b5b611e28826119b1565b9050602081019050919050565b82818337600083830152505050565b6000611e57611e5284611e04565b611de9565b905082815260208101848484011115611e7357611e72611d84565b5b611e7e848285611e35565b509392505050565b600082601f830112611e9b57611e9a611d7f565b5b8135611eab848260208601611e44565b91505092915050565b600060208284031215611eca57611ec96118c3565b5b600082013567ffffffffffffffff811115611ee857611ee76118c8565b5b611ef484828501611e86565b91505092915050565b611f06816118cd565b82525050565b6000602082019050611f216000830184611efd565b92915050565b600081519050919050565b600082825260208201905092915050565b6000819050602082019050919050565b60028110611f6457611f636119fb565b5b50565b6000819050611f7582611f53565b919050565b6000611f8582611f67565b9050919050565b611f9581611f7a565b82525050565b6000610160830160008301518482036000860152611fb982826119c2565b91505060208301518482036020860152611fd382826119c2565b91505060408301518482036040860152611fed82826119c2565b9150506060830151612002606086018261195c565b506080830151612015608086018261195c565b5060a083015161202860a086018261195c565b5060c083015161203b60c086018261195c565b5060e083015161204e60e086018261195c565b5061010083015161206361010086018261195c565b5061012083015161207861012086018261195c565b5061014083015161208d610140860182611f8c565b508091505092915050565b600381106120a9576120a86119fb565b5b50565b60008190506120ba82612098565b919050565b60006120ca826120ac565b9050919050565b6120da816120bf565b82525050565b600060e0830160008301516120f8600086018261195c565b50602083015184820360208601526121108282611f9b565b9150506040830151848203604086015261212a82826119c2565b915050606083015161213f606086018261195c565b506080830151612152608086018261195c565b5060a083015161216560a0860182611b81565b5060c083015161217860c08601826120d1565b508091505092915050565b600061218f83836120e0565b905092915050565b6000602082019050919050565b60006121af82611f27565b6121b98185611f32565b9350836020820285016121cb85611f43565b8060005b8581101561220757848403895281516121e88582612183565b94506121f383612197565b925060208a019950506001810190506121cf565b50829750879550505050505092915050565b6000602082019050818103600083015261223381846121a4565b905092915050565b600067ffffffffffffffff82111561225657612255611d89565b5b602082029050602081019050919050565b600080fd5b600080fd5b600080fd5b6002811061228357600080fd5b50565b60008135905061229581612276565b92915050565b600061016082840312156122b2576122b161226c565b5b6122bd610160611de9565b9050600082013567ffffffffffffffff8111156122dd576122dc612271565b5b6122e984828501611e86565b600083015250602082013567ffffffffffffffff81111561230d5761230c612271565b5b61231984828501611e86565b602083015250604082013567ffffffffffffffff81111561233d5761233c612271565b5b61234984828501611e86565b604083015250606061235d848285016118ee565b6060830152506080612371848285016118ee565b60808301525060a0612385848285016118ee565b60a08301525060c0612399848285016118ee565b60c08301525060e06123ad848285016118ee565b60e0830152506101006123c2848285016118ee565b610100830152506101206123d8848285016118ee565b610120830152506101406123ee84828501612286565b6101408301525092915050565b600061240e6124098461223b565b611de9565b9050808382526020820190506020840283018581111561243157612430612267565b5b835b8181101561247857803567ffffffffffffffff81111561245657612455611d7f565b5b808601612463898261229b565b85526020850194505050602081019050612433565b5050509392505050565b600082601f83011261249757612496611d7f565b5b81356124a78482602086016123fb565b91505092915050565b6000602082840312156124c6576124c56118c3565b5b600082013567ffffffffffffffff8111156124e4576124e36118c8565b5b6124f084828501612482565b91505092915050565b600081519050919050565b600082825260208201905092915050565b6000819050602082019050919050565b60008115159050919050565b61253a81612525565b82525050565b600061254c8383612531565b60208301905092915050565b6000602082019050919050565b6000612570826124f9565b61257a8185612504565b935061258583612515565b8060005b838110156125b657815161259d8882612540565b97506125a883612558565b925050600181019050612589565b5085935050505092915050565b600060208201905081810360008301526125dd8184612565565b905092915050565b600281106125f257600080fd5b50565b600081359050612604816125e5565b92915050565b600061016082840312156126215761262061226c565b5b61262c610160611de9565b9050600082013567ffffffffffffffff81111561264c5761264b612271565b5b61265884828501611e86565b600083015250602082013567ffffffffffffffff81111561267c5761267b612271565b5b61268884828501611e86565b602083015250604082013567ffffffffffffffff8111156126ac576126ab612271565b5b6126b884828501611e86565b60408301525060606126cc848285016118ee565b60608301525060806126e0848285016118ee565b60808301525060a06126f4848285016118ee565b60a08301525060c0612708848285016118ee565b60c08301525060e061271c848285016118ee565b60e083015250610100612731848285016118ee565b61010083015250610120612747848285016118ee565b6101208301525061014061275d848285016125f5565b6101408301525092915050565b600080600080600060a08688031215612786576127856118c3565b5b600086013567ffffffffffffffff8111156127a4576127a36118c8565b5b6127b08882890161260a565b955050602086013567ffffffffffffffff8111156127d1576127d06118c8565b5b6127dd88828901611e86565b945050604086013567ffffffffffffffff8111156127fe576127fd6118c8565b5b61280a88828901611e86565b935050606086013567ffffffffffffffff81111561282b5761282a6118c8565b5b61283788828901611e86565b9250506080612848888289016118ee565b9150509295509295909350565b6000806040838503121561286c5761286b6118c3565b5b600083013567ffffffffffffffff81111561288a576128896118c8565b5b6128968582860161229b565b925050602083013567ffffffffffffffff8111156128b7576128b66118c8565b5b6128c385828601611e86565b9150509250929050565b6128d681611b6f565b82525050565b60006020820190506128f160008301846128cd565b92915050565b61290081611b6f565b811461290b57600080fd5b50565b60008135905061291d816128f7565b92915050565b600060208284031215612939576129386118c3565b5b60006129478482850161290e565b91505092915050565b61295981612525565b82525050565b60006020820190506129746000830184612950565b92915050565b60006129858261186b565b9050919050565b6129958161297a565b82525050565b60006020820190506129b0600083018461298c565b92915050565b600067ffffffffffffffff8211156129d1576129d0611d89565b5b602082029050602081019050919050565b60006129f56129f0846129b6565b611de9565b90508083825260208201905060208402830185811115612a1857612a17612267565b5b835b81811015612a5f57803567ffffffffffffffff811115612a3d57612a3c611d7f565b5b808601612a4a898261260a565b85526020850194505050602081019050612a1a565b5050509392505050565b600082601f830112612a7e57612a7d611d7f565b5b8135612a8e8482602086016129e2565b91505092915050565b600060208284031215612aad57612aac6118c3565b5b600082013567ffffffffffffffff811115612acb57612aca6118c8565b5b612ad784828501612a69565b91505092915050565b6000604082019050612af56000830185611efd565b612b0260208301846128cd565b9392505050565b600082825260208201905092915050565b7f496e73757265723a204f6e6c792074686520696e73757265722063616e20636160008201527f6c6c207468697300000000000000000000000000000000000000000000000000602082015250565b6000612b76602783612b09565b9150612b8182612b1a565b604082019050919050565b60006020820190508181036000830152612ba581612b69565b9050919050565b7f496e73756666696369656e742062616c616e6365000000000000000000000000600082015250565b6000612be2601483612b09565b9150612bed82612bac565b602082019050919050565b60006020820190508181036000830152612c1181612bd5565b9050919050565b600067ffffffffffffffff821115612c3357612c32611d89565b5b602082029050602081019050919050565b600081519050612c53816118d7565b92915050565b6000612c6c612c6784611e04565b611de9565b905082815260208101848484011115612c8857612c87611d84565b5b612c93848285611987565b509392505050565b600082601f830112612cb057612caf611d7f565b5b8151612cc0848260208601612c59565b91505092915050565b600081519050612cd8816125e5565b92915050565b60006101608284031215612cf557612cf461226c565b5b612d00610160611de9565b9050600082015167ffffffffffffffff811115612d2057612d1f612271565b5b612d2c84828501612c9b565b600083015250602082015167ffffffffffffffff811115612d5057612d4f612271565b5b612d5c84828501612c9b565b602083015250604082015167ffffffffffffffff811115612d8057612d7f612271565b5b612d8c84828501612c9b565b6040830152506060612da084828501612c44565b6060830152506080612db484828501612c44565b60808301525060a0612dc884828501612c44565b60a08301525060c0612ddc84828501612c44565b60c08301525060e0612df084828501612c44565b60e083015250610100612e0584828501612c44565b61010083015250610120612e1b84828501612c44565b61012083015250610140612e3184828501612cc9565b6101408301525092915050565b600081519050612e4d816128f7565b92915050565b60038110612e6057600080fd5b50565b600081519050612e7281612e53565b92915050565b60006101408284031215612e8f57612e8e61226c565b5b612e9a610140611de9565b90506000612eaa84828501612c44565b600083015250602082015167ffffffffffffffff811115612ece57612ecd612271565b5b612eda84828501612cde565b602083015250604082015167ffffffffffffffff811115612efe57612efd612271565b5b612f0a84828501612c9b565b604083015250606082015167ffffffffffffffff811115612f2e57612f2d612271565b5b612f3a84828501612c9b565b606083015250608082015167ffffffffffffffff811115612f5e57612f5d612271565b5b612f6a84828501612c9b565b60808301525060a0612f7e84828501612c44565b60a08301525060c0612f9284828501612c44565b60c08301525060e0612fa684828501612c44565b60e083015250610100612fbb84828501612e3e565b61010083015250610120612fd184828501612e63565b6101208301525092915050565b6000612ff1612fec84612c18565b611de9565b9050808382526020820190506020840283018581111561301457613013612267565b5b835b8181101561305b57805167ffffffffffffffff81111561303957613038611d7f565b5b8086016130468982612e78565b85526020850194505050602081019050613016565b5050509392505050565b600082601f83011261307a57613079611d7f565b5b815161308a848260208601612fde565b91505092915050565b6000602082840312156130a9576130a86118c3565b5b600082015167ffffffffffffffff8111156130c7576130c66118c8565b5b6130d384828501613065565b91505092915050565b60006130e78261196b565b6130f18185612b09565b9350613101818560208601611987565b61310a816119b1565b840191505092915050565b6000602082019050818103600083015261312f81846130dc565b905092915050565b600067ffffffffffffffff82111561315257613151611d89565b5b602082029050602081019050919050565b60008151905061317281612276565b92915050565b6000610160828403121561318f5761318e61226c565b5b61319a610160611de9565b9050600082015167ffffffffffffffff8111156131ba576131b9612271565b5b6131c684828501612c9b565b600083015250602082015167ffffffffffffffff8111156131ea576131e9612271565b5b6131f684828501612c9b565b602083015250604082015167ffffffffffffffff81111561321a57613219612271565b5b61322684828501612c9b565b604083015250606061323a84828501612c44565b606083015250608061324e84828501612c44565b60808301525060a061326284828501612c44565b60a08301525060c061327684828501612c44565b60c08301525060e061328a84828501612c44565b60e08301525061010061329f84828501612c44565b610100830152506101206132b584828501612c44565b610120830152506101406132cb84828501613163565b6101408301525092915050565b600381106132e557600080fd5b50565b6000815190506132f7816132d8565b92915050565b600060e082840312156133135761331261226c565b5b61331d60e0611de9565b9050600061332d84828501612c44565b600083015250602082015167ffffffffffffffff81111561335157613350612271565b5b61335d84828501613178565b602083015250604082015167ffffffffffffffff81111561338157613380612271565b5b61338d84828501612c9b565b60408301525060606133a184828501612c44565b60608301525060806133b584828501612c44565b60808301525060a06133c984828501612e3e565b60a08301525060c06133dd848285016132e8565b60c08301525092915050565b60006133fc6133f784613137565b611de9565b9050808382526020820190506020840283018581111561341f5761341e612267565b5b835b8181101561346657805167ffffffffffffffff81111561344457613443611d7f565b5b80860161345189826132fd565b85526020850194505050602081019050613421565b5050509392505050565b600082601f83011261348557613484611d7f565b5b81516134958482602086016133e9565b91505092915050565b6000602082840312156134b4576134b36118c3565b5b600082015167ffffffffffffffff8111156134d2576134d16118c8565b5b6134de84828501613470565b91505092915050565b7f4e487b7100000000000000000000000000000000000000000000000000000000600052603260045260246000fd5b7f4e487b7100000000000000000000000000000000000000000000000000000000600052601160045260246000fd5b6000613550826118cd565b915061355b836118cd565b925082820190508082111561357357613572613516565b5b92915050565b6000613584826118cd565b915061358f836118cd565b925082820261359d816118cd565b915082820484148315176135b4576135b3613516565b5b5092915050565b60006135c6826118cd565b91507fffffffffffffffffffffffffffffffffffffffffffffffffffffffffffffffff82036135f8576135f7613516565b5b600182019050919050565b7f496e73756666696369656e7420636f6e74726163742062616c616e636520746f60008201527f20636f76657220706f74656e7469616c207061796f7574730000000000000000602082015250565b600061365f603883612b09565b915061366a82613603565b604082019050919050565b6000602082019050818103600083015261368e81613652565b9050919050565b60006101608301600083015184820360008601526136b382826119c2565b915050602083015184820360208601526136cd82826119c2565b915050604083015184820360408601526136e782826119c2565b91505060608301516136fc606086018261195c565b50608083015161370f608086018261195c565b5060a083015161372260a086018261195c565b5060c083015161373560c086018261195c565b5060e083015161374860e086018261195c565b5061010083015161375d61010086018261195c565b5061012083015161377261012086018261195c565b50610140830151613787610140860182611a63565b508091505092915050565b600060c08201905081810360008301526137ac8189613695565b905081810360208301526137c081886130dc565b905081810360408301526137d481876130dc565b905081810360608301526137e881866130dc565b90506137f76080830185611efd565b61380460a08301846128cd565b979650505050505050565b600060208284031215613825576138246118c3565b5b600061383384828501612c44565b91505092915050565b600081905092915050565b60006138528261196b565b61385c818561383c565b935061386c818560208601611987565b80840191505092915050565b60006138848284613847565b915081905092915050565b60006101608301600083015184820360008601526138ad82826119c2565b915050602083015184820360208601526138c782826119c2565b915050604083015184820360408601526138e182826119c2565b91505060608301516138f6606086018261195c565b506080830151613909608086018261195c565b5060a083015161391c60a086018261195c565b5060c083015161392f60c086018261195c565b5060e083015161394260e086018261195c565b5061010083015161395761010086018261195c565b5061012083015161396c61012086018261195c565b50610140830151613981610140860182611f8c565b508091505092915050565b600060608201905081810360008301526139a6818661388f565b905081810360208301526139ba81856130dc565b90506139c960408301846128cd565b949350505050565b7f496e73757265723a204d757374206465706f736974206120706f73697469766560008201527f20616d6f756e7400000000000000000000000000000000000000000000000000602082015250565b6000613a2d602783612b09565b9150613a38826139d1565b604082019050919050565b60006020820190508181036000830152613a5c81613a20565b905091905056fea26469706673582212204e01e71e86710deddc5560d99d50bb1b15a3d413eb5edfe1e3331f59b717a84664736f6c63430008130033",
  "linkReferences": {},
  "deployedLinkReferences": {}
}