{
  "_format": "hh-sol-artifact-1",
  "contractName": "Insurer",
  "sourceName": "contracts/Insurer.sol",
  "abi": [
    {
      "inputs": [
        {
          "internalType": "address",
          "name": "_flightPolicyAddress",
          "type": "address"
        }
      ],
      "stateMutability": "nonpayable",
      "type": "constructor"
    },
    {
      "anonymous": false,
      "inputs": [
        {
          "indexed": true,
          "internalType": "address",
          "name": "buyer",
          "type": "address"
        },
        {
          "indexed": true,
          "internalType": "uint256",
          "name": "policyId",
          "type": "uint256"
        },
        {
          "indexed": true,
          "internalType": "uint256",
          "name": "templateId",
          "type": "uint256"
        }
      ],
      "name": "FlightPolicyPurchased",
      "type": "event"
    },
    {
      "anonymous": false,
      "inputs": [
        {
          "indexed": true,
          "internalType": "uint256",
          "name": "templateId",
          "type": "uint256"
        },
        {
          "indexed": false,
          "internalType": "string",
          "name": "name",
          "type": "string"
        }
      ],
      "name": "FlightPolicyTemplateCreated",
      "type": "event"
    },
    {
      "anonymous": false,
      "inputs": [
        {
          "indexed": true,
          "internalType": "uint256",
          "name": "templateId",
          "type": "uint256"
        }
      ],
      "name": "FlightPolicyTemplateDeactivated",
      "type": "event"
    },
    {
      "inputs": [
        {
          "internalType": "string",
          "name": "name",
          "type": "string"
        },
        {
          "internalType": "string",
          "name": "description",
          "type": "string"
        },
        {
          "internalType": "uint256",
          "name": "premium",
          "type": "uint256"
        },
        {
          "internalType": "uint256",
          "name": "payoutPerHour",
          "type": "uint256"
        },
        {
          "internalType": "uint256",
          "name": "delayThresholdHours",
          "type": "uint256"
        },
        {
          "internalType": "uint256",
          "name": "maxTotalPayout",
          "type": "uint256"
        },
        {
          "internalType": "uint256",
          "name": "coverageDurationDays",
          "type": "uint256"
        }
      ],
      "name": "createFlightPolicyTemplate",
      "outputs": [],
      "stateMutability": "nonpayable",
      "type": "function"
    },
    {
      "inputs": [
        {
          "internalType": "uint256",
          "name": "templateId",
          "type": "uint256"
        }
      ],
      "name": "deactivateFlightPolicyTemplate",
      "outputs": [],
      "stateMutability": "nonpayable",
      "type": "function"
    },
    {
      "inputs": [],
      "name": "flightPolicy",
      "outputs": [
        {
          "internalType": "contract FlightPolicy",
          "name": "",
          "type": "address"
        }
      ],
      "stateMutability": "view",
      "type": "function"
    },
    {
      "inputs": [],
      "name": "getActiveFlightPolicyTemplates",
      "outputs": [
        {
          "components": [
            {
              "internalType": "uint256",
              "name": "templateId",
              "type": "uint256"
            },
            {
              "internalType": "string",
              "name": "name",
              "type": "string"
            },
            {
              "internalType": "string",
              "name": "description",
              "type": "string"
            },
            {
              "internalType": "uint256",
              "name": "createdAt",
              "type": "uint256"
            },
            {
              "internalType": "uint256",
              "name": "premium",
              "type": "uint256"
            },
            {
              "internalType": "uint256",
              "name": "payoutPerHour",
              "type": "uint256"
            },
            {
              "internalType": "uint256",
              "name": "delayThresholdHours",
              "type": "uint256"
            },
            {
              "internalType": "uint256",
              "name": "maxTotalPayout",
              "type": "uint256"
            },
            {
              "internalType": "uint256",
              "name": "coverageDurationDays",
              "type": "uint256"
            },
            {
              "internalType": "enum FlightPolicy.PolicyTemplateStatus",
              "name": "status",
              "type": "uint8"
            }
          ],
          "internalType": "struct FlightPolicy.PolicyTemplate[]",
          "name": "",
          "type": "tuple[]"
        }
      ],
      "stateMutability": "view",
      "type": "function"
    },
    {
      "inputs": [],
      "name": "getAllFlightPolicies",
      "outputs": [
        {
          "components": [
            {
              "internalType": "uint256",
              "name": "policyId",
              "type": "uint256"
            },
            {
              "internalType": "uint256",
              "name": "templateId",
              "type": "uint256"
            },
            {
              "internalType": "string",
              "name": "flightNumber",
              "type": "string"
            },
            {
              "internalType": "string",
              "name": "departureAirportCode",
              "type": "string"
            },
            {
              "internalType": "string",
              "name": "arrivalAirportCode",
              "type": "string"
            },
            {
              "internalType": "uint256",
              "name": "departureTime",
              "type": "uint256"
            },
            {
              "internalType": "uint256",
              "name": "createdAt",
              "type": "uint256"
            },
            {
              "internalType": "uint256",
              "name": "payoutToDate",
              "type": "uint256"
            },
            {
              "internalType": "address",
              "name": "buyer",
              "type": "address"
            },
            {
              "internalType": "enum FlightPolicy.PolicyStatus",
              "name": "status",
              "type": "uint8"
            }
          ],
          "internalType": "struct FlightPolicy.UserPolicy[]",
          "name": "",
          "type": "tuple[]"
        }
      ],
      "stateMutability": "view",
      "type": "function"
    },
    {
      "inputs": [],
      "name": "getAllFlightPolicyTemplates",
      "outputs": [
        {
          "components": [
            {
              "internalType": "uint256",
              "name": "templateId",
              "type": "uint256"
            },
            {
              "internalType": "string",
              "name": "name",
              "type": "string"
            },
            {
              "internalType": "string",
              "name": "description",
              "type": "string"
            },
            {
              "internalType": "uint256",
              "name": "createdAt",
              "type": "uint256"
            },
            {
              "internalType": "uint256",
              "name": "premium",
              "type": "uint256"
            },
            {
              "internalType": "uint256",
              "name": "payoutPerHour",
              "type": "uint256"
            },
            {
              "internalType": "uint256",
              "name": "delayThresholdHours",
              "type": "uint256"
            },
            {
              "internalType": "uint256",
              "name": "maxTotalPayout",
              "type": "uint256"
            },
            {
              "internalType": "uint256",
              "name": "coverageDurationDays",
              "type": "uint256"
            },
            {
              "internalType": "enum FlightPolicy.PolicyTemplateStatus",
              "name": "status",
              "type": "uint8"
            }
          ],
          "internalType": "struct FlightPolicy.PolicyTemplate[]",
          "name": "",
          "type": "tuple[]"
        }
      ],
      "stateMutability": "view",
      "type": "function"
    },
    {
      "inputs": [
        {
          "internalType": "uint256",
          "name": "templateId",
          "type": "uint256"
        }
      ],
      "name": "getFlightPolicyTemplateById",
      "outputs": [
        {
          "components": [
            {
              "internalType": "uint256",
              "name": "templateId",
              "type": "uint256"
            },
            {
              "internalType": "string",
              "name": "name",
              "type": "string"
            },
            {
              "internalType": "string",
              "name": "description",
              "type": "string"
            },
            {
              "internalType": "uint256",
              "name": "createdAt",
              "type": "uint256"
            },
            {
              "internalType": "uint256",
              "name": "premium",
              "type": "uint256"
            },
            {
              "internalType": "uint256",
              "name": "payoutPerHour",
              "type": "uint256"
            },
            {
              "internalType": "uint256",
              "name": "delayThresholdHours",
              "type": "uint256"
            },
            {
              "internalType": "uint256",
              "name": "maxTotalPayout",
              "type": "uint256"
            },
            {
              "internalType": "uint256",
              "name": "coverageDurationDays",
              "type": "uint256"
            },
            {
              "internalType": "enum FlightPolicy.PolicyTemplateStatus",
              "name": "status",
              "type": "uint8"
            }
          ],
          "internalType": "struct FlightPolicy.PolicyTemplate",
          "name": "",
          "type": "tuple"
        }
      ],
      "stateMutability": "view",
      "type": "function"
    },
    {
      "inputs": [
        {
          "internalType": "address",
          "name": "user",
          "type": "address"
        },
        {
          "internalType": "uint256",
          "name": "policyId",
          "type": "uint256"
        }
      ],
      "name": "getFlightPolicyWithTemplate",
      "outputs": [
        {
          "components": [
            {
              "internalType": "uint256",
              "name": "policyId",
              "type": "uint256"
            },
            {
              "internalType": "uint256",
              "name": "templateId",
              "type": "uint256"
            },
            {
              "internalType": "string",
              "name": "flightNumber",
              "type": "string"
            },
            {
              "internalType": "string",
              "name": "departureAirportCode",
              "type": "string"
            },
            {
              "internalType": "string",
              "name": "arrivalAirportCode",
              "type": "string"
            },
            {
              "internalType": "uint256",
              "name": "departureTime",
              "type": "uint256"
            },
            {
              "internalType": "uint256",
              "name": "createdAt",
              "type": "uint256"
            },
            {
              "internalType": "uint256",
              "name": "payoutToDate",
              "type": "uint256"
            },
            {
              "internalType": "address",
              "name": "buyer",
              "type": "address"
            },
            {
              "internalType": "enum FlightPolicy.PolicyStatus",
              "name": "status",
              "type": "uint8"
            }
          ],
          "internalType": "struct FlightPolicy.UserPolicy",
          "name": "",
          "type": "tuple"
        },
        {
          "components": [
            {
              "internalType": "uint256",
              "name": "templateId",
              "type": "uint256"
            },
            {
              "internalType": "string",
              "name": "name",
              "type": "string"
            },
            {
              "internalType": "string",
              "name": "description",
              "type": "string"
            },
            {
              "internalType": "uint256",
              "name": "createdAt",
              "type": "uint256"
            },
            {
              "internalType": "uint256",
              "name": "premium",
              "type": "uint256"
            },
            {
              "internalType": "uint256",
              "name": "payoutPerHour",
              "type": "uint256"
            },
            {
              "internalType": "uint256",
              "name": "delayThresholdHours",
              "type": "uint256"
            },
            {
              "internalType": "uint256",
              "name": "maxTotalPayout",
              "type": "uint256"
            },
            {
              "internalType": "uint256",
              "name": "coverageDurationDays",
              "type": "uint256"
            },
            {
              "internalType": "enum FlightPolicy.PolicyTemplateStatus",
              "name": "status",
              "type": "uint8"
            }
          ],
          "internalType": "struct FlightPolicy.PolicyTemplate",
          "name": "",
          "type": "tuple"
        }
      ],
      "stateMutability": "view",
      "type": "function"
    },
    {
      "inputs": [
        {
          "internalType": "address",
          "name": "user",
          "type": "address"
        }
      ],
      "name": "getUserFlightPolicies",
      "outputs": [
        {
          "components": [
            {
              "internalType": "uint256",
              "name": "policyId",
              "type": "uint256"
            },
            {
              "internalType": "uint256",
              "name": "templateId",
              "type": "uint256"
            },
            {
              "internalType": "string",
              "name": "flightNumber",
              "type": "string"
            },
            {
              "internalType": "string",
              "name": "departureAirportCode",
              "type": "string"
            },
            {
              "internalType": "string",
              "name": "arrivalAirportCode",
              "type": "string"
            },
            {
              "internalType": "uint256",
              "name": "departureTime",
              "type": "uint256"
            },
            {
              "internalType": "uint256",
              "name": "createdAt",
              "type": "uint256"
            },
            {
              "internalType": "uint256",
              "name": "payoutToDate",
              "type": "uint256"
            },
            {
              "internalType": "address",
              "name": "buyer",
              "type": "address"
            },
            {
              "internalType": "enum FlightPolicy.PolicyStatus",
              "name": "status",
              "type": "uint8"
            }
          ],
          "internalType": "struct FlightPolicy.UserPolicy[]",
          "name": "",
          "type": "tuple[]"
        }
      ],
      "stateMutability": "view",
      "type": "function"
    },
    {
      "inputs": [],
      "name": "insurerAddress",
      "outputs": [
        {
          "internalType": "address",
          "name": "",
          "type": "address"
        }
      ],
      "stateMutability": "view",
      "type": "function"
    },
    {
      "inputs": [
        {
          "internalType": "address",
          "name": "user",
          "type": "address"
        }
      ],
      "name": "isInsurer",
      "outputs": [
        {
          "internalType": "bool",
          "name": "",
          "type": "bool"
        }
      ],
      "stateMutability": "view",
      "type": "function"
    },
    {
      "inputs": [
        {
          "internalType": "address",
          "name": "buyer",
          "type": "address"
        },
        {
          "internalType": "uint256",
          "name": "policyId",
          "type": "uint256"
        }
      ],
      "name": "markFlightPolicyAsClaimed",
      "outputs": [],
      "stateMutability": "nonpayable",
      "type": "function"
    },
    {
      "inputs": [
        {
          "internalType": "uint256",
          "name": "policyId",
          "type": "uint256"
        }
      ],
      "name": "markFlightPolicyAsExpired",
      "outputs": [],
      "stateMutability": "nonpayable",
      "type": "function"
    },
    {
      "inputs": [
        {
          "internalType": "uint256",
          "name": "templateId",
          "type": "uint256"
        },
        {
          "internalType": "string",
          "name": "flightNumber",
          "type": "string"
        },
        {
          "internalType": "string",
          "name": "departureAirportCode",
          "type": "string"
        },
        {
          "internalType": "string",
          "name": "arrivalAirportCode",
          "type": "string"
        },
        {
          "internalType": "uint256",
          "name": "departureTime",
          "type": "uint256"
        }
      ],
      "name": "purchaseFlightPolicy",
      "outputs": [],
      "stateMutability": "payable",
      "type": "function"
    },
    {
      "inputs": [
        {
          "internalType": "uint256",
          "name": "amountInWei",
          "type": "uint256"
        }
      ],
      "name": "withdraw",
      "outputs": [],
      "stateMutability": "nonpayable",
      "type": "function"
    },
    {
      "stateMutability": "payable",
      "type": "receive"
    }
  ],
  "bytecode": "0x60a06040523480156200001157600080fd5b506040516200294b3803806200294b83398181016040528101906200003791906200011c565b3373ffffffffffffffffffffffffffffffffffffffff1660808173ffffffffffffffffffffffffffffffffffffffff1681525050806000806101000a81548173ffffffffffffffffffffffffffffffffffffffff021916908373ffffffffffffffffffffffffffffffffffffffff160217905550506200014e565b600080fd5b600073ffffffffffffffffffffffffffffffffffffffff82169050919050565b6000620000e482620000b7565b9050919050565b620000f681620000d7565b81146200010257600080fd5b50565b6000815190506200011681620000eb565b92915050565b600060208284031215620001355762000134620000b2565b5b6000620001458482850162000105565b91505092915050565b60805161279b620001b06000396000818161046e0152818161053f015281816105b1015281816107de0152818161095d01528181610a8601528181610bac01528181610cc801528181610de701528181610eb30152610ffe015261279b6000f3fe6080604052600436106100ec5760003560e01c80636017f97e1161008a578063b715521b11610059578063b715521b146102cc578063be3dfb7814610309578063da7897e214610332578063f05e5b621461036f576100f3565b80636017f97e146102245780636906496e1461024f578063884d7f6414610278578063a7c0900e146102a1576100f3565b806333018f45116100c657806333018f451461017757806343c0e7cb146101b45780634aefa0fe146101d05780634dd7b2a8146101f9576100f3565b806307116510146100f85780632287ddc4146101235780632e1a7d4d1461014e576100f3565b366100f357005b600080fd5b34801561010457600080fd5b5061010d6103ad565b60405161011a919061126d565b60405180910390f35b34801561012f57600080fd5b506101386103d1565b604051610145919061154b565b60405180910390f35b34801561015a57600080fd5b50610175600480360381019061017091906115ad565b61046c565b005b34801561018357600080fd5b5061019e600480360381019061019991906115ad565b6105a7565b6040516101ab91906116bb565b60405180910390f35b6101ce60048036038101906101c99190611812565b6106e3565b005b3480156101dc57600080fd5b506101f760048036038101906101f291906118e1565b6107dc565b005b34801561020557600080fd5b5061020e610959565b60405161021b9190611bce565b60405180910390f35b34801561023057600080fd5b50610239610a82565b604051610246919061154b565b60405180910390f35b34801561025b57600080fd5b50610276600480360381019061027191906115ad565b610baa565b005b34801561028457600080fd5b5061029f600480360381019061029a9190611c1c565b610cc6565b005b3480156102ad57600080fd5b506102b6610de5565b6040516102c39190611c6b565b60405180910390f35b3480156102d857600080fd5b506102f360048036038101906102ee9190611c86565b610e09565b6040516103009190611bce565b60405180910390f35b34801561031557600080fd5b50610330600480360381019061032b91906115ad565b610eb1565b005b34801561033e57600080fd5b5061035960048036038101906103549190611c86565b610ffa565b6040516103669190611cce565b60405180910390f35b34801561037b57600080fd5b5061039660048036038101906103919190611c1c565b611052565b6040516103a4929190611dd1565b60405180910390f35b60008054906101000a900473ffffffffffffffffffffffffffffffffffffffff1681565b606060008054906101000a900473ffffffffffffffffffffffffffffffffffffffff1673ffffffffffffffffffffffffffffffffffffffff1663e79cdf1d6040518163ffffffff1660e01b8152600401600060405180830381865afa15801561043e573d6000803e3d6000fd5b505050506040513d6000823e3d601f19601f8201168201806040525081019061046791906120d0565b905090565b7f000000000000000000000000000000000000000000000000000000000000000073ffffffffffffffffffffffffffffffffffffffff163373ffffffffffffffffffffffffffffffffffffffff16146104fa576040517f08c379a00000000000000000000000000000000000000000000000000000000081526004016104f19061219c565b60405180910390fd5b8047101561053d576040517f08c379a000000000000000000000000000000000000000000000000000000000815260040161053490612208565b60405180910390fd5b7f000000000000000000000000000000000000000000000000000000000000000073ffffffffffffffffffffffffffffffffffffffff166108fc829081150290604051600060405180830381858888f193505050501580156105a3573d6000803e3d6000fd5b5050565b6105af61110e565b7f000000000000000000000000000000000000000000000000000000000000000073ffffffffffffffffffffffffffffffffffffffff163373ffffffffffffffffffffffffffffffffffffffff161461063d576040517f08c379a00000000000000000000000000000000000000000000000000000000081526004016106349061219c565b60405180910390fd5b60008054906101000a900473ffffffffffffffffffffffffffffffffffffffff1673ffffffffffffffffffffffffffffffffffffffff16635990fa36836040518263ffffffff1660e01b81526004016106969190612237565b600060405180830381865afa1580156106b3573d6000803e3d6000fd5b505050506040513d6000823e3d601f19601f820116820180604052508101906106dc9190612252565b9050919050565b60008060009054906101000a900473ffffffffffffffffffffffffffffffffffffffff1673ffffffffffffffffffffffffffffffffffffffff1663b207edc7348888888888336040518863ffffffff1660e01b815260040161074a969594939291906122d4565b60206040518083038185885af1158015610768573d6000803e3d6000fd5b50505050506040513d601f19601f8201168201806040525081019061078d919061234a565b905085813373ffffffffffffffffffffffffffffffffffffffff167feffe1aca794f1f12cecd2282e563efd5541b166abc4535dbd19df10aa98a16de60405160405180910390a4505050505050565b7f000000000000000000000000000000000000000000000000000000000000000073ffffffffffffffffffffffffffffffffffffffff163373ffffffffffffffffffffffffffffffffffffffff161461086a576040517f08c379a00000000000000000000000000000000000000000000000000000000081526004016108619061219c565b60405180910390fd5b60008060009054906101000a900473ffffffffffffffffffffffffffffffffffffffff1673ffffffffffffffffffffffffffffffffffffffff166388641494898989898989896040518863ffffffff1660e01b81526004016108d29796959493929190612377565b6020604051808303816000875af11580156108f1573d6000803e3d6000fd5b505050506040513d601f19601f82011682018060405250810190610915919061234a565b9050807fc69722450388b8bc8a6113ad1972ad8c8ddfde8ef6606ec1d011e195bc00dfb88960405161094791906123f4565b60405180910390a25050505050505050565b60607f000000000000000000000000000000000000000000000000000000000000000073ffffffffffffffffffffffffffffffffffffffff163373ffffffffffffffffffffffffffffffffffffffff16146109e9576040517f08c379a00000000000000000000000000000000000000000000000000000000081526004016109e09061219c565b60405180910390fd5b60008054906101000a900473ffffffffffffffffffffffffffffffffffffffff1673ffffffffffffffffffffffffffffffffffffffff1663457e55216040518163ffffffff1660e01b8152600401600060405180830381865afa158015610a54573d6000803e3d6000fd5b505050506040513d6000823e3d601f19601f82011682018060405250810190610a7d919061267b565b905090565b60607f000000000000000000000000000000000000000000000000000000000000000073ffffffffffffffffffffffffffffffffffffffff163373ffffffffffffffffffffffffffffffffffffffff1614610b12576040517f08c379a0000000000000000000000000000000000000000000000000000000008152600401610b099061219c565b60405180910390fd5b60008054906101000a900473ffffffffffffffffffffffffffffffffffffffff1673ffffffffffffffffffffffffffffffffffffffff1662c84c046040518163ffffffff1660e01b8152600401600060405180830381865afa158015610b7c573d6000803e3d6000fd5b505050506040513d6000823e3d601f19601f82011682018060405250810190610ba591906120d0565b905090565b7f000000000000000000000000000000000000000000000000000000000000000073ffffffffffffffffffffffffffffffffffffffff163373ffffffffffffffffffffffffffffffffffffffff1614610c38576040517f08c379a0000000000000000000000000000000000000000000000000000000008152600401610c2f9061219c565b60405180910390fd5b60008054906101000a900473ffffffffffffffffffffffffffffffffffffffff1673ffffffffffffffffffffffffffffffffffffffff1663cf39c624826040518263ffffffff1660e01b8152600401610c919190612237565b600060405180830381600087803b158015610cab57600080fd5b505af1158015610cbf573d6000803e3d6000fd5b5050505050565b7f000000000000000000000000000000000000000000000000000000000000000073ffffffffffffffffffffffffffffffffffffffff163373ffffffffffffffffffffffffffffffffffffffff1614610d54576040517f08c379a0000000000000000000000000000000000000000000000000000000008152600401610d4b9061219c565b60405180910390fd5b60008054906101000a900473ffffffffffffffffffffffffffffffffffffffff1673ffffffffffffffffffffffffffffffffffffffff166328cf382c83836040518363ffffffff1660e01b8152600401610daf9291906126c4565b600060405180830381600087803b158015610dc957600080fd5b505af1158015610ddd573d6000803e3d6000fd5b505050505050565b7f000000000000000000000000000000000000000000000000000000000000000081565b606060008054906101000a900473ffffffffffffffffffffffffffffffffffffffff1673ffffffffffffffffffffffffffffffffffffffff166319ac4614836040518263ffffffff1660e01b8152600401610e649190611c6b565b600060405180830381865afa158015610e81573d6000803e3d6000fd5b505050506040513d6000823e3d601f19601f82011682018060405250810190610eaa919061267b565b9050919050565b7f000000000000000000000000000000000000000000000000000000000000000073ffffffffffffffffffffffffffffffffffffffff163373ffffffffffffffffffffffffffffffffffffffff1614610f3f576040517f08c379a0000000000000000000000000000000000000000000000000000000008152600401610f369061219c565b60405180910390fd5b60008054906101000a900473ffffffffffffffffffffffffffffffffffffffff1673ffffffffffffffffffffffffffffffffffffffff1663482ab102826040518263ffffffff1660e01b8152600401610f989190612237565b600060405180830381600087803b158015610fb257600080fd5b505af1158015610fc6573d6000803e3d6000fd5b50505050807f143219b70842595e29b0ba3550cb75419efa6e37ecb13c1d58dcb81e6ff95f1960405160405180910390a250565b60007f000000000000000000000000000000000000000000000000000000000000000073ffffffffffffffffffffffffffffffffffffffff168273ffffffffffffffffffffffffffffffffffffffff16149050919050565b61105a611173565b61106261110e565b60008054906101000a900473ffffffffffffffffffffffffffffffffffffffff1673ffffffffffffffffffffffffffffffffffffffff166313e896b685856040518363ffffffff1660e01b81526004016110bd9291906126c4565b600060405180830381865afa1580156110da573d6000803e3d6000fd5b505050506040513d6000823e3d601f19601f8201168201806040525081019061110391906126ed565b915091509250929050565b6040518061014001604052806000815260200160608152602001606081526020016000815260200160008152602001600081526020016000815260200160008152602001600081526020016000600181111561116d5761116c61135d565b5b81525090565b6040518061014001604052806000815260200160008152602001606081526020016060815260200160608152602001600081526020016000815260200160008152602001600073ffffffffffffffffffffffffffffffffffffffff168152602001600060028111156111e8576111e761135d565b5b81525090565b600073ffffffffffffffffffffffffffffffffffffffff82169050919050565b6000819050919050565b600061123361122e611229846111ee565b61120e565b6111ee565b9050919050565b600061124582611218565b9050919050565b60006112578261123a565b9050919050565b6112678161124c565b82525050565b6000602082019050611282600083018461125e565b92915050565b600081519050919050565b600082825260208201905092915050565b6000819050602082019050919050565b6000819050919050565b6112c7816112b4565b82525050565b600081519050919050565b600082825260208201905092915050565b60005b838110156113075780820151818401526020810190506112ec565b60008484015250505050565b6000601f19601f8301169050919050565b600061132f826112cd565b61133981856112d8565b93506113498185602086016112e9565b61135281611313565b840191505092915050565b7f4e487b7100000000000000000000000000000000000000000000000000000000600052602160045260246000fd5b6002811061139d5761139c61135d565b5b50565b60008190506113ae8261138c565b919050565b60006113be826113a0565b9050919050565b6113ce816113b3565b82525050565b6000610140830160008301516113ed60008601826112be565b50602083015184820360208601526114058282611324565b9150506040830151848203604086015261141f8282611324565b915050606083015161143460608601826112be565b50608083015161144760808601826112be565b5060a083015161145a60a08601826112be565b5060c083015161146d60c08601826112be565b5060e083015161148060e08601826112be565b506101008301516114956101008601826112be565b506101208301516114aa6101208601826113c5565b508091505092915050565b60006114c183836113d4565b905092915050565b6000602082019050919050565b60006114e182611288565b6114eb8185611293565b9350836020820285016114fd856112a4565b8060005b85811015611539578484038952815161151a85826114b5565b9450611525836114c9565b925060208a01995050600181019050611501565b50829750879550505050505092915050565b6000602082019050818103600083015261156581846114d6565b905092915050565b6000604051905090565b600080fd5b600080fd5b61158a816112b4565b811461159557600080fd5b50565b6000813590506115a781611581565b92915050565b6000602082840312156115c3576115c2611577565b5b60006115d184828501611598565b91505092915050565b6000610140830160008301516115f360008601826112be565b506020830151848203602086015261160b8282611324565b915050604083015184820360408601526116258282611324565b915050606083015161163a60608601826112be565b50608083015161164d60808601826112be565b5060a083015161166060a08601826112be565b5060c083015161167360c08601826112be565b5060e083015161168660e08601826112be565b5061010083015161169b6101008601826112be565b506101208301516116b06101208601826113c5565b508091505092915050565b600060208201905081810360008301526116d581846115da565b905092915050565b600080fd5b600080fd5b7f4e487b7100000000000000000000000000000000000000000000000000000000600052604160045260246000fd5b61171f82611313565b810181811067ffffffffffffffff8211171561173e5761173d6116e7565b5b80604052505050565b600061175161156d565b905061175d8282611716565b919050565b600067ffffffffffffffff82111561177d5761177c6116e7565b5b61178682611313565b9050602081019050919050565b82818337600083830152505050565b60006117b56117b084611762565b611747565b9050828152602081018484840111156117d1576117d06116e2565b5b6117dc848285611793565b509392505050565b600082601f8301126117f9576117f86116dd565b5b81356118098482602086016117a2565b91505092915050565b600080600080600060a0868803121561182e5761182d611577565b5b600061183c88828901611598565b955050602086013567ffffffffffffffff81111561185d5761185c61157c565b5b611869888289016117e4565b945050604086013567ffffffffffffffff81111561188a5761188961157c565b5b611896888289016117e4565b935050606086013567ffffffffffffffff8111156118b7576118b661157c565b5b6118c3888289016117e4565b92505060806118d488828901611598565b9150509295509295909350565b600080600080600080600060e0888a031215611900576118ff611577565b5b600088013567ffffffffffffffff81111561191e5761191d61157c565b5b61192a8a828b016117e4565b975050602088013567ffffffffffffffff81111561194b5761194a61157c565b5b6119578a828b016117e4565b96505060406119688a828b01611598565b95505060606119798a828b01611598565b945050608061198a8a828b01611598565b93505060a061199b8a828b01611598565b92505060c06119ac8a828b01611598565b91505092959891949750929550565b600081519050919050565b600082825260208201905092915050565b6000819050602082019050919050565b60006119f2826111ee565b9050919050565b611a02816119e7565b82525050565b60038110611a1957611a1861135d565b5b50565b6000819050611a2a82611a08565b919050565b6000611a3a82611a1c565b9050919050565b611a4a81611a2f565b82525050565b600061014083016000830151611a6960008601826112be565b506020830151611a7c60208601826112be565b5060408301518482036040860152611a948282611324565b91505060608301518482036060860152611aae8282611324565b91505060808301518482036080860152611ac88282611324565b91505060a0830151611add60a08601826112be565b5060c0830151611af060c08601826112be565b5060e0830151611b0360e08601826112be565b50610100830151611b186101008601826119f9565b50610120830151611b2d610120860182611a41565b508091505092915050565b6000611b448383611a50565b905092915050565b6000602082019050919050565b6000611b64826119bb565b611b6e81856119c6565b935083602082028501611b80856119d7565b8060005b85811015611bbc5784840389528151611b9d8582611b38565b9450611ba883611b4c565b925060208a01995050600181019050611b84565b50829750879550505050505092915050565b60006020820190508181036000830152611be88184611b59565b905092915050565b611bf9816119e7565b8114611c0457600080fd5b50565b600081359050611c1681611bf0565b92915050565b60008060408385031215611c3357611c32611577565b5b6000611c4185828601611c07565b9250506020611c5285828601611598565b9150509250929050565b611c65816119e7565b82525050565b6000602082019050611c806000830184611c5c565b92915050565b600060208284031215611c9c57611c9b611577565b5b6000611caa84828501611c07565b91505092915050565b60008115159050919050565b611cc881611cb3565b82525050565b6000602082019050611ce36000830184611cbf565b92915050565b600061014083016000830151611d0260008601826112be565b506020830151611d1560208601826112be565b5060408301518482036040860152611d2d8282611324565b91505060608301518482036060860152611d478282611324565b91505060808301518482036080860152611d618282611324565b91505060a0830151611d7660a08601826112be565b5060c0830151611d8960c08601826112be565b5060e0830151611d9c60e08601826112be565b50610100830151611db16101008601826119f9565b50610120830151611dc6610120860182611a41565b508091505092915050565b60006040820190508181036000830152611deb8185611ce9565b90508181036020830152611dff81846115da565b90509392505050565b600067ffffffffffffffff821115611e2357611e226116e7565b5b602082029050602081019050919050565b600080fd5b600080fd5b600080fd5b600081519050611e5281611581565b92915050565b6000611e6b611e6684611762565b611747565b905082815260208101848484011115611e8757611e866116e2565b5b611e928482856112e9565b509392505050565b600082601f830112611eaf57611eae6116dd565b5b8151611ebf848260208601611e58565b91505092915050565b60028110611ed557600080fd5b50565b600081519050611ee781611ec8565b92915050565b60006101408284031215611f0457611f03611e39565b5b611f0f610140611747565b90506000611f1f84828501611e43565b600083015250602082015167ffffffffffffffff811115611f4357611f42611e3e565b5b611f4f84828501611e9a565b602083015250604082015167ffffffffffffffff811115611f7357611f72611e3e565b5b611f7f84828501611e9a565b6040830152506060611f9384828501611e43565b6060830152506080611fa784828501611e43565b60808301525060a0611fbb84828501611e43565b60a08301525060c0611fcf84828501611e43565b60c08301525060e0611fe384828501611e43565b60e083015250610100611ff884828501611e43565b6101008301525061012061200e84828501611ed8565b6101208301525092915050565b600061202e61202984611e08565b611747565b9050808382526020820190506020840283018581111561205157612050611e34565b5b835b8181101561209857805167ffffffffffffffff811115612076576120756116dd565b5b8086016120838982611eed565b85526020850194505050602081019050612053565b5050509392505050565b600082601f8301126120b7576120b66116dd565b5b81516120c784826020860161201b565b91505092915050565b6000602082840312156120e6576120e5611577565b5b600082015167ffffffffffffffff8111156121045761210361157c565b5b612110848285016120a2565b91505092915050565b600082825260208201905092915050565b7f496e73757265723a204f6e6c792074686520696e73757265722063616e20636160008201527f6c6c207468697300000000000000000000000000000000000000000000000000602082015250565b6000612186602783612119565b91506121918261212a565b604082019050919050565b600060208201905081810360008301526121b581612179565b9050919050565b7f496e73756666696369656e742062616c616e6365000000000000000000000000600082015250565b60006121f2601483612119565b91506121fd826121bc565b602082019050919050565b60006020820190508181036000830152612221816121e5565b9050919050565b612231816112b4565b82525050565b600060208201905061224c6000830184612228565b92915050565b60006020828403121561226857612267611577565b5b600082015167ffffffffffffffff8111156122865761228561157c565b5b61229284828501611eed565b91505092915050565b60006122a6826112cd565b6122b08185612119565b93506122c08185602086016112e9565b6122c981611313565b840191505092915050565b600060c0820190506122e96000830189612228565b81810360208301526122fb818861229b565b9050818103604083015261230f818761229b565b90508181036060830152612323818661229b565b90506123326080830185612228565b61233f60a0830184611c5c565b979650505050505050565b6000602082840312156123605761235f611577565b5b600061236e84828501611e43565b91505092915050565b600060e0820190508181036000830152612391818a61229b565b905081810360208301526123a5818961229b565b90506123b46040830188612228565b6123c16060830187612228565b6123ce6080830186612228565b6123db60a0830185612228565b6123e860c0830184612228565b98975050505050505050565b6000602082019050818103600083015261240e818461229b565b905092915050565b600067ffffffffffffffff821115612431576124306116e7565b5b602082029050602081019050919050565b60008151905061245181611bf0565b92915050565b6003811061246457600080fd5b50565b60008151905061247681612457565b92915050565b6000610140828403121561249357612492611e39565b5b61249e610140611747565b905060006124ae84828501611e43565b60008301525060206124c284828501611e43565b602083015250604082015167ffffffffffffffff8111156124e6576124e5611e3e565b5b6124f284828501611e9a565b604083015250606082015167ffffffffffffffff81111561251657612515611e3e565b5b61252284828501611e9a565b606083015250608082015167ffffffffffffffff81111561254657612545611e3e565b5b61255284828501611e9a565b60808301525060a061256684828501611e43565b60a08301525060c061257a84828501611e43565b60c08301525060e061258e84828501611e43565b60e0830152506101006125a384828501612442565b610100830152506101206125b984828501612467565b6101208301525092915050565b60006125d96125d484612416565b611747565b905080838252602082019050602084028301858111156125fc576125fb611e34565b5b835b8181101561264357805167ffffffffffffffff811115612621576126206116dd565b5b80860161262e898261247c565b855260208501945050506020810190506125fe565b5050509392505050565b600082601f830112612662576126616116dd565b5b81516126728482602086016125c6565b91505092915050565b60006020828403121561269157612690611577565b5b600082015167ffffffffffffffff8111156126af576126ae61157c565b5b6126bb8482850161264d565b91505092915050565b60006040820190506126d96000830185611c5c565b6126e66020830184612228565b9392505050565b6000806040838503121561270457612703611577565b5b600083015167ffffffffffffffff8111156127225761272161157c565b5b61272e8582860161247c565b925050602083015167ffffffffffffffff81111561274f5761274e61157c565b5b61275b85828601611eed565b915050925092905056fea2646970667358221220755ae37842973b79b6ed8cc57d2c85e8c6b33bd7c1912642aa8cb27a748aaf5564736f6c63430008130033",
  "linkReferences": {},
  "deployedLinkReferences": {}
}