{
  "_format": "hh-sol-artifact-1",
  "contractName": "Insurer",
  "sourceName": "contracts/Insurer.sol",
  "abi": [
    {
      "inputs": [
        {
          "internalType": "address",
          "name": "_flightPolicyAddress",
          "type": "address"
        },
        {
          "internalType": "address",
          "name": "_baggagePolicyAddress",
          "type": "address"
        }
      ],
      "stateMutability": "nonpayable",
      "type": "constructor"
    },
    {
      "anonymous": false,
      "inputs": [
        {
          "indexed": true,
          "internalType": "address",
          "name": "buyer",
          "type": "address"
        },
        {
          "indexed": true,
          "internalType": "uint256",
          "name": "policyId",
          "type": "uint256"
        }
      ],
      "name": "BaggagePolicyClaimed",
      "type": "event"
    },
    {
      "anonymous": false,
      "inputs": [
        {
          "indexed": true,
          "internalType": "address",
          "name": "buyer",
          "type": "address"
        },
        {
          "indexed": true,
          "internalType": "uint256",
          "name": "policyId",
          "type": "uint256"
        },
        {
          "indexed": true,
          "internalType": "string",
          "name": "templateId",
          "type": "string"
        }
      ],
      "name": "BaggagePolicyPurchased",
      "type": "event"
    },
    {
      "anonymous": false,
      "inputs": [
        {
          "indexed": true,
          "internalType": "address",
          "name": "buyer",
          "type": "address"
        },
        {
          "indexed": true,
          "internalType": "uint256",
          "name": "policyId",
          "type": "uint256"
        }
      ],
      "name": "FlightPolicyClaimed",
      "type": "event"
    },
    {
      "anonymous": false,
      "inputs": [
        {
          "indexed": true,
          "internalType": "address",
          "name": "buyer",
          "type": "address"
        },
        {
          "indexed": true,
          "internalType": "uint256",
          "name": "policyId",
          "type": "uint256"
        },
        {
          "indexed": true,
          "internalType": "string",
          "name": "templateId",
          "type": "string"
        }
      ],
      "name": "FlightPolicyPurchased",
      "type": "event"
    },
    {
      "anonymous": false,
      "inputs": [
        {
          "indexed": true,
          "internalType": "address",
          "name": "insurer",
          "type": "address"
        },
        {
          "indexed": false,
          "internalType": "uint256",
          "name": "amount",
          "type": "uint256"
        }
      ],
      "name": "FundsDeposited",
      "type": "event"
    },
    {
      "anonymous": false,
      "inputs": [
        {
          "indexed": true,
          "internalType": "address",
          "name": "insurer",
          "type": "address"
        },
        {
          "indexed": false,
          "internalType": "uint256",
          "name": "amount",
          "type": "uint256"
        }
      ],
      "name": "FundsWithdrawn",
      "type": "event"
    },
    {
      "inputs": [],
      "name": "baggagePolicy",
      "outputs": [
        {
          "internalType": "contract BaggagePolicy",
          "name": "",
          "type": "address"
        }
      ],
      "stateMutability": "view",
      "type": "function"
    },
    {
      "inputs": [],
      "name": "deposit",
      "outputs": [],
      "stateMutability": "payable",
      "type": "function"
    },
    {
      "inputs": [],
      "name": "flightPolicy",
      "outputs": [
        {
          "internalType": "contract FlightPolicy",
          "name": "",
          "type": "address"
        }
      ],
      "stateMutability": "view",
      "type": "function"
    },
    {
      "inputs": [
        {
          "internalType": "uint256",
          "name": "currentTime",
          "type": "uint256"
        }
      ],
      "name": "getAllBaggagePolicies",
      "outputs": [
        {
          "components": [
            {
              "internalType": "uint256",
              "name": "policyId",
              "type": "uint256"
            },
            {
              "components": [
                {
                  "internalType": "string",
                  "name": "templateId",
                  "type": "string"
                },
                {
                  "internalType": "string",
                  "name": "name",
                  "type": "string"
                },
                {
                  "internalType": "string",
                  "name": "description",
                  "type": "string"
                },
                {
                  "internalType": "uint256",
                  "name": "createdAt",
                  "type": "uint256"
                },
                {
                  "internalType": "uint256",
                  "name": "updatedAt",
                  "type": "uint256"
                },
                {
                  "internalType": "uint256",
                  "name": "premium",
                  "type": "uint256"
                },
                {
                  "internalType": "uint256",
                  "name": "payoutIfDelayed",
                  "type": "uint256"
                },
                {
                  "internalType": "uint256",
                  "name": "payoutIfLost",
                  "type": "uint256"
                },
                {
                  "internalType": "uint256",
                  "name": "maxTotalPayout",
                  "type": "uint256"
                },
                {
                  "internalType": "uint256",
                  "name": "coverageDurationSeconds",
                  "type": "uint256"
                },
                {
                  "internalType": "enum BaggagePolicy.PolicyTemplateStatus",
                  "name": "status",
                  "type": "uint8"
                }
              ],
              "internalType": "struct BaggagePolicy.PolicyTemplate",
              "name": "template",
              "type": "tuple"
            },
            {
              "internalType": "string",
              "name": "itemDescription",
              "type": "string"
            },
            {
              "internalType": "uint256",
              "name": "createdAt",
              "type": "uint256"
            },
            {
              "internalType": "uint256",
              "name": "payoutToDate",
              "type": "uint256"
            },
            {
              "internalType": "address",
              "name": "buyer",
              "type": "address"
            },
            {
              "internalType": "enum BaggagePolicy.PolicyStatus",
              "name": "status",
              "type": "uint8"
            }
          ],
          "internalType": "struct BaggagePolicy.UserPolicy[]",
          "name": "",
          "type": "tuple[]"
        }
      ],
      "stateMutability": "view",
      "type": "function"
    },
    {
      "inputs": [
        {
          "internalType": "uint256",
          "name": "currentTime",
          "type": "uint256"
        }
      ],
      "name": "getAllFlightPolicies",
      "outputs": [
        {
          "components": [
            {
              "internalType": "uint256",
              "name": "policyId",
              "type": "uint256"
            },
            {
              "components": [
                {
                  "internalType": "string",
                  "name": "templateId",
                  "type": "string"
                },
                {
                  "internalType": "string",
                  "name": "name",
                  "type": "string"
                },
                {
                  "internalType": "string",
                  "name": "description",
                  "type": "string"
                },
                {
                  "internalType": "uint256",
                  "name": "createdAt",
                  "type": "uint256"
                },
                {
                  "internalType": "uint256",
                  "name": "updatedAt",
                  "type": "uint256"
                },
                {
                  "internalType": "uint256",
                  "name": "premium",
                  "type": "uint256"
                },
                {
                  "internalType": "uint256",
                  "name": "payoutPerHour",
                  "type": "uint256"
                },
                {
                  "internalType": "uint256",
                  "name": "delayThresholdHours",
                  "type": "uint256"
                },
                {
                  "internalType": "uint256",
                  "name": "maxTotalPayout",
                  "type": "uint256"
                },
                {
                  "internalType": "uint256",
                  "name": "coverageDurationSeconds",
                  "type": "uint256"
                },
                {
                  "internalType": "enum FlightPolicy.PolicyTemplateStatus",
                  "name": "status",
                  "type": "uint8"
                }
              ],
              "internalType": "struct FlightPolicy.PolicyTemplate",
              "name": "template",
              "type": "tuple"
            },
            {
              "internalType": "string",
              "name": "flightNumber",
              "type": "string"
            },
            {
              "internalType": "string",
              "name": "departureAirportCode",
              "type": "string"
            },
            {
              "internalType": "string",
              "name": "arrivalAirportCode",
              "type": "string"
            },
            {
              "internalType": "uint256",
              "name": "departureTime",
              "type": "uint256"
            },
            {
              "internalType": "uint256",
              "name": "createdAt",
              "type": "uint256"
            },
            {
              "internalType": "uint256",
              "name": "payoutToDate",
              "type": "uint256"
            },
            {
              "internalType": "address",
              "name": "buyer",
              "type": "address"
            },
            {
              "internalType": "enum FlightPolicy.PolicyStatus",
              "name": "status",
              "type": "uint8"
            }
          ],
          "internalType": "struct FlightPolicy.UserPolicy[]",
          "name": "",
          "type": "tuple[]"
        }
      ],
      "stateMutability": "view",
      "type": "function"
    },
    {
      "inputs": [],
      "name": "getContractBalance",
      "outputs": [
        {
          "internalType": "uint256",
          "name": "",
          "type": "uint256"
        }
      ],
      "stateMutability": "view",
      "type": "function"
    },
    {
      "inputs": [
        {
          "internalType": "address",
          "name": "user",
          "type": "address"
        },
        {
          "internalType": "uint256",
          "name": "currentTime",
          "type": "uint256"
        }
      ],
      "name": "getUserBaggagePolicies",
      "outputs": [
        {
          "components": [
            {
              "internalType": "uint256",
              "name": "policyId",
              "type": "uint256"
            },
            {
              "components": [
                {
                  "internalType": "string",
                  "name": "templateId",
                  "type": "string"
                },
                {
                  "internalType": "string",
                  "name": "name",
                  "type": "string"
                },
                {
                  "internalType": "string",
                  "name": "description",
                  "type": "string"
                },
                {
                  "internalType": "uint256",
                  "name": "createdAt",
                  "type": "uint256"
                },
                {
                  "internalType": "uint256",
                  "name": "updatedAt",
                  "type": "uint256"
                },
                {
                  "internalType": "uint256",
                  "name": "premium",
                  "type": "uint256"
                },
                {
                  "internalType": "uint256",
                  "name": "payoutIfDelayed",
                  "type": "uint256"
                },
                {
                  "internalType": "uint256",
                  "name": "payoutIfLost",
                  "type": "uint256"
                },
                {
                  "internalType": "uint256",
                  "name": "maxTotalPayout",
                  "type": "uint256"
                },
                {
                  "internalType": "uint256",
                  "name": "coverageDurationSeconds",
                  "type": "uint256"
                },
                {
                  "internalType": "enum BaggagePolicy.PolicyTemplateStatus",
                  "name": "status",
                  "type": "uint8"
                }
              ],
              "internalType": "struct BaggagePolicy.PolicyTemplate",
              "name": "template",
              "type": "tuple"
            },
            {
              "internalType": "string",
              "name": "itemDescription",
              "type": "string"
            },
            {
              "internalType": "uint256",
              "name": "createdAt",
              "type": "uint256"
            },
            {
              "internalType": "uint256",
              "name": "payoutToDate",
              "type": "uint256"
            },
            {
              "internalType": "address",
              "name": "buyer",
              "type": "address"
            },
            {
              "internalType": "enum BaggagePolicy.PolicyStatus",
              "name": "status",
              "type": "uint8"
            }
          ],
          "internalType": "struct BaggagePolicy.UserPolicy[]",
          "name": "",
          "type": "tuple[]"
        }
      ],
      "stateMutability": "view",
      "type": "function"
    },
    {
      "inputs": [
        {
          "internalType": "string",
          "name": "templateId",
          "type": "string"
        },
        {
          "internalType": "uint256",
          "name": "currentTime",
          "type": "uint256"
        }
      ],
      "name": "getUserBaggagePoliciesByTemplate",
      "outputs": [
        {
          "components": [
            {
              "internalType": "uint256",
              "name": "policyId",
              "type": "uint256"
            },
            {
              "components": [
                {
                  "internalType": "string",
                  "name": "templateId",
                  "type": "string"
                },
                {
                  "internalType": "string",
                  "name": "name",
                  "type": "string"
                },
                {
                  "internalType": "string",
                  "name": "description",
                  "type": "string"
                },
                {
                  "internalType": "uint256",
                  "name": "createdAt",
                  "type": "uint256"
                },
                {
                  "internalType": "uint256",
                  "name": "updatedAt",
                  "type": "uint256"
                },
                {
                  "internalType": "uint256",
                  "name": "premium",
                  "type": "uint256"
                },
                {
                  "internalType": "uint256",
                  "name": "payoutIfDelayed",
                  "type": "uint256"
                },
                {
                  "internalType": "uint256",
                  "name": "payoutIfLost",
                  "type": "uint256"
                },
                {
                  "internalType": "uint256",
                  "name": "maxTotalPayout",
                  "type": "uint256"
                },
                {
                  "internalType": "uint256",
                  "name": "coverageDurationSeconds",
                  "type": "uint256"
                },
                {
                  "internalType": "enum BaggagePolicy.PolicyTemplateStatus",
                  "name": "status",
                  "type": "uint8"
                }
              ],
              "internalType": "struct BaggagePolicy.PolicyTemplate",
              "name": "template",
              "type": "tuple"
            },
            {
              "internalType": "string",
              "name": "itemDescription",
              "type": "string"
            },
            {
              "internalType": "uint256",
              "name": "createdAt",
              "type": "uint256"
            },
            {
              "internalType": "uint256",
              "name": "payoutToDate",
              "type": "uint256"
            },
            {
              "internalType": "address",
              "name": "buyer",
              "type": "address"
            },
            {
              "internalType": "enum BaggagePolicy.PolicyStatus",
              "name": "status",
              "type": "uint8"
            }
          ],
          "internalType": "struct BaggagePolicy.UserPolicy[]",
          "name": "",
          "type": "tuple[]"
        }
      ],
      "stateMutability": "view",
      "type": "function"
    },
    {
      "inputs": [
        {
          "internalType": "address",
          "name": "user",
          "type": "address"
        },
        {
          "internalType": "uint256",
          "name": "currentTime",
          "type": "uint256"
        }
      ],
      "name": "getUserFlightPolicies",
      "outputs": [
        {
          "components": [
            {
              "internalType": "uint256",
              "name": "policyId",
              "type": "uint256"
            },
            {
              "components": [
                {
                  "internalType": "string",
                  "name": "templateId",
                  "type": "string"
                },
                {
                  "internalType": "string",
                  "name": "name",
                  "type": "string"
                },
                {
                  "internalType": "string",
                  "name": "description",
                  "type": "string"
                },
                {
                  "internalType": "uint256",
                  "name": "createdAt",
                  "type": "uint256"
                },
                {
                  "internalType": "uint256",
                  "name": "updatedAt",
                  "type": "uint256"
                },
                {
                  "internalType": "uint256",
                  "name": "premium",
                  "type": "uint256"
                },
                {
                  "internalType": "uint256",
                  "name": "payoutPerHour",
                  "type": "uint256"
                },
                {
                  "internalType": "uint256",
                  "name": "delayThresholdHours",
                  "type": "uint256"
                },
                {
                  "internalType": "uint256",
                  "name": "maxTotalPayout",
                  "type": "uint256"
                },
                {
                  "internalType": "uint256",
                  "name": "coverageDurationSeconds",
                  "type": "uint256"
                },
                {
                  "internalType": "enum FlightPolicy.PolicyTemplateStatus",
                  "name": "status",
                  "type": "uint8"
                }
              ],
              "internalType": "struct FlightPolicy.PolicyTemplate",
              "name": "template",
              "type": "tuple"
            },
            {
              "internalType": "string",
              "name": "flightNumber",
              "type": "string"
            },
            {
              "internalType": "string",
              "name": "departureAirportCode",
              "type": "string"
            },
            {
              "internalType": "string",
              "name": "arrivalAirportCode",
              "type": "string"
            },
            {
              "internalType": "uint256",
              "name": "departureTime",
              "type": "uint256"
            },
            {
              "internalType": "uint256",
              "name": "createdAt",
              "type": "uint256"
            },
            {
              "internalType": "uint256",
              "name": "payoutToDate",
              "type": "uint256"
            },
            {
              "internalType": "address",
              "name": "buyer",
              "type": "address"
            },
            {
              "internalType": "enum FlightPolicy.PolicyStatus",
              "name": "status",
              "type": "uint8"
            }
          ],
          "internalType": "struct FlightPolicy.UserPolicy[]",
          "name": "",
          "type": "tuple[]"
        }
      ],
      "stateMutability": "view",
      "type": "function"
    },
    {
      "inputs": [
        {
          "internalType": "string",
          "name": "templateId",
          "type": "string"
        },
        {
          "internalType": "uint256",
          "name": "currentTime",
          "type": "uint256"
        }
      ],
      "name": "getUserFlightPoliciesByTemplate",
      "outputs": [
        {
          "components": [
            {
              "internalType": "uint256",
              "name": "policyId",
              "type": "uint256"
            },
            {
              "components": [
                {
                  "internalType": "string",
                  "name": "templateId",
                  "type": "string"
                },
                {
                  "internalType": "string",
                  "name": "name",
                  "type": "string"
                },
                {
                  "internalType": "string",
                  "name": "description",
                  "type": "string"
                },
                {
                  "internalType": "uint256",
                  "name": "createdAt",
                  "type": "uint256"
                },
                {
                  "internalType": "uint256",
                  "name": "updatedAt",
                  "type": "uint256"
                },
                {
                  "internalType": "uint256",
                  "name": "premium",
                  "type": "uint256"
                },
                {
                  "internalType": "uint256",
                  "name": "payoutPerHour",
                  "type": "uint256"
                },
                {
                  "internalType": "uint256",
                  "name": "delayThresholdHours",
                  "type": "uint256"
                },
                {
                  "internalType": "uint256",
                  "name": "maxTotalPayout",
                  "type": "uint256"
                },
                {
                  "internalType": "uint256",
                  "name": "coverageDurationSeconds",
                  "type": "uint256"
                },
                {
                  "internalType": "enum FlightPolicy.PolicyTemplateStatus",
                  "name": "status",
                  "type": "uint8"
                }
              ],
              "internalType": "struct FlightPolicy.PolicyTemplate",
              "name": "template",
              "type": "tuple"
            },
            {
              "internalType": "string",
              "name": "flightNumber",
              "type": "string"
            },
            {
              "internalType": "string",
              "name": "departureAirportCode",
              "type": "string"
            },
            {
              "internalType": "string",
              "name": "arrivalAirportCode",
              "type": "string"
            },
            {
              "internalType": "uint256",
              "name": "departureTime",
              "type": "uint256"
            },
            {
              "internalType": "uint256",
              "name": "createdAt",
              "type": "uint256"
            },
            {
              "internalType": "uint256",
              "name": "payoutToDate",
              "type": "uint256"
            },
            {
              "internalType": "address",
              "name": "buyer",
              "type": "address"
            },
            {
              "internalType": "enum FlightPolicy.PolicyStatus",
              "name": "status",
              "type": "uint8"
            }
          ],
          "internalType": "struct FlightPolicy.UserPolicy[]",
          "name": "",
          "type": "tuple[]"
        }
      ],
      "stateMutability": "view",
      "type": "function"
    },
    {
      "inputs": [],
      "name": "insurerAddress",
      "outputs": [
        {
          "internalType": "address",
          "name": "",
          "type": "address"
        }
      ],
      "stateMutability": "view",
      "type": "function"
    },
    {
      "inputs": [
        {
          "components": [
            {
              "internalType": "string",
              "name": "templateId",
              "type": "string"
            },
            {
              "internalType": "string",
              "name": "name",
              "type": "string"
            },
            {
              "internalType": "string",
              "name": "description",
              "type": "string"
            },
            {
              "internalType": "uint256",
              "name": "createdAt",
              "type": "uint256"
            },
            {
              "internalType": "uint256",
              "name": "updatedAt",
              "type": "uint256"
            },
            {
              "internalType": "uint256",
              "name": "premium",
              "type": "uint256"
            },
            {
              "internalType": "uint256",
              "name": "payoutIfDelayed",
              "type": "uint256"
            },
            {
              "internalType": "uint256",
              "name": "payoutIfLost",
              "type": "uint256"
            },
            {
              "internalType": "uint256",
              "name": "maxTotalPayout",
              "type": "uint256"
            },
            {
              "internalType": "uint256",
              "name": "coverageDurationSeconds",
              "type": "uint256"
            },
            {
              "internalType": "enum BaggagePolicy.PolicyTemplateStatus",
              "name": "status",
              "type": "uint8"
            }
          ],
          "internalType": "struct BaggagePolicy.PolicyTemplate[]",
          "name": "templates",
          "type": "tuple[]"
        },
        {
          "internalType": "uint256",
          "name": "currentTime",
          "type": "uint256"
        }
      ],
      "name": "isBaggagePolicyAllowedForPurchase",
      "outputs": [
        {
          "internalType": "bool[]",
          "name": "",
          "type": "bool[]"
        }
      ],
      "stateMutability": "view",
      "type": "function"
    },
    {
      "inputs": [
        {
          "components": [
            {
              "internalType": "string",
              "name": "templateId",
              "type": "string"
            },
            {
              "internalType": "string",
              "name": "name",
              "type": "string"
            },
            {
              "internalType": "string",
              "name": "description",
              "type": "string"
            },
            {
              "internalType": "uint256",
              "name": "createdAt",
              "type": "uint256"
            },
            {
              "internalType": "uint256",
              "name": "updatedAt",
              "type": "uint256"
            },
            {
              "internalType": "uint256",
              "name": "premium",
              "type": "uint256"
            },
            {
              "internalType": "uint256",
              "name": "payoutPerHour",
              "type": "uint256"
            },
            {
              "internalType": "uint256",
              "name": "delayThresholdHours",
              "type": "uint256"
            },
            {
              "internalType": "uint256",
              "name": "maxTotalPayout",
              "type": "uint256"
            },
            {
              "internalType": "uint256",
              "name": "coverageDurationSeconds",
              "type": "uint256"
            },
            {
              "internalType": "enum FlightPolicy.PolicyTemplateStatus",
              "name": "status",
              "type": "uint8"
            }
          ],
          "internalType": "struct FlightPolicy.PolicyTemplate[]",
          "name": "templates",
          "type": "tuple[]"
        },
        {
          "internalType": "uint256",
          "name": "currentTime",
          "type": "uint256"
        }
      ],
      "name": "isFlightPolicyAllowedForPurchase",
      "outputs": [
        {
          "internalType": "bool[]",
          "name": "",
          "type": "bool[]"
        }
      ],
      "stateMutability": "view",
      "type": "function"
    },
    {
      "inputs": [
        {
          "internalType": "address",
          "name": "user",
          "type": "address"
        }
      ],
      "name": "isInsurer",
      "outputs": [
        {
          "internalType": "bool",
          "name": "",
          "type": "bool"
        }
      ],
      "stateMutability": "view",
      "type": "function"
    },
    {
      "inputs": [
        {
          "internalType": "uint256",
          "name": "policyId",
          "type": "uint256"
        }
      ],
      "name": "markBaggagePolicyAsExpired",
      "outputs": [],
      "stateMutability": "nonpayable",
      "type": "function"
    },
    {
      "inputs": [
        {
          "components": [
            {
              "internalType": "string",
              "name": "templateId",
              "type": "string"
            },
            {
              "internalType": "string",
              "name": "name",
              "type": "string"
            },
            {
              "internalType": "string",
              "name": "description",
              "type": "string"
            },
            {
              "internalType": "uint256",
              "name": "createdAt",
              "type": "uint256"
            },
            {
              "internalType": "uint256",
              "name": "updatedAt",
              "type": "uint256"
            },
            {
              "internalType": "uint256",
              "name": "premium",
              "type": "uint256"
            },
            {
              "internalType": "uint256",
              "name": "payoutIfDelayed",
              "type": "uint256"
            },
            {
              "internalType": "uint256",
              "name": "payoutIfLost",
              "type": "uint256"
            },
            {
              "internalType": "uint256",
              "name": "maxTotalPayout",
              "type": "uint256"
            },
            {
              "internalType": "uint256",
              "name": "coverageDurationSeconds",
              "type": "uint256"
            },
            {
              "internalType": "enum BaggagePolicy.PolicyTemplateStatus",
              "name": "status",
              "type": "uint8"
            }
          ],
          "internalType": "struct BaggagePolicy.PolicyTemplate",
          "name": "template",
          "type": "tuple"
        },
        {
          "internalType": "string",
          "name": "itemDescription",
          "type": "string"
        },
        {
          "internalType": "uint256",
          "name": "currentTime",
          "type": "uint256"
        }
      ],
      "name": "purchaseBaggagePolicy",
      "outputs": [],
      "stateMutability": "payable",
      "type": "function"
    },
    {
      "inputs": [
        {
          "components": [
            {
              "internalType": "string",
              "name": "templateId",
              "type": "string"
            },
            {
              "internalType": "string",
              "name": "name",
              "type": "string"
            },
            {
              "internalType": "string",
              "name": "description",
              "type": "string"
            },
            {
              "internalType": "uint256",
              "name": "createdAt",
              "type": "uint256"
            },
            {
              "internalType": "uint256",
              "name": "updatedAt",
              "type": "uint256"
            },
            {
              "internalType": "uint256",
              "name": "premium",
              "type": "uint256"
            },
            {
              "internalType": "uint256",
              "name": "payoutPerHour",
              "type": "uint256"
            },
            {
              "internalType": "uint256",
              "name": "delayThresholdHours",
              "type": "uint256"
            },
            {
              "internalType": "uint256",
              "name": "maxTotalPayout",
              "type": "uint256"
            },
            {
              "internalType": "uint256",
              "name": "coverageDurationSeconds",
              "type": "uint256"
            },
            {
              "internalType": "enum FlightPolicy.PolicyTemplateStatus",
              "name": "status",
              "type": "uint8"
            }
          ],
          "internalType": "struct FlightPolicy.PolicyTemplate",
          "name": "template",
          "type": "tuple"
        },
        {
          "internalType": "string",
          "name": "flightNumber",
          "type": "string"
        },
        {
          "internalType": "string",
          "name": "departureAirportCode",
          "type": "string"
        },
        {
          "internalType": "string",
          "name": "arrivalAirportCode",
          "type": "string"
        },
        {
          "internalType": "uint256",
          "name": "departureTime",
          "type": "uint256"
        },
        {
          "internalType": "uint256",
          "name": "currentTime",
          "type": "uint256"
        }
      ],
      "name": "purchaseFlightPolicy",
      "outputs": [],
      "stateMutability": "payable",
      "type": "function"
    },
    {
      "inputs": [
        {
          "internalType": "uint256",
          "name": "amountInWei",
          "type": "uint256"
        }
      ],
      "name": "withdraw",
      "outputs": [],
      "stateMutability": "nonpayable",
      "type": "function"
    },
    {
      "stateMutability": "payable",
      "type": "receive"
    }
  ],
  "bytecode": "0x60a06040523480156200001157600080fd5b5060405162003b5e38038062003b5e83398181016040528101906200003791906200015e565b3373ffffffffffffffffffffffffffffffffffffffff1660808173ffffffffffffffffffffffffffffffffffffffff1681525050816000806101000a81548173ffffffffffffffffffffffffffffffffffffffff021916908373ffffffffffffffffffffffffffffffffffffffff16021790555080600160006101000a81548173ffffffffffffffffffffffffffffffffffffffff021916908373ffffffffffffffffffffffffffffffffffffffff1602179055505050620001a5565b600080fd5b600073ffffffffffffffffffffffffffffffffffffffff82169050919050565b60006200012682620000f9565b9050919050565b620001388162000119565b81146200014457600080fd5b50565b60008151905062000158816200012d565b92915050565b60008060408385031215620001785762000177620000f4565b5b6000620001888582860162000147565b92505060206200019b8582860162000147565b9150509250929050565b60805161395762000207600039600081816105510152818161062201528181610689015281816107a7015281816108c701528181610b2d01528181610cca01528181610f2701528181610ff80152818161106a01526110e801526139576000f3fe60806040526004361061010d5760003560e01c8063ae6feff411610095578063da7897e211610064578063da7897e214610380578063f368bc27146103bd578063fca1ecdb146103e8578063fdae7ad114610425578063fe532a371461046257610114565b8063ae6feff4146102e0578063c1ec3992146102fc578063ca155a1b14610339578063d0e30db01461037657610114565b8063516f92f7116100dc578063516f92f7146101e75780636f9fb98a14610210578063757ae1ba1461023b5780637d9d7b9a14610278578063a7c0900e146102b557610114565b806307116510146101195780632377cd1e146101445780632e1a7d4d146101815780633f60875d146101aa57610114565b3661011457005b600080fd5b34801561012557600080fd5b5061012e61047e565b60405161013b91906116b0565b60405180910390f35b34801561015057600080fd5b5061016b60048036038101906101669190611753565b6104a2565b6040516101789190611b62565b60405180910390f35b34801561018d57600080fd5b506101a860048036038101906101a39190611b84565b61054f565b005b3480156101b657600080fd5b506101d160048036038101906101cc9190611ce6565b6106f8565b6040516101de9190611b62565b60405180910390f35b3480156101f357600080fd5b5061020e60048036038101906102099190611b84565b6107a5565b005b34801561021c57600080fd5b506102256108c3565b6040516102329190611d51565b60405180910390f35b34801561024757600080fd5b50610262600480360381019061025d9190611753565b610959565b60405161026f91906120aa565b60405180910390f35b34801561028457600080fd5b5061029f600480360381019061029a9190612341565b610a04565b6040516102ac9190612467565b60405180910390f35b3480156102c157600080fd5b506102ca610b2b565b6040516102d79190612498565b60405180910390f35b6102fa60048036038101906102f591906124b3565b610b4f565b005b34801561030857600080fd5b50610323600480360381019061031e9190611b84565b610cc6565b6040516103309190611b62565b60405180910390f35b34801561034557600080fd5b50610360600480360381019061035b9190612816565b610dfe565b60405161036d9190612467565b60405180910390f35b61037e610f25565b005b34801561038c57600080fd5b506103a760048036038101906103a29190612872565b611066565b6040516103b491906128ae565b60405180910390f35b3480156103c957600080fd5b506103d26110be565b6040516103df91906128ea565b60405180910390f35b3480156103f457600080fd5b5061040f600480360381019061040a9190611b84565b6110e4565b60405161041c91906120aa565b60405180910390f35b34801561043157600080fd5b5061044c60048036038101906104479190611ce6565b61121a565b60405161045991906120aa565b60405180910390f35b61047c60048036038101906104779190612905565b6112c5565b005b60008054906101000a900473ffffffffffffffffffffffffffffffffffffffff1681565b6060600160009054906101000a900473ffffffffffffffffffffffffffffffffffffffff1673ffffffffffffffffffffffffffffffffffffffff1663642bb92584846040518363ffffffff1660e01b8152600401610501929190612990565b600060405180830381865afa15801561051e573d6000803e3d6000fd5b505050506040513d6000823e3d601f19601f820116820180604052508101906105479190612dba565b905092915050565b7f000000000000000000000000000000000000000000000000000000000000000073ffffffffffffffffffffffffffffffffffffffff163373ffffffffffffffffffffffffffffffffffffffff16146105dd576040517f08c379a00000000000000000000000000000000000000000000000000000000081526004016105d490612e86565b60405180910390fd5b80471015610620576040517f08c379a000000000000000000000000000000000000000000000000000000000815260040161061790612ef2565b60405180910390fd5b7f000000000000000000000000000000000000000000000000000000000000000073ffffffffffffffffffffffffffffffffffffffff166108fc829081150290604051600060405180830381858888f19350505050158015610686573d6000803e3d6000fd5b507f000000000000000000000000000000000000000000000000000000000000000073ffffffffffffffffffffffffffffffffffffffff167feaff4b37086828766ad3268786972c0cd24259d4c87a80f9d3963a3c3d999b0d826040516106ed9190611d51565b60405180910390a250565b6060600160009054906101000a900473ffffffffffffffffffffffffffffffffffffffff1673ffffffffffffffffffffffffffffffffffffffff1663c52eaa4084846040518363ffffffff1660e01b8152600401610757929190612f4b565b600060405180830381865afa158015610774573d6000803e3d6000fd5b505050506040513d6000823e3d601f19601f8201168201806040525081019061079d9190612dba565b905092915050565b7f000000000000000000000000000000000000000000000000000000000000000073ffffffffffffffffffffffffffffffffffffffff163373ffffffffffffffffffffffffffffffffffffffff1614610833576040517f08c379a000000000000000000000000000000000000000000000000000000000815260040161082a90612e86565b60405180910390fd5b600160009054906101000a900473ffffffffffffffffffffffffffffffffffffffff1673ffffffffffffffffffffffffffffffffffffffff1663cf39c624826040518263ffffffff1660e01b815260040161088e9190611d51565b600060405180830381600087803b1580156108a857600080fd5b505af11580156108bc573d6000803e3d6000fd5b5050505050565b60007f000000000000000000000000000000000000000000000000000000000000000073ffffffffffffffffffffffffffffffffffffffff163373ffffffffffffffffffffffffffffffffffffffff1614610953576040517f08c379a000000000000000000000000000000000000000000000000000000000815260040161094a90612e86565b60405180910390fd5b47905090565b606060008054906101000a900473ffffffffffffffffffffffffffffffffffffffff1673ffffffffffffffffffffffffffffffffffffffff1663642bb92584846040518363ffffffff1660e01b81526004016109b6929190612990565b600060405180830381865afa1580156109d3573d6000803e3d6000fd5b505050506040513d6000823e3d601f19601f820116820180604052508101906109fc919061335c565b905092915050565b60606000835167ffffffffffffffff811115610a2357610a22611bbb565b5b604051908082528060200260200182016040528015610a515781602001602082028036833780820191505090505b5090506000610a5f84611434565b905060005b8551811015610b1f576000868281518110610a8257610a816133a5565b5b6020026020010151610100015183610a9a9190613403565b905047670de0b6b3a764000082610ab19190613437565b1115610ae3576000848381518110610acc57610acb6133a5565b5b602002602001019015159081151581525050610b0b565b6001848381518110610af857610af76133a5565b5b6020026020010190151590811515815250505b508080610b1790613479565b915050610a64565b50819250505092915050565b7f000000000000000000000000000000000000000000000000000000000000000081565b6000610b5a82611434565b905086610100015181610b6d9190613403565b905047811115610bb2576040517f08c379a0000000000000000000000000000000000000000000000000000000008152600401610ba990613533565b60405180910390fd5b60008060009054906101000a900473ffffffffffffffffffffffffffffffffffffffff1673ffffffffffffffffffffffffffffffffffffffff166331953ecc348a8a8a8a8a336040518863ffffffff1660e01b8152600401610c1996959493929190613650565b60206040518083038185885af1158015610c37573d6000803e3d6000fd5b50505050506040513d601f19601f82011682018060405250810190610c5c91906136cd565b90508760000151604051610c709190613736565b6040518091039020813373ffffffffffffffffffffffffffffffffffffffff167f43617ea01c45d3386d7be4a6cb66bf94c0152a674cbd34a5de81ed135dfd7b1760405160405180910390a45050505050505050565b60607f000000000000000000000000000000000000000000000000000000000000000073ffffffffffffffffffffffffffffffffffffffff163373ffffffffffffffffffffffffffffffffffffffff1614610d56576040517f08c379a0000000000000000000000000000000000000000000000000000000008152600401610d4d90612e86565b60405180910390fd5b600160009054906101000a900473ffffffffffffffffffffffffffffffffffffffff1673ffffffffffffffffffffffffffffffffffffffff166364b72a65836040518263ffffffff1660e01b8152600401610db19190611d51565b600060405180830381865afa158015610dce573d6000803e3d6000fd5b505050506040513d6000823e3d601f19601f82011682018060405250810190610df79190612dba565b9050919050565b60606000835167ffffffffffffffff811115610e1d57610e1c611bbb565b5b604051908082528060200260200182016040528015610e4b5781602001602082028036833780820191505090505b5090506000610e5984611434565b905060005b8551811015610f19576000868281518110610e7c57610e7b6133a5565b5b6020026020010151610100015183610e949190613403565b905047670de0b6b3a764000082610eab9190613437565b1115610edd576000848381518110610ec657610ec56133a5565b5b602002602001019015159081151581525050610f05565b6001848381518110610ef257610ef16133a5565b5b6020026020010190151590811515815250505b508080610f1190613479565b915050610e5e565b50819250505092915050565b7f000000000000000000000000000000000000000000000000000000000000000073ffffffffffffffffffffffffffffffffffffffff163373ffffffffffffffffffffffffffffffffffffffff1614610fb3576040517f08c379a0000000000000000000000000000000000000000000000000000000008152600401610faa90612e86565b60405180910390fd5b60003411610ff6576040517f08c379a0000000000000000000000000000000000000000000000000000000008152600401610fed906137bf565b60405180910390fd5b7f000000000000000000000000000000000000000000000000000000000000000073ffffffffffffffffffffffffffffffffffffffff167f543ba50a5eec5e6178218e364b1d0f396157b3c8fa278522c2cb7fd99407d4743460405161105c9190611d51565b60405180910390a2565b60007f000000000000000000000000000000000000000000000000000000000000000073ffffffffffffffffffffffffffffffffffffffff168273ffffffffffffffffffffffffffffffffffffffff16149050919050565b600160009054906101000a900473ffffffffffffffffffffffffffffffffffffffff1681565b60607f000000000000000000000000000000000000000000000000000000000000000073ffffffffffffffffffffffffffffffffffffffff163373ffffffffffffffffffffffffffffffffffffffff1614611174576040517f08c379a000000000000000000000000000000000000000000000000000000000815260040161116b90612e86565b60405180910390fd5b60008054906101000a900473ffffffffffffffffffffffffffffffffffffffff1673ffffffffffffffffffffffffffffffffffffffff166364b72a65836040518263ffffffff1660e01b81526004016111cd9190611d51565b600060405180830381865afa1580156111ea573d6000803e3d6000fd5b505050506040513d6000823e3d601f19601f82011682018060405250810190611213919061335c565b9050919050565b606060008054906101000a900473ffffffffffffffffffffffffffffffffffffffff1673ffffffffffffffffffffffffffffffffffffffff1663c52eaa4084846040518363ffffffff1660e01b8152600401611277929190612f4b565b600060405180830381865afa158015611294573d6000803e3d6000fd5b505050506040513d6000823e3d601f19601f820116820180604052508101906112bd919061335c565b905092915050565b60006112d082611434565b9050836101000151816112e39190613403565b905047811115611328576040517f08c379a000000000000000000000000000000000000000000000000000000000815260040161131f90613533565b60405180910390fd5b6000600160009054906101000a900473ffffffffffffffffffffffffffffffffffffffff1673ffffffffffffffffffffffffffffffffffffffff1663e0516149348787336040518563ffffffff1660e01b815260040161138a939291906138dc565b60206040518083038185885af11580156113a8573d6000803e3d6000fd5b50505050506040513d601f19601f820116820180604052508101906113cd91906136cd565b905084600001516040516113e19190613736565b6040518091039020813373ffffffffffffffffffffffffffffffffffffffff167fd3ad849e96e45902e7d1f5bd084268392ad649bd4509857dbfd40ceb536aef3860405160405180910390a45050505050565b6000806000905060008060009054906101000a900473ffffffffffffffffffffffffffffffffffffffff1673ffffffffffffffffffffffffffffffffffffffff166364b72a65856040518263ffffffff1660e01b81526004016114979190611d51565b600060405180830381865afa1580156114b4573d6000803e3d6000fd5b505050506040513d6000823e3d601f19601f820116820180604052508101906114dd919061335c565b90506000600160009054906101000a900473ffffffffffffffffffffffffffffffffffffffff1673ffffffffffffffffffffffffffffffffffffffff166364b72a65866040518263ffffffff1660e01b815260040161153c9190611d51565b600060405180830381865afa158015611559573d6000803e3d6000fd5b505050506040513d6000823e3d601f19601f820116820180604052508101906115829190612dba565b905060005b82518110156115d4578281815181106115a3576115a26133a5565b5b6020026020010151602001516101000151846115bf9190613403565b935080806115cc90613479565b915050611587565b5060005b8151811015611625578181815181106115f4576115f36133a5565b5b6020026020010151602001516101000151846116109190613403565b9350808061161d90613479565b9150506115d8565b50829350505050919050565b600073ffffffffffffffffffffffffffffffffffffffff82169050919050565b6000819050919050565b600061167661167161166c84611631565b611651565b611631565b9050919050565b60006116888261165b565b9050919050565b600061169a8261167d565b9050919050565b6116aa8161168f565b82525050565b60006020820190506116c560008301846116a1565b92915050565b6000604051905090565b600080fd5b600080fd5b60006116ea82611631565b9050919050565b6116fa816116df565b811461170557600080fd5b50565b600081359050611717816116f1565b92915050565b6000819050919050565b6117308161171d565b811461173b57600080fd5b50565b60008135905061174d81611727565b92915050565b6000806040838503121561176a576117696116d5565b5b600061177885828601611708565b92505060206117898582860161173e565b9150509250929050565b600081519050919050565b600082825260208201905092915050565b6000819050602082019050919050565b6117c88161171d565b82525050565b600081519050919050565b600082825260208201905092915050565b60005b838110156118085780820151818401526020810190506117ed565b60008484015250505050565b6000601f19601f8301169050919050565b6000611830826117ce565b61183a81856117d9565b935061184a8185602086016117ea565b61185381611814565b840191505092915050565b7f4e487b7100000000000000000000000000000000000000000000000000000000600052602160045260246000fd5b6002811061189e5761189d61185e565b5b50565b60008190506118af8261188d565b919050565b60006118bf826118a1565b9050919050565b6118cf816118b4565b82525050565b60006101608301600083015184820360008601526118f38282611825565b9150506020830151848203602086015261190d8282611825565b915050604083015184820360408601526119278282611825565b915050606083015161193c60608601826117bf565b50608083015161194f60808601826117bf565b5060a083015161196260a08601826117bf565b5060c083015161197560c08601826117bf565b5060e083015161198860e08601826117bf565b5061010083015161199d6101008601826117bf565b506101208301516119b26101208601826117bf565b506101408301516119c76101408601826118c6565b508091505092915050565b6119db816116df565b82525050565b600381106119f2576119f161185e565b5b50565b6000819050611a03826119e1565b919050565b6000611a13826119f5565b9050919050565b611a2381611a08565b82525050565b600060e083016000830151611a4160008601826117bf565b5060208301518482036020860152611a5982826118d5565b91505060408301518482036040860152611a738282611825565b9150506060830151611a8860608601826117bf565b506080830151611a9b60808601826117bf565b5060a0830151611aae60a08601826119d2565b5060c0830151611ac160c0860182611a1a565b508091505092915050565b6000611ad88383611a29565b905092915050565b6000602082019050919050565b6000611af882611793565b611b02818561179e565b935083602082028501611b14856117af565b8060005b85811015611b505784840389528151611b318582611acc565b9450611b3c83611ae0565b925060208a01995050600181019050611b18565b50829750879550505050505092915050565b60006020820190508181036000830152611b7c8184611aed565b905092915050565b600060208284031215611b9a57611b996116d5565b5b6000611ba88482850161173e565b91505092915050565b600080fd5b600080fd5b7f4e487b7100000000000000000000000000000000000000000000000000000000600052604160045260246000fd5b611bf382611814565b810181811067ffffffffffffffff82111715611c1257611c11611bbb565b5b80604052505050565b6000611c256116cb565b9050611c318282611bea565b919050565b600067ffffffffffffffff821115611c5157611c50611bbb565b5b611c5a82611814565b9050602081019050919050565b82818337600083830152505050565b6000611c89611c8484611c36565b611c1b565b905082815260208101848484011115611ca557611ca4611bb6565b5b611cb0848285611c67565b509392505050565b600082601f830112611ccd57611ccc611bb1565b5b8135611cdd848260208601611c76565b91505092915050565b60008060408385031215611cfd57611cfc6116d5565b5b600083013567ffffffffffffffff811115611d1b57611d1a6116da565b5b611d2785828601611cb8565b9250506020611d388582860161173e565b9150509250929050565b611d4b8161171d565b82525050565b6000602082019050611d666000830184611d42565b92915050565b600081519050919050565b600082825260208201905092915050565b6000819050602082019050919050565b60028110611da957611da861185e565b5b50565b6000819050611dba82611d98565b919050565b6000611dca82611dac565b9050919050565b611dda81611dbf565b82525050565b6000610160830160008301518482036000860152611dfe8282611825565b91505060208301518482036020860152611e188282611825565b91505060408301518482036040860152611e328282611825565b9150506060830151611e4760608601826117bf565b506080830151611e5a60808601826117bf565b5060a0830151611e6d60a08601826117bf565b5060c0830151611e8060c08601826117bf565b5060e0830151611e9360e08601826117bf565b50610100830151611ea86101008601826117bf565b50610120830151611ebd6101208601826117bf565b50610140830151611ed2610140860182611dd1565b508091505092915050565b60038110611eee57611eed61185e565b5b50565b6000819050611eff82611edd565b919050565b6000611f0f82611ef1565b9050919050565b611f1f81611f04565b82525050565b600061014083016000830151611f3e60008601826117bf565b5060208301518482036020860152611f568282611de0565b91505060408301518482036040860152611f708282611825565b91505060608301518482036060860152611f8a8282611825565b91505060808301518482036080860152611fa48282611825565b91505060a0830151611fb960a08601826117bf565b5060c0830151611fcc60c08601826117bf565b5060e0830151611fdf60e08601826117bf565b50610100830151611ff46101008601826119d2565b50610120830151612009610120860182611f16565b508091505092915050565b60006120208383611f25565b905092915050565b6000602082019050919050565b600061204082611d6c565b61204a8185611d77565b93508360208202850161205c85611d88565b8060005b8581101561209857848403895281516120798582612014565b945061208483612028565b925060208a01995050600181019050612060565b50829750879550505050505092915050565b600060208201905081810360008301526120c48184612035565b905092915050565b600067ffffffffffffffff8211156120e7576120e6611bbb565b5b602082029050602081019050919050565b600080fd5b600080fd5b600080fd5b6002811061211457600080fd5b50565b60008135905061212681612107565b92915050565b60006101608284031215612143576121426120fd565b5b61214e610160611c1b565b9050600082013567ffffffffffffffff81111561216e5761216d612102565b5b61217a84828501611cb8565b600083015250602082013567ffffffffffffffff81111561219e5761219d612102565b5b6121aa84828501611cb8565b602083015250604082013567ffffffffffffffff8111156121ce576121cd612102565b5b6121da84828501611cb8565b60408301525060606121ee8482850161173e565b60608301525060806122028482850161173e565b60808301525060a06122168482850161173e565b60a08301525060c061222a8482850161173e565b60c08301525060e061223e8482850161173e565b60e0830152506101006122538482850161173e565b610100830152506101206122698482850161173e565b6101208301525061014061227f84828501612117565b6101408301525092915050565b600061229f61229a846120cc565b611c1b565b905080838252602082019050602084028301858111156122c2576122c16120f8565b5b835b8181101561230957803567ffffffffffffffff8111156122e7576122e6611bb1565b5b8086016122f4898261212c565b855260208501945050506020810190506122c4565b5050509392505050565b600082601f83011261232857612327611bb1565b5b813561233884826020860161228c565b91505092915050565b60008060408385031215612358576123576116d5565b5b600083013567ffffffffffffffff811115612376576123756116da565b5b61238285828601612313565b92505060206123938582860161173e565b9150509250929050565b600081519050919050565b600082825260208201905092915050565b6000819050602082019050919050565b60008115159050919050565b6123de816123c9565b82525050565b60006123f083836123d5565b60208301905092915050565b6000602082019050919050565b60006124148261239d565b61241e81856123a8565b9350612429836123b9565b8060005b8381101561245a57815161244188826123e4565b975061244c836123fc565b92505060018101905061242d565b5085935050505092915050565b600060208201905081810360008301526124818184612409565b905092915050565b612492816116df565b82525050565b60006020820190506124ad6000830184612489565b92915050565b60008060008060008060c087890312156124d0576124cf6116d5565b5b600087013567ffffffffffffffff8111156124ee576124ed6116da565b5b6124fa89828a0161212c565b965050602087013567ffffffffffffffff81111561251b5761251a6116da565b5b61252789828a01611cb8565b955050604087013567ffffffffffffffff811115612548576125476116da565b5b61255489828a01611cb8565b945050606087013567ffffffffffffffff811115612575576125746116da565b5b61258189828a01611cb8565b935050608061259289828a0161173e565b92505060a06125a389828a0161173e565b9150509295509295509295565b600067ffffffffffffffff8211156125cb576125ca611bbb565b5b602082029050602081019050919050565b600281106125e957600080fd5b50565b6000813590506125fb816125dc565b92915050565b60006101608284031215612618576126176120fd565b5b612623610160611c1b565b9050600082013567ffffffffffffffff81111561264357612642612102565b5b61264f84828501611cb8565b600083015250602082013567ffffffffffffffff81111561267357612672612102565b5b61267f84828501611cb8565b602083015250604082013567ffffffffffffffff8111156126a3576126a2612102565b5b6126af84828501611cb8565b60408301525060606126c38482850161173e565b60608301525060806126d78482850161173e565b60808301525060a06126eb8482850161173e565b60a08301525060c06126ff8482850161173e565b60c08301525060e06127138482850161173e565b60e0830152506101006127288482850161173e565b6101008301525061012061273e8482850161173e565b61012083015250610140612754848285016125ec565b6101408301525092915050565b600061277461276f846125b0565b611c1b565b90508083825260208201905060208402830185811115612797576127966120f8565b5b835b818110156127de57803567ffffffffffffffff8111156127bc576127bb611bb1565b5b8086016127c98982612601565b85526020850194505050602081019050612799565b5050509392505050565b600082601f8301126127fd576127fc611bb1565b5b813561280d848260208601612761565b91505092915050565b6000806040838503121561282d5761282c6116d5565b5b600083013567ffffffffffffffff81111561284b5761284a6116da565b5b612857858286016127e8565b92505060206128688582860161173e565b9150509250929050565b600060208284031215612888576128876116d5565b5b600061289684828501611708565b91505092915050565b6128a8816123c9565b82525050565b60006020820190506128c3600083018461289f565b92915050565b60006128d48261167d565b9050919050565b6128e4816128c9565b82525050565b60006020820190506128ff60008301846128db565b92915050565b60008060006060848603121561291e5761291d6116d5565b5b600084013567ffffffffffffffff81111561293c5761293b6116da565b5b61294886828701612601565b935050602084013567ffffffffffffffff811115612969576129686116da565b5b61297586828701611cb8565b92505060406129868682870161173e565b9150509250925092565b60006040820190506129a56000830185612489565b6129b26020830184611d42565b9392505050565b600067ffffffffffffffff8211156129d4576129d3611bbb565b5b602082029050602081019050919050565b6000815190506129f481611727565b92915050565b6000612a0d612a0884611c36565b611c1b565b905082815260208101848484011115612a2957612a28611bb6565b5b612a348482856117ea565b509392505050565b600082601f830112612a5157612a50611bb1565b5b8151612a618482602086016129fa565b91505092915050565b600081519050612a79816125dc565b92915050565b60006101608284031215612a9657612a956120fd565b5b612aa1610160611c1b565b9050600082015167ffffffffffffffff811115612ac157612ac0612102565b5b612acd84828501612a3c565b600083015250602082015167ffffffffffffffff811115612af157612af0612102565b5b612afd84828501612a3c565b602083015250604082015167ffffffffffffffff811115612b2157612b20612102565b5b612b2d84828501612a3c565b6040830152506060612b41848285016129e5565b6060830152506080612b55848285016129e5565b60808301525060a0612b69848285016129e5565b60a08301525060c0612b7d848285016129e5565b60c08301525060e0612b91848285016129e5565b60e083015250610100612ba6848285016129e5565b61010083015250610120612bbc848285016129e5565b61012083015250610140612bd284828501612a6a565b6101408301525092915050565b600081519050612bee816116f1565b92915050565b60038110612c0157600080fd5b50565b600081519050612c1381612bf4565b92915050565b600060e08284031215612c2f57612c2e6120fd565b5b612c3960e0611c1b565b90506000612c49848285016129e5565b600083015250602082015167ffffffffffffffff811115612c6d57612c6c612102565b5b612c7984828501612a7f565b602083015250604082015167ffffffffffffffff811115612c9d57612c9c612102565b5b612ca984828501612a3c565b6040830152506060612cbd848285016129e5565b6060830152506080612cd1848285016129e5565b60808301525060a0612ce584828501612bdf565b60a08301525060c0612cf984828501612c04565b60c08301525092915050565b6000612d18612d13846129b9565b611c1b565b90508083825260208201905060208402830185811115612d3b57612d3a6120f8565b5b835b81811015612d8257805167ffffffffffffffff811115612d6057612d5f611bb1565b5b808601612d6d8982612c19565b85526020850194505050602081019050612d3d565b5050509392505050565b600082601f830112612da157612da0611bb1565b5b8151612db1848260208601612d05565b91505092915050565b600060208284031215612dd057612dcf6116d5565b5b600082015167ffffffffffffffff811115612dee57612ded6116da565b5b612dfa84828501612d8c565b91505092915050565b600082825260208201905092915050565b7f496e73757265723a204f6e6c792074686520696e73757265722063616e20636160008201527f6c6c207468697300000000000000000000000000000000000000000000000000602082015250565b6000612e70602783612e03565b9150612e7b82612e14565b604082019050919050565b60006020820190508181036000830152612e9f81612e63565b9050919050565b7f496e73756666696369656e742062616c616e6365000000000000000000000000600082015250565b6000612edc601483612e03565b9150612ee782612ea6565b602082019050919050565b60006020820190508181036000830152612f0b81612ecf565b9050919050565b6000612f1d826117ce565b612f278185612e03565b9350612f378185602086016117ea565b612f4081611814565b840191505092915050565b60006040820190508181036000830152612f658185612f12565b9050612f746020830184611d42565b9392505050565b600067ffffffffffffffff821115612f9657612f95611bbb565b5b602082029050602081019050919050565b600081519050612fb681612107565b92915050565b60006101608284031215612fd357612fd26120fd565b5b612fde610160611c1b565b9050600082015167ffffffffffffffff811115612ffe57612ffd612102565b5b61300a84828501612a3c565b600083015250602082015167ffffffffffffffff81111561302e5761302d612102565b5b61303a84828501612a3c565b602083015250604082015167ffffffffffffffff81111561305e5761305d612102565b5b61306a84828501612a3c565b604083015250606061307e848285016129e5565b6060830152506080613092848285016129e5565b60808301525060a06130a6848285016129e5565b60a08301525060c06130ba848285016129e5565b60c08301525060e06130ce848285016129e5565b60e0830152506101006130e3848285016129e5565b610100830152506101206130f9848285016129e5565b6101208301525061014061310f84828501612fa7565b6101408301525092915050565b6003811061312957600080fd5b50565b60008151905061313b8161311c565b92915050565b60006101408284031215613158576131576120fd565b5b613163610140611c1b565b90506000613173848285016129e5565b600083015250602082015167ffffffffffffffff81111561319757613196612102565b5b6131a384828501612fbc565b602083015250604082015167ffffffffffffffff8111156131c7576131c6612102565b5b6131d384828501612a3c565b604083015250606082015167ffffffffffffffff8111156131f7576131f6612102565b5b61320384828501612a3c565b606083015250608082015167ffffffffffffffff81111561322757613226612102565b5b61323384828501612a3c565b60808301525060a0613247848285016129e5565b60a08301525060c061325b848285016129e5565b60c08301525060e061326f848285016129e5565b60e08301525061010061328484828501612bdf565b6101008301525061012061329a8482850161312c565b6101208301525092915050565b60006132ba6132b584612f7b565b611c1b565b905080838252602082019050602084028301858111156132dd576132dc6120f8565b5b835b8181101561332457805167ffffffffffffffff81111561330257613301611bb1565b5b80860161330f8982613141565b855260208501945050506020810190506132df565b5050509392505050565b600082601f83011261334357613342611bb1565b5b81516133538482602086016132a7565b91505092915050565b600060208284031215613372576133716116d5565b5b600082015167ffffffffffffffff8111156133905761338f6116da565b5b61339c8482850161332e565b91505092915050565b7f4e487b7100000000000000000000000000000000000000000000000000000000600052603260045260246000fd5b7f4e487b7100000000000000000000000000000000000000000000000000000000600052601160045260246000fd5b600061340e8261171d565b91506134198361171d565b9250828201905080821115613431576134306133d4565b5b92915050565b60006134428261171d565b915061344d8361171d565b925082820261345b8161171d565b91508282048414831517613472576134716133d4565b5b5092915050565b60006134848261171d565b91507fffffffffffffffffffffffffffffffffffffffffffffffffffffffffffffffff82036134b6576134b56133d4565b5b600182019050919050565b7f496e73756666696369656e7420636f6e74726163742062616c616e636520746f60008201527f20636f76657220706f74656e7469616c207061796f7574730000000000000000602082015250565b600061351d603883612e03565b9150613528826134c1565b604082019050919050565b6000602082019050818103600083015261354c81613510565b9050919050565b60006101608301600083015184820360008601526135718282611825565b9150506020830151848203602086015261358b8282611825565b915050604083015184820360408601526135a58282611825565b91505060608301516135ba60608601826117bf565b5060808301516135cd60808601826117bf565b5060a08301516135e060a08601826117bf565b5060c08301516135f360c08601826117bf565b5060e083015161360660e08601826117bf565b5061010083015161361b6101008601826117bf565b506101208301516136306101208601826117bf565b50610140830151613645610140860182611dd1565b508091505092915050565b600060c082019050818103600083015261366a8189613553565b9050818103602083015261367e8188612f12565b905081810360408301526136928187612f12565b905081810360608301526136a68186612f12565b90506136b56080830185611d42565b6136c260a0830184612489565b979650505050505050565b6000602082840312156136e3576136e26116d5565b5b60006136f1848285016129e5565b91505092915050565b600081905092915050565b6000613710826117ce565b61371a81856136fa565b935061372a8185602086016117ea565b80840191505092915050565b60006137428284613705565b915081905092915050565b7f496e73757265723a204d757374206465706f736974206120706f73697469766560008201527f20616d6f756e7400000000000000000000000000000000000000000000000000602082015250565b60006137a9602783612e03565b91506137b48261374d565b604082019050919050565b600060208201905081810360008301526137d88161379c565b9050919050565b60006101608301600083015184820360008601526137fd8282611825565b915050602083015184820360208601526138178282611825565b915050604083015184820360408601526138318282611825565b915050606083015161384660608601826117bf565b50608083015161385960808601826117bf565b5060a083015161386c60a08601826117bf565b5060c083015161387f60c08601826117bf565b5060e083015161389260e08601826117bf565b506101008301516138a76101008601826117bf565b506101208301516138bc6101208601826117bf565b506101408301516138d16101408601826118c6565b508091505092915050565b600060608201905081810360008301526138f681866137df565b9050818103602083015261390a8185612f12565b90506139196040830184612489565b94935050505056fea264697066735822122040a21cb552159215401dca920216e253c85f9d9b844fe84befe70f79f8bcd05e64736f6c63430008130033",
  "linkReferences": {},
  "deployedLinkReferences": {}
}