{
  "_format": "hh-sol-artifact-1",
  "contractName": "Insurer",
  "sourceName": "contracts/Insurer.sol",
  "abi": [
    {
      "inputs": [
        {
          "internalType": "address",
          "name": "_flightPolicyAddress",
          "type": "address"
        },
        {
          "internalType": "address",
          "name": "_baggagePolicyAddress",
          "type": "address"
        }
      ],
      "stateMutability": "nonpayable",
      "type": "constructor"
    },
    {
      "anonymous": false,
      "inputs": [
        {
          "indexed": true,
          "internalType": "address",
          "name": "buyer",
          "type": "address"
        },
        {
          "indexed": true,
          "internalType": "uint256",
          "name": "policyId",
          "type": "uint256"
        },
        {
          "indexed": true,
          "internalType": "string",
          "name": "templateId",
          "type": "string"
        }
      ],
      "name": "BaggagePolicyPurchased",
      "type": "event"
    },
    {
      "anonymous": false,
      "inputs": [
        {
          "indexed": true,
          "internalType": "address",
          "name": "buyer",
          "type": "address"
        },
        {
          "indexed": true,
          "internalType": "uint256",
          "name": "policyId",
          "type": "uint256"
        },
        {
          "indexed": true,
          "internalType": "string",
          "name": "templateId",
          "type": "string"
        }
      ],
      "name": "FlightPolicyPurchased",
      "type": "event"
    },
    {
      "anonymous": false,
      "inputs": [
        {
          "indexed": true,
          "internalType": "address",
          "name": "insurer",
          "type": "address"
        },
        {
          "indexed": false,
          "internalType": "uint256",
          "name": "amount",
          "type": "uint256"
        }
      ],
      "name": "FundsDeposited",
      "type": "event"
    },
    {
      "anonymous": false,
      "inputs": [
        {
          "indexed": true,
          "internalType": "address",
          "name": "insurer",
          "type": "address"
        },
        {
          "indexed": false,
          "internalType": "uint256",
          "name": "amount",
          "type": "uint256"
        }
      ],
      "name": "FundsWithdrawn",
      "type": "event"
    },
    {
      "anonymous": false,
      "inputs": [
        {
          "indexed": true,
          "internalType": "uint256",
          "name": "policyId",
          "type": "uint256"
        },
        {
          "indexed": true,
          "internalType": "address",
          "name": "buyer",
          "type": "address"
        },
        {
          "indexed": false,
          "internalType": "uint256",
          "name": "amount",
          "type": "uint256"
        }
      ],
      "name": "PayoutClaimed",
      "type": "event"
    },
    {
      "inputs": [],
      "name": "baggagePolicy",
      "outputs": [
        {
          "internalType": "contract BaggagePolicy",
          "name": "",
          "type": "address"
        }
      ],
      "stateMutability": "view",
      "type": "function"
    },
    {
      "inputs": [
        {
          "internalType": "uint256",
          "name": "policyId",
          "type": "uint256"
        }
      ],
      "name": "claimBaggagePayout",
      "outputs": [],
      "stateMutability": "nonpayable",
      "type": "function"
    },
    {
      "inputs": [
        {
          "internalType": "uint256",
          "name": "policyId",
          "type": "uint256"
        }
      ],
      "name": "claimFlightPayout",
      "outputs": [],
      "stateMutability": "nonpayable",
      "type": "function"
    },
    {
      "inputs": [],
      "name": "deposit",
      "outputs": [],
      "stateMutability": "payable",
      "type": "function"
    },
    {
      "inputs": [],
      "name": "flightPolicy",
      "outputs": [
        {
          "internalType": "contract FlightPolicy",
          "name": "",
          "type": "address"
        }
      ],
      "stateMutability": "view",
      "type": "function"
    },
    {
      "inputs": [
        {
          "internalType": "uint256",
          "name": "currentTime",
          "type": "uint256"
        }
      ],
      "name": "getAllBaggagePolicies",
      "outputs": [
        {
          "components": [
            {
              "internalType": "uint256",
              "name": "policyId",
              "type": "uint256"
            },
            {
              "components": [
                {
                  "internalType": "string",
                  "name": "templateId",
                  "type": "string"
                },
                {
                  "internalType": "string",
                  "name": "name",
                  "type": "string"
                },
                {
                  "internalType": "string",
                  "name": "description",
                  "type": "string"
                },
                {
                  "internalType": "uint256",
                  "name": "createdAt",
                  "type": "uint256"
                },
                {
                  "internalType": "uint256",
                  "name": "updatedAt",
                  "type": "uint256"
                },
                {
                  "internalType": "uint256",
                  "name": "premium",
                  "type": "uint256"
                },
                {
                  "internalType": "uint256",
                  "name": "maxTotalPayout",
                  "type": "uint256"
                },
                {
                  "internalType": "uint256",
                  "name": "coverageDurationSeconds",
                  "type": "uint256"
                },
                {
                  "internalType": "enum BaggagePolicy.PolicyTemplateStatus",
                  "name": "status",
                  "type": "uint8"
                }
              ],
              "internalType": "struct BaggagePolicy.PolicyTemplate",
              "name": "template",
              "type": "tuple"
            },
            {
              "internalType": "string",
              "name": "flightNumber",
              "type": "string"
            },
            {
              "internalType": "uint256",
              "name": "departureTime",
              "type": "uint256"
            },
            {
              "internalType": "string",
              "name": "itemDescription",
              "type": "string"
            },
            {
              "internalType": "uint256",
              "name": "createdAt",
              "type": "uint256"
            },
            {
              "internalType": "uint256",
              "name": "payoutToDate",
              "type": "uint256"
            },
            {
              "internalType": "address",
              "name": "buyer",
              "type": "address"
            },
            {
              "internalType": "enum BaggagePolicy.PolicyStatus",
              "name": "status",
              "type": "uint8"
            }
          ],
          "internalType": "struct BaggagePolicy.UserPolicy[]",
          "name": "",
          "type": "tuple[]"
        }
      ],
      "stateMutability": "view",
      "type": "function"
    },
    {
      "inputs": [
        {
          "internalType": "uint256",
          "name": "currentTime",
          "type": "uint256"
        }
      ],
      "name": "getAllFlightPolicies",
      "outputs": [
        {
          "components": [
            {
              "internalType": "uint256",
              "name": "policyId",
              "type": "uint256"
            },
            {
              "components": [
                {
                  "internalType": "string",
                  "name": "templateId",
                  "type": "string"
                },
                {
                  "internalType": "string",
                  "name": "name",
                  "type": "string"
                },
                {
                  "internalType": "string",
                  "name": "description",
                  "type": "string"
                },
                {
                  "internalType": "uint256",
                  "name": "createdAt",
                  "type": "uint256"
                },
                {
                  "internalType": "uint256",
                  "name": "updatedAt",
                  "type": "uint256"
                },
                {
                  "internalType": "uint256",
                  "name": "premium",
                  "type": "uint256"
                },
                {
                  "internalType": "uint256",
                  "name": "payoutPerHour",
                  "type": "uint256"
                },
                {
                  "internalType": "uint256",
                  "name": "maxTotalPayout",
                  "type": "uint256"
                },
                {
                  "internalType": "uint256",
                  "name": "delayThresholdHours",
                  "type": "uint256"
                },
                {
                  "internalType": "uint256",
                  "name": "coverageDurationSeconds",
                  "type": "uint256"
                },
                {
                  "internalType": "enum FlightPolicy.PolicyTemplateStatus",
                  "name": "status",
                  "type": "uint8"
                }
              ],
              "internalType": "struct FlightPolicy.PolicyTemplate",
              "name": "template",
              "type": "tuple"
            },
            {
              "internalType": "string",
              "name": "flightNumber",
              "type": "string"
            },
            {
              "internalType": "uint256",
              "name": "departureTime",
              "type": "uint256"
            },
            {
              "internalType": "uint256",
              "name": "createdAt",
              "type": "uint256"
            },
            {
              "internalType": "uint256",
              "name": "payoutToDate",
              "type": "uint256"
            },
            {
              "internalType": "address",
              "name": "buyer",
              "type": "address"
            },
            {
              "internalType": "enum FlightPolicy.PolicyStatus",
              "name": "status",
              "type": "uint8"
            }
          ],
          "internalType": "struct FlightPolicy.UserPolicy[]",
          "name": "",
          "type": "tuple[]"
        }
      ],
      "stateMutability": "view",
      "type": "function"
    },
    {
      "inputs": [],
      "name": "getContractBalance",
      "outputs": [
        {
          "internalType": "uint256",
          "name": "",
          "type": "uint256"
        }
      ],
      "stateMutability": "view",
      "type": "function"
    },
    {
      "inputs": [
        {
          "internalType": "address",
          "name": "user",
          "type": "address"
        },
        {
          "internalType": "uint256",
          "name": "currentTime",
          "type": "uint256"
        }
      ],
      "name": "getUserBaggagePolicies",
      "outputs": [
        {
          "components": [
            {
              "internalType": "uint256",
              "name": "policyId",
              "type": "uint256"
            },
            {
              "components": [
                {
                  "internalType": "string",
                  "name": "templateId",
                  "type": "string"
                },
                {
                  "internalType": "string",
                  "name": "name",
                  "type": "string"
                },
                {
                  "internalType": "string",
                  "name": "description",
                  "type": "string"
                },
                {
                  "internalType": "uint256",
                  "name": "createdAt",
                  "type": "uint256"
                },
                {
                  "internalType": "uint256",
                  "name": "updatedAt",
                  "type": "uint256"
                },
                {
                  "internalType": "uint256",
                  "name": "premium",
                  "type": "uint256"
                },
                {
                  "internalType": "uint256",
                  "name": "maxTotalPayout",
                  "type": "uint256"
                },
                {
                  "internalType": "uint256",
                  "name": "coverageDurationSeconds",
                  "type": "uint256"
                },
                {
                  "internalType": "enum BaggagePolicy.PolicyTemplateStatus",
                  "name": "status",
                  "type": "uint8"
                }
              ],
              "internalType": "struct BaggagePolicy.PolicyTemplate",
              "name": "template",
              "type": "tuple"
            },
            {
              "internalType": "string",
              "name": "flightNumber",
              "type": "string"
            },
            {
              "internalType": "uint256",
              "name": "departureTime",
              "type": "uint256"
            },
            {
              "internalType": "string",
              "name": "itemDescription",
              "type": "string"
            },
            {
              "internalType": "uint256",
              "name": "createdAt",
              "type": "uint256"
            },
            {
              "internalType": "uint256",
              "name": "payoutToDate",
              "type": "uint256"
            },
            {
              "internalType": "address",
              "name": "buyer",
              "type": "address"
            },
            {
              "internalType": "enum BaggagePolicy.PolicyStatus",
              "name": "status",
              "type": "uint8"
            }
          ],
          "internalType": "struct BaggagePolicy.UserPolicy[]",
          "name": "",
          "type": "tuple[]"
        }
      ],
      "stateMutability": "view",
      "type": "function"
    },
    {
      "inputs": [
        {
          "internalType": "string",
          "name": "templateId",
          "type": "string"
        },
        {
          "internalType": "uint256",
          "name": "currentTime",
          "type": "uint256"
        }
      ],
      "name": "getUserBaggagePoliciesByTemplate",
      "outputs": [
        {
          "components": [
            {
              "internalType": "uint256",
              "name": "policyId",
              "type": "uint256"
            },
            {
              "components": [
                {
                  "internalType": "string",
                  "name": "templateId",
                  "type": "string"
                },
                {
                  "internalType": "string",
                  "name": "name",
                  "type": "string"
                },
                {
                  "internalType": "string",
                  "name": "description",
                  "type": "string"
                },
                {
                  "internalType": "uint256",
                  "name": "createdAt",
                  "type": "uint256"
                },
                {
                  "internalType": "uint256",
                  "name": "updatedAt",
                  "type": "uint256"
                },
                {
                  "internalType": "uint256",
                  "name": "premium",
                  "type": "uint256"
                },
                {
                  "internalType": "uint256",
                  "name": "maxTotalPayout",
                  "type": "uint256"
                },
                {
                  "internalType": "uint256",
                  "name": "coverageDurationSeconds",
                  "type": "uint256"
                },
                {
                  "internalType": "enum BaggagePolicy.PolicyTemplateStatus",
                  "name": "status",
                  "type": "uint8"
                }
              ],
              "internalType": "struct BaggagePolicy.PolicyTemplate",
              "name": "template",
              "type": "tuple"
            },
            {
              "internalType": "string",
              "name": "flightNumber",
              "type": "string"
            },
            {
              "internalType": "uint256",
              "name": "departureTime",
              "type": "uint256"
            },
            {
              "internalType": "string",
              "name": "itemDescription",
              "type": "string"
            },
            {
              "internalType": "uint256",
              "name": "createdAt",
              "type": "uint256"
            },
            {
              "internalType": "uint256",
              "name": "payoutToDate",
              "type": "uint256"
            },
            {
              "internalType": "address",
              "name": "buyer",
              "type": "address"
            },
            {
              "internalType": "enum BaggagePolicy.PolicyStatus",
              "name": "status",
              "type": "uint8"
            }
          ],
          "internalType": "struct BaggagePolicy.UserPolicy[]",
          "name": "",
          "type": "tuple[]"
        }
      ],
      "stateMutability": "view",
      "type": "function"
    },
    {
      "inputs": [
        {
          "internalType": "address",
          "name": "user",
          "type": "address"
        },
        {
          "internalType": "uint256",
          "name": "currentTime",
          "type": "uint256"
        }
      ],
      "name": "getUserFlightPolicies",
      "outputs": [
        {
          "components": [
            {
              "internalType": "uint256",
              "name": "policyId",
              "type": "uint256"
            },
            {
              "components": [
                {
                  "internalType": "string",
                  "name": "templateId",
                  "type": "string"
                },
                {
                  "internalType": "string",
                  "name": "name",
                  "type": "string"
                },
                {
                  "internalType": "string",
                  "name": "description",
                  "type": "string"
                },
                {
                  "internalType": "uint256",
                  "name": "createdAt",
                  "type": "uint256"
                },
                {
                  "internalType": "uint256",
                  "name": "updatedAt",
                  "type": "uint256"
                },
                {
                  "internalType": "uint256",
                  "name": "premium",
                  "type": "uint256"
                },
                {
                  "internalType": "uint256",
                  "name": "payoutPerHour",
                  "type": "uint256"
                },
                {
                  "internalType": "uint256",
                  "name": "maxTotalPayout",
                  "type": "uint256"
                },
                {
                  "internalType": "uint256",
                  "name": "delayThresholdHours",
                  "type": "uint256"
                },
                {
                  "internalType": "uint256",
                  "name": "coverageDurationSeconds",
                  "type": "uint256"
                },
                {
                  "internalType": "enum FlightPolicy.PolicyTemplateStatus",
                  "name": "status",
                  "type": "uint8"
                }
              ],
              "internalType": "struct FlightPolicy.PolicyTemplate",
              "name": "template",
              "type": "tuple"
            },
            {
              "internalType": "string",
              "name": "flightNumber",
              "type": "string"
            },
            {
              "internalType": "uint256",
              "name": "departureTime",
              "type": "uint256"
            },
            {
              "internalType": "uint256",
              "name": "createdAt",
              "type": "uint256"
            },
            {
              "internalType": "uint256",
              "name": "payoutToDate",
              "type": "uint256"
            },
            {
              "internalType": "address",
              "name": "buyer",
              "type": "address"
            },
            {
              "internalType": "enum FlightPolicy.PolicyStatus",
              "name": "status",
              "type": "uint8"
            }
          ],
          "internalType": "struct FlightPolicy.UserPolicy[]",
          "name": "",
          "type": "tuple[]"
        }
      ],
      "stateMutability": "view",
      "type": "function"
    },
    {
      "inputs": [
        {
          "internalType": "string",
          "name": "templateId",
          "type": "string"
        },
        {
          "internalType": "uint256",
          "name": "currentTime",
          "type": "uint256"
        }
      ],
      "name": "getUserFlightPoliciesByTemplate",
      "outputs": [
        {
          "components": [
            {
              "internalType": "uint256",
              "name": "policyId",
              "type": "uint256"
            },
            {
              "components": [
                {
                  "internalType": "string",
                  "name": "templateId",
                  "type": "string"
                },
                {
                  "internalType": "string",
                  "name": "name",
                  "type": "string"
                },
                {
                  "internalType": "string",
                  "name": "description",
                  "type": "string"
                },
                {
                  "internalType": "uint256",
                  "name": "createdAt",
                  "type": "uint256"
                },
                {
                  "internalType": "uint256",
                  "name": "updatedAt",
                  "type": "uint256"
                },
                {
                  "internalType": "uint256",
                  "name": "premium",
                  "type": "uint256"
                },
                {
                  "internalType": "uint256",
                  "name": "payoutPerHour",
                  "type": "uint256"
                },
                {
                  "internalType": "uint256",
                  "name": "maxTotalPayout",
                  "type": "uint256"
                },
                {
                  "internalType": "uint256",
                  "name": "delayThresholdHours",
                  "type": "uint256"
                },
                {
                  "internalType": "uint256",
                  "name": "coverageDurationSeconds",
                  "type": "uint256"
                },
                {
                  "internalType": "enum FlightPolicy.PolicyTemplateStatus",
                  "name": "status",
                  "type": "uint8"
                }
              ],
              "internalType": "struct FlightPolicy.PolicyTemplate",
              "name": "template",
              "type": "tuple"
            },
            {
              "internalType": "string",
              "name": "flightNumber",
              "type": "string"
            },
            {
              "internalType": "uint256",
              "name": "departureTime",
              "type": "uint256"
            },
            {
              "internalType": "uint256",
              "name": "createdAt",
              "type": "uint256"
            },
            {
              "internalType": "uint256",
              "name": "payoutToDate",
              "type": "uint256"
            },
            {
              "internalType": "address",
              "name": "buyer",
              "type": "address"
            },
            {
              "internalType": "enum FlightPolicy.PolicyStatus",
              "name": "status",
              "type": "uint8"
            }
          ],
          "internalType": "struct FlightPolicy.UserPolicy[]",
          "name": "",
          "type": "tuple[]"
        }
      ],
      "stateMutability": "view",
      "type": "function"
    },
    {
      "inputs": [],
      "name": "insurerAddress",
      "outputs": [
        {
          "internalType": "address",
          "name": "",
          "type": "address"
        }
      ],
      "stateMutability": "view",
      "type": "function"
    },
    {
      "inputs": [
        {
          "components": [
            {
              "internalType": "string",
              "name": "templateId",
              "type": "string"
            },
            {
              "internalType": "string",
              "name": "name",
              "type": "string"
            },
            {
              "internalType": "string",
              "name": "description",
              "type": "string"
            },
            {
              "internalType": "uint256",
              "name": "createdAt",
              "type": "uint256"
            },
            {
              "internalType": "uint256",
              "name": "updatedAt",
              "type": "uint256"
            },
            {
              "internalType": "uint256",
              "name": "premium",
              "type": "uint256"
            },
            {
              "internalType": "uint256",
              "name": "maxTotalPayout",
              "type": "uint256"
            },
            {
              "internalType": "uint256",
              "name": "coverageDurationSeconds",
              "type": "uint256"
            },
            {
              "internalType": "enum BaggagePolicy.PolicyTemplateStatus",
              "name": "status",
              "type": "uint8"
            }
          ],
          "internalType": "struct BaggagePolicy.PolicyTemplate[]",
          "name": "templates",
          "type": "tuple[]"
        },
        {
          "internalType": "uint256",
          "name": "currentTime",
          "type": "uint256"
        }
      ],
      "name": "isBaggagePolicyTemplateAllowedForPurchase",
      "outputs": [
        {
          "internalType": "bool[]",
          "name": "",
          "type": "bool[]"
        }
      ],
      "stateMutability": "view",
      "type": "function"
    },
    {
      "inputs": [
        {
          "components": [
            {
              "internalType": "string",
              "name": "templateId",
              "type": "string"
            },
            {
              "internalType": "string",
              "name": "name",
              "type": "string"
            },
            {
              "internalType": "string",
              "name": "description",
              "type": "string"
            },
            {
              "internalType": "uint256",
              "name": "createdAt",
              "type": "uint256"
            },
            {
              "internalType": "uint256",
              "name": "updatedAt",
              "type": "uint256"
            },
            {
              "internalType": "uint256",
              "name": "premium",
              "type": "uint256"
            },
            {
              "internalType": "uint256",
              "name": "payoutPerHour",
              "type": "uint256"
            },
            {
              "internalType": "uint256",
              "name": "maxTotalPayout",
              "type": "uint256"
            },
            {
              "internalType": "uint256",
              "name": "delayThresholdHours",
              "type": "uint256"
            },
            {
              "internalType": "uint256",
              "name": "coverageDurationSeconds",
              "type": "uint256"
            },
            {
              "internalType": "enum FlightPolicy.PolicyTemplateStatus",
              "name": "status",
              "type": "uint8"
            }
          ],
          "internalType": "struct FlightPolicy.PolicyTemplate[]",
          "name": "templates",
          "type": "tuple[]"
        },
        {
          "internalType": "uint256",
          "name": "currentTime",
          "type": "uint256"
        }
      ],
      "name": "isFlightPolicyTemplateAllowedForPurchase",
      "outputs": [
        {
          "internalType": "bool[]",
          "name": "",
          "type": "bool[]"
        }
      ],
      "stateMutability": "view",
      "type": "function"
    },
    {
      "inputs": [
        {
          "internalType": "address",
          "name": "user",
          "type": "address"
        }
      ],
      "name": "isInsurer",
      "outputs": [
        {
          "internalType": "bool",
          "name": "",
          "type": "bool"
        }
      ],
      "stateMutability": "view",
      "type": "function"
    },
    {
      "inputs": [
        {
          "components": [
            {
              "internalType": "string",
              "name": "templateId",
              "type": "string"
            },
            {
              "internalType": "string",
              "name": "name",
              "type": "string"
            },
            {
              "internalType": "string",
              "name": "description",
              "type": "string"
            },
            {
              "internalType": "uint256",
              "name": "createdAt",
              "type": "uint256"
            },
            {
              "internalType": "uint256",
              "name": "updatedAt",
              "type": "uint256"
            },
            {
              "internalType": "uint256",
              "name": "premium",
              "type": "uint256"
            },
            {
              "internalType": "uint256",
              "name": "maxTotalPayout",
              "type": "uint256"
            },
            {
              "internalType": "uint256",
              "name": "coverageDurationSeconds",
              "type": "uint256"
            },
            {
              "internalType": "enum BaggagePolicy.PolicyTemplateStatus",
              "name": "status",
              "type": "uint8"
            }
          ],
          "internalType": "struct BaggagePolicy.PolicyTemplate",
          "name": "template",
          "type": "tuple"
        },
        {
          "internalType": "string",
          "name": "flightNumber",
          "type": "string"
        },
        {
          "internalType": "uint256",
          "name": "departureTime",
          "type": "uint256"
        },
        {
          "internalType": "string",
          "name": "itemDescription",
          "type": "string"
        },
        {
          "internalType": "uint256",
          "name": "currentTime",
          "type": "uint256"
        }
      ],
      "name": "purchaseBaggagePolicy",
      "outputs": [],
      "stateMutability": "payable",
      "type": "function"
    },
    {
      "inputs": [
        {
          "components": [
            {
              "internalType": "string",
              "name": "templateId",
              "type": "string"
            },
            {
              "internalType": "string",
              "name": "name",
              "type": "string"
            },
            {
              "internalType": "string",
              "name": "description",
              "type": "string"
            },
            {
              "internalType": "uint256",
              "name": "createdAt",
              "type": "uint256"
            },
            {
              "internalType": "uint256",
              "name": "updatedAt",
              "type": "uint256"
            },
            {
              "internalType": "uint256",
              "name": "premium",
              "type": "uint256"
            },
            {
              "internalType": "uint256",
              "name": "payoutPerHour",
              "type": "uint256"
            },
            {
              "internalType": "uint256",
              "name": "maxTotalPayout",
              "type": "uint256"
            },
            {
              "internalType": "uint256",
              "name": "delayThresholdHours",
              "type": "uint256"
            },
            {
              "internalType": "uint256",
              "name": "coverageDurationSeconds",
              "type": "uint256"
            },
            {
              "internalType": "enum FlightPolicy.PolicyTemplateStatus",
              "name": "status",
              "type": "uint8"
            }
          ],
          "internalType": "struct FlightPolicy.PolicyTemplate",
          "name": "template",
          "type": "tuple"
        },
        {
          "internalType": "string",
          "name": "flightNumber",
          "type": "string"
        },
        {
          "internalType": "uint256",
          "name": "departureTime",
          "type": "uint256"
        },
        {
          "internalType": "uint256",
          "name": "currentTime",
          "type": "uint256"
        }
      ],
      "name": "purchaseFlightPolicy",
      "outputs": [],
      "stateMutability": "payable",
      "type": "function"
    },
    {
      "inputs": [
        {
          "internalType": "uint256",
          "name": "amountInWei",
          "type": "uint256"
        }
      ],
      "name": "withdraw",
      "outputs": [],
      "stateMutability": "nonpayable",
      "type": "function"
    },
    {
      "stateMutability": "payable",
      "type": "receive"
    }
  ],
  "bytecode": "0x60a06040523480156200001157600080fd5b50604051620040563803806200405683398181016040528101906200003791906200015e565b3373ffffffffffffffffffffffffffffffffffffffff1660808173ffffffffffffffffffffffffffffffffffffffff1681525050816000806101000a81548173ffffffffffffffffffffffffffffffffffffffff021916908373ffffffffffffffffffffffffffffffffffffffff16021790555080600160006101000a81548173ffffffffffffffffffffffffffffffffffffffff021916908373ffffffffffffffffffffffffffffffffffffffff1602179055505050620001a5565b600080fd5b600073ffffffffffffffffffffffffffffffffffffffff82169050919050565b60006200012682620000f9565b9050919050565b620001388162000119565b81146200014457600080fd5b50565b60008151905062000158816200012d565b92915050565b60008060408385031215620001785762000177620000f4565b5b6000620001888582860162000147565b92505060206200019b8582860162000147565b9150509250929050565b608051613e486200020e60003960008181610725015281816107f60152818161085d015281816108d001528181610dd301528181610f1201528181610f3801528181611224015281816112f5015281816113670152818161159f01526116d50152613e486000f3fe6080604052600436106101185760003560e01c8063757ae1ba116100a0578063da7897e211610064578063da7897e2146103b4578063f368bc27146103f1578063f36ceb841461041c578063fca1ecdb14610438578063fdae7ad1146104755761011f565b8063757ae1ba146102e9578063a7c0900e14610326578063c1ec399214610351578063c5d8e5181461038e578063d0e30db0146103aa5761011f565b80633f60875d116100e75780633f60875d146101de5780634de0459f1461021b5780635361c28a146102585780635ef2324c146102815780636f9fb98a146102be5761011f565b806307116510146101245780632377cd1e1461014f578063260d47c51461018c5780632e1a7d4d146101b55761011f565b3661011f57005b600080fd5b34801561013057600080fd5b506101396104b2565b6040516101469190611b1b565b60405180910390f35b34801561015b57600080fd5b5061017660048036038101906101719190611bbe565b6104d6565b6040516101839190611fd3565b60405180910390f35b34801561019857600080fd5b506101b360048036038101906101ae9190611ff5565b610583565b005b3480156101c157600080fd5b506101dc60048036038101906101d79190611ff5565b610723565b005b3480156101ea57600080fd5b5061020560048036038101906102009190612157565b6108cc565b6040516102129190611fd3565b60405180910390f35b34801561022757600080fd5b50610242600480360381019061023d9190612428565b610a07565b60405161024f919061254e565b60405180910390f35b34801561026457600080fd5b5061027f600480360381019061027a9190611ff5565b610b1a565b005b34801561028d57600080fd5b506102a860048036038101906102a391906127aa565b610cbc565b6040516102b5919061254e565b60405180910390f35b3480156102ca57600080fd5b506102d3610dcf565b6040516102e09190612815565b60405180910390f35b3480156102f557600080fd5b50610310600480360381019061030b9190611bbe565b610e65565b60405161031d9190612b36565b60405180910390f35b34801561033257600080fd5b5061033b610f10565b6040516103489190612b67565b60405180910390f35b34801561035d57600080fd5b5061037860048036038101906103739190611ff5565b610f34565b6040516103859190611fd3565b60405180910390f35b6103a860048036038101906103a39190612b82565b61106c565b005b6103b2611222565b005b3480156103c057600080fd5b506103db60048036038101906103d69190612c21565b611363565b6040516103e89190612c5d565b60405180910390f35b3480156103fd57600080fd5b506104066113bb565b6040516104139190612c99565b60405180910390f35b61043660048036038101906104319190612cb4565b6113e1565b005b34801561044457600080fd5b5061045f600480360381019061045a9190611ff5565b61159b565b60405161046c9190612b36565b60405180910390f35b34801561048157600080fd5b5061049c60048036038101906104979190612157565b6116d1565b6040516104a99190612b36565b60405180910390f35b60008054906101000a900473ffffffffffffffffffffffffffffffffffffffff1681565b6060600160009054906101000a900473ffffffffffffffffffffffffffffffffffffffff1673ffffffffffffffffffffffffffffffffffffffff1663642bb92584846040518363ffffffff1660e01b8152600401610535929190612d83565b600060405180830381865afa158015610552573d6000803e3d6000fd5b505050506040513d6000823e3d601f19601f8201168201806040525081019061057b91906131c9565b905092915050565b60008060008054906101000a900473ffffffffffffffffffffffffffffffffffffffff1673ffffffffffffffffffffffffffffffffffffffff1663b0110cc684336040518363ffffffff1660e01b81526004016105e1929190613212565b6000604051808303816000875af1158015610600573d6000803e3d6000fd5b505050506040513d6000823e3d601f19601f8201168201806040525081019061062991906134d7565b915091506000820361063c575050610720565b8147101561067f576040517f08c379a000000000000000000000000000000000000000000000000000000000815260040161067690613590565b60405180910390fd5b8060c0015173ffffffffffffffffffffffffffffffffffffffff166108fc839081150290604051600060405180830381858888f193505050501580156106c9573d6000803e3d6000fd5b508060c0015173ffffffffffffffffffffffffffffffffffffffff16837fe97cee5a4c0549d3fdc81e322b718ddf0aeb3418ec87dce4f9a7fb28d117c312846040516107159190612815565b60405180910390a350505b50565b7f000000000000000000000000000000000000000000000000000000000000000073ffffffffffffffffffffffffffffffffffffffff163373ffffffffffffffffffffffffffffffffffffffff16146107b1576040517f08c379a00000000000000000000000000000000000000000000000000000000081526004016107a890613622565b60405180910390fd5b804710156107f4576040517f08c379a00000000000000000000000000000000000000000000000000000000081526004016107eb9061368e565b60405180910390fd5b7f000000000000000000000000000000000000000000000000000000000000000073ffffffffffffffffffffffffffffffffffffffff166108fc829081150290604051600060405180830381858888f1935050505015801561085a573d6000803e3d6000fd5b507f000000000000000000000000000000000000000000000000000000000000000073ffffffffffffffffffffffffffffffffffffffff167feaff4b37086828766ad3268786972c0cd24259d4c87a80f9d3963a3c3d999b0d826040516108c19190612815565b60405180910390a250565b60607f000000000000000000000000000000000000000000000000000000000000000073ffffffffffffffffffffffffffffffffffffffff163373ffffffffffffffffffffffffffffffffffffffff161461095c576040517f08c379a000000000000000000000000000000000000000000000000000000000815260040161095390613622565b60405180910390fd5b600160009054906101000a900473ffffffffffffffffffffffffffffffffffffffff1673ffffffffffffffffffffffffffffffffffffffff1663c52eaa4084846040518363ffffffff1660e01b81526004016109b99291906136e7565b600060405180830381865afa1580156109d6573d6000803e3d6000fd5b505050506040513d6000823e3d601f19601f820116820180604052508101906109ff91906131c9565b905092915050565b60606000835167ffffffffffffffff811115610a2657610a2561202c565b5b604051908082528060200260200182016040528015610a545781602001602082028036833780820191505090505b5090506000610a628461180a565b905060005b8551811015610b0e576000868281518110610a8557610a84613717565b5b602002602001015160e0015183610a9c9190613775565b905047811115610ad2576000848381518110610abb57610aba613717565b5b602002602001019015159081151581525050610afa565b6001848381518110610ae757610ae6613717565b5b6020026020010190151590811515815250505b508080610b06906137a9565b915050610a67565b50819250505092915050565b600080600160009054906101000a900473ffffffffffffffffffffffffffffffffffffffff1673ffffffffffffffffffffffffffffffffffffffff1663b0110cc684336040518363ffffffff1660e01b8152600401610b7a929190613212565b6000604051808303816000875af1158015610b99573d6000803e3d6000fd5b505050506040513d6000823e3d601f19601f82011682018060405250810190610bc291906137f1565b9150915060008203610bd5575050610cb9565b81471015610c18576040517f08c379a0000000000000000000000000000000000000000000000000000000008152600401610c0f90613590565b60405180910390fd5b8060e0015173ffffffffffffffffffffffffffffffffffffffff166108fc839081150290604051600060405180830381858888f19350505050158015610c62573d6000803e3d6000fd5b508060e0015173ffffffffffffffffffffffffffffffffffffffff16837fe97cee5a4c0549d3fdc81e322b718ddf0aeb3418ec87dce4f9a7fb28d117c31284604051610cae9190612815565b60405180910390a350505b50565b60606000835167ffffffffffffffff811115610cdb57610cda61202c565b5b604051908082528060200260200182016040528015610d095781602001602082028036833780820191505090505b5090506000610d178461180a565b905060005b8551811015610dc3576000868281518110610d3a57610d39613717565b5b602002602001015160c0015183610d519190613775565b905047811115610d87576000848381518110610d7057610d6f613717565b5b602002602001019015159081151581525050610daf565b6001848381518110610d9c57610d9b613717565b5b6020026020010190151590811515815250505b508080610dbb906137a9565b915050610d1c565b50819250505092915050565b60007f000000000000000000000000000000000000000000000000000000000000000073ffffffffffffffffffffffffffffffffffffffff163373ffffffffffffffffffffffffffffffffffffffff1614610e5f576040517f08c379a0000000000000000000000000000000000000000000000000000000008152600401610e5690613622565b60405180910390fd5b47905090565b606060008054906101000a900473ffffffffffffffffffffffffffffffffffffffff1673ffffffffffffffffffffffffffffffffffffffff1663642bb92584846040518363ffffffff1660e01b8152600401610ec2929190612d83565b600060405180830381865afa158015610edf573d6000803e3d6000fd5b505050506040513d6000823e3d601f19601f82011682018060405250810190610f08919061392e565b905092915050565b7f000000000000000000000000000000000000000000000000000000000000000081565b60607f000000000000000000000000000000000000000000000000000000000000000073ffffffffffffffffffffffffffffffffffffffff163373ffffffffffffffffffffffffffffffffffffffff1614610fc4576040517f08c379a0000000000000000000000000000000000000000000000000000000008152600401610fbb90613622565b60405180910390fd5b600160009054906101000a900473ffffffffffffffffffffffffffffffffffffffff1673ffffffffffffffffffffffffffffffffffffffff166364b72a65836040518263ffffffff1660e01b815260040161101f9190612815565b600060405180830381865afa15801561103c573d6000803e3d6000fd5b505050506040513d6000823e3d601f19601f8201168201806040525081019061106591906131c9565b9050919050565b60006110778261180a565b90508460e00151816110899190613775565b9050478111156110ce576040517f08c379a00000000000000000000000000000000000000000000000000000000081526004016110c5906139e9565b60405180910390fd5b8460a00151341015611115576040517f08c379a000000000000000000000000000000000000000000000000000000000815260040161110c90613a55565b60405180910390fd5b60008060009054906101000a900473ffffffffffffffffffffffffffffffffffffffff1673ffffffffffffffffffffffffffffffffffffffff1663f6897d63878787336040518563ffffffff1660e01b81526004016111779493929190613b72565b6020604051808303816000875af1158015611196573d6000803e3d6000fd5b505050506040513d601f19601f820116820180604052508101906111ba9190613bc5565b905085600001516040516111ce9190613c2e565b6040518091039020813373ffffffffffffffffffffffffffffffffffffffff167f43617ea01c45d3386d7be4a6cb66bf94c0152a674cbd34a5de81ed135dfd7b1760405160405180910390a4505050505050565b7f000000000000000000000000000000000000000000000000000000000000000073ffffffffffffffffffffffffffffffffffffffff163373ffffffffffffffffffffffffffffffffffffffff16146112b0576040517f08c379a00000000000000000000000000000000000000000000000000000000081526004016112a790613622565b60405180910390fd5b600034116112f3576040517f08c379a00000000000000000000000000000000000000000000000000000000081526004016112ea90613cb7565b60405180910390fd5b7f000000000000000000000000000000000000000000000000000000000000000073ffffffffffffffffffffffffffffffffffffffff167f543ba50a5eec5e6178218e364b1d0f396157b3c8fa278522c2cb7fd99407d474346040516113599190612815565b60405180910390a2565b60007f000000000000000000000000000000000000000000000000000000000000000073ffffffffffffffffffffffffffffffffffffffff168273ffffffffffffffffffffffffffffffffffffffff16149050919050565b600160009054906101000a900473ffffffffffffffffffffffffffffffffffffffff1681565b60006113ec8261180a565b90508560c00151816113fe9190613775565b905047811115611443576040517f08c379a000000000000000000000000000000000000000000000000000000000815260040161143a906139e9565b60405180910390fd5b8560a0015134101561148a576040517f08c379a000000000000000000000000000000000000000000000000000000000815260040161148190613a55565b60405180910390fd5b6000600160009054906101000a900473ffffffffffffffffffffffffffffffffffffffff1673ffffffffffffffffffffffffffffffffffffffff1663c4919e5f88888888336040518663ffffffff1660e01b81526004016114ef959493929190613daa565b6020604051808303816000875af115801561150e573d6000803e3d6000fd5b505050506040513d601f19601f820116820180604052508101906115329190613bc5565b905086600001516040516115469190613c2e565b6040518091039020813373ffffffffffffffffffffffffffffffffffffffff167fd3ad849e96e45902e7d1f5bd084268392ad649bd4509857dbfd40ceb536aef3860405160405180910390a450505050505050565b60607f000000000000000000000000000000000000000000000000000000000000000073ffffffffffffffffffffffffffffffffffffffff163373ffffffffffffffffffffffffffffffffffffffff161461162b576040517f08c379a000000000000000000000000000000000000000000000000000000000815260040161162290613622565b60405180910390fd5b60008054906101000a900473ffffffffffffffffffffffffffffffffffffffff1673ffffffffffffffffffffffffffffffffffffffff166364b72a65836040518263ffffffff1660e01b81526004016116849190612815565b600060405180830381865afa1580156116a1573d6000803e3d6000fd5b505050506040513d6000823e3d601f19601f820116820180604052508101906116ca919061392e565b9050919050565b60607f000000000000000000000000000000000000000000000000000000000000000073ffffffffffffffffffffffffffffffffffffffff163373ffffffffffffffffffffffffffffffffffffffff1614611761576040517f08c379a000000000000000000000000000000000000000000000000000000000815260040161175890613622565b60405180910390fd5b60008054906101000a900473ffffffffffffffffffffffffffffffffffffffff1673ffffffffffffffffffffffffffffffffffffffff1663c52eaa4084846040518363ffffffff1660e01b81526004016117bc9291906136e7565b600060405180830381865afa1580156117d9573d6000803e3d6000fd5b505050506040513d6000823e3d601f19601f82011682018060405250810190611802919061392e565b905092915050565b6000806000905060008060009054906101000a900473ffffffffffffffffffffffffffffffffffffffff1673ffffffffffffffffffffffffffffffffffffffff166364b72a65856040518263ffffffff1660e01b815260040161186d9190612815565b600060405180830381865afa15801561188a573d6000803e3d6000fd5b505050506040513d6000823e3d601f19601f820116820180604052508101906118b3919061392e565b90506000600160009054906101000a900473ffffffffffffffffffffffffffffffffffffffff1673ffffffffffffffffffffffffffffffffffffffff166364b72a65866040518263ffffffff1660e01b81526004016119129190612815565b600060405180830381865afa15801561192f573d6000803e3d6000fd5b505050506040513d6000823e3d601f19601f8201168201806040525081019061195891906131c9565b905060005b82518110156119f4576000600281111561197a57611979611cc9565b5b83828151811061198d5761198c613717565b5b602002602001015160e0015160028111156119ab576119aa611cc9565b5b036119e1578281815181106119c3576119c2613717565b5b60200260200101516020015160e00151846119de9190613775565b93505b80806119ec906137a9565b91505061195d565b5060005b8151811015611a905760006002811115611a1557611a14611cc9565b5b828281518110611a2857611a27613717565b5b602002602001015161010001516002811115611a4757611a46611cc9565b5b03611a7d57818181518110611a5f57611a5e613717565b5b60200260200101516020015160c0015184611a7a9190613775565b93505b8080611a88906137a9565b9150506119f8565b50829350505050919050565b600073ffffffffffffffffffffffffffffffffffffffff82169050919050565b6000819050919050565b6000611ae1611adc611ad784611a9c565b611abc565b611a9c565b9050919050565b6000611af382611ac6565b9050919050565b6000611b0582611ae8565b9050919050565b611b1581611afa565b82525050565b6000602082019050611b306000830184611b0c565b92915050565b6000604051905090565b600080fd5b600080fd5b6000611b5582611a9c565b9050919050565b611b6581611b4a565b8114611b7057600080fd5b50565b600081359050611b8281611b5c565b92915050565b6000819050919050565b611b9b81611b88565b8114611ba657600080fd5b50565b600081359050611bb881611b92565b92915050565b60008060408385031215611bd557611bd4611b40565b5b6000611be385828601611b73565b9250506020611bf485828601611ba9565b9150509250929050565b600081519050919050565b600082825260208201905092915050565b6000819050602082019050919050565b611c3381611b88565b82525050565b600081519050919050565b600082825260208201905092915050565b60005b83811015611c73578082015181840152602081019050611c58565b60008484015250505050565b6000601f19601f8301169050919050565b6000611c9b82611c39565b611ca58185611c44565b9350611cb5818560208601611c55565b611cbe81611c7f565b840191505092915050565b7f4e487b7100000000000000000000000000000000000000000000000000000000600052602160045260246000fd5b60028110611d0957611d08611cc9565b5b50565b6000819050611d1a82611cf8565b919050565b6000611d2a82611d0c565b9050919050565b611d3a81611d1f565b82525050565b6000610120830160008301518482036000860152611d5e8282611c90565b91505060208301518482036020860152611d788282611c90565b91505060408301518482036040860152611d928282611c90565b9150506060830151611da76060860182611c2a565b506080830151611dba6080860182611c2a565b5060a0830151611dcd60a0860182611c2a565b5060c0830151611de060c0860182611c2a565b5060e0830151611df360e0860182611c2a565b50610100830151611e08610100860182611d31565b508091505092915050565b611e1c81611b4a565b82525050565b60038110611e3357611e32611cc9565b5b50565b6000819050611e4482611e22565b919050565b6000611e5482611e36565b9050919050565b611e6481611e49565b82525050565b600061012083016000830151611e836000860182611c2a565b5060208301518482036020860152611e9b8282611d40565b91505060408301518482036040860152611eb58282611c90565b9150506060830151611eca6060860182611c2a565b5060808301518482036080860152611ee28282611c90565b91505060a0830151611ef760a0860182611c2a565b5060c0830151611f0a60c0860182611c2a565b5060e0830151611f1d60e0860182611e13565b50610100830151611f32610100860182611e5b565b508091505092915050565b6000611f498383611e6a565b905092915050565b6000602082019050919050565b6000611f6982611bfe565b611f738185611c09565b935083602082028501611f8585611c1a565b8060005b85811015611fc15784840389528151611fa28582611f3d565b9450611fad83611f51565b925060208a01995050600181019050611f89565b50829750879550505050505092915050565b60006020820190508181036000830152611fed8184611f5e565b905092915050565b60006020828403121561200b5761200a611b40565b5b600061201984828501611ba9565b91505092915050565b600080fd5b600080fd5b7f4e487b7100000000000000000000000000000000000000000000000000000000600052604160045260246000fd5b61206482611c7f565b810181811067ffffffffffffffff821117156120835761208261202c565b5b80604052505050565b6000612096611b36565b90506120a2828261205b565b919050565b600067ffffffffffffffff8211156120c2576120c161202c565b5b6120cb82611c7f565b9050602081019050919050565b82818337600083830152505050565b60006120fa6120f5846120a7565b61208c565b90508281526020810184848401111561211657612115612027565b5b6121218482856120d8565b509392505050565b600082601f83011261213e5761213d612022565b5b813561214e8482602086016120e7565b91505092915050565b6000806040838503121561216e5761216d611b40565b5b600083013567ffffffffffffffff81111561218c5761218b611b45565b5b61219885828601612129565b92505060206121a985828601611ba9565b9150509250929050565b600067ffffffffffffffff8211156121ce576121cd61202c565b5b602082029050602081019050919050565b600080fd5b600080fd5b600080fd5b600281106121fb57600080fd5b50565b60008135905061220d816121ee565b92915050565b6000610160828403121561222a576122296121e4565b5b61223561016061208c565b9050600082013567ffffffffffffffff811115612255576122546121e9565b5b61226184828501612129565b600083015250602082013567ffffffffffffffff811115612285576122846121e9565b5b61229184828501612129565b602083015250604082013567ffffffffffffffff8111156122b5576122b46121e9565b5b6122c184828501612129565b60408301525060606122d584828501611ba9565b60608301525060806122e984828501611ba9565b60808301525060a06122fd84828501611ba9565b60a08301525060c061231184828501611ba9565b60c08301525060e061232584828501611ba9565b60e08301525061010061233a84828501611ba9565b6101008301525061012061235084828501611ba9565b61012083015250610140612366848285016121fe565b6101408301525092915050565b6000612386612381846121b3565b61208c565b905080838252602082019050602084028301858111156123a9576123a86121df565b5b835b818110156123f057803567ffffffffffffffff8111156123ce576123cd612022565b5b8086016123db8982612213565b855260208501945050506020810190506123ab565b5050509392505050565b600082601f83011261240f5761240e612022565b5b813561241f848260208601612373565b91505092915050565b6000806040838503121561243f5761243e611b40565b5b600083013567ffffffffffffffff81111561245d5761245c611b45565b5b612469858286016123fa565b925050602061247a85828601611ba9565b9150509250929050565b600081519050919050565b600082825260208201905092915050565b6000819050602082019050919050565b60008115159050919050565b6124c5816124b0565b82525050565b60006124d783836124bc565b60208301905092915050565b6000602082019050919050565b60006124fb82612484565b612505818561248f565b9350612510836124a0565b8060005b8381101561254157815161252888826124cb565b9750612533836124e3565b925050600181019050612514565b5085935050505092915050565b6000602082019050818103600083015261256881846124f0565b905092915050565b600067ffffffffffffffff82111561258b5761258a61202c565b5b602082029050602081019050919050565b600281106125a957600080fd5b50565b6000813590506125bb8161259c565b92915050565b600061012082840312156125d8576125d76121e4565b5b6125e361012061208c565b9050600082013567ffffffffffffffff811115612603576126026121e9565b5b61260f84828501612129565b600083015250602082013567ffffffffffffffff811115612633576126326121e9565b5b61263f84828501612129565b602083015250604082013567ffffffffffffffff811115612663576126626121e9565b5b61266f84828501612129565b604083015250606061268384828501611ba9565b606083015250608061269784828501611ba9565b60808301525060a06126ab84828501611ba9565b60a08301525060c06126bf84828501611ba9565b60c08301525060e06126d384828501611ba9565b60e0830152506101006126e8848285016125ac565b6101008301525092915050565b600061270861270384612570565b61208c565b9050808382526020820190506020840283018581111561272b5761272a6121df565b5b835b8181101561277257803567ffffffffffffffff8111156127505761274f612022565b5b80860161275d89826125c1565b8552602085019450505060208101905061272d565b5050509392505050565b600082601f83011261279157612790612022565b5b81356127a18482602086016126f5565b91505092915050565b600080604083850312156127c1576127c0611b40565b5b600083013567ffffffffffffffff8111156127df576127de611b45565b5b6127eb8582860161277c565b92505060206127fc85828601611ba9565b9150509250929050565b61280f81611b88565b82525050565b600060208201905061282a6000830184612806565b92915050565b600081519050919050565b600082825260208201905092915050565b6000819050602082019050919050565b6002811061286d5761286c611cc9565b5b50565b600081905061287e8261285c565b919050565b600061288e82612870565b9050919050565b61289e81612883565b82525050565b60006101608301600083015184820360008601526128c28282611c90565b915050602083015184820360208601526128dc8282611c90565b915050604083015184820360408601526128f68282611c90565b915050606083015161290b6060860182611c2a565b50608083015161291e6080860182611c2a565b5060a083015161293160a0860182611c2a565b5060c083015161294460c0860182611c2a565b5060e083015161295760e0860182611c2a565b5061010083015161296c610100860182611c2a565b50610120830151612981610120860182611c2a565b50610140830151612996610140860182612895565b508091505092915050565b600381106129b2576129b1611cc9565b5b50565b60008190506129c3826129a1565b919050565b60006129d3826129b5565b9050919050565b6129e3816129c8565b82525050565b600061010083016000830151612a026000860182611c2a565b5060208301518482036020860152612a1a82826128a4565b91505060408301518482036040860152612a348282611c90565b9150506060830151612a496060860182611c2a565b506080830151612a5c6080860182611c2a565b5060a0830151612a6f60a0860182611c2a565b5060c0830151612a8260c0860182611e13565b5060e0830151612a9560e08601826129da565b508091505092915050565b6000612aac83836129e9565b905092915050565b6000602082019050919050565b6000612acc82612830565b612ad6818561283b565b935083602082028501612ae88561284c565b8060005b85811015612b245784840389528151612b058582612aa0565b9450612b1083612ab4565b925060208a01995050600181019050612aec565b50829750879550505050505092915050565b60006020820190508181036000830152612b508184612ac1565b905092915050565b612b6181611b4a565b82525050565b6000602082019050612b7c6000830184612b58565b92915050565b60008060008060808587031215612b9c57612b9b611b40565b5b600085013567ffffffffffffffff811115612bba57612bb9611b45565b5b612bc687828801612213565b945050602085013567ffffffffffffffff811115612be757612be6611b45565b5b612bf387828801612129565b9350506040612c0487828801611ba9565b9250506060612c1587828801611ba9565b91505092959194509250565b600060208284031215612c3757612c36611b40565b5b6000612c4584828501611b73565b91505092915050565b612c57816124b0565b82525050565b6000602082019050612c726000830184612c4e565b92915050565b6000612c8382611ae8565b9050919050565b612c9381612c78565b82525050565b6000602082019050612cae6000830184612c8a565b92915050565b600080600080600060a08688031215612cd057612ccf611b40565b5b600086013567ffffffffffffffff811115612cee57612ced611b45565b5b612cfa888289016125c1565b955050602086013567ffffffffffffffff811115612d1b57612d1a611b45565b5b612d2788828901612129565b9450506040612d3888828901611ba9565b935050606086013567ffffffffffffffff811115612d5957612d58611b45565b5b612d6588828901612129565b9250506080612d7688828901611ba9565b9150509295509295909350565b6000604082019050612d986000830185612b58565b612da56020830184612806565b9392505050565b600067ffffffffffffffff821115612dc757612dc661202c565b5b602082029050602081019050919050565b600081519050612de781611b92565b92915050565b6000612e00612dfb846120a7565b61208c565b905082815260208101848484011115612e1c57612e1b612027565b5b612e27848285611c55565b509392505050565b600082601f830112612e4457612e43612022565b5b8151612e54848260208601612ded565b91505092915050565b600081519050612e6c8161259c565b92915050565b60006101208284031215612e8957612e886121e4565b5b612e9461012061208c565b9050600082015167ffffffffffffffff811115612eb457612eb36121e9565b5b612ec084828501612e2f565b600083015250602082015167ffffffffffffffff811115612ee457612ee36121e9565b5b612ef084828501612e2f565b602083015250604082015167ffffffffffffffff811115612f1457612f136121e9565b5b612f2084828501612e2f565b6040830152506060612f3484828501612dd8565b6060830152506080612f4884828501612dd8565b60808301525060a0612f5c84828501612dd8565b60a08301525060c0612f7084828501612dd8565b60c08301525060e0612f8484828501612dd8565b60e083015250610100612f9984828501612e5d565b6101008301525092915050565b600081519050612fb581611b5c565b92915050565b60038110612fc857600080fd5b50565b600081519050612fda81612fbb565b92915050565b60006101208284031215612ff757612ff66121e4565b5b61300261012061208c565b9050600061301284828501612dd8565b600083015250602082015167ffffffffffffffff811115613036576130356121e9565b5b61304284828501612e72565b602083015250604082015167ffffffffffffffff811115613066576130656121e9565b5b61307284828501612e2f565b604083015250606061308684828501612dd8565b606083015250608082015167ffffffffffffffff8111156130aa576130a96121e9565b5b6130b684828501612e2f565b60808301525060a06130ca84828501612dd8565b60a08301525060c06130de84828501612dd8565b60c08301525060e06130f284828501612fa6565b60e08301525061010061310784828501612fcb565b6101008301525092915050565b600061312761312284612dac565b61208c565b9050808382526020820190506020840283018581111561314a576131496121df565b5b835b8181101561319157805167ffffffffffffffff81111561316f5761316e612022565b5b80860161317c8982612fe0565b8552602085019450505060208101905061314c565b5050509392505050565b600082601f8301126131b0576131af612022565b5b81516131c0848260208601613114565b91505092915050565b6000602082840312156131df576131de611b40565b5b600082015167ffffffffffffffff8111156131fd576131fc611b45565b5b6132098482850161319b565b91505092915050565b60006040820190506132276000830185612806565b6132346020830184612b58565b9392505050565b60008151905061324a816121ee565b92915050565b60006101608284031215613267576132666121e4565b5b61327261016061208c565b9050600082015167ffffffffffffffff811115613292576132916121e9565b5b61329e84828501612e2f565b600083015250602082015167ffffffffffffffff8111156132c2576132c16121e9565b5b6132ce84828501612e2f565b602083015250604082015167ffffffffffffffff8111156132f2576132f16121e9565b5b6132fe84828501612e2f565b604083015250606061331284828501612dd8565b606083015250608061332684828501612dd8565b60808301525060a061333a84828501612dd8565b60a08301525060c061334e84828501612dd8565b60c08301525060e061336284828501612dd8565b60e08301525061010061337784828501612dd8565b6101008301525061012061338d84828501612dd8565b610120830152506101406133a38482850161323b565b6101408301525092915050565b600381106133bd57600080fd5b50565b6000815190506133cf816133b0565b92915050565b600061010082840312156133ec576133eb6121e4565b5b6133f761010061208c565b9050600061340784828501612dd8565b600083015250602082015167ffffffffffffffff81111561342b5761342a6121e9565b5b61343784828501613250565b602083015250604082015167ffffffffffffffff81111561345b5761345a6121e9565b5b61346784828501612e2f565b604083015250606061347b84828501612dd8565b606083015250608061348f84828501612dd8565b60808301525060a06134a384828501612dd8565b60a08301525060c06134b784828501612fa6565b60c08301525060e06134cb848285016133c0565b60e08301525092915050565b600080604083850312156134ee576134ed611b40565b5b60006134fc85828601612dd8565b925050602083015167ffffffffffffffff81111561351d5761351c611b45565b5b613529858286016133d5565b9150509250929050565b600082825260208201905092915050565b7f496e73756666696369656e7420636f6e74726163742062616c616e6365000000600082015250565b600061357a601d83613533565b915061358582613544565b602082019050919050565b600060208201905081810360008301526135a98161356d565b9050919050565b7f496e73757265723a204f6e6c792074686520696e73757265722063616e20636160008201527f6c6c207468697300000000000000000000000000000000000000000000000000602082015250565b600061360c602783613533565b9150613617826135b0565b604082019050919050565b6000602082019050818103600083015261363b816135ff565b9050919050565b7f496e73756666696369656e742062616c616e6365000000000000000000000000600082015250565b6000613678601483613533565b915061368382613642565b602082019050919050565b600060208201905081810360008301526136a78161366b565b9050919050565b60006136b982611c39565b6136c38185613533565b93506136d3818560208601611c55565b6136dc81611c7f565b840191505092915050565b6000604082019050818103600083015261370181856136ae565b90506137106020830184612806565b9392505050565b7f4e487b7100000000000000000000000000000000000000000000000000000000600052603260045260246000fd5b7f4e487b7100000000000000000000000000000000000000000000000000000000600052601160045260246000fd5b600061378082611b88565b915061378b83611b88565b92508282019050808211156137a3576137a2613746565b5b92915050565b60006137b482611b88565b91507fffffffffffffffffffffffffffffffffffffffffffffffffffffffffffffffff82036137e6576137e5613746565b5b600182019050919050565b6000806040838503121561380857613807611b40565b5b600061381685828601612dd8565b925050602083015167ffffffffffffffff81111561383757613836611b45565b5b61384385828601612fe0565b9150509250929050565b600067ffffffffffffffff8211156138685761386761202c565b5b602082029050602081019050919050565b600061388c6138878461384d565b61208c565b905080838252602082019050602084028301858111156138af576138ae6121df565b5b835b818110156138f657805167ffffffffffffffff8111156138d4576138d3612022565b5b8086016138e189826133d5565b855260208501945050506020810190506138b1565b5050509392505050565b600082601f83011261391557613914612022565b5b8151613925848260208601613879565b91505092915050565b60006020828403121561394457613943611b40565b5b600082015167ffffffffffffffff81111561396257613961611b45565b5b61396e84828501613900565b91505092915050565b7f496e73756666696369656e7420636f6e74726163742062616c616e636520746f60008201527f20636f76657220706f74656e7469616c207061796f7574730000000000000000602082015250565b60006139d3603883613533565b91506139de82613977565b604082019050919050565b60006020820190508181036000830152613a02816139c6565b9050919050565b7f496e73756666696369656e74207072656d69756d2073656e7400000000000000600082015250565b6000613a3f601983613533565b9150613a4a82613a09565b602082019050919050565b60006020820190508181036000830152613a6e81613a32565b9050919050565b6000610160830160008301518482036000860152613a938282611c90565b91505060208301518482036020860152613aad8282611c90565b91505060408301518482036040860152613ac78282611c90565b9150506060830151613adc6060860182611c2a565b506080830151613aef6080860182611c2a565b5060a0830151613b0260a0860182611c2a565b5060c0830151613b1560c0860182611c2a565b5060e0830151613b2860e0860182611c2a565b50610100830151613b3d610100860182611c2a565b50610120830151613b52610120860182611c2a565b50610140830151613b67610140860182612895565b508091505092915050565b60006080820190508181036000830152613b8c8187613a75565b90508181036020830152613ba081866136ae565b9050613baf6040830185612806565b613bbc6060830184612b58565b95945050505050565b600060208284031215613bdb57613bda611b40565b5b6000613be984828501612dd8565b91505092915050565b600081905092915050565b6000613c0882611c39565b613c128185613bf2565b9350613c22818560208601611c55565b80840191505092915050565b6000613c3a8284613bfd565b915081905092915050565b7f496e73757265723a204d757374206465706f736974206120706f73697469766560008201527f20616d6f756e7400000000000000000000000000000000000000000000000000602082015250565b6000613ca1602783613533565b9150613cac82613c45565b604082019050919050565b60006020820190508181036000830152613cd081613c94565b9050919050565b6000610120830160008301518482036000860152613cf58282611c90565b91505060208301518482036020860152613d0f8282611c90565b91505060408301518482036040860152613d298282611c90565b9150506060830151613d3e6060860182611c2a565b506080830151613d516080860182611c2a565b5060a0830151613d6460a0860182611c2a565b5060c0830151613d7760c0860182611c2a565b5060e0830151613d8a60e0860182611c2a565b50610100830151613d9f610100860182611d31565b508091505092915050565b600060a0820190508181036000830152613dc48188613cd7565b90508181036020830152613dd881876136ae565b9050613de76040830186612806565b8181036060830152613df981856136ae565b9050613e086080830184612b58565b969550505050505056fea2646970667358221220ad8b94f5be780c3fb9ffbdbdb79f3d29040df6066464b87dee5eae4f2d6ec26464736f6c63430008130033",
  "linkReferences": {},
  "deployedLinkReferences": {}
}