{
  "_format": "hh-sol-artifact-1",
  "contractName": "Insurer",
  "sourceName": "contracts/Insurer.sol",
  "abi": [
    {
      "inputs": [
        {
          "internalType": "address",
          "name": "_flightPolicyAddress",
          "type": "address"
        },
        {
          "internalType": "address",
          "name": "_baggagePolicyAddress",
          "type": "address"
        }
      ],
      "stateMutability": "nonpayable",
      "type": "constructor"
    },
    {
      "anonymous": false,
      "inputs": [
        {
          "indexed": true,
          "internalType": "address",
          "name": "buyer",
          "type": "address"
        },
        {
          "indexed": true,
          "internalType": "uint256",
          "name": "policyId",
          "type": "uint256"
        }
      ],
      "name": "BaggagePolicyClaimed",
      "type": "event"
    },
    {
      "anonymous": false,
      "inputs": [
        {
          "indexed": true,
          "internalType": "address",
          "name": "buyer",
          "type": "address"
        },
        {
          "indexed": true,
          "internalType": "uint256",
          "name": "policyId",
          "type": "uint256"
        },
        {
          "indexed": true,
          "internalType": "string",
          "name": "templateId",
          "type": "string"
        }
      ],
      "name": "BaggagePolicyPurchased",
      "type": "event"
    },
    {
      "anonymous": false,
      "inputs": [
        {
          "indexed": true,
          "internalType": "address",
          "name": "buyer",
          "type": "address"
        },
        {
          "indexed": true,
          "internalType": "uint256",
          "name": "policyId",
          "type": "uint256"
        }
      ],
      "name": "FlightPolicyClaimed",
      "type": "event"
    },
    {
      "anonymous": false,
      "inputs": [
        {
          "indexed": true,
          "internalType": "address",
          "name": "buyer",
          "type": "address"
        },
        {
          "indexed": true,
          "internalType": "uint256",
          "name": "policyId",
          "type": "uint256"
        },
        {
          "indexed": true,
          "internalType": "string",
          "name": "templateId",
          "type": "string"
        }
      ],
      "name": "FlightPolicyPurchased",
      "type": "event"
    },
    {
      "anonymous": false,
      "inputs": [
        {
          "indexed": true,
          "internalType": "address",
          "name": "insurer",
          "type": "address"
        },
        {
          "indexed": false,
          "internalType": "uint256",
          "name": "amount",
          "type": "uint256"
        }
      ],
      "name": "FundsDeposited",
      "type": "event"
    },
    {
      "anonymous": false,
      "inputs": [
        {
          "indexed": true,
          "internalType": "address",
          "name": "insurer",
          "type": "address"
        },
        {
          "indexed": false,
          "internalType": "uint256",
          "name": "amount",
          "type": "uint256"
        }
      ],
      "name": "FundsWithdrawn",
      "type": "event"
    },
    {
      "inputs": [],
      "name": "baggagePolicy",
      "outputs": [
        {
          "internalType": "contract BaggagePolicy",
          "name": "",
          "type": "address"
        }
      ],
      "stateMutability": "view",
      "type": "function"
    },
    {
      "inputs": [
        {
          "internalType": "uint256",
          "name": "policyId",
          "type": "uint256"
        }
      ],
      "name": "claimFlightPayout",
      "outputs": [],
      "stateMutability": "nonpayable",
      "type": "function"
    },
    {
      "inputs": [],
      "name": "deposit",
      "outputs": [],
      "stateMutability": "payable",
      "type": "function"
    },
    {
      "inputs": [],
      "name": "flightPolicy",
      "outputs": [
        {
          "internalType": "contract FlightPolicy",
          "name": "",
          "type": "address"
        }
      ],
      "stateMutability": "view",
      "type": "function"
    },
    {
      "inputs": [
        {
          "internalType": "uint256",
          "name": "currentTime",
          "type": "uint256"
        }
      ],
      "name": "getAllBaggagePolicies",
      "outputs": [
        {
          "components": [
            {
              "internalType": "uint256",
              "name": "policyId",
              "type": "uint256"
            },
            {
              "components": [
                {
                  "internalType": "string",
                  "name": "templateId",
                  "type": "string"
                },
                {
                  "internalType": "string",
                  "name": "name",
                  "type": "string"
                },
                {
                  "internalType": "string",
                  "name": "description",
                  "type": "string"
                },
                {
                  "internalType": "uint256",
                  "name": "createdAt",
                  "type": "uint256"
                },
                {
                  "internalType": "uint256",
                  "name": "updatedAt",
                  "type": "uint256"
                },
                {
                  "internalType": "uint256",
                  "name": "premium",
                  "type": "uint256"
                },
                {
                  "internalType": "uint256",
                  "name": "payoutIfDelayed",
                  "type": "uint256"
                },
                {
                  "internalType": "uint256",
                  "name": "payoutIfLost",
                  "type": "uint256"
                },
                {
                  "internalType": "uint256",
                  "name": "maxTotalPayout",
                  "type": "uint256"
                },
                {
                  "internalType": "uint256",
                  "name": "coverageDurationSeconds",
                  "type": "uint256"
                },
                {
                  "internalType": "enum BaggagePolicy.PolicyTemplateStatus",
                  "name": "status",
                  "type": "uint8"
                }
              ],
              "internalType": "struct BaggagePolicy.PolicyTemplate",
              "name": "template",
              "type": "tuple"
            },
            {
              "internalType": "string",
              "name": "itemDescription",
              "type": "string"
            },
            {
              "internalType": "uint256",
              "name": "createdAt",
              "type": "uint256"
            },
            {
              "internalType": "uint256",
              "name": "payoutToDate",
              "type": "uint256"
            },
            {
              "internalType": "address",
              "name": "buyer",
              "type": "address"
            },
            {
              "internalType": "enum BaggagePolicy.PolicyStatus",
              "name": "status",
              "type": "uint8"
            }
          ],
          "internalType": "struct BaggagePolicy.UserPolicy[]",
          "name": "",
          "type": "tuple[]"
        }
      ],
      "stateMutability": "view",
      "type": "function"
    },
    {
      "inputs": [
        {
          "internalType": "uint256",
          "name": "currentTime",
          "type": "uint256"
        }
      ],
      "name": "getAllFlightPolicies",
      "outputs": [
        {
          "components": [
            {
              "internalType": "uint256",
              "name": "policyId",
              "type": "uint256"
            },
            {
              "components": [
                {
                  "internalType": "string",
                  "name": "templateId",
                  "type": "string"
                },
                {
                  "internalType": "string",
                  "name": "name",
                  "type": "string"
                },
                {
                  "internalType": "string",
                  "name": "description",
                  "type": "string"
                },
                {
                  "internalType": "uint256",
                  "name": "createdAt",
                  "type": "uint256"
                },
                {
                  "internalType": "uint256",
                  "name": "updatedAt",
                  "type": "uint256"
                },
                {
                  "internalType": "uint256",
                  "name": "premium",
                  "type": "uint256"
                },
                {
                  "internalType": "uint256",
                  "name": "payoutPerHour",
                  "type": "uint256"
                },
                {
                  "internalType": "uint256",
                  "name": "delayThresholdHours",
                  "type": "uint256"
                },
                {
                  "internalType": "uint256",
                  "name": "maxTotalPayout",
                  "type": "uint256"
                },
                {
                  "internalType": "uint256",
                  "name": "coverageDurationSeconds",
                  "type": "uint256"
                },
                {
                  "internalType": "enum FlightPolicy.PolicyTemplateStatus",
                  "name": "status",
                  "type": "uint8"
                }
              ],
              "internalType": "struct FlightPolicy.PolicyTemplate",
              "name": "template",
              "type": "tuple"
            },
            {
              "internalType": "string",
              "name": "flightNumber",
              "type": "string"
            },
            {
              "internalType": "string",
              "name": "departureAirportCode",
              "type": "string"
            },
            {
              "internalType": "string",
              "name": "arrivalAirportCode",
              "type": "string"
            },
            {
              "internalType": "uint256",
              "name": "departureTime",
              "type": "uint256"
            },
            {
              "internalType": "uint256",
              "name": "createdAt",
              "type": "uint256"
            },
            {
              "internalType": "uint256",
              "name": "payoutToDate",
              "type": "uint256"
            },
            {
              "internalType": "address",
              "name": "buyer",
              "type": "address"
            },
            {
              "internalType": "enum FlightPolicy.PolicyStatus",
              "name": "status",
              "type": "uint8"
            }
          ],
          "internalType": "struct FlightPolicy.UserPolicy[]",
          "name": "",
          "type": "tuple[]"
        }
      ],
      "stateMutability": "view",
      "type": "function"
    },
    {
      "inputs": [],
      "name": "getContractBalance",
      "outputs": [
        {
          "internalType": "uint256",
          "name": "",
          "type": "uint256"
        }
      ],
      "stateMutability": "view",
      "type": "function"
    },
    {
      "inputs": [
        {
          "internalType": "address",
          "name": "user",
          "type": "address"
        },
        {
          "internalType": "uint256",
          "name": "currentTime",
          "type": "uint256"
        }
      ],
      "name": "getUserBaggagePolicies",
      "outputs": [
        {
          "components": [
            {
              "internalType": "uint256",
              "name": "policyId",
              "type": "uint256"
            },
            {
              "components": [
                {
                  "internalType": "string",
                  "name": "templateId",
                  "type": "string"
                },
                {
                  "internalType": "string",
                  "name": "name",
                  "type": "string"
                },
                {
                  "internalType": "string",
                  "name": "description",
                  "type": "string"
                },
                {
                  "internalType": "uint256",
                  "name": "createdAt",
                  "type": "uint256"
                },
                {
                  "internalType": "uint256",
                  "name": "updatedAt",
                  "type": "uint256"
                },
                {
                  "internalType": "uint256",
                  "name": "premium",
                  "type": "uint256"
                },
                {
                  "internalType": "uint256",
                  "name": "payoutIfDelayed",
                  "type": "uint256"
                },
                {
                  "internalType": "uint256",
                  "name": "payoutIfLost",
                  "type": "uint256"
                },
                {
                  "internalType": "uint256",
                  "name": "maxTotalPayout",
                  "type": "uint256"
                },
                {
                  "internalType": "uint256",
                  "name": "coverageDurationSeconds",
                  "type": "uint256"
                },
                {
                  "internalType": "enum BaggagePolicy.PolicyTemplateStatus",
                  "name": "status",
                  "type": "uint8"
                }
              ],
              "internalType": "struct BaggagePolicy.PolicyTemplate",
              "name": "template",
              "type": "tuple"
            },
            {
              "internalType": "string",
              "name": "itemDescription",
              "type": "string"
            },
            {
              "internalType": "uint256",
              "name": "createdAt",
              "type": "uint256"
            },
            {
              "internalType": "uint256",
              "name": "payoutToDate",
              "type": "uint256"
            },
            {
              "internalType": "address",
              "name": "buyer",
              "type": "address"
            },
            {
              "internalType": "enum BaggagePolicy.PolicyStatus",
              "name": "status",
              "type": "uint8"
            }
          ],
          "internalType": "struct BaggagePolicy.UserPolicy[]",
          "name": "",
          "type": "tuple[]"
        }
      ],
      "stateMutability": "view",
      "type": "function"
    },
    {
      "inputs": [
        {
          "internalType": "string",
          "name": "templateId",
          "type": "string"
        },
        {
          "internalType": "uint256",
          "name": "currentTime",
          "type": "uint256"
        }
      ],
      "name": "getUserBaggagePoliciesByTemplate",
      "outputs": [
        {
          "components": [
            {
              "internalType": "uint256",
              "name": "policyId",
              "type": "uint256"
            },
            {
              "components": [
                {
                  "internalType": "string",
                  "name": "templateId",
                  "type": "string"
                },
                {
                  "internalType": "string",
                  "name": "name",
                  "type": "string"
                },
                {
                  "internalType": "string",
                  "name": "description",
                  "type": "string"
                },
                {
                  "internalType": "uint256",
                  "name": "createdAt",
                  "type": "uint256"
                },
                {
                  "internalType": "uint256",
                  "name": "updatedAt",
                  "type": "uint256"
                },
                {
                  "internalType": "uint256",
                  "name": "premium",
                  "type": "uint256"
                },
                {
                  "internalType": "uint256",
                  "name": "payoutIfDelayed",
                  "type": "uint256"
                },
                {
                  "internalType": "uint256",
                  "name": "payoutIfLost",
                  "type": "uint256"
                },
                {
                  "internalType": "uint256",
                  "name": "maxTotalPayout",
                  "type": "uint256"
                },
                {
                  "internalType": "uint256",
                  "name": "coverageDurationSeconds",
                  "type": "uint256"
                },
                {
                  "internalType": "enum BaggagePolicy.PolicyTemplateStatus",
                  "name": "status",
                  "type": "uint8"
                }
              ],
              "internalType": "struct BaggagePolicy.PolicyTemplate",
              "name": "template",
              "type": "tuple"
            },
            {
              "internalType": "string",
              "name": "itemDescription",
              "type": "string"
            },
            {
              "internalType": "uint256",
              "name": "createdAt",
              "type": "uint256"
            },
            {
              "internalType": "uint256",
              "name": "payoutToDate",
              "type": "uint256"
            },
            {
              "internalType": "address",
              "name": "buyer",
              "type": "address"
            },
            {
              "internalType": "enum BaggagePolicy.PolicyStatus",
              "name": "status",
              "type": "uint8"
            }
          ],
          "internalType": "struct BaggagePolicy.UserPolicy[]",
          "name": "",
          "type": "tuple[]"
        }
      ],
      "stateMutability": "view",
      "type": "function"
    },
    {
      "inputs": [
        {
          "internalType": "address",
          "name": "user",
          "type": "address"
        },
        {
          "internalType": "uint256",
          "name": "currentTime",
          "type": "uint256"
        }
      ],
      "name": "getUserFlightPolicies",
      "outputs": [
        {
          "components": [
            {
              "internalType": "uint256",
              "name": "policyId",
              "type": "uint256"
            },
            {
              "components": [
                {
                  "internalType": "string",
                  "name": "templateId",
                  "type": "string"
                },
                {
                  "internalType": "string",
                  "name": "name",
                  "type": "string"
                },
                {
                  "internalType": "string",
                  "name": "description",
                  "type": "string"
                },
                {
                  "internalType": "uint256",
                  "name": "createdAt",
                  "type": "uint256"
                },
                {
                  "internalType": "uint256",
                  "name": "updatedAt",
                  "type": "uint256"
                },
                {
                  "internalType": "uint256",
                  "name": "premium",
                  "type": "uint256"
                },
                {
                  "internalType": "uint256",
                  "name": "payoutPerHour",
                  "type": "uint256"
                },
                {
                  "internalType": "uint256",
                  "name": "delayThresholdHours",
                  "type": "uint256"
                },
                {
                  "internalType": "uint256",
                  "name": "maxTotalPayout",
                  "type": "uint256"
                },
                {
                  "internalType": "uint256",
                  "name": "coverageDurationSeconds",
                  "type": "uint256"
                },
                {
                  "internalType": "enum FlightPolicy.PolicyTemplateStatus",
                  "name": "status",
                  "type": "uint8"
                }
              ],
              "internalType": "struct FlightPolicy.PolicyTemplate",
              "name": "template",
              "type": "tuple"
            },
            {
              "internalType": "string",
              "name": "flightNumber",
              "type": "string"
            },
            {
              "internalType": "string",
              "name": "departureAirportCode",
              "type": "string"
            },
            {
              "internalType": "string",
              "name": "arrivalAirportCode",
              "type": "string"
            },
            {
              "internalType": "uint256",
              "name": "departureTime",
              "type": "uint256"
            },
            {
              "internalType": "uint256",
              "name": "createdAt",
              "type": "uint256"
            },
            {
              "internalType": "uint256",
              "name": "payoutToDate",
              "type": "uint256"
            },
            {
              "internalType": "address",
              "name": "buyer",
              "type": "address"
            },
            {
              "internalType": "enum FlightPolicy.PolicyStatus",
              "name": "status",
              "type": "uint8"
            }
          ],
          "internalType": "struct FlightPolicy.UserPolicy[]",
          "name": "",
          "type": "tuple[]"
        }
      ],
      "stateMutability": "view",
      "type": "function"
    },
    {
      "inputs": [
        {
          "internalType": "string",
          "name": "templateId",
          "type": "string"
        },
        {
          "internalType": "uint256",
          "name": "currentTime",
          "type": "uint256"
        }
      ],
      "name": "getUserFlightPoliciesByTemplate",
      "outputs": [
        {
          "components": [
            {
              "internalType": "uint256",
              "name": "policyId",
              "type": "uint256"
            },
            {
              "components": [
                {
                  "internalType": "string",
                  "name": "templateId",
                  "type": "string"
                },
                {
                  "internalType": "string",
                  "name": "name",
                  "type": "string"
                },
                {
                  "internalType": "string",
                  "name": "description",
                  "type": "string"
                },
                {
                  "internalType": "uint256",
                  "name": "createdAt",
                  "type": "uint256"
                },
                {
                  "internalType": "uint256",
                  "name": "updatedAt",
                  "type": "uint256"
                },
                {
                  "internalType": "uint256",
                  "name": "premium",
                  "type": "uint256"
                },
                {
                  "internalType": "uint256",
                  "name": "payoutPerHour",
                  "type": "uint256"
                },
                {
                  "internalType": "uint256",
                  "name": "delayThresholdHours",
                  "type": "uint256"
                },
                {
                  "internalType": "uint256",
                  "name": "maxTotalPayout",
                  "type": "uint256"
                },
                {
                  "internalType": "uint256",
                  "name": "coverageDurationSeconds",
                  "type": "uint256"
                },
                {
                  "internalType": "enum FlightPolicy.PolicyTemplateStatus",
                  "name": "status",
                  "type": "uint8"
                }
              ],
              "internalType": "struct FlightPolicy.PolicyTemplate",
              "name": "template",
              "type": "tuple"
            },
            {
              "internalType": "string",
              "name": "flightNumber",
              "type": "string"
            },
            {
              "internalType": "string",
              "name": "departureAirportCode",
              "type": "string"
            },
            {
              "internalType": "string",
              "name": "arrivalAirportCode",
              "type": "string"
            },
            {
              "internalType": "uint256",
              "name": "departureTime",
              "type": "uint256"
            },
            {
              "internalType": "uint256",
              "name": "createdAt",
              "type": "uint256"
            },
            {
              "internalType": "uint256",
              "name": "payoutToDate",
              "type": "uint256"
            },
            {
              "internalType": "address",
              "name": "buyer",
              "type": "address"
            },
            {
              "internalType": "enum FlightPolicy.PolicyStatus",
              "name": "status",
              "type": "uint8"
            }
          ],
          "internalType": "struct FlightPolicy.UserPolicy[]",
          "name": "",
          "type": "tuple[]"
        }
      ],
      "stateMutability": "view",
      "type": "function"
    },
    {
      "inputs": [],
      "name": "insurerAddress",
      "outputs": [
        {
          "internalType": "address",
          "name": "",
          "type": "address"
        }
      ],
      "stateMutability": "view",
      "type": "function"
    },
    {
      "inputs": [
        {
          "components": [
            {
              "internalType": "string",
              "name": "templateId",
              "type": "string"
            },
            {
              "internalType": "string",
              "name": "name",
              "type": "string"
            },
            {
              "internalType": "string",
              "name": "description",
              "type": "string"
            },
            {
              "internalType": "uint256",
              "name": "createdAt",
              "type": "uint256"
            },
            {
              "internalType": "uint256",
              "name": "updatedAt",
              "type": "uint256"
            },
            {
              "internalType": "uint256",
              "name": "premium",
              "type": "uint256"
            },
            {
              "internalType": "uint256",
              "name": "payoutIfDelayed",
              "type": "uint256"
            },
            {
              "internalType": "uint256",
              "name": "payoutIfLost",
              "type": "uint256"
            },
            {
              "internalType": "uint256",
              "name": "maxTotalPayout",
              "type": "uint256"
            },
            {
              "internalType": "uint256",
              "name": "coverageDurationSeconds",
              "type": "uint256"
            },
            {
              "internalType": "enum BaggagePolicy.PolicyTemplateStatus",
              "name": "status",
              "type": "uint8"
            }
          ],
          "internalType": "struct BaggagePolicy.PolicyTemplate[]",
          "name": "templates",
          "type": "tuple[]"
        },
        {
          "internalType": "uint256",
          "name": "currentTime",
          "type": "uint256"
        }
      ],
      "name": "isBaggagePolicyAllowedForPurchase",
      "outputs": [
        {
          "internalType": "bool[]",
          "name": "",
          "type": "bool[]"
        }
      ],
      "stateMutability": "view",
      "type": "function"
    },
    {
      "inputs": [
        {
          "components": [
            {
              "internalType": "string",
              "name": "templateId",
              "type": "string"
            },
            {
              "internalType": "string",
              "name": "name",
              "type": "string"
            },
            {
              "internalType": "string",
              "name": "description",
              "type": "string"
            },
            {
              "internalType": "uint256",
              "name": "createdAt",
              "type": "uint256"
            },
            {
              "internalType": "uint256",
              "name": "updatedAt",
              "type": "uint256"
            },
            {
              "internalType": "uint256",
              "name": "premium",
              "type": "uint256"
            },
            {
              "internalType": "uint256",
              "name": "payoutPerHour",
              "type": "uint256"
            },
            {
              "internalType": "uint256",
              "name": "delayThresholdHours",
              "type": "uint256"
            },
            {
              "internalType": "uint256",
              "name": "maxTotalPayout",
              "type": "uint256"
            },
            {
              "internalType": "uint256",
              "name": "coverageDurationSeconds",
              "type": "uint256"
            },
            {
              "internalType": "enum FlightPolicy.PolicyTemplateStatus",
              "name": "status",
              "type": "uint8"
            }
          ],
          "internalType": "struct FlightPolicy.PolicyTemplate[]",
          "name": "templates",
          "type": "tuple[]"
        },
        {
          "internalType": "uint256",
          "name": "currentTime",
          "type": "uint256"
        }
      ],
      "name": "isFlightPolicyAllowedForPurchase",
      "outputs": [
        {
          "internalType": "bool[]",
          "name": "",
          "type": "bool[]"
        }
      ],
      "stateMutability": "view",
      "type": "function"
    },
    {
      "inputs": [
        {
          "internalType": "address",
          "name": "user",
          "type": "address"
        }
      ],
      "name": "isInsurer",
      "outputs": [
        {
          "internalType": "bool",
          "name": "",
          "type": "bool"
        }
      ],
      "stateMutability": "view",
      "type": "function"
    },
    {
      "inputs": [
        {
          "internalType": "uint256",
          "name": "policyId",
          "type": "uint256"
        }
      ],
      "name": "markBaggagePolicyAsExpired",
      "outputs": [],
      "stateMutability": "nonpayable",
      "type": "function"
    },
    {
      "inputs": [
        {
          "internalType": "uint256",
          "name": "policyId",
          "type": "uint256"
        }
      ],
      "name": "markFlightPolicyAsExpired",
      "outputs": [],
      "stateMutability": "nonpayable",
      "type": "function"
    },
    {
      "inputs": [
        {
          "components": [
            {
              "internalType": "string",
              "name": "templateId",
              "type": "string"
            },
            {
              "internalType": "string",
              "name": "name",
              "type": "string"
            },
            {
              "internalType": "string",
              "name": "description",
              "type": "string"
            },
            {
              "internalType": "uint256",
              "name": "createdAt",
              "type": "uint256"
            },
            {
              "internalType": "uint256",
              "name": "updatedAt",
              "type": "uint256"
            },
            {
              "internalType": "uint256",
              "name": "premium",
              "type": "uint256"
            },
            {
              "internalType": "uint256",
              "name": "payoutIfDelayed",
              "type": "uint256"
            },
            {
              "internalType": "uint256",
              "name": "payoutIfLost",
              "type": "uint256"
            },
            {
              "internalType": "uint256",
              "name": "maxTotalPayout",
              "type": "uint256"
            },
            {
              "internalType": "uint256",
              "name": "coverageDurationSeconds",
              "type": "uint256"
            },
            {
              "internalType": "enum BaggagePolicy.PolicyTemplateStatus",
              "name": "status",
              "type": "uint8"
            }
          ],
          "internalType": "struct BaggagePolicy.PolicyTemplate",
          "name": "template",
          "type": "tuple"
        },
        {
          "internalType": "string",
          "name": "itemDescription",
          "type": "string"
        },
        {
          "internalType": "uint256",
          "name": "currentTime",
          "type": "uint256"
        }
      ],
      "name": "purchaseBaggagePolicy",
      "outputs": [],
      "stateMutability": "payable",
      "type": "function"
    },
    {
      "inputs": [
        {
          "components": [
            {
              "internalType": "string",
              "name": "templateId",
              "type": "string"
            },
            {
              "internalType": "string",
              "name": "name",
              "type": "string"
            },
            {
              "internalType": "string",
              "name": "description",
              "type": "string"
            },
            {
              "internalType": "uint256",
              "name": "createdAt",
              "type": "uint256"
            },
            {
              "internalType": "uint256",
              "name": "updatedAt",
              "type": "uint256"
            },
            {
              "internalType": "uint256",
              "name": "premium",
              "type": "uint256"
            },
            {
              "internalType": "uint256",
              "name": "payoutPerHour",
              "type": "uint256"
            },
            {
              "internalType": "uint256",
              "name": "delayThresholdHours",
              "type": "uint256"
            },
            {
              "internalType": "uint256",
              "name": "maxTotalPayout",
              "type": "uint256"
            },
            {
              "internalType": "uint256",
              "name": "coverageDurationSeconds",
              "type": "uint256"
            },
            {
              "internalType": "enum FlightPolicy.PolicyTemplateStatus",
              "name": "status",
              "type": "uint8"
            }
          ],
          "internalType": "struct FlightPolicy.PolicyTemplate",
          "name": "template",
          "type": "tuple"
        },
        {
          "internalType": "string",
          "name": "flightNumber",
          "type": "string"
        },
        {
          "internalType": "string",
          "name": "departureAirportCode",
          "type": "string"
        },
        {
          "internalType": "string",
          "name": "arrivalAirportCode",
          "type": "string"
        },
        {
          "internalType": "uint256",
          "name": "departureTime",
          "type": "uint256"
        },
        {
          "internalType": "uint256",
          "name": "currentTime",
          "type": "uint256"
        }
      ],
      "name": "purchaseFlightPolicy",
      "outputs": [],
      "stateMutability": "payable",
      "type": "function"
    },
    {
      "inputs": [
        {
          "internalType": "uint256",
          "name": "amountInWei",
          "type": "uint256"
        }
      ],
      "name": "withdraw",
      "outputs": [],
      "stateMutability": "nonpayable",
      "type": "function"
    },
    {
      "stateMutability": "payable",
      "type": "receive"
    }
  ],
  "bytecode": "0x60a06040523480156200001157600080fd5b5060405162003de638038062003de683398181016040528101906200003791906200015e565b3373ffffffffffffffffffffffffffffffffffffffff1660808173ffffffffffffffffffffffffffffffffffffffff1681525050816000806101000a81548173ffffffffffffffffffffffffffffffffffffffff021916908373ffffffffffffffffffffffffffffffffffffffff16021790555080600160006101000a81548173ffffffffffffffffffffffffffffffffffffffff021916908373ffffffffffffffffffffffffffffffffffffffff1602179055505050620001a5565b600080fd5b600073ffffffffffffffffffffffffffffffffffffffff82169050919050565b60006200012682620000f9565b9050919050565b620001388162000119565b81146200014457600080fd5b50565b60008151905062000158816200012d565b92915050565b60008060408385031215620001785762000177620000f4565b5b6000620001888582860162000147565b92505060206200019b8582860162000147565b9150509250929050565b608051613bd86200020e6000396000818161068d0152818161075e015281816107c5015281816108e301528181610a0101528181610b1f01528181610d8501528181610f220152818161117f01528181611250015281816112c201526113400152613bd86000f3fe6080604052600436106101235760003560e01c8063a7c0900e116100a0578063da7897e211610064578063da7897e2146103e8578063f368bc2714610425578063fca1ecdb14610450578063fdae7ad11461048d578063fe532a37146104ca5761012a565b8063a7c0900e1461031d578063ae6feff414610348578063c1ec399214610364578063ca155a1b146103a1578063d0e30db0146103de5761012a565b8063516f92f7116100e7578063516f92f7146102265780636906496e1461024f5780636f9fb98a14610278578063757ae1ba146102a35780637d9d7b9a146102e05761012a565b8063071165101461012f5780632377cd1e1461015a578063260d47c5146101975780632e1a7d4d146101c05780633f60875d146101e95761012a565b3661012a57005b600080fd5b34801561013b57600080fd5b506101446104e6565b6040516101519190611908565b60405180910390f35b34801561016657600080fd5b50610181600480360381019061017c91906119ab565b61050a565b60405161018e9190611dba565b60405180910390f35b3480156101a357600080fd5b506101be60048036038101906101b99190611ddc565b6105b7565b005b3480156101cc57600080fd5b506101e760048036038101906101e29190611ddc565b61068b565b005b3480156101f557600080fd5b50610210600480360381019061020b9190611f3e565b610834565b60405161021d9190611dba565b60405180910390f35b34801561023257600080fd5b5061024d60048036038101906102489190611ddc565b6108e1565b005b34801561025b57600080fd5b5061027660048036038101906102719190611ddc565b6109ff565b005b34801561028457600080fd5b5061028d610b1b565b60405161029a9190611fa9565b60405180910390f35b3480156102af57600080fd5b506102ca60048036038101906102c591906119ab565b610bb1565b6040516102d79190612302565b60405180910390f35b3480156102ec57600080fd5b5061030760048036038101906103029190612599565b610c5c565b60405161031491906126bf565b60405180910390f35b34801561032957600080fd5b50610332610d83565b60405161033f91906126f0565b60405180910390f35b610362600480360381019061035d919061270b565b610da7565b005b34801561037057600080fd5b5061038b60048036038101906103869190611ddc565b610f1e565b6040516103989190611dba565b60405180910390f35b3480156103ad57600080fd5b506103c860048036038101906103c39190612a6e565b611056565b6040516103d591906126bf565b60405180910390f35b6103e661117d565b005b3480156103f457600080fd5b5061040f600480360381019061040a9190612aca565b6112be565b60405161041c9190612b06565b60405180910390f35b34801561043157600080fd5b5061043a611316565b6040516104479190612b42565b60405180910390f35b34801561045c57600080fd5b5061047760048036038101906104729190611ddc565b61133c565b6040516104849190612302565b60405180910390f35b34801561049957600080fd5b506104b460048036038101906104af9190611f3e565b611472565b6040516104c19190612302565b60405180910390f35b6104e460048036038101906104df9190612b5d565b61151d565b005b60008054906101000a900473ffffffffffffffffffffffffffffffffffffffff1681565b6060600160009054906101000a900473ffffffffffffffffffffffffffffffffffffffff1673ffffffffffffffffffffffffffffffffffffffff1663642bb92584846040518363ffffffff1660e01b8152600401610569929190612be8565b600060405180830381865afa158015610586573d6000803e3d6000fd5b505050506040513d6000823e3d601f19601f820116820180604052508101906105af9190613012565b905092915050565b60008054906101000a900473ffffffffffffffffffffffffffffffffffffffff1673ffffffffffffffffffffffffffffffffffffffff1663b0110cc682336040518363ffffffff1660e01b815260040161061292919061305b565b600060405180830381600087803b15801561062c57600080fd5b505af1158015610640573d6000803e3d6000fd5b50505050803373ffffffffffffffffffffffffffffffffffffffff167fd97fa6902eb91d71aea44cc906baaea3f41dab00c2f987da7f9d97b28172d40660405160405180910390a350565b7f000000000000000000000000000000000000000000000000000000000000000073ffffffffffffffffffffffffffffffffffffffff163373ffffffffffffffffffffffffffffffffffffffff1614610719576040517f08c379a000000000000000000000000000000000000000000000000000000000815260040161071090613107565b60405180910390fd5b8047101561075c576040517f08c379a000000000000000000000000000000000000000000000000000000000815260040161075390613173565b60405180910390fd5b7f000000000000000000000000000000000000000000000000000000000000000073ffffffffffffffffffffffffffffffffffffffff166108fc829081150290604051600060405180830381858888f193505050501580156107c2573d6000803e3d6000fd5b507f000000000000000000000000000000000000000000000000000000000000000073ffffffffffffffffffffffffffffffffffffffff167feaff4b37086828766ad3268786972c0cd24259d4c87a80f9d3963a3c3d999b0d826040516108299190611fa9565b60405180910390a250565b6060600160009054906101000a900473ffffffffffffffffffffffffffffffffffffffff1673ffffffffffffffffffffffffffffffffffffffff1663c52eaa4084846040518363ffffffff1660e01b81526004016108939291906131cc565b600060405180830381865afa1580156108b0573d6000803e3d6000fd5b505050506040513d6000823e3d601f19601f820116820180604052508101906108d99190613012565b905092915050565b7f000000000000000000000000000000000000000000000000000000000000000073ffffffffffffffffffffffffffffffffffffffff163373ffffffffffffffffffffffffffffffffffffffff161461096f576040517f08c379a000000000000000000000000000000000000000000000000000000000815260040161096690613107565b60405180910390fd5b600160009054906101000a900473ffffffffffffffffffffffffffffffffffffffff1673ffffffffffffffffffffffffffffffffffffffff1663cf39c624826040518263ffffffff1660e01b81526004016109ca9190611fa9565b600060405180830381600087803b1580156109e457600080fd5b505af11580156109f8573d6000803e3d6000fd5b5050505050565b7f000000000000000000000000000000000000000000000000000000000000000073ffffffffffffffffffffffffffffffffffffffff163373ffffffffffffffffffffffffffffffffffffffff1614610a8d576040517f08c379a0000000000000000000000000000000000000000000000000000000008152600401610a8490613107565b60405180910390fd5b60008054906101000a900473ffffffffffffffffffffffffffffffffffffffff1673ffffffffffffffffffffffffffffffffffffffff1663cf39c624826040518263ffffffff1660e01b8152600401610ae69190611fa9565b600060405180830381600087803b158015610b0057600080fd5b505af1158015610b14573d6000803e3d6000fd5b5050505050565b60007f000000000000000000000000000000000000000000000000000000000000000073ffffffffffffffffffffffffffffffffffffffff163373ffffffffffffffffffffffffffffffffffffffff1614610bab576040517f08c379a0000000000000000000000000000000000000000000000000000000008152600401610ba290613107565b60405180910390fd5b47905090565b606060008054906101000a900473ffffffffffffffffffffffffffffffffffffffff1673ffffffffffffffffffffffffffffffffffffffff1663642bb92584846040518363ffffffff1660e01b8152600401610c0e929190612be8565b600060405180830381865afa158015610c2b573d6000803e3d6000fd5b505050506040513d6000823e3d601f19601f82011682018060405250810190610c5491906135dd565b905092915050565b60606000835167ffffffffffffffff811115610c7b57610c7a611e13565b5b604051908082528060200260200182016040528015610ca95781602001602082028036833780820191505090505b5090506000610cb78461168c565b905060005b8551811015610d77576000868281518110610cda57610cd9613626565b5b6020026020010151610100015183610cf29190613684565b905047670de0b6b3a764000082610d0991906136b8565b1115610d3b576000848381518110610d2457610d23613626565b5b602002602001019015159081151581525050610d63565b6001848381518110610d5057610d4f613626565b5b6020026020010190151590811515815250505b508080610d6f906136fa565b915050610cbc565b50819250505092915050565b7f000000000000000000000000000000000000000000000000000000000000000081565b6000610db28261168c565b905086610100015181610dc59190613684565b905047811115610e0a576040517f08c379a0000000000000000000000000000000000000000000000000000000008152600401610e01906137b4565b60405180910390fd5b60008060009054906101000a900473ffffffffffffffffffffffffffffffffffffffff1673ffffffffffffffffffffffffffffffffffffffff166331953ecc348a8a8a8a8a336040518863ffffffff1660e01b8152600401610e71969594939291906138d1565b60206040518083038185885af1158015610e8f573d6000803e3d6000fd5b50505050506040513d601f19601f82011682018060405250810190610eb4919061394e565b90508760000151604051610ec891906139b7565b6040518091039020813373ffffffffffffffffffffffffffffffffffffffff167f43617ea01c45d3386d7be4a6cb66bf94c0152a674cbd34a5de81ed135dfd7b1760405160405180910390a45050505050505050565b60607f000000000000000000000000000000000000000000000000000000000000000073ffffffffffffffffffffffffffffffffffffffff163373ffffffffffffffffffffffffffffffffffffffff1614610fae576040517f08c379a0000000000000000000000000000000000000000000000000000000008152600401610fa590613107565b60405180910390fd5b600160009054906101000a900473ffffffffffffffffffffffffffffffffffffffff1673ffffffffffffffffffffffffffffffffffffffff166364b72a65836040518263ffffffff1660e01b81526004016110099190611fa9565b600060405180830381865afa158015611026573d6000803e3d6000fd5b505050506040513d6000823e3d601f19601f8201168201806040525081019061104f9190613012565b9050919050565b60606000835167ffffffffffffffff81111561107557611074611e13565b5b6040519080825280602002602001820160405280156110a35781602001602082028036833780820191505090505b50905060006110b18461168c565b905060005b85518110156111715760008682815181106110d4576110d3613626565b5b60200260200101516101000151836110ec9190613684565b905047670de0b6b3a76400008261110391906136b8565b111561113557600084838151811061111e5761111d613626565b5b60200260200101901515908115158152505061115d565b600184838151811061114a57611149613626565b5b6020026020010190151590811515815250505b508080611169906136fa565b9150506110b6565b50819250505092915050565b7f000000000000000000000000000000000000000000000000000000000000000073ffffffffffffffffffffffffffffffffffffffff163373ffffffffffffffffffffffffffffffffffffffff161461120b576040517f08c379a000000000000000000000000000000000000000000000000000000000815260040161120290613107565b60405180910390fd5b6000341161124e576040517f08c379a000000000000000000000000000000000000000000000000000000000815260040161124590613a40565b60405180910390fd5b7f000000000000000000000000000000000000000000000000000000000000000073ffffffffffffffffffffffffffffffffffffffff167f543ba50a5eec5e6178218e364b1d0f396157b3c8fa278522c2cb7fd99407d474346040516112b49190611fa9565b60405180910390a2565b60007f000000000000000000000000000000000000000000000000000000000000000073ffffffffffffffffffffffffffffffffffffffff168273ffffffffffffffffffffffffffffffffffffffff16149050919050565b600160009054906101000a900473ffffffffffffffffffffffffffffffffffffffff1681565b60607f000000000000000000000000000000000000000000000000000000000000000073ffffffffffffffffffffffffffffffffffffffff163373ffffffffffffffffffffffffffffffffffffffff16146113cc576040517f08c379a00000000000000000000000000000000000000000000000000000000081526004016113c390613107565b60405180910390fd5b60008054906101000a900473ffffffffffffffffffffffffffffffffffffffff1673ffffffffffffffffffffffffffffffffffffffff166364b72a65836040518263ffffffff1660e01b81526004016114259190611fa9565b600060405180830381865afa158015611442573d6000803e3d6000fd5b505050506040513d6000823e3d601f19601f8201168201806040525081019061146b91906135dd565b9050919050565b606060008054906101000a900473ffffffffffffffffffffffffffffffffffffffff1673ffffffffffffffffffffffffffffffffffffffff1663c52eaa4084846040518363ffffffff1660e01b81526004016114cf9291906131cc565b600060405180830381865afa1580156114ec573d6000803e3d6000fd5b505050506040513d6000823e3d601f19601f8201168201806040525081019061151591906135dd565b905092915050565b60006115288261168c565b90508361010001518161153b9190613684565b905047811115611580576040517f08c379a0000000000000000000000000000000000000000000000000000000008152600401611577906137b4565b60405180910390fd5b6000600160009054906101000a900473ffffffffffffffffffffffffffffffffffffffff1673ffffffffffffffffffffffffffffffffffffffff1663e0516149348787336040518563ffffffff1660e01b81526004016115e293929190613b5d565b60206040518083038185885af1158015611600573d6000803e3d6000fd5b50505050506040513d601f19601f82011682018060405250810190611625919061394e565b9050846000015160405161163991906139b7565b6040518091039020813373ffffffffffffffffffffffffffffffffffffffff167fd3ad849e96e45902e7d1f5bd084268392ad649bd4509857dbfd40ceb536aef3860405160405180910390a45050505050565b6000806000905060008060009054906101000a900473ffffffffffffffffffffffffffffffffffffffff1673ffffffffffffffffffffffffffffffffffffffff166364b72a65856040518263ffffffff1660e01b81526004016116ef9190611fa9565b600060405180830381865afa15801561170c573d6000803e3d6000fd5b505050506040513d6000823e3d601f19601f8201168201806040525081019061173591906135dd565b90506000600160009054906101000a900473ffffffffffffffffffffffffffffffffffffffff1673ffffffffffffffffffffffffffffffffffffffff166364b72a65866040518263ffffffff1660e01b81526004016117949190611fa9565b600060405180830381865afa1580156117b1573d6000803e3d6000fd5b505050506040513d6000823e3d601f19601f820116820180604052508101906117da9190613012565b905060005b825181101561182c578281815181106117fb576117fa613626565b5b6020026020010151602001516101000151846118179190613684565b93508080611824906136fa565b9150506117df565b5060005b815181101561187d5781818151811061184c5761184b613626565b5b6020026020010151602001516101000151846118689190613684565b93508080611875906136fa565b915050611830565b50829350505050919050565b600073ffffffffffffffffffffffffffffffffffffffff82169050919050565b6000819050919050565b60006118ce6118c96118c484611889565b6118a9565b611889565b9050919050565b60006118e0826118b3565b9050919050565b60006118f2826118d5565b9050919050565b611902816118e7565b82525050565b600060208201905061191d60008301846118f9565b92915050565b6000604051905090565b600080fd5b600080fd5b600061194282611889565b9050919050565b61195281611937565b811461195d57600080fd5b50565b60008135905061196f81611949565b92915050565b6000819050919050565b61198881611975565b811461199357600080fd5b50565b6000813590506119a58161197f565b92915050565b600080604083850312156119c2576119c161192d565b5b60006119d085828601611960565b92505060206119e185828601611996565b9150509250929050565b600081519050919050565b600082825260208201905092915050565b6000819050602082019050919050565b611a2081611975565b82525050565b600081519050919050565b600082825260208201905092915050565b60005b83811015611a60578082015181840152602081019050611a45565b60008484015250505050565b6000601f19601f8301169050919050565b6000611a8882611a26565b611a928185611a31565b9350611aa2818560208601611a42565b611aab81611a6c565b840191505092915050565b7f4e487b7100000000000000000000000000000000000000000000000000000000600052602160045260246000fd5b60028110611af657611af5611ab6565b5b50565b6000819050611b0782611ae5565b919050565b6000611b1782611af9565b9050919050565b611b2781611b0c565b82525050565b6000610160830160008301518482036000860152611b4b8282611a7d565b91505060208301518482036020860152611b658282611a7d565b91505060408301518482036040860152611b7f8282611a7d565b9150506060830151611b946060860182611a17565b506080830151611ba76080860182611a17565b5060a0830151611bba60a0860182611a17565b5060c0830151611bcd60c0860182611a17565b5060e0830151611be060e0860182611a17565b50610100830151611bf5610100860182611a17565b50610120830151611c0a610120860182611a17565b50610140830151611c1f610140860182611b1e565b508091505092915050565b611c3381611937565b82525050565b60038110611c4a57611c49611ab6565b5b50565b6000819050611c5b82611c39565b919050565b6000611c6b82611c4d565b9050919050565b611c7b81611c60565b82525050565b600060e083016000830151611c996000860182611a17565b5060208301518482036020860152611cb18282611b2d565b91505060408301518482036040860152611ccb8282611a7d565b9150506060830151611ce06060860182611a17565b506080830151611cf36080860182611a17565b5060a0830151611d0660a0860182611c2a565b5060c0830151611d1960c0860182611c72565b508091505092915050565b6000611d308383611c81565b905092915050565b6000602082019050919050565b6000611d50826119eb565b611d5a81856119f6565b935083602082028501611d6c85611a07565b8060005b85811015611da85784840389528151611d898582611d24565b9450611d9483611d38565b925060208a01995050600181019050611d70565b50829750879550505050505092915050565b60006020820190508181036000830152611dd48184611d45565b905092915050565b600060208284031215611df257611df161192d565b5b6000611e0084828501611996565b91505092915050565b600080fd5b600080fd5b7f4e487b7100000000000000000000000000000000000000000000000000000000600052604160045260246000fd5b611e4b82611a6c565b810181811067ffffffffffffffff82111715611e6a57611e69611e13565b5b80604052505050565b6000611e7d611923565b9050611e898282611e42565b919050565b600067ffffffffffffffff821115611ea957611ea8611e13565b5b611eb282611a6c565b9050602081019050919050565b82818337600083830152505050565b6000611ee1611edc84611e8e565b611e73565b905082815260208101848484011115611efd57611efc611e0e565b5b611f08848285611ebf565b509392505050565b600082601f830112611f2557611f24611e09565b5b8135611f35848260208601611ece565b91505092915050565b60008060408385031215611f5557611f5461192d565b5b600083013567ffffffffffffffff811115611f7357611f72611932565b5b611f7f85828601611f10565b9250506020611f9085828601611996565b9150509250929050565b611fa381611975565b82525050565b6000602082019050611fbe6000830184611f9a565b92915050565b600081519050919050565b600082825260208201905092915050565b6000819050602082019050919050565b6002811061200157612000611ab6565b5b50565b600081905061201282611ff0565b919050565b600061202282612004565b9050919050565b61203281612017565b82525050565b60006101608301600083015184820360008601526120568282611a7d565b915050602083015184820360208601526120708282611a7d565b9150506040830151848203604086015261208a8282611a7d565b915050606083015161209f6060860182611a17565b5060808301516120b26080860182611a17565b5060a08301516120c560a0860182611a17565b5060c08301516120d860c0860182611a17565b5060e08301516120eb60e0860182611a17565b50610100830151612100610100860182611a17565b50610120830151612115610120860182611a17565b5061014083015161212a610140860182612029565b508091505092915050565b6003811061214657612145611ab6565b5b50565b600081905061215782612135565b919050565b600061216782612149565b9050919050565b6121778161215c565b82525050565b6000610140830160008301516121966000860182611a17565b50602083015184820360208601526121ae8282612038565b915050604083015184820360408601526121c88282611a7d565b915050606083015184820360608601526121e28282611a7d565b915050608083015184820360808601526121fc8282611a7d565b91505060a083015161221160a0860182611a17565b5060c083015161222460c0860182611a17565b5060e083015161223760e0860182611a17565b5061010083015161224c610100860182611c2a565b5061012083015161226161012086018261216e565b508091505092915050565b6000612278838361217d565b905092915050565b6000602082019050919050565b600061229882611fc4565b6122a28185611fcf565b9350836020820285016122b485611fe0565b8060005b858110156122f057848403895281516122d1858261226c565b94506122dc83612280565b925060208a019950506001810190506122b8565b50829750879550505050505092915050565b6000602082019050818103600083015261231c818461228d565b905092915050565b600067ffffffffffffffff82111561233f5761233e611e13565b5b602082029050602081019050919050565b600080fd5b600080fd5b600080fd5b6002811061236c57600080fd5b50565b60008135905061237e8161235f565b92915050565b6000610160828403121561239b5761239a612355565b5b6123a6610160611e73565b9050600082013567ffffffffffffffff8111156123c6576123c561235a565b5b6123d284828501611f10565b600083015250602082013567ffffffffffffffff8111156123f6576123f561235a565b5b61240284828501611f10565b602083015250604082013567ffffffffffffffff8111156124265761242561235a565b5b61243284828501611f10565b604083015250606061244684828501611996565b606083015250608061245a84828501611996565b60808301525060a061246e84828501611996565b60a08301525060c061248284828501611996565b60c08301525060e061249684828501611996565b60e0830152506101006124ab84828501611996565b610100830152506101206124c184828501611996565b610120830152506101406124d78482850161236f565b6101408301525092915050565b60006124f76124f284612324565b611e73565b9050808382526020820190506020840283018581111561251a57612519612350565b5b835b8181101561256157803567ffffffffffffffff81111561253f5761253e611e09565b5b80860161254c8982612384565b8552602085019450505060208101905061251c565b5050509392505050565b600082601f8301126125805761257f611e09565b5b81356125908482602086016124e4565b91505092915050565b600080604083850312156125b0576125af61192d565b5b600083013567ffffffffffffffff8111156125ce576125cd611932565b5b6125da8582860161256b565b92505060206125eb85828601611996565b9150509250929050565b600081519050919050565b600082825260208201905092915050565b6000819050602082019050919050565b60008115159050919050565b61263681612621565b82525050565b6000612648838361262d565b60208301905092915050565b6000602082019050919050565b600061266c826125f5565b6126768185612600565b935061268183612611565b8060005b838110156126b2578151612699888261263c565b97506126a483612654565b925050600181019050612685565b5085935050505092915050565b600060208201905081810360008301526126d98184612661565b905092915050565b6126ea81611937565b82525050565b600060208201905061270560008301846126e1565b92915050565b60008060008060008060c087890312156127285761272761192d565b5b600087013567ffffffffffffffff81111561274657612745611932565b5b61275289828a01612384565b965050602087013567ffffffffffffffff81111561277357612772611932565b5b61277f89828a01611f10565b955050604087013567ffffffffffffffff8111156127a05761279f611932565b5b6127ac89828a01611f10565b945050606087013567ffffffffffffffff8111156127cd576127cc611932565b5b6127d989828a01611f10565b93505060806127ea89828a01611996565b92505060a06127fb89828a01611996565b9150509295509295509295565b600067ffffffffffffffff82111561282357612822611e13565b5b602082029050602081019050919050565b6002811061284157600080fd5b50565b60008135905061285381612834565b92915050565b600061016082840312156128705761286f612355565b5b61287b610160611e73565b9050600082013567ffffffffffffffff81111561289b5761289a61235a565b5b6128a784828501611f10565b600083015250602082013567ffffffffffffffff8111156128cb576128ca61235a565b5b6128d784828501611f10565b602083015250604082013567ffffffffffffffff8111156128fb576128fa61235a565b5b61290784828501611f10565b604083015250606061291b84828501611996565b606083015250608061292f84828501611996565b60808301525060a061294384828501611996565b60a08301525060c061295784828501611996565b60c08301525060e061296b84828501611996565b60e08301525061010061298084828501611996565b6101008301525061012061299684828501611996565b610120830152506101406129ac84828501612844565b6101408301525092915050565b60006129cc6129c784612808565b611e73565b905080838252602082019050602084028301858111156129ef576129ee612350565b5b835b81811015612a3657803567ffffffffffffffff811115612a1457612a13611e09565b5b808601612a218982612859565b855260208501945050506020810190506129f1565b5050509392505050565b600082601f830112612a5557612a54611e09565b5b8135612a658482602086016129b9565b91505092915050565b60008060408385031215612a8557612a8461192d565b5b600083013567ffffffffffffffff811115612aa357612aa2611932565b5b612aaf85828601612a40565b9250506020612ac085828601611996565b9150509250929050565b600060208284031215612ae057612adf61192d565b5b6000612aee84828501611960565b91505092915050565b612b0081612621565b82525050565b6000602082019050612b1b6000830184612af7565b92915050565b6000612b2c826118d5565b9050919050565b612b3c81612b21565b82525050565b6000602082019050612b576000830184612b33565b92915050565b600080600060608486031215612b7657612b7561192d565b5b600084013567ffffffffffffffff811115612b9457612b93611932565b5b612ba086828701612859565b935050602084013567ffffffffffffffff811115612bc157612bc0611932565b5b612bcd86828701611f10565b9250506040612bde86828701611996565b9150509250925092565b6000604082019050612bfd60008301856126e1565b612c0a6020830184611f9a565b9392505050565b600067ffffffffffffffff821115612c2c57612c2b611e13565b5b602082029050602081019050919050565b600081519050612c4c8161197f565b92915050565b6000612c65612c6084611e8e565b611e73565b905082815260208101848484011115612c8157612c80611e0e565b5b612c8c848285611a42565b509392505050565b600082601f830112612ca957612ca8611e09565b5b8151612cb9848260208601612c52565b91505092915050565b600081519050612cd181612834565b92915050565b60006101608284031215612cee57612ced612355565b5b612cf9610160611e73565b9050600082015167ffffffffffffffff811115612d1957612d1861235a565b5b612d2584828501612c94565b600083015250602082015167ffffffffffffffff811115612d4957612d4861235a565b5b612d5584828501612c94565b602083015250604082015167ffffffffffffffff811115612d7957612d7861235a565b5b612d8584828501612c94565b6040830152506060612d9984828501612c3d565b6060830152506080612dad84828501612c3d565b60808301525060a0612dc184828501612c3d565b60a08301525060c0612dd584828501612c3d565b60c08301525060e0612de984828501612c3d565b60e083015250610100612dfe84828501612c3d565b61010083015250610120612e1484828501612c3d565b61012083015250610140612e2a84828501612cc2565b6101408301525092915050565b600081519050612e4681611949565b92915050565b60038110612e5957600080fd5b50565b600081519050612e6b81612e4c565b92915050565b600060e08284031215612e8757612e86612355565b5b612e9160e0611e73565b90506000612ea184828501612c3d565b600083015250602082015167ffffffffffffffff811115612ec557612ec461235a565b5b612ed184828501612cd7565b602083015250604082015167ffffffffffffffff811115612ef557612ef461235a565b5b612f0184828501612c94565b6040830152506060612f1584828501612c3d565b6060830152506080612f2984828501612c3d565b60808301525060a0612f3d84828501612e37565b60a08301525060c0612f5184828501612e5c565b60c08301525092915050565b6000612f70612f6b84612c11565b611e73565b90508083825260208201905060208402830185811115612f9357612f92612350565b5b835b81811015612fda57805167ffffffffffffffff811115612fb857612fb7611e09565b5b808601612fc58982612e71565b85526020850194505050602081019050612f95565b5050509392505050565b600082601f830112612ff957612ff8611e09565b5b8151613009848260208601612f5d565b91505092915050565b6000602082840312156130285761302761192d565b5b600082015167ffffffffffffffff81111561304657613045611932565b5b61305284828501612fe4565b91505092915050565b60006040820190506130706000830185611f9a565b61307d60208301846126e1565b9392505050565b600082825260208201905092915050565b7f496e73757265723a204f6e6c792074686520696e73757265722063616e20636160008201527f6c6c207468697300000000000000000000000000000000000000000000000000602082015250565b60006130f1602783613084565b91506130fc82613095565b604082019050919050565b60006020820190508181036000830152613120816130e4565b9050919050565b7f496e73756666696369656e742062616c616e6365000000000000000000000000600082015250565b600061315d601483613084565b915061316882613127565b602082019050919050565b6000602082019050818103600083015261318c81613150565b9050919050565b600061319e82611a26565b6131a88185613084565b93506131b8818560208601611a42565b6131c181611a6c565b840191505092915050565b600060408201905081810360008301526131e68185613193565b90506131f56020830184611f9a565b9392505050565b600067ffffffffffffffff82111561321757613216611e13565b5b602082029050602081019050919050565b6000815190506132378161235f565b92915050565b6000610160828403121561325457613253612355565b5b61325f610160611e73565b9050600082015167ffffffffffffffff81111561327f5761327e61235a565b5b61328b84828501612c94565b600083015250602082015167ffffffffffffffff8111156132af576132ae61235a565b5b6132bb84828501612c94565b602083015250604082015167ffffffffffffffff8111156132df576132de61235a565b5b6132eb84828501612c94565b60408301525060606132ff84828501612c3d565b606083015250608061331384828501612c3d565b60808301525060a061332784828501612c3d565b60a08301525060c061333b84828501612c3d565b60c08301525060e061334f84828501612c3d565b60e08301525061010061336484828501612c3d565b6101008301525061012061337a84828501612c3d565b6101208301525061014061339084828501613228565b6101408301525092915050565b600381106133aa57600080fd5b50565b6000815190506133bc8161339d565b92915050565b600061014082840312156133d9576133d8612355565b5b6133e4610140611e73565b905060006133f484828501612c3d565b600083015250602082015167ffffffffffffffff8111156134185761341761235a565b5b6134248482850161323d565b602083015250604082015167ffffffffffffffff8111156134485761344761235a565b5b61345484828501612c94565b604083015250606082015167ffffffffffffffff8111156134785761347761235a565b5b61348484828501612c94565b606083015250608082015167ffffffffffffffff8111156134a8576134a761235a565b5b6134b484828501612c94565b60808301525060a06134c884828501612c3d565b60a08301525060c06134dc84828501612c3d565b60c08301525060e06134f084828501612c3d565b60e08301525061010061350584828501612e37565b6101008301525061012061351b848285016133ad565b6101208301525092915050565b600061353b613536846131fc565b611e73565b9050808382526020820190506020840283018581111561355e5761355d612350565b5b835b818110156135a557805167ffffffffffffffff81111561358357613582611e09565b5b80860161359089826133c2565b85526020850194505050602081019050613560565b5050509392505050565b600082601f8301126135c4576135c3611e09565b5b81516135d4848260208601613528565b91505092915050565b6000602082840312156135f3576135f261192d565b5b600082015167ffffffffffffffff81111561361157613610611932565b5b61361d848285016135af565b91505092915050565b7f4e487b7100000000000000000000000000000000000000000000000000000000600052603260045260246000fd5b7f4e487b7100000000000000000000000000000000000000000000000000000000600052601160045260246000fd5b600061368f82611975565b915061369a83611975565b92508282019050808211156136b2576136b1613655565b5b92915050565b60006136c382611975565b91506136ce83611975565b92508282026136dc81611975565b915082820484148315176136f3576136f2613655565b5b5092915050565b600061370582611975565b91507fffffffffffffffffffffffffffffffffffffffffffffffffffffffffffffffff820361373757613736613655565b5b600182019050919050565b7f496e73756666696369656e7420636f6e74726163742062616c616e636520746f60008201527f20636f76657220706f74656e7469616c207061796f7574730000000000000000602082015250565b600061379e603883613084565b91506137a982613742565b604082019050919050565b600060208201905081810360008301526137cd81613791565b9050919050565b60006101608301600083015184820360008601526137f28282611a7d565b9150506020830151848203602086015261380c8282611a7d565b915050604083015184820360408601526138268282611a7d565b915050606083015161383b6060860182611a17565b50608083015161384e6080860182611a17565b5060a083015161386160a0860182611a17565b5060c083015161387460c0860182611a17565b5060e083015161388760e0860182611a17565b5061010083015161389c610100860182611a17565b506101208301516138b1610120860182611a17565b506101408301516138c6610140860182612029565b508091505092915050565b600060c08201905081810360008301526138eb81896137d4565b905081810360208301526138ff8188613193565b905081810360408301526139138187613193565b905081810360608301526139278186613193565b90506139366080830185611f9a565b61394360a08301846126e1565b979650505050505050565b6000602082840312156139645761396361192d565b5b600061397284828501612c3d565b91505092915050565b600081905092915050565b600061399182611a26565b61399b818561397b565b93506139ab818560208601611a42565b80840191505092915050565b60006139c38284613986565b915081905092915050565b7f496e73757265723a204d757374206465706f736974206120706f73697469766560008201527f20616d6f756e7400000000000000000000000000000000000000000000000000602082015250565b6000613a2a602783613084565b9150613a35826139ce565b604082019050919050565b60006020820190508181036000830152613a5981613a1d565b9050919050565b6000610160830160008301518482036000860152613a7e8282611a7d565b91505060208301518482036020860152613a988282611a7d565b91505060408301518482036040860152613ab28282611a7d565b9150506060830151613ac76060860182611a17565b506080830151613ada6080860182611a17565b5060a0830151613aed60a0860182611a17565b5060c0830151613b0060c0860182611a17565b5060e0830151613b1360e0860182611a17565b50610100830151613b28610100860182611a17565b50610120830151613b3d610120860182611a17565b50610140830151613b52610140860182611b1e565b508091505092915050565b60006060820190508181036000830152613b778186613a60565b90508181036020830152613b8b8185613193565b9050613b9a60408301846126e1565b94935050505056fea26469706673582212209c7fe3b420251af2beef5586a68def3a733343e3cd5b0f7e37231bb80210b11264736f6c63430008130033",
  "linkReferences": {},
  "deployedLinkReferences": {}
}