{
  "_format": "hh-sol-artifact-1",
  "contractName": "Insurer",
  "sourceName": "contracts/Insurer.sol",
  "abi": [
    {
      "inputs": [
        {
          "internalType": "address",
          "name": "_flightPolicyAddress",
          "type": "address"
        }
      ],
      "stateMutability": "nonpayable",
      "type": "constructor"
    },
    {
      "anonymous": false,
      "inputs": [
        {
          "indexed": true,
          "internalType": "address",
          "name": "buyer",
          "type": "address"
        },
        {
          "indexed": true,
          "internalType": "uint256",
          "name": "policyId",
          "type": "uint256"
        },
        {
          "indexed": true,
          "internalType": "string",
          "name": "templateId",
          "type": "string"
        }
      ],
      "name": "FlightPolicyPurchased",
      "type": "event"
    },
    {
      "inputs": [],
      "name": "flightPolicy",
      "outputs": [
        {
          "internalType": "contract FlightPolicy",
          "name": "",
          "type": "address"
        }
      ],
      "stateMutability": "view",
      "type": "function"
    },
    {
      "inputs": [],
      "name": "getAllFlightPolicies",
      "outputs": [
        {
          "components": [
            {
              "internalType": "uint256",
              "name": "policyId",
              "type": "uint256"
            },
            {
              "components": [
                {
                  "internalType": "string",
                  "name": "templateId",
                  "type": "string"
                },
                {
                  "internalType": "string",
                  "name": "name",
                  "type": "string"
                },
                {
                  "internalType": "string",
                  "name": "description",
                  "type": "string"
                },
                {
                  "internalType": "uint256",
                  "name": "createdAt",
                  "type": "uint256"
                },
                {
                  "internalType": "uint256",
                  "name": "updatedAt",
                  "type": "uint256"
                },
                {
                  "internalType": "uint256",
                  "name": "premium",
                  "type": "uint256"
                },
                {
                  "internalType": "uint256",
                  "name": "payoutPerHour",
                  "type": "uint256"
                },
                {
                  "internalType": "uint256",
                  "name": "delayThresholdHours",
                  "type": "uint256"
                },
                {
                  "internalType": "uint256",
                  "name": "maxTotalPayout",
                  "type": "uint256"
                },
                {
                  "internalType": "uint256",
                  "name": "coverageDurationDays",
                  "type": "uint256"
                },
                {
                  "internalType": "enum FlightPolicy.PolicyTemplateStatus",
                  "name": "status",
                  "type": "uint8"
                }
              ],
              "internalType": "struct FlightPolicy.PolicyTemplate",
              "name": "template",
              "type": "tuple"
            },
            {
              "internalType": "string",
              "name": "flightNumber",
              "type": "string"
            },
            {
              "internalType": "string",
              "name": "departureAirportCode",
              "type": "string"
            },
            {
              "internalType": "string",
              "name": "arrivalAirportCode",
              "type": "string"
            },
            {
              "internalType": "uint256",
              "name": "departureTime",
              "type": "uint256"
            },
            {
              "internalType": "uint256",
              "name": "createdAt",
              "type": "uint256"
            },
            {
              "internalType": "uint256",
              "name": "payoutToDate",
              "type": "uint256"
            },
            {
              "internalType": "address",
              "name": "buyer",
              "type": "address"
            },
            {
              "internalType": "enum FlightPolicy.PolicyStatus",
              "name": "status",
              "type": "uint8"
            }
          ],
          "internalType": "struct FlightPolicy.UserPolicy[]",
          "name": "",
          "type": "tuple[]"
        }
      ],
      "stateMutability": "view",
      "type": "function"
    },
    {
      "inputs": [
        {
          "internalType": "address",
          "name": "user",
          "type": "address"
        },
        {
          "internalType": "uint256",
          "name": "policyId",
          "type": "uint256"
        }
      ],
      "name": "getFlightPolicyWithTemplate",
      "outputs": [
        {
          "components": [
            {
              "internalType": "uint256",
              "name": "policyId",
              "type": "uint256"
            },
            {
              "components": [
                {
                  "internalType": "string",
                  "name": "templateId",
                  "type": "string"
                },
                {
                  "internalType": "string",
                  "name": "name",
                  "type": "string"
                },
                {
                  "internalType": "string",
                  "name": "description",
                  "type": "string"
                },
                {
                  "internalType": "uint256",
                  "name": "createdAt",
                  "type": "uint256"
                },
                {
                  "internalType": "uint256",
                  "name": "updatedAt",
                  "type": "uint256"
                },
                {
                  "internalType": "uint256",
                  "name": "premium",
                  "type": "uint256"
                },
                {
                  "internalType": "uint256",
                  "name": "payoutPerHour",
                  "type": "uint256"
                },
                {
                  "internalType": "uint256",
                  "name": "delayThresholdHours",
                  "type": "uint256"
                },
                {
                  "internalType": "uint256",
                  "name": "maxTotalPayout",
                  "type": "uint256"
                },
                {
                  "internalType": "uint256",
                  "name": "coverageDurationDays",
                  "type": "uint256"
                },
                {
                  "internalType": "enum FlightPolicy.PolicyTemplateStatus",
                  "name": "status",
                  "type": "uint8"
                }
              ],
              "internalType": "struct FlightPolicy.PolicyTemplate",
              "name": "template",
              "type": "tuple"
            },
            {
              "internalType": "string",
              "name": "flightNumber",
              "type": "string"
            },
            {
              "internalType": "string",
              "name": "departureAirportCode",
              "type": "string"
            },
            {
              "internalType": "string",
              "name": "arrivalAirportCode",
              "type": "string"
            },
            {
              "internalType": "uint256",
              "name": "departureTime",
              "type": "uint256"
            },
            {
              "internalType": "uint256",
              "name": "createdAt",
              "type": "uint256"
            },
            {
              "internalType": "uint256",
              "name": "payoutToDate",
              "type": "uint256"
            },
            {
              "internalType": "address",
              "name": "buyer",
              "type": "address"
            },
            {
              "internalType": "enum FlightPolicy.PolicyStatus",
              "name": "status",
              "type": "uint8"
            }
          ],
          "internalType": "struct FlightPolicy.UserPolicy",
          "name": "",
          "type": "tuple"
        },
        {
          "components": [
            {
              "internalType": "string",
              "name": "templateId",
              "type": "string"
            },
            {
              "internalType": "string",
              "name": "name",
              "type": "string"
            },
            {
              "internalType": "string",
              "name": "description",
              "type": "string"
            },
            {
              "internalType": "uint256",
              "name": "createdAt",
              "type": "uint256"
            },
            {
              "internalType": "uint256",
              "name": "updatedAt",
              "type": "uint256"
            },
            {
              "internalType": "uint256",
              "name": "premium",
              "type": "uint256"
            },
            {
              "internalType": "uint256",
              "name": "payoutPerHour",
              "type": "uint256"
            },
            {
              "internalType": "uint256",
              "name": "delayThresholdHours",
              "type": "uint256"
            },
            {
              "internalType": "uint256",
              "name": "maxTotalPayout",
              "type": "uint256"
            },
            {
              "internalType": "uint256",
              "name": "coverageDurationDays",
              "type": "uint256"
            },
            {
              "internalType": "enum FlightPolicy.PolicyTemplateStatus",
              "name": "status",
              "type": "uint8"
            }
          ],
          "internalType": "struct FlightPolicy.PolicyTemplate",
          "name": "",
          "type": "tuple"
        }
      ],
      "stateMutability": "view",
      "type": "function"
    },
    {
      "inputs": [
        {
          "internalType": "address",
          "name": "user",
          "type": "address"
        }
      ],
      "name": "getUserFlightPolicies",
      "outputs": [
        {
          "components": [
            {
              "internalType": "uint256",
              "name": "policyId",
              "type": "uint256"
            },
            {
              "components": [
                {
                  "internalType": "string",
                  "name": "templateId",
                  "type": "string"
                },
                {
                  "internalType": "string",
                  "name": "name",
                  "type": "string"
                },
                {
                  "internalType": "string",
                  "name": "description",
                  "type": "string"
                },
                {
                  "internalType": "uint256",
                  "name": "createdAt",
                  "type": "uint256"
                },
                {
                  "internalType": "uint256",
                  "name": "updatedAt",
                  "type": "uint256"
                },
                {
                  "internalType": "uint256",
                  "name": "premium",
                  "type": "uint256"
                },
                {
                  "internalType": "uint256",
                  "name": "payoutPerHour",
                  "type": "uint256"
                },
                {
                  "internalType": "uint256",
                  "name": "delayThresholdHours",
                  "type": "uint256"
                },
                {
                  "internalType": "uint256",
                  "name": "maxTotalPayout",
                  "type": "uint256"
                },
                {
                  "internalType": "uint256",
                  "name": "coverageDurationDays",
                  "type": "uint256"
                },
                {
                  "internalType": "enum FlightPolicy.PolicyTemplateStatus",
                  "name": "status",
                  "type": "uint8"
                }
              ],
              "internalType": "struct FlightPolicy.PolicyTemplate",
              "name": "template",
              "type": "tuple"
            },
            {
              "internalType": "string",
              "name": "flightNumber",
              "type": "string"
            },
            {
              "internalType": "string",
              "name": "departureAirportCode",
              "type": "string"
            },
            {
              "internalType": "string",
              "name": "arrivalAirportCode",
              "type": "string"
            },
            {
              "internalType": "uint256",
              "name": "departureTime",
              "type": "uint256"
            },
            {
              "internalType": "uint256",
              "name": "createdAt",
              "type": "uint256"
            },
            {
              "internalType": "uint256",
              "name": "payoutToDate",
              "type": "uint256"
            },
            {
              "internalType": "address",
              "name": "buyer",
              "type": "address"
            },
            {
              "internalType": "enum FlightPolicy.PolicyStatus",
              "name": "status",
              "type": "uint8"
            }
          ],
          "internalType": "struct FlightPolicy.UserPolicy[]",
          "name": "",
          "type": "tuple[]"
        }
      ],
      "stateMutability": "view",
      "type": "function"
    },
    {
      "inputs": [
        {
          "internalType": "string",
          "name": "templateId",
          "type": "string"
        }
      ],
      "name": "getUserPoliciesByTemplate",
      "outputs": [
        {
          "components": [
            {
              "internalType": "uint256",
              "name": "policyId",
              "type": "uint256"
            },
            {
              "components": [
                {
                  "internalType": "string",
                  "name": "templateId",
                  "type": "string"
                },
                {
                  "internalType": "string",
                  "name": "name",
                  "type": "string"
                },
                {
                  "internalType": "string",
                  "name": "description",
                  "type": "string"
                },
                {
                  "internalType": "uint256",
                  "name": "createdAt",
                  "type": "uint256"
                },
                {
                  "internalType": "uint256",
                  "name": "updatedAt",
                  "type": "uint256"
                },
                {
                  "internalType": "uint256",
                  "name": "premium",
                  "type": "uint256"
                },
                {
                  "internalType": "uint256",
                  "name": "payoutPerHour",
                  "type": "uint256"
                },
                {
                  "internalType": "uint256",
                  "name": "delayThresholdHours",
                  "type": "uint256"
                },
                {
                  "internalType": "uint256",
                  "name": "maxTotalPayout",
                  "type": "uint256"
                },
                {
                  "internalType": "uint256",
                  "name": "coverageDurationDays",
                  "type": "uint256"
                },
                {
                  "internalType": "enum FlightPolicy.PolicyTemplateStatus",
                  "name": "status",
                  "type": "uint8"
                }
              ],
              "internalType": "struct FlightPolicy.PolicyTemplate",
              "name": "template",
              "type": "tuple"
            },
            {
              "internalType": "string",
              "name": "flightNumber",
              "type": "string"
            },
            {
              "internalType": "string",
              "name": "departureAirportCode",
              "type": "string"
            },
            {
              "internalType": "string",
              "name": "arrivalAirportCode",
              "type": "string"
            },
            {
              "internalType": "uint256",
              "name": "departureTime",
              "type": "uint256"
            },
            {
              "internalType": "uint256",
              "name": "createdAt",
              "type": "uint256"
            },
            {
              "internalType": "uint256",
              "name": "payoutToDate",
              "type": "uint256"
            },
            {
              "internalType": "address",
              "name": "buyer",
              "type": "address"
            },
            {
              "internalType": "enum FlightPolicy.PolicyStatus",
              "name": "status",
              "type": "uint8"
            }
          ],
          "internalType": "struct FlightPolicy.UserPolicy[]",
          "name": "",
          "type": "tuple[]"
        }
      ],
      "stateMutability": "view",
      "type": "function"
    },
    {
      "inputs": [],
      "name": "insurerAddress",
      "outputs": [
        {
          "internalType": "address",
          "name": "",
          "type": "address"
        }
      ],
      "stateMutability": "view",
      "type": "function"
    },
    {
      "inputs": [
        {
          "internalType": "address",
          "name": "user",
          "type": "address"
        }
      ],
      "name": "isInsurer",
      "outputs": [
        {
          "internalType": "bool",
          "name": "",
          "type": "bool"
        }
      ],
      "stateMutability": "view",
      "type": "function"
    },
    {
      "inputs": [
        {
          "internalType": "address",
          "name": "buyer",
          "type": "address"
        },
        {
          "internalType": "uint256",
          "name": "policyId",
          "type": "uint256"
        }
      ],
      "name": "markFlightPolicyAsClaimed",
      "outputs": [],
      "stateMutability": "nonpayable",
      "type": "function"
    },
    {
      "inputs": [
        {
          "internalType": "uint256",
          "name": "policyId",
          "type": "uint256"
        }
      ],
      "name": "markFlightPolicyAsExpired",
      "outputs": [],
      "stateMutability": "nonpayable",
      "type": "function"
    },
    {
      "inputs": [
        {
          "components": [
            {
              "internalType": "string",
              "name": "templateId",
              "type": "string"
            },
            {
              "internalType": "string",
              "name": "name",
              "type": "string"
            },
            {
              "internalType": "string",
              "name": "description",
              "type": "string"
            },
            {
              "internalType": "uint256",
              "name": "createdAt",
              "type": "uint256"
            },
            {
              "internalType": "uint256",
              "name": "updatedAt",
              "type": "uint256"
            },
            {
              "internalType": "uint256",
              "name": "premium",
              "type": "uint256"
            },
            {
              "internalType": "uint256",
              "name": "payoutPerHour",
              "type": "uint256"
            },
            {
              "internalType": "uint256",
              "name": "delayThresholdHours",
              "type": "uint256"
            },
            {
              "internalType": "uint256",
              "name": "maxTotalPayout",
              "type": "uint256"
            },
            {
              "internalType": "uint256",
              "name": "coverageDurationDays",
              "type": "uint256"
            },
            {
              "internalType": "enum FlightPolicy.PolicyTemplateStatus",
              "name": "status",
              "type": "uint8"
            }
          ],
          "internalType": "struct FlightPolicy.PolicyTemplate",
          "name": "template",
          "type": "tuple"
        },
        {
          "internalType": "string",
          "name": "flightNumber",
          "type": "string"
        },
        {
          "internalType": "string",
          "name": "departureAirportCode",
          "type": "string"
        },
        {
          "internalType": "string",
          "name": "arrivalAirportCode",
          "type": "string"
        },
        {
          "internalType": "uint256",
          "name": "departureTime",
          "type": "uint256"
        }
      ],
      "name": "purchaseFlightPolicy",
      "outputs": [],
      "stateMutability": "payable",
      "type": "function"
    },
    {
      "inputs": [
        {
          "internalType": "uint256",
          "name": "amountInWei",
          "type": "uint256"
        }
      ],
      "name": "withdraw",
      "outputs": [],
      "stateMutability": "nonpayable",
      "type": "function"
    },
    {
      "stateMutability": "payable",
      "type": "receive"
    }
  ],
  "bytecode": "0x60a06040523480156200001157600080fd5b506040516200223c3803806200223c83398181016040528101906200003791906200011c565b3373ffffffffffffffffffffffffffffffffffffffff1660808173ffffffffffffffffffffffffffffffffffffffff1681525050806000806101000a81548173ffffffffffffffffffffffffffffffffffffffff021916908373ffffffffffffffffffffffffffffffffffffffff160217905550506200014e565b600080fd5b600073ffffffffffffffffffffffffffffffffffffffff82169050919050565b6000620000e482620000b7565b9050919050565b620000f681620000d7565b81146200010257600080fd5b50565b6000815190506200011681620000eb565b92915050565b600060208284031215620001355762000134620000b2565b5b6000620001458482850162000105565b91505092915050565b6080516120a862000194600039600081816102df015281816103b00152818161041c0152818161054301528181610771015281816109380152610a0601526120a86000f3fe6080604052600436106100a05760003560e01c8063884d7f6411610064578063884d7f64146101705780639c6cf7ef14610199578063a7c0900e146101d6578063b715521b14610201578063da7897e21461023e578063f05e5b621461027b576100a7565b806307116510146100ac5780632e1a7d4d146100d75780634dd7b2a8146101005780636906496e1461012b5780638350e57814610154576100a7565b366100a757005b600080fd5b3480156100b857600080fd5b506100c16102b9565b6040516100ce9190610c82565b60405180910390f35b3480156100e357600080fd5b506100fe60048036038101906100f99190610ce7565b6102dd565b005b34801561010c57600080fd5b50610115610418565b6040516101229190611141565b60405180910390f35b34801561013757600080fd5b50610152600480360381019061014d9190610ce7565b610541565b005b61016e60048036038101906101699190611427565b61065d565b005b34801561017c57600080fd5b506101976004803603810190610192919061153e565b61076f565b005b3480156101a557600080fd5b506101c060048036038101906101bb919061157e565b61088e565b6040516101cd9190611141565b60405180910390f35b3480156101e257600080fd5b506101eb610936565b6040516101f891906115d6565b60405180910390f35b34801561020d57600080fd5b50610228600480360381019061022391906115f1565b61095a565b6040516102359190611141565b60405180910390f35b34801561024a57600080fd5b50610265600480360381019061026091906115f1565b610a02565b6040516102729190611639565b60405180910390f35b34801561028757600080fd5b506102a2600480360381019061029d919061153e565b610a5a565b6040516102b0929190611840565b60405180910390f35b60008054906101000a900473ffffffffffffffffffffffffffffffffffffffff1681565b7f000000000000000000000000000000000000000000000000000000000000000073ffffffffffffffffffffffffffffffffffffffff163373ffffffffffffffffffffffffffffffffffffffff161461036b576040517f08c379a0000000000000000000000000000000000000000000000000000000008152600401610362906118fa565b60405180910390fd5b804710156103ae576040517f08c379a00000000000000000000000000000000000000000000000000000000081526004016103a590611966565b60405180910390fd5b7f000000000000000000000000000000000000000000000000000000000000000073ffffffffffffffffffffffffffffffffffffffff166108fc829081150290604051600060405180830381858888f19350505050158015610414573d6000803e3d6000fd5b5050565b60607f000000000000000000000000000000000000000000000000000000000000000073ffffffffffffffffffffffffffffffffffffffff163373ffffffffffffffffffffffffffffffffffffffff16146104a8576040517f08c379a000000000000000000000000000000000000000000000000000000000815260040161049f906118fa565b60405180910390fd5b60008054906101000a900473ffffffffffffffffffffffffffffffffffffffff1673ffffffffffffffffffffffffffffffffffffffff1663457e55216040518163ffffffff1660e01b8152600401600060405180830381865afa158015610513573d6000803e3d6000fd5b505050506040513d6000823e3d601f19601f8201168201806040525081019061053c9190611e06565b905090565b7f000000000000000000000000000000000000000000000000000000000000000073ffffffffffffffffffffffffffffffffffffffff163373ffffffffffffffffffffffffffffffffffffffff16146105cf576040517f08c379a00000000000000000000000000000000000000000000000000000000081526004016105c6906118fa565b60405180910390fd5b60008054906101000a900473ffffffffffffffffffffffffffffffffffffffff1673ffffffffffffffffffffffffffffffffffffffff1663cf39c624826040518263ffffffff1660e01b81526004016106289190611e5e565b600060405180830381600087803b15801561064257600080fd5b505af1158015610656573d6000803e3d6000fd5b5050505050565b60008060009054906101000a900473ffffffffffffffffffffffffffffffffffffffff1673ffffffffffffffffffffffffffffffffffffffff166331953ecc348888888888336040518863ffffffff1660e01b81526004016106c496959493929190611eb2565b60206040518083038185885af11580156106e2573d6000803e3d6000fd5b50505050506040513d601f19601f820116820180604052508101906107079190611f2f565b9050856000015160405161071b9190611f98565b6040518091039020813373ffffffffffffffffffffffffffffffffffffffff167f43617ea01c45d3386d7be4a6cb66bf94c0152a674cbd34a5de81ed135dfd7b1760405160405180910390a4505050505050565b7f000000000000000000000000000000000000000000000000000000000000000073ffffffffffffffffffffffffffffffffffffffff163373ffffffffffffffffffffffffffffffffffffffff16146107fd576040517f08c379a00000000000000000000000000000000000000000000000000000000081526004016107f4906118fa565b60405180910390fd5b60008054906101000a900473ffffffffffffffffffffffffffffffffffffffff1673ffffffffffffffffffffffffffffffffffffffff166328cf382c83836040518363ffffffff1660e01b8152600401610858929190611faf565b600060405180830381600087803b15801561087257600080fd5b505af1158015610886573d6000803e3d6000fd5b505050505050565b606060008054906101000a900473ffffffffffffffffffffffffffffffffffffffff1673ffffffffffffffffffffffffffffffffffffffff16639c6cf7ef836040518263ffffffff1660e01b81526004016108e99190611fd8565b600060405180830381865afa158015610906573d6000803e3d6000fd5b505050506040513d6000823e3d601f19601f8201168201806040525081019061092f9190611e06565b9050919050565b7f000000000000000000000000000000000000000000000000000000000000000081565b606060008054906101000a900473ffffffffffffffffffffffffffffffffffffffff1673ffffffffffffffffffffffffffffffffffffffff166319ac4614836040518263ffffffff1660e01b81526004016109b591906115d6565b600060405180830381865afa1580156109d2573d6000803e3d6000fd5b505050506040513d6000823e3d601f19601f820116820180604052508101906109fb9190611e06565b9050919050565b60007f000000000000000000000000000000000000000000000000000000000000000073ffffffffffffffffffffffffffffffffffffffff168273ffffffffffffffffffffffffffffffffffffffff16149050919050565b610a62610b16565b610a6a610b97565b60008054906101000a900473ffffffffffffffffffffffffffffffffffffffff1673ffffffffffffffffffffffffffffffffffffffff166313e896b685856040518363ffffffff1660e01b8152600401610ac5929190611faf565b600060405180830381865afa158015610ae2573d6000803e3d6000fd5b505050506040513d6000823e3d601f19601f82011682018060405250810190610b0b9190611ffa565b915091509250929050565b60405180610140016040528060008152602001610b31610b97565b8152602001606081526020016060815260200160608152602001600081526020016000815260200160008152602001600073ffffffffffffffffffffffffffffffffffffffff16815260200160006002811115610b9157610b90610ddf565b5b81525090565b6040518061016001604052806060815260200160608152602001606081526020016000815260200160008152602001600081526020016000815260200160008152602001600081526020016000815260200160006001811115610bfd57610bfc610ddf565b5b81525090565b600073ffffffffffffffffffffffffffffffffffffffff82169050919050565b6000819050919050565b6000610c48610c43610c3e84610c03565b610c23565b610c03565b9050919050565b6000610c5a82610c2d565b9050919050565b6000610c6c82610c4f565b9050919050565b610c7c81610c61565b82525050565b6000602082019050610c976000830184610c73565b92915050565b6000604051905090565b600080fd5b600080fd5b6000819050919050565b610cc481610cb1565b8114610ccf57600080fd5b50565b600081359050610ce181610cbb565b92915050565b600060208284031215610cfd57610cfc610ca7565b5b6000610d0b84828501610cd2565b91505092915050565b600081519050919050565b600082825260208201905092915050565b6000819050602082019050919050565b610d4981610cb1565b82525050565b600081519050919050565b600082825260208201905092915050565b60005b83811015610d89578082015181840152602081019050610d6e565b60008484015250505050565b6000601f19601f8301169050919050565b6000610db182610d4f565b610dbb8185610d5a565b9350610dcb818560208601610d6b565b610dd481610d95565b840191505092915050565b7f4e487b7100000000000000000000000000000000000000000000000000000000600052602160045260246000fd5b60028110610e1f57610e1e610ddf565b5b50565b6000819050610e3082610e0e565b919050565b6000610e4082610e22565b9050919050565b610e5081610e35565b82525050565b6000610160830160008301518482036000860152610e748282610da6565b91505060208301518482036020860152610e8e8282610da6565b91505060408301518482036040860152610ea88282610da6565b9150506060830151610ebd6060860182610d40565b506080830151610ed06080860182610d40565b5060a0830151610ee360a0860182610d40565b5060c0830151610ef660c0860182610d40565b5060e0830151610f0960e0860182610d40565b50610100830151610f1e610100860182610d40565b50610120830151610f33610120860182610d40565b50610140830151610f48610140860182610e47565b508091505092915050565b6000610f5e82610c03565b9050919050565b610f6e81610f53565b82525050565b60038110610f8557610f84610ddf565b5b50565b6000819050610f9682610f74565b919050565b6000610fa682610f88565b9050919050565b610fb681610f9b565b82525050565b600061014083016000830151610fd56000860182610d40565b5060208301518482036020860152610fed8282610e56565b915050604083015184820360408601526110078282610da6565b915050606083015184820360608601526110218282610da6565b9150506080830151848203608086015261103b8282610da6565b91505060a083015161105060a0860182610d40565b5060c083015161106360c0860182610d40565b5060e083015161107660e0860182610d40565b5061010083015161108b610100860182610f65565b506101208301516110a0610120860182610fad565b508091505092915050565b60006110b78383610fbc565b905092915050565b6000602082019050919050565b60006110d782610d14565b6110e18185610d1f565b9350836020820285016110f385610d30565b8060005b8581101561112f578484038952815161111085826110ab565b945061111b836110bf565b925060208a019950506001810190506110f7565b50829750879550505050505092915050565b6000602082019050818103600083015261115b81846110cc565b905092915050565b600080fd5b7f4e487b7100000000000000000000000000000000000000000000000000000000600052604160045260246000fd5b6111a082610d95565b810181811067ffffffffffffffff821117156111bf576111be611168565b5b80604052505050565b60006111d2610c9d565b90506111de8282611197565b919050565b600080fd5b600080fd5b600080fd5b600067ffffffffffffffff82111561120d5761120c611168565b5b61121682610d95565b9050602081019050919050565b82818337600083830152505050565b6000611245611240846111f2565b6111c8565b905082815260208101848484011115611261576112606111ed565b5b61126c848285611223565b509392505050565b600082601f830112611289576112886111e8565b5b8135611299848260208601611232565b91505092915050565b600281106112af57600080fd5b50565b6000813590506112c1816112a2565b92915050565b600061016082840312156112de576112dd611163565b5b6112e96101606111c8565b9050600082013567ffffffffffffffff811115611309576113086111e3565b5b61131584828501611274565b600083015250602082013567ffffffffffffffff811115611339576113386111e3565b5b61134584828501611274565b602083015250604082013567ffffffffffffffff811115611369576113686111e3565b5b61137584828501611274565b604083015250606061138984828501610cd2565b606083015250608061139d84828501610cd2565b60808301525060a06113b184828501610cd2565b60a08301525060c06113c584828501610cd2565b60c08301525060e06113d984828501610cd2565b60e0830152506101006113ee84828501610cd2565b6101008301525061012061140484828501610cd2565b6101208301525061014061141a848285016112b2565b6101408301525092915050565b600080600080600060a0868803121561144357611442610ca7565b5b600086013567ffffffffffffffff81111561146157611460610cac565b5b61146d888289016112c7565b955050602086013567ffffffffffffffff81111561148e5761148d610cac565b5b61149a88828901611274565b945050604086013567ffffffffffffffff8111156114bb576114ba610cac565b5b6114c788828901611274565b935050606086013567ffffffffffffffff8111156114e8576114e7610cac565b5b6114f488828901611274565b925050608061150588828901610cd2565b9150509295509295909350565b61151b81610f53565b811461152657600080fd5b50565b60008135905061153881611512565b92915050565b6000806040838503121561155557611554610ca7565b5b600061156385828601611529565b925050602061157485828601610cd2565b9150509250929050565b60006020828403121561159457611593610ca7565b5b600082013567ffffffffffffffff8111156115b2576115b1610cac565b5b6115be84828501611274565b91505092915050565b6115d081610f53565b82525050565b60006020820190506115eb60008301846115c7565b92915050565b60006020828403121561160757611606610ca7565b5b600061161584828501611529565b91505092915050565b60008115159050919050565b6116338161161e565b82525050565b600060208201905061164e600083018461162a565b92915050565b60006101408301600083015161166d6000860182610d40565b50602083015184820360208601526116858282610e56565b9150506040830151848203604086015261169f8282610da6565b915050606083015184820360608601526116b98282610da6565b915050608083015184820360808601526116d38282610da6565b91505060a08301516116e860a0860182610d40565b5060c08301516116fb60c0860182610d40565b5060e083015161170e60e0860182610d40565b50610100830151611723610100860182610f65565b50610120830151611738610120860182610fad565b508091505092915050565b60006101608301600083015184820360008601526117618282610da6565b9150506020830151848203602086015261177b8282610da6565b915050604083015184820360408601526117958282610da6565b91505060608301516117aa6060860182610d40565b5060808301516117bd6080860182610d40565b5060a08301516117d060a0860182610d40565b5060c08301516117e360c0860182610d40565b5060e08301516117f660e0860182610d40565b5061010083015161180b610100860182610d40565b50610120830151611820610120860182610d40565b50610140830151611835610140860182610e47565b508091505092915050565b6000604082019050818103600083015261185a8185611654565b9050818103602083015261186e8184611743565b90509392505050565b600082825260208201905092915050565b7f496e73757265723a204f6e6c792074686520696e73757265722063616e20636160008201527f6c6c207468697300000000000000000000000000000000000000000000000000602082015250565b60006118e4602783611877565b91506118ef82611888565b604082019050919050565b60006020820190508181036000830152611913816118d7565b9050919050565b7f496e73756666696369656e742062616c616e6365000000000000000000000000600082015250565b6000611950601483611877565b915061195b8261191a565b602082019050919050565b6000602082019050818103600083015261197f81611943565b9050919050565b600067ffffffffffffffff8211156119a1576119a0611168565b5b602082029050602081019050919050565b600080fd5b6000815190506119c681610cbb565b92915050565b60006119df6119da846111f2565b6111c8565b9050828152602081018484840111156119fb576119fa6111ed565b5b611a06848285610d6b565b509392505050565b600082601f830112611a2357611a226111e8565b5b8151611a338482602086016119cc565b91505092915050565b600081519050611a4b816112a2565b92915050565b60006101608284031215611a6857611a67611163565b5b611a736101606111c8565b9050600082015167ffffffffffffffff811115611a9357611a926111e3565b5b611a9f84828501611a0e565b600083015250602082015167ffffffffffffffff811115611ac357611ac26111e3565b5b611acf84828501611a0e565b602083015250604082015167ffffffffffffffff811115611af357611af26111e3565b5b611aff84828501611a0e565b6040830152506060611b13848285016119b7565b6060830152506080611b27848285016119b7565b60808301525060a0611b3b848285016119b7565b60a08301525060c0611b4f848285016119b7565b60c08301525060e0611b63848285016119b7565b60e083015250610100611b78848285016119b7565b61010083015250610120611b8e848285016119b7565b61012083015250610140611ba484828501611a3c565b6101408301525092915050565b600081519050611bc081611512565b92915050565b60038110611bd357600080fd5b50565b600081519050611be581611bc6565b92915050565b60006101408284031215611c0257611c01611163565b5b611c0d6101406111c8565b90506000611c1d848285016119b7565b600083015250602082015167ffffffffffffffff811115611c4157611c406111e3565b5b611c4d84828501611a51565b602083015250604082015167ffffffffffffffff811115611c7157611c706111e3565b5b611c7d84828501611a0e565b604083015250606082015167ffffffffffffffff811115611ca157611ca06111e3565b5b611cad84828501611a0e565b606083015250608082015167ffffffffffffffff811115611cd157611cd06111e3565b5b611cdd84828501611a0e565b60808301525060a0611cf1848285016119b7565b60a08301525060c0611d05848285016119b7565b60c08301525060e0611d19848285016119b7565b60e083015250610100611d2e84828501611bb1565b61010083015250610120611d4484828501611bd6565b6101208301525092915050565b6000611d64611d5f84611986565b6111c8565b90508083825260208201905060208402830185811115611d8757611d866119b2565b5b835b81811015611dce57805167ffffffffffffffff811115611dac57611dab6111e8565b5b808601611db98982611beb565b85526020850194505050602081019050611d89565b5050509392505050565b600082601f830112611ded57611dec6111e8565b5b8151611dfd848260208601611d51565b91505092915050565b600060208284031215611e1c57611e1b610ca7565b5b600082015167ffffffffffffffff811115611e3a57611e39610cac565b5b611e4684828501611dd8565b91505092915050565b611e5881610cb1565b82525050565b6000602082019050611e736000830184611e4f565b92915050565b6000611e8482610d4f565b611e8e8185611877565b9350611e9e818560208601610d6b565b611ea781610d95565b840191505092915050565b600060c0820190508181036000830152611ecc8189611743565b90508181036020830152611ee08188611e79565b90508181036040830152611ef48187611e79565b90508181036060830152611f088186611e79565b9050611f176080830185611e4f565b611f2460a08301846115c7565b979650505050505050565b600060208284031215611f4557611f44610ca7565b5b6000611f53848285016119b7565b91505092915050565b600081905092915050565b6000611f7282610d4f565b611f7c8185611f5c565b9350611f8c818560208601610d6b565b80840191505092915050565b6000611fa48284611f67565b915081905092915050565b6000604082019050611fc460008301856115c7565b611fd16020830184611e4f565b9392505050565b60006020820190508181036000830152611ff28184611e79565b905092915050565b6000806040838503121561201157612010610ca7565b5b600083015167ffffffffffffffff81111561202f5761202e610cac565b5b61203b85828601611beb565b925050602083015167ffffffffffffffff81111561205c5761205b610cac565b5b61206885828601611a51565b915050925092905056fea2646970667358221220d0659b81fd1dee4df5d73ef182a92ca88a6ad831a2743d69b6d54f74d4ce03a964736f6c63430008130033",
  "linkReferences": {},
  "deployedLinkReferences": {}
}