{
  "_format": "hh-sol-artifact-1",
  "contractName": "Insurer",
  "sourceName": "contracts/Insurer.sol",
  "abi": [
    {
      "inputs": [
        {
          "internalType": "address",
          "name": "_flightPolicyAddress",
          "type": "address"
        }
      ],
      "stateMutability": "nonpayable",
      "type": "constructor"
    },
    {
      "anonymous": false,
      "inputs": [
        {
          "indexed": true,
          "internalType": "address",
          "name": "buyer",
          "type": "address"
        },
        {
          "indexed": true,
          "internalType": "uint256",
          "name": "policyId",
          "type": "uint256"
        }
      ],
      "name": "FlightPolicyClaimed",
      "type": "event"
    },
    {
      "anonymous": false,
      "inputs": [
        {
          "indexed": true,
          "internalType": "address",
          "name": "buyer",
          "type": "address"
        },
        {
          "indexed": true,
          "internalType": "uint256",
          "name": "policyId",
          "type": "uint256"
        },
        {
          "indexed": true,
          "internalType": "string",
          "name": "templateId",
          "type": "string"
        }
      ],
      "name": "FlightPolicyPurchased",
      "type": "event"
    },
    {
      "anonymous": false,
      "inputs": [
        {
          "indexed": true,
          "internalType": "address",
          "name": "insurer",
          "type": "address"
        },
        {
          "indexed": false,
          "internalType": "uint256",
          "name": "amount",
          "type": "uint256"
        }
      ],
      "name": "FundsDeposited",
      "type": "event"
    },
    {
      "anonymous": false,
      "inputs": [
        {
          "indexed": true,
          "internalType": "address",
          "name": "insurer",
          "type": "address"
        },
        {
          "indexed": false,
          "internalType": "uint256",
          "name": "amount",
          "type": "uint256"
        }
      ],
      "name": "FundsWithdrawn",
      "type": "event"
    },
    {
      "inputs": [
        {
          "internalType": "uint256",
          "name": "policyId",
          "type": "uint256"
        }
      ],
      "name": "claimFlightPayout",
      "outputs": [],
      "stateMutability": "nonpayable",
      "type": "function"
    },
    {
      "inputs": [],
      "name": "deposit",
      "outputs": [],
      "stateMutability": "payable",
      "type": "function"
    },
    {
      "inputs": [],
      "name": "flightPolicy",
      "outputs": [
        {
          "internalType": "contract FlightPolicy",
          "name": "",
          "type": "address"
        }
      ],
      "stateMutability": "view",
      "type": "function"
    },
    {
      "inputs": [],
      "name": "getAllFlightPolicies",
      "outputs": [
        {
          "components": [
            {
              "internalType": "uint256",
              "name": "policyId",
              "type": "uint256"
            },
            {
              "components": [
                {
                  "internalType": "string",
                  "name": "templateId",
                  "type": "string"
                },
                {
                  "internalType": "string",
                  "name": "name",
                  "type": "string"
                },
                {
                  "internalType": "string",
                  "name": "description",
                  "type": "string"
                },
                {
                  "internalType": "uint256",
                  "name": "createdAt",
                  "type": "uint256"
                },
                {
                  "internalType": "uint256",
                  "name": "updatedAt",
                  "type": "uint256"
                },
                {
                  "internalType": "uint256",
                  "name": "premium",
                  "type": "uint256"
                },
                {
                  "internalType": "uint256",
                  "name": "payoutPerHour",
                  "type": "uint256"
                },
                {
                  "internalType": "uint256",
                  "name": "delayThresholdHours",
                  "type": "uint256"
                },
                {
                  "internalType": "uint256",
                  "name": "maxTotalPayout",
                  "type": "uint256"
                },
                {
                  "internalType": "uint256",
                  "name": "coverageDurationDays",
                  "type": "uint256"
                },
                {
                  "internalType": "enum FlightPolicy.PolicyTemplateStatus",
                  "name": "status",
                  "type": "uint8"
                }
              ],
              "internalType": "struct FlightPolicy.PolicyTemplate",
              "name": "template",
              "type": "tuple"
            },
            {
              "internalType": "string",
              "name": "flightNumber",
              "type": "string"
            },
            {
              "internalType": "string",
              "name": "departureAirportCode",
              "type": "string"
            },
            {
              "internalType": "string",
              "name": "arrivalAirportCode",
              "type": "string"
            },
            {
              "internalType": "uint256",
              "name": "departureTime",
              "type": "uint256"
            },
            {
              "internalType": "uint256",
              "name": "createdAt",
              "type": "uint256"
            },
            {
              "internalType": "uint256",
              "name": "payoutToDate",
              "type": "uint256"
            },
            {
              "internalType": "address",
              "name": "buyer",
              "type": "address"
            },
            {
              "internalType": "enum FlightPolicy.PolicyStatus",
              "name": "status",
              "type": "uint8"
            }
          ],
          "internalType": "struct FlightPolicy.UserPolicy[]",
          "name": "",
          "type": "tuple[]"
        }
      ],
      "stateMutability": "view",
      "type": "function"
    },
    {
      "inputs": [],
      "name": "getContractBalance",
      "outputs": [
        {
          "internalType": "uint256",
          "name": "",
          "type": "uint256"
        }
      ],
      "stateMutability": "view",
      "type": "function"
    },
    {
      "inputs": [
        {
          "internalType": "address",
          "name": "user",
          "type": "address"
        }
      ],
      "name": "getUserFlightPolicies",
      "outputs": [
        {
          "components": [
            {
              "internalType": "uint256",
              "name": "policyId",
              "type": "uint256"
            },
            {
              "components": [
                {
                  "internalType": "string",
                  "name": "templateId",
                  "type": "string"
                },
                {
                  "internalType": "string",
                  "name": "name",
                  "type": "string"
                },
                {
                  "internalType": "string",
                  "name": "description",
                  "type": "string"
                },
                {
                  "internalType": "uint256",
                  "name": "createdAt",
                  "type": "uint256"
                },
                {
                  "internalType": "uint256",
                  "name": "updatedAt",
                  "type": "uint256"
                },
                {
                  "internalType": "uint256",
                  "name": "premium",
                  "type": "uint256"
                },
                {
                  "internalType": "uint256",
                  "name": "payoutPerHour",
                  "type": "uint256"
                },
                {
                  "internalType": "uint256",
                  "name": "delayThresholdHours",
                  "type": "uint256"
                },
                {
                  "internalType": "uint256",
                  "name": "maxTotalPayout",
                  "type": "uint256"
                },
                {
                  "internalType": "uint256",
                  "name": "coverageDurationDays",
                  "type": "uint256"
                },
                {
                  "internalType": "enum FlightPolicy.PolicyTemplateStatus",
                  "name": "status",
                  "type": "uint8"
                }
              ],
              "internalType": "struct FlightPolicy.PolicyTemplate",
              "name": "template",
              "type": "tuple"
            },
            {
              "internalType": "string",
              "name": "flightNumber",
              "type": "string"
            },
            {
              "internalType": "string",
              "name": "departureAirportCode",
              "type": "string"
            },
            {
              "internalType": "string",
              "name": "arrivalAirportCode",
              "type": "string"
            },
            {
              "internalType": "uint256",
              "name": "departureTime",
              "type": "uint256"
            },
            {
              "internalType": "uint256",
              "name": "createdAt",
              "type": "uint256"
            },
            {
              "internalType": "uint256",
              "name": "payoutToDate",
              "type": "uint256"
            },
            {
              "internalType": "address",
              "name": "buyer",
              "type": "address"
            },
            {
              "internalType": "enum FlightPolicy.PolicyStatus",
              "name": "status",
              "type": "uint8"
            }
          ],
          "internalType": "struct FlightPolicy.UserPolicy[]",
          "name": "",
          "type": "tuple[]"
        }
      ],
      "stateMutability": "view",
      "type": "function"
    },
    {
      "inputs": [
        {
          "internalType": "string",
          "name": "templateId",
          "type": "string"
        }
      ],
      "name": "getUserPoliciesByTemplate",
      "outputs": [
        {
          "components": [
            {
              "internalType": "uint256",
              "name": "policyId",
              "type": "uint256"
            },
            {
              "components": [
                {
                  "internalType": "string",
                  "name": "templateId",
                  "type": "string"
                },
                {
                  "internalType": "string",
                  "name": "name",
                  "type": "string"
                },
                {
                  "internalType": "string",
                  "name": "description",
                  "type": "string"
                },
                {
                  "internalType": "uint256",
                  "name": "createdAt",
                  "type": "uint256"
                },
                {
                  "internalType": "uint256",
                  "name": "updatedAt",
                  "type": "uint256"
                },
                {
                  "internalType": "uint256",
                  "name": "premium",
                  "type": "uint256"
                },
                {
                  "internalType": "uint256",
                  "name": "payoutPerHour",
                  "type": "uint256"
                },
                {
                  "internalType": "uint256",
                  "name": "delayThresholdHours",
                  "type": "uint256"
                },
                {
                  "internalType": "uint256",
                  "name": "maxTotalPayout",
                  "type": "uint256"
                },
                {
                  "internalType": "uint256",
                  "name": "coverageDurationDays",
                  "type": "uint256"
                },
                {
                  "internalType": "enum FlightPolicy.PolicyTemplateStatus",
                  "name": "status",
                  "type": "uint8"
                }
              ],
              "internalType": "struct FlightPolicy.PolicyTemplate",
              "name": "template",
              "type": "tuple"
            },
            {
              "internalType": "string",
              "name": "flightNumber",
              "type": "string"
            },
            {
              "internalType": "string",
              "name": "departureAirportCode",
              "type": "string"
            },
            {
              "internalType": "string",
              "name": "arrivalAirportCode",
              "type": "string"
            },
            {
              "internalType": "uint256",
              "name": "departureTime",
              "type": "uint256"
            },
            {
              "internalType": "uint256",
              "name": "createdAt",
              "type": "uint256"
            },
            {
              "internalType": "uint256",
              "name": "payoutToDate",
              "type": "uint256"
            },
            {
              "internalType": "address",
              "name": "buyer",
              "type": "address"
            },
            {
              "internalType": "enum FlightPolicy.PolicyStatus",
              "name": "status",
              "type": "uint8"
            }
          ],
          "internalType": "struct FlightPolicy.UserPolicy[]",
          "name": "",
          "type": "tuple[]"
        }
      ],
      "stateMutability": "view",
      "type": "function"
    },
    {
      "inputs": [],
      "name": "insurerAddress",
      "outputs": [
        {
          "internalType": "address",
          "name": "",
          "type": "address"
        }
      ],
      "stateMutability": "view",
      "type": "function"
    },
    {
      "inputs": [
        {
          "internalType": "address",
          "name": "user",
          "type": "address"
        }
      ],
      "name": "isInsurer",
      "outputs": [
        {
          "internalType": "bool",
          "name": "",
          "type": "bool"
        }
      ],
      "stateMutability": "view",
      "type": "function"
    },
    {
      "inputs": [
        {
          "internalType": "uint256",
          "name": "policyId",
          "type": "uint256"
        }
      ],
      "name": "markFlightPolicyAsExpired",
      "outputs": [],
      "stateMutability": "nonpayable",
      "type": "function"
    },
    {
      "inputs": [
        {
          "components": [
            {
              "internalType": "string",
              "name": "templateId",
              "type": "string"
            },
            {
              "internalType": "string",
              "name": "name",
              "type": "string"
            },
            {
              "internalType": "string",
              "name": "description",
              "type": "string"
            },
            {
              "internalType": "uint256",
              "name": "createdAt",
              "type": "uint256"
            },
            {
              "internalType": "uint256",
              "name": "updatedAt",
              "type": "uint256"
            },
            {
              "internalType": "uint256",
              "name": "premium",
              "type": "uint256"
            },
            {
              "internalType": "uint256",
              "name": "payoutPerHour",
              "type": "uint256"
            },
            {
              "internalType": "uint256",
              "name": "delayThresholdHours",
              "type": "uint256"
            },
            {
              "internalType": "uint256",
              "name": "maxTotalPayout",
              "type": "uint256"
            },
            {
              "internalType": "uint256",
              "name": "coverageDurationDays",
              "type": "uint256"
            },
            {
              "internalType": "enum FlightPolicy.PolicyTemplateStatus",
              "name": "status",
              "type": "uint8"
            }
          ],
          "internalType": "struct FlightPolicy.PolicyTemplate",
          "name": "template",
          "type": "tuple"
        },
        {
          "internalType": "string",
          "name": "flightNumber",
          "type": "string"
        },
        {
          "internalType": "string",
          "name": "departureAirportCode",
          "type": "string"
        },
        {
          "internalType": "string",
          "name": "arrivalAirportCode",
          "type": "string"
        },
        {
          "internalType": "uint256",
          "name": "departureTime",
          "type": "uint256"
        }
      ],
      "name": "purchaseFlightPolicy",
      "outputs": [],
      "stateMutability": "payable",
      "type": "function"
    },
    {
      "inputs": [
        {
          "internalType": "uint256",
          "name": "amountInWei",
          "type": "uint256"
        }
      ],
      "name": "withdraw",
      "outputs": [],
      "stateMutability": "nonpayable",
      "type": "function"
    },
    {
      "stateMutability": "payable",
      "type": "receive"
    }
  ],
  "bytecode": "0x60a06040523480156200001157600080fd5b50604051620021583803806200215883398181016040528101906200003791906200011c565b3373ffffffffffffffffffffffffffffffffffffffff1660808173ffffffffffffffffffffffffffffffffffffffff1681525050806000806101000a81548173ffffffffffffffffffffffffffffffffffffffff021916908373ffffffffffffffffffffffffffffffffffffffff160217905550506200014e565b600080fd5b600073ffffffffffffffffffffffffffffffffffffffff82169050919050565b6000620000e482620000b7565b9050919050565b620000f681620000d7565b81146200010257600080fd5b50565b6000815190506200011681620000eb565b92915050565b600060208284031215620001355762000134620000b2565b5b6000620001458482850162000105565b91505092915050565b608051611faf620001a9600039600081816103b501528181610486015281816104ed0152818161056001528181610687015281816107a5015281816109f301528181610abf01528181610b900152610c020152611faf6000f3fe6080604052600436106100ab5760003560e01c80638350e578116100645780638350e578146101b35780639c6cf7ef146101cf578063a7c0900e1461020c578063b715521b14610237578063d0e30db014610274578063da7897e21461027e576100b2565b806307116510146100b7578063260d47c5146100e25780632e1a7d4d1461010b5780634dd7b2a8146101345780636906496e1461015f5780636f9fb98a14610188576100b2565b366100b257005b600080fd5b3480156100c357600080fd5b506100cc6102bb565b6040516100d99190610cd5565b60405180910390f35b3480156100ee57600080fd5b5061010960048036038101906101049190610d3a565b6102df565b005b34801561011757600080fd5b50610132600480360381019061012d9190610d3a565b6103b3565b005b34801561014057600080fd5b5061014961055c565b6040516101569190611194565b60405180910390f35b34801561016b57600080fd5b5061018660048036038101906101819190610d3a565b610685565b005b34801561019457600080fd5b5061019d6107a1565b6040516101aa91906111c5565b60405180910390f35b6101cd60048036038101906101c891906114a4565b610837565b005b3480156101db57600080fd5b506101f660048036038101906101f1919061158f565b610949565b6040516102039190611194565b60405180910390f35b34801561021857600080fd5b506102216109f1565b60405161022e91906115e7565b60405180910390f35b34801561024357600080fd5b5061025e6004803603810190610259919061162e565b610a15565b60405161026b9190611194565b60405180910390f35b61027c610abd565b005b34801561028a57600080fd5b506102a560048036038101906102a0919061162e565b610bfe565b6040516102b29190611676565b60405180910390f35b60008054906101000a900473ffffffffffffffffffffffffffffffffffffffff1681565b60008054906101000a900473ffffffffffffffffffffffffffffffffffffffff1673ffffffffffffffffffffffffffffffffffffffff1663b0110cc682336040518363ffffffff1660e01b815260040161033a929190611691565b600060405180830381600087803b15801561035457600080fd5b505af1158015610368573d6000803e3d6000fd5b50505050803373ffffffffffffffffffffffffffffffffffffffff167fd97fa6902eb91d71aea44cc906baaea3f41dab00c2f987da7f9d97b28172d40660405160405180910390a350565b7f000000000000000000000000000000000000000000000000000000000000000073ffffffffffffffffffffffffffffffffffffffff163373ffffffffffffffffffffffffffffffffffffffff1614610441576040517f08c379a00000000000000000000000000000000000000000000000000000000081526004016104389061173d565b60405180910390fd5b80471015610484576040517f08c379a000000000000000000000000000000000000000000000000000000000815260040161047b906117a9565b60405180910390fd5b7f000000000000000000000000000000000000000000000000000000000000000073ffffffffffffffffffffffffffffffffffffffff166108fc829081150290604051600060405180830381858888f193505050501580156104ea573d6000803e3d6000fd5b507f000000000000000000000000000000000000000000000000000000000000000073ffffffffffffffffffffffffffffffffffffffff167feaff4b37086828766ad3268786972c0cd24259d4c87a80f9d3963a3c3d999b0d8260405161055191906111c5565b60405180910390a250565b60607f000000000000000000000000000000000000000000000000000000000000000073ffffffffffffffffffffffffffffffffffffffff163373ffffffffffffffffffffffffffffffffffffffff16146105ec576040517f08c379a00000000000000000000000000000000000000000000000000000000081526004016105e39061173d565b60405180910390fd5b60008054906101000a900473ffffffffffffffffffffffffffffffffffffffff1673ffffffffffffffffffffffffffffffffffffffff1663457e55216040518163ffffffff1660e01b8152600401600060405180830381865afa158015610657573d6000803e3d6000fd5b505050506040513d6000823e3d601f19601f820116820180604052508101906106809190611c49565b905090565b7f000000000000000000000000000000000000000000000000000000000000000073ffffffffffffffffffffffffffffffffffffffff163373ffffffffffffffffffffffffffffffffffffffff1614610713576040517f08c379a000000000000000000000000000000000000000000000000000000000815260040161070a9061173d565b60405180910390fd5b60008054906101000a900473ffffffffffffffffffffffffffffffffffffffff1673ffffffffffffffffffffffffffffffffffffffff1663cf39c624826040518263ffffffff1660e01b815260040161076c91906111c5565b600060405180830381600087803b15801561078657600080fd5b505af115801561079a573d6000803e3d6000fd5b5050505050565b60007f000000000000000000000000000000000000000000000000000000000000000073ffffffffffffffffffffffffffffffffffffffff163373ffffffffffffffffffffffffffffffffffffffff1614610831576040517f08c379a00000000000000000000000000000000000000000000000000000000081526004016108289061173d565b60405180910390fd5b47905090565b60008060009054906101000a900473ffffffffffffffffffffffffffffffffffffffff1673ffffffffffffffffffffffffffffffffffffffff166331953ecc348888888888336040518863ffffffff1660e01b815260040161089e96959493929190611dc8565b60206040518083038185885af11580156108bc573d6000803e3d6000fd5b50505050506040513d601f19601f820116820180604052508101906108e19190611e45565b905085600001516040516108f59190611eae565b6040518091039020813373ffffffffffffffffffffffffffffffffffffffff167f43617ea01c45d3386d7be4a6cb66bf94c0152a674cbd34a5de81ed135dfd7b1760405160405180910390a4505050505050565b606060008054906101000a900473ffffffffffffffffffffffffffffffffffffffff1673ffffffffffffffffffffffffffffffffffffffff16639c6cf7ef836040518263ffffffff1660e01b81526004016109a49190611ec5565b600060405180830381865afa1580156109c1573d6000803e3d6000fd5b505050506040513d6000823e3d601f19601f820116820180604052508101906109ea9190611c49565b9050919050565b7f000000000000000000000000000000000000000000000000000000000000000081565b606060008054906101000a900473ffffffffffffffffffffffffffffffffffffffff1673ffffffffffffffffffffffffffffffffffffffff166319ac4614836040518263ffffffff1660e01b8152600401610a7091906115e7565b600060405180830381865afa158015610a8d573d6000803e3d6000fd5b505050506040513d6000823e3d601f19601f82011682018060405250810190610ab69190611c49565b9050919050565b7f000000000000000000000000000000000000000000000000000000000000000073ffffffffffffffffffffffffffffffffffffffff163373ffffffffffffffffffffffffffffffffffffffff1614610b4b576040517f08c379a0000000000000000000000000000000000000000000000000000000008152600401610b429061173d565b60405180910390fd5b60003411610b8e576040517f08c379a0000000000000000000000000000000000000000000000000000000008152600401610b8590611f59565b60405180910390fd5b7f000000000000000000000000000000000000000000000000000000000000000073ffffffffffffffffffffffffffffffffffffffff167f543ba50a5eec5e6178218e364b1d0f396157b3c8fa278522c2cb7fd99407d47434604051610bf491906111c5565b60405180910390a2565b60007f000000000000000000000000000000000000000000000000000000000000000073ffffffffffffffffffffffffffffffffffffffff168273ffffffffffffffffffffffffffffffffffffffff16149050919050565b600073ffffffffffffffffffffffffffffffffffffffff82169050919050565b6000819050919050565b6000610c9b610c96610c9184610c56565b610c76565b610c56565b9050919050565b6000610cad82610c80565b9050919050565b6000610cbf82610ca2565b9050919050565b610ccf81610cb4565b82525050565b6000602082019050610cea6000830184610cc6565b92915050565b6000604051905090565b600080fd5b600080fd5b6000819050919050565b610d1781610d04565b8114610d2257600080fd5b50565b600081359050610d3481610d0e565b92915050565b600060208284031215610d5057610d4f610cfa565b5b6000610d5e84828501610d25565b91505092915050565b600081519050919050565b600082825260208201905092915050565b6000819050602082019050919050565b610d9c81610d04565b82525050565b600081519050919050565b600082825260208201905092915050565b60005b83811015610ddc578082015181840152602081019050610dc1565b60008484015250505050565b6000601f19601f8301169050919050565b6000610e0482610da2565b610e0e8185610dad565b9350610e1e818560208601610dbe565b610e2781610de8565b840191505092915050565b7f4e487b7100000000000000000000000000000000000000000000000000000000600052602160045260246000fd5b60028110610e7257610e71610e32565b5b50565b6000819050610e8382610e61565b919050565b6000610e9382610e75565b9050919050565b610ea381610e88565b82525050565b6000610160830160008301518482036000860152610ec78282610df9565b91505060208301518482036020860152610ee18282610df9565b91505060408301518482036040860152610efb8282610df9565b9150506060830151610f106060860182610d93565b506080830151610f236080860182610d93565b5060a0830151610f3660a0860182610d93565b5060c0830151610f4960c0860182610d93565b5060e0830151610f5c60e0860182610d93565b50610100830151610f71610100860182610d93565b50610120830151610f86610120860182610d93565b50610140830151610f9b610140860182610e9a565b508091505092915050565b6000610fb182610c56565b9050919050565b610fc181610fa6565b82525050565b60038110610fd857610fd7610e32565b5b50565b6000819050610fe982610fc7565b919050565b6000610ff982610fdb565b9050919050565b61100981610fee565b82525050565b6000610140830160008301516110286000860182610d93565b50602083015184820360208601526110408282610ea9565b9150506040830151848203604086015261105a8282610df9565b915050606083015184820360608601526110748282610df9565b9150506080830151848203608086015261108e8282610df9565b91505060a08301516110a360a0860182610d93565b5060c08301516110b660c0860182610d93565b5060e08301516110c960e0860182610d93565b506101008301516110de610100860182610fb8565b506101208301516110f3610120860182611000565b508091505092915050565b600061110a838361100f565b905092915050565b6000602082019050919050565b600061112a82610d67565b6111348185610d72565b93508360208202850161114685610d83565b8060005b85811015611182578484038952815161116385826110fe565b945061116e83611112565b925060208a0199505060018101905061114a565b50829750879550505050505092915050565b600060208201905081810360008301526111ae818461111f565b905092915050565b6111bf81610d04565b82525050565b60006020820190506111da60008301846111b6565b92915050565b600080fd5b7f4e487b7100000000000000000000000000000000000000000000000000000000600052604160045260246000fd5b61121d82610de8565b810181811067ffffffffffffffff8211171561123c5761123b6111e5565b5b80604052505050565b600061124f610cf0565b905061125b8282611214565b919050565b600080fd5b600080fd5b600080fd5b600067ffffffffffffffff82111561128a576112896111e5565b5b61129382610de8565b9050602081019050919050565b82818337600083830152505050565b60006112c26112bd8461126f565b611245565b9050828152602081018484840111156112de576112dd61126a565b5b6112e98482856112a0565b509392505050565b600082601f83011261130657611305611265565b5b81356113168482602086016112af565b91505092915050565b6002811061132c57600080fd5b50565b60008135905061133e8161131f565b92915050565b6000610160828403121561135b5761135a6111e0565b5b611366610160611245565b9050600082013567ffffffffffffffff81111561138657611385611260565b5b611392848285016112f1565b600083015250602082013567ffffffffffffffff8111156113b6576113b5611260565b5b6113c2848285016112f1565b602083015250604082013567ffffffffffffffff8111156113e6576113e5611260565b5b6113f2848285016112f1565b604083015250606061140684828501610d25565b606083015250608061141a84828501610d25565b60808301525060a061142e84828501610d25565b60a08301525060c061144284828501610d25565b60c08301525060e061145684828501610d25565b60e08301525061010061146b84828501610d25565b6101008301525061012061148184828501610d25565b610120830152506101406114978482850161132f565b6101408301525092915050565b600080600080600060a086880312156114c0576114bf610cfa565b5b600086013567ffffffffffffffff8111156114de576114dd610cff565b5b6114ea88828901611344565b955050602086013567ffffffffffffffff81111561150b5761150a610cff565b5b611517888289016112f1565b945050604086013567ffffffffffffffff81111561153857611537610cff565b5b611544888289016112f1565b935050606086013567ffffffffffffffff81111561156557611564610cff565b5b611571888289016112f1565b925050608061158288828901610d25565b9150509295509295909350565b6000602082840312156115a5576115a4610cfa565b5b600082013567ffffffffffffffff8111156115c3576115c2610cff565b5b6115cf848285016112f1565b91505092915050565b6115e181610fa6565b82525050565b60006020820190506115fc60008301846115d8565b92915050565b61160b81610fa6565b811461161657600080fd5b50565b60008135905061162881611602565b92915050565b60006020828403121561164457611643610cfa565b5b600061165284828501611619565b91505092915050565b60008115159050919050565b6116708161165b565b82525050565b600060208201905061168b6000830184611667565b92915050565b60006040820190506116a660008301856111b6565b6116b360208301846115d8565b9392505050565b600082825260208201905092915050565b7f496e73757265723a204f6e6c792074686520696e73757265722063616e20636160008201527f6c6c207468697300000000000000000000000000000000000000000000000000602082015250565b60006117276027836116ba565b9150611732826116cb565b604082019050919050565b600060208201905081810360008301526117568161171a565b9050919050565b7f496e73756666696369656e742062616c616e6365000000000000000000000000600082015250565b60006117936014836116ba565b915061179e8261175d565b602082019050919050565b600060208201905081810360008301526117c281611786565b9050919050565b600067ffffffffffffffff8211156117e4576117e36111e5565b5b602082029050602081019050919050565b600080fd5b60008151905061180981610d0e565b92915050565b600061182261181d8461126f565b611245565b90508281526020810184848401111561183e5761183d61126a565b5b611849848285610dbe565b509392505050565b600082601f83011261186657611865611265565b5b815161187684826020860161180f565b91505092915050565b60008151905061188e8161131f565b92915050565b600061016082840312156118ab576118aa6111e0565b5b6118b6610160611245565b9050600082015167ffffffffffffffff8111156118d6576118d5611260565b5b6118e284828501611851565b600083015250602082015167ffffffffffffffff81111561190657611905611260565b5b61191284828501611851565b602083015250604082015167ffffffffffffffff81111561193657611935611260565b5b61194284828501611851565b6040830152506060611956848285016117fa565b606083015250608061196a848285016117fa565b60808301525060a061197e848285016117fa565b60a08301525060c0611992848285016117fa565b60c08301525060e06119a6848285016117fa565b60e0830152506101006119bb848285016117fa565b610100830152506101206119d1848285016117fa565b610120830152506101406119e78482850161187f565b6101408301525092915050565b600081519050611a0381611602565b92915050565b60038110611a1657600080fd5b50565b600081519050611a2881611a09565b92915050565b60006101408284031215611a4557611a446111e0565b5b611a50610140611245565b90506000611a60848285016117fa565b600083015250602082015167ffffffffffffffff811115611a8457611a83611260565b5b611a9084828501611894565b602083015250604082015167ffffffffffffffff811115611ab457611ab3611260565b5b611ac084828501611851565b604083015250606082015167ffffffffffffffff811115611ae457611ae3611260565b5b611af084828501611851565b606083015250608082015167ffffffffffffffff811115611b1457611b13611260565b5b611b2084828501611851565b60808301525060a0611b34848285016117fa565b60a08301525060c0611b48848285016117fa565b60c08301525060e0611b5c848285016117fa565b60e083015250610100611b71848285016119f4565b61010083015250610120611b8784828501611a19565b6101208301525092915050565b6000611ba7611ba2846117c9565b611245565b90508083825260208201905060208402830185811115611bca57611bc96117f5565b5b835b81811015611c1157805167ffffffffffffffff811115611bef57611bee611265565b5b808601611bfc8982611a2e565b85526020850194505050602081019050611bcc565b5050509392505050565b600082601f830112611c3057611c2f611265565b5b8151611c40848260208601611b94565b91505092915050565b600060208284031215611c5f57611c5e610cfa565b5b600082015167ffffffffffffffff811115611c7d57611c7c610cff565b5b611c8984828501611c1b565b91505092915050565b6000610160830160008301518482036000860152611cb08282610df9565b91505060208301518482036020860152611cca8282610df9565b91505060408301518482036040860152611ce48282610df9565b9150506060830151611cf96060860182610d93565b506080830151611d0c6080860182610d93565b5060a0830151611d1f60a0860182610d93565b5060c0830151611d3260c0860182610d93565b5060e0830151611d4560e0860182610d93565b50610100830151611d5a610100860182610d93565b50610120830151611d6f610120860182610d93565b50610140830151611d84610140860182610e9a565b508091505092915050565b6000611d9a82610da2565b611da481856116ba565b9350611db4818560208601610dbe565b611dbd81610de8565b840191505092915050565b600060c0820190508181036000830152611de28189611c92565b90508181036020830152611df68188611d8f565b90508181036040830152611e0a8187611d8f565b90508181036060830152611e1e8186611d8f565b9050611e2d60808301856111b6565b611e3a60a08301846115d8565b979650505050505050565b600060208284031215611e5b57611e5a610cfa565b5b6000611e69848285016117fa565b91505092915050565b600081905092915050565b6000611e8882610da2565b611e928185611e72565b9350611ea2818560208601610dbe565b80840191505092915050565b6000611eba8284611e7d565b915081905092915050565b60006020820190508181036000830152611edf8184611d8f565b905092915050565b7f496e73757265723a204d757374206465706f736974206120706f73697469766560008201527f20616d6f756e7400000000000000000000000000000000000000000000000000602082015250565b6000611f436027836116ba565b9150611f4e82611ee7565b604082019050919050565b60006020820190508181036000830152611f7281611f36565b905091905056fea26469706673582212203d236752a7952cbb1ab087ae3ce52959c0f125b126d8a3fb9e33ad55cc49159364736f6c63430008130033",
  "linkReferences": {},
  "deployedLinkReferences": {}
}