{
  "_format": "hh-sol-artifact-1",
  "contractName": "MockOracle",
  "sourceName": "contracts/MockOracle.sol",
  "abi": [
    {
      "inputs": [
        {
          "internalType": "address",
          "name": "_linkToken",
          "type": "address"
        }
      ],
      "stateMutability": "nonpayable",
      "type": "constructor"
    },
    {
      "anonymous": false,
      "inputs": [
        {
          "indexed": false,
          "internalType": "bytes32",
          "name": "requestId",
          "type": "bytes32"
        },
        {
          "indexed": false,
          "internalType": "string",
          "name": "reason",
          "type": "string"
        }
      ],
      "name": "CallbackFailure",
      "type": "event"
    },
    {
      "anonymous": false,
      "inputs": [
        {
          "indexed": true,
          "internalType": "bytes32",
          "name": "requestId",
          "type": "bytes32"
        },
        {
          "indexed": true,
          "internalType": "address",
          "name": "oracleAddress",
          "type": "address"
        },
        {
          "indexed": false,
          "internalType": "string",
          "name": "url",
          "type": "string"
        },
        {
          "indexed": false,
          "internalType": "string",
          "name": "path",
          "type": "string"
        }
      ],
      "name": "OracleRequest",
      "type": "event"
    },
    {
      "anonymous": false,
      "inputs": [
        {
          "indexed": true,
          "internalType": "bytes32",
          "name": "requestId",
          "type": "bytes32"
        },
        {
          "indexed": false,
          "internalType": "uint256",
          "name": "data",
          "type": "uint256"
        }
      ],
      "name": "OracleResponse",
      "type": "event"
    },
    {
      "anonymous": false,
      "inputs": [
        {
          "indexed": false,
          "internalType": "bytes32",
          "name": "requestId",
          "type": "bytes32"
        },
        {
          "indexed": false,
          "internalType": "uint256",
          "name": "delayMinutes",
          "type": "uint256"
        }
      ],
      "name": "TestCallback",
      "type": "event"
    },
    {
      "inputs": [
        {
          "internalType": "bytes32",
          "name": "requestId",
          "type": "bytes32"
        },
        {
          "internalType": "uint256",
          "name": "data",
          "type": "uint256"
        }
      ],
      "name": "fulfillDataFromOffChain",
      "outputs": [],
      "stateMutability": "nonpayable",
      "type": "function"
    },
    {
      "inputs": [
        {
          "internalType": "address",
          "name": "_callbackAddress",
          "type": "address"
        },
        {
          "internalType": "bytes4",
          "name": "_callbackFunctionId",
          "type": "bytes4"
        },
        {
          "internalType": "uint256",
          "name": "fee",
          "type": "uint256"
        },
        {
          "internalType": "bytes32",
          "name": "jobId",
          "type": "bytes32"
        },
        {
          "internalType": "string",
          "name": "url",
          "type": "string"
        },
        {
          "internalType": "string",
          "name": "path",
          "type": "string"
        }
      ],
      "name": "mockChainlinkRequest",
      "outputs": [
        {
          "internalType": "bytes32",
          "name": "requestID",
          "type": "bytes32"
        }
      ],
      "stateMutability": "nonpayable",
      "type": "function"
    },
    {
      "inputs": [
        {
          "internalType": "bytes32",
          "name": "",
          "type": "bytes32"
        }
      ],
      "name": "requests",
      "outputs": [
        {
          "internalType": "address",
          "name": "requester",
          "type": "address"
        },
        {
          "internalType": "bytes4",
          "name": "callbackFunctionId",
          "type": "bytes4"
        },
        {
          "internalType": "bool",
          "name": "fulfilled",
          "type": "bool"
        },
        {
          "internalType": "uint256",
          "name": "fee",
          "type": "uint256"
        },
        {
          "internalType": "bytes32",
          "name": "jobId",
          "type": "bytes32"
        }
      ],
      "stateMutability": "view",
      "type": "function"
    },
    {
      "inputs": [
        {
          "internalType": "bytes32",
          "name": "requestId",
          "type": "bytes32"
        },
        {
          "internalType": "address",
          "name": "callbackAddress",
          "type": "address"
        },
        {
          "internalType": "bytes4",
          "name": "callbackFunctionId",
          "type": "bytes4"
        },
        {
          "internalType": "uint256",
          "name": "data",
          "type": "uint256"
        }
      ],
      "name": "simulateResponse",
      "outputs": [],
      "stateMutability": "nonpayable",
      "type": "function"
    }
  ],
  "bytecode": "0x60806040523480156200001157600080fd5b50604051620012a6380380620012a68339818101604052810190620000379190620000e8565b806000806101000a81548173ffffffffffffffffffffffffffffffffffffffff021916908373ffffffffffffffffffffffffffffffffffffffff160217905550506200011a565b600080fd5b600073ffffffffffffffffffffffffffffffffffffffff82169050919050565b6000620000b08262000083565b9050919050565b620000c281620000a3565b8114620000ce57600080fd5b50565b600081519050620000e281620000b7565b92915050565b6000602082840312156200010157620001006200007e565b5b60006200011184828501620000d1565b91505092915050565b61117c806200012a6000396000f3fe608060405234801561001057600080fd5b506004361061004c5760003560e01c8063146f349f146100515780639d8669851461006d578063d1e55902146100a1578063f28f4864146100bd575b600080fd5b61006b600480360381019061006691906109f3565b6100ed565b005b61008760048036038101906100829190610a5a565b6103ba565b604051610098959493929190610ade565b60405180910390f35b6100bb60048036038101906100b69190610b31565b61042a565b005b6100d760048036038101906100d29190610cb7565b6106af565b6040516100e49190610d7c565b60405180910390f35b600073ffffffffffffffffffffffffffffffffffffffff166001600086815260200190815260200160002060000160009054906101000a900473ffffffffffffffffffffffffffffffffffffffff1673ffffffffffffffffffffffffffffffffffffffff161415801561018157506001600085815260200190815260200160002060000160189054906101000a900460ff16155b1561037b57600180600086815260200190815260200160002060000160186101000a81548160ff0219169083151502179055506000808473ffffffffffffffffffffffffffffffffffffffff168487856040516024016101e2929190610d97565b604051602081830303815290604052907bffffffffffffffffffffffffffffffffffffffffffffffffffffffff19166020820180517bffffffffffffffffffffffffffffffffffffffffffffffffffffffff838183161783525050505060405161024c9190610e31565b6000604051808303816000865af19150503d8060008114610289576040519150601f19603f3d011682016040523d82523d6000602084013e61028e565b606091505b509150915081156102d657857f85bf8b8e60a8c6b59049f9fc9d75146f9c93aa7ec0ebfc32b477da4bb8d17e72846040516102c99190610e48565b60405180910390a2610374565b60006001600088815260200190815260200160002060000160186101000a81548160ff0219169083151502179055506060600082511115610318576020820190505b806040516020016103299190610ef6565b6040516020818303038152906040526040517f08c379a000000000000000000000000000000000000000000000000000000000815260040161036b9190610f62565b60405180910390fd5b50506103b4565b837f85bf8b8e60a8c6b59049f9fc9d75146f9c93aa7ec0ebfc32b477da4bb8d17e72826040516103ab9190610e48565b60405180910390a25b50505050565b60016020528060005260406000206000915090508060000160009054906101000a900473ffffffffffffffffffffffffffffffffffffffff16908060000160149054906101000a900460e01b908060000160189054906101000a900460ff16908060010154908060020154905085565b60006001600084815260200190815260200160002090507f0a94f26cd7fef827995e72b2b295d1bfbd730d8199174fdaeb10b8bcc058d6998383604051610472929190610d97565b60405180910390a18060000160189054906101000a900460ff16156104cf57827f85bf8b8e60a8c6b59049f9fc9d75146f9c93aa7ec0ebfc32b477da4bb8d17e72836040516104c19190610e48565b60405180910390a2506106ab565b60018160000160186101000a81548160ff0219169083151502179055506000808260000160009054906101000a900473ffffffffffffffffffffffffffffffffffffffff1673ffffffffffffffffffffffffffffffffffffffff168360000160149054906101000a900460e01b868660405160240161054f929190610d97565b604051602081830303815290604052907bffffffffffffffffffffffffffffffffffffffffffffffffffffffff19166020820180517bffffffffffffffffffffffffffffffffffffffffffffffffffffffff83818316178352505050506040516105b99190610e31565b6000604051808303816000865af19150503d80600081146105f6576040519150601f19603f3d011682016040523d82523d6000602084013e6105fb565b606091505b50915091508161066e5760008360000160186101000a81548160ff021916908315150217905550600061062d82610852565b90507f2604ed5fa68e04308d34678020c1ad050d0de0caa6a331ae4d232bab299da4878682604051610660929190610f84565b60405180910390a1506106a7565b847f85bf8b8e60a8c6b59049f9fc9d75146f9c93aa7ec0ebfc32b477da4bb8d17e728560405161069e9190610e48565b60405180910390a25b5050505b5050565b6000803342856040516020016106c79392919061101d565b6040516020818303038152906040528051906020012090506040518060a001604052808973ffffffffffffffffffffffffffffffffffffffff168152602001887bffffffffffffffffffffffffffffffffffffffffffffffffffffffff19168152602001600015158152602001878152602001868152506001600083815260200190815260200160002060008201518160000160006101000a81548173ffffffffffffffffffffffffffffffffffffffff021916908373ffffffffffffffffffffffffffffffffffffffff16021790555060208201518160000160146101000a81548163ffffffff021916908360e01c021790555060408201518160000160186101000a81548160ff02191690831515021790555060608201518160010155608082015181600201559050503073ffffffffffffffffffffffffffffffffffffffff16817fe78bc9b884ad256dc79a35699a2b18735f6920a604e10e6a63fa79872a93ebe5868660405161083c929190611056565b60405180910390a3809150509695505050505050565b606060448251101561089b576040518060400160405280601d81526020017f5472616e73616374696f6e2072657665727465642073696c656e746c7900000081525090506108b8565b600482019150818060200190518101906108b591906110fd565b90505b919050565b6000604051905090565b600080fd5b600080fd5b6000819050919050565b6108e4816108d1565b81146108ef57600080fd5b50565b600081359050610901816108db565b92915050565b600073ffffffffffffffffffffffffffffffffffffffff82169050919050565b600061093282610907565b9050919050565b61094281610927565b811461094d57600080fd5b50565b60008135905061095f81610939565b92915050565b60007fffffffff0000000000000000000000000000000000000000000000000000000082169050919050565b61099a81610965565b81146109a557600080fd5b50565b6000813590506109b781610991565b92915050565b6000819050919050565b6109d0816109bd565b81146109db57600080fd5b50565b6000813590506109ed816109c7565b92915050565b60008060008060808587031215610a0d57610a0c6108c7565b5b6000610a1b878288016108f2565b9450506020610a2c87828801610950565b9350506040610a3d878288016109a8565b9250506060610a4e878288016109de565b91505092959194509250565b600060208284031215610a7057610a6f6108c7565b5b6000610a7e848285016108f2565b91505092915050565b610a9081610927565b82525050565b610a9f81610965565b82525050565b60008115159050919050565b610aba81610aa5565b82525050565b610ac9816109bd565b82525050565b610ad8816108d1565b82525050565b600060a082019050610af36000830188610a87565b610b006020830187610a96565b610b0d6040830186610ab1565b610b1a6060830185610ac0565b610b276080830184610acf565b9695505050505050565b60008060408385031215610b4857610b476108c7565b5b6000610b56858286016108f2565b9250506020610b67858286016109de565b9150509250929050565b600080fd5b600080fd5b6000601f19601f8301169050919050565b7f4e487b7100000000000000000000000000000000000000000000000000000000600052604160045260246000fd5b610bc482610b7b565b810181811067ffffffffffffffff82111715610be357610be2610b8c565b5b80604052505050565b6000610bf66108bd565b9050610c028282610bbb565b919050565b600067ffffffffffffffff821115610c2257610c21610b8c565b5b610c2b82610b7b565b9050602081019050919050565b82818337600083830152505050565b6000610c5a610c5584610c07565b610bec565b905082815260208101848484011115610c7657610c75610b76565b5b610c81848285610c38565b509392505050565b600082601f830112610c9e57610c9d610b71565b5b8135610cae848260208601610c47565b91505092915050565b60008060008060008060c08789031215610cd457610cd36108c7565b5b6000610ce289828a01610950565b9650506020610cf389828a016109a8565b9550506040610d0489828a016109de565b9450506060610d1589828a016108f2565b935050608087013567ffffffffffffffff811115610d3657610d356108cc565b5b610d4289828a01610c89565b92505060a087013567ffffffffffffffff811115610d6357610d626108cc565b5b610d6f89828a01610c89565b9150509295509295509295565b6000602082019050610d916000830184610acf565b92915050565b6000604082019050610dac6000830185610acf565b610db96020830184610ac0565b9392505050565b600081519050919050565b600081905092915050565b60005b83811015610df4578082015181840152602081019050610dd9565b60008484015250505050565b6000610e0b82610dc0565b610e158185610dcb565b9350610e25818560208601610dd6565b80840191505092915050565b6000610e3d8284610e00565b915081905092915050565b6000602082019050610e5d6000830184610ac0565b92915050565b600081905092915050565b7f43616c6c6261636b206661696c65643a20000000000000000000000000000000600082015250565b6000610ea4601183610e63565b9150610eaf82610e6e565b601182019050919050565b600081519050919050565b6000610ed082610eba565b610eda8185610e63565b9350610eea818560208601610dd6565b80840191505092915050565b6000610f0182610e97565b9150610f0d8284610ec5565b915081905092915050565b600082825260208201905092915050565b6000610f3482610eba565b610f3e8185610f18565b9350610f4e818560208601610dd6565b610f5781610b7b565b840191505092915050565b60006020820190508181036000830152610f7c8184610f29565b905092915050565b6000604082019050610f996000830185610acf565b8181036020830152610fab8184610f29565b90509392505050565b60008160601b9050919050565b6000610fcc82610fb4565b9050919050565b6000610fde82610fc1565b9050919050565b610ff6610ff182610927565b610fd3565b82525050565b6000819050919050565b611017611012826109bd565b610ffc565b82525050565b60006110298286610fe5565b6014820191506110398285611006565b6020820191506110498284610ec5565b9150819050949350505050565b600060408201905081810360008301526110708185610f29565b905081810360208301526110848184610f29565b90509392505050565b60006110a061109b84610c07565b610bec565b9050828152602081018484840111156110bc576110bb610b76565b5b6110c7848285610dd6565b509392505050565b600082601f8301126110e4576110e3610b71565b5b81516110f484826020860161108d565b91505092915050565b600060208284031215611113576111126108c7565b5b600082015167ffffffffffffffff811115611131576111306108cc565b5b61113d848285016110cf565b9150509291505056fea26469706673582212202a98fc3790fe6448a636e2492b79a9827ee34d45715cfc7e317b8190e603b64b64736f6c63430008130033",
  "linkReferences": {},
  "deployedLinkReferences": {}
}