{
  "_format": "hh-sol-artifact-1",
  "contractName": "OracleConnector",
  "sourceName": "contracts/OracleConnector.sol",
  "abi": [
    {
      "inputs": [
        {
          "internalType": "address",
          "name": "_linkToken",
          "type": "address"
        }
      ],
      "stateMutability": "nonpayable",
      "type": "constructor"
    },
    {
      "anonymous": false,
      "inputs": [
        {
          "indexed": true,
          "internalType": "bytes32",
          "name": "requestId",
          "type": "bytes32"
        },
        {
          "indexed": false,
          "internalType": "string",
          "name": "flightNumber",
          "type": "string"
        },
        {
          "indexed": false,
          "internalType": "string",
          "name": "departureTime",
          "type": "string"
        },
        {
          "indexed": false,
          "internalType": "string",
          "name": "itemDescription",
          "type": "string"
        },
        {
          "indexed": false,
          "internalType": "uint256",
          "name": "retrievedBaggageStatus",
          "type": "uint256"
        }
      ],
      "name": "BaggageDataRecieved",
      "type": "event"
    },
    {
      "anonymous": false,
      "inputs": [
        {
          "indexed": true,
          "internalType": "bytes32",
          "name": "requestId",
          "type": "bytes32"
        },
        {
          "indexed": false,
          "internalType": "string",
          "name": "flightNumber",
          "type": "string"
        },
        {
          "indexed": false,
          "internalType": "string",
          "name": "departureTime",
          "type": "string"
        },
        {
          "indexed": false,
          "internalType": "string",
          "name": "itemDescription",
          "type": "string"
        }
      ],
      "name": "BaggageDataRequested",
      "type": "event"
    },
    {
      "anonymous": false,
      "inputs": [
        {
          "indexed": true,
          "internalType": "bytes32",
          "name": "id",
          "type": "bytes32"
        }
      ],
      "name": "ChainlinkCancelled",
      "type": "event"
    },
    {
      "anonymous": false,
      "inputs": [
        {
          "indexed": true,
          "internalType": "bytes32",
          "name": "id",
          "type": "bytes32"
        }
      ],
      "name": "ChainlinkFulfilled",
      "type": "event"
    },
    {
      "anonymous": false,
      "inputs": [
        {
          "indexed": true,
          "internalType": "bytes32",
          "name": "id",
          "type": "bytes32"
        }
      ],
      "name": "ChainlinkRequested",
      "type": "event"
    },
    {
      "anonymous": false,
      "inputs": [
        {
          "indexed": true,
          "internalType": "bytes32",
          "name": "requestId",
          "type": "bytes32"
        },
        {
          "indexed": false,
          "internalType": "string",
          "name": "flightNumber",
          "type": "string"
        },
        {
          "indexed": false,
          "internalType": "string",
          "name": "departureTime",
          "type": "string"
        },
        {
          "indexed": false,
          "internalType": "bool",
          "name": "isDelayed",
          "type": "bool"
        },
        {
          "indexed": false,
          "internalType": "uint256",
          "name": "delayMinutes",
          "type": "uint256"
        }
      ],
      "name": "FlightDataReceived",
      "type": "event"
    },
    {
      "anonymous": false,
      "inputs": [
        {
          "indexed": true,
          "internalType": "bytes32",
          "name": "requestId",
          "type": "bytes32"
        },
        {
          "indexed": false,
          "internalType": "string",
          "name": "flightNumber",
          "type": "string"
        },
        {
          "indexed": false,
          "internalType": "string",
          "name": "departureTime",
          "type": "string"
        }
      ],
      "name": "FlightDataRequested",
      "type": "event"
    },
    {
      "anonymous": false,
      "inputs": [
        {
          "indexed": true,
          "internalType": "address",
          "name": "previousOwner",
          "type": "address"
        },
        {
          "indexed": true,
          "internalType": "address",
          "name": "newOwner",
          "type": "address"
        }
      ],
      "name": "OwnershipTransferred",
      "type": "event"
    },
    {
      "inputs": [
        {
          "internalType": "address",
          "name": "_oracle",
          "type": "address"
        },
        {
          "internalType": "string",
          "name": "_oracleAPIUrl",
          "type": "string"
        },
        {
          "internalType": "bytes32",
          "name": "_jobId",
          "type": "bytes32"
        }
      ],
      "name": "addOracle",
      "outputs": [],
      "stateMutability": "nonpayable",
      "type": "function"
    },
    {
      "inputs": [
        {
          "internalType": "string",
          "name": "_flightNumber",
          "type": "string"
        },
        {
          "internalType": "string",
          "name": "_departureTime",
          "type": "string"
        },
        {
          "internalType": "string",
          "name": "_itemDescription",
          "type": "string"
        }
      ],
      "name": "checkBaggageStatus",
      "outputs": [
        {
          "internalType": "bool",
          "name": "dataReceived",
          "type": "bool"
        },
        {
          "internalType": "bool",
          "name": "baggageStatus",
          "type": "bool"
        }
      ],
      "stateMutability": "view",
      "type": "function"
    },
    {
      "inputs": [
        {
          "internalType": "string",
          "name": "_flightNumber",
          "type": "string"
        },
        {
          "internalType": "string",
          "name": "_departureTime",
          "type": "string"
        }
      ],
      "name": "checkFlightStatus",
      "outputs": [
        {
          "internalType": "bool",
          "name": "dataReceived",
          "type": "bool"
        },
        {
          "internalType": "bool",
          "name": "isDelayed",
          "type": "bool"
        },
        {
          "internalType": "uint256",
          "name": "delayHours",
          "type": "uint256"
        }
      ],
      "stateMutability": "view",
      "type": "function"
    },
    {
      "inputs": [
        {
          "internalType": "bytes32",
          "name": "_requestId",
          "type": "bytes32"
        },
        {
          "internalType": "uint256",
          "name": "_baggageStatus",
          "type": "uint256"
        }
      ],
      "name": "fulfillBaggageData",
      "outputs": [],
      "stateMutability": "nonpayable",
      "type": "function"
    },
    {
      "inputs": [
        {
          "internalType": "bytes32",
          "name": "_requestId",
          "type": "bytes32"
        },
        {
          "internalType": "uint256",
          "name": "_delayMinutes",
          "type": "uint256"
        }
      ],
      "name": "fulfillFlightData",
      "outputs": [],
      "stateMutability": "nonpayable",
      "type": "function"
    },
    {
      "inputs": [
        {
          "internalType": "string",
          "name": "_flightNumber",
          "type": "string"
        },
        {
          "internalType": "string",
          "name": "_departureTime",
          "type": "string"
        },
        {
          "internalType": "string",
          "name": "_itemDescription",
          "type": "string"
        }
      ],
      "name": "getBaggageStatus",
      "outputs": [
        {
          "internalType": "bool",
          "name": "dataReceived",
          "type": "bool"
        },
        {
          "internalType": "bool",
          "name": "baggageStatus",
          "type": "bool"
        }
      ],
      "stateMutability": "nonpayable",
      "type": "function"
    },
    {
      "inputs": [
        {
          "internalType": "string",
          "name": "_flightNumber",
          "type": "string"
        },
        {
          "internalType": "string",
          "name": "_departureTime",
          "type": "string"
        }
      ],
      "name": "getFlightStatus",
      "outputs": [
        {
          "internalType": "bool",
          "name": "dataReceived",
          "type": "bool"
        },
        {
          "internalType": "bool",
          "name": "isDelayed",
          "type": "bool"
        },
        {
          "internalType": "uint256",
          "name": "delayHours",
          "type": "uint256"
        }
      ],
      "stateMutability": "nonpayable",
      "type": "function"
    },
    {
      "inputs": [
        {
          "internalType": "uint256",
          "name": "",
          "type": "uint256"
        }
      ],
      "name": "oracles",
      "outputs": [
        {
          "internalType": "address",
          "name": "oracle",
          "type": "address"
        },
        {
          "internalType": "string",
          "name": "oracleAPIUrl",
          "type": "string"
        },
        {
          "internalType": "bytes32",
          "name": "jobId",
          "type": "bytes32"
        }
      ],
      "stateMutability": "view",
      "type": "function"
    },
    {
      "inputs": [],
      "name": "owner",
      "outputs": [
        {
          "internalType": "address",
          "name": "",
          "type": "address"
        }
      ],
      "stateMutability": "view",
      "type": "function"
    },
    {
      "inputs": [],
      "name": "renounceOwnership",
      "outputs": [],
      "stateMutability": "nonpayable",
      "type": "function"
    },
    {
      "inputs": [
        {
          "internalType": "string",
          "name": "_flightNumber",
          "type": "string"
        },
        {
          "internalType": "string",
          "name": "_departureTime",
          "type": "string"
        },
        {
          "internalType": "string",
          "name": "_itemDescription",
          "type": "string"
        }
      ],
      "name": "requestBaggageData",
      "outputs": [
        {
          "internalType": "bytes32",
          "name": "requestId",
          "type": "bytes32"
        }
      ],
      "stateMutability": "nonpayable",
      "type": "function"
    },
    {
      "inputs": [
        {
          "internalType": "string",
          "name": "_flightNumber",
          "type": "string"
        },
        {
          "internalType": "string",
          "name": "_departureTime",
          "type": "string"
        }
      ],
      "name": "requestFlightData",
      "outputs": [
        {
          "internalType": "bytes32",
          "name": "requestId",
          "type": "bytes32"
        }
      ],
      "stateMutability": "nonpayable",
      "type": "function"
    },
    {
      "inputs": [
        {
          "internalType": "address",
          "name": "newOwner",
          "type": "address"
        }
      ],
      "name": "transferOwnership",
      "outputs": [],
      "stateMutability": "nonpayable",
      "type": "function"
    },
    {
      "inputs": [],
      "name": "withdrawLink",
      "outputs": [],
      "stateMutability": "nonpayable",
      "type": "function"
    }
  ],
  "bytecode": "0x60806040526001600455603c6009553480156200001b57600080fd5b5060405162002ce038038062002ce0833981810160405281019062000041919062000204565b62000061620000556200008860201b60201c565b6200009060201b60201c565b62000072816200015660201b60201c565b67016345785d8a00006008819055505062000236565b600033905090565b6000600660009054906101000a900473ffffffffffffffffffffffffffffffffffffffff16905081600660006101000a81548173ffffffffffffffffffffffffffffffffffffffff021916908373ffffffffffffffffffffffffffffffffffffffff1602179055508173ffffffffffffffffffffffffffffffffffffffff168173ffffffffffffffffffffffffffffffffffffffff167f8be0079c531659141344cd1fd0a4f28419497f9722a3daafe3b4186f6b6457e060405160405180910390a35050565b80600260006101000a81548173ffffffffffffffffffffffffffffffffffffffff021916908373ffffffffffffffffffffffffffffffffffffffff16021790555050565b600080fd5b600073ffffffffffffffffffffffffffffffffffffffff82169050919050565b6000620001cc826200019f565b9050919050565b620001de81620001bf565b8114620001ea57600080fd5b50565b600081519050620001fe81620001d3565b92915050565b6000602082840312156200021d576200021c6200019a565b5b60006200022d84828501620001ed565b91505092915050565b612a9a80620002466000396000f3fe608060405234801561001057600080fd5b50600436106100ea5760003560e01c80638da5cb5b1161008c578063c48c8ab311610066578063c48c8ab31461024f578063cc6b03b61461026b578063efa3d1131461029d578063f2fde38b146102cd576100ea565b80638da5cb5b146101f65780638dc654a214610214578063927f8ae61461021e576100ea565b80636e229bec116100c85780636e229bec14610184578063715018a6146101b457806378eb5640146101be5780637a778718146101da576100ea565b806326ec641e146100ef5780634bfdcb64146101215780635b69a7d814610152575b600080fd5b6101096004803603810190610104919061199c565b6102e9565b60405161011893929190611a48565b60405180910390f35b61013b60048036038101906101369190611a7f565b6103ba565b604051610149929190611b26565b60405180910390f35b61016c60048036038101906101679190611b7b565b610448565b60405161017b93929190611c81565b60405180910390f35b61019e6004803603810190610199919061199c565b61052a565b6040516101ab9190611cbf565b60405180910390f35b6101bc610847565b005b6101d860048036038101906101d39190611d06565b61085b565b005b6101f460048036038101906101ef9190611d06565b610ba3565b005b6101fe610eb7565b60405161020b9190611d46565b60405180910390f35b61021c610ee1565b005b61023860048036038101906102339190611a7f565b61102e565b604051610246929190611b26565b60405180910390f35b61026960048036038101906102649190611d8d565b61110e565b005b6102856004803603810190610280919061199c565b6111e0565b60405161029493929190611a48565b60405180910390f35b6102b760048036038101906102b29190611a7f565b611259565b6040516102c49190611cbf565b60405180910390f35b6102e760048036038101906102e29190611dfc565b611649565b005b600080600080600d866040516102ff9190611e65565b90815260200160405180910390208560405161031b9190611e65565b908152602001604051809103902090508060060160009054906101000a900460ff1615610377578060060160009054906101000a900460ff168160020160009054906101000a900460ff168260050154935093509350506103b3565b610381868661052a565b508060060160009054906101000a900460ff168160020160009054906101000a900460ff168260050154935093509350505b9250925092565b6000806000600e866040516103cf9190611e65565b9081526020016040518091039020856040516103eb9190611e65565b9081526020016040518091039020846040516104079190611e65565b908152602001604051809103902090508060010160019054906101000a900460ff168160010160009054906101000a900460ff169250925050935093915050565b6007818154811061045857600080fd5b90600052602060002090600302016000915090508060000160009054906101000a900473ffffffffffffffffffffffffffffffffffffffff16908060010180546104a190611eab565b80601f01602080910402602001604051908101604052809291908181526020018280546104cd90611eab565b801561051a5780601f106104ef5761010080835404028352916020019161051a565b820191906000526020600020905b8154815290600101906020018083116104fd57829003601f168201915b5050505050908060020154905083565b600080600090505b600780549050811015610840576007818154811061055357610552611edc565b5b9060005260206000209060030201600201547f666c696768745f6f7261636c650000000000000000000000000000000000000060001b0361082d576000600782815481106105a4576105a3611edc565b5b906000526020600020906003020160010185856040516020016105c993929190611fef565b6040516020818303038152906040529050600782815481106105ee576105ed611edc565b5b906000526020600020906003020160000160009054906101000a900473ffffffffffffffffffffffffffffffffffffffff1673ffffffffffffffffffffffffffffffffffffffff1663f28f4864306378eb564060e01b6008546007878154811061065b5761065a611edc565b5b906000526020600020906003020160020154866040518663ffffffff1660e01b815260040161068e9594939291906120b2565b6020604051808303816000875af11580156106ad573d6000803e3d6000fd5b505050506040513d601f19601f820116820180604052508101906106d19190612134565b925084600a600085815260200190815260200160002090816106f391906122f8565b5083600b6000858152602001908152602001600020908161071491906122f8565b506000600d866040516107279190611e65565b9081526020016040518091039020856040516107439190611e65565b908152602001604051809103902060070154036107f15784600d8660405161076b9190611e65565b9081526020016040518091039020856040516107879190611e65565b908152602001604051809103902060000190816107a491906122f8565b5083600d866040516107b69190611e65565b9081526020016040518091039020856040516107d29190611e65565b908152602001604051809103902060010190816107ef91906122f8565b505b827fb26113e7b01bcaf1c531a374b222800f33739a1265420cb172d334695ca8c6fd86866040516108239291906123ca565b60405180910390a2505b808061083890612430565b915050610532565b5092915050565b61084f6116cc565b610859600061174a565b565b6000600a6000848152602001908152602001600020805461087b90611eab565b80601f01602080910402602001604051908101604052809291908181526020018280546108a790611eab565b80156108f45780601f106108c9576101008083540402835291602001916108f4565b820191906000526020600020905b8154815290600101906020018083116108d757829003601f168201915b505050505090506000600b6000858152602001908152602001600020805461091b90611eab565b80601f016020809104026020016040519081016040528092919081815260200182805461094790611eab565b80156109945780601f1061096957610100808354040283529160200191610994565b820191906000526020600020905b81548152906001019060200180831161097757829003601f168201915b5050505050905060008251116109df576040517f08c379a00000000000000000000000000000000000000000000000000000000081526004016109d6906124c4565b60405180910390fd5b6000600d836040516109f19190611e65565b908152602001604051809103902082604051610a0d9190611e65565b9081526020016040518091039020905083816003016000828254610a3191906124e4565b92505081905550806007016000815480929190610a4d90612430565b919050555060018160090160003373ffffffffffffffffffffffffffffffffffffffff1673ffffffffffffffffffffffffffffffffffffffff16815260200190815260200160002060006101000a81548160ff021916908315150217905550600081600701548260030154610ac29190612547565b9050808260040181905550603c81610ada9190612547565b826005018190555060018260060160006101000a81548160ff0219169083151502179055506009548110610b2a5760018260020160006101000a81548160ff021916908315150217905550610b48565b60008260020160006101000a81548160ff0219169083151502179055505b857ffb77f6b1be2c38266dafd7bc10d29c4520057d5615ffb7e78e32cd23b5747a0785858560020160009054906101000a900460ff168660040154604051610b939493929190612578565b60405180910390a2505050505050565b6000600c600084815260200190815260200160002090506000816000018054610bcb90611eab565b80601f0160208091040260200160405190810160405280929190818152602001828054610bf790611eab565b8015610c445780601f10610c1957610100808354040283529160200191610c44565b820191906000526020600020905b815481529060010190602001808311610c2757829003601f168201915b505050505090506000826001018054610c5c90611eab565b80601f0160208091040260200160405190810160405280929190818152602001828054610c8890611eab565b8015610cd55780601f10610caa57610100808354040283529160200191610cd5565b820191906000526020600020905b815481529060010190602001808311610cb857829003601f168201915b505050505090506000836002018054610ced90611eab565b80601f0160208091040260200160405190810160405280929190818152602001828054610d1990611eab565b8015610d665780601f10610d3b57610100808354040283529160200191610d66565b820191906000526020600020905b815481529060010190602001808311610d4957829003601f168201915b505050505090506000815111610db1576040517f08c379a0000000000000000000000000000000000000000000000000000000008152600401610da8906124c4565b60405180910390fd5b6000600e84604051610dc39190611e65565b908152602001604051809103902083604051610ddf9190611e65565b908152602001604051809103902082604051610dfb9190611e65565b9081526020016040518091039020905060018160010160016101000a81548160ff02191690831515021790555060008603610e525760008160010160006101000a81548160ff021916908315150217905550610e70565b60018160010160006101000a81548160ff0219169083151502179055505b867fadd8b82bcba8488c3cb557cb04d35dc5076518ae1edbc9dd1efe1dbaaa64a2718585858a604051610ea694939291906125cb565b60405180910390a250505050505050565b6000600660009054906101000a900473ffffffffffffffffffffffffffffffffffffffff16905090565b610ee96116cc565b6000610ef3611810565b90508073ffffffffffffffffffffffffffffffffffffffff1663a9059cbb338373ffffffffffffffffffffffffffffffffffffffff166370a08231306040518263ffffffff1660e01b8152600401610f4b9190611d46565b602060405180830381865afa158015610f68573d6000803e3d6000fd5b505050506040513d601f19601f82011682018060405250810190610f8c919061263a565b6040518363ffffffff1660e01b8152600401610fa9929190612667565b6020604051808303816000875af1158015610fc8573d6000803e3d6000fd5b505050506040513d601f19601f82011682018060405250810190610fec91906126bc565b61102b576040517f08c379a000000000000000000000000000000000000000000000000000000000815260040161102290612735565b60405180910390fd5b50565b6000806000600e866040516110439190611e65565b90815260200160405180910390208560405161105f9190611e65565b90815260200160405180910390208460405161107b9190611e65565b908152602001604051809103902090508060010160019054906101000a900460ff16156110d0578060010160019054906101000a900460ff168160010160009054906101000a900460ff169250925050611106565b6110db868686611259565b508060010160019054906101000a900460ff168160010160009054906101000a900460ff1692509250505b935093915050565b6111166116cc565b600760405180606001604052808573ffffffffffffffffffffffffffffffffffffffff16815260200184815260200183815250908060018154018082558091505060019003906000526020600020906003020160009091909190915060008201518160000160006101000a81548173ffffffffffffffffffffffffffffffffffffffff021916908373ffffffffffffffffffffffffffffffffffffffff16021790555060208201518160010190816111ce91906122f8565b50604082015181600201555050505050565b600080600080600d866040516111f69190611e65565b9081526020016040518091039020856040516112129190611e65565b908152602001604051809103902090508060060160009054906101000a900460ff168160020160009054906101000a900460ff168260050154935093509350509250925092565b600080600780549050116112a2576040517f08c379a0000000000000000000000000000000000000000000000000000000008152600401611299906127a1565b60405180910390fd5b60005b60078054905081101561164157600781815481106112c6576112c5611edc565b5b9060005260206000209060030201600201547f626167676167655f6f7261636c6500000000000000000000000000000000000060001b0361162e5760006007828154811061131757611316611edc565b5b906000526020600020906003020160010186868660405160200161133e949392919061280d565b60405160208183030381529060405290506007828154811061136357611362611edc565b5b906000526020600020906003020160000160009054906101000a900473ffffffffffffffffffffffffffffffffffffffff1673ffffffffffffffffffffffffffffffffffffffff1663f28f486430637a77871860e01b600854600787815481106113d0576113cf611edc565b5b906000526020600020906003020160020154866040518663ffffffff1660e01b81526004016114039594939291906128ad565b6020604051808303816000875af1158015611422573d6000803e3d6000fd5b505050506040513d601f19601f820116820180604052508101906114469190612134565b9250604051806060016040528087815260200186815260200185815250600c6000858152602001908152602001600020600082015181600001908161148b91906122f8565b5060208201518160010190816114a191906122f8565b5060408201518160020190816114b791906122f8565b5090505085600e876040516114cc9190611e65565b9081526020016040518091039020866040516114e89190611e65565b9081526020016040518091039020856040516115049190611e65565b9081526020016040518091039020600201908161152191906122f8565b5084600e876040516115339190611e65565b90815260200160405180910390208660405161154f9190611e65565b90815260200160405180910390208560405161156b9190611e65565b9081526020016040518091039020600301908161158891906122f8565b5083600e8760405161159a9190611e65565b9081526020016040518091039020866040516115b69190611e65565b9081526020016040518091039020856040516115d29190611e65565b908152602001604051809103902060000190816115ef91906122f8565b50827fd318d5abf7200d94903a4c1d08cb6d32e5a1c5ba41a730533ff41895cafa36f18787876040516116249392919061291a565b60405180910390a2505b808061163990612430565b9150506112a5565b509392505050565b6116516116cc565b600073ffffffffffffffffffffffffffffffffffffffff168173ffffffffffffffffffffffffffffffffffffffff16036116c0576040517f08c379a00000000000000000000000000000000000000000000000000000000081526004016116b7906129d8565b60405180910390fd5b6116c98161174a565b50565b6116d461183a565b73ffffffffffffffffffffffffffffffffffffffff166116f2610eb7565b73ffffffffffffffffffffffffffffffffffffffff1614611748576040517f08c379a000000000000000000000000000000000000000000000000000000000815260040161173f90612a44565b60405180910390fd5b565b6000600660009054906101000a900473ffffffffffffffffffffffffffffffffffffffff16905081600660006101000a81548173ffffffffffffffffffffffffffffffffffffffff021916908373ffffffffffffffffffffffffffffffffffffffff1602179055508173ffffffffffffffffffffffffffffffffffffffff168173ffffffffffffffffffffffffffffffffffffffff167f8be0079c531659141344cd1fd0a4f28419497f9722a3daafe3b4186f6b6457e060405160405180910390a35050565b6000600260009054906101000a900473ffffffffffffffffffffffffffffffffffffffff16905090565b600033905090565b6000604051905090565b600080fd5b600080fd5b600080fd5b600080fd5b6000601f19601f8301169050919050565b7f4e487b7100000000000000000000000000000000000000000000000000000000600052604160045260246000fd5b6118a982611860565b810181811067ffffffffffffffff821117156118c8576118c7611871565b5b80604052505050565b60006118db611842565b90506118e782826118a0565b919050565b600067ffffffffffffffff82111561190757611906611871565b5b61191082611860565b9050602081019050919050565b82818337600083830152505050565b600061193f61193a846118ec565b6118d1565b90508281526020810184848401111561195b5761195a61185b565b5b61196684828561191d565b509392505050565b600082601f83011261198357611982611856565b5b813561199384826020860161192c565b91505092915050565b600080604083850312156119b3576119b261184c565b5b600083013567ffffffffffffffff8111156119d1576119d0611851565b5b6119dd8582860161196e565b925050602083013567ffffffffffffffff8111156119fe576119fd611851565b5b611a0a8582860161196e565b9150509250929050565b60008115159050919050565b611a2981611a14565b82525050565b6000819050919050565b611a4281611a2f565b82525050565b6000606082019050611a5d6000830186611a20565b611a6a6020830185611a20565b611a776040830184611a39565b949350505050565b600080600060608486031215611a9857611a9761184c565b5b600084013567ffffffffffffffff811115611ab657611ab5611851565b5b611ac28682870161196e565b935050602084013567ffffffffffffffff811115611ae357611ae2611851565b5b611aef8682870161196e565b925050604084013567ffffffffffffffff811115611b1057611b0f611851565b5b611b1c8682870161196e565b9150509250925092565b6000604082019050611b3b6000830185611a20565b611b486020830184611a20565b9392505050565b611b5881611a2f565b8114611b6357600080fd5b50565b600081359050611b7581611b4f565b92915050565b600060208284031215611b9157611b9061184c565b5b6000611b9f84828501611b66565b91505092915050565b600073ffffffffffffffffffffffffffffffffffffffff82169050919050565b6000611bd382611ba8565b9050919050565b611be381611bc8565b82525050565b600081519050919050565b600082825260208201905092915050565b60005b83811015611c23578082015181840152602081019050611c08565b60008484015250505050565b6000611c3a82611be9565b611c448185611bf4565b9350611c54818560208601611c05565b611c5d81611860565b840191505092915050565b6000819050919050565b611c7b81611c68565b82525050565b6000606082019050611c966000830186611bda565b8181036020830152611ca88185611c2f565b9050611cb76040830184611c72565b949350505050565b6000602082019050611cd46000830184611c72565b92915050565b611ce381611c68565b8114611cee57600080fd5b50565b600081359050611d0081611cda565b92915050565b60008060408385031215611d1d57611d1c61184c565b5b6000611d2b85828601611cf1565b9250506020611d3c85828601611b66565b9150509250929050565b6000602082019050611d5b6000830184611bda565b92915050565b611d6a81611bc8565b8114611d7557600080fd5b50565b600081359050611d8781611d61565b92915050565b600080600060608486031215611da657611da561184c565b5b6000611db486828701611d78565b935050602084013567ffffffffffffffff811115611dd557611dd4611851565b5b611de18682870161196e565b9250506040611df286828701611cf1565b9150509250925092565b600060208284031215611e1257611e1161184c565b5b6000611e2084828501611d78565b91505092915050565b600081905092915050565b6000611e3f82611be9565b611e498185611e29565b9350611e59818560208601611c05565b80840191505092915050565b6000611e718284611e34565b915081905092915050565b7f4e487b7100000000000000000000000000000000000000000000000000000000600052602260045260246000fd5b60006002820490506001821680611ec357607f821691505b602082108103611ed657611ed5611e7c565b5b50919050565b7f4e487b7100000000000000000000000000000000000000000000000000000000600052603260045260246000fd5b60008190508160005260206000209050919050565b60008154611f2d81611eab565b611f378186611e29565b94506001821660008114611f525760018114611f6757611f9a565b60ff1983168652811515820286019350611f9a565b611f7085611f0b565b60005b83811015611f9257815481890152600182019150602081019050611f73565b838801955050505b50505092915050565b7f3f6465706172747572653d000000000000000000000000000000000000000000600082015250565b6000611fd9600b83611e29565b9150611fe482611fa3565b600b82019050919050565b6000611ffb8286611f20565b91506120078285611e34565b915061201282611fcc565b915061201e8284611e34565b9150819050949350505050565b60007fffffffff0000000000000000000000000000000000000000000000000000000082169050919050565b6120608161202b565b82525050565b7f64656c61794d696e757465730000000000000000000000000000000000000000600082015250565b600061209c600c83611bf4565b91506120a782612066565b602082019050919050565b600060c0820190506120c76000830188611bda565b6120d46020830187612057565b6120e16040830186611a39565b6120ee6060830185611c72565b81810360808301526121008184611c2f565b905081810360a08301526121138161208f565b90509695505050505050565b60008151905061212e81611cda565b92915050565b60006020828403121561214a5761214961184c565b5b60006121588482850161211f565b91505092915050565b60006020601f8301049050919050565b600082821b905092915050565b6000600883026121ae7fffffffffffffffffffffffffffffffffffffffffffffffffffffffffffffffff82612171565b6121b88683612171565b95508019841693508086168417925050509392505050565b6000819050919050565b60006121f56121f06121eb84611a2f565b6121d0565b611a2f565b9050919050565b6000819050919050565b61220f836121da565b61222361221b826121fc565b84845461217e565b825550505050565b600090565b61223861222b565b612243818484612206565b505050565b5b818110156122675761225c600082612230565b600181019050612249565b5050565b601f8211156122ac5761227d81611f0b565b61228684612161565b81016020851015612295578190505b6122a96122a185612161565b830182612248565b50505b505050565b600082821c905092915050565b60006122cf600019846008026122b1565b1980831691505092915050565b60006122e883836122be565b9150826002028217905092915050565b61230182611be9565b67ffffffffffffffff81111561231a57612319611871565b5b6123248254611eab565b61232f82828561226b565b600060209050601f8311600181146123625760008415612350578287015190505b61235a85826122dc565b8655506123c2565b601f19841661237086611f0b565b60005b8281101561239857848901518255600182019150602085019450602081019050612373565b868310156123b557848901516123b1601f8916826122be565b8355505b6001600288020188555050505b505050505050565b600060408201905081810360008301526123e48185611c2f565b905081810360208301526123f88184611c2f565b90509392505050565b7f4e487b7100000000000000000000000000000000000000000000000000000000600052601160045260246000fd5b600061243b82611a2f565b91507fffffffffffffffffffffffffffffffffffffffffffffffffffffffffffffffff820361246d5761246c612401565b5b600182019050919050565b7f496e76616c696420726571756573742049440000000000000000000000000000600082015250565b60006124ae601283611bf4565b91506124b982612478565b602082019050919050565b600060208201905081810360008301526124dd816124a1565b9050919050565b60006124ef82611a2f565b91506124fa83611a2f565b925082820190508082111561251257612511612401565b5b92915050565b7f4e487b7100000000000000000000000000000000000000000000000000000000600052601260045260246000fd5b600061255282611a2f565b915061255d83611a2f565b92508261256d5761256c612518565b5b828204905092915050565b600060808201905081810360008301526125928187611c2f565b905081810360208301526125a68186611c2f565b90506125b56040830185611a20565b6125c26060830184611a39565b95945050505050565b600060808201905081810360008301526125e58187611c2f565b905081810360208301526125f98186611c2f565b9050818103604083015261260d8185611c2f565b905061261c6060830184611a39565b95945050505050565b60008151905061263481611b4f565b92915050565b6000602082840312156126505761264f61184c565b5b600061265e84828501612625565b91505092915050565b600060408201905061267c6000830185611bda565b6126896020830184611a39565b9392505050565b61269981611a14565b81146126a457600080fd5b50565b6000815190506126b681612690565b92915050565b6000602082840312156126d2576126d161184c565b5b60006126e0848285016126a7565b91505092915050565b7f556e61626c6520746f207472616e736665720000000000000000000000000000600082015250565b600061271f601283611bf4565b915061272a826126e9565b602082019050919050565b6000602082019050818103600083015261274e81612712565b9050919050565b7f4e6f206f7261636c657320736574000000000000000000000000000000000000600082015250565b600061278b600e83611bf4565b915061279682612755565b602082019050919050565b600060208201905081810360008301526127ba8161277e565b9050919050565b7f2f00000000000000000000000000000000000000000000000000000000000000600082015250565b60006127f7600183611e29565b9150612802826127c1565b600182019050919050565b60006128198287611f20565b91506128258286611e34565b915061283082611fcc565b915061283c8285611e34565b9150612847826127ea565b91506128538284611e34565b915081905095945050505050565b7f6261676761676553746174757300000000000000000000000000000000000000600082015250565b6000612897600d83611bf4565b91506128a282612861565b602082019050919050565b600060c0820190506128c26000830188611bda565b6128cf6020830187612057565b6128dc6040830186611a39565b6128e96060830185611c72565b81810360808301526128fb8184611c2f565b905081810360a083015261290e8161288a565b90509695505050505050565b600060608201905081810360008301526129348186611c2f565b905081810360208301526129488185611c2f565b9050818103604083015261295c8184611c2f565b9050949350505050565b7f4f776e61626c653a206e6577206f776e657220697320746865207a65726f206160008201527f6464726573730000000000000000000000000000000000000000000000000000602082015250565b60006129c2602683611bf4565b91506129cd82612966565b604082019050919050565b600060208201905081810360008301526129f1816129b5565b9050919050565b7f4f776e61626c653a2063616c6c6572206973206e6f7420746865206f776e6572600082015250565b6000612a2e602083611bf4565b9150612a39826129f8565b602082019050919050565b60006020820190508181036000830152612a5d81612a21565b905091905056fea264697066735822122034b98743dae46bc4bd4ec6715c8054d1759096450885c34c3f81f7f7f0ef441f64736f6c63430008130033",
  "linkReferences": {},
  "deployedLinkReferences": {}
}