{
  "_format": "hh-sol-artifact-1",
  "contractName": "OracleConnector",
  "sourceName": "contracts/OracleConnector.sol",
  "abi": [
    {
      "inputs": [
        {
          "internalType": "address",
          "name": "_linkToken",
          "type": "address"
        }
      ],
      "stateMutability": "nonpayable",
      "type": "constructor"
    },
    {
      "anonymous": false,
      "inputs": [
        {
          "indexed": true,
          "internalType": "bytes32",
          "name": "id",
          "type": "bytes32"
        }
      ],
      "name": "ChainlinkCancelled",
      "type": "event"
    },
    {
      "anonymous": false,
      "inputs": [
        {
          "indexed": true,
          "internalType": "bytes32",
          "name": "id",
          "type": "bytes32"
        }
      ],
      "name": "ChainlinkFulfilled",
      "type": "event"
    },
    {
      "anonymous": false,
      "inputs": [
        {
          "indexed": true,
          "internalType": "bytes32",
          "name": "id",
          "type": "bytes32"
        }
      ],
      "name": "ChainlinkRequested",
      "type": "event"
    },
    {
      "anonymous": false,
      "inputs": [
        {
          "indexed": true,
          "internalType": "bytes32",
          "name": "requestId",
          "type": "bytes32"
        },
        {
          "indexed": true,
          "internalType": "string",
          "name": "flightNumber",
          "type": "string"
        },
        {
          "indexed": true,
          "internalType": "string",
          "name": "departureTime",
          "type": "string"
        },
        {
          "indexed": false,
          "internalType": "bool",
          "name": "isDelayed",
          "type": "bool"
        },
        {
          "indexed": false,
          "internalType": "uint256",
          "name": "delayMinutes",
          "type": "uint256"
        }
      ],
      "name": "FlightDataReceived",
      "type": "event"
    },
    {
      "anonymous": false,
      "inputs": [
        {
          "indexed": true,
          "internalType": "bytes32",
          "name": "requestId",
          "type": "bytes32"
        },
        {
          "indexed": false,
          "internalType": "string",
          "name": "flightNumber",
          "type": "string"
        },
        {
          "indexed": false,
          "internalType": "string",
          "name": "departureTime",
          "type": "string"
        }
      ],
      "name": "FlightDataRequested",
      "type": "event"
    },
    {
      "anonymous": false,
      "inputs": [
        {
          "indexed": true,
          "internalType": "address",
          "name": "previousOwner",
          "type": "address"
        },
        {
          "indexed": true,
          "internalType": "address",
          "name": "newOwner",
          "type": "address"
        }
      ],
      "name": "OwnershipTransferred",
      "type": "event"
    },
    {
      "inputs": [
        {
          "internalType": "address",
          "name": "_oracle",
          "type": "address"
        },
        {
          "internalType": "string",
          "name": "_oracleAPIUrl",
          "type": "string"
        },
        {
          "internalType": "bytes32",
          "name": "_jobId",
          "type": "bytes32"
        }
      ],
      "name": "addOracle",
      "outputs": [],
      "stateMutability": "nonpayable",
      "type": "function"
    },
    {
      "inputs": [
        {
          "internalType": "string",
          "name": "_flightNumber",
          "type": "string"
        },
        {
          "internalType": "string",
          "name": "_departureTime",
          "type": "string"
        }
      ],
      "name": "checkFlightStatus",
      "outputs": [
        {
          "internalType": "bool",
          "name": "dataReceived",
          "type": "bool"
        },
        {
          "internalType": "bool",
          "name": "isDelayed",
          "type": "bool"
        },
        {
          "internalType": "uint256",
          "name": "delayHours",
          "type": "uint256"
        }
      ],
      "stateMutability": "view",
      "type": "function"
    },
    {
      "inputs": [
        {
          "internalType": "bytes32",
          "name": "_requestId",
          "type": "bytes32"
        },
        {
          "internalType": "uint256",
          "name": "_delayMinutes",
          "type": "uint256"
        }
      ],
      "name": "fulfillFlightData",
      "outputs": [],
      "stateMutability": "nonpayable",
      "type": "function"
    },
    {
      "inputs": [
        {
          "internalType": "string",
          "name": "_flightNumber",
          "type": "string"
        },
        {
          "internalType": "string",
          "name": "_departureTime",
          "type": "string"
        }
      ],
      "name": "getFlightStatus",
      "outputs": [
        {
          "internalType": "bool",
          "name": "dataReceived",
          "type": "bool"
        },
        {
          "internalType": "bool",
          "name": "isDelayed",
          "type": "bool"
        },
        {
          "internalType": "uint256",
          "name": "delayHours",
          "type": "uint256"
        }
      ],
      "stateMutability": "nonpayable",
      "type": "function"
    },
    {
      "inputs": [
        {
          "internalType": "uint256",
          "name": "",
          "type": "uint256"
        }
      ],
      "name": "oracles",
      "outputs": [
        {
          "internalType": "address",
          "name": "oracle",
          "type": "address"
        },
        {
          "internalType": "string",
          "name": "oracleAPIUrl",
          "type": "string"
        },
        {
          "internalType": "bytes32",
          "name": "jobId",
          "type": "bytes32"
        }
      ],
      "stateMutability": "view",
      "type": "function"
    },
    {
      "inputs": [],
      "name": "owner",
      "outputs": [
        {
          "internalType": "address",
          "name": "",
          "type": "address"
        }
      ],
      "stateMutability": "view",
      "type": "function"
    },
    {
      "inputs": [],
      "name": "renounceOwnership",
      "outputs": [],
      "stateMutability": "nonpayable",
      "type": "function"
    },
    {
      "inputs": [
        {
          "internalType": "string",
          "name": "_flightNumber",
          "type": "string"
        },
        {
          "internalType": "string",
          "name": "_departureTime",
          "type": "string"
        }
      ],
      "name": "requestFlightData",
      "outputs": [
        {
          "internalType": "bytes32",
          "name": "requestId",
          "type": "bytes32"
        }
      ],
      "stateMutability": "nonpayable",
      "type": "function"
    },
    {
      "inputs": [
        {
          "internalType": "address",
          "name": "newOwner",
          "type": "address"
        }
      ],
      "name": "transferOwnership",
      "outputs": [],
      "stateMutability": "nonpayable",
      "type": "function"
    },
    {
      "inputs": [],
      "name": "withdrawLink",
      "outputs": [],
      "stateMutability": "nonpayable",
      "type": "function"
    }
  ],
  "bytecode": "0x60806040526001600455603c6009553480156200001b57600080fd5b506040516200204438038062002044833981810160405281019062000041919062000204565b62000061620000556200008860201b60201c565b6200009060201b60201c565b62000072816200015660201b60201c565b67016345785d8a00006008819055505062000236565b600033905090565b6000600660009054906101000a900473ffffffffffffffffffffffffffffffffffffffff16905081600660006101000a81548173ffffffffffffffffffffffffffffffffffffffff021916908373ffffffffffffffffffffffffffffffffffffffff1602179055508173ffffffffffffffffffffffffffffffffffffffff168173ffffffffffffffffffffffffffffffffffffffff167f8be0079c531659141344cd1fd0a4f28419497f9722a3daafe3b4186f6b6457e060405160405180910390a35050565b80600260006101000a81548173ffffffffffffffffffffffffffffffffffffffff021916908373ffffffffffffffffffffffffffffffffffffffff16021790555050565b600080fd5b600073ffffffffffffffffffffffffffffffffffffffff82169050919050565b6000620001cc826200019f565b9050919050565b620001de81620001bf565b8114620001ea57600080fd5b50565b600081519050620001fe81620001d3565b92915050565b6000602082840312156200021d576200021c6200019a565b5b60006200022d84828501620001ed565b91505092915050565b611dfe80620002466000396000f3fe608060405234801561001057600080fd5b506004361061009e5760003560e01c80638da5cb5b116100665780638da5cb5b1461015d5780638dc654a21461017b578063c48c8ab314610185578063cc6b03b6146101a1578063f2fde38b146101d35761009e565b806326ec641e146100a35780635b69a7d8146100d55780636e229bec14610107578063715018a61461013757806378eb564014610141575b600080fd5b6100bd60048036038101906100b89190611065565b6101ef565b6040516100cc93929190611111565b60405180910390f35b6100ef60048036038101906100ea9190611174565b6102c0565b6040516100fe9392919061127a565b60405180910390f35b610121600480360381019061011c9190611065565b6103a2565b60405161012e91906112b8565b60405180910390f35b61013f61066f565b005b61015b600480360381019061015691906112ff565b610683565b005b610165610a50565b604051610172919061133f565b60405180910390f35b610183610a7a565b005b61019f600480360381019061019a9190611386565b610bc7565b005b6101bb60048036038101906101b69190611065565b610c99565b6040516101ca93929190611111565b60405180910390f35b6101ed60048036038101906101e891906113f5565b610d12565b005b600080600080600c86604051610205919061145e565b908152602001604051809103902085604051610221919061145e565b908152602001604051809103902090508060060160009054906101000a900460ff161561027d578060060160009054906101000a900460ff168160020160009054906101000a900460ff168260050154935093509350506102b9565b61028786866103a2565b508060060160009054906101000a900460ff168160020160009054906101000a900460ff168260050154935093509350505b9250925092565b600781815481106102d057600080fd5b90600052602060002090600302016000915090508060000160009054906101000a900473ffffffffffffffffffffffffffffffffffffffff1690806001018054610319906114a4565b80601f0160208091040260200160405190810160405280929190818152602001828054610345906114a4565b80156103925780601f1061036757610100808354040283529160200191610392565b820191906000526020600020905b81548152906001019060200180831161037557829003601f168201915b5050505050908060020154905083565b600080600090505b600780549050811015610668576000600782815481106103cd576103cc6114d5565b5b906000526020600020906003020160010185856040516020016103f2939291906115e8565b604051602081830303815290604052905060078281548110610417576104166114d5565b5b906000526020600020906003020160000160009054906101000a900473ffffffffffffffffffffffffffffffffffffffff1673ffffffffffffffffffffffffffffffffffffffff1663f28f4864306378eb564060e01b60085460078781548110610484576104836114d5565b5b906000526020600020906003020160020154866040518663ffffffff1660e01b81526004016104b79594939291906116ab565b6020604051808303816000875af11580156104d6573d6000803e3d6000fd5b505050506040513d601f19601f820116820180604052508101906104fa919061172d565b925084600a6000858152602001908152602001600020908161051c91906118f1565b5083600b6000858152602001908152602001600020908161053d91906118f1565b506000600c86604051610550919061145e565b90815260200160405180910390208560405161056c919061145e565b9081526020016040518091039020600701540361061a5784600c86604051610594919061145e565b9081526020016040518091039020856040516105b0919061145e565b908152602001604051809103902060000190816105cd91906118f1565b5083600c866040516105df919061145e565b9081526020016040518091039020856040516105fb919061145e565b9081526020016040518091039020600101908161061891906118f1565b505b827fb26113e7b01bcaf1c531a374b222800f33739a1265420cb172d334695ca8c6fd868660405161064c9291906119c3565b60405180910390a250808061066090611a29565b9150506103aa565b5092915050565b610677610d95565b6106816000610e13565b565b6000600a600084815260200190815260200160002080546106a3906114a4565b80601f01602080910402602001604051908101604052809291908181526020018280546106cf906114a4565b801561071c5780601f106106f15761010080835404028352916020019161071c565b820191906000526020600020905b8154815290600101906020018083116106ff57829003601f168201915b505050505090506000600b60008581526020019081526020016000208054610743906114a4565b80601f016020809104026020016040519081016040528092919081815260200182805461076f906114a4565b80156107bc5780601f10610791576101008083540402835291602001916107bc565b820191906000526020600020905b81548152906001019060200180831161079f57829003601f168201915b505050505090506000825111610807576040517f08c379a00000000000000000000000000000000000000000000000000000000081526004016107fe90611abd565b60405180910390fd5b6000600c83604051610819919061145e565b908152602001604051809103902082604051610835919061145e565b908152602001604051809103902090508060090160003373ffffffffffffffffffffffffffffffffffffffff1673ffffffffffffffffffffffffffffffffffffffff16815260200190815260200160002060009054906101000a900460ff16156108a157505050610a4c565b838160030160008282546108b59190611add565b925050819055508060070160008154809291906108d190611a29565b919050555060018160090160003373ffffffffffffffffffffffffffffffffffffffff1673ffffffffffffffffffffffffffffffffffffffff16815260200190815260200160002060006101000a81548160ff0219169083151502179055506000816007015482600301546109469190611b40565b9050808260040181905550603c8161095e9190611b40565b826005018190555060018260060160006101000a81548160ff02191690831515021790555060095481106109ae5760018260020160006101000a81548160ff0219169083151502179055506109cc565b60008260020160006101000a81548160ff0219169083151502179055505b826040516109da919061145e565b6040518091039020846040516109f0919061145e565b6040518091039020877ffb77f6b1be2c38266dafd7bc10d29c4520057d5615ffb7e78e32cd23b5747a078560020160009054906101000a900460ff168660040154604051610a3f929190611b71565b60405180910390a4505050505b5050565b6000600660009054906101000a900473ffffffffffffffffffffffffffffffffffffffff16905090565b610a82610d95565b6000610a8c610ed9565b90508073ffffffffffffffffffffffffffffffffffffffff1663a9059cbb338373ffffffffffffffffffffffffffffffffffffffff166370a08231306040518263ffffffff1660e01b8152600401610ae4919061133f565b602060405180830381865afa158015610b01573d6000803e3d6000fd5b505050506040513d601f19601f82011682018060405250810190610b259190611baf565b6040518363ffffffff1660e01b8152600401610b42929190611bdc565b6020604051808303816000875af1158015610b61573d6000803e3d6000fd5b505050506040513d601f19601f82011682018060405250810190610b859190611c31565b610bc4576040517f08c379a0000000000000000000000000000000000000000000000000000000008152600401610bbb90611caa565b60405180910390fd5b50565b610bcf610d95565b600760405180606001604052808573ffffffffffffffffffffffffffffffffffffffff16815260200184815260200183815250908060018154018082558091505060019003906000526020600020906003020160009091909190915060008201518160000160006101000a81548173ffffffffffffffffffffffffffffffffffffffff021916908373ffffffffffffffffffffffffffffffffffffffff1602179055506020820151816001019081610c8791906118f1565b50604082015181600201555050505050565b600080600080600c86604051610caf919061145e565b908152602001604051809103902085604051610ccb919061145e565b908152602001604051809103902090508060060160009054906101000a900460ff168160020160009054906101000a900460ff168260050154935093509350509250925092565b610d1a610d95565b600073ffffffffffffffffffffffffffffffffffffffff168173ffffffffffffffffffffffffffffffffffffffff1603610d89576040517f08c379a0000000000000000000000000000000000000000000000000000000008152600401610d8090611d3c565b60405180910390fd5b610d9281610e13565b50565b610d9d610f03565b73ffffffffffffffffffffffffffffffffffffffff16610dbb610a50565b73ffffffffffffffffffffffffffffffffffffffff1614610e11576040517f08c379a0000000000000000000000000000000000000000000000000000000008152600401610e0890611da8565b60405180910390fd5b565b6000600660009054906101000a900473ffffffffffffffffffffffffffffffffffffffff16905081600660006101000a81548173ffffffffffffffffffffffffffffffffffffffff021916908373ffffffffffffffffffffffffffffffffffffffff1602179055508173ffffffffffffffffffffffffffffffffffffffff168173ffffffffffffffffffffffffffffffffffffffff167f8be0079c531659141344cd1fd0a4f28419497f9722a3daafe3b4186f6b6457e060405160405180910390a35050565b6000600260009054906101000a900473ffffffffffffffffffffffffffffffffffffffff16905090565b600033905090565b6000604051905090565b600080fd5b600080fd5b600080fd5b600080fd5b6000601f19601f8301169050919050565b7f4e487b7100000000000000000000000000000000000000000000000000000000600052604160045260246000fd5b610f7282610f29565b810181811067ffffffffffffffff82111715610f9157610f90610f3a565b5b80604052505050565b6000610fa4610f0b565b9050610fb08282610f69565b919050565b600067ffffffffffffffff821115610fd057610fcf610f3a565b5b610fd982610f29565b9050602081019050919050565b82818337600083830152505050565b600061100861100384610fb5565b610f9a565b90508281526020810184848401111561102457611023610f24565b5b61102f848285610fe6565b509392505050565b600082601f83011261104c5761104b610f1f565b5b813561105c848260208601610ff5565b91505092915050565b6000806040838503121561107c5761107b610f15565b5b600083013567ffffffffffffffff81111561109a57611099610f1a565b5b6110a685828601611037565b925050602083013567ffffffffffffffff8111156110c7576110c6610f1a565b5b6110d385828601611037565b9150509250929050565b60008115159050919050565b6110f2816110dd565b82525050565b6000819050919050565b61110b816110f8565b82525050565b600060608201905061112660008301866110e9565b61113360208301856110e9565b6111406040830184611102565b949350505050565b611151816110f8565b811461115c57600080fd5b50565b60008135905061116e81611148565b92915050565b60006020828403121561118a57611189610f15565b5b60006111988482850161115f565b91505092915050565b600073ffffffffffffffffffffffffffffffffffffffff82169050919050565b60006111cc826111a1565b9050919050565b6111dc816111c1565b82525050565b600081519050919050565b600082825260208201905092915050565b60005b8381101561121c578082015181840152602081019050611201565b60008484015250505050565b6000611233826111e2565b61123d81856111ed565b935061124d8185602086016111fe565b61125681610f29565b840191505092915050565b6000819050919050565b61127481611261565b82525050565b600060608201905061128f60008301866111d3565b81810360208301526112a18185611228565b90506112b0604083018461126b565b949350505050565b60006020820190506112cd600083018461126b565b92915050565b6112dc81611261565b81146112e757600080fd5b50565b6000813590506112f9816112d3565b92915050565b6000806040838503121561131657611315610f15565b5b6000611324858286016112ea565b92505060206113358582860161115f565b9150509250929050565b600060208201905061135460008301846111d3565b92915050565b611363816111c1565b811461136e57600080fd5b50565b6000813590506113808161135a565b92915050565b60008060006060848603121561139f5761139e610f15565b5b60006113ad86828701611371565b935050602084013567ffffffffffffffff8111156113ce576113cd610f1a565b5b6113da86828701611037565b92505060406113eb868287016112ea565b9150509250925092565b60006020828403121561140b5761140a610f15565b5b600061141984828501611371565b91505092915050565b600081905092915050565b6000611438826111e2565b6114428185611422565b93506114528185602086016111fe565b80840191505092915050565b600061146a828461142d565b915081905092915050565b7f4e487b7100000000000000000000000000000000000000000000000000000000600052602260045260246000fd5b600060028204905060018216806114bc57607f821691505b6020821081036114cf576114ce611475565b5b50919050565b7f4e487b7100000000000000000000000000000000000000000000000000000000600052603260045260246000fd5b60008190508160005260206000209050919050565b60008154611526816114a4565b6115308186611422565b9450600182166000811461154b576001811461156057611593565b60ff1983168652811515820286019350611593565b61156985611504565b60005b8381101561158b5781548189015260018201915060208101905061156c565b838801955050505b50505092915050565b7f3f6465706172747572653d000000000000000000000000000000000000000000600082015250565b60006115d2600b83611422565b91506115dd8261159c565b600b82019050919050565b60006115f48286611519565b9150611600828561142d565b915061160b826115c5565b9150611617828461142d565b9150819050949350505050565b60007fffffffff0000000000000000000000000000000000000000000000000000000082169050919050565b61165981611624565b82525050565b7f64656c61794d696e757465730000000000000000000000000000000000000000600082015250565b6000611695600c836111ed565b91506116a08261165f565b602082019050919050565b600060c0820190506116c060008301886111d3565b6116cd6020830187611650565b6116da6040830186611102565b6116e7606083018561126b565b81810360808301526116f98184611228565b905081810360a083015261170c81611688565b90509695505050505050565b600081519050611727816112d3565b92915050565b60006020828403121561174357611742610f15565b5b600061175184828501611718565b91505092915050565b60006020601f8301049050919050565b600082821b905092915050565b6000600883026117a77fffffffffffffffffffffffffffffffffffffffffffffffffffffffffffffffff8261176a565b6117b1868361176a565b95508019841693508086168417925050509392505050565b6000819050919050565b60006117ee6117e96117e4846110f8565b6117c9565b6110f8565b9050919050565b6000819050919050565b611808836117d3565b61181c611814826117f5565b848454611777565b825550505050565b600090565b611831611824565b61183c8184846117ff565b505050565b5b8181101561186057611855600082611829565b600181019050611842565b5050565b601f8211156118a55761187681611504565b61187f8461175a565b8101602085101561188e578190505b6118a261189a8561175a565b830182611841565b50505b505050565b600082821c905092915050565b60006118c8600019846008026118aa565b1980831691505092915050565b60006118e183836118b7565b9150826002028217905092915050565b6118fa826111e2565b67ffffffffffffffff81111561191357611912610f3a565b5b61191d82546114a4565b611928828285611864565b600060209050601f83116001811461195b5760008415611949578287015190505b61195385826118d5565b8655506119bb565b601f19841661196986611504565b60005b828110156119915784890151825560018201915060208501945060208101905061196c565b868310156119ae57848901516119aa601f8916826118b7565b8355505b6001600288020188555050505b505050505050565b600060408201905081810360008301526119dd8185611228565b905081810360208301526119f18184611228565b90509392505050565b7f4e487b7100000000000000000000000000000000000000000000000000000000600052601160045260246000fd5b6000611a34826110f8565b91507fffffffffffffffffffffffffffffffffffffffffffffffffffffffffffffffff8203611a6657611a656119fa565b5b600182019050919050565b7f496e76616c696420726571756573742049440000000000000000000000000000600082015250565b6000611aa76012836111ed565b9150611ab282611a71565b602082019050919050565b60006020820190508181036000830152611ad681611a9a565b9050919050565b6000611ae8826110f8565b9150611af3836110f8565b9250828201905080821115611b0b57611b0a6119fa565b5b92915050565b7f4e487b7100000000000000000000000000000000000000000000000000000000600052601260045260246000fd5b6000611b4b826110f8565b9150611b56836110f8565b925082611b6657611b65611b11565b5b828204905092915050565b6000604082019050611b8660008301856110e9565b611b936020830184611102565b9392505050565b600081519050611ba981611148565b92915050565b600060208284031215611bc557611bc4610f15565b5b6000611bd384828501611b9a565b91505092915050565b6000604082019050611bf160008301856111d3565b611bfe6020830184611102565b9392505050565b611c0e816110dd565b8114611c1957600080fd5b50565b600081519050611c2b81611c05565b92915050565b600060208284031215611c4757611c46610f15565b5b6000611c5584828501611c1c565b91505092915050565b7f556e61626c6520746f207472616e736665720000000000000000000000000000600082015250565b6000611c946012836111ed565b9150611c9f82611c5e565b602082019050919050565b60006020820190508181036000830152611cc381611c87565b9050919050565b7f4f776e61626c653a206e6577206f776e657220697320746865207a65726f206160008201527f6464726573730000000000000000000000000000000000000000000000000000602082015250565b6000611d266026836111ed565b9150611d3182611cca565b604082019050919050565b60006020820190508181036000830152611d5581611d19565b9050919050565b7f4f776e61626c653a2063616c6c6572206973206e6f7420746865206f776e6572600082015250565b6000611d926020836111ed565b9150611d9d82611d5c565b602082019050919050565b60006020820190508181036000830152611dc181611d85565b905091905056fea2646970667358221220edb149d3c7ae410562150072bbb6db14fe34353312a4315b35748bd4c00622d964736f6c63430008130033",
  "linkReferences": {},
  "deployedLinkReferences": {}
}