{
  "_format": "hh-sol-artifact-1",
  "contractName": "OracleConnector",
  "sourceName": "contracts/OracleConnector.sol",
  "abi": [
    {
      "inputs": [
        {
          "internalType": "address",
          "name": "_linkToken",
          "type": "address"
        }
      ],
      "stateMutability": "nonpayable",
      "type": "constructor"
    },
    {
      "anonymous": false,
      "inputs": [
        {
          "indexed": true,
          "internalType": "bytes32",
          "name": "id",
          "type": "bytes32"
        }
      ],
      "name": "ChainlinkCancelled",
      "type": "event"
    },
    {
      "anonymous": false,
      "inputs": [
        {
          "indexed": true,
          "internalType": "bytes32",
          "name": "id",
          "type": "bytes32"
        }
      ],
      "name": "ChainlinkFulfilled",
      "type": "event"
    },
    {
      "anonymous": false,
      "inputs": [
        {
          "indexed": true,
          "internalType": "bytes32",
          "name": "id",
          "type": "bytes32"
        }
      ],
      "name": "ChainlinkRequested",
      "type": "event"
    },
    {
      "anonymous": false,
      "inputs": [
        {
          "indexed": true,
          "internalType": "bytes32",
          "name": "requestId",
          "type": "bytes32"
        },
        {
          "indexed": false,
          "internalType": "string",
          "name": "flightNumber",
          "type": "string"
        },
        {
          "indexed": false,
          "internalType": "string",
          "name": "departureTime",
          "type": "string"
        },
        {
          "indexed": false,
          "internalType": "bool",
          "name": "isDelayed",
          "type": "bool"
        },
        {
          "indexed": false,
          "internalType": "uint256",
          "name": "delayMinutes",
          "type": "uint256"
        }
      ],
      "name": "FlightDataReceived",
      "type": "event"
    },
    {
      "anonymous": false,
      "inputs": [
        {
          "indexed": true,
          "internalType": "bytes32",
          "name": "requestId",
          "type": "bytes32"
        },
        {
          "indexed": false,
          "internalType": "string",
          "name": "flightNumber",
          "type": "string"
        },
        {
          "indexed": false,
          "internalType": "string",
          "name": "departureTime",
          "type": "string"
        }
      ],
      "name": "FlightDataRequested",
      "type": "event"
    },
    {
      "anonymous": false,
      "inputs": [
        {
          "indexed": true,
          "internalType": "address",
          "name": "previousOwner",
          "type": "address"
        },
        {
          "indexed": true,
          "internalType": "address",
          "name": "newOwner",
          "type": "address"
        }
      ],
      "name": "OwnershipTransferred",
      "type": "event"
    },
    {
      "inputs": [
        {
          "internalType": "address",
          "name": "_oracle",
          "type": "address"
        },
        {
          "internalType": "string",
          "name": "_oracleAPIUrl",
          "type": "string"
        },
        {
          "internalType": "bytes32",
          "name": "_jobId",
          "type": "bytes32"
        }
      ],
      "name": "addOracle",
      "outputs": [],
      "stateMutability": "nonpayable",
      "type": "function"
    },
    {
      "inputs": [
        {
          "internalType": "string",
          "name": "_flightNumber",
          "type": "string"
        },
        {
          "internalType": "string",
          "name": "_departureTime",
          "type": "string"
        }
      ],
      "name": "checkFlightStatus",
      "outputs": [
        {
          "internalType": "bool",
          "name": "dataReceived",
          "type": "bool"
        },
        {
          "internalType": "bool",
          "name": "isDelayed",
          "type": "bool"
        },
        {
          "internalType": "uint256",
          "name": "delayHours",
          "type": "uint256"
        }
      ],
      "stateMutability": "view",
      "type": "function"
    },
    {
      "inputs": [
        {
          "internalType": "bytes32",
          "name": "_requestId",
          "type": "bytes32"
        },
        {
          "internalType": "uint256",
          "name": "_delayMinutes",
          "type": "uint256"
        }
      ],
      "name": "fulfillFlightData",
      "outputs": [],
      "stateMutability": "nonpayable",
      "type": "function"
    },
    {
      "inputs": [
        {
          "internalType": "string",
          "name": "_flightNumber",
          "type": "string"
        },
        {
          "internalType": "string",
          "name": "_departureTime",
          "type": "string"
        }
      ],
      "name": "getFlightStatus",
      "outputs": [
        {
          "internalType": "bool",
          "name": "dataReceived",
          "type": "bool"
        },
        {
          "internalType": "bool",
          "name": "isDelayed",
          "type": "bool"
        },
        {
          "internalType": "uint256",
          "name": "delayHours",
          "type": "uint256"
        }
      ],
      "stateMutability": "nonpayable",
      "type": "function"
    },
    {
      "inputs": [
        {
          "internalType": "uint256",
          "name": "",
          "type": "uint256"
        }
      ],
      "name": "oracles",
      "outputs": [
        {
          "internalType": "address",
          "name": "oracle",
          "type": "address"
        },
        {
          "internalType": "string",
          "name": "oracleAPIUrl",
          "type": "string"
        },
        {
          "internalType": "bytes32",
          "name": "jobId",
          "type": "bytes32"
        }
      ],
      "stateMutability": "view",
      "type": "function"
    },
    {
      "inputs": [],
      "name": "owner",
      "outputs": [
        {
          "internalType": "address",
          "name": "",
          "type": "address"
        }
      ],
      "stateMutability": "view",
      "type": "function"
    },
    {
      "inputs": [],
      "name": "renounceOwnership",
      "outputs": [],
      "stateMutability": "nonpayable",
      "type": "function"
    },
    {
      "inputs": [
        {
          "internalType": "string",
          "name": "_flightNumber",
          "type": "string"
        },
        {
          "internalType": "string",
          "name": "_departureTime",
          "type": "string"
        }
      ],
      "name": "requestFlightData",
      "outputs": [
        {
          "internalType": "bytes32",
          "name": "requestId",
          "type": "bytes32"
        }
      ],
      "stateMutability": "nonpayable",
      "type": "function"
    },
    {
      "inputs": [
        {
          "internalType": "address",
          "name": "newOwner",
          "type": "address"
        }
      ],
      "name": "transferOwnership",
      "outputs": [],
      "stateMutability": "nonpayable",
      "type": "function"
    },
    {
      "inputs": [],
      "name": "withdrawLink",
      "outputs": [],
      "stateMutability": "nonpayable",
      "type": "function"
    }
  ],
  "bytecode": "0x60806040526001600455603c6009553480156200001b57600080fd5b50604051620020f6380380620020f6833981810160405281019062000041919062000204565b62000061620000556200008860201b60201c565b6200009060201b60201c565b62000072816200015660201b60201c565b67016345785d8a00006008819055505062000236565b600033905090565b6000600660009054906101000a900473ffffffffffffffffffffffffffffffffffffffff16905081600660006101000a81548173ffffffffffffffffffffffffffffffffffffffff021916908373ffffffffffffffffffffffffffffffffffffffff1602179055508173ffffffffffffffffffffffffffffffffffffffff168173ffffffffffffffffffffffffffffffffffffffff167f8be0079c531659141344cd1fd0a4f28419497f9722a3daafe3b4186f6b6457e060405160405180910390a35050565b80600260006101000a81548173ffffffffffffffffffffffffffffffffffffffff021916908373ffffffffffffffffffffffffffffffffffffffff16021790555050565b600080fd5b600073ffffffffffffffffffffffffffffffffffffffff82169050919050565b6000620001cc826200019f565b9050919050565b620001de81620001bf565b8114620001ea57600080fd5b50565b600081519050620001fe81620001d3565b92915050565b6000602082840312156200021d576200021c6200019a565b5b60006200022d84828501620001ed565b91505092915050565b611eb080620002466000396000f3fe608060405234801561001057600080fd5b506004361061009e5760003560e01c80638da5cb5b116100665780638da5cb5b1461015d5780638dc654a21461017b578063c48c8ab314610185578063cc6b03b6146101a1578063f2fde38b146101d35761009e565b806326ec641e146100a35780635b69a7d8146100d55780636e229bec14610107578063715018a61461013757806378eb564014610141575b600080fd5b6100bd60048036038101906100b89190611081565b6101ef565b6040516100cc9392919061112d565b60405180910390f35b6100ef60048036038101906100ea9190611190565b6102c0565b6040516100fe93929190611296565b60405180910390f35b610121600480360381019061011c9190611081565b6103a2565b60405161012e91906112d4565b60405180910390f35b61013f6106b3565b005b61015b6004803603810190610156919061131b565b6106c7565b005b610165610a6c565b604051610172919061135b565b60405180910390f35b610183610a96565b005b61019f600480360381019061019a91906113a2565b610be3565b005b6101bb60048036038101906101b69190611081565b610cb5565b6040516101ca9392919061112d565b60405180910390f35b6101ed60048036038101906101e89190611411565b610d2e565b005b600080600080600c86604051610205919061147a565b908152602001604051809103902085604051610221919061147a565b908152602001604051809103902090508060060160009054906101000a900460ff161561027d578060060160009054906101000a900460ff168160020160009054906101000a900460ff168260050154935093509350506102b9565b61028786866103a2565b508060060160009054906101000a900460ff168160020160009054906101000a900460ff168260050154935093509350505b9250925092565b600781815481106102d057600080fd5b90600052602060002090600302016000915090508060000160009054906101000a900473ffffffffffffffffffffffffffffffffffffffff1690806001018054610319906114c0565b80601f0160208091040260200160405190810160405280929190818152602001828054610345906114c0565b80156103925780601f1061036757610100808354040283529160200191610392565b820191906000526020600020905b81548152906001019060200180831161037557829003601f168201915b5050505050908060020154905083565b600080600780549050116103eb576040517f08c379a00000000000000000000000000000000000000000000000000000000081526004016103e29061153d565b60405180910390fd5b60005b6007805490508110156106ac576000600782815481106104115761041061155d565b5b9060005260206000209060030201600101858560405160200161043693929190611670565b60405160208183030381529060405290506007828154811061045b5761045a61155d565b5b906000526020600020906003020160000160009054906101000a900473ffffffffffffffffffffffffffffffffffffffff1673ffffffffffffffffffffffffffffffffffffffff1663f28f4864306378eb564060e01b600854600787815481106104c8576104c761155d565b5b906000526020600020906003020160020154866040518663ffffffff1660e01b81526004016104fb959493929190611733565b6020604051808303816000875af115801561051a573d6000803e3d6000fd5b505050506040513d601f19601f8201168201806040525081019061053e91906117b5565b925084600a600085815260200190815260200160002090816105609190611979565b5083600b600085815260200190815260200160002090816105819190611979565b506000600c86604051610594919061147a565b9081526020016040518091039020856040516105b0919061147a565b9081526020016040518091039020600701540361065e5784600c866040516105d8919061147a565b9081526020016040518091039020856040516105f4919061147a565b908152602001604051809103902060000190816106119190611979565b5083600c86604051610623919061147a565b90815260200160405180910390208560405161063f919061147a565b9081526020016040518091039020600101908161065c9190611979565b505b827fb26113e7b01bcaf1c531a374b222800f33739a1265420cb172d334695ca8c6fd8686604051610690929190611a4b565b60405180910390a25080806106a490611ab1565b9150506103ee565b5092915050565b6106bb610db1565b6106c56000610e2f565b565b6000600a600084815260200190815260200160002080546106e7906114c0565b80601f0160208091040260200160405190810160405280929190818152602001828054610713906114c0565b80156107605780601f1061073557610100808354040283529160200191610760565b820191906000526020600020905b81548152906001019060200180831161074357829003601f168201915b505050505090506000600b60008581526020019081526020016000208054610787906114c0565b80601f01602080910402602001604051908101604052809291908181526020018280546107b3906114c0565b80156108005780601f106107d557610100808354040283529160200191610800565b820191906000526020600020905b8154815290600101906020018083116107e357829003601f168201915b50505050509050600082511161084b576040517f08c379a000000000000000000000000000000000000000000000000000000000815260040161084290611b45565b60405180910390fd5b6000600c8360405161085d919061147a565b908152602001604051809103902082604051610879919061147a565b908152602001604051809103902090508060090160003373ffffffffffffffffffffffffffffffffffffffff1673ffffffffffffffffffffffffffffffffffffffff16815260200190815260200160002060009054906101000a900460ff16156108e557505050610a68565b838160030160008282546108f99190611b65565b9250508190555080600701600081548092919061091590611ab1565b919050555060018160090160003373ffffffffffffffffffffffffffffffffffffffff1673ffffffffffffffffffffffffffffffffffffffff16815260200190815260200160002060006101000a81548160ff02191690831515021790555060008160070154826003015461098a9190611bc8565b9050808260040181905550603c816109a29190611bc8565b826005018190555060018260060160006101000a81548160ff02191690831515021790555060095481106109f25760018260020160006101000a81548160ff021916908315150217905550610a10565b60008260020160006101000a81548160ff0219169083151502179055505b857ffb77f6b1be2c38266dafd7bc10d29c4520057d5615ffb7e78e32cd23b5747a0785858560020160009054906101000a900460ff168660040154604051610a5b9493929190611bf9565b60405180910390a2505050505b5050565b6000600660009054906101000a900473ffffffffffffffffffffffffffffffffffffffff16905090565b610a9e610db1565b6000610aa8610ef5565b90508073ffffffffffffffffffffffffffffffffffffffff1663a9059cbb338373ffffffffffffffffffffffffffffffffffffffff166370a08231306040518263ffffffff1660e01b8152600401610b00919061135b565b602060405180830381865afa158015610b1d573d6000803e3d6000fd5b505050506040513d601f19601f82011682018060405250810190610b419190611c61565b6040518363ffffffff1660e01b8152600401610b5e929190611c8e565b6020604051808303816000875af1158015610b7d573d6000803e3d6000fd5b505050506040513d601f19601f82011682018060405250810190610ba19190611ce3565b610be0576040517f08c379a0000000000000000000000000000000000000000000000000000000008152600401610bd790611d5c565b60405180910390fd5b50565b610beb610db1565b600760405180606001604052808573ffffffffffffffffffffffffffffffffffffffff16815260200184815260200183815250908060018154018082558091505060019003906000526020600020906003020160009091909190915060008201518160000160006101000a81548173ffffffffffffffffffffffffffffffffffffffff021916908373ffffffffffffffffffffffffffffffffffffffff1602179055506020820151816001019081610ca39190611979565b50604082015181600201555050505050565b600080600080600c86604051610ccb919061147a565b908152602001604051809103902085604051610ce7919061147a565b908152602001604051809103902090508060060160009054906101000a900460ff168160020160009054906101000a900460ff168260050154935093509350509250925092565b610d36610db1565b600073ffffffffffffffffffffffffffffffffffffffff168173ffffffffffffffffffffffffffffffffffffffff1603610da5576040517f08c379a0000000000000000000000000000000000000000000000000000000008152600401610d9c90611dee565b60405180910390fd5b610dae81610e2f565b50565b610db9610f1f565b73ffffffffffffffffffffffffffffffffffffffff16610dd7610a6c565b73ffffffffffffffffffffffffffffffffffffffff1614610e2d576040517f08c379a0000000000000000000000000000000000000000000000000000000008152600401610e2490611e5a565b60405180910390fd5b565b6000600660009054906101000a900473ffffffffffffffffffffffffffffffffffffffff16905081600660006101000a81548173ffffffffffffffffffffffffffffffffffffffff021916908373ffffffffffffffffffffffffffffffffffffffff1602179055508173ffffffffffffffffffffffffffffffffffffffff168173ffffffffffffffffffffffffffffffffffffffff167f8be0079c531659141344cd1fd0a4f28419497f9722a3daafe3b4186f6b6457e060405160405180910390a35050565b6000600260009054906101000a900473ffffffffffffffffffffffffffffffffffffffff16905090565b600033905090565b6000604051905090565b600080fd5b600080fd5b600080fd5b600080fd5b6000601f19601f8301169050919050565b7f4e487b7100000000000000000000000000000000000000000000000000000000600052604160045260246000fd5b610f8e82610f45565b810181811067ffffffffffffffff82111715610fad57610fac610f56565b5b80604052505050565b6000610fc0610f27565b9050610fcc8282610f85565b919050565b600067ffffffffffffffff821115610fec57610feb610f56565b5b610ff582610f45565b9050602081019050919050565b82818337600083830152505050565b600061102461101f84610fd1565b610fb6565b9050828152602081018484840111156110405761103f610f40565b5b61104b848285611002565b509392505050565b600082601f83011261106857611067610f3b565b5b8135611078848260208601611011565b91505092915050565b6000806040838503121561109857611097610f31565b5b600083013567ffffffffffffffff8111156110b6576110b5610f36565b5b6110c285828601611053565b925050602083013567ffffffffffffffff8111156110e3576110e2610f36565b5b6110ef85828601611053565b9150509250929050565b60008115159050919050565b61110e816110f9565b82525050565b6000819050919050565b61112781611114565b82525050565b60006060820190506111426000830186611105565b61114f6020830185611105565b61115c604083018461111e565b949350505050565b61116d81611114565b811461117857600080fd5b50565b60008135905061118a81611164565b92915050565b6000602082840312156111a6576111a5610f31565b5b60006111b48482850161117b565b91505092915050565b600073ffffffffffffffffffffffffffffffffffffffff82169050919050565b60006111e8826111bd565b9050919050565b6111f8816111dd565b82525050565b600081519050919050565b600082825260208201905092915050565b60005b8381101561123857808201518184015260208101905061121d565b60008484015250505050565b600061124f826111fe565b6112598185611209565b935061126981856020860161121a565b61127281610f45565b840191505092915050565b6000819050919050565b6112908161127d565b82525050565b60006060820190506112ab60008301866111ef565b81810360208301526112bd8185611244565b90506112cc6040830184611287565b949350505050565b60006020820190506112e96000830184611287565b92915050565b6112f88161127d565b811461130357600080fd5b50565b600081359050611315816112ef565b92915050565b6000806040838503121561133257611331610f31565b5b600061134085828601611306565b92505060206113518582860161117b565b9150509250929050565b600060208201905061137060008301846111ef565b92915050565b61137f816111dd565b811461138a57600080fd5b50565b60008135905061139c81611376565b92915050565b6000806000606084860312156113bb576113ba610f31565b5b60006113c98682870161138d565b935050602084013567ffffffffffffffff8111156113ea576113e9610f36565b5b6113f686828701611053565b925050604061140786828701611306565b9150509250925092565b60006020828403121561142757611426610f31565b5b60006114358482850161138d565b91505092915050565b600081905092915050565b6000611454826111fe565b61145e818561143e565b935061146e81856020860161121a565b80840191505092915050565b60006114868284611449565b915081905092915050565b7f4e487b7100000000000000000000000000000000000000000000000000000000600052602260045260246000fd5b600060028204905060018216806114d857607f821691505b6020821081036114eb576114ea611491565b5b50919050565b7f4e6f206f7261636c657320736574000000000000000000000000000000000000600082015250565b6000611527600e83611209565b9150611532826114f1565b602082019050919050565b600060208201905081810360008301526115568161151a565b9050919050565b7f4e487b7100000000000000000000000000000000000000000000000000000000600052603260045260246000fd5b60008190508160005260206000209050919050565b600081546115ae816114c0565b6115b8818661143e565b945060018216600081146115d357600181146115e85761161b565b60ff198316865281151582028601935061161b565b6115f18561158c565b60005b83811015611613578154818901526001820191506020810190506115f4565b838801955050505b50505092915050565b7f3f6465706172747572653d000000000000000000000000000000000000000000600082015250565b600061165a600b8361143e565b915061166582611624565b600b82019050919050565b600061167c82866115a1565b91506116888285611449565b91506116938261164d565b915061169f8284611449565b9150819050949350505050565b60007fffffffff0000000000000000000000000000000000000000000000000000000082169050919050565b6116e1816116ac565b82525050565b7f64656c61794d696e757465730000000000000000000000000000000000000000600082015250565b600061171d600c83611209565b9150611728826116e7565b602082019050919050565b600060c08201905061174860008301886111ef565b61175560208301876116d8565b611762604083018661111e565b61176f6060830185611287565b81810360808301526117818184611244565b905081810360a083015261179481611710565b90509695505050505050565b6000815190506117af816112ef565b92915050565b6000602082840312156117cb576117ca610f31565b5b60006117d9848285016117a0565b91505092915050565b60006020601f8301049050919050565b600082821b905092915050565b60006008830261182f7fffffffffffffffffffffffffffffffffffffffffffffffffffffffffffffffff826117f2565b61183986836117f2565b95508019841693508086168417925050509392505050565b6000819050919050565b600061187661187161186c84611114565b611851565b611114565b9050919050565b6000819050919050565b6118908361185b565b6118a461189c8261187d565b8484546117ff565b825550505050565b600090565b6118b96118ac565b6118c4818484611887565b505050565b5b818110156118e8576118dd6000826118b1565b6001810190506118ca565b5050565b601f82111561192d576118fe8161158c565b611907846117e2565b81016020851015611916578190505b61192a611922856117e2565b8301826118c9565b50505b505050565b600082821c905092915050565b600061195060001984600802611932565b1980831691505092915050565b6000611969838361193f565b9150826002028217905092915050565b611982826111fe565b67ffffffffffffffff81111561199b5761199a610f56565b5b6119a582546114c0565b6119b08282856118ec565b600060209050601f8311600181146119e357600084156119d1578287015190505b6119db858261195d565b865550611a43565b601f1984166119f18661158c565b60005b82811015611a19578489015182556001820191506020850194506020810190506119f4565b86831015611a365784890151611a32601f89168261193f565b8355505b6001600288020188555050505b505050505050565b60006040820190508181036000830152611a658185611244565b90508181036020830152611a798184611244565b90509392505050565b7f4e487b7100000000000000000000000000000000000000000000000000000000600052601160045260246000fd5b6000611abc82611114565b91507fffffffffffffffffffffffffffffffffffffffffffffffffffffffffffffffff8203611aee57611aed611a82565b5b600182019050919050565b7f496e76616c696420726571756573742049440000000000000000000000000000600082015250565b6000611b2f601283611209565b9150611b3a82611af9565b602082019050919050565b60006020820190508181036000830152611b5e81611b22565b9050919050565b6000611b7082611114565b9150611b7b83611114565b9250828201905080821115611b9357611b92611a82565b5b92915050565b7f4e487b7100000000000000000000000000000000000000000000000000000000600052601260045260246000fd5b6000611bd382611114565b9150611bde83611114565b925082611bee57611bed611b99565b5b828204905092915050565b60006080820190508181036000830152611c138187611244565b90508181036020830152611c278186611244565b9050611c366040830185611105565b611c43606083018461111e565b95945050505050565b600081519050611c5b81611164565b92915050565b600060208284031215611c7757611c76610f31565b5b6000611c8584828501611c4c565b91505092915050565b6000604082019050611ca360008301856111ef565b611cb0602083018461111e565b9392505050565b611cc0816110f9565b8114611ccb57600080fd5b50565b600081519050611cdd81611cb7565b92915050565b600060208284031215611cf957611cf8610f31565b5b6000611d0784828501611cce565b91505092915050565b7f556e61626c6520746f207472616e736665720000000000000000000000000000600082015250565b6000611d46601283611209565b9150611d5182611d10565b602082019050919050565b60006020820190508181036000830152611d7581611d39565b9050919050565b7f4f776e61626c653a206e6577206f776e657220697320746865207a65726f206160008201527f6464726573730000000000000000000000000000000000000000000000000000602082015250565b6000611dd8602683611209565b9150611de382611d7c565b604082019050919050565b60006020820190508181036000830152611e0781611dcb565b9050919050565b7f4f776e61626c653a2063616c6c6572206973206e6f7420746865206f776e6572600082015250565b6000611e44602083611209565b9150611e4f82611e0e565b602082019050919050565b60006020820190508181036000830152611e7381611e37565b905091905056fea264697066735822122034fed1431c4cc36adff4dc97643383f4feb2bdc9772e4e10b8f9ba4b55a5c73d64736f6c63430008130033",
  "linkReferences": {},
  "deployedLinkReferences": {}
}