{
  "_format": "hh-sol-artifact-1",
  "contractName": "OracleConnector",
  "sourceName": "contracts/OracleConnector.sol",
  "abi": [
    {
      "inputs": [
        {
          "internalType": "address",
          "name": "_linkToken",
          "type": "address"
        }
      ],
      "stateMutability": "nonpayable",
      "type": "constructor"
    },
    {
      "anonymous": false,
      "inputs": [
        {
          "indexed": true,
          "internalType": "bytes32",
          "name": "requestId",
          "type": "bytes32"
        },
        {
          "indexed": false,
          "internalType": "string",
          "name": "flightNumber",
          "type": "string"
        },
        {
          "indexed": false,
          "internalType": "string",
          "name": "departureTime",
          "type": "string"
        },
        {
          "indexed": false,
          "internalType": "string",
          "name": "itemDescription",
          "type": "string"
        },
        {
          "indexed": false,
          "internalType": "uint256",
          "name": "retrievedBaggageStatus",
          "type": "uint256"
        }
      ],
      "name": "BaggageDataRecieved",
      "type": "event"
    },
    {
      "anonymous": false,
      "inputs": [
        {
          "indexed": true,
          "internalType": "bytes32",
          "name": "requestId",
          "type": "bytes32"
        },
        {
          "indexed": false,
          "internalType": "string",
          "name": "flightNumber",
          "type": "string"
        },
        {
          "indexed": false,
          "internalType": "string",
          "name": "departureTime",
          "type": "string"
        },
        {
          "indexed": false,
          "internalType": "string",
          "name": "itemDescription",
          "type": "string"
        }
      ],
      "name": "BaggageDataRequested",
      "type": "event"
    },
    {
      "anonymous": false,
      "inputs": [
        {
          "indexed": true,
          "internalType": "bytes32",
          "name": "id",
          "type": "bytes32"
        }
      ],
      "name": "ChainlinkCancelled",
      "type": "event"
    },
    {
      "anonymous": false,
      "inputs": [
        {
          "indexed": true,
          "internalType": "bytes32",
          "name": "id",
          "type": "bytes32"
        }
      ],
      "name": "ChainlinkFulfilled",
      "type": "event"
    },
    {
      "anonymous": false,
      "inputs": [
        {
          "indexed": true,
          "internalType": "bytes32",
          "name": "id",
          "type": "bytes32"
        }
      ],
      "name": "ChainlinkRequested",
      "type": "event"
    },
    {
      "anonymous": false,
      "inputs": [
        {
          "indexed": true,
          "internalType": "bytes32",
          "name": "requestId",
          "type": "bytes32"
        },
        {
          "indexed": true,
          "internalType": "string",
          "name": "flightNumber",
          "type": "string"
        },
        {
          "indexed": true,
          "internalType": "string",
          "name": "departureTime",
          "type": "string"
        },
        {
          "indexed": false,
          "internalType": "bool",
          "name": "isDelayed",
          "type": "bool"
        },
        {
          "indexed": false,
          "internalType": "uint256",
          "name": "delayMinutes",
          "type": "uint256"
        }
      ],
      "name": "FlightDataReceived",
      "type": "event"
    },
    {
      "anonymous": false,
      "inputs": [
        {
          "indexed": true,
          "internalType": "bytes32",
          "name": "requestId",
          "type": "bytes32"
        },
        {
          "indexed": false,
          "internalType": "string",
          "name": "flightNumber",
          "type": "string"
        },
        {
          "indexed": false,
          "internalType": "string",
          "name": "departureTime",
          "type": "string"
        }
      ],
      "name": "FlightDataRequested",
      "type": "event"
    },
    {
      "inputs": [
        {
          "internalType": "address",
          "name": "_oracle",
          "type": "address"
        },
        {
          "internalType": "string",
          "name": "_oracleAPIUrl",
          "type": "string"
        },
        {
          "internalType": "bytes32",
          "name": "_jobId",
          "type": "bytes32"
        }
      ],
      "name": "addOracle",
      "outputs": [],
      "stateMutability": "nonpayable",
      "type": "function"
    },
    {
      "inputs": [
        {
          "internalType": "string",
          "name": "_flightNumber",
          "type": "string"
        },
        {
          "internalType": "string",
          "name": "_departureTime",
          "type": "string"
        },
        {
          "internalType": "string",
          "name": "_itemDescription",
          "type": "string"
        }
      ],
      "name": "checkBaggageStatus",
      "outputs": [
        {
          "internalType": "bool",
          "name": "dataReceived",
          "type": "bool"
        },
        {
          "internalType": "bool",
          "name": "baggageStatus",
          "type": "bool"
        }
      ],
      "stateMutability": "view",
      "type": "function"
    },
    {
      "inputs": [
        {
          "internalType": "string",
          "name": "_flightNumber",
          "type": "string"
        },
        {
          "internalType": "string",
          "name": "_departureTime",
          "type": "string"
        }
      ],
      "name": "checkFlightStatus",
      "outputs": [
        {
          "internalType": "bool",
          "name": "dataReceived",
          "type": "bool"
        },
        {
          "internalType": "bool",
          "name": "isDelayed",
          "type": "bool"
        },
        {
          "internalType": "uint256",
          "name": "delayHours",
          "type": "uint256"
        }
      ],
      "stateMutability": "view",
      "type": "function"
    },
    {
      "inputs": [
        {
          "internalType": "bytes32",
          "name": "_requestId",
          "type": "bytes32"
        },
        {
          "internalType": "uint256",
          "name": "_baggageStatus",
          "type": "uint256"
        }
      ],
      "name": "fulfillBaggageData",
      "outputs": [],
      "stateMutability": "nonpayable",
      "type": "function"
    },
    {
      "inputs": [
        {
          "internalType": "bytes32",
          "name": "_requestId",
          "type": "bytes32"
        },
        {
          "internalType": "uint256",
          "name": "_delayMinutes",
          "type": "uint256"
        }
      ],
      "name": "fulfillFlightData",
      "outputs": [],
      "stateMutability": "nonpayable",
      "type": "function"
    },
    {
      "inputs": [
        {
          "internalType": "string",
          "name": "_flightNumber",
          "type": "string"
        },
        {
          "internalType": "string",
          "name": "_departureTime",
          "type": "string"
        },
        {
          "internalType": "string",
          "name": "_itemDescription",
          "type": "string"
        }
      ],
      "name": "getBaggageStatus",
      "outputs": [
        {
          "internalType": "bool",
          "name": "dataReceived",
          "type": "bool"
        },
        {
          "internalType": "bool",
          "name": "baggageStatus",
          "type": "bool"
        }
      ],
      "stateMutability": "nonpayable",
      "type": "function"
    },
    {
      "inputs": [
        {
          "internalType": "string",
          "name": "_flightNumber",
          "type": "string"
        },
        {
          "internalType": "string",
          "name": "_departureTime",
          "type": "string"
        }
      ],
      "name": "getFlightStatus",
      "outputs": [
        {
          "internalType": "bool",
          "name": "dataReceived",
          "type": "bool"
        },
        {
          "internalType": "bool",
          "name": "isDelayed",
          "type": "bool"
        },
        {
          "internalType": "uint256",
          "name": "delayHours",
          "type": "uint256"
        }
      ],
      "stateMutability": "nonpayable",
      "type": "function"
    },
    {
      "inputs": [
        {
          "internalType": "uint256",
          "name": "",
          "type": "uint256"
        }
      ],
      "name": "oracles",
      "outputs": [
        {
          "internalType": "address",
          "name": "oracle",
          "type": "address"
        },
        {
          "internalType": "string",
          "name": "oracleAPIUrl",
          "type": "string"
        },
        {
          "internalType": "bytes32",
          "name": "jobId",
          "type": "bytes32"
        }
      ],
      "stateMutability": "view",
      "type": "function"
    },
    {
      "inputs": [
        {
          "internalType": "string",
          "name": "_flightNumber",
          "type": "string"
        },
        {
          "internalType": "string",
          "name": "_departureTime",
          "type": "string"
        },
        {
          "internalType": "string",
          "name": "_itemDescription",
          "type": "string"
        }
      ],
      "name": "requestBaggageData",
      "outputs": [
        {
          "internalType": "bytes32",
          "name": "requestId",
          "type": "bytes32"
        }
      ],
      "stateMutability": "nonpayable",
      "type": "function"
    },
    {
      "inputs": [
        {
          "internalType": "string",
          "name": "_flightNumber",
          "type": "string"
        },
        {
          "internalType": "string",
          "name": "_departureTime",
          "type": "string"
        }
      ],
      "name": "requestFlightData",
      "outputs": [
        {
          "internalType": "bytes32",
          "name": "requestId",
          "type": "bytes32"
        }
      ],
      "stateMutability": "nonpayable",
      "type": "function"
    },
    {
      "inputs": [],
      "name": "withdrawLink",
      "outputs": [],
      "stateMutability": "nonpayable",
      "type": "function"
    }
  ],
  "bytecode": "0x60806040526001600455603c6008553480156200001b57600080fd5b506040516200278738038062002787833981810160405281019062000041919062000116565b62000052816200006860201b60201c565b67016345785d8a00006007819055505062000148565b80600260006101000a81548173ffffffffffffffffffffffffffffffffffffffff021916908373ffffffffffffffffffffffffffffffffffffffff16021790555050565b600080fd5b600073ffffffffffffffffffffffffffffffffffffffff82169050919050565b6000620000de82620000b1565b9050919050565b620000f081620000d1565b8114620000fc57600080fd5b50565b6000815190506200011081620000e5565b92915050565b6000602082840312156200012f576200012e620000ac565b5b60006200013f84828501620000ff565b91505092915050565b61262f80620001586000396000f3fe608060405234801561001057600080fd5b50600436106100a95760003560e01c80637a778718116100715780637a7787181461018f5780638dc654a2146101ab578063927f8ae6146101b5578063c48c8ab3146101e6578063cc6b03b614610202578063efa3d11314610234576100a9565b806326ec641e146100ae5780634bfdcb64146100e05780635b69a7d8146101115780636e229bec1461014357806378eb564014610173575b600080fd5b6100c860048036038101906100c39190611686565b610264565b6040516100d793929190611732565b60405180910390f35b6100fa60048036038101906100f59190611769565b610335565b604051610108929190611810565b60405180910390f35b61012b60048036038101906101269190611865565b6103c3565b60405161013a9392919061196b565b60405180910390f35b61015d60048036038101906101589190611686565b6104a5565b60405161016a91906119a9565b60405180910390f35b61018d600480360381019061018891906119f0565b610772565b005b6101a960048036038101906101a491906119f0565b610b3f565b005b6101b3610e53565b005b6101cf60048036038101906101ca9190611769565b610f98565b6040516101dd929190611810565b60405180910390f35b61020060048036038101906101fb9190611a5c565b611078565b005b61021c60048036038101906102179190611686565b611142565b60405161022b93929190611732565b60405180910390f35b61024e60048036038101906102499190611769565b6111bb565b60405161025b91906119a9565b60405180910390f35b600080600080600c8660405161027a9190611b07565b9081526020016040518091039020856040516102969190611b07565b908152602001604051809103902090508060060160009054906101000a900460ff16156102f2578060060160009054906101000a900460ff168160020160009054906101000a900460ff1682600501549350935093505061032e565b6102fc86866104a5565b508060060160009054906101000a900460ff168160020160009054906101000a900460ff168260050154935093509350505b9250925092565b6000806000600d8660405161034a9190611b07565b9081526020016040518091039020856040516103669190611b07565b9081526020016040518091039020846040516103829190611b07565b908152602001604051809103902090508060010160019054906101000a900460ff168160010160009054906101000a900460ff169250925050935093915050565b600681815481106103d357600080fd5b90600052602060002090600302016000915090508060000160009054906101000a900473ffffffffffffffffffffffffffffffffffffffff169080600101805461041c90611b4d565b80601f016020809104026020016040519081016040528092919081815260200182805461044890611b4d565b80156104955780601f1061046a57610100808354040283529160200191610495565b820191906000526020600020905b81548152906001019060200180831161047857829003601f168201915b5050505050908060020154905083565b600080600090505b60068054905081101561076b576000600682815481106104d0576104cf611b7e565b5b906000526020600020906003020160010185856040516020016104f593929190611c91565b60405160208183030381529060405290506006828154811061051a57610519611b7e565b5b906000526020600020906003020160000160009054906101000a900473ffffffffffffffffffffffffffffffffffffffff1673ffffffffffffffffffffffffffffffffffffffff1663f28f4864306378eb564060e01b6007546006878154811061058757610586611b7e565b5b906000526020600020906003020160020154866040518663ffffffff1660e01b81526004016105ba959493929190611d54565b6020604051808303816000875af11580156105d9573d6000803e3d6000fd5b505050506040513d601f19601f820116820180604052508101906105fd9190611dd6565b92508460096000858152602001908152602001600020908161061f9190611f9a565b5083600a600085815260200190815260200160002090816106409190611f9a565b506000600c866040516106539190611b07565b90815260200160405180910390208560405161066f9190611b07565b9081526020016040518091039020600701540361071d5784600c866040516106979190611b07565b9081526020016040518091039020856040516106b39190611b07565b908152602001604051809103902060000190816106d09190611f9a565b5083600c866040516106e29190611b07565b9081526020016040518091039020856040516106fe9190611b07565b9081526020016040518091039020600101908161071b9190611f9a565b505b827fb26113e7b01bcaf1c531a374b222800f33739a1265420cb172d334695ca8c6fd868660405161074f92919061206c565b60405180910390a2508080610763906120d2565b9150506104ad565b5092915050565b600060096000848152602001908152602001600020805461079290611b4d565b80601f01602080910402602001604051908101604052809291908181526020018280546107be90611b4d565b801561080b5780601f106107e05761010080835404028352916020019161080b565b820191906000526020600020905b8154815290600101906020018083116107ee57829003601f168201915b505050505090506000600a6000858152602001908152602001600020805461083290611b4d565b80601f016020809104026020016040519081016040528092919081815260200182805461085e90611b4d565b80156108ab5780601f10610880576101008083540402835291602001916108ab565b820191906000526020600020905b81548152906001019060200180831161088e57829003601f168201915b5050505050905060008251116108f6576040517f08c379a00000000000000000000000000000000000000000000000000000000081526004016108ed90612166565b60405180910390fd5b6000600c836040516109089190611b07565b9081526020016040518091039020826040516109249190611b07565b908152602001604051809103902090508060090160003373ffffffffffffffffffffffffffffffffffffffff1673ffffffffffffffffffffffffffffffffffffffff16815260200190815260200160002060009054906101000a900460ff161561099057505050610b3b565b838160030160008282546109a49190612186565b925050819055508060070160008154809291906109c0906120d2565b919050555060018160090160003373ffffffffffffffffffffffffffffffffffffffff1673ffffffffffffffffffffffffffffffffffffffff16815260200190815260200160002060006101000a81548160ff021916908315150217905550600081600701548260030154610a3591906121e9565b9050808260040181905550603c81610a4d91906121e9565b826005018190555060018260060160006101000a81548160ff0219169083151502179055506008548110610a9d5760018260020160006101000a81548160ff021916908315150217905550610abb565b60008260020160006101000a81548160ff0219169083151502179055505b82604051610ac99190611b07565b604051809103902084604051610adf9190611b07565b6040518091039020877ffb77f6b1be2c38266dafd7bc10d29c4520057d5615ffb7e78e32cd23b5747a078560020160009054906101000a900460ff168660040154604051610b2e92919061221a565b60405180910390a4505050505b5050565b6000600b600084815260200190815260200160002090506000816000018054610b6790611b4d565b80601f0160208091040260200160405190810160405280929190818152602001828054610b9390611b4d565b8015610be05780601f10610bb557610100808354040283529160200191610be0565b820191906000526020600020905b815481529060010190602001808311610bc357829003601f168201915b505050505090506000826001018054610bf890611b4d565b80601f0160208091040260200160405190810160405280929190818152602001828054610c2490611b4d565b8015610c715780601f10610c4657610100808354040283529160200191610c71565b820191906000526020600020905b815481529060010190602001808311610c5457829003601f168201915b505050505090506000836002018054610c8990611b4d565b80601f0160208091040260200160405190810160405280929190818152602001828054610cb590611b4d565b8015610d025780601f10610cd757610100808354040283529160200191610d02565b820191906000526020600020905b815481529060010190602001808311610ce557829003601f168201915b505050505090506000815111610d4d576040517f08c379a0000000000000000000000000000000000000000000000000000000008152600401610d4490612166565b60405180910390fd5b6000600d84604051610d5f9190611b07565b908152602001604051809103902083604051610d7b9190611b07565b908152602001604051809103902082604051610d979190611b07565b9081526020016040518091039020905060018160010160016101000a81548160ff02191690831515021790555060008603610dee5760008160010160006101000a81548160ff021916908315150217905550610e0c565b60018160010160006101000a81548160ff0219169083151502179055505b867fadd8b82bcba8488c3cb557cb04d35dc5076518ae1edbc9dd1efe1dbaaa64a2718585858a604051610e429493929190612243565b60405180910390a250505050505050565b6000610e5d611502565b90508073ffffffffffffffffffffffffffffffffffffffff1663a9059cbb338373ffffffffffffffffffffffffffffffffffffffff166370a08231306040518263ffffffff1660e01b8152600401610eb5919061229d565b602060405180830381865afa158015610ed2573d6000803e3d6000fd5b505050506040513d601f19601f82011682018060405250810190610ef691906122cd565b6040518363ffffffff1660e01b8152600401610f139291906122fa565b6020604051808303816000875af1158015610f32573d6000803e3d6000fd5b505050506040513d601f19601f82011682018060405250810190610f56919061234f565b610f95576040517f08c379a0000000000000000000000000000000000000000000000000000000008152600401610f8c906123c8565b60405180910390fd5b50565b6000806000600d86604051610fad9190611b07565b908152602001604051809103902085604051610fc99190611b07565b908152602001604051809103902084604051610fe59190611b07565b908152602001604051809103902090508060010160019054906101000a900460ff161561103a578060010160019054906101000a900460ff168160010160009054906101000a900460ff169250925050611070565b6110458686866111bb565b508060010160019054906101000a900460ff168160010160009054906101000a900460ff1692509250505b935093915050565b600660405180606001604052808573ffffffffffffffffffffffffffffffffffffffff16815260200184815260200183815250908060018154018082558091505060019003906000526020600020906003020160009091909190915060008201518160000160006101000a81548173ffffffffffffffffffffffffffffffffffffffff021916908373ffffffffffffffffffffffffffffffffffffffff16021790555060208201518160010190816111309190611f9a565b50604082015181600201555050505050565b600080600080600c866040516111589190611b07565b9081526020016040518091039020856040516111749190611b07565b908152602001604051809103902090508060060160009054906101000a900460ff168160020160009054906101000a900460ff168260050154935093509350509250925092565b60008060068054905011611204576040517f08c379a00000000000000000000000000000000000000000000000000000000081526004016111fb90612434565b60405180910390fd5b60005b6006805490508110156114fa5760006006828154811061122a57611229611b7e565b5b906000526020600020906003020160010186868660405160200161125194939291906124a0565b60405160208183030381529060405290506006828154811061127657611275611b7e565b5b906000526020600020906003020160000160009054906101000a900473ffffffffffffffffffffffffffffffffffffffff1673ffffffffffffffffffffffffffffffffffffffff1663f28f486430637a77871860e01b600754600687815481106112e3576112e2611b7e565b5b906000526020600020906003020160020154866040518663ffffffff1660e01b8152600401611316959493929190612540565b6020604051808303816000875af1158015611335573d6000803e3d6000fd5b505050506040513d601f19601f820116820180604052508101906113599190611dd6565b9250604051806060016040528087815260200186815260200185815250600b6000858152602001908152602001600020600082015181600001908161139e9190611f9a565b5060208201518160010190816113b49190611f9a565b5060408201518160020190816113ca9190611f9a565b509050506000600c876040516113e09190611b07565b9081526020016040518091039020866040516113fc9190611b07565b908152602001604051809103902060070154036114aa5785600c876040516114249190611b07565b9081526020016040518091039020866040516114409190611b07565b9081526020016040518091039020600001908161145d9190611f9a565b5084600c8760405161146f9190611b07565b90815260200160405180910390208660405161148b9190611b07565b908152602001604051809103902060010190816114a89190611f9a565b505b827fd318d5abf7200d94903a4c1d08cb6d32e5a1c5ba41a730533ff41895cafa36f18787876040516114de939291906125ad565b60405180910390a25080806114f2906120d2565b915050611207565b509392505050565b6000600260009054906101000a900473ffffffffffffffffffffffffffffffffffffffff16905090565b6000604051905090565b600080fd5b600080fd5b600080fd5b600080fd5b6000601f19601f8301169050919050565b7f4e487b7100000000000000000000000000000000000000000000000000000000600052604160045260246000fd5b6115938261154a565b810181811067ffffffffffffffff821117156115b2576115b161155b565b5b80604052505050565b60006115c561152c565b90506115d1828261158a565b919050565b600067ffffffffffffffff8211156115f1576115f061155b565b5b6115fa8261154a565b9050602081019050919050565b82818337600083830152505050565b6000611629611624846115d6565b6115bb565b90508281526020810184848401111561164557611644611545565b5b611650848285611607565b509392505050565b600082601f83011261166d5761166c611540565b5b813561167d848260208601611616565b91505092915050565b6000806040838503121561169d5761169c611536565b5b600083013567ffffffffffffffff8111156116bb576116ba61153b565b5b6116c785828601611658565b925050602083013567ffffffffffffffff8111156116e8576116e761153b565b5b6116f485828601611658565b9150509250929050565b60008115159050919050565b611713816116fe565b82525050565b6000819050919050565b61172c81611719565b82525050565b6000606082019050611747600083018661170a565b611754602083018561170a565b6117616040830184611723565b949350505050565b60008060006060848603121561178257611781611536565b5b600084013567ffffffffffffffff8111156117a05761179f61153b565b5b6117ac86828701611658565b935050602084013567ffffffffffffffff8111156117cd576117cc61153b565b5b6117d986828701611658565b925050604084013567ffffffffffffffff8111156117fa576117f961153b565b5b61180686828701611658565b9150509250925092565b6000604082019050611825600083018561170a565b611832602083018461170a565b9392505050565b61184281611719565b811461184d57600080fd5b50565b60008135905061185f81611839565b92915050565b60006020828403121561187b5761187a611536565b5b600061188984828501611850565b91505092915050565b600073ffffffffffffffffffffffffffffffffffffffff82169050919050565b60006118bd82611892565b9050919050565b6118cd816118b2565b82525050565b600081519050919050565b600082825260208201905092915050565b60005b8381101561190d5780820151818401526020810190506118f2565b60008484015250505050565b6000611924826118d3565b61192e81856118de565b935061193e8185602086016118ef565b6119478161154a565b840191505092915050565b6000819050919050565b61196581611952565b82525050565b600060608201905061198060008301866118c4565b81810360208301526119928185611919565b90506119a1604083018461195c565b949350505050565b60006020820190506119be600083018461195c565b92915050565b6119cd81611952565b81146119d857600080fd5b50565b6000813590506119ea816119c4565b92915050565b60008060408385031215611a0757611a06611536565b5b6000611a15858286016119db565b9250506020611a2685828601611850565b9150509250929050565b611a39816118b2565b8114611a4457600080fd5b50565b600081359050611a5681611a30565b92915050565b600080600060608486031215611a7557611a74611536565b5b6000611a8386828701611a47565b935050602084013567ffffffffffffffff811115611aa457611aa361153b565b5b611ab086828701611658565b9250506040611ac1868287016119db565b9150509250925092565b600081905092915050565b6000611ae1826118d3565b611aeb8185611acb565b9350611afb8185602086016118ef565b80840191505092915050565b6000611b138284611ad6565b915081905092915050565b7f4e487b7100000000000000000000000000000000000000000000000000000000600052602260045260246000fd5b60006002820490506001821680611b6557607f821691505b602082108103611b7857611b77611b1e565b5b50919050565b7f4e487b7100000000000000000000000000000000000000000000000000000000600052603260045260246000fd5b60008190508160005260206000209050919050565b60008154611bcf81611b4d565b611bd98186611acb565b94506001821660008114611bf45760018114611c0957611c3c565b60ff1983168652811515820286019350611c3c565b611c1285611bad565b60005b83811015611c3457815481890152600182019150602081019050611c15565b838801955050505b50505092915050565b7f3f6465706172747572653d000000000000000000000000000000000000000000600082015250565b6000611c7b600b83611acb565b9150611c8682611c45565b600b82019050919050565b6000611c9d8286611bc2565b9150611ca98285611ad6565b9150611cb482611c6e565b9150611cc08284611ad6565b9150819050949350505050565b60007fffffffff0000000000000000000000000000000000000000000000000000000082169050919050565b611d0281611ccd565b82525050565b7f64656c61794d696e757465730000000000000000000000000000000000000000600082015250565b6000611d3e600c836118de565b9150611d4982611d08565b602082019050919050565b600060c082019050611d6960008301886118c4565b611d766020830187611cf9565b611d836040830186611723565b611d90606083018561195c565b8181036080830152611da28184611919565b905081810360a0830152611db581611d31565b90509695505050505050565b600081519050611dd0816119c4565b92915050565b600060208284031215611dec57611deb611536565b5b6000611dfa84828501611dc1565b91505092915050565b60006020601f8301049050919050565b600082821b905092915050565b600060088302611e507fffffffffffffffffffffffffffffffffffffffffffffffffffffffffffffffff82611e13565b611e5a8683611e13565b95508019841693508086168417925050509392505050565b6000819050919050565b6000611e97611e92611e8d84611719565b611e72565b611719565b9050919050565b6000819050919050565b611eb183611e7c565b611ec5611ebd82611e9e565b848454611e20565b825550505050565b600090565b611eda611ecd565b611ee5818484611ea8565b505050565b5b81811015611f0957611efe600082611ed2565b600181019050611eeb565b5050565b601f821115611f4e57611f1f81611bad565b611f2884611e03565b81016020851015611f37578190505b611f4b611f4385611e03565b830182611eea565b50505b505050565b600082821c905092915050565b6000611f7160001984600802611f53565b1980831691505092915050565b6000611f8a8383611f60565b9150826002028217905092915050565b611fa3826118d3565b67ffffffffffffffff811115611fbc57611fbb61155b565b5b611fc68254611b4d565b611fd1828285611f0d565b600060209050601f8311600181146120045760008415611ff2578287015190505b611ffc8582611f7e565b865550612064565b601f19841661201286611bad565b60005b8281101561203a57848901518255600182019150602085019450602081019050612015565b868310156120575784890151612053601f891682611f60565b8355505b6001600288020188555050505b505050505050565b600060408201905081810360008301526120868185611919565b9050818103602083015261209a8184611919565b90509392505050565b7f4e487b7100000000000000000000000000000000000000000000000000000000600052601160045260246000fd5b60006120dd82611719565b91507fffffffffffffffffffffffffffffffffffffffffffffffffffffffffffffffff820361210f5761210e6120a3565b5b600182019050919050565b7f496e76616c696420726571756573742049440000000000000000000000000000600082015250565b60006121506012836118de565b915061215b8261211a565b602082019050919050565b6000602082019050818103600083015261217f81612143565b9050919050565b600061219182611719565b915061219c83611719565b92508282019050808211156121b4576121b36120a3565b5b92915050565b7f4e487b7100000000000000000000000000000000000000000000000000000000600052601260045260246000fd5b60006121f482611719565b91506121ff83611719565b92508261220f5761220e6121ba565b5b828204905092915050565b600060408201905061222f600083018561170a565b61223c6020830184611723565b9392505050565b6000608082019050818103600083015261225d8187611919565b905081810360208301526122718186611919565b905081810360408301526122858185611919565b90506122946060830184611723565b95945050505050565b60006020820190506122b260008301846118c4565b92915050565b6000815190506122c781611839565b92915050565b6000602082840312156122e3576122e2611536565b5b60006122f1848285016122b8565b91505092915050565b600060408201905061230f60008301856118c4565b61231c6020830184611723565b9392505050565b61232c816116fe565b811461233757600080fd5b50565b60008151905061234981612323565b92915050565b60006020828403121561236557612364611536565b5b60006123738482850161233a565b91505092915050565b7f556e61626c6520746f207472616e736665720000000000000000000000000000600082015250565b60006123b26012836118de565b91506123bd8261237c565b602082019050919050565b600060208201905081810360008301526123e1816123a5565b9050919050565b7f4e6f206f7261636c657320736574000000000000000000000000000000000000600082015250565b600061241e600e836118de565b9150612429826123e8565b602082019050919050565b6000602082019050818103600083015261244d81612411565b9050919050565b7f2f00000000000000000000000000000000000000000000000000000000000000600082015250565b600061248a600183611acb565b915061249582612454565b600182019050919050565b60006124ac8287611bc2565b91506124b88286611ad6565b91506124c382611c6e565b91506124cf8285611ad6565b91506124da8261247d565b91506124e68284611ad6565b915081905095945050505050565b7f6261676761676553746174757300000000000000000000000000000000000000600082015250565b600061252a600d836118de565b9150612535826124f4565b602082019050919050565b600060c08201905061255560008301886118c4565b6125626020830187611cf9565b61256f6040830186611723565b61257c606083018561195c565b818103608083015261258e8184611919565b905081810360a08301526125a18161251d565b90509695505050505050565b600060608201905081810360008301526125c78186611919565b905081810360208301526125db8185611919565b905081810360408301526125ef8184611919565b905094935050505056fea2646970667358221220dd1751638ec53699512d83be158533070d4e7de8eadaf1bebeea549d72e359d364736f6c63430008130033",
  "linkReferences": {},
  "deployedLinkReferences": {}
}