{
  "_format": "hh-sol-artifact-1",
  "contractName": "OracleConnector",
  "sourceName": "contracts/OracleConnector.sol",
  "abi": [
    {
      "inputs": [
        {
          "internalType": "address",
          "name": "_linkToken",
          "type": "address"
        }
      ],
      "stateMutability": "nonpayable",
      "type": "constructor"
    },
    {
      "anonymous": false,
      "inputs": [
        {
          "indexed": true,
          "internalType": "bytes32",
          "name": "requestId",
          "type": "bytes32"
        },
        {
          "indexed": false,
          "internalType": "string",
          "name": "flightNumber",
          "type": "string"
        },
        {
          "indexed": false,
          "internalType": "string",
          "name": "departureTime",
          "type": "string"
        },
        {
          "indexed": false,
          "internalType": "string",
          "name": "itemDescription",
          "type": "string"
        },
        {
          "indexed": false,
          "internalType": "uint256",
          "name": "retrievedBaggageStatus",
          "type": "uint256"
        }
      ],
      "name": "BaggageDataRecieved",
      "type": "event"
    },
    {
      "anonymous": false,
      "inputs": [
        {
          "indexed": true,
          "internalType": "bytes32",
          "name": "requestId",
          "type": "bytes32"
        },
        {
          "indexed": false,
          "internalType": "string",
          "name": "flightNumber",
          "type": "string"
        },
        {
          "indexed": false,
          "internalType": "string",
          "name": "departureTime",
          "type": "string"
        },
        {
          "indexed": false,
          "internalType": "string",
          "name": "itemDescription",
          "type": "string"
        }
      ],
      "name": "BaggageDataRequested",
      "type": "event"
    },
    {
      "anonymous": false,
      "inputs": [
        {
          "indexed": true,
          "internalType": "bytes32",
          "name": "id",
          "type": "bytes32"
        }
      ],
      "name": "ChainlinkCancelled",
      "type": "event"
    },
    {
      "anonymous": false,
      "inputs": [
        {
          "indexed": true,
          "internalType": "bytes32",
          "name": "id",
          "type": "bytes32"
        }
      ],
      "name": "ChainlinkFulfilled",
      "type": "event"
    },
    {
      "anonymous": false,
      "inputs": [
        {
          "indexed": true,
          "internalType": "bytes32",
          "name": "id",
          "type": "bytes32"
        }
      ],
      "name": "ChainlinkRequested",
      "type": "event"
    },
    {
      "anonymous": false,
      "inputs": [
        {
          "indexed": true,
          "internalType": "bytes32",
          "name": "requestId",
          "type": "bytes32"
        },
        {
          "indexed": false,
          "internalType": "string",
          "name": "flightNumber",
          "type": "string"
        },
        {
          "indexed": false,
          "internalType": "string",
          "name": "departureTime",
          "type": "string"
        },
        {
          "indexed": false,
          "internalType": "bool",
          "name": "isDelayed",
          "type": "bool"
        },
        {
          "indexed": false,
          "internalType": "uint256",
          "name": "delayMinutes",
          "type": "uint256"
        }
      ],
      "name": "FlightDataReceived",
      "type": "event"
    },
    {
      "anonymous": false,
      "inputs": [
        {
          "indexed": true,
          "internalType": "bytes32",
          "name": "requestId",
          "type": "bytes32"
        },
        {
          "indexed": false,
          "internalType": "string",
          "name": "flightNumber",
          "type": "string"
        },
        {
          "indexed": false,
          "internalType": "string",
          "name": "departureTime",
          "type": "string"
        }
      ],
      "name": "FlightDataRequested",
      "type": "event"
    },
    {
      "anonymous": false,
      "inputs": [
        {
          "indexed": true,
          "internalType": "address",
          "name": "previousOwner",
          "type": "address"
        },
        {
          "indexed": true,
          "internalType": "address",
          "name": "newOwner",
          "type": "address"
        }
      ],
      "name": "OwnershipTransferred",
      "type": "event"
    },
    {
      "inputs": [
        {
          "internalType": "address",
          "name": "_oracle",
          "type": "address"
        },
        {
          "internalType": "string",
          "name": "_oracleAPIUrl",
          "type": "string"
        },
        {
          "internalType": "bytes32",
          "name": "_jobId",
          "type": "bytes32"
        }
      ],
      "name": "addOracle",
      "outputs": [],
      "stateMutability": "nonpayable",
      "type": "function"
    },
    {
      "inputs": [
        {
          "internalType": "string",
          "name": "_flightNumber",
          "type": "string"
        },
        {
          "internalType": "string",
          "name": "_departureTime",
          "type": "string"
        },
        {
          "internalType": "string",
          "name": "_itemDescription",
          "type": "string"
        }
      ],
      "name": "checkBaggageStatus",
      "outputs": [
        {
          "internalType": "bool",
          "name": "dataReceived",
          "type": "bool"
        },
        {
          "internalType": "bool",
          "name": "baggageStatus",
          "type": "bool"
        }
      ],
      "stateMutability": "view",
      "type": "function"
    },
    {
      "inputs": [
        {
          "internalType": "string",
          "name": "_flightNumber",
          "type": "string"
        },
        {
          "internalType": "string",
          "name": "_departureTime",
          "type": "string"
        }
      ],
      "name": "checkFlightStatus",
      "outputs": [
        {
          "internalType": "bool",
          "name": "dataReceived",
          "type": "bool"
        },
        {
          "internalType": "bool",
          "name": "isDelayed",
          "type": "bool"
        },
        {
          "internalType": "uint256",
          "name": "delayHours",
          "type": "uint256"
        }
      ],
      "stateMutability": "view",
      "type": "function"
    },
    {
      "inputs": [
        {
          "internalType": "bytes32",
          "name": "_requestId",
          "type": "bytes32"
        },
        {
          "internalType": "uint256",
          "name": "_baggageStatus",
          "type": "uint256"
        }
      ],
      "name": "fulfillBaggageData",
      "outputs": [],
      "stateMutability": "nonpayable",
      "type": "function"
    },
    {
      "inputs": [
        {
          "internalType": "bytes32",
          "name": "_requestId",
          "type": "bytes32"
        },
        {
          "internalType": "uint256",
          "name": "_delayMinutes",
          "type": "uint256"
        }
      ],
      "name": "fulfillFlightData",
      "outputs": [],
      "stateMutability": "nonpayable",
      "type": "function"
    },
    {
      "inputs": [
        {
          "internalType": "string",
          "name": "_flightNumber",
          "type": "string"
        },
        {
          "internalType": "string",
          "name": "_departureTime",
          "type": "string"
        },
        {
          "internalType": "string",
          "name": "_itemDescription",
          "type": "string"
        }
      ],
      "name": "getBaggageStatus",
      "outputs": [
        {
          "internalType": "bool",
          "name": "dataReceived",
          "type": "bool"
        },
        {
          "internalType": "bool",
          "name": "baggageStatus",
          "type": "bool"
        }
      ],
      "stateMutability": "nonpayable",
      "type": "function"
    },
    {
      "inputs": [
        {
          "internalType": "string",
          "name": "_flightNumber",
          "type": "string"
        },
        {
          "internalType": "string",
          "name": "_departureTime",
          "type": "string"
        }
      ],
      "name": "getFlightStatus",
      "outputs": [
        {
          "internalType": "bool",
          "name": "dataReceived",
          "type": "bool"
        },
        {
          "internalType": "bool",
          "name": "isDelayed",
          "type": "bool"
        },
        {
          "internalType": "uint256",
          "name": "delayHours",
          "type": "uint256"
        }
      ],
      "stateMutability": "nonpayable",
      "type": "function"
    },
    {
      "inputs": [
        {
          "internalType": "uint256",
          "name": "",
          "type": "uint256"
        }
      ],
      "name": "oracles",
      "outputs": [
        {
          "internalType": "address",
          "name": "oracle",
          "type": "address"
        },
        {
          "internalType": "string",
          "name": "oracleAPIUrl",
          "type": "string"
        },
        {
          "internalType": "bytes32",
          "name": "jobId",
          "type": "bytes32"
        }
      ],
      "stateMutability": "view",
      "type": "function"
    },
    {
      "inputs": [],
      "name": "owner",
      "outputs": [
        {
          "internalType": "address",
          "name": "",
          "type": "address"
        }
      ],
      "stateMutability": "view",
      "type": "function"
    },
    {
      "inputs": [],
      "name": "renounceOwnership",
      "outputs": [],
      "stateMutability": "nonpayable",
      "type": "function"
    },
    {
      "inputs": [
        {
          "internalType": "string",
          "name": "_flightNumber",
          "type": "string"
        },
        {
          "internalType": "string",
          "name": "_departureTime",
          "type": "string"
        },
        {
          "internalType": "string",
          "name": "_itemDescription",
          "type": "string"
        }
      ],
      "name": "requestBaggageData",
      "outputs": [
        {
          "internalType": "bytes32",
          "name": "requestId",
          "type": "bytes32"
        }
      ],
      "stateMutability": "nonpayable",
      "type": "function"
    },
    {
      "inputs": [
        {
          "internalType": "string",
          "name": "_flightNumber",
          "type": "string"
        },
        {
          "internalType": "string",
          "name": "_departureTime",
          "type": "string"
        }
      ],
      "name": "requestFlightData",
      "outputs": [
        {
          "internalType": "bytes32",
          "name": "requestId",
          "type": "bytes32"
        }
      ],
      "stateMutability": "nonpayable",
      "type": "function"
    },
    {
      "inputs": [
        {
          "internalType": "address",
          "name": "newOwner",
          "type": "address"
        }
      ],
      "name": "transferOwnership",
      "outputs": [],
      "stateMutability": "nonpayable",
      "type": "function"
    },
    {
      "inputs": [],
      "name": "withdrawLink",
      "outputs": [],
      "stateMutability": "nonpayable",
      "type": "function"
    }
  ],
  "bytecode": "0x60806040526001600455603c6009553480156200001b57600080fd5b5060405162002c5238038062002c52833981810160405281019062000041919062000204565b62000061620000556200008860201b60201c565b6200009060201b60201c565b62000072816200015660201b60201c565b67016345785d8a00006008819055505062000236565b600033905090565b6000600660009054906101000a900473ffffffffffffffffffffffffffffffffffffffff16905081600660006101000a81548173ffffffffffffffffffffffffffffffffffffffff021916908373ffffffffffffffffffffffffffffffffffffffff1602179055508173ffffffffffffffffffffffffffffffffffffffff168173ffffffffffffffffffffffffffffffffffffffff167f8be0079c531659141344cd1fd0a4f28419497f9722a3daafe3b4186f6b6457e060405160405180910390a35050565b80600260006101000a81548173ffffffffffffffffffffffffffffffffffffffff021916908373ffffffffffffffffffffffffffffffffffffffff16021790555050565b600080fd5b600073ffffffffffffffffffffffffffffffffffffffff82169050919050565b6000620001cc826200019f565b9050919050565b620001de81620001bf565b8114620001ea57600080fd5b50565b600081519050620001fe81620001d3565b92915050565b6000602082840312156200021d576200021c6200019a565b5b60006200022d84828501620001ed565b91505092915050565b612a0c80620002466000396000f3fe608060405234801561001057600080fd5b50600436106100ea5760003560e01c80638da5cb5b1161008c578063c48c8ab311610066578063c48c8ab31461024f578063cc6b03b61461026b578063efa3d1131461029d578063f2fde38b146102cd576100ea565b80638da5cb5b146101f65780638dc654a214610214578063927f8ae61461021e576100ea565b80636e229bec116100c85780636e229bec14610184578063715018a6146101b457806378eb5640146101be5780637a778718146101da576100ea565b806326ec641e146100ef5780634bfdcb64146101215780635b69a7d814610152575b600080fd5b6101096004803603810190610104919061190e565b6102e9565b604051610118939291906119ba565b60405180910390f35b61013b600480360381019061013691906119f1565b6103ba565b604051610149929190611a98565b60405180910390f35b61016c60048036038101906101679190611aed565b610448565b60405161017b93929190611bf3565b60405180910390f35b61019e6004803603810190610199919061190e565b61052a565b6040516101ab9190611c31565b60405180910390f35b6101bc6107fc565b005b6101d860048036038101906101d39190611c78565b610810565b005b6101f460048036038101906101ef9190611c78565b610bb5565b005b6101fe610ec9565b60405161020b9190611cb8565b60405180910390f35b61021c610ef3565b005b610238600480360381019061023391906119f1565b611040565b604051610246929190611a98565b60405180910390f35b61026960048036038101906102649190611cff565b611120565b005b6102856004803603810190610280919061190e565b6111f2565b604051610294939291906119ba565b60405180910390f35b6102b760048036038101906102b291906119f1565b61126b565b6040516102c49190611c31565b60405180910390f35b6102e760048036038101906102e29190611d6e565b6115bb565b005b600080600080600d866040516102ff9190611dd7565b90815260200160405180910390208560405161031b9190611dd7565b908152602001604051809103902090508060060160009054906101000a900460ff1615610377578060060160009054906101000a900460ff168160020160009054906101000a900460ff168260050154935093509350506103b3565b610381868661052a565b508060060160009054906101000a900460ff168160020160009054906101000a900460ff168260050154935093509350505b9250925092565b6000806000600e866040516103cf9190611dd7565b9081526020016040518091039020856040516103eb9190611dd7565b9081526020016040518091039020846040516104079190611dd7565b908152602001604051809103902090508060010160019054906101000a900460ff168160010160009054906101000a900460ff169250925050935093915050565b6007818154811061045857600080fd5b90600052602060002090600302016000915090508060000160009054906101000a900473ffffffffffffffffffffffffffffffffffffffff16908060010180546104a190611e1d565b80601f01602080910402602001604051908101604052809291908181526020018280546104cd90611e1d565b801561051a5780601f106104ef5761010080835404028352916020019161051a565b820191906000526020600020905b8154815290600101906020018083116104fd57829003601f168201915b5050505050908060020154905083565b600061053461163e565b60005b6007805490508110156107f55760006007828154811061055a57610559611e4e565b5b9060005260206000209060030201600101858560405160200161057f93929190611f61565b6040516020818303038152906040529050600782815481106105a4576105a3611e4e565b5b906000526020600020906003020160000160009054906101000a900473ffffffffffffffffffffffffffffffffffffffff1673ffffffffffffffffffffffffffffffffffffffff1663f28f4864306378eb564060e01b6008546007878154811061061157610610611e4e565b5b906000526020600020906003020160020154866040518663ffffffff1660e01b8152600401610644959493929190612024565b6020604051808303816000875af1158015610663573d6000803e3d6000fd5b505050506040513d601f19601f8201168201806040525081019061068791906120a6565b925084600a600085815260200190815260200160002090816106a9919061226a565b5083600b600085815260200190815260200160002090816106ca919061226a565b506000600d866040516106dd9190611dd7565b9081526020016040518091039020856040516106f99190611dd7565b908152602001604051809103902060070154036107a75784600d866040516107219190611dd7565b90815260200160405180910390208560405161073d9190611dd7565b9081526020016040518091039020600001908161075a919061226a565b5083600d8660405161076c9190611dd7565b9081526020016040518091039020856040516107889190611dd7565b908152602001604051809103902060010190816107a5919061226a565b505b827fb26113e7b01bcaf1c531a374b222800f33739a1265420cb172d334695ca8c6fd86866040516107d992919061233c565b60405180910390a25080806107ed906123a2565b915050610537565b5092915050565b61080461163e565b61080e60006116bc565b565b6000600a6000848152602001908152602001600020805461083090611e1d565b80601f016020809104026020016040519081016040528092919081815260200182805461085c90611e1d565b80156108a95780601f1061087e576101008083540402835291602001916108a9565b820191906000526020600020905b81548152906001019060200180831161088c57829003601f168201915b505050505090506000600b600085815260200190815260200160002080546108d090611e1d565b80601f01602080910402602001604051908101604052809291908181526020018280546108fc90611e1d565b80156109495780601f1061091e57610100808354040283529160200191610949565b820191906000526020600020905b81548152906001019060200180831161092c57829003601f168201915b505050505090506000825111610994576040517f08c379a000000000000000000000000000000000000000000000000000000000815260040161098b90612436565b60405180910390fd5b6000600d836040516109a69190611dd7565b9081526020016040518091039020826040516109c29190611dd7565b908152602001604051809103902090508060090160003373ffffffffffffffffffffffffffffffffffffffff1673ffffffffffffffffffffffffffffffffffffffff16815260200190815260200160002060009054906101000a900460ff1615610a2e57505050610bb1565b83816003016000828254610a429190612456565b92505081905550806007016000815480929190610a5e906123a2565b919050555060018160090160003373ffffffffffffffffffffffffffffffffffffffff1673ffffffffffffffffffffffffffffffffffffffff16815260200190815260200160002060006101000a81548160ff021916908315150217905550600081600701548260030154610ad391906124b9565b9050808260040181905550603c81610aeb91906124b9565b826005018190555060018260060160006101000a81548160ff0219169083151502179055506009548110610b3b5760018260020160006101000a81548160ff021916908315150217905550610b59565b60008260020160006101000a81548160ff0219169083151502179055505b857ffb77f6b1be2c38266dafd7bc10d29c4520057d5615ffb7e78e32cd23b5747a0785858560020160009054906101000a900460ff168660040154604051610ba494939291906124ea565b60405180910390a2505050505b5050565b6000600c600084815260200190815260200160002090506000816000018054610bdd90611e1d565b80601f0160208091040260200160405190810160405280929190818152602001828054610c0990611e1d565b8015610c565780601f10610c2b57610100808354040283529160200191610c56565b820191906000526020600020905b815481529060010190602001808311610c3957829003601f168201915b505050505090506000826001018054610c6e90611e1d565b80601f0160208091040260200160405190810160405280929190818152602001828054610c9a90611e1d565b8015610ce75780601f10610cbc57610100808354040283529160200191610ce7565b820191906000526020600020905b815481529060010190602001808311610cca57829003601f168201915b505050505090506000836002018054610cff90611e1d565b80601f0160208091040260200160405190810160405280929190818152602001828054610d2b90611e1d565b8015610d785780601f10610d4d57610100808354040283529160200191610d78565b820191906000526020600020905b815481529060010190602001808311610d5b57829003601f168201915b505050505090506000815111610dc3576040517f08c379a0000000000000000000000000000000000000000000000000000000008152600401610dba90612436565b60405180910390fd5b6000600e84604051610dd59190611dd7565b908152602001604051809103902083604051610df19190611dd7565b908152602001604051809103902082604051610e0d9190611dd7565b9081526020016040518091039020905060018160010160016101000a81548160ff02191690831515021790555060008603610e645760008160010160006101000a81548160ff021916908315150217905550610e82565b60018160010160006101000a81548160ff0219169083151502179055505b867fadd8b82bcba8488c3cb557cb04d35dc5076518ae1edbc9dd1efe1dbaaa64a2718585858a604051610eb8949392919061253d565b60405180910390a250505050505050565b6000600660009054906101000a900473ffffffffffffffffffffffffffffffffffffffff16905090565b610efb61163e565b6000610f05611782565b90508073ffffffffffffffffffffffffffffffffffffffff1663a9059cbb338373ffffffffffffffffffffffffffffffffffffffff166370a08231306040518263ffffffff1660e01b8152600401610f5d9190611cb8565b602060405180830381865afa158015610f7a573d6000803e3d6000fd5b505050506040513d601f19601f82011682018060405250810190610f9e91906125ac565b6040518363ffffffff1660e01b8152600401610fbb9291906125d9565b6020604051808303816000875af1158015610fda573d6000803e3d6000fd5b505050506040513d601f19601f82011682018060405250810190610ffe919061262e565b61103d576040517f08c379a0000000000000000000000000000000000000000000000000000000008152600401611034906126a7565b60405180910390fd5b50565b6000806000600e866040516110559190611dd7565b9081526020016040518091039020856040516110719190611dd7565b90815260200160405180910390208460405161108d9190611dd7565b908152602001604051809103902090508060010160019054906101000a900460ff16156110e2578060010160019054906101000a900460ff168160010160009054906101000a900460ff169250925050611118565b6110ed86868661126b565b508060010160019054906101000a900460ff168160010160009054906101000a900460ff1692509250505b935093915050565b61112861163e565b600760405180606001604052808573ffffffffffffffffffffffffffffffffffffffff16815260200184815260200183815250908060018154018082558091505060019003906000526020600020906003020160009091909190915060008201518160000160006101000a81548173ffffffffffffffffffffffffffffffffffffffff021916908373ffffffffffffffffffffffffffffffffffffffff16021790555060208201518160010190816111e0919061226a565b50604082015181600201555050505050565b600080600080600d866040516112089190611dd7565b9081526020016040518091039020856040516112249190611dd7565b908152602001604051809103902090508060060160009054906101000a900460ff168160020160009054906101000a900460ff168260050154935093509350509250925092565b600061127561163e565b6000600780549050116112bd576040517f08c379a00000000000000000000000000000000000000000000000000000000081526004016112b490612713565b60405180910390fd5b60005b6007805490508110156115b3576000600782815481106112e3576112e2611e4e565b5b906000526020600020906003020160010186868660405160200161130a949392919061277f565b60405160208183030381529060405290506007828154811061132f5761132e611e4e565b5b906000526020600020906003020160000160009054906101000a900473ffffffffffffffffffffffffffffffffffffffff1673ffffffffffffffffffffffffffffffffffffffff1663f28f486430637a77871860e01b6008546007878154811061139c5761139b611e4e565b5b906000526020600020906003020160020154866040518663ffffffff1660e01b81526004016113cf95949392919061281f565b6020604051808303816000875af11580156113ee573d6000803e3d6000fd5b505050506040513d601f19601f8201168201806040525081019061141291906120a6565b9250604051806060016040528087815260200186815260200185815250600c60008581526020019081526020016000206000820151816000019081611457919061226a565b50602082015181600101908161146d919061226a565b506040820151816002019081611483919061226a565b509050506000600d876040516114999190611dd7565b9081526020016040518091039020866040516114b59190611dd7565b908152602001604051809103902060070154036115635785600d876040516114dd9190611dd7565b9081526020016040518091039020866040516114f99190611dd7565b90815260200160405180910390206000019081611516919061226a565b5084600d876040516115289190611dd7565b9081526020016040518091039020866040516115449190611dd7565b90815260200160405180910390206001019081611561919061226a565b505b827fd318d5abf7200d94903a4c1d08cb6d32e5a1c5ba41a730533ff41895cafa36f18787876040516115979392919061288c565b60405180910390a25080806115ab906123a2565b9150506112c0565b509392505050565b6115c361163e565b600073ffffffffffffffffffffffffffffffffffffffff168173ffffffffffffffffffffffffffffffffffffffff1603611632576040517f08c379a00000000000000000000000000000000000000000000000000000000081526004016116299061294a565b60405180910390fd5b61163b816116bc565b50565b6116466117ac565b73ffffffffffffffffffffffffffffffffffffffff16611664610ec9565b73ffffffffffffffffffffffffffffffffffffffff16146116ba576040517f08c379a00000000000000000000000000000000000000000000000000000000081526004016116b1906129b6565b60405180910390fd5b565b6000600660009054906101000a900473ffffffffffffffffffffffffffffffffffffffff16905081600660006101000a81548173ffffffffffffffffffffffffffffffffffffffff021916908373ffffffffffffffffffffffffffffffffffffffff1602179055508173ffffffffffffffffffffffffffffffffffffffff168173ffffffffffffffffffffffffffffffffffffffff167f8be0079c531659141344cd1fd0a4f28419497f9722a3daafe3b4186f6b6457e060405160405180910390a35050565b6000600260009054906101000a900473ffffffffffffffffffffffffffffffffffffffff16905090565b600033905090565b6000604051905090565b600080fd5b600080fd5b600080fd5b600080fd5b6000601f19601f8301169050919050565b7f4e487b7100000000000000000000000000000000000000000000000000000000600052604160045260246000fd5b61181b826117d2565b810181811067ffffffffffffffff8211171561183a576118396117e3565b5b80604052505050565b600061184d6117b4565b90506118598282611812565b919050565b600067ffffffffffffffff821115611879576118786117e3565b5b611882826117d2565b9050602081019050919050565b82818337600083830152505050565b60006118b16118ac8461185e565b611843565b9050828152602081018484840111156118cd576118cc6117cd565b5b6118d884828561188f565b509392505050565b600082601f8301126118f5576118f46117c8565b5b813561190584826020860161189e565b91505092915050565b60008060408385031215611925576119246117be565b5b600083013567ffffffffffffffff811115611943576119426117c3565b5b61194f858286016118e0565b925050602083013567ffffffffffffffff8111156119705761196f6117c3565b5b61197c858286016118e0565b9150509250929050565b60008115159050919050565b61199b81611986565b82525050565b6000819050919050565b6119b4816119a1565b82525050565b60006060820190506119cf6000830186611992565b6119dc6020830185611992565b6119e960408301846119ab565b949350505050565b600080600060608486031215611a0a57611a096117be565b5b600084013567ffffffffffffffff811115611a2857611a276117c3565b5b611a34868287016118e0565b935050602084013567ffffffffffffffff811115611a5557611a546117c3565b5b611a61868287016118e0565b925050604084013567ffffffffffffffff811115611a8257611a816117c3565b5b611a8e868287016118e0565b9150509250925092565b6000604082019050611aad6000830185611992565b611aba6020830184611992565b9392505050565b611aca816119a1565b8114611ad557600080fd5b50565b600081359050611ae781611ac1565b92915050565b600060208284031215611b0357611b026117be565b5b6000611b1184828501611ad8565b91505092915050565b600073ffffffffffffffffffffffffffffffffffffffff82169050919050565b6000611b4582611b1a565b9050919050565b611b5581611b3a565b82525050565b600081519050919050565b600082825260208201905092915050565b60005b83811015611b95578082015181840152602081019050611b7a565b60008484015250505050565b6000611bac82611b5b565b611bb68185611b66565b9350611bc6818560208601611b77565b611bcf816117d2565b840191505092915050565b6000819050919050565b611bed81611bda565b82525050565b6000606082019050611c086000830186611b4c565b8181036020830152611c1a8185611ba1565b9050611c296040830184611be4565b949350505050565b6000602082019050611c466000830184611be4565b92915050565b611c5581611bda565b8114611c6057600080fd5b50565b600081359050611c7281611c4c565b92915050565b60008060408385031215611c8f57611c8e6117be565b5b6000611c9d85828601611c63565b9250506020611cae85828601611ad8565b9150509250929050565b6000602082019050611ccd6000830184611b4c565b92915050565b611cdc81611b3a565b8114611ce757600080fd5b50565b600081359050611cf981611cd3565b92915050565b600080600060608486031215611d1857611d176117be565b5b6000611d2686828701611cea565b935050602084013567ffffffffffffffff811115611d4757611d466117c3565b5b611d53868287016118e0565b9250506040611d6486828701611c63565b9150509250925092565b600060208284031215611d8457611d836117be565b5b6000611d9284828501611cea565b91505092915050565b600081905092915050565b6000611db182611b5b565b611dbb8185611d9b565b9350611dcb818560208601611b77565b80840191505092915050565b6000611de38284611da6565b915081905092915050565b7f4e487b7100000000000000000000000000000000000000000000000000000000600052602260045260246000fd5b60006002820490506001821680611e3557607f821691505b602082108103611e4857611e47611dee565b5b50919050565b7f4e487b7100000000000000000000000000000000000000000000000000000000600052603260045260246000fd5b60008190508160005260206000209050919050565b60008154611e9f81611e1d565b611ea98186611d9b565b94506001821660008114611ec45760018114611ed957611f0c565b60ff1983168652811515820286019350611f0c565b611ee285611e7d565b60005b83811015611f0457815481890152600182019150602081019050611ee5565b838801955050505b50505092915050565b7f3f6465706172747572653d000000000000000000000000000000000000000000600082015250565b6000611f4b600b83611d9b565b9150611f5682611f15565b600b82019050919050565b6000611f6d8286611e92565b9150611f798285611da6565b9150611f8482611f3e565b9150611f908284611da6565b9150819050949350505050565b60007fffffffff0000000000000000000000000000000000000000000000000000000082169050919050565b611fd281611f9d565b82525050565b7f64656c61794d696e757465730000000000000000000000000000000000000000600082015250565b600061200e600c83611b66565b915061201982611fd8565b602082019050919050565b600060c0820190506120396000830188611b4c565b6120466020830187611fc9565b61205360408301866119ab565b6120606060830185611be4565b81810360808301526120728184611ba1565b905081810360a083015261208581612001565b90509695505050505050565b6000815190506120a081611c4c565b92915050565b6000602082840312156120bc576120bb6117be565b5b60006120ca84828501612091565b91505092915050565b60006020601f8301049050919050565b600082821b905092915050565b6000600883026121207fffffffffffffffffffffffffffffffffffffffffffffffffffffffffffffffff826120e3565b61212a86836120e3565b95508019841693508086168417925050509392505050565b6000819050919050565b600061216761216261215d846119a1565b612142565b6119a1565b9050919050565b6000819050919050565b6121818361214c565b61219561218d8261216e565b8484546120f0565b825550505050565b600090565b6121aa61219d565b6121b5818484612178565b505050565b5b818110156121d9576121ce6000826121a2565b6001810190506121bb565b5050565b601f82111561221e576121ef81611e7d565b6121f8846120d3565b81016020851015612207578190505b61221b612213856120d3565b8301826121ba565b50505b505050565b600082821c905092915050565b600061224160001984600802612223565b1980831691505092915050565b600061225a8383612230565b9150826002028217905092915050565b61227382611b5b565b67ffffffffffffffff81111561228c5761228b6117e3565b5b6122968254611e1d565b6122a18282856121dd565b600060209050601f8311600181146122d457600084156122c2578287015190505b6122cc858261224e565b865550612334565b601f1984166122e286611e7d565b60005b8281101561230a578489015182556001820191506020850194506020810190506122e5565b868310156123275784890151612323601f891682612230565b8355505b6001600288020188555050505b505050505050565b600060408201905081810360008301526123568185611ba1565b9050818103602083015261236a8184611ba1565b90509392505050565b7f4e487b7100000000000000000000000000000000000000000000000000000000600052601160045260246000fd5b60006123ad826119a1565b91507fffffffffffffffffffffffffffffffffffffffffffffffffffffffffffffffff82036123df576123de612373565b5b600182019050919050565b7f496e76616c696420726571756573742049440000000000000000000000000000600082015250565b6000612420601283611b66565b915061242b826123ea565b602082019050919050565b6000602082019050818103600083015261244f81612413565b9050919050565b6000612461826119a1565b915061246c836119a1565b925082820190508082111561248457612483612373565b5b92915050565b7f4e487b7100000000000000000000000000000000000000000000000000000000600052601260045260246000fd5b60006124c4826119a1565b91506124cf836119a1565b9250826124df576124de61248a565b5b828204905092915050565b600060808201905081810360008301526125048187611ba1565b905081810360208301526125188186611ba1565b90506125276040830185611992565b61253460608301846119ab565b95945050505050565b600060808201905081810360008301526125578187611ba1565b9050818103602083015261256b8186611ba1565b9050818103604083015261257f8185611ba1565b905061258e60608301846119ab565b95945050505050565b6000815190506125a681611ac1565b92915050565b6000602082840312156125c2576125c16117be565b5b60006125d084828501612597565b91505092915050565b60006040820190506125ee6000830185611b4c565b6125fb60208301846119ab565b9392505050565b61260b81611986565b811461261657600080fd5b50565b60008151905061262881612602565b92915050565b600060208284031215612644576126436117be565b5b600061265284828501612619565b91505092915050565b7f556e61626c6520746f207472616e736665720000000000000000000000000000600082015250565b6000612691601283611b66565b915061269c8261265b565b602082019050919050565b600060208201905081810360008301526126c081612684565b9050919050565b7f4e6f206f7261636c657320736574000000000000000000000000000000000000600082015250565b60006126fd600e83611b66565b9150612708826126c7565b602082019050919050565b6000602082019050818103600083015261272c816126f0565b9050919050565b7f2f00000000000000000000000000000000000000000000000000000000000000600082015250565b6000612769600183611d9b565b915061277482612733565b600182019050919050565b600061278b8287611e92565b91506127978286611da6565b91506127a282611f3e565b91506127ae8285611da6565b91506127b98261275c565b91506127c58284611da6565b915081905095945050505050565b7f6261676761676553746174757300000000000000000000000000000000000000600082015250565b6000612809600d83611b66565b9150612814826127d3565b602082019050919050565b600060c0820190506128346000830188611b4c565b6128416020830187611fc9565b61284e60408301866119ab565b61285b6060830185611be4565b818103608083015261286d8184611ba1565b905081810360a0830152612880816127fc565b90509695505050505050565b600060608201905081810360008301526128a68186611ba1565b905081810360208301526128ba8185611ba1565b905081810360408301526128ce8184611ba1565b9050949350505050565b7f4f776e61626c653a206e6577206f776e657220697320746865207a65726f206160008201527f6464726573730000000000000000000000000000000000000000000000000000602082015250565b6000612934602683611b66565b915061293f826128d8565b604082019050919050565b6000602082019050818103600083015261296381612927565b9050919050565b7f4f776e61626c653a2063616c6c6572206973206e6f7420746865206f776e6572600082015250565b60006129a0602083611b66565b91506129ab8261296a565b602082019050919050565b600060208201905081810360008301526129cf81612993565b905091905056fea264697066735822122001a14a83d132271955404173a70cbc359258216f1c51821637f838f361bbe8fe64736f6c63430008130033",
  "linkReferences": {},
  "deployedLinkReferences": {}
}